201607310010000100000000000020160701                8000000000030500010084Banco Macro                   000000000016698000000000000000000000000000000000000000000000000000000000000000000000000000000000000000000000000000000000PES00010000001000000000000000000000000000000000000000000                              000000000000000
201607310010000100000000000020160703                8000000000030500010084Banco Macro                   000000000001441000000000000000000000000000000000000000000000000000000000000000000000000000000000000000000000000000000000PES00010000001000000000000000000000000000000000000000000                              000000000000000
201607310010000100000000000020160702                8000000000030500010084Banco Macro                   000000000012507000000000000000000000000000000000000000000000000000000000000000000000000000000000000000000000000000000000PES00010000001000000000000000000000000000000000000000000                              000000000000000
201608260010000300000000000000000554                8000000000030710537484IMPRENTA MAESTRO SH           000000000021111000000000000000000000000000000000000000000000000000000000000000000000000610000000000000000000000000000000PES00010000001000000000000000000000000000000000000000000                              000000000000000
201608250010002600000000000000104223                8000000000030504155354FRATELLI BRANCA DESTILERIAS SA000000003548556000000000000000000000000000000000000000069481000000000000000000000000103994000000000000000000000000572684PES00010000001000000000000000000000000000000000000000000                              000000000000000
201608250030002600000000000000097719                8000000000030504155354FRATELLI BRANCA DESTILERIAS SA000000000088715000000000000000000000000000000000000000001738000000000000000000000000002600000000000000000000000000014317PES00010000001000000000000000000000000000000000000000000                              000000000000000
201608100030002600000000000000096812                8000000000030504155354FRATELLI BRANCA DESTILERIAS SA000000000334694000000000000000000000000000000000000000006555000000000000000000000000009808000000000000000000000000053958PES00010000001000000000000000000000000000000000000000000                              000000000000000
201608100010002600000000000000102922                8000000000030504155354FRATELLI BRANCA DESTILERIAS SA000000013387751000000000000000000000000000000000000000262188000000000000000000000000392325000000000000000000000002158312PES00010000001000000000000000000000000000000000000000000                              000000000000000
201608180030002600000000000000097292                8000000000030504155354FRATELLI BRANCA DESTILERIAS SA000000000039829000000000000000000000000000000000000000000779000000000000000000000000001167000000000000000000000000006408PES00010000001000000000000000000000000000000000000000000                              000000000000000
201608180010002600000000000000103605                8000000000030504155354FRATELLI BRANCA DESTILERIAS SA000000002655409000000000000000000000000000000000000000052025000000000000000000000000077810000000000000000000000000427221PES00010000001000000000000000000000000000000000000000000                              000000000000000
201608030030002600000000000000096384                8000000000030504155354FRATELLI BRANCA DESTILERIAS SA000000000041482000000000000000000000000000000000000000000812000000000000000000000000001216000000000000000000000000006677PES00010000001000000000000000000000000000000000000000000                              000000000000000
201608030010002600000000000000102233                8000000000030504155354FRATELLI BRANCA DESTILERIAS SA000000002765447000000000000000000000000000000000000000054176000000000000000000000000081036000000000000000000000000445142PES00010000001000000000000000000000000000000000000000000                              000000000000000
201608240010000500000000000000041463                8000000000030712155228P&H DISTRIBUCIONES SRL        000000000035931000000000000000000000000000000000000000000000000000000000000000000000001041000000000000000000000000000000PES00010000001000000000000000000000000000000000000000000                              000000000000000
201608300010000500000000000000041697                8000000000030712155228P&H DISTRIBUCIONES SRL        000000000025930000000000000000000000000000000000000000000000000000000000000000000000000749000000000000000000000000000000PES00010000001000000000000000000000000000000000000000000                              000000000000000
201608230010020200000000000000003958                8000000000030536518971SALVADOR MARINARO E HIJO SRL  000000000012492000000000000000000000000000000000000000000000000000000000000000000000000336000000000000056000000000000812PES00010000001000000000000000000000000000000000000000000                              000000000000000
201608190010020200000000000000003921                8000000000030536518971SALVADOR MARINARO E HIJO SRL  000000000024777000000000000000000000000000000000000000000000000000000000000000000000000666000000000000111000000000001610PES00010000001000000000000000000000000000000000000000000                              000000000000000
201608160010020200000000000000003885                8000000000030536518971SALVADOR MARINARO E HIJO SRL  000000000008878000000000000000000000000000000000000000000000000000000000000000000000000239000000000000040000000000000577PES00010000001000000000000000000000000000000000000000000                              000000000000000
201608090010020200000000000000003837                8000000000030536518971SALVADOR MARINARO E HIJO SRL  000000000016518000000000000000000000000000000000000000000000000000000000000000000000000444000000000000074000000000001073PES00010000001000000000000000000000000000000000000000000                              000000000000000
201607290010020200000000000000003757                8000000000030536518971SALVADOR MARINARO E HIJO SRL  000000000010968000000000000000000000000000000000000000000000000000000000000000000000000315000000000000053000000000000000PES00010000001000000000000000000000000000000000000000000                              000000000000000
201608250010000200000000000000080041                8000000000030654462328MORENO MORENO Y CIA SRL       000000000035711000000000000000000000000000000000000000000000000000000000000000000000001027000000000000171000000000000000PES00010000001000000000000000000000000000000000000000000                              000000000000000
201608220010000200000000000000079437                8000000000030654462328MORENO MORENO Y CIA SRL       000000000010260000000000000000000000000000000000000000000000000000000000000000000000000296000000000000000000000000000000PES00010000001000000000000000000000000000000000000000000                              000000000000000
201608180010000200000000000000078825                8000000000030654462328MORENO MORENO Y CIA SRL       000000000021897000000000000000000000000000000000000000000000000000000000000000000000000630000000000000105000000000000000PES00010000001000000000000000000000000000000000000000000                              000000000000000
201608150010000200000000000000078167                8000000000030654462328MORENO MORENO Y CIA SRL       000000000020699000000000000000000000000000000000000000000000000000000000000000000000000595000000000000099000000000000000PES00010000001000000000000000000000000000000000000000000                              000000000000000
201608110010000200000000000000077581                8000000000030654462328MORENO MORENO Y CIA SRL       000000000017396000000000000000000000000000000000000000000000000000000000000000000000000503000000000000000000000000000000PES00010000001000000000000000000000000000000000000000000                              000000000000000
201608080010000200000000000000076937                8000000000030654462328MORENO MORENO Y CIA SRL       000000000031958000000000000000000000000000000000000000000000000000000000000000000000000919000000000000153000000000000000PES00010000001000000000000000000000000000000000000000000                              000000000000000
201608040010000200000000000000076372                8000000000030654462328MORENO MORENO Y CIA SRL       000000000013021000000000000000000000000000000000000000000000000000000000000000000000000376000000000000000000000000000000PES00010000001000000000000000000000000000000000000000000                              000000000000000
201608010010000200000000000000075658                8000000000030654462328MORENO MORENO Y CIA SRL       000000000037767000000000000000000000000000000000000000000000000000000000000000000000001086000000000000181000000000000000PES00010000001000000000000000000000000000000000000000000                              000000000000000
201608290010000700000000000000027370                8000000000030709659150VILA SA                       000000000118898000000000000000000000000000000000000000000000000000000000000000000000003435000000000000000000000000000000PES00010000001000000000000000000000000000000000000000000                              000000000000000
201608240010000700000000000000027065                8000000000030709659150VILA SA                       000000000113441000000000000000000000000000000000000000000000000000000000000000000000003279000000000000000000000000000000PES00010000001000000000000000000000000000000000000000000                              000000000000000
201608220010000700000000000000026894                8000000000030709659150VILA SA                       000000000052502000000000000000000000000000000000000000000000000000000000000000000000001517000000000000000000000000000000PES00010000001000000000000000000000000000000000000000000                              000000000000000
201608220010000700000000000000026893                8000000000030709659150VILA SA                       000000000165460000000000000000000000000000000000000000000000000000000000000000000000004783000000000000000000000000000000PES00010000001000000000000000000000000000000000000000000                              000000000000000
201608170010000700000000000000026590                8000000000030709659150VILA SA                       000000000149878000000000000000000000000000000000000000000000000000000000000000000000004331000000000000000000000000000000PES00010000001000000000000000000000000000000000000000000                              000000000000000
201608170010000700000000000000026591                8000000000030709659150VILA SA                       000000000072138000000000000000000000000000000000000000000000000000000000000000000000002084000000000000000000000000000000PES00010000001000000000000000000000000000000000000000000                              000000000000000
201608160010000700000000000000026414                8000000000030709659150VILA SA                       000000000101058000000000000000000000000000000000000000000000000000000000000000000000002919000000000000000000000000000000PES00010000001000000000000000000000000000000000000000000                              000000000000000
201608080010000700000000000000025886                8000000000030709659150VILA SA                       000000000186556000000000000000000000000000000000000000000000000000000000000000000000005391000000000000000000000000000000PES00010000001000000000000000000000000000000000000000000                              000000000000000
201608030010000700000000000000025597                8000000000030709659150VILA SA                       000000000040411000000000000000000000000000000000000000000000000000000000000000000000001168000000000000000000000000000000PES00010000001000000000000000000000000000000000000000000                              000000000000000
201608030010000700000000000000025596                8000000000030709659150VILA SA                       000000000125284000000000000000000000000000000000000000000000000000000000000000000000003621000000000000000000000000000000PES00010000001000000000000000000000000000000000000000000                              000000000000000
201608010010000700000000000000025422                8000000000030709659150VILA SA                       000000000061097000000000000000000000000000000000000000000000000000000000000000000000001765000000000000000000000000000000PES00010000001000000000000000000000000000000000000000000                              000000000000000
201608010010000700000000000000025421                8000000000030709659150VILA SA                       000000000199094000000000000000000000000000000000000000000000000000000000000000000000005754000000000000000000000000000000PES00010000001000000000000000000000000000000000000000000                              000000000000000
201608310010000500000000000000003372                8000000000020290923515RUBEN EDUARDO RIVAROLA        000000000090203000000000004076000000000000000000000000000000000000000000000000000000002631000000000000000000000000000000PES00010000001000000000000000000000000000000000000000000                              000000000000000
201608270010000500000000000000003004                8000000000020290923515RUBEN EDUARDO RIVAROLA        000000000063197000000000003243000000000000000000000000000000000000000000000000000000001846000000000000000000000000000000PES00010000001000000000000000000000000000000000000000000                              000000000000000
201608240010000500000000000000002607                8000000000020290923515RUBEN EDUARDO RIVAROLA        000000000144643000000000006764000000000000000000000000000000000000000000000000000000004221000000000000000000000000000000PES00010000001000000000000000000000000000000000000000000                              000000000000000
201608200010000500000000000000002258                8000000000020290923515RUBEN EDUARDO RIVAROLA        000000000153446000000000007939000000000000000000000000000000000000000000000000000000004482000000000000000000000000000000PES00010000001000000000000000000000000000000000000000000                              000000000000000
201608170010000500000000000000001779                8000000000020290923515RUBEN EDUARDO RIVAROLA        000000000138393000000000006127000000000000000000000000000000000000000000000000000000004036000000000000000000000000000000PES00010000001000000000000000000000000000000000000000000                              000000000000000
201608050010000500000000000000000708                8000000000020290923515RUBEN EDUARDO RIVAROLA        000000000076198000000000003965000000000000000000000000000000000000000000000000000000002226000000000000000000000000000000PES00010000001000000000000000000000000000000000000000000                              000000000000000
201608230010000500000000000000001537                8000000000020290923515RUBEN EDUARDO RIVAROLA        000000000035058000000000001340000000000000000000000000000000000000000000000000000000001021000000000000000000000000000000PES00010000001000000000000000000000000000000000000000000                              000000000000000
201608200010000500000000000000001120                8000000000020290923515RUBEN EDUARDO RIVAROLA        000000000163990000000000008549000000000000000000000000000000000000000000000000000000004790000000000000000000000000000000PES00010000001000000000000000000000000000000000000000000                              000000000000000
201608030010000500000000000000000282                8000000000020290923515RUBEN EDUARDO RIVAROLA        000000000140998000000000006784000000000000000000000000000000000000000000000000000000004114000000000000000000000000000000PES00010000001000000000000000000000000000000000000000000                              000000000000000
201608250010001300000000000000006896                8000000000030652910234ZACARIAS PEJINAKIS E HIJOS SRL000000004043501000000000000000000000000000000000000000000000000000000000000000000000000000000000000000000000000000560625PES00010000001000000000000000000000000000000000000000000                              000000000000000
201607260010001300000000000000005183                8000000000030652910234ZACARIAS PEJINAKIS E HIJOS SRL000000005291702000000000000000000000000000000000000000000000000000000000000000000000000000000000000000000000000000689035PES00010000001000000000000000000000000000000000000000000                              000000000000000
201607260010001300000000000000005182                8000000000030652910234ZACARIAS PEJINAKIS E HIJOS SRL000000004394201000000000000000000000000000000000000000000000000000000000000000000000000000000000000000000000000000572170PES00010000001000000000000000000000000000000000000000000                              000000000000000
201608300010500300000000000000528964                8000000000030518408689SALTA REFRESCOS SA            000000000161909000000000000000000000000000000000000000000000000000000000000000000000004708000000000000530000000000007436PES00010000001000000000000000000000000000000000000000000                              000000000000000
201608270010500300000000000000528296                8000000000030518408689SALTA REFRESCOS SA            000000000124002000000000000000000000000000000000000000000000000000000000000000000000003613000000000000406000000000005797PES00010000001000000000000000000000000000000000000000000                              000000000000000
201608250010500300000000000000527526                8000000000030518408689SALTA REFRESCOS SA            000000000123638000000000000000000000000000000000000000000000000000000000000000000000003603000000000000401000000000006806PES00010000001000000000000000000000000000000000000000000                              000000000000000
201608230010500300000000000000526823                8000000000030518408689SALTA REFRESCOS SA            000000000238383000000000000000000000000000000000000000000000000000000000000000000000006939000000000000777000000000012015PES00010000001000000000000000000000000000000000000000000                              000000000000000
201608180010500300000000000000525391                8000000000030518408689SALTA REFRESCOS SA            000000000279191000000000000000000000000000000000000000006251000000000000000000000000007933000000000000896000000000011993PES00010000001000000000000000000000000000000000000000000                              000000000000000
201608160010500300000000000000524622                8000000000030518408689SALTA REFRESCOS SA            000000000154337000000000000000000000000000000000000000000000000000000000000000000000004500000000000000498000000000009117PES00010000001000000000000000000000000000000000000000000                              000000000000000
201608130010500300000000000000524165                8000000000030518408689SALTA REFRESCOS SA            000000000131529000000000000000000000000000000000000000000000000000000000000000000000003830000000000000428000000000006904PES00010000001000000000000000000000000000000000000000000                              000000000000000
201608090010500300000000000000522691                8000000000030518408689SALTA REFRESCOS SA            000000000182888000000000000000000000000000000000000000000000000000000000000000000000005313000000000000602000000000007569PES00010000001000000000000000000000000000000000000000000                              000000000000000
201608060010500300000000000000522076                8000000000030518408689SALTA REFRESCOS SA            000000000128500000000000000000000000000000000000000000000000000000000000000000000000003743000000000000417000000000006926PES00010000001000000000000000000000000000000000000000000                              000000000000000
201608020010500300000000000000520695                8000000000030518408689SALTA REFRESCOS SA            000000000228769000000000000000000000000000000000000000000000000000000000000000000000006636000000000000759000000000007930PES00010000001000000000000000000000000000000000000000000                              000000000000000
