201603280060000500000000000000000009000000000000000000099600000000000039673704MARTINEZ RODRIGO DANIEL       000000000359200000000000000000000000000000000000000000000000000000000000000000000000000000000000000000000000000000000000PES00010000001000000000000000020160328
201603290060000500000000000000000010000000000000000000109600000000000030508451PEREYRA RUSSO PAOLA ALEJANDRA 000000000359200000000000000000000000000000000000000000000000000000000000000000000000000000000000000000000000000000000000PES00010000001000000000000000020160329
201603010010000400000000000000000460000000000000000004608000000000030663005843MAXICONSUMO S A               000000000025001000000000000000000000000000000000000000000000000000000000000000000000000000000000000000000000000000000000PES00010000001000000000000000020160301
201603010010000400000000000000000461000000000000000004618000000000030714652059YANAY SRL                     000000000005600000000000000000000000000000000000000000000000000000000000000000000000000000000000000000000000000000000000PES00010000001000000000000000020160301
201603010010000400000000000000000462000000000000000004628000000000030712161570LA GAUCHADA SRL               000000000016848000000000000000000000000000000000000000000000000000000000000000000000000000000000000000000000000000000000PES00010000001000000000000000020160301
201603010010000400000000000000000463000000000000000004638000000000030606594468ROMERO IGARZABAL  S R L       000000000013000000000000000000000000000000000000000000000000000000000000000000000000000000000000000000000000000000000000PES00010000001000000000000000020160301
201603020010000400000000000000000464000000000000000004648000000000030707249850DISTRIBUIDORA FAR-PEP SOCIEDAD000000000039500000000000000000000000000000000000000000000000000000000000000000000000000000000000000000000000000000000000PES00010000001000000000000000020160302
201603020060000400000000000000000134000000000000000001349600000000000011072099CORDOVA ALICIA DEL CARMEN     000000000088750000000000000000000000000000000000000000000000000000000000000000000000000000000000000000000000000000000000PES00010000001000000000000000020160302
201603020010000400000000000000000465000000000000000004658000000000030711087733MAJA ARQUITECTURA Y CONSTRUCCI000000000012003000000000000000000000000000000000000000000000000000000000000000000000000000000000000000000000000000000000PES00010000001000000000000000020160302
201603030010000400000000000000000466000000000000000004668000000000030638110748DAL BORGO CONSTRUCCIONES S R L000000000040700000000000000000000000000000000000000000000000000000000000000000000000000000000000000000000000000000000000PES00010000001000000000000000020160303
201603030010000400000000000000000467000000000000000004678000000000020297371445RUIZ DE LOS LLANOS DIEGO NICOL000000000007800000000000000000000000000000000000000000000000000000000000000000000000000000000000000000000000000000000000PES00010000001000000000000000020160303
201603030010000400000000000000000468000000000000000004688000000000027244538784PEREZ MELENDEZ MARIA FERNANDA 000000000012000000000000000000000000000000000000000000000000000000000000000000000000000000000000000000000000000000000000PES00010000001000000000000000020160303
201603030010000400000000000000000469000000000000000004698000000000030700082101DAMESCO S A                   000000000039800000000000000000000000000000000000000000000000000000000000000000000000000000000000000000000000000000000000PES00010000001000000000000000020160303
201603030010000400000000000000000470000000000000000004708000000000020291531017OCARANZA FERNANDO ALBERTO     000000000014199000000000000000000000000000000000000000000000000000000000000000000000000000000000000000000000000000000000PES00010000001000000000000000020160303
201603030060000400000000000000000135000000000000000001358000000000030999263158MINISTERIO  DE SALUD PUBLICA D000000000014000000000000000000000000000000000000000000000000000000000000000000000000000000000000000000000000000000000000PES00010000001000000000000000020160303
201603040060000400000000000000000136000000000000000001369600000000000011072099CORDOVA ALICIA DEL CARMEN     000000000024900000000000000000000000000000000000000000000000000000000000000000000000000000000000000000000000000000000000PES00010000001000000000000000020160304
201603040010000400000000000000000471000000000000000004718000000000020235845165ALVAREZ MIRANDA RODRIGO HERNAN000000000004316000000000000000000000000000000000000000000000000000000000000000000000000000000000000000000000000000000000PES00010000001000000000000000020160304
201603040010000400000000000000000472000000000000000004728000000000020235845165ALVAREZ MIRANDA RODRIGO HERNAN000000000000629000000000000000000000000000000000000000000000000000000000000000000000000000000000000000000000000000000000PES00010000001000000000000000020160304
201603040010000400000000000000000473000000000000000004738000000000030714265993ECO FOOD S.R.L.               000000000008500000000000000000000000000000000000000000000000000000000000000000000000000000000000000000000000000000000000PES00010000001000000000000000020160304
201603050010000400000000000000000474000000000000000004748000000000030501522496VICENTE MONCHO CONSTRUCCIONES 000000000010001000000000000000000000000000000000000000000000000000000000000000000000000000000000000000000000000000000000PES00010000001000000000000000020160305
201603050010000400000000000000000475000000000000000004758000000000030707139729EL TREBOL SOCIEDAD DE RESPONSA000000000009999000000000000000000000000000000000000000000000000000000000000000000000000000000000000000000000000000000000PES00010000001000000000000000020160305
201603050010000400000000000000000476000000000000000004768000000000030710763980LOURDES SERVICIOS S.R.L.      000000000008301000000000000000000000000000000000000000000000000000000000000000000000000000000000000000000000000000000000PES00010000001000000000000000020160305
201603050060000400000000000000000137000000000000000001378000000000030999263158MINISTERIO  DE SALUD PUBLICA D000000000001200000000000000000000000000000000000000000000000000000000000000000000000000000000000000000000000000000000000PES00010000001000000000000000020160305
201603050010000400000000000000000477000000000000000004778000000000033714298459BREAKTIME S.R.L.              000000000008401000000000000000000000000000000000000000000000000000000000000000000000000000000000000000000000000000000000PES00010000001000000000000000020160305
201603050010000400000000000000000478000000000000000004788000000000023222126029SCHIOPETTO RODRIGO LUIS       000000000068001000000000000000000000000000000000000000000000000000000000000000000000000000000000000000000000000000000000PES00010000001000000000000000020160305
201603060010000400000000000000000479000000000000000004798000000000027118180165TORRICO MARIA PORFIDIA        000000000052450000000000000000000000000000000000000000000000000000000000000000000000000000000000000000000000000000000000PES00010000001000000000000000020160306
201603070010000400000000000000000480000000000000000004808000000000027293344693ROMERO MARIA FERNANDA         000000000005499000000000000000000000000000000000000000000000000000000000000000000000000000000000000000000000000000000000PES00010000001000000000000000020160307
201603080010000400000000000000000481000000000000000004818000000000020213128036AGUILERA FLAVIO JAVIER        000000000028913000000000000000000000000000000000000000000000000000000000000000000000000000000000000000000000000000000000PES00010000001000000000000000020160308
201603080010000400000000000000000482000000000000000004828000000000030687336506TELE SISTEMA  S R L           000000000033802000000000000000000000000000000000000000000000000000000000000000000000000000000000000000000000000000000000PES00010000001000000000000000020160308
201603090010000400000000000000000483000000000000000004838000000000027143756950TERRADO MARIA ALEJANDRA       000000000018003000000000000000000000000000000000000000000000000000000000000000000000000000000000000000000000000000000000PES00010000001000000000000000020160309
201603090010000400000000000000000484000000000000000004848000000000030638110748DAL BORGO CONSTRUCCIONES S R L000000000035000000000000000000000000000000000000000000000000000000000000000000000000000000000000000000000000000000000000PES00010000001000000000000000020160309
201603090060000400000000000000000138000000000000000001388000000000030999263158MINISTERIO  DE SALUD PUBLICA D000000000081000000000000000000000000000000000000000000000000000000000000000000000000000000000000000000000000000000000000PES00010000001000000000000000020160309
201603090060000400000000000000000139000000000000000001399600000000000013594929BARRERA NERY                  000000000004800000000000000000000000000000000000000000000000000000000000000000000000000000000000000000000000000000000000PES00010000001000000000000000020160309
201603100010000400000000000000000485000000000000000004858000000000030714209961KAIZEN INGENIERIA S.R.L.      000000000023292000000000000000000000000000000000000000000000000000000000000000000000000000000000000000000000000000000000PES00010000001000000000000000020160310
201603100010000400000000000000000486000000000000000004868000000000030596555655COAMTRA SOCIEDAD ANONIMA      000000000014000000000000000000000000000000000000000000000000000000000000000000000000000000000000000000000000000000000000PES00010000001000000000000000020160310
201603100060000400000000000000000140000000000000000001408000000000030999263158MINISTERIO  DE SALUD PUBLICA D000000000029000000000000000000000000000000000000000000000000000000000000000000000000000000000000000000000000000000000000PES00010000001000000000000000020160310
201603110060000400000000000000000141000000000000000001418000000000030999263158MINISTERIO  DE SALUD PUBLICA D000000000003600000000000000000000000000000000000000000000000000000000000000000000000000000000000000000000000000000000000PES00010000001000000000000000020160311
201603110060000400000000000000000142000000000000000001428000000000030999256267MINISTERIO DE EDUCACION CIENCI000000000007700000000000000000000000000000000000000000000000000000000000000000000000000000000000000000000000000000000000PES00010000001000000000000000020160311
201603110010000400000000000000000487000000000000000004878000000000030714766119PLANIAGRO FIDEICOMISO         000000000007600000000000000000000000000000000000000000000000000000000000000000000000000000000000000000000000000000000000PES00010000001000000000000000020160311
201603110010000400000000000000000488000000000000000004888000000000030711383693GRINFIL S.R.L.                000000000019800000000000000000000000000000000000000000000000000000000000000000000000000000000000000000000000000000000000PES00010000001000000000000000020160311
201603110010000400000000000000000489000000000000000004898000000000027291647052AUCACHI AIDA ALCIRA           000000000003000000000000000000000000000000000000000000000000000000000000000000000000000000000000000000000000000000000000PES00010000001000000000000000020160311
201603110060000400000000000000000143000000000000000001438000000000030999263158MINISTERIO  DE SALUD PUBLICA D000000000020000000000000000000000000000000000000000000000000000000000000000000000000000000000000000000000000000000000000PES00010000001000000000000000020160311
201603110010000400000000000000000490000000000000000004908000000000033533193469HOTEL SALTA S A               000000000015004000000000000000000000000000000000000000000000000000000000000000000000000000000000000000000000000000000000PES00010000001000000000000000020160311
201603110010000400000000000000000491000000000000000004918000000000033533193469HOTEL SALTA S A               000000000005400000000000000000000000000000000000000000000000000000000000000000000000000000000000000000000000000000000000PES00010000001000000000000000020160311
201603110060000400000000000000000144000000000000000001448000000000030681329079MINISTERIO DE AMBIENTE Y PRODU000000000067000000000000000000000000000000000000000000000000000000000000000000000000000000000000000000000000000000000000PES00010000001000000000000000020160311
201603120010000400000000000000000492000000000000000004928000000000030709236780CATERING DE LAS NUBES S.R.L.  000000000033613000000000000000000000000000000000000000000000000000000000000000000000000000000000000000000000000000000000PES00010000001000000000000000020160312
201603120010000400000000000000000493000000000000000004938000000000027137070230CANCLINI SUSANA BEATRIZ       000000000010700000000000000000000000000000000000000000000000000000000000000000000000000000000000000000000000000000000000PES00010000001000000000000000020160312
201603120010000400000000000000000494000000000000000004948000000000030710763980LOURDES SERVICIOS S.R.L.      000000000004000000000000000000000000000000000000000000000000000000000000000000000000000000000000000000000000000000000000PES00010000001000000000000000020160312
201603120060000400000000000000000145000000000000000001458000000000030999256267MINISTERIO DE EDUCACION CIENCI000000000025610000000000000000000000000000000000000000000000000000000000000000000000000000000000000000000000000000000000PES00010000001000000000000000020160312
201603120060000400000000000000000146000000000000000001468000000000030999256267MINISTERIO DE EDUCACION CIENCI000000000016500000000000000000000000000000000000000000000000000000000000000000000000000000000000000000000000000000000000PES00010000001000000000000000020160312
201603120010000400000000000000000495000000000000000004958000000000030649695365ROSSO HNOS   DE ALVARO S.ROSSO000000000035999000000000000000000000000000000000000000000000000000000000000000000000000000000000000000000000000000000000PES00010000001000000000000000020160312
201603120010000400000000000000000496000000000000000004968000000000027126802159IBANES GLADYS BEATRIZ         000000000029501000000000000000000000000000000000000000000000000000000000000000000000000000000000000000000000000000000000PES00010000001000000000000000020160312
201603130060000400000000000000000147000000000000000001479600000000000017404361SARAPURA MIGUEL ANGEL         000000000200000000000000000000000000000000000000000000000000000000000000000000000000000000000000000000000000000000000000PES00010000001000000000000000020160313
201603140060000400000000000000000148000000000000000001488000000000030631779707COLEGIO SANTO TOMAS DE AQUINO 000000000011600000000000000000000000000000000000000000000000000000000000000000000000000000000000000000000000000000000000PES00010000001000000000000000020160314
201603140010000400000000000000000497000000000000000004978000000000020286341331ANDREUSSI AGUSTIN ADRIAN      000000000007599000000000000000000000000000000000000000000000000000000000000000000000000000000000000000000000000000000000PES00010000001000000000000000020160314
201603150010000400000000000000000498000000000000000004988000000000030638110748DAL BORGO CONSTRUCCIONES S R L000000000016700000000000000000000000000000000000000000000000000000000000000000000000000000000000000000000000000000000000PES00010000001000000000000000020160315
201603150060000400000000000000000149000000000000000001498000000000030999256267MINISTERIO DE EDUCACION CIENCI000000000038600000000000000000000000000000000000000000000000000000000000000000000000000000000000000000000000000000000000PES00010000001000000000000000020160315
201603150010000400000000000000000499000000000000000004998000000000030700082101DAMESCO S A                   000000000009000000000000000000000000000000000000000000000000000000000000000000000000000000000000000000000000000000000000PES00010000001000000000000000020160315
201603150010000400000000000000000500000000000000000005008000000000020137451922GARIN JUAN PEDRO              000000000004701000000000000000000000000000000000000000000000000000000000000000000000000000000000000000000000000000000000PES00010000001000000000000000020160315
201603150010000400000000000000000501000000000000000005018000000000020072728409SUCESION DE ABDENUR HONORIO JA000000000008001000000000000000000000000000000000000000000000000000000000000000000000000000000000000000000000000000000000PES00010000001000000000000000020160315
201603150060000400000000000000000150000000000000000001508000000000030673038960MUNICIPALIDAD DE IRUYA        000000000642500000000000000000000000000000000000000000000000000000000000000000000000000000000000000000000000000000000000PES00010000001000000000000000020160315
201603160060000400000000000000000151000000000000000001518000000000030999284651POLICIA DE LA PROVINCIA DE SAL000000000006000000000000000000000000000000000000000000000000000000000000000000000000000000000000000000000000000000000000PES00010000001000000000000000020160316
201603160010000400000000000000000502000000000000000005028000000000030712988807ROJO MORA S.R.L.              000000000007000000000000000000000000000000000000000000000000000000000000000000000000000000000000000000000000000000000000PES00010000001000000000000000020160316
201603160010000400000000000000000503000000000000000005038000000000027133462460CULASSO ELIDA LIDIA           000000000008800000000000000000000000000000000000000000000000000000000000000000000000000000000000000000000000000000000000PES00010000001000000000000000020160316
201603160010000400000000000000000504000000000000000005048000000000020121115701SPINOZZI JUAN CARLOS MARCELO  000000004987499000000000000000000000000000000000000000000000000000000000000000000000000000000000000000000000000000000000PES00010000001000000000000000020160316
201603170010000400000000000000000505000000000000000005058000000000020147086912GASPARINI MAURO ALEJANDRO     000000000009200000000000000000000000000000000000000000000000000000000000000000000000000000000000000000000000000000000000PES00010000001000000000000000020160317
201603170060000400000000000000000152000000000000000001529600000000000010668968GUERRA NORA BEATRIZ           000000000035200000000000000000000000000000000000000000000000000000000000000000000000000000000000000000000000000000000000PES00010000001000000000000000020160317
201603170010000400000000000000000506000000000000000005068000000000030708772964JUMBO RETAIL ARGENTINA SOCIEDA000000000003100000000000000000000000000000000000000000000000000000000000000000000000000000000000000000000000000000000000PES00010000001000000000000000020160317
201603180010000400000000000000000507000000000000000005078000000000030616925470INDALIA S A                   000000000016020000000000000000000000000000000000000000000000000000000000000000000000000000000000000000000000000000000000PES00010000001000000000000000020160318
201603180060000400000000000000000153000000000000000001538000000000030626712068ASOCIACION DE LOS TESTIGOS DE 000000000014800000000000000000000000000000000000000000000000000000000000000000000000000000000000000000000000000000000000PES00010000001000000000000000020160318
201603180060000400000000000000000154000000000000000001548000000000030999256267MINISTERIO DE EDUCACION CIENCI000000000052540000000000000000000000000000000000000000000000000000000000000000000000000000000000000000000000000000000000PES00010000001000000000000000020160318
201603190010000400000000000000000508000000000000000005088000000000030700082101DAMESCO S A                   000000000008740000000000000000000000000000000000000000000000000000000000000000000000000000000000000000000000000000000000PES00010000001000000000000000020160319
201603190060000400000000000000000155000000000000000001558000000000030626712068ASOCIACION DE LOS TESTIGOS DE 000000000012000000000000000000000000000000000000000000000000000000000000000000000000000000000000000000000000000000000000PES00010000001000000000000000020160319
201603190010000400000000000000000509000000000000000005098000000000027293344693ROMERO MARIA FERNANDA         000000000006800000000000000000000000000000000000000000000000000000000000000000000000000000000000000000000000000000000000PES00010000001000000000000000020160319
201603220010000400000000000000000510000000000000000005108000000000020286341331ANDREUSSI AGUSTIN ADRIAN      000000000020399000000000000000000000000000000000000000000000000000000000000000000000000000000000000000000000000000000000PES00010000001000000000000000020160322
201603220010000400000000000000000511000000000000000005118000000000030712306358IL CALCIO S.R.L.              000000000007198000000000000000000000000000000000000000000000000000000000000000000000000000000000000000000000000000000000PES00010000001000000000000000020160322
201603220060000400000000000000000156000000000000000001568000000000030999256267MINISTERIO DE EDUCACION CIENCI000000000017500000000000000000000000000000000000000000000000000000000000000000000000000000000000000000000000000000000000PES00010000001000000000000000020160322
201603230060000400000000000000000157000000000000000001578000000000030999284651POLICIA DE LA PROVINCIA DE SAL000000000011000000000000000000000000000000000000000000000000000000000000000000000000000000000000000000000000000000000000PES00010000001000000000000000020160323
201603230060000400000000000000000158000000000000000001588000000000030999256267MINISTERIO DE EDUCACION CIENCI000000000004600000000000000000000000000000000000000000000000000000000000000000000000000000000000000000000000000000000000PES00010000001000000000000000020160323
201603230010000400000000000000000512000000000000000005128000000000020126927755CASTRO CRISTIAN MARCELO       000000000016000000000000000000000000000000000000000000000000000000000000000000000000000000000000000000000000000000000000PES00010000001000000000000000020160323
201603230010000400000000000000000513000000000000000005138000000000030712306358IL CALCIO S.R.L.              000000000004801000000000000000000000000000000000000000000000000000000000000000000000000000000000000000000000000000000000PES00010000001000000000000000020160323
201603230010000400000000000000000514000000000000000005148000000000020180197339PARENTIS JUAN PABLO           000000000024000000000000000000000000000000000000000000000000000000000000000000000000000000000000000000000000000000000000PES00010000001000000000000000020160323
201603230010000400000000000000000515000000000000000005158000000000020180197339PARENTIS JUAN PABLO           000000000014201000000000000000000000000000000000000000000000000000000000000000000000000000000000000000000000000000000000PES00010000001000000000000000020160323
201603230010000400000000000000000516000000000000000005168000000000027293344693ROMERO MARIA FERNANDA         000000000014000000000000000000000000000000000000000000000000000000000000000000000000000000000000000000000000000000000000PES00010000001000000000000000020160323
201603240010000400000000000000000517000000000000000005178000000000027293344693ROMERO MARIA FERNANDA         000000000012501000000000000000000000000000000000000000000000000000000000000000000000000000000000000000000000000000000000PES00010000001000000000000000020160324
201603250060000400000000000000000159000000000000000001599600000000000011158740CARRIZO DORA                  000000000014200000000000000000000000000000000000000000000000000000000000000000000000000000000000000000000000000000000000PES00010000001000000000000000020160325
201603260060000400000000000000000160000000000000000001608000000000030999263158MINISTERIO  DE SALUD PUBLICA D000000000013900000000000000000000000000000000000000000000000000000000000000000000000000000000000000000000000000000000000PES00010000001000000000000000020160326
201603260010000400000000000000000518000000000000000005188000000000030709818356ALVAREZ CHAMON SRL            000000000009399000000000000000000000000000000000000000000000000000000000000000000000000000000000000000000000000000000000PES00010000001000000000000000020160326
201603280010000400000000000000000519000000000000000005198000000000020121115701SPINOZZI JUAN CARLOS MARCELO  000000004985500000000000000000000000000000000000000000000000000000000000000000000000000000000000000000000000000000000000PES00010000001000000000000000020160328
201603280060000400000000000000000161000000000000000001618000000000030999256267MINISTERIO DE EDUCACION CIENCI000000000011500000000000000000000000000000000000000000000000000000000000000000000000000000000000000000000000000000000000PES00010000001000000000000000020160328
201603280060000400000000000000000162000000000000000001628000000000030707657533ASOCIACION MUTUAL FRONTERAS AR000000000019200000000000000000000000000000000000000000000000000000000000000000000000000000000000000000000000000000000000PES00010000001000000000000000020160328
201603290010000400000000000000000520000000000000000005208000000000030714462934GREENTEC ARGENTINA SRL        000000000010500000000000000000000000000000000000000000000000000000000000000000000000000000000000000000000000000000000000PES00010000001000000000000000020160329
201603290010000400000000000000000521000000000000000005218000000000030711334757TACOPOTI S.R.L.               000000000006002000000000000000000000000000000000000000000000000000000000000000000000000000000000000000000000000000000000PES00010000001000000000000000020160329
201603290010000400000000000000000522000000000000000005228000000000030714462934GREENTEC ARGENTINA SRL        000000000004200000000000000000000000000000000000000000000000000000000000000000000000000000000000000000000000000000000000PES00010000001000000000000000020160329
201603300010000400000000000000000523000000000000000005238000000000023076748179CORNEJO FERNANDO LUIS         000000000017800000000000000000000000000000000000000000000000000000000000000000000000000000000000000000000000000000000000PES00010000001000000000000000020160330
201603300060000400000000000000000163000000000000000001638000000000030999256267MINISTERIO DE EDUCACION CIENCI000000000070199000000000000000000000000000000000000000000000000000000000000000000000000000000000000000000000000000000000PES00010000001000000000000000020160330
201603300060000400000000000000000164000000000000000001648000000000030546690683INSTITUTO OBRA SOCIAL DEL EJER000000000006000000000000000000000000000000000000000000000000000000000000000000000000000000000000000000000000000000000000PES00010000001000000000000000020160330
201603300010000400000000000000000524000000000000000005248000000000030712042180SANTA CRUZ S.R.L.             000000000006800000000000000000000000000000000000000000000000000000000000000000000000000000000000000000000000000000000000PES00010000001000000000000000020160330
201603300010000400000000000000000525000000000000000005258000000000030710231342IMEX S.A                      000000000020211000000000000000000000000000000000000000000000000000000000000000000000000000000000000000000000000000000000PES00010000001000000000000000020160330
201603310010000400000000000000000526000000000000000005268000000000027293344693ROMERO MARIA FERNANDA         000000000009999000000000000000000000000000000000000000000000000000000000000000000000000000000000000000000000000000000000PES00010000001000000000000000020160331
201603310010000400000000000000000527000000000000000005278000000000033711568749HOTELES DEL NORTE S.R.L.      000000000033899000000000000000000000000000000000000000000000000000000000000000000000000000000000000000000000000000000000PES00010000001000000000000000020160331
201603310010000400000000000000000528000000000000000005288000000000033708296959INTECO S.R.L.                 000000000002900000000000000000000000000000000000000000000000000000000000000000000000000000000000000000000000000000000000PES00010000001000000000000000020160331
201603310010000400000000000000000529000000000000000005298000000000033711140439BERLIN MOTORS S.A.            000000000013000000000000000000000000000000000000000000000000000000000000000000000000000000000000000000000000000000000000PES00010000001000000000000000020160331
201603310010000400000000000000000530000000000000000005308000000000030711368511GEFAMED S.R.L.                000000000007000000000000000000000000000000000000000000000000000000000000000000000000000000000000000000000000000000000000PES00010000001000000000000000020160331
201603310060000400000000000000000165000000000000000001658000000000030546694263GENDARMERIA NACIONAL          000000000010500000000000000000000000000000000000000000000000000000000000000000000000000000000000000000000000000000000000PES00010000001000000000000000020160331
201603010060000100000000000000001139000000000000000011398000000000020000000001INFORME Z                     000000000425530000000000000000000000000000000000000000000000000000000000000000000000000000000000000000000000000000000000PES00010000001000000000000000020160301
201603020060000100000000000000001140000000000000000011408000000000020000000001INFORME Z                     000000000210401000000000000000000000000000000000000000000000000000000000000000000000000000000000000000000000000000000000PES00010000001000000000000000020160302
201603030060000100000000000000001141000000000000000011418000000000020000000001INFORME Z                     000000000422300000000000000000000000000000000000000000000000000000000000000000000000000000000000000000000000000000000000PES00010000001000000000000000020160303
201603040060000100000000000000001142000000000000000011428000000000020000000001INFORME Z                     000000000246100000000000000000000000000000000000000000000000000000000000000000000000000000000000000000000000000000000000PES00010000001000000000000000020160304
201603050060000100000000000000001143000000000000000011438000000000020000000001INFORME Z                     000000000489402000000000000000000000000000000000000000000000000000000000000000000000000000000000000000000000000000000000PES00010000001000000000000000020160305
201603060060000100000000000000001144000000000000000011448000000000020000000001INFORME Z                     000000000135900000000000000000000000000000000000000000000000000000000000000000000000000000000000000000000000000000000000PES00010000001000000000000000020160306
201603070060000100000000000000001145000000000000000011458000000000020000000001INFORME Z                     000000000233200000000000000000000000000000000000000000000000000000000000000000000000000000000000000000000000000000000000PES00010000001000000000000000020160307
201603080060000100000000000000001146000000000000000011468000000000020000000001INFORME Z                     000000000293300000000000000000000000000000000000000000000000000000000000000000000000000000000000000000000000000000000000PES00010000001000000000000000020160308
201603090060000100000000000000001147000000000000000011478000000000020000000001INFORME Z                     000000000284100000000000000000000000000000000000000000000000000000000000000000000000000000000000000000000000000000000000PES00010000001000000000000000020160309
201603100060000100000000000000001148000000000000000011488000000000020000000001INFORME Z                     000000000315600000000000000000000000000000000000000000000000000000000000000000000000000000000000000000000000000000000000PES00010000001000000000000000020160310
201603110060000100000000000000001149000000000000000011498000000000020000000001INFORME Z                     000000000314900000000000000000000000000000000000000000000000000000000000000000000000000000000000000000000000000000000000PES00010000001000000000000000020160311
201603120060000100000000000000001150000000000000000011508000000000020000000001INFORME Z                     000000000431054000000000000000000000000000000000000000000000000000000000000000000000000000000000000000000000000000000000PES00010000001000000000000000020160312
201603130060000100000000000000001151000000000000000011518000000000020000000001INFORME Z                     000000000054701000000000000000000000000000000000000000000000000000000000000000000000000000000000000000000000000000000000PES00010000001000000000000000020160313
201603140060000100000000000000001152000000000000000011528000000000020000000001INFORME Z                     000000000118800000000000000000000000000000000000000000000000000000000000000000000000000000000000000000000000000000000000PES00010000001000000000000000020160314
201603150060000100000000000000001153000000000000000011538000000000020000000001INFORME Z                     000000000354600000000000000000000000000000000000000000000000000000000000000000000000000000000000000000000000000000000000PES00010000001000000000000000020160315
201603160060000100000000000000001154000000000000000011548000000000020000000001INFORME Z                     000000000252443000000000000000000000000000000000000000000000000000000000000000000000000000000000000000000000000000000000PES00010000001000000000000000020160316
201603170060000100000000000000001155000000000000000011558000000000020000000001INFORME Z                     000000000231300000000000000000000000000000000000000000000000000000000000000000000000000000000000000000000000000000000000PES00010000001000000000000000020160317
201603180060000100000000000000001156000000000000000011568000000000020000000001INFORME Z                     000000000346081000000000000000000000000000000000000000000000000000000000000000000000000000000000000000000000000000000000PES00010000001000000000000000020160318
201603190060000100000000000000001157000000000000000011578000000000020000000001INFORME Z                     000000000430902000000000000000000000000000000000000000000000000000000000000000000000000000000000000000000000000000000000PES00010000001000000000000000020160319
201603200060000100000000000000001158000000000000000011588000000000020000000001INFORME Z                     000000000068200000000000000000000000000000000000000000000000000000000000000000000000000000000000000000000000000000000000PES00010000001000000000000000020160320
201603210060000100000000000000001159000000000000000011598000000000020000000001INFORME Z                     000000000157551000000000000000000000000000000000000000000000000000000000000000000000000000000000000000000000000000000000PES00010000001000000000000000020160321
201603220060000100000000000000001160000000000000000011608000000000020000000001INFORME Z                     000000000215800000000000000000000000000000000000000000000000000000000000000000000000000000000000000000000000000000000000PES00010000001000000000000000020160322
201603230060000100000000000000001161000000000000000011618000000000020000000001INFORME Z                     000000000304903000000000000000000000000000000000000000000000000000000000000000000000000000000000000000000000000000000000PES00010000001000000000000000020160323
201603240060000100000000000000001162000000000000000011628000000000020000000001INFORME Z                     000000000217501000000000000000000000000000000000000000000000000000000000000000000000000000000000000000000000000000000000PES00010000001000000000000000020160324
201603250060000100000000000000001163000000000000000011638000000000020000000001INFORME Z                     000000000050701000000000000000000000000000000000000000000000000000000000000000000000000000000000000000000000000000000000PES00010000001000000000000000020160325
201603260060000100000000000000001164000000000000000011648000000000020000000001INFORME Z                     000000000230000000000000000000000000000000000000000000000000000000000000000000000000000000000000000000000000000000000000PES00010000001000000000000000020160326
201603270060000100000000000000001165000000000000000011658000000000020000000001INFORME Z                     000000000092900000000000000000000000000000000000000000000000000000000000000000000000000000000000000000000000000000000000PES00010000001000000000000000020160327
201603280060000100000000000000001166000000000000000011668000000000020000000001INFORME Z                     000000000142000000000000000000000000000000000000000000000000000000000000000000000000000000000000000000000000000000000000PES00010000001000000000000000020160328
201603290060000100000000000000001167000000000000000011678000000000020000000001INFORME Z                     000000000231900000000000000000000000000000000000000000000000000000000000000000000000000000000000000000000000000000000000PES00010000001000000000000000020160329
201603300060000100000000000000001168000000000000000011688000000000020000000001INFORME Z                     000000000181900000000000000000000000000000000000000000000000000000000000000000000000000000000000000000000000000000000000PES00010000001000000000000000020160330
201603310060000100000000000000001169000000000000000011698000000000020000000001INFORME Z                     000000000372700000000000000000000000000000000000000000000000000000000000000000000000000000000000000000000000000000000000PES00010000001000000000000000020160331
