201606020110000200000000000000000450000000000000000004508000000000030546221314LA VELOZ DEL NORTE S A        000000001020800000000000000000000000000000000000000000000000000000000000000000000000000000000000000000000000000000000000PES00010000001000000000000000020160609
201606020110000200000000000000000451000000000000000004518000000000030548387384COOPERATIVA DE PRODUCTORES TAB000000001259241000000000000000000000000000000000000000000000000000000000000000000000000000000000000000000000000000000000PES00010000001000000000000000020160609
201606020110000200000000000000000452000000000000000004528000000000030673132622LA VELOZ HOTELES S A          000000000260761000000000000000000000000000000000000000000000000000000000000000000000000000000000000000000000000000000000PES00010000001000000000000000020160609
201606020110000200000000000000000453000000000000000004538000000000020133475797CARPIO CARLOS ENRIQUE         000000000035000000000000000000000000000000000000000000000000000000000000000000000000000000000000000000000000000000000000PES00010000001000000000000000020160609
201606020110000200000000000000000454000000000000000004548000000000030710097921TECNOBUS S.A                  000000000085615000000000000000000000000000000000000000000000000000000000000000000000000000000000000000000000000000000000PES00010000001000000000000000020160609
201606020110000200000000000000000455000000000000000004558000000000030710097921TECNOBUS S.A                  000000000085615000000000000000000000000000000000000000000000000000000000000000000000000000000000000000000000000000000000PES00010000001000000000000000020160609
