201802080060000200000000000000000001000000000000000000018000000000027279149608TITO ALBINA ISABEL            000000000048586000000000000000000000000000000000000000000000000000000000000000000000000000000000000000000000000000000000PES00010000001000000000000000000000000
201802080010000200000000000000000001000000000000000000018000000000027299102268VERRASTRO LAURA VANESA        000000000352002000000000000000000000000000000000000000000000000000000000000000000000000000000000000000000000000000000000PES00010000001000000000000000000000000
201802080010000200000000000000000002000000000000000000028000000000020302227676ZURETTI PABLO GASTON          000000000032130000000000000000000000000000000000000000000000000000000000000000000000000000000000000000000000000000000000PES00010000001000000000000000000000000
201802150010000200000000000000000003000000000000000000038000000000030715355201MK DISTRUBUCIONES SRL         000000002063968000000000000000000000000000000000000000000000000000000000000000000000000000000000000000000000000000000000PES00010000001000000000000000000000000
201802150010000200000000000000000004000000000000000000048000000000027134146600GOMEZ MARIA EUGENIA           000000000060016000000000000000000000000000000000000000000000000000000000000000000000000000000000000000000000000000000000PES00010000001000000000000000000000000
201802150060000200000000000000000002000000000000000000028000000000027347258771CASTRO GIMENA LORENA          000000000179798000000000000000000000000000000000000000000000000000000000000000000000000000000000000000000000000000000000PES00010000001000000000000000000000000
201802190010000200000000000000000005000000000000000000058000000000027134146600GOMEZ MARIA EUGENIA           000000000060016000000000000000000000000000000000000000000000000000000000000000000000000000000000000000000000000000000000PES00010000001000000000000000000000000
