201705040010000200000000000000000005000000000000000000058000000000020354796342ANDRES RENE AGUSTIN           000000001219504000000000000000000000000000000000000000000000000000000000000000000000000000000000000000000000000000000000PES00010000001000000000000000000000000
201705150060000200000000000000000012000000000000000000129600000000000030549405COLQUE JOSE DARIO             000000000181620000000000000000000000000000000000000000000000000000000000000000000000000000000000000000000000000000000000PES00010000001000000000000000000000000
201705240060000200000000000000000013000000000000000000139600000000000094357997GUTIERREZ ORELLANA CINTHYA MAR000000000076500000000000000000000000000000000000000000000000000000000000000000000000000000000000000000000000000000000000PES00010000001000000000000000000000000
