201703010820000200000000000000011644000000000000000116449900000000000000000000CONSUMIDOR FINAL              000000000005000000000000000000000000000000000000000000000000000000000000000000000000000000000000000000000000000000000000PES00010000001000000000000000000000000
201703010820000200000000000000011645000000000000000116459900000000000000000000CONSUMIDOR FINAL              000000000008000000000000000000000000000000000000000000000000000000000000000000000000000000000000000000000000000000000000PES00010000001000000000000000000000000
201703010820000200000000000000011646000000000000000116469900000000000000000000CONSUMIDOR FINAL              000000000007000000000000000000000000000000000000000000000000000000000000000000000000000000000000000000000000000000000000PES00010000001000000000000000000000000
201703010820000200000000000000011647000000000000000116479900000000000000000000CONSUMIDOR FINAL              000000000006500000000000000000000000000000000000000000000000000000000000000000000000000000000000000000000000000000000000PES00010000001000000000000000000000000
201703010820000200000000000000011648000000000000000116489900000000000000000000CONSUMIDOR FINAL              000000000003000000000000000000000000000000000000000000000000000000000000000000000000000000000000000000000000000000000000PES00010000001000000000000000000000000
201703010820000200000000000000011649000000000000000116499900000000000000000000CONSUMIDOR FINAL              000000000004000000000000000000000000000000000000000000000000000000000000000000000000000000000000000000000000000000000000PES00010000001000000000000000000000000
201703010820000200000000000000011650000000000000000116509900000000000000000000CONSUMIDOR FINAL              000000000004000000000000000000000000000000000000000000000000000000000000000000000000000000000000000000000000000000000000PES00010000001000000000000000000000000
201703010820000200000000000000011651000000000000000116519900000000000000000000CONSUMIDOR FINAL              000000000012000000000000000000000000000000000000000000000000000000000000000000000000000000000000000000000000000000000000PES00010000001000000000000000000000000
201703010820000200000000000000011652000000000000000116529900000000000000000000CONSUMIDOR FINAL              000000000009000000000000000000000000000000000000000000000000000000000000000000000000000000000000000000000000000000000000PES00010000001000000000000000000000000
201703010820000200000000000000011653000000000000000116539900000000000000000000CONSUMIDOR FINAL              000000000004500000000000000000000000000000000000000000000000000000000000000000000000000000000000000000000000000000000000PES00010000001000000000000000000000000
201703010820000200000000000000011654000000000000000116549900000000000000000000CONSUMIDOR FINAL              000000000004000000000000000000000000000000000000000000000000000000000000000000000000000000000000000000000000000000000000PES00010000001000000000000000000000000
201703010820000200000000000000011655000000000000000116559900000000000000000000CONSUMIDOR FINAL              000000000010000000000000000000000000000000000000000000000000000000000000000000000000000000000000000000000000000000000000PES00010000001000000000000000000000000
201703010820000200000000000000011656000000000000000116569900000000000000000000CONSUMIDOR FINAL              000000000005500000000000000000000000000000000000000000000000000000000000000000000000000000000000000000000000000000000000PES00010000001000000000000000000000000
201703010820000200000000000000011657000000000000000116579900000000000000000000CONSUMIDOR FINAL              000000000012000000000000000000000000000000000000000000000000000000000000000000000000000000000000000000000000000000000000PES00010000001000000000000000000000000
201703010820000200000000000000011658000000000000000116589900000000000000000000CONSUMIDOR FINAL              000000000001500000000000000000000000000000000000000000000000000000000000000000000000000000000000000000000000000000000000PES00010000001000000000000000000000000
201703010820000200000000000000011659000000000000000116599900000000000000000000CONSUMIDOR FINAL              000000000001500000000000000000000000000000000000000000000000000000000000000000000000000000000000000000000000000000000000PES00010000001000000000000000000000000
201703010820000200000000000000011660000000000000000116609900000000000000000000CONSUMIDOR FINAL              000000000004500000000000000000000000000000000000000000000000000000000000000000000000000000000000000000000000000000000000PES00010000001000000000000000000000000
201703010820000200000000000000011661000000000000000116619900000000000000000000CONSUMIDOR FINAL              000000000002500000000000000000000000000000000000000000000000000000000000000000000000000000000000000000000000000000000000PES00010000001000000000000000000000000
201703010820000200000000000000011662000000000000000116629900000000000000000000CONSUMIDOR FINAL              000000000004000000000000000000000000000000000000000000000000000000000000000000000000000000000000000000000000000000000000PES00010000001000000000000000000000000
201703010820000200000000000000011663000000000000000116639900000000000000000000CONSUMIDOR FINAL              000000000001500000000000000000000000000000000000000000000000000000000000000000000000000000000000000000000000000000000000PES00010000001000000000000000000000000
201703010820000200000000000000011664000000000000000116649900000000000000000000CONSUMIDOR FINAL              000000000001500000000000000000000000000000000000000000000000000000000000000000000000000000000000000000000000000000000000PES00010000001000000000000000000000000
201703010820000200000000000000011665000000000000000116659900000000000000000000CONSUMIDOR FINAL              000000000005500000000000000000000000000000000000000000000000000000000000000000000000000000000000000000000000000000000000PES00010000001000000000000000000000000
201703010820000200000000000000011666000000000000000116669900000000000000000000CONSUMIDOR FINAL              000000000009000000000000000000000000000000000000000000000000000000000000000000000000000000000000000000000000000000000000PES00010000001000000000000000000000000
201703010820000200000000000000011667000000000000000116679900000000000000000000CONSUMIDOR FINAL              000000000002000000000000000000000000000000000000000000000000000000000000000000000000000000000000000000000000000000000000PES00010000001000000000000000000000000
201703010820000200000000000000011668000000000000000116689900000000000000000000CONSUMIDOR FINAL              000000000005500000000000000000000000000000000000000000000000000000000000000000000000000000000000000000000000000000000000PES00010000001000000000000000000000000
201703010820000200000000000000011669000000000000000116699900000000000000000000CONSUMIDOR FINAL              000000000004000000000000000000000000000000000000000000000000000000000000000000000000000000000000000000000000000000000000PES00010000001000000000000000000000000
201703010820000200000000000000011670000000000000000116709900000000000000000000CONSUMIDOR FINAL              000000000005500000000000000000000000000000000000000000000000000000000000000000000000000000000000000000000000000000000000PES00010000001000000000000000000000000
201703010820000200000000000000011671000000000000000116719900000000000000000000CONSUMIDOR FINAL              000000000001500000000000000000000000000000000000000000000000000000000000000000000000000000000000000000000000000000000000PES00010000001000000000000000000000000
201703010820000200000000000000011672000000000000000116729900000000000000000000CONSUMIDOR FINAL              000000000013500000000000000000000000000000000000000000000000000000000000000000000000000000000000000000000000000000000000PES00010000001000000000000000000000000
201703010820000200000000000000011673000000000000000116739900000000000000000000CONSUMIDOR FINAL              000000000003500000000000000000000000000000000000000000000000000000000000000000000000000000000000000000000000000000000000PES00010000001000000000000000000000000
201703010820000200000000000000011674000000000000000116749900000000000000000000CONSUMIDOR FINAL              000000000003000000000000000000000000000000000000000000000000000000000000000000000000000000000000000000000000000000000000PES00010000001000000000000000000000000
201703010820000200000000000000011675000000000000000116759900000000000000000000CONSUMIDOR FINAL              000000000004000000000000000000000000000000000000000000000000000000000000000000000000000000000000000000000000000000000000PES00010000001000000000000000000000000
201703010820000200000000000000011676000000000000000116769900000000000000000000CONSUMIDOR FINAL              000000000004500000000000000000000000000000000000000000000000000000000000000000000000000000000000000000000000000000000000PES00010000001000000000000000000000000
201703010820000200000000000000011677000000000000000116779900000000000000000000CONSUMIDOR FINAL              000000000003500000000000000000000000000000000000000000000000000000000000000000000000000000000000000000000000000000000000PES00010000001000000000000000000000000
201703010820000200000000000000011678000000000000000116789900000000000000000000CONSUMIDOR FINAL              000000000003500000000000000000000000000000000000000000000000000000000000000000000000000000000000000000000000000000000000PES00010000001000000000000000000000000
201703010820000200000000000000011679000000000000000116799900000000000000000000CONSUMIDOR FINAL              000000000003000000000000000000000000000000000000000000000000000000000000000000000000000000000000000000000000000000000000PES00010000001000000000000000000000000
201703010820000200000000000000011680000000000000000116809900000000000000000000CONSUMIDOR FINAL              000000000003000000000000000000000000000000000000000000000000000000000000000000000000000000000000000000000000000000000000PES00010000001000000000000000000000000
201703010820000200000000000000011681000000000000000116819900000000000000000000CONSUMIDOR FINAL              000000000003000000000000000000000000000000000000000000000000000000000000000000000000000000000000000000000000000000000000PES00010000001000000000000000000000000
201703010820000200000000000000011682000000000000000116829900000000000000000000CONSUMIDOR FINAL              000000000012000000000000000000000000000000000000000000000000000000000000000000000000000000000000000000000000000000000000PES00010000001000000000000000000000000
201703010820000200000000000000011683000000000000000116839900000000000000000000CONSUMIDOR FINAL              000000000001500000000000000000000000000000000000000000000000000000000000000000000000000000000000000000000000000000000000PES00010000001000000000000000000000000
201703010820000200000000000000011684000000000000000116849900000000000000000000CONSUMIDOR FINAL              000000000002500000000000000000000000000000000000000000000000000000000000000000000000000000000000000000000000000000000000PES00010000001000000000000000000000000
201703010820000200000000000000011685000000000000000116859900000000000000000000CONSUMIDOR FINAL              000000000005000000000000000000000000000000000000000000000000000000000000000000000000000000000000000000000000000000000000PES00010000001000000000000000000000000
201703010820000200000000000000011686000000000000000116869900000000000000000000CONSUMIDOR FINAL              000000000004000000000000000000000000000000000000000000000000000000000000000000000000000000000000000000000000000000000000PES00010000001000000000000000000000000
201703010820000200000000000000011687000000000000000116879900000000000000000000CONSUMIDOR FINAL              000000000003000000000000000000000000000000000000000000000000000000000000000000000000000000000000000000000000000000000000PES00010000001000000000000000000000000
201703010820000200000000000000011688000000000000000116889900000000000000000000CONSUMIDOR FINAL              000000000001500000000000000000000000000000000000000000000000000000000000000000000000000000000000000000000000000000000000PES00010000001000000000000000000000000
201703010820000200000000000000011689000000000000000116899900000000000000000000CONSUMIDOR FINAL              000000000001500000000000000000000000000000000000000000000000000000000000000000000000000000000000000000000000000000000000PES00010000001000000000000000000000000
201703010820000200000000000000011690000000000000000116909900000000000000000000CONSUMIDOR FINAL              000000000001500000000000000000000000000000000000000000000000000000000000000000000000000000000000000000000000000000000000PES00010000001000000000000000000000000
201703010820000200000000000000011691000000000000000116919900000000000000000000CONSUMIDOR FINAL              000000000005000000000000000000000000000000000000000000000000000000000000000000000000000000000000000000000000000000000000PES00010000001000000000000000000000000
201703010820000200000000000000011692000000000000000116929900000000000000000000CONSUMIDOR FINAL              000000000004000000000000000000000000000000000000000000000000000000000000000000000000000000000000000000000000000000000000PES00010000001000000000000000000000000
201703010820000200000000000000011693000000000000000116939900000000000000000000CONSUMIDOR FINAL              000000000004500000000000000000000000000000000000000000000000000000000000000000000000000000000000000000000000000000000000PES00010000001000000000000000000000000
201703010820000200000000000000011694000000000000000116949900000000000000000000CONSUMIDOR FINAL              000000000004000000000000000000000000000000000000000000000000000000000000000000000000000000000000000000000000000000000000PES00010000001000000000000000000000000
201703010820000200000000000000011695000000000000000116959900000000000000000000CONSUMIDOR FINAL              000000000001500000000000000000000000000000000000000000000000000000000000000000000000000000000000000000000000000000000000PES00010000001000000000000000000000000
201703010820000200000000000000011696000000000000000116969900000000000000000000CONSUMIDOR FINAL              000000000025000000000000000000000000000000000000000000000000000000000000000000000000000000000000000000000000000000000000PES00010000001000000000000000000000000
201703010820000200000000000000011697000000000000000116979900000000000000000000CONSUMIDOR FINAL              000000000003000000000000000000000000000000000000000000000000000000000000000000000000000000000000000000000000000000000000PES00010000001000000000000000000000000
201703010820000200000000000000011698000000000000000116989900000000000000000000CONSUMIDOR FINAL              000000000003500000000000000000000000000000000000000000000000000000000000000000000000000000000000000000000000000000000000PES00010000001000000000000000000000000
201703010820000200000000000000011699000000000000000116999900000000000000000000CONSUMIDOR FINAL              000000000002500000000000000000000000000000000000000000000000000000000000000000000000000000000000000000000000000000000000PES00010000001000000000000000000000000
201703010820000200000000000000011700000000000000000117009900000000000000000000CONSUMIDOR FINAL              000000000005000000000000000000000000000000000000000000000000000000000000000000000000000000000000000000000000000000000000PES00010000001000000000000000000000000
201703010820000200000000000000011701000000000000000117019900000000000000000000CONSUMIDOR FINAL              000000000009000000000000000000000000000000000000000000000000000000000000000000000000000000000000000000000000000000000000PES00010000001000000000000000000000000
201703010820000200000000000000011702000000000000000117029900000000000000000000CONSUMIDOR FINAL              000000000004000000000000000000000000000000000000000000000000000000000000000000000000000000000000000000000000000000000000PES00010000001000000000000000000000000
201703010820000200000000000000011703000000000000000117039900000000000000000000CONSUMIDOR FINAL              000000000004000000000000000000000000000000000000000000000000000000000000000000000000000000000000000000000000000000000000PES00010000001000000000000000000000000
201703010820000200000000000000011704000000000000000117049900000000000000000000CONSUMIDOR FINAL              000000000004000000000000000000000000000000000000000000000000000000000000000000000000000000000000000000000000000000000000PES00010000001000000000000000000000000
201703010820000200000000000000011705000000000000000117059900000000000000000000CONSUMIDOR FINAL              000000000002500000000000000000000000000000000000000000000000000000000000000000000000000000000000000000000000000000000000PES00010000001000000000000000000000000
201703010820000200000000000000011706000000000000000117069900000000000000000000CONSUMIDOR FINAL              000000000004000000000000000000000000000000000000000000000000000000000000000000000000000000000000000000000000000000000000PES00010000001000000000000000000000000
201703010820000200000000000000011707000000000000000117079900000000000000000000CONSUMIDOR FINAL              000000000004500000000000000000000000000000000000000000000000000000000000000000000000000000000000000000000000000000000000PES00010000001000000000000000000000000
201703010820000200000000000000011708000000000000000117089900000000000000000000CONSUMIDOR FINAL              000000000008000000000000000000000000000000000000000000000000000000000000000000000000000000000000000000000000000000000000PES00010000001000000000000000000000000
201703010820000200000000000000011709000000000000000117099900000000000000000000CONSUMIDOR FINAL              000000000005000000000000000000000000000000000000000000000000000000000000000000000000000000000000000000000000000000000000PES00010000001000000000000000000000000
201703010820000200000000000000011710000000000000000117109900000000000000000000CONSUMIDOR FINAL              000000000007000000000000000000000000000000000000000000000000000000000000000000000000000000000000000000000000000000000000PES00010000001000000000000000000000000
201703010820000200000000000000011711000000000000000117119900000000000000000000CONSUMIDOR FINAL              000000000004500000000000000000000000000000000000000000000000000000000000000000000000000000000000000000000000000000000000PES00010000001000000000000000000000000
201703010820000200000000000000011712000000000000000117129900000000000000000000CONSUMIDOR FINAL              000000000004500000000000000000000000000000000000000000000000000000000000000000000000000000000000000000000000000000000000PES00010000001000000000000000000000000
201703010820000200000000000000011713000000000000000117139900000000000000000000CONSUMIDOR FINAL              000000000001500000000000000000000000000000000000000000000000000000000000000000000000000000000000000000000000000000000000PES00010000001000000000000000000000000
201703010820000200000000000000011714000000000000000117149900000000000000000000CONSUMIDOR FINAL              000000000003000000000000000000000000000000000000000000000000000000000000000000000000000000000000000000000000000000000000PES00010000001000000000000000000000000
201703010820000200000000000000011715000000000000000117159900000000000000000000CONSUMIDOR FINAL              000000000005000000000000000000000000000000000000000000000000000000000000000000000000000000000000000000000000000000000000PES00010000001000000000000000000000000
201703010820000200000000000000011716000000000000000117169900000000000000000000CONSUMIDOR FINAL              000000000004000000000000000000000000000000000000000000000000000000000000000000000000000000000000000000000000000000000000PES00010000001000000000000000000000000
201703010820000200000000000000011717000000000000000117179900000000000000000000CONSUMIDOR FINAL              000000000004000000000000000000000000000000000000000000000000000000000000000000000000000000000000000000000000000000000000PES00010000001000000000000000000000000
201703010820000200000000000000011718000000000000000117189900000000000000000000CONSUMIDOR FINAL              000000000008000000000000000000000000000000000000000000000000000000000000000000000000000000000000000000000000000000000000PES00010000001000000000000000000000000
201703010820000200000000000000011719000000000000000117199900000000000000000000CONSUMIDOR FINAL              000000000004500000000000000000000000000000000000000000000000000000000000000000000000000000000000000000000000000000000000PES00010000001000000000000000000000000
201703010820000200000000000000011720000000000000000117209900000000000000000000CONSUMIDOR FINAL              000000000008000000000000000000000000000000000000000000000000000000000000000000000000000000000000000000000000000000000000PES00010000001000000000000000000000000
201703010820000200000000000000011721000000000000000117219900000000000000000000CONSUMIDOR FINAL              000000000005000000000000000000000000000000000000000000000000000000000000000000000000000000000000000000000000000000000000PES00010000001000000000000000000000000
201703010820000200000000000000011722000000000000000117229900000000000000000000CONSUMIDOR FINAL              000000000002500000000000000000000000000000000000000000000000000000000000000000000000000000000000000000000000000000000000PES00010000001000000000000000000000000
201703010820000200000000000000011723000000000000000117239900000000000000000000CONSUMIDOR FINAL              000000000004500000000000000000000000000000000000000000000000000000000000000000000000000000000000000000000000000000000000PES00010000001000000000000000000000000
201703010820000200000000000000011724000000000000000117249900000000000000000000CONSUMIDOR FINAL              000000000001500000000000000000000000000000000000000000000000000000000000000000000000000000000000000000000000000000000000PES00010000001000000000000000000000000
201703010820000200000000000000011725000000000000000117259900000000000000000000CONSUMIDOR FINAL              000000000001500000000000000000000000000000000000000000000000000000000000000000000000000000000000000000000000000000000000PES00010000001000000000000000000000000
201703010820000200000000000000011726000000000000000117269900000000000000000000CONSUMIDOR FINAL              000000000007500000000000000000000000000000000000000000000000000000000000000000000000000000000000000000000000000000000000PES00010000001000000000000000000000000
201703010820000200000000000000011727000000000000000117279900000000000000000000CONSUMIDOR FINAL              000000000003000000000000000000000000000000000000000000000000000000000000000000000000000000000000000000000000000000000000PES00010000001000000000000000000000000
201703010820000200000000000000011728000000000000000117289900000000000000000000CONSUMIDOR FINAL              000000000004500000000000000000000000000000000000000000000000000000000000000000000000000000000000000000000000000000000000PES00010000001000000000000000000000000
201703010820000200000000000000011729000000000000000117299900000000000000000000CONSUMIDOR FINAL              000000000005000000000000000000000000000000000000000000000000000000000000000000000000000000000000000000000000000000000000PES00010000001000000000000000000000000
201703010820000200000000000000011730000000000000000117309900000000000000000000CONSUMIDOR FINAL              000000000003000000000000000000000000000000000000000000000000000000000000000000000000000000000000000000000000000000000000PES00010000001000000000000000000000000
201703010820000200000000000000011731000000000000000117319900000000000000000000CONSUMIDOR FINAL              000000000008000000000000000000000000000000000000000000000000000000000000000000000000000000000000000000000000000000000000PES00010000001000000000000000000000000
201703010820000200000000000000011732000000000000000117329900000000000000000000CONSUMIDOR FINAL              000000000001500000000000000000000000000000000000000000000000000000000000000000000000000000000000000000000000000000000000PES00010000001000000000000000000000000
201703010820000200000000000000011733000000000000000117339900000000000000000000CONSUMIDOR FINAL              000000000004500000000000000000000000000000000000000000000000000000000000000000000000000000000000000000000000000000000000PES00010000001000000000000000000000000
201703010820000200000000000000011734000000000000000117349900000000000000000000CONSUMIDOR FINAL              000000000004500000000000000000000000000000000000000000000000000000000000000000000000000000000000000000000000000000000000PES00010000001000000000000000000000000
201703010820000200000000000000011735000000000000000117359900000000000000000000CONSUMIDOR FINAL              000000000005000000000000000000000000000000000000000000000000000000000000000000000000000000000000000000000000000000000000PES00010000001000000000000000000000000
201703010820000200000000000000011736000000000000000117369900000000000000000000CONSUMIDOR FINAL              000000000005000000000000000000000000000000000000000000000000000000000000000000000000000000000000000000000000000000000000PES00010000001000000000000000000000000
201703010820000200000000000000011737000000000000000117379900000000000000000000CONSUMIDOR FINAL              000000000006000000000000000000000000000000000000000000000000000000000000000000000000000000000000000000000000000000000000PES00010000001000000000000000000000000
201703010820000200000000000000011738000000000000000117389900000000000000000000CONSUMIDOR FINAL              000000000004500000000000000000000000000000000000000000000000000000000000000000000000000000000000000000000000000000000000PES00010000001000000000000000000000000
201703010820000200000000000000011739000000000000000117399900000000000000000000CONSUMIDOR FINAL              000000000008000000000000000000000000000000000000000000000000000000000000000000000000000000000000000000000000000000000000PES00010000001000000000000000000000000
201703010820000200000000000000011740000000000000000117409900000000000000000000CONSUMIDOR FINAL              000000000010000000000000000000000000000000000000000000000000000000000000000000000000000000000000000000000000000000000000PES00010000001000000000000000000000000
201703010820000200000000000000011741000000000000000117419900000000000000000000CONSUMIDOR FINAL              000000000005000000000000000000000000000000000000000000000000000000000000000000000000000000000000000000000000000000000000PES00010000001000000000000000000000000
201703010820000200000000000000011742000000000000000117429900000000000000000000CONSUMIDOR FINAL              000000000001500000000000000000000000000000000000000000000000000000000000000000000000000000000000000000000000000000000000PES00010000001000000000000000000000000
201703010820000200000000000000011743000000000000000117439900000000000000000000CONSUMIDOR FINAL              000000000005000000000000000000000000000000000000000000000000000000000000000000000000000000000000000000000000000000000000PES00010000001000000000000000000000000
201703010820000200000000000000011744000000000000000117449900000000000000000000CONSUMIDOR FINAL              000000000005000000000000000000000000000000000000000000000000000000000000000000000000000000000000000000000000000000000000PES00010000001000000000000000000000000
201703010820000200000000000000011745000000000000000117459900000000000000000000CONSUMIDOR FINAL              000000000009500000000000000000000000000000000000000000000000000000000000000000000000000000000000000000000000000000000000PES00010000001000000000000000000000000
201703010820000200000000000000011746000000000000000117469900000000000000000000CONSUMIDOR FINAL              000000000004500000000000000000000000000000000000000000000000000000000000000000000000000000000000000000000000000000000000PES00010000001000000000000000000000000
201703010820000200000000000000011747000000000000000117479900000000000000000000CONSUMIDOR FINAL              000000000002500000000000000000000000000000000000000000000000000000000000000000000000000000000000000000000000000000000000PES00010000001000000000000000000000000
201703010820000200000000000000011748000000000000000117489900000000000000000000CONSUMIDOR FINAL              000000000008500000000000000000000000000000000000000000000000000000000000000000000000000000000000000000000000000000000000PES00010000001000000000000000000000000
201703010820000200000000000000011749000000000000000117499900000000000000000000CONSUMIDOR FINAL              000000000009000000000000000000000000000000000000000000000000000000000000000000000000000000000000000000000000000000000000PES00010000001000000000000000000000000
201703010820000200000000000000011750000000000000000117509900000000000000000000CONSUMIDOR FINAL              000000000003500000000000000000000000000000000000000000000000000000000000000000000000000000000000000000000000000000000000PES00010000001000000000000000000000000
201703010820000200000000000000011751000000000000000117519900000000000000000000CONSUMIDOR FINAL              000000000009000000000000000000000000000000000000000000000000000000000000000000000000000000000000000000000000000000000000PES00010000001000000000000000000000000
201703010820000200000000000000011752000000000000000117529900000000000000000000CONSUMIDOR FINAL              000000000004000000000000000000000000000000000000000000000000000000000000000000000000000000000000000000000000000000000000PES00010000001000000000000000000000000
201703010820000200000000000000011753000000000000000117539900000000000000000000CONSUMIDOR FINAL              000000000005000000000000000000000000000000000000000000000000000000000000000000000000000000000000000000000000000000000000PES00010000001000000000000000000000000
201703010820000200000000000000011754000000000000000117549900000000000000000000CONSUMIDOR FINAL              000000000008000000000000000000000000000000000000000000000000000000000000000000000000000000000000000000000000000000000000PES00010000001000000000000000000000000
201703010820000200000000000000011755000000000000000117559900000000000000000000CONSUMIDOR FINAL              000000000008000000000000000000000000000000000000000000000000000000000000000000000000000000000000000000000000000000000000PES00010000001000000000000000000000000
201703010820000200000000000000011756000000000000000117569900000000000000000000CONSUMIDOR FINAL              000000000004500000000000000000000000000000000000000000000000000000000000000000000000000000000000000000000000000000000000PES00010000001000000000000000000000000
201703010820000200000000000000011757000000000000000117579900000000000000000000CONSUMIDOR FINAL              000000000008000000000000000000000000000000000000000000000000000000000000000000000000000000000000000000000000000000000000PES00010000001000000000000000000000000
201703010820000200000000000000011758000000000000000117589900000000000000000000CONSUMIDOR FINAL              000000000009000000000000000000000000000000000000000000000000000000000000000000000000000000000000000000000000000000000000PES00010000001000000000000000000000000
201703010820000200000000000000011759000000000000000117599900000000000000000000CONSUMIDOR FINAL              000000000004500000000000000000000000000000000000000000000000000000000000000000000000000000000000000000000000000000000000PES00010000001000000000000000000000000
201703010820000200000000000000011760000000000000000117609900000000000000000000CONSUMIDOR FINAL              000000000005000000000000000000000000000000000000000000000000000000000000000000000000000000000000000000000000000000000000PES00010000001000000000000000000000000
201703010820000200000000000000011761000000000000000117619900000000000000000000CONSUMIDOR FINAL              000000000006500000000000000000000000000000000000000000000000000000000000000000000000000000000000000000000000000000000000PES00010000001000000000000000000000000
201703010820000200000000000000011762000000000000000117629900000000000000000000CONSUMIDOR FINAL              000000000014500000000000000000000000000000000000000000000000000000000000000000000000000000000000000000000000000000000000PES00010000001000000000000000000000000
201703010820000200000000000000011763000000000000000117639900000000000000000000CONSUMIDOR FINAL              000000000004000000000000000000000000000000000000000000000000000000000000000000000000000000000000000000000000000000000000PES00010000001000000000000000000000000
201703010820000200000000000000011764000000000000000117649900000000000000000000CONSUMIDOR FINAL              000000000002500000000000000000000000000000000000000000000000000000000000000000000000000000000000000000000000000000000000PES00010000001000000000000000000000000
201703010820000200000000000000011765000000000000000117659900000000000000000000CONSUMIDOR FINAL              000000000009000000000000000000000000000000000000000000000000000000000000000000000000000000000000000000000000000000000000PES00010000001000000000000000000000000
201703010820000200000000000000011766000000000000000117669900000000000000000000CONSUMIDOR FINAL              000000000004000000000000000000000000000000000000000000000000000000000000000000000000000000000000000000000000000000000000PES00010000001000000000000000000000000
201703010820000200000000000000011767000000000000000117679900000000000000000000CONSUMIDOR FINAL              000000000002500000000000000000000000000000000000000000000000000000000000000000000000000000000000000000000000000000000000PES00010000001000000000000000000000000
201703010820000200000000000000011768000000000000000117689900000000000000000000CONSUMIDOR FINAL              000000000001500000000000000000000000000000000000000000000000000000000000000000000000000000000000000000000000000000000000PES00010000001000000000000000000000000
201703010820000200000000000000011769000000000000000117699900000000000000000000CONSUMIDOR FINAL              000000000003000000000000000000000000000000000000000000000000000000000000000000000000000000000000000000000000000000000000PES00010000001000000000000000000000000
201703010820000200000000000000011770000000000000000117709900000000000000000000CONSUMIDOR FINAL              000000000004000000000000000000000000000000000000000000000000000000000000000000000000000000000000000000000000000000000000PES00010000001000000000000000000000000
201703010820000200000000000000011771000000000000000117719900000000000000000000CONSUMIDOR FINAL              000000000003500000000000000000000000000000000000000000000000000000000000000000000000000000000000000000000000000000000000PES00010000001000000000000000000000000
201703010820000200000000000000011772000000000000000117729900000000000000000000CONSUMIDOR FINAL              000000000005000000000000000000000000000000000000000000000000000000000000000000000000000000000000000000000000000000000000PES00010000001000000000000000000000000
201703010820000200000000000000011773000000000000000117739900000000000000000000CONSUMIDOR FINAL              000000000004500000000000000000000000000000000000000000000000000000000000000000000000000000000000000000000000000000000000PES00010000001000000000000000000000000
201703010820000200000000000000011774000000000000000117749900000000000000000000CONSUMIDOR FINAL              000000000008000000000000000000000000000000000000000000000000000000000000000000000000000000000000000000000000000000000000PES00010000001000000000000000000000000
201703010820000200000000000000011775000000000000000117759900000000000000000000CONSUMIDOR FINAL              000000000004500000000000000000000000000000000000000000000000000000000000000000000000000000000000000000000000000000000000PES00010000001000000000000000000000000
201703010820000200000000000000011776000000000000000117769900000000000000000000CONSUMIDOR FINAL              000000000009000000000000000000000000000000000000000000000000000000000000000000000000000000000000000000000000000000000000PES00010000001000000000000000000000000
201703010820000200000000000000011777000000000000000117779900000000000000000000CONSUMIDOR FINAL              000000000003000000000000000000000000000000000000000000000000000000000000000000000000000000000000000000000000000000000000PES00010000001000000000000000000000000
201703010820000200000000000000011778000000000000000117789900000000000000000000CONSUMIDOR FINAL              000000000005000000000000000000000000000000000000000000000000000000000000000000000000000000000000000000000000000000000000PES00010000001000000000000000000000000
201703010820000200000000000000011779000000000000000117799900000000000000000000CONSUMIDOR FINAL              000000000018500000000000000000000000000000000000000000000000000000000000000000000000000000000000000000000000000000000000PES00010000001000000000000000000000000
201703010820000200000000000000011780000000000000000117809900000000000000000000CONSUMIDOR FINAL              000000000001500000000000000000000000000000000000000000000000000000000000000000000000000000000000000000000000000000000000PES00010000001000000000000000000000000
201703010820000200000000000000011781000000000000000117819900000000000000000000CONSUMIDOR FINAL              000000000012500000000000000000000000000000000000000000000000000000000000000000000000000000000000000000000000000000000000PES00010000001000000000000000000000000
201703010820000200000000000000011782000000000000000117829900000000000000000000CONSUMIDOR FINAL              000000000004000000000000000000000000000000000000000000000000000000000000000000000000000000000000000000000000000000000000PES00010000001000000000000000000000000
201703010820000200000000000000011783000000000000000117839900000000000000000000CONSUMIDOR FINAL              000000000015500000000000000000000000000000000000000000000000000000000000000000000000000000000000000000000000000000000000PES00010000001000000000000000000000000
201703010820000200000000000000011784000000000000000117849900000000000000000000CONSUMIDOR FINAL              000000000002500000000000000000000000000000000000000000000000000000000000000000000000000000000000000000000000000000000000PES00010000001000000000000000000000000
201703010820000200000000000000011785000000000000000117859900000000000000000000CONSUMIDOR FINAL              000000000005000000000000000000000000000000000000000000000000000000000000000000000000000000000000000000000000000000000000PES00010000001000000000000000000000000
201703010820000200000000000000011786000000000000000117869900000000000000000000CONSUMIDOR FINAL              000000000005000000000000000000000000000000000000000000000000000000000000000000000000000000000000000000000000000000000000PES00010000001000000000000000000000000
201703010820000200000000000000011787000000000000000117879900000000000000000000CONSUMIDOR FINAL              000000000003000000000000000000000000000000000000000000000000000000000000000000000000000000000000000000000000000000000000PES00010000001000000000000000000000000
201703010820000200000000000000011788000000000000000117889900000000000000000000CONSUMIDOR FINAL              000000000005000000000000000000000000000000000000000000000000000000000000000000000000000000000000000000000000000000000000PES00010000001000000000000000000000000
201703010820000200000000000000011789000000000000000117899900000000000000000000CONSUMIDOR FINAL              000000000010000000000000000000000000000000000000000000000000000000000000000000000000000000000000000000000000000000000000PES00010000001000000000000000000000000
201703010820000200000000000000011790000000000000000117909900000000000000000000CONSUMIDOR FINAL              000000000010000000000000000000000000000000000000000000000000000000000000000000000000000000000000000000000000000000000000PES00010000001000000000000000000000000
201703010820000200000000000000011791000000000000000117919900000000000000000000CONSUMIDOR FINAL              000000000008500000000000000000000000000000000000000000000000000000000000000000000000000000000000000000000000000000000000PES00010000001000000000000000000000000
201703010820000200000000000000011792000000000000000117929900000000000000000000CONSUMIDOR FINAL              000000000008000000000000000000000000000000000000000000000000000000000000000000000000000000000000000000000000000000000000PES00010000001000000000000000000000000
201703010820000200000000000000011793000000000000000117939900000000000000000000CONSUMIDOR FINAL              000000000004000000000000000000000000000000000000000000000000000000000000000000000000000000000000000000000000000000000000PES00010000001000000000000000000000000
201703010820000200000000000000011794000000000000000117949900000000000000000000CONSUMIDOR FINAL              000000000004500000000000000000000000000000000000000000000000000000000000000000000000000000000000000000000000000000000000PES00010000001000000000000000000000000
201703010820000200000000000000011795000000000000000117959900000000000000000000CONSUMIDOR FINAL              000000000009000000000000000000000000000000000000000000000000000000000000000000000000000000000000000000000000000000000000PES00010000001000000000000000000000000
201703010820000200000000000000011796000000000000000117969900000000000000000000CONSUMIDOR FINAL              000000000005000000000000000000000000000000000000000000000000000000000000000000000000000000000000000000000000000000000000PES00010000001000000000000000000000000
201703010820000200000000000000011797000000000000000117979900000000000000000000CONSUMIDOR FINAL              000000000010000000000000000000000000000000000000000000000000000000000000000000000000000000000000000000000000000000000000PES00010000001000000000000000000000000
201703010820000200000000000000011798000000000000000117989900000000000000000000CONSUMIDOR FINAL              000000000001500000000000000000000000000000000000000000000000000000000000000000000000000000000000000000000000000000000000PES00010000001000000000000000000000000
201703010820000200000000000000011799000000000000000117999900000000000000000000CONSUMIDOR FINAL              000000000009000000000000000000000000000000000000000000000000000000000000000000000000000000000000000000000000000000000000PES00010000001000000000000000000000000
201703010820000200000000000000011800000000000000000118009900000000000000000000CONSUMIDOR FINAL              000000000005000000000000000000000000000000000000000000000000000000000000000000000000000000000000000000000000000000000000PES00010000001000000000000000000000000
201703010820000200000000000000011801000000000000000118019900000000000000000000CONSUMIDOR FINAL              000000000018500000000000000000000000000000000000000000000000000000000000000000000000000000000000000000000000000000000000PES00010000001000000000000000000000000
201703010820000200000000000000011802000000000000000118029900000000000000000000CONSUMIDOR FINAL              000000000004000000000000000000000000000000000000000000000000000000000000000000000000000000000000000000000000000000000000PES00010000001000000000000000000000000
201703010820000200000000000000011803000000000000000118039900000000000000000000CONSUMIDOR FINAL              000000000005000000000000000000000000000000000000000000000000000000000000000000000000000000000000000000000000000000000000PES00010000001000000000000000000000000
201703010820000200000000000000011804000000000000000118049900000000000000000000CONSUMIDOR FINAL              000000000009000000000000000000000000000000000000000000000000000000000000000000000000000000000000000000000000000000000000PES00010000001000000000000000000000000
201703020820000200000000000000011805000000000000000118059900000000000000000000CONSUMIDOR FINAL              000000000004000000000000000000000000000000000000000000000000000000000000000000000000000000000000000000000000000000000000PES00010000001000000000000000000000000
201703020820000200000000000000011806000000000000000118069900000000000000000000CONSUMIDOR FINAL              000000000004500000000000000000000000000000000000000000000000000000000000000000000000000000000000000000000000000000000000PES00010000001000000000000000000000000
201703020820000200000000000000011807000000000000000118079900000000000000000000CONSUMIDOR FINAL              000000000003500000000000000000000000000000000000000000000000000000000000000000000000000000000000000000000000000000000000PES00010000001000000000000000000000000
201703020820000200000000000000011808000000000000000118089900000000000000000000CONSUMIDOR FINAL              000000000010000000000000000000000000000000000000000000000000000000000000000000000000000000000000000000000000000000000000PES00010000001000000000000000000000000
201703020820000200000000000000011809000000000000000118099900000000000000000000CONSUMIDOR FINAL              000000000005000000000000000000000000000000000000000000000000000000000000000000000000000000000000000000000000000000000000PES00010000001000000000000000000000000
201703020820000200000000000000011810000000000000000118109900000000000000000000CONSUMIDOR FINAL              000000000017000000000000000000000000000000000000000000000000000000000000000000000000000000000000000000000000000000000000PES00010000001000000000000000000000000
201703020820000200000000000000011811000000000000000118119900000000000000000000CONSUMIDOR FINAL              000000000006500000000000000000000000000000000000000000000000000000000000000000000000000000000000000000000000000000000000PES00010000001000000000000000000000000
201703020820000200000000000000011812000000000000000118129900000000000000000000CONSUMIDOR FINAL              000000000004500000000000000000000000000000000000000000000000000000000000000000000000000000000000000000000000000000000000PES00010000001000000000000000000000000
201703020820000200000000000000011813000000000000000118139900000000000000000000CONSUMIDOR FINAL              000000000009000000000000000000000000000000000000000000000000000000000000000000000000000000000000000000000000000000000000PES00010000001000000000000000000000000
201703020820000200000000000000011814000000000000000118149900000000000000000000CONSUMIDOR FINAL              000000000004000000000000000000000000000000000000000000000000000000000000000000000000000000000000000000000000000000000000PES00010000001000000000000000000000000
201703020820000200000000000000011815000000000000000118159900000000000000000000CONSUMIDOR FINAL              000000000001500000000000000000000000000000000000000000000000000000000000000000000000000000000000000000000000000000000000PES00010000001000000000000000000000000
201703020820000200000000000000011816000000000000000118169900000000000000000000CONSUMIDOR FINAL              000000000004000000000000000000000000000000000000000000000000000000000000000000000000000000000000000000000000000000000000PES00010000001000000000000000000000000
201703020820000200000000000000011817000000000000000118179900000000000000000000CONSUMIDOR FINAL              000000000004000000000000000000000000000000000000000000000000000000000000000000000000000000000000000000000000000000000000PES00010000001000000000000000000000000
201703020820000200000000000000011818000000000000000118189900000000000000000000CONSUMIDOR FINAL              000000000007500000000000000000000000000000000000000000000000000000000000000000000000000000000000000000000000000000000000PES00010000001000000000000000000000000
201703020820000200000000000000011819000000000000000118199900000000000000000000CONSUMIDOR FINAL              000000000004000000000000000000000000000000000000000000000000000000000000000000000000000000000000000000000000000000000000PES00010000001000000000000000000000000
201703020820000200000000000000011820000000000000000118209900000000000000000000CONSUMIDOR FINAL              000000000004500000000000000000000000000000000000000000000000000000000000000000000000000000000000000000000000000000000000PES00010000001000000000000000000000000
201703020820000200000000000000011821000000000000000118219900000000000000000000CONSUMIDOR FINAL              000000000002000000000000000000000000000000000000000000000000000000000000000000000000000000000000000000000000000000000000PES00010000001000000000000000000000000
201703020820000200000000000000011822000000000000000118229900000000000000000000CONSUMIDOR FINAL              000000000011000000000000000000000000000000000000000000000000000000000000000000000000000000000000000000000000000000000000PES00010000001000000000000000000000000
201703020820000200000000000000011823000000000000000118239900000000000000000000CONSUMIDOR FINAL              000000000005000000000000000000000000000000000000000000000000000000000000000000000000000000000000000000000000000000000000PES00010000001000000000000000000000000
201703020820000200000000000000011824000000000000000118249900000000000000000000CONSUMIDOR FINAL              000000000004000000000000000000000000000000000000000000000000000000000000000000000000000000000000000000000000000000000000PES00010000001000000000000000000000000
201703020820000200000000000000011825000000000000000118259900000000000000000000CONSUMIDOR FINAL              000000000006500000000000000000000000000000000000000000000000000000000000000000000000000000000000000000000000000000000000PES00010000001000000000000000000000000
201703020820000200000000000000011826000000000000000118269900000000000000000000CONSUMIDOR FINAL              000000000004500000000000000000000000000000000000000000000000000000000000000000000000000000000000000000000000000000000000PES00010000001000000000000000000000000
201703020820000200000000000000011827000000000000000118279900000000000000000000CONSUMIDOR FINAL              000000000002500000000000000000000000000000000000000000000000000000000000000000000000000000000000000000000000000000000000PES00010000001000000000000000000000000
201703020820000200000000000000011828000000000000000118289900000000000000000000CONSUMIDOR FINAL              000000000009000000000000000000000000000000000000000000000000000000000000000000000000000000000000000000000000000000000000PES00010000001000000000000000000000000
201703020820000200000000000000011829000000000000000118299900000000000000000000CONSUMIDOR FINAL              000000000004000000000000000000000000000000000000000000000000000000000000000000000000000000000000000000000000000000000000PES00010000001000000000000000000000000
201703020820000200000000000000011830000000000000000118309900000000000000000000CONSUMIDOR FINAL              000000000008000000000000000000000000000000000000000000000000000000000000000000000000000000000000000000000000000000000000PES00010000001000000000000000000000000
201703020820000200000000000000011831000000000000000118319900000000000000000000CONSUMIDOR FINAL              000000000005000000000000000000000000000000000000000000000000000000000000000000000000000000000000000000000000000000000000PES00010000001000000000000000000000000
201703020820000200000000000000011832000000000000000118329900000000000000000000CONSUMIDOR FINAL              000000000002500000000000000000000000000000000000000000000000000000000000000000000000000000000000000000000000000000000000PES00010000001000000000000000000000000
201703020820000200000000000000011833000000000000000118339900000000000000000000CONSUMIDOR FINAL              000000000002500000000000000000000000000000000000000000000000000000000000000000000000000000000000000000000000000000000000PES00010000001000000000000000000000000
201703020820000200000000000000011834000000000000000118349900000000000000000000CONSUMIDOR FINAL              000000000017000000000000000000000000000000000000000000000000000000000000000000000000000000000000000000000000000000000000PES00010000001000000000000000000000000
201703020820000200000000000000011835000000000000000118359900000000000000000000CONSUMIDOR FINAL              000000000008000000000000000000000000000000000000000000000000000000000000000000000000000000000000000000000000000000000000PES00010000001000000000000000000000000
201703020820000200000000000000011836000000000000000118369900000000000000000000CONSUMIDOR FINAL              000000000008000000000000000000000000000000000000000000000000000000000000000000000000000000000000000000000000000000000000PES00010000001000000000000000000000000
201703020820000200000000000000011837000000000000000118379900000000000000000000CONSUMIDOR FINAL              000000000004000000000000000000000000000000000000000000000000000000000000000000000000000000000000000000000000000000000000PES00010000001000000000000000000000000
201703020820000200000000000000011838000000000000000118389900000000000000000000CONSUMIDOR FINAL              000000000001500000000000000000000000000000000000000000000000000000000000000000000000000000000000000000000000000000000000PES00010000001000000000000000000000000
201703020820000200000000000000011839000000000000000118399900000000000000000000CONSUMIDOR FINAL              000000000008000000000000000000000000000000000000000000000000000000000000000000000000000000000000000000000000000000000000PES00010000001000000000000000000000000
201703020820000200000000000000011840000000000000000118409900000000000000000000CONSUMIDOR FINAL              000000000005000000000000000000000000000000000000000000000000000000000000000000000000000000000000000000000000000000000000PES00010000001000000000000000000000000
201703020820000200000000000000011841000000000000000118419900000000000000000000CONSUMIDOR FINAL              000000000005000000000000000000000000000000000000000000000000000000000000000000000000000000000000000000000000000000000000PES00010000001000000000000000000000000
201703020820000200000000000000011842000000000000000118429900000000000000000000CONSUMIDOR FINAL              000000000004500000000000000000000000000000000000000000000000000000000000000000000000000000000000000000000000000000000000PES00010000001000000000000000000000000
201703020820000200000000000000011843000000000000000118439900000000000000000000CONSUMIDOR FINAL              000000000008000000000000000000000000000000000000000000000000000000000000000000000000000000000000000000000000000000000000PES00010000001000000000000000000000000
201703020820000200000000000000011844000000000000000118449900000000000000000000CONSUMIDOR FINAL              000000000004500000000000000000000000000000000000000000000000000000000000000000000000000000000000000000000000000000000000PES00010000001000000000000000000000000
201703020820000200000000000000011845000000000000000118459900000000000000000000CONSUMIDOR FINAL              000000000005000000000000000000000000000000000000000000000000000000000000000000000000000000000000000000000000000000000000PES00010000001000000000000000000000000
201703020820000200000000000000011846000000000000000118469900000000000000000000CONSUMIDOR FINAL              000000000008000000000000000000000000000000000000000000000000000000000000000000000000000000000000000000000000000000000000PES00010000001000000000000000000000000
201703020820000200000000000000011847000000000000000118479900000000000000000000CONSUMIDOR FINAL              000000000002500000000000000000000000000000000000000000000000000000000000000000000000000000000000000000000000000000000000PES00010000001000000000000000000000000
201703020820000200000000000000011848000000000000000118489900000000000000000000CONSUMIDOR FINAL              000000000004000000000000000000000000000000000000000000000000000000000000000000000000000000000000000000000000000000000000PES00010000001000000000000000000000000
201703020820000200000000000000011849000000000000000118499900000000000000000000CONSUMIDOR FINAL              000000000004000000000000000000000000000000000000000000000000000000000000000000000000000000000000000000000000000000000000PES00010000001000000000000000000000000
201703020820000200000000000000011850000000000000000118509900000000000000000000CONSUMIDOR FINAL              000000000007500000000000000000000000000000000000000000000000000000000000000000000000000000000000000000000000000000000000PES00010000001000000000000000000000000
201703020820000200000000000000011851000000000000000118519900000000000000000000CONSUMIDOR FINAL              000000000002500000000000000000000000000000000000000000000000000000000000000000000000000000000000000000000000000000000000PES00010000001000000000000000000000000
201703020820000200000000000000011852000000000000000118529900000000000000000000CONSUMIDOR FINAL              000000000009000000000000000000000000000000000000000000000000000000000000000000000000000000000000000000000000000000000000PES00010000001000000000000000000000000
201703020820000200000000000000011853000000000000000118539900000000000000000000CONSUMIDOR FINAL              000000000003500000000000000000000000000000000000000000000000000000000000000000000000000000000000000000000000000000000000PES00010000001000000000000000000000000
201703020820000200000000000000011854000000000000000118549900000000000000000000CONSUMIDOR FINAL              000000000004000000000000000000000000000000000000000000000000000000000000000000000000000000000000000000000000000000000000PES00010000001000000000000000000000000
201703020820000200000000000000011855000000000000000118559900000000000000000000CONSUMIDOR FINAL              000000000002000000000000000000000000000000000000000000000000000000000000000000000000000000000000000000000000000000000000PES00010000001000000000000000000000000
201703020820000200000000000000011856000000000000000118569900000000000000000000CONSUMIDOR FINAL              000000000004000000000000000000000000000000000000000000000000000000000000000000000000000000000000000000000000000000000000PES00010000001000000000000000000000000
201703020820000200000000000000011857000000000000000118579900000000000000000000CONSUMIDOR FINAL              000000000005000000000000000000000000000000000000000000000000000000000000000000000000000000000000000000000000000000000000PES00010000001000000000000000000000000
201703020820000200000000000000011858000000000000000118589900000000000000000000CONSUMIDOR FINAL              000000000005000000000000000000000000000000000000000000000000000000000000000000000000000000000000000000000000000000000000PES00010000001000000000000000000000000
201703020820000200000000000000011859000000000000000118599900000000000000000000CONSUMIDOR FINAL              000000000005000000000000000000000000000000000000000000000000000000000000000000000000000000000000000000000000000000000000PES00010000001000000000000000000000000
201703020820000200000000000000011860000000000000000118609900000000000000000000CONSUMIDOR FINAL              000000000003000000000000000000000000000000000000000000000000000000000000000000000000000000000000000000000000000000000000PES00010000001000000000000000000000000
201703020820000200000000000000011861000000000000000118619900000000000000000000CONSUMIDOR FINAL              000000000004500000000000000000000000000000000000000000000000000000000000000000000000000000000000000000000000000000000000PES00010000001000000000000000000000000
201703020820000200000000000000011862000000000000000118629900000000000000000000CONSUMIDOR FINAL              000000000007500000000000000000000000000000000000000000000000000000000000000000000000000000000000000000000000000000000000PES00010000001000000000000000000000000
201703020820000200000000000000011863000000000000000118639900000000000000000000CONSUMIDOR FINAL              000000000004000000000000000000000000000000000000000000000000000000000000000000000000000000000000000000000000000000000000PES00010000001000000000000000000000000
201703020820000200000000000000011864000000000000000118649900000000000000000000CONSUMIDOR FINAL              000000000008000000000000000000000000000000000000000000000000000000000000000000000000000000000000000000000000000000000000PES00010000001000000000000000000000000
201703020820000200000000000000011865000000000000000118659900000000000000000000CONSUMIDOR FINAL              000000000014000000000000000000000000000000000000000000000000000000000000000000000000000000000000000000000000000000000000PES00010000001000000000000000000000000
201703020820000200000000000000011866000000000000000118669900000000000000000000CONSUMIDOR FINAL              000000000006000000000000000000000000000000000000000000000000000000000000000000000000000000000000000000000000000000000000PES00010000001000000000000000000000000
201703020820000200000000000000011867000000000000000118679900000000000000000000CONSUMIDOR FINAL              000000000004000000000000000000000000000000000000000000000000000000000000000000000000000000000000000000000000000000000000PES00010000001000000000000000000000000
201703020820000200000000000000011868000000000000000118689900000000000000000000CONSUMIDOR FINAL              000000000010000000000000000000000000000000000000000000000000000000000000000000000000000000000000000000000000000000000000PES00010000001000000000000000000000000
201703020820000200000000000000011869000000000000000118699900000000000000000000CONSUMIDOR FINAL              000000000015000000000000000000000000000000000000000000000000000000000000000000000000000000000000000000000000000000000000PES00010000001000000000000000000000000
201703020820000200000000000000011870000000000000000118709900000000000000000000CONSUMIDOR FINAL              000000000006500000000000000000000000000000000000000000000000000000000000000000000000000000000000000000000000000000000000PES00010000001000000000000000000000000
201703020820000200000000000000011871000000000000000118719900000000000000000000CONSUMIDOR FINAL              000000000010000000000000000000000000000000000000000000000000000000000000000000000000000000000000000000000000000000000000PES00010000001000000000000000000000000
201703020820000200000000000000011872000000000000000118729900000000000000000000CONSUMIDOR FINAL              000000000004000000000000000000000000000000000000000000000000000000000000000000000000000000000000000000000000000000000000PES00010000001000000000000000000000000
201703020820000200000000000000011873000000000000000118739900000000000000000000CONSUMIDOR FINAL              000000000005000000000000000000000000000000000000000000000000000000000000000000000000000000000000000000000000000000000000PES00010000001000000000000000000000000
201703020820000200000000000000011874000000000000000118749900000000000000000000CONSUMIDOR FINAL              000000000005000000000000000000000000000000000000000000000000000000000000000000000000000000000000000000000000000000000000PES00010000001000000000000000000000000
201703020820000200000000000000011875000000000000000118759900000000000000000000CONSUMIDOR FINAL              000000000004000000000000000000000000000000000000000000000000000000000000000000000000000000000000000000000000000000000000PES00010000001000000000000000000000000
201703020820000200000000000000011876000000000000000118769900000000000000000000CONSUMIDOR FINAL              000000000002500000000000000000000000000000000000000000000000000000000000000000000000000000000000000000000000000000000000PES00010000001000000000000000000000000
201703020820000200000000000000011877000000000000000118779900000000000000000000CONSUMIDOR FINAL              000000000010000000000000000000000000000000000000000000000000000000000000000000000000000000000000000000000000000000000000PES00010000001000000000000000000000000
201703020820000200000000000000011878000000000000000118789900000000000000000000CONSUMIDOR FINAL              000000000010000000000000000000000000000000000000000000000000000000000000000000000000000000000000000000000000000000000000PES00010000001000000000000000000000000
201703020820000200000000000000011879000000000000000118799900000000000000000000CONSUMIDOR FINAL              000000000007000000000000000000000000000000000000000000000000000000000000000000000000000000000000000000000000000000000000PES00010000001000000000000000000000000
201703020820000200000000000000011880000000000000000118809900000000000000000000CONSUMIDOR FINAL              000000000007500000000000000000000000000000000000000000000000000000000000000000000000000000000000000000000000000000000000PES00010000001000000000000000000000000
201703020820000200000000000000011881000000000000000118819900000000000000000000CONSUMIDOR FINAL              000000000002500000000000000000000000000000000000000000000000000000000000000000000000000000000000000000000000000000000000PES00010000001000000000000000000000000
201703020820000200000000000000011882000000000000000118829900000000000000000000CONSUMIDOR FINAL              000000000008000000000000000000000000000000000000000000000000000000000000000000000000000000000000000000000000000000000000PES00010000001000000000000000000000000
201703020820000200000000000000011883000000000000000118839900000000000000000000CONSUMIDOR FINAL              000000000005000000000000000000000000000000000000000000000000000000000000000000000000000000000000000000000000000000000000PES00010000001000000000000000000000000
201703020820000200000000000000011884000000000000000118849900000000000000000000CONSUMIDOR FINAL              000000000009000000000000000000000000000000000000000000000000000000000000000000000000000000000000000000000000000000000000PES00010000001000000000000000000000000
201703020820000200000000000000011885000000000000000118859900000000000000000000CONSUMIDOR FINAL              000000000008000000000000000000000000000000000000000000000000000000000000000000000000000000000000000000000000000000000000PES00010000001000000000000000000000000
201703020820000200000000000000011886000000000000000118869900000000000000000000CONSUMIDOR FINAL              000000000008500000000000000000000000000000000000000000000000000000000000000000000000000000000000000000000000000000000000PES00010000001000000000000000000000000
201703020820000200000000000000011887000000000000000118879900000000000000000000CONSUMIDOR FINAL              000000000008000000000000000000000000000000000000000000000000000000000000000000000000000000000000000000000000000000000000PES00010000001000000000000000000000000
201703020820000200000000000000011888000000000000000118889900000000000000000000CONSUMIDOR FINAL              000000000009500000000000000000000000000000000000000000000000000000000000000000000000000000000000000000000000000000000000PES00010000001000000000000000000000000
201703020820000200000000000000011889000000000000000118899900000000000000000000CONSUMIDOR FINAL              000000000005000000000000000000000000000000000000000000000000000000000000000000000000000000000000000000000000000000000000PES00010000001000000000000000000000000
201703020820000200000000000000011890000000000000000118909900000000000000000000CONSUMIDOR FINAL              000000000014000000000000000000000000000000000000000000000000000000000000000000000000000000000000000000000000000000000000PES00010000001000000000000000000000000
201703020820000200000000000000011891000000000000000118919900000000000000000000CONSUMIDOR FINAL              000000000018500000000000000000000000000000000000000000000000000000000000000000000000000000000000000000000000000000000000PES00010000001000000000000000000000000
201703020820000200000000000000011892000000000000000118929900000000000000000000CONSUMIDOR FINAL              000000000004500000000000000000000000000000000000000000000000000000000000000000000000000000000000000000000000000000000000PES00010000001000000000000000000000000
201703020820000200000000000000011893000000000000000118939900000000000000000000CONSUMIDOR FINAL              000000000034000000000000000000000000000000000000000000000000000000000000000000000000000000000000000000000000000000000000PES00010000001000000000000000000000000
201703020820000200000000000000011894000000000000000118949900000000000000000000CONSUMIDOR FINAL              000000000008000000000000000000000000000000000000000000000000000000000000000000000000000000000000000000000000000000000000PES00010000001000000000000000000000000
201703020820000200000000000000011895000000000000000118959900000000000000000000CONSUMIDOR FINAL              000000000018500000000000000000000000000000000000000000000000000000000000000000000000000000000000000000000000000000000000PES00010000001000000000000000000000000
201703020820000200000000000000011896000000000000000118969900000000000000000000CONSUMIDOR FINAL              000000000006000000000000000000000000000000000000000000000000000000000000000000000000000000000000000000000000000000000000PES00010000001000000000000000000000000
201703020820000200000000000000011897000000000000000118979900000000000000000000CONSUMIDOR FINAL              000000000025000000000000000000000000000000000000000000000000000000000000000000000000000000000000000000000000000000000000PES00010000001000000000000000000000000
201703020820000200000000000000011898000000000000000118989900000000000000000000CONSUMIDOR FINAL              000000000008000000000000000000000000000000000000000000000000000000000000000000000000000000000000000000000000000000000000PES00010000001000000000000000000000000
201703020820000200000000000000011899000000000000000118999900000000000000000000CONSUMIDOR FINAL              000000000008000000000000000000000000000000000000000000000000000000000000000000000000000000000000000000000000000000000000PES00010000001000000000000000000000000
201703020820000200000000000000011900000000000000000119009900000000000000000000CONSUMIDOR FINAL              000000000007500000000000000000000000000000000000000000000000000000000000000000000000000000000000000000000000000000000000PES00010000001000000000000000000000000
201703030820000200000000000000011901000000000000000119019900000000000000000000CONSUMIDOR FINAL              000000000004500000000000000000000000000000000000000000000000000000000000000000000000000000000000000000000000000000000000PES00010000001000000000000000000000000
201703030820000200000000000000011902000000000000000119029900000000000000000000CONSUMIDOR FINAL              000000000002500000000000000000000000000000000000000000000000000000000000000000000000000000000000000000000000000000000000PES00010000001000000000000000000000000
201703030820000200000000000000011903000000000000000119039900000000000000000000CONSUMIDOR FINAL              000000000008000000000000000000000000000000000000000000000000000000000000000000000000000000000000000000000000000000000000PES00010000001000000000000000000000000
201703030820000200000000000000011904000000000000000119049900000000000000000000CONSUMIDOR FINAL              000000000004000000000000000000000000000000000000000000000000000000000000000000000000000000000000000000000000000000000000PES00010000001000000000000000000000000
201703030820000200000000000000011905000000000000000119059900000000000000000000CONSUMIDOR FINAL              000000000001000000000000000000000000000000000000000000000000000000000000000000000000000000000000000000000000000000000000PES00010000001000000000000000000000000
201703030820000200000000000000011906000000000000000119069900000000000000000000CONSUMIDOR FINAL              000000000009000000000000000000000000000000000000000000000000000000000000000000000000000000000000000000000000000000000000PES00010000001000000000000000000000000
201703030820000200000000000000011907000000000000000119079900000000000000000000CONSUMIDOR FINAL              000000000004000000000000000000000000000000000000000000000000000000000000000000000000000000000000000000000000000000000000PES00010000001000000000000000000000000
201703030820000200000000000000011908000000000000000119089900000000000000000000CONSUMIDOR FINAL              000000000010000000000000000000000000000000000000000000000000000000000000000000000000000000000000000000000000000000000000PES00010000001000000000000000000000000
201703030820000200000000000000011909000000000000000119099900000000000000000000CONSUMIDOR FINAL              000000000005000000000000000000000000000000000000000000000000000000000000000000000000000000000000000000000000000000000000PES00010000001000000000000000000000000
201703030820000200000000000000011910000000000000000119109900000000000000000000CONSUMIDOR FINAL              000000000004500000000000000000000000000000000000000000000000000000000000000000000000000000000000000000000000000000000000PES00010000001000000000000000000000000
201703030820000200000000000000011911000000000000000119119900000000000000000000CONSUMIDOR FINAL              000000000004000000000000000000000000000000000000000000000000000000000000000000000000000000000000000000000000000000000000PES00010000001000000000000000000000000
201703030820000200000000000000011912000000000000000119129900000000000000000000CONSUMIDOR FINAL              000000000008500000000000000000000000000000000000000000000000000000000000000000000000000000000000000000000000000000000000PES00010000001000000000000000000000000
201703030820000200000000000000011913000000000000000119139900000000000000000000CONSUMIDOR FINAL              000000000006500000000000000000000000000000000000000000000000000000000000000000000000000000000000000000000000000000000000PES00010000001000000000000000000000000
201703030820000200000000000000011914000000000000000119149900000000000000000000CONSUMIDOR FINAL              000000000005000000000000000000000000000000000000000000000000000000000000000000000000000000000000000000000000000000000000PES00010000001000000000000000000000000
201703030820000200000000000000011915000000000000000119159900000000000000000000CONSUMIDOR FINAL              000000000005000000000000000000000000000000000000000000000000000000000000000000000000000000000000000000000000000000000000PES00010000001000000000000000000000000
201703030820000200000000000000011916000000000000000119169900000000000000000000CONSUMIDOR FINAL              000000000005000000000000000000000000000000000000000000000000000000000000000000000000000000000000000000000000000000000000PES00010000001000000000000000000000000
201703030820000200000000000000011917000000000000000119179900000000000000000000CONSUMIDOR FINAL              000000000009000000000000000000000000000000000000000000000000000000000000000000000000000000000000000000000000000000000000PES00010000001000000000000000000000000
201703030820000200000000000000011918000000000000000119189900000000000000000000CONSUMIDOR FINAL              000000000004500000000000000000000000000000000000000000000000000000000000000000000000000000000000000000000000000000000000PES00010000001000000000000000000000000
201703030820000200000000000000011919000000000000000119199900000000000000000000CONSUMIDOR FINAL              000000000005000000000000000000000000000000000000000000000000000000000000000000000000000000000000000000000000000000000000PES00010000001000000000000000000000000
201703030820000200000000000000011920000000000000000119209900000000000000000000CONSUMIDOR FINAL              000000000003000000000000000000000000000000000000000000000000000000000000000000000000000000000000000000000000000000000000PES00010000001000000000000000000000000
201703030820000200000000000000011921000000000000000119219900000000000000000000CONSUMIDOR FINAL              000000000004000000000000000000000000000000000000000000000000000000000000000000000000000000000000000000000000000000000000PES00010000001000000000000000000000000
201703030820000200000000000000011922000000000000000119229900000000000000000000CONSUMIDOR FINAL              000000000003000000000000000000000000000000000000000000000000000000000000000000000000000000000000000000000000000000000000PES00010000001000000000000000000000000
201703030820000200000000000000011923000000000000000119239900000000000000000000CONSUMIDOR FINAL              000000000003000000000000000000000000000000000000000000000000000000000000000000000000000000000000000000000000000000000000PES00010000001000000000000000000000000
201703030820000200000000000000011924000000000000000119249900000000000000000000CONSUMIDOR FINAL              000000000004000000000000000000000000000000000000000000000000000000000000000000000000000000000000000000000000000000000000PES00010000001000000000000000000000000
201703030820000200000000000000011925000000000000000119259900000000000000000000CONSUMIDOR FINAL              000000000016000000000000000000000000000000000000000000000000000000000000000000000000000000000000000000000000000000000000PES00010000001000000000000000000000000
201703030820000200000000000000011926000000000000000119269900000000000000000000CONSUMIDOR FINAL              000000000004500000000000000000000000000000000000000000000000000000000000000000000000000000000000000000000000000000000000PES00010000001000000000000000000000000
201703030820000200000000000000011927000000000000000119279900000000000000000000CONSUMIDOR FINAL              000000000005000000000000000000000000000000000000000000000000000000000000000000000000000000000000000000000000000000000000PES00010000001000000000000000000000000
201703030820000200000000000000011928000000000000000119289900000000000000000000CONSUMIDOR FINAL              000000000009000000000000000000000000000000000000000000000000000000000000000000000000000000000000000000000000000000000000PES00010000001000000000000000000000000
201703030820000200000000000000011929000000000000000119299900000000000000000000CONSUMIDOR FINAL              000000000005000000000000000000000000000000000000000000000000000000000000000000000000000000000000000000000000000000000000PES00010000001000000000000000000000000
201703030820000200000000000000011930000000000000000119309900000000000000000000CONSUMIDOR FINAL              000000000004500000000000000000000000000000000000000000000000000000000000000000000000000000000000000000000000000000000000PES00010000001000000000000000000000000
201703030820000200000000000000011931000000000000000119319900000000000000000000CONSUMIDOR FINAL              000000000009000000000000000000000000000000000000000000000000000000000000000000000000000000000000000000000000000000000000PES00010000001000000000000000000000000
201703030820000200000000000000011932000000000000000119329900000000000000000000CONSUMIDOR FINAL              000000000004500000000000000000000000000000000000000000000000000000000000000000000000000000000000000000000000000000000000PES00010000001000000000000000000000000
201703030820000200000000000000011933000000000000000119339900000000000000000000CONSUMIDOR FINAL              000000000004500000000000000000000000000000000000000000000000000000000000000000000000000000000000000000000000000000000000PES00010000001000000000000000000000000
201703030820000200000000000000011934000000000000000119349900000000000000000000CONSUMIDOR FINAL              000000000004000000000000000000000000000000000000000000000000000000000000000000000000000000000000000000000000000000000000PES00010000001000000000000000000000000
201703030820000200000000000000011935000000000000000119359900000000000000000000CONSUMIDOR FINAL              000000000007000000000000000000000000000000000000000000000000000000000000000000000000000000000000000000000000000000000000PES00010000001000000000000000000000000
201703030820000200000000000000011936000000000000000119369900000000000000000000CONSUMIDOR FINAL              000000000003000000000000000000000000000000000000000000000000000000000000000000000000000000000000000000000000000000000000PES00010000001000000000000000000000000
201703030820000200000000000000011937000000000000000119379900000000000000000000CONSUMIDOR FINAL              000000000006000000000000000000000000000000000000000000000000000000000000000000000000000000000000000000000000000000000000PES00010000001000000000000000000000000
201703030820000200000000000000011938000000000000000119389900000000000000000000CONSUMIDOR FINAL              000000000008000000000000000000000000000000000000000000000000000000000000000000000000000000000000000000000000000000000000PES00010000001000000000000000000000000
201703030820000200000000000000011939000000000000000119399900000000000000000000CONSUMIDOR FINAL              000000000007500000000000000000000000000000000000000000000000000000000000000000000000000000000000000000000000000000000000PES00010000001000000000000000000000000
201703030820000200000000000000011940000000000000000119409900000000000000000000CONSUMIDOR FINAL              000000000003000000000000000000000000000000000000000000000000000000000000000000000000000000000000000000000000000000000000PES00010000001000000000000000000000000
201703030820000200000000000000011941000000000000000119419900000000000000000000CONSUMIDOR FINAL              000000000005000000000000000000000000000000000000000000000000000000000000000000000000000000000000000000000000000000000000PES00010000001000000000000000000000000
201703030820000200000000000000011942000000000000000119429900000000000000000000CONSUMIDOR FINAL              000000000003000000000000000000000000000000000000000000000000000000000000000000000000000000000000000000000000000000000000PES00010000001000000000000000000000000
201703030820000200000000000000011943000000000000000119439900000000000000000000CONSUMIDOR FINAL              000000000006000000000000000000000000000000000000000000000000000000000000000000000000000000000000000000000000000000000000PES00010000001000000000000000000000000
201703030820000200000000000000011944000000000000000119449900000000000000000000CONSUMIDOR FINAL              000000000007000000000000000000000000000000000000000000000000000000000000000000000000000000000000000000000000000000000000PES00010000001000000000000000000000000
201703030820000200000000000000011945000000000000000119459900000000000000000000CONSUMIDOR FINAL              000000000003000000000000000000000000000000000000000000000000000000000000000000000000000000000000000000000000000000000000PES00010000001000000000000000000000000
201703030820000200000000000000011946000000000000000119469900000000000000000000CONSUMIDOR FINAL              000000000003000000000000000000000000000000000000000000000000000000000000000000000000000000000000000000000000000000000000PES00010000001000000000000000000000000
201703030820000200000000000000011947000000000000000119479900000000000000000000CONSUMIDOR FINAL              000000000003500000000000000000000000000000000000000000000000000000000000000000000000000000000000000000000000000000000000PES00010000001000000000000000000000000
201703030820000200000000000000011948000000000000000119489900000000000000000000CONSUMIDOR FINAL              000000000004000000000000000000000000000000000000000000000000000000000000000000000000000000000000000000000000000000000000PES00010000001000000000000000000000000
201703030820000200000000000000011949000000000000000119499900000000000000000000CONSUMIDOR FINAL              000000000002000000000000000000000000000000000000000000000000000000000000000000000000000000000000000000000000000000000000PES00010000001000000000000000000000000
201703030820000200000000000000011950000000000000000119509900000000000000000000CONSUMIDOR FINAL              000000000018200000000000000000000000000000000000000000000000000000000000000000000000000000000000000000000000000000000000PES00010000001000000000000000000000000
201703030820000200000000000000011951000000000000000119519900000000000000000000CONSUMIDOR FINAL              000000000003500000000000000000000000000000000000000000000000000000000000000000000000000000000000000000000000000000000000PES00010000001000000000000000000000000
201703030820000200000000000000011952000000000000000119529900000000000000000000CONSUMIDOR FINAL              000000000020000000000000000000000000000000000000000000000000000000000000000000000000000000000000000000000000000000000000PES00010000001000000000000000000000000
201703030820000200000000000000011953000000000000000119539900000000000000000000CONSUMIDOR FINAL              000000000004000000000000000000000000000000000000000000000000000000000000000000000000000000000000000000000000000000000000PES00010000001000000000000000000000000
201703030820000200000000000000011954000000000000000119549900000000000000000000CONSUMIDOR FINAL              000000000010000000000000000000000000000000000000000000000000000000000000000000000000000000000000000000000000000000000000PES00010000001000000000000000000000000
201703030820000200000000000000011955000000000000000119559900000000000000000000CONSUMIDOR FINAL              000000000017000000000000000000000000000000000000000000000000000000000000000000000000000000000000000000000000000000000000PES00010000001000000000000000000000000
201703030820000200000000000000011956000000000000000119569900000000000000000000CONSUMIDOR FINAL              000000000004500000000000000000000000000000000000000000000000000000000000000000000000000000000000000000000000000000000000PES00010000001000000000000000000000000
201703030820000200000000000000011957000000000000000119579900000000000000000000CONSUMIDOR FINAL              000000000017000000000000000000000000000000000000000000000000000000000000000000000000000000000000000000000000000000000000PES00010000001000000000000000000000000
201703030820000200000000000000011958000000000000000119589900000000000000000000CONSUMIDOR FINAL              000000000022500000000000000000000000000000000000000000000000000000000000000000000000000000000000000000000000000000000000PES00010000001000000000000000000000000
201703030820000200000000000000011959000000000000000119599900000000000000000000CONSUMIDOR FINAL              000000000006500000000000000000000000000000000000000000000000000000000000000000000000000000000000000000000000000000000000PES00010000001000000000000000000000000
201703030820000200000000000000011960000000000000000119609900000000000000000000CONSUMIDOR FINAL              000000000009000000000000000000000000000000000000000000000000000000000000000000000000000000000000000000000000000000000000PES00010000001000000000000000000000000
201703030820000200000000000000011961000000000000000119619900000000000000000000CONSUMIDOR FINAL              000000000009000000000000000000000000000000000000000000000000000000000000000000000000000000000000000000000000000000000000PES00010000001000000000000000000000000
201703030820000200000000000000011962000000000000000119629900000000000000000000CONSUMIDOR FINAL              000000000011500000000000000000000000000000000000000000000000000000000000000000000000000000000000000000000000000000000000PES00010000001000000000000000000000000
201703040820000200000000000000011963000000000000000119639900000000000000000000CONSUMIDOR FINAL              000000000007000000000000000000000000000000000000000000000000000000000000000000000000000000000000000000000000000000000000PES00010000001000000000000000000000000
201703040820000200000000000000011964000000000000000119649900000000000000000000CONSUMIDOR FINAL              000000000004500000000000000000000000000000000000000000000000000000000000000000000000000000000000000000000000000000000000PES00010000001000000000000000000000000
201703040820000200000000000000011965000000000000000119659900000000000000000000CONSUMIDOR FINAL              000000000002000000000000000000000000000000000000000000000000000000000000000000000000000000000000000000000000000000000000PES00010000001000000000000000000000000
201703040820000200000000000000011966000000000000000119669900000000000000000000CONSUMIDOR FINAL              000000000003000000000000000000000000000000000000000000000000000000000000000000000000000000000000000000000000000000000000PES00010000001000000000000000000000000
201703040820000200000000000000011967000000000000000119679900000000000000000000CONSUMIDOR FINAL              000000000003500000000000000000000000000000000000000000000000000000000000000000000000000000000000000000000000000000000000PES00010000001000000000000000000000000
201703040820000200000000000000011968000000000000000119689900000000000000000000CONSUMIDOR FINAL              000000000004000000000000000000000000000000000000000000000000000000000000000000000000000000000000000000000000000000000000PES00010000001000000000000000000000000
201703040820000200000000000000011969000000000000000119699900000000000000000000CONSUMIDOR FINAL              000000000005000000000000000000000000000000000000000000000000000000000000000000000000000000000000000000000000000000000000PES00010000001000000000000000000000000
201703040820000200000000000000011970000000000000000119709900000000000000000000CONSUMIDOR FINAL              000000000002000000000000000000000000000000000000000000000000000000000000000000000000000000000000000000000000000000000000PES00010000001000000000000000000000000
201703040820000200000000000000011971000000000000000119719900000000000000000000CONSUMIDOR FINAL              000000000001500000000000000000000000000000000000000000000000000000000000000000000000000000000000000000000000000000000000PES00010000001000000000000000000000000
201703040820000200000000000000011972000000000000000119729900000000000000000000CONSUMIDOR FINAL              000000000008000000000000000000000000000000000000000000000000000000000000000000000000000000000000000000000000000000000000PES00010000001000000000000000000000000
201703040820000200000000000000011973000000000000000119739900000000000000000000CONSUMIDOR FINAL              000000000008000000000000000000000000000000000000000000000000000000000000000000000000000000000000000000000000000000000000PES00010000001000000000000000000000000
201703040820000200000000000000011974000000000000000119749900000000000000000000CONSUMIDOR FINAL              000000000005000000000000000000000000000000000000000000000000000000000000000000000000000000000000000000000000000000000000PES00010000001000000000000000000000000
201703040820000200000000000000011975000000000000000119759900000000000000000000CONSUMIDOR FINAL              000000000005000000000000000000000000000000000000000000000000000000000000000000000000000000000000000000000000000000000000PES00010000001000000000000000000000000
201703040820000200000000000000011976000000000000000119769900000000000000000000CONSUMIDOR FINAL              000000000001500000000000000000000000000000000000000000000000000000000000000000000000000000000000000000000000000000000000PES00010000001000000000000000000000000
201703040820000200000000000000011977000000000000000119779900000000000000000000CONSUMIDOR FINAL              000000000002500000000000000000000000000000000000000000000000000000000000000000000000000000000000000000000000000000000000PES00010000001000000000000000000000000
201703040820000200000000000000011978000000000000000119789900000000000000000000CONSUMIDOR FINAL              000000000004000000000000000000000000000000000000000000000000000000000000000000000000000000000000000000000000000000000000PES00010000001000000000000000000000000
201703040820000200000000000000011979000000000000000119799900000000000000000000CONSUMIDOR FINAL              000000000002500000000000000000000000000000000000000000000000000000000000000000000000000000000000000000000000000000000000PES00010000001000000000000000000000000
201703040820000200000000000000011980000000000000000119809900000000000000000000CONSUMIDOR FINAL              000000000003500000000000000000000000000000000000000000000000000000000000000000000000000000000000000000000000000000000000PES00010000001000000000000000000000000
201703040820000200000000000000011981000000000000000119819900000000000000000000CONSUMIDOR FINAL              000000000005000000000000000000000000000000000000000000000000000000000000000000000000000000000000000000000000000000000000PES00010000001000000000000000000000000
201703040820000200000000000000011982000000000000000119829900000000000000000000CONSUMIDOR FINAL              000000000004000000000000000000000000000000000000000000000000000000000000000000000000000000000000000000000000000000000000PES00010000001000000000000000000000000
201703040820000200000000000000011983000000000000000119839900000000000000000000CONSUMIDOR FINAL              000000000007000000000000000000000000000000000000000000000000000000000000000000000000000000000000000000000000000000000000PES00010000001000000000000000000000000
201703040820000200000000000000011984000000000000000119849900000000000000000000CONSUMIDOR FINAL              000000000005000000000000000000000000000000000000000000000000000000000000000000000000000000000000000000000000000000000000PES00010000001000000000000000000000000
201703040820000200000000000000011985000000000000000119859900000000000000000000CONSUMIDOR FINAL              000000000004000000000000000000000000000000000000000000000000000000000000000000000000000000000000000000000000000000000000PES00010000001000000000000000000000000
201703040820000200000000000000011986000000000000000119869900000000000000000000CONSUMIDOR FINAL              000000000001000000000000000000000000000000000000000000000000000000000000000000000000000000000000000000000000000000000000PES00010000001000000000000000000000000
201703040820000200000000000000011987000000000000000119879900000000000000000000CONSUMIDOR FINAL              000000000005000000000000000000000000000000000000000000000000000000000000000000000000000000000000000000000000000000000000PES00010000001000000000000000000000000
201703040820000200000000000000011988000000000000000119889900000000000000000000CONSUMIDOR FINAL              000000000004000000000000000000000000000000000000000000000000000000000000000000000000000000000000000000000000000000000000PES00010000001000000000000000000000000
201703040820000200000000000000011989000000000000000119899900000000000000000000CONSUMIDOR FINAL              000000000003000000000000000000000000000000000000000000000000000000000000000000000000000000000000000000000000000000000000PES00010000001000000000000000000000000
201703040820000200000000000000011990000000000000000119909900000000000000000000CONSUMIDOR FINAL              000000000005000000000000000000000000000000000000000000000000000000000000000000000000000000000000000000000000000000000000PES00010000001000000000000000000000000
201703040820000200000000000000011991000000000000000119919900000000000000000000CONSUMIDOR FINAL              000000000005000000000000000000000000000000000000000000000000000000000000000000000000000000000000000000000000000000000000PES00010000001000000000000000000000000
201703040820000200000000000000011992000000000000000119929900000000000000000000CONSUMIDOR FINAL              000000000005000000000000000000000000000000000000000000000000000000000000000000000000000000000000000000000000000000000000PES00010000001000000000000000000000000
201703040820000200000000000000011993000000000000000119939900000000000000000000CONSUMIDOR FINAL              000000000008000000000000000000000000000000000000000000000000000000000000000000000000000000000000000000000000000000000000PES00010000001000000000000000000000000
201703040820000200000000000000011994000000000000000119949900000000000000000000CONSUMIDOR FINAL              000000000004000000000000000000000000000000000000000000000000000000000000000000000000000000000000000000000000000000000000PES00010000001000000000000000000000000
201703040820000200000000000000011995000000000000000119959900000000000000000000CONSUMIDOR FINAL              000000000004500000000000000000000000000000000000000000000000000000000000000000000000000000000000000000000000000000000000PES00010000001000000000000000000000000
201703040820000200000000000000011996000000000000000119969900000000000000000000CONSUMIDOR FINAL              000000000009000000000000000000000000000000000000000000000000000000000000000000000000000000000000000000000000000000000000PES00010000001000000000000000000000000
201703040820000200000000000000011997000000000000000119979900000000000000000000CONSUMIDOR FINAL              000000000008000000000000000000000000000000000000000000000000000000000000000000000000000000000000000000000000000000000000PES00010000001000000000000000000000000
201703040820000200000000000000011998000000000000000119989900000000000000000000CONSUMIDOR FINAL              000000000009000000000000000000000000000000000000000000000000000000000000000000000000000000000000000000000000000000000000PES00010000001000000000000000000000000
201703040820000200000000000000011999000000000000000119999900000000000000000000CONSUMIDOR FINAL              000000000007000000000000000000000000000000000000000000000000000000000000000000000000000000000000000000000000000000000000PES00010000001000000000000000000000000
201703040820000200000000000000012000000000000000000120009900000000000000000000CONSUMIDOR FINAL              000000000005000000000000000000000000000000000000000000000000000000000000000000000000000000000000000000000000000000000000PES00010000001000000000000000000000000
201703040820000200000000000000012001000000000000000120019900000000000000000000CONSUMIDOR FINAL              000000000005000000000000000000000000000000000000000000000000000000000000000000000000000000000000000000000000000000000000PES00010000001000000000000000000000000
201703040820000200000000000000012002000000000000000120029900000000000000000000CONSUMIDOR FINAL              000000000002500000000000000000000000000000000000000000000000000000000000000000000000000000000000000000000000000000000000PES00010000001000000000000000000000000
201703040820000200000000000000012003000000000000000120039900000000000000000000CONSUMIDOR FINAL              000000000005500000000000000000000000000000000000000000000000000000000000000000000000000000000000000000000000000000000000PES00010000001000000000000000000000000
201703040820000200000000000000012004000000000000000120049900000000000000000000CONSUMIDOR FINAL              000000000008000000000000000000000000000000000000000000000000000000000000000000000000000000000000000000000000000000000000PES00010000001000000000000000000000000
201703040820000200000000000000012005000000000000000120059900000000000000000000CONSUMIDOR FINAL              000000000001500000000000000000000000000000000000000000000000000000000000000000000000000000000000000000000000000000000000PES00010000001000000000000000000000000
201703040820000200000000000000012006000000000000000120069900000000000000000000CONSUMIDOR FINAL              000000000005000000000000000000000000000000000000000000000000000000000000000000000000000000000000000000000000000000000000PES00010000001000000000000000000000000
201703040820000200000000000000012007000000000000000120079900000000000000000000CONSUMIDOR FINAL              000000000005200000000000000000000000000000000000000000000000000000000000000000000000000000000000000000000000000000000000PES00010000001000000000000000000000000
201703040820000200000000000000012008000000000000000120089900000000000000000000CONSUMIDOR FINAL              000000000011000000000000000000000000000000000000000000000000000000000000000000000000000000000000000000000000000000000000PES00010000001000000000000000000000000
201703040820000200000000000000012009000000000000000120099900000000000000000000CONSUMIDOR FINAL              000000000005000000000000000000000000000000000000000000000000000000000000000000000000000000000000000000000000000000000000PES00010000001000000000000000000000000
201703040820000200000000000000012010000000000000000120109900000000000000000000CONSUMIDOR FINAL              000000000008000000000000000000000000000000000000000000000000000000000000000000000000000000000000000000000000000000000000PES00010000001000000000000000000000000
201703040820000200000000000000012011000000000000000120119900000000000000000000CONSUMIDOR FINAL              000000000005000000000000000000000000000000000000000000000000000000000000000000000000000000000000000000000000000000000000PES00010000001000000000000000000000000
201703040820000200000000000000012012000000000000000120129900000000000000000000CONSUMIDOR FINAL              000000000016000000000000000000000000000000000000000000000000000000000000000000000000000000000000000000000000000000000000PES00010000001000000000000000000000000
201703040820000200000000000000012013000000000000000120139900000000000000000000CONSUMIDOR FINAL              000000000005000000000000000000000000000000000000000000000000000000000000000000000000000000000000000000000000000000000000PES00010000001000000000000000000000000
201703040820000200000000000000012014000000000000000120149900000000000000000000CONSUMIDOR FINAL              000000000007000000000000000000000000000000000000000000000000000000000000000000000000000000000000000000000000000000000000PES00010000001000000000000000000000000
