201601150010000100000000000000013469000000000000000134698000000000033690722009ASOT                          000000001481134000000000000000000000000000000000000001481134000000000000000000000000000000000000000000000000000000000000PES00010000001000000000000000020160115
201601080010000100000000000000665253000000000000006652538000000000030543364610CIRCULO MEDICO DE SALTA       000000002211118000000000000000000000000000000000000002211118000000000000000000000000000000000000000000000000000000000000PES00010000001000000000000000020160108
201601130010000100000000000000094705000000000000000947058000000000030707938338SANATORIO SAN ROQUE SA        000000000806279000000000000000000000000000000000000000806279000000000000000000000000000000000000000000000000000000000000PES00010000001000000000000000020160113
201601300010000100000000000000013549000000000000000135498000000000033690722009ASOT                          000000004911750000000000000000000000000000000000000004911750000000000000000000000000000000000000000000000000000000000000PES00010000001000000000000000020160130
