201601020060000400000000000000000098000000000000000000988000000000030585583533MUNICIPALIDAD DE LA CIUDAD DE 000000000015500000000000000000000000000000000000000000015500000000000000000000000000000000000000000000000000000000000000PES00010000001E00000000000000000000000
201601020010000400000000000000000345000000000000000003458000000000027163075119GALLO TERESA VICTORIA         000000000003501000000000000000000000000000000000000000000000000000000000000000000000000000000000000000000000000000000000PES00010000001000000000000000000000000
201601020010000400000000000000000346000000000000000003468000000000027126802159IBANES GLADYS BEATRIZ         000000000013201000000000000000000000000000000000000000000000000000000000000000000000000000000000000000000000000000000000PES00010000001000000000000000000000000
201601040060000400000000000000000099000000000000000000998000000000030999256267MINISTERIO DE EDUCACION CIENCI000000000036000000000000000000000000000000000000000000036000000000000000000000000000000000000000000000000000000000000000PES00010000001E00000000000000000000000
201601060010000400000000000000000347000000000000000003478000000000030709676861HOSPITAL PRIVADO TRES CERRITOS000000000007500000000000000000000000000000000000000000000000000000000000000000000000000000000000000000000000000000000000PES00010000001000000000000000000000000
201601060060000400000000000000000100000000000000000001008000000000030999256267MINISTERIO DE EDUCACION CIENCI000000000026700000000000000000000000000000000000000000026700000000000000000000000000000000000000000000000000000000000000PES00010000001E00000000000000000000000
201601060010000400000000000000000348000000000000000003488000000000027293344693ROMERO MARIA FERNANDA         000000000020634000000000000000000000000000000000000000000000000000000000000000000000000000000000000000000000000000000000PES00010000002000000000000000000000000
201601060060000400000000000000000101000000000000000001018000000000030999256267MINISTERIO DE EDUCACION CIENCI000000000023800000000000000000000000000000000000000000023800000000000000000000000000000000000000000000000000000000000000PES00010000001E00000000000000000000000
201601060010000400000000000000000349000000000000000003498000000000020144880146LAVIN GUILLERMO MIGUEL        000000000004000000000000000000000000000000000000000000000000000000000000000000000000000000000000000000000000000000000000PES00010000001000000000000000000000000
201601070010000400000000000000000350000000000000000003508000000000020288848867ROMANO ANGEL DANIEL           000000000030000000000000000000000000000000000000000000000000000000000000000000000000000000000000000000000000000000000000PES00010000001000000000000000000000000
201601070010000400000000000000000351000000000000000003518000000000030709223972LOURDES S.A.                  000000000094743000000000000000000000000000000000000000000000000000000000000000000000000000000000000000000000000000000000PES00010000001000000000000000000000000
201601070010000400000000000000000352000000000000000003528000000000030709223972LOURDES S.A.                  000000000099208000000000000000000000000000000000000000000000000000000000000000000000000000000000000000000000000000000000PES00010000001000000000000000000000000
201601080010000400000000000000000353000000000000000003538000000000030709303240CANYO CONSTRUCCIONES SRL      000000000027546000000000000000000000000000000000000000000000000000000000000000000000000000000000000000000000000000000000PES00010000001000000000000000000000000
201601090010000400000000000000000354000000000000000003548000000000030712042180SANTA CRUZ S.R.L.             000000000025800000000000000000000000000000000000000000000000000000000000000000000000000000000000000000000000000000000000PES00010000001000000000000000000000000
201601090010000400000000000000000355000000000000000003558000000000027293344693ROMERO MARIA FERNANDA         000000000014501000000000000000000000000000000000000000000000000000000000000000000000000000000000000000000000000000000000PES00010000001000000000000000000000000
201601110060000400000000000000000102000000000000000001028000000000030999263158MINISTERIO  DE SALUD PUBLICA D000000000047000000000000000000000000000000000000000000047000000000000000000000000000000000000000000000000000000000000000PES00010000001E00000000000000000000000
201601110010000400000000000000000356000000000000000003568000000000030712854304MR Y ASOCIADOS S.R.L.         000000000015305000000000000000000000000000000000000000000000000000000000000000000000000000000000000000000000000000000000PES00010000001000000000000000000000000
201601110060000400000000000000000103000000000000000001038000000000030586762571UNIVERSIDAD NACIONAL DE SALTA 000000000005200000000000000000000000000000000000000000005200000000000000000000000000000000000000000000000000000000000000PES00010000001E00000000000000000000000
201601120010000400000000000000000357000000000000000003578000000000027291647052AUCACHI AIDA ALCIRA           000000000011602000000000000000000000000000000000000000000000000000000000000000000000000000000000000000000000000000000000PES00010000001000000000000000000000000
201601120060000400000000000000000104000000000000000001048000000000030999256267MINISTERIO DE EDUCACION CIENCI000000000011000000000000000000000000000000000000000000011000000000000000000000000000000000000000000000000000000000000000PES00010000001E00000000000000000000000
201601120010000400000000000000000358000000000000000003588000000000030711372705JUAN PEDRO GARIN CONSTRUCCIONE000000000036001000000000000000000000000000000000000000000000000000000000000000000000000000000000000000000000000000000000PES00010000001000000000000000000000000
201601130010000400000000000000000359000000000000000003598000000000030712042180SANTA CRUZ S.R.L.             000000000004200000000000000000000000000000000000000000000000000000000000000000000000000000000000000000000000000000000000PES00010000001000000000000000000000000
201601130010000400000000000000000360000000000000000003608000000000030707551034ALTOS TRES CERRITOS S.A.      000000000008001000000000000000000000000000000000000000000000000000000000000000000000000000000000000000000000000000000000PES00010000001000000000000000000000000
201601140060000400000000000000000105000000000000000001058000000000030999256267MINISTERIO DE EDUCACION CIENCI000000000009600000000000000000000000000000000000000000009600000000000000000000000000000000000000000000000000000000000000PES00010000001E00000000000000000000000
201601140010000400000000000000000361000000000000000003618000000000030711848874C.I.S.E.P. CONSULTORA S.R.L.  000000000006000000000000000000000000000000000000000000000000000000000000000000000000000000000000000000000000000000000000PES00010000001000000000000000000000000
201601140010000400000000000000000362000000000000000003628000000000030669713408STAR SERVICIOS EMPRESARIOS SA.000000000012000000000000000000000000000000000000000000000000000000000000000000000000000000000000000000000000000000000000PES00010000001000000000000000000000000
201601150010000400000000000000000363000000000000000003638000000000030714312606LESSER SALTA S.R.L.           000000000048199000000000000000000000000000000000000000000000000000000000000000000000000000000000000000000000000000000000PES00010000001000000000000000000000000
201601170010000400000000000000000364000000000000000003648000000000020141766350ASTUDILLO CESAR ALEJANDRO     000000000007560000000000000000000000000000000000000000000000000000000000000000000000000000000000000000000000000000000000PES00010000001000000000000000000000000
201601180060000400000000000000000106000000000000000001068000000000030631779707COLEGIO SANTO TOMAS DE AQUINO 000000000022400000000000000000000000000000000000000000022400000000000000000000000000000000000000000000000000000000000000PES00010000001E00000000000000000000000
201601190010000400000000000000000365000000000000000003658000000000030604999657FRIGORIFICO BERMEJO S.A.      000000000005600000000000000000000000000000000000000000000000000000000000000000000000000000000000000000000000000000000000PES00010000001000000000000000000000000
201601190010000400000000000000000366000000000000000003668000000000030593929961PARQUE LIMACHE S A            000000000009001000000000000000000000000000000000000000000000000000000000000000000000000000000000000000000000000000000000PES00010000001000000000000000000000000
201601190010000400000000000000000367000000000000000003678000000000030507950848MOLINO CAÑUELAS SOCIEDAD ANONI000000000014000000000000000000000000000000000000000000000000000000000000000000000000000000000000000000000000000000000000PES00010000001000000000000000000000000
201601200010000400000000000000000368000000000000000003688000000000030627549659CASAS CONTEMPORANEAS S A      000000000023201000000000000000000000000000000000000000000000000000000000000000000000000000000000000000000000000000000000PES00010000001000000000000000000000000
201601200060000400000000000000000107000000000000000001078000000000030710638094COMPLEJO JARDINES DE BELGRANO 000000000016000000000000000000000000000000000000000000000000000000000000000000000000000000000000000000000000000000000000PES00010000001000000000000000000000000
201601200060000400000000000000000108000000000000000001088000000000030999263158MINISTERIO  DE SALUD PUBLICA D000000000008000000000000000000000000000000000000000000008000000000000000000000000000000000000000000000000000000000000000PES00010000001E00000000000000000000000
201601210060000400000000000000000109000000000000000001098000000000030531617491JOCKEY CLUB DE SALTA          000000000005600000000000000000000000000000000000000000005600000000000000000000000000000000000000000000000000000000000000PES00010000001E00000000000000000000000
201601210010000400000000000000000369000000000000000003698000000000027054155080VAN CAUWLAERT SARA MARIA      000000000005499000000000000000000000000000000000000000000000000000000000000000000000000000000000000000000000000000000000PES00010000001000000000000000000000000
201601220010000400000000000000000370000000000000000003708000000000030709223972LOURDES S.A.                  000000000035901000000000000000000000000000000000000000000000000000000000000000000000000000000000000000000000000000000000PES00010000001000000000000000000000000
201601220010000400000000000000000371000000000000000003718000000000030700087227ALUJA SRL                     000000000003000000000000000000000000000000000000000000000000000000000000000000000000000000000000000000000000000000000000PES00010000001000000000000000000000000
201601230010000400000000000000000372000000000000000003728000000000033710311159PACIFIC TRADE S.R.L.          000000000010999000000000000000000000000000000000000000000000000000000000000000000000000000000000000000000000000000000000PES00010000001000000000000000000000000
201601230060000400000000000000000110000000000000000001108000000000030546694263GENDARMERIA NACIONAL          000000000016800000000000000000000000000000000000000000016800000000000000000000000000000000000000000000000000000000000000PES00010000001E00000000000000000000000
201601230010000400000000000000000373000000000000000003738000000000027293344693ROMERO MARIA FERNANDA         000000000002000000000000000000000000000000000000000000000000000000000000000000000000000000000000000000000000000000000000PES00010000001000000000000000000000000
201601230010000400000000000000000374000000000000000003748000000000030714652059YANAY SRL                     000000000016400000000000000000000000000000000000000000000000000000000000000000000000000000000000000000000000000000000000PES00010000001000000000000000000000000
201601250010000400000000000000000375000000000000000003758000000000020147086912GASPARINI MAURO ALEJANDRO     000000000077000000000000000000000000000000000000000000000000000000000000000000000000000000000000000000000000000000000000PES00010000001000000000000000000000000
201601250010000400000000000000000376000000000000000003768000000000030669713408STAR SERVICIOS EMPRESARIOS SA.000000000008002000000000000000000000000000000000000000000000000000000000000000000000000000000000000000000000000000000000PES00010000001000000000000000000000000
201601250010000400000000000000000377000000000000000003778000000000033711140439BERLIN MOTORS S.A.            000000000002800000000000000000000000000000000000000000000000000000000000000000000000000000000000000000000000000000000000PES00010000001000000000000000000000000
201601260060000400000000000000000111000000000000000001118000000000030631779707COLEGIO SANTO TOMAS DE AQUINO 000000000024900000000000000000000000000000000000000000024900000000000000000000000000000000000000000000000000000000000000PES00010000001E00000000000000000000000
201601260060000400000000000000000112000000000000000001128000000000030659709046CONSORCIO EDIFICIO CERAMICA DE000000000008000000000000000000000000000000000000000000008000000000000000000000000000000000000000000000000000000000000000PES00010000001E00000000000000000000000
201601280010000400000000000000000378000000000000000003788000000000030707933484LOMBARDI CAMIONES S.A         000000000019481000000000000000000000000000000000000000000000000000000000000000000000000000000000000000000000000000000000PES00010000001000000000000000000000000
201601280060000400000000000000000113000000000000000001138000000000020286118039ACUÑA HERRERA DIEGO ALEJANDRO 000000000023400000000000000000000000000000000000000000000000000000000000000000000000000000000000000000000000000000000000PES00010000001000000000000000000000000
201601280010000400000000000000000379000000000000000003798000000000030625616359PETRO GAS S R L               000000000014000000000000000000000000000000000000000000000000000000000000000000000000000000000000000000000000000000000000PES00010000001000000000000000000000000
201601290010000400000000000000000380000000000000000003808000000000030709159301CONSTRUCCIONES, DISEÑOS Y SERV000000000005003000000000000000000000000000000000000000000000000000000000000000000000000000000000000000000000000000000000PES00010000001000000000000000000000000
201601290010000400000000000000000381000000000000000003818000000000030710837313HIGH LUCK GROUP LIMITED       000000000014012000000000000000000000000000000000000000000000000000000000000000000000000000000000000000000000000000000000PES00010000001000000000000000000000000
201601290010000400000000000000000382000000000000000003828000000000020121115701SPINOZZI JUAN CARLOS MARCELO  000000004784999000000000000000000000000000000000000000000000000000000000000000000000000000000000000000000000000000000000PES00010000001000000000000000000000000
201601290010000400000000000000000383000000000000000003838000000000020141765915FERRERO SERGIO DAVID          000000000003200000000000000000000000000000000000000000000000000000000000000000000000000000000000000000000000000000000000PES00010000001000000000000000000000000
201601290060000400000000000000000114000000000000000001148000000000030631779707COLEGIO SANTO TOMAS DE AQUINO 000000000006800000000000000000000000000000000000000000006800000000000000000000000000000000000000000000000000000000000000PES00010000001E00000000000000000000000
201601300010000400000000000000000384000000000000000003848000000000030711162514FMF ARGENTINA S.R.L.          000000000009200000000000000000000000000000000000000000000000000000000000000000000000000000000000000000000000000000000000PES00010000001000000000000000000000000
201601020060000100000000000000001080000000000000000010808000000000020000000001INFORME Z                     000000000598920000000000000000000000000000000000000000000000000000000000000000000000000000000000000000000000000000000000PES00010000001000000000000000020160102
201601030060000100000000000000001081000000000000000010818000000000020000000001INFORME Z                     000000000147721000000000000000000000000000000000000000000000000000000000000000000000000000000000000000000000000000000000PES00010000001000000000000000020160103
201601040060000100000000000000001082000000000000000010828000000000020000000001INFORME Z                     000000000462381000000000000000000000000000000000000000000000000000000000000000000000000000000000000000000000000000000000PES00010000001000000000000000020160104
201601050060000100000000000000001083000000000000000010838000000000020000000001INFORME Z                     000000000443350000000000000000000000000000000000000000000000000000000000000000000000000000000000000000000000000000000000PES00010000001000000000000000020160105
201601060060000100000000000000001084000000000000000010848000000000020000000001INFORME Z                     000000000457350000000000000000000000000000000000000000000000000000000000000000000000000000000000000000000000000000000000PES00010000001000000000000000020160106
201601070060000100000000000000001085000000000000000010858000000000020000000001INFORME Z                     000000000420001000000000000000000000000000000000000000000000000000000000000000000000000000000000000000000000000000000000PES00010000001000000000000000020160107
201601080060000100000000000000001086000000000000000010868000000000020000000001INFORME Z                     000000000565301000000000000000000000000000000000000000000000000000000000000000000000000000000000000000000000000000000000PES00010000001000000000000000020160108
201601090060000100000000000000001087000000000000000010878000000000020000000001INFORME Z                     000000000631161000000000000000000000000000000000000000000000000000000000000000000000000000000000000000000000000000000000PES00010000001000000000000000020160109
201601100060000100000000000000001088000000000000000010888000000000020000000001INFORME Z                     000000000147100000000000000000000000000000000000000000000000000000000000000000000000000000000000000000000000000000000000PES00010000001000000000000000020160110
201601110060000100000000000000001089000000000000000010898000000000020000000001INFORME Z                     000000000449190000000000000000000000000000000000000000000000000000000000000000000000000000000000000000000000000000000000PES00010000001000000000000000020160111
201601120060000100000000000000001090000000000000000010908000000000020000000001INFORME Z                     000000000529710000000000000000000000000000000000000000000000000000000000000000000000000000000000000000000000000000000000PES00010000001000000000000000020160112
201601130060000100000000000000001091000000000000000010918000000000020000000001INFORME Z                     000000000293750000000000000000000000000000000000000000000000000000000000000000000000000000000000000000000000000000000000PES00010000001000000000000000020160113
201601140060000100000000000000001092000000000000000010928000000000020000000001INFORME Z                     000000000268800000000000000000000000000000000000000000000000000000000000000000000000000000000000000000000000000000000000PES00010000001000000000000000020160114
201601150060000100000000000000001093000000000000000010938000000000020000000001INFORME Z                     000000000297500000000000000000000000000000000000000000000000000000000000000000000000000000000000000000000000000000000000PES00010000001000000000000000020160115
201601160060000100000000000000001094000000000000000010948000000000020000000001INFORME Z                     000000000299150000000000000000000000000000000000000000000000000000000000000000000000000000000000000000000000000000000000PES00010000001000000000000000020160116
201601170060000100000000000000001095000000000000000010958000000000020000000001INFORME Z                     000000000151000000000000000000000000000000000000000000000000000000000000000000000000000000000000000000000000000000000000PES00010000001000000000000000020160117
201601180060000100000000000000001096000000000000000010968000000000020000000001INFORME Z                     000000000461150000000000000000000000000000000000000000000000000000000000000000000000000000000000000000000000000000000000PES00010000001000000000000000020160118
201601190060000100000000000000001097000000000000000010978000000000020000000001INFORME Z                     000000000462500000000000000000000000000000000000000000000000000000000000000000000000000000000000000000000000000000000000PES00010000001000000000000000020160119
201601200060000100000000000000001098000000000000000010988000000000020000000001INFORME Z                     000000000394200000000000000000000000000000000000000000000000000000000000000000000000000000000000000000000000000000000000PES00010000001000000000000000020160120
201601210060000100000000000000001099000000000000000010998000000000020000000001INFORME Z                     000000000459345000000000000000000000000000000000000000000000000000000000000000000000000000000000000000000000000000000000PES00010000001000000000000000020160121
201601220060000100000000000000001100000000000000000011008000000000020000000001INFORME Z                     000000000395150000000000000000000000000000000000000000000000000000000000000000000000000000000000000000000000000000000000PES00010000001000000000000000020160122
201601230060000100000000000000001101000000000000000011018000000000020000000001INFORME Z                     000000000430400000000000000000000000000000000000000000000000000000000000000000000000000000000000000000000000000000000000PES00010000001000000000000000020160123
201601240060000100000000000000001102000000000000000011028000000000020000000001INFORME Z                     000000000116800000000000000000000000000000000000000000000000000000000000000000000000000000000000000000000000000000000000PES00010000001000000000000000020160124
201601250060000100000000000000001103000000000000000011038000000000020000000001INFORME Z                     000000000287850000000000000000000000000000000000000000000000000000000000000000000000000000000000000000000000000000000000PES00010000001000000000000000020160125
201601260060000100000000000000001104000000000000000011048000000000020000000001INFORME Z                     000000000190100000000000000000000000000000000000000000000000000000000000000000000000000000000000000000000000000000000000PES00010000001000000000000000020160126
201601270060000100000000000000001105000000000000000011058000000000020000000001INFORME Z                     000000000426101000000000000000000000000000000000000000000000000000000000000000000000000000000000000000000000000000000000PES00010000001000000000000000020160127
201601280060000100000000000000001106000000000000000011068000000000020000000001INFORME Z                     000000000397048000000000000000000000000000000000000000000000000000000000000000000000000000000000000000000000000000000000PES00010000001000000000000000020160128
201601290060000100000000000000001107000000000000000011078000000000020000000001INFORME Z                     000000000316251000000000000000000000000000000000000000000000000000000000000000000000000000000000000000000000000000000000PES00010000001000000000000000020160129
201601300060000100000000000000001108000000000000000011088000000000020000000001INFORME Z                     000000000493820000000000000000000000000000000000000000000000000000000000000000000000000000000000000000000000000000000000PES00010000001000000000000000020160130
201601310060000100000000000000001109000000000000000011098000000000020000000001INFORME Z                     000000000190301000000000000000000000000000000000000000000000000000000000000000000000000000000000000000000000000000000000PES00010000001000000000000000020160131
