201608080010000400000000000000000030000000000000000000308000000000030709717835EVENTOS.CONGRESOS Y CONVENCION000000000490231000000000000000000000000000000000000000000000000000000000000000000000000000000000000000000000000000000000PES00010000001000000000000000020160808
201608080010000400000000000000000031000000000000000000318000000000023221461444CALDERON MARIA VIRGINIA       000000004903990000000000000000000000000000000000000000000000000000000000000000000000000000000000000000000000000000000000PES00010000001000000000000000000000000
201608100010000400000000000000000032000000000000000000328000000000030709717835EVENTOS.CONGRESOS Y CONVENCION000000000950701000000000000000000000000000000000000000000000000000000000000000000000000000000000000000000000000000000000PES00010000001000000000000000020160810
201608180010000400000000000000000033000000000000000000338000000000023221461444CALDERON MARIA VIRGINIA       000000004951726000000000000000000000000000000000000000000000000000000000000000000000000000000000000000000000000000000000PES00010000001000000000000000000000000
201608200060000400000000000000000111000000000000000001118000000000027135202075CRUZ IRMA MARTA               000000001216000000000000000000000000000000000000000000000000000000000000000000000000000000000000000000000000000000000000PES00010000001000000000000000020160820
201608200060000400000000000000000112000000000000000001128000000000027135202075CRUZ IRMA MARTA               000000001170400000000000000000000000000000000000000000000000000000000000000000000000000000000000000000000000000000000000PES00010000001000000000000000020160820
201608200060000400000000000000000113000000000000000001138000000000027135202075CRUZ IRMA MARTA               000000001064000000000000000000000000000000000000000000000000000000000000000000000000000000000000000000000000000000000000PES00010000001000000000000000020160820
201608200060000400000000000000000114000000000000000001148000000000027135202075CRUZ IRMA MARTA               000000000646000000000000000000000000000000000000000000000000000000000000000000000000000000000000000000000000000000000000PES00010000001000000000000000020160820
201608200060000400000000000000000115000000000000000001158000000000027135202075CRUZ IRMA MARTA               000000001216000000000000000000000000000000000000000000000000000000000000000000000000000000000000000000000000000000000000PES00010000001000000000000000020160820
201608200060000400000000000000000116000000000000000001168000000000027135202075CRUZ IRMA MARTA               000000001368000000000000000000000000000000000000000000000000000000000000000000000000000000000000000000000000000000000000PES00010000001000000000000000020160820
201608200060000400000000000000000117000000000000000001178000000000020233181316SART JUAN ARTURO              000000001368000000000000000000000000000000000000000000000000000000000000000000000000000000000000000000000000000000000000PES00010000001000000000000000020160820
201608200060000400000000000000000118000000000000000001188000000000020233181316SART JUAN ARTURO              000000001261600000000000000000000000000000000000000000000000000000000000000000000000000000000000000000000000000000000000PES00010000001000000000000000020160820
201608200060000400000000000000000119000000000000000001198000000000023213169769CONDORI JUAN DE LA CRUZ       000000001824000000000000000000000000000000000000000000000000000000000000000000000000000000000000000000000000000000000000PES00010000001000000000000000020160820
201608200060000400000000000000000120000000000000000001208000000000023213169769CONDORI JUAN DE LA CRUZ       000000001634000000000000000000000000000000000000000000000000000000000000000000000000000000000000000000000000000000000000PES00010000001000000000000000020160820
201608200060000400000000000000000121000000000000000001218000000000020923885030CASTILLO GATICA MANUEL ANTONIO000000000684000000000000000000000000000000000000000000000000000000000000000000000000000000000000000000000000000000000000PES00010000001000000000000000020160820
201608200060000400000000000000000122000000000000000001228000000000020923885030CASTILLO GATICA MANUEL ANTONIO000000000722000000000000000000000000000000000000000000000000000000000000000000000000000000000000000000000000000000000000PES00010000001000000000000000020160820
201608200060000400000000000000000123000000000000000001238000000000020104222413MAMANI BENEDO                 000000000608000000000000000000000000000000000000000000000000000000000000000000000000000000000000000000000000000000000000PES00010000001000000000000000020160820
201608200060000400000000000000000124000000000000000001248000000000020104222413MAMANI BENEDO                 000000000456000000000000000000000000000000000000000000000000000000000000000000000000000000000000000000000000000000000000PES00010000001000000000000000020160820
201608200060000400000000000000000125000000000000000001258000000000023239129994PUCA SILVINA ROSARIO DEL VALLE000000001976000000000000000000000000000000000000000000000000000000000000000000000000000000000000000000000000000000000000PES00010000001000000000000000020160820
201608200060000400000000000000000126000000000000000001268000000000023239129994PUCA SILVINA ROSARIO DEL VALLE000000002242000000000000000000000000000000000000000000000000000000000000000000000000000000000000000000000000000000000000PES00010000001000000000000000020160820
201608200060000400000000000000000127000000000000000001278000000000027246519671MONTAÑEZ MONICA BEATRIZ       000000002356000000000000000000000000000000000000000000000000000000000000000000000000000000000000000000000000000000000000PES00010000001000000000000000020160820
201608200060000400000000000000000128000000000000000001288000000000027246519671MONTAÑEZ MONICA BEATRIZ       000000002432000000000000000000000000000000000000000000000000000000000000000000000000000000000000000000000000000000000000PES00010000001000000000000000020160820
201608200060000400000000000000000129000000000000000001298000000000020328563860PEÑALVA ANTONIO ENRIQUE       000000001368000000000000000000000000000000000000000000000000000000000000000000000000000000000000000000000000000000000000PES00010000001000000000000000020160820
201608200060000400000000000000000130000000000000000001308000000000020328563860PEÑALVA ANTONIO ENRIQUE       000000000912000000000000000000000000000000000000000000000000000000000000000000000000000000000000000000000000000000000000PES00010000001000000000000000020160820
201608200060000400000000000000000131000000000000000001318000000000020308064523BENICIO ABEL                  000000000722000000000000000000000000000000000000000000000000000000000000000000000000000000000000000000000000000000000000PES00010000001000000000000000020160820
201608200060000400000000000000000132000000000000000001328000000000020308064523BENICIO ABEL                  000000001064000000000000000000000000000000000000000000000000000000000000000000000000000000000000000000000000000000000000PES00010000001000000000000000020160820
201608200060000400000000000000000133000000000000000001338000000000020227857413AGUIRRE LEONARDO FEDERICO     000000001292000000000000000000000000000000000000000000000000000000000000000000000000000000000000000000000000000000000000PES00010000001000000000000000020160820
201608200060000400000000000000000134000000000000000001348000000000020227857413AGUIRRE LEONARDO FEDERICO     000000001368000000000000000000000000000000000000000000000000000000000000000000000000000000000000000000000000000000000000PES00010000001000000000000000020160820
201608200060000400000000000000000135000000000000000001358000000000027215425598GARCIA ELVIRA ALVINA          000000001482000000000000000000000000000000000000000000000000000000000000000000000000000000000000000000000000000000000000PES00010000001000000000000000020160820
201608200060000400000000000000000136000000000000000001368000000000027215425598GARCIA ELVIRA ALVINA          000000001596000000000000000000000000000000000000000000000000000000000000000000000000000000000000000000000000000000000000PES00010000001000000000000000020160820
201608200060000400000000000000000137000000000000000001378000000000020258022638GARCIA SAMUEL ENRIQUE         000000001596000000000000000000000000000000000000000000000000000000000000000000000000000000000000000000000000000000000000PES00010000001000000000000000020160820
201608200060000400000000000000000138000000000000000001388000000000020258022638GARCIA SAMUEL ENRIQUE         000000000988000000000000000000000000000000000000000000000000000000000000000000000000000000000000000000000000000000000000PES00010000001000000000000000020160820
201608200060000400000000000000000139000000000000000001398000000000023294097309NOVELLO JUAN ENRIQUE          000000000608000000000000000000000000000000000000000000000000000000000000000000000000000000000000000000000000000000000000PES00010000001000000000000000020160820
201608200060000400000000000000000140000000000000000001408000000000023294097309NOVELLO JUAN ENRIQUE          000000000722000000000000000000000000000000000000000000000000000000000000000000000000000000000000000000000000000000000000PES00010000001000000000000000020160820
201608200060000400000000000000000141000000000000000001418000000000020314367074SUAREZ HECTOR ISMAEL          000000001368000000000000000000000000000000000000000000000000000000000000000000000000000000000000000000000000000000000000PES00010000001000000000000000020160820
201608200060000400000000000000000142000000000000000001428000000000020314367074SUAREZ HECTOR ISMAEL          000000001482000000000000000000000000000000000000000000000000000000000000000000000000000000000000000000000000000000000000PES00010000001000000000000000020160820
201608200060000400000000000000000143000000000000000001438000000000027167347067GINER MARIA ALICIA            000000000608000000000000000000000000000000000000000000000000000000000000000000000000000000000000000000000000000000000000PES00010000001000000000000000020160820
201608200060000400000000000000000144000000000000000001448000000000027167347067GINER MARIA ALICIA            000000000722000000000000000000000000000000000000000000000000000000000000000000000000000000000000000000000000000000000000PES00010000001000000000000000020160820
201608200060000400000000000000000145000000000000000001458000000000020173543329CARO OMAR OSCAR               000000000988000000000000000000000000000000000000000000000000000000000000000000000000000000000000000000000000000000000000PES00010000001000000000000000020160820
201608200060000400000000000000000146000000000000000001468000000000020173543329CARO OMAR OSCAR               000000000950000000000000000000000000000000000000000000000000000000000000000000000000000000000000000000000000000000000000PES00010000001000000000000000020160820
201608240010000400000000000000000034000000000000000000348000000000023221461444CALDERON MARIA VIRGINIA       000000004899128000000000000000000000000000000000000000000000000000000000000000000000000000000000000000000000000000000000PES00010000001000000000000000000000000
201608190030000400000000000000000001000000000000000000018000000000023221461444CALDERON MARIA VIRGINIA       000000004951726000000000000000000000000000000000000000000000000000000000000000000000000000000000000000000000000000000000PES00010000001000000000000000000000000
201608240030000400000000000000000002000000000000000000028000000000023221461444CALDERON MARIA VIRGINIA       000000004899128000000000000000000000000000000000000000000000000000000000000000000000000000000000000000000000000000000000PES00010000001000000000000000000000000
201608260010000400000000000000000035000000000000000000358000000000027100052399SANSONE GRACIELA JOSEFINA     000000000299676000000000000000000000000000000000000000000000000000000000000000000000000000000000000000000000000000000000PES00010000001000000000000000000000000
201608260010000400000000000000000036000000000000000000368000000000030653431755EMPRESA DE SERVICIOS Y OBRAS S000000000345092000000000000000000000000000000000000000000000000000000000000000000000000000000000000000000000000000000000PES00010000001000000000000000000000000
201608260010000400000000000000000037000000000000000000378000000000020280861740JUAREZ CESCA FERNANDO         000000000298018000000000000000000000000000000000000000000000000000000000000000000000000000000000000000000000000000000000PES00010000001000000000000000000000000
201608290010000400000000000000000038000000000000000000388000000000030709717835EVENTOS.CONGRESOS Y CONVENCION000000000807674000000000000000000000000000000000000000000000000000000000000000000000000000000000000000000000000000000000PES00010000001000000000000000020160829
201608310060000400000000000000000147000000000000000001478000000000020233181316SART JUAN ARTURO              000000001162200000000000000000000000000000000000000000000000000000000000000000000000000000000000000000000000000000000000PES00010000001000000000000000020160901
201608310060000400000000000000000148000000000000000001488000000000020233181316SART JUAN ARTURO              000000000709800000000000000000000000000000000000000000000000000000000000000000000000000000000000000000000000000000000000PES00010000001000000000000000020160901
201608310060000400000000000000000149000000000000000001498000000000023213169769CONDORI JUAN DE LA CRUZ       000000001423500000000000000000000000000000000000000000000000000000000000000000000000000000000000000000000000000000000000PES00010000001000000000000000020160901
201608310060000400000000000000000150000000000000000001508000000000023213169769CONDORI JUAN DE LA CRUZ       000000001248000000000000000000000000000000000000000000000000000000000000000000000000000000000000000000000000000000000000PES00010000001000000000000000020160901
201608310060000400000000000000000151000000000000000001518000000000027135202075CRUZ IRMA MARTA               000000000702000000000000000000000000000000000000000000000000000000000000000000000000000000000000000000000000000000000000PES00010000001000000000000000020160901
201608310060000400000000000000000152000000000000000001528000000000027135202075CRUZ IRMA MARTA               000000000643500000000000000000000000000000000000000000000000000000000000000000000000000000000000000000000000000000000000PES00010000001000000000000000020160901
201608310060000400000000000000000153000000000000000001538000000000020923885030CASTILLO GATICA MANUEL ANTONIO000000000858000000000000000000000000000000000000000000000000000000000000000000000000000000000000000000000000000000000000PES00010000001000000000000000020160901
201608310060000400000000000000000154000000000000000001548000000000020923885030CASTILLO GATICA MANUEL ANTONIO000000000928200000000000000000000000000000000000000000000000000000000000000000000000000000000000000000000000000000000000PES00010000001000000000000000020160901
201608310060000400000000000000000155000000000000000001558000000000020104222413MAMANI BENEDO                 000000000850200000000000000000000000000000000000000000000000000000000000000000000000000000000000000000000000000000000000PES00010000001000000000000000020160901
201608310060000400000000000000000156000000000000000001568000000000020104222413MAMANI BENEDO                 000000000881400000000000000000000000000000000000000000000000000000000000000000000000000000000000000000000000000000000000PES00010000001000000000000000020160901
201608310060000400000000000000000157000000000000000001578000000000023239129994PUCA SILVINA ROSARIO DEL VALLE000000001872000000000000000000000000000000000000000000000000000000000000000000000000000000000000000000000000000000000000PES00010000001000000000000000020160901
201608310060000400000000000000000158000000000000000001588000000000023239129994PUCA SILVINA ROSARIO DEL VALLE000000001934400000000000000000000000000000000000000000000000000000000000000000000000000000000000000000000000000000000000PES00010000001000000000000000020160901
201608310060000400000000000000000159000000000000000001598000000000027246519671MONTAÑEZ MONICA BEATRIZ       000000001794000000000000000000000000000000000000000000000000000000000000000000000000000000000000000000000000000000000000PES00010000001000000000000000020160901
201608310060000400000000000000000160000000000000000001608000000000027246519671MONTAÑEZ MONICA BEATRIZ       000000001829100000000000000000000000000000000000000000000000000000000000000000000000000000000000000000000000000000000000PES00010000001000000000000000020160901
201608310060000400000000000000000161000000000000000001618000000000020328563860PEÑALVA ANTONIO ENRIQUE       000000000448500000000000000000000000000000000000000000000000000000000000000000000000000000000000000000000000000000000000PES00010000001000000000000000020160901
201608310060000400000000000000000162000000000000000001628000000000020328563860PEÑALVA ANTONIO ENRIQUE       000000000460200000000000000000000000000000000000000000000000000000000000000000000000000000000000000000000000000000000000PES00010000001000000000000000020160901
201608310060000400000000000000000163000000000000000001638000000000020308064523BENICIO ABEL                  000000000838500000000000000000000000000000000000000000000000000000000000000000000000000000000000000000000000000000000000PES00010000001000000000000000020160901
201608310060000400000000000000000164000000000000000001648000000000020308064523BENICIO ABEL                  000000000854100000000000000000000000000000000000000000000000000000000000000000000000000000000000000000000000000000000000PES00010000001000000000000000020160901
201608310060000400000000000000000165000000000000000001658000000000020227857413AGUIRRE LEONARDO FEDERICO     000000001435200000000000000000000000000000000000000000000000000000000000000000000000000000000000000000000000000000000000PES00010000001000000000000000020160901
201608310060000400000000000000000166000000000000000001668000000000020227857413AGUIRRE LEONARDO FEDERICO     000000001462500000000000000000000000000000000000000000000000000000000000000000000000000000000000000000000000000000000000PES00010000001000000000000000020160901
201608310060000400000000000000000167000000000000000001678000000000027215425598GARCIA ELVIRA ALVINA          000000001248000000000000000000000000000000000000000000000000000000000000000000000000000000000000000000000000000000000000PES00010000001000000000000000020160901
201608310060000400000000000000000168000000000000000001688000000000027215425598GARCIA ELVIRA ALVINA          000000001333800000000000000000000000000000000000000000000000000000000000000000000000000000000000000000000000000000000000PES00010000001000000000000000020160901
201608310060000400000000000000000169000000000000000001698000000000020258022638GARCIA SAMUEL ENRIQUE         000000001092000000000000000000000000000000000000000000000000000000000000000000000000000000000000000000000000000000000000PES00010000001000000000000000020160901
201608310060000400000000000000000170000000000000000001708000000000020258022638GARCIA SAMUEL ENRIQUE         000000001154400000000000000000000000000000000000000000000000000000000000000000000000000000000000000000000000000000000000PES00010000001000000000000000020160901
201608310060000400000000000000000171000000000000000001718000000000023294097309NOVELLO JUAN ENRIQUE          000000000448500000000000000000000000000000000000000000000000000000000000000000000000000000000000000000000000000000000000PES00010000001000000000000000020160901
201608310060000400000000000000000172000000000000000001728000000000023294097309NOVELLO JUAN ENRIQUE          000000000464100000000000000000000000000000000000000000000000000000000000000000000000000000000000000000000000000000000000PES00010000001000000000000000020160901
201608310060000400000000000000000173000000000000000001738000000000020314367074SUAREZ HECTOR ISMAEL          000000000936000000000000000000000000000000000000000000000000000000000000000000000000000000000000000000000000000000000000PES00010000001000000000000000020160901
201608310060000400000000000000000174000000000000000001748000000000020314367074SUAREZ HECTOR ISMAEL          000000000959400000000000000000000000000000000000000000000000000000000000000000000000000000000000000000000000000000000000PES00010000001000000000000000020160901
201608310060000400000000000000000175000000000000000001758000000000020314367074SUAREZ HECTOR ISMAEL          000000000959400000000000000000000000000000000000000000000000000000000000000000000000000000000000000000000000000000000000PES00010000001000000000000000020160901
201608310060000400000000000000000176000000000000000001768000000000027167347067GINER MARIA ALICIA            000000000897000000000000000000000000000000000000000000000000000000000000000000000000000000000000000000000000000000000000PES00010000001000000000000000020160901
201608310060000400000000000000000177000000000000000001778000000000027167347067GINER MARIA ALICIA            000000001014000000000000000000000000000000000000000000000000000000000000000000000000000000000000000000000000000000000000PES00010000001000000000000000020160901
201608310060000400000000000000000178000000000000000001788000000000020173543329CARO OMAR OSCAR               000000001014000000000000000000000000000000000000000000000000000000000000000000000000000000000000000000000000000000000000PES00010000001000000000000000020160901
201608310060000400000000000000000179000000000000000001798000000000020173543329CARO OMAR OSCAR               000000001111500000000000000000000000000000000000000000000000000000000000000000000000000000000000000000000000000000000000PES00010000001000000000000000020160901
