201610310010000100000000000020161001                8000000000030500010084Banco Macro                   000000000014157000000000000000000000000000000000000000000000000000000000000000000000000000000000000000000000000000000000PES00010000001000000000000000000000000000000000000000000                              000000000000000
201610310010000100000000000020161002                8000000000030500010084Banco Macro                   000000000052030000000000000000000000000000000000000000000000000000000000000000000000000000000000000000000000000000000000PES00010000001000000000000000000000000000000000000000000                              000000000000000
201610310010000100000000000020161003                8000000000030500001735Banco Galicia                 000000000088814000000000000000000000000000000000000000000000000000000000000000000000000000000000000000000000000000000000PES00010000001000000000000000000000000000000000000000000                              000000000000000
201610310010000100000000000020161004                8000000000030500001735Banco Galicia                 000000000022177000000000000000000000000000000000000000000000000000000000000000000000000000000000000000000000000000000000PES00010000001000000000000000000000000000000000000000000                              000000000000000
201608240010000100000000000000009201                8000000000020062677148CASTRO CELIO HECTOR           000000000030500000000000000000000000000000000000000000000000000000000000000000000000000000000000000000000000000000000000PES00010000001000000000000000000000000000000000000000000                              000000000000000
201609270010000100000000000000009233                8000000000020062677148CASTRO CELIO HECTOR           000000000005600000000000000000000000000000000000000000000000000000000000000000000000000000000000000000000000000000000000PES00010000001000000000000000000000000000000000000000000                              000000000000000
201608170010000100000000000000041659                8000000000020161671895SORIA JOAQUIN                 000000000028100000000000000000000000000000000000000000000000000000000000000000000000000000000000000000000000000000000000PES00010000001000000000000000000000000000000000000000000                              000000000000000
201609050010000100000000000000041796                8000000000020161671895SORIA JOAQUIN                 000000000027500000000000000000000000000000000000000000000000000000000000000000000000000000000000000000000000000000000000PES00010000001000000000000000000000000000000000000000000                              000000000000000
201609240010000100000000000000041914                8000000000020161671895SORIA JOAQUIN                 000000000066200000000000000000000000000000000000000000000000000000000000000000000000000000000000000000000000000000000000PES00010000001000000000000000000000000000000000000000000                              000000000000000
201610210010000200000000000000000192                8000000000030715165712FALCON S.R.L                  000000000050000000000000000000000000000000000000000000000000000000000000000000000000000000000000000000000000000000000000PES00010000001000000000000000000000000000000000000000000                              000000000000000
201611110010000100000000000000001816                8000000000030557539731DROGUERIA Y FARMACIA EL CABILD000000000179300000000000000000000000000000000000000000000000000000000000000000000000000000000000000000000000000000000000PES00010000001000000000000000000000000000000000000000000                              000000000000000
201610050010004300000000000000021139                8000000000030708725346EMPRRENDIMIENTO METALURGICO IN000000000052020000000000000257000000000000000000000000000000000000000000000000000000000000000000000000000000000000000000PES00010000001000000000000000000000000000000000000000000                              000000000000000
201610060010004300000000000000021175                8000000000030708725346EMPRRENDIMIENTO METALURGICO IN000000000120624000000000000595000000000000000000000000000000000000000000000000000000000000000000000000000000000000000000PES00010000001000000000000000000000000000000000000000000                              000000000000000
201610110010004300000000000000021271                8000000000030708725346EMPRRENDIMIENTO METALURGICO IN000000000041236000000000000203000000000000000000000000000000000000000000000000000000000000000000000000000000000000000000PES00010000001000000000000000000000000000000000000000000                              000000000000000
201610180010004300000000000000021435                8000000000030708725346EMPRRENDIMIENTO METALURGICO IN000000000099507000000000000491000000000000000000000000000000000000000000000000000000000000000000000000000000000000000000PES00010000001000000000000000000000000000000000000000000                              000000000000000
201610250010004300000000000000021623                8000000000030708725346EMPRRENDIMIENTO METALURGICO IN000000001845203000000000009105000000000000000000000000000000000000000000000000000000000000000000000000000000000000000000PES00010000001000000000000000000000000000000000000000000                              000000000000000
201611190010000100000000000000011201                8000000000030711954259MARTINEZ NEUMATICOS SRL       000000000285501000000000000000000000000000000000000000000000000000000000000000000000000000000000000000000000000000000000PES00010000001000000000000000000000000000000000000000000                              000000000000000
201611050010004300000000000000021936                8000000000030708725346EMPRRENDIMIENTO METALURGICO IN000000000523213000000000002582000000000000000000000000000000000000000000000000000000000000000000000000000000000000000000PES00010000001000000000000000000000000000000000000000000                              000000000000000
201611100010004300000000000000022047                8000000000030708725346EMPRRENDIMIENTO METALURGICO IN000000002004394000000000009890000000000000000000000000000000000000000000000000000000000000000000000000000000000000000000PES00010000001000000000000000000000000000000000000000000                              000000000000000
201611140010004300000000000000022137                8000000000030708725346EMPRRENDIMIENTO METALURGICO IN000000001947175000000000009608000000000000000000000000000000000000000000000000000000000000000000000000000000000000000000PES00010000001000000000000000000000000000000000000000000                              000000000000000
201610240010004300000000000000021581                8000000000030708725346EMPRRENDIMIENTO METALURGICO IN000000000434790000000000002145000000000000000000000000000000000000000000000000000000000000000000000000000000000000000000PES00010000001000000000000000000000000000000000000000000                              000000000000000
201610260010004300000000000000021658                8000000000030708725346EMPRRENDIMIENTO METALURGICO IN000000001147234000000000005661000000000000000000000000000000000000000000000000000000000000000000000000000000000000000000PES00010000001000000000000000000000000000000000000000000                              000000000000000
201610310010004300000000000000021793                8000000000030708725346EMPRRENDIMIENTO METALURGICO IN000000000645332000000000003184000000000000000000000000000000000000000000000000000000000000000000000000000000000000000000PES00010000001000000000000000000000000000000000000000000                              000000000000000
201610310010004300000000000000021794                8000000000030708725346EMPRRENDIMIENTO METALURGICO IN000000000488478000000000002410000000000000000000000000000000000000000000000000000000000000000000000000000000000000000000PES00010000001000000000000000000000000000000000000000000                              000000000000000
201611030010004300000000000000021864                8000000000030708725346EMPRRENDIMIENTO METALURGICO IN000000002805428000000000013843000000000000000000000000000000000000000000000000000000000000000000000000000000000000000000PES00010000001000000000000000000000000000000000000000000                              000000000000000
201611090010004300000000000000022006                8000000000030708725346EMPRRENDIMIENTO METALURGICO IN000000000530854000000000002619000000000000000000000000000000000000000000000000000000000000000000000000000000000000000000PES00010000001000000000000000000000000000000000000000000                              000000000000000
201611090010004300000000000000022018                8000000000030708725346EMPRRENDIMIENTO METALURGICO IN000000014726212000000000072662000000000000000000000000000000000000000000000000000000000000000000000000000000000000000000PES00010000001000000000000000000000000000000000000000000                              000000000000000
201611140010004300000000000000022112                8000000000030708725346EMPRRENDIMIENTO METALURGICO IN000000000110566000000000000546000000000000000000000000000000000000000000000000000000000000000000000000000000000000000000PES00010000001000000000000000000000000000000000000000000                              000000000000000
201611140010004300000000000000022118                8000000000030708725346EMPRRENDIMIENTO METALURGICO IN000000000357919000000000001766000000000000000000000000000000000000000000000000000000000000000000000000000000000000000000PES00010000001000000000000000000000000000000000000000000                              000000000000000
201611160010004300000000000000022209                8000000000030708725346EMPRRENDIMIENTO METALURGICO IN000000000380438000000000001877000000000000000000000000000000000000000000000000000000000000000000000000000000000000000000PES00010000001000000000000000000000000000000000000000000                              000000000000000
201611220010004300000000000000022352                8000000000030708725346EMPRRENDIMIENTO METALURGICO IN000000001061207000000000005236000000000000000000000000000000000000000000000000000000000000000000000000000000000000000000PES00010000001000000000000000000000000000000000000000000                              000000000000000
201610070030004300000000000000003374                8000000000030708725346EMPRRENDIMIENTO METALURGICO IN000000000245123000000000001208000000000000000000000000000000000000000000000000000000000000000000000000000000000000000000PES00010000001000000000000000000000000000000000000000000                              000000000000000
201610250030004300000000000000003440                8000000000030708725346EMPRRENDIMIENTO METALURGICO IN000000000467114000000000002305000000000000000000000000000000000000000000000000000000000000000000000000000000000000000000PES00010000001000000000000000000000000000000000000000000                              000000000000000
201610310030004300000000000000003466                8000000000030708725346EMPRRENDIMIENTO METALURGICO IN000000001049331000000000005178000000000000000000000000000000000000000000000000000000000000000000000000000000000000000000PES00010000001000000000000000000000000000000000000000000                              000000000000000
201611150030004300000000000000003549                8000000000030708725346EMPRRENDIMIENTO METALURGICO IN000000001561050000000000007705000000000000000000000000000000000000000000000000000000000000000000000000000000000000000000PES00010000001000000000000000000000000000000000000000000                              000000000000000
201611150030004300000000000000003541                8000000000030708725346EMPRRENDIMIENTO METALURGICO IN000000000023413000000000000116000000000000000000000000000000000000000000000000000000000000000000000000000000000000000000PES00010000001000000000000000000000000000000000000000000                              000000000000000
201611210010000100000000000000000086                8000000000027311938776CACERES JIMENA CAROLINA       000000000042500000000000000000000000000000000000000000000000000000000000000000000000000000000000000000000000000000000000PES00010000001000000000000000000000000000000000000000000                              000000000000000
201611090010000400000000000000000103                8000000000020081776254FERNANDEZ EUSEBIO             000000000419141000000000000000000000000000000000000000000000000000000000000000000000006144000000000000000000000000000000PES00010000001000000000000000000000000000000000000000000                              000000000000000
201611090010000400000000000000000104                8000000000020081776254FERNANDEZ EUSEBIO             000000000029939000000000000000000000000000000000000000000000000000000000000000000000000439000000000000000000000000000000PES00010000001000000000000000000000000000000000000000000                              000000000000000
201611020010000200000000000000000144                8000000000033715068899MAT CONS S.R.L                000000000022000000000000000000000000000000000000000000000000000000000000000000000000000000000000000000000000000000000000PES00010000001000000000000000000000000000000000000000000                              000000000000000
201611100010000300000000000000004968                8000000000027037838794ESTRADA ADELA SIXTA           000000000092151000000000000000000000000000000000000000000000000000000000000000000000001351000000000000000000000000000000PES00010000001000000000000000000000000000000000000000000                              000000000000000
201604270010000700000000000000016800                8000000000030700067021TUBONOR S.A                   000000000709096000000000000000000000000000000000000000000000000000000000000000000000010394000000000000000000000000000000PES00010000001000000000000000000000000000000000000000000                              000000000000000
201611020010000700000000000000026935                8000000000030700067021TUBONOR S.A                   000000000118724000000000000000000000000000000000000000000000000000000000000000000000001740000000000000000000000000000000PES00010000001000000000000000000000000000000000000000000                              000000000000000
201611160010000700000000000000027911                8000000000030700067021TUBONOR S.A                   000000001202816000000000000000000000000000000000000000000000000000000000000000000000017631000000000000000000000000000000PES00010000001000000000000000000000000000000000000000000                              000000000000000
201611170010000700000000000000027931                8000000000030700067021TUBONOR S.A                   000000001370722000000000000000000000000000000000000000000000000000000000000000000000020092000000000000000000000000000000PES00010000001000000000000000000000000000000000000000000                              000000000000000
201611170010000700000000000000027928                8000000000030700067021TUBONOR S.A                   000000000497370000000000000000000000000000000000000000000000000000000000000000000000007290000000000000000000000000000000PES00010000001000000000000000000000000000000000000000000                              000000000000000
201611180010000700000000000000028091                8000000000030700067021TUBONOR S.A                   000000000145975000000000000000000000000000000000000000000000000000000000000000000000002140000000000000000000000000000000PES00010000001000000000000000000000000000000000000000000                              000000000000000
201611250010000700000000000000028414                8000000000030700067021TUBONOR S.A                   000000000309106000000000000000000000000000000000000000000000000000000000000000000000004531000000000000000000000000000000PES00010000001000000000000000000000000000000000000000000                              000000000000000
201610050010001300000000000000006476                8000000000030681233748PINTURERIA AMERICA S.R.L      000000000067803000000000000000000000000000000000000000000000000000000000000000000000000000000000000000000000000000000000PES00010000001000000000000000000000000000000000000000000                              000000000000000
201610140010001300000000000000006590                8000000000030681233748PINTURERIA AMERICA S.R.L      000000000015906000000000000000000000000000000000000000000000000000000000000000000000000000000000000000000000000000000000PES00010000001000000000000000000000000000000000000000000                              000000000000000
201611220010001300000000000000007047                8000000000030681233748PINTURERIA AMERICA S.R.L      000000000206241000000000000000000000000000000000000000000000000000000000000000000000000000000000000000000000000000000000PES00010000001000000000000000000000000000000000000000000                              000000000000000
201611250010001300000000000000007097                8000000000030681233748PINTURERIA AMERICA S.R.L      000000000372206000000000000000000000000000000000000000000000000000000000000000000000000000000000000000000000000000000000PES00010000001000000000000000000000000000000000000000000                              000000000000000
201611020010000200000000000000002338                8000000000030709516309ITIN S.A                      000000000171900000000000000000000000000000000000000000000000000000000000000000000000000000000000000000000000000000000000PES00010000001000000000000000000000000000000000000000000                              000000000000000
201608170010001100000000000000002024                8000000000020110818441CANSINO SERGIO DANIEL         000000000008000000000000000000000000000000000000000000000000000000000000000000000000000000000000000000000000000000000000PES00010000001000000000000000000000000000000000000000000                              000000000000000
201611290010012200000000000000013602                8000000000030559715081SUPERMAT S.A                  000000001902607000000000000000000000000000000000000000000000000000000000000000000000023216000000000006655000000000000000PES00010000001000000000000000000000000000000000000000000                              000000000000000
201611090010000200000000000000018616                8000000000030711434654JOSE JACOBO AHUERMA Y JOSE GUS000000000453420000000000000000000000000000000000000000000000000000000000000000000000000000000000000000000000000000000000PES00010000001000000000000000000000000000000000000000000                              000000000000000
201610050010001300000000000000014553                8000000000023145820529ADRIAN ENRIQUE CASANUEVA      000000000003501000000000000000000000000000000000000000000000000000000000000000000000000000000000000000000000000000000000PES00010000001000000000000000000000000000000000000000000                              000000000000000
201610040010000700000000000000002083                8000000000030707952853ELITE SECURITY GROUP S.R.L    000000000033000000000000000000000000000000000000000000000000000000000000000000000000000000000000000000000000000000000000PES00010000001000000000000000000000000000000000000000000                              000000000000000
201611020010000400000000000000575348                8000000000030518919349ASEGURADORES DE CAUCIONES S.A 000000000242712000000000004720000000000000000000000000000000000000000000000000000000000000000000000000000000000000000000PES00010000001000000000000000000000000000000000000000000                              000000000000000
201611020010000400000000000000575349                8000000000030518919349ASEGURADORES DE CAUCIONES S.A 000000000052522000000000001022000000000000000000000000000000000000000000000000000000000000000000000000000000000000000000PES00010000001000000000000000000000000000000000000000000                              000000000000000
201611020010000400000000000000575346                8000000000030518919349ASEGURADORES DE CAUCIONES S.A 000000000169815000000000003303000000000000000000000000000000000000000000000000000000000000000000000000000000000000000000PES00010000001000000000000000000000000000000000000000000                              000000000000000
201611020010000400000000000000575347                8000000000030518919349ASEGURADORES DE CAUCIONES S.A 000000000047875000000000000932000000000000000000000000000000000000000000000000000000000000000000000000000000000000000000PES00010000001000000000000000000000000000000000000000000                              000000000000000
201611100010189100000000000000022304                8000000000030590360763CENCOSUD S.A                  000000000008200000000000000000000000000000000000000000000000000000000000000000000000000000000000000000000000000000000000PES00010000001000000000000000000000000000000000000000000                              000000000000000
201611100010189100000000000000022306                8000000000030590360763CENCOSUD S.A                  000000000017000000000000000000000000000000000000000000000000000000000000000000000000000000000000000000000000000000000000PES00010000001000000000000000000000000000000000000000000                              000000000000000
201611190010188800000000000000023111                8000000000030590360763CENCOSUD S.A                  000000000034200000000000000000000000000000000000000000000000000000000000000000000000000000000000000000000000000000000000PES00010000001000000000000000000000000000000000000000000                              000000000000000
201611190010189800000000000000013069                8000000000030590360763CENCOSUD S.A                  000000000040899000000000000000000000000000000000000000000000000000000000000000000000000000000000000000000000000000000000PES00010000001000000000000000000000000000000000000000000                              000000000000000
201610190010306900000000000000009035                8000000000030708772964JUMBO RETAIL ARGENTINA SA     000000000446460000000000000000000000000000000000000000010801000000000000000000000000000000000000000000000000000000000000PES00010000001000000000000000000000000000000000000000000                              000000000000000
201610210010583200000000000000000455                8000000000030708772964JUMBO RETAIL ARGENTINA SA     000000000025854000000000000000000000000000000000000000000000000000000000000000000000000000000000000000000000000000000000PES00010000001000000000000000000000000000000000000000000                              000000000000000
201610290010582400000000000000001387                8000000000030708772964JUMBO RETAIL ARGENTINA SA     000000000023782000000000000334000000000000000000000000000000000000000000000000000000000000000000000000000000000000000000PES00010000001000000000000000000000000000000000000000000                              000000000000000
201610260010582400000000000000001385                8000000000030708772964JUMBO RETAIL ARGENTINA SA     000000000015599000000000000000000000000000000000000000000000000000000000000000000000000000000000000000000000000000000000PES00010000001000000000000000000000000000000000000000000                              000000000000000
201610220010582400000000000000001382                8000000000030708772964JUMBO RETAIL ARGENTINA SA     000000000025969000000000000000000000000000000000000000000000000000000000000000000000000000000000000000000000000000000000PES00010000002000000000000000000000000000000000000000000                              000000000000000
201610220010582400000000001111111382                8000000000030708772964JUMBO RETAIL ARGENTINA SA     000000000029179000000000000000000000000000000000000000000000000000000000000000000000000000000000000000000000000000000000PES00010000001000000000000000000000000000000000000000000                              000000000000000
201610210010582400000000000000001381                8000000000030708772964JUMBO RETAIL ARGENTINA SA     000000000014429000000000000116000000000000000000000000000000000000000000000000000000000000000000000000000000000000000000PES00010000002000000000000000000000000000000000000000000                              000000000000000
201610210010582400000000001111111381                8000000000030708772964JUMBO RETAIL ARGENTINA SA     000000000002109000000000000000000000000000000000000000000000000000000000000000000000000000000000000000000000000000000000PES00010000001000000000000000000000000000000000000000000                              000000000000000
201610230010135500000000000000002068                8000000000030612929455LIBERTAD S.A                  000000000046369000000000000554000000000000000000000000000000000000000000000000000000000000000000000000000000000000000000PES00010000001000000000000000000000000000000000000000000                              000000000000000
201610300010135600000000000000003721                8000000000030612929455LIBERTAD S.A                  000000000030888000000000000626000000000000000000000000000000000000000000000000000000000000000000000000000000000000000000PES00010000001000000000000000000000000000000000000000000                              000000000000000
201607020010001100000000000000000463                8000000000030712429646RECURSOS ENERGETICOS S.R.L    000000000020000000000000004019000000000000000000000000000000000000000000000000000000000000000000000000000000000000000000PES00010000001000000000000000000000000000000000000000000                              000000000000000
201608170010001100000000000000002353                8000000000030712429646RECURSOS ENERGETICOS S.R.L    000000000070001000000000014065000000000000000000000000000000000000000000000000000000000000000000000000000000000000000000PES00010000001000000000000000000000000000000000000000000                              000000000000000
201609020010001100000000000000002991                8000000000030712429646RECURSOS ENERGETICOS S.R.L    000000000089999000000000018083000000000000000000000000000000000000000000000000000000000000000000000000000000000000000000PES00010000001000000000000000000000000000000000000000000                              000000000000000
201609100010001100000000000000003258                8000000000030712429646RECURSOS ENERGETICOS S.R.L    000000000010003000000000001996000000000000000000000000000000000000000000000000000000000000000000000000000000000000000000PES00010000001000000000000000000000000000000000000000000                              000000000000000
201609210010001100000000000000003658                8000000000030712429646RECURSOS ENERGETICOS S.R.L    000000000013000000000000002595000000000000000000000000000000000000000000000000000000000000000000000000000000000000000000PES00010000001000000000000000000000000000000000000000000                              000000000000000
201609220010001100000000000000003674                8000000000030712429646RECURSOS ENERGETICOS S.R.L    000000000070000000000000017571000000000000000000000000000000000000000000000000000000000000000000000000000000000000000000PES00010000001000000000000000000000000000000000000000000                              000000000000000
201610030010001100000000000000004065                8000000000030712429646RECURSOS ENERGETICOS S.R.L    000000000040000000000000007983000000000000000000000000000000000000000000000000000000000000000000000000000000000000000000PES00010000001000000000000000000000000000000000000000000                              000000000000000
201608230010003100000000000000036612                8000000000030708489928NORGAS S.R.L                  000000000143024000000000035272000000000000000000000000000000000000000000000000000000000000000000000000000000000000000000PES00010000001000000000000000000000000000000000000000000                              000000000000000
201609030010000700000000000000044384                8000000000030708489928NORGAS S.R.L                  000000000144000000000000035513000000000000000000000000000000000000000000000000000000000000000000000000000000000000000000PES00010000001000000000000000000000000000000000000000000                              000000000000000
201610080010001900000000000000001563                8000000000030711864721FASIK S.R.L                   000000000020000000000000003675000000000000000000000000000000000000000000000000000000000000000000000000000000000000000000PES00010000001000000000000000000000000000000000000000000                              000000000000000
201608230010001900000000000000000234                8000000000030711864721FASIK S.R.L                   000000000089421000000000016372000000000000000000000000000000000000000000000000000000000000000000000000000000000000000000PES00010000001000000000000000000000000000000000000000000                              000000000000000
201608300010001900000000000000000411                8000000000030711864721FASIK S.R.L                   000000000010000000000000001822000000000000000000000000000000000000000000000000000000000000000000000000000000000000000000PES00010000001000000000000000000000000000000000000000000                              000000000000000
201609270010002000000000000000000780                8000000000030711864721FASIK S.R.L                   000000000022528000000000004120000000000000000000000000000000000000000000000000000000000000000000000000000000000000000000PES00010000001000000000000000000000000000000000000000000                              000000000000000
201609280010001900000000000000001224                8000000000030711864721FASIK S.R.L                   000000000200000000000000046640000000000000000000000000000000000000000000000000000000000000000000000000000000000000000000PES00010000001000000000000000000000000000000000000000000                              000000000000000
201610110010001900000000000000001656                8000000000030711864721FASIK S.R.L                   000000000040000000000000007355000000000000000000000000000000000000000000000000000000000000000000000000000000000000000000PES00010000001000000000000000000000000000000000000000000                              000000000000000
201610050010000400000000000000032384                8000000000020161670260UNCOS LUIS DANTE              000000000004500000000000000000000000000000000000000000000000000000000000000000000000000000000000000000000000000000000000PES00010000001000000000000000000000000000000000000000000                              000000000000000
201610060010000400000000000000032392                8000000000020161670260UNCOS LUIS DANTE              000000000022500000000000000000000000000000000000000000000000000000000000000000000000000000000000000000000000000000000000PES00010000001000000000000000000000000000000000000000000                              000000000000000
201608230010000400000000000000032077                8000000000020161670260UNCOS LUIS DANTE              000000000080000000000000000000000000000000000000000000000000000000000000000000000000000000000000000000000000000000000000PES00010000001000000000000000000000000000000000000000000                              000000000000000
201608230010000400000000000000032078                8000000000020161670260UNCOS LUIS DANTE              000000000005500000000000000000000000000000000000000000000000000000000000000000000000000000000000000000000000000000000000PES00010000001000000000000000000000000000000000000000000                              000000000000000
201609270010000400000000000000032308                8000000000020161670260UNCOS LUIS DANTE              000000000081950000000000000000000000000000000000000000000000000000000000000000000000000000000000000000000000000000000000PES00010000001000000000000000000000000000000000000000000                              000000000000000
201609220010000400000000000000032290                8000000000020161670260UNCOS LUIS DANTE              000000000039000000000000000000000000000000000000000000000000000000000000000000000000000000000000000000000000000000000000PES00010000001000000000000000000000000000000000000000000                              000000000000000
201606110010000300000000000000039807                8000000000030707401202RED DE SERVICIOS MEDINA  S.A  000000000030000000000000006980000000000000000000000000000000000000000000000000000000000000000000000000000000000000000000PES00010000001000000000000000000000000000000000000000000                              000000000000000
201609280010000200000000000000005540                8000000000030711036403FENIX OBRAS ELECTRICAS Y CIVIL000000000023425000000000000000000000000000000000000000000000000000000000000000000000000000000000000000000000000000000000PES00010000001000000000000000000000000000000000000000000                              000000000000000
201608230010000500000000000000016103                8000000000027203522431NEBBIA JUANA LIA              000000000012637000000000000000000000000000000000000000000000000000000000000000000000000000000000000000000000000000000000PES00010000001000000000000000000000000000000000000000000                              000000000000000
201611290010000700000000000000034265                8000000000030681233748LUIS GENTA S.R.L              000000000512918000000000000000000000000000000000000000000000000000000000000000000000000000000000000000000000000000000000PES00010000001000000000000000000000000000000000000000000                              000000000000000
201611110010000200000000000000005423                8000000000020164510906ATACO HECTOR BENITO           000000000395001000000000000000000000000000000000000000000000000000000000000000000000000000000000000000000000000000000000PES00010000001000000000000000000000000000000000000000000                              000000000000000
201611100010000400000000000000006980                8000000000030711269831CORRALON CHACABUCO SRL        000000000046133000000000000000000000000000000000000000000000000000000000000000000000001333000000000000000000000000000000PES00010000001000000000000000000000000000000000000000000                              000000000000000
201610060010003100000000000000026607                8000000000033639073829K Y M SACAGFICFTS             000000000050024000000000010257000000000000000000000000000000000000000000000000000000000000000000000000000000000000000000PES00010000001000000000000000000000000000000000000000000                              000000000000000
201609030010001400000000000000010128                8000000000030615302658SANTA ISABEL S.R.L            000000000123600000000000000000000000000000000000000000000000000000000000000000000000000000000000000000000000000000000000PES00010000001000000000000000000000000000000000000000000                              000000000000000
201606110010013600000000000000006670                8000000000030627062490LUIS  A CARRIZO Y CIA S.R.L   000000000010001000000000002241000000000000000000000000000000000000000000000000000000000000000000000000000000000000000000PES00010000001000000000000000000000000000000000000000000                              000000000000000
201611210010001100000000000000007529                8000000000030578029636MACRO ARGENTINA SA            000000000110000000000000000000000000000000000000000000000000000000000000000000000000000000000000000000000000000000000000PES00010000001000000000000000000000000000000000000000000                              000000000000000
201611130010135700000000000000002656                8000000000030612929455LIBERTAD S.A                  000000000051014000000000000626000000000000000000000000000000000000000000000000000000000000000000000000000000000000000000PES00010000001000000000000000000000000000000000000000000                              000000000000000
201611270010135600000000000000003758                8000000000030612929455LIBERTAD S.A                  000000000017093000000000000677000000000000000000000000000000000000000000000000000000000000000000000000000000000000000000PES00010000001000000000000000000000000000000000000000000                              000000000000000
201611170010582300000000000000000940                8000000000030708772964JUMBO RETAIL ARGENTINA SA     000000000016207000000000000000000000000000000000000000000000000000000000000000000000000000000000000000000000000000000000PES00010000002000000000000000000000000000000000000000000                              000000000000000
201611170010582300000000000011111940                8000000000030708772964JUMBO RETAIL ARGENTINA SA     000000000010181000000000000000000000000000000000000000000000000000000000000000000000000000000000000000000000000000000000PES00010000001000000000000000000000000000000000000000000                              000000000000000
201611230010307100000000000000008930                8000000000030708772964JUMBO RETAIL ARGENTINA SA     000000000368949000000000000000000000000000000000000000008927000000000000000000000000000000000000000000000000000000000000PES00010000002000000000000000000000000000000000000000000                              000000000000000
201611230010307100000000000111118930                8000000000030708772964JUMBO RETAIL ARGENTINA SA     000000000003898000000000000000000000000000000000000000000000000000000000000000000000000000000000000000000000000000000000PES00010000001000000000000000000000000000000000000000000                              000000000000000
201610170010000300000000000000000612                8000000000030690641514ZORICICH CONSTRUCCIONES ELECTR000000003472821000000000000000000000000000000000000000000000000000000000000000000000000000000000000000000000000000000000PES00010000001000000000000000000000000000000000000000000                              000000000000000
201611280010000100000000000000000182                8000000000020226850970DAVID SUAREZ                  000000076100000000000000000000000000000000000000000000000000000000000000000000000000000000000000000000000000000000000000PES00010000001000000000000000000000000000000000000000000                              000000000000000
201601150010000100000000000090093388                8000000000030500010084Banco Macro                   000000000179068000000000000000000000000000000000000000002398000000000000000000000000000000000000000000000000000000000000PES00010000001000000000000000000000000000000000000000000                              000000000000000
201601150010000100000000000090093181                8000000000030500010084Banco Macro                   000000000256558000000000000000000000000000000000000000003436000000000000000000000000000000000000000000000000000000000000PES00010000001000000000000000000000000000000000000000000                              000000000000000
201601150010000100000000000090093289                8000000000030500010084Banco Macro                   000000000212385000000000000000000000000000000000000000002844000000000000000000000000000000000000000000000000000000000000PES00010000001000000000000000000000000000000000000000000                              000000000000000
201601150010000100000000000090093316                8000000000030500010084Banco Macro                   000000000161379000000000000000000000000000000000000000002161000000000000000000000000000000000000000000000000000000000000PES00010000001000000000000000000000000000000000000000000                              000000000000000
201601150010000100000000000090093244                8000000000030500010084Banco Macro                   000000000208149000000000000000000000000000000000000000002788000000000000000000000000000000000000000000000000000000000000PES00010000001000000000000000000000000000000000000000000                              000000000000000
201601150010000100000000000090093349                8000000000030500010084Banco Macro                   000000000015883000000000000000000000000000000000000000000000000000000000000000000000000000000000000000000000000000000000PES00010000001000000000000000000000000000000000000000000                              000000000000000
201601150010000100000000000090093262                8000000000030500010084Banco Macro                   000000000135945000000000000000000000000000000000000000000000000000000000000000000000000000000000000000000000000000000000PES00010000001000000000000000000000000000000000000000000                              000000000000000
201601150010000100000000000090093187                8000000000030500010084Banco Macro                   000000000282419000000000000000000000000000000000000000003782000000000000000000000000000000000000000000000000000000000000PES00010000001000000000000000000000000000000000000000000                              000000000000000
201601150010000100000000000090093204                8000000000030500010084Banco Macro                   000000000083265000000000000000000000000000000000000000000000000000000000000000000000000000000000000000000000000000000000PES00010000001000000000000000000000000000000000000000000                              000000000000000
201601150010000100000000000090093430                8000000000030500010084Banco Macro                   000000000195759000000000000000000000000000000000000000002622000000000000000000000000000000000000000000000000000000000000PES00010000001000000000000000000000000000000000000000000                              000000000000000
201601150010000100000000000090093334                8000000000030500010084Banco Macro                   000000000093357000000000000000000000000000000000000000000000000000000000000000000000000000000000000000000000000000000000PES00010000001000000000000000000000000000000000000000000                              000000000000000
201601150010000100000000000090093177                8000000000030500010084Banco Macro                   000000000105468000000000000000000000000000000000000000000000000000000000000000000000000000000000000000000000000000000000PES00010000001000000000000000000000000000000000000000000                              000000000000000
201601150010000100000000000090093279                8000000000030500010084Banco Macro                   000000000060139000000000000000000000000000000000000000000000000000000000000000000000000000000000000000000000000000000000PES00010000001000000000000000000000000000000000000000000                              000000000000000
201601150010000100000000000090093373                8000000000030500010084Banco Macro                   000000000399434000000000000000000000000000000000000000005350000000000000000000000000000000000000000000000000000000000000PES00010000001000000000000000000000000000000000000000000                              000000000000000
201601150010000100000000000090093383                8000000000030500010084Banco Macro                   000000000266954000000000000000000000000000000000000000003575000000000000000000000000000000000000000000000000000000000000PES00010000001000000000000000000000000000000000000000000                              000000000000000
201601150010000100000000000090093190                8000000000030500010084Banco Macro                   000000000030201000000000000000000000000000000000000000000000000000000000000000000000000000000000000000000000000000000000PES00010000001000000000000000000000000000000000000000000                              000000000000000
201601150010000100000000000090093359                8000000000030500010084Banco Macro                   000000000101709000000000000000000000000000000000000000000000000000000000000000000000000000000000000000000000000000000000PES00010000001000000000000000000000000000000000000000000                              000000000000000
201601150010000100000000000090093329                8000000000030500010084Banco Macro                   000000000110952000000000000000000000000000000000000000000000000000000000000000000000000000000000000000000000000000000000PES00010000001000000000000000000000000000000000000000000                              000000000000000
201601150010000100000000000090093298                8000000000030500010084Banco Macro                   000000000054494000000000000000000000000000000000000000000000000000000000000000000000000000000000000000000000000000000000PES00010000001000000000000000000000000000000000000000000                              000000000000000
201601150010000100000000000090093224                8000000000030500010084Banco Macro                   000000000048527000000000000000000000000000000000000000000000000000000000000000000000000000000000000000000000000000000000PES00010000001000000000000000000000000000000000000000000                              000000000000000
201601150010000100000000000090093343                8000000000030500010084Banco Macro                   000000000027404000000000000000000000000000000000000000000000000000000000000000000000000000000000000000000000000000000000PES00010000001000000000000000000000000000000000000000000                              000000000000000
201601150010000100000000000090093399                8000000000030500010084Banco Macro                   000000000108492000000000000000000000000000000000000000000000000000000000000000000000000000000000000000000000000000000000PES00010000001000000000000000000000000000000000000000000                              000000000000000
201601150010000100000000000090093220                8000000000030500010084Banco Macro                   000000000076111000000000000000000000000000000000000000000000000000000000000000000000000000000000000000000000000000000000PES00010000001000000000000000000000000000000000000000000                              000000000000000
201601150010000100000000000090093321                8000000000030500010084Banco Macro                   000000000900606000000000000000000000000000000000000000012062000000000000000000000000000000000000000000000000000000000000PES00010000001000000000000000000000000000000000000000000                              000000000000000
201601150010000100000000000090093288                8000000000030500010084Banco Macro                   000000000104209000000000000000000000000000000000000000000000000000000000000000000000000000000000000000000000000000000000PES00010000001000000000000000000000000000000000000000000                              000000000000000
201601150010000100000000000090093255                8000000000030500010084Banco Macro                   000000000179013000000000000000000000000000000000000000002398000000000000000000000000000000000000000000000000000000000000PES00010000001000000000000000000000000000000000000000000                              000000000000000
201601150010000100000000000090093211                8000000000030500010084Banco Macro                   000000000221557000000000000000000000000000000000000000002967000000000000000000000000000000000000000000000000000000000000PES00010000001000000000000000000000000000000000000000000                              000000000000000
201602160010000100000000000090094833                8000000000030500010084Banco Macro                   000000000152038000000000000000000000000000000000000000000000000000000000000000000000000000000000000000000000000000000000PES00010000001000000000000000000000000000000000000000000                              000000000000000
201602160010000100000000000090094834                8000000000030500010084Banco Macro                   000000000225110000000000000000000000000000000000000000002994000000000000000000000000000000000000000000000000000000000000PES00010000001000000000000000000000000000000000000000000                              000000000000000
201602160010000100000000000090094835                8000000000030500010084Banco Macro                   000000000189150000000000000000000000000000000000000000002518000000000000000000000000000000000000000000000000000000000000PES00010000001000000000000000000000000000000000000000000                              000000000000000
201602160010000100000000000090094836                8000000000030500010084Banco Macro                   000000000133426000000000000000000000000000000000000000000000000000000000000000000000000000000000000000000000000000000000PES00010000001000000000000000000000000000000000000000000                              000000000000000
201602160010000100000000000090094877                8000000000030500010084Banco Macro                   000000000190861000000000000000000000000000000000000000002545000000000000000000000000000000000000000000000000000000000000PES00010000001000000000000000000000000000000000000000000                              000000000000000
201602160010000100000000000090094878                8000000000030500010084Banco Macro                   000000000014451000000000000000000000000000000000000000000000000000000000000000000000000000000000000000000000000000000000PES00010000001000000000000000000000000000000000000000000                              000000000000000
201602160010000100000000000090094908                8000000000030500010084Banco Macro                   000000000125487000000000000000000000000000000000000000000000000000000000000000000000000000000000000000000000000000000000PES00010000001000000000000000000000000000000000000000000                              000000000000000
201602160010000100000000000090094916                8000000000030500010084Banco Macro                   000000000263429000000000000000000000000000000000000000003516000000000000000000000000000000000000000000000000000000000000PES00010000001000000000000000000000000000000000000000000                              000000000000000
201602160010000100000000000090094930                8000000000030500010084Banco Macro                   000000000077999000000000000000000000000000000000000000000000000000000000000000000000000000000000000000000000000000000000PES00010000001000000000000000000000000000000000000000000                              000000000000000
201602160010000100000000000090094938                8000000000030500010084Banco Macro                   000000000184051000000000000000000000000000000000000000002457000000000000000000000000000000000000000000000000000000000000PES00010000001000000000000000000000000000000000000000000                              000000000000000
201602160010000100000000000090094946                8000000000030500010084Banco Macro                   000000000088066000000000000000000000000000000000000000000000000000000000000000000000000000000000000000000000000000000000PES00010000001000000000000000000000000000000000000000000                              000000000000000
201602160010000100000000000090094972                8000000000030500010084Banco Macro                   000000000099784000000000000000000000000000000000000000000000000000000000000000000000000000000000000000000000000000000000PES00010000001000000000000000000000000000000000000000000                              000000000000000
201602160010000100000000000090094986                8000000000030500010084Banco Macro                   000000000057047000000000000000000000000000000000000000000000000000000000000000000000000000000000000000000000000000000000PES00010000001000000000000000000000000000000000000000000                              000000000000000
201602160010000100000000000090094998                8000000000030500010084Banco Macro                   000000000378889000000000000000000000000000000000000000005061000000000000000000000000000000000000000000000000000000000000PES00010000001000000000000000000000000000000000000000000                              000000000000000
201602160010000100000000000090094999                8000000000030500010084Banco Macro                   000000000253222000000000000000000000000000000000000000003382000000000000000000000000000000000000000000000000000000000000PES00010000001000000000000000000000000000000000000000000                              000000000000000
201602160010000100000000000090095000                8000000000030500010084Banco Macro                   000000000028648000000000000000000000000000000000000000000000000000000000000000000000000000000000000000000000000000000000PES00010000001000000000000000000000000000000000000000000                              000000000000000
201602160010000100000000000090095001                8000000000030500010084Banco Macro                   000000000096479000000000000000000000000000000000000000000000000000000000000000000000000000000000000000000000000000000000PES00010000001000000000000000000000000000000000000000000                              000000000000000
201602160010000100000000000090095002                8000000000030500010084Banco Macro                   000000000105248000000000000000000000000000000000000000000000000000000000000000000000000000000000000000000000000000000000PES00010000001000000000000000000000000000000000000000000                              000000000000000
201602160010000100000000000090095011                8000000000030500010084Banco Macro                   000000000052030000000000000000000000000000000000000000000000000000000000000000000000000000000000000000000000000000000000PES00010000001000000000000000000000000000000000000000000                              000000000000000
201602160010000100000000000090095023                8000000000030500010084Banco Macro                   000000000046416000000000000000000000000000000000000000000000000000000000000000000000000000000000000000000000000000000000PES00010000001000000000000000000000000000000000000000000                              000000000000000
201602160010000100000000000090095024                8000000000030500010084Banco Macro                   000000000026212000000000000000000000000000000000000000000000000000000000000000000000000000000000000000000000000000000000PES00010000001000000000000000000000000000000000000000000                              000000000000000
201602160010000100000000000090095026                8000000000030500010084Banco Macro                   000000000103772000000000000000000000000000000000000000000000000000000000000000000000000000000000000000000000000000000000PES00010000001000000000000000000000000000000000000000000                              000000000000000
201602160010000100000000000090095047                8000000000030500010084Banco Macro                   000000000072920000000000000000000000000000000000000000000000000000000000000000000000000000000000000000000000000000000000PES00010000001000000000000000000000000000000000000000000                              000000000000000
201602160010000100000000000090095062                8000000000030500010084Banco Macro                   000000000869435000000000000000000000000000000000000000011624000000000000000000000000000000000000000000000000000000000000PES00010000001000000000000000000000000000000000000000000                              000000000000000
201602160010000100000000000090095065                8000000000030500010084Banco Macro                   000000000100797000000000000000000000000000000000000000000000000000000000000000000000000000000000000000000000000000000000PES00010000001000000000000000000000000000000000000000000                              000000000000000
201602160010000100000000000090095066                8000000000030500010084Banco Macro                   000000000173148000000000000000000000000000000000000000002315000000000000000000000000000000000000000000000000000000000000PES00010000001000000000000000000000000000000000000000000                              000000000000000
201602160010000100000000000090095067                8000000000030500010084Banco Macro                   000000000214299000000000000000000000000000000000000000002865000000000000000000000000000000000000000000000000000000000000PES00010000001000000000000000000000000000000000000000000                              000000000000000
201603160010000100000000000090096801                8000000000030500010084Banco Macro                   000000000123972000000000000000000000000000000000000000000000000000000000000000000000000000000000000000000000000000000000PES00010000001000000000000000000000000000000000000000000                              000000000000000
201603160010000100000000000090096800                8000000000030500010084Banco Macro                   000000000188660000000000000000000000000000000000000000002503000000000000000000000000000000000000000000000000000000000000PES00010000001000000000000000000000000000000000000000000                              000000000000000
201603160010000100000000000090096802                8000000000030500010084Banco Macro                   000000000161754000000000000000000000000000000000000000002149000000000000000000000000000000000000000000000000000000000000PES00010000001000000000000000000000000000000000000000000                              000000000000000
201603160010000100000000000090096789                8000000000030500010084Banco Macro                   000000000104563000000000000000000000000000000000000000000000000000000000000000000000000000000000000000000000000000000000PES00010000001000000000000000000000000000000000000000000                              000000000000000
201603160010000100000000000090096803                8000000000030500010084Banco Macro                   000000000169454000000000000000000000000000000000000000002257000000000000000000000000000000000000000000000000000000000000PES00010000001000000000000000000000000000000000000000000                              000000000000000
201603160010000100000000000090096804                8000000000030500010084Banco Macro                   000000000012705000000000000000000000000000000000000000000000000000000000000000000000000000000000000000000000000000000000PES00010000001000000000000000000000000000000000000000000                              000000000000000
201603160010000100000000000090096805                8000000000030500010084Banco Macro                   000000000112327000000000000000000000000000000000000000000000000000000000000000000000000000000000000000000000000000000000PES00010000001000000000000000000000000000000000000000000                              000000000000000
201603160010000100000000000090096786                8000000000030500010084Banco Macro                   000000000238865000000000000000000000000000000000000000003184000000000000000000000000000000000000000000000000000000000000PES00010000001000000000000000000000000000000000000000000                              000000000000000
201603160010000100000000000090096788                8000000000030500010084Banco Macro                   000000000071067000000000000000000000000000000000000000000000000000000000000000000000000000000000000000000000000000000000PES00010000001000000000000000000000000000000000000000000                              000000000000000
201603160010000100000000000090096787                8000000000030500010084Banco Macro                   000000000168436000000000000000000000000000000000000000002247000000000000000000000000000000000000000000000000000000000000PES00010000001000000000000000000000000000000000000000000                              000000000000000
201603160010000100000000000090096771                8000000000030500010084Banco Macro                   000000000080907000000000000000000000000000000000000000000000000000000000000000000000000000000000000000000000000000000000PES00010000001000000000000000000000000000000000000000000                              000000000000000
201603160010000100000000000090096770                8000000000030500010084Banco Macro                   000000000091986000000000000000000000000000000000000000000000000000000000000000000000000000000000000000000000000000000000PES00010000001000000000000000000000000000000000000000000                              000000000000000
201603160010000100000000000090096799                8000000000030500010084Banco Macro                   000000000052749000000000000000000000000000000000000000000000000000000000000000000000000000000000000000000000000000000000PES00010000001000000000000000000000000000000000000000000                              000000000000000
201603160010000100000000000090096798                8000000000030500010084Banco Macro                   000000000350342000000000000000000000000000000000000000004677000000000000000000000000000000000000000000000000000000000000PES00010000001000000000000000000000000000000000000000000                              000000000000000
201603160010000100000000000090096797                8000000000030500010084Banco Macro                   000000000234146000000000000000000000000000000000000000003126000000000000000000000000000000000000000000000000000000000000PES00010000001000000000000000000000000000000000000000000                              000000000000000
201603160010000100000000000090096796                8000000000030500010084Banco Macro                   000000000026490000000000000000000000000000000000000000000000000000000000000000000000000000000000000000000000000000000000PES00010000001000000000000000000000000000000000000000000                              000000000000000
201603160010000100000000000090096795                8000000000030500010084Banco Macro                   000000000089212000000000000000000000000000000000000000000000000000000000000000000000000000000000000000000000000000000000PES00010000001000000000000000000000000000000000000000000                              000000000000000
201603160010000100000000000090096794                8000000000030500010084Banco Macro                   000000000097320000000000000000000000000000000000000000000000000000000000000000000000000000000000000000000000000000000000PES00010000001000000000000000000000000000000000000000000                              000000000000000
201603160010000100000000000090096919                8000000000030500010084Banco Macro                   000000000048471000000000000000000000000000000000000000000000000000000000000000000000000000000000000000000000000000000000PES00010000001000000000000000000000000000000000000000000                              000000000000000
201603160010000100000000000090096882                8000000000030500010084Banco Macro                   000000000043328000000000000000000000000000000000000000000000000000000000000000000000000000000000000000000000000000000000PES00010000001000000000000000000000000000000000000000000                              000000000000000
201603160010000100000000000090096718                8000000000030500010084Banco Macro                   000000000024469000000000000000000000000000000000000000000000000000000000000000000000000000000000000000000000000000000000PES00010000001000000000000000000000000000000000000000000                              000000000000000
201603160010000100000000000090096717                8000000000030500010084Banco Macro                   000000000096870000000000000000000000000000000000000000000000000000000000000000000000000000000000000000000000000000000000PES00010000001000000000000000000000000000000000000000000                              000000000000000
201603160010000100000000000090096881                8000000000030500010084Banco Macro                   000000000068200000000000000000000000000000000000000000000000000000000000000000000000000000000000000000000000000000000000PES00010000001000000000000000000000000000000000000000000                              000000000000000
201603160010000100000000000090096880                8000000000030500010084Banco Macro                   000000000820118000000000000000000000000000000000000000010961000000000000000000000000000000000000000000000000000000000000PES00010000001000000000000000000000000000000000000000000                              000000000000000
201603160010000100000000000090096956                8000000000030500010084Banco Macro                   000000000095285000000000000000000000000000000000000000000000000000000000000000000000000000000000000000000000000000000000PES00010000001000000000000000000000000000000000000000000                              000000000000000
201603160010000100000000000090096957                8000000000030500010084Banco Macro                   000000000163676000000000000000000000000000000000000000002188000000000000000000000000000000000000000000000000000000000000PES00010000001000000000000000000000000000000000000000000                              000000000000000
201603160010000100000000000090096958                8000000000030500010084Banco Macro                   000000000202575000000000000000000000000000000000000000002708000000000000000000000000000000000000000000000000000000000000PES00010000001000000000000000000000000000000000000000000                              000000000000000
201604150010000100000000000090098587                8000000000030500010084Banco Macro                   000000000112686000000000000000000000000000000000000000000000000000000000000000000000000000000000000000000000000000000000PES00010000001000000000000000000000000000000000000000000                              000000000000000
201604150010000100000000000090098586                8000000000030500010084Banco Macro                   000000000178984000000000000000000000000000000000000000002397000000000000000000000000000000000000000000000000000000000000PES00010000001000000000000000000000000000000000000000000                              000000000000000
201604150010000100000000000090098588                8000000000030500010084Banco Macro                   000000000155929000000000000000000000000000000000000000000000000000000000000000000000000000000000000000000000000000000000PES00010000001000000000000000000000000000000000000000000                              000000000000000
201604150010000100000000000090098575                8000000000030500010084Banco Macro                   000000000088861000000000000000000000000000000000000000000000000000000000000000000000000000000000000000000000000000000000PES00010000001000000000000000000000000000000000000000000                              000000000000000
201604150010000100000000000090098589                8000000000030500010084Banco Macro                   000000000174253000000000000000000000000000000000000000002334000000000000000000000000000000000000000000000000000000000000PES00010000001000000000000000000000000000000000000000000                              000000000000000
201604150010000100000000000090098590                8000000000030500010084Banco Macro                   000000000012893000000000000000000000000000000000000000000000000000000000000000000000000000000000000000000000000000000000PES00010000001000000000000000000000000000000000000000000                              000000000000000
201604150010000100000000000090098591                8000000000030500010084Banco Macro                   000000000116726000000000000000000000000000000000000000000000000000000000000000000000000000000000000000000000000000000000PES00010000001000000000000000000000000000000000000000000                              000000000000000
201604150010000100000000000090098572                8000000000030500010084Banco Macro                   000000000252192000000000000000000000000000000000000000003378000000000000000000000000000000000000000000000000000000000000PES00010000001000000000000000000000000000000000000000000                              000000000000000
201604150010000100000000000090098574                8000000000030500010084Banco Macro                   000000000075516000000000000000000000000000000000000000000000000000000000000000000000000000000000000000000000000000000000PES00010000001000000000000000000000000000000000000000000                              000000000000000
201604150010000100000000000090098573                8000000000030500010084Banco Macro                   000000000179948000000000000000000000000000000000000000002410000000000000000000000000000000000000000000000000000000000000PES00010000001000000000000000000000000000000000000000000                              000000000000000
201604150010000100000000000090098557                8000000000030500010084Banco Macro                   000000000086839000000000000000000000000000000000000000000000000000000000000000000000000000000000000000000000000000000000PES00010000001000000000000000000000000000000000000000000                              000000000000000
201604150010000100000000000090098556                8000000000030500010084Banco Macro                   000000000099136000000000000000000000000000000000000000000000000000000000000000000000000000000000000000000000000000000000PES00010000001000000000000000000000000000000000000000000                              000000000000000
201604150010000100000000000090098585                8000000000030500010084Banco Macro                   000000000057059000000000000000000000000000000000000000000000000000000000000000000000000000000000000000000000000000000000PES00010000001000000000000000000000000000000000000000000                              000000000000000
201604150010000100000000000090098584                8000000000030500010084Banco Macro                   000000000378975000000000000000000000000000000000000000005076000000000000000000000000000000000000000000000000000000000000PES00010000001000000000000000000000000000000000000000000                              000000000000000
201604150010000100000000000090098583                8000000000030500010084Banco Macro                   000000000253280000000000000000000000000000000000000000003392000000000000000000000000000000000000000000000000000000000000PES00010000001000000000000000000000000000000000000000000                              000000000000000
201604150010000100000000000090098582                8000000000030500010084Banco Macro                   000000000028654000000000000000000000000000000000000000000000000000000000000000000000000000000000000000000000000000000000PES00010000001000000000000000000000000000000000000000000                              000000000000000
201604150010000100000000000090098581                8000000000030500010084Banco Macro                   000000000096499000000000000000000000000000000000000000000000000000000000000000000000000000000000000000000000000000000000PES00010000001000000000000000000000000000000000000000000                              000000000000000
201604150010000100000000000090098580                8000000000030500010084Banco Macro                   000000000105269000000000000000000000000000000000000000000000000000000000000000000000000000000000000000000000000000000000PES00010000001000000000000000000000000000000000000000000                              000000000000000
201604150010000100000000000090098705                8000000000030500010084Banco Macro                   000000000052893000000000000000000000000000000000000000000000000000000000000000000000000000000000000000000000000000000000PES00010000001000000000000000000000000000000000000000000                              000000000000000
201604150010000100000000000090098668                8000000000030500010084Banco Macro                   000000000047396000000000000000000000000000000000000000000000000000000000000000000000000000000000000000000000000000000000PES00010000001000000000000000000000000000000000000000000                              000000000000000
201604150010000100000000000090098504                8000000000030500010084Banco Macro                   000000000026765000000000000000000000000000000000000000000000000000000000000000000000000000000000000000000000000000000000PES00010000001000000000000000000000000000000000000000000                              000000000000000
201604150010000100000000000090098503                8000000000030500010084Banco Macro                   000000000105963000000000000000000000000000000000000000000000000000000000000000000000000000000000000000000000000000000000PES00010000001000000000000000000000000000000000000000000                              000000000000000
201604150010000100000000000090098667                8000000000030500010084Banco Macro                   000000000074761000000000000000000000000000000000000000000000000000000000000000000000000000000000000000000000000000000000PES00010000001000000000000000000000000000000000000000000                              000000000000000
201604150010000100000000000090098666                8000000000030500010084Banco Macro                   000000000907981000000000000000000000000000000000000000012160000000000000000000000000000000000000000000000000000000000000PES00010000001000000000000000000000000000000000000000000                              000000000000000
201604150010000100000000000090098741                8000000000030500010084Banco Macro                   000000000105745000000000000000000000000000000000000000000000000000000000000000000000000000000000000000000000000000000000PES00010000001000000000000000000000000000000000000000000                              000000000000000
201604150010000100000000000090098742                8000000000030500010084Banco Macro                   000000000181651000000000000000000000000000000000000000002433000000000000000000000000000000000000000000000000000000000000PES00010000001000000000000000000000000000000000000000000                              000000000000000
201604150010000100000000000090098743                8000000000030500010084Banco Macro                   000000000224822000000000000000000000000000000000000000003011000000000000000000000000000000000000000000000000000000000000PES00010000001000000000000000000000000000000000000000000                              000000000000000
201605160010000100000000000090100157                8000000000030500010084Banco Macro                   000000000085241000000000000000000000000000000000000000000000000000000000000000000000000000000000000000000000000000000000PES00010000001000000000000000000000000000000000000000000                              000000000000000
201605160010000100000000000090100156                8000000000030500010084Banco Macro                   000000000142483000000000000000000000000000000000000000000000000000000000000000000000000000000000000000000000000000000000PES00010000001000000000000000000000000000000000000000000                              000000000000000
201605160010000100000000000090100158                8000000000030500010084Banco Macro                   000000000131056000000000000000000000000000000000000000000000000000000000000000000000000000000000000000000000000000000000PES00010000001000000000000000000000000000000000000000000                              000000000000000
201605160010000100000000000090100145                8000000000030500010084Banco Macro                   000000000059748000000000000000000000000000000000000000000000000000000000000000000000000000000000000000000000000000000000PES00010000001000000000000000000000000000000000000000000                              000000000000000
201605160010000100000000000090100159                8000000000030500010084Banco Macro                   000000000154130000000000000000000000000000000000000000000000000000000000000000000000000000000000000000000000000000000000PES00010000001000000000000000000000000000000000000000000                              000000000000000
201605160010000100000000000090100160                8000000000030500010084Banco Macro                   000000000011379000000000000000000000000000000000000000000000000000000000000000000000000000000000000000000000000000000000PES00010000001000000000000000000000000000000000000000000                              000000000000000
201605160010000100000000000090100161                8000000000030500010084Banco Macro                   000000000105955000000000000000000000000000000000000000000000000000000000000000000000000000000000000000000000000000000000PES00010000001000000000000000000000000000000000000000000                              000000000000000
201605160010000100000000000090100142                8000000000030500010084Banco Macro                   000000000233162000000000000000000000000000000000000000003123000000000000000000000000000000000000000000000000000000000000PES00010000001000000000000000000000000000000000000000000                              000000000000000
201605160010000100000000000090100144                8000000000030500010084Banco Macro                   000000000070306000000000000000000000000000000000000000000000000000000000000000000000000000000000000000000000000000000000PES00010000001000000000000000000000000000000000000000000                              000000000000000
201605160010000100000000000090100143                8000000000030500010084Banco Macro                   000000000168531000000000000000000000000000000000000000002257000000000000000000000000000000000000000000000000000000000000PES00010000001000000000000000000000000000000000000000000                              000000000000000
201605160010000100000000000090100127                8000000000030500010084Banco Macro                   000000000081746000000000000000000000000000000000000000000000000000000000000000000000000000000000000000000000000000000000PES00010000001000000000000000000000000000000000000000000                              000000000000000
201605160010000100000000000090100126                8000000000030500010084Banco Macro                   000000000093738000000000000000000000000000000000000000000000000000000000000000000000000000000000000000000000000000000000PES00010000001000000000000000000000000000000000000000000                              000000000000000
201605160010000100000000000090100155                8000000000030500010084Banco Macro                   000000000054164000000000000000000000000000000000000000000000000000000000000000000000000000000000000000000000000000000000PES00010000001000000000000000000000000000000000000000000                              000000000000000
201605160010000100000000000090100154                8000000000030500010084Banco Macro                   000000000359745000000000000000000000000000000000000000004818000000000000000000000000000000000000000000000000000000000000PES00010000001000000000000000000000000000000000000000000                              000000000000000
201605160010000100000000000090100153                8000000000030500010084Banco Macro                   000000000240429000000000000000000000000000000000000000003220000000000000000000000000000000000000000000000000000000000000PES00010000001000000000000000000000000000000000000000000                              000000000000000
201605160010000100000000000090100152                8000000000030500010084Banco Macro                   000000000027200000000000000000000000000000000000000000000000000000000000000000000000000000000000000000000000000000000000PES00010000001000000000000000000000000000000000000000000                              000000000000000
201605160010000100000000000090100151                8000000000030500010084Banco Macro                   000000000091602000000000000000000000000000000000000000000000000000000000000000000000000000000000000000000000000000000000PES00010000001000000000000000000000000000000000000000000                              000000000000000
201605160010000100000000000090100150                8000000000030500010084Banco Macro                   000000000099927000000000000000000000000000000000000000000000000000000000000000000000000000000000000000000000000000000000PES00010000001000000000000000000000000000000000000000000                              000000000000000
201605160010000100000000000090100275                8000000000030500010084Banco Macro                   000000000050681000000000000000000000000000000000000000000000000000000000000000000000000000000000000000000000000000000000PES00010000001000000000000000000000000000000000000000000                              000000000000000
201605160010000100000000000090100238                8000000000030500010084Banco Macro                   000000000045526000000000000000000000000000000000000000000000000000000000000000000000000000000000000000000000000000000000PES00010000001000000000000000000000000000000000000000000                              000000000000000
201605160010000100000000000090100074                8000000000030500010084Banco Macro                   000000000025709000000000000000000000000000000000000000000000000000000000000000000000000000000000000000000000000000000000PES00010000001000000000000000000000000000000000000000000                              000000000000000
201605160010000100000000000090100073                8000000000030500010084Banco Macro                   000000000101784000000000000000000000000000000000000000000000000000000000000000000000000000000000000000000000000000000000PES00010000001000000000000000000000000000000000000000000                              000000000000000
201605160010000100000000000090100237                8000000000030500010084Banco Macro                   000000000071975000000000000000000000000000000000000000000000000000000000000000000000000000000000000000000000000000000000PES00010000001000000000000000000000000000000000000000000                              000000000000000
201605160010000100000000000090100236                8000000000030500010084Banco Macro                   000000000883075000000000000000000000000000000000000000011827000000000000000000000000000000000000000000000000000000000000PES00010000001000000000000000000000000000000000000000000                              000000000000000
201605160010000100000000000090100312                8000000000030500010084Banco Macro                   000000000103099000000000000000000000000000000000000000000000000000000000000000000000000000000000000000000000000000000000PES00010000001000000000000000000000000000000000000000000                              000000000000000
201605160010000100000000000090100313                8000000000030500010084Banco Macro                   000000000177103000000000000000000000000000000000000000002372000000000000000000000000000000000000000000000000000000000000PES00010000001000000000000000000000000000000000000000000                              000000000000000
201605160010000100000000000090100314                8000000000030500010084Banco Macro                   000000000219196000000000000000000000000000000000000000002936000000000000000000000000000000000000000000000000000000000000PES00010000001000000000000000000000000000000000000000000                              000000000000000
201606160010000100000000000090101924                8000000000030500010084Banco Macro                   000000000060774000000000000000000000000000000000000000000000000000000000000000000000000000000000000000000000000000000000PES00010000001000000000000000000000000000000000000000000                              000000000000000
201606160010000100000000000090101923                8000000000030500010084Banco Macro                   000000000113416000000000000000000000000000000000000000000000000000000000000000000000000000000000000000000000000000000000PES00010000001000000000000000000000000000000000000000000                              000000000000000
201606160010000100000000000090101925                8000000000030500010084Banco Macro                   000000000110850000000000000000000000000000000000000000000000000000000000000000000000000000000000000000000000000000000000PES00010000001000000000000000000000000000000000000000000                              000000000000000
201606160010000100000000000090101912                8000000000030500010084Banco Macro                   000000000032675000000000000000000000000000000000000000000000000000000000000000000000000000000000000000000000000000000000PES00010000001000000000000000000000000000000000000000000                              000000000000000
201606160010000100000000000090101926                8000000000030500010084Banco Macro                   000000000141885000000000000000000000000000000000000000000000000000000000000000000000000000000000000000000000000000000000PES00010000001000000000000000000000000000000000000000000                              000000000000000
201606160010000100000000000090101927                8000000000030500010084Banco Macro                   000000000010272000000000000000000000000000000000000000000000000000000000000000000000000000000000000000000000000000000000PES00010000001000000000000000000000000000000000000000000                              000000000000000
201606160010000100000000000090101928                8000000000030500010084Banco Macro                   000000000099005000000000000000000000000000000000000000000000000000000000000000000000000000000000000000000000000000000000PES00010000001000000000000000000000000000000000000000000                              000000000000000
201606160010000100000000000090101909                8000000000030500010084Banco Macro                   000000000222545000000000000000000000000000000000000000002966000000000000000000000000000000000000000000000000000000000000PES00010000001000000000000000000000000000000000000000000                              000000000000000
201606160010000100000000000090101911                8000000000030500010084Banco Macro                   000000000067639000000000000000000000000000000000000000000000000000000000000000000000000000000000000000000000000000000000PES00010000001000000000000000000000000000000000000000000                              000000000000000
201606160010000100000000000090101910                8000000000030500010084Banco Macro                   000000000163208000000000000000000000000000000000000000002177000000000000000000000000000000000000000000000000000000000000PES00010000001000000000000000000000000000000000000000000                              000000000000000
201606160010000100000000000090101894                8000000000030500010084Banco Macro                   000000000079615000000000000000000000000000000000000000000000000000000000000000000000000000000000000000000000000000000000PES00010000001000000000000000000000000000000000000000000                              000000000000000
201606160010000100000000000090101893                8000000000030500010084Banco Macro                   000000000091739000000000000000000000000000000000000000000000000000000000000000000000000000000000000000000000000000000000PES00010000001000000000000000000000000000000000000000000                              000000000000000
201606160010000100000000000090101922                8000000000030500010084Banco Macro                   000000000053233000000000000000000000000000000000000000000000000000000000000000000000000000000000000000000000000000000000PES00010000001000000000000000000000000000000000000000000                              000000000000000
201606160010000100000000000090101921                8000000000030500010084Banco Macro                   000000000353555000000000000000000000000000000000000000004720000000000000000000000000000000000000000000000000000000000000PES00010000001000000000000000000000000000000000000000000                              000000000000000
201606160010000100000000000090101920                8000000000030500010084Banco Macro                   000000000236292000000000000000000000000000000000000000003154000000000000000000000000000000000000000000000000000000000000PES00010000001000000000000000000000000000000000000000000                              000000000000000
201606160010000100000000000090101919                8000000000030500010084Banco Macro                   000000000026734000000000000000000000000000000000000000000000000000000000000000000000000000000000000000000000000000000000PES00010000001000000000000000000000000000000000000000000                              000000000000000
201606160010000100000000000090101918                8000000000030500010084Banco Macro                   000000000090030000000000000000000000000000000000000000000000000000000000000000000000000000000000000000000000000000000000PES00010000001000000000000000000000000000000000000000000                              000000000000000
201606160010000100000000000090101917                8000000000030500010084Banco Macro                   000000000098212000000000000000000000000000000000000000000000000000000000000000000000000000000000000000000000000000000000PES00010000001000000000000000000000000000000000000000000                              000000000000000
201606160010000100000000000090102042                8000000000030500010084Banco Macro                   000000000050309000000000000000000000000000000000000000000000000000000000000000000000000000000000000000000000000000000000PES00010000001000000000000000000000000000000000000000000                              000000000000000
201606160010000100000000000090102005                8000000000030500010084Banco Macro                   000000000045311000000000000000000000000000000000000000000000000000000000000000000000000000000000000000000000000000000000PES00010000001000000000000000000000000000000000000000000                              000000000000000
201606160010000100000000000090101841                8000000000030500010084Banco Macro                   000000000025587000000000000000000000000000000000000000000000000000000000000000000000000000000000000000000000000000000000PES00010000001000000000000000000000000000000000000000000                              000000000000000
201606160010000100000000000090101840                8000000000030500010084Banco Macro                   000000000101304000000000000000000000000000000000000000000000000000000000000000000000000000000000000000000000000000000000PES00010000001000000000000000000000000000000000000000000                              000000000000000
201606160010000100000000000090102004                8000000000030500010084Banco Macro                   000000000071800000000000000000000000000000000000000000000000000000000000000000000000000000000000000000000000000000000000PES00010000001000000000000000000000000000000000000000000                              000000000000000
201606160010000100000000000090102003                8000000000030500010084Banco Macro                   000000000890299000000000000000000000000000000000000000011901000000000000000000000000000000000000000000000000000000000000PES00010000001000000000000000000000000000000000000000000                              000000000000000
201606160010000100000000000090102079                8000000000030500010084Banco Macro                   000000000104207000000000000000000000000000000000000000000000000000000000000000000000000000000000000000000000000000000000PES00010000001000000000000000000000000000000000000000000                              000000000000000
201606160010000100000000000090102080                8000000000030500010084Banco Macro                   000000000179003000000000000000000000000000000000000000002393000000000000000000000000000000000000000000000000000000000000PES00010000001000000000000000000000000000000000000000000                              000000000000000
201606160010000100000000000090102081                8000000000030500010084Banco Macro                   000000000221547000000000000000000000000000000000000000002962000000000000000000000000000000000000000000000000000000000000PES00010000001000000000000000000000000000000000000000000                              000000000000000
201607180010000100000000000090103560                8000000000030500010084Banco Macro                   000000000031817000000000000000000000000000000000000000000000000000000000000000000000000000000000000000000000000000000000PES00010000001000000000000000000000000000000000000000000                              000000000000000
201607180010000100000000000090103561                8000000000030500010084Banco Macro                   000000000074044000000000000000000000000000000000000000000000000000000000000000000000000000000000000000000000000000000000PES00010000001000000000000000000000000000000000000000000                              000000000000000
201607180010000100000000000090103562                8000000000030500010084Banco Macro                   000000000080006000000000000000000000000000000000000000000000000000000000000000000000000000000000000000000000000000000000PES00010000001000000000000000000000000000000000000000000                              000000000000000
201607180010000100000000000090103603                8000000000030500010084Banco Macro                   000000000115085000000000000000000000000000000000000000000000000000000000000000000000000000000000000000000000000000000000PES00010000001000000000000000000000000000000000000000000                              000000000000000
201607180010000100000000000090103604                8000000000030500010084Banco Macro                   000000000008129000000000000000000000000000000000000000000000000000000000000000000000000000000000000000000000000000000000PES00010000001000000000000000000000000000000000000000000                              000000000000000
201607180010000100000000000090103635                8000000000030500010084Banco Macro                   000000000081786000000000000000000000000000000000000000000000000000000000000000000000000000000000000000000000000000000000PES00010000001000000000000000000000000000000000000000000                              000000000000000
201607180010000100000000000090103643                8000000000030500010084Banco Macro                   000000000186005000000000000000000000000000000000000000000000000000000000000000000000000000000000000000000000000000000000PES00010000001000000000000000000000000000000000000000000                              000000000000000
201607180010000100000000000090103657                8000000000030500010084Banco Macro                   000000000057815000000000000000000000000000000000000000000000000000000000000000000000000000000000000000000000000000000000PES00010000001000000000000000000000000000000000000000000                              000000000000000
201607180010000100000000000090103665                8000000000030500010084Banco Macro                   000000000138669000000000000000000000000000000000000000000000000000000000000000000000000000000000000000000000000000000000PES00010000001000000000000000000000000000000000000000000                              000000000000000
201607180010000100000000000090103673                8000000000030500010084Banco Macro                   000000000068989000000000000000000000000000000000000000000000000000000000000000000000000000000000000000000000000000000000PES00010000001000000000000000000000000000000000000000000                              000000000000000
201607180010000100000000000090103699                8000000000030500010084Banco Macro                   000000000079925000000000000000000000000000000000000000000000000000000000000000000000000000000000000000000000000000000000PES00010000001000000000000000000000000000000000000000000                              000000000000000
201607180010000100000000000090103713                8000000000030500010084Banco Macro                   000000000046590000000000000000000000000000000000000000000000000000000000000000000000000000000000000000000000000000000000PES00010000001000000000000000000000000000000000000000000                              000000000000000
201607180010000100000000000090103725                8000000000030500010084Banco Macro                   000000000305299000000000000000000000000000000000000000000000000000000000000000000000000000000000000000000000000000000000PES00010000001000000000000000000000000000000000000000000                              000000000000000
201607180010000100000000000090103726                8000000000030500010084Banco Macro                   000000000204042000000000000000000000000000000000000000000000000000000000000000000000000000000000000000000000000000000000PES00010000001000000000000000000000000000000000000000000                              000000000000000
201607180010000100000000000090103727                8000000000030500010084Banco Macro                   000000000023397000000000000000000000000000000000000000000000000000000000000000000000000000000000000000000000000000000000PES00010000001000000000000000000000000000000000000000000                              000000000000000
201607180010000100000000000090103728                8000000000030500010084Banco Macro                   000000000078795000000000000000000000000000000000000000000000000000000000000000000000000000000000000000000000000000000000PES00010000001000000000000000000000000000000000000000000                              000000000000000
201607180010000100000000000090103729                8000000000030500010084Banco Macro                   000000000085954000000000000000000000000000000000000000000000000000000000000000000000000000000000000000000000000000000000PES00010000001000000000000000000000000000000000000000000                              000000000000000
201607180010000100000000000090103738                8000000000030500010084Banco Macro                   000000000044502000000000000000000000000000000000000000000000000000000000000000000000000000000000000000000000000000000000PES00010000001000000000000000000000000000000000000000000                              000000000000000
201607180010000100000000000090103750                8000000000030500010084Banco Macro                   000000000040195000000000000000000000000000000000000000000000000000000000000000000000000000000000000000000000000000000000PES00010000001000000000000000000000000000000000000000000                              000000000000000
201607180010000100000000000090103751                8000000000030500010084Banco Macro                   000000000022699000000000000000000000000000000000000000000000000000000000000000000000000000000000000000000000000000000000PES00010000001000000000000000000000000000000000000000000                              000000000000000
201607180010000100000000000090103753                8000000000030500010084Banco Macro                   000000000089862000000000000000000000000000000000000000000000000000000000000000000000000000000000000000000000000000000000PES00010000001000000000000000000000000000000000000000000                              000000000000000
201607180010000100000000000090103774                8000000000030500010084Banco Macro                   000000000063856000000000000000000000000000000000000000000000000000000000000000000000000000000000000000000000000000000000PES00010000001000000000000000000000000000000000000000000                              000000000000000
201607180010000100000000000090103789                8000000000030500010084Banco Macro                   000000000800375000000000000000000000000000000000000000010658000000000000000000000000000000000000000000000000000000000000PES00010000001000000000000000000000000000000000000000000                              000000000000000
201607180010000100000000000090103792                8000000000030500010084Banco Macro                   000000000093928000000000000000000000000000000000000000000000000000000000000000000000000000000000000000000000000000000000PES00010000001000000000000000000000000000000000000000000                              000000000000000
201607180010000100000000000090103793                8000000000030500010084Banco Macro                   000000000159190000000000000000000000000000000000000000000000000000000000000000000000000000000000000000000000000000000000PES00010000001000000000000000000000000000000000000000000                              000000000000000
201607180010000100000000000090103794                8000000000030500010084Banco Macro                   000000000197025000000000000000000000000000000000000000000000000000000000000000000000000000000000000000000000000000000000PES00010000001000000000000000000000000000000000000000000                              000000000000000
201608160010000100000000000090105125                8000000000030500010084Banco Macro                   000000000032232000000000000000000000000000000000000000000000000000000000000000000000000000000000000000000000000000000000PES00010000001000000000000000000000000000000000000000000                              000000000000000
