201701240010000800000000000000021109                8000000000030707494944PRODUCTOS QUIMICOS SALTA SRL  000000000059298000000000000000000000000000000000000000000000000000000000000000000000000000000000000000000000000000000000PES00010000001000000000001029100000000000000000000000000                              000000000000000
201701240010001000000000000000010731                8000000000030700102005DISTRIB MILENIUM SRL          000000000087766000000000000000000000000000000000000000000000000000000000000000000000000000000000000000000000000000000000PES00010000001000000000001523200000000000000000000000000                              000000000000000
201701240010001000000000000000010716                8000000000030700102005DISTRIB MILENIUM SRL          000000001253818000000000000000000000000000000000000000000000000000000000000000000000000000000000000000000000000000000000PES00010000001000000000021760500000000000000000000000000                              000000000000000
201701230010000100000000000000000888                8000000000020276406206ROCCO ALEJANDRO DARIO         000000000075000000000000000000000000000000000000000000000000000000000000000000000000000000000000000000000000000000000000PES00010000001000000000001301700000000000000000000000000                              000000000000000
201701210010001000000000000000010638                8000000000030700102005DISTRIB MILENIUM SRL          000000000072001000000000000000000000000000000000000000000000000000000000000000000000000000000000000000000000000000000000PES00010000001000000000001249600000000000000000000000000                              000000000000000
201701210010001000000000000000010637                8000000000030700102005DISTRIB MILENIUM SRL          000000000375643000000000000000000000000000000000000000000000000000000000000000000000000000000000000000000000000000000000PES00010000001000000000006519400000000000000000000000000                              000000000000000
201701200010001000000000000000010530                8000000000030700102005DISTRIB MILENIUM SRL          000000001157932000000000000000000000000000000000000000000000000000000000000000000000000000000000000000000000000000000000PES00010000001000000000020096300000000000000000000000000                              000000000000000
201701210030001000000000000000000358                8000000000030700102005DISTRIB MILENIUM SRL          000000000020161000000000000000000000000000000000000000000000000000000000000000000000000000000000000000000000000000000000PES00010000001000000000000349900000000000000000000000000                              000000000000000
201701190010000300000000000000079514                8000000000030709797545M LLAO SRL                    000000000079497000000000000000000000000000000000000000000000000000000000000000000000000000000000000000000000000000000000PES00010000001000000000001379700000000000000000000000000                              000000000000000
201701170030001000000000000000000348                8000000000030700102005DISTRIB MILENIUM SRL          000000000020294000000000000000000000000000000000000000000000000000000000000000000000000000000000000000000000000000000000PES00010000001000000000000352200000000000000000000000000                              000000000000000
201701170030001000000000000000000346                8000000000030700102005DISTRIB MILENIUM SRL          000000000023729000000000000000000000000000000000000000000000000000000000000000000000000000000000000000000000000000000000PES00010000001000000000000411800000000000000000000000000                              000000000000000
201701170030001000000000000000000345                8000000000030700102005DISTRIB MILENIUM SRL          000000000025243000000000000000000000000000000000000000000000000000000000000000000000000000000000000000000000000000000000PES00010000001000000000000438100000000000000000000000000                              000000000000000
201701170010001000000000000000010392                8000000000030673770483DISTRIBUIDORA VIDT SRL        000000001038763000000000000000000000000000000000000000000000000000000000000000000000000000000000000000000000000000000000PES00010000001000000000018028100000000000000000000000000                              000000000000000
201701160010001000000000000000010391                8000000000030700102005DISTRIB MILENIUM SRL          000000001155499000000000000000000000000000000000000000000000000000000000000000000000000000000000000000000000000000000000PES00010000001000000000020054100000000000000000000000000                              000000000000000
201701140010001000000000000000010319                8000000000030700102005DISTRIB MILENIUM SRL          000000000418090000000000000000000000000000000000000000000000000000000000000000000000000000000000000000000000000000000000PES00010000001000000000007256100000000000000000000000000                              000000000000000
201701130010168800000000000000002081                8000000000030540088213GARBARINO SAIC E I            000000000448654000000000000000000000000000000000000000010855000000000000000000000000000000000000000000000000000000000000PES00010000001000000000007598200000000000000000000000000                              000000000000000
201701130010001000000000000000010252                8000000000030700102005DISTRIB MILENIUM SRL          000000000841487000000000000000000000000000000000000000000000000000000000000000000000000000000000000000000000000000000000PES00010000001000000000014604300000000000000000000000000                              000000000000000
201701090030001000000000000000000332                8000000000030700102005DISTRIB MILENIUM SRL          000000000018938000000000000000000000000000000000000000000000000000000000000000000000000000000000000000000000000000000000PES00010000001000000000000328700000000000000000000000000                              000000000000000
201701090010001000000000000000010066                8000000000030700102005DISTRIB MILENIUM SRL          000000001613640000000000000000000000000000000000000000000000000000000000000000000000000000000000000000000000000000000000PES00010000001000000000028005300000000000000000000000000                              000000000000000
201701060010003700000000000000013510                8000000000030673770483DISTRIBUIDORA VIDT SRL        000000000117986000000000000000000000000000000000000000000000000000000000000000000000000000000000000000000000000000000000PES00010000001000000000002047700000000000000000000000000                              000000000000000
201701060010001000000000000000009902                8000000000030700102005DISTRIB MILENIUM SRL          000000001174029000000000000000000000000000000000000000000000000000000000000000000000000000000000000000000000000000000000PES00010000001000000000020375700000000000000000000000000                              000000000000000
201701060010001000000000000000009937                8000000000030700102005DISTRIB MILENIUM SRL          000000000019002000000000000000000000000000000000000000000000000000000000000000000000000000000000000000000000000000000000PES00010000001000000000000329800000000000000000000000000                              000000000000000
201701050110000100000000000000000061                8000000000020324551655SANCHEZ CARLOS BENJAMIN       000000000118000000000000000000000000000000000000000000000000000000000000000000000000000000000000000000000000000000000000PES00010000000A00000000000000000000000000000000000000000                              000000000000000
201701040030001000000000000000000323                8000000000030700102005DISTRIB MILENIUM SRL          000000000025243000000000000000000000000000000000000000000000000000000000000000000000000000000000000000000000000000000000PES00010000001000000000000438100000000000000000000000000                              000000000000000
201701030010001000000000000000009784                8000000000030700102005DISTRIB MILENIUM SRL          000000000635920000000000000000000000000000000000000000000000000000000000000000000000000000000000000000000000000000000000PES00010000001000000000011036600000000000000000000000000                              000000000000000
201701030010001000000000000000009783                8000000000030700102005DISTRIB MILENIUM SRL          000000001340060000000000000000000000000000000000000000000000000000000000000000000000000000000000000000000000000000000000PES00010000001000000000023257200000000000000000000000000                              000000000000000
201612230030001000000000000000000305                8000000000030700102005DISTRIB MILENIUM SRL          000000000042550000000000000000000000000000000000000000000000000000000000000000000000000000000000000000000000000000000000PES00010000001000000000000738500000000000000000000000000                              000000000000000
201612230010001000000000000000009367                8000000000030700102005DISTRIB MILENIUM SRL          000000001361002000000000000000000000000000000000000000000000000000000000000000000000000000000000000000000000000000000000PES00010000001000000000023620700000000000000000000000000                              000000000000000
