201612120010000100000000000000000016000000000000000000168000000000030653431755EMPRESA DE SERVICIOS Y OBRAS S000000014987700000000000000000000000000000000000000000000000000000000000000000000000000000000000000000000000000000000000PES00010000001000000000000000000000000
201612130010000100000000000000000017000000000000000000178000000000033714324409ROJO CONSTRUCTORA SRL         000000003987700000000000000000000000000000000000000000000000000000000000000000000000000000000000000000000000000000000000PES00010000001000000000000000000000000
201612120010000200000000000000000003000000000000000000038000000000030653431755EMPRESA DE SERVICIOS Y OBRAS S000000014992015000000000000000000000000000000000000000000000000000000000000000000000000000000000000000000000000000000000PES00010000001000000000000000000000000
201612240010000200000000000000000004000000000000000000048000000000030710954875DEL ZAPLA SRL                 000000004526378000000000000000000000000000000000000000000000000000000000000000000000000000000000000000000000000000000000PES00010000001000000000000000000000000
