201610310010000100000000000020161001                8000000000030500008454BANCO SANTANDER RIO           000000000064130000000000000000000000000000000000000000000000000000000000000000000000000000000000000000000000000000000000PES00010000001000000000000000000000000000000000000000000                              000000000000000
201610310010000100000000000020161002                8000000000030500008454BANCO SANTANDER RIO           000000000001056000000000000000000000000000000000000000000000000000000000000000000000000000000000000000000000000000000000PES00010000001000000000000000000000000000000000000000000                              000000000000000
201611190010000800000000000000043466                8000000000030536158339GOMEZ ROCO Y CIA SRL          000000000019478000000000000000000000000000000000000000000000000000000000000000000000000563000000000000000000000000000000PES00010000001000000000000000000000000000000000000000000                              000000000000000
201611150010000400000000000000002081                8000000000027244530392ARAMENDI ANDREA PATRICIA      000000000042000000000000000000000000000000000000000000000000000000000000000000000000000000000000000000000000000000000000PES00010000001000000000000000000000000000000000000000000                              000000000000000
201611140010001500000000000000015604                8000000000030576374247AB CONSTRUCCIONES SRL         000000001518638000000000000000000000000000000000000000000000000000000000000000000000036741000000000000000000000000000000PES00010000001000000000000000000000000000000000000000000                              000000000000000
201611170010000700000000000000027960                8000000000030700067021TUBONOR SA                    000000000449168000000000000000000000000000000000000000000000000000000000000000000000012978000000000000000000000000000000PES00010000001000000000000000000000000000000000000000000                              000000000000000
201611170010000700000000000000027959                8000000000030700067021TUBONOR SA                    000000000859893000000000000000000000000000000000000000000000000000000000000000000000024844000000000000000000000000000000PES00010000001000000000000000000000000000000000000000000                              000000000000000
201611170010000700000000000000027958                8000000000030700067021TUBONOR SA                    000000000799067000000000000000000000000000000000000000000000000000000000000000000000023087000000000000000000000000000000PES00010000001000000000000000000000000000000000000000000                              000000000000000
201611170010000700000000000000027957                8000000000030700067021TUBONOR SA                    000000001658538000000000000000000000000000000000000000000000000000000000000000000000047919000000000000000000000000000000PES00010000001000000000000000000000000000000000000000000                              000000000000000
201611160010000300000000000000000939                8000000000030710537484IMPRENTA MAESTRO SH           000000000053134000000000000000000000000000000000000000000000000000000000000000000000001535000000000000000000000000000000PES00010000001000000000000000000000000000000000000000000                              000000000000000
201610110010000600000000000000000654                8000000000020072806078NOMI ABDENUR                  000000003774181000000000000000000000000000000000000000000000000000000000000000000000000000000000000000000000000000000000PES00010000001000000000000000000000000000000000000000000                              000000000000000
201611020010000600000000000000000745                8000000000020072806078NOMI ABDENUR                  000000000122001000000000000000000000000000000000000000000000000000000000000000000000000000000000000000000000000000000000PES00010000001000000000000000000000000000000000000000000                              000000000000000
201611110010000600000000000000000796                8000000000020072806078NOMI ABDENUR                  000000000076200000000000000000000000000000000000000000000000000000000000000000000000000000000000000000000000000000000000PES00010000001000000000000000000000000000000000000000000                              000000000000000
201610310010101600000000000000006772                8000000000030540088213GARBARINO SA                  000000000909901000000000000000000000000000000000000000000000000000000000000000000000000000000000000000000000000000000000PES00010000001000000000000000000000000000000000000000000                              000000000000000
201610040010164600000000000000003301                8000000000030540088213GARBARINO SA                  000000003330004000000000000000000000000000000000000000000000000000000000000000000000000000000000000000000000000000000000PES00010000001000000000000000000000000000000000000000000                              000000000000000
201611100010000400000000000000002065                8000000000027244530392ARAMENDI ANDREA PATRICIA      000000000104659000000000000000000000000000000000000000000000000000000000000000000000000000000000000000000000000000000000PES00010000001000000000000000000000000000000000000000000                              000000000000000
201611070010000300000000000000001942                8000000000030711139369OCAÑA GAS SRL                 000000000062000000000000000000000000000000000000000000000000000000000000000000000000000000000000000000000000000000000000PES00010000001000000000000000000000000000000000000000000                              000000000000000
201611020010000400000000000000003602                8000000000030681240493OIEL SRL                      000000000183496000000000000000000000000000000000000000000000000000000000000000000000005302000000000000000000000000000000PES00010000001000000000000000000000000000000000000000000                              000000000000000
201610250010000400000000000000003469                8000000000030681240493OIEL SRL                      000000000119498000000000000000000000000000000000000000000000000000000000000000000000003453000000000000000000000000000000PES00010000001000000000000000000000000000000000000000000                              000000000000000
201611090010000300000000000000008338                8000000000020164510906ATACO HECTOR BENITO           000000000025000000000000000000000000000000000000000000000000000000000000000000000000000000000000000000000000000000000000PES00010000001000000000000000000000000000000000000000000                              000000000000000
201611090010000100000000000000002400                8000000000030714953660LA Y P SRL                    000000000238999000000000000000000000000000000000000000000000000000000000000000000000000000000000000000000000000000000000PES00010000001000000000000000000000000000000000000000000                              000000000000000
201611160010000100000000000000002457                8000000000030714953660LA Y P SRL                    000000000100003000000000000000000000000000000000000000000000000000000000000000000000000000000000000000000000000000000000PES00010000001000000000000000000000000000000000000000000                              000000000000000
201610240010000100000000000000008832                8000000000033708066759LA NUEVA INDUSTRIAL SRL       000000003645322000000000000000000000000000000000000000000000000000000000000000000000105322000000000000000000000000000000PES00010000001000000000000000000000000000000000000000000                              000000000000000
201611020010000500000000000000005324                8000000000030552877752CORRALON CEDRORAN SRL         000000000144287000000000000000000000000000000000000000000000000000000000000000000000004169000000000000000000000000000000PES00010000001000000000000000000000000000000000000000000                              000000000000000
201610260010000100000000000000034364                8000000000030711804834EL MUNDO DE LAS HERRAMIENTAS S000000001197300000000000000000000000000000000000000000000000000000000000000000000000028967000000000000000000000000000000PES00010000001000000000000000000000000000000000000000000                              000000000000000
201611070010000200000000000000005371                8000000000020164510906ATACO HECTOR BENITO           000000000500000000000000000000000000000000000000000000000000000000000000000000000000000000000000000000000000000000000000PES00010000001000000000000000000000000000000000000000000                              000000000000000
201611170010000200000000000000005466                8000000000020164510906ATACO HECTOR BENITO           000000000012673000000000000000000000000000000000000000000000000000000000000000000000000000000000000000000000000000000000PES00010000001000000000000000000000000000000000000000000                              000000000000000
201611180010000200000000000000005474                8000000000020164510906ATACO HECTOR BENITO           000000000057700000000000000000000000000000000000000000000000000000000000000000000000000000000000000000000000000000000000PES00010000001000000000000000000000000000000000000000000                              000000000000000
201611080010002700000000000000010332                8000000000030557717400FERTEL SA                     000000000024001000000000000000000000000000000000000000000000000000000000000000000000000693000000000000000000000000000000PES00010000001000000000000000000000000000000000000000000                              000000000000000
201611010010002700000000000000010203                8000000000030557717400FERTEL SA                     000000000105497000000000000000000000000000000000000000000000000000000000000000000000003048000000000000000000000000000000PES00010000001000000000000000000000000000000000000000000                              000000000000000
201611100010002700000000000000010382                8000000000030557717400FERTEL SA                     000000000017000000000000000000000000000000000000000000000000000000000000000000000000000491000000000000000000000000000000PES00010000001000000000000000000000000000000000000000000                              000000000000000
201611040010002700000000000000010273                8000000000030557717400FERTEL SA                     000000000033999000000000000000000000000000000000000000000000000000000000000000000000000982000000000000000000000000000000PES00010000001000000000000000000000000000000000000000000                              000000000000000
201611030010003200000000000000004710                8000000000030557717400FERTEL SA                     000000000009998000000000000000000000000000000000000000000000000000000000000000000000000289000000000000000000000000000000PES00010000001000000000000000000000000000000000000000000                              000000000000000
201611030010003200000000000000004709                8000000000030557717400FERTEL SA                     000000000032501000000000000000000000000000000000000000000000000000000000000000000000000939000000000000000000000000000000PES00010000001000000000000000000000000000000000000000000                              000000000000000
201611040010002700000000000000010265                8000000000030557717400FERTEL SA                     000000000085999000000000000000000000000000000000000000000000000000000000000000000000002485000000000000000000000000000000PES00010000001000000000000000000000000000000000000000000                              000000000000000
201611080010002700000000000000010334                8000000000030557717400FERTEL SA                     000000000097500000000000000000000000000000000000000000000000000000000000000000000000002817000000000000000000000000000000PES00010000001000000000000000000000000000000000000000000                              000000000000000
201610260010002700000000000000010038                8000000000030557717400FERTEL SA                     000000001660140000000000000000000000000000000000000000000000000000000000000000000000047966000000000000000000000000000000PES00010000001000000000000000000000000000000000000000000                              000000000000000
201611020010002700000000000000010224                8000000000030557717400FERTEL SA                     000000000055501000000000000000000000000000000000000000000000000000000000000000000000001603000000000000000000000000000000PES00010000001000000000000000000000000000000000000000000                              000000000000000
201611190010002700000000000000010546                8000000000030557717400FERTEL SA                     000000000062501000000000000000000000000000000000000000000000000000000000000000000000001806000000000000000000000000000000PES00010000001000000000000000000000000000000000000000000                              000000000000000
201611170010002700000000000000010508                8000000000030557717400FERTEL SA                     000000000200505000000000000000000000000000000000000000000000000000000000000000000000005793000000000000000000000000000000PES00010000001000000000000000000000000000000000000000000                              000000000000000
201611120010002700000000000000010420                8000000000030557717400FERTEL SA                     000000000138999000000000000000000000000000000000000000000000000000000000000000000000004016000000000000000000000000000000PES00010000001000000000000000000000000000000000000000000                              000000000000000
201611120010002700000000000000010429                8000000000030557717400FERTEL SA                     000000000128500000000000000000000000000000000000000000000000000000000000000000000000003713000000000000000000000000000000PES00010000001000000000000000000000000000000000000000000                              000000000000000
201611140010002700000000000000010440                8000000000030557717400FERTEL SA                     000000000048000000000000000000000000000000000000000000000000000000000000000000000000001387000000000000000000000000000000PES00010000001000000000000000000000000000000000000000000                              000000000000000
201611090010000100000000000000002054                8000000000030715135392HOSSE SRL                     000000000115029000000000026007000000000000000000000000000000000000000000000000000000000000000000000000000000000000000000PES00010000001000000000000000000000000000000000000000000                              000000000000000
201611050010002100000000000000030681                8000000000033611226689JACARANDA SA                  000000000111002000000000025723000000000000000000000000000000000000000000000000000000000000000000000000000000000000000000PES00010000001000000000000000000000000000000000000000000                              000000000000000
201611170010000600000000000000003227                8000000000030615143193AG CHIBAN SRL                 000000000325260000000000000000000000000000000000000000000000000000000000000000000000000000000000000000000000000000000000PES00010000001000000000000000000000000000000000000000000                              000000000000000
201611280010001700000000000000007862                8000000000030707746188MAGNETO SRL                   000000000117010000000000026847000000000000000000000000000000000000000000000000000000000000000000000000000000000000000000PES00010000001000000000000000000000000000000000000000000                              000000000000000
201611190010358400000000000000025207                8000000000030678774495OPERADORA DE ESTACIONES DE SER000000000110041000000000025567000000000000000000000000000000000000000000000000000000000000000000000000000000000000000000PES00010000001000000000000000000000000000000000000000000                              000000000000000
