201708210010000100000000000000000039000000000000000000398000000000033714324409ROJO CONSTRUCTORA SRL         000000025037302000000000000000000000000000000000000000000000000000000000000000000000000000000000000000000000000000000000PES00010000001000000000000000000000000
201708220010000100000000000000000040000000000000000000408000000000030653431755EMPRESA DE SERVICIOS Y OBRAS S000000021299012000000000000000000000000000000000000000000000000000000000000000000000000000000000000000000000000000000000PES00010000001000000000000000000000000
201708250010000100000000000000000041000000000000000000418000000000027323658272BERTERO MARIA JOSE            000000002000000000000000000000000000000000000000000000000000000000000000000000000000000000000000000000000000000000000000PES00010000001000000000000000000000000
