201706010010000200000000000000000006000000000000000000068000000000020267936421CORO EDUARDO ADRIAN           000000000011200000000000000000000000000000000000000000000000000000000000000000000000000000000000000000000000000000000000PES00010000001000000000000000000000000
201706090060000200000000000000000014000000000000000000149600000000000031733149MARTINEZ MARIA CRISTINA       000000002000000000000000000000000000000000000000000000000000000000000000000000000000000000000000000000000000000000000000PES00010000001000000000000000000000000
201706100060000200000000000000000015000000000000000000159600000000000020358356CORNEJO SERGIO ALBERTO        000000000204500000000000000000000000000000000000000000000000000000000000000000000000000000000000000000000000000000000000PES00010000001000000000000000000000000
201706100060000200000000000000000016000000000000000000169600000000000012236704CASTILLO ASUNCION             000000000306456000000000000000000000000000000000000000000000000000000000000000000000000000000000000000000000000000000000PES00010000001000000000000000000000000
201706100060000200000000000000000017000000000000000000179600000000000094357997GUTIERREZ ORELLANA CINTHYA MAR000000000054384000000000000000000000000000000000000000000000000000000000000000000000000000000000000000000000000000000000PES00010000001000000000000000000000000
201706100060000200000000000000000018000000000000000000189600000000000012236704CASTILLO ASUNCION             000000000214530000000000000000000000000000000000000000000000000000000000000000000000000000000000000000000000000000000000PES00010000001000000000000000000000000
201706120060000200000000000000000019000000000000000000199600000000000027941468AMADOR MARTIN GASTON          000000000184600000000000000000000000000000000000000000000000000000000000000000000000000000000000000000000000000000000000PES00010000001000000000000000000000000
201706150060000200000000000000000020000000000000000000209600000000000094357997GUTIERREZ ORELLANA CINTHYA MAR000000000120750000000000000000000000000000000000000000000000000000000000000000000000000000000000000000000000000000000000PES00010000001000000000000000000000000
201706150060000200000000000000000021000000000000000000219600000000000027941468AMADOR MARTIN GASTON          000000000116300000000000000000000000000000000000000000000000000000000000000000000000000000000000000000000000000000000000PES00010000001000000000000000000000000
201706150060000200000000000000000022000000000000000000229600000000000094357997GUTIERREZ ORELLANA CINTHYA MAR000000000344110000000000000000000000000000000000000000000000000000000000000000000000000000000000000000000000000000000000PES00010000001000000000000000000000000
201706150060000200000000000000000023000000000000000000239600000000000094357997GUTIERREZ ORELLANA CINTHYA MAR000000000092843000000000000000000000000000000000000000000000000000000000000000000000000000000000000000000000000000000000PES00010000001000000000000000000000000
201706150060000200000000000000000024000000000000000000249600000000000035932370JUAREZ OBANDO CECILIA VERONICA000000000012800000000000000000000000000000000000000000000000000000000000000000000000000000000000000000000000000000000000PES00010000001000000000000000000000000
201706150060000200000000000000000025000000000000000000259600000000000035932370JUAREZ OBANDO CECILIA VERONICA000000000040545000000000000000000000000000000000000000000000000000000000000000000000000000000000000000000000000000000000PES00010000001000000000000000000000000
201706150060000200000000000000000026000000000000000000269600000000000013701930PINTO AZUCENA MYRIAN          000000001052463000000000000000000000000000000000000000000000000000000000000000000000000000000000000000000000000000000000PES00010000001000000000000000000000000
201706220060000200000000000000000027000000000000000000279600000000000094357997GUTIERREZ ORELLANA CINTHYA MAR000000000070941000000000000000000000000000000000000000000000000000000000000000000000000000000000000000000000000000000000PES00010000001000000000000000000000000
201706220060000200000000000000000028000000000000000000289600000000000027941468AMADOR MARTIN GASTON          000000000194449000000000000000000000000000000000000000000000000000000000000000000000000000000000000000000000000000000000PES00010000001000000000000000000000000
