201706010010000100000000000000000027000000000000000000278000000000033714324409ROJO CONSTRUCTORA SRL         000000003158100000000000000000000000000000000000000000000000000000000000000000000000000000000000000000000000000000000000PES00010000001000000000000000000000000
201706090010000100000000000000000028000000000000000000288000000000033714324409ROJO CONSTRUCTORA SRL         000000005000326000000000000000000000000000000000000000000000000000000000000000000000000000000000000000000000000000000000PES00010000001000000000000000000000000
201706140010000100000000000000000029000000000000000000298000000000030653431755EMPRESA DE SERVICIOS Y OBRAS S000000012000296000000000000000000000000000000000000000000000000000000000000000000000000000000000000000000000000000000000PES00010000001000000000000000000000000
201706270010000100000000000000000030000000000000000000308000000000030653431755EMPRESA DE SERVICIOS Y OBRAS S000000004000393000000000000000000000000000000000000000000000000000000000000000000000000000000000000000000000000000000000PES00010000001000000000000000000000000
