201606030060001000000000000000000151000000000000000001519600000000000025673950RAMON MARIANO OSCAR           000000000780000000000000000000000000000000000000000000000000000000000000000000000000000000000000000000000000000000000000PES00010000001000000000000000020160603
201606060060001000000000000000000152000000000000000001529600000000000020707643ALDERETE SILVANA VALERIA      000000000865900000000000865900000000000000000000000000000000000000000000000000000000000000000000000000000000000000000000PES00010000001N00000000000000020160606
201606080060001000000000000000000153000000000000000001539600000000000034184513DIAZ TORRES DIEGO RAUL        000000000630000000000000000000000000000000000000000000000000000000000000000000000000000000000000000000000000000000000000PES00010000001000000000000000020160608
201606080060001000000000000000000154000000000000000001549600000000000011116584LOZADA CARLOS RICARDO         000000000570000000000000000000000000000000000000000000000000000000000000000000000000000000000000000000000000000000000000PES00010000001000000000000000020160608
201606100060001000000000000000000155000000000000000001558000000000020083872323SALAZAR NICOLAS NAPOLEON      000000000876000000000000000000000000000000000000000000000000000000000000000000000000000000000000000000000000000000000000PES00010000001000000000000000020160610
201606100060001000000000000000000156000000000000000001568000000000020085541936ARDAYA DONAR                  000000000408000000000000000000000000000000000000000000000000000000000000000000000000000000000000000000000000000000000000PES00010000001000000000000000020160610
201606150060001000000000000000000157000000000000000001578000000000027044528369ZENI IRIS VICTORIA            000000005251000000000000000000000000000000000000000000000000000000000000000000000000000000000000000000000000000000000000PES00010000001000000000000000020160615
201606150060001000000000000000000158000000000000000001589600000000000012115927AGUIRRE ROBERTO RENE          000000000465000000000000000000000000000000000000000000000000000000000000000000000000000000000000000000000000000000000000PES00010000001000000000000000020160615
201606210060001000000000000000000159000000000000000001599600000000000025090286GUZMAN JORGE LUIS             000000000990000000000000000000000000000000000000000000000000000000000000000000000000000000000000000000000000000000000000PES00010000001000000000000000020160621
201606210060001000000000000000000160000000000000000001609600000000000022304490CANAVIRE ELIDA                000000000480000000000000000000000000000000000000000000000000000000000000000000000000000000000000000000000000000000000000PES00010000001000000000000000020160621
201606220010001000000000000000000018000000000000000000188000000000030580988713PUSSETTO SALTA S A            000000000121000000000000000000000000000000000000000000000000000000000000000000000000000000000000000000000000000000000000PES00010000001000000000000000000000000
201606220060001000000000000000000161000000000000000001619600000000000014865328RUIZ JUAN RAUL                000000000777300000000000000000000000000000000000000000000000000000000000000000000000000000000000000000000000000000000000PES00010000001000000000000000020160622
201606230060001000000000000000000162000000000000000001629600000000000034190917SACHETTI JOSE EDUARDO         000000000417000000000000000000000000000000000000000000000000000000000000000000000000000000000000000000000000000000000000PES00010000001000000000000000020160623
201606230060001000000000000000000163000000000000000001639600000000000029801200GUILLERMON DIEGO HORACIO      000000000435000000000000000000000000000000000000000000000000000000000000000000000000000000000000000000000000000000000000PES00010000001000000000000000020160623
201606240060001000000000000000000164000000000000000001649600000000000021542431TAPIA HECTOR RODOLFO          000000000750000000000000000000000000000000000000000000000000000000000000000000000000000000000000000000000000000000000000PES00010000001000000000000000020160624
201606240060001000000000000000000165000000000000000001659600000000000013926500PATRICIO CLAUDIA MARCELA      000000000660000000000000000000000000000000000000000000000000000000000000000000000000000000000000000000000000000000000000PES00010000001000000000000000020160624
201606240080001000000000000000000005000000000000000000059600000000000021542431TAPIA HECTOR RODOLFO          000000000750000000000000000000000000000000000000000000000000000000000000000000000000000000000000000000000000000000000000PES00010000001000000000000000020160624
201606280010001000000000000000000019000000000000000000198000000000020121115701SPINOZZI JUAN CARLOS MARCELO  000000001978700000000000000000000000000000000000000000000000000000000000000000000000000000000000000000000000000000000000PES00010000001000000000000000020160628
201606280060001000000000000000000166000000000000000001668000000000020369347390GOMEZ EMILIANO DANIEL         000000000402000000000000000000000000000000000000000000000000000000000000000000000000000000000000000000000000000000000000PES00010000001000000000000000020160628
201606280060001000000000000000000167000000000000000001679600000000000008387818RUEDA NESTOR DOMINGO          000000000495000000000000000000000000000000000000000000000000000000000000000000000000000000000000000000000000000000000000PES00010000001000000000000000020160628
201606300010001000000000000000000020000000000000000000208000000000020138441327FEDRE DANIEL ELDO             000000001199473000000000000000000000000000000000000000000000000000000000000000000000000000000000000000000000000000000000PES00010000001000000000000000020160630
