201707030010000400000000000000000146000000000000000001468000000000030523200751MEDIX I C S A                 000000004652952000000000000000000000000000000000000000000000000000000000000000000000000000000000000000000000000000000000PES00010000001000000000000000020170703
201707050010000400000000000000000147000000000000000001478000000000030618783185CENTRO DE SERVICIOS HOSPITALAR000000001534845000000000000000000000000000000000000000000000000000000000000000000000000000000000000000000000000000000000PES00010000001000000000000000020170705
201707060010000400000000000000000148000000000000000001488000000000030656041990FUNDACION SANIDAD EJERCITO ARG000000000173030000000000000000000000000000000000000000000000000000000000000000000000000000000000000000000000000000000000PES00010000001000000000000000000000000
201707100010000400000000000000000149000000000000000001498000000000030681318123S E N Y P   SRL               000000000228690000000000000000000000000000000000000000000000000000000000000000000000000000000000000000000000000000000000PES00010000001000000000000000000000000
201707100010000400000000000000000150000000000000000001508000000000030673110823MEDICAL CARE S R L            000000000989383000000000000000000000000000000000000000000000000000000000000000000000000000000000000000000000000000000000PES00010000001000000000000000000000000
201707110010000400000000000000000151000000000000000001518000000000030546090317MATERNIDAD PRIVADA SALTA SOCIE000000000467315000000000000000000000000000000000000000000000000000000000000000000000000000000000000000000000000000000000PES00010000002000000000000000000000000
201707120010000400000000000000000152000000000000000001528000000000030546144263INSTITUTO MEDICO DEL NORTE S A000000005961186000000000000000000000000000000000000000000000000000000000000000000000000000000000000000000000000000000000PES00010000001000000000000000000000000
201707120010000400000000000000000153000000000000000001538000000000030546143348CLINICA SAN ANTONIO S.A.      000000000326700000000000000000000000000000000000000000000000000000000000000000000000000000000000000000000000000000000000PES00010000001000000000000000000000000
201707130010000400000000000000000154000000000000000001548000000000030709681350ASSISTMEDIC  S.R.L.           000000000605000000000000000000000000000000000000000000000000000000000000000000000000000000000000000000000000000000000000PES00010000001000000000000000020170714
201707170010000400000000000000000155000000000000000001558000000000030606566529JAEJ S.A.                     000000004380442000000000000000000000000000000000000000000000000000000000000000000000000000000000000000000000000000000000PES00010000001000000000000000020170717
201707250030000400000000000000000004000000000000000000048000000000030709681350ASSISTMEDIC  S.R.L.           000000000605000000000000000000000000000000000000000000000000000000000000000000000000000000000000000000000000000000000000PES00010000001000000000000000020170725
201707250010000400000000000000000156000000000000000001568000000000030709681350ASSISTMEDIC  S.R.L.           000000000561440000000000000000000000000000000000000000000000000000000000000000000000000000000000000000000000000000000000PES00010000001000000000000000020170725
201707280010000400000000000000000157000000000000000001578000000000020238712123CADILLO RENE ANDRES           000000000121000000000000000000000000000000000000000000000000000000000000000000000000000000000000000000000000000000000000PES00010000001000000000000000000000000
