201608220010000500000000000000000035000000000000000000358000000000030707745580PLATAFORMA 10 S.A.            000000000049426000000000000000000000000000000000000000000000000000000000000000000000000000000000000000000000000000000000PES00010000001000000000000000000000000
201608290010000500000000000000000036000000000000000000368000000000020279743947SOLA ALSINA PABLO ALEJANDRO   000000001500000000000000000000000000000000000000000001500000000000000000000000000000000000000000000000000000000000000000PES00010000001E00000000000000020160829
201608290010000500000000000000000037000000000000000000378000000000030546221314LA VELOZ DEL NORTE S A        000000002000000000000000000000000000000000000000000002000000000000000000000000000000000000000000000000000000000000000000PES00010000001E00000000000000020160829
201608290010000500000000000000000038000000000000000000388000000000020260283422GIMENEZ PABLO MATIAS          000000000500000000000000000000000000000000000000000000500000000000000000000000000000000000000000000000000000000000000000PES00010000001E00000000000000020160829
201608290010000500000000000000000039000000000000000000398000000000020280861740JUAREZ CESCA FERNANDO         000000000500000000000000000000000000000000000000000000500000000000000000000000000000000000000000000000000000000000000000PES00010000001E00000000000000020160829
201608290010000500000000000000000040000000000000000000408000000000027100052399SANSONE GRACIELA JOSEFINA     000000000300000000000000000000000000000000000000000000300000000000000000000000000000000000000000000000000000000000000000PES00010000001E00000000000000020160829
