201609070010000100000000000000000009000000000000000000098000000000030709258296CYGNUS SRL                    000000002135015000000000000000000000000000000000000000000000000000000000000000000000000000000000000000000000000000000000PES00010000001000000000000000000000000
201609220010000100000000000000000010000000000000000000108000000000020216338821GARKUS CRISTIAN FEDERICO      000000004982500000000000000000000000000000000000000000000000000000000000000000000000000000000000000000000000000000000000PES00010000001000000000000000020160922
201609290010000100000000000000000011000000000000000000118000000000020216338821GARKUS CRISTIAN FEDERICO      000000002500000000000000000000000000000000000000000000000000000000000000000000000000000000000000000000000000000000000000PES00010000001000000000000000000000000
201609300010000100000000000000000012000000000000000000128000000000030653431755EMPRESA DE SERVICIOS Y OBRAS S000000029968000000000000000000000000000000000000000000000000000000000000000000000000000000000000000000000000000000000000PES00010000001000000000000000000000000
