201610210010000500000000000000000052                8000000000030710551460SURY SA                       000000000996700000000000000000000000000000000000000000000000000000000000000000000000000000000000000000000000000000000000PES00010000001000000000000000000000000000000000000000000                              000000000000000
201610220010001000000000000000000027                8000000000020133922181PARIETTI CIRO HUGO            000000001997900000000000000000000000000000000000000000000000000000000000000000000000000000000000000000000000000000000000PES00010000001000000000000000000000000000000000000000000                              000000000000000
201610250010000300000000000000000140                8000000000020279743947SOLA ALSINA PABLO ALEJANDRO   000000000784600000000000000000000000000000000000000000000000000000000000000000000000000000000000000000000000000000000000PES00010000001000000000000000000000000000000000000000000                              000000000000000
201610250010000300000000000000000142                8000000000020279743947SOLA ALSINA PABLO ALEJANDRO   000000000256000000000000000000000000000000000000000000000000000000000000000000000000000000000000000000000000000000000000PES00010000001000000000000000000000000000000000000000000                              000000000000000
201610210010000200000000000000000001                8000000000030715227068MEGACOR SRL                   000000023228769000000000000000000000000000000000000000000000000000000000000000000000000000000000000000000000000000000000PES00010000001000000000000000000000000000000000000000000                              000000000000000
201610240010000100000000000000000013                8000000000030715227068MEGACOR SRL                   000000006767651000000000000000000000000000000000000000000000000000000000000000000000000000000000000000000000000000000000PES00010000001000000000000000000000000000000000000000000                              000000000000000
201610180010000100000000000000024362                8000000000030500059490COMPAÑÍA GENERAL DE SEGUROS SA000000000200000000000000003727000000000000000000000000000000000000000000000000000000000000000000000000000000000000000162PES00010000001000000000000000000000000000000000000000000                              000000000000000
201610140010000300000000000000150831                8000000000030518919349ASEGURADORES DE CAUCIONES SA  000000000519752000000000010108000000000000000000000000000000000000000000000000000000000000000000000000000000000000000000PES00010000001000000000000000000000000000000000000000000                              000000000000000
201610140010000300000000000000150830                8000000000030518919349ASEGURADORES DE CAUCIONES SA  000000000266047000000000005175000000000000000000000000000000000000000000000000000000000000000000000000000000000000000000PES00010000001000000000000000000000000000000000000000000                              000000000000000
201610140010000300000000000000150829                8000000000030518919349ASEGURADORES DE CAUCIONES SA  000000000519752000000000010108000000000000000000000000000000000000000000000000000000000000000000000000000000000000000000PES00010000001000000000000000000000000000000000000000000                              000000000000000
201610020010000400000000000000569727                8000000000030518919349ASEGURADORES DE CAUCIONES SA  000000000260645000000000005069000000000000000000000000000000000000000000000000000000000000000000000000000000000000000000PES00010000001000000000000000000000000000000000000000000                              000000000000000
201610020010000400000000000000569726                8000000000030518919349ASEGURADORES DE CAUCIONES SA  000000000043190000000000000840000000000000000000000000000000000000000000000000000000000000000000000000000000000000000000PES00010000001000000000000000000000000000000000000000000                              000000000000000
201610170010004300000000000000021393                8000000000030708725346EMPRENDIMIENTO METALURGICO IND000000000544484000000000002687000000000000000000000000000000000000000000000000000000000000000000000000000000000000000000PES00010000001000000000000000000000000000000000000000000                              000000000000000
201610190010004300000000000000021457                8000000000030708725346EMPRENDIMIENTO METALURGICO IND000000000982755000000000004849000000000000000000000000000000000000000000000000000000000000000000000000000000000000000000PES00010000001000000000000000000000000000000000000000000                              000000000000000
201610190010004300000000000000021473                8000000000030708725346EMPRENDIMIENTO METALURGICO IND000000001253700000000000006186000000000000000000000000000000000000000000000000000000000000000000000000000000000000000000PES00010000001000000000000000000000000000000000000000000                              000000000000000
201610180010004300000000000000021431                8000000000030708725346EMPRENDIMIENTO METALURGICO IND000000010327142000000000050956000000000000000000000000000000000000000000000000000000000000000000000000000000000000000000PES00010000001000000000000000000000000000000000000000000                              000000000000000
201610170010004300000000000000021394                8000000000030708725346EMPRENDIMIENTO METALURGICO IND000000000282165000000000001392000000000000000000000000000000000000000000000000000000000000000000000000000000000000000000PES00010000001000000000000000000000000000000000000000000                              000000000000000
201610170010011900000000000000012650                8000000000030559715081SUPERMAT SA                   000000007625544000000000000000000000000000000000000000000000000000000000000000000000220321000000000000000000000000000000PES00010000001000000000000000000000000000000000000000000                              000000000000000
201610120010000200000000000000020767                8000000000030711662886CORRALON SAN LORENZO SRL      000000000099499000000000000000000000000000000000000000000000000000000000000000000000000000000000000000000000000000000000PES00010000001000000000000000000000000000000000000000000                              000000000000000
201610120010000500000000000000040749                8000000000030581209076ANTONIO B ATENOR E HIJOS SRL  000000000019776000000000000000000000000000000000000000000000000000000000000000000000000571000000000000000000000000000000PES00010000001000000000000000000000000000000000000000000                              000000000000000
201610110010000400000000000000000097                8000000000020081776254FERNANDEZ EUSEBIO             000000000528971000000000000000000000000000000000000000000000000000000000000000000000006477000000000000000000000000000000PES00010000001000000000000000000000000000000000000000000                              000000000000000
201610030010000200000000000000000190                8000000000027928071664RIOS TERAN CORALY MARLENE     000000000035506000000000000000000000000000000000000000000000000000000000000000000000000000000000000000000000000000000000PES00010000001000000000000000000000000000000000000000000                              000000000000000
201610030010000200000000000000000191                8000000000027928071664RIOS TERAN CORALY MARLENE     000000000014000000000000000000000000000000000000000000000000000000000000000000000000000000000000000000000000000000000000PES00010000001000000000000000000000000000000000000000000                              000000000000000
201610170010000300000000000000000773                8000000000030710537484IMPRENTA MAESTRO SH           000000000021111000000000000000000000000000000000000000000000000000000000000000000000000610000000000000000000000000000000PES00010000001000000000000000000000000000000000000000000                              000000000000000
201610060010000300000000000000000720                8000000000030710537484IMPRENTA MAESTRO SH           000000000027288000000000000000000000000000000000000000000000000000000000000000000000000788000000000000000000000000000000PES00010000001000000000000000000000000000000000000000000                              000000000000000
201605030010001200000000000000000644                8000000000030681330301ELECTRICIDAD RD SRL           000000000347677000000000000000000000000000000000000000000000000000000000000000000000000000000000000000000000000000000000PES00010000001000000000000000000000000000000000000000000                              000000000000000
201605050010001200000000000000000657                8000000000030681330301ELECTRICIDAD RD SRL           000000000010408000000000000000000000000000000000000000000000000000000000000000000000000000000000000000000000000000000000PES00010000001000000000000000000000000000000000000000000                              000000000000000
201606240010001200000000000000000869                8000000000030681330301ELECTRICIDAD RD SRL           000000000125110000000000000000000000000000000000000000000000000000000000000000000000000000000000000000000000000000000000PES00010000001000000000000000000000000000000000000000000                              000000000000000
201610210010001200000000000000037550                8000000000030681330301ELECTRICIDAD RD SRL           000000000119719000000000000000000000000000000000000000000000000000000000000000000000000000000000000000000000000000000000PES00010000001000000000000000000000000000000000000000000                              000000000000000
201610070010001300000000000000006512                8000000000030681233748PINTURERIA AMERICA SRL        000000000013775000000000000000000000000000000000000000000000000000000000000000000000000000000000000000000000000000000000PES00010000001000000000000000000000000000000000000000000                              000000000000000
201608290010000800000000000000018269                8000000000030638303015IMPLEMENTOS INDUSTRIALES SRL  000000000024518000000000000000000000000000000000000000000000000000000000000000000000000000000000000000000000000000000000PES00010000001000000000000000000000000000000000000000000                              000000000000000
201610240010001900000000000000002384                8000000000030708463600DENTAL SHOP SRL               000000009990002000000000000000000000000000000000000000000000000000000000000000000000000000000000000000000000000000000000PES00010000001000000000000000000000000000000000000000000                              000000000000000
201610240010000700000000000000026437                8000000000030700067021TUBONOR SA                    000000000186253000000000000000000000000000000000000000000000000000000000000000000000002730000000000000000000000000000000PES00010000001000000000000000000000000000000000000000000                              000000000000000
201610210010168800000000000000001703                8000000000030540088213GARBARINO SA                  000000001791150000000000000000000000000000000000000000043334000000000000000000000000000000000000000000000000000000000000PES00010000001000000000000000000000000000000000000000000                              000000000000000
201610050010000100000000000000000173                8000000000020226850970DAVID SUAREZ                  000000036300000000000000000000000000000000000000000000000000000000000000000000000000000000000000000000000000000000000000PES00010000001000000000000000000000000000000000000000000                              000000000000000
201609010010001000000000000000028999                8000000000030594692744LA CONSTRUCTORA SA            000000000075320000000000018927000000000000000000000000000000000000000000000000000000000000000000000000000000000000000000PES00010000001000000000000000000000000000000000000000000                              000000000000000
201609010010001200000000000000042311                8000000000030594692744LA CONSTRUCTORA SA            000000000049999000000000012564000000000000000000000000000000000000000000000000000000000000000000000000000000000000000000PES00010000001000000000000000000000000000000000000000000                              000000000000000
201609040010001000000000000000029083                8000000000030594692744LA CONSTRUCTORA SA            000000000026000000000000006557000000000000000000000000000000000000000000000000000000000000000000000000000000000000000000PES00010000001000000000000000000000000000000000000000000                              000000000000000
201609060010001000000000000000029134                8000000000030594692744LA CONSTRUCTORA SA            000000000143001000000000028435000000000000000000000000000000000000000000000000000000000000000000000000000000000000000000PES00010000001000000000000000000000000000000000000000000                              000000000000000
201609120010001200000000000000042667                8000000000030594692744LA CONSTRUCTORA SA            000000000075320000000000018780000000000000000000000000000000000000000000000000000000000000000000000000000000000000000000PES00010000001000000000000000000000000000000000000000000                              000000000000000
201609170010001200000000000000042824                8000000000030594692744LA CONSTRUCTORA SA            000000000030001000000000007480000000000000000000000000000000000000000000000000000000000000000000000000000000000000000000PES00010000001000000000000000000000000000000000000000000                              000000000000000
201609210010001200000000000000042913                8000000000030594692744LA CONSTRUCTORA SA            000000000383299000000000082382000000000000000000000000000000000000000000000000000000000000000000000000000000000000000000PES00010000001000000000000000000000000000000000000000000                              000000000000000
201609210010001200000000000000042949                8000000000030594692744LA CONSTRUCTORA SA            000000000075320000000000018780000000000000000000000000000000000000000000000000000000000000000000000000000000000000000000PES00010000001000000000000000000000000000000000000000000                              000000000000000
201609230010001200000000000000043020                8000000000030594692744LA CONSTRUCTORA SA            000000000140002000000000034907000000000000000000000000000000000000000000000000000000000000000000000000000000000000000000PES00010000001000000000000000000000000000000000000000000                              000000000000000
201609230010001200000000000000043019                8000000000030594692744LA CONSTRUCTORA SA            000000000017200000000000001367000000000000000000000000000000000000000000000000000000000000000000000000000000000000000000PES00010000001000000000000000000000000000000000000000000                              000000000000000
201609290010001500000000000000000495                8000000000030594692744LA CONSTRUCTORA SA            000000000085000000000000021266000000000000000000000000000000000000000000000000000000000000000000000000000000000000000000PES00010000001000000000000000000000000000000000000000000                              000000000000000
201609300010001200000000000000043174                8000000000030594692744LA CONSTRUCTORA SA            000000000075320000000000018780000000000000000000000000000000000000000000000000000000000000000000000000000000000000000000PES00010000001000000000000000000000000000000000000000000                              000000000000000
201610020010134800000000000000001271                8000000000030612929455LIBERTAD SA                   000000000027324000000000000541000000000000000000000000000000000000000000000000000000000000000000000000000000000000000000PES00010000002000000000000000000000000000000000000000000                              000000000000000
201610020010134800000000000011111271                8000000000030612929455LIBERTAD SA                   000000000034882000000000000000000000000000000000000000000000000000000000000000000000000000000000000000000000000000000000PES00010000001000000000000000000000000000000000000000000                              000000000000000
201609240010135700000000000000002600                8000000000030612929455LIBERTAD SA                   000000000030234000000000000000000000000000000000000000000000000000000000000000000000000000000000000000000000000000000000PES00010000001000000000000000000000000000000000000000000                              000000000000000
201608280010136100000000000000003246                8000000000030612929455LIBERTAD SA                   000000000045783000000000000432000000000000000000000000000000000000000000000000000000000000000000000000000000000000000000PES00010000002000000000000000000000000000000000000000000                              000000000000000
201608280010136100000000011111113246                8000000000030612929455LIBERTAD SA                   000000000028685000000000000000000000000000000000000000000000000000000000000000000000000000000000000000000000000000000000PES00010000001000000000000000000000000000000000000000000                              000000000000000
201610100010582100000000000000000356                8000000000030708772964JUMBO RETAIL ARGENTINA SA     000000000024366000000000000496000000000000000000000000000000000000000000000000000000000000000000000000000000000000000000PES00010000001000000000000000000000000000000000000000000                              000000000000000
201610070010582400000000000000001361                8000000000030708772964JUMBO RETAIL ARGENTINA SA     000000000024789000000000000000000000000000000000000000000000000000000000000000000000000000000000000000000000000000000000PES00010000002000000000000000000000000000000000000000000                              000000000000000
201610070010582400000000001111111361                8000000000030708772964JUMBO RETAIL ARGENTINA SA     000000000001358000000000000000000000000000000000000000000000000000000000000000000000000000000000000000000000000000000000PES00010000001000000000000000000000000000000000000000000                              000000000000000
201609040010000300000000000000004964                8000000000030710662262SEGA GROUP SRL                000000000116700000000000000000000000000000000000000000000000000000000000000000000000000000000000000000000000000000000000PES00010000001000000000000000000000000000000000000000000                              000000000000000
201610070010000300000000000000005006                8000000000030710662262SEGA GROUP SRL                000000000293700000000000007000000000000000000000000000000000000000000000000000000000000000000000000000000000000000000000PES00010000001000000000000000000000000000000000000000000                              000000000000000
201610160010000800000000000000008667                8000000000030700061600VIEJO JACK SRL                000000000240200000000000020400000000000000000000000000000000000000000000000000000000000000000000000000000000000000000000PES00010000001000000000000000000000000000000000000000000                              000000000000000
201610120010000300000000000000077457                8000000000030709797545M LLAO SRL                    000000000018500000000000000000000000000000000000000000000000000000000000000000000000000000000000000000000000000000000000PES00010000001000000000000000000000000000000000000000000                              000000000000000
201610090010000100000000000000001887                8000000000030710465319DETUNOR SRL                   000000000501696000000000006499000000000000000000000000000000000000000000000000000000000000000000000000000000000000000000PES00010000001000000000000000000000000000000000000000000                              000000000000000
201610210010000100000000000001986127                8000000000030711020264DIRECCION GENERAL DE RENTAS   000000002081456000000000000000000000000000000000000000000000000000000000000000000000000000000000000000000000000000000000PES00010000001000000000000000000000000000000000000000000                              000000000000000
201609300010000100000000000020160901                8000000000030500010084Banco Macro                   000000000058080000000000000000000000000000000000000000000000000000000000000000000000000000000000000000000000000000000000PES00010000001000000000000000000000000000000000000000000                              000000000000000
201609300010000100000000000020160902                8000000000030500010084Banco Macro                   000000000052030000000000000000000000000000000000000000000000000000000000000000000000000000000000000000000000000000000000PES00010000001000000000000000000000000000000000000000000                              000000000000000
201609300010000100000000000002016090                8000000000030500010084Banco Macro                   000000000020194000000000000000000000000000000000000000000000000000000000000000000000000000000000000000000000000000000000PES00010000001000000000000000000000000000000000000000000                              000000000000000
201609300010000100000000000020160904                8000000000030500001735Banco Galicia                 000000000087362000000000000000000000000000000000000000000000000000000000000000000000000000000000000000000000000000000000PES00010000001000000000000000000000000000000000000000000                              000000000000000
201609300010000100000000000020160905                8000000000030500001735Banco Galicia                 000000000020483000000000000000000000000000000000000000000000000000000000000000000000000000000000000000000000000000000000PES00010000001000000000000000000000000000000000000000000                              000000000000000
201610280010001000000000000000000014                8000000000030714778648CASAL ABERTURAS SRL           000000000364999000000000000000000000000000000000000000000000000000000000000000000000000000000000000000000000000000000000PES00010000001000000000000000000000000000000000000000000                              000000000000000
201610280010000100000000000000000015                8000000000030715227068MEGACOR SRL                   000000008089055000000000000000000000000000000000000000000000000000000000000000000000000000000000000000000000000000000000PES00010000001000000000000000000000000000000000000000000                              000000000000000
201610280010000700000000000000001531                8000000000020110815159SANSONE ENRIQUE DANIEL        000000041460721000000000000000000000000000000000000000000000000000000000000000000000000000000000000000000000000000000000PES00010000001000000000000000000000000000000000000000000                              000000000000000
201610270010002000000000000000061430                8000000000033611226689JACARANDA SA                  000000000017400000000000001230000000000000000000000000000000000000000000000000000000000000000000000000000000000000000000PES00010000001000000000000000000000000000000000000000000                              000000000000000
201610290010187300000000000000015211                8000000000030590360763CENCOSUD SA                   000000000018360000000000000000000000000000000000000000000000000000000000000000000000000000000000000000000000000000000000PES00010000001000000000000000000000000000000000000000000                              000000000000000
201610260010000400000000000000006926                8000000000030711269831CORRALON CHACABUCO SRL        000000000378743000000000000000000000000000000000000000000000000000000000000000000000010943000000000000000000000000000000PES00010000001000000000000000000000000000000000000000000                              000000000000000
201610310010004300000000000000021776                8000000000030708725346EMPRENDIMIENTO METALURGICO IND000000000982465000000000004848000000000000000000000000000000000000000000000000000000000000000000000000000000000000000000PES00010000001000000000000000000000000000000000000000000                              000000000000000
201610260010000100000000000000000323                8000000000020282332303LUCAS MARTIN ROLANDI          000000000074900000000000000000000000000000000000000000000000000000000000000000000000000000000000000000000000000000000000PES00010000001000000000000000000000000000000000000000000                              000000000000000
201610290010618300000000000000001614                8000000000030643922157VIA BARILOCHE SA              000000000043000000000000000000000000000000000000000000000000000000000000000000000000000000000000000000000000000000000000PES00010000001000000000000000000000000000000000000000000                              000000000000000
