201705180010010100000000000000404565                8000000000030690633635EDESA SA                      000000000635306000000000025624000000000000000000000000000000000000000000000000000000016805000000000000000000000000000000PES00010000001000000000000000000000000000000000000000000                              000000000000000
201705240010010100000000000000408261                8000000000030690633635EDESA SA                      000000000073160000000000024926000000000000000000000000000000000000000000000000000000000321000000000000000000000000000000PES00010000001000000000000000000000000000000000000000000                              000000000000000
201705190010010100000000000000404798                8000000000030690633635EDESA SA                      000000000080066000000000058291000000000000000000000000000000000000000000000000000000000163000000000000000000000000000000PES00010000001000000000000000000000000000000000000000000                              000000000000000
201705220010010100000000000000405539                8000000000030690633635EDESA SA                      000000000182563000000000082494000000000000000000000000000000000000000000000000000000002758000000000000000000000000000000PES00010000002000000000000000000000000000000000000000000                              000000000000000
201705220010010100000000011111405539                8000000000030690633635EDESA SA                      000000000000160000000000000000000000000000000000000000000000000000000000000000000000000000000000000000000000000000000000PES00010000001000000000000000000000000000000000000000000                              000000000000000
201705220010010100000000000000405547                8000000000030690633635EDESA SA                      000000000124541000000000071692000000000000000000000000000000000000000000000000000000001457000000000000000000000000000000PES00010000002000000000000000000000000000000000000000000                              000000000000000
201705220010010100000000011111405547                8000000000030690633635EDESA SA                      000000000000160000000000000000000000000000000000000000000000000000000000000000000000000000000000000000000000000000000000PES00010000001000000000000000000000000000000000000000000                              000000000000000
201705120010810200000000000016648912                8000000000030639453738TELECOM ARGENTINA SA          000000000001008000000000000000000000000000000000000000000000000000000000000000000000000000000000000000000000000000000000PES00010000001000000000000000000000000000000000000000000                              000000000000000
201705120010810300000000000016616579                8000000000030639453738TELECOM ARGENTINA SA          000000000049700000000000000000000000000000000000000000000000000000000000000000000000000000000000000000000000000000000000PES00010000001000000000000000000000000000000000000000000                              000000000000000
201705110010209300000000000007200107                8000000000030678814357TELEFONICA MOVILES ARGENTINA S000000000001376000000000000011000000000000000000000000000000000000000000000000000000000000000000000000000000000000000000PES00010000001000000000000000000000000000000000000000000                              000000000000000
201704240010003100000000000000009340                8000000000030710204671AUTOPERFORANTES SA            000000001870273000000000000000000000000000000000000000000000000000000000000000000000000000000000000000000000000000000000PES00010000001000000000000000000000000000000000000000000                              000000000000000
201704240010003100000000000000009384                8000000000030710204671AUTOPERFORANTES SA            000000004367979000000000000000000000000000000000000000000000000000000000000000000000000000000000000000000000000000000000PES00010000001000000000000000000000000000000000000000000                              000000000000000
201704250010003100000000000000009416                8000000000030710204671AUTOPERFORANTES SA            000000006087752000000000000000000000000000000000000000000000000000000000000000000000000000000000000000000000000000000000PES00010000001000000000000000000000000000000000000000000                              000000000000000
201705040030003100000000000000002146                8000000000030710204671AUTOPERFORANTES SA            000000001045573000000000000000000000000000000000000000000000000000000000000000000000000000000000000000000000000000000000PES00010000001000000000000000000000000000000000000000000                              000000000000000
201704110010001100000000000000077428                8000000000030639201232AD BARBIERI SA                000000057091447000000000000000000000000000000000000000000000000000000000000000000000000000000000000000000000000000000000PES00010000001000000000000000000000000000000000000000000                              000000000000000
201704270010000500000000000000002879                8000000000030586321389VICENTE ALBORS SA             000000006722131000000000000000000000000000000000000000000000000000000000000000000000000000000000000000000000000000000000PES00010000001000000000000000000000000000000000000000000                              000000000000000
201705250030002100000000000000035982                8000000000030552816168DURLOCK SA                    000000000084157000000000000000000000000000000000000000000000000000000000000000000000000000000000000000000000000000000000PES00010000001000000000000000000000000000000000000000000                              000000000000000
201705250030002100000000000000035981                8000000000030552816168DURLOCK SA                    000000000806041000000000000000000000000000000000000000000000000000000000000000000000000000000000000000000000000000000000PES00010000001000000000000000000000000000000000000000000                              000000000000000
201705030010007400000000000000056014                8000000000030503037226EMAPI SA                      000000006780961000000000000000000000000000000000000000000000000000000000000000000000000000000000000000000000000000000000PES00010000001000000000000000000000000000000000000000000                              000000000000000
201705030010007400000000000000055952                8000000000030503037226EMAPI SA                      000000001256982000000000000000000000000000000000000000000000000000000000000000000000000000000000000000000000000000000000PES00010000001000000000000000000000000000000000000000000                              000000000000000
201704270030000400000000000000011655                8000000000030688372085ELECTROMAYO SA                000000000181373000000000000000000000000000000000000000000000000000000000000000000000000000000000000000000000000000000000PES00010000001000000000000000000000000000000000000000000                              000000000000000
201703310030000400000000000000011481                8000000000030688372085ELECTROMAYO SA                000000000336362000000000000000000000000000000000000000000000000000000000000000000000000000000000000000000000000000000000PES00010000001000000000000000000000000000000000000000000                              000000000000000
201705300030001200000000000000021498                8000000000030500971041ETERNIT ARGENTINA SA          000000000272755000000000000000000000000000000000000000000000000000000000000000000000000000000000000000000000000000000000PES00010000001000000000000000000000000000000000000000000                              000000000000000
201704260010001200000000000000083819                8000000000030500971041ETERNIT ARGENTINA SA          000000006818870000000000000000000000000000000000000000160318000000000000000000000000192382000000000000000000000000000000PES00010000001000000000000000000000000000000000000000000                              000000000000000
201706070010000500000000000000000861                8000000000030708780649ESTACION DE SERVICIOS EL TRIUN000000000100005000000000017577000000000000000000000000000000000000000000000000000000000000000000000000000000000000000000PES00010000001000000000000000000000000000000000000000000                              000000000000000
201706120010000500000000000000000942                8000000000030708780649ESTACION DE SERVICIOS EL TRIUN000000000100005000000000017577000000000000000000000000000000000000000000000000000000000000000000000000000000000000000000PES00010000001000000000000000000000000000000000000000000                              000000000000000
201706190010000500000000000000001062                8000000000030708780649ESTACION DE SERVICIOS EL TRIUN000000000100005000000000017577000000000000000000000000000000000000000000000000000000000000000000000000000000000000000000PES00010000001000000000000000000000000000000000000000000                              000000000000000
201704280010000900000000000000355554                8000000000030707297154FERRETERA GENERAL PAZ SRL     000000000306724000000000000000000000000000000000000000000000000000000000000000000000000000000000000000000000000000000000PES00010000001000000000000000000000000000000000000000000                              000000000000000
201706150010000300000000000000030780                8000000000033680021819GRAZIOLI SRL                  000000000035429000000000000000000000000000000000000000000000000000000000000000000000000000000000000000000000000000000000PES00010000001000000000000000000000000000000000000000000                              000000000000000
201706110010026400000000000000118796                8000000000030501111127HOLCIM SA                     000000056176457000000000000000000000000000000000000001354415000000000000000000000000000000000000000194133000000000000000PES00010000001000000000000000000000000000000000000000000                              000000000000000
201703270010002300000000000000022032                8000000000030535896379IPS SAICYF                    000000000500131000000000000000000000000000000000000000000000000000000000000000000000000000000000000000000000000000000000PES00010000001000000000000000000000000000000000000000000                              000000000000000
201705230010050100000000000000148006                8000000000030500530851LOMA NEGRA CIASA              000000003346010000000000000000000000000000000000000000080952000000000000000000000000000000000000000000000000000000000000PES00010000001000000000000000000000000000000000000000000                              000000000000000
201705230010050100000000000000148005                8000000000030500530851LOMA NEGRA CIASA              000000094875379000000000000000000000000000000000000002295377000000000000000000000000000000000000000000000000000000000000PES00010000001000000000000000000000000000000000000000000                              000000000000000
201705310010050100000000000000148564                8000000000030500530851LOMA NEGRA CIASA              000000174392688000000000000000000000000000000000000004219186000000000000000000000000000000000000000000000000000000000000PES00010000001000000000000000000000000000000000000000000                              000000000000000
201706080010050100000000000000148924                8000000000030500530851LOMA NEGRA CIASA              000000034185110000000000000000000000000000000000000000827060000000000000000000000000000000000000000000000000000000000000PES00010000001000000000000000000000000000000000000000000                              000000000000000
201706150010050100000000000000149252                8000000000030500530851LOMA NEGRA CIASA              000000008217770000000000000000000000000000000000000000198817000000000000000000000000000000000000000000000000000000000000PES00010000001000000000000000000000000000000000000000000                              000000000000000
201706090030050100000000000000064109                8000000000030500530851LOMA NEGRA CIASA              000000017604249000000000000000000000000000000000000000000000000000000000000000000000000000000000000000000000000000000000PES00010000001000000000000000000000000000000000000000000                              000000000000000
201706140030050100000000000000064255                8000000000030500530851LOMA NEGRA CIASA              000000001098744000000000000000000000000000000000000000000000000000000000000000000000000000000000000000000000000000000000PES00010000001000000000000000000000000000000000000000000                              000000000000000
201705080010000500000000000000001313                8000000000030607769415NOMASGOT SRL                  000000001522422000000000000000000000000000000000000000000000000000000000000000000000000000000000000000000000000000000000PES00010000001000000000000000000000000000000000000000000                              000000000000000
201705200010000300000000000000000118                8000000000023262936449ORTIZ VICTOR HUGO             000000004091644000000000000000000000000000000000000000000000000000000000000000000000000000000000000000000000000000000000PES00010000001000000000000000000000000000000000000000000                              000000000000000
201706050010000300000000000000000122                8000000000023262936449ORTIZ VICTOR HUGO             000000003990988000000000000000000000000000000000000000000000000000000000000000000000000000000000000000000000000000000000PES00010000001000000000000000000000000000000000000000000                              000000000000000
201704240010002300000000000000029624                8000000000030556095597PAREXKLAUKOL SA               000000001490266000000000000000000000000000000000000000035038000000000000000000000000042045000000000000000000000000000000PES00010000001000000000000000000000000000000000000000000                              000000000000000
201704240010002300000000000000029623                8000000000030556095597PAREXKLAUKOL SA               000000000135187000000000000000000000000000000000000000003178000000000000000000000000003814000000000000000000000000000000PES00010000001000000000000000000000000000000000000000000                              000000000000000
201705300010006900000000000000012637                8000000000030644685906SALTA PLAST POLIETILENOS SRL  000000000026566000000000000000000000000000000000000000000000000000000000000000000000000768000000000000000000000000000000PES00010000001000000000000000000000000000000000000000000                              000000000000000
201704260010000200000000000000001084                8000000000030709676101SOPORTECK DE BEATRIZ VILLAGRA,000000000441251000000000000000000000000000000000000000000000000000000000000000000000000000000000000000000000000000000000PES00010000001000000000000000000000000000000000000000000                              000000000000000
201704260010000200000000000000001085                8000000000030709676101SOPORTECK DE BEATRIZ VILLAGRA,000000003460628000000000000000000000000000000000000000000000000000000000000000000000000000000000000000000000000000000000PES00010000001000000000000000000000000000000000000000000                              000000000000000
201704260010000200000000000000001086                8000000000030709676101SOPORTECK DE BEATRIZ VILLAGRA,000000001931791000000000000000000000000000000000000000000000000000000000000000000000000000000000000000000000000000000000PES00010000001000000000000000000000000000000000000000000                              000000000000000
201704040010001100000000000000011984                8000000000030563516573SUCESORES DE ROBERTO SAMAN SRL000000000092203000000000000000000000000000000000000000000000000000000000000000000000002303000000000000000000000000000000PES00010000001000000000000000000000000000000000000000000                              000000000000000
201704270010001100000000000000012076                8000000000030563516573SUCESORES DE ROBERTO SAMAN SRL000000000092203000000000000000000000000000000000000000000000000000000000000000000000002303000000000000000000000000000000PES00010000001000000000000000000000000000000000000000000                              000000000000000
201705100010001100000000000000012127                8000000000030563516573SUCESORES DE ROBERTO SAMAN SRL000000000164304000000000000000000000000000000000000000000000000000000000000000000000004104000000000000000000000000000000PES00010000001000000000000000000000000000000000000000000                              000000000000000
201706190010003900000000000000012878                8000000000030543749024BOLLINI SA                    000000000100000000000000000000000000000000000000000000000000000000000000000000000000002889000000000000000000000000000000PES00010000001000000000000000000000000000000000000000000                              000000000000000
201704070010000200000000000000000317                8000000000030714084425TRANS VEL SRL                 000000000870717000000000000000000000000000000000000000000000000000000000000000000000000000000000000000000000000000000000PES00010000001000000000000000000000000000000000000000000                              000000000000000
201705190010102200000000000006493324                8000000000030573652084CABLEVISION SA                000000000083000000000000000000000000000000000000000000000000000000000000000000000000000000000000000000000000000000000000PES00010000001000000000000000000000000000000000000000000                              000000000000000
201705190010102200000000000006494010                8000000000030573652084CABLEVISION SA                000000000128246000000000003103000000000000000000000000000000000000000000000000000000000000000000000000000000000000000000PES00010000001000000000000000000000000000000000000000000                              000000000000000
201705190010102200000000000006494399                8000000000030573652084CABLEVISION SA                000000000083000000000000000000000000000000000000000000000000000000000000000000000000000000000000000000000000000000000000PES00010000001000000000000000000000000000000000000000000                              000000000000000
201706190010003500000000000000033494                8000000000030623573318HIERRONORT SALTA SRL          000000001090013000000000000000000000000000000000000000000000000000000000000000000000031342000000000005224000000000000000PES00010000001000000000000000000000000000000000000000000                              000000000000000
201705310010551200000000000002759733                8000000000030678186446TELECOM PERSONAL SA           000000000134810000000000001020000000000000000000000000000000000000000000000000000000000000000000000000000000000000004250PES00010000001000000000000000000000000000000000000000000                              000000000000000
201705310010551200000000000002757262                8000000000030678186446TELECOM PERSONAL SA           000000000238725000000000001854000000000000000000000000000000000000000000000000000000000000000000000000000000000000007515PES00010000002000000000000000000000000000000000000000000                              000000000000000
201705310010551200000000011112757262                8000000000030678186446TELECOM PERSONAL SA           000000000006035000000000000000000000000000000000000000000000000000000000000000000000000000000000000000000000000000000000PES00010000001000000000000000000000000000000000000000000                              000000000000000
201705260010000600000000000000013552                8000000000033521817599CERAMICA SALTE헤 SA           000000000034051000000000000000000000000000000000000000000000000000000000000000000000000984000000000000000000000000000000PES00010000001000000000000000000000000000000000000000000                              000000000000000
201705180010000600000000000000013306                8000000000033521817599CERAMICA SALTE헤 SA           000000000444608000000000000000000000000000000000000000000000000000000000000000000000012846000000000000000000000000000000PES00010000001000000000000000000000000000000000000000000                              000000000000000
201705050010000600000000000000012877                8000000000033521817599CERAMICA SALTE헤 SA           000000000722622000000000000000000000000000000000000000000000000000000000000000000000020878000000000000000000000000000000PES00010000001000000000000000000000000000000000000000000                              000000000000000
201705050010000600000000000000012876                8000000000033521817599CERAMICA SALTE헤 SA           000000000279624000000000000000000000000000000000000000000000000000000000000000000000008079000000000000000000000000000000PES00010000001000000000000000000000000000000000000000000                              000000000000000
201704250010000600000000000000012591                8000000000033521817599CERAMICA SALTE헤 SA           000000000091653000000000000000000000000000000000000000000000000000000000000000000000002648000000000000000000000000000000PES00010000001000000000000000000000000000000000000000000                              000000000000000
201704200010000600000000000000012460                8000000000033521817599CERAMICA SALTE헤 SA           000000000523646000000000000000000000000000000000000000000000000000000000000000000000015129000000000000000000000000000000PES00010000001000000000000000000000000000000000000000000                              000000000000000
201706060010001200000000000000084910                8000000000030500971041ETERNIT ARGENTINA SA          000000000171003000000000000000000000000000000000000000004020000000000000000000000000004825000000000000000000000000000000PES00010000001000000000000000000000000000000000000000000                              000000000000000
201705310010000400000000000000014032                8000000000030609285261FIJACIONES PY SA              000000001149137000000000000000000000000000000000000000000000000000000000000000000000000000000000000000000000000000000000PES00010000001000000000000000000000000000000000000000000                              000000000000000
201705300010000300000000000000030671                8000000000033680021819GRAZIOLI SRL                  000000001588969000000000000000000000000000000000000000000000000000000000000000000000000000000000000000000000000000000000PES00010000001000000000000000000000000000000000000000000                              000000000000000
201705310010000300000000000000030681                8000000000033680021819GRAZIOLI SRL                  000000000278256000000000000000000000000000000000000000000000000000000000000000000000000000000000000000000000000000000000PES00010000001000000000000000000000000000000000000000000                              000000000000000
201706160010000300000000000000030787                8000000000033680021819GRAZIOLI SRL                  000000000074415000000000000000000000000000000000000000000000000000000000000000000000000000000000000000000000000000000000PES00010000001000000000000000000000000000000000000000000                              000000000000000
201706120010002300000000000000025140                8000000000030535896379IPS SAICYF                    000000000612345000000000000000000000000000000000000000000000000000000000000000000000000000000000000000000000000000000000PES00010000001000000000000000000000000000000000000000000                              000000000000000
201706120010001300000000000000161192                8000000000030535896379IPS SAICYF                    000000000786553000000000000000000000000000000000000000000000000000000000000000000000000000000000000000000000000000000000PES00010000001000000000000000000000000000000000000000000                              000000000000000
201706060010000200000000000000001168                8000000000030709676101SOPORTECK DE BEATRIZ VILLAGRA,000000000638139000000000000000000000000000000000000000000000000000000000000000000000000000000000000000000000000000000000PES00010000001000000000000000000000000000000000000000000                              000000000000000
201705170010000100000000000000001998                8000000000030715082337SANITEC SRL                   000000001410203000000000000000000000000000000000000000000000000000000000000000000000000000000000000000000000000000000000PES00010000001000000000000000000000000000000000000000000                              000000000000000
201705130010000400000000000000000269                8000000000020202474226VELAZQUEZ PABLO EDMUNDO       000000000237646000000000000000000000000000000000000000000000000000000000000000000000000000000000000000000000000000000000PES00010000001000000000000000000000000000000000000000000                              000000000000000
201706080010002000000000000000012744                8000000000030505374866PRODUCTOS VENIER SA           000000001784687000000000000000000000000000000000000000000000000000000000000000000000044581000000000000000000000000000000PES00010000001000000000000000000000000000000000000000000                              000000000000000
