201612310010000100000000000020161201                8000000000030500008454BANCO SANTANDER RIO           000000000033880000000000000000000000000000000000000000000000000000000000000000000000000000000000000000000000000000000000PES00010000001000000000000000000000000000000000000000000                              000000000000000
201611230010000200000000000000000012                8000000000020239843396NOCETI DIEGO                  000000002178000000000000000000000000000000000000000000000000000000000000000000000000000000000000000000000000000000000000PES00010000001000000000000000000000000000000000000000000                              000000000000000
201612120010000200000000000000000014                8000000000020239843396NOCETI DIEGO                  000000002504700000000000000000000000000000000000000000000000000000000000000000000000000000000000000000000000000000000000PES00010000001000000000000000000000000000000000000000000                              000000000000000
201701020010000200000000000000000016                8000000000020239843396NOCETI DIEGO                  000000002504700000000000000000000000000000000000000000000000000000000000000000000000000000000000000000000000000000000000PES00010000001000000000000000000000000000000000000000000                              000000000000000
201612280010000400000000000000008602                8000000000020104513825HECTOR H MAESTRO              000000000036233000000000000000000000000000000000000000000000000000000000000000000000000000000000000000000000000000000000PES00010000001000000000000000000000000000000000000000000                              000000000000000
201612280010000400000000000000008603                8000000000020104513825HECTOR H MAESTRO              000000000265761000000000000000000000000000000000000000000000000000000000000000000000000000000000000000000000000000000000PES00010000001000000000000000000000000000000000000000000                              000000000000000
201612270010000500000000000000037059                8000000000030707174389DERGAM SRL                    000000000024000000000000000000000000000000000000000000000000000000000000000000000000000581000000000000000000000000000000PES00010000001000000000000000000000000000000000000000000                              000000000000000
201612290030010600000000000000001867                8000000000030559715081SUPERMAT SA                   000000008566518000000000000000000000000000000000000000000000000000000000000000000000156387000000000000000000000000000000PES00010000001000000000000000000000000000000000000000000                              000000000000000
201612120010000300000000000000000624                8000000000030714796727SIGMMA SA                     000000000058080000000000000000000000000000000000000000000000000000000000000000000000000000000000000000000000000000000000PES00010000001000000000000000000000000000000000000000000                              000000000000000
201701060010000300000000000000000719                8000000000030714796727SIGMMA SA                     000000000058080000000000000000000000000000000000000000000000000000000000000000000000000000000000000000000000000000000000PES00010000001000000000000000000000000000000000000000000                              000000000000000
201612230030001500000000000000003285                8000000000030576374247AB CONSTRUCCIONES SRL         000000004526402000000000000000000000000000000000000000000000000000000000000000000000109510000000000000000000000000000000PES00010000001000000000000000000000000000000000000000000                              000000000000000
201612230010001500000000000000016862                8000000000030576374247AB CONSTRUCCIONES SRL         000000001414357000000000000000000000000000000000000000000000000000000000000000000000034218000000000000000000000000000000PES00010000001000000000000000000000000000000000000000000                              000000000000000
201612230010001500000000000000016874                8000000000030576374247AB CONSTRUCCIONES SRL         000000004526404000000000000000000000000000000000000000000000000000000000000000000000109510000000000000000000000000000000PES00010000001000000000000000000000000000000000000000000                              000000000000000
201701040030001500000000000000003324                8000000000030576374247AB CONSTRUCCIONES SRL         000000001041005000000000000000000000000000000000000000000000000000000000000000000000025186000000000000000000000000000000PES00010000001000000000000000000000000000000000000000000                              000000000000000
201701040030001500000000000000003325                8000000000030576374247AB CONSTRUCCIONES SRL         000000000795893000000000000000000000000000000000000000000000000000000000000000000000019255000000000000000000000000000000PES00010000001000000000000000000000000000000000000000000                              000000000000000
201701040010001500000000000000017118                8000000000030576374247AB CONSTRUCCIONES SRL         000000001040996000000000000000000000000000000000000000000000000000000000000000000000025185000000000000000000000000000000PES00010000001000000000000000000000000000000000000000000                              000000000000000
201701040010001500000000000000017119                8000000000030576374247AB CONSTRUCCIONES SRL         000000000792276000000000000000000000000000000000000000000000000000000000000000000000019168000000000000000000000000000000PES00010000001000000000000000000000000000000000000000000                              000000000000000
201701180010001500000000000000017503                8000000000030576374247AB CONSTRUCCIONES SRL         000000004604226000000000000000000000000000000000000000000000000000000000000000000000111393000000000000000000000000000000PES00010000001000000000000000000000000000000000000000000                              000000000000000
201701180010001500000000000000017504                8000000000030576374247AB CONSTRUCCIONES SRL         000000001403821000000000000000000000000000000000000000000000000000000000000000000000033963000000000000000000000000000000PES00010000001000000000000000000000000000000000000000000                              000000000000000
201701180010001500000000000000017506                8000000000030576374247AB CONSTRUCCIONES SRL         000000000508832000000000000000000000000000000000000000000000000000000000000000000000012310000000000000000000000000000000PES00010000001000000000000000000000000000000000000000000                              000000000000000
201701180010001500000000000000017507                8000000000030576374247AB CONSTRUCCIONES SRL         000000000556347000000000000000000000000000000000000000000000000000000000000000000000013460000000000000000000000000000000PES00010000001000000000000000000000000000000000000000000                              000000000000000
201701090010001700000000000000010063                8000000000030707746188MAGNETO SRL                   000000000223029000000000050349000000000000000000000000000000000000000000000000000000000000000000000000000000000000000000PES00010000001000000000000000000000000000000000000000000                              000000000000000
201701130010000600000000000000091110                8000000000030710388411NUEVA ESTACION DE SERVICIOS BO000000000113007000000000023659000000000000000000000000000000000000000000000000000000000000000000000000000000000000000000PES00010000001000000000000000000000000000000000000000000                              000000000000000
