201805121950000300000000000000000018000000000000000000188000000000050000004267Sebastian Preis               000000000974463000000000000000000000000000000000000000000000000000000000000000000000000000000000000000000000000000000000PES00010000001T00000000000000000000000
201805131950000300000000000000000019000000000000000000198000000000050000004127Laurent Chometon              000000000363636000000000000000000000000000000000000000000000000000000000000000000000000000000000000000000000000000000000PES00010000001T00000000000000000000000
201805251950000300000000000000000020000000000000000000208000000000050000002124Ilan Gluck                    000000000193719000000000000000000000000000000000000000000000000000000000000000000000000000000000000000000000000000000000PES00010000001T00000000000000000000000
201805261950000300000000000000000021000000000000000000218000000000050000002124Isabelle Riviere              000000000194298000000000000000000000000000000000000000000000000000000000000000000000000000000000000000000000000000000000PES00010000001T00000000000000000000000
201805291950000300000000000000000022000000000000000000228000000000050000004127Benoit Stefani                000000000170000000000000000000000000000000000000000000000000000000000000000000000000000000000000000000000000000000000000PES00010000001T00000000000000000000000
201805301950000300000000000000000023000000000000000000238000000000050000004054Tatjana Wolf                  000000000196033000000000000000000000000000000000000000000000000000000000000000000000000000000000000000000000000000000000PES00010000001T00000000000000000000000
