201704010820000200000000000000013570000000000000000135709900000000000000000000CONSUMIDOR FINAL              000000000004500000000000000000000000000000000000000000000000000000000000000000000000000000000000000000000000000000000000PES00010000001000000000000000000000000
201704010820000200000000000000013571000000000000000135719900000000000000000000CONSUMIDOR FINAL              000000000004000000000000000000000000000000000000000000000000000000000000000000000000000000000000000000000000000000000000PES00010000001000000000000000000000000
201704010820000200000000000000013572000000000000000135729900000000000000000000CONSUMIDOR FINAL              000000000004000000000000000000000000000000000000000000000000000000000000000000000000000000000000000000000000000000000000PES00010000001000000000000000000000000
201704010820000200000000000000013573000000000000000135739900000000000000000000CONSUMIDOR FINAL              000000000003000000000000000000000000000000000000000000000000000000000000000000000000000000000000000000000000000000000000PES00010000001000000000000000000000000
201704010820000200000000000000013574000000000000000135749900000000000000000000CONSUMIDOR FINAL              000000000006000000000000000000000000000000000000000000000000000000000000000000000000000000000000000000000000000000000000PES00010000001000000000000000000000000
201704010820000200000000000000013575000000000000000135759900000000000000000000CONSUMIDOR FINAL              000000000006000000000000000000000000000000000000000000000000000000000000000000000000000000000000000000000000000000000000PES00010000001000000000000000000000000
201704010820000200000000000000013576000000000000000135769900000000000000000000CONSUMIDOR FINAL              000000000004500000000000000000000000000000000000000000000000000000000000000000000000000000000000000000000000000000000000PES00010000001000000000000000000000000
201704010820000200000000000000013577000000000000000135779900000000000000000000CONSUMIDOR FINAL              000000000005500000000000000000000000000000000000000000000000000000000000000000000000000000000000000000000000000000000000PES00010000001000000000000000000000000
201704010820000200000000000000013578000000000000000135789900000000000000000000CONSUMIDOR FINAL              000000000003500000000000000000000000000000000000000000000000000000000000000000000000000000000000000000000000000000000000PES00010000001000000000000000000000000
201704010820000200000000000000013579000000000000000135799900000000000000000000CONSUMIDOR FINAL              000000000003000000000000000000000000000000000000000000000000000000000000000000000000000000000000000000000000000000000000PES00010000001000000000000000000000000
201704010820000200000000000000013580000000000000000135809900000000000000000000CONSUMIDOR FINAL              000000000011000000000000000000000000000000000000000000000000000000000000000000000000000000000000000000000000000000000000PES00010000001000000000000000000000000
201704010820000200000000000000013581000000000000000135819900000000000000000000CONSUMIDOR FINAL              000000000004000000000000000000000000000000000000000000000000000000000000000000000000000000000000000000000000000000000000PES00010000001000000000000000000000000
201704010820000200000000000000013582000000000000000135829900000000000000000000CONSUMIDOR FINAL              000000000005500000000000000000000000000000000000000000000000000000000000000000000000000000000000000000000000000000000000PES00010000001000000000000000000000000
201704010820000200000000000000013583000000000000000135839900000000000000000000CONSUMIDOR FINAL              000000000013000000000000000000000000000000000000000000000000000000000000000000000000000000000000000000000000000000000000PES00010000001000000000000000000000000
201704010820000200000000000000013584000000000000000135849900000000000000000000CONSUMIDOR FINAL              000000000008500000000000000000000000000000000000000000000000000000000000000000000000000000000000000000000000000000000000PES00010000001000000000000000000000000
201704010820000200000000000000013585000000000000000135859900000000000000000000CONSUMIDOR FINAL              000000000005500000000000000000000000000000000000000000000000000000000000000000000000000000000000000000000000000000000000PES00010000001000000000000000000000000
201704010820000200000000000000013586000000000000000135869900000000000000000000CONSUMIDOR FINAL              000000000008500000000000000000000000000000000000000000000000000000000000000000000000000000000000000000000000000000000000PES00010000001000000000000000000000000
201704010820000200000000000000013587000000000000000135879900000000000000000000CONSUMIDOR FINAL              000000000003000000000000000000000000000000000000000000000000000000000000000000000000000000000000000000000000000000000000PES00010000001000000000000000000000000
201704010820000200000000000000013588000000000000000135889900000000000000000000CONSUMIDOR FINAL              000000000012500000000000000000000000000000000000000000000000000000000000000000000000000000000000000000000000000000000000PES00010000001000000000000000000000000
201704010820000200000000000000013589000000000000000135899900000000000000000000CONSUMIDOR FINAL              000000000003000000000000000000000000000000000000000000000000000000000000000000000000000000000000000000000000000000000000PES00010000001000000000000000000000000
201704010820000200000000000000013590000000000000000135909900000000000000000000CONSUMIDOR FINAL              000000000004500000000000000000000000000000000000000000000000000000000000000000000000000000000000000000000000000000000000PES00010000001000000000000000000000000
201704010820000200000000000000013591000000000000000135919900000000000000000000CONSUMIDOR FINAL              000000000002000000000000000000000000000000000000000000000000000000000000000000000000000000000000000000000000000000000000PES00010000001000000000000000000000000
201704010820000200000000000000013592000000000000000135929900000000000000000000CONSUMIDOR FINAL              000000000009000000000000000000000000000000000000000000000000000000000000000000000000000000000000000000000000000000000000PES00010000001000000000000000000000000
201704010820000200000000000000013593000000000000000135939900000000000000000000CONSUMIDOR FINAL              000000000003000000000000000000000000000000000000000000000000000000000000000000000000000000000000000000000000000000000000PES00010000001000000000000000000000000
201704010820000200000000000000013594000000000000000135949900000000000000000000CONSUMIDOR FINAL              000000000016000000000000000000000000000000000000000000000000000000000000000000000000000000000000000000000000000000000000PES00010000001000000000000000000000000
201704010820000200000000000000013595000000000000000135959900000000000000000000CONSUMIDOR FINAL              000000000004000000000000000000000000000000000000000000000000000000000000000000000000000000000000000000000000000000000000PES00010000001000000000000000000000000
201704010820000200000000000000013596000000000000000135969900000000000000000000CONSUMIDOR FINAL              000000000009000000000000000000000000000000000000000000000000000000000000000000000000000000000000000000000000000000000000PES00010000001000000000000000000000000
201704010820000200000000000000013597000000000000000135979900000000000000000000CONSUMIDOR FINAL              000000000009500000000000000000000000000000000000000000000000000000000000000000000000000000000000000000000000000000000000PES00010000001000000000000000000000000
201704010820000200000000000000013598000000000000000135989900000000000000000000CONSUMIDOR FINAL              000000000005500000000000000000000000000000000000000000000000000000000000000000000000000000000000000000000000000000000000PES00010000001000000000000000000000000
201704010820000200000000000000013599000000000000000135999900000000000000000000CONSUMIDOR FINAL              000000000005000000000000000000000000000000000000000000000000000000000000000000000000000000000000000000000000000000000000PES00010000001000000000000000000000000
201704010820000200000000000000013600000000000000000136009900000000000000000000CONSUMIDOR FINAL              000000000002000000000000000000000000000000000000000000000000000000000000000000000000000000000000000000000000000000000000PES00010000001000000000000000000000000
201704010820000200000000000000013601000000000000000136019900000000000000000000CONSUMIDOR FINAL              000000000006000000000000000000000000000000000000000000000000000000000000000000000000000000000000000000000000000000000000PES00010000001000000000000000000000000
201704010820000200000000000000013602000000000000000136029900000000000000000000CONSUMIDOR FINAL              000000000005500000000000000000000000000000000000000000000000000000000000000000000000000000000000000000000000000000000000PES00010000001000000000000000000000000
201704010820000200000000000000013603000000000000000136039900000000000000000000CONSUMIDOR FINAL              000000000010500000000000000000000000000000000000000000000000000000000000000000000000000000000000000000000000000000000000PES00010000001000000000000000000000000
201704010820000200000000000000013604000000000000000136049900000000000000000000CONSUMIDOR FINAL              000000000010500000000000000000000000000000000000000000000000000000000000000000000000000000000000000000000000000000000000PES00010000001000000000000000000000000
201704010820000200000000000000013605000000000000000136059900000000000000000000CONSUMIDOR FINAL              000000000008000000000000000000000000000000000000000000000000000000000000000000000000000000000000000000000000000000000000PES00010000001000000000000000000000000
201704010820000200000000000000013606000000000000000136069900000000000000000000CONSUMIDOR FINAL              000000000010000000000000000000000000000000000000000000000000000000000000000000000000000000000000000000000000000000000000PES00010000001000000000000000000000000
201704010820000200000000000000013607000000000000000136079900000000000000000000CONSUMIDOR FINAL              000000000017500000000000000000000000000000000000000000000000000000000000000000000000000000000000000000000000000000000000PES00010000001000000000000000000000000
201704010820000200000000000000013608000000000000000136089900000000000000000000CONSUMIDOR FINAL              000000000005500000000000000000000000000000000000000000000000000000000000000000000000000000000000000000000000000000000000PES00010000001000000000000000000000000
201704010820000200000000000000013609000000000000000136099900000000000000000000CONSUMIDOR FINAL              000000000008000000000000000000000000000000000000000000000000000000000000000000000000000000000000000000000000000000000000PES00010000001000000000000000000000000
201704010820000200000000000000013610000000000000000136109900000000000000000000CONSUMIDOR FINAL              000000000003000000000000000000000000000000000000000000000000000000000000000000000000000000000000000000000000000000000000PES00010000001000000000000000000000000
201704010820000200000000000000013611000000000000000136119900000000000000000000CONSUMIDOR FINAL              000000000008000000000000000000000000000000000000000000000000000000000000000000000000000000000000000000000000000000000000PES00010000001000000000000000000000000
201704010820000200000000000000013612000000000000000136129900000000000000000000CONSUMIDOR FINAL              000000000010000000000000000000000000000000000000000000000000000000000000000000000000000000000000000000000000000000000000PES00010000001000000000000000000000000
201704010820000200000000000000013613000000000000000136139900000000000000000000CONSUMIDOR FINAL              000000000006000000000000000000000000000000000000000000000000000000000000000000000000000000000000000000000000000000000000PES00010000001000000000000000000000000
201704010820000200000000000000013614000000000000000136149900000000000000000000CONSUMIDOR FINAL              000000000012500000000000000000000000000000000000000000000000000000000000000000000000000000000000000000000000000000000000PES00010000001000000000000000000000000
201704010820000200000000000000013615000000000000000136159900000000000000000000CONSUMIDOR FINAL              000000000011000000000000000000000000000000000000000000000000000000000000000000000000000000000000000000000000000000000000PES00010000001000000000000000000000000
201704010820000200000000000000013616000000000000000136169900000000000000000000CONSUMIDOR FINAL              000000000012000000000000000000000000000000000000000000000000000000000000000000000000000000000000000000000000000000000000PES00010000001000000000000000000000000
201704020820000200000000000000013617000000000000000136179900000000000000000000CONSUMIDOR FINAL              000000000004000000000000000000000000000000000000000000000000000000000000000000000000000000000000000000000000000000000000PES00010000001000000000000000000000000
201704020820000200000000000000013618000000000000000136189900000000000000000000CONSUMIDOR FINAL              000000000008000000000000000000000000000000000000000000000000000000000000000000000000000000000000000000000000000000000000PES00010000001000000000000000000000000
201704020820000200000000000000013619000000000000000136199900000000000000000000CONSUMIDOR FINAL              000000000003000000000000000000000000000000000000000000000000000000000000000000000000000000000000000000000000000000000000PES00010000001000000000000000000000000
201704020820000200000000000000013620000000000000000136209900000000000000000000CONSUMIDOR FINAL              000000000025000000000000000000000000000000000000000000000000000000000000000000000000000000000000000000000000000000000000PES00010000001000000000000000000000000
201704020820000200000000000000013621000000000000000136219900000000000000000000CONSUMIDOR FINAL              000000000008100000000000000000000000000000000000000000000000000000000000000000000000000000000000000000000000000000000000PES00010000001000000000000000000000000
201704020820000200000000000000013622000000000000000136229900000000000000000000CONSUMIDOR FINAL              000000000005400000000000000000000000000000000000000000000000000000000000000000000000000000000000000000000000000000000000PES00010000001000000000000000000000000
201704020820000200000000000000013623000000000000000136239900000000000000000000CONSUMIDOR FINAL              000000000010000000000000000000000000000000000000000000000000000000000000000000000000000000000000000000000000000000000000PES00010000001000000000000000000000000
201704020820000200000000000000013624000000000000000136249900000000000000000000CONSUMIDOR FINAL              000000000009000000000000000000000000000000000000000000000000000000000000000000000000000000000000000000000000000000000000PES00010000001000000000000000000000000
201704020820000200000000000000013625000000000000000136259900000000000000000000CONSUMIDOR FINAL              000000000007000000000000000000000000000000000000000000000000000000000000000000000000000000000000000000000000000000000000PES00010000001000000000000000000000000
201704020820000200000000000000013626000000000000000136269900000000000000000000CONSUMIDOR FINAL              000000000013000000000000000000000000000000000000000000000000000000000000000000000000000000000000000000000000000000000000PES00010000001000000000000000000000000
201704020820000200000000000000013627000000000000000136279900000000000000000000CONSUMIDOR FINAL              000000000004500000000000000000000000000000000000000000000000000000000000000000000000000000000000000000000000000000000000PES00010000001000000000000000000000000
201704020820000200000000000000013628000000000000000136289900000000000000000000CONSUMIDOR FINAL              000000000004000000000000000000000000000000000000000000000000000000000000000000000000000000000000000000000000000000000000PES00010000001000000000000000000000000
201704020820000200000000000000013629000000000000000136299900000000000000000000CONSUMIDOR FINAL              000000000006000000000000000000000000000000000000000000000000000000000000000000000000000000000000000000000000000000000000PES00010000001000000000000000000000000
201704020820000200000000000000013630000000000000000136309900000000000000000000CONSUMIDOR FINAL              000000000007650000000000000000000000000000000000000000000000000000000000000000000000000000000000000000000000000000000000PES00010000001000000000000000000000000
201704020820000200000000000000013631000000000000000136319900000000000000000000CONSUMIDOR FINAL              000000000020000000000000000000000000000000000000000000000000000000000000000000000000000000000000000000000000000000000000PES00010000001000000000000000000000000
201704020820000200000000000000013632000000000000000136329900000000000000000000CONSUMIDOR FINAL              000000000016500000000000000000000000000000000000000000000000000000000000000000000000000000000000000000000000000000000000PES00010000001000000000000000000000000
201704020820000200000000000000013633000000000000000136339900000000000000000000CONSUMIDOR FINAL              000000000018500000000000000000000000000000000000000000000000000000000000000000000000000000000000000000000000000000000000PES00010000001000000000000000000000000
201704020820000200000000000000013634000000000000000136349900000000000000000000CONSUMIDOR FINAL              000000000004950000000000000000000000000000000000000000000000000000000000000000000000000000000000000000000000000000000000PES00010000001000000000000000000000000
201704020820000200000000000000013635000000000000000136359900000000000000000000CONSUMIDOR FINAL              000000000013000000000000000000000000000000000000000000000000000000000000000000000000000000000000000000000000000000000000PES00010000001000000000000000000000000
201704020820000200000000000000013636000000000000000136369900000000000000000000CONSUMIDOR FINAL              000000000007000000000000000000000000000000000000000000000000000000000000000000000000000000000000000000000000000000000000PES00010000001000000000000000000000000
201704020820000200000000000000013637000000000000000136379900000000000000000000CONSUMIDOR FINAL              000000000001800000000000000000000000000000000000000000000000000000000000000000000000000000000000000000000000000000000000PES00010000001000000000000000000000000
201704020820000200000000000000013638000000000000000136389900000000000000000000CONSUMIDOR FINAL              000000000006000000000000000000000000000000000000000000000000000000000000000000000000000000000000000000000000000000000000PES00010000001000000000000000000000000
201704020820000200000000000000013639000000000000000136399900000000000000000000CONSUMIDOR FINAL              000000000005000000000000000000000000000000000000000000000000000000000000000000000000000000000000000000000000000000000000PES00010000001000000000000000000000000
201704020820000200000000000000013640000000000000000136409900000000000000000000CONSUMIDOR FINAL              000000000006000000000000000000000000000000000000000000000000000000000000000000000000000000000000000000000000000000000000PES00010000001000000000000000000000000
201704020820000200000000000000013641000000000000000136419900000000000000000000CONSUMIDOR FINAL              000000000008500000000000000000000000000000000000000000000000000000000000000000000000000000000000000000000000000000000000PES00010000001000000000000000000000000
201704020820000200000000000000013642000000000000000136429900000000000000000000CONSUMIDOR FINAL              000000000004500000000000000000000000000000000000000000000000000000000000000000000000000000000000000000000000000000000000PES00010000001000000000000000000000000
201704020820000200000000000000013643000000000000000136439900000000000000000000CONSUMIDOR FINAL              000000000012000000000000000000000000000000000000000000000000000000000000000000000000000000000000000000000000000000000000PES00010000001000000000000000000000000
201704020820000200000000000000013644000000000000000136449900000000000000000000CONSUMIDOR FINAL              000000000010500000000000000000000000000000000000000000000000000000000000000000000000000000000000000000000000000000000000PES00010000001000000000000000000000000
201704020820000200000000000000013645000000000000000136459900000000000000000000CONSUMIDOR FINAL              000000000019000000000000000000000000000000000000000000000000000000000000000000000000000000000000000000000000000000000000PES00010000001000000000000000000000000
201704020820000200000000000000013646000000000000000136469900000000000000000000CONSUMIDOR FINAL              000000000013000000000000000000000000000000000000000000000000000000000000000000000000000000000000000000000000000000000000PES00010000001000000000000000000000000
201704020820000200000000000000013647000000000000000136479900000000000000000000CONSUMIDOR FINAL              000000000015500000000000000000000000000000000000000000000000000000000000000000000000000000000000000000000000000000000000PES00010000001000000000000000000000000
201704020820000200000000000000013648000000000000000136489900000000000000000000CONSUMIDOR FINAL              000000000010500000000000000000000000000000000000000000000000000000000000000000000000000000000000000000000000000000000000PES00010000001000000000000000000000000
201704020820000200000000000000013649000000000000000136499900000000000000000000CONSUMIDOR FINAL              000000000005000000000000000000000000000000000000000000000000000000000000000000000000000000000000000000000000000000000000PES00010000001000000000000000000000000
201704030820000200000000000000013650000000000000000136509900000000000000000000CONSUMIDOR FINAL              000000000009500000000000000000000000000000000000000000000000000000000000000000000000000000000000000000000000000000000000PES00010000001000000000000000000000000
201704030820000200000000000000013651000000000000000136519900000000000000000000CONSUMIDOR FINAL              000000000006000000000000000000000000000000000000000000000000000000000000000000000000000000000000000000000000000000000000PES00010000001000000000000000000000000
201704030820000200000000000000013652000000000000000136529900000000000000000000CONSUMIDOR FINAL              000000000010500000000000000000000000000000000000000000000000000000000000000000000000000000000000000000000000000000000000PES00010000001000000000000000000000000
201704030820000200000000000000013653000000000000000136539900000000000000000000CONSUMIDOR FINAL              000000000007000000000000000000000000000000000000000000000000000000000000000000000000000000000000000000000000000000000000PES00010000001000000000000000000000000
201704030820000200000000000000013654000000000000000136549900000000000000000000CONSUMIDOR FINAL              000000000008100000000000000000000000000000000000000000000000000000000000000000000000000000000000000000000000000000000000PES00010000001000000000000000000000000
201704030820000200000000000000013655000000000000000136559900000000000000000000CONSUMIDOR FINAL              000000000007500000000000000000000000000000000000000000000000000000000000000000000000000000000000000000000000000000000000PES00010000001000000000000000000000000
201704030820000200000000000000013656000000000000000136569900000000000000000000CONSUMIDOR FINAL              000000000008500000000000000000000000000000000000000000000000000000000000000000000000000000000000000000000000000000000000PES00010000001000000000000000000000000
201704030820000200000000000000013657000000000000000136579900000000000000000000CONSUMIDOR FINAL              000000000016000000000000000000000000000000000000000000000000000000000000000000000000000000000000000000000000000000000000PES00010000001000000000000000000000000
201704030820000200000000000000013658000000000000000136589900000000000000000000CONSUMIDOR FINAL              000000000004000000000000000000000000000000000000000000000000000000000000000000000000000000000000000000000000000000000000PES00010000001000000000000000000000000
201704030820000200000000000000013659000000000000000136599900000000000000000000CONSUMIDOR FINAL              000000000009000000000000000000000000000000000000000000000000000000000000000000000000000000000000000000000000000000000000PES00010000001000000000000000000000000
201704030820000200000000000000013660000000000000000136609900000000000000000000CONSUMIDOR FINAL              000000000005500000000000000000000000000000000000000000000000000000000000000000000000000000000000000000000000000000000000PES00010000001000000000000000000000000
201704030820000200000000000000013661000000000000000136619900000000000000000000CONSUMIDOR FINAL              000000000008000000000000000000000000000000000000000000000000000000000000000000000000000000000000000000000000000000000000PES00010000001000000000000000000000000
201704030820000200000000000000013662000000000000000136629900000000000000000000CONSUMIDOR FINAL              000000000004000000000000000000000000000000000000000000000000000000000000000000000000000000000000000000000000000000000000PES00010000001000000000000000000000000
201704030820000200000000000000013663000000000000000136639900000000000000000000CONSUMIDOR FINAL              000000000006500000000000000000000000000000000000000000000000000000000000000000000000000000000000000000000000000000000000PES00010000001000000000000000000000000
201704030820000200000000000000013664000000000000000136649900000000000000000000CONSUMIDOR FINAL              000000000005000000000000000000000000000000000000000000000000000000000000000000000000000000000000000000000000000000000000PES00010000001000000000000000000000000
201704030820000200000000000000013665000000000000000136659900000000000000000000CONSUMIDOR FINAL              000000000005500000000000000000000000000000000000000000000000000000000000000000000000000000000000000000000000000000000000PES00010000001000000000000000000000000
201704030820000200000000000000013666000000000000000136669900000000000000000000CONSUMIDOR FINAL              000000000011000000000000000000000000000000000000000000000000000000000000000000000000000000000000000000000000000000000000PES00010000001000000000000000000000000
201704030820000200000000000000013667000000000000000136679900000000000000000000CONSUMIDOR FINAL              000000000005500000000000000000000000000000000000000000000000000000000000000000000000000000000000000000000000000000000000PES00010000001000000000000000000000000
201704030820000200000000000000013668000000000000000136689900000000000000000000CONSUMIDOR FINAL              000000000004500000000000000000000000000000000000000000000000000000000000000000000000000000000000000000000000000000000000PES00010000001000000000000000000000000
201704030820000200000000000000013669000000000000000136699900000000000000000000CONSUMIDOR FINAL              000000000004000000000000000000000000000000000000000000000000000000000000000000000000000000000000000000000000000000000000PES00010000001000000000000000000000000
201704030820000200000000000000013670000000000000000136709900000000000000000000CONSUMIDOR FINAL              000000000012000000000000000000000000000000000000000000000000000000000000000000000000000000000000000000000000000000000000PES00010000001000000000000000000000000
201704030820000200000000000000013671000000000000000136719900000000000000000000CONSUMIDOR FINAL              000000000000500000000000000000000000000000000000000000000000000000000000000000000000000000000000000000000000000000000000PES00010000001000000000000000000000000
201704030820000200000000000000013672000000000000000136729900000000000000000000CONSUMIDOR FINAL              000000000005500000000000000000000000000000000000000000000000000000000000000000000000000000000000000000000000000000000000PES00010000001000000000000000000000000
201704030820000200000000000000013673000000000000000136739900000000000000000000CONSUMIDOR FINAL              000000000008000000000000000000000000000000000000000000000000000000000000000000000000000000000000000000000000000000000000PES00010000001000000000000000000000000
201704030820000200000000000000013674000000000000000136749900000000000000000000CONSUMIDOR FINAL              000000000019000000000000000000000000000000000000000000000000000000000000000000000000000000000000000000000000000000000000PES00010000001000000000000000000000000
201704030820000200000000000000013675000000000000000136759900000000000000000000CONSUMIDOR FINAL              000000000004000000000000000000000000000000000000000000000000000000000000000000000000000000000000000000000000000000000000PES00010000001000000000000000000000000
201704030820000200000000000000013676000000000000000136769900000000000000000000CONSUMIDOR FINAL              000000000010800000000000000000000000000000000000000000000000000000000000000000000000000000000000000000000000000000000000PES00010000001000000000000000000000000
201704030820000200000000000000013677000000000000000136779900000000000000000000CONSUMIDOR FINAL              000000000005400000000000000000000000000000000000000000000000000000000000000000000000000000000000000000000000000000000000PES00010000001000000000000000000000000
201704040820000200000000000000013678000000000000000136789900000000000000000000CONSUMIDOR FINAL              000000000007500000000000000000000000000000000000000000000000000000000000000000000000000000000000000000000000000000000000PES00010000001000000000000000000000000
201704040820000200000000000000013679000000000000000136799900000000000000000000CONSUMIDOR FINAL              000000000015500000000000000000000000000000000000000000000000000000000000000000000000000000000000000000000000000000000000PES00010000001000000000000000000000000
201704040820000200000000000000013680000000000000000136809900000000000000000000CONSUMIDOR FINAL              000000000008500000000000000000000000000000000000000000000000000000000000000000000000000000000000000000000000000000000000PES00010000001000000000000000000000000
201704040820000200000000000000013681000000000000000136819900000000000000000000CONSUMIDOR FINAL              000000000021000000000000000000000000000000000000000000000000000000000000000000000000000000000000000000000000000000000000PES00010000001000000000000000000000000
201704040820000200000000000000013682000000000000000136829900000000000000000000CONSUMIDOR FINAL              000000000014500000000000000000000000000000000000000000000000000000000000000000000000000000000000000000000000000000000000PES00010000001000000000000000000000000
201704040820000200000000000000013683000000000000000136839900000000000000000000CONSUMIDOR FINAL              000000000013000000000000000000000000000000000000000000000000000000000000000000000000000000000000000000000000000000000000PES00010000001000000000000000000000000
201704040820000200000000000000013684000000000000000136849900000000000000000000CONSUMIDOR FINAL              000000000022000000000000000000000000000000000000000000000000000000000000000000000000000000000000000000000000000000000000PES00010000001000000000000000000000000
201704040820000200000000000000013685000000000000000136859900000000000000000000CONSUMIDOR FINAL              000000000019500000000000000000000000000000000000000000000000000000000000000000000000000000000000000000000000000000000000PES00010000001000000000000000000000000
201704040820000200000000000000013686000000000000000136869900000000000000000000CONSUMIDOR FINAL              000000000002000000000000000000000000000000000000000000000000000000000000000000000000000000000000000000000000000000000000PES00010000001000000000000000000000000
201704040820000200000000000000013687000000000000000136879900000000000000000000CONSUMIDOR FINAL              000000000014000000000000000000000000000000000000000000000000000000000000000000000000000000000000000000000000000000000000PES00010000001000000000000000000000000
201704040820000200000000000000013688000000000000000136889900000000000000000000CONSUMIDOR FINAL              000000000006500000000000000000000000000000000000000000000000000000000000000000000000000000000000000000000000000000000000PES00010000001000000000000000000000000
201704040820000200000000000000013689000000000000000136899900000000000000000000CONSUMIDOR FINAL              000000000008000000000000000000000000000000000000000000000000000000000000000000000000000000000000000000000000000000000000PES00010000001000000000000000000000000
201704040820000200000000000000013690000000000000000136909900000000000000000000CONSUMIDOR FINAL              000000000005500000000000000000000000000000000000000000000000000000000000000000000000000000000000000000000000000000000000PES00010000001000000000000000000000000
201704040820000200000000000000013691000000000000000136919900000000000000000000CONSUMIDOR FINAL              000000000007000000000000000000000000000000000000000000000000000000000000000000000000000000000000000000000000000000000000PES00010000001000000000000000000000000
201704040820000200000000000000013692000000000000000136929900000000000000000000CONSUMIDOR FINAL              000000000008000000000000000000000000000000000000000000000000000000000000000000000000000000000000000000000000000000000000PES00010000001000000000000000000000000
201704040820000200000000000000013693000000000000000136939900000000000000000000CONSUMIDOR FINAL              000000000003000000000000000000000000000000000000000000000000000000000000000000000000000000000000000000000000000000000000PES00010000001000000000000000000000000
201704040820000200000000000000013694000000000000000136949900000000000000000000CONSUMIDOR FINAL              000000000002000000000000000000000000000000000000000000000000000000000000000000000000000000000000000000000000000000000000PES00010000001000000000000000000000000
201704040820000200000000000000013695000000000000000136959900000000000000000000CONSUMIDOR FINAL              000000000010000000000000000000000000000000000000000000000000000000000000000000000000000000000000000000000000000000000000PES00010000001000000000000000000000000
201704040820000200000000000000013696000000000000000136969900000000000000000000CONSUMIDOR FINAL              000000000004000000000000000000000000000000000000000000000000000000000000000000000000000000000000000000000000000000000000PES00010000001000000000000000000000000
201704040820000200000000000000013697000000000000000136979900000000000000000000CONSUMIDOR FINAL              000000000002000000000000000000000000000000000000000000000000000000000000000000000000000000000000000000000000000000000000PES00010000001000000000000000000000000
201704040820000200000000000000013698000000000000000136989900000000000000000000CONSUMIDOR FINAL              000000000004000000000000000000000000000000000000000000000000000000000000000000000000000000000000000000000000000000000000PES00010000001000000000000000000000000
201704040820000200000000000000013699000000000000000136999900000000000000000000CONSUMIDOR FINAL              000000000008000000000000000000000000000000000000000000000000000000000000000000000000000000000000000000000000000000000000PES00010000001000000000000000000000000
201704040820000200000000000000013700000000000000000137009900000000000000000000CONSUMIDOR FINAL              000000000009500000000000000000000000000000000000000000000000000000000000000000000000000000000000000000000000000000000000PES00010000001000000000000000000000000
201704040820000200000000000000013701000000000000000137019900000000000000000000CONSUMIDOR FINAL              000000000005500000000000000000000000000000000000000000000000000000000000000000000000000000000000000000000000000000000000PES00010000001000000000000000000000000
201704040820000200000000000000013702000000000000000137029900000000000000000000CONSUMIDOR FINAL              000000000011000000000000000000000000000000000000000000000000000000000000000000000000000000000000000000000000000000000000PES00010000001000000000000000000000000
201704040820000200000000000000013703000000000000000137039900000000000000000000CONSUMIDOR FINAL              000000000009000000000000000000000000000000000000000000000000000000000000000000000000000000000000000000000000000000000000PES00010000001000000000000000000000000
201704040820000200000000000000013704000000000000000137049900000000000000000000CONSUMIDOR FINAL              000000000005500000000000000000000000000000000000000000000000000000000000000000000000000000000000000000000000000000000000PES00010000001000000000000000000000000
201704040820000200000000000000013705000000000000000137059900000000000000000000CONSUMIDOR FINAL              000000000004000000000000000000000000000000000000000000000000000000000000000000000000000000000000000000000000000000000000PES00010000001000000000000000000000000
201704040820000200000000000000013706000000000000000137069900000000000000000000CONSUMIDOR FINAL              000000000008000000000000000000000000000000000000000000000000000000000000000000000000000000000000000000000000000000000000PES00010000001000000000000000000000000
201704040820000200000000000000013707000000000000000137079900000000000000000000CONSUMIDOR FINAL              000000000006000000000000000000000000000000000000000000000000000000000000000000000000000000000000000000000000000000000000PES00010000001000000000000000000000000
201704040820000200000000000000013708000000000000000137089900000000000000000000CONSUMIDOR FINAL              000000000002000000000000000000000000000000000000000000000000000000000000000000000000000000000000000000000000000000000000PES00010000001000000000000000000000000
201704040820000200000000000000013709000000000000000137099900000000000000000000CONSUMIDOR FINAL              000000000002000000000000000000000000000000000000000000000000000000000000000000000000000000000000000000000000000000000000PES00010000001000000000000000000000000
201704040820000200000000000000013710000000000000000137109900000000000000000000CONSUMIDOR FINAL              000000000005000000000000000000000000000000000000000000000000000000000000000000000000000000000000000000000000000000000000PES00010000001000000000000000000000000
201704040820000200000000000000013711000000000000000137119900000000000000000000CONSUMIDOR FINAL              000000000004000000000000000000000000000000000000000000000000000000000000000000000000000000000000000000000000000000000000PES00010000001000000000000000000000000
201704040820000200000000000000013712000000000000000137129900000000000000000000CONSUMIDOR FINAL              000000000019000000000000000000000000000000000000000000000000000000000000000000000000000000000000000000000000000000000000PES00010000001000000000000000000000000
201704040820000200000000000000013713000000000000000137139900000000000000000000CONSUMIDOR FINAL              000000000002500000000000000000000000000000000000000000000000000000000000000000000000000000000000000000000000000000000000PES00010000001000000000000000000000000
201704040820000200000000000000013714000000000000000137149900000000000000000000CONSUMIDOR FINAL              000000000007500000000000000000000000000000000000000000000000000000000000000000000000000000000000000000000000000000000000PES00010000001000000000000000000000000
201704040820000200000000000000013715000000000000000137159900000000000000000000CONSUMIDOR FINAL              000000000005500000000000000000000000000000000000000000000000000000000000000000000000000000000000000000000000000000000000PES00010000001000000000000000000000000
201704040820000200000000000000013716000000000000000137169900000000000000000000CONSUMIDOR FINAL              000000000004500000000000000000000000000000000000000000000000000000000000000000000000000000000000000000000000000000000000PES00010000001000000000000000000000000
201704040820000200000000000000013717000000000000000137179900000000000000000000CONSUMIDOR FINAL              000000000010000000000000000000000000000000000000000000000000000000000000000000000000000000000000000000000000000000000000PES00010000001000000000000000000000000
201704040820000200000000000000013718000000000000000137189900000000000000000000CONSUMIDOR FINAL              000000000004000000000000000000000000000000000000000000000000000000000000000000000000000000000000000000000000000000000000PES00010000001000000000000000000000000
201704040820000200000000000000013719000000000000000137199900000000000000000000CONSUMIDOR FINAL              000000000003500000000000000000000000000000000000000000000000000000000000000000000000000000000000000000000000000000000000PES00010000001000000000000000000000000
201704040820000200000000000000013720000000000000000137209900000000000000000000CONSUMIDOR FINAL              000000000004500000000000000000000000000000000000000000000000000000000000000000000000000000000000000000000000000000000000PES00010000001000000000000000000000000
201704040820000200000000000000013721000000000000000137219900000000000000000000CONSUMIDOR FINAL              000000000005000000000000000000000000000000000000000000000000000000000000000000000000000000000000000000000000000000000000PES00010000001000000000000000000000000
201704050820000200000000000000013722000000000000000137229900000000000000000000CONSUMIDOR FINAL              000000000009500000000000000000000000000000000000000000000000000000000000000000000000000000000000000000000000000000000000PES00010000001000000000000000000000000
201704050820000200000000000000013723000000000000000137239900000000000000000000CONSUMIDOR FINAL              000000000011000000000000000000000000000000000000000000000000000000000000000000000000000000000000000000000000000000000000PES00010000001000000000000000000000000
201704050820000200000000000000013724000000000000000137249900000000000000000000CONSUMIDOR FINAL              000000000005500000000000000000000000000000000000000000000000000000000000000000000000000000000000000000000000000000000000PES00010000001000000000000000000000000
201704050820000200000000000000013725000000000000000137259900000000000000000000CONSUMIDOR FINAL              000000000010000000000000000000000000000000000000000000000000000000000000000000000000000000000000000000000000000000000000PES00010000001000000000000000000000000
201704050820000200000000000000013726000000000000000137269900000000000000000000CONSUMIDOR FINAL              000000000016500000000000000000000000000000000000000000000000000000000000000000000000000000000000000000000000000000000000PES00010000001000000000000000000000000
201704050820000200000000000000013727000000000000000137279900000000000000000000CONSUMIDOR FINAL              000000000011500000000000000000000000000000000000000000000000000000000000000000000000000000000000000000000000000000000000PES00010000001000000000000000000000000
201704050820000200000000000000013728000000000000000137289900000000000000000000CONSUMIDOR FINAL              000000000018000000000000000000000000000000000000000000000000000000000000000000000000000000000000000000000000000000000000PES00010000001000000000000000000000000
201704050820000200000000000000013729000000000000000137299900000000000000000000CONSUMIDOR FINAL              000000000004000000000000000000000000000000000000000000000000000000000000000000000000000000000000000000000000000000000000PES00010000001000000000000000000000000
201704050820000200000000000000013730000000000000000137309900000000000000000000CONSUMIDOR FINAL              000000000010000000000000000000000000000000000000000000000000000000000000000000000000000000000000000000000000000000000000PES00010000001000000000000000000000000
201704050820000200000000000000013731000000000000000137319900000000000000000000CONSUMIDOR FINAL              000000000005500000000000000000000000000000000000000000000000000000000000000000000000000000000000000000000000000000000000PES00010000001000000000000000000000000
201704050820000200000000000000013732000000000000000137329900000000000000000000CONSUMIDOR FINAL              000000000006000000000000000000000000000000000000000000000000000000000000000000000000000000000000000000000000000000000000PES00010000001000000000000000000000000
201704050820000200000000000000013733000000000000000137339900000000000000000000CONSUMIDOR FINAL              000000000006000000000000000000000000000000000000000000000000000000000000000000000000000000000000000000000000000000000000PES00010000001000000000000000000000000
201704050820000200000000000000013734000000000000000137349900000000000000000000CONSUMIDOR FINAL              000000000007000000000000000000000000000000000000000000000000000000000000000000000000000000000000000000000000000000000000PES00010000001000000000000000000000000
201704050820000200000000000000013735000000000000000137359900000000000000000000CONSUMIDOR FINAL              000000000009000000000000000000000000000000000000000000000000000000000000000000000000000000000000000000000000000000000000PES00010000001000000000000000000000000
201704050820000200000000000000013736000000000000000137369900000000000000000000CONSUMIDOR FINAL              000000000006000000000000000000000000000000000000000000000000000000000000000000000000000000000000000000000000000000000000PES00010000001000000000000000000000000
201704050820000200000000000000013737000000000000000137379900000000000000000000CONSUMIDOR FINAL              000000000003500000000000000000000000000000000000000000000000000000000000000000000000000000000000000000000000000000000000PES00010000001000000000000000000000000
201704050820000200000000000000013738000000000000000137389900000000000000000000CONSUMIDOR FINAL              000000000004000000000000000000000000000000000000000000000000000000000000000000000000000000000000000000000000000000000000PES00010000001000000000000000000000000
201704050820000200000000000000013739000000000000000137399900000000000000000000CONSUMIDOR FINAL              000000000004000000000000000000000000000000000000000000000000000000000000000000000000000000000000000000000000000000000000PES00010000001000000000000000000000000
201704050820000200000000000000013740000000000000000137409900000000000000000000CONSUMIDOR FINAL              000000000011500000000000000000000000000000000000000000000000000000000000000000000000000000000000000000000000000000000000PES00010000001000000000000000000000000
201704050820000200000000000000013741000000000000000137419900000000000000000000CONSUMIDOR FINAL              000000000008000000000000000000000000000000000000000000000000000000000000000000000000000000000000000000000000000000000000PES00010000001000000000000000000000000
201704050820000200000000000000013742000000000000000137429900000000000000000000CONSUMIDOR FINAL              000000000004500000000000000000000000000000000000000000000000000000000000000000000000000000000000000000000000000000000000PES00010000001000000000000000000000000
201704050820000200000000000000013743000000000000000137439900000000000000000000CONSUMIDOR FINAL              000000000002000000000000000000000000000000000000000000000000000000000000000000000000000000000000000000000000000000000000PES00010000001000000000000000000000000
201704050820000200000000000000013744000000000000000137449900000000000000000000CONSUMIDOR FINAL              000000000002000000000000000000000000000000000000000000000000000000000000000000000000000000000000000000000000000000000000PES00010000001000000000000000000000000
201704050820000200000000000000013745000000000000000137459900000000000000000000CONSUMIDOR FINAL              000000000004500000000000000000000000000000000000000000000000000000000000000000000000000000000000000000000000000000000000PES00010000001000000000000000000000000
201704050820000200000000000000013746000000000000000137469900000000000000000000CONSUMIDOR FINAL              000000000005500000000000000000000000000000000000000000000000000000000000000000000000000000000000000000000000000000000000PES00010000001000000000000000000000000
201704050820000200000000000000013747000000000000000137479900000000000000000000CONSUMIDOR FINAL              000000000002700000000000000000000000000000000000000000000000000000000000000000000000000000000000000000000000000000000000PES00010000001000000000000000000000000
201704050820000200000000000000013748000000000000000137489900000000000000000000CONSUMIDOR FINAL              000000000003000000000000000000000000000000000000000000000000000000000000000000000000000000000000000000000000000000000000PES00010000001000000000000000000000000
201704050820000200000000000000013749000000000000000137499900000000000000000000CONSUMIDOR FINAL              000000000009500000000000000000000000000000000000000000000000000000000000000000000000000000000000000000000000000000000000PES00010000001000000000000000000000000
201704050820000200000000000000013750000000000000000137509900000000000000000000CONSUMIDOR FINAL              000000000004000000000000000000000000000000000000000000000000000000000000000000000000000000000000000000000000000000000000PES00010000001000000000000000000000000
201704050820000200000000000000013751000000000000000137519900000000000000000000CONSUMIDOR FINAL              000000000010500000000000000000000000000000000000000000000000000000000000000000000000000000000000000000000000000000000000PES00010000001000000000000000000000000
201704050820000200000000000000013752000000000000000137529900000000000000000000CONSUMIDOR FINAL              000000000008000000000000000000000000000000000000000000000000000000000000000000000000000000000000000000000000000000000000PES00010000001000000000000000000000000
201704050820000200000000000000013753000000000000000137539900000000000000000000CONSUMIDOR FINAL              000000000004950000000000000000000000000000000000000000000000000000000000000000000000000000000000000000000000000000000000PES00010000001000000000000000000000000
201704050820000200000000000000013754000000000000000137549900000000000000000000CONSUMIDOR FINAL              000000000011000000000000000000000000000000000000000000000000000000000000000000000000000000000000000000000000000000000000PES00010000001000000000000000000000000
201704050820000200000000000000013755000000000000000137559900000000000000000000CONSUMIDOR FINAL              000000000009000000000000000000000000000000000000000000000000000000000000000000000000000000000000000000000000000000000000PES00010000001000000000000000000000000
201704050820000200000000000000013756000000000000000137569900000000000000000000CONSUMIDOR FINAL              000000000009000000000000000000000000000000000000000000000000000000000000000000000000000000000000000000000000000000000000PES00010000001000000000000000000000000
201704050820000200000000000000013757000000000000000137579900000000000000000000CONSUMIDOR FINAL              000000000011500000000000000000000000000000000000000000000000000000000000000000000000000000000000000000000000000000000000PES00010000001000000000000000000000000
201704050820000200000000000000013758000000000000000137589900000000000000000000CONSUMIDOR FINAL              000000000010000000000000000000000000000000000000000000000000000000000000000000000000000000000000000000000000000000000000PES00010000001000000000000000000000000
201704050820000200000000000000013759000000000000000137599900000000000000000000CONSUMIDOR FINAL              000000000002000000000000000000000000000000000000000000000000000000000000000000000000000000000000000000000000000000000000PES00010000001000000000000000000000000
201704050820000200000000000000013760000000000000000137609900000000000000000000CONSUMIDOR FINAL              000000000009500000000000000000000000000000000000000000000000000000000000000000000000000000000000000000000000000000000000PES00010000001000000000000000000000000
201704050820000200000000000000013761000000000000000137619900000000000000000000CONSUMIDOR FINAL              000000000010500000000000000000000000000000000000000000000000000000000000000000000000000000000000000000000000000000000000PES00010000001000000000000000000000000
201704050820000200000000000000013762000000000000000137629900000000000000000000CONSUMIDOR FINAL              000000000004500000000000000000000000000000000000000000000000000000000000000000000000000000000000000000000000000000000000PES00010000001000000000000000000000000
201704050820000200000000000000013763000000000000000137639900000000000000000000CONSUMIDOR FINAL              000000000004500000000000000000000000000000000000000000000000000000000000000000000000000000000000000000000000000000000000PES00010000001000000000000000000000000
201704050820000200000000000000013764000000000000000137649900000000000000000000CONSUMIDOR FINAL              000000000010000000000000000000000000000000000000000000000000000000000000000000000000000000000000000000000000000000000000PES00010000001000000000000000000000000
201704050820000200000000000000013765000000000000000137659900000000000000000000CONSUMIDOR FINAL              000000000009500000000000000000000000000000000000000000000000000000000000000000000000000000000000000000000000000000000000PES00010000001000000000000000000000000
201704050820000200000000000000013766000000000000000137669900000000000000000000CONSUMIDOR FINAL              000000000005000000000000000000000000000000000000000000000000000000000000000000000000000000000000000000000000000000000000PES00010000001000000000000000000000000
201704050820000200000000000000013767000000000000000137679900000000000000000000CONSUMIDOR FINAL              000000000006000000000000000000000000000000000000000000000000000000000000000000000000000000000000000000000000000000000000PES00010000001000000000000000000000000
201704050820000200000000000000013768000000000000000137689900000000000000000000CONSUMIDOR FINAL              000000000012000000000000000000000000000000000000000000000000000000000000000000000000000000000000000000000000000000000000PES00010000001000000000000000000000000
201704050820000200000000000000013769000000000000000137699900000000000000000000CONSUMIDOR FINAL              000000000003600000000000000000000000000000000000000000000000000000000000000000000000000000000000000000000000000000000000PES00010000001000000000000000000000000
201704050820000200000000000000013770000000000000000137709900000000000000000000CONSUMIDOR FINAL              000000000019000000000000000000000000000000000000000000000000000000000000000000000000000000000000000000000000000000000000PES00010000001000000000000000000000000
201704050820000200000000000000013771000000000000000137719900000000000000000000CONSUMIDOR FINAL              000000000005000000000000000000000000000000000000000000000000000000000000000000000000000000000000000000000000000000000000PES00010000001000000000000000000000000
201704050820000200000000000000013772000000000000000137729900000000000000000000CONSUMIDOR FINAL              000000000004950000000000000000000000000000000000000000000000000000000000000000000000000000000000000000000000000000000000PES00010000001000000000000000000000000
201704050820000200000000000000013773000000000000000137739900000000000000000000CONSUMIDOR FINAL              000000000004500000000000000000000000000000000000000000000000000000000000000000000000000000000000000000000000000000000000PES00010000001000000000000000000000000
201704050820000200000000000000013774000000000000000137749900000000000000000000CONSUMIDOR FINAL              000000000003000000000000000000000000000000000000000000000000000000000000000000000000000000000000000000000000000000000000PES00010000001000000000000000000000000
201704050820000200000000000000013775000000000000000137759900000000000000000000CONSUMIDOR FINAL              000000000009000000000000000000000000000000000000000000000000000000000000000000000000000000000000000000000000000000000000PES00010000001000000000000000000000000
201704070820000200000000000000013776000000000000000137769900000000000000000000CONSUMIDOR FINAL              000000000003000000000000000000000000000000000000000000000000000000000000000000000000000000000000000000000000000000000000PES00010000001000000000000000000000000
201704070820000200000000000000013777000000000000000137779900000000000000000000CONSUMIDOR FINAL              000000000008000000000000000000000000000000000000000000000000000000000000000000000000000000000000000000000000000000000000PES00010000001000000000000000000000000
201704070820000200000000000000013778000000000000000137789900000000000000000000CONSUMIDOR FINAL              000000000010500000000000000000000000000000000000000000000000000000000000000000000000000000000000000000000000000000000000PES00010000001000000000000000000000000
201704070820000200000000000000013779000000000000000137799900000000000000000000CONSUMIDOR FINAL              000000000009000000000000000000000000000000000000000000000000000000000000000000000000000000000000000000000000000000000000PES00010000001000000000000000000000000
201704070820000200000000000000013780000000000000000137809900000000000000000000CONSUMIDOR FINAL              000000000005850000000000000000000000000000000000000000000000000000000000000000000000000000000000000000000000000000000000PES00010000001000000000000000000000000
201704070820000200000000000000013781000000000000000137819900000000000000000000CONSUMIDOR FINAL              000000000011000000000000000000000000000000000000000000000000000000000000000000000000000000000000000000000000000000000000PES00010000001000000000000000000000000
201704070820000200000000000000013782000000000000000137829900000000000000000000CONSUMIDOR FINAL              000000000012500000000000000000000000000000000000000000000000000000000000000000000000000000000000000000000000000000000000PES00010000001000000000000000000000000
201704070820000200000000000000013783000000000000000137839900000000000000000000CONSUMIDOR FINAL              000000000007500000000000000000000000000000000000000000000000000000000000000000000000000000000000000000000000000000000000PES00010000001000000000000000000000000
201704070820000200000000000000013784000000000000000137849900000000000000000000CONSUMIDOR FINAL              000000000008500000000000000000000000000000000000000000000000000000000000000000000000000000000000000000000000000000000000PES00010000001000000000000000000000000
201704070820000200000000000000013785000000000000000137859900000000000000000000CONSUMIDOR FINAL              000000000016500000000000000000000000000000000000000000000000000000000000000000000000000000000000000000000000000000000000PES00010000001000000000000000000000000
201704070820000200000000000000013786000000000000000137869900000000000000000000CONSUMIDOR FINAL              000000000003500000000000000000000000000000000000000000000000000000000000000000000000000000000000000000000000000000000000PES00010000001000000000000000000000000
201704070820000200000000000000013787000000000000000137879900000000000000000000CONSUMIDOR FINAL              000000000004000000000000000000000000000000000000000000000000000000000000000000000000000000000000000000000000000000000000PES00010000001000000000000000000000000
201704070820000200000000000000013788000000000000000137889900000000000000000000CONSUMIDOR FINAL              000000000008000000000000000000000000000000000000000000000000000000000000000000000000000000000000000000000000000000000000PES00010000001000000000000000000000000
201704070820000200000000000000013789000000000000000137899900000000000000000000CONSUMIDOR FINAL              000000000011500000000000000000000000000000000000000000000000000000000000000000000000000000000000000000000000000000000000PES00010000001000000000000000000000000
201704070820000200000000000000013790000000000000000137909900000000000000000000CONSUMIDOR FINAL              000000000013000000000000000000000000000000000000000000000000000000000000000000000000000000000000000000000000000000000000PES00010000001000000000000000000000000
201704070820000200000000000000013791000000000000000137919900000000000000000000CONSUMIDOR FINAL              000000000005500000000000000000000000000000000000000000000000000000000000000000000000000000000000000000000000000000000000PES00010000001000000000000000000000000
201704070820000200000000000000013792000000000000000137929900000000000000000000CONSUMIDOR FINAL              000000000006500000000000000000000000000000000000000000000000000000000000000000000000000000000000000000000000000000000000PES00010000001000000000000000000000000
201704070820000200000000000000013793000000000000000137939900000000000000000000CONSUMIDOR FINAL              000000000014500000000000000000000000000000000000000000000000000000000000000000000000000000000000000000000000000000000000PES00010000001000000000000000000000000
201704070820000200000000000000013794000000000000000137949900000000000000000000CONSUMIDOR FINAL              000000000011000000000000000000000000000000000000000000000000000000000000000000000000000000000000000000000000000000000000PES00010000001000000000000000000000000
201704070820000200000000000000013795000000000000000137959900000000000000000000CONSUMIDOR FINAL              000000000005500000000000000000000000000000000000000000000000000000000000000000000000000000000000000000000000000000000000PES00010000001000000000000000000000000
201704070820000200000000000000013796000000000000000137969900000000000000000000CONSUMIDOR FINAL              000000000008000000000000000000000000000000000000000000000000000000000000000000000000000000000000000000000000000000000000PES00010000001000000000000000000000000
201704070820000200000000000000013797000000000000000137979900000000000000000000CONSUMIDOR FINAL              000000000003500000000000000000000000000000000000000000000000000000000000000000000000000000000000000000000000000000000000PES00010000001000000000000000000000000
201704070820000200000000000000013798000000000000000137989900000000000000000000CONSUMIDOR FINAL              000000000005000000000000000000000000000000000000000000000000000000000000000000000000000000000000000000000000000000000000PES00010000001000000000000000000000000
201704070820000200000000000000013799000000000000000137999900000000000000000000CONSUMIDOR FINAL              000000000002000000000000000000000000000000000000000000000000000000000000000000000000000000000000000000000000000000000000PES00010000001000000000000000000000000
201704070820000200000000000000013800000000000000000138009900000000000000000000CONSUMIDOR FINAL              000000000004500000000000000000000000000000000000000000000000000000000000000000000000000000000000000000000000000000000000PES00010000001000000000000000000000000
201704070820000200000000000000013801000000000000000138019900000000000000000000CONSUMIDOR FINAL              000000000002000000000000000000000000000000000000000000000000000000000000000000000000000000000000000000000000000000000000PES00010000001000000000000000000000000
201704070820000200000000000000013802000000000000000138029900000000000000000000CONSUMIDOR FINAL              000000000002500000000000000000000000000000000000000000000000000000000000000000000000000000000000000000000000000000000000PES00010000001000000000000000000000000
201704070820000200000000000000013803000000000000000138039900000000000000000000CONSUMIDOR FINAL              000000000003000000000000000000000000000000000000000000000000000000000000000000000000000000000000000000000000000000000000PES00010000001000000000000000000000000
201704070820000200000000000000013804000000000000000138049900000000000000000000CONSUMIDOR FINAL              000000000010000000000000000000000000000000000000000000000000000000000000000000000000000000000000000000000000000000000000PES00010000001000000000000000000000000
201704070820000200000000000000013805000000000000000138059900000000000000000000CONSUMIDOR FINAL              000000000006000000000000000000000000000000000000000000000000000000000000000000000000000000000000000000000000000000000000PES00010000001000000000000000000000000
201704070820000200000000000000013806000000000000000138069900000000000000000000CONSUMIDOR FINAL              000000000009000000000000000000000000000000000000000000000000000000000000000000000000000000000000000000000000000000000000PES00010000001000000000000000000000000
201704070820000200000000000000013807000000000000000138079900000000000000000000CONSUMIDOR FINAL              000000000006000000000000000000000000000000000000000000000000000000000000000000000000000000000000000000000000000000000000PES00010000001000000000000000000000000
201704070820000200000000000000013808000000000000000138089900000000000000000000CONSUMIDOR FINAL              000000000008000000000000000000000000000000000000000000000000000000000000000000000000000000000000000000000000000000000000PES00010000001000000000000000000000000
201704070820000200000000000000013809000000000000000138099900000000000000000000CONSUMIDOR FINAL              000000000004000000000000000000000000000000000000000000000000000000000000000000000000000000000000000000000000000000000000PES00010000001000000000000000000000000
201704070820000200000000000000013811000000000000000138119900000000000000000000CONSUMIDOR FINAL              000000000009000000000000000000000000000000000000000000000000000000000000000000000000000000000000000000000000000000000000PES00010000001000000000000000000000000
201704070820000200000000000000013812000000000000000138129900000000000000000000CONSUMIDOR FINAL              000000000008000000000000000000000000000000000000000000000000000000000000000000000000000000000000000000000000000000000000PES00010000001000000000000000000000000
201704070820000200000000000000013813000000000000000138139900000000000000000000CONSUMIDOR FINAL              000000000004000000000000000000000000000000000000000000000000000000000000000000000000000000000000000000000000000000000000PES00010000001000000000000000000000000
201704070820000200000000000000013814000000000000000138149900000000000000000000CONSUMIDOR FINAL              000000000002000000000000000000000000000000000000000000000000000000000000000000000000000000000000000000000000000000000000PES00010000001000000000000000000000000
201704070820000200000000000000013815000000000000000138159900000000000000000000CONSUMIDOR FINAL              000000000005500000000000000000000000000000000000000000000000000000000000000000000000000000000000000000000000000000000000PES00010000001000000000000000000000000
201704070820000200000000000000013816000000000000000138169900000000000000000000CONSUMIDOR FINAL              000000000002000000000000000000000000000000000000000000000000000000000000000000000000000000000000000000000000000000000000PES00010000001000000000000000000000000
201704070820000200000000000000013817000000000000000138179900000000000000000000CONSUMIDOR FINAL              000000000004500000000000000000000000000000000000000000000000000000000000000000000000000000000000000000000000000000000000PES00010000001000000000000000000000000
201704070820000200000000000000013818000000000000000138189900000000000000000000CONSUMIDOR FINAL              000000000004000000000000000000000000000000000000000000000000000000000000000000000000000000000000000000000000000000000000PES00010000001000000000000000000000000
201704070820000200000000000000013819000000000000000138199900000000000000000000CONSUMIDOR FINAL              000000000005500000000000000000000000000000000000000000000000000000000000000000000000000000000000000000000000000000000000PES00010000001000000000000000000000000
201704070820000200000000000000013820000000000000000138209900000000000000000000CONSUMIDOR FINAL              000000000015000000000000000000000000000000000000000000000000000000000000000000000000000000000000000000000000000000000000PES00010000001000000000000000000000000
201704070820000200000000000000013821000000000000000138219900000000000000000000CONSUMIDOR FINAL              000000000007500000000000000000000000000000000000000000000000000000000000000000000000000000000000000000000000000000000000PES00010000001000000000000000000000000
201704070820000200000000000000013822000000000000000138229900000000000000000000CONSUMIDOR FINAL              000000000002000000000000000000000000000000000000000000000000000000000000000000000000000000000000000000000000000000000000PES00010000001000000000000000000000000
201704070820000200000000000000013823000000000000000138239900000000000000000000CONSUMIDOR FINAL              000000000005000000000000000000000000000000000000000000000000000000000000000000000000000000000000000000000000000000000000PES00010000001000000000000000000000000
201704070820000200000000000000013824000000000000000138249900000000000000000000CONSUMIDOR FINAL              000000000005500000000000000000000000000000000000000000000000000000000000000000000000000000000000000000000000000000000000PES00010000001000000000000000000000000
201704070820000200000000000000013825000000000000000138259900000000000000000000CONSUMIDOR FINAL              000000000002000000000000000000000000000000000000000000000000000000000000000000000000000000000000000000000000000000000000PES00010000001000000000000000000000000
201704070820000200000000000000013826000000000000000138269900000000000000000000CONSUMIDOR FINAL              000000000016000000000000000000000000000000000000000000000000000000000000000000000000000000000000000000000000000000000000PES00010000001000000000000000000000000
201704070820000200000000000000013827000000000000000138279900000000000000000000CONSUMIDOR FINAL              000000000008000000000000000000000000000000000000000000000000000000000000000000000000000000000000000000000000000000000000PES00010000001000000000000000000000000
201704070820000200000000000000013828000000000000000138289900000000000000000000CONSUMIDOR FINAL              000000000005500000000000000000000000000000000000000000000000000000000000000000000000000000000000000000000000000000000000PES00010000001000000000000000000000000
201704070820000200000000000000013829000000000000000138299900000000000000000000CONSUMIDOR FINAL              000000000004000000000000000000000000000000000000000000000000000000000000000000000000000000000000000000000000000000000000PES00010000001000000000000000000000000
201704070820000200000000000000013830000000000000000138309900000000000000000000CONSUMIDOR FINAL              000000000006000000000000000000000000000000000000000000000000000000000000000000000000000000000000000000000000000000000000PES00010000001000000000000000000000000
201704070820000200000000000000013831000000000000000138319900000000000000000000CONSUMIDOR FINAL              000000000008000000000000000000000000000000000000000000000000000000000000000000000000000000000000000000000000000000000000PES00010000001000000000000000000000000
201704070820000200000000000000013832000000000000000138329900000000000000000000CONSUMIDOR FINAL              000000000005500000000000000000000000000000000000000000000000000000000000000000000000000000000000000000000000000000000000PES00010000001000000000000000000000000
201704070820000200000000000000013833000000000000000138339900000000000000000000CONSUMIDOR FINAL              000000000004500000000000000000000000000000000000000000000000000000000000000000000000000000000000000000000000000000000000PES00010000001000000000000000000000000
201704070820000200000000000000013834000000000000000138349900000000000000000000CONSUMIDOR FINAL              000000000005500000000000000000000000000000000000000000000000000000000000000000000000000000000000000000000000000000000000PES00010000001000000000000000000000000
201704070820000200000000000000013835000000000000000138359900000000000000000000CONSUMIDOR FINAL              000000000006500000000000000000000000000000000000000000000000000000000000000000000000000000000000000000000000000000000000PES00010000001000000000000000000000000
201704070820000200000000000000013836000000000000000138369900000000000000000000CONSUMIDOR FINAL              000000000006500000000000000000000000000000000000000000000000000000000000000000000000000000000000000000000000000000000000PES00010000001000000000000000000000000
201704070820000200000000000000013837000000000000000138379900000000000000000000CONSUMIDOR FINAL              000000000009000000000000000000000000000000000000000000000000000000000000000000000000000000000000000000000000000000000000PES00010000001000000000000000000000000
201704070820000200000000000000013838000000000000000138389900000000000000000000CONSUMIDOR FINAL              000000000008500000000000000000000000000000000000000000000000000000000000000000000000000000000000000000000000000000000000PES00010000001000000000000000000000000
201704070820000200000000000000013839000000000000000138399900000000000000000000CONSUMIDOR FINAL              000000000002000000000000000000000000000000000000000000000000000000000000000000000000000000000000000000000000000000000000PES00010000001000000000000000000000000
201704070820000200000000000000013840000000000000000138409900000000000000000000CONSUMIDOR FINAL              000000000005500000000000000000000000000000000000000000000000000000000000000000000000000000000000000000000000000000000000PES00010000001000000000000000000000000
201704070820000200000000000000013841000000000000000138419900000000000000000000CONSUMIDOR FINAL              000000000010000000000000000000000000000000000000000000000000000000000000000000000000000000000000000000000000000000000000PES00010000001000000000000000000000000
201704070820000200000000000000013842000000000000000138429900000000000000000000CONSUMIDOR FINAL              000000000004500000000000000000000000000000000000000000000000000000000000000000000000000000000000000000000000000000000000PES00010000001000000000000000000000000
201704070820000200000000000000013843000000000000000138439900000000000000000000CONSUMIDOR FINAL              000000000005000000000000000000000000000000000000000000000000000000000000000000000000000000000000000000000000000000000000PES00010000001000000000000000000000000
201704070820000200000000000000013844000000000000000138449900000000000000000000CONSUMIDOR FINAL              000000000019000000000000000000000000000000000000000000000000000000000000000000000000000000000000000000000000000000000000PES00010000001000000000000000000000000
201704070820000200000000000000013845000000000000000138459900000000000000000000CONSUMIDOR FINAL              000000000002000000000000000000000000000000000000000000000000000000000000000000000000000000000000000000000000000000000000PES00010000001000000000000000000000000
201704070820000200000000000000013846000000000000000138469900000000000000000000CONSUMIDOR FINAL              000000000007500000000000000000000000000000000000000000000000000000000000000000000000000000000000000000000000000000000000PES00010000001000000000000000000000000
201704070820000200000000000000013847000000000000000138479900000000000000000000CONSUMIDOR FINAL              000000000008000000000000000000000000000000000000000000000000000000000000000000000000000000000000000000000000000000000000PES00010000001000000000000000000000000
201704070820000200000000000000013848000000000000000138489900000000000000000000CONSUMIDOR FINAL              000000000002000000000000000000000000000000000000000000000000000000000000000000000000000000000000000000000000000000000000PES00010000001000000000000000000000000
201704080820000200000000000000013849000000000000000138499900000000000000000000CONSUMIDOR FINAL              000000000016000000000000000000000000000000000000000000000000000000000000000000000000000000000000000000000000000000000000PES00010000001000000000000000000000000
201704080820000200000000000000013850000000000000000138509900000000000000000000CONSUMIDOR FINAL              000000000009500000000000000000000000000000000000000000000000000000000000000000000000000000000000000000000000000000000000PES00010000001000000000000000000000000
201704080820000200000000000000013851000000000000000138519900000000000000000000CONSUMIDOR FINAL              000000000012500000000000000000000000000000000000000000000000000000000000000000000000000000000000000000000000000000000000PES00010000001000000000000000000000000
201704080820000200000000000000013852000000000000000138529900000000000000000000CONSUMIDOR FINAL              000000000014000000000000000000000000000000000000000000000000000000000000000000000000000000000000000000000000000000000000PES00010000001000000000000000000000000
201704080820000200000000000000013853000000000000000138539900000000000000000000CONSUMIDOR FINAL              000000000009000000000000000000000000000000000000000000000000000000000000000000000000000000000000000000000000000000000000PES00010000001000000000000000000000000
201704080820000200000000000000013854000000000000000138549900000000000000000000CONSUMIDOR FINAL              000000000013500000000000000000000000000000000000000000000000000000000000000000000000000000000000000000000000000000000000PES00010000001000000000000000000000000
201704080820000200000000000000013855000000000000000138559900000000000000000000CONSUMIDOR FINAL              000000000006300000000000000000000000000000000000000000000000000000000000000000000000000000000000000000000000000000000000PES00010000001000000000000000000000000
201704080820000200000000000000013856000000000000000138569900000000000000000000CONSUMIDOR FINAL              000000000025500000000000000000000000000000000000000000000000000000000000000000000000000000000000000000000000000000000000PES00010000001000000000000000000000000
201704080820000200000000000000013857000000000000000138579900000000000000000000CONSUMIDOR FINAL              000000000007500000000000000000000000000000000000000000000000000000000000000000000000000000000000000000000000000000000000PES00010000001000000000000000000000000
201704080820000200000000000000013858000000000000000138589900000000000000000000CONSUMIDOR FINAL              000000000005400000000000000000000000000000000000000000000000000000000000000000000000000000000000000000000000000000000000PES00010000001000000000000000000000000
201704080820000200000000000000013859000000000000000138599900000000000000000000CONSUMIDOR FINAL              000000000014000000000000000000000000000000000000000000000000000000000000000000000000000000000000000000000000000000000000PES00010000001000000000000000000000000
201704080820000200000000000000013860000000000000000138609900000000000000000000CONSUMIDOR FINAL              000000000004500000000000000000000000000000000000000000000000000000000000000000000000000000000000000000000000000000000000PES00010000001000000000000000000000000
201704080820000200000000000000013861000000000000000138619900000000000000000000CONSUMIDOR FINAL              000000000013500000000000000000000000000000000000000000000000000000000000000000000000000000000000000000000000000000000000PES00010000001000000000000000000000000
201704080820000200000000000000013862000000000000000138629900000000000000000000CONSUMIDOR FINAL              000000000012500000000000000000000000000000000000000000000000000000000000000000000000000000000000000000000000000000000000PES00010000001000000000000000000000000
201704080820000200000000000000013863000000000000000138639900000000000000000000CONSUMIDOR FINAL              000000000009000000000000000000000000000000000000000000000000000000000000000000000000000000000000000000000000000000000000PES00010000001000000000000000000000000
201704080820000200000000000000013864000000000000000138649900000000000000000000CONSUMIDOR FINAL              000000000005000000000000000000000000000000000000000000000000000000000000000000000000000000000000000000000000000000000000PES00010000001000000000000000000000000
201704080820000200000000000000013865000000000000000138659900000000000000000000CONSUMIDOR FINAL              000000000005500000000000000000000000000000000000000000000000000000000000000000000000000000000000000000000000000000000000PES00010000001000000000000000000000000
201704080820000200000000000000013866000000000000000138669900000000000000000000CONSUMIDOR FINAL              000000000007500000000000000000000000000000000000000000000000000000000000000000000000000000000000000000000000000000000000PES00010000001000000000000000000000000
201704080820000200000000000000013867000000000000000138679900000000000000000000CONSUMIDOR FINAL              000000000012500000000000000000000000000000000000000000000000000000000000000000000000000000000000000000000000000000000000PES00010000001000000000000000000000000
201704080820000200000000000000013868000000000000000138689900000000000000000000CONSUMIDOR FINAL              000000000004500000000000000000000000000000000000000000000000000000000000000000000000000000000000000000000000000000000000PES00010000001000000000000000000000000
201704080820000200000000000000013869000000000000000138699900000000000000000000CONSUMIDOR FINAL              000000000010000000000000000000000000000000000000000000000000000000000000000000000000000000000000000000000000000000000000PES00010000001000000000000000000000000
201704080820000200000000000000013870000000000000000138709900000000000000000000CONSUMIDOR FINAL              000000000002000000000000000000000000000000000000000000000000000000000000000000000000000000000000000000000000000000000000PES00010000001000000000000000000000000
201704080820000200000000000000013871000000000000000138719900000000000000000000CONSUMIDOR FINAL              000000000009500000000000000000000000000000000000000000000000000000000000000000000000000000000000000000000000000000000000PES00010000001000000000000000000000000
201704080820000200000000000000013872000000000000000138729900000000000000000000CONSUMIDOR FINAL              000000000004500000000000000000000000000000000000000000000000000000000000000000000000000000000000000000000000000000000000PES00010000001000000000000000000000000
201704080820000200000000000000013873000000000000000138739900000000000000000000CONSUMIDOR FINAL              000000000008000000000000000000000000000000000000000000000000000000000000000000000000000000000000000000000000000000000000PES00010000001000000000000000000000000
201704080820000200000000000000013874000000000000000138749900000000000000000000CONSUMIDOR FINAL              000000000010500000000000000000000000000000000000000000000000000000000000000000000000000000000000000000000000000000000000PES00010000001000000000000000000000000
201704080820000200000000000000013875000000000000000138759900000000000000000000CONSUMIDOR FINAL              000000000005500000000000000000000000000000000000000000000000000000000000000000000000000000000000000000000000000000000000PES00010000001000000000000000000000000
201704080820000200000000000000013876000000000000000138769900000000000000000000CONSUMIDOR FINAL              000000000006500000000000000000000000000000000000000000000000000000000000000000000000000000000000000000000000000000000000PES00010000001000000000000000000000000
201704080820000200000000000000013877000000000000000138779900000000000000000000CONSUMIDOR FINAL              000000000005500000000000000000000000000000000000000000000000000000000000000000000000000000000000000000000000000000000000PES00010000001000000000000000000000000
201704080820000200000000000000013878000000000000000138789900000000000000000000CONSUMIDOR FINAL              000000000008000000000000000000000000000000000000000000000000000000000000000000000000000000000000000000000000000000000000PES00010000001000000000000000000000000
201704080820000200000000000000013879000000000000000138799900000000000000000000CONSUMIDOR FINAL              000000000005500000000000000000000000000000000000000000000000000000000000000000000000000000000000000000000000000000000000PES00010000001000000000000000000000000
201704080820000200000000000000013880000000000000000138809900000000000000000000CONSUMIDOR FINAL              000000000002000000000000000000000000000000000000000000000000000000000000000000000000000000000000000000000000000000000000PES00010000001000000000000000000000000
201704080820000200000000000000013881000000000000000138819900000000000000000000CONSUMIDOR FINAL              000000000004000000000000000000000000000000000000000000000000000000000000000000000000000000000000000000000000000000000000PES00010000001000000000000000000000000
201704080820000200000000000000013882000000000000000138829900000000000000000000CONSUMIDOR FINAL              000000000002000000000000000000000000000000000000000000000000000000000000000000000000000000000000000000000000000000000000PES00010000001000000000000000000000000
201704080820000200000000000000013883000000000000000138839900000000000000000000CONSUMIDOR FINAL              000000000004000000000000000000000000000000000000000000000000000000000000000000000000000000000000000000000000000000000000PES00010000001000000000000000000000000
201704080820000200000000000000013884000000000000000138849900000000000000000000CONSUMIDOR FINAL              000000000010500000000000000000000000000000000000000000000000000000000000000000000000000000000000000000000000000000000000PES00010000001000000000000000000000000
201704080820000200000000000000013885000000000000000138859900000000000000000000CONSUMIDOR FINAL              000000000011500000000000000000000000000000000000000000000000000000000000000000000000000000000000000000000000000000000000PES00010000001000000000000000000000000
201704080820000200000000000000013886000000000000000138869900000000000000000000CONSUMIDOR FINAL              000000000004500000000000000000000000000000000000000000000000000000000000000000000000000000000000000000000000000000000000PES00010000001000000000000000000000000
201704080820000200000000000000013887000000000000000138879900000000000000000000CONSUMIDOR FINAL              000000000011000000000000000000000000000000000000000000000000000000000000000000000000000000000000000000000000000000000000PES00010000001000000000000000000000000
201704080820000200000000000000013888000000000000000138889900000000000000000000CONSUMIDOR FINAL              000000000004500000000000000000000000000000000000000000000000000000000000000000000000000000000000000000000000000000000000PES00010000001000000000000000000000000
201704080820000200000000000000013889000000000000000138899900000000000000000000CONSUMIDOR FINAL              000000000013500000000000000000000000000000000000000000000000000000000000000000000000000000000000000000000000000000000000PES00010000001000000000000000000000000
201704080820000200000000000000013890000000000000000138909900000000000000000000CONSUMIDOR FINAL              000000000004000000000000000000000000000000000000000000000000000000000000000000000000000000000000000000000000000000000000PES00010000001000000000000000000000000
201704080820000200000000000000013891000000000000000138919900000000000000000000CONSUMIDOR FINAL              000000000013500000000000000000000000000000000000000000000000000000000000000000000000000000000000000000000000000000000000PES00010000001000000000000000000000000
201704080820000200000000000000013892000000000000000138929900000000000000000000CONSUMIDOR FINAL              000000000004000000000000000000000000000000000000000000000000000000000000000000000000000000000000000000000000000000000000PES00010000001000000000000000000000000
201704080820000200000000000000013893000000000000000138939900000000000000000000CONSUMIDOR FINAL              000000000007000000000000000000000000000000000000000000000000000000000000000000000000000000000000000000000000000000000000PES00010000001000000000000000000000000
201704080820000200000000000000013894000000000000000138949900000000000000000000CONSUMIDOR FINAL              000000000008000000000000000000000000000000000000000000000000000000000000000000000000000000000000000000000000000000000000PES00010000001000000000000000000000000
201704080820000200000000000000013895000000000000000138959900000000000000000000CONSUMIDOR FINAL              000000000004500000000000000000000000000000000000000000000000000000000000000000000000000000000000000000000000000000000000PES00010000001000000000000000000000000
201704080820000200000000000000013896000000000000000138969900000000000000000000CONSUMIDOR FINAL              000000000003500000000000000000000000000000000000000000000000000000000000000000000000000000000000000000000000000000000000PES00010000001000000000000000000000000
201704080820000200000000000000013897000000000000000138979900000000000000000000CONSUMIDOR FINAL              000000000004000000000000000000000000000000000000000000000000000000000000000000000000000000000000000000000000000000000000PES00010000001000000000000000000000000
201704080820000200000000000000013898000000000000000138989900000000000000000000CONSUMIDOR FINAL              000000000004000000000000000000000000000000000000000000000000000000000000000000000000000000000000000000000000000000000000PES00010000001000000000000000000000000
201704080820000200000000000000013899000000000000000138999900000000000000000000CONSUMIDOR FINAL              000000000010000000000000000000000000000000000000000000000000000000000000000000000000000000000000000000000000000000000000PES00010000001000000000000000000000000
201704080820000200000000000000013900000000000000000139009900000000000000000000CONSUMIDOR FINAL              000000000004500000000000000000000000000000000000000000000000000000000000000000000000000000000000000000000000000000000000PES00010000001000000000000000000000000
201704080820000200000000000000013901000000000000000139019900000000000000000000CONSUMIDOR FINAL              000000000010000000000000000000000000000000000000000000000000000000000000000000000000000000000000000000000000000000000000PES00010000001000000000000000000000000
201704080820000200000000000000013902000000000000000139029900000000000000000000CONSUMIDOR FINAL              000000000004500000000000000000000000000000000000000000000000000000000000000000000000000000000000000000000000000000000000PES00010000001000000000000000000000000
201704080820000200000000000000013903000000000000000139039900000000000000000000CONSUMIDOR FINAL              000000000005000000000000000000000000000000000000000000000000000000000000000000000000000000000000000000000000000000000000PES00010000001000000000000000000000000
201704080820000200000000000000013904000000000000000139049900000000000000000000CONSUMIDOR FINAL              000000000009000000000000000000000000000000000000000000000000000000000000000000000000000000000000000000000000000000000000PES00010000001000000000000000000000000
201704080820000200000000000000013905000000000000000139059900000000000000000000CONSUMIDOR FINAL              000000000019000000000000000000000000000000000000000000000000000000000000000000000000000000000000000000000000000000000000PES00010000001000000000000000000000000
201704080820000200000000000000013906000000000000000139069900000000000000000000CONSUMIDOR FINAL              000000000002500000000000000000000000000000000000000000000000000000000000000000000000000000000000000000000000000000000000PES00010000001000000000000000000000000
201704080820000200000000000000013907000000000000000139079900000000000000000000CONSUMIDOR FINAL              000000000004500000000000000000000000000000000000000000000000000000000000000000000000000000000000000000000000000000000000PES00010000001000000000000000000000000
201704080820000200000000000000013908000000000000000139089900000000000000000000CONSUMIDOR FINAL              000000000002000000000000000000000000000000000000000000000000000000000000000000000000000000000000000000000000000000000000PES00010000001000000000000000000000000
201704080820000200000000000000013909000000000000000139099900000000000000000000CONSUMIDOR FINAL              000000000007500000000000000000000000000000000000000000000000000000000000000000000000000000000000000000000000000000000000PES00010000001000000000000000000000000
201704080820000200000000000000013910000000000000000139109900000000000000000000CONSUMIDOR FINAL              000000000023000000000000000000000000000000000000000000000000000000000000000000000000000000000000000000000000000000000000PES00010000001000000000000000000000000
201704080820000200000000000000013911000000000000000139119900000000000000000000CONSUMIDOR FINAL              000000000008000000000000000000000000000000000000000000000000000000000000000000000000000000000000000000000000000000000000PES00010000001000000000000000000000000
201704080820000200000000000000013912000000000000000139129900000000000000000000CONSUMIDOR FINAL              000000000007000000000000000000000000000000000000000000000000000000000000000000000000000000000000000000000000000000000000PES00010000001000000000000000000000000
201704080820000200000000000000013913000000000000000139139900000000000000000000CONSUMIDOR FINAL              000000000007000000000000000000000000000000000000000000000000000000000000000000000000000000000000000000000000000000000000PES00010000001000000000000000000000000
201704080820000200000000000000013914000000000000000139149900000000000000000000CONSUMIDOR FINAL              000000000002250000000000000000000000000000000000000000000000000000000000000000000000000000000000000000000000000000000000PES00010000001000000000000000000000000
201704080820000200000000000000013915000000000000000139159900000000000000000000CONSUMIDOR FINAL              000000000012000000000000000000000000000000000000000000000000000000000000000000000000000000000000000000000000000000000000PES00010000001000000000000000000000000
201704080820000200000000000000013916000000000000000139169900000000000000000000CONSUMIDOR FINAL              000000000004000000000000000000000000000000000000000000000000000000000000000000000000000000000000000000000000000000000000PES00010000001000000000000000000000000
201704080820000200000000000000013917000000000000000139179900000000000000000000CONSUMIDOR FINAL              000000000005500000000000000000000000000000000000000000000000000000000000000000000000000000000000000000000000000000000000PES00010000001000000000000000000000000
201704080820000200000000000000013918000000000000000139189900000000000000000000CONSUMIDOR FINAL              000000000002000000000000000000000000000000000000000000000000000000000000000000000000000000000000000000000000000000000000PES00010000001000000000000000000000000
201704080820000200000000000000013919000000000000000139199900000000000000000000CONSUMIDOR FINAL              000000000008000000000000000000000000000000000000000000000000000000000000000000000000000000000000000000000000000000000000PES00010000001000000000000000000000000
201704080820000200000000000000013920000000000000000139209900000000000000000000CONSUMIDOR FINAL              000000000004000000000000000000000000000000000000000000000000000000000000000000000000000000000000000000000000000000000000PES00010000001000000000000000000000000
201704080820000200000000000000013921000000000000000139219900000000000000000000CONSUMIDOR FINAL              000000000004000000000000000000000000000000000000000000000000000000000000000000000000000000000000000000000000000000000000PES00010000001000000000000000000000000
201704080820000200000000000000013922000000000000000139229900000000000000000000CONSUMIDOR FINAL              000000000008000000000000000000000000000000000000000000000000000000000000000000000000000000000000000000000000000000000000PES00010000001000000000000000000000000
201704080820000200000000000000013923000000000000000139239900000000000000000000CONSUMIDOR FINAL              000000000005500000000000000000000000000000000000000000000000000000000000000000000000000000000000000000000000000000000000PES00010000001000000000000000000000000
201704080820000200000000000000013924000000000000000139249900000000000000000000CONSUMIDOR FINAL              000000000029000000000000000000000000000000000000000000000000000000000000000000000000000000000000000000000000000000000000PES00010000001000000000000000000000000
201704090820000200000000000000013925000000000000000139259900000000000000000000CONSUMIDOR FINAL              000000000005500000000000000000000000000000000000000000000000000000000000000000000000000000000000000000000000000000000000PES00010000001000000000000000000000000
201704090820000200000000000000013926000000000000000139269900000000000000000000CONSUMIDOR FINAL              000000000008500000000000000000000000000000000000000000000000000000000000000000000000000000000000000000000000000000000000PES00010000001000000000000000000000000
201704090820000200000000000000013927000000000000000139279900000000000000000000CONSUMIDOR FINAL              000000000003500000000000000000000000000000000000000000000000000000000000000000000000000000000000000000000000000000000000PES00010000001000000000000000000000000
201704090820000200000000000000013928000000000000000139289900000000000000000000CONSUMIDOR FINAL              000000000007500000000000000000000000000000000000000000000000000000000000000000000000000000000000000000000000000000000000PES00010000001000000000000000000000000
201704090820000200000000000000013929000000000000000139299900000000000000000000CONSUMIDOR FINAL              000000000008000000000000000000000000000000000000000000000000000000000000000000000000000000000000000000000000000000000000PES00010000001000000000000000000000000
201704090820000200000000000000013930000000000000000139309900000000000000000000CONSUMIDOR FINAL              000000000010800000000000000000000000000000000000000000000000000000000000000000000000000000000000000000000000000000000000PES00010000001000000000000000000000000
201704090820000200000000000000013931000000000000000139319900000000000000000000CONSUMIDOR FINAL              000000000004050000000000000000000000000000000000000000000000000000000000000000000000000000000000000000000000000000000000PES00010000001000000000000000000000000
201704090820000200000000000000013932000000000000000139329900000000000000000000CONSUMIDOR FINAL              000000000010000000000000000000000000000000000000000000000000000000000000000000000000000000000000000000000000000000000000PES00010000001000000000000000000000000
201704090820000200000000000000013933000000000000000139339900000000000000000000CONSUMIDOR FINAL              000000000014000000000000000000000000000000000000000000000000000000000000000000000000000000000000000000000000000000000000PES00010000001000000000000000000000000
201704090820000200000000000000013934000000000000000139349900000000000000000000CONSUMIDOR FINAL              000000000003500000000000000000000000000000000000000000000000000000000000000000000000000000000000000000000000000000000000PES00010000001000000000000000000000000
201704090820000200000000000000013935000000000000000139359900000000000000000000CONSUMIDOR FINAL              000000000004000000000000000000000000000000000000000000000000000000000000000000000000000000000000000000000000000000000000PES00010000001000000000000000000000000
201704090820000200000000000000013936000000000000000139369900000000000000000000CONSUMIDOR FINAL              000000000003500000000000000000000000000000000000000000000000000000000000000000000000000000000000000000000000000000000000PES00010000001000000000000000000000000
201704090820000200000000000000013937000000000000000139379900000000000000000000CONSUMIDOR FINAL              000000000006000000000000000000000000000000000000000000000000000000000000000000000000000000000000000000000000000000000000PES00010000001000000000000000000000000
201704090820000200000000000000013938000000000000000139389900000000000000000000CONSUMIDOR FINAL              000000000009000000000000000000000000000000000000000000000000000000000000000000000000000000000000000000000000000000000000PES00010000001000000000000000000000000
201704090820000200000000000000013939000000000000000139399900000000000000000000CONSUMIDOR FINAL              000000000007000000000000000000000000000000000000000000000000000000000000000000000000000000000000000000000000000000000000PES00010000001000000000000000000000000
201704090820000200000000000000013940000000000000000139409900000000000000000000CONSUMIDOR FINAL              000000000023000000000000000000000000000000000000000000000000000000000000000000000000000000000000000000000000000000000000PES00010000001000000000000000000000000
201704090820000200000000000000013941000000000000000139419900000000000000000000CONSUMIDOR FINAL              000000000007000000000000000000000000000000000000000000000000000000000000000000000000000000000000000000000000000000000000PES00010000001000000000000000000000000
