201701310010000100000000000020170101                8000000000030500008454BANCO SANTANDER RIO           000000000071148000000000000000000000000000000000000000000000000000000000000000000000000000000000000000000000000000000000PES00010000001000000000000000000000000000000000000000000                              000000000000000
201701310010000100000000000020170102                8000000000030500008454BANCO SANTANDER RIO           000000000001065000000000000000000000000000000000000000000000000000000000000000000000000000000000000000000000000000000000PES00010000001000000000000000000000000000000000000000000                              000000000000000
201702230010000400000000000000009792                8000000000020104513825HECTOR H MAESTRO              000000000502949000000000000000000000000000000000000000000000000000000000000000000000000000000000000000000000000000000000PES00010000001000000000000000000000000000000000000000000                              000000000000000
201702230010000400000000000000009791                8000000000020104513825HECTOR H MAESTRO              000000000192747000000000000000000000000000000000000000000000000000000000000000000000000000000000000000000000000000000000PES00010000001000000000000000000000000000000000000000000                              000000000000000
201701310010000400000000000000009294                8000000000020104513825HECTOR H MAESTRO              000000000206384000000000144201000000000000000000000000000000000000000000000000000000000000000000000000000000000000000000PES00010000002000000000000000000000000000000000000000000                              000000000000000
201701310010000400000000000111119294                8000000000020104513825HECTOR H MAESTRO              000000000117006000000000000000000000000000000000000000000000000000000000000000000000000000000000000000000000000000000000PES00010000001000000000000000000000000000000000000000000                              000000000000000
201701260010000400000000000000009209                8000000000020104513825HECTOR H MAESTRO              000000000244011000000000000000000000000000000000000000000000000000000000000000000000000000000000000000000000000000000000PES00010000002000000000000000000000000000000000000000000                              000000000000000
201701260010000400000000000111119209                8000000000020104513825HECTOR H MAESTRO              000000000117149000000000000000000000000000000000000000000000000000000000000000000000000000000000000000000000000000000000PES00010000001000000000000000000000000000000000000000000                              000000000000000
201702210010000400000000000000009743                8000000000020104513825HECTOR H MAESTRO              000000000723499000000000000000000000000000000000000000000000000000000000000000000000000000000000000000000000000000000000PES00010000002000000000000000000000000000000000000000000                              000000000000000
201702210010000400000000000111119743                8000000000020104513825HECTOR H MAESTRO              000000000821737000000000000000000000000000000000000000000000000000000000000000000000000000000000000000000000000000000000PES00010000001000000000000000000000000000000000000000000                              000000000000000
201702200010001500000000000000018457                8000000000030576374247AB CONSTRUCCIONES SRL         000000000209450000000000000000000000000000000000000000000000000000000000000000000000005067000000000000000000000000000000PES00010000001000000000000000000000000000000000000000000                              000000000000000
201612230010001500000000000000016873                8000000000030576374247AB CONSTRUCCIONES SRL         000000004526402000000000000000000000000000000000000000000000000000000000000000000000109510000000000000000000000000000000PES00010000001000000000000000000000000000000000000000000                              000000000000000
201701180010001500000000000000017505                8000000000030576374247AB CONSTRUCCIONES SRL         000000007146384000000000000000000000000000000000000000000000000000000000000000000000172896000000000000000000000000000000PES00010000001000000000000000000000000000000000000000000                              000000000000000
201702200030001500000000000000003540                8000000000030576374247AB CONSTRUCCIONES SRL         000000000091418000000000000000000000000000000000000000000000000000000000000000000000002212000000000000000000000000000000PES00010000001000000000000000000000000000000000000000000                              000000000000000
201612290010010600000000000000007728                8000000000030559715081SUPERMAT SA                   000000006681928000000000000000000000000000000000000000000000000000000000000000000000121982000000000000000000000000000000PES00010000001000000000000000000000000000000000000000000                              000000000000000
