201705020010000700000000000000003141000000000000000031418000000000030710387571Transporte Frios del Nort     000000001185101000000000000000000000000000000000000000000000000000000000000000000000000000000000000000000000000000000000PES00010000001000000000000000020170502
201705020010000700000000000000003142000000000000000031428000000000030707474307Crew Live S.A                 000000000016808000000000000000000000000000000000000000000000000000000000000000000000000000000000000000000000000000000000PES00010000001000000000000000020170502
201705020010000700000000000000003143000000000000000031438000000000027065355820Galli Martina Marta Susan     000000000003060000000000000000000000000000000000000000000000000000000000000000000000000000000000000000000000000000000000PES00010000001000000000000000020170502
201705020010000700000000000000003144000000000000000031448000000000020162972147Chuquisaca Victor             000000000013218000000000000000000000000000000000000000000000000000000000000000000000000000000000000000000000000000000000PES00010000001000000000000000020170502
201705020010000700000000000000003145000000000000000031458000000000020249689131Nanni Construcciones          000000000036805000000000000000000000000000000000000000000000000000000000000000000000000000000000000000000000000000000000PES00010000001000000000000000020170502
201705020010000700000000000000003146000000000000000031468000000000020000000001Escuela 4001 Juan Bautist     000000000071482000000000000000000000000000000000000000000000000000000000000000000000000000000000000000000000000000000000PES00010000001000000000000000020170502
201705020010000700000000000000003147000000000000000031478000000000020368030113Salvatore Enzo Maximilian     000000000038807000000000000000000000000000000000000000000000000000000000000000000000000000000000000000000000000000000000PES00010000001000000000000000020170502
201705020010000700000000000000003148000000000000000031488000000000030708323388Schej Jorge y Nadia Schej     000000000010509000000000000000000000000000000000000000000000000000000000000000000000000000000000000000000000000000000000PES00010000001000000000000000020170502
201705020010000700000000000000003149000000000000000031498000000000030501522496Vicente Moncho Construcci     000000053000909000000000000000000000000000000000000000000000000000000000000000000000000000000000000000000000000000000000PES00010000001000000000000000020170502
201705020010000700000000000000003150000000000000000031508000000000020115920260Brizuela Victor Manuel        000000000006000000000000000000000000000000000000000000000000000000000000000000000000000000000000000000000000000000000000PES00010000001000000000000000020170502
201705020010000700000000000000003151000000000000000031518000000000020203999519Delta Computacion             000000000018506000000000000000000000000000000000000000000000000000000000000000000000000000000000000000000000000000000000PES00010000001000000000000000020170502
201705020010000700000000000000003152000000000000000031528000000000027929338923Gimenez  Nancy                000000000042501000000000000000000000000000000000000000000000000000000000000000000000000000000000000000000000000000000000PES00010000001000000000000000020170502
201705020010000700000000000000003153000000000000000031538000000000020339708720Otatti Lee Juan Enrique       000000000087614000000000000000000000000000000000000000000000000000000000000000000000000000000000000000000000000000000000PES00010000001000000000000000020170502
201705020060000700000000000000000981000000000000000009818000000000020000000001Escuela 4001 Juan Bautist     000000000071485000000000000000000000000000000000000000000000000000000000000000000000000000000000000000000000000000000000PES00010000001000000000000000020170502
201705020060000700000000000000000982000000000000000009828000000000030656747834Municipalidad de San Lore     000000010401144000000000000000000000000000000000000000000000000000000000000000000000000000000000000000000000000000000000PES00010000001000000000000000020170502
201705020060000700000000000000000983000000000000000009838000000000030656747834Municipalidad de San Lore     000000000261482000000000000000000000000000000000000000000000000000000000000000000000000000000000000000000000000000000000PES00010000001000000000000000020170502
201705020060000700000000000000000984000000000000000009848000000000030656747834Municipalidad de San Lore     000000000101650000000000000000000000000000000000000000000000000000000000000000000000000000000000000000000000000000000000PES00010000001000000000000000020170502
201705020060000700000000000000000985000000000000000009858000000000030656747834Municipalidad de San Lore     000000000499500000000000000000000000000000000000000000000000000000000000000000000000000000000000000000000000000000000000PES00010000001000000000000000020170502
201705020060000700000000000000000986000000000000000009868000000000030656747834Municipalidad de San Lore     000000001626390000000000000000000000000000000000000000000000000000000000000000000000000000000000000000000000000000000000PES00010000001000000000000000020170502
201705020060000700000000000000000987000000000000000009878000000000030656747834Municipalidad de San Lore     000000001220832000000000000000000000000000000000000000000000000000000000000000000000000000000000000000000000000000000000PES00010000001000000000000000020170502
201705020060000700000000000000000988000000000000000009888000000000030656747834Municipalidad de San Lore     000000000523440000000000000000000000000000000000000000000000000000000000000000000000000000000000000000000000000000000000PES00010000001000000000000000020170502
201705020060000700000000000000000989000000000000000009898000000000030656747834Municipalidad de San Lore     000000000023400000000000000000000000000000000000000000000000000000000000000000000000000000000000000000000000000000000000PES00010000001000000000000000020170502
201705020060000700000000000000000990000000000000000009908000000000030656747834Municipalidad de San Lore     000000000230148000000000000000000000000000000000000000000000000000000000000000000000000000000000000000000000000000000000PES00010000001000000000000000020170502
201705020060000700000000000000000991000000000000000009918000000000030656747834Municipalidad de San Lore     000000000063180000000000000000000000000000000000000000000000000000000000000000000000000000000000000000000000000000000000PES00010000001000000000000000020170502
201705020060000700000000000000000992000000000000000009928000000000030656747834Municipalidad de San Lore     000000000058320000000000000000000000000000000000000000000000000000000000000000000000000000000000000000000000000000000000PES00010000001000000000000000020170502
201705020060000700000000000000000993000000000000000009938000000000030656747834Municipalidad de San Lore     000000000474365000000000000000000000000000000000000000000000000000000000000000000000000000000000000000000000000000000000PES00010000001000000000000000020170502
201705020060000700000000000000000994000000000000000009948000000000030656747834Municipalidad de San Lore     000000000423540000000000000000000000000000000000000000000000000000000000000000000000000000000000000000000000000000000000PES00010000001000000000000000020170502
201705020060000700000000000000000995000000000000000009958000000000030708375280Salta Del  Tucuman S A        000000001125056000000000000000000000000000000000000000000000000000000000000000000000000000000000000000000000000000000000PES00010000001000000000000000020170502
201705020060000700000000000000000996000000000000000009968000000000030656747834Municipalidad de San Lore     000000000072336000000000000000000000000000000000000000000000000000000000000000000000000000000000000000000000000000000000PES00010000001000000000000000020170502
201705020060000700000000000000000997000000000000000009978000000000030656747834Municipalidad de San Lore     000000000051570000000000000000000000000000000000000000000000000000000000000000000000000000000000000000000000000000000000PES00010000001000000000000000020170502
201705020060000700000000000000000998000000000000000009988000000000030656747834Municipalidad de San Lore     000000000010001000000000000000000000000000000000000000000000000000000000000000000000000000000000000000000000000000000000PES00010000001000000000000000020170502
201705020060000700000000000000000999000000000000000009998000000000030656747834Municipalidad de San Lore     000000000025020000000000000000000000000000000000000000000000000000000000000000000000000000000000000000000000000000000000PES00010000001000000000000000020170502
201705020060000700000000000000001000000000000000000010008000000000030656747834Municipalidad de San Lore     000000001256148000000000000000000000000000000000000000000000000000000000000000000000000000000000000000000000000000000000PES00010000001000000000000000020170502
201705020060000700000000000000001001000000000000000010018000000000030656747834Municipalidad de San Lore     000000000169416000000000000000000000000000000000000000000000000000000000000000000000000000000000000000000000000000000000PES00010000001000000000000000020170502
201705020060000700000000000000001002000000000000000010028000000000030656747834Municipalidad de San Lore     000000000129330000000000000000000000000000000000000000000000000000000000000000000000000000000000000000000000000000000000PES00010000001000000000000000020170502
201705020060000700000000000000001003000000000000000010038000000000030656747834Municipalidad de San Lore     000000000608220000000000000000000000000000000000000000000000000000000000000000000000000000000000000000000000000000000000PES00010000001000000000000000020170502
201705020060000700000000000000001004000000000000000010048000000000030656747834Municipalidad de San Lore     000000000084708000000000000000000000000000000000000000000000000000000000000000000000000000000000000000000000000000000000PES00010000001000000000000000020170502
201705020060000700000000000000001005000000000000000010058000000000030656747834Municipalidad de San Lore     000000000051340000000000000000000000000000000000000000000000000000000000000000000000000000000000000000000000000000000000PES00010000001000000000000000020170502
201705020060000700000000000000001006000000000000000010068000000000030656747834Municipalidad de San Lore     000000000169416000000000000000000000000000000000000000000000000000000000000000000000000000000000000000000000000000000000PES00010000001000000000000000020170502
201705020060000700000000000000001007000000000000000010078000000000030656747834Municipalidad de San Lore     000000000055350000000000000000000000000000000000000000000000000000000000000000000000000000000000000000000000000000000000PES00010000001000000000000000020170502
201705020060000700000000000000001008000000000000000010088000000000030656747834Municipalidad de San Lore     000000000217646000000000000000000000000000000000000000000000000000000000000000000000000000000000000000000000000000000000PES00010000001000000000000000020170502
201705020060000700000000000000001009000000000000000010098000000000030656747834Municipalidad de San Lore     000000000051516000000000000000000000000000000000000000000000000000000000000000000000000000000000000000000000000000000000PES00010000001000000000000000020170502
201705020060000700000000000000001010000000000000000010108000000000030656747834Municipalidad de San Lore     000000000031320000000000000000000000000000000000000000000000000000000000000000000000000000000000000000000000000000000000PES00010000001000000000000000020170502
201705020060000700000000000000001011000000000000000010118000000000030656747834Municipalidad de San Lore     000000000019440000000000000000000000000000000000000000000000000000000000000000000000000000000000000000000000000000000000PES00010000001000000000000000020170502
201705020060000700000000000000001012000000000000000010128000000000030656747834Municipalidad de San Lore     000000000067950000000000000000000000000000000000000000000000000000000000000000000000000000000000000000000000000000000000PES00010000001000000000000000020170502
201705020060000700000000000000001013000000000000000010138000000000030656747834Municipalidad de San Lore     000000000003780000000000000000000000000000000000000000000000000000000000000000000000000000000000000000000000000000000000PES00010000001000000000000000020170502
201705020060000700000000000000001014000000000000000010148000000000030656747834Municipalidad de San Lore     000000000046080000000000000000000000000000000000000000000000000000000000000000000000000000000000000000000000000000000000PES00010000001000000000000000020170502
201705020060000700000000000000001015000000000000000010158000000000030656747834Municipalidad de San Lore     000000000035640000000000000000000000000000000000000000000000000000000000000000000000000000000000000000000000000000000000PES00010000001000000000000000020170502
201705020060000700000000000000001016000000000000000010168000000000030656747834Municipalidad de San Lore     000000000023490000000000000000000000000000000000000000000000000000000000000000000000000000000000000000000000000000000000PES00010000001000000000000000020170502
201705020060000700000000000000001017000000000000000010178000000000030656747834Municipalidad de San Lore     000000000003780000000000000000000000000000000000000000000000000000000000000000000000000000000000000000000000000000000000PES00010000001000000000000000020170502
201705020060000700000000000000001018000000000000000010188000000000030656747834Municipalidad de San Lore     000000000085680000000000000000000000000000000000000000000000000000000000000000000000000000000000000000000000000000000000PES00010000001000000000000000020170502
201705020030000700000000000000000039000000000000000000398000000000020000000001Escuela 4001 Juan Bautist     000000000071482000000000000000000000000000000000000000000000000000000000000000000000000000000000000000000000000000000000PES00010000001000000000000000020170502
201705020060000400000000000000001458000000000000000014588000000000020000000001Consumidor Final              000000000965351000000000000000000000000000000000000000000000000000000000000000000000000000000000000000000000000000000000PES00010000001000000000000000020170502
201705030010000700000000000000003154000000000000000031548000000000030537647716Pepsico de Argentina SRL      000000000009945000000000000000000000000000000000000000000000000000000000000000000000000000000000000000000000000000000000PES00010000001000000000000000020170503
201705030010000700000000000000003155000000000000000031558000000000020122204074Bassani Carlos Enrique        000000000080002000000000000000000000000000000000000000000000000000000000000000000000000000000000000000000000000000000000PES00010000001000000000000000020170503
201705030010000700000000000000003156000000000000000031568000000000030710398980Horacio Bielli Div. Empre     000000000035022000000000000000000000000000000000000000000000000000000000000000000000000000000000000000000000000000000000PES00010000001000000000000000020170503
201705030010000700000000000000003157000000000000000031578000000000020081714046Binda Victorio Ricardo        000000000003533000000000000000000000000000000000000000000000000000000000000000000000000000000000000000000000000000000000PES00010000001000000000000000020170503
201705030010000700000000000000003158000000000000000031588000000000027006586762Sucesion Marocco Irma         000000000068001000000000000000000000000000000000000000000000000000000000000000000000000000000000000000000000000000000000PES00010000001000000000000000020170503
201705030010000700000000000000003159000000000000000031598000000000020203999519Delta Computacion             000000000034604000000000000000000000000000000000000000000000000000000000000000000000000000000000000000000000000000000000PES00010000001000000000000000020170503
201705030010000700000000000000003160000000000000000031608000000000020081714046Binda Victorio Ricardo        000000000005991000000000000000000000000000000000000000000000000000000000000000000000000000000000000000000000000000000000PES00010000001000000000000000020170503
201705030010000700000000000000003161000000000000000031618000000000030709404691Nodos Electrictos SA          000000000122504000000000000000000000000000000000000000000000000000000000000000000000000000000000000000000000000000000000PES00010000001000000000000000020170503
201705030010000700000000000000003162000000000000000031628000000000020339275557Perez Mauricio                000000000444000000000000000000000000000000000000000000000000000000000000000000000000000000000000000000000000000000000000PES00010000001000000000000000020170503
201705030010000700000000000000003163000000000000000031638000000000027163074635Alvarado Claudia Susana       000000000048001000000000000000000000000000000000000000000000000000000000000000000000000000000000000000000000000000000000PES00010000001000000000000000020170503
201705030010000700000000000000003164000000000000000031648000000000030710398980Horacio Bielli Div. Empre     000000000061507000000000000000000000000000000000000000000000000000000000000000000000000000000000000000000000000000000000PES00010000001000000000000000020170503
201705030010000700000000000000003165000000000000000031658000000000030709404691Nodos Electrictos SA          000000000015075000000000000000000000000000000000000000000000000000000000000000000000000000000000000000000000000000000000PES00010000001000000000000000020170503
201705030060000700000000000000001019000000000000000010198000000000020000000001Escuela Victorino de la P     000000000104683000000000000000000000000000000000000000000000000000000000000000000000000000000000000000000000000000000000PES00010000001000000000000000020170503
201705030060000700000000000000001020000000000000000010208000000000030533610338Club de Gimnasia y Tiro A     000000000019812000000000000000000000000000000000000000000000000000000000000000000000000000000000000000000000000000000000PES00010000001000000000000000020170503
201705030060000400000000000000001459000000000000000014598000000000020000000001Consumidor Final              000000000630302000000000000000000000000000000000000000000000000000000000000000000000000000000000000000000000000000000000PES00010000001000000000000000020170503
201705040010000700000000000000003166000000000000000031668000000000027203992144Di Pietro Cecilia Eugenia     000000000016000000000000000000000000000000000000000000000000000000000000000000000000000000000000000000000000000000000000PES00010000001000000000000000020170504
201705040010000700000000000000003167000000000000000031678000000000020072617771Granado Manuel                000000000022078000000000000000000000000000000000000000000000000000000000000000000000000000000000000000000000000000000000PES00010000001000000000000000020170504
201705040010000700000000000000003168000000000000000031688000000000020127125466Campero Roberto               000000000776119000000000000000000000000000000000000000000000000000000000000000000000000000000000000000000000000000000000PES00010000001000000000000000020170504
201705040010000700000000000000003169000000000000000031698000000000030710586140A G Emprendimientos SRL       000000000023301000000000000000000000000000000000000000000000000000000000000000000000000000000000000000000000000000000000PES00010000001000000000000000020170504
201705040010000700000000000000003170000000000000000031708000000000020081714046Binda Victorio Ricardo        000000000015668000000000000000000000000000000000000000000000000000000000000000000000000000000000000000000000000000000000PES00010000001000000000000000020170504
201705040010000700000000000000003171000000000000000031718000000000020041947986Haddad Luis Selim             000000000027076000000000000000000000000000000000000000000000000000000000000000000000000000000000000000000000000000000000PES00010000001000000000000000020170504
201705040010000700000000000000003172000000000000000031728000000000033709488959Comercial Lima S.A            000000000010001000000000000000000000000000000000000000000000000000000000000000000000000000000000000000000000000000000000PES00010000001000000000000000020170504
201705040010000700000000000000003173000000000000000031738000000000027929338923Gimenez  Nancy                000000000065960000000000000000000000000000000000000000000000000000000000000000000000000000000000000000000000000000000000PES00010000001000000000000000020170504
201705040010000700000000000000003174000000000000000031748000000000030536158339Gomez Roco y Cia SRL          000000000955867000000000000000000000000000000000000000000000000000000000000000000000000000000000000000000000000000000000PES00010000001000000000000000020170504
201705040010000700000000000000003175000000000000000031758000000000030714573787Carma SRL                     000000000810017000000000000000000000000000000000000000000000000000000000000000000000000000000000000000000000000000000000PES00010000001000000000000000020170504
201705040010000700000000000000003176000000000000000031768000000000027243389483Miranda Paola                 000000000064754000000000000000000000000000000000000000000000000000000000000000000000000000000000000000000000000000000000PES00010000001000000000000000020170504
201705040010000700000000000000003177000000000000000031778000000000020203999519Delta Computacion             000000000026402000000000000000000000000000000000000000000000000000000000000000000000000000000000000000000000000000000000PES00010000001000000000000000020170504
201705040010000700000000000000003178000000000000000031788000000000020203999519Delta Computacion             000000000024067000000000000000000000000000000000000000000000000000000000000000000000000000000000000000000000000000000000PES00010000001000000000000000020170504
201705040010000700000000000000003179000000000000000031798000000000030711229376Pascha SRL                    000000000112002000000000000000000000000000000000000000000000000000000000000000000000000000000000000000000000000000000000PES00010000001000000000000000020170504
201705040010000700000000000000003180000000000000000031808000000000030709224901Rac Contrucciones SRL         000000000025020000000000000000000000000000000000000000000000000000000000000000000000000000000000000000000000000000000000PES00010000001000000000000000020170504
201705040010000700000000000000003181000000000000000031818000000000027006586762Sucesion Marocco Irma         000000000163510000000000000000000000000000000000000000000000000000000000000000000000000000000000000000000000000000000000PES00010000001000000000000000020170504
201705040010000700000000000000003182000000000000000031828000000000030710586140A G Emprendimientos SRL       000000000004018000000000000000000000000000000000000000000000000000000000000000000000000000000000000000000000000000000000PES00010000001000000000000000020170504
201705040010000700000000000000003183000000000000000031838000000000030712509941Molca SRL                     000000000458659000000000000000000000000000000000000000000000000000000000000000000000000000000000000000000000000000000000PES00010000001000000000000000020170504
201705040010000700000000000000003184000000000000000031848000000000030708328169Isolse SRL                    000000000092519000000000000000000000000000000000000000000000000000000000000000000000000000000000000000000000000000000000PES00010000001000000000000000020170504
201705040010000700000000000000003185000000000000000031858000000000030707891951Acero Figueroa SRL            000000000038542000000000000000000000000000000000000000000000000000000000000000000000000000000000000000000000000000000000PES00010000001000000000000000020170504
201705040060000700000000000000001021000000000000000010218000000000020000000001Consumidor Final              000000000019507000000000000000000000000000000000000000000000000000000000000000000000000000000000000000000000000000000000PES00010000001000000000000000020170504
201705040060000700000000000000001022000000000000000010228000000000020000000001Consumidor Final              000000000151329000000000000000000000000000000000000000000000000000000000000000000000000000000000000000000000000000000000PES00010000001000000000000000020170504
201705040060000700000000000000001023000000000000000010238000000000020000000001Consumidor Final              000000000611731000000000000000000000000000000000000000000000000000000000000000000000000000000000000000000000000000000000PES00010000001000000000000000020170504
201705040060000700000000000000001024000000000000000010248000000000020000000001Doric Lorena                  000000000240006000000000000000000000000000000000000000000000000000000000000000000000000000000000000000000000000000000000PES00010000001000000000000000020170504
201705040060000700000000000000001025000000000000000010258000000000020000000001Consumidor Final              000000000044315000000000000000000000000000000000000000000000000000000000000000000000000000000000000000000000000000000000PES00010000001000000000000000020170504
201705040060000400000000000000001460000000000000000014608000000000020000000001Consumidor Final              000000001322301000000000000000000000000000000000000000000000000000000000000000000000000000000000000000000000000000000000PES00010000001000000000000000020170504
201705050010000700000000000000003186000000000000000031868000000000030700051362Neca s.r.l.                   000000010290109000000000000000000000000000000000000000000000000000000000000000000000297307000000000000000000000000000000PES00010000001000000000000000020170505
201705050010000700000000000000003187000000000000000031878000000000030700051362Neca s.r.l.                   000000020269540000000000000000000000000000000000000000000000000000000000000000000000000000000000000000000000000000000000PES00010000001000000000000000020170505
201705050010000700000000000000003188000000000000000031888000000000030708024313Denki Ingenieria SRL          000000000010093000000000000000000000000000000000000000000000000000000000000000000000000000000000000000000000000000000000PES00010000001000000000000000020170505
201705050010000700000000000000003189000000000000000031898000000000030710204337Ind Frigorificas del Nort     000000002011977000000000000000000000000000000000000000000000000000000000000000000000000000000000000000000000000000000000PES00010000001000000000000000020170505
201705050010000700000000000000003190000000000000000031908000000000020203999519Delta Computacion             000000000031006000000000000000000000000000000000000000000000000000000000000000000000000000000000000000000000000000000000PES00010000001000000000000000020170505
201705050010000700000000000000003191000000000000000031918000000000027254119747Saavedra Jessica              000000000134005000000000000000000000000000000000000000000000000000000000000000000000000000000000000000000000000000000000PES00010000001000000000000000020170505
201705050010000700000000000000003192000000000000000031928000000000020171317194Vera Hector  Ramon            000000000020160000000000000000000000000000000000000000000000000000000000000000000000000000000000000000000000000000000000PES00010000001000000000000000020170505
201705050010000700000000000000003193000000000000000031938000000000020118347235De Los Rios Carlos Federi     000000000197416000000000000000000000000000000000000000000000000000000000000000000000000000000000000000000000000000000000PES00010000001000000000000000020170505
201705050010000700000000000000003194000000000000000031948000000000020072617771Granado Manuel                000000000135029000000000000000000000000000000000000000000000000000000000000000000000000000000000000000000000000000000000PES00010000001000000000000000020170505
201705050010000700000000000000003195000000000000000031958000000000030710087098Aytcmm SRL                    000000000007573000000000000000000000000000000000000000000000000000000000000000000000000000000000000000000000000000000000PES00010000001000000000000000020170505
201705050010000700000000000000003196000000000000000031968000000000020137362652Martinez Bejar Daniel         000000000100014000000000000000000000000000000000000000000000000000000000000000000000000000000000000000000000000000000000PES00010000001000000000000000020170505
201705050010000700000000000000003197000000000000000031978000000000020115920260Brizuela Victor Manuel        000000000006091000000000000000000000000000000000000000000000000000000000000000000000000000000000000000000000000000000000PES00010000001000000000000000020170505
201705050060000700000000000000001026000000000000000010268000000000030586762571Universidad Nacional de S     000000000282912000000000000000000000000000000000000000000000000000000000000000000000000000000000000000000000000000000000PES00010000001000000000000000020170505
201705050060000700000000000000001027000000000000000010278000000000033714617309Edificio Don Julio Diaz V     000000000005015000000000000000000000000000000000000000000000000000000000000000000000000000000000000000000000000000000000PES00010000001000000000000000020170505
201705050060000700000000000000001028000000000000000010288000000000023036751614Estrada Herminda Yone         000000000048001000000000000000000000000000000000000000000000000000000000000000000000000000000000000000000000000000000000PES00010000001000000000000000020170505
201705050060000700000000000000001029000000000000000010298000000000030681271925Partido Renovador de Salt     000000000008352000000000000000000000000000000000000000000000000000000000000000000000000000000000000000000000000000000000PES00010000001000000000000000020170505
201705050060000700000000000000001030000000000000000010308000000000020000000001Consumidor Final              000000000294070000000000000000000000000000000000000000000000000000000000000000000000000000000000000000000000000000000000PES00010000001000000000000000020170505
201705050060000400000000000000001461000000000000000014618000000000020000000001Consumidor Final              000000001252300000000000000000000000000000000000000000000000000000000000000000000000000000000000000000000000000000000000PES00010000001000000000000000020170505
201705060010000700000000000000003198000000000000000031988000000000027929338923Gimenez  Nancy                000000000034944000000000000000000000000000000000000000000000000000000000000000000000000000000000000000000000000000000000PES00010000001000000000000000020170506
201705060010000700000000000000003199000000000000000031998000000000027929338923Gimenez  Nancy                000000000023545000000000000000000000000000000000000000000000000000000000000000000000000000000000000000000000000000000000PES00010000001000000000000000020170506
201705060010000700000000000000003200000000000000000032008000000000030714961388Juramento 370 SRL             000000000040068000000000000000000000000000000000000000000000000000000000000000000000000000000000000000000000000000000000PES00010000001000000000000000020170506
201705060010000700000000000000003201000000000000000032018000000000020203999519Delta Computacion             000000000047506000000000000000000000000000000000000000000000000000000000000000000000000000000000000000000000000000000000PES00010000001000000000000000020170506
201705060060000700000000000000001031000000000000000010318000000000020000000001Ramon del  Rey                000000000031365000000000000000000000000000000000000000000000000000000000000000000000000000000000000000000000000000000000PES00010000001000000000000000020170506
201705060060000700000000000000001032000000000000000010328000000000020000000001Consumidor Final              000000000320008000000000000000000000000000000000000000000000000000000000000000000000000000000000000000000000000000000000PES00010000001000000000000000020170506
201705060060000700000000000000001033000000000000000010338000000000020000000001Consorcio Mercedes 2          000000000007010000000000000000000000000000000000000000000000000000000000000000000000000000000000000000000000000000000000PES00010000001000000000000000020170506
201705060060000400000000000000001462000000000000000014628000000000020000000001Consumidor Final              000000000693901000000000000000000000000000000000000000000000000000000000000000000000000000000000000000000000000000000000PES00010000001000000000000000020170506
201705080010000700000000000000003202000000000000000032028000000000027006586762Sucesion Marocco Irma         000000000003814000000000000000000000000000000000000000000000000000000000000000000000000000000000000000000000000000000000PES00010000001000000000000000020170508
201705080010000700000000000000003203000000000000000032038000000000030707474307Crew Live S.A                 000000000002558000000000000000000000000000000000000000000000000000000000000000000000000000000000000000000000000000000000PES00010000001000000000000000020170508
201705080010000700000000000000003204000000000000000032048000000000020313380107Yarade Carlos Matia           000000000017808000000000000000000000000000000000000000000000000000000000000000000000000000000000000000000000000000000000PES00010000001000000000000000020170508
201705080010000700000000000000003205000000000000000032058000000000030710586140A G Emprendimientos SRL       000000000021511000000000000000000000000000000000000000000000000000000000000000000000000000000000000000000000000000000000PES00010000001000000000000000020170508
201705080010000700000000000000003206000000000000000032068000000000027929338923Gimenez  Nancy                000000000016567000000000000000000000000000000000000000000000000000000000000000000000000000000000000000000000000000000000PES00010000001000000000000000020170508
201705080010000700000000000000003207000000000000000032078000000000020346208490Esquibel Raul                 000000000011039000000000000000000000000000000000000000000000000000000000000000000000000000000000000000000000000000000000PES00010000001000000000000000020170508
201705080010000700000000000000003208000000000000000032088000000000020171318840Yarade Issa                   000000005395600000000000000000000000000000000000000000000000000000000000000000000000000000000000000000000000000000000000PES00010000001000000000000000020170508
201705080010000700000000000000003209000000000000000032098000000000030710087098Aytcmm SRL                    000000000006084000000000000000000000000000000000000000000000000000000000000000000000000000000000000000000000000000000000PES00010000001000000000000000020170508
201705080010000700000000000000003211000000000000000032118000000000030710087098Aytcmm SRL                    000000000006008000000000000000000000000000000000000000000000000000000000000000000000000000000000000000000000000000000000PES00010000001000000000000000020170508
201705080010000700000000000000003212000000000000000032128000000000020203999519Delta Computacion             000000000017068000000000000000000000000000000000000000000000000000000000000000000000000000000000000000000000000000000000PES00010000001000000000000000020170508
201705080010000700000000000000003213000000000000000032138000000000030710398980Bielli Horacio Emprend. A     000000000025504000000000000000000000000000000000000000000000000000000000000000000000000000000000000000000000000000000000PES00010000001000000000000000020170508
201705080060000700000000000000001034000000000000000010348000000000020000000001Consumidor Final              000000000105187000000000000000000000000000000000000000000000000000000000000000000000000000000000000000000000000000000000PES00010000001000000000000000020170508
201705080060000700000000000000001035000000000000000010358000000000020000000001Consumidor Final              000000001063676000000000000000000000000000000000000000000000000000000000000000000000000000000000000000000000000000000000PES00010000001000000000000000020170508
201705080060000700000000000000001036000000000000000010368000000000020000000001Colegio Doctor Miguel Rag     000000000005056000000000000000000000000000000000000000000000000000000000000000000000000000000000000000000000000000000000PES00010000001000000000000000020170508
201705080060000400000000000000001463000000000000000014638000000000020000000001Consumidor Final              000000000532821000000000000000000000000000000000000000000000000000000000000000000000000000000000000000000000000000000000PES00010000001000000000000000020170508
201705090010000700000000000000003214000000000000000032148000000000027929338923Gimenez  Nancy                000000000022303000000000000000000000000000000000000000000000000000000000000000000000000000000000000000000000000000000000PES00010000001000000000000000020170509
201705090010000700000000000000003215000000000000000032158000000000020144880146Lavin Guillermo               000000000008996000000000000000000000000000000000000000000000000000000000000000000000000000000000000000000000000000000000PES00010000001000000000000000020170509
201705090010000700000000000000003216000000000000000032168000000000030710586140A G Emprendimientos SRL       000000000036006000000000000000000000000000000000000000000000000000000000000000000000000000000000000000000000000000000000PES00010000001000000000000000020170509
201705090010000700000000000000003217000000000000000032178000000000020122204074Bassani Carlos Enrique        000000000174353000000000000000000000000000000000000000000000000000000000000000000000000000000000000000000000000000000000PES00010000001000000000000000020170509
201705090010000700000000000000003218000000000000000032188000000000030681240493Oiel s.r.l.                   000000000035955000000000000000000000000000000000000000000000000000000000000000000000000000000000000000000000000000000000PES00010000001000000000000000020170509
201705090010000700000000000000003219000000000000000032198000000000030690721321Antonio Srur SRL              000000000027036000000000000000000000000000000000000000000000000000000000000000000000000000000000000000000000000000000000PES00010000001000000000000000020170509
201705090010000700000000000000003220000000000000000032208000000000020137451922Garin Juan Pedro              000000000024803000000000000000000000000000000000000000000000000000000000000000000000000000000000000000000000000000000000PES00010000001000000000000000020170509
201705090010000700000000000000003221000000000000000032218000000000020323727784Alto Laguirre Jose Ignaci     000000000060000000000000000000000000000000000000000000000000000000000000000000000000000000000000000000000000000000000000PES00010000001000000000000000020170509
201705090010000700000000000000003222000000000000000032228000000000020072617771Granado Manuel                000000000071525000000000000000000000000000000000000000000000000000000000000000000000000000000000000000000000000000000000PES00010000001000000000000000020170509
201705090010000700000000000000003223000000000000000032238000000000030709082163Insumos para Artesanos SR     000000000020040000000000000000000000000000000000000000000000000000000000000000000000000000000000000000000000000000000000PES00010000001000000000000000020170509
201705090010000700000000000000003224000000000000000032248000000000020203999519Delta Computacion             000000000024803000000000000000000000000000000000000000000000000000000000000000000000000000000000000000000000000000000000PES00010000001000000000000000020170509
201705090010000700000000000000003225000000000000000032258000000000020323727784Alto Laguirre Jose Ignaci     000000000024005000000000000000000000000000000000000000000000000000000000000000000000000000000000000000000000000000000000PES00010000001000000000000000020170509
201705090010000700000000000000003226000000000000000032268000000000030711023905Estudio Contable Coronel      000000000012205000000000000000000000000000000000000000000000000000000000000000000000000000000000000000000000000000000000PES00010000001000000000000000020170509
201705090010000700000000000000003227000000000000000032278000000000030714702226Del Portilo srl               000000000067016000000000000000000000000000000000000000000000000000000000000000000000000000000000000000000000000000000000PES00010000001000000000000000020170509
201705090010000700000000000000003228000000000000000032288000000000020171317194Vera Hector  Ramon            000000000019998000000000000000000000000000000000000000000000000000000000000000000000000000000000000000000000000000000000PES00010000001000000000000000020170509
201705090010000700000000000000003229000000000000000032298000000000020144533284Quinteros Horacio             000000000674117000000000000000000000000000000000000000000000000000000000000000000000000000000000000000000000000000000000PES00010000001000000000000000020170509
201705090010000700000000000000003230000000000000000032308000000000020122204074Bassani Carlos Enrique        000000000028050000000000000000000000000000000000000000000000000000000000000000000000000000000000000000000000000000000000PES00010000001000000000000000020170509
201705090010000700000000000000003231000000000000000032318000000000027929338923Gimenez  Nancy                000000000031875000000000000000000000000000000000000000000000000000000000000000000000000000000000000000000000000000000000PES00010000001000000000000000020170509
201705090010000700000000000000003232000000000000000032328000000000020323727784Alto Laguirre Jose Ignaci     000000000638011000000000000000000000000000000000000000000000000000000000000000000000000000000000000000000000000000000000PES00010000001000000000000000020170509
201705090010000700000000000000003233000000000000000032338000000000020323727784Alto Laguirre Jose Ignaci     000000000256282000000000000000000000000000000000000000000000000000000000000000000000000000000000000000000000000000000000PES00010000001000000000000000020170509
201705090010000700000000000000003234000000000000000032348000000000020323727784Alto Laguirre Jose Ignaci     000000000097464000000000000000000000000000000000000000000000000000000000000000000000000000000000000000000000000000000000PES00010000001000000000000000020170509
201705090060000700000000000000001037000000000000000010378000000000030714850349Secretaria de Obras publi     000000000018360000000000000000000000000000000000000000000000000000000000000000000000000000000000000000000000000000000000PES00010000001000000000000000020170509
201705090060000700000000000000001038000000000000000010388000000000020000000001Escuela Victorino de la P     000000000033320000000000000000000000000000000000000000000000000000000000000000000000000000000000000000000000000000000000PES00010000001000000000000000020170509
201705090060000700000000000000001039000000000000000010398000000000020000000001Escuela Victorino de la P     000000000037400000000000000000000000000000000000000000000000000000000000000000000000000000000000000000000000000000000000PES00010000001000000000000000020170509
201705090060000400000000000000001464000000000000000014648000000000020000000001Consumidor Final              000000000635900000000000000000000000000000000000000000000000000000000000000000000000000000000000000000000000000000000000PES00010000001000000000000000020170509
201705100010000700000000000000003235000000000000000032358000000000030710586140A G Emprendimientos SRL       000000000064620000000000000000000000000000000000000000000000000000000000000000000000000000000000000000000000000000000000PES00010000001000000000000000020170510
201705100010000700000000000000003236000000000000000032368000000000030709224901Rac Contrucciones SRL         000000000017001000000000000000000000000000000000000000000000000000000000000000000000000000000000000000000000000000000000PES00010000001000000000000000020170510
201705100010000700000000000000003237000000000000000032378000000000030638110748Dal Borgo Construcciones      000000000640050000000000000000000000000000000000000000000000000000000000000000000000000000000000000000000000000000000000PES00010000001000000000000000020170510
201705100010000700000000000000003238000000000000000032388000000000020137451922Garin Juan Pedro              000000000006309000000000000000000000000000000000000000000000000000000000000000000000000000000000000000000000000000000000PES00010000001000000000000000020170510
201705100010000700000000000000003239000000000000000032398000000000030644225360Servicios Viales de Pigue     000000020093314000000000000000000000000000000000000000000000000000000000000000000000000000000000000000000000000000000000PES00010000001000000000000000020170510
201705100010000700000000000000003240000000000000000032408000000000020072617771Granado Manuel                000000000022035000000000000000000000000000000000000000000000000000000000000000000000000000000000000000000000000000000000PES00010000001000000000000000020170510
201705100010000700000000000000003241000000000000000032418000000000030715381938Proyectos Pastos Grandes      000000000080002000000000000000000000000000000000000000000000000000000000000000000000000000000000000000000000000000000000PES00010000001000000000000000020170510
201705100010000700000000000000003242000000000000000032428000000000020203999519Delta Computacion             000000000023090000000000000000000000000000000000000000000000000000000000000000000000000000000000000000000000000000000000PES00010000001000000000000000020170510
201705100010000700000000000000003243000000000000000032438000000000020041947986Haddad Luis Selim             000000000031508000000000000000000000000000000000000000000000000000000000000000000000000000000000000000000000000000000000PES00010000001000000000000000020170510
201705100010000700000000000000003244000000000000000032448000000000020323727784Alto Laguirre Jose Ignaci     000000000328884000000000000000000000000000000000000000000000000000000000000000000000000000000000000000000000000000000000PES00010000001N00000000000000020170510
201705100060000700000000000000001040000000000000000010408000000000030711195196Cons Usuarios Sist Hid Ri     000000000077901000000000000000000000000000000000000000000000000000000000000000000000000000000000000000000000000000000000PES00010000001000000000000000020170510
201705100060000700000000000000001041000000000000000010418000000000020000000001Consumidor Final              000000000079041000000000000000000000000000000000000000000000000000000000000000000000000000000000000000000000000000000000PES00010000001000000000000000020170510
201705100060000700000000000000001042000000000000000010428000000000020000000001Consumidor Final              000000000152508000000000000000000000000000000000000000000000000000000000000000000000000000000000000000000000000000000000PES00010000001000000000000000020170510
201705100060000700000000000000001043000000000000000010438000000000020000000001Consumidor Final              000000000780048000000000000000000000000000000000000000000000000000000000000000000000000000000000000000000000000000000000PES00010000001000000000000000020170510
201705100060000400000000000000001465000000000000000014658000000000020000000001Consumidor Final              000000000812701000000000000000000000000000000000000000000000000000000000000000000000000000000000000000000000000000000000PES00010000001000000000000000020170510
201705110010000700000000000000003245000000000000000032458000000000020122204074Bassani Carlos Enrique        000000000128732000000000000000000000000000000000000000000000000000000000000000000000000000000000000000000000000000000000PES00010000001000000000000000020170511
201705110010000700000000000000003246000000000000000032468000000000030711383693Grinfil SRL                   000000000028500000000000000000000000000000000000000000000000000000000000000000000000000000000000000000000000000000000000PES00010000001000000000000000020170511
201705110010000700000000000000003247000000000000000032478000000000030711603553Soluciones Tecnicas Gener     000000000011985000000000000000000000000000000000000000000000000000000000000000000000000000000000000000000000000000000000PES00010000001000000000000000020170511
201705110010000700000000000000003248000000000000000032488000000000020081684309Lecuona de Pratt Martin       000000000013855000000000000000000000000000000000000000000000000000000000000000000000000000000000000000000000000000000000PES00010000001000000000000000020170511
201705110010000700000000000000003249000000000000000032498000000000030714549630Terranova Construcciones      000000000018543000000000000000000000000000000000000000000000000000000000000000000000000000000000000000000000000000000000PES00010000001000000000000000020170511
201705110010000700000000000000003250000000000000000032508000000000020171317992Lopez Saenz Felix             000000000016000000000000000000000000000000000000000000000000000000000000000000000000000000000000000000000000000000000000PES00010000001000000000000000020170511
201705110010000700000000000000003251000000000000000032518000000000020323727784Alto Laguirre Jose Ignaci     000000000016526000000000000000000000000000000000000000000000000000000000000000000000000000000000000000000000000000000000PES00010000001000000000000000020170511
201705110010000700000000000000003252000000000000000032528000000000030709224901Rac Contrucciones SRL         000000000013501000000000000000000000000000000000000000000000000000000000000000000000000000000000000000000000000000000000PES00010000001000000000000000020170511
201705110010000700000000000000003253000000000000000032538000000000030616928828Vidmar SRL                    000000000070081000000000000000000000000000000000000000000000000000000000000000000000000000000000000000000000000000000000PES00010000001000000000000000020170511
201705110010000700000000000000003254000000000000000032548000000000030714059056MJR Salta SRL                 000000000486029000000000000000000000000000000000000000000000000000000000000000000000000000000000000000000000000000000000PES00010000001000000000000000020170511
201705110010000700000000000000003255000000000000000032558000000000020203999519Delta Computacion             000000000016000000000000000000000000000000000000000000000000000000000000000000000000000000000000000000000000000000000000PES00010000001000000000000000020170511
201705110010000700000000000000003256000000000000000032568000000000030712984100Dessin SRL                    000000000064002000000000000000000000000000000000000000000000000000000000000000000000000000000000000000000000000000000000PES00010000001000000000000000020170511
201705110010000700000000000000003257000000000000000032578000000000020368030113Salvatore Enzo Maximilian     000000000009703000000000000000000000000000000000000000000000000000000000000000000000000000000000000000000000000000000000PES00010000001000000000000000020170511
201705110010000700000000000000003258000000000000000032588000000000030714703893Claudia y Erica Seppi SH      000000000070028000000000000000000000000000000000000000000000000000000000000000000000000000000000000000000000000000000000PES00010000001000000000000000020170511
201705110060000700000000000000001044000000000000000010448000000000020000000001Consumidor Final              000000000500025000000000000000000000000000000000000000000000000000000000000000000000000000000000000000000000000000000000PES00010000001000000000000000020170511
201705110060000700000000000000001045000000000000000010458000000000030586762571Universidad Nacional de S     000000000062445000000000000000000000000000000000000000000000000000000000000000000000000000000000000000000000000000000000PES00010000001000000000000000020170511
201705110060000400000000000000001466000000000000000014668000000000020000000001Consumidor Final              000000000972604000000000000000000000000000000000000000000000000000000000000000000000000000000000000000000000000000000000PES00010000001000000000000000020170511
201705120010000700000000000000003259000000000000000032598000000000030712427589Luter SRL                     000000000020796000000000000000000000000000000000000000000000000000000000000000000000000000000000000000000000000000000000PES00010000001000000000000000020170512
201705120010000700000000000000003260000000000000000032608000000000030708487585Agriturismo SRL               000000000007395000000000000000000000000000000000000000000000000000000000000000000000000000000000000000000000000000000000PES00010000001000000000000000020170512
201705120010000700000000000000003261000000000000000032618000000000020171317992Lopez Saenz Felix             000000000008533000000000000000000000000000000000000000000000000000000000000000000000000000000000000000000000000000000000PES00010000001000000000000000020170512
201705120010000700000000000000003262000000000000000032628000000000027929338923Gimenez  Nancy                000000000005000000000000000000000000000000000000000000000000000000000000000000000000000000000000000000000000000000000000PES00010000001000000000000000020170512
201705120010000700000000000000003263000000000000000032638000000000020203999519Delta Computacion             000000000024820000000000000000000000000000000000000000000000000000000000000000000000000000000000000000000000000000000000PES00010000001000000000000000020170512
201705120010000700000000000000003264000000000000000032648000000000020081714046Binda Victorio Ricardo        000000000010033000000000000000000000000000000000000000000000000000000000000000000000000000000000000000000000000000000000PES00010000001000000000000000020170512
201705120010000700000000000000003265000000000000000032658000000000030710291388Liendro Jose SRL              000000000085005000000000000000000000000000000000000000000000000000000000000000000000000000000000000000000000000000000000PES00010000001000000000000000020170512
201705120010000700000000000000003266000000000000000032668000000000020216345968Linpias Gustavo               000000000086701000000000000000000000000000000000000000000000000000000000000000000000000000000000000000000000000000000000PES00010000001000000000000000020170512
201705120010000700000000000000003267000000000000000032678000000000030708487585Agriturismo SRL               000000000012042000000000000000000000000000000000000000000000000000000000000000000000000000000000000000000000000000000000PES00010000001000000000000000020170512
201705120010000700000000000000003268000000000000000032688000000000030700078732Invertir S.A                  000000000052743000000000000000000000000000000000000000000000000000000000000000000000000000000000000000000000000000000000PES00010000001000000000000000020170512
201705120010000700000000000000003269000000000000000032698000000000020072617771Granado Manuel                000000000044096000000000000000000000000000000000000000000000000000000000000000000000000000000000000000000000000000000000PES00010000001000000000000000020170512
201705120010000700000000000000003270000000000000000032708000000000027929338923Gimenez  Nancy                000000000007081000000000000000000000000000000000000000000000000000000000000000000000000000000000000000000000000000000000PES00010000001000000000000000020170512
201705120010000700000000000000003271000000000000000032718000000000020271758538Zone Puig Jose Esteban        000000000013488000000000000000000000000000000000000000000000000000000000000000000000000000000000000000000000000000000000PES00010000001000000000000000020170512
201705120060000700000000000000001046000000000000000010468000000000020000000001Consumidor Final              000000000003700000000000000000000000000000000000000000000000000000000000000000000000000000000000000000000000000000000000PES00010000001000000000000000020170512
201705120060000700000000000000001047000000000000000010478000000000020000000001Consumidor Final              000000000003145000000000000000000000000000000000000000000000000000000000000000000000000000000000000000000000000000000000PES00010000001000000000000000020170512
201705120060000700000000000000001048000000000000000010488000000000020000000001Consumidor Final              000000000100029000000000000000000000000000000000000000000000000000000000000000000000000000000000000000000000000000000000PES00010000001000000000000000020170512
201705120060000700000000000000001049000000000000000010498000000000030539032646Club 20 de Febrero            000000000012045000000000000000000000000000000000000000000000000000000000000000000000000000000000000000000000000000000000PES00010000001000000000000000020170512
201705120060000700000000000000001050000000000000000010508000000000030681304513Escuela Joaquin Castellan     000000000270300000000000000000000000000000000000000000000000000000000000000000000000000000000000000000000000000000000000PES00010000001000000000000000020170512
201705120060000700000000000000001051000000000000000010518000000000020000000001Consumidor Final              000000001243465000000000000000000000000000000000000000000000000000000000000000000000000000000000000000000000000000000000PES00010000001000000000000000020170512
201705120060000400000000000000001467000000000000000014678000000000020000000001Consumidor Final              000000000789800000000000000000000000000000000000000000000000000000000000000000000000000000000000000000000000000000000000PES00010000001000000000000000020170512
201705130010000700000000000000003272000000000000000032728000000000027065355820Galli Martina Marta Susan     000000000016000000000000000000000000000000000000000000000000000000000000000000000000000000000000000000000000000000000000PES00010000001000000000000000020170513
201705130010000700000000000000003273000000000000000032738000000000020047080461Binda Aldo Augusto            000000000012728000000000000000000000000000000000000000000000000000000000000000000000000000000000000000000000000000000000PES00010000001000000000000000020170513
201705130010000700000000000000003274000000000000000032748000000000027243389483Miranda Paola                 000000000015606000000000000000000000000000000000000000000000000000000000000000000000000000000000000000000000000000000000PES00010000001000000000000000020170513
201705130010000700000000000000003275000000000000000032758000000000030713212209Rayces                        000000000099044000000000000000000000000000000000000000000000000000000000000000000000000000000000000000000000000000000000PES00010000001000000000000000020170513
201705130060000400000000000000001468000000000000000014688000000000020000000001Consumidor Final              000000000471700000000000000000000000000000000000000000000000000000000000000000000000000000000000000000000000000000000000PES00010000001000000000000000020170513
201705150010000700000000000000003276000000000000000032768000000000030679839191Concordia Construcciones      000000000004628000000000000000000000000000000000000000000000000000000000000000000000000000000000000000000000000000000000PES00010000001000000000000000020170515
201705150010000700000000000000003277000000000000000032778000000000020122204074Bassani Carlos Enrique        000000000141525000000000000000000000000000000000000000000000000000000000000000000000000000000000000000000000000000000000PES00010000001000000000000000020170515
201705150010000700000000000000003278000000000000000032788000000000020302220175Cepedes Herrera Antonio M     000000000119313000000000000000000000000000000000000000000000000000000000000000000000000000000000000000000000000000000000PES00010000001000000000000000020170515
201705150010000700000000000000003279000000000000000032798000000000020249689131Nanni Construcciones          000000000036018000000000000000000000000000000000000000000000000000000000000000000000000000000000000000000000000000000000PES00010000001000000000000000020170515
201705150010000700000000000000003280000000000000000032808000000000030710313012San Rafael Agropecuaria S     000000000070034000000000000000000000000000000000000000000000000000000000000000000000000000000000000000000000000000000000PES00010000001000000000000000020170515
201705150010000700000000000000003281000000000000000032818000000000030710313012San Rafael Agropecuaria S     000000000005712000000000000000000000000000000000000000000000000000000000000000000000000000000000000000000000000000000000PES00010000001000000000000000020170515
201705150010000700000000000000003282000000000000000032828000000000030711939675Ikba SA                       000000000060016000000000000000000000000000000000000000000000000000000000000000000000000000000000000000000000000000000000PES00010000001000000000000000020170515
201705150010000700000000000000003283000000000000000032838000000000030501522496Vicente Moncho Construcci     000000068901181000000000000000000000000000000000000000000000000000000000000000000000000000000000000000000000000000000000PES00010000001000000000000000020170515
201705150010000700000000000000003284000000000000000032848000000000020054090928Albistro Angel Benjamin       000000000168217000000000000000000000000000000000000000000000000000000000000000000000000000000000000000000000000000000000PES00010000001000000000000000020170515
201705150010000700000000000000003285000000000000000032858000000000020054090928Albistro Angel Benjamin       000000006261856000000000000000000000000000000000000000000000000000000000000000000000000000000000000000000000000000000000PES00010000001000000000000000020170515
201705150010000700000000000000003287000000000000000032878000000000020216345968Limpias Gustavo               000000000020004000000000000000000000000000000000000000000000000000000000000000000000000000000000000000000000000000000000PES00010000001000000000000000020170515
201705150010000700000000000000003288000000000000000032888000000000030501522496Vicente Moncho Construcci     000000063601091000000000000000000000000000000000000000000000000000000000000000000000000000000000000000000000000000000000PES00010000001000000000000000020170515
201705150010000700000000000000003289000000000000000032898000000000020081714046Binda Victorio Ricardo        000000000012700000000000000000000000000000000000000000000000000000000000000000000000000000000000000000000000000000000000PES00010000001000000000000000020170515
201705150010000700000000000000003290000000000000000032908000000000030709224901Rac Contrucciones SRL         000000000006090000000000000000000000000000000000000000000000000000000000000000000000000000000000000000000000000000000000PES00010000001000000000000000020170515
201705150010000700000000000000003291000000000000000032918000000000020203999519Delta Computacion             000000000066895000000000000000000000000000000000000000000000000000000000000000000000000000000000000000000000000000000000PES00010000001000000000000000020170515
201705150010000700000000000000003292000000000000000032928000000000030712350527AGV Falcon Drilling SRL       000000000007803000000000000000000000000000000000000000000000000000000000000000000000000000000000000000000000000000000000PES00010000001000000000000000020170515
201705150010000700000000000000003293000000000000000032938000000000030714111562Autos y Servicios Especia     000000000016005000000000000000000000000000000000000000000000000000000000000000000000000000000000000000000000000000000000PES00010000001000000000000000020170515
201705150010000700000000000000003294000000000000000032948000000000027006586762Sucesion Marocco Irma         000000000014820000000000000000000000000000000000000000000000000000000000000000000000000000000000000000000000000000000000PES00010000001000000000000000020170515
201705150060000700000000000000001052000000000000000010528000000000020000000001Escuela Jacoba Saravia N      000000000056100000000000000000000000000000000000000000000000000000000000000000000000000000000000000000000000000000000000PES00010000001000000000000000020170515
201705150060000700000000000000001053000000000000000010538000000000030999284651Policia de Salta              000000000004232000000000000000000000000000000000000000000000000000000000000000000000000000000000000000000000000000000000PES00010000001000000000000000020170515
201705150030000700000000000000000040000000000000000000408000000000030501522496Vicente Moncho Construcci     000000068901181000000000000000000000000000000000000000000000000000000000000000000000000000000000000000000000000000000000PES00010000001000000000000000020170515
201705150060000400000000000000001469000000000000000014698000000000020000000001Consumidor Final              000000000440700000000000000000000000000000000000000000000000000000000000000000000000000000000000000000000000000000000000PES00010000001000000000000000020170515
201705160010000700000000000000003295000000000000000032958000000000030711383693Grinfil SRL                   000000000018359000000000000000000000000000000000000000000000000000000000000000000000000000000000000000000000000000000000PES00010000001000000000000000020170516
201705160010000700000000000000003296000000000000000032968000000000020072364164Condori Lucas                 000000000020004000000000000000000000000000000000000000000000000000000000000000000000000000000000000000000000000000000000PES00010000001000000000000000020170516
201705160010000700000000000000003297000000000000000032978000000000030714573787Carma SRL                     000000000783928000000000000000000000000000000000000000000000000000000000000000000000000000000000000000000000000000000000PES00010000001000000000000000020170516
201705160010000700000000000000003298000000000000000032988000000000030693459245Hoyts General Cinema          000000000042515000000000000000000000000000000000000000000000000000000000000000000000000000000000000000000000000000000000PES00010000001000000000000000020170516
201705160010000700000000000000003299000000000000000032998000000000030693459245Hoyts General Cinema          000000000021676000000000000000000000000000000000000000000000000000000000000000000000000000000000000000000000000000000000PES00010000001000000000000000020170516
201705160010000700000000000000003300000000000000000033008000000000020171317992Lopez Saenz Felix             000000000033575000000000000000000000000000000000000000000000000000000000000000000000000000000000000000000000000000000000PES00010000001000000000000000020170516
201705160010000700000000000000003301000000000000000033018000000000020249689131Nanni Construcciones          000000000077010000000000000000000000000000000000000000000000000000000000000000000000000000000000000000000000000000000000PES00010000001000000000000000020170516
201705160010000700000000000000003302000000000000000033028000000000020203999519Delta Computacion             000000000022610000000000000000000000000000000000000000000000000000000000000000000000000000000000000000000000000000000000PES00010000001000000000000000020170516
201705160060000700000000000000001054000000000000000010548000000000030714766089Ministerio Primera Infanc     000000000009210000000000000000000000000000000000000000000000000000000000000000000000000000000000000000000000000000000000PES00010000001000000000000000020170516
201705160060000400000000000000001470000000000000000014708000000000020000000001Consumidor Final              000000001219602000000000000000000000000000000000000000000000000000000000000000000000000000000000000000000000000000000000PES00010000001000000000000000020170516
201705170010000700000000000000003303000000000000000033038000000000030711603553Soluciones Tecnicas Gener     000000000013988000000000000000000000000000000000000000000000000000000000000000000000000000000000000000000000000000000000PES00010000001000000000000000020170517
201705170010000700000000000000003304000000000000000033048000000000030714549630Terranova Construcciones      000000000029494000000000000000000000000000000000000000000000000000000000000000000000000000000000000000000000000000000000PES00010000001000000000000000020170517
201705170010000700000000000000003305000000000000000033058000000000030714899526La Playa del elastico SRL     000000000129031000000000000000000000000000000000000000000000000000000000000000000000000000000000000000000000000000000000PES00010000001000000000000000020170517
201705170010000700000000000000003306000000000000000033068000000000020141765028Zissi Nicolas                 000000000078006000000000000000000000000000000000000000000000000000000000000000000000000000000000000000000000000000000000PES00010000001000000000000000020170517
201705170010000700000000000000003307000000000000000033078000000000030712272240Fideicomiso Aires Verdes      000000000001003000000000000000000000000000000000000000000000000000000000000000000000000000000000000000000000000000000000PES00010000001000000000000000020170517
201705170010000700000000000000003308000000000000000033088000000000030711939675Ikba SA                       000000000080002000000000000000000000000000000000000000000000000000000000000000000000000000000000000000000000000000000000PES00010000001000000000000000020170517
201705170010000700000000000000003309000000000000000033098000000000030709224901Rac Contrucciones SRL         000000000026004000000000000000000000000000000000000000000000000000000000000000000000000000000000000000000000000000000000PES00010000001000000000000000020170517
201705170010000700000000000000003310000000000000000033108000000000020203999519Delta Computacion             000000000037361000000000000000000000000000000000000000000000000000000000000000000000000000000000000000000000000000000000PES00010000001000000000000000020170517
201705170010000700000000000000003311000000000000000033118000000000030711087733Maja Arq y Const SA           000000000001794000000000000000000000000000000000000000000000000000000000000000000000000000000000000000000000000000000000PES00010000001000000000000000020170517
201705170010000700000000000000003312000000000000000033128000000000020122204074Bassani Carlos Enrique        000000000160003000000000000000000000000000000000000000000000000000000000000000000000000000000000000000000000000000000000PES00010000001000000000000000020170517
201705170010000700000000000000003313000000000000000033138000000000030679839191Concordia Construcciones      000000000011883000000000000000000000000000000000000000000000000000000000000000000000000000000000000000000000000000000000PES00010000001000000000000000020170517
201705170060000700000000000000001055000000000000000010558000000000020275521354Ricardo Manuel Falu           000000010201114000000000000000000000000000000000000000000000000000000000000000000000000000000000000000000000000000000000PES00010000001000000000000000020170517
201705170060000700000000000000001056000000000000000010568000000000030585583533Municipalidad Ciudad de S     000000000128520000000000000000000000000000000000000000000000000000000000000000000000000000000000000000000000000000000000PES00010000001000000000000000020170517
201705170060000700000000000000001057000000000000000010578000000000020000000001Mutual de Salud Publica       000000000074994000000000000000000000000000000000000000000000000000000000000000000000000000000000000000000000000000000000PES00010000001000000000000000020170517
201705170060000700000000000000001058000000000000000010588000000000020000000001Consumidor Final              000000000190024000000000000000000000000000000000000000000000000000000000000000000000000000000000000000000000000000000000PES00010000001000000000000000020170517
201705170060000700000000000000001059000000000000000010598000000000020000000001Consumidor Final              000000000284031000000000000000000000000000000000000000000000000000000000000000000000000000000000000000000000000000000000PES00010000001000000000000000020170517
201705170060000400000000000000001471000000000000000014718000000000020000000001Consumidor Final              000000001252803000000000000000000000000000000000000000000000000000000000000000000000000000000000000000000000000000000000PES00010000001000000000000000020170517
201705180010000700000000000000003314000000000000000033148000000000030711383693Grinfil SRL                   000000000036507000000000000000000000000000000000000000000000000000000000000000000000000000000000000000000000000000000000PES00010000001000000000000000020170518
201705180010000700000000000000003315000000000000000033158000000000027243389483Miranda Paola                 000000000051700000000000000000000000000000000000000000000000000000000000000000000000000000000000000000000000000000000000PES00010000001000000000000000020170518
201705180010000700000000000000003316000000000000000033168000000000030690663860Mocovi s.r.l.                 000000039523967000000000000000000000000000000000000000000000000000000000000000000000483967000000000000000000000000000000PES00010000001000000000000000020170518
201705180010000700000000000000003317000000000000000033178000000000030679839191Concordia Construcciones      000000000028028000000000000000000000000000000000000000000000000000000000000000000000000000000000000000000000000000000000PES00010000001000000000000000020170518
201705180010000700000000000000003318000000000000000033188000000000033709488959Comercial Lima S.A            000000000012805000000000000000000000000000000000000000000000000000000000000000000000000000000000000000000000000000000000PES00010000001N00000000000000020170518
201705180060000700000000000000001060000000000000000010608000000000030707534512Auditoria Gral de la Prov     000000000004560000000000000000000000000000000000000000000000000000000000000000000000000000000000000000000000000000000000PES00010000001000000000000000020170518
201705180060000700000000000000001061000000000000000010618000000000030999256267Escuela Jacoba Saravia N      000000000024055000000000000000000000000000000000000000000000000000000000000000000000000000000000000000000000000000000000PES00010000001000000000000000020170518
201705180060000400000000000000001472000000000000000014728000000000020000000001Consumidor Final              000000001144902000000000000000000000000000000000000000000000000000000000000000000000000000000000000000000000000000000000PES00010000001000000000000000020170518
201705190010000700000000000000003319000000000000000033198000000000030710586140AG  Emprendimientos SRL       000000000021976000000000000000000000000000000000000000000000000000000000000000000000000000000000000000000000000000000000PES00010000001000000000000000020170519
201705190010000700000000000000003320000000000000000033208000000000030711229376Pascha SRL                    000000000048001000000000000000000000000000000000000000000000000000000000000000000000000000000000000000000000000000000000PES00010000001000000000000000020170519
201705190010000700000000000000003321000000000000000033218000000000020122204074Bassani Carlos Enrique        000000000104517000000000000000000000000000000000000000000000000000000000000000000000000000000000000000000000000000000000PES00010000001000000000000000020170519
201705190010000700000000000000003322000000000000000033228000000000020110800879Araoz Avelino                 000000000110014000000000000000000000000000000000000000000000000000000000000000000000000000000000000000000000000000000000PES00010000001000000000000000020170519
201705190010000700000000000000003323000000000000000033238000000000030708362901Alexandra S.R.L               000000000143099000000000000000000000000000000000000000000000000000000000000000000000000000000000000000000000000000000000PES00010000001000000000000000020170519
201705190010000700000000000000003324000000000000000033248000000000030710586140AG  Emprendimientos SRL       000000000064506000000000000000000000000000000000000000000000000000000000000000000000000000000000000000000000000000000000PES00010000001000000000000000020170519
201705190010000700000000000000003325000000000000000033258000000000020182290328Abdenur Jorge Enrique         000000000222025000000000000000000000000000000000000000000000000000000000000000000000000000000000000000000000000000000000PES00010000001000000000000000020170519
201705190010000700000000000000003326000000000000000033268000000000020081742406Usandivaras Marcelo           000000000128003000000000000000000000000000000000000000000000000000000000000000000000000000000000000000000000000000000000PES00010000001N00000000000000020170519
201705190010000700000000000000003327000000000000000033278000000000030711939675Ikba SA                       000000000080002000000000000000000000000000000000000000000000000000000000000000000000000000000000000000000000000000000000PES00010000001000000000000000020170519
201705190010000700000000000000003328000000000000000033288000000000030504549328INGECO SA                     000000000227056000000000000000000000000000000000000000000000000000000000000000000000000000000000000000000000000000000000PES00010000001000000000000000020170519
201705190010000700000000000000003329000000000000000033298000000000027137015353Cordoba Nilda                 000000000094351000000000000000000000000000000000000000000000000000000000000000000000000000000000000000000000000000000000PES00010000001000000000000000020170519
201705190010000700000000000000003330000000000000000033308000000000023203994729Lajad Peralta Manuel Adol     000000000010623000000000000000000000000000000000000000000000000000000000000000000000000000000000000000000000000000000000PES00010000001000000000000000020170519
201705190010000700000000000000003331000000000000000033318000000000027006586762Sucesion Marocco Irma         000000000032001000000000000000000000000000000000000000000000000000000000000000000000000000000000000000000000000000000000PES00010000001000000000000000020170519
201705190060000700000000000000001062000000000000000010628000000000033708809379Uzzi College SRL              000000001950066000000000000000000000000000000000000000000000000000000000000000000000000000000000000000000000000000000000PES00010000001000000000000000020170519
201705190060000700000000000000001063000000000000000010638000000000030568952762La Casas de los Ninos         000000000004511000000000000000000000000000000000000000000000000000000000000000000000000000000000000000000000000000000000PES00010000001000000000000000020170519
201705190060000700000000000000001064000000000000000010648000000000030999284651Policia de Salta              000000001941760000000000000000000000000000000000000000000000000000000000000000000000000000000000000000000000000000000000PES00010000001000000000000000020170519
201705190060000700000000000000001065000000000000000010658000000000030999256267Escuela Jacoba Saravia N      000000000004025000000000000000000000000000000000000000000000000000000000000000000000000000000000000000000000000000000000PES00010000001000000000000000020170519
201705190060000700000000000000001067000000000000000010678000000000033708809379Uzzi College SRL              000000001950048000000000000000000000000000000000000000000000000000000000000000000000000000000000000000000000000000000000PES00010000001000000000000000020170519
201705190060000700000000000000001068000000000000000010688000000000030690654756Popeye BC                     000000000033957000000000000000000000000000000000000000000000000000000000000000000000000000000000000000000000000000000000PES00010000001000000000000000020170519
201705190060000700000000000000001069000000000000000010698000000000020000000001Escuela Victorino de la P     000000000056008000000000000000000000000000000000000000000000000000000000000000000000000000000000000000000000000000000000PES00010000001000000000000000020170519
201705190060000700000000000000001070000000000000000010708000000000030602884550CIrculo de Oficiales Poli     000000000034476000000000000000000000000000000000000000000000000000000000000000000000000000000000000000000000000000000000PES00010000001000000000000000020170519
201705190080000700000000000000000007000000000000000000078000000000033708809379Uzzi College SRL              000000001950066000000000000000000000000000000000000000000000000000000000000000000000000000000000000000000000000000000000PES00010000001000000000000000020170519
201705190080000700000000000000000008000000000000000000088000000000030999284651Policia de Salta              000000001941760000000000000000000000000000000000000000000000000000000000000000000000000000000000000000000000000000000000PES00010000001000000000000000020170519
201705190060000400000000000000001473000000000000000014738000000000020000000001Consumidor Final              000000000911800000000000000000000000000000000000000000000000000000000000000000000000000000000000000000000000000000000000PES00010000001000000000000000020170519
201705200010000700000000000000003332000000000000000033328000000000020162972147Chuquisaca Victor             000000000014509000000000000000000000000000000000000000000000000000000000000000000000000000000000000000000000000000000000PES00010000001000000000000000020170520
201705200010000700000000000000003333000000000000000033338000000000020081770515Raul Rodolfo Gaspar           000000000074037000000000000000000000000000000000000000000000000000000000000000000000000000000000000000000000000000000000PES00010000001000000000000000020170520
201705200010000700000000000000003334000000000000000033348000000000027243389483Miranda Paola                 000000000081506000000000000000000000000000000000000000000000000000000000000000000000000000000000000000000000000000000000PES00010000001000000000000000020170520
201705200010000700000000000000003335000000000000000033358000000000033711568749Hoteles del Norte SRL         000000000009520000000000000000000000000000000000000000000000000000000000000000000000000000000000000000000000000000000000PES00010000001000000000000000020170520
201705200010000700000000000000003336000000000000000033368000000000020162972147Chuquisaca Victor             000000000009839000000000000000000000000000000000000000000000000000000000000000000000000000000000000000000000000000000000PES00010000001000000000000000020170520
201705200010000700000000000000003337000000000000000033378000000000030708456337Duende Azul SRL               000000000076968000000000000000000000000000000000000000000000000000000000000000000000000000000000000000000000000000000000PES00010000001000000000000000020170520
201705200060000700000000000000001071000000000000000010718000000000030539032646Club 20 de Febrero            000000000005312000000000000000000000000000000000000000000000000000000000000000000000000000000000000000000000000000000000PES00010000001000000000000000020170520
201705200060000700000000000000001072000000000000000010728000000000020000000001Consorcio Mercedes 2          000000000033002000000000000000000000000000000000000000000000000000000000000000000000000000000000000000000000000000000000PES00010000001000000000000000020170520
201705200060000700000000000000001073000000000000000010738000000000030539032646Club 20 de Febrero            000000000044200000000000000000000000000000000000000000000000000000000000000000000000000000000000000000000000000000000000PES00010000001000000000000000020170520
201705200060000400000000000000001474000000000000000014748000000000020000000001Consumidor Final              000000000233002000000000000000000000000000000000000000000000000000000000000000000000000000000000000000000000000000000000PES00010000001000000000000000020170520
201705220010000700000000000000003338000000000000000033388000000000020295862867Vivero Diego David            000000000032564000000000000000000000000000000000000000000000000000000000000000000000000000000000000000000000000000000000PES00010000001000000000000000020170522
201705220010000700000000000000003339000000000000000033398000000000030709224901Rac Contrucciones SRL         000000000010199000000000000000000000000000000000000000000000000000000000000000000000000000000000000000000000000000000000PES00010000001000000000000000020170522
201705220010000700000000000000003340000000000000000033408000000000030710398980Horacio Bielli Div. Empre     000000000037510000000000000000000000000000000000000000000000000000000000000000000000000000000000000000000000000000000000PES00010000001000000000000000020170522
201705220010000700000000000000003341000000000000000033418000000000030710398980Horacio Bielli Div. Empre     000000000044017000000000000000000000000000000000000000000000000000000000000000000000000000000000000000000000000000000000PES00010000001000000000000000020170522
201705220010000700000000000000003342000000000000000033428000000000020216332467Larran Gaston                 000000000031004000000000000000000000000000000000000000000000000000000000000000000000000000000000000000000000000000000000PES00010000001000000000000000020170522
201705220010000700000000000000003343000000000000000033438000000000020203999519Delta Computacion             000000000028815000000000000000000000000000000000000000000000000000000000000000000000000000000000000000000000000000000000PES00010000001000000000000000020170522
201705220010000700000000000000003344000000000000000033448000000000020171317194Vera Hector  Ramon            000000000033580000000000000000000000000000000000000000000000000000000000000000000000000000000000000000000000000000000000PES00010000001000000000000000020170522
201705220010000700000000000000003345000000000000000033458000000000027351067557Campos Florencia              000000000040971000000000000000000000000000000000000000000000000000000000000000000000000000000000000000000000000000000000PES00010000001000000000000000020170522
201705220010000700000000000000003346000000000000000033468000000000020163082609Basso Danilo Miguel           000000000044518000000000000000000000000000000000000000000000000000000000000000000000000000000000000000000000000000000000PES00010000001000000000000000020170522
201705220010000700000000000000003347000000000000000033478000000000020144533284Quinteros Horacio             000000000267925000000000000000000000000000000000000000000000000000000000000000000000000000000000000000000000000000000000PES00010000001000000000000000020170522
201705220010000700000000000000003348000000000000000033488000000000020171317194Vera Hector  Ramon            000000000003219000000000000000000000000000000000000000000000000000000000000000000000000000000000000000000000000000000000PES00010000001000000000000000020170522
201705220010000700000000000000003349000000000000000033498000000000020203999519Delta Computacion             000000000015979000000000000000000000000000000000000000000000000000000000000000000000000000000000000000000000000000000000PES00010000001000000000000000020170522
201705220060000700000000000000001074000000000000000010748000000000020000000001Consumidor Final              000000000840095000000000000000000000000000000000000000000000000000000000000000000000000000000000000000000000000000000000PES00010000001000000000000000020170522
201705220060000400000000000000001475000000000000000014758000000000020000000001Consumidor Final              000000000739500000000000000000000000000000000000000000000000000000000000000000000000000000000000000000000000000000000000PES00010000001000000000000000020170522
201705230010000700000000000000003350000000000000000033508000000000020081714046Binda Victorio Ricardo        000000000033889000000000000000000000000000000000000000000000000000000000000000000000000000000000000000000000000000000000PES00010000001000000000000000020170523
201705230010000700000000000000003351000000000000000033518000000000030710586140AG  Emprendimientos SRL       000000000052190000000000000000000000000000000000000000000000000000000000000000000000000000000000000000000000000000000000PES00010000001000000000000000020170523
201705230010000700000000000000003352000000000000000033528000000000020119442584Alfarano Jose Mario           000000000208203000000000000000000000000000000000000000000000000000000000000000000000000000000000000000000000000000000000PES00010000001000000000000000020170523
201705230010000700000000000000003353000000000000000033538000000000020081714046Binda Victorio Ricardo        000000000008006000000000000000000000000000000000000000000000000000000000000000000000000000000000000000000000000000000000PES00010000001000000000000000020170523
201705230010000700000000000000003354000000000000000033548000000000030711372705Garin Juan Pedro Construc     000000000020040000000000000000000000000000000000000000000000000000000000000000000000000000000000000000000000000000000000PES00010000001000000000000000020170523
201705230010000700000000000000003355000000000000000033558000000000020079840336Figueroa Hector Luis          000000000019008000000000000000000000000000000000000000000000000000000000000000000000000000000000000000000000000000000000PES00010000001000000000000000020170523
201705230010000700000000000000003356000000000000000033568000000000020072364164Condori Lucas                 000000000009513000000000000000000000000000000000000000000000000000000000000000000000000000000000000000000000000000000000PES00010000001000000000000000020170523
201705230010000700000000000000003357000000000000000033578000000000020249689131Nanni Construcciones          000000000031961000000000000000000000000000000000000000000000000000000000000000000000000000000000000000000000000000000000PES00010000001000000000000000020170523
201705230010000700000000000000003358000000000000000033588000000000030709268763Fico World SRL                000000000032001000000000000000000000000000000000000000000000000000000000000000000000000000000000000000000000000000000000PES00010000001000000000000000020170523
201705230010000700000000000000003359000000000000000033598000000000030633302215San Jos de Pocoy s.a.        000000000026732000000000000000000000000000000000000000000000000000000000000000000000000000000000000000000000000000000000PES00010000001000000000000000020170523
201705230010000700000000000000003360000000000000000033608000000000030710078099A y T Comm SRL                000000000008010000000000000000000000000000000000000000000000000000000000000000000000000000000000000000000000000000000000PES00010000001000000000000000020170523
201705230010000700000000000000003361000000000000000033618000000000020139849540Sanchez Claudio               000000000009007000000000000000000000000000000000000000000000000000000000000000000000000000000000000000000000000000000000PES00010000001000000000000000020170523
201705230010000700000000000000003362000000000000000033628000000000030687310434INC. S. A                     000000000021887000000000000000000000000000000000000000000000000000000000000000000000000000000000000000000000000000000000PES00010000001000000000000000020170523
201705230060000700000000000000001075000000000000000010758000000000020000000001Jose Martin Jimenez           000000001600093000000000000000000000000000000000000000000000000000000000000000000000000000000000000000000000000000000000PES00010000001000000000000000020170523
201705230060000700000000000000001076000000000000000010768000000000030999284651Policia de Salta              000000000010582000000000000000000000000000000000000000000000000000000000000000000000000000000000000000000000000000000000PES00010000001000000000000000020170523
201705230060000400000000000000001476000000000000000014768000000000020000000001Consumidor Final              000000000669102000000000000000000000000000000000000000000000000000000000000000000000000000000000000000000000000000000000PES00010000001000000000000000020170523
201705240010000700000000000000003363000000000000000033638000000000030616928828Vidmar SRL                    000000000200088000000000000000000000000000000000000000000000000000000000000000000000000000000000000000000000000000000000PES00010000001000000000000000020170524
201705240010000700000000000000003364000000000000000033648000000000020144533284Quinteros Horacio             000000000033208000000000000000000000000000000000000000000000000000000000000000000000000000000000000000000000000000000000PES00010000001000000000000000020170524
201705240010000700000000000000003365000000000000000033658000000000030709543446Dei Templi SRL                000000003000668000000000000000000000000000000000000000000000000000000000000000000000000000000000000000000000000000000000PES00010000001000000000000000020170524
201705240010000700000000000000003366000000000000000033668000000000030501522496Vicente Moncho Construcci     000000042400727000000000000000000000000000000000000000000000000000000000000000000000000000000000000000000000000000000000PES00010000001000000000000000020170524
201705240010000700000000000000003367000000000000000033678000000000030501522496Vicente Moncho Construcci     000000017801734000000000000000000000000000000000000000000000000000000000000000000000000000000000000000000000000000000000PES00010000001000000000000000020170524
201705240010000700000000000000003368000000000000000033688000000000030710586140AG  Emprendimientos SRL       000000000010013000000000000000000000000000000000000000000000000000000000000000000000000000000000000000000000000000000000PES00010000001000000000000000020170524
201705240010000700000000000000003369000000000000000033698000000000030710398980Horacio Bielli Div. Empre     000000000057415000000000000000000000000000000000000000000000000000000000000000000000000000000000000000000000000000000000PES00010000001000000000000000020170524
201705240010000700000000000000003370000000000000000033708000000000020137362652Bejar Martinez Daniel         000000000008976000000000000000000000000000000000000000000000000000000000000000000000000000000000000000000000000000000000PES00010000001000000000000000020170524
201705240010000700000000000000003371000000000000000033718000000000020141765028Zissi Nicolas                 000000000061014000000000000000000000000000000000000000000000000000000000000000000000000000000000000000000000000000000000PES00010000001000000000000000020170524
201705240010000700000000000000003372000000000000000033728000000000020110606355Casado Hector Raul            000000000411215000000000000000000000000000000000000000000000000000000000000000000000000000000000000000000000000000000000PES00010000001000000000000000020170524
201705240010000700000000000000003373000000000000000033738000000000023237491149Haddad Juan Sebastian         000000000812504000000000000000000000000000000000000000000000000000000000000000000000000000000000000000000000000000000000PES00010000001000000000000000020170524
201705240010000700000000000000003374000000000000000033748000000000030644225360Servicios Viales de Pigue     000000025003477000000000000000000000000000000000000000000000000000000000000000000000000000000000000000000000000000000000PES00010000001000000000000000020170524
201705240060000700000000000000001077000000000000000010778000000000030583618232Salta Polo Club               000000000027625000000000000000000000000000000000000000000000000000000000000000000000000000000000000000000000000000000000PES00010000001000000000000000020170524
201705240060000400000000000000001477000000000000000014778000000000020000000001Consumidor Final              000000000827701000000000000000000000000000000000000000000000000000000000000000000000000000000000000000000000000000000000PES00010000001000000000000000020170524
201705260010000700000000000000003375000000000000000033758000000000030709224901Rac Construcciones SRL        000000000012702000000000000000000000000000000000000000000000000000000000000000000000000000000000000000000000000000000000PES00010000001000000000000000020170526
201705260010000700000000000000003376000000000000000033768000000000027065355820Galli Martina Marta Susan     000000000027014000000000000000000000000000000000000000000000000000000000000000000000000000000000000000000000000000000000PES00010000001000000000000000020170526
201705260010000700000000000000003377000000000000000033778000000000030710586140AG  Emprendimientos SRL       000000000040460000000000000000000000000000000000000000000000000000000000000000000000000000000000000000000000000000000000PES00010000001000000000000000020170526
201705260010000700000000000000003378000000000000000033788000000000033709488959Comercial Lima S.A            000000000008500000000000000000000000000000000000000000000000000000000000000000000000000000000000000000000000000000000000PES00010000001000000000000000020170526
201705260010000700000000000000003379000000000000000033798000000000030708362901Alexandra S.R.L               000000000027541000000000000000000000000000000000000000000000000000000000000000000000000000000000000000000000000000000000PES00010000001000000000000000020170526
201705260010000700000000000000003380000000000000000033808000000000020216345968Limpias Gustavo               000000000015016000000000000000000000000000000000000000000000000000000000000000000000000000000000000000000000000000000000PES00010000001000000000000000020170526
201705260010000700000000000000003381000000000000000033818000000000020203999519Delta Computacion             000000000015004000000000000000000000000000000000000000000000000000000000000000000000000000000000000000000000000000000000PES00010000001000000000000000020170526
201705260060000700000000000000001078000000000000000010788000000000030999284651Policia de Salta              000000000040020000000000000000000000000000000000000000000000000000000000000000000000000000000000000000000000000000000000PES00010000001000000000000000020170526
201705260060000700000000000000001079000000000000000010798000000000030999284651Policia de Salta              000000000009800000000000000000000000000000000000000000000000000000000000000000000000000000000000000000000000000000000000PES00010000001000000000000000020170526
201705260060000700000000000000001080000000000000000010808000000000030533610338Club de Gimnasia y Tiro A     000000000005015000000000000000000000000000000000000000000000000000000000000000000000000000000000000000000000000000000000PES00010000001000000000000000020170526
201705260060000400000000000000001478000000000000000014788000000000020000000001Consumidor Final              000000000792802000000000000000000000000000000000000000000000000000000000000000000000000000000000000000000000000000000000PES00010000001000000000000000020170526
201705270010000700000000000000003382000000000000000033828000000000030708362901Alexandra S.R.L               000000000013514000000000000000000000000000000000000000000000000000000000000000000000000000000000000000000000000000000000PES00010000001000000000000000020170527
201705270010000700000000000000003383000000000000000033838000000000027006586762Sucesion Marocco Irma         000000000043992000000000000000000000000000000000000000000000000000000000000000000000000000000000000000000000000000000000PES00010000001000000000000000020170527
201705270010000700000000000000003384000000000000000033848000000000027006586762Sucesion Marocco Irma         000000000027500000000000000000000000000000000000000000000000000000000000000000000000000000000000000000000000000000000000PES00010000001000000000000000020170527
201705270010000700000000000000003385000000000000000033858000000000030709676861Hospital Privado Tres Cer     000000000015027000000000000000000000000000000000000000000000000000000000000000000000000000000000000000000000000000000000PES00010000001000000000000000020170527
201705270060000700000000000000001081000000000000000010818000000000030710860854Fundacion Numen               000000000040502000000000000000000000000000000000000000000000000000000000000000000000000000000000000000000000000000000000PES00010000001000000000000000020170527
201705270060000700000000000000001082000000000000000010828000000000020000000001Consumidor Final              000000000010500000000000000000000000000000000000000000000000000000000000000000000000000000000000000000000000000000000000PES00010000001000000000000000020170527
201705270060000400000000000000001479000000000000000014798000000000020000000001Consumidor Final              000000000314850000000000000000000000000000000000000000000000000000000000000000000000000000000000000000000000000000000000PES00010000001000000000000000020170527
201705290010000700000000000000003386000000000000000033868000000000020141765028Zissi Nicolas                 000000000055336000000000000000000000000000000000000000000000000000000000000000000000000000000000000000000000000000000000PES00010000001000000000000000020170529
