201703010060000200000000000000010920000000000000000109208000000000020000000001Consumidor Final              000000000079000000000000000000000000000000000000000000000000000000000000000000000000000000000000000000000000000000000000PES00010000001000000000000000020170301
201703010060000200000000000000010921000000000000000109218000000000020000000001Consumidor Final              000000000083000000000000000000000000000000000000000000000000000000000000000000000000000000000000000000000000000000000000PES00010000001000000000000000020170301
201703010060000200000000000000010922000000000000000109228000000000020000000001Consumidor Final              000000000030000000000000000000000000000000000000000000000000000000000000000000000000000000000000000000000000000000000000PES00010000001000000000000000020170301
201703010060000200000000000000010923000000000000000109238000000000020000000001Consumidor Final              000000000180000000000000000000000000000000000000000000000000000000000000000000000000000000000000000000000000000000000000PES00010000001000000000000000020170301
201703010060000200000000000000010924000000000000000109248000000000020000000001Consumidor Final              000000000095000000000000000000000000000000000000000000000000000000000000000000000000000000000000000000000000000000000000PES00010000001000000000000000020170301
201703010060000200000000000000010925000000000000000109258000000000020000000001Consumidor Final              000000000089000000000000000000000000000000000000000000000000000000000000000000000000000000000000000000000000000000000000PES00010000001000000000000000020170301
201703010060000200000000000000010926000000000000000109268000000000020000000001Consumidor Final              000000000115000000000000000000000000000000000000000000000000000000000000000000000000000000000000000000000000000000000000PES00010000001000000000000000020170301
201703010060000200000000000000010927000000000000000109278000000000020000000001Consumidor Final              000000000135000000000000000000000000000000000000000000000000000000000000000000000000000000000000000000000000000000000000PES00010000001000000000000000020170301
201703010060000200000000000000010928000000000000000109288000000000020000000001Consumidor Final              000000000180000000000000000000000000000000000000000000000000000000000000000000000000000000000000000000000000000000000000PES00010000001000000000000000020170301
201703010060000200000000000000010929000000000000000109298000000000020000000001Consumidor Final              000000000064000000000000000000000000000000000000000000000000000000000000000000000000000000000000000000000000000000000000PES00010000001000000000000000020170301
201703010060000200000000000000010930000000000000000109308000000000020000000001Consumidor Final              000000000166500000000000000000000000000000000000000000000000000000000000000000000000000000000000000000000000000000000000PES00010000001000000000000000020170301
201703010060000200000000000000010931000000000000000109318000000000020000000001Consumidor Final              000000000047500000000000000000000000000000000000000000000000000000000000000000000000000000000000000000000000000000000000PES00010000001000000000000000020170301
201703010060000200000000000000010932000000000000000109328000000000020000000001Consumidor Final              000000000125000000000000000000000000000000000000000000000000000000000000000000000000000000000000000000000000000000000000PES00010000001000000000000000020170301
201703010060000200000000000000010933000000000000000109338000000000020000000001Consumidor Final              000000000035000000000000000000000000000000000000000000000000000000000000000000000000000000000000000000000000000000000000PES00010000001000000000000000020170301
201703010060000200000000000000010934000000000000000109348000000000020000000001Consumidor Final              000000000169000000000000000000000000000000000000000000000000000000000000000000000000000000000000000000000000000000000000PES00010000001000000000000000020170301
201703010060000200000000000000010935000000000000000109358000000000020000000001Consumidor Final              000000000047500000000000000000000000000000000000000000000000000000000000000000000000000000000000000000000000000000000000PES00010000001000000000000000020170301
201703010060000200000000000000010936000000000000000109368000000000020000000001Consumidor Final              000000000129000000000000000000000000000000000000000000000000000000000000000000000000000000000000000000000000000000000000PES00010000001000000000000000020170301
201703010060000200000000000000010937000000000000000109378000000000020000000001Consumidor Final              000000000175000000000000000000000000000000000000000000000000000000000000000000000000000000000000000000000000000000000000PES00010000001000000000000000020170301
201703010060000200000000000000010938000000000000000109388000000000020000000001Consumidor Final              000000000035000000000000000000000000000000000000000000000000000000000000000000000000000000000000000000000000000000000000PES00010000001000000000000000020170301
201703010060000200000000000000010939000000000000000109398000000000020000000001Consumidor Final              000000000168000000000000000000000000000000000000000000000000000000000000000000000000000000000000000000000000000000000000PES00010000001000000000000000020170301
201703010060000200000000000000010940000000000000000109408000000000020000000001Consumidor Final              000000000079000000000000000000000000000000000000000000000000000000000000000000000000000000000000000000000000000000000000PES00010000001000000000000000020170301
201703010060000200000000000000010941000000000000000109418000000000020000000001Consumidor Final              000000000080000000000000000000000000000000000000000000000000000000000000000000000000000000000000000000000000000000000000PES00010000001000000000000000020170301
201703010060000200000000000000010942000000000000000109428000000000020000000001Consumidor Final              000000000089000000000000000000000000000000000000000000000000000000000000000000000000000000000000000000000000000000000000PES00010000001000000000000000020170301
201703010060000200000000000000010943000000000000000109438000000000020000000001Consumidor Final              000000000185000000000000000000000000000000000000000000000000000000000000000000000000000000000000000000000000000000000000PES00010000001000000000000000020170301
201703010060000200000000000000010944000000000000000109448000000000020000000001Consumidor Final              000000000099000000000000000000000000000000000000000000000000000000000000000000000000000000000000000000000000000000000000PES00010000001000000000000000020170301
201703010060000200000000000000010945000000000000000109458000000000020000000001Consumidor Final              000000000085000000000000000000000000000000000000000000000000000000000000000000000000000000000000000000000000000000000000PES00010000001000000000000000020170301
201703010060000200000000000000010946000000000000000109468000000000020000000001Consumidor Final              000000000040000000000000000000000000000000000000000000000000000000000000000000000000000000000000000000000000000000000000PES00010000001000000000000000020170301
201703010060000200000000000000010947000000000000000109478000000000020000000001Consumidor Final              000000000040000000000000000000000000000000000000000000000000000000000000000000000000000000000000000000000000000000000000PES00010000001000000000000000020170301
201703010060000200000000000000010948000000000000000109488000000000020000000001Consumidor Final              000000000189000000000000000000000000000000000000000000000000000000000000000000000000000000000000000000000000000000000000PES00010000001000000000000000020170301
201703010060000200000000000000010949000000000000000109498000000000020000000001Consumidor Final              000000000135000000000000000000000000000000000000000000000000000000000000000000000000000000000000000000000000000000000000PES00010000001000000000000000020170301
201703010060000200000000000000010950000000000000000109508000000000020000000001Consumidor Final              000000000125000000000000000000000000000000000000000000000000000000000000000000000000000000000000000000000000000000000000PES00010000001000000000000000020170301
201703010060000200000000000000010951000000000000000109518000000000020000000001Consumidor Final              000000000059000000000000000000000000000000000000000000000000000000000000000000000000000000000000000000000000000000000000PES00010000001000000000000000020170301
201703020060000200000000000000010952000000000000000109528000000000020000000001Consumidor Final              000000000089000000000000000000000000000000000000000000000000000000000000000000000000000000000000000000000000000000000000PES00010000001000000000000000020170302
201703020060000200000000000000010953000000000000000109538000000000020000000001Consumidor Final              000000000210000000000000000000000000000000000000000000000000000000000000000000000000000000000000000000000000000000000000PES00010000001000000000000000020170302
201703020060000200000000000000010954000000000000000109548000000000020000000001Consumidor Final              000000000047500000000000000000000000000000000000000000000000000000000000000000000000000000000000000000000000000000000000PES00010000001000000000000000020170302
201703020060000200000000000000010955000000000000000109558000000000020000000001Consumidor Final              000000000035000000000000000000000000000000000000000000000000000000000000000000000000000000000000000000000000000000000000PES00010000001000000000000000020170302
201703020060000200000000000000010956000000000000000109568000000000020000000001Consumidor Final              000000000075000000000000000000000000000000000000000000000000000000000000000000000000000000000000000000000000000000000000PES00010000001000000000000000020170302
201703020060000200000000000000010957000000000000000109578000000000020000000001Consumidor Final              000000000030000000000000000000000000000000000000000000000000000000000000000000000000000000000000000000000000000000000000PES00010000001000000000000000020170302
201703020060000200000000000000010958000000000000000109588000000000020000000001Consumidor Final              000000000047500000000000000000000000000000000000000000000000000000000000000000000000000000000000000000000000000000000000PES00010000001000000000000000020170302
201703020060000200000000000000010959000000000000000109598000000000020000000001Consumidor Final              000000000169000000000000000000000000000000000000000000000000000000000000000000000000000000000000000000000000000000000000PES00010000001000000000000000020170302
201703020060000200000000000000010960000000000000000109608000000000020000000001Consumidor Final              000000000477500000000000000000000000000000000000000000000000000000000000000000000000000000000000000000000000000000000000PES00010000001000000000000000020170302
201703020060000200000000000000010961000000000000000109618000000000020000000001Consumidor Final              000000000055000000000000000000000000000000000000000000000000000000000000000000000000000000000000000000000000000000000000PES00010000001000000000000000020170302
201703020060000200000000000000010962000000000000000109628000000000020000000001Consumidor Final              000000000145000000000000000000000000000000000000000000000000000000000000000000000000000000000000000000000000000000000000PES00010000001000000000000000020170302
201703020060000200000000000000010963000000000000000109638000000000020000000001Consumidor Final              000000000089000000000000000000000000000000000000000000000000000000000000000000000000000000000000000000000000000000000000PES00010000001000000000000000020170302
201703020060000200000000000000010964000000000000000109648000000000020000000001Consumidor Final              000000000169000000000000000000000000000000000000000000000000000000000000000000000000000000000000000000000000000000000000PES00010000001000000000000000020170302
201703020060000200000000000000010965000000000000000109658000000000020000000001Consumidor Final              000000000035000000000000000000000000000000000000000000000000000000000000000000000000000000000000000000000000000000000000PES00010000001000000000000000020170302
201703020060000200000000000000010966000000000000000109668000000000020000000001Consumidor Final              000000000160000000000000000000000000000000000000000000000000000000000000000000000000000000000000000000000000000000000000PES00010000001000000000000000020170302
201703020060000200000000000000010967000000000000000109678000000000020000000001Consumidor Final              000000000089000000000000000000000000000000000000000000000000000000000000000000000000000000000000000000000000000000000000PES00010000001000000000000000020170302
201703020060000200000000000000010968000000000000000109688000000000020000000001Consumidor Final              000000000035000000000000000000000000000000000000000000000000000000000000000000000000000000000000000000000000000000000000PES00010000001000000000000000020170302
201703020060000200000000000000010969000000000000000109698000000000020000000001Consumidor Final              000000000045000000000000000000000000000000000000000000000000000000000000000000000000000000000000000000000000000000000000PES00010000001000000000000000020170302
201703020060000200000000000000010970000000000000000109708000000000020000000001Consumidor Final              000000000025000000000000000000000000000000000000000000000000000000000000000000000000000000000000000000000000000000000000PES00010000001000000000000000020170302
201703020060000200000000000000010971000000000000000109718000000000020000000001Consumidor Final              000000000114000000000000000000000000000000000000000000000000000000000000000000000000000000000000000000000000000000000000PES00010000001000000000000000020170302
201703020060000200000000000000010972000000000000000109728000000000020000000001Consumidor Final              000000000089000000000000000000000000000000000000000000000000000000000000000000000000000000000000000000000000000000000000PES00010000001000000000000000020170302
201703020060000200000000000000010973000000000000000109738000000000020000000001Consumidor Final              000000000094500000000000000000000000000000000000000000000000000000000000000000000000000000000000000000000000000000000000PES00010000001000000000000000020170302
201703020060000200000000000000010974000000000000000109748000000000020000000001Consumidor Final              000000000160000000000000000000000000000000000000000000000000000000000000000000000000000000000000000000000000000000000000PES00010000001000000000000000020170302
201703020060000200000000000000010975000000000000000109758000000000020000000001Consumidor Final              000000000044000000000000000000000000000000000000000000000000000000000000000000000000000000000000000000000000000000000000PES00010000001000000000000000020170302
201703020060000200000000000000010976000000000000000109768000000000020000000001Consumidor Final              000000000099000000000000000000000000000000000000000000000000000000000000000000000000000000000000000000000000000000000000PES00010000001000000000000000020170302
201703020060000200000000000000010977000000000000000109778000000000020000000001Consumidor Final              000000000200000000000000000000000000000000000000000000000000000000000000000000000000000000000000000000000000000000000000PES00010000001000000000000000020170302
201703020060000200000000000000010978000000000000000109788000000000020000000001Consumidor Final              000000000184000000000000000000000000000000000000000000000000000000000000000000000000000000000000000000000000000000000000PES00010000001000000000000000020170302
201703020060000200000000000000010979000000000000000109798000000000020000000001Consumidor Final              000000000134000000000000000000000000000000000000000000000000000000000000000000000000000000000000000000000000000000000000PES00010000001000000000000000020170302
201703030060000200000000000000010980000000000000000109808000000000020000000001Consumidor Final              000000000124000000000000000000000000000000000000000000000000000000000000000000000000000000000000000000000000000000000000PES00010000001000000000000000020170303
201703030060000200000000000000010981000000000000000109818000000000020000000001Consumidor Final              000000000105000000000000000000000000000000000000000000000000000000000000000000000000000000000000000000000000000000000000PES00010000001000000000000000020170303
201703030060000200000000000000010982000000000000000109828000000000020000000001Consumidor Final              000000000050000000000000000000000000000000000000000000000000000000000000000000000000000000000000000000000000000000000000PES00010000001000000000000000020170303
201703030060000200000000000000010983000000000000000109838000000000020000000001Consumidor Final              000000000047500000000000000000000000000000000000000000000000000000000000000000000000000000000000000000000000000000000000PES00010000001000000000000000020170303
201703030060000200000000000000010984000000000000000109848000000000020000000001Consumidor Final              000000000030000000000000000000000000000000000000000000000000000000000000000000000000000000000000000000000000000000000000PES00010000001000000000000000020170303
201703030060000200000000000000010985000000000000000109858000000000020000000001Consumidor Final              000000000030000000000000000000000000000000000000000000000000000000000000000000000000000000000000000000000000000000000000PES00010000001000000000000000020170303
201703030060000200000000000000010986000000000000000109868000000000020000000001Consumidor Final              000000000079000000000000000000000000000000000000000000000000000000000000000000000000000000000000000000000000000000000000PES00010000001000000000000000020170303
201703030060000200000000000000010987000000000000000109878000000000020000000001Consumidor Final              000000000157500000000000000000000000000000000000000000000000000000000000000000000000000000000000000000000000000000000000PES00010000001000000000000000020170303
201703030060000200000000000000010988000000000000000109888000000000020000000001Consumidor Final              000000000048000000000000000000000000000000000000000000000000000000000000000000000000000000000000000000000000000000000000PES00010000001000000000000000020170303
201703030060000200000000000000010989000000000000000109898000000000020000000001Consumidor Final              000000000060000000000000000000000000000000000000000000000000000000000000000000000000000000000000000000000000000000000000PES00010000001000000000000000020170303
201703030060000200000000000000010990000000000000000109908000000000020000000001Consumidor Final              000000000197500000000000000000000000000000000000000000000000000000000000000000000000000000000000000000000000000000000000PES00010000001000000000000000020170303
201703030060000200000000000000010991000000000000000109919600000000020000000001Consumidor Final              000000000100000000000000000000000000000000000000000000000000000000000000000000000000000000000000000000000000000000000000PES00010000001000000000000000020170303
201703030060000200000000000000010992000000000000000109928000000000020000000001Consumidor Final              000000000060500000000000000000000000000000000000000000000000000000000000000000000000000000000000000000000000000000000000PES00010000001000000000000000020170303
201703030060000200000000000000010993000000000000000109938000000000020000000001Consumidor Final              000000000047500000000000000000000000000000000000000000000000000000000000000000000000000000000000000000000000000000000000PES00010000001000000000000000020170303
201703030060000200000000000000010994000000000000000109948000000000020000000001Consumidor Final              000000000047500000000000000000000000000000000000000000000000000000000000000000000000000000000000000000000000000000000000PES00010000001000000000000000020170303
201703030060000200000000000000010995000000000000000109958000000000020000000001Consumidor Final              000000000095000000000000000000000000000000000000000000000000000000000000000000000000000000000000000000000000000000000000PES00010000001000000000000000020170303
201703030060000200000000000000010996000000000000000109968000000000020000000001Consumidor Final              000000000045000000000000000000000000000000000000000000000000000000000000000000000000000000000000000000000000000000000000PES00010000001000000000000000020170303
201703030060000200000000000000010997000000000000000109978000000000020000000001Consumidor Final              000000000150000000000000000000000000000000000000000000000000000000000000000000000000000000000000000000000000000000000000PES00010000001000000000000000020170303
201703030060000200000000000000010998000000000000000109988000000000020000000001Consumidor Final              000000000089000000000000000000000000000000000000000000000000000000000000000000000000000000000000000000000000000000000000PES00010000001000000000000000020170303
201703030060000200000000000000010999000000000000000109998000000000020000000001Consumidor Final              000000000040000000000000000000000000000000000000000000000000000000000000000000000000000000000000000000000000000000000000PES00010000001000000000000000020170303
201703030060000200000000000000011000000000000000000110008000000000020000000001Consumidor Final              000000000125000000000000000000000000000000000000000000000000000000000000000000000000000000000000000000000000000000000000PES00010000001000000000000000020170303
201703030060000200000000000000011001000000000000000110018000000000020000000001Consumidor Final              000000000145000000000000000000000000000000000000000000000000000000000000000000000000000000000000000000000000000000000000PES00010000001000000000000000020170303
201703040060000200000000000000011002000000000000000110028000000000020000000001Consumidor Final              000000000045000000000000000000000000000000000000000000000000000000000000000000000000000000000000000000000000000000000000PES00010000001000000000000000020170304
201703040060000200000000000000011003000000000000000110038000000000020000000001Consumidor Final              000000000219000000000000000000000000000000000000000000000000000000000000000000000000000000000000000000000000000000000000PES00010000001000000000000000020170304
201703040060000200000000000000011004000000000000000110048000000000020000000001Consumidor Final              000000000470000000000000000000000000000000000000000000000000000000000000000000000000000000000000000000000000000000000000PES00010000001000000000000000020170304
201703040060000200000000000000011005000000000000000110058000000000020000000001Consumidor Final              000000000060000000000000000000000000000000000000000000000000000000000000000000000000000000000000000000000000000000000000PES00010000001000000000000000020170304
201703040060000200000000000000011006000000000000000110068000000000020000000001Consumidor Final              000000000017500000000000000000000000000000000000000000000000000000000000000000000000000000000000000000000000000000000000PES00010000001000000000000000020170304
201703040060000200000000000000011007000000000000000110078000000000020000000001Consumidor Final              000000000077900000000000000000000000000000000000000000000000000000000000000000000000000000000000000000000000000000000000PES00010000001000000000000000020170304
201703040060000200000000000000011008000000000000000110088000000000020000000001Consumidor Final              000000000095000000000000000000000000000000000000000000000000000000000000000000000000000000000000000000000000000000000000PES00010000001000000000000000020170304
201703040060000200000000000000011009000000000000000110098000000000020000000001Consumidor Final              000000000030000000000000000000000000000000000000000000000000000000000000000000000000000000000000000000000000000000000000PES00010000001000000000000000020170304
201703040060000200000000000000011010000000000000000110108000000000020000000001Consumidor Final              000000000115000000000000000000000000000000000000000000000000000000000000000000000000000000000000000000000000000000000000PES00010000001000000000000000020170304
201703040060000200000000000000011011000000000000000110118000000000020000000001Consumidor Final              000000000080000000000000000000000000000000000000000000000000000000000000000000000000000000000000000000000000000000000000PES00010000001000000000000000020170304
201703060060000200000000000000011012000000000000000110128000000000020000000001Consumidor Final              000000000074000000000000000000000000000000000000000000000000000000000000000000000000000000000000000000000000000000000000PES00010000001000000000000000020170306
201703060060000200000000000000011013000000000000000110138000000000020000000001Consumidor Final              000000000085000000000000000000000000000000000000000000000000000000000000000000000000000000000000000000000000000000000000PES00010000001000000000000000020170306
201703060060000200000000000000011014000000000000000110148000000000020000000001Consumidor Final              000000000155000000000000000000000000000000000000000000000000000000000000000000000000000000000000000000000000000000000000PES00010000001000000000000000020170306
201703060060000200000000000000011015000000000000000110158000000000020000000001Consumidor Final              000000000085000000000000000000000000000000000000000000000000000000000000000000000000000000000000000000000000000000000000PES00010000001000000000000000020170306
201703060060000200000000000000011016000000000000000110168000000000020000000001Consumidor Final              000000000082500000000000000000000000000000000000000000000000000000000000000000000000000000000000000000000000000000000000PES00010000001000000000000000020170306
201703060060000200000000000000011017000000000000000110178000000000020000000001Consumidor Final              000000000198000000000000000000000000000000000000000000000000000000000000000000000000000000000000000000000000000000000000PES00010000001000000000000000020170306
201703060060000200000000000000011018000000000000000110188000000000020000000001Consumidor Final              000000000047500000000000000000000000000000000000000000000000000000000000000000000000000000000000000000000000000000000000PES00010000001000000000000000020170306
201703060060000200000000000000011019000000000000000110198000000000020000000001Consumidor Final              000000000089000000000000000000000000000000000000000000000000000000000000000000000000000000000000000000000000000000000000PES00010000001000000000000000020170306
201703060060000200000000000000011020000000000000000110208000000000020000000001Consumidor Final              000000000030000000000000000000000000000000000000000000000000000000000000000000000000000000000000000000000000000000000000PES00010000001000000000000000020170306
201703060060000200000000000000011021000000000000000110218000000000020000000001Consumidor Final              000000000059000000000000000000000000000000000000000000000000000000000000000000000000000000000000000000000000000000000000PES00010000001000000000000000020170306
201703060060000200000000000000011022000000000000000110228000000000020000000001Consumidor Final              000000000175000000000000000000000000000000000000000000000000000000000000000000000000000000000000000000000000000000000000PES00010000001000000000000000020170306
201703060060000200000000000000011023000000000000000110238000000000020000000001Consumidor Final              000000000105000000000000000000000000000000000000000000000000000000000000000000000000000000000000000000000000000000000000PES00010000001000000000000000020170306
201703060060000200000000000000011024000000000000000110248000000000020000000001Consumidor Final              000000000089000000000000000000000000000000000000000000000000000000000000000000000000000000000000000000000000000000000000PES00010000001000000000000000020170306
201703060060000200000000000000011025000000000000000110258000000000020000000001Consumidor Final              000000000018000000000000000000000000000000000000000000000000000000000000000000000000000000000000000000000000000000000000PES00010000001000000000000000020170306
201703060060000200000000000000011026000000000000000110268000000000020000000001Consumidor Final              000000000039500000000000000000000000000000000000000000000000000000000000000000000000000000000000000000000000000000000000PES00010000001000000000000000020170306
201703060060000200000000000000011027000000000000000110278000000000020000000001Consumidor Final              000000000010500000000000000000000000000000000000000000000000000000000000000000000000000000000000000000000000000000000000PES00010000001000000000000000020170306
201703060060000200000000000000011028000000000000000110288000000000020000000001Consumidor Final              000000000169000000000000000000000000000000000000000000000000000000000000000000000000000000000000000000000000000000000000PES00010000001000000000000000020170306
201703060060000200000000000000011029000000000000000110298000000000020000000001Consumidor Final              000000000030000000000000000000000000000000000000000000000000000000000000000000000000000000000000000000000000000000000000PES00010000001000000000000000020170306
201703060060000200000000000000011030000000000000000110308000000000020000000001Consumidor Final              000000000030000000000000000000000000000000000000000000000000000000000000000000000000000000000000000000000000000000000000PES00010000001000000000000000020170306
201703060060000200000000000000011031000000000000000110318000000000020000000001Consumidor Final              000000000035000000000000000000000000000000000000000000000000000000000000000000000000000000000000000000000000000000000000PES00010000001000000000000000020170306
201703060060000200000000000000011032000000000000000110328000000000020000000001Consumidor Final              000000000020000000000000000000000000000000000000000000000000000000000000000000000000000000000000000000000000000000000000PES00010000001000000000000000020170306
201703060060000200000000000000011033000000000000000110338000000000020000000001Consumidor Final              000000000057500000000000000000000000000000000000000000000000000000000000000000000000000000000000000000000000000000000000PES00010000001000000000000000020170306
201703060060000200000000000000011034000000000000000110348000000000020000000001Consumidor Final              000000000039000000000000000000000000000000000000000000000000000000000000000000000000000000000000000000000000000000000000PES00010000001000000000000000020170306
201703060060000200000000000000011035000000000000000110358000000000020000000001Consumidor Final              000000000086500000000000000000000000000000000000000000000000000000000000000000000000000000000000000000000000000000000000PES00010000001000000000000000020170306
201703060060000200000000000000011036000000000000000110368000000000020000000001Consumidor Final              000000000115000000000000000000000000000000000000000000000000000000000000000000000000000000000000000000000000000000000000PES00010000001000000000000000020170306
201703060060000200000000000000011037000000000000000110378000000000020000000001Consumidor Final              000000000047500000000000000000000000000000000000000000000000000000000000000000000000000000000000000000000000000000000000PES00010000001000000000000000020170306
201703060060000200000000000000011038000000000000000110388000000000020000000001Consumidor Final              000000000139000000000000000000000000000000000000000000000000000000000000000000000000000000000000000000000000000000000000PES00010000001000000000000000020170306
201703060060000200000000000000011039000000000000000110398000000000020000000001Consumidor Final              000000000267000000000000000000000000000000000000000000000000000000000000000000000000000000000000000000000000000000000000PES00010000001000000000000000020170306
201703060060000200000000000000011040000000000000000110408000000000020000000001Consumidor Final              000000000099000000000000000000000000000000000000000000000000000000000000000000000000000000000000000000000000000000000000PES00010000001000000000000000020170306
201703060060000200000000000000011041000000000000000110418000000000020000000001Consumidor Final              000000000125000000000000000000000000000000000000000000000000000000000000000000000000000000000000000000000000000000000000PES00010000001000000000000000020170306
201703060060000200000000000000011042000000000000000110428000000000020000000001Consumidor Final              000000000079000000000000000000000000000000000000000000000000000000000000000000000000000000000000000000000000000000000000PES00010000001000000000000000020170306
201703060060000200000000000000011043000000000000000110438000000000020000000001Consumidor Final              000000000096000000000000000000000000000000000000000000000000000000000000000000000000000000000000000000000000000000000000PES00010000001000000000000000020170306
201703060060000200000000000000011044000000000000000110448000000000020000000001Consumidor Final              000000000267000000000000000000000000000000000000000000000000000000000000000000000000000000000000000000000000000000000000PES00010000001000000000000000020170306
201703060060000200000000000000011045000000000000000110458000000000020000000001Consumidor Final              000000000305000000000000000000000000000000000000000000000000000000000000000000000000000000000000000000000000000000000000PES00010000001000000000000000020170306
201703060060000200000000000000011046000000000000000110468000000000020000000001Consumidor Final              000000000200000000000000000000000000000000000000000000000000000000000000000000000000000000000000000000000000000000000000PES00010000001000000000000000020170306
201703070060000200000000000000011047000000000000000110478000000000020000000001Consumidor Final              000000000095000000000000000000000000000000000000000000000000000000000000000000000000000000000000000000000000000000000000PES00010000001000000000000000020170307
201703070060000200000000000000011048000000000000000110488000000000020000000001Consumidor Final              000000000047000000000000000000000000000000000000000000000000000000000000000000000000000000000000000000000000000000000000PES00010000001000000000000000020170307
201703070060000200000000000000011049000000000000000110498000000000020000000001Consumidor Final              000000000040000000000000000000000000000000000000000000000000000000000000000000000000000000000000000000000000000000000000PES00010000001000000000000000020170307
201703070060000200000000000000011050000000000000000110508000000000020000000001Consumidor Final              000000000045000000000000000000000000000000000000000000000000000000000000000000000000000000000000000000000000000000000000PES00010000001000000000000000020170307
201703070060000200000000000000011051000000000000000110518000000000020000000001Consumidor Final              000000000069000000000000000000000000000000000000000000000000000000000000000000000000000000000000000000000000000000000000PES00010000001000000000000000020170307
201703070060000200000000000000011052000000000000000110528000000000020000000001Consumidor Final              000000000042500000000000000000000000000000000000000000000000000000000000000000000000000000000000000000000000000000000000PES00010000001000000000000000020170307
201703070060000200000000000000011053000000000000000110538000000000020000000001Consumidor Final              000000000037000000000000000000000000000000000000000000000000000000000000000000000000000000000000000000000000000000000000PES00010000001000000000000000020170307
201703070060000200000000000000011054000000000000000110548000000000020000000001Consumidor Final              000000000047500000000000000000000000000000000000000000000000000000000000000000000000000000000000000000000000000000000000PES00010000001000000000000000020170307
201703070060000200000000000000011055000000000000000110558000000000020000000001Consumidor Final              000000000040000000000000000000000000000000000000000000000000000000000000000000000000000000000000000000000000000000000000PES00010000001000000000000000020170307
201703070060000200000000000000011056000000000000000110568000000000020000000001Consumidor Final              000000000047500000000000000000000000000000000000000000000000000000000000000000000000000000000000000000000000000000000000PES00010000001000000000000000020170307
201703070060000200000000000000011057000000000000000110578000000000020000000001Consumidor Final              000000000052500000000000000000000000000000000000000000000000000000000000000000000000000000000000000000000000000000000000PES00010000001000000000000000020170307
201703070060000200000000000000011058000000000000000110588000000000020000000001Consumidor Final              000000000040000000000000000000000000000000000000000000000000000000000000000000000000000000000000000000000000000000000000PES00010000001000000000000000020170307
201703070060000200000000000000011059000000000000000110598000000000020000000001Consumidor Final              000000000027500000000000000000000000000000000000000000000000000000000000000000000000000000000000000000000000000000000000PES00010000001000000000000000020170307
201703070060000200000000000000011060000000000000000110608000000000020000000001Consumidor Final              000000000154000000000000000000000000000000000000000000000000000000000000000000000000000000000000000000000000000000000000PES00010000001000000000000000020170307
201703070060000200000000000000011061000000000000000110618000000000020000000001Consumidor Final              000000000075000000000000000000000000000000000000000000000000000000000000000000000000000000000000000000000000000000000000PES00010000001000000000000000020170307
201703070060000200000000000000011062000000000000000110628000000000020000000001Consumidor Final              000000000199000000000000000000000000000000000000000000000000000000000000000000000000000000000000000000000000000000000000PES00010000001000000000000000020170307
201703070060000200000000000000011063000000000000000110638000000000020000000001Consumidor Final              000000000047500000000000000000000000000000000000000000000000000000000000000000000000000000000000000000000000000000000000PES00010000001000000000000000020170307
201703070060000200000000000000011064000000000000000110648000000000020000000001Consumidor Final              000000000089000000000000000000000000000000000000000000000000000000000000000000000000000000000000000000000000000000000000PES00010000001000000000000000020170307
201703070060000200000000000000011065000000000000000110658000000000020000000001Consumidor Final              000000000035000000000000000000000000000000000000000000000000000000000000000000000000000000000000000000000000000000000000PES00010000001000000000000000020170307
201703070060000200000000000000011066000000000000000110668000000000020000000001Consumidor Final              000000000025000000000000000000000000000000000000000000000000000000000000000000000000000000000000000000000000000000000000PES00010000001000000000000000020170307
201703070060000200000000000000011067000000000000000110678000000000020000000001Consumidor Final              000000000150000000000000000000000000000000000000000000000000000000000000000000000000000000000000000000000000000000000000PES00010000001000000000000000020170307
201703070060000200000000000000011068000000000000000110688000000000020000000001Consumidor Final              000000000069000000000000000000000000000000000000000000000000000000000000000000000000000000000000000000000000000000000000PES00010000001000000000000000020170307
201703070060000200000000000000011069000000000000000110698000000000020000000001Consumidor Final              000000000039000000000000000000000000000000000000000000000000000000000000000000000000000000000000000000000000000000000000PES00010000001000000000000000020170307
201703070060000200000000000000011070000000000000000110708000000000020000000001Consumidor Final              000000000095000000000000000000000000000000000000000000000000000000000000000000000000000000000000000000000000000000000000PES00010000001000000000000000020170307
201703070060000200000000000000011071000000000000000110718000000000020000000001Consumidor Final              000000000175000000000000000000000000000000000000000000000000000000000000000000000000000000000000000000000000000000000000PES00010000001000000000000000020170307
201703070060000200000000000000011072000000000000000110728000000000020000000001Consumidor Final              000000000039000000000000000000000000000000000000000000000000000000000000000000000000000000000000000000000000000000000000PES00010000001000000000000000020170307
201703070060000200000000000000011073000000000000000110738000000000020000000001Consumidor Final              000000000150000000000000000000000000000000000000000000000000000000000000000000000000000000000000000000000000000000000000PES00010000001000000000000000020170307
201703080060000200000000000000011086000000000000000110868000000000020000000001Consumidor Final              000000000080000000000000000000000000000000000000000000000000000000000000000000000000000000000000000000000000000000000000PES00010000001000000000000000020170308
201703080060000200000000000000011087000000000000000110878000000000020000000001Consumidor Final              000000000435000000000000000000000000000000000000000000000000000000000000000000000000000000000000000000000000000000000000PES00010000001000000000000000020170308
201703080060000200000000000000011074000000000000000110748000000000020000000001Consumidor Final              000000000033000000000000000000000000000000000000000000000000000000000000000000000000000000000000000000000000000000000000PES00010000001000000000000000020170308
201703080060000200000000000000011075000000000000000110758000000000020000000001Consumidor Final              000000000070000000000000000000000000000000000000000000000000000000000000000000000000000000000000000000000000000000000000PES00010000001000000000000000020170308
201703080060000200000000000000011076000000000000000110768000000000020000000001Consumidor Final              000000000209000000000000000000000000000000000000000000000000000000000000000000000000000000000000000000000000000000000000PES00010000001000000000000000020170308
201703080060000200000000000000011077000000000000000110778000000000020000000001Consumidor Final              000000000040000000000000000000000000000000000000000000000000000000000000000000000000000000000000000000000000000000000000PES00010000001000000000000000020170308
201703080060000200000000000000011078000000000000000110788000000000020000000001Consumidor Final              000000000119000000000000000000000000000000000000000000000000000000000000000000000000000000000000000000000000000000000000PES00010000001000000000000000020170308
201703080060000200000000000000011079000000000000000110798000000000020000000001Consumidor Final              000000000220000000000000000000000000000000000000000000000000000000000000000000000000000000000000000000000000000000000000PES00010000001000000000000000020170308
201703080060000200000000000000011080000000000000000110808000000000020000000001Consumidor Final              000000000035000000000000000000000000000000000000000000000000000000000000000000000000000000000000000000000000000000000000PES00010000001000000000000000020170308
201703080060000200000000000000011081000000000000000110818000000000020000000001Consumidor Final              000000000178000000000000000000000000000000000000000000000000000000000000000000000000000000000000000000000000000000000000PES00010000001000000000000000020170308
201703080060000200000000000000011082000000000000000110828000000000020000000001Consumidor Final              000000000045000000000000000000000000000000000000000000000000000000000000000000000000000000000000000000000000000000000000PES00010000001000000000000000020170308
201703080060000200000000000000011083000000000000000110838000000000020000000001Consumidor Final              000000000035000000000000000000000000000000000000000000000000000000000000000000000000000000000000000000000000000000000000PES00010000001000000000000000020170308
201703080060000200000000000000011084000000000000000110848000000000020000000001Consumidor Final              000000000039000000000000000000000000000000000000000000000000000000000000000000000000000000000000000000000000000000000000PES00010000001000000000000000020170308
201703080060000200000000000000011085000000000000000110858000000000020000000001Consumidor Final              000000000030000000000000000000000000000000000000000000000000000000000000000000000000000000000000000000000000000000000000PES00010000001000000000000000020170308
201703080060000200000000000000011088000000000000000110888000000000020000000001Consumidor Final              000000000250000000000000000000000000000000000000000000000000000000000000000000000000000000000000000000000000000000000000PES00010000001000000000000000020170308
201703080060000200000000000000011089000000000000000110898000000000020000000001Consumidor Final              000000000080000000000000000000000000000000000000000000000000000000000000000000000000000000000000000000000000000000000000PES00010000001000000000000000020170308
201703080060000200000000000000011090000000000000000110908000000000020000000001Consumidor Final              000000000025000000000000000000000000000000000000000000000000000000000000000000000000000000000000000000000000000000000000PES00010000001000000000000000020170308
201703080060000200000000000000011091000000000000000110918000000000020000000001Consumidor Final              000000000136500000000000000000000000000000000000000000000000000000000000000000000000000000000000000000000000000000000000PES00010000001000000000000000020170308
201703080060000200000000000000011092000000000000000110928000000000020000000001Consumidor Final              000000000039000000000000000000000000000000000000000000000000000000000000000000000000000000000000000000000000000000000000PES00010000001000000000000000020170308
201703080060000200000000000000011093000000000000000110938000000000020000000001Consumidor Final              000000000039000000000000000000000000000000000000000000000000000000000000000000000000000000000000000000000000000000000000PES00010000001000000000000000020170308
201703080060000200000000000000011094000000000000000110948000000000020000000001Consumidor Final              000000000115000000000000000000000000000000000000000000000000000000000000000000000000000000000000000000000000000000000000PES00010000001000000000000000020170308
201703080060000200000000000000011095000000000000000110958000000000020000000001Consumidor Final              000000000115000000000000000000000000000000000000000000000000000000000000000000000000000000000000000000000000000000000000PES00010000001000000000000000020170308
201703080060000200000000000000011096000000000000000110968000000000020000000001Consumidor Final              000000000005000000000000000000000000000000000000000000000000000000000000000000000000000000000000000000000000000000000000PES00010000001000000000000000020170308
201703080060000200000000000000011097000000000000000110978000000000020000000001Consumidor Final              000000000042500000000000000000000000000000000000000000000000000000000000000000000000000000000000000000000000000000000000PES00010000001000000000000000020170308
201703080060000200000000000000011098000000000000000110988000000000020000000001Consumidor Final              000000000028000000000000000000000000000000000000000000000000000000000000000000000000000000000000000000000000000000000000PES00010000001000000000000000020170308
201703080060000200000000000000011099000000000000000110998000000000020000000001Consumidor Final              000000000120000000000000000000000000000000000000000000000000000000000000000000000000000000000000000000000000000000000000PES00010000001000000000000000020170308
201703090060000200000000000000011100000000000000000111008000000000020000000001Consumidor Final              000000000025000000000000000000000000000000000000000000000000000000000000000000000000000000000000000000000000000000000000PES00010000001000000000000000020170309
201703090060000200000000000000011101000000000000000111018000000000020000000001Consumidor Final              000000000095000000000000000000000000000000000000000000000000000000000000000000000000000000000000000000000000000000000000PES00010000001000000000000000020170309
201703090060000200000000000000011102000000000000000111028000000000020000000001Consumidor Final              000000000178000000000000000000000000000000000000000000000000000000000000000000000000000000000000000000000000000000000000PES00010000001000000000000000020170309
201703090060000200000000000000011103000000000000000111038000000000020000000001Consumidor Final              000000000077500000000000000000000000000000000000000000000000000000000000000000000000000000000000000000000000000000000000PES00010000001000000000000000020170309
201703090060000200000000000000011104000000000000000111048000000000020000000001Consumidor Final              000000000112000000000000000000000000000000000000000000000000000000000000000000000000000000000000000000000000000000000000PES00010000001000000000000000020170309
201703090060000200000000000000011105000000000000000111058000000000020000000001Consumidor Final              000000000085000000000000000000000000000000000000000000000000000000000000000000000000000000000000000000000000000000000000PES00010000001000000000000000020170309
201703090060000200000000000000011106000000000000000111068000000000020000000001Consumidor Final              000000000060000000000000000000000000000000000000000000000000000000000000000000000000000000000000000000000000000000000000PES00010000001000000000000000020170309
201703090060000200000000000000011107000000000000000111078000000000020000000001Consumidor Final              000000000089000000000000000000000000000000000000000000000000000000000000000000000000000000000000000000000000000000000000PES00010000001000000000000000020170309
201703090060000200000000000000011108000000000000000111088000000000020000000001Consumidor Final              000000000035000000000000000000000000000000000000000000000000000000000000000000000000000000000000000000000000000000000000PES00010000001000000000000000020170309
201703090060000200000000000000011109000000000000000111098000000000020000000001Consumidor Final              000000000045000000000000000000000000000000000000000000000000000000000000000000000000000000000000000000000000000000000000PES00010000001000000000000000020170309
201703090060000200000000000000011110000000000000000111108000000000020000000001Consumidor Final              000000000045000000000000000000000000000000000000000000000000000000000000000000000000000000000000000000000000000000000000PES00010000001000000000000000020170309
201703090060000200000000000000011111000000000000000111118000000000020000000001Consumidor Final              000000000125000000000000000000000000000000000000000000000000000000000000000000000000000000000000000000000000000000000000PES00010000001000000000000000020170309
201703090060000200000000000000011112000000000000000111128000000000020000000001Consumidor Final              000000000125000000000000000000000000000000000000000000000000000000000000000000000000000000000000000000000000000000000000PES00010000001000000000000000020170309
201703090060000200000000000000011113000000000000000111138000000000020000000001Consumidor Final              000000000040000000000000000000000000000000000000000000000000000000000000000000000000000000000000000000000000000000000000PES00010000001000000000000000020170309
201703090060000200000000000000011114000000000000000111148000000000020000000001Consumidor Final              000000000089000000000000000000000000000000000000000000000000000000000000000000000000000000000000000000000000000000000000PES00010000001000000000000000020170309
201703090060000200000000000000011115000000000000000111158000000000020000000001Consumidor Final              000000000105000000000000000000000000000000000000000000000000000000000000000000000000000000000000000000000000000000000000PES00010000001000000000000000020170309
201703090060000200000000000000011117000000000000000111178000000000020000000001Consumidor Final              000000000025000000000000000000000000000000000000000000000000000000000000000000000000000000000000000000000000000000000000PES00010000001000000000000000020170309
201703090060000200000000000000011118000000000000000111188000000000020000000001Consumidor Final              000000000095000000000000000000000000000000000000000000000000000000000000000000000000000000000000000000000000000000000000PES00010000001000000000000000020170309
201703090060000200000000000000011119000000000000000111198000000000020000000001Consumidor Final              000000000335000000000000000000000000000000000000000000000000000000000000000000000000000000000000000000000000000000000000PES00010000001000000000000000020170309
201703090060000200000000000000011120000000000000000111208000000000020000000001Consumidor Final              000000000047500000000000000000000000000000000000000000000000000000000000000000000000000000000000000000000000000000000000PES00010000001000000000000000020170309
201703090060000200000000000000011121000000000000000111218000000000020000000001Consumidor Final              000000000187500000000000000000000000000000000000000000000000000000000000000000000000000000000000000000000000000000000000PES00010000001000000000000000020170309
201703100060000200000000000000011122000000000000000111228000000000020000000001Consumidor Final              000000000099000000000000000000000000000000000000000000000000000000000000000000000000000000000000000000000000000000000000PES00010000001000000000000000020170310
201703100060000200000000000000011123000000000000000111238000000000020000000001Consumidor Final              000000000060000000000000000000000000000000000000000000000000000000000000000000000000000000000000000000000000000000000000PES00010000001000000000000000020170310
201703100060000200000000000000011124000000000000000111248000000000020000000001Consumidor Final              000000000267000000000000000000000000000000000000000000000000000000000000000000000000000000000000000000000000000000000000PES00010000001000000000000000020170310
201703100060000200000000000000011125000000000000000111258000000000020000000001Consumidor Final              000000000035000000000000000000000000000000000000000000000000000000000000000000000000000000000000000000000000000000000000PES00010000001000000000000000020170310
201703100060000200000000000000011126000000000000000111268000000000020000000001Consumidor Final              000000000300000000000000000000000000000000000000000000000000000000000000000000000000000000000000000000000000000000000000PES00010000001000000000000000020170310
201703100060000200000000000000011127000000000000000111278000000000020000000001Consumidor Final              000000000012000000000000000000000000000000000000000000000000000000000000000000000000000000000000000000000000000000000000PES00010000001000000000000000020170310
201703100060000200000000000000011128000000000000000111288000000000020000000001Consumidor Final              000000000100000000000000000000000000000000000000000000000000000000000000000000000000000000000000000000000000000000000000PES00010000001000000000000000020170310
201703100060000200000000000000011129000000000000000111298000000000020000000001Consumidor Final              000000000055000000000000000000000000000000000000000000000000000000000000000000000000000000000000000000000000000000000000PES00010000001000000000000000020170310
201703100060000200000000000000011130000000000000000111308000000000020000000001Consumidor Final              000000000125000000000000000000000000000000000000000000000000000000000000000000000000000000000000000000000000000000000000PES00010000001000000000000000020170310
201703100060000200000000000000011131000000000000000111318000000000020000000001Consumidor Final              000000000070000000000000000000000000000000000000000000000000000000000000000000000000000000000000000000000000000000000000PES00010000001000000000000000020170310
201703100060000200000000000000011132000000000000000111328000000000020000000001Consumidor Final              000000000099000000000000000000000000000000000000000000000000000000000000000000000000000000000000000000000000000000000000PES00010000001000000000000000020170310
201703100060000200000000000000011133000000000000000111338000000000020000000001Consumidor Final              000000000130000000000000000000000000000000000000000000000000000000000000000000000000000000000000000000000000000000000000PES00010000001000000000000000020170310
201703100060000200000000000000011135000000000000000111358000000000020000000001Consumidor Final              000000000069000000000000000000000000000000000000000000000000000000000000000000000000000000000000000000000000000000000000PES00010000001000000000000000020170310
201703100060000200000000000000011136000000000000000111368000000000020000000001Consumidor Final              000000000100000000000000000000000000000000000000000000000000000000000000000000000000000000000000000000000000000000000000PES00010000001000000000000000020170310
201703100060000200000000000000011137000000000000000111378000000000020000000001Consumidor Final              000000000047500000000000000000000000000000000000000000000000000000000000000000000000000000000000000000000000000000000000PES00010000001000000000000000020170310
201703100060000200000000000000011138000000000000000111388000000000020000000001Consumidor Final              000000000376000000000000000000000000000000000000000000000000000000000000000000000000000000000000000000000000000000000000PES00010000001000000000000000020170310
201703100060000200000000000000011139000000000000000111398000000000020000000001Consumidor Final              000000000367000000000000000000000000000000000000000000000000000000000000000000000000000000000000000000000000000000000000PES00010000001000000000000000020170310
201703100060000200000000000000011140000000000000000111408000000000020000000001Consumidor Final              000000000470000000000000000000000000000000000000000000000000000000000000000000000000000000000000000000000000000000000000PES00010000001000000000000000020170310
201703100060000200000000000000011141000000000000000111418000000000020000000001Consumidor Final              000000000385000000000000000000000000000000000000000000000000000000000000000000000000000000000000000000000000000000000000PES00010000001000000000000000020170310
201703100060000200000000000000011142000000000000000111428000000000020000000001Consumidor Final              000000000300000000000000000000000000000000000000000000000000000000000000000000000000000000000000000000000000000000000000PES00010000001000000000000000020170310
201703110060000200000000000000011143000000000000000111438000000000020000000001Consumidor Final              000000000089000000000000000000000000000000000000000000000000000000000000000000000000000000000000000000000000000000000000PES00010000001000000000000000020170311
201703110060000200000000000000011144000000000000000111448000000000020000000001Consumidor Final              000000000030000000000000000000000000000000000000000000000000000000000000000000000000000000000000000000000000000000000000PES00010000001000000000000000020170311
201703110060000200000000000000011145000000000000000111458000000000020000000001Consumidor Final              000000000154000000000000000000000000000000000000000000000000000000000000000000000000000000000000000000000000000000000000PES00010000001000000000000000020170311
201703110060000200000000000000011146000000000000000111468000000000020000000001Consumidor Final              000000000035000000000000000000000000000000000000000000000000000000000000000000000000000000000000000000000000000000000000PES00010000001000000000000000020170311
201703110060000200000000000000011147000000000000000111478000000000020000000001Consumidor Final              000000000058000000000000000000000000000000000000000000000000000000000000000000000000000000000000000000000000000000000000PES00010000001000000000000000020170311
201703110060000200000000000000011148000000000000000111488000000000020000000001Consumidor Final              000000000085000000000000000000000000000000000000000000000000000000000000000000000000000000000000000000000000000000000000PES00010000001000000000000000020170311
201703110060000200000000000000011149000000000000000111498000000000020000000001Consumidor Final              000000000017500000000000000000000000000000000000000000000000000000000000000000000000000000000000000000000000000000000000PES00010000001000000000000000020170311
201703110060000200000000000000011150000000000000000111508000000000020000000001Consumidor Final              000000000145000000000000000000000000000000000000000000000000000000000000000000000000000000000000000000000000000000000000PES00010000001000000000000000020170311
201703110060000200000000000000011151000000000000000111518000000000020000000001Consumidor Final              000000000079000000000000000000000000000000000000000000000000000000000000000000000000000000000000000000000000000000000000PES00010000001000000000000000020170311
201703110060000200000000000000011152000000000000000111528000000000020000000001Consumidor Final              000000000010000000000000000000000000000000000000000000000000000000000000000000000000000000000000000000000000000000000000PES00010000001000000000000000020170311
201703110060000200000000000000011153000000000000000111538000000000020000000001Consumidor Final              000000000120000000000000000000000000000000000000000000000000000000000000000000000000000000000000000000000000000000000000PES00010000001000000000000000020170311
201703110060000200000000000000011154000000000000000111548000000000020000000001Consumidor Final              000000000089000000000000000000000000000000000000000000000000000000000000000000000000000000000000000000000000000000000000PES00010000001000000000000000020170311
201703110060000200000000000000011155000000000000000111558000000000020000000001Consumidor Final              000000000099000000000000000000000000000000000000000000000000000000000000000000000000000000000000000000000000000000000000PES00010000001000000000000000020170311
201703110060000200000000000000011156000000000000000111568000000000020000000001Consumidor Final              000000000089000000000000000000000000000000000000000000000000000000000000000000000000000000000000000000000000000000000000PES00010000001000000000000000020170311
201703110060000200000000000000011157000000000000000111578000000000020000000001Consumidor Final              000000000080000000000000000000000000000000000000000000000000000000000000000000000000000000000000000000000000000000000000PES00010000001000000000000000020170311
201703110060000200000000000000011158000000000000000111588000000000020000000001Consumidor Final              000000000030000000000000000000000000000000000000000000000000000000000000000000000000000000000000000000000000000000000000PES00010000001000000000000000020170311
201703110060000200000000000000011159000000000000000111598000000000020000000001Consumidor Final              000000000030000000000000000000000000000000000000000000000000000000000000000000000000000000000000000000000000000000000000PES00010000001000000000000000020170311
201703110060000200000000000000011160000000000000000111608000000000020000000001Consumidor Final              000000000070000000000000000000000000000000000000000000000000000000000000000000000000000000000000000000000000000000000000PES00010000001000000000000000020170311
201703130060000200000000000000011161000000000000000111618000000000020000000001Consumidor Final              000000000050000000000000000000000000000000000000000000000000000000000000000000000000000000000000000000000000000000000000PES00010000001000000000000000020170313
201703130060000200000000000000011162000000000000000111628000000000020000000001Consumidor Final              000000000035000000000000000000000000000000000000000000000000000000000000000000000000000000000000000000000000000000000000PES00010000001000000000000000020170313
201703130060000200000000000000011163000000000000000111638000000000020000000001Consumidor Final              000000000025000000000000000000000000000000000000000000000000000000000000000000000000000000000000000000000000000000000000PES00010000001000000000000000020170313
201703130060000200000000000000011164000000000000000111648000000000020000000001Consumidor Final              000000000089000000000000000000000000000000000000000000000000000000000000000000000000000000000000000000000000000000000000PES00010000001000000000000000020170313
201703130060000200000000000000011165000000000000000111658000000000020000000001Consumidor Final              000000000120000000000000000000000000000000000000000000000000000000000000000000000000000000000000000000000000000000000000PES00010000001000000000000000020170313
201703130060000200000000000000011166000000000000000111668000000000020000000001Consumidor Final              000000000155000000000000000000000000000000000000000000000000000000000000000000000000000000000000000000000000000000000000PES00010000001000000000000000020170313
201703130060000200000000000000011167000000000000000111678000000000020000000001Consumidor Final              000000000039000000000000000000000000000000000000000000000000000000000000000000000000000000000000000000000000000000000000PES00010000001000000000000000020170313
201703130060000200000000000000011168000000000000000111688000000000020000000001Consumidor Final              000000000089000000000000000000000000000000000000000000000000000000000000000000000000000000000000000000000000000000000000PES00010000001000000000000000020170313
201703130060000200000000000000011169000000000000000111698000000000020000000001Consumidor Final              000000000098000000000000000000000000000000000000000000000000000000000000000000000000000000000000000000000000000000000000PES00010000001000000000000000020170313
201703130060000200000000000000011170000000000000000111708000000000020000000001Consumidor Final              000000000187000000000000000000000000000000000000000000000000000000000000000000000000000000000000000000000000000000000000PES00010000001000000000000000020170313
201703130060000200000000000000011171000000000000000111718000000000020000000001Consumidor Final              000000000125000000000000000000000000000000000000000000000000000000000000000000000000000000000000000000000000000000000000PES00010000001000000000000000020170313
201703130060000200000000000000011172000000000000000111728000000000020000000001Consumidor Final              000000000070000000000000000000000000000000000000000000000000000000000000000000000000000000000000000000000000000000000000PES00010000001000000000000000020170313
201703130060000200000000000000011173000000000000000111738000000000020000000001Consumidor Final              000000000275000000000000000000000000000000000000000000000000000000000000000000000000000000000000000000000000000000000000PES00010000001000000000000000020170313
201703130060000200000000000000011174000000000000000111748000000000020000000001Consumidor Final              000000000045000000000000000000000000000000000000000000000000000000000000000000000000000000000000000000000000000000000000PES00010000001000000000000000020170313
201703130060000200000000000000011175000000000000000111758000000000020000000001Consumidor Final              000000000065000000000000000000000000000000000000000000000000000000000000000000000000000000000000000000000000000000000000PES00010000001000000000000000020170313
201703130060000200000000000000011176000000000000000111768000000000020000000001Consumidor Final              000000000115000000000000000000000000000000000000000000000000000000000000000000000000000000000000000000000000000000000000PES00010000001000000000000000020170313
201703130060000200000000000000011177000000000000000111778000000000020000000001Consumidor Final              000000000045000000000000000000000000000000000000000000000000000000000000000000000000000000000000000000000000000000000000PES00010000001000000000000000020170313
201703130060000200000000000000011178000000000000000111788000000000020000000001Consumidor Final              000000000065000000000000000000000000000000000000000000000000000000000000000000000000000000000000000000000000000000000000PES00010000001000000000000000020170313
201703130060000200000000000000011179000000000000000111798000000000020000000001Consumidor Final              000000000048000000000000000000000000000000000000000000000000000000000000000000000000000000000000000000000000000000000000PES00010000001000000000000000020170313
201703130060000200000000000000011180000000000000000111808000000000020000000001Consumidor Final              000000000058500000000000000000000000000000000000000000000000000000000000000000000000000000000000000000000000000000000000PES00010000001000000000000000020170313
201703140060000200000000000000011181000000000000000111818000000000020000000001Consumidor Final              000000000102500000000000000000000000000000000000000000000000000000000000000000000000000000000000000000000000000000000000PES00010000001000000000000000020170314
201703140060000200000000000000011182000000000000000111828000000000020000000001Consumidor Final              000000000238000000000000000000000000000000000000000000000000000000000000000000000000000000000000000000000000000000000000PES00010000001000000000000000020170314
201703140060000200000000000000011183000000000000000111838000000000020000000001Consumidor Final              000000000327500000000000000000000000000000000000000000000000000000000000000000000000000000000000000000000000000000000000PES00010000001000000000000000020170314
201703140060000200000000000000011184000000000000000111848000000000020000000001Consumidor Final              000000000410000000000000000000000000000000000000000000000000000000000000000000000000000000000000000000000000000000000000PES00010000001000000000000000020170314
201703140060000200000000000000011185000000000000000111858000000000020000000001Consumidor Final              000000000370000000000000000000000000000000000000000000000000000000000000000000000000000000000000000000000000000000000000PES00010000001000000000000000020170314
201703140060000200000000000000011186000000000000000111868000000000020000000001Consumidor Final              000000000477500000000000000000000000000000000000000000000000000000000000000000000000000000000000000000000000000000000000PES00010000001000000000000000020170314
201703140060000200000000000000011187000000000000000111878000000000020000000001Consumidor Final              000000000048000000000000000000000000000000000000000000000000000000000000000000000000000000000000000000000000000000000000PES00010000001000000000000000020170314
201703140060000200000000000000011188000000000000000111888000000000020000000001Consumidor Final              000000000025000000000000000000000000000000000000000000000000000000000000000000000000000000000000000000000000000000000000PES00010000001000000000000000020170314
201703140060000200000000000000011189000000000000000111898000000000020000000001Consumidor Final              000000000075000000000000000000000000000000000000000000000000000000000000000000000000000000000000000000000000000000000000PES00010000001000000000000000020170314
201703140060000200000000000000011190000000000000000111908000000000020000000001Consumidor Final              000000000210000000000000000000000000000000000000000000000000000000000000000000000000000000000000000000000000000000000000PES00010000001000000000000000020170314
201703140060000200000000000000011191000000000000000111918000000000020000000001Consumidor Final              000000000348000000000000000000000000000000000000000000000000000000000000000000000000000000000000000000000000000000000000PES00010000001000000000000000020170314
201703140060000200000000000000011192000000000000000111928000000000020000000001Consumidor Final              000000000027500000000000000000000000000000000000000000000000000000000000000000000000000000000000000000000000000000000000PES00010000001000000000000000020170314
201703140060000200000000000000011193000000000000000111938000000000020000000001Consumidor Final              000000000345000000000000000000000000000000000000000000000000000000000000000000000000000000000000000000000000000000000000PES00010000001000000000000000020170314
201703140060000200000000000000011194000000000000000111948000000000020000000001Consumidor Final              000000000047500000000000000000000000000000000000000000000000000000000000000000000000000000000000000000000000000000000000PES00010000001000000000000000020170314
201703140060000200000000000000011195000000000000000111958000000000020000000001Consumidor Final              000000000239000000000000000000000000000000000000000000000000000000000000000000000000000000000000000000000000000000000000PES00010000001000000000000000020170314
201703140060000200000000000000011196000000000000000111968000000000020000000001Consumidor Final              000000000198000000000000000000000000000000000000000000000000000000000000000000000000000000000000000000000000000000000000PES00010000001000000000000000020170314
201703140060000200000000000000011197000000000000000111978000000000020000000001Consumidor Final              000000000039000000000000000000000000000000000000000000000000000000000000000000000000000000000000000000000000000000000000PES00010000001000000000000000020170314
201703140060000200000000000000011198000000000000000111988000000000020000000001Consumidor Final              000000000048000000000000000000000000000000000000000000000000000000000000000000000000000000000000000000000000000000000000PES00010000001000000000000000020170314
201703140060000200000000000000011199000000000000000111998000000000020000000001Consumidor Final              000000000048000000000000000000000000000000000000000000000000000000000000000000000000000000000000000000000000000000000000PES00010000001000000000000000020170314
201703140060000200000000000000011200000000000000000112008000000000020000000001Consumidor Final              000000000140000000000000000000000000000000000000000000000000000000000000000000000000000000000000000000000000000000000000PES00010000001000000000000000020170314
201703140060000200000000000000011201000000000000000112018000000000020000000001Consumidor Final              000000000219000000000000000000000000000000000000000000000000000000000000000000000000000000000000000000000000000000000000PES00010000001000000000000000020170314
201703140060000200000000000000011202000000000000000112028000000000020000000001Consumidor Final              000000000089000000000000000000000000000000000000000000000000000000000000000000000000000000000000000000000000000000000000PES00010000001000000000000000020170314
201703140060000200000000000000011203000000000000000112038000000000020000000001Consumidor Final              000000000039000000000000000000000000000000000000000000000000000000000000000000000000000000000000000000000000000000000000PES00010000001000000000000000020170314
201703140060000200000000000000011204000000000000000112048000000000020000000001Consumidor Final              000000000065000000000000000000000000000000000000000000000000000000000000000000000000000000000000000000000000000000000000PES00010000001000000000000000020170314
201703140060000200000000000000011205000000000000000112058000000000020000000001Consumidor Final              000000000089000000000000000000000000000000000000000000000000000000000000000000000000000000000000000000000000000000000000PES00010000001000000000000000020170314
201703140060000200000000000000011207000000000000000112078000000000020000000001Consumidor Final              000000000130000000000000000000000000000000000000000000000000000000000000000000000000000000000000000000000000000000000000PES00010000001000000000000000020170314
201703140060000200000000000000011208000000000000000112088000000000020000000001Consumidor Final              000000000025000000000000000000000000000000000000000000000000000000000000000000000000000000000000000000000000000000000000PES00010000001000000000000000020170314
201703150060000200000000000000011209000000000000000112098000000000020000000001Consumidor Final              000000000069000000000000000000000000000000000000000000000000000000000000000000000000000000000000000000000000000000000000PES00010000001000000000000000020170315
201703150060000200000000000000011210000000000000000112108000000000020000000001Consumidor Final              000000000037000000000000000000000000000000000000000000000000000000000000000000000000000000000000000000000000000000000000PES00010000001000000000000000020170315
201703150060000200000000000000011211000000000000000112118000000000020000000001Consumidor Final              000000000070000000000000000000000000000000000000000000000000000000000000000000000000000000000000000000000000000000000000PES00010000001000000000000000020170315
201703150060000200000000000000011212000000000000000112128000000000020000000001Consumidor Final              000000000029000000000000000000000000000000000000000000000000000000000000000000000000000000000000000000000000000000000000PES00010000001000000000000000020170315
201703150060000200000000000000011213000000000000000112138000000000020000000001Consumidor Final              000000000074000000000000000000000000000000000000000000000000000000000000000000000000000000000000000000000000000000000000PES00010000001000000000000000020170315
201703150060000200000000000000011214000000000000000112148000000000020000000001Consumidor Final              000000000060000000000000000000000000000000000000000000000000000000000000000000000000000000000000000000000000000000000000PES00010000001000000000000000020170315
201703150060000200000000000000011215000000000000000112158000000000020000000001Consumidor Final              000000000125000000000000000000000000000000000000000000000000000000000000000000000000000000000000000000000000000000000000PES00010000001000000000000000020170315
201703150060000200000000000000011216000000000000000112168000000000020000000001Consumidor Final              000000000049000000000000000000000000000000000000000000000000000000000000000000000000000000000000000000000000000000000000PES00010000001000000000000000020170315
201703150060000200000000000000011217000000000000000112178000000000020000000001Consumidor Final              000000000125000000000000000000000000000000000000000000000000000000000000000000000000000000000000000000000000000000000000PES00010000001000000000000000020170315
201703150060000200000000000000011218000000000000000112188000000000020000000001Consumidor Final              000000000155000000000000000000000000000000000000000000000000000000000000000000000000000000000000000000000000000000000000PES00010000001000000000000000020170315
201703150060000200000000000000011219000000000000000112198000000000020000000001Consumidor Final              000000000099000000000000000000000000000000000000000000000000000000000000000000000000000000000000000000000000000000000000PES00010000001000000000000000020170315
201703160060000200000000000000011220000000000000000112208000000000020000000001Consumidor Final              000000000145000000000000000000000000000000000000000000000000000000000000000000000000000000000000000000000000000000000000PES00010000001000000000000000020170316
201703160060000200000000000000011221000000000000000112218000000000020000000001Consumidor Final              000000000089000000000000000000000000000000000000000000000000000000000000000000000000000000000000000000000000000000000000PES00010000001000000000000000020170316
201703160060000200000000000000011222000000000000000112228000000000020000000001Consumidor Final              000000000099000000000000000000000000000000000000000000000000000000000000000000000000000000000000000000000000000000000000PES00010000001000000000000000020170316
201703160060000200000000000000011223000000000000000112238000000000020000000001Consumidor Final              000000000037500000000000000000000000000000000000000000000000000000000000000000000000000000000000000000000000000000000000PES00010000001000000000000000020170316
201703160060000200000000000000011224000000000000000112248000000000020000000001Consumidor Final              000000000051500000000000000000000000000000000000000000000000000000000000000000000000000000000000000000000000000000000000PES00010000001000000000000000020170316
201703160060000200000000000000011225000000000000000112258000000000020000000001Consumidor Final              000000000075000000000000000000000000000000000000000000000000000000000000000000000000000000000000000000000000000000000000PES00010000001000000000000000020170316
201703160060000200000000000000011226000000000000000112268000000000020000000001Consumidor Final              000000000178000000000000000000000000000000000000000000000000000000000000000000000000000000000000000000000000000000000000PES00010000001000000000000000020170316
201703160060000200000000000000011227000000000000000112278000000000020000000001Consumidor Final              000000000205000000000000000000000000000000000000000000000000000000000000000000000000000000000000000000000000000000000000PES00010000001000000000000000020170316
201703160060000200000000000000011228000000000000000112288000000000020000000001Consumidor Final              000000000232500000000000000000000000000000000000000000000000000000000000000000000000000000000000000000000000000000000000PES00010000001000000000000000020170316
201703160060000200000000000000011229000000000000000112298000000000020000000001Consumidor Final              000000000057500000000000000000000000000000000000000000000000000000000000000000000000000000000000000000000000000000000000PES00010000001000000000000000020170316
201703160060000200000000000000011230000000000000000112308000000000020000000001Consumidor Final              000000000050000000000000000000000000000000000000000000000000000000000000000000000000000000000000000000000000000000000000PES00010000001000000000000000020170316
201703170060000200000000000000011231000000000000000112318000000000020000000001Consumidor Final              000000000155000000000000000000000000000000000000000000000000000000000000000000000000000000000000000000000000000000000000PES00010000001000000000000000020170317
201703170060000200000000000000011232000000000000000112328000000000020000000001Consumidor Final              000000000024000000000000000000000000000000000000000000000000000000000000000000000000000000000000000000000000000000000000PES00010000001000000000000000020170317
201703170060000200000000000000011233000000000000000112338000000000020000000001Consumidor Final              000000000047500000000000000000000000000000000000000000000000000000000000000000000000000000000000000000000000000000000000PES00010000001000000000000000020170317
201703170060000200000000000000011234000000000000000112348000000000020000000001Consumidor Final              000000000079000000000000000000000000000000000000000000000000000000000000000000000000000000000000000000000000000000000000PES00010000001000000000000000020170317
201703170060000200000000000000011235000000000000000112358000000000020000000001Consumidor Final              000000000089000000000000000000000000000000000000000000000000000000000000000000000000000000000000000000000000000000000000PES00010000001000000000000000020170317
201703170060000200000000000000011236000000000000000112368000000000020000000001Consumidor Final              000000000089000000000000000000000000000000000000000000000000000000000000000000000000000000000000000000000000000000000000PES00010000001000000000000000020170317
201703170060000200000000000000011237000000000000000112378000000000020000000001Consumidor Final              000000000030000000000000000000000000000000000000000000000000000000000000000000000000000000000000000000000000000000000000PES00010000001000000000000000020170317
201703170060000200000000000000011238000000000000000112388000000000020000000001Consumidor Final              000000000030000000000000000000000000000000000000000000000000000000000000000000000000000000000000000000000000000000000000PES00010000001000000000000000020170317
201703170060000200000000000000011239000000000000000112398000000000020000000001Consumidor Final              000000000030000000000000000000000000000000000000000000000000000000000000000000000000000000000000000000000000000000000000PES00010000001000000000000000020170317
201703170060000200000000000000011240000000000000000112408000000000020000000001Consumidor Final              000000000039000000000000000000000000000000000000000000000000000000000000000000000000000000000000000000000000000000000000PES00010000001000000000000000020170317
201703170060000200000000000000011241000000000000000112418000000000020000000001Consumidor Final              000000000012500000000000000000000000000000000000000000000000000000000000000000000000000000000000000000000000000000000000PES00010000001000000000000000020170317
201703170060000200000000000000011242000000000000000112428000000000020000000001Consumidor Final              000000000015000000000000000000000000000000000000000000000000000000000000000000000000000000000000000000000000000000000000PES00010000001000000000000000020170317
201703170060000200000000000000011243000000000000000112438000000000020000000001Consumidor Final              000000000060000000000000000000000000000000000000000000000000000000000000000000000000000000000000000000000000000000000000PES00010000001000000000000000020170317
201703170060000200000000000000011244000000000000000112448000000000020000000001Consumidor Final              000000000079000000000000000000000000000000000000000000000000000000000000000000000000000000000000000000000000000000000000PES00010000001000000000000000020170317
201703170060000200000000000000011246000000000000000112468000000000020000000001Consumidor Final              000000000162000000000000000000000000000000000000000000000000000000000000000000000000000000000000000000000000000000000000PES00010000001000000000000000020170317
201703170060000200000000000000011247000000000000000112478000000000020000000001Consumidor Final              000000000485000000000000000000000000000000000000000000000000000000000000000000000000000000000000000000000000000000000000PES00010000001000000000000000020170317
201703170060000200000000000000011248000000000000000112488000000000020000000001Consumidor Final              000000000025000000000000000000000000000000000000000000000000000000000000000000000000000000000000000000000000000000000000PES00010000001000000000000000020170317
201703170060000200000000000000011249000000000000000112498000000000020000000001Consumidor Final              000000000207500000000000000000000000000000000000000000000000000000000000000000000000000000000000000000000000000000000000PES00010000001000000000000000020170317
201703170060000200000000000000011250000000000000000112508000000000020000000001Consumidor Final              000000000100000000000000000000000000000000000000000000000000000000000000000000000000000000000000000000000000000000000000PES00010000001000000000000000020170317
201703170060000200000000000000011251000000000000000112518000000000020000000001Consumidor Final              000000000075000000000000000000000000000000000000000000000000000000000000000000000000000000000000000000000000000000000000PES00010000001000000000000000020170317
201703170060000200000000000000011252000000000000000112528000000000020000000001Consumidor Final              000000000300000000000000000000000000000000000000000000000000000000000000000000000000000000000000000000000000000000000000PES00010000001000000000000000020170317
201703170060000200000000000000011253000000000000000112538000000000020000000001Consumidor Final              000000000300000000000000000000000000000000000000000000000000000000000000000000000000000000000000000000000000000000000000PES00010000001000000000000000020170317
201703170060000200000000000000011254000000000000000112548000000000020000000001Consumidor Final              000000000155000000000000000000000000000000000000000000000000000000000000000000000000000000000000000000000000000000000000PES00010000001000000000000000020170317
201703170060000200000000000000011255000000000000000112558000000000020000000001Consumidor Final              000000000155000000000000000000000000000000000000000000000000000000000000000000000000000000000000000000000000000000000000PES00010000001000000000000000020170317
201703170060000200000000000000011256000000000000000112568000000000020000000001Consumidor Final              000000000125000000000000000000000000000000000000000000000000000000000000000000000000000000000000000000000000000000000000PES00010000001000000000000000020170317
201703180060000200000000000000011257000000000000000112578000000000020000000001Consumidor Final              000000000030000000000000000000000000000000000000000000000000000000000000000000000000000000000000000000000000000000000000PES00010000001000000000000000020170318
201703180060000200000000000000011258000000000000000112588000000000020000000001Consumidor Final              000000000036000000000000000000000000000000000000000000000000000000000000000000000000000000000000000000000000000000000000PES00010000001000000000000000020170318
201703180060000200000000000000011259000000000000000112598000000000020000000001Consumidor Final              000000000025000000000000000000000000000000000000000000000000000000000000000000000000000000000000000000000000000000000000PES00010000001000000000000000020170318
201703180060000200000000000000011260000000000000000112608000000000020000000001Consumidor Final              000000000060000000000000000000000000000000000000000000000000000000000000000000000000000000000000000000000000000000000000PES00010000001000000000000000020170318
201703180060000200000000000000011261000000000000000112618000000000020000000001Consumidor Final              000000000060000000000000000000000000000000000000000000000000000000000000000000000000000000000000000000000000000000000000PES00010000001000000000000000020170318
201703180060000200000000000000011262000000000000000112628000000000020000000001Consumidor Final              000000000129000000000000000000000000000000000000000000000000000000000000000000000000000000000000000000000000000000000000PES00010000001000000000000000020170318
201703180060000200000000000000011263000000000000000112638000000000020000000001Consumidor Final              000000000000001000000000000000000000000000000000000000000000000000000000000000000000000000000000000000000000000000000000PES00010000001000000000000000020170318
201703180060000200000000000000011264000000000000000112648000000000020000000001Consumidor Final              000000000099000000000000000000000000000000000000000000000000000000000000000000000000000000000000000000000000000000000000PES00010000001000000000000000020170318
201703180060000200000000000000011265000000000000000112658000000000020000000001Consumidor Final              000000000035000000000000000000000000000000000000000000000000000000000000000000000000000000000000000000000000000000000000PES00010000001000000000000000020170318
201703200060000200000000000000011266000000000000000112668000000000020000000001Consumidor Final              000000000035000000000000000000000000000000000000000000000000000000000000000000000000000000000000000000000000000000000000PES00010000001000000000000000020170320
201703200060000200000000000000011267000000000000000112678000000000020000000001Consumidor Final              000000000055000000000000000000000000000000000000000000000000000000000000000000000000000000000000000000000000000000000000PES00010000001000000000000000020170320
201703200060000200000000000000011268000000000000000112688000000000020000000001Consumidor Final              000000000099000000000000000000000000000000000000000000000000000000000000000000000000000000000000000000000000000000000000PES00010000001000000000000000020170320
201703200060000200000000000000011269000000000000000112698000000000020000000001Consumidor Final              000000000475000000000000000000000000000000000000000000000000000000000000000000000000000000000000000000000000000000000000PES00010000001000000000000000020170320
201703200060000200000000000000011270000000000000000112708000000000020000000001Consumidor Final              000000000065000000000000000000000000000000000000000000000000000000000000000000000000000000000000000000000000000000000000PES00010000001000000000000000020170320
201703200060000200000000000000011271000000000000000112718000000000020000000001Consumidor Final              000000000126500000000000000000000000000000000000000000000000000000000000000000000000000000000000000000000000000000000000PES00010000001000000000000000020170320
201703200060000200000000000000011272000000000000000112728000000000020000000001Consumidor Final              000000000024500000000000000000000000000000000000000000000000000000000000000000000000000000000000000000000000000000000000PES00010000001000000000000000020170320
201703200060000200000000000000011273000000000000000112738000000000020000000001Consumidor Final              000000000079000000000000000000000000000000000000000000000000000000000000000000000000000000000000000000000000000000000000PES00010000001000000000000000020170320
201703200060000200000000000000011274000000000000000112748000000000020000000001Consumidor Final              000000000209000000000000000000000000000000000000000000000000000000000000000000000000000000000000000000000000000000000000PES00010000001000000000000000020170320
201703200060000200000000000000011275000000000000000112758000000000020000000001Consumidor Final              000000000124000000000000000000000000000000000000000000000000000000000000000000000000000000000000000000000000000000000000PES00010000001000000000000000020170320
201703200060000200000000000000011276000000000000000112768000000000020000000001Consumidor Final              000000000025000000000000000000000000000000000000000000000000000000000000000000000000000000000000000000000000000000000000PES00010000001000000000000000020170320
201703200060000200000000000000011277000000000000000112778000000000020000000001Consumidor Final              000000000385000000000000000000000000000000000000000000000000000000000000000000000000000000000000000000000000000000000000PES00010000001000000000000000020170320
201703200060000200000000000000011278000000000000000112788000000000020000000001Consumidor Final              000000000089000000000000000000000000000000000000000000000000000000000000000000000000000000000000000000000000000000000000PES00010000001000000000000000020170320
201703200060000200000000000000011279000000000000000112798000000000020000000001Consumidor Final              000000000079000000000000000000000000000000000000000000000000000000000000000000000000000000000000000000000000000000000000PES00010000001000000000000000020170320
201703200060000200000000000000011280000000000000000112808000000000020000000001Consumidor Final              000000000103000000000000000000000000000000000000000000000000000000000000000000000000000000000000000000000000000000000000PES00010000001000000000000000020170320
201703200060000200000000000000011281000000000000000112818000000000020000000001Consumidor Final              000000000025000000000000000000000000000000000000000000000000000000000000000000000000000000000000000000000000000000000000PES00010000001000000000000000020170320
201703200060000200000000000000011282000000000000000112828000000000020000000001Consumidor Final              000000000114000000000000000000000000000000000000000000000000000000000000000000000000000000000000000000000000000000000000PES00010000001000000000000000020170320
201703200060000200000000000000011283000000000000000112838000000000020000000001Consumidor Final              000000000020000000000000000000000000000000000000000000000000000000000000000000000000000000000000000000000000000000000000PES00010000001000000000000000020170320
201703200060000200000000000000011284000000000000000112848000000000020000000001Consumidor Final              000000000062500000000000000000000000000000000000000000000000000000000000000000000000000000000000000000000000000000000000PES00010000001000000000000000020170320
201703200060000200000000000000011285000000000000000112858000000000020000000001Consumidor Final              000000000047500000000000000000000000000000000000000000000000000000000000000000000000000000000000000000000000000000000000PES00010000001000000000000000020170320
201703210060000200000000000000011286000000000000000112868000000000020000000001Consumidor Final              000000000045000000000000000000000000000000000000000000000000000000000000000000000000000000000000000000000000000000000000PES00010000001000000000000000020170321
201703210060000200000000000000011287000000000000000112878000000000020000000001Consumidor Final              000000000055000000000000000000000000000000000000000000000000000000000000000000000000000000000000000000000000000000000000PES00010000001000000000000000020170321
201703210060000200000000000000011288000000000000000112888000000000020000000001Consumidor Final              000000000393500000000000000000000000000000000000000000000000000000000000000000000000000000000000000000000000000000000000PES00010000001000000000000000020170321
201703210060000200000000000000011289000000000000000112898000000000020000000001Consumidor Final              000000000045000000000000000000000000000000000000000000000000000000000000000000000000000000000000000000000000000000000000PES00010000001000000000000000020170321
201703210060000200000000000000011290000000000000000112908000000000020000000001Consumidor Final              000000000065000000000000000000000000000000000000000000000000000000000000000000000000000000000000000000000000000000000000PES00010000001000000000000000020170321
201703210060000200000000000000011291000000000000000112918000000000020000000001Consumidor Final              000000000045000000000000000000000000000000000000000000000000000000000000000000000000000000000000000000000000000000000000PES00010000001000000000000000020170321
201703210060000200000000000000011292000000000000000112928000000000020000000001Consumidor Final              000000000040000000000000000000000000000000000000000000000000000000000000000000000000000000000000000000000000000000000000PES00010000001000000000000000020170321
201703210060000200000000000000011293000000000000000112938000000000020000000001Consumidor Final              000000000047500000000000000000000000000000000000000000000000000000000000000000000000000000000000000000000000000000000000PES00010000001000000000000000020170321
201703210060000200000000000000011294000000000000000112948000000000020000000001Consumidor Final              000000000250000000000000000000000000000000000000000000000000000000000000000000000000000000000000000000000000000000000000PES00010000001000000000000000020170321
