201611300110000100000000000000000637                8000000000020315483760FEDERICO J MANJON SANSONE     000000000360000000000000000000000000000000000000000000000000000000000000000000000000000000000000000000000000000000000000PES00010000000000000000000000000000000000000000000000000                              000000000000000
201611070010000200000000000000000025                8000000000020320456402OCHOA SITJAR ROBERTO ARIEL    000000008619000000000000000000000000000000000000000000000000000000000000000000000000000000000000000000000000000000000000PES00010000001000000000000000000000000000000000000000000                              000000000000000
201611300110000100000000000000000003                8000000000020330462478GUERRERO AUGUSTO CESAR        000000000895400000000000000000000000000000000000000000000000000000000000000000000000000000000000000000000000000000000000PES00010000000000000000000000000000000000000000000000000                              000000000000000
201611300110000100000000000000000003                8000000000027330461905ALVAREZ MARIA DEL CARMEN      000000000895400000000000000000000000000000000000000000000000000000000000000000000000000000000000000000000000000000000000PES00010000000000000000000000000000000000000000000000000                              000000000000000
201611300110000100000000000000000003                8000000000020302221295BUSTAMANTE JOSE SEBASTIAN     000000000895400000000000000000000000000000000000000000000000000000000000000000000000000000000000000000000000000000000000PES00010000000000000000000000000000000000000000000000000                              000000000000000
201611300110000100000000000000000003                8000000000023337568149TOBIAS EMANUEL OLIVAREZ ZAMAR 000000000895400000000000000000000000000000000000000000000000000000000000000000000000000000000000000000000000000000000000PES00010000000000000000000000000000000000000000000000000                              000000000000000
201611300110000100000000000000000060                8000000000020306364422JUAN CARLOS MANJON            000000000360000000000000000000000000000000000000000000000000000000000000000000000000000000000000000000000000000000000000PES00010000000000000000000000000000000000000000000000000                              000000000000000
201611300110000100000000000000000009                8000000000027241384514GARCIA DEBORA VIRGINIA        000000000700000000000000000000000000000000000000000000000000000000000000000000000000000000000000000000000000000000000000PES00010000000000000000000000000000000000000000000000000                              000000000000000
201611070010000200000000000000000024                8000000000020320456402OCHOA SITJAR ROBERTO ARIEL    000000008619000000000000000000000000000000000000000000000000000000000000000000000000000000000000000000000000000000000000PES00010000001000000000000000000000000000000000000000000                              000000000000000
201611070030000200000000000000000005                8000000000020320456402OCHOA SITJAR ROBERTO ARIEL    000000008619000000000000000000000000000000000000000000000000000000000000000000000000000000000000000000000000000000000000PES00010000001000000000000000000000000000000000000000000                              000000000000000
