201608300010009700000000000000020798                8000000000030559715081SUPERMAT SA                   000000000349368000000000000000000000000000000000000000000000000000000000000000000000010094000000000000000000000000000000PES00010000001000000000000000000000000000000000000000000                              000000000000000
201609080010004300000000000000005548                8000000000030559715081SUPERMAT SA                   000000018644866000000000000000000000000000000000000000000000000000000000000000000000340373000000000000000000000000000000PES00010000001000000000000000000000000000000000000000000                              000000000000000
201608170030004300000000000000001570                8000000000030559715081SUPERMAT SA                   000000000218319000000000000000000000000000000000000000000000000000000000000000000000003986000000000000000000000000000000PES00010000001000000000000000000000000000000000000000000                              000000000000000
201608170010004300000000000000005364                8000000000030559715081SUPERMAT SA                   000000000214850000000000000000000000000000000000000000000000000000000000000000000000003922000000000000000000000000000000PES00010000001000000000000000000000000000000000000000000                              000000000000000
201609160010004300000000000000005609                8000000000030559715081SUPERMAT SA                   000000000425986000000000000000000000000000000000000000000000000000000000000000000000007777000000000000000000000000000000PES00010000001000000000000000000000000000000000000000000                              000000000000000
201608190010000500000000000000034646                8000000000030707174389DERGAM SRL                    000000000020990000000000000000000000000000000000000000000000000000000000000000000000000508000000000000000000000000000000PES00010000001000000000000000000000000000000000000000000                              000000000000000
201609030010000700000000000000001357                8000000000020170871619KLAUK VICTOR LINDOLFO         000000000058300000000000000000000000000000000000000000000000000000000000000000000000000000000000000000000000000000000000PES00010000001000000000000000000000000000000000000000000                              000000000000000
201608050010001500000000000000012606                8000000000030576374247AB CONSTRUCCIONES SRL         000000002664106000000000000000000000000000000000000000000000000000000000000000000000064454000000000000000000000000000000PES00010000001000000000000000000000000000000000000000000                              000000000000000
201608160010001500000000000000012927                8000000000030576374247AB CONSTRUCCIONES SRL         000000001170883000000000000000000000000000000000000000000000000000000000000000000000028328000000000000000000000000000000PES00010000001000000000000000000000000000000000000000000                              000000000000000
201608240010001500000000000000013135                8000000000030576374247AB CONSTRUCCIONES SRL         000000006330794000000000000000000000000000000000000000000000000000000000000000000000153164000000000000000000000000000000PES00010000001000000000000000000000000000000000000000000                              000000000000000
201609070010001600000000000000004985                8000000000030576374247AB CONSTRUCCIONES SRL         000000001873547000000000000000000000000000000000000000000000000000000000000000000000054131000000000000000000000000000000PES00010000001000000000000000000000000000000000000000000                              000000000000000
201609060010001500000000000000013566                8000000000030576374247AB CONSTRUCCIONES SRL         000000002059787000000000000000000000000000000000000000000000000000000000000000000000049834000000000000000000000000000000PES00010000001000000000000000000000000000000000000000000                              000000000000000
201609090010000700000000000000000914                8000000000030710165978MDP SRL                       000000001093799000000000000000000000000000000000000000000000000000000000000000000000000000000000000000000000000000000000PES00010000001000000000000000000000000000000000000000000                              000000000000000
201607070010000200000000000000000003                8000000000020239843396NOCETI DIEGO                  000000002178000000000000000000000000000000000000000000000000000000000000000000000000000000000000000000000000000000000000PES00010000001000000000000000000000000000000000000000000                              000000000000000
201606130010000200000000000000000001                8000000000020239843396NOCETI DIEGO                  000000001200001000000000000000000000000000000000000000000000000000000000000000000000000000000000000000000000000000000000PES00010000001000000000000000000000000000000000000000000                              000000000000000
201608220010000100000000000000000031                8000000000030714959634INDUSPARQUET NOA SA           000000005307417000000000000000000000000000000000000000000000000000000000000000000000000000000000000000000000000000000000PES00010000001000000000000000000000000000000000000000000                              000000000000000
201608190010001100000000000000012343                8000000000030673125804JJ GAY Y CIA SRL              000000000270000000000000000000000000000000000000000000000000000000000000000000000000000000000000000000000000000000000000PES00010000001000000000000000000000000000000000000000000                              000000000000000
201609060010001500000000000000013461                8000000000030708348348FADUA SA                      000000002413219000000000000000000000000000000000000000000000000000000000000000000000000000000000000000000000000000000000PES00010000001000000000000000000000000000000000000000000                              000000000000000
201608170010001400000000000000003407                8000000000030559732830JUJUY MATERIALES SRL          000000000399999000000000000000000000000000000000000000000000000000000000000000000000000000000000000000000000000000000000PES00010000001000000000000000000000000000000000000000000                              000000000000000
201608260010001400000000000000003617                8000000000030559732830JUJUY MATERIALES SRL          000000000055500000000000000000000000000000000000000000000000000000000000000000000000000000000000000000000000000000000000PES00010000001000000000000000000000000000000000000000000                              000000000000000
201608310010001400000000000000003705                8000000000030559732830JUJUY MATERIALES SRL          000000000188500000000000000000000000000000000000000000000000000000000000000000000000000000000000000000000000000000000000PES00010000001000000000000000000000000000000000000000000                              000000000000000
201609050010001400000000000000003825                8000000000030559732830JUJUY MATERIALES SRL          000000000085999000000000000000000000000000000000000000000000000000000000000000000000000000000000000000000000000000000000PES00010000001000000000000000000000000000000000000000000                              000000000000000
201608240010001400000000000000003530                8000000000030559732830JUJUY MATERIALES SRL          000000000034000000000000000000000000000000000000000000000000000000000000000000000000000000000000000000000000000000000000PES00010000001000000000000000000000000000000000000000000                              000000000000000
201609160010000100000000000000002317                8000000000020269280531JUAN RAMON CRUZ               000000000300000000000000000000000000000000000000000000000000000000000000000000000000000000000000000000000000000000000000PES00010000001000000000000000000000000000000000000000000                              000000000000000
201608120010002700000000000000008852                8000000000030557717400FERTEL SA                     000000000447551000000000000000000000000000000000000000000000000000000000000000000000012931000000000000000000000000000000PES00010000001000000000000000000000000000000000000000000                              000000000000000
201609010010002700000000000000009147                8000000000030557717400FERTEL SA                     000000000255003000000000000000000000000000000000000000000000000000000000000000000000007367000000000000000000000000000000PES00010000001000000000000000000000000000000000000000000                              000000000000000
201609130010002700000000000000009330                8000000000030557717400FERTEL SA                     000000000187499000000000000000000000000000000000000000000000000000000000000000000000005417000000000000000000000000000000PES00010000001000000000000000000000000000000000000000000                              000000000000000
201609160010002700000000000000009373                8000000000030557717400FERTEL SA                     000000000235998000000000000000000000000000000000000000000000000000000000000000000000006819000000000000000000000000000000PES00010000001000000000000000000000000000000000000000000                              000000000000000
201609140010002700000000000000009353                8000000000030557717400FERTEL SA                     000000000276998000000000000000000000000000000000000000000000000000000000000000000000008004000000000000000000000000000000PES00010000001000000000000000000000000000000000000000000                              000000000000000
201609160010002700000000000000009379                8000000000030557717400FERTEL SA                     000000000019000000000000000000000000000000000000000000000000000000000000000000000000000549000000000000000000000000000000PES00010000001000000000000000000000000000000000000000000                              000000000000000
201609190010002700000000000000009418                8000000000030557717400FERTEL SA                     000000000224997000000000000000000000000000000000000000000000000000000000000000000000006501000000000000000000000000000000PES00010000001000000000000000000000000000000000000000000                              000000000000000
201609130010000500000000000000005001                8000000000030581011446FERRONORT SRL                 000000001665000000000000000000000000000000000000000000000000000000000000000000000000000000000000000000000000000000000000PES00010000001000000000000000000000000000000000000000000                              000000000000000
201609090010002100000000000000028290                8000000000033611226689JACARANDA SA                  000000000118008000000000027729000000000000000000000000000000000000000000000000000000000000000000000000000000000000000000PES00010000001000000000000000000000000000000000000000000                              000000000000000
201609190010002400000000000000083585                8000000000033611226689JACARANDA SA                  000000000070000000000000016449000000000000000000000000000000000000000000000000000000000000000000000000000000000000000000PES00010000001000000000000000000000000000000000000000000                              000000000000000
201608310010000800000000000000033484                8000000000030543354372BUCCOLINI Y CIA SRL           000000000122501000000000028785000000000000000000000000000000000000000000000000000000000000000000000000000000000000000000PES00010000001000000000000000000000000000000000000000000                              000000000000000
201608190010002000000000000000105341                8000000000030660848289GNC SIGMA SRL                 000000000020015000000000004164000000000000000000000000000000000000000000000000000000000000000000000000000000000000000000PES00010000001000000000000000000000000000000000000000000                              000000000000000
201609200010000500000000000000005328                8000000000020110815159ENRIQUE DANIEL SANSONE        000000000193992000000000000000000000000000000000000000000000000000000000000000000000000000000000000000000000000000000000PES00010000001000000000000000000000000000000000000000000                              000000000000000
201609060010001400000000000000019783                8000000000030589816435JE TORRES Y CIA SRL           000000000036556000000000000000000000000000000000000000000000000000000000000000000000001056000000000000000000000000000000PES00010000001000000000000000000000000000000000000000000                              000000000000000
