201701020060000200000000000000009848000000000000000098488000000000020000000001Consumidor Final              000000000120000000000000000000000000000000000000000000000000000000000000000000000000000000000000000000000000000000000000PES00010000001000000000000000020170102
201701020060000200000000000000009849000000000000000098498000000000020000000001Consumidor Final              000000000099000000000000000000000000000000000000000000000000000000000000000000000000000000000000000000000000000000000000PES00010000001000000000000000020170102
201701020060000200000000000000009850000000000000000098508000000000020000000001Consumidor Final              000000000265000000000000000000000000000000000000000000000000000000000000000000000000000000000000000000000000000000000000PES00010000001000000000000000020170102
201701020060000200000000000000009851000000000000000098518000000000020000000001Consumidor Final              000000000045000000000000000000000000000000000000000000000000000000000000000000000000000000000000000000000000000000000000PES00010000001000000000000000020170102
201701020060000200000000000000009852000000000000000098528000000000020000000001Consumidor Final              000000000245000000000000000000000000000000000000000000000000000000000000000000000000000000000000000000000000000000000000PES00010000001000000000000000020170102
201701020060000200000000000000009853000000000000000098538000000000020000000001Consumidor Final              000000000208000000000000000000000000000000000000000000000000000000000000000000000000000000000000000000000000000000000000PES00010000001000000000000000020170102
201701020060000200000000000000009854000000000000000098548000000000020000000001Consumidor Final              000000000080000000000000000000000000000000000000000000000000000000000000000000000000000000000000000000000000000000000000PES00010000001000000000000000020170102
201701020060000200000000000000009855000000000000000098558000000000020000000001Consumidor Final              000000000027500000000000000000000000000000000000000000000000000000000000000000000000000000000000000000000000000000000000PES00010000001000000000000000020170102
201701020060000200000000000000009856000000000000000098568000000000020000000001Consumidor Final              000000000070000000000000000000000000000000000000000000000000000000000000000000000000000000000000000000000000000000000000PES00010000001000000000000000020170102
201701020060000200000000000000009857000000000000000098578000000000020000000001Consumidor Final              000000000045000000000000000000000000000000000000000000000000000000000000000000000000000000000000000000000000000000000000PES00010000001000000000000000020170102
201701020060000200000000000000009858000000000000000098588000000000020000000001Consumidor Final              000000000067500000000000000000000000000000000000000000000000000000000000000000000000000000000000000000000000000000000000PES00010000001000000000000000020170102
201701020060000200000000000000009859000000000000000098598000000000020000000001Consumidor Final              000000000039000000000000000000000000000000000000000000000000000000000000000000000000000000000000000000000000000000000000PES00010000001000000000000000020170102
201701020060000200000000000000009860000000000000000098608000000000020000000001Consumidor Final              000000000052000000000000000000000000000000000000000000000000000000000000000000000000000000000000000000000000000000000000PES00010000001000000000000000020170102
201701020060000200000000000000009861000000000000000098618000000000020000000001Consumidor Final              000000000107500000000000000000000000000000000000000000000000000000000000000000000000000000000000000000000000000000000000PES00010000001000000000000000020170102
201701020060000200000000000000009862000000000000000098628000000000020000000001Consumidor Final              000000000110000000000000000000000000000000000000000000000000000000000000000000000000000000000000000000000000000000000000PES00010000001000000000000000020170102
201701020060000200000000000000009863000000000000000098638000000000020000000001Consumidor Final              000000000128000000000000000000000000000000000000000000000000000000000000000000000000000000000000000000000000000000000000PES00010000001000000000000000020170102
201701020060000200000000000000009864000000000000000098648000000000020000000001Consumidor Final              000000000036000000000000000000000000000000000000000000000000000000000000000000000000000000000000000000000000000000000000PES00010000001000000000000000020170102
201701020060000200000000000000009865000000000000000098658000000000020000000001Consumidor Final              000000000130000000000000000000000000000000000000000000000000000000000000000000000000000000000000000000000000000000000000PES00010000001000000000000000020170102
201701020060000200000000000000009866000000000000000098668000000000020000000001Consumidor Final              000000000025000000000000000000000000000000000000000000000000000000000000000000000000000000000000000000000000000000000000PES00010000001000000000000000020170102
201701030060000200000000000000009867000000000000000098678000000000020000000001Consumidor Final              000000000030000000000000000000000000000000000000000000000000000000000000000000000000000000000000000000000000000000000000PES00010000001000000000000000020170103
201701030060000200000000000000009868000000000000000098688000000000020000000001Consumidor Final              000000000197500000000000000000000000000000000000000000000000000000000000000000000000000000000000000000000000000000000000PES00010000001000000000000000020170103
201701030060000200000000000000009869000000000000000098698000000000020000000001Consumidor Final              000000000097500000000000000000000000000000000000000000000000000000000000000000000000000000000000000000000000000000000000PES00010000001000000000000000020170103
201701030060000200000000000000009870000000000000000098708000000000020000000001Consumidor Final              000000000059000000000000000000000000000000000000000000000000000000000000000000000000000000000000000000000000000000000000PES00010000001000000000000000020170103
201701030060000200000000000000009871000000000000000098718000000000020000000001Consumidor Final              000000000220000000000000000000000000000000000000000000000000000000000000000000000000000000000000000000000000000000000000PES00010000001000000000000000020170103
201701030060000200000000000000009872000000000000000098728000000000020000000001Consumidor Final              000000000010500000000000000000000000000000000000000000000000000000000000000000000000000000000000000000000000000000000000PES00010000001000000000000000020170103
201701030060000200000000000000009873000000000000000098738000000000020000000001Consumidor Final              000000000035000000000000000000000000000000000000000000000000000000000000000000000000000000000000000000000000000000000000PES00010000001000000000000000020170103
201701030060000200000000000000009874000000000000000098748000000000020000000001Consumidor Final              000000000073000000000000000000000000000000000000000000000000000000000000000000000000000000000000000000000000000000000000PES00010000001000000000000000020170103
201701030060000200000000000000009875000000000000000098758000000000020000000001Consumidor Final              000000000039000000000000000000000000000000000000000000000000000000000000000000000000000000000000000000000000000000000000PES00010000001000000000000000020170103
201701030060000200000000000000009876000000000000000098768000000000020000000001Consumidor Final              000000000035000000000000000000000000000000000000000000000000000000000000000000000000000000000000000000000000000000000000PES00010000001000000000000000020170103
201701030060000200000000000000009877000000000000000098778000000000020000000001Consumidor Final              000000000048000000000000000000000000000000000000000000000000000000000000000000000000000000000000000000000000000000000000PES00010000001000000000000000020170103
201701030060000200000000000000009878000000000000000098788000000000020000000001Consumidor Final              000000000059000000000000000000000000000000000000000000000000000000000000000000000000000000000000000000000000000000000000PES00010000001000000000000000020170103
201701030060000200000000000000009879000000000000000098798000000000020000000001Consumidor Final              000000000126500000000000000000000000000000000000000000000000000000000000000000000000000000000000000000000000000000000000PES00010000001000000000000000020170103
201701030060000200000000000000009880000000000000000098808000000000020000000001Consumidor Final              000000000048000000000000000000000000000000000000000000000000000000000000000000000000000000000000000000000000000000000000PES00010000001000000000000000020170103
201701030060000200000000000000009881000000000000000098818000000000020000000001Consumidor Final              000000000040000000000000000000000000000000000000000000000000000000000000000000000000000000000000000000000000000000000000PES00010000001000000000000000020170103
201701030060000200000000000000009882000000000000000098828000000000020000000001Consumidor Final              000000000047500000000000000000000000000000000000000000000000000000000000000000000000000000000000000000000000000000000000PES00010000001000000000000000020170103
201701030060000200000000000000009883000000000000000098838000000000020000000001Consumidor Final              000000000030000000000000000000000000000000000000000000000000000000000000000000000000000000000000000000000000000000000000PES00010000001000000000000000020170103
201701030060000200000000000000009884000000000000000098848000000000020000000001Consumidor Final              000000000500000000000000000000000000000000000000000000000000000000000000000000000000000000000000000000000000000000000000PES00010000001000000000000000020170103
201701030060000200000000000000009885000000000000000098858000000000020000000001Consumidor Final              000000000040000000000000000000000000000000000000000000000000000000000000000000000000000000000000000000000000000000000000PES00010000001000000000000000020170103
201701030060000200000000000000009886000000000000000098868000000000020000000001Consumidor Final              000000000052000000000000000000000000000000000000000000000000000000000000000000000000000000000000000000000000000000000000PES00010000001000000000000000020170103
201701030060000200000000000000009887000000000000000098878000000000020000000001Consumidor Final              000000000059000000000000000000000000000000000000000000000000000000000000000000000000000000000000000000000000000000000000PES00010000001000000000000000020170103
201701030060000200000000000000009888000000000000000098888000000000020000000001Consumidor Final              000000000067500000000000000000000000000000000000000000000000000000000000000000000000000000000000000000000000000000000000PES00010000001000000000000000020170103
201701030060000200000000000000009889000000000000000098898000000000020000000001Consumidor Final              000000000085000000000000000000000000000000000000000000000000000000000000000000000000000000000000000000000000000000000000PES00010000001000000000000000020170103
201701030060000200000000000000009890000000000000000098908000000000020000000001Consumidor Final              000000000069000000000000000000000000000000000000000000000000000000000000000000000000000000000000000000000000000000000000PES00010000001000000000000000020170103
201701030060000200000000000000009891000000000000000098918000000000020000000001Consumidor Final              000000000084000000000000000000000000000000000000000000000000000000000000000000000000000000000000000000000000000000000000PES00010000001000000000000000020170103
201701040060000200000000000000009892000000000000000098928000000000020000000001Consumidor Final              000000000040000000000000000000000000000000000000000000000000000000000000000000000000000000000000000000000000000000000000PES00010000001000000000000000020170104
201701040060000200000000000000009893000000000000000098938000000000020000000001Consumidor Final              000000000067500000000000000000000000000000000000000000000000000000000000000000000000000000000000000000000000000000000000PES00010000001000000000000000020170104
201701040060000200000000000000009894000000000000000098948000000000020000000001Consumidor Final              000000000060000000000000000000000000000000000000000000000000000000000000000000000000000000000000000000000000000000000000PES00010000001000000000000000020170104
201701040060000200000000000000009895000000000000000098958000000000020000000001Consumidor Final              000000000040000000000000000000000000000000000000000000000000000000000000000000000000000000000000000000000000000000000000PES00010000001000000000000000020170104
201701040060000200000000000000009896000000000000000098968000000000020000000001Consumidor Final              000000000067500000000000000000000000000000000000000000000000000000000000000000000000000000000000000000000000000000000000PES00010000001000000000000000020170104
201701040060000200000000000000009897000000000000000098978000000000020000000001Consumidor Final              000000000089000000000000000000000000000000000000000000000000000000000000000000000000000000000000000000000000000000000000PES00010000001000000000000000020170104
201701040060000200000000000000009898000000000000000098988000000000020000000001Consumidor Final              000000000169000000000000000000000000000000000000000000000000000000000000000000000000000000000000000000000000000000000000PES00010000001000000000000000020170104
201701040060000200000000000000009899000000000000000098998000000000020000000001Consumidor Final              000000000430500000000000000000000000000000000000000000000000000000000000000000000000000000000000000000000000000000000000PES00010000001000000000000000020170104
201701040060000200000000000000009900000000000000000099008000000000020000000001Consumidor Final              000000000465000000000000000000000000000000000000000000000000000000000000000000000000000000000000000000000000000000000000PES00010000001000000000000000020170104
201701040060000200000000000000009901000000000000000099018000000000020000000001Consumidor Final              000000000493000000000000000000000000000000000000000000000000000000000000000000000000000000000000000000000000000000000000PES00010000001000000000000000020170104
201701040060000200000000000000009902000000000000000099028000000000020000000001Consumidor Final              000000000496500000000000000000000000000000000000000000000000000000000000000000000000000000000000000000000000000000000000PES00010000001000000000000000020170104
201701040060000200000000000000009903000000000000000099038000000000020000000001Consumidor Final              000000000165000000000000000000000000000000000000000000000000000000000000000000000000000000000000000000000000000000000000PES00010000001000000000000000020170104
201701040060000200000000000000009904000000000000000099048000000000020000000001Consumidor Final              000000000169000000000000000000000000000000000000000000000000000000000000000000000000000000000000000000000000000000000000PES00010000001000000000000000020170104
201701040060000200000000000000009905000000000000000099058000000000020000000001Consumidor Final              000000000059000000000000000000000000000000000000000000000000000000000000000000000000000000000000000000000000000000000000PES00010000001000000000000000020170104
201701040060000200000000000000009906000000000000000099068000000000020000000001Consumidor Final              000000000099000000000000000000000000000000000000000000000000000000000000000000000000000000000000000000000000000000000000PES00010000001000000000000000020170104
201701040060000200000000000000009907000000000000000099078000000000020000000001Consumidor Final              000000000109000000000000000000000000000000000000000000000000000000000000000000000000000000000000000000000000000000000000PES00010000001000000000000000020170104
201701040060000200000000000000009908000000000000000099088000000000020000000001Consumidor Final              000000000045000000000000000000000000000000000000000000000000000000000000000000000000000000000000000000000000000000000000PES00010000001000000000000000020170104
201701040060000200000000000000009909000000000000000099098000000000020000000001Consumidor Final              000000000220000000000000000000000000000000000000000000000000000000000000000000000000000000000000000000000000000000000000PES00010000001000000000000000020170104
201701040060000200000000000000009910000000000000000099108000000000020000000001Consumidor Final              000000000069000000000000000000000000000000000000000000000000000000000000000000000000000000000000000000000000000000000000PES00010000001000000000000000020170104
201701040060000200000000000000009911000000000000000099118000000000020000000001Consumidor Final              000000000030000000000000000000000000000000000000000000000000000000000000000000000000000000000000000000000000000000000000PES00010000001000000000000000020170104
201701040060000200000000000000009912000000000000000099128000000000020000000001Consumidor Final              000000000045000000000000000000000000000000000000000000000000000000000000000000000000000000000000000000000000000000000000PES00010000001000000000000000020170104
201701040060000200000000000000009913000000000000000099138000000000020000000001Consumidor Final              000000000070000000000000000000000000000000000000000000000000000000000000000000000000000000000000000000000000000000000000PES00010000001000000000000000020170104
201701040060000200000000000000009914000000000000000099148000000000020000000001Consumidor Final              000000000099000000000000000000000000000000000000000000000000000000000000000000000000000000000000000000000000000000000000PES00010000001000000000000000020170104
201701040060000200000000000000009915000000000000000099158000000000020000000001Consumidor Final              000000000065000000000000000000000000000000000000000000000000000000000000000000000000000000000000000000000000000000000000PES00010000001000000000000000020170104
201701040060000200000000000000009916000000000000000099168000000000020000000001Consumidor Final              000000000049000000000000000000000000000000000000000000000000000000000000000000000000000000000000000000000000000000000000PES00010000001000000000000000020170104
201701040060000200000000000000009917000000000000000099178000000000020000000001Consumidor Final              000000000115000000000000000000000000000000000000000000000000000000000000000000000000000000000000000000000000000000000000PES00010000001000000000000000020170104
201701050060000200000000000000009918000000000000000099188000000000020000000001Consumidor Final              000000000033000000000000000000000000000000000000000000000000000000000000000000000000000000000000000000000000000000000000PES00010000001000000000000000020170105
201701050060000200000000000000009919000000000000000099199600000000020000000001Consumidor Final              000000000213000000000000000000000000000000000000000000000000000000000000000000000000000000000000000000000000000000000000PES00010000001000000000000000020170105
201701050060000200000000000000009920000000000000000099208000000000020000000001Consumidor Final              000000000099000000000000000000000000000000000000000000000000000000000000000000000000000000000000000000000000000000000000PES00010000001000000000000000020170105
201701050060000200000000000000009921000000000000000099218000000000020000000001Consumidor Final              000000000075000000000000000000000000000000000000000000000000000000000000000000000000000000000000000000000000000000000000PES00010000001000000000000000020170105
201701050060000200000000000000009922000000000000000099228000000000020000000001Consumidor Final              000000000129000000000000000000000000000000000000000000000000000000000000000000000000000000000000000000000000000000000000PES00010000001000000000000000020170105
201701050060000200000000000000009923000000000000000099238000000000020000000001Consumidor Final              000000000049000000000000000000000000000000000000000000000000000000000000000000000000000000000000000000000000000000000000PES00010000001000000000000000020170105
201701050060000200000000000000009924000000000000000099248000000000020000000001Consumidor Final              000000000095000000000000000000000000000000000000000000000000000000000000000000000000000000000000000000000000000000000000PES00010000001000000000000000020170105
201701050060000200000000000000009925000000000000000099258000000000020000000001Consumidor Final              000000000260000000000000000000000000000000000000000000000000000000000000000000000000000000000000000000000000000000000000PES00010000001000000000000000020170105
201701050060000200000000000000009926000000000000000099268000000000020000000001Consumidor Final              000000000047500000000000000000000000000000000000000000000000000000000000000000000000000000000000000000000000000000000000PES00010000001000000000000000020170105
201701050060000200000000000000009927000000000000000099278000000000020000000001Consumidor Final              000000000048000000000000000000000000000000000000000000000000000000000000000000000000000000000000000000000000000000000000PES00010000001000000000000000020170105
201701050060000200000000000000009928000000000000000099288000000000020000000001Consumidor Final              000000000107500000000000000000000000000000000000000000000000000000000000000000000000000000000000000000000000000000000000PES00010000001000000000000000020170105
201701050060000200000000000000009929000000000000000099298000000000020000000001Consumidor Final              000000000127500000000000000000000000000000000000000000000000000000000000000000000000000000000000000000000000000000000000PES00010000001000000000000000020170105
201701050060000200000000000000009930000000000000000099308000000000020000000001Consumidor Final              000000000047500000000000000000000000000000000000000000000000000000000000000000000000000000000000000000000000000000000000PES00010000001000000000000000020170105
201701050060000200000000000000009931000000000000000099318000000000020000000001Consumidor Final              000000000036000000000000000000000000000000000000000000000000000000000000000000000000000000000000000000000000000000000000PES00010000001000000000000000020170105
201701050060000200000000000000009932000000000000000099328000000000020000000001Consumidor Final              000000000119000000000000000000000000000000000000000000000000000000000000000000000000000000000000000000000000000000000000PES00010000001000000000000000020170105
201701050060000200000000000000009933000000000000000099338000000000020000000001Consumidor Final              000000000275000000000000000000000000000000000000000000000000000000000000000000000000000000000000000000000000000000000000PES00010000001000000000000000020170105
201701050060000200000000000000009934000000000000000099348000000000020000000001Consumidor Final              000000000030000000000000000000000000000000000000000000000000000000000000000000000000000000000000000000000000000000000000PES00010000001000000000000000020170105
201701060060000200000000000000009935000000000000000099358000000000020000000001Consumidor Final              000000000060000000000000000000000000000000000000000000000000000000000000000000000000000000000000000000000000000000000000PES00010000001000000000000000020170106
201701060060000200000000000000009936000000000000000099368000000000020000000001Consumidor Final              000000000045000000000000000000000000000000000000000000000000000000000000000000000000000000000000000000000000000000000000PES00010000001000000000000000020170106
201701060060000200000000000000009937000000000000000099378000000000020000000001Consumidor Final              000000000035000000000000000000000000000000000000000000000000000000000000000000000000000000000000000000000000000000000000PES00010000001000000000000000020170106
201701060060000200000000000000009938000000000000000099388000000000020000000001Consumidor Final              000000000030000000000000000000000000000000000000000000000000000000000000000000000000000000000000000000000000000000000000PES00010000001000000000000000020170106
201701060060000200000000000000009939000000000000000099398000000000020000000001Consumidor Final              000000000050000000000000000000000000000000000000000000000000000000000000000000000000000000000000000000000000000000000000PES00010000001000000000000000020170106
201701060060000200000000000000009940000000000000000099408000000000020000000001Consumidor Final              000000000138000000000000000000000000000000000000000000000000000000000000000000000000000000000000000000000000000000000000PES00010000001000000000000000020170106
201701060060000200000000000000009941000000000000000099418000000000020000000001Consumidor Final              000000000104000000000000000000000000000000000000000000000000000000000000000000000000000000000000000000000000000000000000PES00010000001000000000000000020170106
201701060060000200000000000000009942000000000000000099428000000000020000000001Consumidor Final              000000000017500000000000000000000000000000000000000000000000000000000000000000000000000000000000000000000000000000000000PES00010000001000000000000000020170106
201701060060000200000000000000009943000000000000000099438000000000020000000001Consumidor Final              000000000100000000000000000000000000000000000000000000000000000000000000000000000000000000000000000000000000000000000000PES00010000001000000000000000020170106
201701060060000200000000000000009944000000000000000099448000000000020000000001Consumidor Final              000000000130000000000000000000000000000000000000000000000000000000000000000000000000000000000000000000000000000000000000PES00010000001000000000000000020170106
201701060060000200000000000000009945000000000000000099458000000000020000000001Consumidor Final              000000000085000000000000000000000000000000000000000000000000000000000000000000000000000000000000000000000000000000000000PES00010000001000000000000000020170106
201701060060000200000000000000009946000000000000000099468000000000020000000001Consumidor Final              000000000319000000000000000000000000000000000000000000000000000000000000000000000000000000000000000000000000000000000000PES00010000001000000000000000020170106
201701060060000200000000000000009947000000000000000099478000000000020000000001Consumidor Final              000000000090000000000000000000000000000000000000000000000000000000000000000000000000000000000000000000000000000000000000PES00010000001000000000000000020170106
201701060060000200000000000000009948000000000000000099488000000000020000000001Consumidor Final              000000000085000000000000000000000000000000000000000000000000000000000000000000000000000000000000000000000000000000000000PES00010000001000000000000000020170106
201701060060000200000000000000009949000000000000000099498000000000020000000001Consumidor Final              000000000107500000000000000000000000000000000000000000000000000000000000000000000000000000000000000000000000000000000000PES00010000001000000000000000020170106
201701060060000200000000000000009950000000000000000099508000000000020000000001Consumidor Final              000000000065000000000000000000000000000000000000000000000000000000000000000000000000000000000000000000000000000000000000PES00010000001000000000000000020170106
201701060060000200000000000000009951000000000000000099518000000000020000000001Consumidor Final              000000000089000000000000000000000000000000000000000000000000000000000000000000000000000000000000000000000000000000000000PES00010000001000000000000000020170106
201701060060000200000000000000009952000000000000000099528000000000020000000001Consumidor Final              000000000040000000000000000000000000000000000000000000000000000000000000000000000000000000000000000000000000000000000000PES00010000001000000000000000020170106
201701060060000200000000000000009953000000000000000099538000000000020000000001Consumidor Final              000000000199000000000000000000000000000000000000000000000000000000000000000000000000000000000000000000000000000000000000PES00010000001000000000000000020170106
201701070060000200000000000000009954000000000000000099548000000000020000000001Consumidor Final              000000000085000000000000000000000000000000000000000000000000000000000000000000000000000000000000000000000000000000000000PES00010000001000000000000000020170107
201701070060000200000000000000009955000000000000000099558000000000020000000001Consumidor Final              000000000169000000000000000000000000000000000000000000000000000000000000000000000000000000000000000000000000000000000000PES00010000001000000000000000020170107
201701070060000200000000000000009956000000000000000099568000000000020000000001Consumidor Final              000000000089000000000000000000000000000000000000000000000000000000000000000000000000000000000000000000000000000000000000PES00010000001000000000000000020170107
201701070060000200000000000000009957000000000000000099578000000000020000000001Consumidor Final              000000000065000000000000000000000000000000000000000000000000000000000000000000000000000000000000000000000000000000000000PES00010000001000000000000000020170107
201701070060000200000000000000009958000000000000000099588000000000020000000001Consumidor Final              000000000227000000000000000000000000000000000000000000000000000000000000000000000000000000000000000000000000000000000000PES00010000001000000000000000020170107
201701070060000200000000000000009959000000000000000099598000000000020000000001Consumidor Final              000000000171500000000000000000000000000000000000000000000000000000000000000000000000000000000000000000000000000000000000PES00010000001000000000000000020170107
201701070060000200000000000000009960000000000000000099608000000000020000000001Consumidor Final              000000000173000000000000000000000000000000000000000000000000000000000000000000000000000000000000000000000000000000000000PES00010000001000000000000000020170107
201701070060000200000000000000009961000000000000000099618000000000020000000001Consumidor Final              000000000085000000000000000000000000000000000000000000000000000000000000000000000000000000000000000000000000000000000000PES00010000001000000000000000020170107
201701070060000200000000000000009962000000000000000099628000000000020000000001Consumidor Final              000000000030000000000000000000000000000000000000000000000000000000000000000000000000000000000000000000000000000000000000PES00010000001000000000000000020170107
201701090060000200000000000000009963000000000000000099638000000000020000000001Consumidor Final              000000000048000000000000000000000000000000000000000000000000000000000000000000000000000000000000000000000000000000000000PES00010000001000000000000000020170109
201701090060000200000000000000009964000000000000000099648000000000020000000001Consumidor Final              000000000270000000000000000000000000000000000000000000000000000000000000000000000000000000000000000000000000000000000000PES00010000001000000000000000020170109
201701090060000200000000000000009965000000000000000099658000000000020000000001Consumidor Final              000000000098000000000000000000000000000000000000000000000000000000000000000000000000000000000000000000000000000000000000PES00010000001000000000000000020170109
201701090060000200000000000000009966000000000000000099668000000000020000000001Consumidor Final              000000000089000000000000000000000000000000000000000000000000000000000000000000000000000000000000000000000000000000000000PES00010000001000000000000000020170109
201701090060000200000000000000009967000000000000000099678000000000020000000001Consumidor Final              000000000496500000000000000000000000000000000000000000000000000000000000000000000000000000000000000000000000000000000000PES00010000001000000000000000020170109
201701090060000200000000000000009968000000000000000099688000000000020000000001Consumidor Final              000000000497000000000000000000000000000000000000000000000000000000000000000000000000000000000000000000000000000000000000PES00010000001000000000000000020170109
201701090060000200000000000000009969000000000000000099698000000000020000000001Consumidor Final              000000000461500000000000000000000000000000000000000000000000000000000000000000000000000000000000000000000000000000000000PES00010000001000000000000000020170109
201701090060000200000000000000009970000000000000000099708000000000020000000001Consumidor Final              000000000049000000000000000000000000000000000000000000000000000000000000000000000000000000000000000000000000000000000000PES00010000001000000000000000020170109
201701090060000200000000000000009971000000000000000099718000000000020000000001Consumidor Final              000000000085000000000000000000000000000000000000000000000000000000000000000000000000000000000000000000000000000000000000PES00010000001000000000000000020170109
201701090060000200000000000000009972000000000000000099728000000000020000000001Consumidor Final              000000000045000000000000000000000000000000000000000000000000000000000000000000000000000000000000000000000000000000000000PES00010000001000000000000000020170109
201701090060000200000000000000009973000000000000000099738000000000020000000001Consumidor Final              000000000030000000000000000000000000000000000000000000000000000000000000000000000000000000000000000000000000000000000000PES00010000001000000000000000020170109
201701090060000200000000000000009974000000000000000099748000000000020000000001Consumidor Final              000000000100000000000000000000000000000000000000000000000000000000000000000000000000000000000000000000000000000000000000PES00010000001000000000000000020170109
201701090060000200000000000000009977000000000000000099778000000000020000000001Consumidor Final              000000000135000000000000000000000000000000000000000000000000000000000000000000000000000000000000000000000000000000000000PES00010000001000000000000000020170109
201701090060000200000000000000009978000000000000000099788000000000020000000001Consumidor Final              000000000145000000000000000000000000000000000000000000000000000000000000000000000000000000000000000000000000000000000000PES00010000001000000000000000020170109
201701090060000200000000000000009979000000000000000099798000000000020000000001Consumidor Final              000000000079000000000000000000000000000000000000000000000000000000000000000000000000000000000000000000000000000000000000PES00010000001000000000000000020170109
201701090060000200000000000000009980000000000000000099808000000000020000000001Consumidor Final              000000000053000000000000000000000000000000000000000000000000000000000000000000000000000000000000000000000000000000000000PES00010000001000000000000000020170109
201701090060000200000000000000009981000000000000000099818000000000020000000001Consumidor Final              000000000106000000000000000000000000000000000000000000000000000000000000000000000000000000000000000000000000000000000000PES00010000001000000000000000020170109
201701090060000200000000000000009982000000000000000099828000000000020000000001Consumidor Final              000000000012000000000000000000000000000000000000000000000000000000000000000000000000000000000000000000000000000000000000PES00010000001000000000000000020170109
201701090060000200000000000000009983000000000000000099838000000000020000000001Consumidor Final              000000000177000000000000000000000000000000000000000000000000000000000000000000000000000000000000000000000000000000000000PES00010000001000000000000000020170109
201701090060000200000000000000009984000000000000000099848000000000020000000001Consumidor Final              000000000047500000000000000000000000000000000000000000000000000000000000000000000000000000000000000000000000000000000000PES00010000001000000000000000020170109
201701090060000200000000000000009985000000000000000099858000000000020000000001Consumidor Final              000000000049000000000000000000000000000000000000000000000000000000000000000000000000000000000000000000000000000000000000PES00010000001000000000000000020170109
201701090060000200000000000000009986000000000000000099868000000000020000000001Consumidor Final              000000000299000000000000000000000000000000000000000000000000000000000000000000000000000000000000000000000000000000000000PES00010000001000000000000000020170109
201701090060000200000000000000009987000000000000000099878000000000020000000001Consumidor Final              000000000040000000000000000000000000000000000000000000000000000000000000000000000000000000000000000000000000000000000000PES00010000001000000000000000020170109
201701090060000200000000000000009988000000000000000099888000000000020000000001Consumidor Final              000000000500000000000000000000000000000000000000000000000000000000000000000000000000000000000000000000000000000000000000PES00010000001000000000000000020170109
201701090060000200000000000000009989000000000000000099898000000000020000000001Consumidor Final              000000000230000000000000000000000000000000000000000000000000000000000000000000000000000000000000000000000000000000000000PES00010000001000000000000000020170109
201701090060000200000000000000009990000000000000000099908000000000020000000001Consumidor Final              000000000030000000000000000000000000000000000000000000000000000000000000000000000000000000000000000000000000000000000000PES00010000001000000000000000020170109
201701090060000200000000000000009991000000000000000099918000000000020000000001Consumidor Final              000000000099000000000000000000000000000000000000000000000000000000000000000000000000000000000000000000000000000000000000PES00010000001000000000000000020170109
201701090060000200000000000000009992000000000000000099928000000000020000000001Consumidor Final              000000000060000000000000000000000000000000000000000000000000000000000000000000000000000000000000000000000000000000000000PES00010000001000000000000000020170109
201701090060000200000000000000009993000000000000000099938000000000020000000001Consumidor Final              000000000088000000000000000000000000000000000000000000000000000000000000000000000000000000000000000000000000000000000000PES00010000001000000000000000020170109
201701090060000200000000000000009994000000000000000099948000000000020000000001Consumidor Final              000000000079000000000000000000000000000000000000000000000000000000000000000000000000000000000000000000000000000000000000PES00010000001000000000000000020170109
201701090060000200000000000000009995000000000000000099958000000000020000000001Consumidor Final              000000000078000000000000000000000000000000000000000000000000000000000000000000000000000000000000000000000000000000000000PES00010000001000000000000000020170109
201701090060000200000000000000009996000000000000000099968000000000020000000001Consumidor Final              000000000299000000000000000000000000000000000000000000000000000000000000000000000000000000000000000000000000000000000000PES00010000001000000000000000020170109
201701090060000200000000000000009997000000000000000099978000000000020000000001Consumidor Final              000000000049500000000000000000000000000000000000000000000000000000000000000000000000000000000000000000000000000000000000PES00010000001000000000000000020170109
201701090060000200000000000000009998000000000000000099988000000000020000000001Consumidor Final              000000000049500000000000000000000000000000000000000000000000000000000000000000000000000000000000000000000000000000000000PES00010000001000000000000000020170109
201701090060000200000000000000009999000000000000000099998000000000020000000001Consumidor Final              000000000089000000000000000000000000000000000000000000000000000000000000000000000000000000000000000000000000000000000000PES00010000001000000000000000020170109
201701090060000200000000000000010000000000000000000100008000000000020000000001Consumidor Final              000000000039000000000000000000000000000000000000000000000000000000000000000000000000000000000000000000000000000000000000PES00010000001000000000000000020170109
201701090060000200000000000000010001000000000000000100018000000000020000000001Consumidor Final              000000000129000000000000000000000000000000000000000000000000000000000000000000000000000000000000000000000000000000000000PES00010000001000000000000000020170109
201701090060000200000000000000010002000000000000000100028000000000020000000001Consumidor Final              000000000165000000000000000000000000000000000000000000000000000000000000000000000000000000000000000000000000000000000000PES00010000001000000000000000020170109
201701090060000200000000000000010003000000000000000100038000000000020000000001Consumidor Final              000000000085000000000000000000000000000000000000000000000000000000000000000000000000000000000000000000000000000000000000PES00010000001000000000000000020170109
201701090060000200000000000000010004000000000000000100048000000000020000000001Consumidor Final              000000000174000000000000000000000000000000000000000000000000000000000000000000000000000000000000000000000000000000000000PES00010000001000000000000000020170109
201701090060000200000000000000010005000000000000000100058000000000020000000001Consumidor Final              000000000050000000000000000000000000000000000000000000000000000000000000000000000000000000000000000000000000000000000000PES00010000001000000000000000020170109
201701090060000200000000000000009976000000000000000099768000000000020000000001Consumidor Final              000000000210000000000000000000000000000000000000000000000000000000000000000000000000000000000000000000000000000000000000PES00010000001000000000000000020170109
201701100060000200000000000000010006000000000000000100068000000000020000000001Consumidor Final              000000000052500000000000000000000000000000000000000000000000000000000000000000000000000000000000000000000000000000000000PES00010000001000000000000000020170110
201701100060000200000000000000010007000000000000000100078000000000020000000001Consumidor Final              000000000258000000000000000000000000000000000000000000000000000000000000000000000000000000000000000000000000000000000000PES00010000001000000000000000020170110
201701100060000200000000000000010008000000000000000100088000000000020000000001Consumidor Final              000000000203000000000000000000000000000000000000000000000000000000000000000000000000000000000000000000000000000000000000PES00010000001000000000000000020170110
201701100060000200000000000000010009000000000000000100098000000000020000000001Consumidor Final              000000000474000000000000000000000000000000000000000000000000000000000000000000000000000000000000000000000000000000000000PES00010000001000000000000000020170110
201701100060000200000000000000010010000000000000000100108000000000020000000001Consumidor Final              000000000345000000000000000000000000000000000000000000000000000000000000000000000000000000000000000000000000000000000000PES00010000001000000000000000020170110
201701100060000200000000000000010011000000000000000100118000000000020000000001Consumidor Final              000000000105000000000000000000000000000000000000000000000000000000000000000000000000000000000000000000000000000000000000PES00010000001000000000000000020170110
201701100060000200000000000000010012000000000000000100128000000000020000000001Consumidor Final              000000000065000000000000000000000000000000000000000000000000000000000000000000000000000000000000000000000000000000000000PES00010000001000000000000000020170110
201701100060000200000000000000010013000000000000000100138000000000020000000001Consumidor Final              000000000080000000000000000000000000000000000000000000000000000000000000000000000000000000000000000000000000000000000000PES00010000001000000000000000020170110
201701100060000200000000000000010015000000000000000100158000000000020000000001Consumidor Final              000000000069000000000000000000000000000000000000000000000000000000000000000000000000000000000000000000000000000000000000PES00010000001000000000000000020170110
201701100060000200000000000000010016000000000000000100168000000000020000000001Consumidor Final              000000000045000000000000000000000000000000000000000000000000000000000000000000000000000000000000000000000000000000000000PES00010000001000000000000000020170110
201701100060000200000000000000010017000000000000000100178000000000020000000001Consumidor Final              000000000180000000000000000000000000000000000000000000000000000000000000000000000000000000000000000000000000000000000000PES00010000001000000000000000020170110
201701100060000200000000000000010018000000000000000100188000000000020000000001Consumidor Final              000000000120000000000000000000000000000000000000000000000000000000000000000000000000000000000000000000000000000000000000PES00010000001000000000000000020170110
201701100060000200000000000000010019000000000000000100198000000000020000000001Consumidor Final              000000000035000000000000000000000000000000000000000000000000000000000000000000000000000000000000000000000000000000000000PES00010000001000000000000000020170110
201701100060000200000000000000010020000000000000000100208000000000020000000001Consumidor Final              000000000036000000000000000000000000000000000000000000000000000000000000000000000000000000000000000000000000000000000000PES00010000001000000000000000020170110
201701100060000200000000000000010021000000000000000100218000000000020000000001Consumidor Final              000000000204000000000000000000000000000000000000000000000000000000000000000000000000000000000000000000000000000000000000PES00010000001000000000000000020170110
201701100060000200000000000000010022000000000000000100228000000000020000000001Consumidor Final              000000000089000000000000000000000000000000000000000000000000000000000000000000000000000000000000000000000000000000000000PES00010000001000000000000000020170110
201701100060000200000000000000010023000000000000000100238000000000020000000001Consumidor Final              000000000135000000000000000000000000000000000000000000000000000000000000000000000000000000000000000000000000000000000000PES00010000001000000000000000020170110
201701100060000200000000000000010024000000000000000100248000000000020000000001Consumidor Final              000000000079000000000000000000000000000000000000000000000000000000000000000000000000000000000000000000000000000000000000PES00010000001000000000000000020170110
201701100060000200000000000000010025000000000000000100258000000000020000000001Consumidor Final              000000000139000000000000000000000000000000000000000000000000000000000000000000000000000000000000000000000000000000000000PES00010000001000000000000000020170110
201701100060000200000000000000010026000000000000000100268000000000020000000001Consumidor Final              000000000159000000000000000000000000000000000000000000000000000000000000000000000000000000000000000000000000000000000000PES00010000001000000000000000020170110
201701100060000200000000000000010027000000000000000100278000000000020000000001Consumidor Final              000000000183000000000000000000000000000000000000000000000000000000000000000000000000000000000000000000000000000000000000PES00010000001000000000000000020170110
201701100060000200000000000000010028000000000000000100288000000000020000000001Consumidor Final              000000000010000000000000000000000000000000000000000000000000000000000000000000000000000000000000000000000000000000000000PES00010000001000000000000000020170110
201701100060000200000000000000010029000000000000000100298000000000020000000001Consumidor Final              000000000048000000000000000000000000000000000000000000000000000000000000000000000000000000000000000000000000000000000000PES00010000001000000000000000020170110
201701100060000200000000000000010030000000000000000100308000000000020000000001Consumidor Final              000000000045000000000000000000000000000000000000000000000000000000000000000000000000000000000000000000000000000000000000PES00010000001000000000000000020170110
201701110060000200000000000000010031000000000000000100318000000000020000000001Consumidor Final              000000000069000000000000000000000000000000000000000000000000000000000000000000000000000000000000000000000000000000000000PES00010000001000000000000000020170111
201701110060000200000000000000010032000000000000000100328000000000020000000001Consumidor Final              000000000109000000000000000000000000000000000000000000000000000000000000000000000000000000000000000000000000000000000000PES00010000001000000000000000020170111
201701110060000200000000000000010033000000000000000100338000000000020000000001Consumidor Final              000000000064000000000000000000000000000000000000000000000000000000000000000000000000000000000000000000000000000000000000PES00010000001000000000000000020170111
201701110060000200000000000000010034000000000000000100348000000000020000000001Consumidor Final              000000000099000000000000000000000000000000000000000000000000000000000000000000000000000000000000000000000000000000000000PES00010000001000000000000000020170111
201701110060000200000000000000010035000000000000000100358000000000020000000001Consumidor Final              000000000089000000000000000000000000000000000000000000000000000000000000000000000000000000000000000000000000000000000000PES00010000001000000000000000020170111
201701110060000200000000000000010036000000000000000100368000000000020000000001Consumidor Final              000000000055000000000000000000000000000000000000000000000000000000000000000000000000000000000000000000000000000000000000PES00010000001000000000000000020170111
201701110060000200000000000000010037000000000000000100378000000000020000000001Consumidor Final              000000000050000000000000000000000000000000000000000000000000000000000000000000000000000000000000000000000000000000000000PES00010000001000000000000000020170111
201701110060000200000000000000010038000000000000000100388000000000020000000001Consumidor Final              000000000100000000000000000000000000000000000000000000000000000000000000000000000000000000000000000000000000000000000000PES00010000001000000000000000020170111
201701110060000200000000000000010039000000000000000100398000000000020000000001Consumidor Final              000000000118000000000000000000000000000000000000000000000000000000000000000000000000000000000000000000000000000000000000PES00010000001000000000000000020170111
201701110060000200000000000000010040000000000000000100408000000000020000000001Consumidor Final              000000000100000000000000000000000000000000000000000000000000000000000000000000000000000000000000000000000000000000000000PES00010000001000000000000000020170111
201701110060000200000000000000010041000000000000000100418000000000020000000001Consumidor Final              000000000050000000000000000000000000000000000000000000000000000000000000000000000000000000000000000000000000000000000000PES00010000001000000000000000020170111
201701110060000200000000000000010042000000000000000100428000000000020000000001Consumidor Final              000000000180000000000000000000000000000000000000000000000000000000000000000000000000000000000000000000000000000000000000PES00010000001000000000000000020170111
201701110060000200000000000000010043000000000000000100438000000000020000000001Consumidor Final              000000000050000000000000000000000000000000000000000000000000000000000000000000000000000000000000000000000000000000000000PES00010000001000000000000000020170111
201701110060000200000000000000010044000000000000000100448000000000020000000001Consumidor Final              000000000089000000000000000000000000000000000000000000000000000000000000000000000000000000000000000000000000000000000000PES00010000001000000000000000020170111
201701110060000200000000000000010045000000000000000100458000000000020000000001Consumidor Final              000000000089000000000000000000000000000000000000000000000000000000000000000000000000000000000000000000000000000000000000PES00010000001000000000000000020170111
201701110060000200000000000000010046000000000000000100468000000000020000000001Consumidor Final              000000000150000000000000000000000000000000000000000000000000000000000000000000000000000000000000000000000000000000000000PES00010000001000000000000000020170111
201701110060000200000000000000010047000000000000000100478000000000020000000001Consumidor Final              000000000366500000000000000000000000000000000000000000000000000000000000000000000000000000000000000000000000000000000000PES00010000001000000000000000020170111
201701110060000200000000000000010048000000000000000100488000000000020000000001Consumidor Final              000000000047500000000000000000000000000000000000000000000000000000000000000000000000000000000000000000000000000000000000PES00010000001000000000000000020170111
201701110060000200000000000000010049000000000000000100498000000000020000000001Consumidor Final              000000000250000000000000000000000000000000000000000000000000000000000000000000000000000000000000000000000000000000000000PES00010000001000000000000000020170111
201701110060000200000000000000010050000000000000000100508000000000020000000001Consumidor Final              000000000082000000000000000000000000000000000000000000000000000000000000000000000000000000000000000000000000000000000000PES00010000001000000000000000020170111
201701110060000200000000000000010051000000000000000100518000000000020000000001Consumidor Final              000000000007000000000000000000000000000000000000000000000000000000000000000000000000000000000000000000000000000000000000PES00010000001000000000000000020170111
201701110060000200000000000000010052000000000000000100528000000000020000000001Consumidor Final              000000000057500000000000000000000000000000000000000000000000000000000000000000000000000000000000000000000000000000000000PES00010000001000000000000000020170111
201701110060000200000000000000010053000000000000000100538000000000020000000001Consumidor Final              000000000030000000000000000000000000000000000000000000000000000000000000000000000000000000000000000000000000000000000000PES00010000001000000000000000020170111
201701110060000200000000000000010054000000000000000100548000000000020000000001Consumidor Final              000000000465000000000000000000000000000000000000000000000000000000000000000000000000000000000000000000000000000000000000PES00010000001000000000000000020170111
201701110060000200000000000000010055000000000000000100558000000000020000000001Consumidor Final              000000000455600000000000000000000000000000000000000000000000000000000000000000000000000000000000000000000000000000000000PES00010000001000000000000000020170111
201701110060000200000000000000010056000000000000000100568000000000020000000001Consumidor Final              000000000085000000000000000000000000000000000000000000000000000000000000000000000000000000000000000000000000000000000000PES00010000001000000000000000020170111
201701110060000200000000000000010057000000000000000100578000000000020000000001Consumidor Final              000000000273500000000000000000000000000000000000000000000000000000000000000000000000000000000000000000000000000000000000PES00010000001000000000000000020170111
201701110060000200000000000000010058000000000000000100588000000000020000000001Consumidor Final              000000000124000000000000000000000000000000000000000000000000000000000000000000000000000000000000000000000000000000000000PES00010000001000000000000000020170111
201701110060000200000000000000010059000000000000000100598000000000020000000001Consumidor Final              000000000114000000000000000000000000000000000000000000000000000000000000000000000000000000000000000000000000000000000000PES00010000001000000000000000020170111
201701110060000200000000000000010060000000000000000100608000000000020000000001Consumidor Final              000000000040000000000000000000000000000000000000000000000000000000000000000000000000000000000000000000000000000000000000PES00010000001000000000000000020170111
201701110060000200000000000000010061000000000000000100618000000000020000000001Consumidor Final              000000000099000000000000000000000000000000000000000000000000000000000000000000000000000000000000000000000000000000000000PES00010000001000000000000000020170111
201701110060000200000000000000010062000000000000000100628000000000020000000001Consumidor Final              000000000089000000000000000000000000000000000000000000000000000000000000000000000000000000000000000000000000000000000000PES00010000001000000000000000020170111
201701110060000200000000000000010063000000000000000100638000000000020000000001Consumidor Final              000000000178000000000000000000000000000000000000000000000000000000000000000000000000000000000000000000000000000000000000PES00010000001000000000000000020170111
201701110060000200000000000000010064000000000000000100648000000000020000000001Consumidor Final              000000000089000000000000000000000000000000000000000000000000000000000000000000000000000000000000000000000000000000000000PES00010000001000000000000000020170111
201701110060000200000000000000010065000000000000000100658000000000020000000001Consumidor Final              000000000048000000000000000000000000000000000000000000000000000000000000000000000000000000000000000000000000000000000000PES00010000001000000000000000020170111
201701110060000200000000000000010066000000000000000100668000000000020000000001Consumidor Final              000000000045000000000000000000000000000000000000000000000000000000000000000000000000000000000000000000000000000000000000PES00010000001000000000000000020170111
201701110060000200000000000000010067000000000000000100678000000000020000000001Consumidor Final              000000000025000000000000000000000000000000000000000000000000000000000000000000000000000000000000000000000000000000000000PES00010000001000000000000000020170111
201701110060000200000000000000010068000000000000000100688000000000020000000001Consumidor Final              000000000039000000000000000000000000000000000000000000000000000000000000000000000000000000000000000000000000000000000000PES00010000001000000000000000020170111
201701110060000200000000000000010069000000000000000100698000000000020000000001Consumidor Final              000000000089000000000000000000000000000000000000000000000000000000000000000000000000000000000000000000000000000000000000PES00010000001000000000000000020170111
201701110060000200000000000000010070000000000000000100708000000000020000000001Consumidor Final              000000000135000000000000000000000000000000000000000000000000000000000000000000000000000000000000000000000000000000000000PES00010000001000000000000000020170111
201701110060000200000000000000010071000000000000000100718000000000020000000001Consumidor Final              000000000059000000000000000000000000000000000000000000000000000000000000000000000000000000000000000000000000000000000000PES00010000001000000000000000020170111
201701110060000200000000000000010072000000000000000100728000000000020000000001Consumidor Final              000000000039000000000000000000000000000000000000000000000000000000000000000000000000000000000000000000000000000000000000PES00010000001000000000000000020170111
201701110060000200000000000000010073000000000000000100738000000000020000000001Consumidor Final              000000000145000000000000000000000000000000000000000000000000000000000000000000000000000000000000000000000000000000000000PES00010000001000000000000000020170111
201701110060000200000000000000010074000000000000000100748000000000020000000001Consumidor Final              000000000078000000000000000000000000000000000000000000000000000000000000000000000000000000000000000000000000000000000000PES00010000001000000000000000020170111
201701120060000200000000000000010075000000000000000100758000000000020000000001Consumidor Final              000000000089000000000000000000000000000000000000000000000000000000000000000000000000000000000000000000000000000000000000PES00010000001000000000000000020170112
201701120060000200000000000000010076000000000000000100768000000000020000000001Consumidor Final              000000000140000000000000000000000000000000000000000000000000000000000000000000000000000000000000000000000000000000000000PES00010000001000000000000000020170112
201701120060000200000000000000010078000000000000000100788000000000020000000001Consumidor Final              000000000025000000000000000000000000000000000000000000000000000000000000000000000000000000000000000000000000000000000000PES00010000001000000000000000020170112
201701120060000200000000000000010079000000000000000100798000000000020000000001Consumidor Final              000000000089000000000000000000000000000000000000000000000000000000000000000000000000000000000000000000000000000000000000PES00010000001000000000000000020170112
201701120060000200000000000000010080000000000000000100808000000000020000000001Consumidor Final              000000000089000000000000000000000000000000000000000000000000000000000000000000000000000000000000000000000000000000000000PES00010000001000000000000000020170112
201701120060000200000000000000010081000000000000000100818000000000020000000001Consumidor Final              000000000089000000000000000000000000000000000000000000000000000000000000000000000000000000000000000000000000000000000000PES00010000001000000000000000020170112
201701120060000200000000000000010082000000000000000100828000000000020000000001Consumidor Final              000000000047000000000000000000000000000000000000000000000000000000000000000000000000000000000000000000000000000000000000PES00010000001000000000000000020170112
201701120060000200000000000000010083000000000000000100838000000000020000000001Consumidor Final              000000000030000000000000000000000000000000000000000000000000000000000000000000000000000000000000000000000000000000000000PES00010000001000000000000000020170112
201701120060000200000000000000010084000000000000000100848000000000020000000001Consumidor Final              000000000040000000000000000000000000000000000000000000000000000000000000000000000000000000000000000000000000000000000000PES00010000001000000000000000020170112
201701120060000200000000000000010085000000000000000100858000000000020000000001Consumidor Final              000000000059000000000000000000000000000000000000000000000000000000000000000000000000000000000000000000000000000000000000PES00010000001000000000000000020170112
201701120060000200000000000000010086000000000000000100868000000000020000000001Consumidor Final              000000000100000000000000000000000000000000000000000000000000000000000000000000000000000000000000000000000000000000000000PES00010000001000000000000000020170112
201701120060000200000000000000010087000000000000000100878000000000020000000001Consumidor Final              000000000154000000000000000000000000000000000000000000000000000000000000000000000000000000000000000000000000000000000000PES00010000001000000000000000020170112
201701120060000200000000000000010089000000000000000100898000000000020000000001Consumidor Final              000000000043000000000000000000000000000000000000000000000000000000000000000000000000000000000000000000000000000000000000PES00010000001000000000000000020170112
201701120060000200000000000000010090000000000000000100908000000000020000000001Consumidor Final              000000000089000000000000000000000000000000000000000000000000000000000000000000000000000000000000000000000000000000000000PES00010000001000000000000000020170112
201701120060000200000000000000010091000000000000000100918000000000020000000001Consumidor Final              000000000089000000000000000000000000000000000000000000000000000000000000000000000000000000000000000000000000000000000000PES00010000001000000000000000020170112
201701120060000200000000000000010092000000000000000100928000000000020000000001Consumidor Final              000000000045000000000000000000000000000000000000000000000000000000000000000000000000000000000000000000000000000000000000PES00010000001000000000000000020170112
201701120060000200000000000000010093000000000000000100938000000000020000000001Consumidor Final              000000000440000000000000000000000000000000000000000000000000000000000000000000000000000000000000000000000000000000000000PES00010000001000000000000000020170112
201701120060000200000000000000010094000000000000000100948000000000020000000001Consumidor Final              000000000277500000000000000000000000000000000000000000000000000000000000000000000000000000000000000000000000000000000000PES00010000001000000000000000020170112
201701120060000200000000000000010095000000000000000100958000000000020000000001Consumidor Final              000000000371000000000000000000000000000000000000000000000000000000000000000000000000000000000000000000000000000000000000PES00010000001000000000000000020170112
201701120060000200000000000000010096000000000000000100968000000000020000000001Consumidor Final              000000000052000000000000000000000000000000000000000000000000000000000000000000000000000000000000000000000000000000000000PES00010000001000000000000000020170112
201701120060000200000000000000010077000000000000000100778000000000020000000001Consumidor Final              000000000119000000000000000000000000000000000000000000000000000000000000000000000000000000000000000000000000000000000000PES00010000001000000000000000020170112
201701120060000200000000000000010088000000000000000100888000000000020000000001Consumidor Final              000000000129000000000000000000000000000000000000000000000000000000000000000000000000000000000000000000000000000000000000PES00010000001000000000000000020170112
201701130060000200000000000000010097000000000000000100978000000000020000000001Consumidor Final              000000000174000000000000000000000000000000000000000000000000000000000000000000000000000000000000000000000000000000000000PES00010000001000000000000000020170113
201701130060000200000000000000010098000000000000000100988000000000020000000001Consumidor Final              000000000369000000000000000000000000000000000000000000000000000000000000000000000000000000000000000000000000000000000000PES00010000001000000000000000020170113
201701130060000200000000000000010099000000000000000100998000000000020000000001Consumidor Final              000000000030000000000000000000000000000000000000000000000000000000000000000000000000000000000000000000000000000000000000PES00010000001000000000000000020170113
201701130060000200000000000000010100000000000000000101008000000000020000000001Consumidor Final              000000000062500000000000000000000000000000000000000000000000000000000000000000000000000000000000000000000000000000000000PES00010000001000000000000000020170113
201701130060000200000000000000010101000000000000000101018000000000020000000001Consumidor Final              000000000064000000000000000000000000000000000000000000000000000000000000000000000000000000000000000000000000000000000000PES00010000001000000000000000020170113
201701130060000200000000000000010102000000000000000101028000000000020000000001Consumidor Final              000000000020000000000000000000000000000000000000000000000000000000000000000000000000000000000000000000000000000000000000PES00010000001000000000000000020170113
201701130060000200000000000000010103000000000000000101038000000000020000000001Consumidor Final              000000000120000000000000000000000000000000000000000000000000000000000000000000000000000000000000000000000000000000000000PES00010000001000000000000000020170113
201701130060000200000000000000010104000000000000000101048000000000020000000001Consumidor Final              000000000109000000000000000000000000000000000000000000000000000000000000000000000000000000000000000000000000000000000000PES00010000001000000000000000020170113
201701130060000200000000000000010105000000000000000101058000000000020000000001Consumidor Final              000000000119000000000000000000000000000000000000000000000000000000000000000000000000000000000000000000000000000000000000PES00010000001000000000000000020170113
201701130060000200000000000000010106000000000000000101068000000000020000000001Consumidor Final              000000000049000000000000000000000000000000000000000000000000000000000000000000000000000000000000000000000000000000000000PES00010000001000000000000000020170113
201701130060000200000000000000010107000000000000000101078000000000020000000001Consumidor Final              000000000096000000000000000000000000000000000000000000000000000000000000000000000000000000000000000000000000000000000000PES00010000001000000000000000020170113
201701130060000200000000000000010108000000000000000101088000000000020000000001Consumidor Final              000000000090000000000000000000000000000000000000000000000000000000000000000000000000000000000000000000000000000000000000PES00010000001000000000000000020170113
201701130060000200000000000000010109000000000000000101098000000000020000000001Consumidor Final              000000000136000000000000000000000000000000000000000000000000000000000000000000000000000000000000000000000000000000000000PES00010000001000000000000000020170113
201701130060000200000000000000010110000000000000000101108000000000020000000001Consumidor Final              000000000283000000000000000000000000000000000000000000000000000000000000000000000000000000000000000000000000000000000000PES00010000001000000000000000020170113
201701130060000200000000000000010111000000000000000101118000000000020000000001Consumidor Final              000000000094000000000000000000000000000000000000000000000000000000000000000000000000000000000000000000000000000000000000PES00010000001000000000000000020170113
201701130060000200000000000000010112000000000000000101128000000000020000000001Consumidor Final              000000000318000000000000000000000000000000000000000000000000000000000000000000000000000000000000000000000000000000000000PES00010000001000000000000000020170113
201701130060000200000000000000010113000000000000000101138000000000020000000001Consumidor Final              000000000037500000000000000000000000000000000000000000000000000000000000000000000000000000000000000000000000000000000000PES00010000001000000000000000020170113
201701130060000200000000000000010114000000000000000101148000000000020000000001Consumidor Final              000000000169000000000000000000000000000000000000000000000000000000000000000000000000000000000000000000000000000000000000PES00010000001000000000000000020170113
201701130060000200000000000000010115000000000000000101158000000000020000000001Consumidor Final              000000000105000000000000000000000000000000000000000000000000000000000000000000000000000000000000000000000000000000000000PES00010000001000000000000000020170113
201701130010000200000000000000000068000000000000000000688000000000020134345331Llado,Alberto Isac            000000000110000000000000000000000000000000000000000000000000000000000000000000000000000000000000000000000000000000000000PES00010000001000000000000000020170113
201701140060000200000000000000010116000000000000000101168000000000020000000001Consumidor Final              000000000089000000000000000000000000000000000000000000000000000000000000000000000000000000000000000000000000000000000000PES00010000001000000000000000020170114
201701140060000200000000000000010117000000000000000101178000000000020000000001Consumidor Final              000000000219000000000000000000000000000000000000000000000000000000000000000000000000000000000000000000000000000000000000PES00010000001000000000000000020170114
201701140060000200000000000000010118000000000000000101188000000000020000000001Consumidor Final              000000000049000000000000000000000000000000000000000000000000000000000000000000000000000000000000000000000000000000000000PES00010000001000000000000000020170114
201701140060000200000000000000010119000000000000000101198000000000020000000001Consumidor Final              000000000049000000000000000000000000000000000000000000000000000000000000000000000000000000000000000000000000000000000000PES00010000001000000000000000020170114
201701140060000200000000000000010120000000000000000101208000000000020000000001Consumidor Final              000000000020000000000000000000000000000000000000000000000000000000000000000000000000000000000000000000000000000000000000PES00010000001000000000000000020170114
201701140060000200000000000000010121000000000000000101218000000000020000000001Consumidor Final              000000000209000000000000000000000000000000000000000000000000000000000000000000000000000000000000000000000000000000000000PES00010000001000000000000000020170114
201701140060000200000000000000010122000000000000000101228000000000020000000001Consumidor Final              000000000145000000000000000000000000000000000000000000000000000000000000000000000000000000000000000000000000000000000000PES00010000001000000000000000020170114
201701140060000200000000000000010123000000000000000101238000000000020000000001Consumidor Final              000000000250000000000000000000000000000000000000000000000000000000000000000000000000000000000000000000000000000000000000PES00010000001000000000000000020170114
201701160060000200000000000000010124000000000000000101248000000000020000000001Consumidor Final              000000000074000000000000000000000000000000000000000000000000000000000000000000000000000000000000000000000000000000000000PES00010000001000000000000000020170116
201701160060000200000000000000010125000000000000000101258000000000020000000001Consumidor Final              000000000139000000000000000000000000000000000000000000000000000000000000000000000000000000000000000000000000000000000000PES00010000001000000000000000020170116
201701160060000200000000000000010126000000000000000101268000000000020000000001Consumidor Final              000000000060000000000000000000000000000000000000000000000000000000000000000000000000000000000000000000000000000000000000PES00010000001000000000000000020170116
201701160060000200000000000000010127000000000000000101278000000000020000000001Consumidor Final              000000000099000000000000000000000000000000000000000000000000000000000000000000000000000000000000000000000000000000000000PES00010000001000000000000000020170116
201701160060000200000000000000010128000000000000000101288000000000020000000001Consumidor Final              000000000089000000000000000000000000000000000000000000000000000000000000000000000000000000000000000000000000000000000000PES00010000001000000000000000020170116
201701160060000200000000000000010129000000000000000101298000000000020000000001Consumidor Final              000000000050000000000000000000000000000000000000000000000000000000000000000000000000000000000000000000000000000000000000PES00010000001000000000000000020170116
201701160060000200000000000000010130000000000000000101308000000000020000000001Consumidor Final              000000000069000000000000000000000000000000000000000000000000000000000000000000000000000000000000000000000000000000000000PES00010000001000000000000000020170116
201701160060000200000000000000010131000000000000000101318000000000020000000001Consumidor Final              000000000099000000000000000000000000000000000000000000000000000000000000000000000000000000000000000000000000000000000000PES00010000001000000000000000020170116
201701160060000200000000000000010132000000000000000101328000000000020000000001Consumidor Final              000000000105000000000000000000000000000000000000000000000000000000000000000000000000000000000000000000000000000000000000PES00010000001000000000000000020170116
201701160060000200000000000000010133000000000000000101338000000000020000000001Consumidor Final              000000000030000000000000000000000000000000000000000000000000000000000000000000000000000000000000000000000000000000000000PES00010000001000000000000000020170116
201701160060000200000000000000010134000000000000000101348000000000020000000001Consumidor Final              000000000442500000000000000000000000000000000000000000000000000000000000000000000000000000000000000000000000000000000000PES00010000001000000000000000020170116
201701160060000200000000000000010135000000000000000101358000000000020000000001Consumidor Final              000000000030000000000000000000000000000000000000000000000000000000000000000000000000000000000000000000000000000000000000PES00010000001000000000000000020170116
201701160060000200000000000000010136000000000000000101368000000000020000000001Consumidor Final              000000000150000000000000000000000000000000000000000000000000000000000000000000000000000000000000000000000000000000000000PES00010000001000000000000000020170116
201701160060000200000000000000010137000000000000000101378000000000020000000001Consumidor Final              000000000089000000000000000000000000000000000000000000000000000000000000000000000000000000000000000000000000000000000000PES00010000001000000000000000020170116
201701160060000200000000000000010138000000000000000101388000000000020000000001Consumidor Final              000000000090000000000000000000000000000000000000000000000000000000000000000000000000000000000000000000000000000000000000PES00010000001000000000000000020170116
201701160060000200000000000000010139000000000000000101398000000000020000000001Consumidor Final              000000000129000000000000000000000000000000000000000000000000000000000000000000000000000000000000000000000000000000000000PES00010000001000000000000000020170116
201701160060000200000000000000010140000000000000000101408000000000020000000001Consumidor Final              000000000045000000000000000000000000000000000000000000000000000000000000000000000000000000000000000000000000000000000000PES00010000001000000000000000020170116
201701160060000200000000000000010141000000000000000101418000000000020000000001Consumidor Final              000000000045000000000000000000000000000000000000000000000000000000000000000000000000000000000000000000000000000000000000PES00010000001000000000000000020170116
201701160060000200000000000000010142000000000000000101428000000000020000000001Consumidor Final              000000000035000000000000000000000000000000000000000000000000000000000000000000000000000000000000000000000000000000000000PES00010000001000000000000000020170116
201701160060000200000000000000010143000000000000000101438000000000020000000001Consumidor Final              000000000103000000000000000000000000000000000000000000000000000000000000000000000000000000000000000000000000000000000000PES00010000001000000000000000020170116
201701160060000200000000000000010144000000000000000101448000000000020000000001Consumidor Final              000000000089000000000000000000000000000000000000000000000000000000000000000000000000000000000000000000000000000000000000PES00010000001000000000000000020170116
201701160060000200000000000000010145000000000000000101458000000000020000000001Consumidor Final              000000000069000000000000000000000000000000000000000000000000000000000000000000000000000000000000000000000000000000000000PES00010000001000000000000000020170116
201701160060000200000000000000010146000000000000000101468000000000020000000001Consumidor Final              000000000055000000000000000000000000000000000000000000000000000000000000000000000000000000000000000000000000000000000000PES00010000001000000000000000020170116
201701170060000200000000000000010147000000000000000101478000000000020000000001Consumidor Final              000000000045000000000000000000000000000000000000000000000000000000000000000000000000000000000000000000000000000000000000PES00010000001000000000000000020170117
201701170060000200000000000000010148000000000000000101488000000000020000000001Consumidor Final              000000000045000000000000000000000000000000000000000000000000000000000000000000000000000000000000000000000000000000000000PES00010000001000000000000000020170117
201701170060000200000000000000010149000000000000000101498000000000020000000001Consumidor Final              000000000090000000000000000000000000000000000000000000000000000000000000000000000000000000000000000000000000000000000000PES00010000001000000000000000020170117
201701170060000200000000000000010150000000000000000101508000000000020000000001Consumidor Final              000000000115000000000000000000000000000000000000000000000000000000000000000000000000000000000000000000000000000000000000PES00010000001000000000000000020170117
201701170060000200000000000000010151000000000000000101518000000000020000000001Consumidor Final              000000000055000000000000000000000000000000000000000000000000000000000000000000000000000000000000000000000000000000000000PES00010000001000000000000000020170117
201701170060000200000000000000010152000000000000000101528000000000020000000001Consumidor Final              000000000020000000000000000000000000000000000000000000000000000000000000000000000000000000000000000000000000000000000000PES00010000001000000000000000020170117
201701170060000200000000000000010153000000000000000101538000000000020000000001Consumidor Final              000000000045000000000000000000000000000000000000000000000000000000000000000000000000000000000000000000000000000000000000PES00010000001000000000000000020170117
201701170060000200000000000000010154000000000000000101548000000000020000000001Consumidor Final              000000000025000000000000000000000000000000000000000000000000000000000000000000000000000000000000000000000000000000000000PES00010000001000000000000000020170117
201701170060000200000000000000010155000000000000000101558000000000020000000001Consumidor Final              000000000135000000000000000000000000000000000000000000000000000000000000000000000000000000000000000000000000000000000000PES00010000001000000000000000020170117
201701170060000200000000000000010156000000000000000101568000000000020000000001Consumidor Final              000000000089000000000000000000000000000000000000000000000000000000000000000000000000000000000000000000000000000000000000PES00010000001000000000000000020170117
201701170060000200000000000000010157000000000000000101578000000000020000000001Consumidor Final              000000000100000000000000000000000000000000000000000000000000000000000000000000000000000000000000000000000000000000000000PES00010000001000000000000000020170117
201701170060000200000000000000010158000000000000000101588000000000020000000001Consumidor Final              000000000116500000000000000000000000000000000000000000000000000000000000000000000000000000000000000000000000000000000000PES00010000001000000000000000020170117
201701170060000200000000000000010159000000000000000101598000000000020000000001Consumidor Final              000000000164000000000000000000000000000000000000000000000000000000000000000000000000000000000000000000000000000000000000PES00010000001000000000000000020170117
201701170060000200000000000000010160000000000000000101608000000000020000000001Consumidor Final              000000000089000000000000000000000000000000000000000000000000000000000000000000000000000000000000000000000000000000000000PES00010000001000000000000000020170117
201701170060000200000000000000010162000000000000000101628000000000020000000001Consumidor Final              000000000061000000000000000000000000000000000000000000000000000000000000000000000000000000000000000000000000000000000000PES00010000001000000000000000020170117
201701170060000200000000000000010163000000000000000101638000000000020000000001Consumidor Final              000000000025000000000000000000000000000000000000000000000000000000000000000000000000000000000000000000000000000000000000PES00010000001000000000000000020170117
201701170060000200000000000000010164000000000000000101648000000000020000000001Consumidor Final              000000000089000000000000000000000000000000000000000000000000000000000000000000000000000000000000000000000000000000000000PES00010000001000000000000000020170117
201701170060000200000000000000010165000000000000000101658000000000020000000001Consumidor Final              000000000045000000000000000000000000000000000000000000000000000000000000000000000000000000000000000000000000000000000000PES00010000001000000000000000020170117
201701170060000200000000000000010166000000000000000101668000000000020000000001Consumidor Final              000000000303500000000000000000000000000000000000000000000000000000000000000000000000000000000000000000000000000000000000PES00010000001000000000000000020170117
201701170060000200000000000000010167000000000000000101678000000000020000000001Consumidor Final              000000000324000000000000000000000000000000000000000000000000000000000000000000000000000000000000000000000000000000000000PES00010000001000000000000000020170117
201701170060000200000000000000010168000000000000000101688000000000020000000001Consumidor Final              000000000323500000000000000000000000000000000000000000000000000000000000000000000000000000000000000000000000000000000000PES00010000001000000000000000020170117
201701170060000200000000000000010169000000000000000101698000000000020000000001Consumidor Final              000000000129000000000000000000000000000000000000000000000000000000000000000000000000000000000000000000000000000000000000PES00010000001000000000000000020170117
201701170060000200000000000000010170000000000000000101708000000000020000000001Consumidor Final              000000000195000000000000000000000000000000000000000000000000000000000000000000000000000000000000000000000000000000000000PES00010000001000000000000000020170117
201701170060000200000000000000010171000000000000000101718000000000020000000001Consumidor Final              000000000055000000000000000000000000000000000000000000000000000000000000000000000000000000000000000000000000000000000000PES00010000001000000000000000020170117
201701170060000200000000000000010172000000000000000101728000000000020000000001Consumidor Final              000000000089000000000000000000000000000000000000000000000000000000000000000000000000000000000000000000000000000000000000PES00010000001000000000000000020170117
201701170060000200000000000000010173000000000000000101738000000000020000000001Consumidor Final              000000000160000000000000000000000000000000000000000000000000000000000000000000000000000000000000000000000000000000000000PES00010000001000000000000000020170117
201701170060000200000000000000010174000000000000000101748000000000020000000001Consumidor Final              000000000040000000000000000000000000000000000000000000000000000000000000000000000000000000000000000000000000000000000000PES00010000001000000000000000020170117
201701170060000200000000000000010161000000000000000101618000000000030707507183Club Atletico Central Norte   000000000395000000000000000000000000000000000000000000000000000000000000000000000000000000000000000000000000000000000000PES00010000001000000000000000020170117
201701180060000200000000000000010175000000000000000101758000000000020000000001Consumidor Final              000000000075000000000000000000000000000000000000000000000000000000000000000000000000000000000000000000000000000000000000PES00010000001000000000000000020170118
201701180060000200000000000000010176000000000000000101768000000000020000000001Consumidor Final              000000000089000000000000000000000000000000000000000000000000000000000000000000000000000000000000000000000000000000000000PES00010000001000000000000000020170118
201701180060000200000000000000010177000000000000000101778000000000020000000001Consumidor Final              000000000146500000000000000000000000000000000000000000000000000000000000000000000000000000000000000000000000000000000000PES00010000001000000000000000020170118
201701180060000200000000000000010178000000000000000101788000000000020000000001Consumidor Final              000000000178000000000000000000000000000000000000000000000000000000000000000000000000000000000000000000000000000000000000PES00010000001000000000000000020170118
201701180060000200000000000000010179000000000000000101798000000000020000000001Consumidor Final              000000000073000000000000000000000000000000000000000000000000000000000000000000000000000000000000000000000000000000000000PES00010000001000000000000000020170118
201701180060000200000000000000010180000000000000000101808000000000020000000001Consumidor Final              000000000035000000000000000000000000000000000000000000000000000000000000000000000000000000000000000000000000000000000000PES00010000001000000000000000020170118
201701180060000200000000000000010181000000000000000101818000000000020000000001Consumidor Final              000000000120000000000000000000000000000000000000000000000000000000000000000000000000000000000000000000000000000000000000PES00010000001000000000000000020170118
201701180060000200000000000000010182000000000000000101828000000000020000000001Consumidor Final              000000000119000000000000000000000000000000000000000000000000000000000000000000000000000000000000000000000000000000000000PES00010000001000000000000000020170118
201701180060000200000000000000010183000000000000000101838000000000020000000001Consumidor Final              000000000129000000000000000000000000000000000000000000000000000000000000000000000000000000000000000000000000000000000000PES00010000001000000000000000020170118
201701180060000200000000000000010184000000000000000101848000000000020000000001Consumidor Final              000000000116500000000000000000000000000000000000000000000000000000000000000000000000000000000000000000000000000000000000PES00010000001000000000000000020170118
201701180060000200000000000000010185000000000000000101858000000000020000000001Consumidor Final              000000000155000000000000000000000000000000000000000000000000000000000000000000000000000000000000000000000000000000000000PES00010000001000000000000000020170118
201701180060000200000000000000010186000000000000000101868000000000020000000001Consumidor Final              000000000059000000000000000000000000000000000000000000000000000000000000000000000000000000000000000000000000000000000000PES00010000001000000000000000020170118
201701180060000200000000000000010187000000000000000101878000000000020000000001Consumidor Final              000000000174000000000000000000000000000000000000000000000000000000000000000000000000000000000000000000000000000000000000PES00010000001000000000000000020170118
201701180060000200000000000000010188000000000000000101888000000000020000000001Consumidor Final              000000000040000000000000000000000000000000000000000000000000000000000000000000000000000000000000000000000000000000000000PES00010000001000000000000000020170118
201701180060000200000000000000010189000000000000000101898000000000020000000001Consumidor Final              000000000105000000000000000000000000000000000000000000000000000000000000000000000000000000000000000000000000000000000000PES00010000001000000000000000020170118
201701180060000200000000000000010190000000000000000101908000000000020000000001Consumidor Final              000000000073000000000000000000000000000000000000000000000000000000000000000000000000000000000000000000000000000000000000PES00010000001000000000000000020170118
201701180060000200000000000000010191000000000000000101918000000000020000000001Consumidor Final              000000000040000000000000000000000000000000000000000000000000000000000000000000000000000000000000000000000000000000000000PES00010000001000000000000000020170118
201701180060000200000000000000010192000000000000000101928000000000020000000001Consumidor Final              000000000371500000000000000000000000000000000000000000000000000000000000000000000000000000000000000000000000000000000000PES00010000001000000000000000020170118
201701180060000200000000000000010193000000000000000101938000000000020000000001Consumidor Final              000000000030000000000000000000000000000000000000000000000000000000000000000000000000000000000000000000000000000000000000PES00010000001000000000000000020170118
201701180060000200000000000000010194000000000000000101948000000000020000000001Consumidor Final              000000000188000000000000000000000000000000000000000000000000000000000000000000000000000000000000000000000000000000000000PES00010000001000000000000000020170118
201701180060000200000000000000010195000000000000000101958000000000020000000001Consumidor Final              000000000035000000000000000000000000000000000000000000000000000000000000000000000000000000000000000000000000000000000000PES00010000001000000000000000020170118
201701180060000200000000000000010196000000000000000101968000000000020000000001Consumidor Final              000000000039000000000000000000000000000000000000000000000000000000000000000000000000000000000000000000000000000000000000PES00010000001000000000000000020170118
201701180060000200000000000000010197000000000000000101978000000000020000000001Consumidor Final              000000000069000000000000000000000000000000000000000000000000000000000000000000000000000000000000000000000000000000000000PES00010000001000000000000000020170118
201701180060000200000000000000010198000000000000000101988000000000020000000001Consumidor Final              000000000124500000000000000000000000000000000000000000000000000000000000000000000000000000000000000000000000000000000000PES00010000001000000000000000020170118
201701180060000200000000000000010199000000000000000101998000000000020000000001Consumidor Final              000000000099000000000000000000000000000000000000000000000000000000000000000000000000000000000000000000000000000000000000PES00010000001000000000000000020170118
201701190060000200000000000000010200000000000000000102008000000000020000000001Consumidor Final              000000000042000000000000000000000000000000000000000000000000000000000000000000000000000000000000000000000000000000000000PES00010000001000000000000000020170119
201701190060000200000000000000010201000000000000000102018000000000020000000001Consumidor Final              000000000047500000000000000000000000000000000000000000000000000000000000000000000000000000000000000000000000000000000000PES00010000001000000000000000020170119
201701190060000200000000000000010202000000000000000102028000000000020000000001Consumidor Final              000000000039000000000000000000000000000000000000000000000000000000000000000000000000000000000000000000000000000000000000PES00010000001000000000000000020170119
201701190060000200000000000000010203000000000000000102038000000000020000000001Consumidor Final              000000000045000000000000000000000000000000000000000000000000000000000000000000000000000000000000000000000000000000000000PES00010000001000000000000000020170119
201701190060000200000000000000010204000000000000000102048000000000020000000001Consumidor Final              000000000055000000000000000000000000000000000000000000000000000000000000000000000000000000000000000000000000000000000000PES00010000001000000000000000020170119
201701190060000200000000000000010205000000000000000102058000000000020000000001Consumidor Final              000000000059000000000000000000000000000000000000000000000000000000000000000000000000000000000000000000000000000000000000PES00010000001000000000000000020170119
201701190060000200000000000000010206000000000000000102068000000000020000000001Consumidor Final              000000000400000000000000000000000000000000000000000000000000000000000000000000000000000000000000000000000000000000000000PES00010000001000000000000000020170119
201701190060000200000000000000010207000000000000000102078000000000020000000001Consumidor Final              000000000099000000000000000000000000000000000000000000000000000000000000000000000000000000000000000000000000000000000000PES00010000001000000000000000020170119
201701190060000200000000000000010208000000000000000102088000000000020000000001Consumidor Final              000000000154000000000000000000000000000000000000000000000000000000000000000000000000000000000000000000000000000000000000PES00010000001000000000000000020170119
201701190060000200000000000000010209000000000000000102098000000000020000000001Consumidor Final              000000000048000000000000000000000000000000000000000000000000000000000000000000000000000000000000000000000000000000000000PES00010000001000000000000000020170119
201701190060000200000000000000010210000000000000000102108000000000020000000001Consumidor Final              000000000029000000000000000000000000000000000000000000000000000000000000000000000000000000000000000000000000000000000000PES00010000001000000000000000020170119
201701190060000200000000000000010211000000000000000102118000000000020000000001Consumidor Final              000000000075000000000000000000000000000000000000000000000000000000000000000000000000000000000000000000000000000000000000PES00010000001000000000000000020170119
201701190060000200000000000000010212000000000000000102128000000000020000000001Consumidor Final              000000000045000000000000000000000000000000000000000000000000000000000000000000000000000000000000000000000000000000000000PES00010000001000000000000000020170119
201701190060000200000000000000010213000000000000000102138000000000020000000001Consumidor Final              000000000129000000000000000000000000000000000000000000000000000000000000000000000000000000000000000000000000000000000000PES00010000001000000000000000020170119
201701190060000200000000000000010214000000000000000102148000000000020000000001Consumidor Final              000000000130000000000000000000000000000000000000000000000000000000000000000000000000000000000000000000000000000000000000PES00010000001000000000000000020170119
201701190060000200000000000000010215000000000000000102158000000000020000000001Consumidor Final              000000000059000000000000000000000000000000000000000000000000000000000000000000000000000000000000000000000000000000000000PES00010000001000000000000000020170119
201701190060000200000000000000010216000000000000000102168000000000020000000001Consumidor Final              000000000212500000000000000000000000000000000000000000000000000000000000000000000000000000000000000000000000000000000000PES00010000001000000000000000020170119
201701190060000200000000000000010217000000000000000102178000000000020000000001Consumidor Final              000000000120000000000000000000000000000000000000000000000000000000000000000000000000000000000000000000000000000000000000PES00010000001000000000000000020170119
201701190060000200000000000000010218000000000000000102188000000000020000000001Consumidor Final              000000000081000000000000000000000000000000000000000000000000000000000000000000000000000000000000000000000000000000000000PES00010000001000000000000000020170119
201701190060000200000000000000010219000000000000000102198000000000020000000001Consumidor Final              000000000030000000000000000000000000000000000000000000000000000000000000000000000000000000000000000000000000000000000000PES00010000001000000000000000020170119
