201702010060000200000000000000010493000000000000000104938000000000020000000001Consumidor Final              000000000172000000000000000000000000000000000000000000000000000000000000000000000000000000000000000000000000000000000000PES00010000001000000000000000020170201
201702010060000200000000000000010494000000000000000104948000000000020000000001Consumidor Final              000000000078000000000000000000000000000000000000000000000000000000000000000000000000000000000000000000000000000000000000PES00010000001000000000000000020170201
201702010060000200000000000000010495000000000000000104958000000000020000000001Consumidor Final              000000000275000000000000000000000000000000000000000000000000000000000000000000000000000000000000000000000000000000000000PES00010000001000000000000000020170201
201702010060000200000000000000010496000000000000000104968000000000020000000001Consumidor Final              000000000049000000000000000000000000000000000000000000000000000000000000000000000000000000000000000000000000000000000000PES00010000001000000000000000020170201
201702010060000200000000000000010497000000000000000104978000000000020000000001Consumidor Final              000000000084500000000000000000000000000000000000000000000000000000000000000000000000000000000000000000000000000000000000PES00010000001000000000000000020170201
201702010060000200000000000000010498000000000000000104988000000000020000000001Consumidor Final              000000000022000000000000000000000000000000000000000000000000000000000000000000000000000000000000000000000000000000000000PES00010000001000000000000000020170201
201702010060000200000000000000010499000000000000000104998000000000020000000001Consumidor Final              000000000144000000000000000000000000000000000000000000000000000000000000000000000000000000000000000000000000000000000000PES00010000001000000000000000020170201
201702010060000200000000000000010500000000000000000105008000000000020000000001Consumidor Final              000000000119000000000000000000000000000000000000000000000000000000000000000000000000000000000000000000000000000000000000PES00010000001000000000000000020170201
201702010060000200000000000000010501000000000000000105018000000000020000000001Consumidor Final              000000000160000000000000000000000000000000000000000000000000000000000000000000000000000000000000000000000000000000000000PES00010000001000000000000000020170201
201702010060000200000000000000010502000000000000000105028000000000020000000001Consumidor Final              000000000045000000000000000000000000000000000000000000000000000000000000000000000000000000000000000000000000000000000000PES00010000001000000000000000020170201
201702010060000200000000000000010503000000000000000105038000000000020000000001Consumidor Final              000000000130000000000000000000000000000000000000000000000000000000000000000000000000000000000000000000000000000000000000PES00010000001000000000000000020170201
201702010060000200000000000000010504000000000000000105048000000000020000000001Consumidor Final              000000000136500000000000000000000000000000000000000000000000000000000000000000000000000000000000000000000000000000000000PES00010000001000000000000000020170201
201702010060000200000000000000010505000000000000000105058000000000020000000001Consumidor Final              000000000126500000000000000000000000000000000000000000000000000000000000000000000000000000000000000000000000000000000000PES00010000001000000000000000020170201
201702010060000200000000000000010506000000000000000105068000000000020000000001Consumidor Final              000000000040000000000000000000000000000000000000000000000000000000000000000000000000000000000000000000000000000000000000PES00010000001000000000000000020170201
201702010060000200000000000000010507000000000000000105078000000000020000000001Consumidor Final              000000000050000000000000000000000000000000000000000000000000000000000000000000000000000000000000000000000000000000000000PES00010000001000000000000000020170201
201702010060000200000000000000010508000000000000000105088000000000020000000001Consumidor Final              000000000045000000000000000000000000000000000000000000000000000000000000000000000000000000000000000000000000000000000000PES00010000001000000000000000020170201
201702010060000200000000000000010509000000000000000105098000000000020000000001Consumidor Final              000000000020000000000000000000000000000000000000000000000000000000000000000000000000000000000000000000000000000000000000PES00010000001000000000000000020170201
201702010060000200000000000000010510000000000000000105108000000000020000000001Consumidor Final              000000000220000000000000000000000000000000000000000000000000000000000000000000000000000000000000000000000000000000000000PES00010000001000000000000000020170201
201702010060000200000000000000010511000000000000000105118000000000020000000001Consumidor Final              000000000047500000000000000000000000000000000000000000000000000000000000000000000000000000000000000000000000000000000000PES00010000001000000000000000020170201
201702010060000200000000000000010512000000000000000105128000000000020000000001Consumidor Final              000000000185000000000000000000000000000000000000000000000000000000000000000000000000000000000000000000000000000000000000PES00010000001000000000000000020170201
201702010060000200000000000000010513000000000000000105138000000000020000000001Consumidor Final              000000000010000000000000000000000000000000000000000000000000000000000000000000000000000000000000000000000000000000000000PES00010000001000000000000000020170201
201702010060000200000000000000010514000000000000000105148000000000020000000001Consumidor Final              000000000035000000000000000000000000000000000000000000000000000000000000000000000000000000000000000000000000000000000000PES00010000001000000000000000020170201
201702010060000200000000000000010515000000000000000105158000000000020000000001Consumidor Final              000000000035000000000000000000000000000000000000000000000000000000000000000000000000000000000000000000000000000000000000PES00010000001000000000000000020170201
201702010060000200000000000000010516000000000000000105168000000000020000000001Consumidor Final              000000000083000000000000000000000000000000000000000000000000000000000000000000000000000000000000000000000000000000000000PES00010000001000000000000000020170201
201702010060000200000000000000010517000000000000000105178000000000020000000001Consumidor Final              000000000103000000000000000000000000000000000000000000000000000000000000000000000000000000000000000000000000000000000000PES00010000001000000000000000020170201
201702010060000200000000000000010518000000000000000105188000000000020000000001Consumidor Final              000000000047500000000000000000000000000000000000000000000000000000000000000000000000000000000000000000000000000000000000PES00010000001000000000000000020170201
201702010060000200000000000000010519000000000000000105198000000000020000000001Consumidor Final              000000000077500000000000000000000000000000000000000000000000000000000000000000000000000000000000000000000000000000000000PES00010000001000000000000000020170201
201702010060000200000000000000010520000000000000000105208000000000020000000001Consumidor Final              000000000020000000000000000000000000000000000000000000000000000000000000000000000000000000000000000000000000000000000000PES00010000001000000000000000020170201
201702010060000200000000000000010521000000000000000105218000000000020000000001Consumidor Final              000000000025000000000000000000000000000000000000000000000000000000000000000000000000000000000000000000000000000000000000PES00010000001000000000000000020170201
201702010060000200000000000000010522000000000000000105228000000000020000000001Consumidor Final              000000000089000000000000000000000000000000000000000000000000000000000000000000000000000000000000000000000000000000000000PES00010000001000000000000000020170201
201702010060000200000000000000010523000000000000000105238000000000020000000001Consumidor Final              000000000030000000000000000000000000000000000000000000000000000000000000000000000000000000000000000000000000000000000000PES00010000001000000000000000020170201
201702010060000200000000000000010524000000000000000105248000000000020000000001Consumidor Final              000000000075000000000000000000000000000000000000000000000000000000000000000000000000000000000000000000000000000000000000PES00010000001000000000000000020170201
201702010060000200000000000000010525000000000000000105258000000000020000000001Consumidor Final              000000000128000000000000000000000000000000000000000000000000000000000000000000000000000000000000000000000000000000000000PES00010000001000000000000000020170201
201702010060000200000000000000010526000000000000000105268000000000020000000001Consumidor Final              000000000113000000000000000000000000000000000000000000000000000000000000000000000000000000000000000000000000000000000000PES00010000001000000000000000020170201
201702010060000200000000000000010527000000000000000105278000000000020000000001Consumidor Final              000000000035000000000000000000000000000000000000000000000000000000000000000000000000000000000000000000000000000000000000PES00010000001000000000000000020170201
201702010060000200000000000000010528000000000000000105288000000000020000000001Consumidor Final              000000000115000000000000000000000000000000000000000000000000000000000000000000000000000000000000000000000000000000000000PES00010000001000000000000000020170201
201702010060000200000000000000010529000000000000000105298000000000020000000001Consumidor Final              000000000080000000000000000000000000000000000000000000000000000000000000000000000000000000000000000000000000000000000000PES00010000001000000000000000020170201
201702020060000200000000000000010530000000000000000105308000000000020000000001Consumidor Final              000000000039000000000000000000000000000000000000000000000000000000000000000000000000000000000000000000000000000000000000PES00010000001000000000000000020170202
201702020060000200000000000000010531000000000000000105318000000000020000000001Consumidor Final              000000000024000000000000000000000000000000000000000000000000000000000000000000000000000000000000000000000000000000000000PES00010000001000000000000000020170202
201702020060000200000000000000010532000000000000000105328000000000020000000001Consumidor Final              000000000089000000000000000000000000000000000000000000000000000000000000000000000000000000000000000000000000000000000000PES00010000001000000000000000020170202
201702020060000200000000000000010533000000000000000105338000000000020000000001Consumidor Final              000000000050000000000000000000000000000000000000000000000000000000000000000000000000000000000000000000000000000000000000PES00010000001000000000000000020170202
201702020060000200000000000000010534000000000000000105348000000000020000000001Consumidor Final              000000000047500000000000000000000000000000000000000000000000000000000000000000000000000000000000000000000000000000000000PES00010000001000000000000000020170202
201702020060000200000000000000010535000000000000000105358000000000020000000001Consumidor Final              000000000130000000000000000000000000000000000000000000000000000000000000000000000000000000000000000000000000000000000000PES00010000001000000000000000020170202
201702020060000200000000000000010536000000000000000105368000000000020000000001Consumidor Final              000000000140000000000000000000000000000000000000000000000000000000000000000000000000000000000000000000000000000000000000PES00010000001000000000000000020170202
201702020060000200000000000000010537000000000000000105378000000000020000000001Consumidor Final              000000000075000000000000000000000000000000000000000000000000000000000000000000000000000000000000000000000000000000000000PES00010000001000000000000000020170202
201702020060000200000000000000010538000000000000000105388000000000020000000001Consumidor Final              000000000228000000000000000000000000000000000000000000000000000000000000000000000000000000000000000000000000000000000000PES00010000001000000000000000020170202
201702020060000200000000000000010539000000000000000105398000000000020000000001Consumidor Final              000000000035000000000000000000000000000000000000000000000000000000000000000000000000000000000000000000000000000000000000PES00010000001000000000000000020170202
201702020060000200000000000000010540000000000000000105408000000000020000000001Consumidor Final              000000000048000000000000000000000000000000000000000000000000000000000000000000000000000000000000000000000000000000000000PES00010000001000000000000000020170202
201702020060000200000000000000010541000000000000000105418000000000020000000001Consumidor Final              000000000020000000000000000000000000000000000000000000000000000000000000000000000000000000000000000000000000000000000000PES00010000001000000000000000020170202
201702020060000200000000000000010542000000000000000105428000000000020000000001Consumidor Final              000000000115000000000000000000000000000000000000000000000000000000000000000000000000000000000000000000000000000000000000PES00010000001000000000000000020170202
201702020060000200000000000000010543000000000000000105438000000000020000000001Consumidor Final              000000000089000000000000000000000000000000000000000000000000000000000000000000000000000000000000000000000000000000000000PES00010000001000000000000000020170202
201702020060000200000000000000010544000000000000000105448000000000020000000001Consumidor Final              000000000075000000000000000000000000000000000000000000000000000000000000000000000000000000000000000000000000000000000000PES00010000001000000000000000020170202
201702020060000200000000000000010545000000000000000105458000000000020000000001Consumidor Final              000000000040000000000000000000000000000000000000000000000000000000000000000000000000000000000000000000000000000000000000PES00010000001000000000000000020170202
201702020060000200000000000000010546000000000000000105468000000000020000000001Consumidor Final              000000000021000000000000000000000000000000000000000000000000000000000000000000000000000000000000000000000000000000000000PES00010000001000000000000000020170202
201702020060000200000000000000010547000000000000000105478000000000020000000001Consumidor Final              000000000194000000000000000000000000000000000000000000000000000000000000000000000000000000000000000000000000000000000000PES00010000001000000000000000020170202
201702020060000200000000000000010548000000000000000105488000000000020000000001Consumidor Final              000000000095000000000000000000000000000000000000000000000000000000000000000000000000000000000000000000000000000000000000PES00010000001000000000000000020170202
201702020060000200000000000000010549000000000000000105498000000000020000000001Consumidor Final              000000000047500000000000000000000000000000000000000000000000000000000000000000000000000000000000000000000000000000000000PES00010000001000000000000000020170202
201702020060000200000000000000010550000000000000000105508000000000020000000001Consumidor Final              000000000099000000000000000000000000000000000000000000000000000000000000000000000000000000000000000000000000000000000000PES00010000001000000000000000020170202
201702030060000200000000000000010551000000000000000105518000000000020000000001Consumidor Final              000000000089000000000000000000000000000000000000000000000000000000000000000000000000000000000000000000000000000000000000PES00010000001000000000000000020170203
201702030060000200000000000000010552000000000000000105528000000000020000000001Consumidor Final              000000000079000000000000000000000000000000000000000000000000000000000000000000000000000000000000000000000000000000000000PES00010000001000000000000000020170203
201702030060000200000000000000010553000000000000000105538000000000020000000001Consumidor Final              000000000275000000000000000000000000000000000000000000000000000000000000000000000000000000000000000000000000000000000000PES00010000001000000000000000020170203
201702030060000200000000000000010554000000000000000105548000000000020000000001Consumidor Final              000000000012000000000000000000000000000000000000000000000000000000000000000000000000000000000000000000000000000000000000PES00010000001000000000000000020170203
201702030060000200000000000000010555000000000000000105558000000000020000000001Consumidor Final              000000000020000000000000000000000000000000000000000000000000000000000000000000000000000000000000000000000000000000000000PES00010000001000000000000000020170203
201702030060000200000000000000010556000000000000000105568000000000020000000001Consumidor Final              000000000082000000000000000000000000000000000000000000000000000000000000000000000000000000000000000000000000000000000000PES00010000001000000000000000020170203
201702030060000200000000000000010557000000000000000105578000000000020000000001Consumidor Final              000000000140000000000000000000000000000000000000000000000000000000000000000000000000000000000000000000000000000000000000PES00010000001000000000000000020170203
201702030060000200000000000000010558000000000000000105588000000000020000000001Consumidor Final              000000000025000000000000000000000000000000000000000000000000000000000000000000000000000000000000000000000000000000000000PES00010000001000000000000000020170203
201702030060000200000000000000010559000000000000000105598000000000020000000001Consumidor Final              000000000105000000000000000000000000000000000000000000000000000000000000000000000000000000000000000000000000000000000000PES00010000001000000000000000020170203
201702030060000200000000000000010560000000000000000105608000000000020000000001Consumidor Final              000000000073000000000000000000000000000000000000000000000000000000000000000000000000000000000000000000000000000000000000PES00010000001000000000000000020170203
201702030060000200000000000000010561000000000000000105618000000000020000000001Consumidor Final              000000000065000000000000000000000000000000000000000000000000000000000000000000000000000000000000000000000000000000000000PES00010000001000000000000000020170203
201702030060000200000000000000010562000000000000000105628000000000020000000001Consumidor Final              000000000096500000000000000000000000000000000000000000000000000000000000000000000000000000000000000000000000000000000000PES00010000001000000000000000020170203
201702030060000200000000000000010563000000000000000105638000000000020000000001Consumidor Final              000000000139000000000000000000000000000000000000000000000000000000000000000000000000000000000000000000000000000000000000PES00010000001000000000000000020170203
201702030060000200000000000000010564000000000000000105649600000000020000000001Consumidor Final              000000000035000000000000000000000000000000000000000000000000000000000000000000000000000000000000000000000000000000000000PES00010000001000000000000000020170203
201702030060000200000000000000010565000000000000000105658000000000020000000001Consumidor Final              000000000329500000000000000000000000000000000000000000000000000000000000000000000000000000000000000000000000000000000000PES00010000001000000000000000020170203
201702030060000200000000000000010566000000000000000105668000000000020000000001Consumidor Final              000000000375000000000000000000000000000000000000000000000000000000000000000000000000000000000000000000000000000000000000PES00010000001000000000000000020170203
201702030060000200000000000000010567000000000000000105678000000000020000000001Consumidor Final              000000000310000000000000000000000000000000000000000000000000000000000000000000000000000000000000000000000000000000000000PES00010000001000000000000000020170203
201702030060000200000000000000010568000000000000000105688000000000020000000001Consumidor Final              000000000365000000000000000000000000000000000000000000000000000000000000000000000000000000000000000000000000000000000000PES00010000001000000000000000020170203
201702030060000200000000000000010569000000000000000105698000000000020000000001Consumidor Final              000000000048000000000000000000000000000000000000000000000000000000000000000000000000000000000000000000000000000000000000PES00010000001000000000000000020170203
201702030060000200000000000000010570000000000000000105708000000000020000000001Consumidor Final              000000000097500000000000000000000000000000000000000000000000000000000000000000000000000000000000000000000000000000000000PES00010000001000000000000000020170203
201702030060000200000000000000010571000000000000000105718000000000020000000001Consumidor Final              000000000040000000000000000000000000000000000000000000000000000000000000000000000000000000000000000000000000000000000000PES00010000001000000000000000020170203
201702030060000200000000000000010572000000000000000105728000000000020000000001Consumidor Final              000000000195000000000000000000000000000000000000000000000000000000000000000000000000000000000000000000000000000000000000PES00010000001000000000000000020170203
201702030060000200000000000000010573000000000000000105738000000000020000000001Consumidor Final              000000000009000000000000000000000000000000000000000000000000000000000000000000000000000000000000000000000000000000000000PES00010000001000000000000000020170203
201702030060000200000000000000010574000000000000000105748000000000020000000001Consumidor Final              000000000055000000000000000000000000000000000000000000000000000000000000000000000000000000000000000000000000000000000000PES00010000001000000000000000020170203
201702030060000200000000000000010575000000000000000105758000000000020000000001Consumidor Final              000000000275000000000000000000000000000000000000000000000000000000000000000000000000000000000000000000000000000000000000PES00010000001000000000000000020170203
201702030060000200000000000000010576000000000000000105768000000000020000000001Consumidor Final              000000000098000000000000000000000000000000000000000000000000000000000000000000000000000000000000000000000000000000000000PES00010000001000000000000000020170203
201702030060000200000000000000010577000000000000000105778000000000020000000001Consumidor Final              000000000069000000000000000000000000000000000000000000000000000000000000000000000000000000000000000000000000000000000000PES00010000001000000000000000020170203
201702040060000200000000000000010578000000000000000105788000000000020000000001Consumidor Final              000000000089000000000000000000000000000000000000000000000000000000000000000000000000000000000000000000000000000000000000PES00010000001000000000000000020170204
201702040060000200000000000000010579000000000000000105798000000000020000000001Consumidor Final              000000000059000000000000000000000000000000000000000000000000000000000000000000000000000000000000000000000000000000000000PES00010000001000000000000000020170204
201702040060000200000000000000010580000000000000000105808000000000020000000001Consumidor Final              000000000090000000000000000000000000000000000000000000000000000000000000000000000000000000000000000000000000000000000000PES00010000001000000000000000020170204
201702040060000200000000000000010581000000000000000105818000000000020000000001Consumidor Final              000000000025000000000000000000000000000000000000000000000000000000000000000000000000000000000000000000000000000000000000PES00010000001000000000000000020170204
201702040060000200000000000000010582000000000000000105828000000000020000000001Consumidor Final              000000000099000000000000000000000000000000000000000000000000000000000000000000000000000000000000000000000000000000000000PES00010000001000000000000000020170204
201702060060000200000000000000010583000000000000000105838000000000020000000001Consumidor Final              000000000124000000000000000000000000000000000000000000000000000000000000000000000000000000000000000000000000000000000000PES00010000001000000000000000020170206
201702060060000200000000000000010584000000000000000105848000000000020000000001Consumidor Final              000000000125000000000000000000000000000000000000000000000000000000000000000000000000000000000000000000000000000000000000PES00010000001000000000000000020170206
201702060060000200000000000000010585000000000000000105858000000000020000000001Consumidor Final              000000000124000000000000000000000000000000000000000000000000000000000000000000000000000000000000000000000000000000000000PES00010000001000000000000000020170206
201702060060000200000000000000010586000000000000000105868000000000020000000001Consumidor Final              000000000135000000000000000000000000000000000000000000000000000000000000000000000000000000000000000000000000000000000000PES00010000001000000000000000020170206
201702060060000200000000000000010587000000000000000105878000000000020000000001Consumidor Final              000000000040000000000000000000000000000000000000000000000000000000000000000000000000000000000000000000000000000000000000PES00010000001000000000000000020170206
201702060060000200000000000000010588000000000000000105888000000000020000000001Consumidor Final              000000000072500000000000000000000000000000000000000000000000000000000000000000000000000000000000000000000000000000000000PES00010000001000000000000000020170206
201702060060000200000000000000010589000000000000000105898000000000020000000001Consumidor Final              000000000160000000000000000000000000000000000000000000000000000000000000000000000000000000000000000000000000000000000000PES00010000001000000000000000020170206
201702060060000200000000000000010590000000000000000105908000000000020000000001Consumidor Final              000000000035000000000000000000000000000000000000000000000000000000000000000000000000000000000000000000000000000000000000PES00010000001000000000000000020170206
201702060060000200000000000000010591000000000000000105918000000000020000000001Consumidor Final              000000000129000000000000000000000000000000000000000000000000000000000000000000000000000000000000000000000000000000000000PES00010000001000000000000000020170206
201702060060000200000000000000010592000000000000000105928000000000020000000001Consumidor Final              000000000160000000000000000000000000000000000000000000000000000000000000000000000000000000000000000000000000000000000000PES00010000001000000000000000020170206
201702060060000200000000000000010593000000000000000105938000000000020000000001Consumidor Final              000000000089000000000000000000000000000000000000000000000000000000000000000000000000000000000000000000000000000000000000PES00010000001000000000000000020170206
201702060060000200000000000000010594000000000000000105948000000000020000000001Consumidor Final              000000000145000000000000000000000000000000000000000000000000000000000000000000000000000000000000000000000000000000000000PES00010000001000000000000000020170206
201702060060000200000000000000010595000000000000000105958000000000020000000001Consumidor Final              000000000089000000000000000000000000000000000000000000000000000000000000000000000000000000000000000000000000000000000000PES00010000001000000000000000020170206
201702060060000200000000000000010596000000000000000105968000000000020000000001Consumidor Final              000000000120000000000000000000000000000000000000000000000000000000000000000000000000000000000000000000000000000000000000PES00010000001000000000000000020170206
201702060060000200000000000000010597000000000000000105978000000000020000000001Consumidor Final              000000000064000000000000000000000000000000000000000000000000000000000000000000000000000000000000000000000000000000000000PES00010000001000000000000000020170206
201702060060000200000000000000010598000000000000000105988000000000020000000001Consumidor Final              000000000050000000000000000000000000000000000000000000000000000000000000000000000000000000000000000000000000000000000000PES00010000001000000000000000020170206
201702060060000200000000000000010599000000000000000105998000000000020000000001Consumidor Final              000000000089000000000000000000000000000000000000000000000000000000000000000000000000000000000000000000000000000000000000PES00010000001000000000000000020170206
201702060060000200000000000000010600000000000000000106008000000000020000000001Consumidor Final              000000000099000000000000000000000000000000000000000000000000000000000000000000000000000000000000000000000000000000000000PES00010000001000000000000000020170206
201702060060000200000000000000010601000000000000000106018000000000020000000001Consumidor Final              000000000115000000000000000000000000000000000000000000000000000000000000000000000000000000000000000000000000000000000000PES00010000001000000000000000020170206
201702060060000200000000000000010602000000000000000106028000000000020000000001Consumidor Final              000000000062500000000000000000000000000000000000000000000000000000000000000000000000000000000000000000000000000000000000PES00010000001000000000000000020170206
201702060060000200000000000000010603000000000000000106038000000000020000000001Consumidor Final              000000000075000000000000000000000000000000000000000000000000000000000000000000000000000000000000000000000000000000000000PES00010000001000000000000000020170206
201702060060000200000000000000010604000000000000000106048000000000020000000001Consumidor Final              000000000029000000000000000000000000000000000000000000000000000000000000000000000000000000000000000000000000000000000000PES00010000001000000000000000020170206
201702060060000200000000000000010605000000000000000106058000000000020000000001Consumidor Final              000000000130000000000000000000000000000000000000000000000000000000000000000000000000000000000000000000000000000000000000PES00010000001000000000000000020170206
201702060060000200000000000000010606000000000000000106068000000000020000000001Consumidor Final              000000000089000000000000000000000000000000000000000000000000000000000000000000000000000000000000000000000000000000000000PES00010000001000000000000000020170206
201702060060000200000000000000010607000000000000000106078000000000020000000001Consumidor Final              000000000079000000000000000000000000000000000000000000000000000000000000000000000000000000000000000000000000000000000000PES00010000001000000000000000020170206
201702060060000200000000000000010608000000000000000106088000000000020000000001Consumidor Final              000000000062000000000000000000000000000000000000000000000000000000000000000000000000000000000000000000000000000000000000PES00010000001000000000000000020170206
201702060060000200000000000000010609000000000000000106098000000000020000000001Consumidor Final              000000000030000000000000000000000000000000000000000000000000000000000000000000000000000000000000000000000000000000000000PES00010000001000000000000000020170206
201702060060000200000000000000010610000000000000000106108000000000020000000001Consumidor Final              000000000150000000000000000000000000000000000000000000000000000000000000000000000000000000000000000000000000000000000000PES00010000001000000000000000020170206
201702060060000200000000000000010611000000000000000106118000000000020000000001Consumidor Final              000000000100000000000000000000000000000000000000000000000000000000000000000000000000000000000000000000000000000000000000PES00010000001000000000000000020170206
201702060010000200000000000000000072000000000000000000728000000000030709676861Hosp Privado Tres Cerritos    000000000089000000000000000000000000000000000000000000000000000000000000000000000000000000000000000000000000000000000000PES00010000001000000000000000020170206
201702070060000200000000000000010612000000000000000106128000000000020000000001Consumidor Final              000000000200000000000000000000000000000000000000000000000000000000000000000000000000000000000000000000000000000000000000PES00010000001000000000000000020170207
201702070060000200000000000000010613000000000000000106138000000000020000000001Consumidor Final              000000000086500000000000000000000000000000000000000000000000000000000000000000000000000000000000000000000000000000000000PES00010000001000000000000000020170207
201702070060000200000000000000010614000000000000000106148000000000020000000001Consumidor Final              000000000099000000000000000000000000000000000000000000000000000000000000000000000000000000000000000000000000000000000000PES00010000001000000000000000020170207
201702070060000200000000000000010615000000000000000106158000000000020000000001Consumidor Final              000000000070000000000000000000000000000000000000000000000000000000000000000000000000000000000000000000000000000000000000PES00010000001000000000000000020170207
201702070060000200000000000000010616000000000000000106168000000000020000000001Consumidor Final              000000000164500000000000000000000000000000000000000000000000000000000000000000000000000000000000000000000000000000000000PES00010000001000000000000000020170207
201702070060000200000000000000010617000000000000000106178000000000020000000001Consumidor Final              000000000500000000000000000000000000000000000000000000000000000000000000000000000000000000000000000000000000000000000000PES00010000001000000000000000020170207
201702070060000200000000000000010618000000000000000106188000000000020000000001Consumidor Final              000000000031000000000000000000000000000000000000000000000000000000000000000000000000000000000000000000000000000000000000PES00010000001000000000000000020170207
201702070060000200000000000000010619000000000000000106198000000000020000000001Consumidor Final              000000000070000000000000000000000000000000000000000000000000000000000000000000000000000000000000000000000000000000000000PES00010000001000000000000000020170207
201702070060000200000000000000010620000000000000000106208000000000020000000001Consumidor Final              000000000019000000000000000000000000000000000000000000000000000000000000000000000000000000000000000000000000000000000000PES00010000001000000000000000020170207
201702070060000200000000000000010621000000000000000106218000000000020000000001Consumidor Final              000000000049000000000000000000000000000000000000000000000000000000000000000000000000000000000000000000000000000000000000PES00010000001000000000000000020170207
201702070060000200000000000000010622000000000000000106228000000000020000000001Consumidor Final              000000000039000000000000000000000000000000000000000000000000000000000000000000000000000000000000000000000000000000000000PES00010000001000000000000000020170207
201702070060000200000000000000010623000000000000000106238000000000020000000001Consumidor Final              000000000039000000000000000000000000000000000000000000000000000000000000000000000000000000000000000000000000000000000000PES00010000001000000000000000020170207
201702070060000200000000000000010624000000000000000106248000000000020000000001Consumidor Final              000000000280000000000000000000000000000000000000000000000000000000000000000000000000000000000000000000000000000000000000PES00010000001000000000000000020170207
201702070060000200000000000000010625000000000000000106258000000000020000000001Consumidor Final              000000000074500000000000000000000000000000000000000000000000000000000000000000000000000000000000000000000000000000000000PES00010000001000000000000000020170207
201702070060000200000000000000010626000000000000000106268000000000020000000001Consumidor Final              000000000040000000000000000000000000000000000000000000000000000000000000000000000000000000000000000000000000000000000000PES00010000001000000000000000020170207
201702070060000200000000000000010627000000000000000106278000000000020000000001Consumidor Final              000000000039000000000000000000000000000000000000000000000000000000000000000000000000000000000000000000000000000000000000PES00010000001000000000000000020170207
201702070060000200000000000000010628000000000000000106288000000000020000000001Consumidor Final              000000000067500000000000000000000000000000000000000000000000000000000000000000000000000000000000000000000000000000000000PES00010000001000000000000000020170207
201702070060000200000000000000010629000000000000000106298000000000020000000001Consumidor Final              000000000040000000000000000000000000000000000000000000000000000000000000000000000000000000000000000000000000000000000000PES00010000001000000000000000020170207
201702070060000200000000000000010630000000000000000106308000000000020000000001Consumidor Final              000000000125000000000000000000000000000000000000000000000000000000000000000000000000000000000000000000000000000000000000PES00010000001000000000000000020170207
201702070060000200000000000000010631000000000000000106318000000000020000000001Consumidor Final              000000000030000000000000000000000000000000000000000000000000000000000000000000000000000000000000000000000000000000000000PES00010000001000000000000000020170207
201702070060000200000000000000010632000000000000000106328000000000020000000001Consumidor Final              000000000109000000000000000000000000000000000000000000000000000000000000000000000000000000000000000000000000000000000000PES00010000001000000000000000020170207
201702070060000200000000000000010633000000000000000106338000000000020000000001Consumidor Final              000000000105000000000000000000000000000000000000000000000000000000000000000000000000000000000000000000000000000000000000PES00010000001000000000000000020170207
201702080060000200000000000000010634000000000000000106348000000000020000000001Consumidor Final              000000000073000000000000000000000000000000000000000000000000000000000000000000000000000000000000000000000000000000000000PES00010000001000000000000000020170208
201702080060000200000000000000010635000000000000000106358000000000020000000001Consumidor Final              000000000125000000000000000000000000000000000000000000000000000000000000000000000000000000000000000000000000000000000000PES00010000001000000000000000020170208
201702080060000200000000000000010636000000000000000106368000000000020000000001Consumidor Final              000000000089000000000000000000000000000000000000000000000000000000000000000000000000000000000000000000000000000000000000PES00010000001000000000000000020170208
201702080060000200000000000000010637000000000000000106378000000000020000000001Consumidor Final              000000000185000000000000000000000000000000000000000000000000000000000000000000000000000000000000000000000000000000000000PES00010000001000000000000000020170208
201702080060000200000000000000010638000000000000000106388000000000020000000001Consumidor Final              000000000069000000000000000000000000000000000000000000000000000000000000000000000000000000000000000000000000000000000000PES00010000001000000000000000020170208
201702080060000200000000000000010639000000000000000106398000000000020000000001Consumidor Final              000000000089000000000000000000000000000000000000000000000000000000000000000000000000000000000000000000000000000000000000PES00010000001000000000000000020170208
201702080060000200000000000000010640000000000000000106408000000000020000000001Consumidor Final              000000000099000000000000000000000000000000000000000000000000000000000000000000000000000000000000000000000000000000000000PES00010000001000000000000000020170208
201702080060000200000000000000010641000000000000000106418000000000020000000001Consumidor Final              000000000225000000000000000000000000000000000000000000000000000000000000000000000000000000000000000000000000000000000000PES00010000001000000000000000020170208
201702080060000200000000000000010642000000000000000106428000000000020000000001Consumidor Final              000000000047500000000000000000000000000000000000000000000000000000000000000000000000000000000000000000000000000000000000PES00010000001000000000000000020170208
201702080060000200000000000000010643000000000000000106438000000000020000000001Consumidor Final              000000000435000000000000000000000000000000000000000000000000000000000000000000000000000000000000000000000000000000000000PES00010000001000000000000000020170208
201702080060000200000000000000010644000000000000000106448000000000020000000001Consumidor Final              000000000375000000000000000000000000000000000000000000000000000000000000000000000000000000000000000000000000000000000000PES00010000001000000000000000020170208
201702080060000200000000000000010645000000000000000106458000000000020000000001Consumidor Final              000000000355000000000000000000000000000000000000000000000000000000000000000000000000000000000000000000000000000000000000PES00010000001000000000000000020170208
201702080060000200000000000000010646000000000000000106468000000000020000000001Consumidor Final              000000000450000000000000000000000000000000000000000000000000000000000000000000000000000000000000000000000000000000000000PES00010000001000000000000000020170208
201702080060000200000000000000010647000000000000000106478000000000020000000001Consumidor Final              000000000039000000000000000000000000000000000000000000000000000000000000000000000000000000000000000000000000000000000000PES00010000001000000000000000020170208
201702080060000200000000000000010648000000000000000106488000000000020000000001Consumidor Final              000000000068000000000000000000000000000000000000000000000000000000000000000000000000000000000000000000000000000000000000PES00010000001000000000000000020170208
201702080060000200000000000000010649000000000000000106498000000000020000000001Consumidor Final              000000000048000000000000000000000000000000000000000000000000000000000000000000000000000000000000000000000000000000000000PES00010000001000000000000000020170208
201702080060000200000000000000010650000000000000000106508000000000020000000001Consumidor Final              000000000069000000000000000000000000000000000000000000000000000000000000000000000000000000000000000000000000000000000000PES00010000001000000000000000020170208
201702080060000200000000000000010651000000000000000106518000000000020000000001Consumidor Final              000000000089000000000000000000000000000000000000000000000000000000000000000000000000000000000000000000000000000000000000PES00010000001000000000000000020170208
201702080060000200000000000000010652000000000000000106528000000000020000000001Consumidor Final              000000000089000000000000000000000000000000000000000000000000000000000000000000000000000000000000000000000000000000000000PES00010000001000000000000000020170208
201702080060000200000000000000010653000000000000000106538000000000020000000001Consumidor Final              000000000140000000000000000000000000000000000000000000000000000000000000000000000000000000000000000000000000000000000000PES00010000001000000000000000020170208
201702090060000200000000000000010654000000000000000106548000000000020000000001Consumidor Final              000000000100000000000000000000000000000000000000000000000000000000000000000000000000000000000000000000000000000000000000PES00010000001000000000000000020170209
201702090060000200000000000000010655000000000000000106558000000000020000000001Consumidor Final              000000000255000000000000000000000000000000000000000000000000000000000000000000000000000000000000000000000000000000000000PES00010000001000000000000000020170209
201702090060000200000000000000010656000000000000000106568000000000020000000001Consumidor Final              000000000040000000000000000000000000000000000000000000000000000000000000000000000000000000000000000000000000000000000000PES00010000001000000000000000020170209
201702090060000200000000000000010657000000000000000106578000000000020000000001Consumidor Final              000000000134000000000000000000000000000000000000000000000000000000000000000000000000000000000000000000000000000000000000PES00010000001000000000000000020170209
201702090060000200000000000000010658000000000000000106588000000000020000000001Consumidor Final              000000000189000000000000000000000000000000000000000000000000000000000000000000000000000000000000000000000000000000000000PES00010000001000000000000000020170209
201702090060000200000000000000010659000000000000000106598000000000020000000001Consumidor Final              000000000088700000000000000000000000000000000000000000000000000000000000000000000000000000000000000000000000000000000000PES00010000001000000000000000020170209
201702090060000200000000000000010660000000000000000106608000000000020000000001Consumidor Final              000000000088700000000000000000000000000000000000000000000000000000000000000000000000000000000000000000000000000000000000PES00010000001000000000000000020170209
201702090060000200000000000000010661000000000000000106618000000000020000000001Consumidor Final              000000000080000000000000000000000000000000000000000000000000000000000000000000000000000000000000000000000000000000000000PES00010000001000000000000000020170209
201702090060000200000000000000010662000000000000000106628000000000020000000001Consumidor Final              000000000114000000000000000000000000000000000000000000000000000000000000000000000000000000000000000000000000000000000000PES00010000001000000000000000020170209
201702090060000200000000000000010663000000000000000106638000000000020000000001Consumidor Final              000000000084000000000000000000000000000000000000000000000000000000000000000000000000000000000000000000000000000000000000PES00010000001000000000000000020170209
201702090060000200000000000000010664000000000000000106648000000000020000000001Consumidor Final              000000000179000000000000000000000000000000000000000000000000000000000000000000000000000000000000000000000000000000000000PES00010000001000000000000000020170209
201702090060000200000000000000010665000000000000000106658000000000020000000001Consumidor Final              000000000060000000000000000000000000000000000000000000000000000000000000000000000000000000000000000000000000000000000000PES00010000001000000000000000020170209
201702090060000200000000000000010666000000000000000106668000000000020000000001Consumidor Final              000000000048000000000000000000000000000000000000000000000000000000000000000000000000000000000000000000000000000000000000PES00010000001000000000000000020170209
201702090060000200000000000000010667000000000000000106678000000000020000000001Consumidor Final              000000000075000000000000000000000000000000000000000000000000000000000000000000000000000000000000000000000000000000000000PES00010000001000000000000000020170209
201702090060000200000000000000010668000000000000000106688000000000020000000001Consumidor Final              000000000045000000000000000000000000000000000000000000000000000000000000000000000000000000000000000000000000000000000000PES00010000001000000000000000020170209
201702090060000200000000000000010669000000000000000106698000000000020000000001Consumidor Final              000000000099000000000000000000000000000000000000000000000000000000000000000000000000000000000000000000000000000000000000PES00010000001000000000000000020170209
201702100060000200000000000000010670000000000000000106708000000000020000000001Consumidor Final              000000000115000000000000000000000000000000000000000000000000000000000000000000000000000000000000000000000000000000000000PES00010000001000000000000000020170210
201702100060000200000000000000010671000000000000000106718000000000020000000001Consumidor Final              000000000047500000000000000000000000000000000000000000000000000000000000000000000000000000000000000000000000000000000000PES00010000001000000000000000020170210
201702100060000200000000000000010672000000000000000106728000000000020000000001Consumidor Final              000000000035000000000000000000000000000000000000000000000000000000000000000000000000000000000000000000000000000000000000PES00010000001000000000000000020170210
201702100060000200000000000000010673000000000000000106738000000000020000000001Consumidor Final              000000000085000000000000000000000000000000000000000000000000000000000000000000000000000000000000000000000000000000000000PES00010000001000000000000000020170210
201702100060000200000000000000010674000000000000000106748000000000020000000001Consumidor Final              000000000085000000000000000000000000000000000000000000000000000000000000000000000000000000000000000000000000000000000000PES00010000001000000000000000020170210
201702100060000200000000000000010675000000000000000106758000000000020000000001Consumidor Final              000000000048000000000000000000000000000000000000000000000000000000000000000000000000000000000000000000000000000000000000PES00010000001000000000000000020170210
201702100060000200000000000000010677000000000000000106778000000000020000000001Consumidor Final              000000000029000000000000000000000000000000000000000000000000000000000000000000000000000000000000000000000000000000000000PES00010000001000000000000000020170210
201702100060000200000000000000010678000000000000000106788000000000020000000001Consumidor Final              000000000047500000000000000000000000000000000000000000000000000000000000000000000000000000000000000000000000000000000000PES00010000001000000000000000020170210
201702100060000200000000000000010679000000000000000106798000000000020000000001Consumidor Final              000000000129000000000000000000000000000000000000000000000000000000000000000000000000000000000000000000000000000000000000PES00010000001000000000000000020170210
201702100060000200000000000000010680000000000000000106808000000000020000000001Consumidor Final              000000000105000000000000000000000000000000000000000000000000000000000000000000000000000000000000000000000000000000000000PES00010000001000000000000000020170210
201702100060000200000000000000010681000000000000000106818000000000020000000001Consumidor Final              000000000030000000000000000000000000000000000000000000000000000000000000000000000000000000000000000000000000000000000000PES00010000001000000000000000020170210
201702100060000200000000000000010682000000000000000106828000000000020000000001Consumidor Final              000000000105000000000000000000000000000000000000000000000000000000000000000000000000000000000000000000000000000000000000PES00010000001000000000000000020170210
201702100060000200000000000000010683000000000000000106838000000000020000000001Consumidor Final              000000000060000000000000000000000000000000000000000000000000000000000000000000000000000000000000000000000000000000000000PES00010000001000000000000000020170210
201702100060000200000000000000010684000000000000000106848000000000020000000001Consumidor Final              000000000240000000000000000000000000000000000000000000000000000000000000000000000000000000000000000000000000000000000000PES00010000001000000000000000020170210
201702100060000200000000000000010685000000000000000106858000000000020000000001Consumidor Final              000000000105000000000000000000000000000000000000000000000000000000000000000000000000000000000000000000000000000000000000PES00010000001000000000000000020170210
201702100060000200000000000000010686000000000000000106868000000000020000000001Consumidor Final              000000000126500000000000000000000000000000000000000000000000000000000000000000000000000000000000000000000000000000000000PES00010000001000000000000000020170210
201702100060000200000000000000010687000000000000000106878000000000020000000001Consumidor Final              000000000124000000000000000000000000000000000000000000000000000000000000000000000000000000000000000000000000000000000000PES00010000001000000000000000020170210
201702110060000200000000000000010688000000000000000106888000000000020000000001Consumidor Final              000000000199000000000000000000000000000000000000000000000000000000000000000000000000000000000000000000000000000000000000PES00010000001000000000000000020170211
201702110060000200000000000000010689000000000000000106898000000000020000000001Consumidor Final              000000000115000000000000000000000000000000000000000000000000000000000000000000000000000000000000000000000000000000000000PES00010000001000000000000000020170211
201702110060000200000000000000010690000000000000000106908000000000020000000001Consumidor Final              000000000060000000000000000000000000000000000000000000000000000000000000000000000000000000000000000000000000000000000000PES00010000001000000000000000020170211
201702110060000200000000000000010691000000000000000106918000000000020000000001Consumidor Final              000000000250000000000000000000000000000000000000000000000000000000000000000000000000000000000000000000000000000000000000PES00010000001000000000000000020170211
201702110060000200000000000000010692000000000000000106928000000000020000000001Consumidor Final              000000000089000000000000000000000000000000000000000000000000000000000000000000000000000000000000000000000000000000000000PES00010000001000000000000000020170211
201702110060000200000000000000010693000000000000000106938000000000020000000001Consumidor Final              000000000055000000000000000000000000000000000000000000000000000000000000000000000000000000000000000000000000000000000000PES00010000001000000000000000020170211
201702110060000200000000000000010694000000000000000106948000000000020000000001Consumidor Final              000000000019500000000000000000000000000000000000000000000000000000000000000000000000000000000000000000000000000000000000PES00010000001000000000000000020170211
201702130060000200000000000000010695000000000000000106958000000000020000000001Consumidor Final              000000000029000000000000000000000000000000000000000000000000000000000000000000000000000000000000000000000000000000000000PES00010000001000000000000000020170213
201702130060000200000000000000010696000000000000000106968000000000020000000001Consumidor Final              000000000020000000000000000000000000000000000000000000000000000000000000000000000000000000000000000000000000000000000000PES00010000001000000000000000020170213
201702130060000200000000000000010697000000000000000106978000000000020000000001Consumidor Final              000000000059000000000000000000000000000000000000000000000000000000000000000000000000000000000000000000000000000000000000PES00010000001000000000000000020170213
201702130060000200000000000000010698000000000000000106988000000000020000000001Consumidor Final              000000000300000000000000000000000000000000000000000000000000000000000000000000000000000000000000000000000000000000000000PES00010000001000000000000000020170213
201702130060000200000000000000010699000000000000000106998000000000020000000001Consumidor Final              000000000040000000000000000000000000000000000000000000000000000000000000000000000000000000000000000000000000000000000000PES00010000001000000000000000020170213
201702130060000200000000000000010700000000000000000107008000000000020000000001Consumidor Final              000000000075000000000000000000000000000000000000000000000000000000000000000000000000000000000000000000000000000000000000PES00010000001000000000000000020170213
201702130060000200000000000000010701000000000000000107018000000000020000000001Consumidor Final              000000000052500000000000000000000000000000000000000000000000000000000000000000000000000000000000000000000000000000000000PES00010000001000000000000000020170213
201702130060000200000000000000010702000000000000000107028000000000020000000001Consumidor Final              000000000125000000000000000000000000000000000000000000000000000000000000000000000000000000000000000000000000000000000000PES00010000001000000000000000020170213
201702130060000200000000000000010703000000000000000107038000000000020000000001Consumidor Final              000000000070000000000000000000000000000000000000000000000000000000000000000000000000000000000000000000000000000000000000PES00010000001000000000000000020170213
201702130060000200000000000000010704000000000000000107048000000000020000000001Consumidor Final              000000000089000000000000000000000000000000000000000000000000000000000000000000000000000000000000000000000000000000000000PES00010000001000000000000000020170213
201702130060000200000000000000010705000000000000000107058000000000020000000001Consumidor Final              000000000030000000000000000000000000000000000000000000000000000000000000000000000000000000000000000000000000000000000000PES00010000001000000000000000020170213
201702130060000200000000000000010706000000000000000107068000000000020000000001Consumidor Final              000000000015000000000000000000000000000000000000000000000000000000000000000000000000000000000000000000000000000000000000PES00010000001000000000000000020170213
201702130060000200000000000000010707000000000000000107078000000000020000000001Consumidor Final              000000000039000000000000000000000000000000000000000000000000000000000000000000000000000000000000000000000000000000000000PES00010000001000000000000000020170213
201702130060000200000000000000010708000000000000000107088000000000020000000001Consumidor Final              000000000029000000000000000000000000000000000000000000000000000000000000000000000000000000000000000000000000000000000000PES00010000001000000000000000020170213
201702130060000200000000000000010709000000000000000107098000000000020000000001Consumidor Final              000000000178000000000000000000000000000000000000000000000000000000000000000000000000000000000000000000000000000000000000PES00010000001000000000000000020170213
201702130060000200000000000000010710000000000000000107108000000000020000000001Consumidor Final              000000000024000000000000000000000000000000000000000000000000000000000000000000000000000000000000000000000000000000000000PES00010000001000000000000000020170213
201702130060000200000000000000010711000000000000000107118000000000020000000001Consumidor Final              000000000110000000000000000000000000000000000000000000000000000000000000000000000000000000000000000000000000000000000000PES00010000001000000000000000020170213
201702130060000200000000000000010712000000000000000107128000000000020000000001Consumidor Final              000000000400000000000000000000000000000000000000000000000000000000000000000000000000000000000000000000000000000000000000PES00010000001000000000000000020170213
201702130060000200000000000000010713000000000000000107138000000000020000000001Consumidor Final              000000000048000000000000000000000000000000000000000000000000000000000000000000000000000000000000000000000000000000000000PES00010000001000000000000000020170213
201702130060000200000000000000010714000000000000000107148000000000020000000001Consumidor Final              000000000125000000000000000000000000000000000000000000000000000000000000000000000000000000000000000000000000000000000000PES00010000001000000000000000020170213
201702130060000200000000000000010715000000000000000107158000000000020000000001Consumidor Final              000000000060000000000000000000000000000000000000000000000000000000000000000000000000000000000000000000000000000000000000PES00010000001000000000000000020170213
201702130060000200000000000000010716000000000000000107168000000000020000000001Consumidor Final              000000000085000000000000000000000000000000000000000000000000000000000000000000000000000000000000000000000000000000000000PES00010000001000000000000000020170213
201702130060000200000000000000010717000000000000000107178000000000020000000001Consumidor Final              000000000050000000000000000000000000000000000000000000000000000000000000000000000000000000000000000000000000000000000000PES00010000001000000000000000020170213
201702130060000200000000000000010718000000000000000107188000000000020000000001Consumidor Final              000000000078000000000000000000000000000000000000000000000000000000000000000000000000000000000000000000000000000000000000PES00010000001000000000000000020170213
201702130060000200000000000000010719000000000000000107198000000000020000000001Consumidor Final              000000000103000000000000000000000000000000000000000000000000000000000000000000000000000000000000000000000000000000000000PES00010000001000000000000000020170213
201702130060000200000000000000010720000000000000000107208000000000020000000001Consumidor Final              000000000058000000000000000000000000000000000000000000000000000000000000000000000000000000000000000000000000000000000000PES00010000001000000000000000020170213
201702130060000200000000000000010721000000000000000107218000000000020000000001Consumidor Final              000000000089000000000000000000000000000000000000000000000000000000000000000000000000000000000000000000000000000000000000PES00010000001000000000000000020170213
201702130060000200000000000000010722000000000000000107228000000000020000000001Consumidor Final              000000000059000000000000000000000000000000000000000000000000000000000000000000000000000000000000000000000000000000000000PES00010000001000000000000000020170213
201702130060000200000000000000010723000000000000000107238000000000020000000001Consumidor Final              000000000060000000000000000000000000000000000000000000000000000000000000000000000000000000000000000000000000000000000000PES00010000001000000000000000020170213
201702130060000200000000000000010724000000000000000107248000000000020000000001Consumidor Final              000000000163000000000000000000000000000000000000000000000000000000000000000000000000000000000000000000000000000000000000PES00010000001000000000000000020170213
201702130060000200000000000000010725000000000000000107258000000000020000000001Consumidor Final              000000000204000000000000000000000000000000000000000000000000000000000000000000000000000000000000000000000000000000000000PES00010000001000000000000000020170213
201702130060000200000000000000010726000000000000000107268000000000020000000001Consumidor Final              000000000035000000000000000000000000000000000000000000000000000000000000000000000000000000000000000000000000000000000000PES00010000001000000000000000020170213
201702130060000200000000000000010727000000000000000107278000000000020000000001Consumidor Final              000000000069000000000000000000000000000000000000000000000000000000000000000000000000000000000000000000000000000000000000PES00010000001000000000000000020170213
201702130060000200000000000000010728000000000000000107288000000000020000000001Consumidor Final              000000000115000000000000000000000000000000000000000000000000000000000000000000000000000000000000000000000000000000000000PES00010000001000000000000000020170213
201702130060000200000000000000010729000000000000000107298000000000020000000001Consumidor Final              000000000065000000000000000000000000000000000000000000000000000000000000000000000000000000000000000000000000000000000000PES00010000001000000000000000020170213
201702130060000200000000000000010730000000000000000107308000000000020000000001Consumidor Final              000000000089000000000000000000000000000000000000000000000000000000000000000000000000000000000000000000000000000000000000PES00010000001000000000000000020170213
201702130060000200000000000000010731000000000000000107318000000000020000000001Consumidor Final              000000000124000000000000000000000000000000000000000000000000000000000000000000000000000000000000000000000000000000000000PES00010000001000000000000000020170213
201702130060000200000000000000010732000000000000000107328000000000020000000001Consumidor Final              000000000045000000000000000000000000000000000000000000000000000000000000000000000000000000000000000000000000000000000000PES00010000001000000000000000020170213
201702130060000200000000000000010733000000000000000107338000000000020000000001Consumidor Final              000000000099000000000000000000000000000000000000000000000000000000000000000000000000000000000000000000000000000000000000PES00010000001000000000000000020170213
201702130060000200000000000000010734000000000000000107348000000000020000000001Consumidor Final              000000000124000000000000000000000000000000000000000000000000000000000000000000000000000000000000000000000000000000000000PES00010000001000000000000000020170213
201702140060000200000000000000010735000000000000000107358000000000020000000001Consumidor Final              000000000200000000000000000000000000000000000000000000000000000000000000000000000000000000000000000000000000000000000000PES00010000001000000000000000020170214
201702140060000200000000000000010736000000000000000107368000000000020000000001Consumidor Final              000000000048000000000000000000000000000000000000000000000000000000000000000000000000000000000000000000000000000000000000PES00010000001000000000000000020170214
201702140060000200000000000000010737000000000000000107378000000000020000000001Consumidor Final              000000000075000000000000000000000000000000000000000000000000000000000000000000000000000000000000000000000000000000000000PES00010000001000000000000000020170214
201702140060000200000000000000010738000000000000000107388000000000020000000001Consumidor Final              000000000030000000000000000000000000000000000000000000000000000000000000000000000000000000000000000000000000000000000000PES00010000001000000000000000020170214
201702150060000200000000000000010739000000000000000107398000000000020000000001Consumidor Final              000000000047500000000000000000000000000000000000000000000000000000000000000000000000000000000000000000000000000000000000PES00010000001000000000000000020170215
201702150060000200000000000000010740000000000000000107408000000000020000000001Consumidor Final              000000000047500000000000000000000000000000000000000000000000000000000000000000000000000000000000000000000000000000000000PES00010000001000000000000000020170215
201702150060000200000000000000010741000000000000000107418000000000020000000001Consumidor Final              000000000185000000000000000000000000000000000000000000000000000000000000000000000000000000000000000000000000000000000000PES00010000001000000000000000020170215
201702150060000200000000000000010742000000000000000107428000000000020000000001Consumidor Final              000000000328000000000000000000000000000000000000000000000000000000000000000000000000000000000000000000000000000000000000PES00010000001000000000000000020170215
201702150060000200000000000000010743000000000000000107438000000000020000000001Consumidor Final              000000000235000000000000000000000000000000000000000000000000000000000000000000000000000000000000000000000000000000000000PES00010000001000000000000000020170215
201702150060000200000000000000010744000000000000000107448000000000020000000001Consumidor Final              000000000248000000000000000000000000000000000000000000000000000000000000000000000000000000000000000000000000000000000000PES00010000001000000000000000020170215
201702150060000200000000000000010745000000000000000107458000000000020000000001Consumidor Final              000000000050000000000000000000000000000000000000000000000000000000000000000000000000000000000000000000000000000000000000PES00010000001000000000000000020170215
201702150060000200000000000000010746000000000000000107468000000000020000000001Consumidor Final              000000000024000000000000000000000000000000000000000000000000000000000000000000000000000000000000000000000000000000000000PES00010000001000000000000000020170215
201702150060000200000000000000010747000000000000000107478000000000020000000001Consumidor Final              000000000130000000000000000000000000000000000000000000000000000000000000000000000000000000000000000000000000000000000000PES00010000001000000000000000020170215
201702150060000200000000000000010748000000000000000107488000000000020000000001Consumidor Final              000000000145000000000000000000000000000000000000000000000000000000000000000000000000000000000000000000000000000000000000PES00010000001000000000000000020170215
201702150060000200000000000000010749000000000000000107498000000000020000000001Consumidor Final              000000000030000000000000000000000000000000000000000000000000000000000000000000000000000000000000000000000000000000000000PES00010000001000000000000000020170215
201702150060000200000000000000010750000000000000000107508000000000020000000001Consumidor Final              000000000145000000000000000000000000000000000000000000000000000000000000000000000000000000000000000000000000000000000000PES00010000001000000000000000020170215
201702150060000200000000000000010751000000000000000107518000000000020000000001Consumidor Final              000000000020000000000000000000000000000000000000000000000000000000000000000000000000000000000000000000000000000000000000PES00010000001000000000000000020170215
201702150060000200000000000000010752000000000000000107528000000000020000000001Consumidor Final              000000000080000000000000000000000000000000000000000000000000000000000000000000000000000000000000000000000000000000000000PES00010000001000000000000000020170215
201702150060000200000000000000010753000000000000000107538000000000020000000001Consumidor Final              000000000204000000000000000000000000000000000000000000000000000000000000000000000000000000000000000000000000000000000000PES00010000001000000000000000020170215
201702150060000200000000000000010754000000000000000107548000000000020000000001Consumidor Final              000000000099000000000000000000000000000000000000000000000000000000000000000000000000000000000000000000000000000000000000PES00010000001000000000000000020170215
201702150060000200000000000000010755000000000000000107558000000000020000000001Consumidor Final              000000000049000000000000000000000000000000000000000000000000000000000000000000000000000000000000000000000000000000000000PES00010000001000000000000000020170215
201702150060000200000000000000010756000000000000000107568000000000020000000001Consumidor Final              000000000086500000000000000000000000000000000000000000000000000000000000000000000000000000000000000000000000000000000000PES00010000001000000000000000020170215
201702150060000200000000000000010757000000000000000107578000000000020000000001Consumidor Final              000000000128000000000000000000000000000000000000000000000000000000000000000000000000000000000000000000000000000000000000PES00010000001000000000000000020170215
201702150060000200000000000000010758000000000000000107588000000000020000000001Consumidor Final              000000000090000000000000000000000000000000000000000000000000000000000000000000000000000000000000000000000000000000000000PES00010000001000000000000000020170215
201702150060000200000000000000010759000000000000000107598000000000020000000001Consumidor Final              000000000057500000000000000000000000000000000000000000000000000000000000000000000000000000000000000000000000000000000000PES00010000001000000000000000020170215
201702150060000200000000000000010760000000000000000107608000000000020000000001Consumidor Final              000000000115000000000000000000000000000000000000000000000000000000000000000000000000000000000000000000000000000000000000PES00010000001000000000000000020170215
201702150060000200000000000000010761000000000000000107618000000000020000000001Consumidor Final              000000000089000000000000000000000000000000000000000000000000000000000000000000000000000000000000000000000000000000000000PES00010000001000000000000000020170215
201702150060000200000000000000010762000000000000000107628000000000020000000001Consumidor Final              000000000089000000000000000000000000000000000000000000000000000000000000000000000000000000000000000000000000000000000000PES00010000001000000000000000020170215
201702150060000200000000000000010763000000000000000107638000000000020000000001Consumidor Final              000000000114000000000000000000000000000000000000000000000000000000000000000000000000000000000000000000000000000000000000PES00010000001000000000000000020170215
201702150060000200000000000000010764000000000000000107648000000000020000000001Consumidor Final              000000000050000000000000000000000000000000000000000000000000000000000000000000000000000000000000000000000000000000000000PES00010000001000000000000000020170215
201702150060000200000000000000010765000000000000000107658000000000020000000001Consumidor Final              000000000105000000000000000000000000000000000000000000000000000000000000000000000000000000000000000000000000000000000000PES00010000001000000000000000020170215
201702150060000200000000000000010766000000000000000107668000000000020000000001Consumidor Final              000000000079000000000000000000000000000000000000000000000000000000000000000000000000000000000000000000000000000000000000PES00010000001000000000000000020170215
201702150060000200000000000000010767000000000000000107678000000000020000000001Consumidor Final              000000000039000000000000000000000000000000000000000000000000000000000000000000000000000000000000000000000000000000000000PES00010000001000000000000000020170215
201702150060000200000000000000010768000000000000000107688000000000020000000001Consumidor Final              000000000040000000000000000000000000000000000000000000000000000000000000000000000000000000000000000000000000000000000000PES00010000001000000000000000020170215
201702150060000200000000000000010769000000000000000107698000000000020000000001Consumidor Final              000000000055000000000000000000000000000000000000000000000000000000000000000000000000000000000000000000000000000000000000PES00010000001000000000000000020170215
201702150060000200000000000000010770000000000000000107708000000000020000000001Consumidor Final              000000000314000000000000000000000000000000000000000000000000000000000000000000000000000000000000000000000000000000000000PES00010000001000000000000000020170215
201702150010000200000000000000000073000000000000000000738000000000020171319162Rodriguez Farando,Pablo Daniel000000000089000000000000000000000000000000000000000000000000000000000000000000000000000000000000000000000000000000000000PES00010000001000000000000000020170215
201702160060000200000000000000010771000000000000000107718000000000020000000001Consumidor Final              000000000097500000000000000000000000000000000000000000000000000000000000000000000000000000000000000000000000000000000000PES00010000001000000000000000020170216
201702160060000200000000000000010772000000000000000107728000000000020000000001Consumidor Final              000000000048000000000000000000000000000000000000000000000000000000000000000000000000000000000000000000000000000000000000PES00010000001000000000000000020170216
201702160060000200000000000000010773000000000000000107738000000000020000000001Consumidor Final              000000000100000000000000000000000000000000000000000000000000000000000000000000000000000000000000000000000000000000000000PES00010000001000000000000000020170216
201702160060000200000000000000010774000000000000000107748000000000020000000001Consumidor Final              000000000025000000000000000000000000000000000000000000000000000000000000000000000000000000000000000000000000000000000000PES00010000001000000000000000020170216
201702160060000200000000000000010775000000000000000107758000000000020000000001Consumidor Final              000000000169000000000000000000000000000000000000000000000000000000000000000000000000000000000000000000000000000000000000PES00010000001000000000000000020170216
201702160060000200000000000000010776000000000000000107768000000000020000000001Consumidor Final              000000000105000000000000000000000000000000000000000000000000000000000000000000000000000000000000000000000000000000000000PES00010000001000000000000000020170216
201702160060000200000000000000010777000000000000000107778000000000020000000001Consumidor Final              000000000155000000000000000000000000000000000000000000000000000000000000000000000000000000000000000000000000000000000000PES00010000001000000000000000020170216
201702160060000200000000000000010778000000000000000107788000000000020000000001Consumidor Final              000000000047500000000000000000000000000000000000000000000000000000000000000000000000000000000000000000000000000000000000PES00010000001000000000000000020170216
201702160060000200000000000000010779000000000000000107798000000000020000000001Consumidor Final              000000000105000000000000000000000000000000000000000000000000000000000000000000000000000000000000000000000000000000000000PES00010000001000000000000000020170216
201702160060000200000000000000010780000000000000000107808000000000020000000001Consumidor Final              000000000070000000000000000000000000000000000000000000000000000000000000000000000000000000000000000000000000000000000000PES00010000001000000000000000020170216
201702160060000200000000000000010781000000000000000107818000000000020000000001Consumidor Final              000000000264000000000000000000000000000000000000000000000000000000000000000000000000000000000000000000000000000000000000PES00010000001000000000000000020170216
201702160060000200000000000000010782000000000000000107828000000000020000000001Consumidor Final              000000000099000000000000000000000000000000000000000000000000000000000000000000000000000000000000000000000000000000000000PES00010000001000000000000000020170216
201702160060000200000000000000010783000000000000000107838000000000020000000001Consumidor Final              000000000045000000000000000000000000000000000000000000000000000000000000000000000000000000000000000000000000000000000000PES00010000001000000000000000020170216
201702160060000200000000000000010784000000000000000107848000000000020000000001Consumidor Final              000000000055000000000000000000000000000000000000000000000000000000000000000000000000000000000000000000000000000000000000PES00010000001000000000000000020170216
201702160060000200000000000000010785000000000000000107858000000000020000000001Consumidor Final              000000000035000000000000000000000000000000000000000000000000000000000000000000000000000000000000000000000000000000000000PES00010000001000000000000000020170216
201702160060000200000000000000010786000000000000000107868000000000020000000001Consumidor Final              000000000105000000000000000000000000000000000000000000000000000000000000000000000000000000000000000000000000000000000000PES00010000001000000000000000020170216
201702160060000200000000000000010787000000000000000107878000000000020000000001Consumidor Final              000000000085000000000000000000000000000000000000000000000000000000000000000000000000000000000000000000000000000000000000PES00010000001000000000000000020170216
201702160060000200000000000000010788000000000000000107888000000000020000000001Consumidor Final              000000000125000000000000000000000000000000000000000000000000000000000000000000000000000000000000000000000000000000000000PES00010000001000000000000000020170216
201702160060000200000000000000010789000000000000000107898000000000020000000001Consumidor Final              000000000105000000000000000000000000000000000000000000000000000000000000000000000000000000000000000000000000000000000000PES00010000001000000000000000020170216
201702160060000200000000000000010790000000000000000107908000000000020000000001Consumidor Final              000000000077500000000000000000000000000000000000000000000000000000000000000000000000000000000000000000000000000000000000PES00010000001000000000000000020170216
201702160060000200000000000000010791000000000000000107918000000000020000000001Consumidor Final              000000000125000000000000000000000000000000000000000000000000000000000000000000000000000000000000000000000000000000000000PES00010000001000000000000000020170216
201702160060000200000000000000010792000000000000000107928000000000020000000001Consumidor Final              000000000159000000000000000000000000000000000000000000000000000000000000000000000000000000000000000000000000000000000000PES00010000001000000000000000020170216
201702160060000200000000000000010793000000000000000107938000000000020000000001Consumidor Final              000000000050000000000000000000000000000000000000000000000000000000000000000000000000000000000000000000000000000000000000PES00010000001000000000000000020170216
201702160060000200000000000000010794000000000000000107948000000000020000000001Consumidor Final              000000000055000000000000000000000000000000000000000000000000000000000000000000000000000000000000000000000000000000000000PES00010000001000000000000000020170216
201702160060000200000000000000010795000000000000000107958000000000020000000001Consumidor Final              000000000069000000000000000000000000000000000000000000000000000000000000000000000000000000000000000000000000000000000000PES00010000001000000000000000020170216
201702160060000200000000000000010796000000000000000107968000000000020000000001Consumidor Final              000000000385000000000000000000000000000000000000000000000000000000000000000000000000000000000000000000000000000000000000PES00010000001000000000000000020170216
201702160060000200000000000000010797000000000000000107978000000000020000000001Consumidor Final              000000000385000000000000000000000000000000000000000000000000000000000000000000000000000000000000000000000000000000000000PES00010000001000000000000000020170216
201702160060000200000000000000010798000000000000000107988000000000020000000001Consumidor Final              000000000075000000000000000000000000000000000000000000000000000000000000000000000000000000000000000000000000000000000000PES00010000001000000000000000020170216
201702160060000200000000000000010799000000000000000107998000000000020000000001Consumidor Final              000000000065000000000000000000000000000000000000000000000000000000000000000000000000000000000000000000000000000000000000PES00010000001000000000000000020170216
201702170060000200000000000000010800000000000000000108008000000000020000000001Consumidor Final              000000000095000000000000000000000000000000000000000000000000000000000000000000000000000000000000000000000000000000000000PES00010000001000000000000000020170217
201702170060000200000000000000010801000000000000000108018000000000020000000001Consumidor Final              000000000039500000000000000000000000000000000000000000000000000000000000000000000000000000000000000000000000000000000000PES00010000001000000000000000020170217
201702170060000200000000000000010802000000000000000108028000000000020000000001Consumidor Final              000000000035000000000000000000000000000000000000000000000000000000000000000000000000000000000000000000000000000000000000PES00010000001000000000000000020170217
201702170060000200000000000000010803000000000000000108038000000000020000000001Consumidor Final              000000000035000000000000000000000000000000000000000000000000000000000000000000000000000000000000000000000000000000000000PES00010000001000000000000000020170217
201702170060000200000000000000010804000000000000000108048000000000020000000001Consumidor Final              000000000275000000000000000000000000000000000000000000000000000000000000000000000000000000000000000000000000000000000000PES00010000001000000000000000020170217
201702170060000200000000000000010805000000000000000108058000000000020000000001Consumidor Final              000000000077500000000000000000000000000000000000000000000000000000000000000000000000000000000000000000000000000000000000PES00010000001000000000000000020170217
201702170060000200000000000000010806000000000000000108068000000000020000000001Consumidor Final              000000000340000000000000000000000000000000000000000000000000000000000000000000000000000000000000000000000000000000000000PES00010000001000000000000000020170217
201702170060000200000000000000010807000000000000000108078000000000020000000001Consumidor Final              000000000417000000000000000000000000000000000000000000000000000000000000000000000000000000000000000000000000000000000000PES00010000001000000000000000020170217
201702170060000200000000000000010808000000000000000108088000000000020000000001Consumidor Final              000000000436000000000000000000000000000000000000000000000000000000000000000000000000000000000000000000000000000000000000PES00010000001000000000000000020170217
201702170060000200000000000000010809000000000000000108098000000000020000000001Consumidor Final              000000000413500000000000000000000000000000000000000000000000000000000000000000000000000000000000000000000000000000000000PES00010000001000000000000000020170217
201702170060000200000000000000010810000000000000000108108000000000020000000001Consumidor Final              000000000490000000000000000000000000000000000000000000000000000000000000000000000000000000000000000000000000000000000000PES00010000001000000000000000020170217
201702170060000200000000000000010811000000000000000108118000000000020000000001Consumidor Final              000000000060000000000000000000000000000000000000000000000000000000000000000000000000000000000000000000000000000000000000PES00010000001000000000000000020170217
201702170060000200000000000000010812000000000000000108128000000000020000000001Consumidor Final              000000000099000000000000000000000000000000000000000000000000000000000000000000000000000000000000000000000000000000000000PES00010000001000000000000000020170217
201702170060000200000000000000010813000000000000000108138000000000020000000001Consumidor Final              000000000089000000000000000000000000000000000000000000000000000000000000000000000000000000000000000000000000000000000000PES00010000001000000000000000020170217
201702170060000200000000000000010814000000000000000108148000000000020000000001Consumidor Final              000000000039000000000000000000000000000000000000000000000000000000000000000000000000000000000000000000000000000000000000PES00010000001000000000000000020170217
201702170060000200000000000000010815000000000000000108158000000000020000000001Consumidor Final              000000000134000000000000000000000000000000000000000000000000000000000000000000000000000000000000000000000000000000000000PES00010000001000000000000000020170217
201702170060000200000000000000010816000000000000000108168000000000020000000001Consumidor Final              000000000115000000000000000000000000000000000000000000000000000000000000000000000000000000000000000000000000000000000000PES00010000001000000000000000020170217
201702170060000200000000000000010817000000000000000108178000000000020000000001Consumidor Final              000000000095000000000000000000000000000000000000000000000000000000000000000000000000000000000000000000000000000000000000PES00010000001000000000000000020170217
201702170060000200000000000000010818000000000000000108188000000000020000000001Consumidor Final              000000000015000000000000000000000000000000000000000000000000000000000000000000000000000000000000000000000000000000000000PES00010000001000000000000000020170217
201702170060000200000000000000010819000000000000000108198000000000020000000001Consumidor Final              000000000045000000000000000000000000000000000000000000000000000000000000000000000000000000000000000000000000000000000000PES00010000001000000000000000020170217
201702170060000200000000000000010820000000000000000108208000000000020000000001Consumidor Final              000000000130000000000000000000000000000000000000000000000000000000000000000000000000000000000000000000000000000000000000PES00010000001000000000000000020170217
201702170060000200000000000000010821000000000000000108218000000000020000000001Consumidor Final              000000000052500000000000000000000000000000000000000000000000000000000000000000000000000000000000000000000000000000000000PES00010000001000000000000000020170217
201702170060000200000000000000010822000000000000000108228000000000020000000001Consumidor Final              000000000045000000000000000000000000000000000000000000000000000000000000000000000000000000000000000000000000000000000000PES00010000001000000000000000020170217
201702170060000200000000000000010823000000000000000108238000000000020000000001Consumidor Final              000000000069000000000000000000000000000000000000000000000000000000000000000000000000000000000000000000000000000000000000PES00010000001000000000000000020170217
201702170060000200000000000000010824000000000000000108248000000000020000000001Consumidor Final              000000000045000000000000000000000000000000000000000000000000000000000000000000000000000000000000000000000000000000000000PES00010000001000000000000000020170217
201702170060000200000000000000010825000000000000000108258000000000020000000001Consumidor Final              000000000159000000000000000000000000000000000000000000000000000000000000000000000000000000000000000000000000000000000000PES00010000001000000000000000020170217
201702180060000200000000000000010826000000000000000108268000000000020000000001Consumidor Final              000000000035000000000000000000000000000000000000000000000000000000000000000000000000000000000000000000000000000000000000PES00010000001000000000000000020170218
201702180060000200000000000000010827000000000000000108278000000000020000000001Consumidor Final              000000000089000000000000000000000000000000000000000000000000000000000000000000000000000000000000000000000000000000000000PES00010000001000000000000000020170218
201702180060000200000000000000010828000000000000000108288000000000020000000001Consumidor Final              000000000125000000000000000000000000000000000000000000000000000000000000000000000000000000000000000000000000000000000000PES00010000001000000000000000020170218
201702180060000200000000000000010829000000000000000108298000000000020000000001Consumidor Final              000000000444500000000000000000000000000000000000000000000000000000000000000000000000000000000000000000000000000000000000PES00010000001000000000000000020170218
201702180060000200000000000000010830000000000000000108308000000000020000000001Consumidor Final              000000000482000000000000000000000000000000000000000000000000000000000000000000000000000000000000000000000000000000000000PES00010000001000000000000000020170218
201702180060000200000000000000010831000000000000000108318000000000020000000001Consumidor Final              000000000421500000000000000000000000000000000000000000000000000000000000000000000000000000000000000000000000000000000000PES00010000001000000000000000020170218
201702180060000200000000000000010832000000000000000108328000000000020000000001Consumidor Final              000000000274000000000000000000000000000000000000000000000000000000000000000000000000000000000000000000000000000000000000PES00010000001000000000000000020170218
201702180060000200000000000000010833000000000000000108338000000000020000000001Consumidor Final              000000000450000000000000000000000000000000000000000000000000000000000000000000000000000000000000000000000000000000000000PES00010000001000000000000000020170218
201702180060000200000000000000010834000000000000000108348000000000020000000001Consumidor Final              000000000202500000000000000000000000000000000000000000000000000000000000000000000000000000000000000000000000000000000000PES00010000001000000000000000020170218
201702180060000200000000000000010835000000000000000108358000000000020000000001Consumidor Final              000000000039000000000000000000000000000000000000000000000000000000000000000000000000000000000000000000000000000000000000PES00010000001000000000000000020170218
201702180060000200000000000000010836000000000000000108368000000000020000000001Consumidor Final              000000000089000000000000000000000000000000000000000000000000000000000000000000000000000000000000000000000000000000000000PES00010000001000000000000000020170218
201702180060000200000000000000010837000000000000000108378000000000020000000001Consumidor Final              000000000119000000000000000000000000000000000000000000000000000000000000000000000000000000000000000000000000000000000000PES00010000001000000000000000020170218
201702180060000200000000000000010838000000000000000108388000000000020000000001Consumidor Final              000000000025000000000000000000000000000000000000000000000000000000000000000000000000000000000000000000000000000000000000PES00010000001000000000000000020170218
201702180060000200000000000000010839000000000000000108398000000000020000000001Consumidor Final              000000000070000000000000000000000000000000000000000000000000000000000000000000000000000000000000000000000000000000000000PES00010000001000000000000000020170218
201702210060000200000000000000010840000000000000000108408000000000020000000001Consumidor Final              000000000039000000000000000000000000000000000000000000000000000000000000000000000000000000000000000000000000000000000000PES00010000001000000000000000020170221
201702210060000200000000000000010841000000000000000108418000000000020000000001Consumidor Final              000000000059000000000000000000000000000000000000000000000000000000000000000000000000000000000000000000000000000000000000PES00010000001000000000000000020170221
201702210060000200000000000000010842000000000000000108428000000000020000000001Consumidor Final              000000000045000000000000000000000000000000000000000000000000000000000000000000000000000000000000000000000000000000000000PES00010000001000000000000000020170221
201702210060000200000000000000010843000000000000000108438000000000020000000001Consumidor Final              000000000195000000000000000000000000000000000000000000000000000000000000000000000000000000000000000000000000000000000000PES00010000001000000000000000020170221
201702210060000200000000000000010844000000000000000108448000000000020000000001Consumidor Final              000000000105000000000000000000000000000000000000000000000000000000000000000000000000000000000000000000000000000000000000PES00010000001000000000000000020170221
201702210060000200000000000000010845000000000000000108458000000000020000000001Consumidor Final              000000000110000000000000000000000000000000000000000000000000000000000000000000000000000000000000000000000000000000000000PES00010000001000000000000000020170221
201702210060000200000000000000010846000000000000000108468000000000020000000001Consumidor Final              000000000075000000000000000000000000000000000000000000000000000000000000000000000000000000000000000000000000000000000000PES00010000001000000000000000020170221
201702210060000200000000000000010847000000000000000108478000000000020000000001Consumidor Final              000000000089000000000000000000000000000000000000000000000000000000000000000000000000000000000000000000000000000000000000PES00010000001000000000000000020170221
201702210060000200000000000000010848000000000000000108488000000000020000000001Consumidor Final              000000000425000000000000000000000000000000000000000000000000000000000000000000000000000000000000000000000000000000000000PES00010000001000000000000000020170221
201702210060000200000000000000010849000000000000000108498000000000020000000001Consumidor Final              000000000494000000000000000000000000000000000000000000000000000000000000000000000000000000000000000000000000000000000000PES00010000001000000000000000020170221
201702210060000200000000000000010850000000000000000108508000000000020000000001Consumidor Final              000000000476000000000000000000000000000000000000000000000000000000000000000000000000000000000000000000000000000000000000PES00010000001000000000000000020170221
201702210060000200000000000000010851000000000000000108518000000000020000000001Consumidor Final              000000000427500000000000000000000000000000000000000000000000000000000000000000000000000000000000000000000000000000000000PES00010000001000000000000000020170221
201702210060000200000000000000010852000000000000000108528000000000020000000001Consumidor Final              000000000300000000000000000000000000000000000000000000000000000000000000000000000000000000000000000000000000000000000000PES00010000001000000000000000020170221
201702210060000200000000000000010853000000000000000108538000000000020000000001Consumidor Final              000000000059000000000000000000000000000000000000000000000000000000000000000000000000000000000000000000000000000000000000PES00010000001000000000000000020170221
201702210060000200000000000000010854000000000000000108548000000000020000000001Consumidor Final              000000000040000000000000000000000000000000000000000000000000000000000000000000000000000000000000000000000000000000000000PES00010000001000000000000000020170221
201702210060000200000000000000010855000000000000000108558000000000020000000001Consumidor Final              000000000102000000000000000000000000000000000000000000000000000000000000000000000000000000000000000000000000000000000000PES00010000001000000000000000020170221
201702210060000200000000000000010856000000000000000108568000000000020000000001Consumidor Final              000000000144000000000000000000000000000000000000000000000000000000000000000000000000000000000000000000000000000000000000PES00010000001000000000000000020170221
201702210060000200000000000000010857000000000000000108578000000000020000000001Consumidor Final              000000000173000000000000000000000000000000000000000000000000000000000000000000000000000000000000000000000000000000000000PES00010000001000000000000000020170221
201702210060000200000000000000010858000000000000000108588000000000020000000001Consumidor Final              000000000079000000000000000000000000000000000000000000000000000000000000000000000000000000000000000000000000000000000000PES00010000001000000000000000020170221
201702210060000200000000000000010859000000000000000108598000000000020000000001Consumidor Final              000000000017500000000000000000000000000000000000000000000000000000000000000000000000000000000000000000000000000000000000PES00010000001000000000000000020170221
201702210060000200000000000000010860000000000000000108608000000000020000000001Consumidor Final              000000000155000000000000000000000000000000000000000000000000000000000000000000000000000000000000000000000000000000000000PES00010000001000000000000000020170221
201702210060000200000000000000010861000000000000000108618000000000020000000001Consumidor Final              000000000107500000000000000000000000000000000000000000000000000000000000000000000000000000000000000000000000000000000000PES00010000001000000000000000020170221
201702210060000200000000000000010862000000000000000108628000000000020000000001Consumidor Final              000000000100000000000000000000000000000000000000000000000000000000000000000000000000000000000000000000000000000000000000PES00010000001000000000000000020170221
