201704120060000200000000000000000009000000000000000000099600000000000010616245ESPINOZA RUBEN DAMASO         000000001280140000000000000000000000000000000000000000000000000000000000000000000000000000000000000000000000000000000000PES00010000001000000000000000000000000
201704250060000200000000000000000010000000000000000000109600000000000013284528RICALDI DELMAR VICTOR         000000000278066000000000000000000000000000000000000000000000000000000000000000000000000000000000000000000000000000000000PES00010000001000000000000000000000000
201704270060000200000000000000000011000000000000000000119600000000000031733149MARTINEZ MARIA CRISTINA       000000002614800000000000000000000000000000000000000000000000000000000000000000000000000000000000000000000000000000000000PES00010000001000000000000000000000000
