201606300010000100000000000020160604                8000000000030500008454Banco Santander Rio           000000000053500000000000000000000000000000000000000000000000000000000000000000000000000000000000000000000000000000000000PES00010000001000000000000000000000000000000000000000000                              000000000000000
201606300010000100000000000020160605                8000000000030500008454Banco Santander Rio           000000000046972000000000000000000000000000000000000000000000000000000000000000000000000000000000000000000000000000000000PES00010000001000000000000000000000000000000000000000000                              000000000000000
201607270010000400000000000000000026                8000000000020128382349SANCHEZ SERGIO ALBERTO        000000000642778000000000000000000000000000000000000000000000000000000000000000000000000000000000000000000000000000000000PES00010000001000000000000000000000000000000000000000000                              000000000000000
201607070010000500000000000000000468                8000000000020141765230SALUZZI MARIO LEONARDO MIGUE  000000001000000000000000000000000000000000000000000000000000000000000000000000000000000000000000000000000000000000000000PES00010000001000000000000000000000000000000000000000000                              000000000000000
201607290010012200000000000000012413                8000000000030559715081SUPERMAT SA                   000000004712777000000000000000000000000000000000000000000000000000000000000000000000136164000000000000000000000000000000PES00010000001000000000000000000000000000000000000000000                              000000000000000
201607140010011600000000000000015562                8000000000030559715081SUPERMAT SA                   000000000271114000000000000000000000000000000000000000000000000000000000000000000000007833000000000000000000000000000000PES00010000001000000000000000000000000000000000000000000                              000000000000000
201607110010009700000000000000020335                8000000000030559715081SUPERMAT SA                   000000000468745000000000000000000000000000000000000000000000000000000000000000000000013543000000000000000000000000000000PES00010000001000000000000000000000000000000000000000000                              000000000000000
201607210010000200000000000000016451                8000000000030673132622LA VELOZ HOTELES SA           000000000066000000000000000000000000000000000000000000000000000000000000000000000000000000000000000000000000000000000000PES00010000001000000000000000000000000000000000000000000                              000000000000000
201607170010001500000000000000009052                8000000000033562773539HOTEL PRESIDENTE SA           000000000219161000000000006161000000000000000000000000000000000000000000000000000000000000000000000000000000000000000000PES00010000001000000000000000000000000000000000000000000                              000000000000000
201607130010000100000000000000002252                8000000000030710633815TORO SRL                      000000000039000000000000000000000000000000000000000000000000000000000000000000000000000000000000000000000000000000000000PES00010000001000000000000000000000000000000000000000000                              000000000000000
201607300010000100000000000000002255                8000000000030710633815TORO SRL                      000000000073200000000000000000000000000000000000000000000000000000000000000000000000000000000000000000000000000000000000PES00010000001000000000000000000000000000000000000000000                              000000000000000
201607200010054800000000000000001425                8000000000030692138747FARMACITY SA                  000000000023450000000000000000000000000000000000000000000000000000000000000000000000000000000000000000000000000000000000PES00010000001000000000000000000000000000000000000000000                              000000000000000
201607150010054800000000000000001424                8000000000030692138747FARMACITY SA                  000000000029400000000000000000000000000000000000000000000000000000000000000000000000000000000000000000000000000000000000PES00010000001000000000000000000000000000000000000000000                              000000000000000
201607280010054800000000000000001432                8000000000030692138747FARMACITY SA                  000000000014700000000000000000000000000000000000000000000000000000000000000000000000000000000000000000000000000000000000PES00010000001000000000000000000000000000000000000000000                              000000000000000
201607010010001900000000000000000591                8000000000033681256089DROGUERIA SAN FRANCISCO SA    000000000160939000000000000000000000000000000000000000000000000000000000000000000000000000000000000000000000000000000000PES00010000001000000000000000000000000000000000000000000                              000000000000000
201607080010324700000000000000046919                8000000000030678774495OEPRADORA DE ESTACIONES DE SER000000000050001000000000010681000000000000000000000000000000000000000000000000000000000000000000000000000000000000000000PES00010000001000000000000000000000000000000000000000000                              000000000000000
201607190010000100000000000000000387                8000000000030714141348SERENDIPIA SRL                000000000086700000000000000000000000000000000000000000000000000000000000000000000000000000000000000000000000000000000000PES00010000001000000000000000000000000000000000000000000                              000000000000000
201607190010000100000000000000000386                8000000000030714141348SERENDIPIA SRL                000000000081400000000000000000000000000000000000000000000000000000000000000000000000000000000000000000000000000000000000PES00010000001000000000000000000000000000000000000000000                              000000000000000
201607190010000100000000000000000388                8000000000030714141348SERENDIPIA SRL                000000000093700000000000000000000000000000000000000000000000000000000000000000000000000000000000000000000000000000000000PES00010000001000000000000000000000000000000000000000000                              000000000000000
201607260010307100000000000000008642                8000000000030708772964JUMBO RETAIL ARGENTINA SA     000000000099792000000000000000000000000000000000000000002414000000000000000000000000000000000000000000000000000000000000PES00010000001000000000000000000000000000000000000000000                              000000000000000
201607030010000600000000000000070563                8000000000030710388411NUEVA ESTACION DE SERVICIOS BO000000000040000000000000010208000000000000000000000000000000000000000000000000000000000000000000000000000000000000000000PES00010000001000000000000000000000000000000000000000000                              000000000000000
201607120010000600000000000000071428                8000000000030710388411NUEVA ESTACION DE SERVICIOS BO000000000047000000000000012156000000000000000000000000000000000000000000000000000000000000000000000000000000000000000000PES00010000001000000000000000000000000000000000000000000                              000000000000000
201607180010000700000000000000001512                8000000000020231672355MEALLA JUAN CARLOS            000000000061600000000000000000000000000000000000000000000000000000000000000000000000000000000000000000000000000000000000PES00010000001000000000000000000000000000000000000000000                              000000000000000
201607060010000700000000000000000950                8000000000020231672355MEALLA JUAN CARLOS            000000000061600000000000000000000000000000000000000000000000000000000000000000000000000000000000000000000000000000000000PES00010000001000000000000000000000000000000000000000000                              000000000000000
201607260010002700000000000000021632                8000000000020104120084JOSE ALFREDO DOMINGUEZ        000000000065006000000000015636000000000000000000000000000000000000000000000000000000000000000000000000000000000000000000PES00010000001000000000000000000000000000000000000000000                              000000000000000
201607130010000300000000000000000384                8000000000027099933246MARTINEZ LUCIA ISABEL         000000000022500000000000000000000000000000000000000000000000000000000000000000000000000000000000000000000000000000000000PES00010000001000000000000000000000000000000000000000000                              000000000000000
