201804040010000200000000000000000014000000000000000000148000000000020393608227LA FUENTE AGUSTIN EMILIO      000000000037740000000000000000000000000000000000000000000000000000000000000000000000000000000000000000000000000000000000PES00010000001000000000000000000000000
201804190010000200000000000000000015000000000000000000158000000000030715355201MK DISTRUBUCIONES SRL         000000000471476000000000000000000000000000000000000000000000000000000000000000000000000000000000000000000000000000000000PES00010000001000000000000000000000000
201804190010000200000000000000000016000000000000000000168000000000030715355201MK DISTRUBUCIONES SRL         000000001390605000000000000000000000000000000000000000000000000000000000000000000000000000000000000000000000000000000000PES00010000001000000000000000000000000
201804190010000200000000000000000017000000000000000000178000000000030651559630COOPERADORA ASISTENCIAL DE LA 000000000595987000000000000000000000000000000000000000000000000000000000000000000000000000000000000000000000000000000000PES00010000001000000000000000000000000
201804190010000200000000000000000018000000000000000000188000000000027134146600GOMEZ MARIA EUGENIA           000000000132001000000000000000000000000000000000000000000000000000000000000000000000000000000000000000000000000000000000PES00010000001000000000000000000000000
201804250030000200000000000000000001000000000000000000018000000000030651559630COOPERADORA ASISTENCIAL DE LA 000000000595987000000000000000000000000000000000000000000000000000000000000000000000000000000000000000000000000000000000PES00010000001000000000000000000000000
201804250060000200000000000000000004000000000000000000048000000000030651559630COOPERADORA ASISTENCIAL DE LA 000000000595854000000000000000000000000000000000000000000000000000000000000000000000000000000000000000000000000000000000PES00010000001000000000000000000000000
201804250010000200000000000000000019000000000000000000198000000000020126984465AMBORT ALBERTO JUAN           000000000735099000000000000000000000000000000000000000000000000000000000000000000000000000000000000000000000000000000000PES00010000001000000000000000000000000
201804250010000200000000000000000020000000000000000000208000000000020126984465AMBORT ALBERTO JUAN           000000000744000000000000000000000000000000000000000000000000000000000000000000000000000000000000000000000000000000000000PES00010000001000000000000000000000000
201804270010000200000000000000000021000000000000000000218000000000027134146600GOMEZ MARIA EUGENIA           000000000128001000000000000000000000000000000000000000000000000000000000000000000000000000000000000000000000000000000000PES00010000001000000000000000000000000
201804270060000200000000000000000005000000000000000000058000000000027160084354GARCIA GABRIELA ESTER         000000000024030000000000000000000000000000000000000000000000000000000000000000000000000000000000000000000000000000000000PES00010000001000000000000000000000000
201804270010000200000000000000000022000000000000000000228000000000033681256089DROGUERIA SAN FRANCISCO S A   000000000025158000000000000000000000000000000000000000000000000000000000000000000000000000000000000000000000000000000000PES00010000001000000000000000000000000
201804280060000200000000000000000006000000000000000000068000000000030651559630COOPERADORA ASISTENCIAL DE LA 000000000096360000000000000000000000000000000000000000000000000000000000000000000000000000000000000000000000000000000000PES00010000001000000000000000000000000
201804300010000200000000000000000023000000000000000000238000000000027134146600GOMEZ MARIA EUGENIA           000000000132006000000000000000000000000000000000000000000000000000000000000000000000000000000000000000000000000000000000PES00010000001000000000000000000000000
