201607310010000100000000000020160701                8000000000030709447846ICBC                          000000000017666000000000000000000000000000000000000000000000000000000000000000000000000000000000000000000000000000000000PES00010000001000000000000000000000000000000000000000000                              000000000000000
201607310010000100000000000020160702                8000000000030709447846ICBC                          000000000047553000000000000000000000000000000000000000000000000000000000000000000000000000000000000000000000000000000000PES00010000001000000000000000000000000000000000000000000                              000000000000000
201607310010000100000000000020160703                8000000000030709447846ICBC                          000000000000474000000000000000000000000000000000000000000000000000000000000000000000000000000000000000000000000000000000PES00010000001000000000000000000000000000000000000000000                              000000000000000
201608260010000300000000000000000556                8000000000030710537484IMPRENTA MAESTRO SH           000000000021111000000000000000000000000000000000000000000000000000000000000000000000000610000000000000000000000000000000PES00010000001000000000000000000000000000000000000000000                              000000000000000
201608290010000700000000000000009983                8000000000030693762037DISTRICOMP SA                 000000001372152000000000000000000000000000000000000000000000000000000000000000000000000000000000000000000000000000000000PES00010000002000000000000000000000000000000000000000000                              000000000000000
201608290010000700000000001111119983                8000000000030693762037DISTRICOMP SA                 000000000208569000000000000000000000000000000000000000000000000000000000000000000000000000000000000000000000000000000000PES00010000001000000000000000000000000000000000000000000                              000000000000000
201608240010000400000000000000008903                8000000000030708949481KOLKE ARGENTINA SA            000000000694298000000000000000000000000000000000000000000000000000000000000000000000000000000000000000000000000000000000PES00010000001000000000000000000000000000000000000000000                              000000000000000
201608310010007200000000000000073009                8000000000030696173008TRADELOG SA                   000000000037119000000000000000000000000000000000000000000000000000000000000000000000000000000000000000000000000000000000PES00010000001000000000000000000000000000000000000000000                              000000000000000
201608310010007200000000000000073008                8000000000030696173008TRADELOG SA                   000000000027934000000000000000000000000000000000000000000000000000000000000000000000000000000000000000000000000000000000PES00010000001000000000000000000000000000000000000000000                              000000000000000
201608230010008900000000000000002018                8000000000030700082101DAMESCO SA                    000000000022947000000000000000000000000000000000000000000000000000000000000000000000000643000000000000000000000000000000PES00010000002000000000000000000000000000000000000000000                              000000000000000
201608230010008900000000001111112018                8000000000030700082101DAMESCO SA                    000000000003301000000000000000000000000000000000000000000000000000000000000000000000000000000000000000000000000000000000PES00010000001000000000000000000000000000000000000000000                              000000000000000
201608130010008900000000000000001990                8000000000030700082101DAMESCO SA                    000000000046097000000000000000000000000000000000000000000000000000000000000000000000001115000000000000000000000000000000PES00010000001000000000000000000000000000000000000000000                              000000000000000
201608030010008800000000000000001945                8000000000030700082101DAMESCO SA                    000000000029222000000000000000000000000000000000000000000000000000000000000000000000000707000000000000000000000000000000PES00010000001000000000000000000000000000000000000000000                              000000000000000
201608310010008600000000000000001161                8000000000030700082101DAMESCO SA                    000000000030041000000000000000000000000000000000000000000000000000000000000000000000000763000000000000000000000000000000PES00010000002000000000000000000000000000000000000000000                              000000000000000
201608310010008600000000001111111161                8000000000030700082101DAMESCO SA                    000000000001350000000000000000000000000000000000000000000000000000000000000000000000000000000000000000000000000000000000PES00010000001000000000000000000000000000000000000000000                              000000000000000
201608200010008900000000000000002013                8000000000030700082101DAMESCO SA                    000000000048316000000000000000000000000000000000000000000000000000000000000000000000001341000000000000000000000000000000PES00010000002000000000000000000000000000000000000000000                              000000000000000
201608200010008900000000001111112013                8000000000030700082101DAMESCO SA                    000000000006485000000000000000000000000000000000000000000000000000000000000000000000000000000000000000000000000000000000PES00010000001000000000000000000000000000000000000000000                              000000000000000
201608110010002100000000000000051052                8000000000030708334592M LOGISTICA Y DISTRIBUCION SRL000000000020000000000000005145000000000000000000000000000000000000000000000000000000000000000000000000000000000000000000PES00010000001000000000000000000000000000000000000000000                              000000000000000
201608240010002100000000000000052537                8000000000030708334592M LOGISTICA Y DISTRIBUCION SRL000000000030000000000000007718000000000000000000000000000000000000000000000000000000000000000000000000000000000000000000PES00010000001000000000000000000000000000000000000000000                              000000000000000
201608270010002100000000000000052918                8000000000030708334592M LOGISTICA Y DISTRIBUCION SRL000000000030000000000000007718000000000000000000000000000000000000000000000000000000000000000000000000000000000000000000PES00010000001000000000000000000000000000000000000000000                              000000000000000
201608310010002100000000000000053350                8000000000030708334592M LOGISTICA Y DISTRIBUCION SRL000000000030000000000000007718000000000000000000000000000000000000000000000000000000000000000000000000000000000000000000PES00010000001000000000000000000000000000000000000000000                              000000000000000
201608040010002100000000000000050143                8000000000030708334592M LOGISTICA Y DISTRIBUCION SRL000000000040000000000000010291000000000000000000000000000000000000000000000000000000000000000000000000000000000000000000PES00010000001000000000000000000000000000000000000000000                              000000000000000
201608140010002100000000000000051378                8000000000030708334592M LOGISTICA Y DISTRIBUCION SRL000000000030000000000000007718000000000000000000000000000000000000000000000000000000000000000000000000000000000000000000PES00010000001000000000000000000000000000000000000000000                              000000000000000
201608140010002100000000000000051320                8000000000030708334592M LOGISTICA Y DISTRIBUCION SRL000000000030000000000000005419000000000000000000000000000000000000000000000000000000000000000000000000000000000000000000PES00010000001000000000000000000000000000000000000000000                              000000000000000
201608120010002100000000000000051074                8000000000030708334592M LOGISTICA Y DISTRIBUCION SRL000000000040000000000000007225000000000000000000000000000000000000000000000000000000000000000000000000000000000000000000PES00010000001000000000000000000000000000000000000000000                              000000000000000
201608230010002100000000000000052339                8000000000030708334592M LOGISTICA Y DISTRIBUCION SRL000000000020000000000000003612000000000000000000000000000000000000000000000000000000000000000000000000000000000000000000PES00010000001000000000000000000000000000000000000000000                              000000000000000
201606270010002100000000000000045724                8000000000030708334592M LOGISTICA Y DISTRIBUCION SRL000000000030000000000000007718000000000000000000000000000000000000000000000000000000000000000000000000000000000000000000PES00010000001000000000000000000000000000000000000000000                              000000000000000
201606300010002100000000000000046153                8000000000030708334592M LOGISTICA Y DISTRIBUCION SRL000000000040000000000000010291000000000000000000000000000000000000000000000000000000000000000000000000000000000000000000PES00010000001000000000000000000000000000000000000000000                              000000000000000
201608030010002100000000000000050065                8000000000030708334592M LOGISTICA Y DISTRIBUCION SRL000000000040000000000000007225000000000000000000000000000000000000000000000000000000000000000000000000000000000000000000PES00010000001000000000000000000000000000000000000000000                              000000000000000
201608180010003400000000000000025137                8000000000030543356421JOSE MONTERO SA               000000000020000000000000004559000000000000000000000000000000000000000000000000000000000000000000000000000000000000000000PES00010000001000000000000000000000000000000000000000000                              000000000000000
201608260010003400000000000000025901                8000000000030543356421JOSE MONTERO SA               000000000030000000000000005419000000000000000000000000000000000000000000000000000000000000000000000000000000000000000000PES00010000001000000000000000000000000000000000000000000                              000000000000000
201608190010001500000000000000028351                8000000000030543365846ESTACION DE SERVICIO FLORENCIA000000000019999000000000003114000000000000000000000000000000000000000000000000000000000000000000000000000000000000000000PES00010000001000000000000000000000000000000000000000000                              000000000000000
