201702090060000200000000000000000001000000000000000000019900000000000000000000MARTINEZ MARIA CRISTINA       000000000006977000000000000000000000000000000000000000000000000000000000000000000000000000000000000000000000000000000000PES00010000001000000000000000000000000
201702130060000200000000000000000002000000000000000000029600000000000027520964CABANA RAUL FABIAN            000000000078368000000000000000000000000000000000000000000000000000000000000000000000000000000000000000000000000000000000PES00010000001000000000000000000000000
201702210060000200000000000000000003000000000000000000039600000000000035479703LEMIR MAURICIO ALEJANDRO      000000000038355000000000000000000000000000000000000000000000000000000000000000000000000000000000000000000000000000000000PES00010000001000000000000000000000000
