201608020060000200000000000000000059000000000000000000599600000000000028260869FILI NICOLAS ANTONIO          000000000035000000000000000000000000000000000000000000035000000000000000000000000000000000000000000000000000000000000000PES00010000001E00000000000000020160802
201608110060000200000000000000000060000000000000000000609600000000000048337527TEVEZ PEREZ LUCAS JESUS       000000000035000000000000000000000000000000000000000000035000000000000000000000000000000000000000000000000000000000000000PES00010000001E00000000000000020160811
201608110060000200000000000000000061000000000000000000619600000000000045180645GALLARDO BERTUZZI MARTIN      000000000035000000000000000000000000000000000000000000035000000000000000000000000000000000000000000000000000000000000000PES00010000001E00000000000000020160811
201608190060000200000000000000000062000000000000000000628000000000030543364610CIRCULO MEDICO DE SALTA       000000003784448000000000000000000000000000000000000003784448000000000000000000000000000000000000000000000000000000000000PES00010000001E00000000000000020160819
201608220060000200000000000000000063000000000000000000639600000000000012657125BARZOLA JESUS BEATRIZ         000000000020000000000000000000000000000000000000000000000000000000000000000000000000000000000000000000000000000000000000PES00010000001000000000000000020160822
201608300060000200000000000000000064000000000000000000648000000000020167350748GONZALEZ ROLANDO JOSE         000000000035000000000000000000000000000000000000000000035000000000000000000000000000000000000000000000000000000000000000PES00010000001E00000000000000020160830
201608310060000200000000000000000065000000000000000000658000000000030543364610CIRCULO MEDICO DE SALTA       000000000465000000000000000000000000000000000000000000465000000000000000000000000000000000000000000000000000000000000000PES00010000001E00000000000000020160831
201608310060000200000000000000000066000000000000000000668000000000033690722009ASOCIACION SALTENA DE ORTOPEDI000000008161325000000000000000000000000000000000000008161325000000000000000000000000000000000000000000000000000000000000PES00010000001E00000000000000020160831
201608310060000200000000000000000067000000000000000000678000000000033690722009ASOCIACION SALTENA DE ORTOPEDI000000001874400000000000000000000000000000000000000001874400000000000000000000000000000000000000000000000000000000000000PES00010000001E00000000000000020160831
