201608090060000200000000000000000058000000000000000000589900000000000000000000Horacio Hoyos                 000000000092300000000000000000000000000000000000000000000000000000000000000000000000000000000000000000000000000000000000PES00010000001000000000000000000000000
201608090060000200000000000000000059000000000000000000599900000000000000000000Horacio Hoyos                 000000000044000000000000000000000000000000000000000000000000000000000000000000000000000000000000000000000000000000000000PES00010000001000000000000000000000000
201608260010000200000000000000000078000000000000000000788000000000020138441327FEDRE DANIEL ELDO             000000000996435000000000000000000000000000000000000000000000000000000000000000000000000000000000000000000000000000000000PES00010000001000000000000000020160826
201608260010000200000000000000000079000000000000000000798000000000030653431755EMPRESA DE SERVICIOS Y OBRAS S000000001491688000000000000000000000000000000000000000000000000000000000000000000000000000000000000000000000000000000000PES00010000001000000000000000020160826
201608260010000200000000000000000080000000000000000000808000000000030711478007GRIVA S.R.L.                  000000001853003000000000000000000000000000000000000000000000000000000000000000000000000000000000000000000000000000000000PES00010000002000000000000000000000000
201608290010000200000000000000000081000000000000000000818000000000027246365623TORREZ ANDREA PAOLA           000000000673700000000000000000000000000000000000000000000000000000000000000000000000000000000000000000000000000000000000PES00010000001000000000000000000000000
201608290010000200000000000000000082000000000000000000828000000000020268994476MORENO FLEMING SEBASTIAN      000000000498036000000000000000000000000000000000000000000000000000000000000000000000000000000000000000000000000000000000PES00010000001000000000000000020160829
