201608010060000200000000000000007032000000000000000070328000000000020000000001Consumidor Final              000000000060000000000000000000000000000000000000000000000000000000000000000000000000000000000000000000000000000000000000PES00010000001000000000000000020160801
201608010060000200000000000000007033000000000000000070338000000000020000000001Consumidor Final              000000000040000000000000000000000000000000000000000000000000000000000000000000000000000000000000000000000000000000000000PES00010000001000000000000000020160801
201608010060000200000000000000007034000000000000000070348000000000020000000001Consumidor Final              000000000080000000000000000000000000000000000000000000000000000000000000000000000000000000000000000000000000000000000000PES00010000001000000000000000020160801
201608010060000200000000000000007035000000000000000070358000000000020000000001Consumidor Final              000000000135000000000000000000000000000000000000000000000000000000000000000000000000000000000000000000000000000000000000PES00010000001000000000000000020160801
201608010060000200000000000000007036000000000000000070368000000000020000000001Consumidor Final              000000000040000000000000000000000000000000000000000000000000000000000000000000000000000000000000000000000000000000000000PES00010000001000000000000000020160801
201608010060000200000000000000007037000000000000000070378000000000020000000001Consumidor Final              000000000044000000000000000000000000000000000000000000000000000000000000000000000000000000000000000000000000000000000000PES00010000001000000000000000020160801
201608010060000200000000000000007038000000000000000070388000000000020000000001Consumidor Final              000000000045000000000000000000000000000000000000000000000000000000000000000000000000000000000000000000000000000000000000PES00010000001000000000000000020160801
201608010060000200000000000000007039000000000000000070398000000000020000000001Consumidor Final              000000000059000000000000000000000000000000000000000000000000000000000000000000000000000000000000000000000000000000000000PES00010000001000000000000000020160801
201608010060000200000000000000007040000000000000000070408000000000020000000001Consumidor Final              000000000104000000000000000000000000000000000000000000000000000000000000000000000000000000000000000000000000000000000000PES00010000001000000000000000020160801
201608010060000200000000000000007041000000000000000070418000000000020000000001Consumidor Final              000000000005000000000000000000000000000000000000000000000000000000000000000000000000000000000000000000000000000000000000PES00010000001000000000000000020160801
201608010060000200000000000000007042000000000000000070428000000000020000000001Consumidor Final              000000000118000000000000000000000000000000000000000000000000000000000000000000000000000000000000000000000000000000000000PES00010000001000000000000000020160801
201608010060000200000000000000007043000000000000000070438000000000020000000001Consumidor Final              000000000060500000000000000000000000000000000000000000000000000000000000000000000000000000000000000000000000000000000000PES00010000001000000000000000020160801
201608010060000200000000000000007044000000000000000070448000000000020000000001Consumidor Final              000000000114000000000000000000000000000000000000000000000000000000000000000000000000000000000000000000000000000000000000PES00010000001000000000000000020160801
201608010060000200000000000000007045000000000000000070458000000000020000000001Consumidor Final              000000000032500000000000000000000000000000000000000000000000000000000000000000000000000000000000000000000000000000000000PES00010000001000000000000000020160801
201608010060000200000000000000007046000000000000000070468000000000020000000001Consumidor Final              000000000449000000000000000000000000000000000000000000000000000000000000000000000000000000000000000000000000000000000000PES00010000001000000000000000020160801
201608010060000200000000000000007047000000000000000070478000000000020000000001Consumidor Final              000000000058000000000000000000000000000000000000000000000000000000000000000000000000000000000000000000000000000000000000PES00010000001000000000000000020160801
201608010060000200000000000000007048000000000000000070488000000000020000000001Consumidor Final              000000000059000000000000000000000000000000000000000000000000000000000000000000000000000000000000000000000000000000000000PES00010000001000000000000000020160801
201608010060000200000000000000007049000000000000000070498000000000020000000001Consumidor Final              000000000051000000000000000000000000000000000000000000000000000000000000000000000000000000000000000000000000000000000000PES00010000001000000000000000020160801
201608010060000200000000000000007050000000000000000070508000000000020000000001Consumidor Final              000000000048000000000000000000000000000000000000000000000000000000000000000000000000000000000000000000000000000000000000PES00010000001000000000000000020160801
201608010060000200000000000000007051000000000000000070518000000000020000000001Consumidor Final              000000000065000000000000000000000000000000000000000000000000000000000000000000000000000000000000000000000000000000000000PES00010000001000000000000000020160801
201608010060000200000000000000007052000000000000000070528000000000020000000001Consumidor Final              000000000032500000000000000000000000000000000000000000000000000000000000000000000000000000000000000000000000000000000000PES00010000001000000000000000020160801
201608010060000200000000000000007053000000000000000070538000000000020000000001Consumidor Final              000000000050000000000000000000000000000000000000000000000000000000000000000000000000000000000000000000000000000000000000PES00010000001000000000000000020160801
201608010060000200000000000000007054000000000000000070548000000000020000000001Consumidor Final              000000000045000000000000000000000000000000000000000000000000000000000000000000000000000000000000000000000000000000000000PES00010000001000000000000000020160801
201608010060000200000000000000007055000000000000000070558000000000020000000001Consumidor Final              000000000033000000000000000000000000000000000000000000000000000000000000000000000000000000000000000000000000000000000000PES00010000001000000000000000020160801
201608010060000200000000000000007056000000000000000070568000000000020000000001Consumidor Final              000000000045000000000000000000000000000000000000000000000000000000000000000000000000000000000000000000000000000000000000PES00010000001000000000000000020160801
201608010060000200000000000000007057000000000000000070578000000000020000000001Consumidor Final              000000000194000000000000000000000000000000000000000000000000000000000000000000000000000000000000000000000000000000000000PES00010000001000000000000000020160801
201608010060000200000000000000007058000000000000000070588000000000020000000001Consumidor Final              000000000110000000000000000000000000000000000000000000000000000000000000000000000000000000000000000000000000000000000000PES00010000001000000000000000020160801
201608010060000200000000000000007059000000000000000070598000000000020000000001Consumidor Final              000000000058000000000000000000000000000000000000000000000000000000000000000000000000000000000000000000000000000000000000PES00010000001000000000000000020160801
201608010060000200000000000000007060000000000000000070608000000000020000000001Consumidor Final              000000000100000000000000000000000000000000000000000000000000000000000000000000000000000000000000000000000000000000000000PES00010000001000000000000000020160801
201608010060000200000000000000007061000000000000000070618000000000020000000001Consumidor Final              000000000025000000000000000000000000000000000000000000000000000000000000000000000000000000000000000000000000000000000000PES00010000001000000000000000020160801
201608010060000200000000000000007062000000000000000070628000000000020000000001Consumidor Final              000000000025000000000000000000000000000000000000000000000000000000000000000000000000000000000000000000000000000000000000PES00010000001000000000000000020160801
201608010060000200000000000000007063000000000000000070638000000000020000000001Consumidor Final              000000000125000000000000000000000000000000000000000000000000000000000000000000000000000000000000000000000000000000000000PES00010000001000000000000000020160801
201608010060000200000000000000007064000000000000000070648000000000020000000001Consumidor Final              000000000064000000000000000000000000000000000000000000000000000000000000000000000000000000000000000000000000000000000000PES00010000001000000000000000020160801
201608010060000200000000000000007065000000000000000070658000000000020000000001Consumidor Final              000000000085000000000000000000000000000000000000000000000000000000000000000000000000000000000000000000000000000000000000PES00010000001000000000000000020160801
201608010060000200000000000000007066000000000000000070668000000000020000000001Consumidor Final              000000000065000000000000000000000000000000000000000000000000000000000000000000000000000000000000000000000000000000000000PES00010000001000000000000000020160801
201608010010000200000000000000000057000000000000000000578000000000020132775053Scally,Tomas Kevin            000000000105000000000000000000000000000000000000000000000000000000000000000000000000000000000000000000000000000000000000PES00010000001000000000000000020160801
201608020060000200000000000000007067000000000000000070678000000000020000000001Consumidor Final              000000000048000000000000000000000000000000000000000000000000000000000000000000000000000000000000000000000000000000000000PES00010000001000000000000000020160802
201608020060000200000000000000007068000000000000000070688000000000020000000001Consumidor Final              000000000076500000000000000000000000000000000000000000000000000000000000000000000000000000000000000000000000000000000000PES00010000001000000000000000020160802
201608020060000200000000000000007069000000000000000070698000000000020000000001Consumidor Final              000000000132500000000000000000000000000000000000000000000000000000000000000000000000000000000000000000000000000000000000PES00010000001000000000000000020160802
201608020060000200000000000000007070000000000000000070708000000000020000000001Consumidor Final              000000000048000000000000000000000000000000000000000000000000000000000000000000000000000000000000000000000000000000000000PES00010000001000000000000000020160802
201608020060000200000000000000007071000000000000000070718000000000020000000001Consumidor Final              000000000089000000000000000000000000000000000000000000000000000000000000000000000000000000000000000000000000000000000000PES00010000001000000000000000020160802
201608020060000200000000000000007072000000000000000070728000000000020000000001Consumidor Final              000000000095000000000000000000000000000000000000000000000000000000000000000000000000000000000000000000000000000000000000PES00010000001000000000000000020160802
201608020060000200000000000000007073000000000000000070738000000000020000000001Consumidor Final              000000000060000000000000000000000000000000000000000000000000000000000000000000000000000000000000000000000000000000000000PES00010000001000000000000000020160802
201608020060000200000000000000007074000000000000000070748000000000020000000001Consumidor Final              000000000080000000000000000000000000000000000000000000000000000000000000000000000000000000000000000000000000000000000000PES00010000001000000000000000020160802
201608020060000200000000000000007075000000000000000070758000000000020000000001Consumidor Final              000000000050000000000000000000000000000000000000000000000000000000000000000000000000000000000000000000000000000000000000PES00010000001000000000000000020160802
201608020060000200000000000000007076000000000000000070768000000000020000000001Consumidor Final              000000000048000000000000000000000000000000000000000000000000000000000000000000000000000000000000000000000000000000000000PES00010000001000000000000000020160802
201608020060000200000000000000007077000000000000000070778000000000020000000001Consumidor Final              000000000052500000000000000000000000000000000000000000000000000000000000000000000000000000000000000000000000000000000000PES00010000001000000000000000020160802
201608020060000200000000000000007078000000000000000070788000000000020000000001Consumidor Final              000000000051000000000000000000000000000000000000000000000000000000000000000000000000000000000000000000000000000000000000PES00010000001000000000000000020160802
201608020060000200000000000000007079000000000000000070798000000000020000000001Consumidor Final              000000000020000000000000000000000000000000000000000000000000000000000000000000000000000000000000000000000000000000000000PES00010000001000000000000000020160802
201608020060000200000000000000007080000000000000000070808000000000020000000001Consumidor Final              000000000050000000000000000000000000000000000000000000000000000000000000000000000000000000000000000000000000000000000000PES00010000001000000000000000020160802
201608020060000200000000000000007081000000000000000070818000000000020000000001Consumidor Final              000000000060000000000000000000000000000000000000000000000000000000000000000000000000000000000000000000000000000000000000PES00010000001000000000000000020160802
201608020060000200000000000000007082000000000000000070828000000000020000000001Consumidor Final              000000000158500000000000000000000000000000000000000000000000000000000000000000000000000000000000000000000000000000000000PES00010000001000000000000000020160802
201608020060000200000000000000007083000000000000000070838000000000020000000001Consumidor Final              000000000255000000000000000000000000000000000000000000000000000000000000000000000000000000000000000000000000000000000000PES00010000001000000000000000020160802
201608020060000200000000000000007084000000000000000070848000000000020000000001Consumidor Final              000000000079000000000000000000000000000000000000000000000000000000000000000000000000000000000000000000000000000000000000PES00010000001000000000000000020160802
201608020060000200000000000000007085000000000000000070858000000000020000000001Consumidor Final              000000000062500000000000000000000000000000000000000000000000000000000000000000000000000000000000000000000000000000000000PES00010000001000000000000000020160802
201608020060000200000000000000007086000000000000000070868000000000020000000001Consumidor Final              000000000048000000000000000000000000000000000000000000000000000000000000000000000000000000000000000000000000000000000000PES00010000001000000000000000020160802
201608020060000200000000000000007087000000000000000070878000000000020000000001Consumidor Final              000000000093000000000000000000000000000000000000000000000000000000000000000000000000000000000000000000000000000000000000PES00010000001000000000000000020160802
201608020060000200000000000000007088000000000000000070888000000000020000000001Consumidor Final              000000000125000000000000000000000000000000000000000000000000000000000000000000000000000000000000000000000000000000000000PES00010000001000000000000000020160802
201608020060000200000000000000007089000000000000000070898000000000020000000001Consumidor Final              000000000085000000000000000000000000000000000000000000000000000000000000000000000000000000000000000000000000000000000000PES00010000001000000000000000020160802
201608030060000200000000000000007090000000000000000070908000000000020000000001Consumidor Final              000000000094000000000000000000000000000000000000000000000000000000000000000000000000000000000000000000000000000000000000PES00010000001000000000000000020160803
201608030060000200000000000000007091000000000000000070918000000000020000000001Consumidor Final              000000000040000000000000000000000000000000000000000000000000000000000000000000000000000000000000000000000000000000000000PES00010000001000000000000000020160803
201608030060000200000000000000007092000000000000000070928000000000020000000001Consumidor Final              000000000070000000000000000000000000000000000000000000000000000000000000000000000000000000000000000000000000000000000000PES00010000001000000000000000020160803
201608030060000200000000000000007093000000000000000070938000000000020000000001Consumidor Final              000000000099000000000000000000000000000000000000000000000000000000000000000000000000000000000000000000000000000000000000PES00010000001000000000000000020160803
201608030060000200000000000000007094000000000000000070948000000000020000000001Consumidor Final              000000000020000000000000000000000000000000000000000000000000000000000000000000000000000000000000000000000000000000000000PES00010000001000000000000000020160803
201608030060000200000000000000007095000000000000000070958000000000020000000001Consumidor Final              000000000159000000000000000000000000000000000000000000000000000000000000000000000000000000000000000000000000000000000000PES00010000001000000000000000020160803
201608030060000200000000000000007096000000000000000070968000000000020000000001Consumidor Final              000000000051000000000000000000000000000000000000000000000000000000000000000000000000000000000000000000000000000000000000PES00010000001000000000000000020160803
201608030060000200000000000000007097000000000000000070978000000000020000000001Consumidor Final              000000000062500000000000000000000000000000000000000000000000000000000000000000000000000000000000000000000000000000000000PES00010000001000000000000000020160803
201608030060000200000000000000007098000000000000000070988000000000020000000001Consumidor Final              000000000040000000000000000000000000000000000000000000000000000000000000000000000000000000000000000000000000000000000000PES00010000001000000000000000020160803
201608030060000200000000000000007099000000000000000070998000000000020000000001Consumidor Final              000000000017500000000000000000000000000000000000000000000000000000000000000000000000000000000000000000000000000000000000PES00010000001000000000000000020160803
201608030060000200000000000000007100000000000000000071008000000000020000000001Consumidor Final              000000000050000000000000000000000000000000000000000000000000000000000000000000000000000000000000000000000000000000000000PES00010000001000000000000000020160803
201608030060000200000000000000007101000000000000000071018000000000020000000001Consumidor Final              000000000107000000000000000000000000000000000000000000000000000000000000000000000000000000000000000000000000000000000000PES00010000001000000000000000020160803
201608030060000200000000000000007102000000000000000071029600000000020000000001Consumidor Final              000000000040000000000000000000000000000000000000000000000000000000000000000000000000000000000000000000000000000000000000PES00010000001000000000000000020160803
201608030060000200000000000000007103000000000000000071038000000000020000000001Consumidor Final              000000000069000000000000000000000000000000000000000000000000000000000000000000000000000000000000000000000000000000000000PES00010000001000000000000000020160803
201608030060000200000000000000007104000000000000000071048000000000020000000001Consumidor Final              000000000300000000000000000000000000000000000000000000000000000000000000000000000000000000000000000000000000000000000000PES00010000001000000000000000020160803
201608030060000200000000000000007105000000000000000071058000000000020000000001Consumidor Final              000000000082000000000000000000000000000000000000000000000000000000000000000000000000000000000000000000000000000000000000PES00010000001000000000000000020160803
201608030060000200000000000000007106000000000000000071068000000000020000000001Consumidor Final              000000000061000000000000000000000000000000000000000000000000000000000000000000000000000000000000000000000000000000000000PES00010000001000000000000000020160803
201608030060000200000000000000007107000000000000000071078000000000020000000001Consumidor Final              000000000070000000000000000000000000000000000000000000000000000000000000000000000000000000000000000000000000000000000000PES00010000001000000000000000020160803
201608030060000200000000000000007108000000000000000071088000000000020000000001Consumidor Final              000000000110000000000000000000000000000000000000000000000000000000000000000000000000000000000000000000000000000000000000PES00010000001000000000000000020160803
201608030060000200000000000000007109000000000000000071098000000000020000000001Consumidor Final              000000000061000000000000000000000000000000000000000000000000000000000000000000000000000000000000000000000000000000000000PES00010000001000000000000000020160803
201608030060000200000000000000007110000000000000000071108000000000020000000001Consumidor Final              000000000015000000000000000000000000000000000000000000000000000000000000000000000000000000000000000000000000000000000000PES00010000001000000000000000020160803
201608030060000200000000000000007111000000000000000071118000000000020000000001Consumidor Final              000000000095000000000000000000000000000000000000000000000000000000000000000000000000000000000000000000000000000000000000PES00010000001000000000000000020160803
201608030060000200000000000000007112000000000000000071128000000000020000000001Consumidor Final              000000000322500000000000000000000000000000000000000000000000000000000000000000000000000000000000000000000000000000000000PES00010000001000000000000000020160803
201608030060000200000000000000007113000000000000000071138000000000020000000001Consumidor Final              000000000480000000000000000000000000000000000000000000000000000000000000000000000000000000000000000000000000000000000000PES00010000001000000000000000020160803
201608030060000200000000000000007114000000000000000071148000000000020000000001Consumidor Final              000000000099000000000000000000000000000000000000000000000000000000000000000000000000000000000000000000000000000000000000PES00010000001000000000000000020160803
201608030060000200000000000000007115000000000000000071158000000000020000000001Consumidor Final              000000000074000000000000000000000000000000000000000000000000000000000000000000000000000000000000000000000000000000000000PES00010000001000000000000000020160803
201608030060000200000000000000007116000000000000000071168000000000020000000001Consumidor Final              000000000051000000000000000000000000000000000000000000000000000000000000000000000000000000000000000000000000000000000000PES00010000001000000000000000020160803
201608030060000200000000000000007117000000000000000071178000000000020000000001Consumidor Final              000000000135000000000000000000000000000000000000000000000000000000000000000000000000000000000000000000000000000000000000PES00010000001000000000000000020160803
201608030060000200000000000000007118000000000000000071188000000000020000000001Consumidor Final              000000000025000000000000000000000000000000000000000000000000000000000000000000000000000000000000000000000000000000000000PES00010000001000000000000000020160803
201608030060000200000000000000007119000000000000000071198000000000020000000001Consumidor Final              000000000155000000000000000000000000000000000000000000000000000000000000000000000000000000000000000000000000000000000000PES00010000001000000000000000020160803
201608030060000200000000000000007120000000000000000071208000000000020000000001Consumidor Final              000000000051000000000000000000000000000000000000000000000000000000000000000000000000000000000000000000000000000000000000PES00010000001000000000000000020160803
201608030060000200000000000000007121000000000000000071218000000000020000000001Consumidor Final              000000000135000000000000000000000000000000000000000000000000000000000000000000000000000000000000000000000000000000000000PES00010000001000000000000000020160803
201608040060000200000000000000007122000000000000000071228000000000020000000001Consumidor Final              000000000030000000000000000000000000000000000000000000000000000000000000000000000000000000000000000000000000000000000000PES00010000001000000000000000020160804
201608040060000200000000000000007123000000000000000071238000000000020000000001Consumidor Final              000000000037000000000000000000000000000000000000000000000000000000000000000000000000000000000000000000000000000000000000PES00010000001000000000000000020160804
201608040060000200000000000000007124000000000000000071248000000000020000000001Consumidor Final              000000000025000000000000000000000000000000000000000000000000000000000000000000000000000000000000000000000000000000000000PES00010000001000000000000000020160804
201608040060000200000000000000007125000000000000000071258000000000020000000001Consumidor Final              000000000048000000000000000000000000000000000000000000000000000000000000000000000000000000000000000000000000000000000000PES00010000001000000000000000020160804
201608040060000200000000000000007126000000000000000071268000000000020000000001Consumidor Final              000000000048000000000000000000000000000000000000000000000000000000000000000000000000000000000000000000000000000000000000PES00010000001000000000000000020160804
201608040060000200000000000000007127000000000000000071278000000000020000000001Consumidor Final              000000000057500000000000000000000000000000000000000000000000000000000000000000000000000000000000000000000000000000000000PES00010000001000000000000000020160804
201608040060000200000000000000007128000000000000000071288000000000020000000001Consumidor Final              000000000080000000000000000000000000000000000000000000000000000000000000000000000000000000000000000000000000000000000000PES00010000001000000000000000020160804
201608040060000200000000000000007129000000000000000071298000000000020000000001Consumidor Final              000000000048000000000000000000000000000000000000000000000000000000000000000000000000000000000000000000000000000000000000PES00010000001000000000000000020160804
201608040060000200000000000000007130000000000000000071308000000000020000000001Consumidor Final              000000000246500000000000000000000000000000000000000000000000000000000000000000000000000000000000000000000000000000000000PES00010000001000000000000000020160804
201608040060000200000000000000007131000000000000000071318000000000020000000001Consumidor Final              000000000040000000000000000000000000000000000000000000000000000000000000000000000000000000000000000000000000000000000000PES00010000001000000000000000020160804
201608040060000200000000000000007132000000000000000071328000000000020000000001Consumidor Final              000000000036000000000000000000000000000000000000000000000000000000000000000000000000000000000000000000000000000000000000PES00010000001000000000000000020160804
201608040060000200000000000000007133000000000000000071338000000000020000000001Consumidor Final              000000000110000000000000000000000000000000000000000000000000000000000000000000000000000000000000000000000000000000000000PES00010000001000000000000000020160804
201608040060000200000000000000007134000000000000000071348000000000020000000001Consumidor Final              000000000051000000000000000000000000000000000000000000000000000000000000000000000000000000000000000000000000000000000000PES00010000001000000000000000020160804
201608040060000200000000000000007135000000000000000071358000000000020000000001Consumidor Final              000000000080000000000000000000000000000000000000000000000000000000000000000000000000000000000000000000000000000000000000PES00010000001000000000000000020160804
201608040060000200000000000000007136000000000000000071368000000000020000000001Consumidor Final              000000000115000000000000000000000000000000000000000000000000000000000000000000000000000000000000000000000000000000000000PES00010000001000000000000000020160804
201608040060000200000000000000007137000000000000000071378000000000020000000001Consumidor Final              000000000028000000000000000000000000000000000000000000000000000000000000000000000000000000000000000000000000000000000000PES00010000001000000000000000020160804
201608040060000200000000000000007138000000000000000071388000000000020000000001Consumidor Final              000000000195000000000000000000000000000000000000000000000000000000000000000000000000000000000000000000000000000000000000PES00010000001000000000000000020160804
201608040060000200000000000000007139000000000000000071398000000000020000000001Consumidor Final              000000000025000000000000000000000000000000000000000000000000000000000000000000000000000000000000000000000000000000000000PES00010000001000000000000000020160804
201608040060000200000000000000007140000000000000000071408000000000020000000001Consumidor Final              000000000180000000000000000000000000000000000000000000000000000000000000000000000000000000000000000000000000000000000000PES00010000001000000000000000020160804
201608040060000200000000000000007141000000000000000071418000000000020000000001Consumidor Final              000000000051000000000000000000000000000000000000000000000000000000000000000000000000000000000000000000000000000000000000PES00010000001000000000000000020160804
201608040060000200000000000000007142000000000000000071428000000000020000000001Consumidor Final              000000000076000000000000000000000000000000000000000000000000000000000000000000000000000000000000000000000000000000000000PES00010000001000000000000000020160804
201608050060000200000000000000007143000000000000000071438000000000020000000001Consumidor Final              000000000062500000000000000000000000000000000000000000000000000000000000000000000000000000000000000000000000000000000000PES00010000001000000000000000020160805
201608050060000200000000000000007145000000000000000071458000000000020000000001Consumidor Final              000000000310000000000000000000000000000000000000000000000000000000000000000000000000000000000000000000000000000000000000PES00010000001000000000000000020160805
201608050060000200000000000000007146000000000000000071468000000000020000000001Consumidor Final              000000000115000000000000000000000000000000000000000000000000000000000000000000000000000000000000000000000000000000000000PES00010000001000000000000000020160805
201608050060000200000000000000007147000000000000000071478000000000020000000001Consumidor Final              000000000105000000000000000000000000000000000000000000000000000000000000000000000000000000000000000000000000000000000000PES00010000001000000000000000020160805
201608050060000200000000000000007148000000000000000071488000000000020000000001Consumidor Final              000000000315000000000000000000000000000000000000000000000000000000000000000000000000000000000000000000000000000000000000PES00010000001000000000000000020160805
201608050060000200000000000000007149000000000000000071498000000000020000000001Consumidor Final              000000000070000000000000000000000000000000000000000000000000000000000000000000000000000000000000000000000000000000000000PES00010000001000000000000000020160805
201608050060000200000000000000007150000000000000000071508000000000020000000001Consumidor Final              000000000085000000000000000000000000000000000000000000000000000000000000000000000000000000000000000000000000000000000000PES00010000001000000000000000020160805
201608050060000200000000000000007151000000000000000071518000000000020000000001Consumidor Final              000000000039000000000000000000000000000000000000000000000000000000000000000000000000000000000000000000000000000000000000PES00010000001000000000000000020160805
201608050060000200000000000000007152000000000000000071528000000000020000000001Consumidor Final              000000000145000000000000000000000000000000000000000000000000000000000000000000000000000000000000000000000000000000000000PES00010000001000000000000000020160805
201608050060000200000000000000007153000000000000000071538000000000020000000001Consumidor Final              000000000024000000000000000000000000000000000000000000000000000000000000000000000000000000000000000000000000000000000000PES00010000001000000000000000020160805
201608050060000200000000000000007154000000000000000071548000000000020000000001Consumidor Final              000000000038000000000000000000000000000000000000000000000000000000000000000000000000000000000000000000000000000000000000PES00010000001000000000000000020160805
201608050060000200000000000000007155000000000000000071558000000000020000000001Consumidor Final              000000000051000000000000000000000000000000000000000000000000000000000000000000000000000000000000000000000000000000000000PES00010000001000000000000000020160805
201608050060000200000000000000007156000000000000000071568000000000020000000001Consumidor Final              000000000040000000000000000000000000000000000000000000000000000000000000000000000000000000000000000000000000000000000000PES00010000001000000000000000020160805
201608050060000200000000000000007157000000000000000071578000000000020000000001Consumidor Final              000000000175000000000000000000000000000000000000000000000000000000000000000000000000000000000000000000000000000000000000PES00010000001000000000000000020160805
201608050060000200000000000000007158000000000000000071588000000000020000000001Consumidor Final              000000000160000000000000000000000000000000000000000000000000000000000000000000000000000000000000000000000000000000000000PES00010000001000000000000000020160805
201608050060000200000000000000007159000000000000000071598000000000020000000001Consumidor Final              000000000106500000000000000000000000000000000000000000000000000000000000000000000000000000000000000000000000000000000000PES00010000001000000000000000020160805
201608060060000200000000000000007160000000000000000071608000000000020000000001Consumidor Final              000000000074000000000000000000000000000000000000000000000000000000000000000000000000000000000000000000000000000000000000PES00010000001000000000000000020160806
201608060060000200000000000000007161000000000000000071618000000000020000000001Consumidor Final              000000000155000000000000000000000000000000000000000000000000000000000000000000000000000000000000000000000000000000000000PES00010000001000000000000000020160806
201608060060000200000000000000007162000000000000000071628000000000020000000001Consumidor Final              000000000168000000000000000000000000000000000000000000000000000000000000000000000000000000000000000000000000000000000000PES00010000001000000000000000020160806
201608060060000200000000000000007163000000000000000071638000000000020000000001Consumidor Final              000000000050000000000000000000000000000000000000000000000000000000000000000000000000000000000000000000000000000000000000PES00010000001000000000000000020160806
201608060060000200000000000000007164000000000000000071648000000000020000000001Consumidor Final              000000000039000000000000000000000000000000000000000000000000000000000000000000000000000000000000000000000000000000000000PES00010000001000000000000000020160806
201608060060000200000000000000007165000000000000000071658000000000020000000001Consumidor Final              000000000025000000000000000000000000000000000000000000000000000000000000000000000000000000000000000000000000000000000000PES00010000001000000000000000020160806
201608060060000200000000000000007166000000000000000071668000000000020000000001Consumidor Final              000000000015000000000000000000000000000000000000000000000000000000000000000000000000000000000000000000000000000000000000PES00010000001000000000000000020160806
201608060060000200000000000000007167000000000000000071678000000000020000000001Consumidor Final              000000000051000000000000000000000000000000000000000000000000000000000000000000000000000000000000000000000000000000000000PES00010000001000000000000000020160806
201608060060000200000000000000007168000000000000000071688000000000020000000001Consumidor Final              000000000094000000000000000000000000000000000000000000000000000000000000000000000000000000000000000000000000000000000000PES00010000001000000000000000020160806
201608060060000200000000000000007169000000000000000071698000000000020000000001Consumidor Final              000000000119000000000000000000000000000000000000000000000000000000000000000000000000000000000000000000000000000000000000PES00010000001000000000000000020160806
201608060060000200000000000000007170000000000000000071708000000000020000000001Consumidor Final              000000000065000000000000000000000000000000000000000000000000000000000000000000000000000000000000000000000000000000000000PES00010000001000000000000000020160806
201608060060000200000000000000007171000000000000000071718000000000020000000001Consumidor Final              000000000074000000000000000000000000000000000000000000000000000000000000000000000000000000000000000000000000000000000000PES00010000001000000000000000020160806
201608060060000200000000000000007172000000000000000071728000000000020000000001Consumidor Final              000000000054500000000000000000000000000000000000000000000000000000000000000000000000000000000000000000000000000000000000PES00010000001000000000000000020160806
201608060060000200000000000000007173000000000000000071738000000000020000000001Consumidor Final              000000000179500000000000000000000000000000000000000000000000000000000000000000000000000000000000000000000000000000000000PES00010000001000000000000000020160806
201608060060000200000000000000007174000000000000000071748000000000020000000001Consumidor Final              000000000132000000000000000000000000000000000000000000000000000000000000000000000000000000000000000000000000000000000000PES00010000001000000000000000020160806
201608080060000200000000000000007175000000000000000071758000000000020000000001Consumidor Final              000000000115000000000000000000000000000000000000000000000000000000000000000000000000000000000000000000000000000000000000PES00010000001000000000000000020160808
201608080060000200000000000000007176000000000000000071768000000000020000000001Consumidor Final              000000000052500000000000000000000000000000000000000000000000000000000000000000000000000000000000000000000000000000000000PES00010000001000000000000000020160808
201608080060000200000000000000007177000000000000000071778000000000020000000001Consumidor Final              000000000105000000000000000000000000000000000000000000000000000000000000000000000000000000000000000000000000000000000000PES00010000001000000000000000020160808
201608080060000200000000000000007178000000000000000071788000000000020000000001Consumidor Final              000000000045000000000000000000000000000000000000000000000000000000000000000000000000000000000000000000000000000000000000PES00010000001000000000000000020160808
201608080060000200000000000000007179000000000000000071798000000000020000000001Consumidor Final              000000000120000000000000000000000000000000000000000000000000000000000000000000000000000000000000000000000000000000000000PES00010000001000000000000000020160808
201608080060000200000000000000007180000000000000000071808000000000020000000001Consumidor Final              000000000030000000000000000000000000000000000000000000000000000000000000000000000000000000000000000000000000000000000000PES00010000001000000000000000020160808
201608080060000200000000000000007181000000000000000071818000000000020000000001Consumidor Final              000000000039000000000000000000000000000000000000000000000000000000000000000000000000000000000000000000000000000000000000PES00010000001000000000000000020160808
201608080060000200000000000000007182000000000000000071828000000000020000000001Consumidor Final              000000000069000000000000000000000000000000000000000000000000000000000000000000000000000000000000000000000000000000000000PES00010000001000000000000000020160808
201608080060000200000000000000007183000000000000000071838000000000020000000001Consumidor Final              000000000180000000000000000000000000000000000000000000000000000000000000000000000000000000000000000000000000000000000000PES00010000001000000000000000020160808
201608080060000200000000000000007184000000000000000071848000000000020000000001Consumidor Final              000000000285000000000000000000000000000000000000000000000000000000000000000000000000000000000000000000000000000000000000PES00010000001000000000000000020160808
201608080060000200000000000000007185000000000000000071858000000000020000000001Consumidor Final              000000000177000000000000000000000000000000000000000000000000000000000000000000000000000000000000000000000000000000000000PES00010000001000000000000000020160808
201608080060000200000000000000007186000000000000000071868000000000020000000001Consumidor Final              000000000048000000000000000000000000000000000000000000000000000000000000000000000000000000000000000000000000000000000000PES00010000001000000000000000020160808
201608080060000200000000000000007187000000000000000071878000000000020000000001Consumidor Final              000000000275000000000000000000000000000000000000000000000000000000000000000000000000000000000000000000000000000000000000PES00010000001000000000000000020160808
201608080060000200000000000000007188000000000000000071888000000000020000000001Consumidor Final              000000000252500000000000000000000000000000000000000000000000000000000000000000000000000000000000000000000000000000000000PES00010000001000000000000000020160808
201608080060000200000000000000007189000000000000000071898000000000020000000001Consumidor Final              000000000060000000000000000000000000000000000000000000000000000000000000000000000000000000000000000000000000000000000000PES00010000001000000000000000020160808
201608080060000200000000000000007190000000000000000071908000000000020000000001Consumidor Final              000000000155000000000000000000000000000000000000000000000000000000000000000000000000000000000000000000000000000000000000PES00010000001000000000000000020160808
201608080060000200000000000000007191000000000000000071918000000000020000000001Consumidor Final              000000000039000000000000000000000000000000000000000000000000000000000000000000000000000000000000000000000000000000000000PES00010000001000000000000000020160808
201608080060000200000000000000007192000000000000000071928000000000020000000001Consumidor Final              000000000070000000000000000000000000000000000000000000000000000000000000000000000000000000000000000000000000000000000000PES00010000001000000000000000020160808
201608080060000200000000000000007193000000000000000071938000000000020000000001Consumidor Final              000000000500000000000000000000000000000000000000000000000000000000000000000000000000000000000000000000000000000000000000PES00010000001000000000000000020160808
201608080060000200000000000000007194000000000000000071948000000000020000000001Consumidor Final              000000000165000000000000000000000000000000000000000000000000000000000000000000000000000000000000000000000000000000000000PES00010000001000000000000000020160808
201608080060000200000000000000007195000000000000000071958000000000020000000001Consumidor Final              000000000068500000000000000000000000000000000000000000000000000000000000000000000000000000000000000000000000000000000000PES00010000001000000000000000020160808
201608080060000200000000000000007196000000000000000071968000000000020000000001Consumidor Final              000000000090000000000000000000000000000000000000000000000000000000000000000000000000000000000000000000000000000000000000PES00010000001000000000000000020160808
201608080060000200000000000000007197000000000000000071978000000000020000000001Consumidor Final              000000000242500000000000000000000000000000000000000000000000000000000000000000000000000000000000000000000000000000000000PES00010000001000000000000000020160808
201608080060000200000000000000007198000000000000000071988000000000020000000001Consumidor Final              000000000115000000000000000000000000000000000000000000000000000000000000000000000000000000000000000000000000000000000000PES00010000001000000000000000020160808
201608080060000200000000000000007199000000000000000071998000000000020000000001Consumidor Final              000000000024000000000000000000000000000000000000000000000000000000000000000000000000000000000000000000000000000000000000PES00010000001000000000000000020160808
201608080060000200000000000000007200000000000000000072008000000000020000000001Consumidor Final              000000000070000000000000000000000000000000000000000000000000000000000000000000000000000000000000000000000000000000000000PES00010000001000000000000000020160808
201608080060000200000000000000007201000000000000000072018000000000020000000001Consumidor Final              000000000035000000000000000000000000000000000000000000000000000000000000000000000000000000000000000000000000000000000000PES00010000001000000000000000020160808
201608080060000200000000000000007202000000000000000072028000000000020000000001Consumidor Final              000000000040000000000000000000000000000000000000000000000000000000000000000000000000000000000000000000000000000000000000PES00010000001000000000000000020160808
201608080060000200000000000000007203000000000000000072038000000000020000000001Consumidor Final              000000000069000000000000000000000000000000000000000000000000000000000000000000000000000000000000000000000000000000000000PES00010000001000000000000000020160808
201608090060000200000000000000007204000000000000000072048000000000020000000001Consumidor Final              000000000127000000000000000000000000000000000000000000000000000000000000000000000000000000000000000000000000000000000000PES00010000001000000000000000020160809
201608090060000200000000000000007205000000000000000072058000000000020000000001Consumidor Final              000000000111500000000000000000000000000000000000000000000000000000000000000000000000000000000000000000000000000000000000PES00010000001000000000000000020160809
201608090060000200000000000000007206000000000000000072068000000000020000000001Consumidor Final              000000000045000000000000000000000000000000000000000000000000000000000000000000000000000000000000000000000000000000000000PES00010000001000000000000000020160809
201608090060000200000000000000007207000000000000000072078000000000020000000001Consumidor Final              000000000040000000000000000000000000000000000000000000000000000000000000000000000000000000000000000000000000000000000000PES00010000001000000000000000020160809
201608090060000200000000000000007208000000000000000072088000000000020000000001Consumidor Final              000000000107000000000000000000000000000000000000000000000000000000000000000000000000000000000000000000000000000000000000PES00010000001000000000000000020160809
201608090060000200000000000000007209000000000000000072098000000000020000000001Consumidor Final              000000000110000000000000000000000000000000000000000000000000000000000000000000000000000000000000000000000000000000000000PES00010000001000000000000000020160809
201608090060000200000000000000007210000000000000000072108000000000020000000001Consumidor Final              000000000030000000000000000000000000000000000000000000000000000000000000000000000000000000000000000000000000000000000000PES00010000001000000000000000020160809
201608090060000200000000000000007211000000000000000072118000000000020000000001Consumidor Final              000000000460000000000000000000000000000000000000000000000000000000000000000000000000000000000000000000000000000000000000PES00010000001000000000000000020160809
201608090060000200000000000000007212000000000000000072128000000000020000000001Consumidor Final              000000000105000000000000000000000000000000000000000000000000000000000000000000000000000000000000000000000000000000000000PES00010000001000000000000000020160809
201608090060000200000000000000007213000000000000000072138000000000020000000001Consumidor Final              000000000090000000000000000000000000000000000000000000000000000000000000000000000000000000000000000000000000000000000000PES00010000001000000000000000020160809
201608090060000200000000000000007214000000000000000072148000000000020000000001Consumidor Final              000000000086500000000000000000000000000000000000000000000000000000000000000000000000000000000000000000000000000000000000PES00010000001000000000000000020160809
201608090060000200000000000000007215000000000000000072158000000000020000000001Consumidor Final              000000000050000000000000000000000000000000000000000000000000000000000000000000000000000000000000000000000000000000000000PES00010000001000000000000000020160809
201608090060000200000000000000007216000000000000000072168000000000020000000001Consumidor Final              000000000040000000000000000000000000000000000000000000000000000000000000000000000000000000000000000000000000000000000000PES00010000001000000000000000020160809
201608090060000200000000000000007217000000000000000072178000000000020000000001Consumidor Final              000000000339000000000000000000000000000000000000000000000000000000000000000000000000000000000000000000000000000000000000PES00010000001000000000000000020160809
201608090060000200000000000000007218000000000000000072188000000000020000000001Consumidor Final              000000000302500000000000000000000000000000000000000000000000000000000000000000000000000000000000000000000000000000000000PES00010000001000000000000000020160809
201608090060000200000000000000007219000000000000000072198000000000020000000001Consumidor Final              000000000015000000000000000000000000000000000000000000000000000000000000000000000000000000000000000000000000000000000000PES00010000001000000000000000020160809
201608090060000200000000000000007220000000000000000072208000000000020000000001Consumidor Final              000000000013000000000000000000000000000000000000000000000000000000000000000000000000000000000000000000000000000000000000PES00010000001000000000000000020160809
201608090060000200000000000000007221000000000000000072218000000000020000000001Consumidor Final              000000000155000000000000000000000000000000000000000000000000000000000000000000000000000000000000000000000000000000000000PES00010000001000000000000000020160809
201608090060000200000000000000007222000000000000000072228000000000020000000001Consumidor Final              000000000135000000000000000000000000000000000000000000000000000000000000000000000000000000000000000000000000000000000000PES00010000001000000000000000020160809
201608090060000200000000000000007223000000000000000072238000000000020000000001Consumidor Final              000000000135000000000000000000000000000000000000000000000000000000000000000000000000000000000000000000000000000000000000PES00010000001000000000000000020160809
201608090060000200000000000000007224000000000000000072248000000000020000000001Consumidor Final              000000000107500000000000000000000000000000000000000000000000000000000000000000000000000000000000000000000000000000000000PES00010000001000000000000000020160809
201608090060000200000000000000007225000000000000000072258000000000020000000001Consumidor Final              000000000051000000000000000000000000000000000000000000000000000000000000000000000000000000000000000000000000000000000000PES00010000001000000000000000020160809
201608090060000200000000000000007226000000000000000072268000000000020000000001Consumidor Final              000000000098000000000000000000000000000000000000000000000000000000000000000000000000000000000000000000000000000000000000PES00010000001000000000000000020160809
201608090060000200000000000000007227000000000000000072278000000000020000000001Consumidor Final              000000000048000000000000000000000000000000000000000000000000000000000000000000000000000000000000000000000000000000000000PES00010000001000000000000000020160809
201608090060000200000000000000007228000000000000000072288000000000020000000001Consumidor Final              000000000069000000000000000000000000000000000000000000000000000000000000000000000000000000000000000000000000000000000000PES00010000001000000000000000020160809
201608090060000200000000000000007229000000000000000072298000000000020000000001Consumidor Final              000000000065000000000000000000000000000000000000000000000000000000000000000000000000000000000000000000000000000000000000PES00010000001000000000000000020160809
201608090060000200000000000000007230000000000000000072308000000000020000000001Consumidor Final              000000000065000000000000000000000000000000000000000000000000000000000000000000000000000000000000000000000000000000000000PES00010000001000000000000000020160809
201608090060000200000000000000007231000000000000000072318000000000020000000001Consumidor Final              000000000069000000000000000000000000000000000000000000000000000000000000000000000000000000000000000000000000000000000000PES00010000001000000000000000020160809
201608090010000200000000000000000058000000000000000000588000000000027350441153Mitri,Gabriela Alejandra      000000000209500000000000000000000000000000000000000000000000000000000000000000000000000000000000000000000000000000000000PES00010000001000000000000000020160809
201608100060000200000000000000007232000000000000000072328000000000020000000001Consumidor Final              000000000092500000000000000000000000000000000000000000000000000000000000000000000000000000000000000000000000000000000000PES00010000001000000000000000020160810
201608100060000200000000000000007233000000000000000072338000000000020000000001Consumidor Final              000000000033000000000000000000000000000000000000000000000000000000000000000000000000000000000000000000000000000000000000PES00010000001000000000000000020160810
201608100060000200000000000000007234000000000000000072348000000000020000000001Consumidor Final              000000000099000000000000000000000000000000000000000000000000000000000000000000000000000000000000000000000000000000000000PES00010000001000000000000000020160810
201608100060000200000000000000007235000000000000000072358000000000020000000001Consumidor Final              000000000109000000000000000000000000000000000000000000000000000000000000000000000000000000000000000000000000000000000000PES00010000001000000000000000020160810
201608100060000200000000000000007236000000000000000072368000000000020000000001Consumidor Final              000000000045000000000000000000000000000000000000000000000000000000000000000000000000000000000000000000000000000000000000PES00010000001000000000000000020160810
201608100060000200000000000000007237000000000000000072378000000000020000000001Consumidor Final              000000000047500000000000000000000000000000000000000000000000000000000000000000000000000000000000000000000000000000000000PES00010000001000000000000000020160810
201608100060000200000000000000007238000000000000000072388000000000020000000001Consumidor Final              000000000184000000000000000000000000000000000000000000000000000000000000000000000000000000000000000000000000000000000000PES00010000001000000000000000020160810
201608100060000200000000000000007239000000000000000072398000000000020000000001Consumidor Final              000000000066000000000000000000000000000000000000000000000000000000000000000000000000000000000000000000000000000000000000PES00010000001000000000000000020160810
201608100060000200000000000000007240000000000000000072408000000000020000000001Consumidor Final              000000000072000000000000000000000000000000000000000000000000000000000000000000000000000000000000000000000000000000000000PES00010000001000000000000000020160810
201608100060000200000000000000007241000000000000000072418000000000020000000001Consumidor Final              000000000048000000000000000000000000000000000000000000000000000000000000000000000000000000000000000000000000000000000000PES00010000001000000000000000020160810
201608100060000200000000000000007242000000000000000072428000000000020000000001Consumidor Final              000000000082000000000000000000000000000000000000000000000000000000000000000000000000000000000000000000000000000000000000PES00010000001000000000000000020160810
201608100060000200000000000000007243000000000000000072438000000000020000000001Consumidor Final              000000000079000000000000000000000000000000000000000000000000000000000000000000000000000000000000000000000000000000000000PES00010000001000000000000000020160810
201608100060000200000000000000007244000000000000000072448000000000020000000001Consumidor Final              000000000080000000000000000000000000000000000000000000000000000000000000000000000000000000000000000000000000000000000000PES00010000001000000000000000020160810
201608100060000200000000000000007245000000000000000072458000000000020000000001Consumidor Final              000000000062500000000000000000000000000000000000000000000000000000000000000000000000000000000000000000000000000000000000PES00010000001000000000000000020160810
201608100060000200000000000000007246000000000000000072468000000000020000000001Consumidor Final              000000000080000000000000000000000000000000000000000000000000000000000000000000000000000000000000000000000000000000000000PES00010000001000000000000000020160810
201608100060000200000000000000007247000000000000000072478000000000020000000001Consumidor Final              000000000165000000000000000000000000000000000000000000000000000000000000000000000000000000000000000000000000000000000000PES00010000001000000000000000020160810
201608100060000200000000000000007249000000000000000072498000000000020000000001Consumidor Final              000000000199000000000000000000000000000000000000000000000000000000000000000000000000000000000000000000000000000000000000PES00010000001000000000000000020160810
201608100060000200000000000000007250000000000000000072508000000000020000000001Consumidor Final              000000000025000000000000000000000000000000000000000000000000000000000000000000000000000000000000000000000000000000000000PES00010000001000000000000000020160810
201608100060000200000000000000007251000000000000000072518000000000020000000001Consumidor Final              000000000047500000000000000000000000000000000000000000000000000000000000000000000000000000000000000000000000000000000000PES00010000001000000000000000020160810
201608100060000200000000000000007252000000000000000072528000000000020000000001Consumidor Final              000000000170000000000000000000000000000000000000000000000000000000000000000000000000000000000000000000000000000000000000PES00010000001000000000000000020160810
201608100060000200000000000000007253000000000000000072538000000000020000000001Consumidor Final              000000000115000000000000000000000000000000000000000000000000000000000000000000000000000000000000000000000000000000000000PES00010000001000000000000000020160810
201608100060000200000000000000007254000000000000000072548000000000020000000001Consumidor Final              000000000137000000000000000000000000000000000000000000000000000000000000000000000000000000000000000000000000000000000000PES00010000001000000000000000020160810
201608100060000200000000000000007255000000000000000072558000000000020000000001Consumidor Final              000000000061000000000000000000000000000000000000000000000000000000000000000000000000000000000000000000000000000000000000PES00010000001000000000000000020160810
201608100060000200000000000000007256000000000000000072568000000000020000000001Consumidor Final              000000000058000000000000000000000000000000000000000000000000000000000000000000000000000000000000000000000000000000000000PES00010000001000000000000000020160810
201608100060000200000000000000007257000000000000000072578000000000020000000001Consumidor Final              000000000085000000000000000000000000000000000000000000000000000000000000000000000000000000000000000000000000000000000000PES00010000001000000000000000020160810
201608100060000200000000000000007258000000000000000072588000000000020000000001Consumidor Final              000000000058000000000000000000000000000000000000000000000000000000000000000000000000000000000000000000000000000000000000PES00010000001000000000000000020160810
201608100060000200000000000000007259000000000000000072598000000000020000000001Consumidor Final              000000000060000000000000000000000000000000000000000000000000000000000000000000000000000000000000000000000000000000000000PES00010000001000000000000000020160810
201608110060000200000000000000007260000000000000000072608000000000020000000001Consumidor Final              000000000048000000000000000000000000000000000000000000000000000000000000000000000000000000000000000000000000000000000000PES00010000001000000000000000020160811
201608110060000200000000000000007261000000000000000072618000000000020000000001Consumidor Final              000000000017500000000000000000000000000000000000000000000000000000000000000000000000000000000000000000000000000000000000PES00010000001000000000000000020160811
201608110060000200000000000000007262000000000000000072628000000000020000000001Consumidor Final              000000000045000000000000000000000000000000000000000000000000000000000000000000000000000000000000000000000000000000000000PES00010000001000000000000000020160811
201608110060000200000000000000007263000000000000000072638000000000020000000001Consumidor Final              000000000110000000000000000000000000000000000000000000000000000000000000000000000000000000000000000000000000000000000000PES00010000001000000000000000020160811
201608110060000200000000000000007264000000000000000072648000000000020000000001Consumidor Final              000000000194000000000000000000000000000000000000000000000000000000000000000000000000000000000000000000000000000000000000PES00010000001000000000000000020160811
201608110060000200000000000000007265000000000000000072658000000000020000000001Consumidor Final              000000000205000000000000000000000000000000000000000000000000000000000000000000000000000000000000000000000000000000000000PES00010000001000000000000000020160811
201608110060000200000000000000007266000000000000000072668000000000020000000001Consumidor Final              000000000035000000000000000000000000000000000000000000000000000000000000000000000000000000000000000000000000000000000000PES00010000001000000000000000020160811
201608110060000200000000000000007267000000000000000072678000000000020000000001Consumidor Final              000000000032500000000000000000000000000000000000000000000000000000000000000000000000000000000000000000000000000000000000PES00010000001000000000000000020160811
201608110060000200000000000000007268000000000000000072688000000000020000000001Consumidor Final              000000000069000000000000000000000000000000000000000000000000000000000000000000000000000000000000000000000000000000000000PES00010000001000000000000000020160811
201608110060000200000000000000007269000000000000000072698000000000020000000001Consumidor Final              000000000135000000000000000000000000000000000000000000000000000000000000000000000000000000000000000000000000000000000000PES00010000001000000000000000020160811
201608110060000200000000000000007270000000000000000072708000000000020000000001Consumidor Final              000000000082000000000000000000000000000000000000000000000000000000000000000000000000000000000000000000000000000000000000PES00010000001000000000000000020160811
201608110060000200000000000000007271000000000000000072718000000000020000000001Consumidor Final              000000000040000000000000000000000000000000000000000000000000000000000000000000000000000000000000000000000000000000000000PES00010000001000000000000000020160811
201608110060000200000000000000007272000000000000000072728000000000020000000001Consumidor Final              000000000274000000000000000000000000000000000000000000000000000000000000000000000000000000000000000000000000000000000000PES00010000001000000000000000020160811
201608110060000200000000000000007273000000000000000072738000000000020000000001Consumidor Final              000000000052500000000000000000000000000000000000000000000000000000000000000000000000000000000000000000000000000000000000PES00010000001000000000000000020160811
201608110060000200000000000000007274000000000000000072748000000000020000000001Consumidor Final              000000000025000000000000000000000000000000000000000000000000000000000000000000000000000000000000000000000000000000000000PES00010000001000000000000000020160811
201608110060000200000000000000007275000000000000000072758000000000020000000001Consumidor Final              000000000099000000000000000000000000000000000000000000000000000000000000000000000000000000000000000000000000000000000000PES00010000001000000000000000020160811
201608110060000200000000000000007276000000000000000072768000000000020000000001Consumidor Final              000000000235000000000000000000000000000000000000000000000000000000000000000000000000000000000000000000000000000000000000PES00010000001000000000000000020160811
201608110060000200000000000000007277000000000000000072778000000000020000000001Consumidor Final              000000000065000000000000000000000000000000000000000000000000000000000000000000000000000000000000000000000000000000000000PES00010000001000000000000000020160811
201608110060000200000000000000007278000000000000000072788000000000020000000001Consumidor Final              000000000190000000000000000000000000000000000000000000000000000000000000000000000000000000000000000000000000000000000000PES00010000001000000000000000020160811
201608110060000200000000000000007279000000000000000072798000000000020000000001Consumidor Final              000000000080000000000000000000000000000000000000000000000000000000000000000000000000000000000000000000000000000000000000PES00010000001000000000000000020160811
201608110060000200000000000000007280000000000000000072808000000000020000000001Consumidor Final              000000000067500000000000000000000000000000000000000000000000000000000000000000000000000000000000000000000000000000000000PES00010000001000000000000000020160811
201608110060000200000000000000007281000000000000000072818000000000020000000001Consumidor Final              000000000164500000000000000000000000000000000000000000000000000000000000000000000000000000000000000000000000000000000000PES00010000001000000000000000020160811
201608110060000200000000000000007282000000000000000072828000000000020000000001Consumidor Final              000000000107500000000000000000000000000000000000000000000000000000000000000000000000000000000000000000000000000000000000PES00010000001000000000000000020160811
201608110060000200000000000000007283000000000000000072838000000000020000000001Consumidor Final              000000000039000000000000000000000000000000000000000000000000000000000000000000000000000000000000000000000000000000000000PES00010000001000000000000000020160811
201608110060000200000000000000007284000000000000000072848000000000020000000001Consumidor Final              000000000061000000000000000000000000000000000000000000000000000000000000000000000000000000000000000000000000000000000000PES00010000001000000000000000020160811
201608110060000200000000000000007285000000000000000072858000000000020000000001Consumidor Final              000000000040000000000000000000000000000000000000000000000000000000000000000000000000000000000000000000000000000000000000PES00010000001000000000000000020160811
201608110060000200000000000000007286000000000000000072868000000000020000000001Consumidor Final              000000000051001000000000000000000000000000000000000000000000000000000000000000000000000000000000000000000000000000000000PES00010000001000000000000000020160811
201608120060000200000000000000007287000000000000000072878000000000020000000001Consumidor Final              000000000135000000000000000000000000000000000000000000000000000000000000000000000000000000000000000000000000000000000000PES00010000001000000000000000020160812
201608120060000200000000000000007288000000000000000072888000000000020000000001Consumidor Final              000000000067000000000000000000000000000000000000000000000000000000000000000000000000000000000000000000000000000000000000PES00010000001000000000000000020160812
201608120060000200000000000000007289000000000000000072898000000000020000000001Consumidor Final              000000000040000000000000000000000000000000000000000000000000000000000000000000000000000000000000000000000000000000000000PES00010000001000000000000000020160812
201608120060000200000000000000007290000000000000000072908000000000020000000001Consumidor Final              000000000042500000000000000000000000000000000000000000000000000000000000000000000000000000000000000000000000000000000000PES00010000001000000000000000020160812
201608120060000200000000000000007291000000000000000072918000000000020000000001Consumidor Final              000000000125000000000000000000000000000000000000000000000000000000000000000000000000000000000000000000000000000000000000PES00010000001000000000000000020160812
201608120060000200000000000000007292000000000000000072928000000000020000000001Consumidor Final              000000000079000000000000000000000000000000000000000000000000000000000000000000000000000000000000000000000000000000000000PES00010000001000000000000000020160812
201608120060000200000000000000007293000000000000000072938000000000020000000001Consumidor Final              000000000060000000000000000000000000000000000000000000000000000000000000000000000000000000000000000000000000000000000000PES00010000001000000000000000020160812
201608120060000200000000000000007294000000000000000072948000000000020000000001Consumidor Final              000000000060000000000000000000000000000000000000000000000000000000000000000000000000000000000000000000000000000000000000PES00010000001000000000000000020160812
201608120060000200000000000000007295000000000000000072958000000000020000000001Consumidor Final              000000000220000000000000000000000000000000000000000000000000000000000000000000000000000000000000000000000000000000000000PES00010000001000000000000000020160812
201608120060000200000000000000007296000000000000000072968000000000020000000001Consumidor Final              000000000045000000000000000000000000000000000000000000000000000000000000000000000000000000000000000000000000000000000000PES00010000001000000000000000020160812
201608120060000200000000000000007297000000000000000072978000000000020000000001Consumidor Final              000000000300000000000000000000000000000000000000000000000000000000000000000000000000000000000000000000000000000000000000PES00010000001000000000000000020160812
201608120060000200000000000000007298000000000000000072988000000000020000000001Consumidor Final              000000000089000000000000000000000000000000000000000000000000000000000000000000000000000000000000000000000000000000000000PES00010000001000000000000000020160812
201608120060000200000000000000007299000000000000000072998000000000020000000001Consumidor Final              000000000047500000000000000000000000000000000000000000000000000000000000000000000000000000000000000000000000000000000000PES00010000001000000000000000020160812
201608120060000200000000000000007300000000000000000073008000000000020000000001Consumidor Final              000000000095000000000000000000000000000000000000000000000000000000000000000000000000000000000000000000000000000000000000PES00010000001000000000000000020160812
201608120060000200000000000000007301000000000000000073018000000000020000000001Consumidor Final              000000000060000000000000000000000000000000000000000000000000000000000000000000000000000000000000000000000000000000000000PES00010000001000000000000000020160812
201608120060000200000000000000007302000000000000000073028000000000020000000001Consumidor Final              000000000155000000000000000000000000000000000000000000000000000000000000000000000000000000000000000000000000000000000000PES00010000001000000000000000020160812
201608120060000200000000000000007303000000000000000073038000000000020000000001Consumidor Final              000000000140000000000000000000000000000000000000000000000000000000000000000000000000000000000000000000000000000000000000PES00010000001000000000000000020160812
201608130060000200000000000000007304000000000000000073048000000000020000000001Consumidor Final              000000000174000000000000000000000000000000000000000000000000000000000000000000000000000000000000000000000000000000000000PES00010000001000000000000000020160813
201608130060000200000000000000007305000000000000000073058000000000020000000001Consumidor Final              000000000097000000000000000000000000000000000000000000000000000000000000000000000000000000000000000000000000000000000000PES00010000001000000000000000020160813
201608130060000200000000000000007306000000000000000073068000000000020000000001Consumidor Final              000000000025000000000000000000000000000000000000000000000000000000000000000000000000000000000000000000000000000000000000PES00010000001000000000000000020160813
201608130060000200000000000000007307000000000000000073078000000000020000000001Consumidor Final              000000000069000000000000000000000000000000000000000000000000000000000000000000000000000000000000000000000000000000000000PES00010000001000000000000000020160813
201608130060000200000000000000007308000000000000000073088000000000020000000001Consumidor Final              000000000050000000000000000000000000000000000000000000000000000000000000000000000000000000000000000000000000000000000000PES00010000001000000000000000020160813
201608130060000200000000000000007311000000000000000073118000000000020000000001Consumidor Final              000000000006000000000000000000000000000000000000000000000000000000000000000000000000000000000000000000000000000000000000PES00010000001000000000000000020160813
201608130060000200000000000000007312000000000000000073128000000000020000000001Consumidor Final              000000000055000000000000000000000000000000000000000000000000000000000000000000000000000000000000000000000000000000000000PES00010000001000000000000000020160813
201608130060000200000000000000007313000000000000000073138000000000020000000001Consumidor Final              000000000375000000000000000000000000000000000000000000000000000000000000000000000000000000000000000000000000000000000000PES00010000001000000000000000020160813
201608160060000200000000000000007314000000000000000073148000000000020000000001Consumidor Final              000000000135000000000000000000000000000000000000000000000000000000000000000000000000000000000000000000000000000000000000PES00010000001000000000000000020160816
201608160060000200000000000000007315000000000000000073158000000000020000000001Consumidor Final              000000000024000000000000000000000000000000000000000000000000000000000000000000000000000000000000000000000000000000000000PES00010000001000000000000000020160816
201608160060000200000000000000007316000000000000000073168000000000020000000001Consumidor Final              000000000040000000000000000000000000000000000000000000000000000000000000000000000000000000000000000000000000000000000000PES00010000001000000000000000020160816
201608160060000200000000000000007317000000000000000073178000000000020000000001Consumidor Final              000000000050000000000000000000000000000000000000000000000000000000000000000000000000000000000000000000000000000000000000PES00010000001000000000000000020160816
201608160060000200000000000000007318000000000000000073188000000000020000000001Consumidor Final              000000000030000000000000000000000000000000000000000000000000000000000000000000000000000000000000000000000000000000000000PES00010000001000000000000000020160816
201608160060000200000000000000007319000000000000000073198000000000020000000001Consumidor Final              000000000030000000000000000000000000000000000000000000000000000000000000000000000000000000000000000000000000000000000000PES00010000001000000000000000020160816
201608160060000200000000000000007320000000000000000073208000000000020000000001Consumidor Final              000000000089000000000000000000000000000000000000000000000000000000000000000000000000000000000000000000000000000000000000PES00010000001000000000000000020160816
201608160060000200000000000000007321000000000000000073218000000000020000000001Consumidor Final              000000000079000000000000000000000000000000000000000000000000000000000000000000000000000000000000000000000000000000000000PES00010000001000000000000000020160816
201608160060000200000000000000007322000000000000000073228000000000020000000001Consumidor Final              000000000220000000000000000000000000000000000000000000000000000000000000000000000000000000000000000000000000000000000000PES00010000001000000000000000020160816
201608160060000200000000000000007323000000000000000073238000000000020000000001Consumidor Final              000000000047500000000000000000000000000000000000000000000000000000000000000000000000000000000000000000000000000000000000PES00010000001000000000000000020160816
201608160060000200000000000000007324000000000000000073248000000000020000000001Consumidor Final              000000000120000000000000000000000000000000000000000000000000000000000000000000000000000000000000000000000000000000000000PES00010000001000000000000000020160816
201608160060000200000000000000007325000000000000000073258000000000020000000001Consumidor Final              000000000038000000000000000000000000000000000000000000000000000000000000000000000000000000000000000000000000000000000000PES00010000001000000000000000020160816
201608160060000200000000000000007326000000000000000073268000000000020000000001Consumidor Final              000000000035000000000000000000000000000000000000000000000000000000000000000000000000000000000000000000000000000000000000PES00010000001000000000000000020160816
201608160060000200000000000000007327000000000000000073278000000000020000000001Consumidor Final              000000000080000000000000000000000000000000000000000000000000000000000000000000000000000000000000000000000000000000000000PES00010000001000000000000000020160816
201608160060000200000000000000007328000000000000000073288000000000020000000001Consumidor Final              000000000050000000000000000000000000000000000000000000000000000000000000000000000000000000000000000000000000000000000000PES00010000001000000000000000020160816
201608160060000200000000000000007329000000000000000073298000000000020000000001Consumidor Final              000000000079000000000000000000000000000000000000000000000000000000000000000000000000000000000000000000000000000000000000PES00010000001000000000000000020160816
201608160060000200000000000000007330000000000000000073308000000000020000000001Consumidor Final              000000000290000000000000000000000000000000000000000000000000000000000000000000000000000000000000000000000000000000000000PES00010000001000000000000000020160816
201608160060000200000000000000007331000000000000000073318000000000020000000001Consumidor Final              000000000160000000000000000000000000000000000000000000000000000000000000000000000000000000000000000000000000000000000000PES00010000001000000000000000020160816
201608160060000200000000000000007332000000000000000073328000000000020000000001Consumidor Final              000000000079000000000000000000000000000000000000000000000000000000000000000000000000000000000000000000000000000000000000PES00010000001000000000000000020160816
201608160060000200000000000000007333000000000000000073338000000000020000000001Consumidor Final              000000000030000000000000000000000000000000000000000000000000000000000000000000000000000000000000000000000000000000000000PES00010000001000000000000000020160816
201608160060000200000000000000007334000000000000000073348000000000020000000001Consumidor Final              000000000048000000000000000000000000000000000000000000000000000000000000000000000000000000000000000000000000000000000000PES00010000001000000000000000020160816
201608160060000200000000000000007335000000000000000073358000000000020000000001Consumidor Final              000000000048000000000000000000000000000000000000000000000000000000000000000000000000000000000000000000000000000000000000PES00010000001000000000000000020160816
201608160060000200000000000000007336000000000000000073368000000000020000000001Consumidor Final              000000000082000000000000000000000000000000000000000000000000000000000000000000000000000000000000000000000000000000000000PES00010000001000000000000000020160816
201608160060000200000000000000007337000000000000000073378000000000020000000001Consumidor Final              000000000085000000000000000000000000000000000000000000000000000000000000000000000000000000000000000000000000000000000000PES00010000001000000000000000020160816
201608160060000200000000000000007338000000000000000073388000000000020000000001Consumidor Final              000000000045000000000000000000000000000000000000000000000000000000000000000000000000000000000000000000000000000000000000PES00010000001000000000000000020160816
201608160060000200000000000000007339000000000000000073398000000000020000000001Consumidor Final              000000000040000000000000000000000000000000000000000000000000000000000000000000000000000000000000000000000000000000000000PES00010000001000000000000000020160816
201608160060000200000000000000007340000000000000000073408000000000020000000001Consumidor Final              000000000090000000000000000000000000000000000000000000000000000000000000000000000000000000000000000000000000000000000000PES00010000001000000000000000020160816
201608160060000200000000000000007341000000000000000073418000000000020000000001Consumidor Final              000000000117500000000000000000000000000000000000000000000000000000000000000000000000000000000000000000000000000000000000PES00010000001000000000000000020160816
201608160060000200000000000000007342000000000000000073428000000000020000000001Consumidor Final              000000000230000000000000000000000000000000000000000000000000000000000000000000000000000000000000000000000000000000000000PES00010000001000000000000000020160816
201608160060000200000000000000007343000000000000000073438000000000020000000001Consumidor Final              000000000051000000000000000000000000000000000000000000000000000000000000000000000000000000000000000000000000000000000000PES00010000001000000000000000020160816
201608160060000200000000000000007344000000000000000073448000000000020000000001Consumidor Final              000000000020000000000000000000000000000000000000000000000000000000000000000000000000000000000000000000000000000000000000PES00010000001000000000000000020160816
201608160060000200000000000000007345000000000000000073458000000000020000000001Consumidor Final              000000000061000000000000000000000000000000000000000000000000000000000000000000000000000000000000000000000000000000000000PES00010000001000000000000000020160816
201608160060000200000000000000007346000000000000000073468000000000020000000001Consumidor Final              000000000137000000000000000000000000000000000000000000000000000000000000000000000000000000000000000000000000000000000000PES00010000001000000000000000020160816
201608160060000200000000000000007347000000000000000073478000000000020000000001Consumidor Final              000000000209000000000000000000000000000000000000000000000000000000000000000000000000000000000000000000000000000000000000PES00010000001000000000000000020160816
201608160060000200000000000000007348000000000000000073488000000000020000000001Consumidor Final              000000000125000000000000000000000000000000000000000000000000000000000000000000000000000000000000000000000000000000000000PES00010000001000000000000000020160816
201608170060000200000000000000007349000000000000000073498000000000020000000001Consumidor Final              000000000045000000000000000000000000000000000000000000000000000000000000000000000000000000000000000000000000000000000000PES00010000001000000000000000020160817
201608170060000200000000000000007350000000000000000073508000000000020000000001Consumidor Final              000000000082000000000000000000000000000000000000000000000000000000000000000000000000000000000000000000000000000000000000PES00010000001000000000000000020160817
201608170060000200000000000000007351000000000000000073518000000000020000000001Consumidor Final              000000000040000000000000000000000000000000000000000000000000000000000000000000000000000000000000000000000000000000000000PES00010000001000000000000000020160817
201608170060000200000000000000007352000000000000000073528000000000020000000001Consumidor Final              000000000124000000000000000000000000000000000000000000000000000000000000000000000000000000000000000000000000000000000000PES00010000001000000000000000020160817
201608170060000200000000000000007353000000000000000073538000000000020000000001Consumidor Final              000000000049000000000000000000000000000000000000000000000000000000000000000000000000000000000000000000000000000000000000PES00010000001000000000000000020160817
201608170060000200000000000000007354000000000000000073548000000000020000000001Consumidor Final              000000000105000000000000000000000000000000000000000000000000000000000000000000000000000000000000000000000000000000000000PES00010000001000000000000000020160817
201608170060000200000000000000007355000000000000000073558000000000020000000001Consumidor Final              000000000085000000000000000000000000000000000000000000000000000000000000000000000000000000000000000000000000000000000000PES00010000001000000000000000020160817
201608170060000200000000000000007356000000000000000073568000000000020000000001Consumidor Final              000000000159000000000000000000000000000000000000000000000000000000000000000000000000000000000000000000000000000000000000PES00010000001000000000000000020160817
201608170060000200000000000000007357000000000000000073578000000000020000000001Consumidor Final              000000000049000000000000000000000000000000000000000000000000000000000000000000000000000000000000000000000000000000000000PES00010000001000000000000000020160817
201608170060000200000000000000007358000000000000000073588000000000020000000001Consumidor Final              000000000095000000000000000000000000000000000000000000000000000000000000000000000000000000000000000000000000000000000000PES00010000001000000000000000020160817
201608170060000200000000000000007359000000000000000073598000000000020000000001Consumidor Final              000000000069000000000000000000000000000000000000000000000000000000000000000000000000000000000000000000000000000000000000PES00010000001000000000000000020160817
201608170060000200000000000000007360000000000000000073608000000000020000000001Consumidor Final              000000000059000000000000000000000000000000000000000000000000000000000000000000000000000000000000000000000000000000000000PES00010000001000000000000000020160817
201608170060000200000000000000007361000000000000000073618000000000020000000001Consumidor Final              000000000140000000000000000000000000000000000000000000000000000000000000000000000000000000000000000000000000000000000000PES00010000001000000000000000020160817
201608170060000200000000000000007362000000000000000073628000000000020000000001Consumidor Final              000000000050000000000000000000000000000000000000000000000000000000000000000000000000000000000000000000000000000000000000PES00010000001000000000000000020160817
201608170060000200000000000000007363000000000000000073638000000000020000000001Consumidor Final              000000000125000000000000000000000000000000000000000000000000000000000000000000000000000000000000000000000000000000000000PES00010000001000000000000000020160817
201608170060000200000000000000007364000000000000000073648000000000020000000001Consumidor Final              000000000025000000000000000000000000000000000000000000000000000000000000000000000000000000000000000000000000000000000000PES00010000001000000000000000020160817
201608170060000200000000000000007365000000000000000073658000000000020000000001Consumidor Final              000000000025000000000000000000000000000000000000000000000000000000000000000000000000000000000000000000000000000000000000PES00010000001000000000000000020160817
201608170060000200000000000000007366000000000000000073668000000000020000000001Consumidor Final              000000000435000000000000000000000000000000000000000000000000000000000000000000000000000000000000000000000000000000000000PES00010000001000000000000000020160817
201608170060000200000000000000007367000000000000000073678000000000020000000001Consumidor Final              000000000108000000000000000000000000000000000000000000000000000000000000000000000000000000000000000000000000000000000000PES00010000001000000000000000020160817
201608170060000200000000000000007369000000000000000073698000000000020000000001Consumidor Final              000000000182000000000000000000000000000000000000000000000000000000000000000000000000000000000000000000000000000000000000PES00010000001000000000000000020160817
201608170060000200000000000000007370000000000000000073708000000000020000000001Consumidor Final              000000000040000000000000000000000000000000000000000000000000000000000000000000000000000000000000000000000000000000000000PES00010000001000000000000000020160817
201608170060000200000000000000007371000000000000000073718000000000020000000001Consumidor Final              000000000020000000000000000000000000000000000000000000000000000000000000000000000000000000000000000000000000000000000000PES00010000001000000000000000020160817
201608170060000200000000000000007372000000000000000073728000000000020000000001Consumidor Final              000000000120000000000000000000000000000000000000000000000000000000000000000000000000000000000000000000000000000000000000PES00010000001000000000000000020160817
201608170060000200000000000000007373000000000000000073738000000000020000000001Consumidor Final              000000000030000000000000000000000000000000000000000000000000000000000000000000000000000000000000000000000000000000000000PES00010000001000000000000000020160817
201608170060000200000000000000007374000000000000000073748000000000020000000001Consumidor Final              000000000104000000000000000000000000000000000000000000000000000000000000000000000000000000000000000000000000000000000000PES00010000001000000000000000020160817
201608170060000200000000000000007375000000000000000073758000000000020000000001Consumidor Final              000000000135000000000000000000000000000000000000000000000000000000000000000000000000000000000000000000000000000000000000PES00010000001000000000000000020160817
201608170060000200000000000000007376000000000000000073768000000000020000000001Consumidor Final              000000000110000000000000000000000000000000000000000000000000000000000000000000000000000000000000000000000000000000000000PES00010000001000000000000000020160817
201608170060000200000000000000007377000000000000000073778000000000020000000001Consumidor Final              000000000051000000000000000000000000000000000000000000000000000000000000000000000000000000000000000000000000000000000000PES00010000001000000000000000020160817
201608170060000200000000000000007378000000000000000073788000000000020000000001Consumidor Final              000000000121000000000000000000000000000000000000000000000000000000000000000000000000000000000000000000000000000000000000PES00010000001000000000000000020160817
201608170060000200000000000000007379000000000000000073798000000000020000000001Consumidor Final              000000000045000000000000000000000000000000000000000000000000000000000000000000000000000000000000000000000000000000000000PES00010000001000000000000000020160817
201608170060000200000000000000007381000000000000000073818000000000020000000001Consumidor Final              000000000195000000000000000000000000000000000000000000000000000000000000000000000000000000000000000000000000000000000000PES00010000001000000000000000020160817
201608170060000200000000000000007382000000000000000073828000000000020000000001Consumidor Final              000000000039000000000000000000000000000000000000000000000000000000000000000000000000000000000000000000000000000000000000PES00010000001000000000000000020160817
201608170060000200000000000000007383000000000000000073838000000000020000000001Consumidor Final              000000000210000000000000000000000000000000000000000000000000000000000000000000000000000000000000000000000000000000000000PES00010000001000000000000000020160817
201608170060000200000000000000007384000000000000000073848000000000020000000001Consumidor Final              000000000090000000000000000000000000000000000000000000000000000000000000000000000000000000000000000000000000000000000000PES00010000001000000000000000020160817
201608170060000200000000000000007385000000000000000073858000000000020000000001Consumidor Final              000000000102000000000000000000000000000000000000000000000000000000000000000000000000000000000000000000000000000000000000PES00010000001000000000000000020160817
201608170060000200000000000000007386000000000000000073868000000000020000000001Consumidor Final              000000000045000000000000000000000000000000000000000000000000000000000000000000000000000000000000000000000000000000000000PES00010000001000000000000000020160817
201608170060000200000000000000007387000000000000000073878000000000020000000001Consumidor Final              000000000038500000000000000000000000000000000000000000000000000000000000000000000000000000000000000000000000000000000000PES00010000001000000000000000020160817
201608180060000200000000000000007388000000000000000073888000000000020000000001Consumidor Final              000000000051000000000000000000000000000000000000000000000000000000000000000000000000000000000000000000000000000000000000PES00010000001000000000000000020160818
201608180060000200000000000000007389000000000000000073898000000000020000000001Consumidor Final              000000000120000000000000000000000000000000000000000000000000000000000000000000000000000000000000000000000000000000000000PES00010000001000000000000000020160818
201608180060000200000000000000007390000000000000000073908000000000020000000001Consumidor Final              000000000140000000000000000000000000000000000000000000000000000000000000000000000000000000000000000000000000000000000000PES00010000001000000000000000020160818
201608180060000200000000000000007391000000000000000073918000000000020000000001Consumidor Final              000000000079000000000000000000000000000000000000000000000000000000000000000000000000000000000000000000000000000000000000PES00010000001000000000000000020160818
201608180060000200000000000000007392000000000000000073928000000000020000000001Consumidor Final              000000000063000000000000000000000000000000000000000000000000000000000000000000000000000000000000000000000000000000000000PES00010000001000000000000000020160818
201608180060000200000000000000007393000000000000000073938000000000020000000001Consumidor Final              000000000135000000000000000000000000000000000000000000000000000000000000000000000000000000000000000000000000000000000000PES00010000001000000000000000020160818
201608180060000200000000000000007394000000000000000073948000000000020000000001Consumidor Final              000000000045000000000000000000000000000000000000000000000000000000000000000000000000000000000000000000000000000000000000PES00010000001000000000000000020160818
201608180060000200000000000000007395000000000000000073958000000000020000000001Consumidor Final              000000000052500000000000000000000000000000000000000000000000000000000000000000000000000000000000000000000000000000000000PES00010000001000000000000000020160818
201608180060000200000000000000007396000000000000000073968000000000020000000001Consumidor Final              000000000038000000000000000000000000000000000000000000000000000000000000000000000000000000000000000000000000000000000000PES00010000001000000000000000020160818
201608180060000200000000000000007397000000000000000073978000000000020000000001Consumidor Final              000000000110000000000000000000000000000000000000000000000000000000000000000000000000000000000000000000000000000000000000PES00010000001000000000000000020160818
201608180060000200000000000000007398000000000000000073988000000000020000000001Consumidor Final              000000000026500000000000000000000000000000000000000000000000000000000000000000000000000000000000000000000000000000000000PES00010000001000000000000000020160818
201608180060000200000000000000007399000000000000000073998000000000020000000001Consumidor Final              000000000500000000000000000000000000000000000000000000000000000000000000000000000000000000000000000000000000000000000000PES00010000001000000000000000020160818
201608180060000200000000000000007400000000000000000074008000000000020000000001Consumidor Final              000000000500000000000000000000000000000000000000000000000000000000000000000000000000000000000000000000000000000000000000PES00010000001000000000000000020160818
201608180060000200000000000000007401000000000000000074018000000000020000000001Consumidor Final              000000000500000000000000000000000000000000000000000000000000000000000000000000000000000000000000000000000000000000000000PES00010000001000000000000000020160818
201608180060000200000000000000007402000000000000000074028000000000020000000001Consumidor Final              000000000500000000000000000000000000000000000000000000000000000000000000000000000000000000000000000000000000000000000000PES00010000001000000000000000020160818
201608180060000200000000000000007403000000000000000074038000000000020000000001Consumidor Final              000000000500000000000000000000000000000000000000000000000000000000000000000000000000000000000000000000000000000000000000PES00010000001000000000000000020160818
201608180060000200000000000000007404000000000000000074048000000000020000000001Consumidor Final              000000000500000000000000000000000000000000000000000000000000000000000000000000000000000000000000000000000000000000000000PES00010000001000000000000000020160818
201608180060000200000000000000007405000000000000000074058000000000020000000001Consumidor Final              000000000180000000000000000000000000000000000000000000000000000000000000000000000000000000000000000000000000000000000000PES00010000001000000000000000020160818
201608180060000200000000000000007406000000000000000074068000000000020000000001Consumidor Final              000000000040000000000000000000000000000000000000000000000000000000000000000000000000000000000000000000000000000000000000PES00010000001000000000000000020160818
