201708180010010100000000000000438842                8000000000030690633635EDESA SA                      000000000082299000000000057087000000000000000000000000000000000000000000000000000000000175000000000000000000000000000000PES00010000001000000000000000000000000000000000000000000                              000000000000000
201708220010010100000000000000439244                8000000000030690633635EDESA SA                      000000000115654000000000066752000000000000000000000000000000000000000000000000000000001348000000000000000000000000000000PES00010000001000000000000000000000000000000000000000000                              000000000000000
201708220010010100000000000000439230                8000000000030690633635EDESA SA                      000000000226158000000000086480000000000000000000000000000000000000000000000000000000003850000000000000000000000000000000PES00010000001000000000000000000000000000000000000000000                              000000000000000
201707280010010100000000000000432480                8000000000030690633635EDESA SA                      000000000168528000000000056275000000000000000000000000000000000000000000000000000000003094000000000000000000000000000000PES00010000002000000000000000000000000000000000000000000                              000000000000000
201707280010010100000000011111432480                8000000000030690633635EDESA SA                      000000000000123000000000000000000000000000000000000000000000000000000000000000000000000000000000000000000000000000000000PES00010000001000000000000000000000000000000000000000000                              000000000000000
201708230010010100000000000000442099                8000000000030690633635EDESA SA                      000000000086535000000000023783000000000000000000000000000000000000000000000000000000000535000000000000000000000000000000PES00010000001000000000000000000000000000000000000000000                              000000000000000
201706300010010100000000000000421721                8000000000030690633635EDESA SA                      000000000202261000000000061595000000000000000000000000000000000000000000000000000000003877000000000000000000000000000000PES00010000002000000000000000000000000000000000000000000                              000000000000000
201706300010010100000000011111421721                8000000000030690633635EDESA SA                      000000000000052000000000000000000000000000000000000000000000000000000000000000000000000000000000000000000000000000000000PES00010000001000000000000000000000000000000000000000000                              000000000000000
201708310010010100000000000000444480                8000000000030690633635EDESA SA                      000000000175622000000000058625000000000000000000000000000000000000000000000000000000003225000000000000000000000000000000PES00010000002000000000000000000000000000000000000000000                              000000000000000
201708310010010100000000011111444480                8000000000030690633635EDESA SA                      000000000000123000000000000000000000000000000000000000000000000000000000000000000000000000000000000000000000000000000000PES00010000001000000000000000000000000000000000000000000                              000000000000000
201708190010105400000000000000146706                8000000000030573652084CABLEVISION SA                000000000083000000000000000000000000000000000000000000000000000000000000000000000000000000000000000000000000000000000000PES00010000001000000000000000000000000000000000000000000                              000000000000000
201708190010105400000000000000146711                8000000000030573652084CABLEVISION SA                000000000083000000000000000000000000000000000000000000000000000000000000000000000000000000000000000000000000000000000000PES00010000001000000000000000000000000000000000000000000                              000000000000000
201709190010105400000000000000146944                8000000000030573652084CABLEVISION SA                000000000109294000000000002645000000000000000000000000000000000000000000000000000000000000000000000000000000000000000000PES00010000001000000000000000000000000000000000000000000                              000000000000000
201708110010810300000000000016911731                8000000000030639453738TELECOM ARGENTINA SA          000000000024638000000000000000000000000000000000000000000000000000000000000000000000000000000000000000000000000000000000PES00010000001000000000000000000000000000000000000000000                              000000000000000
201708110010810500000000000015989648                8000000000030639453738TELECOM ARGENTINA SA          000000000056400000000000000000000000000000000000000000000000000000000000000000000000000000000000000000000000000000000000PES00010000001000000000000000000000000000000000000000000                              000000000000000
201708310010551200000000000003114596                8000000000030678186445TELECOM PERSONAL SA           000000000270435000000000002035000000000000000000000000006125000000000000000000000000000000000000000000000000000000008305PES00010000002000000000000000000000000000000000000000000                              000000000000000
201708310010551200000000011113114596                8000000000030678186445TELECOM PERSONAL SA           000000000005068000000000000000000000000000000000000000000000000000000000000000000000000000000000000000000000000000000000PES00010000001000000000000000000000000000000000000000000                              000000000000000
201708310010551200000000000003116761                8000000000030678186445TELECOM PERSONAL SA           000000000151362000000000001142000000000000000000000000000000000000000000000000000000000000000000000000000000000000004758PES00010000001000000000000000000000000000000000000000000                              000000000000000
201707250010000300000000000000012575                8000000000030714344656AQUALAF SA                    000000000429745000000000000000000000000000000000000000000000000000000000000000000000000000000000000000000000000000000000PES00010000001000000000000000000000000000000000000000000                              000000000000000
201707210010000300000000000000012517                8000000000030714344656AQUALAF SA                    000000000046210000000000000000000000000000000000000000000000000000000000000000000000000000000000000000000000000000000000PES00010000001000000000000000000000000000000000000000000                              000000000000000
201707120010101000000000000000192421                8000000000030501199253ACINDAR INDUSTRIA ARGENTINA DE000000005648612000000000000000000000000000000000000000136002000000000000000000000000000000000000000027200000000000000000PES00010000001000000000000000000000000000000000000000000                              000000000000000
201707140010101000000000000000006651                8000000000030501199253ACINDAR INDUSTRIA ARGENTINA DE000000007546233000000000000000000000000000000000000000181691000000000000000000000000000000000000000036338000000000000000PES00010000001000000000000000000000000000000000000000000                              000000000000000
201707140010101000000000000000006650                8000000000030501199253ACINDAR INDUSTRIA ARGENTINA DE000000006039027000000000000000000000000000000000000000145402000000000000000000000000000000000000000029080000000000000000PES00010000001000000000000000000000000000000000000000000                              000000000000000
201708180010101000000000000000195543                8000000000030501199253ACINDAR INDUSTRIA ARGENTINA DE000000005913203000000000000000000000000000000000000000142372000000000000000000000000000000000000000028475000000000000000PES00010000001000000000000000000000000000000000000000000                              000000000000000
201708260010100800000000000000032982                8000000000030501199253ACINDAR INDUSTRIA ARGENTINA DE000000000858827000000000000000000000000000000000000000020678000000000000000000000000000000000000000004136000000000000000PES00010000001000000000000000000000000000000000000000000                              000000000000000
201708260010100700000000000000037668                8000000000030501199253ACINDAR INDUSTRIA ARGENTINA DE000000002405010000000000000000000000000000000000000000057905000000000000000000000000000000000000000011581000000000000000PES00010000001000000000000000000000000000000000000000000                              000000000000000
201708250010102700000000000000006988                8000000000030501199253ACINDAR INDUSTRIA ARGENTINA DE000000018075553000000000000000000000000000000000000000435206000000000000000000000000000000000000000087041000000000000000PES00010000001000000000000000000000000000000000000000000                              000000000000000
201707310010001100000000000000082198                8000000000030639201232AD BARBIERI SA                000000031631827000000000000000000000000000000000000000000000000000000000000000000000000000000000000000000000000000000000PES00010000001000000000000000000000000000000000000000000                              000000000000000
201708030010000500000000000000003303                8000000000030586321389VICENTE ALBORS SA             000000006344901000000000000000000000000000000000000000000000000000000000000000000000000000000000000000000000000000000000PES00010000001000000000000000000000000000000000000000000                              000000000000000
201707150010002100000000000000117232                8000000000030552816168DURLOCK SA                    000000006983007000000000325295000000000000000000000000000000000000000000000000000000097589000000000000000000000000000000PES00010000001000000000000000000000000000000000000000000                              000000000000000
201707180010002100000000000000117338                8000000000030552816168DURLOCK SA                    000000013714860000000000000000000000000000000000000000000000000000000000000000000000201032000000000000000000000000000000PES00010000001000000000000000000000000000000000000000000                              000000000000000
201707180010002100000000000000117339                8000000000030552816168DURLOCK SA                    000000006016425000000000000000000000000000000000000000000000000000000000000000000000088188000000000000000000000000000000PES00010000001000000000000000000000000000000000000000000                              000000000000000
201707180010002100000000000000117340                8000000000030552816168DURLOCK SA                    000000002868342000000000000000000000000000000000000000000000000000000000000000000000042044000000000000000000000000000000PES00010000001000000000000000000000000000000000000000000                              000000000000000
201708230030002100000000000000037831                8000000000030552816168DURLOCK SA                    000000001183305000000000000000000000000000000000000000000000000000000000000000000000000000000000000000000000000000000000PES00010000001000000000000000000000000000000000000000000                              000000000000000
201707310010000600000000000000033111                8000000000030699408537EMPACK INC SRL                000000001408077000000000000000000000000000000000000000000000000000000000000000000000000000000000000000000000000000000000PES00010000001000000000000000000000000000000000000000000                              000000000000000
201709080010000100000000000000000205                8000000000030711740208CONSULTING GROUP SRL          000000001500000000000000000000000000000000000000000000000000000000000000000000000000000000000000000000000000000000000000PES00010000001000000000000000000000000000000000000000000                              000000000000000
201707310030000400000000000000013946                8000000000030688372085ELECTRO MAYO SA               000000000601480000000000000000000000000000000000000000000000000000000000000000000000000000000000000000000000000000000000PES00010000001000000000000000000000000000000000000000000                              000000000000000
201707240010007400000000000000060653                8000000000030503037226EMAPI SA                      000000005913883000000000000000000000000000000000000000000000000000000000000000000000000000000000000000000000000000000000PES00010000001000000000000000000000000000000000000000000                              000000000000000
201707180010001200000000000000085975                8000000000030500971041ETERNIT ARGENTINA SA          000000001057530000000000000000000000000000000000000000024864000000000000000000000000029836000000000000000000000000000000PES00010000001000000000000000000000000000000000000000000                              000000000000000
201707180010001200000000000000086000                8000000000030500971041ETERNIT ARGENTINA SA          000000009258581000000000000000000000000000000000000000217678000000000000000000000000261213000000000000000000000000000000PES00010000001000000000000000000000000000000000000000000                              000000000000000
201708100010000400000000000000001849                8000000000030709594148FERROXIDO SRL                 000000002138675000000000000000000000000000000000000000000000000000000000000000000000000000000000000000000000000000000000PES00010000001000000000000000000000000000000000000000000                              000000000000000
201707290010000900000000000000373685                8000000000030707297154FERRETERA GENERAL PAZ SRL     000000001729414000000000000000000000000000000000000000000000000000000000000000000000000000000000000000000000000000000000PES00010000001000000000000000000000000000000000000000000                              000000000000000
201708290010000500000000000000001266                8000000000030658472190GRAFICA SILMAC SRL            000000000305424000000000000000000000000000000000000000000000000000000000000000000000008824000000000000000000000000000000PES00010000001000000000000000000000000000000000000000000                              000000000000000
201707240010000300000000000000031024                8000000000033680021819GRAZIOLI SRL                  000000001684123000000000000000000000000000000000000000000000000000000000000000000000000000000000000000000000000000000000PES00010000001000000000000000000000000000000000000000000                              000000000000000
201708020010025600000000000000004080                8000000000030501111127HOLCIM SA                     000000170048004000000000000000000000000000000000000004099847000000000000000000000000000000000000000587645000000000000000PES00010000001000000000000000000000000000000000000000000                              000000000000000
201708060010026400000000000000121715                8000000000030501111127HOLCIM SA                     000000025707889000000000000000000000000000000000000000619816000000000000000000000000000000000000000088842000000000000000PES00010000001000000000000000000000000000000000000000000                              000000000000000
201708060010026400000000000000121716                8000000000030501111127HOLCIM SA                     000000000517568000000000000000000000000000000000000000012479000000000000000000000000000000000000000001789000000000000000PES00010000001000000000000000000000000000000000000000000                              000000000000000
201708060030026400000000000000001118                8000000000030501111127HOLCIM SA                     000000001552704000000000000000000000000000000000000000037437000000000000000000000000000000000000000005367000000000000000PES00010000001000000000000000000000000000000000000000000                              000000000000000
201708130010026400000000000000122003                8000000000030501111127HOLCIM SA                     000000053323164000000000000000000000000000000000000001285617000000000000000000000000000000000000000184270000000000000000PES00010000001000000000000000000000000000000000000000000                              000000000000000
201708130010026400000000000000122004                8000000000030501111127HOLCIM SA                     000000006627764000000000000000000000000000000000000000159795000000000000000000000000000000000000000022904000000000000000PES00010000001000000000000000000000000000000000000000000                              000000000000000
201708130010026400000000000000122006                8000000000030501111127HOLCIM SA                     000000002070272000000000000000000000000000000000000000049916000000000000000000000000000000000000000007156000000000000000PES00010000001000000000000000000000000000000000000000000                              000000000000000
201708130030026400000000000000001145                8000000000030501111127HOLCIM SA                     000000001552704000000000000000000000000000000000000000037437000000000000000000000000000000000000000005367000000000000000PES00010000001000000000000000000000000000000000000000000                              000000000000000
201707250010001300000000000000164816                8000000000030535896379IPS SAICYF                    000000001478077000000000000000000000000000000000000000000000000000000000000000000000000000000000000000000000000000000000PES00010000001000000000000000000000000000000000000000000                              000000000000000
201707240010001300000000000000026861                8000000000030535896379IPS SAICYF                    000000001391608000000000000000000000000000000000000000000000000000000000000000000000000000000000000000000000000000000000PES00010000001000000000000000000000000000000000000000000                              000000000000000
201709050010000500000000000000037303                8000000000033707520359LEON VIDRIOS SRL              000000000180000000000000000000000000000000000000000000000000000000000000000000000000000000000000000000000000000000000000PES00010000001000000000000000000000000000000000000000000                              000000000000000
201709010010000500000000000000037285                8000000000033707520359LEON VIDRIOS SRL              000000001790000000000000000000000000000000000000000000000000000000000000000000000000000000000000000000000000000000000000PES00010000001000000000000000000000000000000000000000000                              000000000000000
201708150010050100000000000000152418                8000000000030500530851LOMA NEGRA CIASA              000000032871081000000000000000000000000000000000000000795268000000000000000000000000000000000000000000000000000000000000PES00010000001000000000000000000000000000000000000000000                              000000000000000
201708100030050100000000000000065201                8000000000030500530851LOMA NEGRA CIASA              000000006202292000000000000000000000000000000000000000000000000000000000000000000000000000000000000000000000000000000000PES00010000001000000000000000000000000000000000000000000                              000000000000000
201709040010000500000000000000001513                8000000000030607769415NOMASGOT SRL                  000000003190051000000000000000000000000000000000000000000000000000000000000000000000000000000000000000000000000000000000PES00010000001000000000000000000000000000000000000000000                              000000000000000
201707310010000400000000000000047775                8000000000030610936780NUEVAS MANUFACTURAS SA        000000000784116000000000000000000000000000000000000000000000000000000000000000000000000000000000000000000000000000000000PES00010000001000000000000000000000000000000000000000000                              000000000000000
201707310010000400000000000000047776                8000000000030610936780NUEVAS MANUFACTURAS SA        000000002949588000000000000000000000000000000000000000000000000000000000000000000000000000000000000000000000000000000000PES00010000001000000000000000000000000000000000000000000                              000000000000000
201707310030000400000000000000010011                8000000000030610936780NUEVAS MANUFACTURAS SA        000000000057630000000000000000000000000000000000000000000000000000000000000000000000000000000000000000000000000000000000PES00010000001000000000000000000000000000000000000000000                              000000000000000
201707140010002300000000000000030691                8000000000030556095597PAREXKLAUKOL SA               000000012494172000000000000000000000000000000000000000293750000000000000000000000000352500000000000000000000000000000000PES00010000001000000000000000000000000000000000000000000                              000000000000000
201707140010002300000000000000030689                8000000000030556095597PAREXKLAUKOL SA               000000000610471000000000000000000000000000000000000000014353000000000000000000000000017223000000000000000000000000000000PES00010000001000000000000000000000000000000000000000000                              000000000000000
201707200020002200000000000000010450                8000000000030556095597PAREXKLAUKOL SA               000000000006050000000000000000000000000000000000000000000000000000000000000000000000000000000000000000000000000000000000PES00010000001000000000000000000000000000000000000000000                              000000000000000
201707250010002300000000000000030851                8000000000030556095597PAREXKLAUKOL SA               000000002428745000000000000000000000000000000000000000057102000000000000000000000000068523000000000000000000000000000000PES00010000001000000000000000000000000000000000000000000                              000000000000000
201708020010002300000000000000030978                8000000000030556095597PAREXKLAUKOL SA               000000000601280000000000000000000000000000000000000000014137000000000000000000000000016964000000000000000000000000000000PES00010000001000000000000000000000000000000000000000000                              000000000000000
201707240010002300000000000000030830                8000000000030556095597PAREXKLAUKOL SA               000000008629546000000000000000000000000000000000000000202889000000000000000000000000243467000000000000000000000000000000PES00010000001000000000000000000000000000000000000000000                              000000000000000
201708220030002200000000000000108423                8000000000030556095597PAREXKLAUKOL SA               000000000679680000000000000000000000000000000000000000000000000000000000000000000000000000000000000000000000000000000000PES00010000001000000000000000000000000000000000000000000                              000000000000000
201708240030002200000000000000108596                8000000000030556095597PAREXKLAUKOL SA               000000000558545000000000000000000000000000000000000000000000000000000000000000000000000000000000000000000000000000000000PES00010000001000000000000000000000000000000000000000000                              000000000000000
201707310010000100000000000000002422                8000000000030715082337SANITEC SRL                   000000002473180000000000000000000000000000000000000000000000000000000000000000000000000000000000000000000000000000000000PES00010000001000000000000000000000000000000000000000000                              000000000000000
201707270010007100000000000000016376                8000000000030644685906SALTA PLAST POLIETILENOS SRL  000000000066725000000000000000000000000000000000000000000000000000000000000000000000001928000000000000000000000000000000PES00010000001000000000000000000000000000000000000000000                              000000000000000
201708180010007100000000000000016821                8000000000030644685906SALTA PLAST POLIETILENOS SRL  000000000243740000000000000000000000000000000000000000000000000000000000000000000000007042000000000000000000000000000000PES00010000001000000000000000000000000000000000000000000                              000000000000000
201706210010001100000000000000012302                8000000000030563516573SUC ROBERTO SAMAN SRL         000000000200611000000000000000000000000000000000000000000000000000000000000000000000005011000000000000000000000000000000PES00010000001000000000000000000000000000000000000000000                              000000000000000
201707250010001100000000000000012437                8000000000030563516573SUC ROBERTO SAMAN SRL         000000000182560000000000000000000000000000000000000000000000000000000000000000000000004560000000000000000000000000000000PES00010000001000000000000000000000000000000000000000000                              000000000000000
201708030010000200000000000000000358                8000000000030714084425TRANS VEL SRL                 000000001597403000000000000000000000000000000000000000000000000000000000000000000000000000000000000000000000000000000000PES00010000001000000000000000000000000000000000000000000                              000000000000000
201708310010007200000000000000017388                8000000000030602764032ECCO SA                       000000000099600000000000000000000000000000000000000000000000000000000000000000000000000000000000000000000000000000000000PES00010000001000000000000000000000000000000000000000000                              000000000000000
201708200010026400000000000000122367                8000000000030501111127HOLCIM SA                     000000034503872000000000000000000000000000000000000000831887000000000000000000000000000000000000000119239000000000000000PES00010000001000000000000000000000000000000000000000000                              000000000000000
201708200010026400000000000000122368                8000000000030501111127HOLCIM SA                     000000022719696000000000000000000000000000000000000000547770000000000000000000000000000000000000000078513000000000000000PES00010000001000000000000000000000000000000000000000000                              000000000000000
201708200030026400000000000000001166                8000000000030501111127HOLCIM SA                     000000001552704000000000000000000000000000000000000000037437000000000000000000000000000000000000000005367000000000000000PES00010000001000000000000000000000000000000000000000000                              000000000000000
201708230010050100000000000000152832                8000000000030500530851LOMA NEGRA CIASA              000000059823899000000000000000000000000000000000000001447355000000000000000000000000000000000000000000000000000000000000PES00010000001000000000000000000000000000000000000000000                              000000000000000
201708310010050100000000000000153407                8000000000030500530851LOMA NEGRA CIASA              000000044868437000000000000000000000000000000000000001085525000000000000000000000000000000000000000000000000000000000000PES00010000001000000000000000000000000000000000000000000                              000000000000000
201709020010000300000000000000000151                8000000000023262936449ORTIZ VICTOR HUGO             000000003987392000000000000000000000000000000000000000000000000000000000000000000000000000000000000000000000000000000000PES00010000001000000000000000000000000000000000000000000                              000000000000000
201709130020001100000000000000004283                8000000000030639201232AD BARBIERI SA                000000000004961000000000000000000000000000000000000000000000000000000000000000000000000000000000000000000000000000000000PES00010000001000000000000000000000000000000000000000000                              000000000000000
201708250010003100000000000000013334                8000000000030710204671AUTOPERFORANTES SA            000000001805216000000000000000000000000000000000000000000000000000000000000000000000000000000000000000000000000000000000PES00010000001000000000000000000000000000000000000000000                              000000000000000
201708110010003100000000000000013034                8000000000030710204671AUTOPERFORANTES SA            000000014157424000000000000000000000000000000000000000000000000000000000000000000000000000000000000000000000000000000000PES00010000001000000000000000000000000000000000000000000                              000000000000000
201708110010003100000000000000013035                8000000000030710204671AUTOPERFORANTES SA            000000003101317000000000000000000000000000000000000000000000000000000000000000000000000000000000000000000000000000000000PES00010000001000000000000000000000000000000000000000000                              000000000000000
201708030010000600000000000000015546                8000000000033521817599CERAMICA SALTE헤 SA           000000001664532000000000000000000000000000000000000000000000000000000000000000000000048092000000000000000000000000000000PES00010000001000000000000000000000000000000000000000000                              000000000000000
201708170010000600000000000000016031                8000000000033521817599CERAMICA SALTE헤 SA           000000000649267000000000000000000000000000000000000000000000000000000000000000000000018759000000000000000000000000000000PES00010000001000000000000000000000000000000000000000000                              000000000000000
201708150010000600000000000000015976                8000000000033521817599CERAMICA SALTE헤 SA           000000000356440000000000000000000000000000000000000000000000000000000000000000000000010298000000000000000000000000000000PES00010000001000000000000000000000000000000000000000000                              000000000000000
201708030010000600000000000000015544                8000000000033521817599CERAMICA SALTE헤 SA           000000000066028000000000000000000000000000000000000000000000000000000000000000000000001908000000000000000000000000000000PES00010000001000000000000000000000000000000000000000000                              000000000000000
201708290010000600000000000000016393                8000000000033521817599CERAMICA SALTE헤 SA           000000000026586000000000000000000000000000000000000000000000000000000000000000000000000768000000000000000000000000000000PES00010000001000000000000000000000000000000000000000000                              000000000000000
201708030010000600000000000000015545                8000000000033521817599CERAMICA SALTE헤 SA           000000000361311000000000000000000000000000000000000000000000000000000000000000000000010439000000000000000000000000000000PES00010000001000000000000000000000000000000000000000000                              000000000000000
201707040010000600000000000000014618                8000000000033521817599CERAMICA SALTE헤 SA           000000000019549000000000000000000000000000000000000000000000000000000000000000000000000565000000000000000000000000000000PES00010000001000000000000000000000000000000000000000000                              000000000000000
201709120010003400000000000000010086                8000000000030621181838DISAL SA                      000000000292504000000000013929000000000000000000000000000000000000000000000000000000000000000000000000000000000000000000PES00010000001000000000000000000000000000000000000000000                              000000000000000
201709080010003400000000000000010041                8000000000030621181838DISAL SA                      000000000292504000000000013929000000000000000000000000000000000000000000000000000000000000000000000000000000000000000000PES00010000001000000000000000000000000000000000000000000                              000000000000000
201709080010003400000000000000010042                8000000000030621181838DISAL SA                      000000000132069000000000006289000000000000000000000000000000000000000000000000000000000000000000000000000000000000000000PES00010000001000000000000000000000000000000000000000000                              000000000000000
201708290010002100000000000000119891                8000000000030552816168DURLOCK SA                    000000005915408000000000000000000000000000000000000000000000000000000000000000000000086707000000000000000000000000000000PES00010000001000000000000000000000000000000000000000000                              000000000000000
201708290010002100000000000000119890                8000000000030552816168DURLOCK SA                    000000014862817000000000000000000000000000000000000000000000000000000000000000000000217859000000000000000000000000000000PES00010000001000000000000000000000000000000000000000000                              000000000000000
201709010010002100000000000000120194                8000000000030552816168DURLOCK SA                    000000007166055000000000000000000000000000000000000000000000000000000000000000000000105040000000000000000000000000000000PES00010000001000000000000000000000000000000000000000000                              000000000000000
201709010010002100000000000000120195                8000000000030552816168DURLOCK SA                    000000005135890000000000000000000000000000000000000000000000000000000000000000000000075281000000000000000000000000000000PES00010000001000000000000000000000000000000000000000000                              000000000000000
201709010010002100000000000000120196                8000000000030552816168DURLOCK SA                    000000007696762000000000000000000000000000000000000000000000000000000000000000000000112819000000000000000000000000000000PES00010000001000000000000000000000000000000000000000000                              000000000000000
201708310010002100000000000000120112                8000000000030552816168DURLOCK SA                    000000007331879000000000341547000000000000000000000000000000000000000000000000000000102464000000000000000000000000000000PES00010000001000000000000000000000000000000000000000000                              000000000000000
201709110030002100000000000000038100                8000000000030552816168DURLOCK SA                    000000007331879000000000341547000000000000000000000000000000000000000000000000000000102464000000000000000000000000000000PES00010000001000000000000000000000000000000000000000000                              000000000000000
201708030010000400000000000000046152                8000000000030688372085ELECTROMAYO SA                000000000073736000000000000000000000000000000000000000000000000000000000000000000000000000000000000000000000000000000000PES00010000002000000000000000000000000000000000000000000                              000000000000000
201708030010000400000000011111146152                8000000000030688372085ELECTROMAYO SA                000000001011082000000000000000000000000000000000000000000000000000000000000000000000000000000000000000000000000000000000PES00010000001000000000000000000000000000000000000000000                              000000000000000
201708030010000400000000000000046153                8000000000030688372085ELECTROMAYO SA                000000000263695000000000000000000000000000000000000000000000000000000000000000000000000000000000000000000000000000000000PES00010000001000000000000000000000000000000000000000000                              000000000000000
201708030010000400000000000000046154                8000000000030688372085ELECTROMAYO SA                000000000622412000000000000000000000000000000000000000000000000000000000000000000000000000000000000000000000000000000000PES00010000001000000000000000000000000000000000000000000                              000000000000000
201708180010000900000000000000378186                8000000000030707297154FERRETERA GENERAL PAZ SRL     000000002822502000000000000000000000000000000000000000000000000000000000000000000000000000000000000000000000000000000000PES00010000001000000000000000000000000000000000000000000                              000000000000000
201708180010000900000000000000378187                8000000000030707297154FERRETERA GENERAL PAZ SRL     000000000753445000000000000000000000000000000000000000000000000000000000000000000000000000000000000000000000000000000000PES00010000001000000000000000000000000000000000000000000                              000000000000000
201708180010000900000000000000378194                8000000000030707297154FERRETERA GENERAL PAZ SRL     000000003195333000000000000000000000000000000000000000000000000000000000000000000000000000000000000000000000000000000000PES00010000001000000000000000000000000000000000000000000                              000000000000000
201708180010000900000000000000378195                8000000000030707297154FERRETERA GENERAL PAZ SRL     000000002986951000000000000000000000000000000000000000000000000000000000000000000000000000000000000000000000000000000000PES00010000001000000000000000000000000000000000000000000                              000000000000000
201708160010000400000000000000012406                8000000000030675407416FERRETERA DEL NORTE SRL       000000007133559000000000000000000000000000000000000000000000000000000000000000000000090225000000000000000000000000000000PES00010000001000000000000000000000000000000000000000000                              000000000000000
201709040010000400000000000000012858                8000000000030675407416FERRETERA DEL NORTE SRL       000000000338684000000000000000000000000000000000000000000000000000000000000000000000004284000000000000000000000000000000PES00010000001000000000000000000000000000000000000000000                              000000000000000
201708290010000300000000000000031286                8000000000033680021819GRAZIOLI SRL                  000000001307731000000000000000000000000000000000000000000000000000000000000000000000000000000000000000000000000000000000PES00010000001000000000000000000000000000000000000000000                              000000000000000
201709030010026400000000000000123024                8000000000030501111127HOLCIM SA                     000000015146464000000000000000000000000000000000000000365180000000000000000000000000000000000000000052342000000000000000PES00010000001000000000000000000000000000000000000000000                              000000000000000
201709030010026400000000000000123025                8000000000030501111127HOLCIM SA                     000000024865334000000000000000000000000000000000000000599501000000000000000000000000000000000000000085930000000000000000PES00010000001000000000000000000000000000000000000000000                              000000000000000
201708310010026400000000000000122888                8000000000030501111127HOLCIM SA                     000000007573232000000000000000000000000000000000000000182590000000000000000000000000000000000000000026171000000000000000PES00010000001000000000000000000000000000000000000000000                              000000000000000
201708310010026400000000000000122889                8000000000030501111127HOLCIM SA                     000000008115922000000000000000000000000000000000000000195674000000000000000000000000000000000000000028047000000000000000PES00010000001000000000000000000000000000000000000000000                              000000000000000
201708310010026400000000000000122890                8000000000030501111127HOLCIM SA                     000000009120970000000000000000000000000000000000000000219907000000000000000000000000000000000000000031520000000000000000PES00010000001000000000000000000000000000000000000000000                              000000000000000
201708310030026400000000000000001188                8000000000030501111127HOLCIM SA                     000000000517568000000000000000000000000000000000000000012479000000000000000000000000000000000000000001789000000000000000PES00010000001000000000000000000000000000000000000000000                              000000000000000
201708250010002300000000000000031283                8000000000030556095597PAREXKLAUKOL SA               000000011414924000000000000000000000000000000000000000268376000000000000000000000000322051000000000000000000000000000000PES00010000001000000000000000000000000000000000000000000                              000000000000000
201709080010002300000000000000031502                8000000000030556095597PAREXKLAUKOL SA               000000012890643000000000000000000000000000000000000000303072000000000000000000000000363686000000000000000000000000000000PES00010000001000000000000000000000000000000000000000000                              000000000000000
201709040010002300000000000000031404                8000000000030556095597PAREXKLAUKOL SA               000000000812811000000000000000000000000000000000000000019110000000000000000000000000022932000000000000000000000000000000PES00010000001000000000000000000000000000000000000000000                              000000000000000
201709020010000300000000000000001329                8000000000030707500588REFRACTARIOS CUYO SA          000000008287290000000000000000000000000000000000000000000000000000000000000000000000000000000000000000000000000000000000PES00010000001000000000000000000000000000000000000000000                              000000000000000
201709130010007100000000000000017338                8000000000030644685906SALTA PLAST POLIETILENOS SRL  000000000029655000000000000000000000000000000000000000000000000000000000000000000000000857000000000000000000000000000000PES00010000001000000000000000000000000000000000000000000                              000000000000000
201708010010000700000000000000040651                8000000000030700067021TUBONOR SA                    000000000611744000000000000000000000000000000000000000000000000000000000000000000000017675000000000000000000000000000000PES00010000001000000000000000000000000000000000000000000                              000000000000000
201708010010000700000000000000042652                8000000000030700067021TUBONOR SA                    000000001480422000000000000000000000000000000000000000000000000000000000000000000000042773000000000000000000000000000000PES00010000001000000000000000000000000000000000000000000                              000000000000000
201709140010000700000000000000043496                8000000000030700067021TUBONOR SA                    000000001379994000000000000000000000000000000000000000000000000000000000000000000000039871000000000000000000000000000000PES00010000001000000000000000000000000000000000000000000                              000000000000000
201708310010000700000000000000006058                8000000000030503884425TEXILO SA                     000000001472851000000000000000000000000000000000000000000000000000000000000000000000042554000000000000000000000000000000PES00010000001000000000000000000000000000000000000000000                              000000000000000
201708180010002000000000000000017652                8000000000030505374866PRODUCTOS VENIR SA            000000001554427000000000000000000000000000000000000000000000000000000000000000000000038829000000000000000000000000000000PES00010000001000000000000000000000000000000000000000000                              000000000000000
201709230010102700000000000000007210                8000000000030501199253ACINDAR INDUSTRIA ARGENTINA DE000000023486763000000000000000000000000000000000000000565492000000000000000000000000000000000000000113098000000000000000PES00010000001000000000000000000000000000000000000000000                              000000000000000
201709050010000500000000000000003466                8000000000030586321389VICENTE ALBORS SA             000000003960463000000000000000000000000000000000000000000000000000000000000000000000000000000000000000000000000000000000PES00010000001000000000000000000000000000000000000000000                              000000000000000
201709110010007400000000000000063064                8000000000030503037226EMAPI SA                      000000002051824000000000000000000000000000000000000000000000000000000000000000000000000000000000000000000000000000000000PES00010000001000000000000000000000000000000000000000000                              000000000000000
201709110010007400000000000000063063                8000000000030503037226EMAPI SA                      000000005070074000000000000000000000000000000000000000000000000000000000000000000000000000000000000000000000000000000000PES00010000001000000000000000000000000000000000000000000                              000000000000000
201709110030000700000000000000005800                8000000000030700067021TUBONOR SA                    000000000209217000000000000000000000000000000000000000000000000000000000000000000000006045000000000000000000000000000000PES00010000001000000000000000000000000000000000000000000                              000000000000000
201709140030003100000000000000002588                8000000000030710204671AUTOPERFORANTES SA            000000001906395000000000000000000000000000000000000000000000000000000000000000000000000000000000000000000000000000000000PES00010000001000000000000000000000000000000000000000000                              000000000000000
201709180030002100000000000000038300                8000000000030552816168DURLOCK SA                    000000001631078000000000000000000000000000000000000000000000000000000000000000000000000000000000000000000000000000000000PES00010000001000000000000000000000000000000000000000000                              000000000000000
