201607310010000100000000000020160701                8000000000030500010084Banco Macro                   000000000045012000000000000000000000000000000000000000000000000000000000000000000000000000000000000000000000000000000000PES00010000001000000000000000000000000000000000000000000                              000000000000000
201607310010000100000000000020160702                8000000000030500010084Banco Macro                   000000000037510000000000000000000000000000000000000000000000000000000000000000000000000000000000000000000000000000000000PES00010000001000000000000000000000000000000000000000000                              000000000000000
201608220010000200000000000000000034                8000000000027226517389PARDELLAS MARISA ALEJANDRA    000000003250302000000000000000000000000000000000000000000000000000000000000000000000000000000000000000000000000000000000PES00010000001000000000000000000000000000000000000000000                              000000000000000
201608180010000200000000000000000206                8000000000020229130472ZILVESTEIN LEONARDO           000000001542992000000000000000000000000000000000000000000000000000000000000000000000000000000000000000000000000000000000PES00010000001000000000000000000000000000000000000000000                              000000000000000
