201609010060000200000000000000007693000000000000000076938000000000020000000001Consumidor Final              000000000234000000000000000000000000000000000000000000000000000000000000000000000000000000000000000000000000000000000000PES00010000001000000000000000020160901
201609010060000200000000000000007694000000000000000076948000000000020000000001Consumidor Final              000000000047000000000000000000000000000000000000000000000000000000000000000000000000000000000000000000000000000000000000PES00010000001000000000000000020160901
201609010060000200000000000000007695000000000000000076958000000000020000000001Consumidor Final              000000000239000000000000000000000000000000000000000000000000000000000000000000000000000000000000000000000000000000000000PES00010000001000000000000000020160901
201609010060000200000000000000007696000000000000000076968000000000020000000001Consumidor Final              000000000058000000000000000000000000000000000000000000000000000000000000000000000000000000000000000000000000000000000000PES00010000001000000000000000020160901
201609010060000200000000000000007697000000000000000076978000000000020000000001Consumidor Final              000000000076000000000000000000000000000000000000000000000000000000000000000000000000000000000000000000000000000000000000PES00010000001000000000000000020160901
201609010060000200000000000000007698000000000000000076988000000000020000000001Consumidor Final              000000000052500000000000000000000000000000000000000000000000000000000000000000000000000000000000000000000000000000000000PES00010000001000000000000000020160901
201609010060000200000000000000007699000000000000000076998000000000020000000001Consumidor Final              000000000039000000000000000000000000000000000000000000000000000000000000000000000000000000000000000000000000000000000000PES00010000001000000000000000020160901
201609010060000200000000000000007700000000000000000077008000000000020000000001Consumidor Final              000000000099000000000000000000000000000000000000000000000000000000000000000000000000000000000000000000000000000000000000PES00010000001000000000000000020160901
201609010060000200000000000000007701000000000000000077018000000000020000000001Consumidor Final              000000000172000000000000000000000000000000000000000000000000000000000000000000000000000000000000000000000000000000000000PES00010000001000000000000000020160901
201609010060000200000000000000007702000000000000000077028000000000020000000001Consumidor Final              000000000125000000000000000000000000000000000000000000000000000000000000000000000000000000000000000000000000000000000000PES00010000001000000000000000020160901
201609010060000200000000000000007703000000000000000077038000000000020000000001Consumidor Final              000000000045000000000000000000000000000000000000000000000000000000000000000000000000000000000000000000000000000000000000PES00010000001000000000000000020160901
201609010060000200000000000000007704000000000000000077048000000000020000000001Consumidor Final              000000000076000000000000000000000000000000000000000000000000000000000000000000000000000000000000000000000000000000000000PES00010000001000000000000000020160901
201609010060000200000000000000007705000000000000000077058000000000020000000001Consumidor Final              000000000060000000000000000000000000000000000000000000000000000000000000000000000000000000000000000000000000000000000000PES00010000001000000000000000020160901
201609010060000200000000000000007706000000000000000077068000000000020000000001Consumidor Final              000000000010000000000000000000000000000000000000000000000000000000000000000000000000000000000000000000000000000000000000PES00010000001000000000000000020160901
201609020060000200000000000000007707000000000000000077078000000000020000000001Consumidor Final              000000000115000000000000000000000000000000000000000000000000000000000000000000000000000000000000000000000000000000000000PES00010000001000000000000000020160902
201609020060000200000000000000007708000000000000000077088000000000020000000001Consumidor Final              000000000252000000000000000000000000000000000000000000000000000000000000000000000000000000000000000000000000000000000000PES00010000001000000000000000020160902
201609020060000200000000000000007709000000000000000077098000000000020000000001Consumidor Final              000000000130000000000000000000000000000000000000000000000000000000000000000000000000000000000000000000000000000000000000PES00010000001000000000000000020160902
201609020060000200000000000000007710000000000000000077108000000000020000000001Consumidor Final              000000000120000000000000000000000000000000000000000000000000000000000000000000000000000000000000000000000000000000000000PES00010000001000000000000000020160902
201609020060000200000000000000007711000000000000000077118000000000020000000001Consumidor Final              000000000040000000000000000000000000000000000000000000000000000000000000000000000000000000000000000000000000000000000000PES00010000001000000000000000020160902
201609020060000200000000000000007712000000000000000077128000000000020000000001Consumidor Final              000000000273000000000000000000000000000000000000000000000000000000000000000000000000000000000000000000000000000000000000PES00010000001000000000000000020160902
201609020060000200000000000000007713000000000000000077138000000000020000000001Consumidor Final              000000000042000000000000000000000000000000000000000000000000000000000000000000000000000000000000000000000000000000000000PES00010000001000000000000000020160902
201609020060000200000000000000007714000000000000000077148000000000020000000001Consumidor Final              000000000033000000000000000000000000000000000000000000000000000000000000000000000000000000000000000000000000000000000000PES00010000001000000000000000020160902
201609020060000200000000000000007715000000000000000077158000000000020000000001Consumidor Final              000000000069000000000000000000000000000000000000000000000000000000000000000000000000000000000000000000000000000000000000PES00010000001000000000000000020160902
201609020060000200000000000000007716000000000000000077168000000000020000000001Consumidor Final              000000000315000000000000000000000000000000000000000000000000000000000000000000000000000000000000000000000000000000000000PES00010000001000000000000000020160902
201609020060000200000000000000007717000000000000000077178000000000020000000001Consumidor Final              000000000048000000000000000000000000000000000000000000000000000000000000000000000000000000000000000000000000000000000000PES00010000001000000000000000020160902
201609020060000200000000000000007718000000000000000077188000000000020000000001Consumidor Final              000000000062500000000000000000000000000000000000000000000000000000000000000000000000000000000000000000000000000000000000PES00010000001000000000000000020160902
201609020060000200000000000000007719000000000000000077198000000000020000000001Consumidor Final              000000000099000000000000000000000000000000000000000000000000000000000000000000000000000000000000000000000000000000000000PES00010000001000000000000000020160902
201609020060000200000000000000007720000000000000000077208000000000020000000001Consumidor Final              000000000105000000000000000000000000000000000000000000000000000000000000000000000000000000000000000000000000000000000000PES00010000001000000000000000020160902
201609020060000200000000000000007721000000000000000077218000000000020000000001Consumidor Final              000000000025000000000000000000000000000000000000000000000000000000000000000000000000000000000000000000000000000000000000PES00010000001000000000000000020160902
201609020060000200000000000000007722000000000000000077228000000000020000000001Consumidor Final              000000000300000000000000000000000000000000000000000000000000000000000000000000000000000000000000000000000000000000000000PES00010000001000000000000000020160902
201609020060000200000000000000007723000000000000000077238000000000020000000001Consumidor Final              000000000073000000000000000000000000000000000000000000000000000000000000000000000000000000000000000000000000000000000000PES00010000001000000000000000020160902
201609020060000200000000000000007724000000000000000077248000000000020000000001Consumidor Final              000000000052500000000000000000000000000000000000000000000000000000000000000000000000000000000000000000000000000000000000PES00010000001000000000000000020160902
201609030060000200000000000000007725000000000000000077258000000000020000000001Consumidor Final              000000000082000000000000000000000000000000000000000000000000000000000000000000000000000000000000000000000000000000000000PES00010000001000000000000000020160903
201609030060000200000000000000007726000000000000000077268000000000020000000001Consumidor Final              000000000119000000000000000000000000000000000000000000000000000000000000000000000000000000000000000000000000000000000000PES00010000001000000000000000020160903
201609030060000200000000000000007727000000000000000077278000000000020000000001Consumidor Final              000000000065000000000000000000000000000000000000000000000000000000000000000000000000000000000000000000000000000000000000PES00010000001000000000000000020160903
201609030060000200000000000000007728000000000000000077288000000000020000000001Consumidor Final              000000000040000000000000000000000000000000000000000000000000000000000000000000000000000000000000000000000000000000000000PES00010000001000000000000000020160903
201609030060000200000000000000007729000000000000000077298000000000020000000001Consumidor Final              000000000048000000000000000000000000000000000000000000000000000000000000000000000000000000000000000000000000000000000000PES00010000001000000000000000020160903
201609030060000200000000000000007730000000000000000077308000000000020000000001Consumidor Final              000000000230000000000000000000000000000000000000000000000000000000000000000000000000000000000000000000000000000000000000PES00010000001000000000000000020160903
201609030060000200000000000000007731000000000000000077318000000000020000000001Consumidor Final              000000000115000000000000000000000000000000000000000000000000000000000000000000000000000000000000000000000000000000000000PES00010000001000000000000000020160903
201609030060000200000000000000007732000000000000000077328000000000020000000001Consumidor Final              000000000049000000000000000000000000000000000000000000000000000000000000000000000000000000000000000000000000000000000000PES00010000001000000000000000020160903
201609030060000200000000000000007733000000000000000077338000000000020000000001Consumidor Final              000000000125000000000000000000000000000000000000000000000000000000000000000000000000000000000000000000000000000000000000PES00010000001000000000000000020160903
201609030060000200000000000000007734000000000000000077348000000000020000000001Consumidor Final              000000000210000000000000000000000000000000000000000000000000000000000000000000000000000000000000000000000000000000000000PES00010000001000000000000000020160903
201609030060000200000000000000007735000000000000000077358000000000020000000001Consumidor Final              000000000055000000000000000000000000000000000000000000000000000000000000000000000000000000000000000000000000000000000000PES00010000001000000000000000020160903
201609030060000200000000000000007736000000000000000077368000000000020000000001Consumidor Final              000000000040000000000000000000000000000000000000000000000000000000000000000000000000000000000000000000000000000000000000PES00010000001000000000000000020160903
201609050060000200000000000000007737000000000000000077378000000000020000000001Consumidor Final              000000000145000000000000000000000000000000000000000000000000000000000000000000000000000000000000000000000000000000000000PES00010000001000000000000000020160905
201609050060000200000000000000007738000000000000000077388000000000020000000001Consumidor Final              000000000157500000000000000000000000000000000000000000000000000000000000000000000000000000000000000000000000000000000000PES00010000001000000000000000020160905
201609050060000200000000000000007739000000000000000077398000000000020000000001Consumidor Final              000000000135000000000000000000000000000000000000000000000000000000000000000000000000000000000000000000000000000000000000PES00010000001000000000000000020160905
201609050060000200000000000000007740000000000000000077408000000000020000000001Consumidor Final              000000000178000000000000000000000000000000000000000000000000000000000000000000000000000000000000000000000000000000000000PES00010000001000000000000000020160905
201609050060000200000000000000007741000000000000000077418000000000020000000001Consumidor Final              000000000090000000000000000000000000000000000000000000000000000000000000000000000000000000000000000000000000000000000000PES00010000001000000000000000020160905
201609050060000200000000000000007742000000000000000077428000000000020000000001Consumidor Final              000000000295000000000000000000000000000000000000000000000000000000000000000000000000000000000000000000000000000000000000PES00010000001000000000000000020160905
201609050060000200000000000000007743000000000000000077438000000000020000000001Consumidor Final              000000000079000000000000000000000000000000000000000000000000000000000000000000000000000000000000000000000000000000000000PES00010000001000000000000000020160905
201609050060000200000000000000007744000000000000000077448000000000020000000001Consumidor Final              000000000225000000000000000000000000000000000000000000000000000000000000000000000000000000000000000000000000000000000000PES00010000001000000000000000020160905
201609050060000200000000000000007745000000000000000077458000000000020000000001Consumidor Final              000000000040000000000000000000000000000000000000000000000000000000000000000000000000000000000000000000000000000000000000PES00010000001000000000000000020160905
201609050060000200000000000000007746000000000000000077468000000000020000000001Consumidor Final              000000000105000000000000000000000000000000000000000000000000000000000000000000000000000000000000000000000000000000000000PES00010000001000000000000000020160905
201609050060000200000000000000007747000000000000000077478000000000020000000001Consumidor Final              000000000041000000000000000000000000000000000000000000000000000000000000000000000000000000000000000000000000000000000000PES00010000001000000000000000020160905
201609050060000200000000000000007748000000000000000077488000000000020000000001Consumidor Final              000000000035000000000000000000000000000000000000000000000000000000000000000000000000000000000000000000000000000000000000PES00010000001000000000000000020160905
201609050060000200000000000000007749000000000000000077498000000000020000000001Consumidor Final              000000000005000000000000000000000000000000000000000000000000000000000000000000000000000000000000000000000000000000000000PES00010000001000000000000000020160905
201609050060000200000000000000007750000000000000000077508000000000020000000001Consumidor Final              000000000210000000000000000000000000000000000000000000000000000000000000000000000000000000000000000000000000000000000000PES00010000001000000000000000020160905
201609050060000200000000000000007751000000000000000077518000000000020000000001Consumidor Final              000000000110000000000000000000000000000000000000000000000000000000000000000000000000000000000000000000000000000000000000PES00010000001000000000000000020160905
201609050060000200000000000000007752000000000000000077528000000000020000000001Consumidor Final              000000000170000000000000000000000000000000000000000000000000000000000000000000000000000000000000000000000000000000000000PES00010000001000000000000000020160905
201609050060000200000000000000007753000000000000000077538000000000020000000001Consumidor Final              000000000050000000000000000000000000000000000000000000000000000000000000000000000000000000000000000000000000000000000000PES00010000001000000000000000020160905
201609050060000200000000000000007754000000000000000077548000000000020000000001Consumidor Final              000000000040000000000000000000000000000000000000000000000000000000000000000000000000000000000000000000000000000000000000PES00010000001000000000000000020160905
201609050060000200000000000000007755000000000000000077558000000000020000000001Consumidor Final              000000000078000000000000000000000000000000000000000000000000000000000000000000000000000000000000000000000000000000000000PES00010000001000000000000000020160905
201609050060000200000000000000007756000000000000000077568000000000020000000001Consumidor Final              000000000040000000000000000000000000000000000000000000000000000000000000000000000000000000000000000000000000000000000000PES00010000001000000000000000020160905
201609050060000200000000000000007757000000000000000077578000000000020000000001Consumidor Final              000000000165000000000000000000000000000000000000000000000000000000000000000000000000000000000000000000000000000000000000PES00010000001000000000000000020160905
201609050060000200000000000000007758000000000000000077588000000000020000000001Consumidor Final              000000000107000000000000000000000000000000000000000000000000000000000000000000000000000000000000000000000000000000000000PES00010000001000000000000000020160905
201609050060000200000000000000007759000000000000000077598000000000020000000001Consumidor Final              000000000050000000000000000000000000000000000000000000000000000000000000000000000000000000000000000000000000000000000000PES00010000001000000000000000020160905
201609050060000200000000000000007760000000000000000077608000000000020000000001Consumidor Final              000000000097000000000000000000000000000000000000000000000000000000000000000000000000000000000000000000000000000000000000PES00010000001000000000000000020160905
201609050060000200000000000000007761000000000000000077618000000000020000000001Consumidor Final              000000000075000000000000000000000000000000000000000000000000000000000000000000000000000000000000000000000000000000000000PES00010000001000000000000000020160905
201609050060000200000000000000007762000000000000000077628000000000020000000001Consumidor Final              000000000129900000000000000000000000000000000000000000000000000000000000000000000000000000000000000000000000000000000000PES00010000001000000000000000020160905
201609050060000200000000000000007763000000000000000077638000000000020000000001Consumidor Final              000000000022000000000000000000000000000000000000000000000000000000000000000000000000000000000000000000000000000000000000PES00010000001000000000000000020160905
201609050060000200000000000000007764000000000000000077649600000000020000000001Consumidor Final              000000000051000000000000000000000000000000000000000000000000000000000000000000000000000000000000000000000000000000000000PES00010000001000000000000000020160905
201609050060000200000000000000007765000000000000000077658000000000020000000001Consumidor Final              000000000135000000000000000000000000000000000000000000000000000000000000000000000000000000000000000000000000000000000000PES00010000001000000000000000020160905
201609050060000200000000000000007766000000000000000077668000000000020000000001Consumidor Final              000000000157000000000000000000000000000000000000000000000000000000000000000000000000000000000000000000000000000000000000PES00010000001000000000000000020160905
201609050060000200000000000000007767000000000000000077678000000000020000000001Consumidor Final              000000000070000000000000000000000000000000000000000000000000000000000000000000000000000000000000000000000000000000000000PES00010000001000000000000000020160905
201609050060000200000000000000007768000000000000000077688000000000020000000001Consumidor Final              000000000070000000000000000000000000000000000000000000000000000000000000000000000000000000000000000000000000000000000000PES00010000001000000000000000020160905
201609050060000200000000000000007769000000000000000077698000000000020000000001Consumidor Final              000000000069000000000000000000000000000000000000000000000000000000000000000000000000000000000000000000000000000000000000PES00010000001000000000000000020160905
201609060060000200000000000000007770000000000000000077708000000000020000000001Consumidor Final              000000000135000000000000000000000000000000000000000000000000000000000000000000000000000000000000000000000000000000000000PES00010000001000000000000000020160906
201609060060000200000000000000007771000000000000000077718000000000020000000001Consumidor Final              000000000100000000000000000000000000000000000000000000000000000000000000000000000000000000000000000000000000000000000000PES00010000001000000000000000020160906
201609060060000200000000000000007772000000000000000077728000000000020000000001Consumidor Final              000000000051000000000000000000000000000000000000000000000000000000000000000000000000000000000000000000000000000000000000PES00010000001000000000000000020160906
201609060060000200000000000000007773000000000000000077738000000000020000000001Consumidor Final              000000000029000000000000000000000000000000000000000000000000000000000000000000000000000000000000000000000000000000000000PES00010000001000000000000000020160906
201609060060000200000000000000007774000000000000000077748000000000020000000001Consumidor Final              000000000153000000000000000000000000000000000000000000000000000000000000000000000000000000000000000000000000000000000000PES00010000001000000000000000020160906
201609060060000200000000000000007775000000000000000077758000000000020000000001Consumidor Final              000000000169000000000000000000000000000000000000000000000000000000000000000000000000000000000000000000000000000000000000PES00010000001000000000000000020160906
201609060060000200000000000000007776000000000000000077768000000000020000000001Consumidor Final              000000000090000000000000000000000000000000000000000000000000000000000000000000000000000000000000000000000000000000000000PES00010000001000000000000000020160906
201609060060000200000000000000007777000000000000000077778000000000020000000001Consumidor Final              000000000110000000000000000000000000000000000000000000000000000000000000000000000000000000000000000000000000000000000000PES00010000001000000000000000020160906
201609060060000200000000000000007778000000000000000077788000000000020000000001Consumidor Final              000000000115000000000000000000000000000000000000000000000000000000000000000000000000000000000000000000000000000000000000PES00010000001000000000000000020160906
201609060060000200000000000000007779000000000000000077798000000000020000000001Consumidor Final              000000000065000000000000000000000000000000000000000000000000000000000000000000000000000000000000000000000000000000000000PES00010000001000000000000000020160906
201609060060000200000000000000007780000000000000000077808000000000020000000001Consumidor Final              000000000078000000000000000000000000000000000000000000000000000000000000000000000000000000000000000000000000000000000000PES00010000001000000000000000020160906
201609060060000200000000000000007781000000000000000077818000000000020000000001Consumidor Final              000000000288000000000000000000000000000000000000000000000000000000000000000000000000000000000000000000000000000000000000PES00010000001000000000000000020160906
201609060060000200000000000000007782000000000000000077828000000000020000000001Consumidor Final              000000000075000000000000000000000000000000000000000000000000000000000000000000000000000000000000000000000000000000000000PES00010000001000000000000000020160906
201609060060000200000000000000007783000000000000000077838000000000020000000001Consumidor Final              000000000288000000000000000000000000000000000000000000000000000000000000000000000000000000000000000000000000000000000000PES00010000001000000000000000020160906
201609060060000200000000000000007784000000000000000077848000000000020000000001Consumidor Final              000000000075000000000000000000000000000000000000000000000000000000000000000000000000000000000000000000000000000000000000PES00010000001000000000000000020160906
201609060060000200000000000000007785000000000000000077858000000000020000000001Consumidor Final              000000000040000000000000000000000000000000000000000000000000000000000000000000000000000000000000000000000000000000000000PES00010000001000000000000000020160906
201609060060000200000000000000007786000000000000000077868000000000020000000001Consumidor Final              000000000098000000000000000000000000000000000000000000000000000000000000000000000000000000000000000000000000000000000000PES00010000001000000000000000020160906
201609060060000200000000000000007787000000000000000077878000000000020000000001Consumidor Final              000000000045000000000000000000000000000000000000000000000000000000000000000000000000000000000000000000000000000000000000PES00010000001000000000000000020160906
201609060060000200000000000000007788000000000000000077888000000000020000000001Consumidor Final              000000000135000000000000000000000000000000000000000000000000000000000000000000000000000000000000000000000000000000000000PES00010000001000000000000000020160906
201609060060000200000000000000007789000000000000000077898000000000020000000001Consumidor Final              000000000297500000000000000000000000000000000000000000000000000000000000000000000000000000000000000000000000000000000000PES00010000001000000000000000020160906
201609060060000200000000000000007790000000000000000077908000000000020000000001Consumidor Final              000000000105000000000000000000000000000000000000000000000000000000000000000000000000000000000000000000000000000000000000PES00010000001000000000000000020160906
201609060060000200000000000000007791000000000000000077918000000000020000000001Consumidor Final              000000000048000000000000000000000000000000000000000000000000000000000000000000000000000000000000000000000000000000000000PES00010000001000000000000000020160906
201609060060000200000000000000007792000000000000000077928000000000020000000001Consumidor Final              000000000135000000000000000000000000000000000000000000000000000000000000000000000000000000000000000000000000000000000000PES00010000001000000000000000020160906
201609060060000200000000000000007793000000000000000077938000000000020000000001Consumidor Final              000000000096500000000000000000000000000000000000000000000000000000000000000000000000000000000000000000000000000000000000PES00010000001000000000000000020160906
201609060060000200000000000000007794000000000000000077948000000000020000000001Consumidor Final              000000000051000000000000000000000000000000000000000000000000000000000000000000000000000000000000000000000000000000000000PES00010000001000000000000000020160906
201609060060000200000000000000007795000000000000000077958000000000020000000001Consumidor Final              000000000052500000000000000000000000000000000000000000000000000000000000000000000000000000000000000000000000000000000000PES00010000001000000000000000020160906
201609060060000200000000000000007796000000000000000077968000000000020000000001Consumidor Final              000000000052500000000000000000000000000000000000000000000000000000000000000000000000000000000000000000000000000000000000PES00010000001000000000000000020160906
201609060060000200000000000000007797000000000000000077978000000000020000000001Consumidor Final              000000000040000000000000000000000000000000000000000000000000000000000000000000000000000000000000000000000000000000000000PES00010000001000000000000000020160906
201609060060000200000000000000007798000000000000000077988000000000020000000001Consumidor Final              000000000125000000000000000000000000000000000000000000000000000000000000000000000000000000000000000000000000000000000000PES00010000001000000000000000020160906
201609060060000200000000000000007799000000000000000077998000000000020000000001Consumidor Final              000000000045000000000000000000000000000000000000000000000000000000000000000000000000000000000000000000000000000000000000PES00010000001000000000000000020160906
201609060060000200000000000000007800000000000000000078008000000000020000000001Consumidor Final              000000000005000000000000000000000000000000000000000000000000000000000000000000000000000000000000000000000000000000000000PES00010000001000000000000000020160906
201609060060000200000000000000007801000000000000000078018000000000020000000001Consumidor Final              000000000099000000000000000000000000000000000000000000000000000000000000000000000000000000000000000000000000000000000000PES00010000001000000000000000020160906
201609060060000200000000000000007802000000000000000078028000000000020000000001Consumidor Final              000000000164000000000000000000000000000000000000000000000000000000000000000000000000000000000000000000000000000000000000PES00010000001000000000000000020160906
201609060060000200000000000000007803000000000000000078038000000000020000000001Consumidor Final              000000000052500000000000000000000000000000000000000000000000000000000000000000000000000000000000000000000000000000000000PES00010000001000000000000000020160906
201609070060000200000000000000007804000000000000000078048000000000020000000001Consumidor Final              000000000030000000000000000000000000000000000000000000000000000000000000000000000000000000000000000000000000000000000000PES00010000001000000000000000020160907
201609070060000200000000000000007805000000000000000078058000000000020000000001Consumidor Final              000000000085000000000000000000000000000000000000000000000000000000000000000000000000000000000000000000000000000000000000PES00010000001000000000000000020160907
201609070060000200000000000000007806000000000000000078068000000000020000000001Consumidor Final              000000000400000000000000000000000000000000000000000000000000000000000000000000000000000000000000000000000000000000000000PES00010000001000000000000000020160907
201609070060000200000000000000007807000000000000000078078000000000020000000001Consumidor Final              000000000035000000000000000000000000000000000000000000000000000000000000000000000000000000000000000000000000000000000000PES00010000001000000000000000020160907
201609070060000200000000000000007808000000000000000078088000000000020000000001Consumidor Final              000000000175000000000000000000000000000000000000000000000000000000000000000000000000000000000000000000000000000000000000PES00010000001000000000000000020160907
201609070060000200000000000000007809000000000000000078098000000000020000000001Consumidor Final              000000000044000000000000000000000000000000000000000000000000000000000000000000000000000000000000000000000000000000000000PES00010000001000000000000000020160907
201609070060000200000000000000007810000000000000000078108000000000020000000001Consumidor Final              000000000247500000000000000000000000000000000000000000000000000000000000000000000000000000000000000000000000000000000000PES00010000001000000000000000020160907
201609070060000200000000000000007811000000000000000078118000000000020000000001Consumidor Final              000000000118000000000000000000000000000000000000000000000000000000000000000000000000000000000000000000000000000000000000PES00010000001000000000000000020160907
201609070060000200000000000000007812000000000000000078128000000000020000000001Consumidor Final              000000000125000000000000000000000000000000000000000000000000000000000000000000000000000000000000000000000000000000000000PES00010000001000000000000000020160907
201609070060000200000000000000007813000000000000000078138000000000020000000001Consumidor Final              000000000117500000000000000000000000000000000000000000000000000000000000000000000000000000000000000000000000000000000000PES00010000001000000000000000020160907
201609070060000200000000000000007814000000000000000078148000000000020000000001Consumidor Final              000000000051000000000000000000000000000000000000000000000000000000000000000000000000000000000000000000000000000000000000PES00010000001000000000000000020160907
201609070060000200000000000000007815000000000000000078158000000000020000000001Consumidor Final              000000000048000000000000000000000000000000000000000000000000000000000000000000000000000000000000000000000000000000000000PES00010000001000000000000000020160907
201609070060000200000000000000007816000000000000000078168000000000020000000001Consumidor Final              000000000280000000000000000000000000000000000000000000000000000000000000000000000000000000000000000000000000000000000000PES00010000001000000000000000020160907
201609070060000200000000000000007817000000000000000078178000000000020000000001Consumidor Final              000000000059000000000000000000000000000000000000000000000000000000000000000000000000000000000000000000000000000000000000PES00010000001000000000000000020160907
201609070060000200000000000000007818000000000000000078188000000000020000000001Consumidor Final              000000000074000000000000000000000000000000000000000000000000000000000000000000000000000000000000000000000000000000000000PES00010000001000000000000000020160907
201609070060000200000000000000007819000000000000000078198000000000020000000001Consumidor Final              000000000048000000000000000000000000000000000000000000000000000000000000000000000000000000000000000000000000000000000000PES00010000001000000000000000020160907
201609070060000200000000000000007820000000000000000078208000000000020000000001Consumidor Final              000000000247000000000000000000000000000000000000000000000000000000000000000000000000000000000000000000000000000000000000PES00010000001000000000000000020160907
201609070060000200000000000000007821000000000000000078218000000000020000000001Consumidor Final              000000000178000000000000000000000000000000000000000000000000000000000000000000000000000000000000000000000000000000000000PES00010000001000000000000000020160907
201609070060000200000000000000007822000000000000000078228000000000020000000001Consumidor Final              000000000045000000000000000000000000000000000000000000000000000000000000000000000000000000000000000000000000000000000000PES00010000001000000000000000020160907
201609070060000200000000000000007823000000000000000078238000000000020000000001Consumidor Final              000000000035000000000000000000000000000000000000000000000000000000000000000000000000000000000000000000000000000000000000PES00010000001000000000000000020160907
201609070060000200000000000000007824000000000000000078248000000000020000000001Consumidor Final              000000000030000000000000000000000000000000000000000000000000000000000000000000000000000000000000000000000000000000000000PES00010000001000000000000000020160907
201609070060000200000000000000007825000000000000000078258000000000020000000001Consumidor Final              000000000109500000000000000000000000000000000000000000000000000000000000000000000000000000000000000000000000000000000000PES00010000001000000000000000020160907
201609080060000200000000000000007826000000000000000078268000000000020000000001Consumidor Final              000000000190000000000000000000000000000000000000000000000000000000000000000000000000000000000000000000000000000000000000PES00010000001000000000000000020160908
201609080060000200000000000000007827000000000000000078278000000000020000000001Consumidor Final              000000000047500000000000000000000000000000000000000000000000000000000000000000000000000000000000000000000000000000000000PES00010000001000000000000000020160908
201609080060000200000000000000007828000000000000000078288000000000020000000001Consumidor Final              000000000042000000000000000000000000000000000000000000000000000000000000000000000000000000000000000000000000000000000000PES00010000001000000000000000020160908
201609080060000200000000000000007829000000000000000078298000000000020000000001Consumidor Final              000000000090000000000000000000000000000000000000000000000000000000000000000000000000000000000000000000000000000000000000PES00010000001000000000000000020160908
201609080060000200000000000000007830000000000000000078308000000000020000000001Consumidor Final              000000000090000000000000000000000000000000000000000000000000000000000000000000000000000000000000000000000000000000000000PES00010000001000000000000000020160908
201609080060000200000000000000007831000000000000000078318000000000020000000001Consumidor Final              000000000024000000000000000000000000000000000000000000000000000000000000000000000000000000000000000000000000000000000000PES00010000001000000000000000020160908
201609080060000200000000000000007832000000000000000078328000000000020000000001Consumidor Final              000000000065000000000000000000000000000000000000000000000000000000000000000000000000000000000000000000000000000000000000PES00010000001000000000000000020160908
201609080060000200000000000000007833000000000000000078338000000000020000000001Consumidor Final              000000000039000000000000000000000000000000000000000000000000000000000000000000000000000000000000000000000000000000000000PES00010000001000000000000000020160908
201609080060000200000000000000007834000000000000000078348000000000020000000001Consumidor Final              000000000077500000000000000000000000000000000000000000000000000000000000000000000000000000000000000000000000000000000000PES00010000001000000000000000020160908
201609080060000200000000000000007835000000000000000078358000000000020000000001Consumidor Final              000000000010000000000000000000000000000000000000000000000000000000000000000000000000000000000000000000000000000000000000PES00010000001000000000000000020160908
201609080060000200000000000000007836000000000000000078368000000000020000000001Consumidor Final              000000000053000000000000000000000000000000000000000000000000000000000000000000000000000000000000000000000000000000000000PES00010000001000000000000000020160908
201609080060000200000000000000007837000000000000000078378000000000020000000001Consumidor Final              000000000048000000000000000000000000000000000000000000000000000000000000000000000000000000000000000000000000000000000000PES00010000001000000000000000020160908
201609080060000200000000000000007838000000000000000078388000000000020000000001Consumidor Final              000000000048000000000000000000000000000000000000000000000000000000000000000000000000000000000000000000000000000000000000PES00010000001000000000000000020160908
201609090060000200000000000000007839000000000000000078398000000000020000000001Consumidor Final              000000000357000000000000000000000000000000000000000000000000000000000000000000000000000000000000000000000000000000000000PES00010000001000000000000000020160909
201609090060000200000000000000007840000000000000000078408000000000020000000001Consumidor Final              000000000062500000000000000000000000000000000000000000000000000000000000000000000000000000000000000000000000000000000000PES00010000001000000000000000020160909
201609090060000200000000000000007841000000000000000078418000000000020000000001Consumidor Final              000000000045000000000000000000000000000000000000000000000000000000000000000000000000000000000000000000000000000000000000PES00010000001000000000000000020160909
201609090060000200000000000000007842000000000000000078428000000000020000000001Consumidor Final              000000000035000000000000000000000000000000000000000000000000000000000000000000000000000000000000000000000000000000000000PES00010000001000000000000000020160909
201609090060000200000000000000007843000000000000000078438000000000020000000001Consumidor Final              000000000048000000000000000000000000000000000000000000000000000000000000000000000000000000000000000000000000000000000000PES00010000001000000000000000020160909
201609090060000200000000000000007844000000000000000078448000000000020000000001Consumidor Final              000000000077500000000000000000000000000000000000000000000000000000000000000000000000000000000000000000000000000000000000PES00010000001000000000000000020160909
201609090060000200000000000000007845000000000000000078458000000000020000000001Consumidor Final              000000000100000000000000000000000000000000000000000000000000000000000000000000000000000000000000000000000000000000000000PES00010000001000000000000000020160909
201609090060000200000000000000007846000000000000000078468000000000020000000001Consumidor Final              000000000061000000000000000000000000000000000000000000000000000000000000000000000000000000000000000000000000000000000000PES00010000001000000000000000020160909
201609090060000200000000000000007847000000000000000078478000000000020000000001Consumidor Final              000000000155000000000000000000000000000000000000000000000000000000000000000000000000000000000000000000000000000000000000PES00010000001000000000000000020160909
201609090060000200000000000000007848000000000000000078488000000000020000000001Consumidor Final              000000000125000000000000000000000000000000000000000000000000000000000000000000000000000000000000000000000000000000000000PES00010000001000000000000000020160909
201609090060000200000000000000007849000000000000000078498000000000020000000001Consumidor Final              000000000039000000000000000000000000000000000000000000000000000000000000000000000000000000000000000000000000000000000000PES00010000001000000000000000020160909
201609090060000200000000000000007850000000000000000078508000000000020000000001Consumidor Final              000000000090000000000000000000000000000000000000000000000000000000000000000000000000000000000000000000000000000000000000PES00010000001000000000000000020160909
201609090060000200000000000000007851000000000000000078518000000000020000000001Consumidor Final              000000000025000000000000000000000000000000000000000000000000000000000000000000000000000000000000000000000000000000000000PES00010000001000000000000000020160909
201609090060000200000000000000007852000000000000000078528000000000020000000001Consumidor Final              000000000169000000000000000000000000000000000000000000000000000000000000000000000000000000000000000000000000000000000000PES00010000001000000000000000020160909
201609090010000200000000000000000061000000000000000000618000000000030709676861Hosp Priv Tres Cerritos       000000000045000000000000000000000000000000000000000000000000000000000000000000000000000000000000000000000000000000000000PES00010000001000000000000000020160909
201609100060000200000000000000007853000000000000000078538000000000020000000001Consumidor Final              000000000040000000000000000000000000000000000000000000000000000000000000000000000000000000000000000000000000000000000000PES00010000001000000000000000020160910
201609100060000200000000000000007854000000000000000078548000000000020000000001Consumidor Final              000000000170000000000000000000000000000000000000000000000000000000000000000000000000000000000000000000000000000000000000PES00010000001000000000000000020160910
201609100060000200000000000000007855000000000000000078558000000000020000000001Consumidor Final              000000000080000000000000000000000000000000000000000000000000000000000000000000000000000000000000000000000000000000000000PES00010000001000000000000000020160910
201609100060000200000000000000007856000000000000000078568000000000020000000001Consumidor Final              000000000180000000000000000000000000000000000000000000000000000000000000000000000000000000000000000000000000000000000000PES00010000001000000000000000020160910
201609100060000200000000000000007857000000000000000078578000000000020000000001Consumidor Final              000000000274500000000000000000000000000000000000000000000000000000000000000000000000000000000000000000000000000000000000PES00010000001000000000000000020160910
201609100060000200000000000000007858000000000000000078588000000000020000000001Consumidor Final              000000000080000000000000000000000000000000000000000000000000000000000000000000000000000000000000000000000000000000000000PES00010000001000000000000000020160910
201609100060000200000000000000007859000000000000000078598000000000020000000001Consumidor Final              000000000018000000000000000000000000000000000000000000000000000000000000000000000000000000000000000000000000000000000000PES00010000001000000000000000020160910
201609100060000200000000000000007860000000000000000078608000000000020000000001Consumidor Final              000000000006000000000000000000000000000000000000000000000000000000000000000000000000000000000000000000000000000000000000PES00010000001000000000000000020160910
201609120060000200000000000000007861000000000000000078618000000000020000000001Consumidor Final              000000000078000000000000000000000000000000000000000000000000000000000000000000000000000000000000000000000000000000000000PES00010000001000000000000000020160912
201609120060000200000000000000007862000000000000000078628000000000020000000001Consumidor Final              000000000085000000000000000000000000000000000000000000000000000000000000000000000000000000000000000000000000000000000000PES00010000001000000000000000020160912
201609120060000200000000000000007863000000000000000078638000000000020000000001Consumidor Final              000000000050000000000000000000000000000000000000000000000000000000000000000000000000000000000000000000000000000000000000PES00010000001000000000000000020160912
201609120060000200000000000000007864000000000000000078648000000000020000000001Consumidor Final              000000000017500000000000000000000000000000000000000000000000000000000000000000000000000000000000000000000000000000000000PES00010000001000000000000000020160912
201609120060000200000000000000007865000000000000000078658000000000020000000001Consumidor Final              000000000175000000000000000000000000000000000000000000000000000000000000000000000000000000000000000000000000000000000000PES00010000001000000000000000020160912
201609120060000200000000000000007866000000000000000078668000000000020000000001Consumidor Final              000000000059000000000000000000000000000000000000000000000000000000000000000000000000000000000000000000000000000000000000PES00010000001000000000000000020160912
201609120060000200000000000000007867000000000000000078678000000000020000000001Consumidor Final              000000000085000000000000000000000000000000000000000000000000000000000000000000000000000000000000000000000000000000000000PES00010000001000000000000000020160912
201609120060000200000000000000007868000000000000000078688000000000020000000001Consumidor Final              000000000449000000000000000000000000000000000000000000000000000000000000000000000000000000000000000000000000000000000000PES00010000001000000000000000020160912
201609120060000200000000000000007869000000000000000078698000000000020000000001Consumidor Final              000000000090000000000000000000000000000000000000000000000000000000000000000000000000000000000000000000000000000000000000PES00010000001000000000000000020160912
201609120060000200000000000000007870000000000000000078708000000000020000000001Consumidor Final              000000000085000000000000000000000000000000000000000000000000000000000000000000000000000000000000000000000000000000000000PES00010000001000000000000000020160912
201609120060000200000000000000007871000000000000000078718000000000020000000001Consumidor Final              000000000110000000000000000000000000000000000000000000000000000000000000000000000000000000000000000000000000000000000000PES00010000001000000000000000020160912
201609120060000200000000000000007872000000000000000078728000000000020000000001Consumidor Final              000000000093000000000000000000000000000000000000000000000000000000000000000000000000000000000000000000000000000000000000PES00010000001000000000000000020160912
201609120060000200000000000000007873000000000000000078738000000000020000000001Consumidor Final              000000000025000000000000000000000000000000000000000000000000000000000000000000000000000000000000000000000000000000000000PES00010000001000000000000000020160912
201609120060000200000000000000007874000000000000000078748000000000020000000001Consumidor Final              000000000039000000000000000000000000000000000000000000000000000000000000000000000000000000000000000000000000000000000000PES00010000001000000000000000020160912
201609120060000200000000000000007875000000000000000078758000000000020000000001Consumidor Final              000000000015000000000000000000000000000000000000000000000000000000000000000000000000000000000000000000000000000000000000PES00010000001000000000000000020160912
201609120060000200000000000000007876000000000000000078768000000000020000000001Consumidor Final              000000000075000000000000000000000000000000000000000000000000000000000000000000000000000000000000000000000000000000000000PES00010000001000000000000000020160912
201609120060000200000000000000007877000000000000000078778000000000020000000001Consumidor Final              000000000040000000000000000000000000000000000000000000000000000000000000000000000000000000000000000000000000000000000000PES00010000001000000000000000020160912
201609120060000200000000000000007878000000000000000078788000000000020000000001Consumidor Final              000000000117000000000000000000000000000000000000000000000000000000000000000000000000000000000000000000000000000000000000PES00010000001000000000000000020160912
201609120060000200000000000000007879000000000000000078798000000000020000000001Consumidor Final              000000000049000000000000000000000000000000000000000000000000000000000000000000000000000000000000000000000000000000000000PES00010000001000000000000000020160912
201609120060000200000000000000007880000000000000000078808000000000020000000001Consumidor Final              000000000074500000000000000000000000000000000000000000000000000000000000000000000000000000000000000000000000000000000000PES00010000001000000000000000020160912
201609120060000200000000000000007881000000000000000078818000000000020000000001Consumidor Final              000000000160000000000000000000000000000000000000000000000000000000000000000000000000000000000000000000000000000000000000PES00010000001000000000000000020160912
201609120060000200000000000000007882000000000000000078828000000000020000000001Consumidor Final              000000000137500000000000000000000000000000000000000000000000000000000000000000000000000000000000000000000000000000000000PES00010000001000000000000000020160912
201609120060000200000000000000007883000000000000000078838000000000020000000001Consumidor Final              000000000048000000000000000000000000000000000000000000000000000000000000000000000000000000000000000000000000000000000000PES00010000001000000000000000020160912
201609120060000200000000000000007884000000000000000078848000000000020000000001Consumidor Final              000000000024000000000000000000000000000000000000000000000000000000000000000000000000000000000000000000000000000000000000PES00010000001000000000000000020160912
201609120060000200000000000000007885000000000000000078858000000000020000000001Consumidor Final              000000000049000000000000000000000000000000000000000000000000000000000000000000000000000000000000000000000000000000000000PES00010000001000000000000000020160912
201609120060000200000000000000007886000000000000000078868000000000020000000001Consumidor Final              000000000069000000000000000000000000000000000000000000000000000000000000000000000000000000000000000000000000000000000000PES00010000001000000000000000020160912
201609130060000200000000000000007887000000000000000078878000000000020000000001Consumidor Final              000000000079000000000000000000000000000000000000000000000000000000000000000000000000000000000000000000000000000000000000PES00010000001000000000000000020160913
201609130060000200000000000000007888000000000000000078888000000000020000000001Consumidor Final              000000000125000000000000000000000000000000000000000000000000000000000000000000000000000000000000000000000000000000000000PES00010000001000000000000000020160913
201609130060000200000000000000007889000000000000000078898000000000020000000001Consumidor Final              000000000099000000000000000000000000000000000000000000000000000000000000000000000000000000000000000000000000000000000000PES00010000001000000000000000020160913
201609130060000200000000000000007890000000000000000078908000000000020000000001Consumidor Final              000000000100000000000000000000000000000000000000000000000000000000000000000000000000000000000000000000000000000000000000PES00010000001000000000000000020160913
201609130060000200000000000000007891000000000000000078918000000000020000000001Consumidor Final              000000000039000000000000000000000000000000000000000000000000000000000000000000000000000000000000000000000000000000000000PES00010000001000000000000000020160913
201609130060000200000000000000007892000000000000000078928000000000020000000001Consumidor Final              000000000070000000000000000000000000000000000000000000000000000000000000000000000000000000000000000000000000000000000000PES00010000001000000000000000020160913
201609130060000200000000000000007893000000000000000078938000000000020000000001Consumidor Final              000000000125000000000000000000000000000000000000000000000000000000000000000000000000000000000000000000000000000000000000PES00010000001000000000000000020160913
201609130060000200000000000000007894000000000000000078948000000000020000000001Consumidor Final              000000000090000000000000000000000000000000000000000000000000000000000000000000000000000000000000000000000000000000000000PES00010000001000000000000000020160913
201609130060000200000000000000007895000000000000000078958000000000020000000001Consumidor Final              000000000220000000000000000000000000000000000000000000000000000000000000000000000000000000000000000000000000000000000000PES00010000001000000000000000020160913
201609130060000200000000000000007896000000000000000078968000000000020000000001Consumidor Final              000000000048000000000000000000000000000000000000000000000000000000000000000000000000000000000000000000000000000000000000PES00010000001000000000000000020160913
201609130060000200000000000000007897000000000000000078978000000000020000000001Consumidor Final              000000000040000000000000000000000000000000000000000000000000000000000000000000000000000000000000000000000000000000000000PES00010000001000000000000000020160913
201609130060000200000000000000007898000000000000000078988000000000020000000001Consumidor Final              000000000400000000000000000000000000000000000000000000000000000000000000000000000000000000000000000000000000000000000000PES00010000001000000000000000020160913
201609130060000200000000000000007899000000000000000078998000000000020000000001Consumidor Final              000000000098000000000000000000000000000000000000000000000000000000000000000000000000000000000000000000000000000000000000PES00010000001000000000000000020160913
201609130060000200000000000000007900000000000000000079008000000000020000000001Consumidor Final              000000000125000000000000000000000000000000000000000000000000000000000000000000000000000000000000000000000000000000000000PES00010000001000000000000000020160913
201609130060000200000000000000007901000000000000000079018000000000020000000001Consumidor Final              000000000040000000000000000000000000000000000000000000000000000000000000000000000000000000000000000000000000000000000000PES00010000001000000000000000020160913
201609130060000200000000000000007902000000000000000079028000000000020000000001Consumidor Final              000000000074000000000000000000000000000000000000000000000000000000000000000000000000000000000000000000000000000000000000PES00010000001000000000000000020160913
201609130060000200000000000000007903000000000000000079038000000000020000000001Consumidor Final              000000000069000000000000000000000000000000000000000000000000000000000000000000000000000000000000000000000000000000000000PES00010000001000000000000000020160913
201609130060000200000000000000007904000000000000000079048000000000020000000001Consumidor Final              000000000045000000000000000000000000000000000000000000000000000000000000000000000000000000000000000000000000000000000000PES00010000001000000000000000020160913
201609130060000200000000000000007905000000000000000079058000000000020000000001Consumidor Final              000000000045000000000000000000000000000000000000000000000000000000000000000000000000000000000000000000000000000000000000PES00010000001000000000000000020160913
201609130060000200000000000000007906000000000000000079068000000000020000000001Consumidor Final              000000000049000000000000000000000000000000000000000000000000000000000000000000000000000000000000000000000000000000000000PES00010000001000000000000000020160913
201609130060000200000000000000007907000000000000000079078000000000020000000001Consumidor Final              000000000100000000000000000000000000000000000000000000000000000000000000000000000000000000000000000000000000000000000000PES00010000001000000000000000020160913
201609130060000200000000000000007908000000000000000079088000000000020000000001Consumidor Final              000000000200000000000000000000000000000000000000000000000000000000000000000000000000000000000000000000000000000000000000PES00010000001000000000000000020160913
201609130060000200000000000000007909000000000000000079098000000000020000000001Consumidor Final              000000000090000000000000000000000000000000000000000000000000000000000000000000000000000000000000000000000000000000000000PES00010000001000000000000000020160913
201609130060000200000000000000007910000000000000000079108000000000020000000001Consumidor Final              000000000037000000000000000000000000000000000000000000000000000000000000000000000000000000000000000000000000000000000000PES00010000001000000000000000020160913
201609130060000200000000000000007911000000000000000079118000000000020000000001Consumidor Final              000000000124000000000000000000000000000000000000000000000000000000000000000000000000000000000000000000000000000000000000PES00010000001000000000000000020160913
201609130060000200000000000000007912000000000000000079128000000000020000000001Consumidor Final              000000000035000000000000000000000000000000000000000000000000000000000000000000000000000000000000000000000000000000000000PES00010000001000000000000000020160913
201609140060000200000000000000007913000000000000000079138000000000020000000001Consumidor Final              000000000017500000000000000000000000000000000000000000000000000000000000000000000000000000000000000000000000000000000000PES00010000001000000000000000020160914
201609140060000200000000000000007914000000000000000079148000000000020000000001Consumidor Final              000000000105000000000000000000000000000000000000000000000000000000000000000000000000000000000000000000000000000000000000PES00010000001000000000000000020160914
201609140060000200000000000000007916000000000000000079168000000000020000000001Consumidor Final              000000000060000000000000000000000000000000000000000000000000000000000000000000000000000000000000000000000000000000000000PES00010000001000000000000000020160914
201609140060000200000000000000007917000000000000000079178000000000020000000001Consumidor Final              000000000035000000000000000000000000000000000000000000000000000000000000000000000000000000000000000000000000000000000000PES00010000001000000000000000020160914
201609140060000200000000000000007918000000000000000079188000000000020000000001Consumidor Final              000000000040000000000000000000000000000000000000000000000000000000000000000000000000000000000000000000000000000000000000PES00010000001000000000000000020160914
201609140060000200000000000000007919000000000000000079198000000000020000000001Consumidor Final              000000000210000000000000000000000000000000000000000000000000000000000000000000000000000000000000000000000000000000000000PES00010000001000000000000000020160914
201609140060000200000000000000007920000000000000000079208000000000020000000001Consumidor Final              000000000125000000000000000000000000000000000000000000000000000000000000000000000000000000000000000000000000000000000000PES00010000001000000000000000020160914
201609140060000200000000000000007921000000000000000079218000000000020000000001Consumidor Final              000000000105000000000000000000000000000000000000000000000000000000000000000000000000000000000000000000000000000000000000PES00010000001000000000000000020160914
201609140060000200000000000000007922000000000000000079228000000000020000000001Consumidor Final              000000000180000000000000000000000000000000000000000000000000000000000000000000000000000000000000000000000000000000000000PES00010000001000000000000000020160914
201609140060000200000000000000007923000000000000000079238000000000020000000001Consumidor Final              000000000085000000000000000000000000000000000000000000000000000000000000000000000000000000000000000000000000000000000000PES00010000001000000000000000020160914
201609140060000200000000000000007924000000000000000079248000000000020000000001Consumidor Final              000000000026000000000000000000000000000000000000000000000000000000000000000000000000000000000000000000000000000000000000PES00010000001000000000000000020160914
201609140060000200000000000000007925000000000000000079258000000000020000000001Consumidor Final              000000000048000000000000000000000000000000000000000000000000000000000000000000000000000000000000000000000000000000000000PES00010000001000000000000000020160914
201609140060000200000000000000007926000000000000000079268000000000020000000001Consumidor Final              000000000064000000000000000000000000000000000000000000000000000000000000000000000000000000000000000000000000000000000000PES00010000001000000000000000020160914
201609140060000200000000000000007927000000000000000079278000000000020000000001Consumidor Final              000000000048000000000000000000000000000000000000000000000000000000000000000000000000000000000000000000000000000000000000PES00010000001000000000000000020160914
201609140060000200000000000000007928000000000000000079288000000000020000000001Consumidor Final              000000000100000000000000000000000000000000000000000000000000000000000000000000000000000000000000000000000000000000000000PES00010000001000000000000000020160914
201609160060000200000000000000007929000000000000000079298000000000020000000001Consumidor Final              000000000145000000000000000000000000000000000000000000000000000000000000000000000000000000000000000000000000000000000000PES00010000001000000000000000020160916
201609160060000200000000000000007930000000000000000079308000000000020000000001Consumidor Final              000000000055000000000000000000000000000000000000000000000000000000000000000000000000000000000000000000000000000000000000PES00010000001000000000000000020160916
201609160060000200000000000000007931000000000000000079318000000000020000000001Consumidor Final              000000000077500000000000000000000000000000000000000000000000000000000000000000000000000000000000000000000000000000000000PES00010000001000000000000000020160916
201609160060000200000000000000007932000000000000000079328000000000020000000001Consumidor Final              000000000048000000000000000000000000000000000000000000000000000000000000000000000000000000000000000000000000000000000000PES00010000001000000000000000020160916
201609160060000200000000000000007933000000000000000079338000000000020000000001Consumidor Final              000000000315000000000000000000000000000000000000000000000000000000000000000000000000000000000000000000000000000000000000PES00010000001000000000000000020160916
201609160060000200000000000000007934000000000000000079348000000000020000000001Consumidor Final              000000000149000000000000000000000000000000000000000000000000000000000000000000000000000000000000000000000000000000000000PES00010000001000000000000000020160916
201609160060000200000000000000007935000000000000000079358000000000020000000001Consumidor Final              000000000040000000000000000000000000000000000000000000000000000000000000000000000000000000000000000000000000000000000000PES00010000001000000000000000020160916
201609160060000200000000000000007936000000000000000079368000000000020000000001Consumidor Final              000000000045000000000000000000000000000000000000000000000000000000000000000000000000000000000000000000000000000000000000PES00010000001000000000000000020160916
201609160060000200000000000000007937000000000000000079378000000000020000000001Consumidor Final              000000000129000000000000000000000000000000000000000000000000000000000000000000000000000000000000000000000000000000000000PES00010000001000000000000000020160916
201609160060000200000000000000007938000000000000000079388000000000020000000001Consumidor Final              000000000125000000000000000000000000000000000000000000000000000000000000000000000000000000000000000000000000000000000000PES00010000001000000000000000020160916
201609160060000200000000000000007939000000000000000079398000000000020000000001Consumidor Final              000000000039000000000000000000000000000000000000000000000000000000000000000000000000000000000000000000000000000000000000PES00010000001000000000000000020160916
201609160060000200000000000000007940000000000000000079408000000000020000000001Consumidor Final              000000000373500000000000000000000000000000000000000000000000000000000000000000000000000000000000000000000000000000000000PES00010000001000000000000000020160916
201609160060000200000000000000007941000000000000000079418000000000020000000001Consumidor Final              000000000083000000000000000000000000000000000000000000000000000000000000000000000000000000000000000000000000000000000000PES00010000001000000000000000020160916
201609160060000200000000000000007942000000000000000079428000000000020000000001Consumidor Final              000000000045000000000000000000000000000000000000000000000000000000000000000000000000000000000000000000000000000000000000PES00010000001000000000000000020160916
201609160060000200000000000000007943000000000000000079438000000000020000000001Consumidor Final              000000000225000000000000000000000000000000000000000000000000000000000000000000000000000000000000000000000000000000000000PES00010000001000000000000000020160916
201609160060000200000000000000007944000000000000000079448000000000020000000001Consumidor Final              000000000050000000000000000000000000000000000000000000000000000000000000000000000000000000000000000000000000000000000000PES00010000001000000000000000020160916
201609160060000200000000000000007945000000000000000079458000000000020000000001Consumidor Final              000000000069000000000000000000000000000000000000000000000000000000000000000000000000000000000000000000000000000000000000PES00010000001000000000000000020160916
201609160060000200000000000000007946000000000000000079468000000000020000000001Consumidor Final              000000000073000000000000000000000000000000000000000000000000000000000000000000000000000000000000000000000000000000000000PES00010000001000000000000000020160916
201609160060000200000000000000007947000000000000000079478000000000020000000001Consumidor Final              000000000080000000000000000000000000000000000000000000000000000000000000000000000000000000000000000000000000000000000000PES00010000001000000000000000020160916
201609160060000200000000000000007948000000000000000079488000000000020000000001Consumidor Final              000000000053000000000000000000000000000000000000000000000000000000000000000000000000000000000000000000000000000000000000PES00010000001000000000000000020160916
201609160060000200000000000000007949000000000000000079498000000000020000000001Consumidor Final              000000000045000000000000000000000000000000000000000000000000000000000000000000000000000000000000000000000000000000000000PES00010000001000000000000000020160916
201609160060000200000000000000007950000000000000000079508000000000020000000001Consumidor Final              000000000135000000000000000000000000000000000000000000000000000000000000000000000000000000000000000000000000000000000000PES00010000001000000000000000020160916
201609160060000200000000000000007951000000000000000079518000000000020000000001Consumidor Final              000000000049000000000000000000000000000000000000000000000000000000000000000000000000000000000000000000000000000000000000PES00010000001000000000000000020160916
201609160060000200000000000000007952000000000000000079528000000000020000000001Consumidor Final              000000000052500000000000000000000000000000000000000000000000000000000000000000000000000000000000000000000000000000000000PES00010000001000000000000000020160916
201609160060000200000000000000007953000000000000000079538000000000020000000001Consumidor Final              000000000070000000000000000000000000000000000000000000000000000000000000000000000000000000000000000000000000000000000000PES00010000001000000000000000020160916
201609160060000200000000000000007954000000000000000079548000000000020000000001Consumidor Final              000000000019000000000000000000000000000000000000000000000000000000000000000000000000000000000000000000000000000000000000PES00010000001000000000000000020160916
201609160060000200000000000000007955000000000000000079558000000000020000000001Consumidor Final              000000000030000000000000000000000000000000000000000000000000000000000000000000000000000000000000000000000000000000000000PES00010000001000000000000000020160916
201609160060000200000000000000007956000000000000000079568000000000020000000001Consumidor Final              000000000040000000000000000000000000000000000000000000000000000000000000000000000000000000000000000000000000000000000000PES00010000001000000000000000020160916
201609160060000200000000000000007957000000000000000079578000000000020000000001Consumidor Final              000000000089000000000000000000000000000000000000000000000000000000000000000000000000000000000000000000000000000000000000PES00010000001000000000000000020160916
201609160060000200000000000000007958000000000000000079588000000000020000000001Consumidor Final              000000000059000000000000000000000000000000000000000000000000000000000000000000000000000000000000000000000000000000000000PES00010000001000000000000000020160916
201609160060000200000000000000007959000000000000000079598000000000020000000001Consumidor Final              000000000130000000000000000000000000000000000000000000000000000000000000000000000000000000000000000000000000000000000000PES00010000001000000000000000020160916
201609160060000200000000000000007960000000000000000079608000000000020000000001Consumidor Final              000000000177000000000000000000000000000000000000000000000000000000000000000000000000000000000000000000000000000000000000PES00010000001000000000000000020160916
201609160060000200000000000000007961000000000000000079618000000000020000000001Consumidor Final              000000000224000000000000000000000000000000000000000000000000000000000000000000000000000000000000000000000000000000000000PES00010000001000000000000000020160916
201609170060000200000000000000007962000000000000000079628000000000020000000001Consumidor Final              000000000045000000000000000000000000000000000000000000000000000000000000000000000000000000000000000000000000000000000000PES00010000001000000000000000020160917
201609170060000200000000000000007963000000000000000079638000000000020000000001Consumidor Final              000000000084000000000000000000000000000000000000000000000000000000000000000000000000000000000000000000000000000000000000PES00010000001000000000000000020160917
201609170060000200000000000000007964000000000000000079648000000000020000000001Consumidor Final              000000000027000000000000000000000000000000000000000000000000000000000000000000000000000000000000000000000000000000000000PES00010000001000000000000000020160917
201609170060000200000000000000007965000000000000000079658000000000020000000001Consumidor Final              000000000052500000000000000000000000000000000000000000000000000000000000000000000000000000000000000000000000000000000000PES00010000001000000000000000020160917
201609170060000200000000000000007966000000000000000079668000000000020000000001Consumidor Final              000000000200000000000000000000000000000000000000000000000000000000000000000000000000000000000000000000000000000000000000PES00010000001000000000000000020160917
201609170060000200000000000000007967000000000000000079678000000000020000000001Consumidor Final              000000000089000000000000000000000000000000000000000000000000000000000000000000000000000000000000000000000000000000000000PES00010000001000000000000000020160917
201609170060000200000000000000007968000000000000000079688000000000020000000001Consumidor Final              000000000073000000000000000000000000000000000000000000000000000000000000000000000000000000000000000000000000000000000000PES00010000001000000000000000020160917
201609170060000200000000000000007969000000000000000079698000000000020000000001Consumidor Final              000000000020000000000000000000000000000000000000000000000000000000000000000000000000000000000000000000000000000000000000PES00010000001000000000000000020160917
201609170060000200000000000000007970000000000000000079708000000000020000000001Consumidor Final              000000000020000000000000000000000000000000000000000000000000000000000000000000000000000000000000000000000000000000000000PES00010000001000000000000000020160917
201609170060000200000000000000007971000000000000000079718000000000020000000001Consumidor Final              000000000035000000000000000000000000000000000000000000000000000000000000000000000000000000000000000000000000000000000000PES00010000001000000000000000020160917
201609170060000200000000000000007972000000000000000079728000000000020000000001Consumidor Final              000000000006000000000000000000000000000000000000000000000000000000000000000000000000000000000000000000000000000000000000PES00010000001000000000000000020160917
201609170060000200000000000000007973000000000000000079738000000000020000000001Consumidor Final              000000000035000000000000000000000000000000000000000000000000000000000000000000000000000000000000000000000000000000000000PES00010000001000000000000000020160917
201609170060000200000000000000007974000000000000000079748000000000020000000001Consumidor Final              000000000035000000000000000000000000000000000000000000000000000000000000000000000000000000000000000000000000000000000000PES00010000001000000000000000020160917
201609170060000200000000000000007975000000000000000079758000000000020000000001Consumidor Final              000000000145000000000000000000000000000000000000000000000000000000000000000000000000000000000000000000000000000000000000PES00010000001000000000000000020160917
201609170060000200000000000000007976000000000000000079768000000000020000000001Consumidor Final              000000000026000000000000000000000000000000000000000000000000000000000000000000000000000000000000000000000000000000000000PES00010000001000000000000000020160917
201609190060000200000000000000007977000000000000000079778000000000020000000001Consumidor Final              000000000073000000000000000000000000000000000000000000000000000000000000000000000000000000000000000000000000000000000000PES00010000001000000000000000020160919
201609190060000200000000000000007978000000000000000079788000000000020000000001Consumidor Final              000000000057000000000000000000000000000000000000000000000000000000000000000000000000000000000000000000000000000000000000PES00010000001000000000000000020160919
201609190060000200000000000000007979000000000000000079798000000000020000000001Consumidor Final              000000000170000000000000000000000000000000000000000000000000000000000000000000000000000000000000000000000000000000000000PES00010000001000000000000000020160919
201609190060000200000000000000007980000000000000000079808000000000020000000001Consumidor Final              000000000040000000000000000000000000000000000000000000000000000000000000000000000000000000000000000000000000000000000000PES00010000001000000000000000020160919
201609190060000200000000000000007981000000000000000079818000000000020000000001Consumidor Final              000000000043500000000000000000000000000000000000000000000000000000000000000000000000000000000000000000000000000000000000PES00010000001000000000000000020160919
201609190060000200000000000000007982000000000000000079828000000000020000000001Consumidor Final              000000000040000000000000000000000000000000000000000000000000000000000000000000000000000000000000000000000000000000000000PES00010000001000000000000000020160919
201609190060000200000000000000007983000000000000000079838000000000020000000001Consumidor Final              000000000165000000000000000000000000000000000000000000000000000000000000000000000000000000000000000000000000000000000000PES00010000001000000000000000020160919
201609190060000200000000000000007984000000000000000079848000000000020000000001Consumidor Final              000000000029000000000000000000000000000000000000000000000000000000000000000000000000000000000000000000000000000000000000PES00010000001000000000000000020160919
201609190060000200000000000000007985000000000000000079858000000000020000000001Consumidor Final              000000000049000000000000000000000000000000000000000000000000000000000000000000000000000000000000000000000000000000000000PES00010000001000000000000000020160919
201609190060000200000000000000007986000000000000000079868000000000020000000001Consumidor Final              000000000048000000000000000000000000000000000000000000000000000000000000000000000000000000000000000000000000000000000000PES00010000001000000000000000020160919
201609190060000200000000000000007987000000000000000079878000000000020000000001Consumidor Final              000000000170000000000000000000000000000000000000000000000000000000000000000000000000000000000000000000000000000000000000PES00010000001000000000000000020160919
201609190060000200000000000000007988000000000000000079888000000000020000000001Consumidor Final              000000000099000000000000000000000000000000000000000000000000000000000000000000000000000000000000000000000000000000000000PES00010000001000000000000000020160919
201609190060000200000000000000007989000000000000000079898000000000020000000001Consumidor Final              000000000048000000000000000000000000000000000000000000000000000000000000000000000000000000000000000000000000000000000000PES00010000001000000000000000020160919
201609190060000200000000000000007990000000000000000079908000000000020000000001Consumidor Final              000000000077500000000000000000000000000000000000000000000000000000000000000000000000000000000000000000000000000000000000PES00010000001000000000000000020160919
201609190060000200000000000000007991000000000000000079918000000000020000000001Consumidor Final              000000000035000000000000000000000000000000000000000000000000000000000000000000000000000000000000000000000000000000000000PES00010000001000000000000000020160919
201609190060000200000000000000007992000000000000000079928000000000020000000001Consumidor Final              000000000076500000000000000000000000000000000000000000000000000000000000000000000000000000000000000000000000000000000000PES00010000001000000000000000020160919
201609190060000200000000000000007993000000000000000079938000000000020000000001Consumidor Final              000000000040000000000000000000000000000000000000000000000000000000000000000000000000000000000000000000000000000000000000PES00010000001000000000000000020160919
201609190060000200000000000000007994000000000000000079948000000000020000000001Consumidor Final              000000000049000000000000000000000000000000000000000000000000000000000000000000000000000000000000000000000000000000000000PES00010000001000000000000000020160919
201609190060000200000000000000007995000000000000000079958000000000020000000001Consumidor Final              000000000085000000000000000000000000000000000000000000000000000000000000000000000000000000000000000000000000000000000000PES00010000001000000000000000020160919
201609190060000200000000000000007996000000000000000079968000000000020000000001Consumidor Final              000000000160000000000000000000000000000000000000000000000000000000000000000000000000000000000000000000000000000000000000PES00010000001000000000000000020160919
201609190060000200000000000000007997000000000000000079978000000000020000000001Consumidor Final              000000000105000000000000000000000000000000000000000000000000000000000000000000000000000000000000000000000000000000000000PES00010000001000000000000000020160919
201609190060000200000000000000007998000000000000000079988000000000020000000001Consumidor Final              000000000048000000000000000000000000000000000000000000000000000000000000000000000000000000000000000000000000000000000000PES00010000001000000000000000020160919
201609190060000200000000000000007999000000000000000079998000000000020000000001Consumidor Final              000000000091000000000000000000000000000000000000000000000000000000000000000000000000000000000000000000000000000000000000PES00010000001000000000000000020160919
201609190060000200000000000000008000000000000000000080008000000000020000000001Consumidor Final              000000000040000000000000000000000000000000000000000000000000000000000000000000000000000000000000000000000000000000000000PES00010000001000000000000000020160919
201609190060000200000000000000008001000000000000000080018000000000020000000001Consumidor Final              000000000370000000000000000000000000000000000000000000000000000000000000000000000000000000000000000000000000000000000000PES00010000001000000000000000020160919
201609190060000200000000000000008002000000000000000080028000000000020000000001Consumidor Final              000000000113000000000000000000000000000000000000000000000000000000000000000000000000000000000000000000000000000000000000PES00010000001000000000000000020160919
201609190060000200000000000000008003000000000000000080038000000000020000000001Consumidor Final              000000000122500000000000000000000000000000000000000000000000000000000000000000000000000000000000000000000000000000000000PES00010000001000000000000000020160919
201609190060000200000000000000008004000000000000000080048000000000020000000001Consumidor Final              000000000378000000000000000000000000000000000000000000000000000000000000000000000000000000000000000000000000000000000000PES00010000001000000000000000020160919
201609190060000200000000000000008005000000000000000080058000000000020000000001Consumidor Final              000000000167500000000000000000000000000000000000000000000000000000000000000000000000000000000000000000000000000000000000PES00010000001000000000000000020160919
201609190060000200000000000000008006000000000000000080068000000000020000000001Consumidor Final              000000000207000000000000000000000000000000000000000000000000000000000000000000000000000000000000000000000000000000000000PES00010000001000000000000000020160919
201609190060000200000000000000008007000000000000000080078000000000020000000001Consumidor Final              000000000118000000000000000000000000000000000000000000000000000000000000000000000000000000000000000000000000000000000000PES00010000001000000000000000020160919
201609190060000200000000000000008008000000000000000080088000000000020000000001Consumidor Final              000000000130000000000000000000000000000000000000000000000000000000000000000000000000000000000000000000000000000000000000PES00010000001000000000000000020160919
201609200060000200000000000000008009000000000000000080098000000000020000000001Consumidor Final              000000000125000000000000000000000000000000000000000000000000000000000000000000000000000000000000000000000000000000000000PES00010000001000000000000000020160920
201609200060000200000000000000008010000000000000000080108000000000020000000001Consumidor Final              000000000045000000000000000000000000000000000000000000000000000000000000000000000000000000000000000000000000000000000000PES00010000001000000000000000020160920
201609200060000200000000000000008011000000000000000080118000000000020000000001Consumidor Final              000000000145000000000000000000000000000000000000000000000000000000000000000000000000000000000000000000000000000000000000PES00010000001000000000000000020160920
201609200060000200000000000000008012000000000000000080128000000000020000000001Consumidor Final              000000000310000000000000000000000000000000000000000000000000000000000000000000000000000000000000000000000000000000000000PES00010000001000000000000000020160920
201609200060000200000000000000008013000000000000000080138000000000020000000001Consumidor Final              000000000106000000000000000000000000000000000000000000000000000000000000000000000000000000000000000000000000000000000000PES00010000001000000000000000020160920
201609200060000200000000000000008014000000000000000080148000000000020000000001Consumidor Final              000000000050000000000000000000000000000000000000000000000000000000000000000000000000000000000000000000000000000000000000PES00010000001000000000000000020160920
201609200060000200000000000000008015000000000000000080158000000000020000000001Consumidor Final              000000000163000000000000000000000000000000000000000000000000000000000000000000000000000000000000000000000000000000000000PES00010000001000000000000000020160920
201609200060000200000000000000008016000000000000000080168000000000020000000001Consumidor Final              000000000045000000000000000000000000000000000000000000000000000000000000000000000000000000000000000000000000000000000000PES00010000001000000000000000020160920
201609200060000200000000000000008017000000000000000080178000000000020000000001Consumidor Final              000000000120000000000000000000000000000000000000000000000000000000000000000000000000000000000000000000000000000000000000PES00010000001000000000000000020160920
201609200060000200000000000000008018000000000000000080188000000000020000000001Consumidor Final              000000000007500000000000000000000000000000000000000000000000000000000000000000000000000000000000000000000000000000000000PES00010000001000000000000000020160920
201609200060000200000000000000008019000000000000000080198000000000020000000001Consumidor Final              000000000219000000000000000000000000000000000000000000000000000000000000000000000000000000000000000000000000000000000000PES00010000001000000000000000020160920
201609200060000200000000000000008020000000000000000080208000000000020000000001Consumidor Final              000000000085000000000000000000000000000000000000000000000000000000000000000000000000000000000000000000000000000000000000PES00010000001000000000000000020160920
201609200060000200000000000000008021000000000000000080218000000000020000000001Consumidor Final              000000000069000000000000000000000000000000000000000000000000000000000000000000000000000000000000000000000000000000000000PES00010000001000000000000000020160920
201609200060000200000000000000008022000000000000000080228000000000020000000001Consumidor Final              000000000052500000000000000000000000000000000000000000000000000000000000000000000000000000000000000000000000000000000000PES00010000001000000000000000020160920
201609200060000200000000000000008023000000000000000080238000000000020000000001Consumidor Final              000000000120000000000000000000000000000000000000000000000000000000000000000000000000000000000000000000000000000000000000PES00010000001000000000000000020160920
201609200060000200000000000000008024000000000000000080248000000000020000000001Consumidor Final              000000000110000000000000000000000000000000000000000000000000000000000000000000000000000000000000000000000000000000000000PES00010000001000000000000000020160920
201609200060000200000000000000008025000000000000000080258000000000020000000001Consumidor Final              000000000088000000000000000000000000000000000000000000000000000000000000000000000000000000000000000000000000000000000000PES00010000001000000000000000020160920
201609200060000200000000000000008026000000000000000080268000000000020000000001Consumidor Final              000000000040000000000000000000000000000000000000000000000000000000000000000000000000000000000000000000000000000000000000PES00010000001000000000000000020160920
201609200060000200000000000000008027000000000000000080278000000000020000000001Consumidor Final              000000000085000000000000000000000000000000000000000000000000000000000000000000000000000000000000000000000000000000000000PES00010000001000000000000000020160920
201609200060000200000000000000008028000000000000000080288000000000020000000001Consumidor Final              000000000020000000000000000000000000000000000000000000000000000000000000000000000000000000000000000000000000000000000000PES00010000001000000000000000020160920
201609200060000200000000000000008029000000000000000080298000000000020000000001Consumidor Final              000000000048000000000000000000000000000000000000000000000000000000000000000000000000000000000000000000000000000000000000PES00010000001000000000000000020160920
201609200060000200000000000000008030000000000000000080308000000000020000000001Consumidor Final              000000000061000000000000000000000000000000000000000000000000000000000000000000000000000000000000000000000000000000000000PES00010000001000000000000000020160920
201609200060000200000000000000008031000000000000000080318000000000020000000001Consumidor Final              000000000082000000000000000000000000000000000000000000000000000000000000000000000000000000000000000000000000000000000000PES00010000001000000000000000020160920
201609200060000200000000000000008032000000000000000080328000000000020000000001Consumidor Final              000000000042000000000000000000000000000000000000000000000000000000000000000000000000000000000000000000000000000000000000PES00010000001000000000000000020160920
201609200060000200000000000000008033000000000000000080338000000000020000000001Consumidor Final              000000000052500000000000000000000000000000000000000000000000000000000000000000000000000000000000000000000000000000000000PES00010000001000000000000000020160920
201609200060000200000000000000008034000000000000000080348000000000020000000001Consumidor Final              000000000025000000000000000000000000000000000000000000000000000000000000000000000000000000000000000000000000000000000000PES00010000001000000000000000020160920
201609210060000200000000000000008035000000000000000080358000000000020000000001Consumidor Final              000000000025000000000000000000000000000000000000000000000000000000000000000000000000000000000000000000000000000000000000PES00010000001000000000000000020160921
201609210060000200000000000000008036000000000000000080368000000000020000000001Consumidor Final              000000000040000000000000000000000000000000000000000000000000000000000000000000000000000000000000000000000000000000000000PES00010000001000000000000000020160921
201609210060000200000000000000008037000000000000000080378000000000020000000001Consumidor Final              000000000018000000000000000000000000000000000000000000000000000000000000000000000000000000000000000000000000000000000000PES00010000001000000000000000020160921
201609210060000200000000000000008038000000000000000080388000000000020000000001Consumidor Final              000000000065000000000000000000000000000000000000000000000000000000000000000000000000000000000000000000000000000000000000PES00010000001000000000000000020160921
201609210060000200000000000000008039000000000000000080398000000000020000000001Consumidor Final              000000000196500000000000000000000000000000000000000000000000000000000000000000000000000000000000000000000000000000000000PES00010000001000000000000000020160921
201609210060000200000000000000008040000000000000000080408000000000020000000001Consumidor Final              000000000068000000000000000000000000000000000000000000000000000000000000000000000000000000000000000000000000000000000000PES00010000001000000000000000020160921
201609210060000200000000000000008041000000000000000080418000000000020000000001Consumidor Final              000000000155000000000000000000000000000000000000000000000000000000000000000000000000000000000000000000000000000000000000PES00010000001000000000000000020160921
201609210060000200000000000000008042000000000000000080428000000000020000000001Consumidor Final              000000000105000000000000000000000000000000000000000000000000000000000000000000000000000000000000000000000000000000000000PES00010000001000000000000000020160921
201609210060000200000000000000008043000000000000000080438000000000020000000001Consumidor Final              000000000040000000000000000000000000000000000000000000000000000000000000000000000000000000000000000000000000000000000000PES00010000001000000000000000020160921
201609210060000200000000000000008044000000000000000080448000000000020000000001Consumidor Final              000000000045000000000000000000000000000000000000000000000000000000000000000000000000000000000000000000000000000000000000PES00010000001000000000000000020160921
201609210060000200000000000000008045000000000000000080458000000000020000000001Consumidor Final              000000000089000000000000000000000000000000000000000000000000000000000000000000000000000000000000000000000000000000000000PES00010000001000000000000000020160921
201609210060000200000000000000008046000000000000000080468000000000020000000001Consumidor Final              000000000010000000000000000000000000000000000000000000000000000000000000000000000000000000000000000000000000000000000000PES00010000001000000000000000020160921
201609210060000200000000000000008047000000000000000080478000000000020000000001Consumidor Final              000000000051000000000000000000000000000000000000000000000000000000000000000000000000000000000000000000000000000000000000PES00010000001000000000000000020160921
201609210060000200000000000000008048000000000000000080488000000000020000000001Consumidor Final              000000000045000000000000000000000000000000000000000000000000000000000000000000000000000000000000000000000000000000000000PES00010000001000000000000000020160921
201609210060000200000000000000008049000000000000000080498000000000020000000001Consumidor Final              000000000048000000000000000000000000000000000000000000000000000000000000000000000000000000000000000000000000000000000000PES00010000001000000000000000020160921
201609210060000200000000000000008050000000000000000080508000000000020000000001Consumidor Final              000000000060000000000000000000000000000000000000000000000000000000000000000000000000000000000000000000000000000000000000PES00010000001000000000000000020160921
201609210060000200000000000000008051000000000000000080518000000000020000000001Consumidor Final              000000000155000000000000000000000000000000000000000000000000000000000000000000000000000000000000000000000000000000000000PES00010000001000000000000000020160921
201609210060000200000000000000008052000000000000000080528000000000020000000001Consumidor Final              000000000250000000000000000000000000000000000000000000000000000000000000000000000000000000000000000000000000000000000000PES00010000001000000000000000020160921
201609210060000200000000000000008053000000000000000080538000000000020000000001Consumidor Final              000000000024000000000000000000000000000000000000000000000000000000000000000000000000000000000000000000000000000000000000PES00010000001000000000000000020160921
201609210060000200000000000000008054000000000000000080548000000000020000000001Consumidor Final              000000000035000000000000000000000000000000000000000000000000000000000000000000000000000000000000000000000000000000000000PES00010000001000000000000000020160921
201609210060000200000000000000008055000000000000000080558000000000020000000001Consumidor Final              000000000049000000000000000000000000000000000000000000000000000000000000000000000000000000000000000000000000000000000000PES00010000001000000000000000020160921
201609210060000200000000000000008056000000000000000080568000000000020000000001Consumidor Final              000000000060000000000000000000000000000000000000000000000000000000000000000000000000000000000000000000000000000000000000PES00010000001000000000000000020160921
201609210060000200000000000000008057000000000000000080578000000000020000000001Consumidor Final              000000000042000000000000000000000000000000000000000000000000000000000000000000000000000000000000000000000000000000000000PES00010000001000000000000000020160921
201609210060000200000000000000008058000000000000000080588000000000020000000001Consumidor Final              000000000105000000000000000000000000000000000000000000000000000000000000000000000000000000000000000000000000000000000000PES00010000001000000000000000020160921
201609220060000200000000000000008059000000000000000080598000000000020000000001Consumidor Final              000000000175000000000000000000000000000000000000000000000000000000000000000000000000000000000000000000000000000000000000PES00010000001000000000000000020160922
201609220060000200000000000000008060000000000000000080608000000000020000000001Consumidor Final              000000000045000000000000000000000000000000000000000000000000000000000000000000000000000000000000000000000000000000000000PES00010000001000000000000000020160922
201609220060000200000000000000008061000000000000000080618000000000020000000001Consumidor Final              000000000095000000000000000000000000000000000000000000000000000000000000000000000000000000000000000000000000000000000000PES00010000001000000000000000020160922
201609220060000200000000000000008062000000000000000080628000000000020000000001Consumidor Final              000000000099000000000000000000000000000000000000000000000000000000000000000000000000000000000000000000000000000000000000PES00010000001000000000000000020160922
201609220060000200000000000000008063000000000000000080638000000000020000000001Consumidor Final              000000000059000000000000000000000000000000000000000000000000000000000000000000000000000000000000000000000000000000000000PES00010000001000000000000000020160922
