201709300010551200000000000003230766                8000000000030678186445TELECOM PERSONAL SA           000000000022651000000000002052000000000000000000000000006162000000000000000000000000000000000000000000000000000000008341PES00010000002000000000000000000000000000000000000000000                              000000000000000
201709300010551200000000011113230766                8000000000030678186445TELECOM PERSONAL SA           000000000254438000000000000000000000000000000000000000000000000000000000000000000000000000000000000000000000000000000000PES00010000001000000000000000000000000000000000000000000                              000000000000000
201709300010551200000000000003233150                8000000000030678186445TELECOM PERSONAL SA           000000000151201000000000001144000000000000000000000000000000000000000000000000000000000000000000000000000000000000004767PES00010000001000000000000000000000000000000000000000000                              000000000000000
201709130010810200000000000016972670                8000000000030639453738TELECOM ARGENTINA SA          000000000024098000000000000000000000000000000000000000000000000000000000000000000000000000000000000000000000000000000000PES00010000001000000000000000000000000000000000000000000                              000000000000000
201709130010810200000000000016924729                8000000000030639453738TELECOM ARGENTINA SA          000000000059792000000000000000000000000000000000000000000000000000000000000000000000000000000000000000000000000000000000PES00010000001000000000000000000000000000000000000000000                              000000000000000
201709190010105400000000000000286905                8000000000030573652084CABLEVISION SA                000000000083000000000000000000000000000000000000000000000000000000000000000000000000000000000000000000000000000000000000PES00010000001000000000000000000000000000000000000000000                              000000000000000
201709190010105400000000000000286897                8000000000030573652084CABLEVISION SA                000000000083000000000000000000000000000000000000000000000000000000000000000000000000000000000000000000000000000000000000PES00010000001000000000000000000000000000000000000000000                              000000000000000
201709190010105400000000000000287519                8000000000030573652084CABLEVISION SA                000000000109294000000000002645000000000000000000000000000000000000000000000000000000000000000000000000000000000000000000PES00010000001000000000000000000000000000000000000000000                              000000000000000
201709200010010100000000000000450118                8000000000030690633635EDESA SA                      000000000102954000000000065454000000000000000000000000000000000000000000000000000000001034000000000000000000000000000000PES00010000002000000000000000000000000000000000000000000                              000000000000000
201709200010010100000000011111450118                8000000000030690633635EDESA SA                      000000000000016000000000000000000000000000000000000000000000000000000000000000000000000000000000000000000000000000000000PES00010000001000000000000000000000000000000000000000000                              000000000000000
201710030010010100000000000004858452                8000000000030690633635EDESA SA                      000000000213198000000000022869000000000000000000000000000000000000000000000000000000005246000000000000000000000000000000PES00010000001000000000000000000000000000000000000000000                              000000000000000
201709200010010100000000000000450107                8000000000030690633635EDESA SA                      000000000168906000000000087301000000000000000000000000000000000000000000000000000000002249000000000000000000000000000000PES00010000002000000000000000000000000000000000000000000                              000000000000000
201709200010010100000000011111450107                8000000000030690633635EDESA SA                      000000000000035000000000000000000000000000000000000000000000000000000000000000000000000000000000000000000000000000000000PES00010000001000000000000000000000000000000000000000000                              000000000000000
201709210010010100000000000000450585                8000000000030690633635EDESA SA                      000000000082896000000000057187000000000000000000000000000000000000000000000000000000000172000000000000000000000000000000PES00010000002000000000000000000000000000000000000000000                              000000000000000
201709210010010100000000011111450585                8000000000030690633635EDESA SA                      000000000000016000000000000000000000000000000000000000000000000000000000000000000000000000000000000000000000000000000000PES00010000001000000000000000000000000000000000000000000                              000000000000000
201710120010010100000000000000452541                8000000000030690633635EDESA SA                      000000000088928000000000023897000000000000000000000000000000000000000000000000000000000554000000000000000000000000000000PES00010000002000000000000000000000000000000000000000000                              000000000000000
201710120010010100000000011111452541                8000000000030690633635EDESA SA                      000000000000008000000000000000000000000000000000000000000000000000000000000000000000000000000000000000000000000000000000PES00010000001000000000000000000000000000000000000000000                              000000000000000
201709290010007200000000000000017677                8000000000030602764032ECCO SA                       000000000099600000000000000000000000000000000000000000000000000000000000000000000000000000000000000000000000000000000000PES00010000001000000000000000000000000000000000000000000                              000000000000000
201710100010003900000000000000013906                8000000000030543749024BOLLINI SA                    000000000015047000000000000000000000000000000000000000000000000000000000000000000000000435000000000000000000000000000000PES00010000001000000000000000000000000000000000000000000                              000000000000000
201710090010000100000000000000000207                8000000000030711740208CONSULTING GROUP SRL          000000001499824000000000000000000000000000000000000000000000000000000000000000000000000000000000000000000000000000000000PES00010000001000000000000000000000000000000000000000000                              000000000000000
201710110010000500000000000000002795                8000000000030708780649ESTACION DE SERVICIOS EL TRIUN000000000100005000000000016605000000000000000000000000000000000000000000000000000000000000000000000000000000000000000000PES00010000001000000000000000000000000000000000000000000                              000000000000000
201708270010026400000000000000122626                8000000000030501111127HOLCIM SA                     000000045439392000000000000000000000000000000000000001095540000000000000000000000000000000000000000157026000000000000000PES00010000001000000000000000000000000000000000000000000                              000000000000000
201708270010026400000000000001222627                8000000000030501111127HOLCIM SA                     000000087821442000000000000000000000000000000000000002117368000000000000000000000000000000000000000303493000000000000000PES00010000001000000000000000000000000000000000000000000                              000000000000000
201708270030026400000000000000001179                8000000000030501111127HOLCIM SA                     000000001035136000000000000000000000000000000000000000024958000000000000000000000000000000000000000003578000000000000000PES00010000001000000000000000000000000000000000000000000                              000000000000000
201708310010026400000000000000122822                8000000000030501111127HOLCIM SA                     000000030292928000000000000000000000000000000000000000730360000000000000000000000000000000000000000104684000000000000000PES00010000001000000000000000000000000000000000000000000                              000000000000000
201708310010026400000000000000122823                8000000000030501111127HOLCIM SA                     000000082194356000000000000000000000000000000000000001981698000000000000000000000000000000000000000284048000000000000000PES00010000001000000000000000000000000000000000000000000                              000000000000000
201708310030026400000000000000001184                8000000000030501111127HOLCIM SA                     000000001552704000000000000000000000000000000000000000037437000000000000000000000000000000000000000005367000000000000000PES00010000001000000000000000000000000000000000000000000                              000000000000000
201709100010026400000000000000123441                8000000000030501111127HOLCIM SA                     000000105455532000000000000000000000000000000000000002542524000000000000000000000000000000000000000364433000000000000000PES00010000001000000000000000000000000000000000000000000                              000000000000000
201709100010026400000000000000123442                8000000000030501111127HOLCIM SA                     000000045439392000000000000000000000000000000000000001095540000000000000000000000000000000000000000157026000000000000000PES00010000001000000000000000000000000000000000000000000                              000000000000000
201709100030026400000000000000001212                8000000000030501111127HOLCIM SA                     000000002001260000000000000000000000000000000000000000048252000000000000000000000000000000000000000006916000000000000000PES00010000001000000000000000000000000000000000000000000                              000000000000000
201709170010026400000000000000123823                8000000000030501111127HOLCIM SA                     000000030292928000000000000000000000000000000000000000730360000000000000000000000000000000000000000104684000000000000000PES00010000001000000000000000000000000000000000000000000                              000000000000000
201709170010026400000000000000123824                8000000000030501111127HOLCIM SA                     000000097973178000000000000000000000000000000000000002362125000000000000000000000000000000000000000338577000000000000000PES00010000001000000000000000000000000000000000000000000                              000000000000000
201709170010026400000000000000123825                8000000000030501111127HOLCIM SA                     000000008603402000000000000000000000000000000000000000207428000000000000000000000000000000000000000029731000000000000000PES00010000001000000000000000000000000000000000000000000                              000000000000000
201709170030026400000000000000001233                8000000000030501111127HOLCIM SA                     000000002070272000000000000000000000000000000000000000049916000000000000000000000000000000000000000007156000000000000000PES00010000001000000000000000000000000000000000000000000                              000000000000000
201709080010050100000000000000153782                8000000000030500530851LOMA NEGRA CIASA              000000035894750000000000000000000000000000000000000000868420000000000000000000000000000000000000000000000000000000000000PES00010000001000000000000000000000000000000000000000000                              000000000000000
201709080030050100000000000000065704                8000000000030500530851LOMA NEGRA CIASA              000000007176932000000000000000000000000000000000000000000000000000000000000000000000000000000000000000000000000000000000PES00010000001000000000000000000000000000000000000000000                              000000000000000
201709250020052900000000000000006795                8000000000030500530851LOMA NEGRA CIASA              000000000085397000000000000000000000000000000000000000000000000000000000000000000000000000000000000000000000000000000000PES00010000001000000000000000000000000000000000000000000                              000000000000000
201709260010000700000000000000000343                8000000000027052627163GIACOM MAGDALENA DEL VALLE    000000000020000000000000000000000000000000000000000000000000000000000000000000000000000000000000000000000000000000000000PES00010000001000000000000000000000000000000000000000000                              000000000000000
201709200010081000000000000000005370                8000000000030636259194ORGANIZACI흁 COORDINADORA ARGE000000000022500000000000000000000000000000000000000000000000000000000000000000000000000000000000000000000000000000000000PES00010000001000000000000000000000000000000000000000000                              000000000000000
201709060010000300000000000000000152                8000000000023262936449ORTIZ VICTOR HUGO             000000004107278000000000000000000000000000000000000000000000000000000000000000000000000000000000000000000000000000000000PES00010000001000000000000000000000000000000000000000000                              000000000000000
201709220010000300000000000000000157                8000000000023262936449ORTIZ VICTOR HUGO             000000004136862000000000000000000000000000000000000000000000000000000000000000000000000000000000000000000000000000000000PES00010000001000000000000000000000000000000000000000000                              000000000000000
201710180010100800000000000000034275                8000000000030501199253ACINDAR INDUSTRIA ARGENTINA DE000000004192662000000000000000000000000000000000000000100947000000000000000000000000000000000000000020189000000000000000PES00010000001000000000000000000000000000000000000000000                              000000000000000
201710180010100800000000000000034284                8000000000030501199253ACINDAR INDUSTRIA ARGENTINA DE000000000804845000000000000000000000000000000000000000019378000000000000000000000000000000000000000003876000000000000000PES00010000001000000000000000000000000000000000000000000                              000000000000000
201710110010101000000000000000200330                8000000000030501199253ACINDAR INDUSTRIA ARGENTINA DE000000005450229000000000000000000000000000000000000000131225000000000000000000000000000000000000000026245000000000000000PES00010000001000000000000000000000000000000000000000000                              000000000000000
201710240030102500000000000000061577                8000000000030501199253ACINDAR INDUSTRIA ARGENTINA DE000000000626221000000000000000000000000000000000000000015151000000000000000000000000000000000000000000000000000000000000PES00010000001000000000000000000000000000000000000000000                              000000000000000
201710020010002100000000000000122025                8000000000030552816168DURLOCK SA                    000000007434343000000000341547000000000000000000000000000000000000000000000000000000204928000000000000000000000000000000PES00010000001000000000000000000000000000000000000000000                              000000000000000
201709190010000600000000000000016931                8000000000033521817599CERAMICA SALTE헤 SA           000000000357714000000000000000000000000000000000000000000000000000000000000000000000010335000000000000000000000000000000PES00010000001000000000000000000000000000000000000000000                              000000000000000
201709200010000600000000000000016997                8000000000033521817599CERAMICA SALTE헤 SA           000000000299311000000000000000000000000000000000000000000000000000000000000000000000008648000000000000000000000000000000PES00010000001000000000000000000000000000000000000000000                              000000000000000
201709190010000600000000000000016932                8000000000033521817599CERAMICA SALTE헤 SA           000000000252917000000000000000000000000000000000000000000000000000000000000000000000007307000000000000000000000000000000PES00010000001000000000000000000000000000000000000000000                              000000000000000
201709120010000600000000000000016798                8000000000033521817599CERAMICA SALTE헤 SA           000000000308845000000000000000000000000000000000000000000000000000000000000000000000008923000000000000000000000000000000PES00010000001000000000000000000000000000000000000000000                              000000000000000
201709120010000600000000000000016811                8000000000033521817599CERAMICA SALTE헤 SA           000000000043842000000000000000000000000000000000000000000000000000000000000000000000001267000000000000000000000000000000PES00010000001000000000000000000000000000000000000000000                              000000000000000
201708310010000600000000000000016461                8000000000033521817599CERAMICA SALTE헤 SA           000000000722622000000000000000000000000000000000000000000000000000000000000000000000020878000000000000000000000000000000PES00010000001000000000000000000000000000000000000000000                              000000000000000
201710090010000100000000000000002631                8000000000020220042279WALTER CESAR DIAZ             000000000120780000000000000000000000000000000000000000000000000000000000000000000000000000000000000000000000000000000000PES00010000001000000000000000000000000000000000000000000                              000000000000000
201709130010000400000000000000081095                8000000000030535302606FUNDICION DELTA SRL           000000001459131000000000000000000000000000000000000000000000000000000000000000000000000000000000000000000000000000000000PES00010000001000000000000000000000000000000000000000000                              000000000000000
201709210010000400000000000000081394                8000000000030535302606FUNDICION DELTA SRL           000000000931341000000000000000000000000000000000000000000000000000000000000000000000000000000000000000000000000000000000PES00010000001000000000000000000000000000000000000000000                              000000000000000
201709280010000400000000000000081690                8000000000030535302606FUNDICION DELTA SRL           000000000684832000000000000000000000000000000000000000000000000000000000000000000000000000000000000000000000000000000000PES00010000001000000000000000000000000000000000000000000                              000000000000000
201709200010003400000000000000010284                8000000000030621181838DISAL SA                      000000000528274000000000025156000000000000000000000000000000000000000000000000000000000000000000000000000000000000000000PES00010000001000000000000000000000000000000000000000000                              000000000000000
201709200010003400000000000000010276                8000000000030621181838DISAL SA                      000000000158482000000000007547000000000000000000000000000000000000000000000000000000000000000000000000000000000000000000PES00010000001000000000000000000000000000000000000000000                              000000000000000
201710030030003400000000000000012495                8000000000030621181838DISAL SA                      000000000043876000000000000000000000000000000000000000000000000000000000000000000000000000000000000000000000000000000000PES00010000001000000000000000000000000000000000000000000                              000000000000000
201710030030003400000000000000012496                8000000000030621181838DISAL SA                      000000000019810000000000000000000000000000000000000000000000000000000000000000000000000000000000000000000000000000000000PES00010000001000000000000000000000000000000000000000000                              000000000000000
201710030030003400000000000000012497                8000000000030621181838DISAL SA                      000000000043876000000000000000000000000000000000000000000000000000000000000000000000000000000000000000000000000000000000PES00010000001000000000000000000000000000000000000000000                              000000000000000
201707260010000400000000000000037829                8000000000030707716971BAMBIN SA                     000000000033618000000000033618000000000000000000000000000000000000000000000000000000000000000000000000000000000000000000PES00010000001000000000000000000000000000000000000000000                              000000000000000
201710120010002100000000000000122691                8000000000030552816168DURLOCK SA                    000000015397757000000000000000000000000000000000000000000000000000000000000000000000225700000000000000000000000000000000PES00010000001000000000000000000000000000000000000000000                              000000000000000
201710120010002100000000000000122692                8000000000030552816168DURLOCK SA                    000000005979423000000000000000000000000000000000000000000000000000000000000000000000087646000000000000000000000000000000PES00010000001000000000000000000000000000000000000000000                              000000000000000
201709180010000500000000000000031828                8000000000033644120479ETC SA                        000000001684318000000000000000000000000000000000000000000000000000000000000000000000000000000000000000000000000000000000PES00010000001000000000000000000000000000000000000000000                              000000000000000
201709060010000300000000000000000955                8000000000020109838543ELENCWAJ MARIO SERGIO         000000001934359000000000000000000000000000000000000000000000000000000000000000000000000000000000000000000000000000000000PES00010000001000000000000000000000000000000000000000000                              000000000000000
201709290030000400000000000000015148                8000000000030688372085ELECTRO MAYO SA               000000000473024000000000000000000000000000000000000000000000000000000000000000000000000000000000000000000000000000000000PES00010000001000000000000000000000000000000000000000000                              000000000000000
201710110030003400000000000000012552                8000000000030621181838DISAL SA                      000000000023772000000000000000000000000000000000000000000000000000000000000000000000000000000000000000000000000000000000PES00010000001000000000000000000000000000000000000000000                              000000000000000
201710110030003400000000000000012553                8000000000030621181838DISAL SA                      000000000079241000000000000000000000000000000000000000000000000000000000000000000000000000000000000000000000000000000000PES00010000001000000000000000000000000000000000000000000                              000000000000000
201710120030000900000000000000014459                8000000000030707297154FERRETERA GENERAL PAZ SRL     000000000234218000000000000000000000000000000000000000000000000000000000000000000000000000000000000000000000000000000000PES00010000001000000000000000000000000000000000000000000                              000000000000000
201709120010000900000000000000383460                8000000000030707297154FERRETERA GENERAL PAZ SRL     000000002343518000000000000000000000000000000000000000000000000000000000000000000000000000000000000000000000000000000000PES00010000001000000000000000000000000000000000000000000                              000000000000000
201710060010000300000000000000031496                8000000000033680021819GRAZIOLI SRL                  000000001476933000000000000000000000000000000000000000000000000000000000000000000000000000000000000000000000000000000000PES00010000001000000000000000000000000000000000000000000                              000000000000000
201709120030002200000000000000109456                8000000000030556095597PAREXKLAUKOL SA               000000000570746000000000000000000000000000000000000000000000000000000000000000000000000000000000000000000000000000000000PES00010000001000000000000000000000000000000000000000000                              000000000000000
201709250030002200000000000000110096                8000000000030556095597PAREXKLAUKOL SA               000000000688540000000000000000000000000000000000000000000000000000000000000000000000000000000000000000000000000000000000PES00010000001000000000000000000000000000000000000000000                              000000000000000
201709220010002300000000000000031744                8000000000030556095597PAREXKLAUKOL SA               000000000376050000000000000000000000000000000000000000008841000000000000000000000000010610000000000000000000000000000000PES00010000001000000000000000000000000000000000000000000                              000000000000000
201709220010002300000000000000031747                8000000000030556095597PAREXKLAUKOL SA               000000011315259000000000000000000000000000000000000000266033000000000000000000000000319239000000000000000000000000000000PES00010000001000000000000000000000000000000000000000000                              000000000000000
201709190010000100000000000000002699                8000000000030715082337SANITEC SRL                   000000001409072000000000000000000000000000000000000000000000000000000000000000000000000000000000000000000000000000000000PES00010000001000000000000000000000000000000000000000000                              000000000000000
201710180010007100000000000000018057                8000000000030644685906SALTA PLAST POLIETILENOS SRL  000000000067452000000000000000000000000000000000000000000000000000000000000000000000001949000000000000000000000000000000PES00010000001000000000000000000000000000000000000000000                              000000000000000
201709260010000200000000000000000370                8000000000030714084425TRANS VEL SRL                 000000000887960000000000000000000000000000000000000000000000000000000000000000000000000000000000000000000000000000000000PES00010000001000000000000000000000000000000000000000000                              000000000000000
201710090010003900000000000000013893                8000000000030543749024BOLLINI SA                    000000000040020000000000000000000000000000000000000000000000000000000000000000000000001156000000000000000000000000000000PES00010000001000000000000000000000000000000000000000000                              000000000000000
201709240010026400000000000000124212                8000000000030501111127HOLCIM SA                     000000106512034000000000000000000000000000000000000002567995000000000000000000000000000000000000000368084000000000000000PES00010000001000000000000000000000000000000000000000000                              000000000000000
201709240010026400000000000000124213                8000000000030501111127HOLCIM SA                     000000037866160000000000000000000000000000000000000000912950000000000000000000000000000000000000000130855000000000000000PES00010000001000000000000000000000000000000000000000000                              000000000000000
201709240030026400000000000000001259                8000000000030501111127HOLCIM SA                     000000000517568000000000000000000000000000000000000000012479000000000000000000000000000000000000000001789000000000000000PES00010000001000000000000000000000000000000000000000000                              000000000000000
201709220020027000000000000000015028                8000000000030501111127HOLCIM SA                     000000000012100000000000000000000000000000000000000000000000000000000000000000000000000000000000000000000000000000000000PES00010000001000000000000000000000000000000000000000000                              000000000000000
201709220020027000000000000000015029                8000000000030501111127HOLCIM SA                     000000000012100000000000000000000000000000000000000000000000000000000000000000000000000000000000000000000000000000000000PES00010000001000000000000000000000000000000000000000000                              000000000000000
201709220020027000000000000000015030                8000000000030501111127HOLCIM SA                     000000000012100000000000000000000000000000000000000000000000000000000000000000000000000000000000000000000000000000000000PES00010000001000000000000000000000000000000000000000000                              000000000000000
201710020020027000000000000000015113                8000000000030501111127HOLCIM SA                     000000000012100000000000000000000000000000000000000000000000000000000000000000000000000000000000000000000000000000000000PES00010000001000000000000000000000000000000000000000000                              000000000000000
201709300010050100000000000000155137                8000000000030500530851LOMA NEGRA CIASA              000000026921062000000000000000000000000000000000000000651315000000000000000000000000000000000000000000000000000000000000PES00010000001000000000000000000000000000000000000000000                              000000000000000
201710090010000300000000000000000163                8000000000023262936449ORTIZ VICTOR HUGO             000000003781758000000000000000000000000000000000000000000000000000000000000000000000000000000000000000000000000000000000PES00010000001000000000000000000000000000000000000000000                              000000000000000
201710260010000200000000000000000278                8000000000020251846740CHOROLQUE LORENSO             000000000620000000000000000000000000000000000000000000000000000000000000000000000000000000000000000000000000000000000000PES00010000001000000000000000000000000000000000000000000                              000000000000000
201710300010000200000000000000000283                8000000000020251846740CHOROLQUE LORENSO             000000000060000000000000000000000000000000000000000000000000000000000000000000000000000000000000000000000000000000000000PES00010000001000000000000000000000000000000000000000000                              000000000000000
