201701300010000400000000000000033992                8000000000030688372085ELECTRO MAYO SA               000000000739257000000000000000000000000000000000000000000000000000000000000000000000000000000000000000000000000000000000PES00010000001000000000000000000000000000000000000000000                              000000000000000
201701300010000400000000000000033990                8000000000030688372085ELECTRO MAYO SA               000000000716541000000000000000000000000000000000000000000000000000000000000000000000000000000000000000000000000000000000PES00010000001000000000000000000000000000000000000000000                              000000000000000
201701300010000400000000000000034025                8000000000030688372085ELECTRO MAYO SA               000000000041134000000000000000000000000000000000000000000000000000000000000000000000000000000000000000000000000000000000PES00010000001000000000000000000000000000000000000000000                              000000000000000
201701300030000400000000000000009987                8000000000030688372085ELECTRO MAYO SA               000000000057348000000000000000000000000000000000000000000000000000000000000000000000000000000000000000000000000000000000PES00010000001000000000000000000000000000000000000000000                              000000000000000
201701270010002300000000000000028523                8000000000030556095597PAREXKLAUKOL SA               000000000160987000000000000000000000000000000000000000003785000000000000000000000000004542000000000000000000000000000000PES00010000001000000000000000000000000000000000000000000                              000000000000000
201701310010002300000000000000028552                8000000000030556095597PAREXKLAUKOL SA               000000000491086000000000000000000000000000000000000000011546000000000000000000000000013855000000000000000000000000000000PES00010000001000000000000000000000000000000000000000000                              000000000000000
201701270010002300000000000000028524                8000000000030556095597PAREXKLAUKOL SA               000000009925851000000000000000000000000000000000000000233366000000000000000000000000280040000000000000000000000000000000PES00010000001000000000000000000000000000000000000000000                              000000000000000
201701200010002100000000000000219663                8000000000030556095597PAREXKLAUKOL SA               000000003064380000000000000000000000000000000000000000072047000000000000000000000000086456000000000000000000000000000000PES00010000001000000000000000000000000000000000000000000                              000000000000000
201701110010002300000000000000028236                8000000000030556095597PAREXKLAUKOL SA               000000001532190000000000000000000000000000000000000000036023000000000000000000000000043228000000000000000000000000000000PES00010000001000000000000000000000000000000000000000000                              000000000000000
201701210010000900000000000000336606                8000000000030707297154FERRETERA GENERAL PAZ SRL     000000002569175000000000000000000000000000000000000000000000000000000000000000000000000000000000000000000000000000000000PES00010000001000000000000000000000000000000000000000000                              000000000000000
201701050010000400000000000000035175                8000000000030707716971BAMBIN S.A.                   000000000290598000000000000000000000000000000000000000000000000000000000000000000000000000000000000000000000000000000000PES00010000001000000000000000000000000000000000000000000                              000000000000000
201701240010000700000000000000030889                8000000000030700067021TUBONOR S.A.                  000000000572341000000000000000000000000000000000000000000000000000000000000000000000016536000000000000000000000000000000PES00010000001000000000000000000000000000000000000000000                              000000000000000
201701240010000700000000000000030890                8000000000030700067021TUBONOR S.A.                  000000001259855000000000000000000000000000000000000000000000000000000000000000000000036400000000000000000000000000000000PES00010000001000000000000000000000000000000000000000000                              000000000000000
201701210010000700000000000000030759                8000000000030700067021TUBONOR S.A.                  000000000934677000000000000000000000000000000000000000000000000000000000000000000000027005000000000000000000000000000000PES00010000001000000000000000000000000000000000000000000                              000000000000000
201701210010000700000000000000030760                8000000000030700067021TUBONOR S.A.                  000000001813516000000000000000000000000000000000000000000000000000000000000000000000052397000000000000000000000000000000PES00010000001000000000000000000000000000000000000000000                              000000000000000
201701310010002900000000000000009513                8000000000030500130128HORIZONTES S.A.               000000000123649000000000000000000000000000000000000000000000000000000000000000000000000000000000000000000000000000000000PES00010000001000000000000000000000000000000000000000000                              000000000000000
201701250010000500000000000000027932                8000000000033644120479ETC SA                        000000001536105000000000000000000000000000000000000000000000000000000000000000000000000000000000000000000000000000000000PES00010000001000000000000000000000000000000000000000000                              000000000000000
201701240010000500000000000000001107                8000000000030607769415NOMASGOT S.R.L                000000001975882000000000000000000000000000000000000000000000000000000000000000000000000000000000000000000000000000000000PES00010000001000000000000000000000000000000000000000000                              000000000000000
201612140020102500000000000000070340                8000000000030501199253ACINDAR INDUSTRIA ARGENTINA AC000000044607447000000000000000000000000000000000000001079212000000000000000000000000000000000000000000000000000000000000PES00010000001000000000000000000000000000000000000000000                              000000000000000
201612140020102500000000000000070339                8000000000030501199253ACINDAR INDUSTRIA ARGENTINA AC000000005461000000000000000000000000000000000000000000132121000000000000000000000000000000000000000000000000000000000000PES00010000001000000000000000000000000000000000000000000                              000000000000000
201612190010102700000000000000005166                8000000000030501199253ACINDAR INDUSTRIA ARGENTINA AC000000015826887000000000000000000000000000000000000000381064000000000000000000000000000000000000000076213000000000000000PES00010000001000000000000000000000000000000000000000000                              000000000000000
201612200030102500000000000000051517                8000000000030501199253ACINDAR INDUSTRIA ARGENTINA AC000000005461000000000000000000000000000000000000000000132121000000000000000000000000000000000000000000000000000000000000PES00010000001000000000000000000000000000000000000000000                              000000000000000
201612200030102500000000000000051518                8000000000030501199253ACINDAR INDUSTRIA ARGENTINA AC000000010365887000000000000000000000000000000000000000250788000000000000000000000000000000000000000000000000000000000000PES00010000001000000000000000000000000000000000000000000                              000000000000000
201612270010102700000000000000005214                8000000000030501199253ACINDAR INDUSTRIA ARGENTINA AC000000007640297000000000000000000000000000000000000000183956000000000000000000000000000000000000000036792000000000000000PES00010000001000000000000000000000000000000000000000000                              000000000000000
201612280030102500000000000000051751                8000000000030501199253ACINDAR INDUSTRIA ARGENTINA AC000000007640297000000000000000000000000000000000000000184846000000000000000000000000000000000000000000000000000000000000PES00010000001000000000000000000000000000000000000000000                              000000000000000
201701180010102700000000000000005327                8000000000030501199253ACINDAR INDUSTRIA ARGENTINA AC000000023985927000000000000000000000000000000000000000577510000000000000000000000000000000000000000115502000000000000000PES00010000001000000000000000000000000000000000000000000                              000000000000000
201701180030102500000000000000052283                8000000000030501199253ACINDAR INDUSTRIA ARGENTINA AC000000023985927000000000000000000000000000000000000000580305000000000000000000000000000000000000000000000000000000000000PES00010000001000000000000000000000000000000000000000000                              000000000000000
201701280010102700000000000000005422                8000000000030501199253ACINDAR INDUSTRIA ARGENTINA AC000000003801387000000000000000000000000000000000000000091526000000000000000000000000000000000000000018305000000000000000PES00010000001000000000000000000000000000000000000000000                              000000000000000
201701300030102500000000000000052598                8000000000030501199253ACINDAR INDUSTRIA ARGENTINA AC000000002615336000000000000000000000000000000000000000063274000000000000000000000000000000000000000000000000000000000000PES00010000001000000000000000000000000000000000000000000                              000000000000000
201701280010102700000000000000005423                8000000000030501199253ACINDAR INDUSTRIA ARGENTINA AC000000007818227000000000000000000000000000000000000000188240000000000000000000000000000000000000000037648000000000000000PES00010000001000000000000000000000000000000000000000000                              000000000000000
201701310010100900000000000000042281                8000000000030501199253ACINDAR INDUSTRIA ARGENTINA AC000000007113638000000000000000000000000000000000000000171275000000000000000000000000000000000000000034255000000000000000PES00010000001000000000000000000000000000000000000000000                              000000000000000
201701240030002100000000000000032426                8000000000030552816168DURLOCK S.A                   000000000705966000000000000000000000000000000000000000000000000000000000000000000000000000000000000000000000000000000000PES00010000001000000000000000000000000000000000000000000                              000000000000000
201701300030002100000000000000032523                8000000000030552816168DURLOCK S.A                   000000000765486000000000000000000000000000000000000000000000000000000000000000000000000000000000000000000000000000000000PES00010000001000000000000000000000000000000000000000000                              000000000000000
201701200030000400000000000000009908                8000000000030688372085ELECTRO MAYO SA               000000000029663000000000000000000000000000000000000000000000000000000000000000000000000000000000000000000000000000000000PES00010000002000000000000000000000000000000000000000000                              000000000000000
201701200030000400000000011111119908                8000000000030688372085ELECTRO MAYO SA               000000000008409000000000000000000000000000000000000000000000000000000000000000000000000000000000000000000000000000000000PES00010000001000000000000000000000000000000000000000000                              000000000000000
201612300030000400000000000000009804                8000000000030688372085ELECTRO MAYO SA               000000000449722000000000000000000000000000000000000000000000000000000000000000000000000000000000000000000000000000000000PES00010000001000000000000000000000000000000000000000000                              000000000000000
201702010010000400000000000000007575                8000000000030675407416FERRETERA DEL NORTE S.R.L     000000007086412000000000000000000000000000000000000000000000000000000000000000000000089628000000000000000000000000000000PES00010000001000000000000000000000000000000000000000000                              000000000000000
201701050010000100000000000000020019                8000000000030713678909PIAZZA HIDROSANITARIOS S.A    000000000943091000000000000000000000000000000000000000000000000000000000000000000000000000000000000000000000000000000000PES00010000001000000000000000000000000000000000000000000                              000000000000000
201701310010002400000000000000004684                8000000000030681305129PROMET S.R.L                  000000004405763000000000000000000000000000000000000000000000000000000000000000000000053759000000000015411000000000000000PES00010000001000000000000000000000000000000000000000000                              000000000000000
201701300010002200000000000000009630                8000000000030681305129PROMET S.R.L                  000000000608706000000000000000000000000000000000000000000000000000000000000000000000007427000000000002129000000000000000PES00010000001000000000000000000000000000000000000000000                              000000000000000
201702210010007100000000000000013280                8000000000030644685906SALTA PLAST POLIETILENOS S.R.L000000000063430000000000000000000000000000000000000000000000000000000000000000000000001833000000000000000000000000000000PES00010000001000000000000000000000000000000000000000000                              000000000000000
201702080010007100000000000000013048                8000000000030644685906SALTA PLAST POLIETILENOS S.R.L000000000182675000000000000000000000000000000000000000000000000000000000000000000000005278000000000000000000000000000000PES00010000001000000000000000000000000000000000000000000                              000000000000000
201701200010000700000000000000004576                8000000000030503884425TEXILO S.A                    000000000313160000000000007576000000000000000000000000000000000000000000000000000000000000000000000000000000000000000000PES00010000001000000000000000000000000000000000000000000                              000000000000000
201701100010000200000000000000000282                8000000000030714084425TRANS-VEL S.R.L               000000000239344000000000000000000000000000000000000000000000000000000000000000000000000000000000000000000000000000000000PES00010000001000000000000000000000000000000000000000000                              000000000000000
201701310030001200000000000000026370                8000000000030505374866PRODUCTOS VENIER S.A          000000000461009000000000000000000000000000000000000000000000000000000000000000000000000000000000000000000000000000000000PES00010000001000000000000000000000000000000000000000000                              000000000000000
201701200010002000000000000000002949                8000000000030505374866PRODUCTOS VENIER S.A          000000004383842000000000000000000000000000000000000000000000000000000000000000000000106061000000000000000000000000000000PES00010000001000000000000000000000000000000000000000000                              000000000000000
201701190010102200000000000005945529                8000000000030573652084CABLEVISION S.A               000000000071200000000000000000000000000000000000000000000000000000000000000000000000000000000000000000000000000000000000PES00010000001000000000000000000000000000000000000000000                              000000000000000
201701190010102200000000000005946356                8000000000030573652084CABLEVISION S.A               000000000101696000000000000000000000000000000000000000000000000000000000000000000000000000000000000000000000000000000000PES00010000001000000000000000000000000000000000000000000                              000000000000000
201701190010102200000000000005946855                8000000000030573652084CABLEVISION S.A               000000000070608000000000001708000000000000000000000000000000000000000000000000000000000000000000000000000000000000000000PES00010000001000000000000000000000000000000000000000000                              000000000000000
201701110010209300000000000006665407                8000000000030678814357TELEFONICA MOVILES ARGENTINA S000000000001381000000000000011000000000000000000000000000000000000000000000000000000000000000000000000000000000000000000PES00010000001000000000000000000000000000000000000000000                              000000000000000
201701120010810300000000000016340737                8000000000030639453738TELECOM ARGENTINA SA          000000000023937000000000000000000000000000000000000000000000000000000000000000000000000000000000000000000000000000000000PES00010000001000000000000000000000000000000000000000000                              000000000000000
201701310010551200000000000002269587                8000000000030678186446TELECOM PERSONAL SA           000000000113663000000000000860000000000000000000000000000000000000000000000000000000000000000000000000000000000000003583PES00010000001000000000000000000000000000000000000000000                              000000000000000
201701190010010100000000000000359365                8000000000030690633635EDESA S.A.                    000000000071569000000000048422000000000000000000000000000000000000000000000000000000000110000000000000000000000000000000PES00010000002000000000000000000000000000000000000000000                              000000000000000
201701190010010100000000011111359365                8000000000030690633635EDESA S.A.                    000000000000012000000000000000000000000000000000000000000000000000000000000000000000000000000000000000000000000000000000PES00010000001000000000000000000000000000000000000000000                              000000000000000
201701180010010100000000000000358987                8000000000030690633635EDESA S.A.                    000000000141119000000000061756000000000000000000000000000000000000000000000000000000002188000000000000000000000000000000PES00010000002000000000000000000000000000000000000000000                              000000000000000
201701180010010100000000011111358987                8000000000030690633635EDESA S.A.                    000000000000082000000000000000000000000000000000000000000000000000000000000000000000000000000000000000000000000000000000PES00010000001000000000000000000000000000000000000000000                              000000000000000
201701180010010100000000000000358996                8000000000030690633635EDESA S.A.                    000000000104872000000000060578000000000000000000000000000000000000000000000000000000001221000000000000000000000000000000PES00010000002000000000000000000000000000000000000000000                              000000000000000
201701180010010100000000011111358996                8000000000030690633635EDESA S.A.                    000000000000038000000000000000000000000000000000000000000000000000000000000000000000000000000000000000000000000000000000PES00010000001000000000000000000000000000000000000000000                              000000000000000
201702010010010100000000000000364869                8000000000030690633635EDESA S.A.                    000000000118405000000000039497000000000000000000000000000000000000000000000000000000002175000000000000000000000000000000PES00010000001000000000000000000000000000000000000000000                              000000000000000
201701240010010100000000000000361982                8000000000030690633635EDESA S.A.                    000000000044064000000000014794000000000000000000000000000000000000000000000000000000000164000000000000000000000000000000PES00010000002000000000000000000000000000000000000000000                              000000000000000
201701240010010100000000011111361982                8000000000030690633635EDESA S.A.                    000000000000067000000000000000000000000000000000000000000000000000000000000000000000000000000000000000000000000000000000PES00010000001000000000000000000000000000000000000000000                              000000000000000
201701190010010100000000000000359332                8000000000030690633635EDESA S.A.                    000000000130983000000000015734000000000000000000000000000000000000000000000000000000003177000000000000000000000000000000PES00010000001000000000000000000000000000000000000000000                              000000000000000
201701310010050100000000000000141984                8000000000030500530851LOMA NEGRA C.I.A.S.A          000000065284244000000000000000000000000000000000000001579457000000000000000000000000000000000000000000000000000000000000PES00010000001000000000000000000000000000000000000000000                              000000000000000
201702080010050100000000000000142350                8000000000030500530851LOMA NEGRA C.I.A.S.A          000000061062191000000000000000000000000000000000000001477310000000000000000000000000000000000000000000000000000000000000PES00010000001000000000000000000000000000000000000000000                              000000000000000
201702080010050100000000000000142351                8000000000030500530851LOMA NEGRA C.I.A.S.A          000000003208263000000000000000000000000000000000000000077619000000000000000000000000000000000000000000000000000000000000PES00010000001000000000000000000000000000000000000000000                              000000000000000
201702060030050100000000000000061855                8000000000030500530851LOMA NEGRA C.I.A.S.A          000000002939533000000000000000000000000000000000000000000000000000000000000000000000000000000000000000000000000000000000PES00010000001000000000000000000000000000000000000000000                              000000000000000
201702100030050100000000000000062164                8000000000030500530851LOMA NEGRA C.I.A.S.A          000000007628780000000000000000000000000000000000000000000000000000000000000000000000000000000000000000000000000000000000PES00010000001000000000000000000000000000000000000000000                              000000000000000
201702150010050100000000000000142704                8000000000030500530851LOMA NEGRA C.I.A.S.A          000000056840137000000000000000000000000000000000000001375164000000000000000000000000000000000000000000000000000000000000PES00010000001000000000000000000000000000000000000000000                              000000000000000
201702070010002400000000000000004745                8000000000030681305129PROMET S.R.L                  000000000056035000000000000000000000000000000000000000000000000000000000000000000000000684000000000000196000000000000000PES00010000001000000000000000000000000000000000000000000                              000000000000000
201702070010002400000000000000004743                8000000000030681305129PROMET S.R.L                  000000000188257000000000000000000000000000000000000000000000000000000000000000000000002297000000000000659000000000000000PES00010000001000000000000000000000000000000000000000000                              000000000000000
201702160010000400000000000000003926                8000000000030603955842OLEOHIDRAULICA SALTA S.R.L.   000000000170000000000000000000000000000000000000000000000000000000000000000000000000000000000000000000000000000000000000PES00010000001000000000000000000000000000000000000000000                              000000000000000
201702070010000300000000000000000067                8000000000023262936449ORTIZ VICTOR HUGO             000000003841676000000000000000000000000000000000000000000000000000000000000000000000000000000000000000000000000000000000PES00010000001000000000000000000000000000000000000000000                              000000000000000
201702280010050100000000000000143664                8000000000030500530851LOMA NEGRA C.I.A.S.A          000000032642121000000000000000000000000000000000000000789728000000000000000000000000000000000000000000000000000000000000PES00010000001000000000000000000000000000000000000000000                              000000000000000
