201607310010000100000000000020160701                8000000000030500010084BANCO MACRO                   000000000052030000000000000000000000000000000000000000000000000000000000000000000000000000000000000000000000000000000000PES00010000001000000000000000000000000000000000000000000                              000000000000000
201608290010003500000000000000019572                8000000000030623573318HIERRONORT SALTA SRL          000000000827927000000000000000000000000000000000000000000000000000000000000000000000000000000000000004085000000000000000PES00010000001000000000000000000000000000000000000000000                              000000000000000
201608290010003500000000000000019574                8000000000030623573318HIERRONORT SALTA SRL          000000000102479000000000000000000000000000000000000000000000000000000000000000000000000000000000000000506000000000000000PES00010000001000000000000000000000000000000000000000000                              000000000000000
201608180010003500000000000000019065                8000000000030623573318HIERRONORT SALTA SRL          000000000083492000000000000000000000000000000000000000000000000000000000000000000000000000000000000000412000000000000000PES00010000001000000000000000000000000000000000000000000                              000000000000000
201608110010003500000000000000018835                8000000000030623573318HIERRONORT SALTA SRL          000000000530978000000000000000000000000000000000000000000000000000000000000000000000000000000000000002620000000000000000PES00010000001000000000000000000000000000000000000000000                              000000000000000
201608170010000400000000000000001904                8000000000030709866709LAROCCA SALTA NEUMATICOS SA   000000000699000000000000000000000000000000000000000000000000000000000000000000000000000000000000000000000000000000000000PES00010000001000000000000000000000000000000000000000000                              000000000000000
201608010010000200000000000000016074                8000000000030712085459JDG NEUMATICOS SA             000000000061387000000000000000000000000000000000000000000000000000000000000000000000000000000000000000000000000000000000PES00010000001000000000000000000000000000000000000000000                              000000000000000
201608230010003400000000000000013305                8000000000030644226359ESTACION DE SERVICIO EL CHANGO000000000100001000000000016231000000000000000000000000000000000000000000000000000000000000000000000000000000000000000000PES00010000001000000000000000000000000000000000000000000                              000000000000000
201608150010003400000000000000012707                8000000000030644226359ESTACION DE SERVICIO EL CHANGO000000000100001000000000016231000000000000000000000000000000000000000000000000000000000000000000000000000000000000000000PES00010000001000000000000000000000000000000000000000000                              000000000000000
201608030010000600000000000000002322                8000000000030710097921TECNOBUS SA                   000000000110000000000000016500000000000000000000000000000000000000000000000000000000000000000000000000000000000000000000PES00010000001000000000000000000000000000000000000000000                              000000000000000
201608010010000200000000000000001499                8000000000020112830139MUÑOZ CRUZ JUAN CARLOS        000000000405000000000000000000000000000000000000000000000000000000000000000000000000000000000000000000000000000000000000PES00010000001000000000000000000000000000000000000000000                              000000000000000
201608290010000600000000000000019374                8000000000030690671057MANANTIALES SA                000000000300001000000000062355000000000000000000000000000000000000000000000000000000000000000000000000000000000000000000PES00010000001000000000000000000000000000000000000000000                              000000000000000
201608290010000600000000000000019375                8000000000030690671057MANANTIALES SA                000000000200001000000000041570000000000000000000000000000000000000000000000000000000000000000000000000000000000000000000PES00010000001000000000000000000000000000000000000000000                              000000000000000
201608220010000600000000000000019020                8000000000030690671057MANANTIALES SA                000000000350003000000000072748000000000000000000000000000000000000000000000000000000000000000000000000000000000000000000PES00010000001000000000000000000000000000000000000000000                              000000000000000
201608190010000600000000000000018889                8000000000030690671057MANANTIALES SA                000000000195001000000000040531000000000000000000000000000000000000000000000000000000000000000000000000000000000000000000PES00010000001000000000000000000000000000000000000000000                              000000000000000
201608120010000600000000000000018445                8000000000030690671057MANANTIALES SA                000000000177001000000000036790000000000000000000000000000000000000000000000000000000000000000000000000000000000000000000PES00010000001000000000000000000000000000000000000000000                              000000000000000
201608020010000600000000000000017945                8000000000030690671057MANANTIALES SA                000000000449999000000000093613000000000000000000000000000000000000000000000000000000000000000000000000000000000000000000PES00010000001000000000000000000000000000000000000000000                              000000000000000
201608080010002400000000000000081555                8000000000033611226689JACARANDA SA                  000000000475003000000000098815000000000000000000000000000000000000000000000000000000000000000000000000000000000000000000PES00010000001000000000000000000000000000000000000000000                              000000000000000
201608280010002100000000000000027693                8000000000033611226689JACARANDA SA                  000000000100000000000000020803000000000000000000000000000000000000000000000000000000000000000000000000000000000000000000PES00010000001000000000000000000000000000000000000000000                              000000000000000
201608280010002100000000000000027695                8000000000033611226689JACARANDA SA                  000000000030000000000000006241000000000000000000000000000000000000000000000000000000000000000000000000000000000000000000PES00010000001000000000000000000000000000000000000000000                              000000000000000
201608020010002200000000000000076157                8000000000033611226689JACARANDA SA                  000000000063003000000000013107000000000000000000000000000000000000000000000000000000000000000000000000000000000000000000PES00010000001000000000000000000000000000000000000000000                              000000000000000
201608180010010400000000000000474689                8000000000030678519681FORD ARGENINA SCA             000000071857972000000000000000000000000000000000000000000000000000000000000000000000000000000000000000000000000000000000PES00010000001000000000000000000000000000000000000000000                              000000000000000
