201703010060000300000000000000069912000000000000000699128000000000020000000001Consumidor Final              000000000001600000000000000000000000000000000000000000000000000000000000000000000000000000000000000000000000000000000000PES00010000001000000000000000020170301
201703010060000300000000000000069913000000000000000699138000000000020000000001Consumidor Final              000000000065300000000000000000000000000000000000000000000000000000000000000000000000000000000000000000000000000000000000PES00010000001000000000000000020170301
201703010060000300000000000000069914000000000000000699148000000000020000000001Consumidor Final              000000000003500000000000000000000000000000000000000000000000000000000000000000000000000000000000000000000000000000000000PES00010000001000000000000000020170301
201703010060000300000000000000069915000000000000000699158000000000020000000001Consumidor Final              000000000024500000000000000000000000000000000000000000000000000000000000000000000000000000000000000000000000000000000000PES00010000001000000000000000020170301
201703010060000300000000000000069916000000000000000699168000000000020000000001Consumidor Final              000000000003400000000000000000000000000000000000000000000000000000000000000000000000000000000000000000000000000000000000PES00010000001000000000000000020170301
201703010060000300000000000000069917000000000000000699178000000000020000000001Consumidor Final              000000000009400000000000000000000000000000000000000000000000000000000000000000000000000000000000000000000000000000000000PES00010000001000000000000000020170301
201703010060000300000000000000069918000000000000000699188000000000020000000001Consumidor Final              000000000001300000000000000000000000000000000000000000000000000000000000000000000000000000000000000000000000000000000000PES00010000001000000000000000020170301
201703010060000300000000000000069919000000000000000699198000000000020000000001Consumidor Final              000000000009800000000000000000000000000000000000000000000000000000000000000000000000000000000000000000000000000000000000PES00010000001000000000000000020170301
201703010060000300000000000000069920000000000000000699208000000000020000000001Consumidor Final              000000000005600000000000000000000000000000000000000000000000000000000000000000000000000000000000000000000000000000000000PES00010000001000000000000000020170301
201703010060000300000000000000069921000000000000000699218000000000020000000001Consumidor Final              000000000002000000000000000000000000000000000000000000000000000000000000000000000000000000000000000000000000000000000000PES00010000001000000000000000020170301
201703010060000300000000000000069922000000000000000699228000000000020000000001Consumidor Final              000000000014000000000000000000000000000000000000000000000000000000000000000000000000000000000000000000000000000000000000PES00010000001000000000000000020170301
201703010060000300000000000000069923000000000000000699238000000000020000000001Consumidor Final              000000000013870000000000000000000000000000000000000000000000000000000000000000000000000000000000000000000000000000000000PES00010000001000000000000000020170301
201703010060000300000000000000069924000000000000000699248000000000020000000001Consumidor Final              000000000068530000000000000000000000000000000000000000000000000000000000000000000000000000000000000000000000000000000000PES00010000001000000000000000020170301
201703010060000300000000000000069925000000000000000699258000000000020000000001Consumidor Final              000000000089600000000000000000000000000000000000000000000000000000000000000000000000000000000000000000000000000000000000PES00010000001000000000000000020170301
201703010060000300000000000000069926000000000000000699268000000000020000000001Consumidor Final              000000000029800000000000000000000000000000000000000000000000000000000000000000000000000000000000000000000000000000000000PES00010000001000000000000000020170301
201703010060000300000000000000069927000000000000000699278000000000020000000001Consumidor Final              000000000012000000000000000000000000000000000000000000000000000000000000000000000000000000000000000000000000000000000000PES00010000001000000000000000020170301
201703010060000300000000000000069928000000000000000699288000000000020000000001Consumidor Final              000000000019500000000000000000000000000000000000000000000000000000000000000000000000000000000000000000000000000000000000PES00010000001000000000000000020170301
201703010060000300000000000000069929000000000000000699298000000000020000000001Consumidor Final              000000000062940000000000000000000000000000000000000000000000000000000000000000000000000000000000000000000000000000000000PES00010000001000000000000000020170301
201703010060000300000000000000069930000000000000000699308000000000020000000001Consumidor Final              000000000026550000000000000000000000000000000000000000000000000000000000000000000000000000000000000000000000000000000000PES00010000001000000000000000020170301
201703010060000300000000000000069931000000000000000699318000000000020000000001Consumidor Final              000000000003800000000000000000000000000000000000000000000000000000000000000000000000000000000000000000000000000000000000PES00010000001000000000000000020170301
201703010060000300000000000000069932000000000000000699328000000000020000000001Consumidor Final              000000000006300000000000000000000000000000000000000000000000000000000000000000000000000000000000000000000000000000000000PES00010000001000000000000000020170301
201703010060000300000000000000069933000000000000000699338000000000020000000001Consumidor Final              000000000034550000000000000000000000000000000000000000000000000000000000000000000000000000000000000000000000000000000000PES00010000001000000000000000020170301
201703010060000300000000000000069934000000000000000699348000000000020000000001Consumidor Final              000000000005950000000000000000000000000000000000000000000000000000000000000000000000000000000000000000000000000000000000PES00010000001000000000000000020170301
201703010060000300000000000000069935000000000000000699358000000000020000000001Consumidor Final              000000000005800000000000000000000000000000000000000000000000000000000000000000000000000000000000000000000000000000000000PES00010000001000000000000000020170301
201703010060000300000000000000069936000000000000000699368000000000020000000001Consumidor Final              000000000022950000000000000000000000000000000000000000000000000000000000000000000000000000000000000000000000000000000000PES00010000001000000000000000020170301
201703010060000300000000000000069937000000000000000699378000000000020000000001Consumidor Final              000000000080500000000000000000000000000000000000000000000000000000000000000000000000000000000000000000000000000000000000PES00010000001000000000000000020170301
201703010060000300000000000000069938000000000000000699388000000000020000000001Consumidor Final              000000000002000000000000000000000000000000000000000000000000000000000000000000000000000000000000000000000000000000000000PES00010000001000000000000000020170301
201703010060000300000000000000069939000000000000000699398000000000020000000001Consumidor Final              000000000008200000000000000000000000000000000000000000000000000000000000000000000000000000000000000000000000000000000000PES00010000001000000000000000020170301
201703010060000300000000000000069940000000000000000699408000000000020000000001Consumidor Final              000000000075540000000000000000000000000000000000000000000000000000000000000000000000000000000000000000000000000000000000PES00010000001000000000000000020170301
201703010060000300000000000000069941000000000000000699418000000000020000000001Consumidor Final              000000000002300000000000000000000000000000000000000000000000000000000000000000000000000000000000000000000000000000000000PES00010000001000000000000000020170301
201703010060000300000000000000069942000000000000000699428000000000020000000001Consumidor Final              000000000000500000000000000000000000000000000000000000000000000000000000000000000000000000000000000000000000000000000000PES00010000001000000000000000020170301
201703010060000300000000000000069943000000000000000699438000000000020000000001Consumidor Final              000000000008400000000000000000000000000000000000000000000000000000000000000000000000000000000000000000000000000000000000PES00010000001000000000000000020170301
201703010060000300000000000000069944000000000000000699448000000000020000000001Consumidor Final              000000000006500000000000000000000000000000000000000000000000000000000000000000000000000000000000000000000000000000000000PES00010000001000000000000000020170301
201703010060000300000000000000069945000000000000000699458000000000020000000001Consumidor Final              000000000004000000000000000000000000000000000000000000000000000000000000000000000000000000000000000000000000000000000000PES00010000001000000000000000020170301
201703010060000300000000000000069946000000000000000699468000000000020000000001Consumidor Final              000000000030000000000000000000000000000000000000000000000000000000000000000000000000000000000000000000000000000000000000PES00010000001000000000000000020170301
201703010060000300000000000000069947000000000000000699478000000000020000000001Consumidor Final              000000000015350000000000000000000000000000000000000000000000000000000000000000000000000000000000000000000000000000000000PES00010000001000000000000000020170301
201703010060000300000000000000069948000000000000000699488000000000020000000001Consumidor Final              000000000002500000000000000000000000000000000000000000000000000000000000000000000000000000000000000000000000000000000000PES00010000001000000000000000020170301
201703010060000300000000000000069949000000000000000699498000000000020000000001Consumidor Final              000000000003000000000000000000000000000000000000000000000000000000000000000000000000000000000000000000000000000000000000PES00010000001000000000000000020170301
201703010060000300000000000000069950000000000000000699508000000000020000000001Consumidor Final              000000000004900000000000000000000000000000000000000000000000000000000000000000000000000000000000000000000000000000000000PES00010000001000000000000000020170301
201703010060000300000000000000069951000000000000000699518000000000020000000001Consumidor Final              000000000027200000000000000000000000000000000000000000000000000000000000000000000000000000000000000000000000000000000000PES00010000001000000000000000020170301
201703010060000300000000000000069952000000000000000699528000000000020000000001Consumidor Final              000000000013800000000000000000000000000000000000000000000000000000000000000000000000000000000000000000000000000000000000PES00010000001000000000000000020170301
201703010060000300000000000000069953000000000000000699538000000000020000000001Consumidor Final              000000000005700000000000000000000000000000000000000000000000000000000000000000000000000000000000000000000000000000000000PES00010000001000000000000000020170301
201703010060000300000000000000069954000000000000000699548000000000020000000001Consumidor Final              000000000001500000000000000000000000000000000000000000000000000000000000000000000000000000000000000000000000000000000000PES00010000001000000000000000020170301
201703010060000300000000000000069955000000000000000699558000000000020000000001Consumidor Final              000000000008500000000000000000000000000000000000000000000000000000000000000000000000000000000000000000000000000000000000PES00010000001000000000000000020170301
201703010060000300000000000000069956000000000000000699568000000000020000000001Consumidor Final              000000000012170000000000000000000000000000000000000000000000000000000000000000000000000000000000000000000000000000000000PES00010000001000000000000000020170301
201703010060000300000000000000069957000000000000000699578000000000020000000001Consumidor Final              000000000009000000000000000000000000000000000000000000000000000000000000000000000000000000000000000000000000000000000000PES00010000001000000000000000020170301
201703010060000300000000000000069958000000000000000699588000000000020000000001Consumidor Final              000000000022500000000000000000000000000000000000000000000000000000000000000000000000000000000000000000000000000000000000PES00010000001000000000000000020170301
201703010060000300000000000000069959000000000000000699598000000000020000000001Consumidor Final              000000000016500000000000000000000000000000000000000000000000000000000000000000000000000000000000000000000000000000000000PES00010000001000000000000000020170301
201703010060000300000000000000069960000000000000000699608000000000020000000001Consumidor Final              000000000085000000000000000000000000000000000000000000000000000000000000000000000000000000000000000000000000000000000000PES00010000001000000000000000020170301
201703010060000300000000000000069961000000000000000699618000000000020000000001Consumidor Final              000000000014100000000000000000000000000000000000000000000000000000000000000000000000000000000000000000000000000000000000PES00010000001000000000000000020170301
201703010060000300000000000000069962000000000000000699628000000000020000000001Consumidor Final              000000000005450000000000000000000000000000000000000000000000000000000000000000000000000000000000000000000000000000000000PES00010000001000000000000000020170301
201703010060000300000000000000069963000000000000000699638000000000020000000001Consumidor Final              000000000001600000000000000000000000000000000000000000000000000000000000000000000000000000000000000000000000000000000000PES00010000001000000000000000020170301
201703010060000300000000000000069964000000000000000699648000000000020000000001Consumidor Final              000000000015500000000000000000000000000000000000000000000000000000000000000000000000000000000000000000000000000000000000PES00010000001000000000000000020170301
201703010060000300000000000000069965000000000000000699658000000000020000000001Consumidor Final              000000000007300000000000000000000000000000000000000000000000000000000000000000000000000000000000000000000000000000000000PES00010000001000000000000000020170301
201703010060000300000000000000069971000000000000000699718000000000020000000001Consumidor Final              000000000014000000000000000000000000000000000000000000000000000000000000000000000000000000000000000000000000000000000000PES00010000001000000000000000020170301
201703010060000300000000000000069972000000000000000699728000000000020000000001Consumidor Final              000000000004500000000000000000000000000000000000000000000000000000000000000000000000000000000000000000000000000000000000PES00010000001000000000000000020170301
201703010060000300000000000000069973000000000000000699738000000000020000000001Consumidor Final              000000000013600000000000000000000000000000000000000000000000000000000000000000000000000000000000000000000000000000000000PES00010000001000000000000000020170301
201703010060000300000000000000069974000000000000000699748000000000020000000001Consumidor Final              000000000003000000000000000000000000000000000000000000000000000000000000000000000000000000000000000000000000000000000000PES00010000001000000000000000020170301
201703010060000300000000000000069975000000000000000699758000000000020000000001Consumidor Final              000000000032500000000000000000000000000000000000000000000000000000000000000000000000000000000000000000000000000000000000PES00010000001000000000000000020170301
201703010060000300000000000000069976000000000000000699768000000000020000000001Consumidor Final              000000000003200000000000000000000000000000000000000000000000000000000000000000000000000000000000000000000000000000000000PES00010000001000000000000000020170301
201703010060000300000000000000069977000000000000000699778000000000020000000001Consumidor Final              000000000031000000000000000000000000000000000000000000000000000000000000000000000000000000000000000000000000000000000000PES00010000001000000000000000020170301
201703010060000300000000000000069978000000000000000699788000000000020000000001Consumidor Final              000000000020800000000000000000000000000000000000000000000000000000000000000000000000000000000000000000000000000000000000PES00010000001000000000000000020170301
201703010060000300000000000000069979000000000000000699798000000000020000000001Consumidor Final              000000000047900000000000000000000000000000000000000000000000000000000000000000000000000000000000000000000000000000000000PES00010000001000000000000000020170301
201703010060000300000000000000069980000000000000000699808000000000020000000001Consumidor Final              000000000020400000000000000000000000000000000000000000000000000000000000000000000000000000000000000000000000000000000000PES00010000001000000000000000020170301
201703010060000300000000000000069982000000000000000699828000000000020000000001Consumidor Final              000000000002400000000000000000000000000000000000000000000000000000000000000000000000000000000000000000000000000000000000PES00010000001000000000000000020170301
201703010060000300000000000000069983000000000000000699838000000000020000000001Consumidor Final              000000000009400000000000000000000000000000000000000000000000000000000000000000000000000000000000000000000000000000000000PES00010000001000000000000000020170301
201703010060000300000000000000069984000000000000000699848000000000020000000001Consumidor Final              000000000001300000000000000000000000000000000000000000000000000000000000000000000000000000000000000000000000000000000000PES00010000001000000000000000020170301
201703010060000300000000000000069985000000000000000699858000000000020000000001Consumidor Final              000000000008700000000000000000000000000000000000000000000000000000000000000000000000000000000000000000000000000000000000PES00010000001000000000000000020170301
201703010060000300000000000000069986000000000000000699868000000000020000000001Consumidor Final              000000000010500000000000000000000000000000000000000000000000000000000000000000000000000000000000000000000000000000000000PES00010000001000000000000000020170301
201703010060000300000000000000069987000000000000000699878000000000020000000001Consumidor Final              000000000005500000000000000000000000000000000000000000000000000000000000000000000000000000000000000000000000000000000000PES00010000001000000000000000020170301
201703010060000300000000000000069988000000000000000699888000000000020000000001Consumidor Final              000000000001000000000000000000000000000000000000000000000000000000000000000000000000000000000000000000000000000000000000PES00010000001000000000000000020170301
201703010060000300000000000000069989000000000000000699898000000000020000000001Consumidor Final              000000000028000000000000000000000000000000000000000000000000000000000000000000000000000000000000000000000000000000000000PES00010000001000000000000000020170301
201703010060000300000000000000069990000000000000000699908000000000020000000001Consumidor Final              000000000006600000000000000000000000000000000000000000000000000000000000000000000000000000000000000000000000000000000000PES00010000001000000000000000020170301
201703010060000300000000000000069991000000000000000699918000000000020000000001Consumidor Final              000000000013500000000000000000000000000000000000000000000000000000000000000000000000000000000000000000000000000000000000PES00010000001000000000000000020170301
201703010060000300000000000000069996000000000000000699968000000000020000000001Consumidor Final              000000000023500000000000000000000000000000000000000000000000000000000000000000000000000000000000000000000000000000000000PES00010000001000000000000000020170301
201703010060000300000000000000069997000000000000000699978000000000020000000001Consumidor Final              000000000050900000000000000000000000000000000000000000000000000000000000000000000000000000000000000000000000000000000000PES00010000001000000000000000020170301
201703010060000300000000000000069998000000000000000699988000000000020000000001Consumidor Final              000000000007500000000000000000000000000000000000000000000000000000000000000000000000000000000000000000000000000000000000PES00010000001000000000000000020170301
201703010060000300000000000000070000000000000000000700008000000000020000000001Consumidor Final              000000000029400000000000000000000000000000000000000000000000000000000000000000000000000000000000000000000000000000000000PES00010000001000000000000000020170301
201703010060000300000000000000070001000000000000000700018000000000020000000001Consumidor Final              000000000002000000000000000000000000000000000000000000000000000000000000000000000000000000000000000000000000000000000000PES00010000001000000000000000020170301
201703010060000300000000000000070002000000000000000700028000000000020000000001Consumidor Final              000000000005500000000000000000000000000000000000000000000000000000000000000000000000000000000000000000000000000000000000PES00010000001000000000000000020170301
201703010060000300000000000000070003000000000000000700038000000000020000000001Consumidor Final              000000000004100000000000000000000000000000000000000000000000000000000000000000000000000000000000000000000000000000000000PES00010000001000000000000000020170301
201703010060000300000000000000070004000000000000000700048000000000020000000001Consumidor Final              000000000004500000000000000000000000000000000000000000000000000000000000000000000000000000000000000000000000000000000000PES00010000001000000000000000020170301
201703010060000300000000000000070005000000000000000700058000000000020000000001Consumidor Final              000000000030250000000000000000000000000000000000000000000000000000000000000000000000000000000000000000000000000000000000PES00010000001000000000000000020170301
201703010060000300000000000000070006000000000000000700068000000000020000000001Consumidor Final              000000000023100000000000000000000000000000000000000000000000000000000000000000000000000000000000000000000000000000000000PES00010000001000000000000000020170301
201703010060000300000000000000070007000000000000000700078000000000020000000001Consumidor Final              000000000004000000000000000000000000000000000000000000000000000000000000000000000000000000000000000000000000000000000000PES00010000001000000000000000020170301
201703010060000300000000000000070008000000000000000700088000000000020000000001Consumidor Final              000000000011000000000000000000000000000000000000000000000000000000000000000000000000000000000000000000000000000000000000PES00010000001000000000000000020170301
201703010060000300000000000000070009000000000000000700098000000000020000000001Consumidor Final              000000000010000000000000000000000000000000000000000000000000000000000000000000000000000000000000000000000000000000000000PES00010000001000000000000000020170301
201703010060000300000000000000070010000000000000000700108000000000020000000001Consumidor Final              000000000008200000000000000000000000000000000000000000000000000000000000000000000000000000000000000000000000000000000000PES00010000001000000000000000020170301
201703020060000300000000000000070011000000000000000700118000000000020000000001Consumidor Final              000000000013700000000000000000000000000000000000000000000000000000000000000000000000000000000000000000000000000000000000PES00010000001000000000000000020170302
201703020060000300000000000000070012000000000000000700128000000000020000000001Consumidor Final              000000000096820000000000000000000000000000000000000000000000000000000000000000000000000000000000000000000000000000000000PES00010000001000000000000000020170302
201703020060000300000000000000070013000000000000000700138000000000020000000001Consumidor Final              000000000008600000000000000000000000000000000000000000000000000000000000000000000000000000000000000000000000000000000000PES00010000001000000000000000020170302
201703020060000300000000000000070014000000000000000700148000000000020000000001Consumidor Final              000000000002800000000000000000000000000000000000000000000000000000000000000000000000000000000000000000000000000000000000PES00010000001000000000000000020170302
201703020060000300000000000000070015000000000000000700158000000000020000000001Consumidor Final              000000000003100000000000000000000000000000000000000000000000000000000000000000000000000000000000000000000000000000000000PES00010000001000000000000000020170302
201703020060000300000000000000070016000000000000000700168000000000020000000001Consumidor Final              000000000021000000000000000000000000000000000000000000000000000000000000000000000000000000000000000000000000000000000000PES00010000001000000000000000020170302
201703020060000300000000000000070017000000000000000700178000000000020000000001Consumidor Final              000000000009000000000000000000000000000000000000000000000000000000000000000000000000000000000000000000000000000000000000PES00010000001000000000000000020170302
201703020060000300000000000000070018000000000000000700188000000000020000000001Consumidor Final              000000000002900000000000000000000000000000000000000000000000000000000000000000000000000000000000000000000000000000000000PES00010000001000000000000000020170302
201703020060000300000000000000070019000000000000000700198000000000020000000001Consumidor Final              000000000009300000000000000000000000000000000000000000000000000000000000000000000000000000000000000000000000000000000000PES00010000001000000000000000020170302
201703020060000300000000000000070020000000000000000700208000000000020000000001Consumidor Final              000000000012300000000000000000000000000000000000000000000000000000000000000000000000000000000000000000000000000000000000PES00010000001000000000000000020170302
201703020060000300000000000000070021000000000000000700218000000000020000000001Consumidor Final              000000000020000000000000000000000000000000000000000000000000000000000000000000000000000000000000000000000000000000000000PES00010000001000000000000000020170302
201703020060000300000000000000070022000000000000000700228000000000020000000001Consumidor Final              000000000014000000000000000000000000000000000000000000000000000000000000000000000000000000000000000000000000000000000000PES00010000001000000000000000020170302
201703020060000300000000000000070023000000000000000700238000000000020000000001Consumidor Final              000000000017200000000000000000000000000000000000000000000000000000000000000000000000000000000000000000000000000000000000PES00010000001000000000000000020170302
201703020060000300000000000000070024000000000000000700248000000000020000000001Consumidor Final              000000000007000000000000000000000000000000000000000000000000000000000000000000000000000000000000000000000000000000000000PES00010000001000000000000000020170302
201703020060000300000000000000070025000000000000000700258000000000020000000001Consumidor Final              000000000000250000000000000000000000000000000000000000000000000000000000000000000000000000000000000000000000000000000000PES00010000001000000000000000020170302
201703020060000300000000000000070026000000000000000700268000000000020000000001Consumidor Final              000000000002400000000000000000000000000000000000000000000000000000000000000000000000000000000000000000000000000000000000PES00010000001000000000000000020170302
201703020060000300000000000000070027000000000000000700278000000000020000000001Consumidor Final              000000000040400000000000000000000000000000000000000000000000000000000000000000000000000000000000000000000000000000000000PES00010000001000000000000000020170302
201703020060000300000000000000070028000000000000000700288000000000020000000001Consumidor Final              000000000002300000000000000000000000000000000000000000000000000000000000000000000000000000000000000000000000000000000000PES00010000001000000000000000020170302
201703020060000300000000000000070029000000000000000700298000000000020000000001Consumidor Final              000000000001500000000000000000000000000000000000000000000000000000000000000000000000000000000000000000000000000000000000PES00010000001000000000000000020170302
201703020060000300000000000000070030000000000000000700308000000000020000000001Consumidor Final              000000000044450000000000000000000000000000000000000000000000000000000000000000000000000000000000000000000000000000000000PES00010000001000000000000000020170302
201703020060000300000000000000070031000000000000000700318000000000020000000001Consumidor Final              000000000026400000000000000000000000000000000000000000000000000000000000000000000000000000000000000000000000000000000000PES00010000001000000000000000020170302
201703020060000300000000000000070032000000000000000700328000000000020000000001Consumidor Final              000000000007200000000000000000000000000000000000000000000000000000000000000000000000000000000000000000000000000000000000PES00010000001000000000000000020170302
201703020060000300000000000000070033000000000000000700338000000000020000000001Consumidor Final              000000000004500000000000000000000000000000000000000000000000000000000000000000000000000000000000000000000000000000000000PES00010000001000000000000000020170302
201703020060000300000000000000070034000000000000000700348000000000020000000001Consumidor Final              000000000033500000000000000000000000000000000000000000000000000000000000000000000000000000000000000000000000000000000000PES00010000001000000000000000020170302
201703020060000300000000000000070035000000000000000700358000000000020000000001Consumidor Final              000000000008950000000000000000000000000000000000000000000000000000000000000000000000000000000000000000000000000000000000PES00010000001000000000000000020170302
201703020060000300000000000000070036000000000000000700368000000000020000000001Consumidor Final              000000000001800000000000000000000000000000000000000000000000000000000000000000000000000000000000000000000000000000000000PES00010000001000000000000000020170302
201703020060000300000000000000070037000000000000000700378000000000020000000001Consumidor Final              000000000097170000000000000000000000000000000000000000000000000000000000000000000000000000000000000000000000000000000000PES00010000001000000000000000020170302
201703020060000300000000000000070038000000000000000700388000000000020000000001Consumidor Final              000000000099725000000000000000000000000000000000000000000000000000000000000000000000000000000000000000000000000000000000PES00010000001000000000000000020170302
201703020060000300000000000000070039000000000000000700398000000000020000000001Consumidor Final              000000000087360000000000000000000000000000000000000000000000000000000000000000000000000000000000000000000000000000000000PES00010000001000000000000000020170302
201703020060000300000000000000070040000000000000000700408000000000020000000001Consumidor Final              000000000096200000000000000000000000000000000000000000000000000000000000000000000000000000000000000000000000000000000000PES00010000001000000000000000020170302
201703020060000300000000000000070041000000000000000700418000000000020000000001Consumidor Final              000000000003200000000000000000000000000000000000000000000000000000000000000000000000000000000000000000000000000000000000PES00010000001000000000000000020170302
201703020060000300000000000000070042000000000000000700428000000000020000000001Consumidor Final              000000000006000000000000000000000000000000000000000000000000000000000000000000000000000000000000000000000000000000000000PES00010000001000000000000000020170302
201703020060000300000000000000070043000000000000000700438000000000020000000001Consumidor Final              000000000002600000000000000000000000000000000000000000000000000000000000000000000000000000000000000000000000000000000000PES00010000001000000000000000020170302
201703020060000300000000000000070044000000000000000700448000000000020000000001Consumidor Final              000000000008700000000000000000000000000000000000000000000000000000000000000000000000000000000000000000000000000000000000PES00010000001000000000000000020170302
201703020060000300000000000000070045000000000000000700458000000000020000000001Consumidor Final              000000000033000000000000000000000000000000000000000000000000000000000000000000000000000000000000000000000000000000000000PES00010000001000000000000000020170302
201703020060000300000000000000070046000000000000000700468000000000020000000001Consumidor Final              000000000013000000000000000000000000000000000000000000000000000000000000000000000000000000000000000000000000000000000000PES00010000001000000000000000020170302
201703020060000300000000000000070047000000000000000700478000000000020000000001Consumidor Final              000000000010000000000000000000000000000000000000000000000000000000000000000000000000000000000000000000000000000000000000PES00010000001000000000000000020170302
201703020060000300000000000000070049000000000000000700498000000000020000000001Consumidor Final              000000000001500000000000000000000000000000000000000000000000000000000000000000000000000000000000000000000000000000000000PES00010000001000000000000000020170302
201703020060000300000000000000070050000000000000000700508000000000020000000001Consumidor Final              000000000006000000000000000000000000000000000000000000000000000000000000000000000000000000000000000000000000000000000000PES00010000001000000000000000020170302
201703020060000300000000000000070051000000000000000700518000000000020000000001Consumidor Final              000000000024000000000000000000000000000000000000000000000000000000000000000000000000000000000000000000000000000000000000PES00010000001000000000000000020170302
201703020060000300000000000000070052000000000000000700528000000000020000000001Consumidor Final              000000000061450000000000000000000000000000000000000000000000000000000000000000000000000000000000000000000000000000000000PES00010000001000000000000000020170302
201703020060000300000000000000070053000000000000000700538000000000020000000001Consumidor Final              000000000005150000000000000000000000000000000000000000000000000000000000000000000000000000000000000000000000000000000000PES00010000001000000000000000020170302
201703020060000300000000000000070054000000000000000700548000000000020000000001Consumidor Final              000000000013000000000000000000000000000000000000000000000000000000000000000000000000000000000000000000000000000000000000PES00010000001000000000000000020170302
201703020060000300000000000000070055000000000000000700558000000000020000000001Consumidor Final              000000000001300000000000000000000000000000000000000000000000000000000000000000000000000000000000000000000000000000000000PES00010000001000000000000000020170302
201703020060000300000000000000070056000000000000000700568000000000020000000001Consumidor Final              000000000006600000000000000000000000000000000000000000000000000000000000000000000000000000000000000000000000000000000000PES00010000001000000000000000020170302
201703020060000300000000000000070057000000000000000700578000000000020000000001Consumidor Final              000000000090510000000000000000000000000000000000000000000000000000000000000000000000000000000000000000000000000000000000PES00010000001000000000000000020170302
201703020060000300000000000000070058000000000000000700588000000000020000000001Consumidor Final              000000000012700000000000000000000000000000000000000000000000000000000000000000000000000000000000000000000000000000000000PES00010000001000000000000000020170302
201703020060000300000000000000070059000000000000000700598000000000020000000001Consumidor Final              000000000010000000000000000000000000000000000000000000000000000000000000000000000000000000000000000000000000000000000000PES00010000001000000000000000020170302
201703020060000300000000000000070060000000000000000700608000000000020000000001Consumidor Final              000000000008500000000000000000000000000000000000000000000000000000000000000000000000000000000000000000000000000000000000PES00010000001000000000000000020170302
201703020060000300000000000000070061000000000000000700618000000000020000000001Consumidor Final              000000000002500000000000000000000000000000000000000000000000000000000000000000000000000000000000000000000000000000000000PES00010000001000000000000000020170302
201703020060000300000000000000070063000000000000000700638000000000020000000001Consumidor Final              000000000009000000000000000000000000000000000000000000000000000000000000000000000000000000000000000000000000000000000000PES00010000001000000000000000020170302
201703020060000300000000000000070064000000000000000700648000000000020000000001Consumidor Final              000000000004500000000000000000000000000000000000000000000000000000000000000000000000000000000000000000000000000000000000PES00010000001000000000000000020170302
201703020060000300000000000000070065000000000000000700658000000000020000000001Consumidor Final              000000000004000000000000000000000000000000000000000000000000000000000000000000000000000000000000000000000000000000000000PES00010000001000000000000000020170302
201703020060000300000000000000070066000000000000000700668000000000020000000001Consumidor Final              000000000007000000000000000000000000000000000000000000000000000000000000000000000000000000000000000000000000000000000000PES00010000001000000000000000020170302
201703020060000300000000000000070067000000000000000700678000000000020000000001Consumidor Final              000000000007200000000000000000000000000000000000000000000000000000000000000000000000000000000000000000000000000000000000PES00010000001000000000000000020170302
201703020060000300000000000000070068000000000000000700688000000000020000000001Consumidor Final              000000000008000000000000000000000000000000000000000000000000000000000000000000000000000000000000000000000000000000000000PES00010000001000000000000000020170302
201703020060000300000000000000070069000000000000000700698000000000020000000001Consumidor Final              000000000003000000000000000000000000000000000000000000000000000000000000000000000000000000000000000000000000000000000000PES00010000001000000000000000020170302
201703020060000300000000000000070070000000000000000700708000000000020000000001Consumidor Final              000000000008600000000000000000000000000000000000000000000000000000000000000000000000000000000000000000000000000000000000PES00010000001000000000000000020170302
201703020060000300000000000000070071000000000000000700718000000000020000000001Consumidor Final              000000000017300000000000000000000000000000000000000000000000000000000000000000000000000000000000000000000000000000000000PES00010000001000000000000000020170302
201703020060000300000000000000070072000000000000000700728000000000020000000001Consumidor Final              000000000000750000000000000000000000000000000000000000000000000000000000000000000000000000000000000000000000000000000000PES00010000001000000000000000020170302
201703020060000300000000000000070073000000000000000700738000000000020000000001Consumidor Final              000000000029800000000000000000000000000000000000000000000000000000000000000000000000000000000000000000000000000000000000PES00010000001000000000000000020170302
201703020060000300000000000000070074000000000000000700748000000000020000000001Consumidor Final              000000000001300000000000000000000000000000000000000000000000000000000000000000000000000000000000000000000000000000000000PES00010000001000000000000000020170302
201703020060000300000000000000070075000000000000000700758000000000020000000001Consumidor Final              000000000045800000000000000000000000000000000000000000000000000000000000000000000000000000000000000000000000000000000000PES00010000001000000000000000020170302
201703020060000300000000000000070076000000000000000700768000000000020000000001Consumidor Final              000000000034000000000000000000000000000000000000000000000000000000000000000000000000000000000000000000000000000000000000PES00010000001000000000000000020170302
201703020060000300000000000000070077000000000000000700778000000000020000000001Consumidor Final              000000000015300000000000000000000000000000000000000000000000000000000000000000000000000000000000000000000000000000000000PES00010000001000000000000000020170302
201703020060000300000000000000070078000000000000000700788000000000020000000001Consumidor Final              000000000004000000000000000000000000000000000000000000000000000000000000000000000000000000000000000000000000000000000000PES00010000001000000000000000020170302
201703020060000300000000000000070079000000000000000700798000000000020000000001Consumidor Final              000000000022000000000000000000000000000000000000000000000000000000000000000000000000000000000000000000000000000000000000PES00010000001000000000000000020170302
201703020060000300000000000000070080000000000000000700808000000000020000000001Consumidor Final              000000000005500000000000000000000000000000000000000000000000000000000000000000000000000000000000000000000000000000000000PES00010000001000000000000000020170302
201703030060000300000000000000070081000000000000000700818000000000020000000001Consumidor Final              000000000002000000000000000000000000000000000000000000000000000000000000000000000000000000000000000000000000000000000000PES00010000001000000000000000020170303
201703030060000300000000000000070084000000000000000700848000000000020000000001Consumidor Final              000000000032000000000000000000000000000000000000000000000000000000000000000000000000000000000000000000000000000000000000PES00010000001000000000000000020170303
201703030060000300000000000000070085000000000000000700858000000000020000000001Consumidor Final              000000000019750000000000000000000000000000000000000000000000000000000000000000000000000000000000000000000000000000000000PES00010000001000000000000000020170303
201703030060000300000000000000070086000000000000000700868000000000020000000001Consumidor Final              000000000001800000000000000000000000000000000000000000000000000000000000000000000000000000000000000000000000000000000000PES00010000001000000000000000020170303
201703030060000300000000000000070087000000000000000700878000000000020000000001Consumidor Final              000000000010800000000000000000000000000000000000000000000000000000000000000000000000000000000000000000000000000000000000PES00010000001000000000000000020170303
201703030060000300000000000000070088000000000000000700888000000000020000000001Consumidor Final              000000000003400000000000000000000000000000000000000000000000000000000000000000000000000000000000000000000000000000000000PES00010000001000000000000000020170303
201703030060000300000000000000070089000000000000000700898000000000020000000001Consumidor Final              000000000006200000000000000000000000000000000000000000000000000000000000000000000000000000000000000000000000000000000000PES00010000001000000000000000020170303
201703030060000300000000000000070090000000000000000700908000000000020000000001Consumidor Final              000000000008500000000000000000000000000000000000000000000000000000000000000000000000000000000000000000000000000000000000PES00010000001000000000000000020170303
201703030060000300000000000000070091000000000000000700918000000000020000000001Consumidor Final              000000000003000000000000000000000000000000000000000000000000000000000000000000000000000000000000000000000000000000000000PES00010000001000000000000000020170303
201703030060000300000000000000070092000000000000000700928000000000020000000001Consumidor Final              000000000003000000000000000000000000000000000000000000000000000000000000000000000000000000000000000000000000000000000000PES00010000001000000000000000020170303
201703030060000300000000000000070093000000000000000700938000000000020000000001Consumidor Final              000000000007000000000000000000000000000000000000000000000000000000000000000000000000000000000000000000000000000000000000PES00010000001000000000000000020170303
201703030060000300000000000000070094000000000000000700948000000000020000000001Consumidor Final              000000000019800000000000000000000000000000000000000000000000000000000000000000000000000000000000000000000000000000000000PES00010000001000000000000000020170303
201703030060000300000000000000070095000000000000000700958000000000020000000001Consumidor Final              000000000014700000000000000000000000000000000000000000000000000000000000000000000000000000000000000000000000000000000000PES00010000001000000000000000020170303
201703030060000300000000000000070096000000000000000700968000000000020000000001Consumidor Final              000000000010000000000000000000000000000000000000000000000000000000000000000000000000000000000000000000000000000000000000PES00010000001000000000000000020170303
201703030060000300000000000000070097000000000000000700978000000000020000000001Consumidor Final              000000000005200000000000000000000000000000000000000000000000000000000000000000000000000000000000000000000000000000000000PES00010000001000000000000000020170303
201703030060000300000000000000070098000000000000000700988000000000020000000001Consumidor Final              000000000003800000000000000000000000000000000000000000000000000000000000000000000000000000000000000000000000000000000000PES00010000001000000000000000020170303
201703030060000300000000000000070099000000000000000700998000000000020000000001Consumidor Final              000000000001800000000000000000000000000000000000000000000000000000000000000000000000000000000000000000000000000000000000PES00010000001000000000000000020170303
201703030060000300000000000000070100000000000000000701008000000000020000000001Consumidor Final              000000000001800000000000000000000000000000000000000000000000000000000000000000000000000000000000000000000000000000000000PES00010000001000000000000000020170303
201703030060000300000000000000070101000000000000000701018000000000020000000001Consumidor Final              000000000033492000000000000000000000000000000000000000000000000000000000000000000000000000000000000000000000000000000000PES00010000001000000000000000020170303
201703030060000300000000000000070103000000000000000701038000000000020000000001Consumidor Final              000000000003500000000000000000000000000000000000000000000000000000000000000000000000000000000000000000000000000000000000PES00010000001000000000000000020170303
201703030060000300000000000000070104000000000000000701048000000000020000000001Consumidor Final              000000000008400000000000000000000000000000000000000000000000000000000000000000000000000000000000000000000000000000000000PES00010000001000000000000000020170303
201703030060000300000000000000070105000000000000000701058000000000020000000001Consumidor Final              000000000006900000000000000000000000000000000000000000000000000000000000000000000000000000000000000000000000000000000000PES00010000001000000000000000020170303
201703030060000300000000000000070106000000000000000701068000000000020000000001Consumidor Final              000000000009500000000000000000000000000000000000000000000000000000000000000000000000000000000000000000000000000000000000PES00010000001000000000000000020170303
201703030060000300000000000000070107000000000000000701078000000000020000000001Consumidor Final              000000000062500000000000000000000000000000000000000000000000000000000000000000000000000000000000000000000000000000000000PES00010000001000000000000000020170303
201703030060000300000000000000070108000000000000000701088000000000020000000001Consumidor Final              000000000005700000000000000000000000000000000000000000000000000000000000000000000000000000000000000000000000000000000000PES00010000001000000000000000020170303
201703030060000300000000000000070109000000000000000701098000000000020000000001Consumidor Final              000000000043000000000000000000000000000000000000000000000000000000000000000000000000000000000000000000000000000000000000PES00010000001000000000000000020170303
201703030060000300000000000000070110000000000000000701108000000000020000000001Consumidor Final              000000000096600000000000000000000000000000000000000000000000000000000000000000000000000000000000000000000000000000000000PES00010000001000000000000000020170303
201703030060000300000000000000070111000000000000000701118000000000020000000001Consumidor Final              000000000016500000000000000000000000000000000000000000000000000000000000000000000000000000000000000000000000000000000000PES00010000001000000000000000020170303
201703030060000300000000000000070112000000000000000701128000000000020000000001Consumidor Final              000000000004000000000000000000000000000000000000000000000000000000000000000000000000000000000000000000000000000000000000PES00010000001000000000000000020170303
201703030060000300000000000000070113000000000000000701138000000000020000000001Consumidor Final              000000000083700000000000000000000000000000000000000000000000000000000000000000000000000000000000000000000000000000000000PES00010000001000000000000000020170303
201703030060000300000000000000070114000000000000000701148000000000020000000001Consumidor Final              000000000013000000000000000000000000000000000000000000000000000000000000000000000000000000000000000000000000000000000000PES00010000001000000000000000020170303
201703030060000300000000000000070115000000000000000701158000000000020000000001Consumidor Final              000000000032000000000000000000000000000000000000000000000000000000000000000000000000000000000000000000000000000000000000PES00010000001000000000000000020170303
201703030060000300000000000000070116000000000000000701168000000000020000000001Consumidor Final              000000000002000000000000000000000000000000000000000000000000000000000000000000000000000000000000000000000000000000000000PES00010000001000000000000000020170303
201703030060000300000000000000070117000000000000000701178000000000020000000001Consumidor Final              000000000092000000000000000000000000000000000000000000000000000000000000000000000000000000000000000000000000000000000000PES00010000001000000000000000020170303
201703030060000300000000000000070118000000000000000701188000000000020000000001Consumidor Final              000000000022740000000000000000000000000000000000000000000000000000000000000000000000000000000000000000000000000000000000PES00010000001000000000000000020170303
201703030060000300000000000000070119000000000000000701198000000000020000000001Consumidor Final              000000000097125000000000000000000000000000000000000000000000000000000000000000000000000000000000000000000000000000000000PES00010000001000000000000000020170303
201703030060000300000000000000070120000000000000000701208000000000020000000001Consumidor Final              000000000009900000000000000000000000000000000000000000000000000000000000000000000000000000000000000000000000000000000000PES00010000001000000000000000020170303
201703030060000300000000000000070121000000000000000701218000000000020000000001Consumidor Final              000000000046000000000000000000000000000000000000000000000000000000000000000000000000000000000000000000000000000000000000PES00010000001000000000000000020170303
201703030060000300000000000000070122000000000000000701228000000000020000000001Consumidor Final              000000000007500000000000000000000000000000000000000000000000000000000000000000000000000000000000000000000000000000000000PES00010000001000000000000000020170303
201703030060000300000000000000070123000000000000000701238000000000020000000001Consumidor Final              000000000003000000000000000000000000000000000000000000000000000000000000000000000000000000000000000000000000000000000000PES00010000001000000000000000020170303
201703030060000300000000000000070124000000000000000701248000000000020000000001Consumidor Final              000000000004000000000000000000000000000000000000000000000000000000000000000000000000000000000000000000000000000000000000PES00010000001000000000000000020170303
201703030060000300000000000000070125000000000000000701258000000000020000000001Consumidor Final              000000000002100000000000000000000000000000000000000000000000000000000000000000000000000000000000000000000000000000000000PES00010000001000000000000000020170303
201703030060000300000000000000070126000000000000000701268000000000020000000001Consumidor Final              000000000002200000000000000000000000000000000000000000000000000000000000000000000000000000000000000000000000000000000000PES00010000001000000000000000020170303
201703030060000300000000000000070127000000000000000701278000000000020000000001Consumidor Final              000000000004500000000000000000000000000000000000000000000000000000000000000000000000000000000000000000000000000000000000PES00010000001000000000000000020170303
201703030060000300000000000000070128000000000000000701288000000000020000000001Consumidor Final              000000000001500000000000000000000000000000000000000000000000000000000000000000000000000000000000000000000000000000000000PES00010000001000000000000000020170303
201703030060000300000000000000070129000000000000000701298000000000020000000001Consumidor Final              000000000008800000000000000000000000000000000000000000000000000000000000000000000000000000000000000000000000000000000000PES00010000001000000000000000020170303
201703030060000300000000000000070130000000000000000701308000000000020000000001Consumidor Final              000000000004800000000000000000000000000000000000000000000000000000000000000000000000000000000000000000000000000000000000PES00010000001000000000000000020170303
201703030060000300000000000000070131000000000000000701318000000000020000000001Consumidor Final              000000000002300000000000000000000000000000000000000000000000000000000000000000000000000000000000000000000000000000000000PES00010000001000000000000000020170303
201703030060000300000000000000070132000000000000000701328000000000020000000001Consumidor Final              000000000010300000000000000000000000000000000000000000000000000000000000000000000000000000000000000000000000000000000000PES00010000001000000000000000020170303
201703030060000300000000000000070133000000000000000701338000000000020000000001Consumidor Final              000000000006000000000000000000000000000000000000000000000000000000000000000000000000000000000000000000000000000000000000PES00010000001000000000000000020170303
201703030060000300000000000000070134000000000000000701348000000000020000000001Consumidor Final              000000000001980000000000000000000000000000000000000000000000000000000000000000000000000000000000000000000000000000000000PES00010000001000000000000000020170303
201703030060000300000000000000070135000000000000000701358000000000020000000001Consumidor Final              000000000001800000000000000000000000000000000000000000000000000000000000000000000000000000000000000000000000000000000000PES00010000001000000000000000020170303
201703030060000300000000000000070136000000000000000701368000000000020000000001Consumidor Final              000000000026000000000000000000000000000000000000000000000000000000000000000000000000000000000000000000000000000000000000PES00010000001000000000000000020170303
201703030060000300000000000000070137000000000000000701378000000000020000000001Consumidor Final              000000000005500000000000000000000000000000000000000000000000000000000000000000000000000000000000000000000000000000000000PES00010000001000000000000000020170303
201703030060000300000000000000070138000000000000000701388000000000020000000001Consumidor Final              000000000008000000000000000000000000000000000000000000000000000000000000000000000000000000000000000000000000000000000000PES00010000001000000000000000020170303
201703030060000300000000000000070139000000000000000701398000000000020000000001Consumidor Final              000000000039500000000000000000000000000000000000000000000000000000000000000000000000000000000000000000000000000000000000PES00010000001000000000000000020170303
201703030060000300000000000000070140000000000000000701408000000000020000000001Consumidor Final              000000000006450000000000000000000000000000000000000000000000000000000000000000000000000000000000000000000000000000000000PES00010000001000000000000000020170303
201703030060000300000000000000070141000000000000000701418000000000020000000001Consumidor Final              000000000028850000000000000000000000000000000000000000000000000000000000000000000000000000000000000000000000000000000000PES00010000001000000000000000020170303
201703030060000300000000000000070142000000000000000701428000000000020000000001Consumidor Final              000000000005300000000000000000000000000000000000000000000000000000000000000000000000000000000000000000000000000000000000PES00010000001000000000000000020170303
201703030060000300000000000000070143000000000000000701438000000000020000000001Consumidor Final              000000000007700000000000000000000000000000000000000000000000000000000000000000000000000000000000000000000000000000000000PES00010000001000000000000000020170303
201703030060000300000000000000070144000000000000000701448000000000020000000001Consumidor Final              000000000003050000000000000000000000000000000000000000000000000000000000000000000000000000000000000000000000000000000000PES00010000001000000000000000020170303
201703030060000300000000000000070145000000000000000701458000000000020000000001Consumidor Final              000000000027000000000000000000000000000000000000000000000000000000000000000000000000000000000000000000000000000000000000PES00010000001000000000000000020170303
201703030060000300000000000000070146000000000000000701468000000000020000000001Consumidor Final              000000000009700000000000000000000000000000000000000000000000000000000000000000000000000000000000000000000000000000000000PES00010000001000000000000000020170303
201703030060000300000000000000070147000000000000000701478000000000020000000001Consumidor Final              000000000039150000000000000000000000000000000000000000000000000000000000000000000000000000000000000000000000000000000000PES00010000001000000000000000020170303
201703030060000300000000000000070148000000000000000701488000000000020000000001Consumidor Final              000000000023000000000000000000000000000000000000000000000000000000000000000000000000000000000000000000000000000000000000PES00010000001000000000000000020170303
201703030060000300000000000000070149000000000000000701498000000000020000000001Consumidor Final              000000000020650000000000000000000000000000000000000000000000000000000000000000000000000000000000000000000000000000000000PES00010000001000000000000000020170303
201703030060000300000000000000070150000000000000000701508000000000020000000001Consumidor Final              000000000025800000000000000000000000000000000000000000000000000000000000000000000000000000000000000000000000000000000000PES00010000001000000000000000020170303
201703030060000300000000000000070151000000000000000701518000000000020000000001Consumidor Final              000000000003000000000000000000000000000000000000000000000000000000000000000000000000000000000000000000000000000000000000PES00010000001000000000000000020170303
201703030060000300000000000000070152000000000000000701528000000000020000000001Consumidor Final              000000000029300000000000000000000000000000000000000000000000000000000000000000000000000000000000000000000000000000000000PES00010000001000000000000000020170303
201703030060000300000000000000070153000000000000000701538000000000020000000001Consumidor Final              000000000002750000000000000000000000000000000000000000000000000000000000000000000000000000000000000000000000000000000000PES00010000001000000000000000020170303
201703030060000300000000000000070154000000000000000701548000000000020000000001Consumidor Final              000000000020000000000000000000000000000000000000000000000000000000000000000000000000000000000000000000000000000000000000PES00010000001000000000000000020170303
201703030060000300000000000000070155000000000000000701558000000000020000000001Consumidor Final              000000000007000000000000000000000000000000000000000000000000000000000000000000000000000000000000000000000000000000000000PES00010000001000000000000000020170303
201703030060000300000000000000070156000000000000000701568000000000020000000001Consumidor Final              000000000004500000000000000000000000000000000000000000000000000000000000000000000000000000000000000000000000000000000000PES00010000001000000000000000020170303
201703030060000300000000000000070157000000000000000701578000000000020000000001Consumidor Final              000000000006800000000000000000000000000000000000000000000000000000000000000000000000000000000000000000000000000000000000PES00010000001000000000000000020170303
201703030060000300000000000000070158000000000000000701588000000000020000000001Consumidor Final              000000000029640000000000000000000000000000000000000000000000000000000000000000000000000000000000000000000000000000000000PES00010000001000000000000000020170303
201703030060000300000000000000070159000000000000000701598000000000020000000001Consumidor Final              000000000060040000000000000000000000000000000000000000000000000000000000000000000000000000000000000000000000000000000000PES00010000001000000000000000020170303
201703030060000300000000000000070160000000000000000701608000000000020000000001Consumidor Final              000000000006000000000000000000000000000000000000000000000000000000000000000000000000000000000000000000000000000000000000PES00010000001000000000000000020170303
201703030060000300000000000000070161000000000000000701618000000000020000000001Consumidor Final              000000000004700000000000000000000000000000000000000000000000000000000000000000000000000000000000000000000000000000000000PES00010000001000000000000000020170303
201703030060000300000000000000070162000000000000000701628000000000020000000001Consumidor Final              000000000006700000000000000000000000000000000000000000000000000000000000000000000000000000000000000000000000000000000000PES00010000001000000000000000020170303
201703030060000300000000000000070163000000000000000701638000000000020000000001Consumidor Final              000000000001800000000000000000000000000000000000000000000000000000000000000000000000000000000000000000000000000000000000PES00010000001000000000000000020170303
201703030060000300000000000000070164000000000000000701648000000000020000000001Consumidor Final              000000000076850000000000000000000000000000000000000000000000000000000000000000000000000000000000000000000000000000000000PES00010000001000000000000000020170303
201703030060000300000000000000070165000000000000000701658000000000020000000001Consumidor Final              000000000013700000000000000000000000000000000000000000000000000000000000000000000000000000000000000000000000000000000000PES00010000001000000000000000020170303
201703030060000300000000000000070166000000000000000701668000000000020000000001Consumidor Final              000000000046700000000000000000000000000000000000000000000000000000000000000000000000000000000000000000000000000000000000PES00010000001000000000000000020170303
201703030060000300000000000000070167000000000000000701678000000000020000000001Consumidor Final              000000000001030000000000000000000000000000000000000000000000000000000000000000000000000000000000000000000000000000000000PES00010000001000000000000000020170303
201703030060000300000000000000070168000000000000000701688000000000020000000001Consumidor Final              000000000007600000000000000000000000000000000000000000000000000000000000000000000000000000000000000000000000000000000000PES00010000001000000000000000020170303
201703030060000300000000000000070169000000000000000701698000000000020000000001Consumidor Final              000000000015540000000000000000000000000000000000000000000000000000000000000000000000000000000000000000000000000000000000PES00010000001000000000000000020170303
201703030060000300000000000000070170000000000000000701708000000000020000000001Consumidor Final              000000000002300000000000000000000000000000000000000000000000000000000000000000000000000000000000000000000000000000000000PES00010000001000000000000000020170303
201703030060000300000000000000070171000000000000000701718000000000020000000001Consumidor Final              000000000009500000000000000000000000000000000000000000000000000000000000000000000000000000000000000000000000000000000000PES00010000001000000000000000020170303
201703030060000300000000000000070172000000000000000701728000000000020000000001Consumidor Final              000000000022500000000000000000000000000000000000000000000000000000000000000000000000000000000000000000000000000000000000PES00010000001000000000000000020170303
201703030060000300000000000000070173000000000000000701738000000000020000000001Consumidor Final              000000000005200000000000000000000000000000000000000000000000000000000000000000000000000000000000000000000000000000000000PES00010000001000000000000000020170303
201703030060000300000000000000070174000000000000000701748000000000020000000001Consumidor Final              000000000021850000000000000000000000000000000000000000000000000000000000000000000000000000000000000000000000000000000000PES00010000001000000000000000020170303
201703030060000300000000000000070175000000000000000701758000000000020000000001Consumidor Final              000000000003950000000000000000000000000000000000000000000000000000000000000000000000000000000000000000000000000000000000PES00010000001000000000000000020170303
201703030060000300000000000000070176000000000000000701768000000000020000000001Consumidor Final              000000000020450000000000000000000000000000000000000000000000000000000000000000000000000000000000000000000000000000000000PES00010000001000000000000000020170303
201703030060000300000000000000070177000000000000000701778000000000020000000001Consumidor Final              000000000033800000000000000000000000000000000000000000000000000000000000000000000000000000000000000000000000000000000000PES00010000001000000000000000020170303
201703030060000300000000000000070178000000000000000701788000000000020000000001Consumidor Final              000000000026000000000000000000000000000000000000000000000000000000000000000000000000000000000000000000000000000000000000PES00010000001000000000000000020170303
201703040060000300000000000000070179000000000000000701798000000000020000000001Consumidor Final              000000000014100000000000000000000000000000000000000000000000000000000000000000000000000000000000000000000000000000000000PES00010000001000000000000000020170304
201703040060000300000000000000070180000000000000000701808000000000020000000001Consumidor Final              000000000016350000000000000000000000000000000000000000000000000000000000000000000000000000000000000000000000000000000000PES00010000001000000000000000020170304
201703040060000300000000000000070181000000000000000701818000000000020000000001Consumidor Final              000000000014000000000000000000000000000000000000000000000000000000000000000000000000000000000000000000000000000000000000PES00010000001000000000000000020170304
201703040060000300000000000000070182000000000000000701828000000000020000000001Consumidor Final              000000000001800000000000000000000000000000000000000000000000000000000000000000000000000000000000000000000000000000000000PES00010000001000000000000000020170304
201703040060000300000000000000070184000000000000000701848000000000020000000001Consumidor Final              000000000003000000000000000000000000000000000000000000000000000000000000000000000000000000000000000000000000000000000000PES00010000001000000000000000020170304
201703040060000300000000000000070185000000000000000701858000000000020000000001Consumidor Final              000000000003950000000000000000000000000000000000000000000000000000000000000000000000000000000000000000000000000000000000PES00010000001000000000000000020170304
201703040060000300000000000000070186000000000000000701868000000000020000000001Consumidor Final              000000000038500000000000000000000000000000000000000000000000000000000000000000000000000000000000000000000000000000000000PES00010000001000000000000000020170304
201703040060000300000000000000070187000000000000000701878000000000020000000001Consumidor Final              000000000007000000000000000000000000000000000000000000000000000000000000000000000000000000000000000000000000000000000000PES00010000001000000000000000020170304
201703040060000300000000000000070188000000000000000701888000000000020000000001Consumidor Final              000000000025400000000000000000000000000000000000000000000000000000000000000000000000000000000000000000000000000000000000PES00010000001000000000000000020170304
201703040060000300000000000000070190000000000000000701908000000000020000000001Consumidor Final              000000000003950000000000000000000000000000000000000000000000000000000000000000000000000000000000000000000000000000000000PES00010000001000000000000000020170304
201703040060000300000000000000070191000000000000000701918000000000020000000001Consumidor Final              000000000007150000000000000000000000000000000000000000000000000000000000000000000000000000000000000000000000000000000000PES00010000001000000000000000020170304
201703040060000300000000000000070192000000000000000701928000000000020000000001Consumidor Final              000000000021500000000000000000000000000000000000000000000000000000000000000000000000000000000000000000000000000000000000PES00010000001000000000000000020170304
201703040060000300000000000000070193000000000000000701938000000000020000000001Consumidor Final              000000000006450000000000000000000000000000000000000000000000000000000000000000000000000000000000000000000000000000000000PES00010000001000000000000000020170304
201703040060000300000000000000070194000000000000000701948000000000020000000001Consumidor Final              000000000007000000000000000000000000000000000000000000000000000000000000000000000000000000000000000000000000000000000000PES00010000001000000000000000020170304
201703040060000300000000000000070195000000000000000701958000000000020000000001Consumidor Final              000000000013000000000000000000000000000000000000000000000000000000000000000000000000000000000000000000000000000000000000PES00010000001000000000000000020170304
201703040060000300000000000000070196000000000000000701968000000000020000000001Consumidor Final              000000000003950000000000000000000000000000000000000000000000000000000000000000000000000000000000000000000000000000000000PES00010000001000000000000000020170304
201703040060000300000000000000070197000000000000000701978000000000020000000001Consumidor Final              000000000011500000000000000000000000000000000000000000000000000000000000000000000000000000000000000000000000000000000000PES00010000001000000000000000020170304
201703040060000300000000000000070198000000000000000701988000000000020000000001Consumidor Final              000000000011600000000000000000000000000000000000000000000000000000000000000000000000000000000000000000000000000000000000PES00010000001000000000000000020170304
201703040060000300000000000000070199000000000000000701998000000000020000000001Consumidor Final              000000000011700000000000000000000000000000000000000000000000000000000000000000000000000000000000000000000000000000000000PES00010000001000000000000000020170304
201703040060000300000000000000070200000000000000000702008000000000020000000001Consumidor Final              000000000004500000000000000000000000000000000000000000000000000000000000000000000000000000000000000000000000000000000000PES00010000001000000000000000020170304
201703040060000300000000000000070201000000000000000702018000000000020000000001Consumidor Final              000000000097500000000000000000000000000000000000000000000000000000000000000000000000000000000000000000000000000000000000PES00010000001000000000000000020170304
201703040060000300000000000000070202000000000000000702028000000000020000000001Consumidor Final              000000000065000000000000000000000000000000000000000000000000000000000000000000000000000000000000000000000000000000000000PES00010000001000000000000000020170304
201703040060000300000000000000070203000000000000000702038000000000020000000001Consumidor Final              000000000004200000000000000000000000000000000000000000000000000000000000000000000000000000000000000000000000000000000000PES00010000001000000000000000020170304
201703040060000300000000000000070204000000000000000702048000000000020000000001Consumidor Final              000000000012000000000000000000000000000000000000000000000000000000000000000000000000000000000000000000000000000000000000PES00010000001000000000000000020170304
201703040060000300000000000000070205000000000000000702058000000000020000000001Consumidor Final              000000000007320000000000000000000000000000000000000000000000000000000000000000000000000000000000000000000000000000000000PES00010000001000000000000000020170304
201703040060000300000000000000070206000000000000000702068000000000020000000001Consumidor Final              000000000007000000000000000000000000000000000000000000000000000000000000000000000000000000000000000000000000000000000000PES00010000001000000000000000020170304
201703040060000300000000000000070207000000000000000702078000000000020000000001Consumidor Final              000000000023400000000000000000000000000000000000000000000000000000000000000000000000000000000000000000000000000000000000PES00010000001000000000000000020170304
201703040060000300000000000000070208000000000000000702088000000000020000000001Consumidor Final              000000000007400000000000000000000000000000000000000000000000000000000000000000000000000000000000000000000000000000000000PES00010000001000000000000000020170304
201703040060000300000000000000070209000000000000000702098000000000020000000001Consumidor Final              000000000021100000000000000000000000000000000000000000000000000000000000000000000000000000000000000000000000000000000000PES00010000001000000000000000020170304
201703040060000300000000000000070210000000000000000702108000000000020000000001Consumidor Final              000000000033700000000000000000000000000000000000000000000000000000000000000000000000000000000000000000000000000000000000PES00010000001000000000000000020170304
201703040060000300000000000000070211000000000000000702118000000000020000000001Consumidor Final              000000000026000000000000000000000000000000000000000000000000000000000000000000000000000000000000000000000000000000000000PES00010000001000000000000000020170304
201703040060000300000000000000070212000000000000000702128000000000020000000001Consumidor Final              000000000086000000000000000000000000000000000000000000000000000000000000000000000000000000000000000000000000000000000000PES00010000001000000000000000020170304
201703040060000300000000000000070213000000000000000702138000000000020000000001Consumidor Final              000000000092000000000000000000000000000000000000000000000000000000000000000000000000000000000000000000000000000000000000PES00010000001000000000000000020170304
201703040060000300000000000000070214000000000000000702148000000000020000000001Consumidor Final              000000000087900000000000000000000000000000000000000000000000000000000000000000000000000000000000000000000000000000000000PES00010000001000000000000000020170304
201703040060000300000000000000070215000000000000000702158000000000020000000001Consumidor Final              000000000085350000000000000000000000000000000000000000000000000000000000000000000000000000000000000000000000000000000000PES00010000001000000000000000020170304
201703040060000300000000000000070216000000000000000702168000000000020000000001Consumidor Final              000000000024000000000000000000000000000000000000000000000000000000000000000000000000000000000000000000000000000000000000PES00010000001000000000000000020170304
201703040060000300000000000000070217000000000000000702178000000000020000000001Consumidor Final              000000000078400000000000000000000000000000000000000000000000000000000000000000000000000000000000000000000000000000000000PES00010000001000000000000000020170304
201703040060000300000000000000070218000000000000000702188000000000020000000001Consumidor Final              000000000098700000000000000000000000000000000000000000000000000000000000000000000000000000000000000000000000000000000000PES00010000001000000000000000020170304
201703040060000300000000000000070219000000000000000702198000000000020000000001Consumidor Final              000000000003600000000000000000000000000000000000000000000000000000000000000000000000000000000000000000000000000000000000PES00010000001000000000000000020170304
201703040060000300000000000000070220000000000000000702208000000000020000000001Consumidor Final              000000000045150000000000000000000000000000000000000000000000000000000000000000000000000000000000000000000000000000000000PES00010000001000000000000000020170304
201703040060000300000000000000070221000000000000000702218000000000020000000001Consumidor Final              000000000002300000000000000000000000000000000000000000000000000000000000000000000000000000000000000000000000000000000000PES00010000001000000000000000020170304
201703040060000300000000000000070222000000000000000702228000000000020000000001Consumidor Final              000000000095422000000000000000000000000000000000000000000000000000000000000000000000000000000000000000000000000000000000PES00010000001000000000000000020170304
201703040060000300000000000000070223000000000000000702238000000000020000000001Consumidor Final              000000000059100000000000000000000000000000000000000000000000000000000000000000000000000000000000000000000000000000000000PES00010000001000000000000000020170304
201703040060000300000000000000070224000000000000000702248000000000020000000001Consumidor Final              000000000003000000000000000000000000000000000000000000000000000000000000000000000000000000000000000000000000000000000000PES00010000001000000000000000020170304
201703040060000300000000000000070225000000000000000702258000000000020000000001Consumidor Final              000000000007000000000000000000000000000000000000000000000000000000000000000000000000000000000000000000000000000000000000PES00010000001000000000000000020170304
201703040060000300000000000000070226000000000000000702268000000000020000000001Consumidor Final              000000000003300000000000000000000000000000000000000000000000000000000000000000000000000000000000000000000000000000000000PES00010000001000000000000000020170304
201703040060000300000000000000070227000000000000000702278000000000020000000001Consumidor Final              000000000009800000000000000000000000000000000000000000000000000000000000000000000000000000000000000000000000000000000000PES00010000001000000000000000020170304
201703040060000300000000000000070228000000000000000702288000000000020000000001Consumidor Final              000000000021500000000000000000000000000000000000000000000000000000000000000000000000000000000000000000000000000000000000PES00010000001000000000000000020170304
201703040060000300000000000000070229000000000000000702298000000000020000000001Consumidor Final              000000000004000000000000000000000000000000000000000000000000000000000000000000000000000000000000000000000000000000000000PES00010000001000000000000000020170304
201703040060000300000000000000070230000000000000000702308000000000020000000001Consumidor Final              000000000003000000000000000000000000000000000000000000000000000000000000000000000000000000000000000000000000000000000000PES00010000001000000000000000020170304
201703040060000300000000000000070231000000000000000702318000000000020000000001Consumidor Final              000000000012400000000000000000000000000000000000000000000000000000000000000000000000000000000000000000000000000000000000PES00010000001000000000000000020170304
201703040060000300000000000000070232000000000000000702328000000000020000000001Consumidor Final              000000000053670000000000000000000000000000000000000000000000000000000000000000000000000000000000000000000000000000000000PES00010000001000000000000000020170304
201703040060000300000000000000070233000000000000000702338000000000020000000001Consumidor Final              000000000007000000000000000000000000000000000000000000000000000000000000000000000000000000000000000000000000000000000000PES00010000001000000000000000020170304
201703040060000300000000000000070234000000000000000702348000000000020000000001Consumidor Final              000000000001500000000000000000000000000000000000000000000000000000000000000000000000000000000000000000000000000000000000PES00010000001000000000000000020170304
201703040060000300000000000000070235000000000000000702358000000000020000000001Consumidor Final              000000000013300000000000000000000000000000000000000000000000000000000000000000000000000000000000000000000000000000000000PES00010000001000000000000000020170304
201703060060000300000000000000070236000000000000000702368000000000020000000001Consumidor Final              000000000001800000000000000000000000000000000000000000000000000000000000000000000000000000000000000000000000000000000000PES00010000001000000000000000020170306
201703060060000300000000000000070237000000000000000702378000000000020000000001Consumidor Final              000000000004000000000000000000000000000000000000000000000000000000000000000000000000000000000000000000000000000000000000PES00010000001000000000000000020170306
201703060060000300000000000000070238000000000000000702388000000000020000000001Consumidor Final              000000000004500000000000000000000000000000000000000000000000000000000000000000000000000000000000000000000000000000000000PES00010000001000000000000000020170306
201703060060000300000000000000070239000000000000000702398000000000020000000001Consumidor Final              000000000070000000000000000000000000000000000000000000000000000000000000000000000000000000000000000000000000000000000000PES00010000001000000000000000020170306
201703060060000300000000000000070240000000000000000702408000000000020000000001Consumidor Final              000000000009100000000000000000000000000000000000000000000000000000000000000000000000000000000000000000000000000000000000PES00010000001000000000000000020170306
201703060060000300000000000000070241000000000000000702418000000000020000000001Consumidor Final              000000000011440000000000000000000000000000000000000000000000000000000000000000000000000000000000000000000000000000000000PES00010000001000000000000000020170306
201703060060000300000000000000070242000000000000000702428000000000020000000001Consumidor Final              000000000011000000000000000000000000000000000000000000000000000000000000000000000000000000000000000000000000000000000000PES00010000001000000000000000020170306
201703060060000300000000000000070243000000000000000702438000000000020000000001Consumidor Final              000000000006700000000000000000000000000000000000000000000000000000000000000000000000000000000000000000000000000000000000PES00010000001000000000000000020170306
201703060060000300000000000000070244000000000000000702448000000000020000000001Consumidor Final              000000000003800000000000000000000000000000000000000000000000000000000000000000000000000000000000000000000000000000000000PES00010000001000000000000000020170306
201703060060000300000000000000070246000000000000000702468000000000020000000001Consumidor Final              000000000000150000000000000000000000000000000000000000000000000000000000000000000000000000000000000000000000000000000000PES00010000001000000000000000020170306
201703060060000300000000000000070247000000000000000702478000000000020000000001Consumidor Final              000000000064050000000000000000000000000000000000000000000000000000000000000000000000000000000000000000000000000000000000PES00010000001000000000000000020170306
201703060060000300000000000000070248000000000000000702488000000000020000000001Consumidor Final              000000000004000000000000000000000000000000000000000000000000000000000000000000000000000000000000000000000000000000000000PES00010000001000000000000000020170306
201703060060000300000000000000070249000000000000000702498000000000020000000001Consumidor Final              000000000001500000000000000000000000000000000000000000000000000000000000000000000000000000000000000000000000000000000000PES00010000001000000000000000020170306
201703060060000300000000000000070250000000000000000702508000000000020000000001Consumidor Final              000000000021000000000000000000000000000000000000000000000000000000000000000000000000000000000000000000000000000000000000PES00010000001000000000000000020170306
201703060060000300000000000000070251000000000000000702518000000000020000000001Consumidor Final              000000000028400000000000000000000000000000000000000000000000000000000000000000000000000000000000000000000000000000000000PES00010000001000000000000000020170306
201703060060000300000000000000070252000000000000000702528000000000020000000001Consumidor Final              000000000010500000000000000000000000000000000000000000000000000000000000000000000000000000000000000000000000000000000000PES00010000001000000000000000020170306
201703060060000300000000000000070253000000000000000702538000000000020000000001Consumidor Final              000000000002250000000000000000000000000000000000000000000000000000000000000000000000000000000000000000000000000000000000PES00010000001000000000000000020170306
201703060060000300000000000000070255000000000000000702558000000000020000000001Consumidor Final              000000000093950000000000000000000000000000000000000000000000000000000000000000000000000000000000000000000000000000000000PES00010000001000000000000000020170306
201703060060000300000000000000070256000000000000000702568000000000020000000001Consumidor Final              000000000091150000000000000000000000000000000000000000000000000000000000000000000000000000000000000000000000000000000000PES00010000001000000000000000020170306
201703060060000300000000000000070257000000000000000702578000000000020000000001Consumidor Final              000000000019000000000000000000000000000000000000000000000000000000000000000000000000000000000000000000000000000000000000PES00010000001000000000000000020170306
201703060060000300000000000000070258000000000000000702588000000000020000000001Consumidor Final              000000000004700000000000000000000000000000000000000000000000000000000000000000000000000000000000000000000000000000000000PES00010000001000000000000000020170306
201703060060000300000000000000070259000000000000000702598000000000020000000001Consumidor Final              000000000006000000000000000000000000000000000000000000000000000000000000000000000000000000000000000000000000000000000000PES00010000001000000000000000020170306
201703060060000300000000000000070260000000000000000702608000000000020000000001Consumidor Final              000000000000500000000000000000000000000000000000000000000000000000000000000000000000000000000000000000000000000000000000PES00010000001000000000000000020170306
201703060060000300000000000000070261000000000000000702618000000000020000000001Consumidor Final              000000000053090000000000000000000000000000000000000000000000000000000000000000000000000000000000000000000000000000000000PES00010000001000000000000000020170306
201703060060000300000000000000070262000000000000000702628000000000020000000001Consumidor Final              000000000002600000000000000000000000000000000000000000000000000000000000000000000000000000000000000000000000000000000000PES00010000001000000000000000020170306
201703060060000300000000000000070263000000000000000702638000000000020000000001Consumidor Final              000000000008300000000000000000000000000000000000000000000000000000000000000000000000000000000000000000000000000000000000PES00010000001000000000000000020170306
201703060060000300000000000000070264000000000000000702648000000000020000000001Consumidor Final              000000000000440000000000000000000000000000000000000000000000000000000000000000000000000000000000000000000000000000000000PES00010000001000000000000000020170306
201703060060000300000000000000070265000000000000000702658000000000020000000001Consumidor Final              000000000009500000000000000000000000000000000000000000000000000000000000000000000000000000000000000000000000000000000000PES00010000001000000000000000020170306
201703060060000300000000000000070266000000000000000702668000000000020000000001Consumidor Final              000000000030600000000000000000000000000000000000000000000000000000000000000000000000000000000000000000000000000000000000PES00010000001000000000000000020170306
201703060060000300000000000000070267000000000000000702678000000000020000000001Consumidor Final              000000000007300000000000000000000000000000000000000000000000000000000000000000000000000000000000000000000000000000000000PES00010000001000000000000000020170306
201703060060000300000000000000070268000000000000000702688000000000020000000001Consumidor Final              000000000008500000000000000000000000000000000000000000000000000000000000000000000000000000000000000000000000000000000000PES00010000001000000000000000020170306
201703060060000300000000000000070269000000000000000702698000000000020000000001Consumidor Final              000000000053840000000000000000000000000000000000000000000000000000000000000000000000000000000000000000000000000000000000PES00010000001000000000000000020170306
201703060060000300000000000000070270000000000000000702708000000000020000000001Consumidor Final              000000000062000000000000000000000000000000000000000000000000000000000000000000000000000000000000000000000000000000000000PES00010000001000000000000000020170306
201703060060000300000000000000070271000000000000000702718000000000020000000001Consumidor Final              000000000008000000000000000000000000000000000000000000000000000000000000000000000000000000000000000000000000000000000000PES00010000001000000000000000020170306
201703060060000300000000000000070272000000000000000702728000000000020000000001Consumidor Final              000000000004500000000000000000000000000000000000000000000000000000000000000000000000000000000000000000000000000000000000PES00010000001000000000000000020170306
201703060060000300000000000000070273000000000000000702738000000000020000000001Consumidor Final              000000000003000000000000000000000000000000000000000000000000000000000000000000000000000000000000000000000000000000000000PES00010000001000000000000000020170306
201703060060000300000000000000070274000000000000000702748000000000020000000001Consumidor Final              000000000017200000000000000000000000000000000000000000000000000000000000000000000000000000000000000000000000000000000000PES00010000001000000000000000020170306
201703060060000300000000000000070275000000000000000702758000000000020000000001Consumidor Final              000000000000600000000000000000000000000000000000000000000000000000000000000000000000000000000000000000000000000000000000PES00010000001000000000000000020170306
201703060060000300000000000000070276000000000000000702768000000000020000000001Consumidor Final              000000000021500000000000000000000000000000000000000000000000000000000000000000000000000000000000000000000000000000000000PES00010000001000000000000000020170306
201703060060000300000000000000070277000000000000000702778000000000020000000001Consumidor Final              000000000015400000000000000000000000000000000000000000000000000000000000000000000000000000000000000000000000000000000000PES00010000001000000000000000020170306
201703060060000300000000000000070278000000000000000702788000000000020000000001Consumidor Final              000000000024800000000000000000000000000000000000000000000000000000000000000000000000000000000000000000000000000000000000PES00010000001000000000000000020170306
201703060060000300000000000000070279000000000000000702798000000000020000000001Consumidor Final              000000000002500000000000000000000000000000000000000000000000000000000000000000000000000000000000000000000000000000000000PES00010000001000000000000000020170306
201703060060000300000000000000070280000000000000000702808000000000020000000001Consumidor Final              000000000021500000000000000000000000000000000000000000000000000000000000000000000000000000000000000000000000000000000000PES00010000001000000000000000020170306
201703060060000300000000000000070281000000000000000702818000000000020000000001Consumidor Final              000000000003200000000000000000000000000000000000000000000000000000000000000000000000000000000000000000000000000000000000PES00010000001000000000000000020170306
201703060060000300000000000000070282000000000000000702828000000000020000000001Consumidor Final              000000000016000000000000000000000000000000000000000000000000000000000000000000000000000000000000000000000000000000000000PES00010000001000000000000000020170306
201703060060000300000000000000070283000000000000000702838000000000020000000001Consumidor Final              000000000005700000000000000000000000000000000000000000000000000000000000000000000000000000000000000000000000000000000000PES00010000001000000000000000020170306
201703060060000300000000000000070284000000000000000702848000000000020000000001Consumidor Final              000000000006600000000000000000000000000000000000000000000000000000000000000000000000000000000000000000000000000000000000PES00010000001000000000000000020170306
201703060060000300000000000000070285000000000000000702858000000000020000000001Consumidor Final              000000000027750000000000000000000000000000000000000000000000000000000000000000000000000000000000000000000000000000000000PES00010000001000000000000000020170306
201703060060000300000000000000070286000000000000000702868000000000020000000001Consumidor Final              000000000001500000000000000000000000000000000000000000000000000000000000000000000000000000000000000000000000000000000000PES00010000001000000000000000020170306
201703060060000300000000000000070287000000000000000702878000000000020000000001Consumidor Final              000000000007500000000000000000000000000000000000000000000000000000000000000000000000000000000000000000000000000000000000PES00010000001000000000000000020170306
201703060060000300000000000000070289000000000000000702898000000000020000000001Consumidor Final              000000000008300000000000000000000000000000000000000000000000000000000000000000000000000000000000000000000000000000000000PES00010000001000000000000000020170306
201703060060000300000000000000070290000000000000000702908000000000020000000001Consumidor Final              000000000004200000000000000000000000000000000000000000000000000000000000000000000000000000000000000000000000000000000000PES00010000001000000000000000020170306
201703060060000300000000000000070291000000000000000702918000000000020000000001Consumidor Final              000000000017200000000000000000000000000000000000000000000000000000000000000000000000000000000000000000000000000000000000PES00010000001000000000000000020170306
201703060060000300000000000000070292000000000000000702928000000000020000000001Consumidor Final              000000000001000000000000000000000000000000000000000000000000000000000000000000000000000000000000000000000000000000000000PES00010000001000000000000000020170306
201703060060000300000000000000070293000000000000000702938000000000020000000001Consumidor Final              000000000006600000000000000000000000000000000000000000000000000000000000000000000000000000000000000000000000000000000000PES00010000001000000000000000020170306
201703060060000300000000000000070295000000000000000702958000000000020000000001Consumidor Final              000000000003200000000000000000000000000000000000000000000000000000000000000000000000000000000000000000000000000000000000PES00010000001000000000000000020170306
201703060060000300000000000000070296000000000000000702968000000000020000000001Consumidor Final              000000000008000000000000000000000000000000000000000000000000000000000000000000000000000000000000000000000000000000000000PES00010000001000000000000000020170306
201703060060000300000000000000070297000000000000000702978000000000020000000001Consumidor Final              000000000051480000000000000000000000000000000000000000000000000000000000000000000000000000000000000000000000000000000000PES00010000001000000000000000020170306
201703060060000300000000000000070298000000000000000702988000000000020000000001Consumidor Final              000000000056050000000000000000000000000000000000000000000000000000000000000000000000000000000000000000000000000000000000PES00010000001000000000000000020170306
201703060060000300000000000000070299000000000000000702998000000000020000000001Consumidor Final              000000000005800000000000000000000000000000000000000000000000000000000000000000000000000000000000000000000000000000000000PES00010000001000000000000000020170306
201703060060000300000000000000070300000000000000000703008000000000020000000001Consumidor Final              000000000010500000000000000000000000000000000000000000000000000000000000000000000000000000000000000000000000000000000000PES00010000001000000000000000020170306
201703060060000300000000000000070301000000000000000703018000000000020000000001Consumidor Final              000000000009000000000000000000000000000000000000000000000000000000000000000000000000000000000000000000000000000000000000PES00010000001000000000000000020170306
201703060060000300000000000000070302000000000000000703028000000000020000000001Consumidor Final              000000000004500000000000000000000000000000000000000000000000000000000000000000000000000000000000000000000000000000000000PES00010000001000000000000000020170306
201703060060000300000000000000070303000000000000000703038000000000020000000001Consumidor Final              000000000027040000000000000000000000000000000000000000000000000000000000000000000000000000000000000000000000000000000000PES00010000001000000000000000020170306
201703060060000300000000000000070304000000000000000703048000000000020000000001Consumidor Final              000000000076750000000000000000000000000000000000000000000000000000000000000000000000000000000000000000000000000000000000PES00010000001000000000000000020170306
201703060060000300000000000000070305000000000000000703058000000000020000000001Consumidor Final              000000000056950000000000000000000000000000000000000000000000000000000000000000000000000000000000000000000000000000000000PES00010000001000000000000000020170306
201703060060000300000000000000070306000000000000000703068000000000020000000001Consumidor Final              000000000015950000000000000000000000000000000000000000000000000000000000000000000000000000000000000000000000000000000000PES00010000001000000000000000020170306
201703060060000300000000000000070307000000000000000703078000000000020000000001Consumidor Final              000000000005200000000000000000000000000000000000000000000000000000000000000000000000000000000000000000000000000000000000PES00010000001000000000000000020170306
