201702280010000100000000000020170201                8000000000030500008454BANCO SANTANDER RIO           000000000089540000000000000000000000000000000000000000000000000000000000000000000000000000000000000000000000000000000000PES00010000001000000000000000000000000000000000000000000                              000000000000000
201612070010000700000000000000029045                8000000000030700067021TUBONOR SA                    000000000162448000000000000000000000000000000000000000000000000000000000000000000000004694000000000000000000000000000000PES00010000001000000000000000000000000000000000000000000                              000000000000000
201612100010000700000000000000029099                8000000000030700067021TUBONOR SA                    000000000335445000000000000000000000000000000000000000000000000000000000000000000000009692000000000000000000000000000000PES00010000001000000000000000000000000000000000000000000                              000000000000000
201612100010000700000000000000029101                8000000000030700067021TUBONOR SA                    000000001152959000000000000000000000000000000000000000000000000000000000000000000000033312000000000000000000000000000000PES00010000001000000000000000000000000000000000000000000                              000000000000000
201611220010000700000000000000028211                8000000000030700067021TUBONOR SA                    000000000541660000000000000000000000000000000000000000000000000000000000000000000000015650000000000000000000000000000000PES00010000001000000000000000000000000000000000000000000                              000000000000000
201610010010000700000000000000024983                8000000000030700067021TUBONOR SA                    000000001013620000000000000000000000000000000000000000000000000000000000000000000000029286000000000000000000000000000000PES00010000001000000000000000000000000000000000000000000                              000000000000000
201610040030000700000000000000003314                8000000000030700067021TUBONOR SA                    000000000843713000000000000000000000000000000000000000000000000000000000000000000000024377000000000000000000000000000000PES00010000001000000000000000000000000000000000000000000                              000000000000000
201608120010000700000000000000022531                8000000000030700067021TUBONOR SA                    000000001386529000000000000000000000000000000000000000000000000000000000000000000000040060000000000000000000000000000000PES00010000001000000000000000000000000000000000000000000                              000000000000000
201608120010000700000000000000022530                8000000000030700067021TUBONOR SA                    000000000096179000000000000000000000000000000000000000000000000000000000000000000000002779000000000000000000000000000000PES00010000001000000000000000000000000000000000000000000                              000000000000000
201608120010000700000000000000022529                8000000000030700067021TUBONOR SA                    000000001052188000000000000000000000000000000000000000000000000000000000000000000000030400000000000000000000000000000000PES00010000001000000000000000000000000000000000000000000                              000000000000000
201703100010000700000000000000033121                8000000000030700067021TUBONOR SA                    000000000591506000000000000000000000000000000000000000000000000000000000000000000000017090000000000000000000000000000000PES00010000001000000000000000000000000000000000000000000                              000000000000000
201703100010000700000000000000033120                8000000000030700067021TUBONOR SA                    000000000158258000000000000000000000000000000000000000000000000000000000000000000000004572000000000000000000000000000000PES00010000001000000000000000000000000000000000000000000                              000000000000000
201703100010000400000000000000009884                8000000000020104513825HECTOR H MAESTRO              000000000667776000000000000000000000000000000000000000000000000000000000000000000000000000000000000000000000000000000000PES00010000001000000000000000000000000000000000000000000                              000000000000000
201702130010000400000000000000000199                8000000000020149139118ALEMAN GERMAN RUFINO          000000000231749000000000000000000000000000000000000000000000000000000000000000000000000000000000000000000000000000000000PES00010000001000000000000000000000000000000000000000000                              000000000000000
201607150030010600000000000000001725                8000000000030559715081SUPERMAT SA                   000000000430344000000000000000000000000000000000000000000000000000000000000000000000007856000000000000000000000000000000PES00010000001000000000000000000000000000000000000000000                              000000000000000
201607130010010600000000000000007169                8000000000030559715081SUPERMAT SA                   000000007005745000000000000000000000000000000000000000000000000000000000000000000000127894000000000000000000000000000000PES00010000001000000000000000000000000000000000000000000                              000000000000000
201607120010010600000000000000007153                8000000000030559715081SUPERMAT SA                   000000000343319000000000000000000000000000000000000000000000000000000000000000000000006267000000000000000000000000000000PES00010000001000000000000000000000000000000000000000000                              000000000000000
201607150010010600000000000000007185                8000000000030559715081SUPERMAT SA                   000000000505107000000000000000000000000000000000000000000000000000000000000000000000009221000000000000000000000000000000PES00010000001000000000000000000000000000000000000000000                              000000000000000
201703030010010600000000000000007920                8000000000030559715081SUPERMAT SA                   000000000653872000000000000000000000000000000000000000000000000000000000000000000000011937000000000000000000000000000000PES00010000001000000000000000000000000000000000000000000                              000000000000000
201702060010000400000000000000013420                8000000000030711931402HIPERPLACA SRL                000000000267509000000000000000000000000000000000000000000000000000000000000000000000000000000000000000000000000000000000PES00010000001000000000000000000000000000000000000000000                              000000000000000
201702110010000400000000000000013524                8000000000030711931402HIPERPLACA SRL                000000000646168000000000000000000000000000000000000000000000000000000000000000000000000000000000000000000000000000000000PES00010000001000000000000000000000000000000000000000000                              000000000000000
201703010010001500000000000000018629                8000000000030576374247AB CONSTRUCCIONES SRL         000000000979760000000000000000000000000000000000000000000000000000000000000000000000023704000000000000000000000000000000PES00010000001000000000000000000000000000000000000000000                              000000000000000
201702060010000300000000000000006769                8000000000030708180285COPYSALTA SRL                 000000000556066000000000000000000000000000000000000000000000000000000000000000000000016066000000000000000000000000000000PES00010000001000000000000000000000000000000000000000000                              000000000000000
