201608250010000300000000000000000111                8000000000020279743947SOLA ALSINA PABLO ALEJANDRO   000000000491000000000000000000000000000000000000000000000000000000000000000000000000000000000000000000000000000000000000PES00010000001000000000000000000000000000000000000000000                              000000000000000
201608290010000500000000000000000038                8000000000030710551460SURY SA                       000000000500000000000000000000000000000000000000000000000000000000000000000000000000000000000000000000000000000000000000PES00010000001000000000000000000000000000000000000000000                              000000000000000
201608090010000400000000000000005014                8000000000030707325824SALTAPOR SRL                  000000000308999000000000000000000000000000000000000000000000000000000000000000000000000000000000000000000000000000000000PES00010000001000000000000000000000000000000000000000000                              000000000000000
201608130010000800000000000000003288                8000000000030703641470LAS ALMONAS SA                000000000111500000000000000000000000000000000000000000000000000000000000000000000000000000000000000000000000000000000000PES00010000001000000000000000000000000000000000000000000                              000000000000000
201608270010000200000000000000080459                8000000000030654462328MORENO MORENO Y CIA SRL       000000000208884000000000000000000000000000000000000000000000000000000000000000000000006035000000000000000000000000000000PES00010000001000000000000000000000000000000000000000000                              000000000000000
201607180010312000000000000000006776                8000000000030708772964JUMBO RETAIL ARGENTINA SA     000000000026085000000000000000000000000000000000000000000000000000000000000000000000000000000000000000000000000000000000PES00010000002000000000000000000000000000000000000000000                              000000000000000
201607180010312000000000011111116776                8000000000030708772964JUMBO RETAIL ARGENTINA SA     000000000001014000000000000000000000000000000000000000000000000000000000000000000000000000000000000000000000000000000000PES00010000001000000000000000000000000000000000000000000                              000000000000000
201608070010010300000000000000071822                8000000000030627062490LUIS A CARRIZO Y CIA SRL      000000000030000000000000005343000000000000000000000000000000000000000000000000000000000000000000000000000000000000000000PES00010000001000000000000000000000000000000000000000000                              000000000000000
201608020010001200000000000000041442                8000000000030594692744LA CONSTRUCTORA SA            000000000049999000000000012564000000000000000000000000000000000000000000000000000000000000000000000000000000000000000000PES00010000001000000000000000000000000000000000000000000                              000000000000000
201608210010001200000000000000041902                8000000000030594692744LA CONSTRUCTORA SA            000000000040001000000000010052000000000000000000000000000000000000000000000000000000000000000000000000000000000000000000PES00010000001000000000000000000000000000000000000000000                              000000000000000
201608090010001000000000000000028206                8000000000030594692744LA CONSTRUCTORA SA            000000000040001000000000010052000000000000000000000000000000000000000000000000000000000000000000000000000000000000000000PES00010000001000000000000000000000000000000000000000000                              000000000000000
201608270010001200000000000000042169                8000000000030594692744LA CONSTRUCTORA SA            000000000040000000000000007911000000000000000000000000000000000000000000000000000000000000000000000000000000000000000000PES00010000001000000000000000000000000000000000000000000                              000000000000000
201608110010001200000000000000041731                8000000000030594692744LA CONSTRUCTORA SA            000000000040000000000000007911000000000000000000000000000000000000000000000000000000000000000000000000000000000000000000PES00010000001000000000000000000000000000000000000000000                              000000000000000
201608310010001000000000000000028914                8000000000030594692744LA CONSTRUCTORA SA            000000000030000000000000007539000000000000000000000000000000000000000000000000000000000000000000000000000000000000000000PES00010000001000000000000000000000000000000000000000000                              000000000000000
201608050010251100000000000000129480                8000000000030678774495OPERADORA DE ESTACIONES DE SER000000000050002000000000009324000000000000000000000000000000000000000000000000000000000000000000000000000000000000000000PES00010000001000000000000000000000000000000000000000000                              000000000000000
201608040010001800000000000000070949                8000000000020104120084DOMINGUEZ JOSE ALFREDO        000000000050000000000000009382000000000000000000000000000000000000000000000000000000000000000000000000000000000000000000PES00010000001000000000000000000000000000000000000000000                              000000000000000
201607150010002600000000000000037826                8000000000030563516573SUCESORES DE ROBERTO SAMAN SRL000000000029999000000000006578000000000000000000000000000000000000000000000000000000000000000000000000000000000000000000PES00010000001000000000000000000000000000000000000000000                              000000000000000
201608110010001600000000000000042068                8000000000030708835559ESTACION VISION SRL           000000000050000000000000012897000000000000000000000000000000000000000000000000000000000000000000000000000000000000000000PES00010000001000000000000000000000000000000000000000000                              000000000000000
201608130010002500000000000000011657                8000000000027147759253BLASCO CAROLINA MARIA M       000000000039999000000000008802000000000000000000000000000000000000000000000000000000000000000000000000000000000000000000PES00010000001000000000000000000000000000000000000000000                              000000000000000
201607150010000900000000000000002035                8000000000030690670514SERVI GAS SRL                 000000000060000000000000009569000000000000000000000000000000000000000000000000000000000000000000000000000000000000000000PES00010000001000000000000000000000000000000000000000000                              000000000000000
201607300010001800000000000000125756                8000000000030700078287SERVISUR SRL                  000000000086499000000000018947000000000000000000000000000000000000000000000000000000000000000000000000000000000000000000PES00010000001000000000000000000000000000000000000000000                              000000000000000
201608240010000300000000000000021371                8000000000030711794286MASTER CLEAN SA               000000000169291000000000000000000000000000000000000000000000000000000000000000000000000000000000000000000000000000000000PES00010000001000000000000000000000000000000000000000000                              000000000000000
201608240010005800000000000000003887                8000000000020050768431SUCESION DE CARATTONI GUSTAVO 000000000089823000000000000000000000000000000000000000000000000000000000000000000000002595000000000000000000000000000000PES00010000001000000000000000000000000000000000000000000                              000000000000000
201608210010000400000000000000001332                8000000000030712021469CAFÉ DEL TIEMPO SRL           000000000032499000000000000000000000000000000000000000000000000000000000000000000000000000000000000000000000000000000000PES00010000001000000000000000000000000000000000000000000                              000000000000000
201608270010000500000000000000005284                8000000000020110815159ENRIQUE DANIEL SANSONE        000000000134504000000000000000000000000000000000000000000000000000000000000000000000000000000000000000000000000000000000PES00010000001000000000000000000000000000000000000000000                              000000000000000
201608110010000500000000000000005254                8000000000020110815159ENRIQUE DANIEL SANSONE        000000000029996000000000000000000000000000000000000000000000000000000000000000000000000000000000000000000000000000000000PES00010000001000000000000000000000000000000000000000000                              000000000000000
