201606020010000400000000000000000679000000000000000006798000000000020289022180LOPEZ FEDERICO JAVIER         000000000005539000000000000000000000000000000000000000000000000000000000000000000000000000000000000000000000000000000000PES00010000001000000000000000000000000
201606020010000400000000000000000680000000000000000006808000000000027203997464MARTINEZ LIDIA ROSANA         000000000013000000000000000000000000000000000000000000000000000000000000000000000000000000000000000000000000000000000000PES00010000001000000000000000000000000
201606030010000400000000000000000681000000000000000006818000000000027203997464MARTINEZ LIDIA ROSANA         000000000013000000000000000000000000000000000000000000000000000000000000000000000000000000000000000000000000000000000000PES00010000001000000000000000000000000
201606030060000400000000000000000215000000000000000002158000000000030999256267MINISTERIO DE EDUCACION CIENCI000000000019800000000000000000000000000000000000000000000000000000000000000000000000000000000000000000000000000000000000PES00010000001000000000000000000000000
201606030010000400000000000000000682000000000000000006828000000000033710974549COMPAÑIA SALTEÑA DE AGUA Y SAN000000000022000000000000000000000000000000000000000000000000000000000000000000000000000000000000000000000000000000000000PES00010000001000000000000000000000000
201606030010000400000000000000000683000000000000000006838000000000030606594468ROMERO IGARZABAL  S R L       000000000028004000000000000000000000000000000000000000000000000000000000000000000000000000000000000000000000000000000000PES00010000001000000000000000000000000
201606030010000400000000000000000684000000000000000006848000000000020297371445RUIZ DE LOS LLANOS DIEGO NICOL000000000012801000000000000000000000000000000000000000000000000000000000000000000000000000000000000000000000000000000000PES00010000001000000000000000000000000
201606030010000400000000000000000685000000000000000006858000000000030712042180SANTA CRUZ S.R.L.             000000000003812000000000000000000000000000000000000000000000000000000000000000000000000000000000000000000000000000000000PES00010000001000000000000000000000000
201606040010000400000000000000000686000000000000000006868000000000027126802159IBANES GLADYS BEATRIZ         000000000018600000000000000000000000000000000000000000000000000000000000000000000000000000000000000000000000000000000000PES00010000001000000000000000000000000
201606040010000400000000000000000687000000000000000006878000000000030606594468ROMERO IGARZABAL  S R L       000000000016000000000000000000000000000000000000000000000000000000000000000000000000000000000000000000000000000000000000PES00010000001000000000000000000000000
201606040010000400000000000000000688000000000000000006888000000000027203997464MARTINEZ LIDIA ROSANA         000000000018500000000000000000000000000000000000000000000000000000000000000000000000000000000000000000000000000000000000PES00010000001000000000000000000000000
201606060010000400000000000000000689000000000000000006898000000000030712519793AMBITO FAMILIAR SRL           000000000007001000000000000000000000000000000000000000000000000000000000000000000000000000000000000000000000000000000000PES00010000001000000000000000000000000
201606070010000400000000000000000690000000000000000006908000000000020286346953BAEZ MARIANO EZEQUIEL         000000000020401000000000000000000000000000000000000000000000000000000000000000000000000000000000000000000000000000000000PES00010000001000000000000000000000000
201606080010000400000000000000000691000000000000000006918000000000030711334722COMAFRI S.A.                  000000000010800000000000000000000000000000000000000000000000000000000000000000000000000000000000000000000000000000000000PES00010000001000000000000000000000000
201606080060000400000000000000000216000000000000000002168000000000030999263158MINISTERIO  DE SALUD PUBLICA D000000000030300000000000000000000000000000000000000000000000000000000000000000000000000000000000000000000000000000000000PES00010000001000000000000000000000000
201606080010000400000000000000000692000000000000000006928000000000030712042180SANTA CRUZ S.R.L.             000000000001800000000000000000000000000000000000000000000000000000000000000000000000000000000000000000000000000000000000PES00010000001000000000000000000000000
201606080010000400000000000000000693000000000000000006938000000000030710775504EL RETIRO S.R.L.              000000000003812000000000000000000000000000000000000000000000000000000000000000000000000000000000000000000000000000000000PES00010000001000000000000000000000000
201606080010000400000000000000000694000000000000000006948000000000027203997464MARTINEZ LIDIA ROSANA         000000000026000000000000000000000000000000000000000000000000000000000000000000000000000000000000000000000000000000000000PES00010000001000000000000000000000000
201606090010000400000000000000000695000000000000000006958000000000023064057774MARCONATO LETICIA ELDA        000000000014400000000000000000000000000000000000000000000000000000000000000000000000000000000000000000000000000000000000PES00010000001000000000000000000000000
201606090010000400000000000000000696000000000000000006968000000000030714766119PLANIAGRO FIDEICOMISO         000000000017601000000000000000000000000000000000000000000000000000000000000000000000000000000000000000000000000000000000PES00010000001000000000000000000000000
201606090060000400000000000000000217000000000000000002178000000000030673038960MUNICIPALIDAD DE IRUYA        000000000629630000000000000000000000000000000000000000000000000000000000000000000000000000000000000000000000000000000000PES00010000001000000000000000000000000
201606100010000400000000000000000697000000000000000006978000000000033711140439BERLIN MOTORS S.A.            000000000003204000000000000000000000000000000000000000000000000000000000000000000000000000000000000000000000000000000000PES00010000001000000000000000000000000
201606100010000400000000000000000698000000000000000006988000000000030713209704C Y S CONCEPTOS Y SERVICIOS SR000000000023000000000000000000000000000000000000000000000000000000000000000000000000000000000000000000000000000000000000PES00010000001000000000000000000000000
201606130030000400000000000000000007000000000000000000078000000000030714766119PLANIAGRO FIDEICOMISO         000000000017601000000000000000000000000000000000000000000000000000000000000000000000000000000000000000000000000000000000PES00010000001000000000000000000000000
201606130010000400000000000000000699000000000000000006998000000000030714472549INGENIERIA EN SOLUCIONES S.R.L000000000008500000000000000000000000000000000000000000000000000000000000000000000000000000000000000000000000000000000000PES00010000001000000000000000000000000
201606140010000400000000000000000700000000000000000007008000000000030710763980LOURDES SERVICIOS S.R.L.      000000000018402000000000000000000000000000000000000000000000000000000000000000000000000000000000000000000000000000000000PES00010000001000000000000000000000000
201606140010000400000000000000000701000000000000000007018000000000030708093986C.I.M. SERVICIOS S.R.L.       000000000004500000000000000000000000000000000000000000000000000000000000000000000000000000000000000000000000000000000000PES00010000001000000000000000000000000
201606140010000400000000000000000702000000000000000007028000000000030714472549INGENIERIA EN SOLUCIONES S.R.L000000000017000000000000000000000000000000000000000000000000000000000000000000000000000000000000000000000000000000000000PES00010000001000000000000000000000000
201606150010000400000000000000000703000000000000000007038000000000027127907620LACONI MARIA CRISTINA         000000000003802000000000000000000000000000000000000000000000000000000000000000000000000000000000000000000000000000000000PES00010000001000000000000000000000000
201606150010000400000000000000000704000000000000000007048000000000030711372705JUAN PEDRO GARIN CONSTRUCCIONE000000000022506000000000000000000000000000000000000000000000000000000000000000000000000000000000000000000000000000000000PES00010000001000000000000000000000000
201606160010000400000000000000000705000000000000000007058000000000030707139729EL TREBOL SOCIEDAD DE RESPONSA000000000027375000000000000000000000000000000000000000000000000000000000000000000000000000000000000000000000000000000000PES00010000001000000000000000000000000
201606160010000400000000000000000706000000000000000007068000000000030711207356L. H. S.R.L.                  000000000007000000000000000000000000000000000000000000000000000000000000000000000000000000000000000000000000000000000000PES00010000001000000000000000000000000
201606160010000400000000000000000707000000000000000007078000000000020126656530ENSINAS JORGE ALBERTO         000000000029000000000000000000000000000000000000000000000000000000000000000000000000000000000000000000000000000000000000PES00010000001000000000000000000000000
201606160010000400000000000000000708000000000000000007088000000000020127125466CAMPERO ROBERTO NICANOR       000000000042003000000000000000000000000000000000000000000000000000000000000000000000000000000000000000000000000000000000PES00010000001000000000000000000000000
201606160010000400000000000000000709000000000000000007098000000000030675369530EMPRENDIMIENTO RIO GRANDE SRL 000000000018600000000000000000000000000000000000000000000000000000000000000000000000000000000000000000000000000000000000PES00010000001000000000000000000000000
201606180010000400000000000000000710000000000000000007108000000000020201269610VENTURA OMAR                  000000000026511000000000000000000000000000000000000000000000000000000000000000000000000000000000000000000000000000000000PES00010000001000000000000000000000000
201606180060000400000000000000000218000000000000000002188000000000030710001827FUNDACION TRASCENDER          000000000008100000000000000000000000000000000000000000000000000000000000000000000000000000000000000000000000000000000000PES00010000001000000000000000000000000
201606180010000400000000000000000711000000000000000007118000000000020291531017OCARANZA FERNANDO ALBERTO     000000000012503000000000000000000000000000000000000000000000000000000000000000000000000000000000000000000000000000000000PES00010000001000000000000000000000000
201606180010000400000000000000000712000000000000000007128000000000020201269610VENTURA OMAR                  000000000008400000000000000000000000000000000000000000000000000000000000000000000000000000000000000000000000000000000000PES00010000001000000000000000000000000
201606180010000400000000000000000713000000000000000007138000000000027143756950TERRADO MARIA ALEJANDRA       000000000009800000000000000000000000000000000000000000000000000000000000000000000000000000000000000000000000000000000000PES00010000001000000000000000000000000
201606180010000400000000000000000714000000000000000007148000000000020201269610VENTURA OMAR                  000000000043016000000000000000000000000000000000000000000000000000000000000000000000000000000000000000000000000000000000PES00010000001000000000000000000000000
201606210060000400000000000000000219000000000000000002198000000000030999263158MINISTERIO  DE SALUD PUBLICA D000000000096400000000000000000000000000000000000000000000000000000000000000000000000000000000000000000000000000000000000PES00010000001000000000000000000000000
201606210010000400000000000000000715000000000000000007158000000000027143756950TERRADO MARIA ALEJANDRA       000000000056673000000000000000000000000000000000000000000000000000000000000000000000000000000000000000000000000000000000PES00010000001000000000000000000000000
201606210010000400000000000000000716000000000000000007168000000000027143756950TERRADO MARIA ALEJANDRA       000000000012186000000000000000000000000000000000000000000000000000000000000000000000000000000000000000000000000000000000PES00010000001000000000000000000000000
201606210010000400000000000000000717000000000000000007178000000000030707950303TRANSPORTE VERA S.R.L.        000000000012000000000000000000000000000000000000000000000000000000000000000000000000000000000000000000000000000000000000PES00010000001000000000000000000000000
201606220010000400000000000000000718000000000000000007188000000000030687272311MANSFIELD MINERA  S A         000000000004500000000000000000000000000000000000000000000000000000000000000000000000000000000000000000000000000000000000PES00010000001000000000000000000000000
201606220030000400000000000000000008000000000000000000088000000000030687272311MANSFIELD MINERA  S A         000000000004500000000000000000000000000000000000000000000000000000000000000000000000000000000000000000000000000000000000PES00010000001000000000000000000000000
201606220060000400000000000000000220000000000000000002209600000000000092817837MELCON EDDY GONZALO           000000000010000000000000000000000000000000000000000000000000000000000000000000000000000000000000000000000000000000000000PES00010000001000000000000000000000000
201606220010000400000000000000000719000000000000000007198000000000030700075520PANIFICADORA LAS 5 MARIAS  S R000000000019200000000000000000000000000000000000000000000000000000000000000000000000000000000000000000000000000000000000PES00010000001000000000000000000000000
201606220060000400000000000000000221000000000000000002218000000000033708079419FUNDACION CAPITALES SOLIDARIOS000000000005500000000000000000000000000000000000000000000000000000000000000000000000000000000000000000000000000000000000PES00010000001000000000000000000000000
201606220060000400000000000000000222000000000000000002228000000000030999263158MINISTERIO  DE SALUD PUBLICA D000000000027200000000000000000000000000000000000000000000000000000000000000000000000000000000000000000000000000000000000PES00010000001000000000000000000000000
201606230010000400000000000000000720000000000000000007208000000000030690670514SERVI GAS  S R L              000000000046001000000000000000000000000000000000000000000000000000000000000000000000000000000000000000000000000000000000PES00010000001000000000000000000000000
201606230060000400000000000000000223000000000000000002238000000000030626712068ASOCIACION DE LOS TESTIGOS DE 000000000011600000000000000000000000000000000000000000000000000000000000000000000000000000000000000000000000000000000000PES00010000001000000000000000000000000
201606230010000400000000000000000721000000000000000007218000000000030709223972LOURDES S.A.                  000000000009000000000000000000000000000000000000000000000000000000000000000000000000000000000000000000000000000000000000PES00010000001000000000000000000000000
201606230010000400000000000000000722000000000000000007228000000000027118180165TORRICO MARIA PORFIDIA        000000000050205000000000000000000000000000000000000000000000000000000000000000000000000000000000000000000000000000000000PES00010000001000000000000000000000000
201606230010000400000000000000000723000000000000000007238000000000027118180165TORRICO MARIA PORFIDIA        000000000005401000000000000000000000000000000000000000000000000000000000000000000000000000000000000000000000000000000000PES00010000001000000000000000000000000
201606240010000400000000000000000724000000000000000007248000000000020160035510GONZALEZ THOMAS ALBERTO JOSE F000000000004500000000000000000000000000000000000000000000000000000000000000000000000000000000000000000000000000000000000PES00010000001000000000000000000000000
201606250010000400000000000000000725000000000000000007258000000000030707139729EL TREBOL SOCIEDAD DE RESPONSA000000000013899000000000000000000000000000000000000000000000000000000000000000000000000000000000000000000000000000000000PES00010000001000000000000000000000000
201606250010000400000000000000000726000000000000000007268000000000020147086912GASPARINI MAURO ALEJANDRO     000000000060400000000000000000000000000000000000000000000000000000000000000000000000000000000000000000000000000000000000PES00010000001000000000000000000000000
201606250010000400000000000000000727000000000000000007278000000000020204451371ROMERO HECTOR FABIAN          000000000010001000000000000000000000000000000000000000000000000000000000000000000000000000000000000000000000000000000000PES00010000001000000000000000000000000
201606250010000400000000000000000728000000000000000007288000000000033711140439BERLIN MOTORS S.A.            000000000022000000000000000000000000000000000000000000000000000000000000000000000000000000000000000000000000000000000000PES00010000001000000000000000000000000
201606270010000400000000000000000729000000000000000007298000000000020147086912GASPARINI MAURO ALEJANDRO     000000000038401000000000000000000000000000000000000000000000000000000000000000000000000000000000000000000000000000000000PES00010000001000000000000000000000000
201606280060000400000000000000000224000000000000000002248000000000030999284651POLICIA DE LA PROVINCIA DE SAL000000000012000000000000000000000000000000000000000000000000000000000000000000000000000000000000000000000000000000000000PES00010000001000000000000000000000000
201606280010000400000000000000000730000000000000000007308000000000020121115701SPINOZZI JUAN CARLOS MARCELO  000000004995364000000000000000000000000000000000000000000000000000000000000000000000000000000000000000000000000000000000PES00010000001000000000000000000000000
201606280010000400000000000000000731000000000000000007318000000000030710367023CRISNASE  S. R. L.            000000000033500000000000000000000000000000000000000000000000000000000000000000000000000000000000000000000000000000000000PES00010000001000000000000000000000000
201606290010000400000000000000000732000000000000000007328000000000030710686307ELCON S.R.L.                  000000000022599000000000000000000000000000000000000000000000000000000000000000000000000000000000000000000000000000000000PES00010000001000000000000000000000000
201606290010000400000000000000000733000000000000000007338000000000030638110748DAL BORGO CONSTRUCCIONES S R L000000000020000000000000000000000000000000000000000000000000000000000000000000000000000000000000000000000000000000000000PES00010000001000000000000000000000000
201606290010000400000000000000000734000000000000000007348000000000030708772964JUMBO RETAIL ARGENTINA SOCIEDA000000000005600000000000000000000000000000000000000000000000000000000000000000000000000000000000000000000000000000000000PES00010000001000000000000000000000000
201606290010000400000000000000000735000000000000000007358000000000030656231056SIATES SOCIEDAD ANONIMA       000000000022800000000000000000000000000000000000000000000000000000000000000000000000000000000000000000000000000000000000PES00010000001000000000000000000000000
201606290010000400000000000000000736000000000000000007368000000000030593929961PARQUE LIMACHE S A            000000000005400000000000000000000000000000000000000000000000000000000000000000000000000000000000000000000000000000000000PES00010000001000000000000000000000000
201606290060000400000000000000000225000000000000000002258000000000030999263158MINISTERIO  DE SALUD PUBLICA D000000000023200000000000000000000000000000000000000000000000000000000000000000000000000000000000000000000000000000000000PES00010000001000000000000000000000000
201606240060000500000000000000000011000000000000000000118000000000030552486206CONSEJO PROFESIONAL DE CIENCIA000000001015383000000000000000000000000000000000000000000000000000000000000000000000000000000000000000000000000000000000PES00010000001000000000000000020160624
201606010060000100000000000000001231000000000000000012319600000000020000000001INFORME Z                     000000000417011000000000000000000000000000000000000000000000000000000000000000000000000000000000000000000000000000000000PES00010000001000000000000000020160601
201606020060000100000000000000001232000000000000000012329600000000020000000001INFORME Z                     000000000207100000000000000000000000000000000000000000000000000000000000000000000000000000000000000000000000000000000000PES00010000001000000000000000020160602
201606030060000100000000000000001233000000000000000012339600000000020000000001INFORME Z                     000000000300550000000000000000000000000000000000000000000000000000000000000000000000000000000000000000000000000000000000PES00010000001000000000000000020160603
201606040060000100000000000000001234000000000000000012349600000000020000000001INFORME Z                     000000000391000000000000000000000000000000000000000000000000000000000000000000000000000000000000000000000000000000000000PES00010000001000000000000000020160604
201606050060000100000000000000001235000000000000000012359600000000020000000001INFORME Z                     000000000034651000000000000000000000000000000000000000000000000000000000000000000000000000000000000000000000000000000000PES00010000001000000000000000020160605
201606060060000100000000000000001236000000000000000012369600000000020000000001INFORME Z                     000000000341551000000000000000000000000000000000000000000000000000000000000000000000000000000000000000000000000000000000PES00010000001000000000000000020160606
201606070060000100000000000000001237000000000000000012379600000000020000000001INFORME Z                     000000000263500000000000000000000000000000000000000000000000000000000000000000000000000000000000000000000000000000000000PES00010000001000000000000000020160607
201606080060000100000000000000001238000000000000000012389600000000020000000001INFORME Z                     000000000287150000000000000000000000000000000000000000000000000000000000000000000000000000000000000000000000000000000000PES00010000001000000000000000020160608
201606090060000100000000000000001239000000000000000012399600000000020000000001INFORME Z                     000000000331200000000000000000000000000000000000000000000000000000000000000000000000000000000000000000000000000000000000PES00010000001000000000000000020160609
201606100060000100000000000000001240000000000000000012409600000000020000000001INFORME Z                     000000000348100000000000000000000000000000000000000000000000000000000000000000000000000000000000000000000000000000000000PES00010000001000000000000000020160610
201606110060000100000000000000001241000000000000000012419600000000020000000001INFORME Z                     000000000382151000000000000000000000000000000000000000000000000000000000000000000000000000000000000000000000000000000000PES00010000001000000000000000020160611
201606120060000100000000000000001242000000000000000012429600000000020000000001INFORME Z                     000000000083200000000000000000000000000000000000000000000000000000000000000000000000000000000000000000000000000000000000PES00010000001000000000000000020160612
201606130060000100000000000000001243000000000000000012439600000000020000000001INFORME Z                     000000000255200000000000000000000000000000000000000000000000000000000000000000000000000000000000000000000000000000000000PES00010000001000000000000000020160613
201606140060000100000000000000001244000000000000000012449600000000020000000001INFORME Z                     000000000464850000000000000000000000000000000000000000000000000000000000000000000000000000000000000000000000000000000000PES00010000001000000000000000020160614
201606150060000100000000000000001245000000000000000012459600000000020000000001INFORME Z                     000000000338300000000000000000000000000000000000000000000000000000000000000000000000000000000000000000000000000000000000PES00010000001000000000000000020160615
201606160060000100000000000000001246000000000000000012469600000000020000000001INFORME Z                     000000000337700000000000000000000000000000000000000000000000000000000000000000000000000000000000000000000000000000000000PES00010000001000000000000000020160616
201606170060000100000000000000001247000000000000000012479600000000020000000001INFORME Z                     000000000304300000000000000000000000000000000000000000000000000000000000000000000000000000000000000000000000000000000000PES00010000001000000000000000020160617
201606180060000100000000000000001248000000000000000012489600000000020000000001INFORME Z                     000000000400500000000000000000000000000000000000000000000000000000000000000000000000000000000000000000000000000000000000PES00010000001000000000000000020160618
201606190060000100000000000000001249000000000000000012499600000000020000000001INFORME Z                     000000000107500000000000000000000000000000000000000000000000000000000000000000000000000000000000000000000000000000000000PES00010000001000000000000000020160619
201606200060000100000000000000001250000000000000000012509600000000020000000001INFORME Z                     000000000172600000000000000000000000000000000000000000000000000000000000000000000000000000000000000000000000000000000000PES00010000001000000000000000020160620
201606210060000100000000000000001251000000000000000012519600000000020000000001INFORME Z                     000000000304571000000000000000000000000000000000000000000000000000000000000000000000000000000000000000000000000000000000PES00010000001000000000000000020160621
201606220060000100000000000000001252000000000000000012529600000000020000000001INFORME Z                     000000000261100000000000000000000000000000000000000000000000000000000000000000000000000000000000000000000000000000000000PES00010000001000000000000000020160622
201606230060000100000000000000001253000000000000000012539600000000020000000001INFORME Z                     000000000410760000000000000000000000000000000000000000000000000000000000000000000000000000000000000000000000000000000000PES00010000001000000000000000020160623
201606240060000100000000000000001254000000000000000012549600000000020000000001INFORME Z                     000000000353250000000000000000000000000000000000000000000000000000000000000000000000000000000000000000000000000000000000PES00010000001000000000000000020160624
201606250060000100000000000000001255000000000000000012559600000000020000000001INFORME Z                     000000000227200000000000000000000000000000000000000000000000000000000000000000000000000000000000000000000000000000000000PES00010000001000000000000000020160625
201606260060000100000000000000001256000000000000000012569600000000020000000001INFORME Z                     000000000056100000000000000000000000000000000000000000000000000000000000000000000000000000000000000000000000000000000000PES00010000001000000000000000020160626
201606270060000100000000000000001257000000000000000012579600000000020000000001INFORME Z                     000000000430975000000000000000000000000000000000000000000000000000000000000000000000000000000000000000000000000000000000PES00010000001000000000000000020160627
201606280060000100000000000000001258000000000000000012589600000000020000000001INFORME Z                     000000000275640000000000000000000000000000000000000000000000000000000000000000000000000000000000000000000000000000000000PES00010000001000000000000000020160628
201606290060000100000000000000001259000000000000000012599600000000020000000001INFORME Z                     000000000389550000000000000000000000000000000000000000000000000000000000000000000000000000000000000000000000000000000000PES00010000001000000000000000020160629
201606300060000100000000000000001260000000000000000012609600000000020000000001INFORME Z                     000000000232700000000000000000000000000000000000000000000000000000000000000000000000000000000000000000000000000000000000PES00010000001000000000000000020160630
