201609010010000700000000000000001050000000000000000010508000000000030707975640Gavinor srl                   000000000010710000000000000000000000000000000000000000000000000000000000000000000000000000000000000000000000000000000000PES00010000001000000000000000020160901
201609010010000700000000000000001051000000000000000010518000000000030709781037Idem SRL                      000000000029000000000000000000000000000000000000000000000000000000000000000000000000000000000000000000000000000000000000PES00010000001000000000000000020160901
201609010010000700000000000000001052000000000000000010528000000000030709303240Canyo Construcciones SRL      000000000072501000000000000000000000000000000000000000000000000000000000000000000000000000000000000000000000000000000000PES00010000001000000000000000020160901
201609010010000700000000000000001053000000000000000010538000000000030709303240Canyo Construcciones SRL      000000000034255000000000000000000000000000000000000000000000000000000000000000000000000000000000000000000000000000000000PES00010000001000000000000000020160901
201609010010000700000000000000001054000000000000000010548000000000030700051362Neca s.r.l.                   000000000023553000000000000000000000000000000000000000000000000000000000000000000000000000000000000000000000000000000000PES00010000001000000000000000020160901
201609010010000700000000000000001055000000000000000010558000000000030616928828Vidmar SRL                    000000000014499000000000000000000000000000000000000000000000000000000000000000000000000000000000000000000000000000000000PES00010000001000000000000000020160901
201609010010000700000000000000001056000000000000000010568000000000030708772964Jumbo Retail Argentina SA     000000000025199000000000000000000000000000000000000000000000000000000000000000000000000000000000000000000000000000000000PES00010000001000000000000000020160901
201609010010000700000000000000001057000000000000000010578000000000030708024313Denki Ingenieria SRL          000000000010880000000000000000000000000000000000000000000000000000000000000000000000000000000000000000000000000000000000PES00010000001000000000000000020160901
201609010010000700000000000000001058000000000000000010588000000000030681284474Combustibles del Norte S.     000000001733613000000000000000000000000000000000000000000000000000000000000000000000000000000000000000000000000000000000PES00010000001000000000000000020160901
201609010010000700000000000000001059000000000000000010598000000000020171317992Lopez Saenz Felix             000000000084105000000000000000000000000000000000000000000000000000000000000000000000001030000000000000000000000000000000PES00010000001000000000000000020160901
201609010010000700000000000000001060000000000000000010608000000000020203999519Delta Computacion             000000000021924000000000000000000000000000000000000000000000000000000000000000000000000000000000000000000000000000000000PES00010000001000000000000000020160901
201609010060000700000000000000000227000000000000000002278000000000020000000001Comando de Brigada            000000000101501000000000000000000000000000000000000000000000000000000000000000000000000000000000000000000000000000000000PES00010000001000000000000000020160901
201609010060000700000000000000000228000000000000000002288000000000020000000001Consorcio Vicente Lopez       000000000015111000000000000000000000000000000000000000000000000000000000000000000000000000000000000000000000000000000000PES00010000001000000000000000020160901
201609010060000400000000000000001269000000000000000012698000000000020000000001Consumidor Final              000000000964820000000000000000000000000000000000000000000000000000000000000000000000000000000000000000000000000000000000PES00010000001000000000000000020160901
201609020010000700000000000000001061000000000000000010618000000000020081684309Lecuona de Pratt Martin       000000000045339000000000000000000000000000000000000000000000000000000000000000000000000000000000000000000000000000000000PES00010000001000000000000000020160902
201609020010000700000000000000001062000000000000000010628000000000030714542083Exa Group SRL                 000000000007569000000000000000000000000000000000000000000000000000000000000000000000000000000000000000000000000000000000PES00010000001000000000000000020160902
201609020010000700000000000000001063000000000000000010638000000000030712632905Ryslab SRL                    000000000012997000000000000000000000000000000000000000000000000000000000000000000000000000000000000000000000000000000000PES00010000001000000000000000020160902
201609020010000700000000000000001064000000000000000010648000000000030502745278Reynaldo Lucardi SRL          000000000199564000000000000000000000000000000000000000000000000000000000000000000000000000000000000000000000000000000000PES00010000001000000000000000020160902
201609020010000700000000000000001065000000000000000010658000000000020072418779Ramon Mijaiel                 000000000089129000000000000000000000000000000000000000000000000000000000000000000000000000000000000000000000000000000000PES00010000001000000000000000020160902
201609020010000700000000000000001066000000000000000010668000000000020072418779Ramon Mijaiel                 000000000054570000000000000000000000000000000000000000000000000000000000000000000000000000000000000000000000000000000000PES00010000001000000000000000020160902
201609020010000700000000000000001067000000000000000010678000000000020081684309Lecuona de Pratt Martin       000000000025585000000000000000000000000000000000000000000000000000000000000000000000000000000000000000000000000000000000PES00010000001000000000000000020160902
201609020010000700000000000000001068000000000000000010688000000000027171312103Aguilar Elisa                 000000000068771000000000000000000000000000000000000000000000000000000000000000000000000000000000000000000000000000000000PES00010000001000000000000000020160902
201609020060000700000000000000000229000000000000000002298000000000020112822179Hector Harach                 000000000085680000000000000000000000000000000000000000000000000000000000000000000000000000000000000000000000000000000000PES00010000001000000000000000020160902
201609020060000700000000000000000230000000000000000002308000000000020000000001Centro Eclecial Alfarcito     000000000005822000000000000000000000000000000000000000000000000000000000000000000000000000000000000000000000000000000000PES00010000001000000000000000020160902
201609020060000700000000000000000231000000000000000002318000000000033617945199Soc. Italiana 20 de Sept.     000000000047870000000000000000000000000000000000000000000000000000000000000000000000000000000000000000000000000000000000PES00010000001000000000000000020160902
201609020060000700000000000000000232000000000000000002328000000000033617945199Soc. Italiana 20 de Sept.     000000000006800000000000000000000000000000000000000000000000000000000000000000000000000000000000000000000000000000000000PES00010000001000000000000000020160902
201609020060000400000000000000001270000000000000000012708000000000020000000001Consumidor Final              000000000370600000000000000000000000000000000000000000000000000000000000000000000000000000000000000000000000000000000000PES00010000001000000000000000020160902
201609030010000700000000000000001069000000000000000010698000000000020171317992Lopez Saenz Felix             000000000022498000000000000000000000000000000000000000000000000000000000000000000000000275000000000000000000000000000000PES00010000001000000000000000020160903
201609030010000700000000000000001070000000000000000010708000000000027176250165Mauri Alicia Ines             000000000021506000000000000000000000000000000000000000000000000000000000000000000000000000000000000000000000000000000000PES00010000001000000000000000020160903
201609030010000700000000000000001071000000000000000010718000000000030708765216Ing Victor Hugo Rulli SRL     000000000013039000000000000000000000000000000000000000000000000000000000000000000000000000000000000000000000000000000000PES00010000001000000000000000020160903
201609030060000400000000000000001271000000000000000012718000000000020000000001Consumidor Final              000000000308000000000000000000000000000000000000000000000000000000000000000000000000000000000000000000000000000000000000PES00010000001000000000000000020160903
201609050010000700000000000000001072000000000000000010728000000000030661919406Transnoa SA                   000000000260298000000000000000000000000000000000000000000000000000000000000000000000000000000000000000000000000000000000PES00010000001000000000000000020160905
201609050010000700000000000000001073000000000000000010738000000000030711739099Viejo Molino SRL              000000000072577000000000000000000000000000000000000000000000000000000000000000000000000000000000000000000000000000000000PES00010000001000000000000000020160905
201609050010000700000000000000001074000000000000000010748000000000020234378040Moscoso Rodrigo               000000000007225000000000000000000000000000000000000000000000000000000000000000000000000000000000000000000000000000000000PES00010000001000000000000000020160905
201609050010000700000000000000001075000000000000000010758000000000020081718181Aguilera  Elio                000000000103935000000000000000000000000000000000000000000000000000000000000000000000000000000000000000000000000000000000PES00010000001000000000000000020160905
201609050010000700000000000000001076000000000000000010768000000000030681284474Combustibles del Norte S.     000000002908582000000000000000000000000000000000000000000000000000000000000000000000000000000000000000000000000000000000PES00010000001000000000000000020160905
201609050010000700000000000000001077000000000000000010778000000000020139771967Vanetta Omar                  000000000018021000000000000000000000000000000000000000000000000000000000000000000000000000000000000000000000000000000000PES00010000001000000000000000020160905
201609050010000700000000000000001078000000000000000010788000000000030644225360Servicios Viales de Pigue     000000031103817000000000000000000000000000000000000000000000000000000000000000000000000000000000000000000000000000000000PES00010000001000000000000000020160905
201609050060000700000000000000000233000000000000000002338000000000020000000001Consorsio  Pueyrredon 349     000000000222785000000000000000000000000000000000000000000000000000000000000000000000000000000000000000000000000000000000PES00010000001000000000000000020160905
201609050060000700000000000000001272000000000000000012728000000000020000000001Consumidor Final              000000001356200000000000000000000000000000000000000000000000000000000000000000000000000000000000000000000000000000000000PES00010000001000000000000000020160905
201609060010000700000000000000001079000000000000000010798000000000030708348879EFEVEDE S.A                   000000000009010000000000000000000000000000000000000000000000000000000000000000000000000000000000000000000000000000000000PES00010000001000000000000000020160906
201609060010000700000000000000001080000000000000000010808000000000030709303240Canyo Construcciones SRL      000000000058000000000000000000000000000000000000000000000000000000000000000000000000000000000000000000000000000000000000PES00010000001000000000000000020160906
201609060010000700000000000000001081000000000000000010818000000000030709303240Canyo Construcciones SRL      000000000051595000000000000000000000000000000000000000000000000000000000000000000000000000000000000000000000000000000000PES00010000001000000000000000020160906
201609060010000700000000000000001082000000000000000010828000000000033707520359Leon Vidrios SRL              000000000050064000000000000000000000000000000000000000000000000000000000000000000000000000000000000000000000000000000000PES00010000001000000000000000020160906
201609060010000700000000000000001083000000000000000010838000000000030715165887Conectar SRL                  000000000008835000000000000000000000000000000000000000000000000000000000000000000000000000000000000000000000000000000000PES00010000001000000000000000020160906
201609060010000700000000000000001084000000000000000010848000000000030711623449Imeca SRL                     000000000037531000000000000000000000000000000000000000000000000000000000000000000000000000000000000000000000000000000000PES00010000001000000000000000020160906
201609060010000700000000000000001085000000000000000010858000000000030661919406Transnoa SA                   000000000333301000000000000000000000000000000000000000000000000000000000000000000000000000000000000000000000000000000000PES00010000001000000000000000020160906
201609060010000700000000000000001086000000000000000010868000000000020203999519Delta Computacion             000000000039098000000000000000000000000000000000000000000000000000000000000000000000000000000000000000000000000000000000PES00010000001000000000000000020160906
201609060010000700000000000000001087000000000000000010878000000000030501522496Vicente Moncho Construcci     000000039749497000000000000000000000000000000000000000000000000000000000000000000000000000000000000000000000000000000000PES00010000001000000000000000020160906
201609060010000700000000000000001088000000000000000010888000000000033707520359Leon Vidrios SRL              000000000025476000000000000000000000000000000000000000000000000000000000000000000000000000000000000000000000000000000000PES00010000001000000000000000020160906
201609060010000700000000000000001089000000000000000010898000000000033707520359Leon Vidrios SRL              000000000032981000000000000000000000000000000000000000000000000000000000000000000000000000000000000000000000000000000000PES00010000001000000000000000020160906
201609060010000700000000000000001090000000000000000010908000000000030707406891Xalapeno SA                   000000000038760000000000000000000000000000000000000000000000000000000000000000000000000000000000000000000000000000000000PES00010000001000000000000000020160906
201609060010000700000000000000001092000000000000000010928000000000027116337725Furlan Claudia Margarita      000000000072498000000000000000000000000000000000000000000000000000000000000000000000000000000000000000000000000000000000PES00010000001000000000000000020160906
201609060010000700000000000000001093000000000000000010938000000000030708024313Denki Ingenieria SRL          000000000007310000000000000000000000000000000000000000000000000000000000000000000000000000000000000000000000000000000000PES00010000001000000000000000020160906
201609060060000700000000000000000234000000000000000002348000000000030999284651Policia de Salta              000000000022050000000000000000000000000000000000000000000000000000000000000000000000000000000000000000000000000000000000PES00010000001000000000000000020160906
201609060060000700000000000000000235000000000000000002358000000000020112822179Hector Harach                 000000000050420000000000000000000000000000000000000000000000000000000000000000000000000000000000000000000000000000000000PES00010000001000000000000000020160906
201609060060000700000000000000000236000000000000000002368000000000020000000001Colegio Doctor Miguel Rag     000000000009000000000000000000000000000000000000000000000000000000000000000000000000000000000000000000000000000000000000PES00010000001000000000000000020160906
201609060020000700000000000000001091000000000000000010918000000000030501522496Vicente Moncho Construcci     000000034549736000000000000000000000000000000000000000000000000000000000000000000000000000000000000000000000000000000000PES00010000001000000000000000020160906
201609060060000400000000000000001273000000000000000012738000000000020000000001Consumidor Final              000000000813100000000000000000000000000000000000000000000000000000000000000000000000000000000000000000000000000000000000PES00010000001000000000000000020160906
201609070010000700000000000000001094000000000000000010948000000000020081684309Lecuona de Pratt Martin       000000000036939000000000000000000000000000000000000000000000000000000000000000000000000000000000000000000000000000000000PES00010000001000000000000000020160907
201609070010000700000000000000001095000000000000000010958000000000020146700811Rodriguez Daniel Alberto      000000000012508000000000000000000000000000000000000000000000000000000000000000000000000000000000000000000000000000000000PES00010000001000000000000000020160907
201609070010000700000000000000001096000000000000000010968000000000020148206199Barbaran Sergio Daniel        000000000550989000000000000000000000000000000000000000000000000000000000000000000000000000000000000000000000000000000000PES00010000001000000000000000020160907
201609070010000700000000000000001097000000000000000010978000000000020163083001Rivelli Nestor                000000000054039000000000000000000000000000000000000000000000000000000000000000000000000000000000000000000000000000000000PES00010000001000000000000000020160907
201609070010000700000000000000001098000000000000000010988000000000030715185608Orba SRL                      000000000021419000000000000000000000000000000000000000000000000000000000000000000000000000000000000000000000000000000000PES00010000001000000000000000020160907
201609070030000700000000000000000012000000000000000000128000000000030501522496Vicente Moncho Construcci     000000034549736000000000000000000000000000000000000000000000000000000000000000000000000000000000000000000000000000000000PES00010000001000000000000000020160907
201609070020000700000000000000001099000000000000000010998000000000030501522496Vicente Moncho Construcci     000000028559607000000028524426000000000000000000000000000000000000000000000000000000000000000000000000000000000000000000PES00010000001000000000000000020160907
201609070060000400000000000000001274000000000000000012748000000000020000000001Consumidor Final              000000001426200000000000000000000000000000000000000000000000000000000000000000000000000000000000000000000000000000000000PES00010000001000000000000000020160907
201609080010000700000000000000001104000000000000000011048000000000030708348879EFEVEDE S.A                   000000000240241000000000000000000000000000000000000000000000000000000000000000000000000000000000000000000000000000000000PES00010000001000000000000000020160908
201609080010000700000000000000001105000000000000000011058000000000030708024313Denki Ingenieria SRL          000000000003600000000000000000000000000000000000000000000000000000000000000000000000000000000000000000000000000000000000PES00010000001000000000000000020160908
201609080010000700000000000000001106000000000000000011068000000000030714101443Belgrano Cargas y Logisti     000000000043423000000000000000000000000000000000000000000000000000000000000000000000000000000000000000000000000000000000PES00010000001000000000000000020160908
201609080010000700000000000000001107000000000000000011078000000000033707520359Leon Vidrios SRL              000000000047589000000000000000000000000000000000000000000000000000000000000000000000000000000000000000000000000000000000PES00010000001000000000000000020160908
201609080010000700000000000000001108000000000000000011088000000000030714542083Exa Group SRL                 000000000008789000000000000000000000000000000000000000000000000000000000000000000000000000000000000000000000000000000000PES00010000001000000000000000020160908
201609080010000700000000000000001109000000000000000011098000000000030540618263Banco Masventas SA            000000000072938000000000000000000000000000000000000000000000000000000000000000000000000000000000000000000000000000000000PES00010000001000000000000000020160908
201609080010000700000000000000001110000000000000000011108000000000027112839645Arancibia Sara Beatriz        000000000046766000000000000000000000000000000000000000000000000000000000000000000000000000000000000000000000000000000000PES00010000001000000000000000020160908
201609080010000700000000000000001111000000000000000011118000000000027254119747Saavedra Jessica              000000000049432000000000000000000000000000000000000000000000000000000000000000000000000000000000000000000000000000000000PES00010000001000000000000000020160908
201609080010000700000000000000001112000000000000000011128000000000030709082163Insumos para Artesanos SR     000000000034581000000000000000000000000000000000000000000000000000000000000000000000000000000000000000000000000000000000PES00010000001000000000000000020160908
201609080010000700000000000000001113000000000000000011138000000000030711383693Grinfil SRL                   000000000059670000000000000000000000000000000000000000000000000000000000000000000000000000000000000000000000000000000000PES00010000001000000000000000020160908
201609080010000700000000000000001114000000000000000011148000000000030709994251CyAC SRL                      000000000566499000000000000000000000000000000000000000000000000000000000000000000000000000000000000000000000000000000000PES00010000001000000000000000020160908
201609080010000700000000000000001115000000000000000011158000000000030679839191Concordia Construcciones      000000000003569000000000000000000000000000000000000000000000000000000000000000000000000000000000000000000000000000000000PES00010000001000000000000000020160908
201609080010000700000000000000001116000000000000000011168000000000030709781037Idem SRL                      000000000042901000000000000000000000000000000000000000000000000000000000000000000000000000000000000000000000000000000000PES00010000001000000000000000020160908
201609080010000700000000000000001117000000000000000011178000000000020081684309Lecuona de Pratt Martin       000000000094860000000000000000000000000000000000000000000000000000000000000000000000000000000000000000000000000000000000PES00010000001000000000000000020160908
201609080010000700000000000000001118000000000000000011188000000000020081684309Lecuona de Pratt Martin       000000000111563000000000000000000000000000000000000000000000000000000000000000000000000000000000000000000000000000000000PES00010000001000000000000000020160908
201609080010000700000000000000001119000000000000000011198000000000020161283461Bloser Juan Andres            000000000014499000000000000000000000000000000000000000000000000000000000000000000000000000000000000000000000000000000000PES00010000001000000000000000020160908
201609080010000700000000000000001120000000000000000011208000000000030708362901Alexandra S.R.L               000000000002549000000000000000000000000000000000000000000000000000000000000000000000000000000000000000000000000000000000PES00010000001000000000000000020160908
201609080010000700000000000000001121000000000000000011218000000000030708389443La Peatonal SRL               000000000033917000000000000000000000000000000000000000000000000000000000000000000000000000000000000000000000000000000000PES00010000001000000000000000020160908
201609080010000700000000000000001122000000000000000011228000000000020081714046Binda Victorio Ricardo        000000000046169000000000000000000000000000000000000000000000000000000000000000000000000000000000000000000000000000000000PES00010000001000000000000000020160908
201609080010000700000000000000001123000000000000000011238000000000030711740208Consulting Group SRL          000000000030175000000000000000000000000000000000000000000000000000000000000000000000000000000000000000000000000000000000PES00010000001000000000000000020160908
201609080060000700000000000000000237000000000000000002378000000000030999284651Policia de Salta              000000000002800000000000000000000000000000000000000000000000000000000000000000000000000000000000000000000000000000000000PES00010000001000000000000000020160908
201609080060000700000000000000000238000000000000000002388000000000020000000001Escuela Jacoba Saravia        000000000055003000000000000000000000000000000000000000000000000000000000000000000000000000000000000000000000000000000000PES00010000001000000000000000020160908
201609080060000400000000000000001275000000000000000012758000000000020000000001Consumidor Final              000000001721400000000000000000000000000000000000000000000000000000000000000000000000000000000000000000000000000000000000PES00010000001000000000000000020160908
201609090010000700000000000000001124000000000000000011248000000000030708389443La Peatonal SRL               000000000025925000000000000000000000000000000000000000000000000000000000000000000000000000000000000000000000000000000000PES00010000001000000000000000020160909
201609090010000700000000000000001125000000000000000011258000000000030708389443La Peatonal SRL               000000000006029000000000000000000000000000000000000000000000000000000000000000000000000000000000000000000000000000000000PES00010000001000000000000000020160909
201609090010000700000000000000001126000000000000000011268000000000020081684309Lecuona de Pratt Martin       000000000008619000000000000000000000000000000000000000000000000000000000000000000000000000000000000000000000000000000000PES00010000001000000000000000020160909
201609090010000700000000000000001127000000000000000011278000000000030710829310Lumer SRL                     000000000012006000000000000000000000000000000000000000000000000000000000000000000000000000000000000000000000000000000000PES00010000001000000000000000020160909
201609090010000700000000000000001128000000000000000011288000000000020146700811Rodriguez Daniel Alberto      000000000042549000000000000000000000000000000000000000000000000000000000000000000000000000000000000000000000000000000000PES00010000001000000000000000020160909
201609090010000700000000000000001129000000000000000011298000000000030714276952CYL SRL                       000000000210800000000000000000000000000000000000000000000000000000000000000000000000000000000000000000000000000000000000PES00010000001000000000000000020160909
201609090010000700000000000000001130000000000000000011308000000000020144880146Lavin Guillermo               000000000010140000000000000000000000000000000000000000000000000000000000000000000000000000000000000000000000000000000000PES00010000001000000000000000020160909
201609090010000700000000000000001131000000000000000011318000000000030710829310Lumer SRL                     000000000003399000000000000000000000000000000000000000000000000000000000000000000000000000000000000000000000000000000000PES00010000001000000000000000020160909
201609090010000700000000000000001132000000000000000011328000000000020186583397Vargas Ramon Gustavo          000000000072501000000000000000000000000000000000000000000000000000000000000000000000000000000000000000000000000000000000PES00010000001000000000000000020160909
201609090010000700000000000000001133000000000000000011338000000000030707494944Productos Quimicos Salta      000000000007200000000000000000000000000000000000000000000000000000000000000000000000000000000000000000000000000000000000PES00010000001000000000000000020160909
201609090060000700000000000000000239000000000000000002398000000000030709620394Fundacion I M C E J Y S A     000000000052700000000000000000000000000000000000000000000000000000000000000000000000000000000000000000000000000000000000PES00010000001000000000000000020160909
201609090060000700000000000000000240000000000000000002408000000000030673134609Municipalidad de Urundel      000000000111780000000000000000000000000000000000000000000000000000000000000000000000000000000000000000000000000000000000PES00010000001000000000000000020160909
201609090060000700000000000000000241000000000000000002418000000000030673134609Municipalidad de Urundel      000000000017595000000000000000000000000000000000000000000000000000000000000000000000000000000000000000000000000000000000PES00010000001000000000000000020160909
201609090060000700000000000000000242000000000000000002428000000000033617945199Soc. Italiana 20 de Sept.     000000000014500000000000000000000000000000000000000000000000000000000000000000000000000000000000000000000000000000000000PES00010000001000000000000000020160909
201609090060000400000000000000001276000000000000000012768000000000020000000001Consumidor Final              000000000630300000000000000000000000000000000000000000000000000000000000000000000000000000000000000000000000000000000000PES00010000001000000000000000020160909
201609100010000700000000000000001134000000000000000011348000000000020081684309Lecuona de Pratt Martin       000000000035956000000000000000000000000000000000000000000000000000000000000000000000000000000000000000000000000000000000PES00010000001000000000000000020160910
201609100010000700000000000000001135000000000000000011358000000000020041947986Haddad Luis Solim             000000000041799000000000000000000000000000000000000000000000000000000000000000000000000000000000000000000000000000000000PES00010000001000000000000000020160910
201609100020000700000000000000001136000000000000000011368000000000030501522496Vicente Moncho Construcci     000000034549736000000000000000000000000000000000000000000000000000000000000000000000000000000000000000000000000000000000PES00010000001000000000000000020160910
201609100060000400000000000000001277000000000000000012778000000000020000000001Consumidor Final              000000001033600000000000000000000000000000000000000000000000000000000000000000000000000000000000000000000000000000000000PES00010000001000000000000000020160910
201609110060000400000000000000001278000000000000000012788000000000020000000001Consumidor Final              000000000793300000000000000000000000000000000000000000000000000000000000000000000000000000000000000000000000000000000000PES00010000001000000000000000020160911
201609120010000700000000000000001137000000000000000011378000000000027110809129Luisa Aguero                  000000000009678000000000000000000000000000000000000000000000000000000000000000000000000000000000000000000000000000000000PES00010000001000000000000000020160912
201609120010000700000000000000001138000000000000000011388000000000020081684309Lecuona de Pratt Martin       000000000059079000000000000000000000000000000000000000000000000000000000000000000000000000000000000000000000000000000000PES00010000001000000000000000020160912
201609120010000700000000000000001139000000000000000011398000000000030636529164Television Federal S.A        000000000029963000000000000000000000000000000000000000000000000000000000000000000000000000000000000000000000000000000000PES00010000001000000000000000020160912
201609120010000700000000000000001140000000000000000011408000000000020144880146Lavin Guillermo               000000000022441000000000000000000000000000000000000000000000000000000000000000000000000000000000000000000000000000000000PES00010000001000000000000000020160912
201609120010000700000000000000001141000000000000000011418000000000020041947986Haddad Luis Solim             000000000005950000000000000000000000000000000000000000000000000000000000000000000000000000000000000000000000000000000000PES00010000001000000000000000020160912
201609120010000700000000000000001142000000000000000011428000000000030711383693Grinfil SRL                   000000000055419000000000000000000000000000000000000000000000000000000000000000000000000000000000000000000000000000000000PES00010000001000000000000000020160912
201609120010000700000000000000001143000000000000000011438000000000023302215669Abrebanel Martin              000000000004718000000000000000000000000000000000000000000000000000000000000000000000000000000000000000000000000000000000PES00010000001000000000000000020160912
201609120060000700000000000000000243000000000000000002438000000000020112822179Hector Harach                 000000000024106000000000000000000000000000000000000000000000000000000000000000000000000000000000000000000000000000000000PES00010000001000000000000000020160912
201609130010000700000000000000001144000000000000000011448000000000020148206199Barbaran Sergio Daniel        000000000107054000000000000000000000000000000000000000000000000000000000000000000000000000000000000000000000000000000000PES00010000001000000000000000020160913
201609130010000700000000000000001145000000000000000011458000000000020081684309Lecuona de Pratt Martin       000000000006460000000000000000000000000000000000000000000000000000000000000000000000000000000000000000000000000000000000PES00010000001000000000000000020160913
201609130010000700000000000000001146000000000000000011468000000000033710311159Pacific Trade SRL             000000000114556000000000000000000000000000000000000000000000000000000000000000000000000000000000000000000000000000000000PES00010000001000000000000000020160913
201609130010000700000000000000001147000000000000000011478000000000030711383693Grinfil SRL                   000000000394400000000000000000000000000000000000000000000000000000000000000000000000000000000000000000000000000000000000PES00010000001000000000000000020160913
201609130010000700000000000000001148000000000000000011488000000000030644225360Servicios Viales de Pigue     000000018733611000000000000000000000000000000000000000000000000000000000000000000000000000000000000000000000000000000000PES00010000001000000000000000020160913
201609130010000700000000000000001149000000000000000011498000000000030502745278Reynaldo Lucardi SRL          000000000135210000000000000000000000000000000000000000000000000000000000000000000000000000000000000000000000000000000000PES00010000001000000000000000020160913
201609130010000700000000000000001150000000000000000011508000000000020078232693Scardilli Jorge               000000000015401000000000000000000000000000000000000000000000000000000000000000000000000000000000000000000000000000000000PES00010000001000000000000000020160913
201609130010000700000000000000001151000000000000000011518000000000020078232693Scardilli Jorge               000000000044100000000000000000000000000000000000000000000000000000000000000000000000000000000000000000000000000000000000PES00010000001000000000000000020160913
201609130010000700000000000000001152000000000000000011528000000000020127902667Catacata Abraham Jorge        000000000021001000000000000000000000000000000000000000000000000000000000000000000000000000000000000000000000000000000000PES00010000001000000000000000020160913
201609130010000700000000000000001153000000000000000011538000000000023207074284Contreras Gladys Mabel        000000000075001000000000000000000000000000000000000000000000000000000000000000000000000000000000000000000000000000000000PES00010000001000000000000000020160913
201609130010000700000000000000001154000000000000000011548000000000020203999519Delta Computacion             000000000034510000000000000000000000000000000000000000000000000000000000000000000000000000000000000000000000000000000000PES00010000001000000000000000020160913
201609130010000700000000000000001155000000000000000011558000000000030709994251CyAC SRL                      000000000502324000000000000000000000000000000000000000000000000000000000000000000000000000000000000000000000000000000000PES00010000001000000000000000020160913
201609130010000700000000000000001156000000000000000011568000000000030711828091Fideicomiso Belgrano          000000000225000000000000000000000000000000000000000000000000000000000000000000000000000000000000000000000000000000000000PES00010000001000000000000000020160913
201609130010000700000000000000001157000000000000000011578000000000027115018596Aponte Norma Fatima           000000000023907000000000000000000000000000000000000000000000000000000000000000000000000000000000000000000000000000000000PES00010000001000000000000000020160913
201609130010000700000000000000001158000000000000000011588000000000033709309159Wallcoms SA                   000000000060605000000000000000000000000000000000000000000000000000000000000000000000001751000000000000000000000000000000PES00010000001000000000000000020160913
201609130060000400000000000000001279000000000000000012798000000000020000000001Consumidor Final              000000001595000000000000000000000000000000000000000000000000000000000000000000000000000000000000000000000000000000000000PES00010000001000000000000000020160913
201609140010000700000000000000001159000000000000000011598000000000030679839191Concordia Construcciones      000000000003569000000000000000000000000000000000000000000000000000000000000000000000000000000000000000000000000000000000PES00010000001000000000000000020160914
201609140010000700000000000000001160000000000000000011608000000000027112833892Lopez Norma Alicia            000000000012538000000000000000000000000000000000000000000000000000000000000000000000000000000000000000000000000000000000PES00010000001000000000000000020160914
201609140010000700000000000000001161000000000000000011618000000000027296021402Salinas Maria Cecilia         000000000035996000000000000000000000000000000000000000000000000000000000000000000000000000000000000000000000000000000000PES00010000001000000000000000020160914
201609140010000700000000000000001162000000000000000011628000000000020141766350Astudillo  Cesar Alejandr     000000000040562000000000000000000000000000000000000000000000000000000000000000000000000000000000000000000000000000000000PES00010000001000000000000000020160914
201609140010000700000000000000001163000000000000000011638000000000020081757381Simesen de Bielke Sergio      000000000032866000000000000000000000000000000000000000000000000000000000000000000000000000000000000000000000000000000000PES00010000001000000000000000020160914
201609140010000700000000000000001164000000000000000011648000000000030711383693Grinfil SRL                   000000000058028000000000000000000000000000000000000000000000000000000000000000000000000000000000000000000000000000000000PES00010000001000000000000000020160914
201609140060000700000000000000000244000000000000000002448000000000033617945199Soc. Italiana 20 de Sept.     000000000010086000000000000000000000000000000000000000000000000000000000000000000000000000000000000000000000000000000000PES00010000001000000000000000020160914
201609140060000700000000000000000245000000000000000002458000000000030999284651Policia de Salta              000000000005015000000000000000000000000000000000000000000000000000000000000000000000000000000000000000000000000000000000PES00010000001000000000000000020160914
201609140060000700000000000000000246000000000000000002468000000000030690683446Fundacion Madre Teresa de     000000001750150000000000000000000000000000000000000000000000000000000000000000000000000000000000000000000000000000000000PES00010000001000000000000000020160914
201609140060000400000000000000001280000000000000000012808000000000020000000001Consumidor Final              000000001258000000000000000000000000000000000000000000000000000000000000000000000000000000000000000000000000000000000000PES00010000001000000000000000020160914
201609160010000700000000000000001165000000000000000011658000000000020248887355Abud Adolfo Rafael            000000000043083000000000000000000000000000000000000000000000000000000000000000000000000000000000000000000000000000000000PES00010000001000000000000000020160916
201609160010000700000000000000001166000000000000000011668000000000027243387863Moreno Ten Ana Carolina       000000000037144000000000000000000000000000000000000000000000000000000000000000000000000000000000000000000000000000000000PES00010000001000000000000000020160916
201609160010000700000000000000001167000000000000000011678000000000020081684309Lecuona de Pratt Martin       000000000014450000000000000000000000000000000000000000000000000000000000000000000000000000000000000000000000000000000000PES00010000001000000000000000020160916
201609160010000700000000000000001169000000000000000011698000000000030640691200Corralon  El Sol SRL          000000000084796000000000000000000000000000000000000000000000000000000000000000000000000000000000000000000000000000000000PES00010000001000000000000000020160916
201609160010000700000000000000001170000000000000000011708000000000030707938338Sanatorio San Roque s.a       000000000015086000000000000000000000000000000000000000000000000000000000000000000000000000000000000000000000000000000000PES00010000001000000000000000020160916
201609160010000700000000000000001171000000000000000011718000000000030708898860Consultora pluss S.A          000000000085000000000000000000000000000000000000000000000000000000000000000000000000000000000000000000000000000000000000PES00010000001000000000000000020160916
201609160060000700000000000000000247000000000000000002478000000000030709065897La Lucinda club de Campo      000000000012750000000000000000000000000000000000000000000000000000000000000000000000000000000000000000000000000000000000PES00010000001000000000000000020160916
201609160060000700000000000000000248000000000000000002488000000000030999284651Policia de Salta              000000000044119000000000000000000000000000000000000000000000000000000000000000000000000000000000000000000000000000000000PES00010000001000000000000000020160916
201609160060000400000000000000001281000000000000000012818000000000020000000001Consumidor Final              000000000893400000000000000000000000000000000000000000000000000000000000000000000000000000000000000000000000000000000000PES00010000001000000000000000020160916
201609170010000700000000000000001172000000000000000011728000000000030709461326Ilusiones SRL                 000000000021374000000000000000000000000000000000000000000000000000000000000000000000000000000000000000000000000000000000PES00010000001000000000000000020160917
201609170060000700000000000000000249000000000000000002498000000000030999284651Policia de Salta              000000000004080000000000000000000000000000000000000000000000000000000000000000000000000000000000000000000000000000000000PES00010000001000000000000000020160917
201609170060000400000000000000001282000000000000000012828000000000020000000001Consumidor Final              000000000517700000000000000000000000000000000000000000000000000000000000000000000000000000000000000000000000000000000000PES00010000001000000000000000020160917
201609190010000700000000000000001173000000000000000011738000000000020110606355Casado Hector Raul            000000000017510000000000000000000000000000000000000000000000000000000000000000000000000000000000000000000000000000000000PES00010000001000000000000000020160919
201609190010000700000000000000001174000000000000000011748000000000030708389443La Peatonal SRL               000000000150000000000000000000000000000000000000000000000000000000000000000000000000000000000000000000000000000000000000PES00010000001000000000000000020160919
201609190010000700000000000000001175000000000000000011758000000000020141766350Astudillo  Cesar Alejandr     000000000037060000000000000000000000000000000000000000000000000000000000000000000000000000000000000000000000000000000000PES00010000001000000000000000020160919
201609190010000700000000000000001176000000000000000011768000000000030708024313Denki Ingenieria SRL          000000000014999000000000000000000000000000000000000000000000000000000000000000000000000000000000000000000000000000000000PES00010000001000000000000000020160919
201609190010000700000000000000001177000000000000000011778000000000030700051362Neca s.r.l.                   000000000174950000000000000000000000000000000000000000000000000000000000000000000000000000000000000000000000000000000000PES00010000001000000000000000020160919
201609190010000700000000000000001178000000000000000011788000000000030700051362Neca s.r.l.                   000000000131351000000000000000000000000000000000000000000000000000000000000000000000000000000000000000000000000000000000PES00010000001000000000000000020160919
201609190010000700000000000000001179000000000000000011798000000000030650873544Tressing SRL                  000000000052998000000000000000000000000000000000000000000000000000000000000000000000000000000000000000000000000000000000PES00010000001000000000000000020160919
201609190010000700000000000000001180000000000000000011808000000000020081718181Aguilera  Elio                000000000139399000000000000000000000000000000000000000000000000000000000000000000000000000000000000000000000000000000000PES00010000001000000000000000020160919
201609190010000700000000000000001181000000000000000011818000000000027116337725Furlan Claudia Margarita      000000000029580000000000000000000000000000000000000000000000000000000000000000000000000000000000000000000000000000000000PES00010000001000000000000000020160919
201609190010000700000000000000001182000000000000000011828000000000020221462522Nioi Jose Maria               000000000154999000000000000000000000000000000000000000000000000000000000000000000000000000000000000000000000000000000000PES00010000001000000000000000020160919
201609190010000700000000000000001183000000000000000011838000000000027104513765Caro Maria Eugenia            000000000007989000000000000000000000000000000000000000000000000000000000000000000000000000000000000000000000000000000000PES00010000001000000000000000020160919
201609190010000700000000000000001184000000000000000011848000000000020141766350Astudillo  Cesar Alejandr     000000000019550000000000000000000000000000000000000000000000000000000000000000000000000000000000000000000000000000000000PES00010000001000000000000000020160919
201609190010000700000000000000001185000000000000000011858000000000030700051362Neca s.r.l.                   000000000079751000000000000000000000000000000000000000000000000000000000000000000000000000000000000000000000000000000000PES00010000001000000000000000020160919
201609190010000700000000000000001186000000000000000011868000000000030708389443La Peatonal SRL               000000000155017000000000000000000000000000000000000000000000000000000000000000000000000000000000000000000000000000000000PES00010000001000000000000000020160919
201609190010000700000000000000001187000000000000000011878000000000020203999519Delta Computacion             000000000017030000000000000000000000000000000000000000000000000000000000000000000000000000000000000000000000000000000000PES00010000001000000000000000020160919
201609190010000700000000000000001189000000000000000011898000000000030714120456M Day SRL                     000000000224985000000000000000000000000000000000000000000000000000000000000000000000000000000000000000000000000000000000PES00010000001000000000000000020160919
201609190060000700000000000000000250000000000000000002508000000000030709620394Fundacion I M C E J Y S A     000000000155082000000000000000000000000000000000000000000000000000000000000000000000000000000000000000000000000000000000PES00010000001000000000000000020160919
201609190060000700000000000000000251000000000000000002518000000000030999284651Policia de Salta              000000000004675000000000000000000000000000000000000000000000000000000000000000000000000000000000000000000000000000000000PES00010000001000000000000000020160919
201609190060000700000000000000000252000000000000000002528000000000030630823370APSADE                        000000000969008000000000000000000000000000000000000000000000000000000000000000000000000000000000000000000000000000000000PES00010000001000000000000000020160919
201609190030000700000000000000000013000000000000000000138000000000030501522496Vicente Moncho Construcci     000000034549735000000000000000000000000000000000000000000000000000000000000000000000000000000000000000000000000000000000PES00010000001000000000000000020160919
201609190060000400000000000000001283000000000000000012838000000000020000000001Consumidor Final              000000001053300000000000000000000000000000000000000000000000000000000000000000000000000000000000000000000000000000000000PES00010000001000000000000000020160919
201609200010000700000000000000001190000000000000000011908000000000030711383693Grinfil SRL                   000000000226531000000000000000000000000000000000000000000000000000000000000000000000000000000000000000000000000000000000PES00010000001000000000000000020160920
201609200010000700000000000000001191000000000000000011918000000000030708024313Denki Ingenieria SRL          000000000015692000000000000000000000000000000000000000000000000000000000000000000000000000000000000000000000000000000000PES00010000001000000000000000020160920
201609200010000700000000000000001192000000000000000011928000000000023207074284Contreras Gladys Mabel        000000000016048000000000000000000000000000000000000000000000000000000000000000000000000000000000000000000000000000000000PES00010000001000000000000000020160920
201609200010000700000000000000001193000000000000000011938000000000027171312103Aguilar Elisa                 000000000020021000000000000000000000000000000000000000000000000000000000000000000000000000000000000000000000000000000000PES00010000001000000000000000020160920
201609200010000700000000000000001194000000000000000011948000000000020047080461Binda Aldo Augusto            000000000017030000000000000000000000000000000000000000000000000000000000000000000000000000000000000000000000000000000000PES00010000001000000000000000020160920
201609200010000700000000000000001195000000000000000011958000000000027246971566Herrera Nelida del Carmen     000000000268650000000000000000000000000000000000000000000000000000000000000000000000000000000000000000000000000000000000PES00010000001000000000000000020160920
201609200010000700000000000000001196000000000000000011968000000000027246971566Herrera Nelida del Carmen     000000000051913000000000000000000000000000000000000000000000000000000000000000000000000000000000000000000000000000000000PES00010000001000000000000000020160920
201609200010000700000000000000001197000000000000000011978000000000027006586762Sucesion Marocco Irma         000000000061032000000000000000000000000000000000000000000000000000000000000000000000000000000000000000000000000000000000PES00010000001000000000000000020160920
201609200010000700000000000000001198000000000000000011988000000000030711603553Soluciones Tecnicas Gener     000000000016363000000000000000000000000000000000000000000000000000000000000000000000000000000000000000000000000000000000PES00010000001000000000000000020160920
201609200010000700000000000000001199000000000000000011998000000000030711603553Soluciones Tecnicas Gener     000000000004335000000000000000000000000000000000000000000000000000000000000000000000000000000000000000000000000000000000PES00010000001000000000000000020160920
201609200010000700000000000000001200000000000000000012008000000000030501522496Vicente Moncho Construcci     000000049886543000000000000000000000000000000000000000000000000000000000000000000000000000000000000000000000000000000000PES00010000001000000000000000020160920
201609200010000700000000000000001201000000000000000012018000000000030709994251CyAC SRL                      000000000009011000000000000000000000000000000000000000000000000000000000000000000000000000000000000000000000000000000000PES00010000001000000000000000020160920
201609200060000700000000000000000253000000000000000002538000000000030999284651Policia de Salta              000000000008585000000000000000000000000000000000000000000000000000000000000000000000000000000000000000000000000000000000PES00010000001000000000000000020160920
201609200060000700000000000000000254000000000000000002548000000000030647262631Fundacion CAFH                000000000080282000000000000000000000000000000000000000000000000000000000000000000000000000000000000000000000000000000000PES00010000001000000000000000020160920
201609200060000700000000000000000255000000000000000002558000000000030585583533Municipalidad Ciudad de S     000000000002975000000000000000000000000000000000000000000000000000000000000000000000000000000000000000000000000000000000PES00010000001000000000000000020160920
201609200060000400000000000000001284000000000000000012848000000000020000000001Consumidor Final              000000001444200000000000000000000000000000000000000000000000000000000000000000000000000000000000000000000000000000000000PES00010000001000000000000000020160920
201609210010000700000000000000001202000000000000000012028000000000020047080461Binda Aldo Augusto            000000000006084000000000000000000000000000000000000000000000000000000000000000000000000000000000000000000000000000000000PES00010000001000000000000000020160921
201609210010000700000000000000001203000000000000000012038000000000020081757381Simesen de Bielke Sergio      000000000020010000000000000000000000000000000000000000000000000000000000000000000000000000000000000000000000000000000000PES00010000001000000000000000020160921
201609210010000700000000000000001204000000000000000012048000000000020187811040Vera Cucchiaro Javier         000000000068614000000000000000000000000000000000000000000000000000000000000000000000000000000000000000000000000000000000PES00010000001000000000000000020160921
201609210010000700000000000000001205000000000000000012058000000000027343797155Molinari Alfonsina            000000000004760000000000000000000000000000000000000000000000000000000000000000000000000000000000000000000000000000000000PES00010000001000000000000000020160921
201609210010000700000000000000001206000000000000000012068000000000033709488959Comercial Lima S.A            000000000046499000000000000000000000000000000000000000000000000000000000000000000000000000000000000000000000000000000000PES00010000001000000000000000020160921
201609210010000700000000000000001207000000000000000012078000000000030700051362Neca s.r.l.                   000000000089750000000000000000000000000000000000000000000000000000000000000000000000000000000000000000000000000000000000PES00010000001000000000000000020160921
201609210010000700000000000000001208000000000000000012088000000000030644225360Servicios Viales de Pigue     000000000698168000000000000000000000000000000000000000000000000000000000000000000000000000000000000000000000000000000000PES00010000001000000000000000020160921
201609210060000700000000000000000256000000000000000002568000000000020000000001Consorcio Torres de Belgr     000000000064090000000000000000000000000000000000000000000000000000000000000000000000000000000000000000000000000000000000PES00010000001000000000000000020160921
201609210060000700000000000000000257000000000000000002578000000000020112822179Hector Harach                 000000000172142000000000000000000000000000000000000000000000000000000000000000000000000000000000000000000000000000000000PES00010000001000000000000000020160921
201609210060000700000000000000000258000000000000000002588000000000020112822179Hector Harach                 000000000014662000000000000000000000000000000000000000000000000000000000000000000000000000000000000000000000000000000000PES00010000001000000000000000020160921
201609210060000400000000000000001285000000000000000012858000000000020000000001Consumidor Final              000000000827400000000000000000000000000000000000000000000000000000000000000000000000000000000000000000000000000000000000PES00010000001000000000000000020160921
201609220010000700000000000000001209000000000000000012098000000000020207068226Matus Francisco Javier        000000000015000000000000000000000000000000000000000000000000000000000000000000000000000000000000000000000000000000000000PES00010000001000000000000000020160922
201609220010000700000000000000001210000000000000000012108000000000030709994251CyAC SRL                      000000000135115000000000000000000000000000000000000000000000000000000000000000000000000000000000000000000000000000000000PES00010000001000000000000000020160922
201609220010000700000000000000001211000000000000000012118000000000030715267396Fibernoa SRL                  000000000020995000000000000000000000000000000000000000000000000000000000000000000000000000000000000000000000000000000000PES00010000001000000000000000020160922
201609220010000700000000000000001212000000000000000012128000000000030711828091Fideicomiso Belgrano          000000000047303000000000000000000000000000000000000000000000000000000000000000000000000000000000000000000000000000000000PES00010000001000000000000000020160922
201609220010000700000000000000001213000000000000000012138000000000030714307130SVP SA-VT SA-Emp. Const.      000000007886895000000000000000000000000000000000000000000000000000000000000000000000000000000000000000000000000000000000PES00010000001000000000000000020160922
201609220010000700000000000000001214000000000000000012148000000000030714141615Tricor                        000000000042246000000000000000000000000000000000000000000000000000000000000000000000000000000000000000000000000000000000PES00010000001000000000000000020160922
201609220010000700000000000000001215000000000000000012158000000000020203999519Delta Computacion             000000000041098000000000000000000000000000000000000000000000000000000000000000000000000000000000000000000000000000000000PES00010000001000000000000000020160922
201609220010000700000000000000001216000000000000000012168000000000030690655299Producciones Capricornio      000000000038249000000000000000000000000000000000000000000000000000000000000000000000000000000000000000000000000000000000PES00010000001000000000000000020160922
201609220010000700000000000000001217000000000000000012178000000000030690655299Producciones Capricornio      000000000022950000000000000000000000000000000000000000000000000000000000000000000000000000000000000000000000000000000000PES00010000001000000000000000020160922
201609220010000700000000000000001218000000000000000012188000000000030641508159Dell' Acua Mariana SH         000000000031000000000000000000000000000000000000000000000000000000000000000000000000000000000000000000000000000000000000PES00010000001000000000000000020160922
201609220060000400000000000000001286000000000000000012868000000000020000000001Consumidor Final              000000002008500000000000000000000000000000000000000000000000000000000000000000000000000000000000000000000000000000000000PES00010000001000000000000000020160922
201609230010000700000000000000001219000000000000000012198000000000030679839191Concordia Construcciones      000000000006084000000000000000000000000000000000000000000000000000000000000000000000000000000000000000000000000000000000PES00010000001000000000000000020160923
201609230010000700000000000000001220000000000000000012208000000000027243389483Miranda Paola                 000000000120960000000000000000000000000000000000000000000000000000000000000000000000000000000000000000000000000000000000PES00010000001000000000000000020160923
201609230010000700000000000000001221000000000000000012218000000000020081684309Lecuona de Pratt Martin       000000000054486000000000000000000000000000000000000000000000000000000000000000000000000000000000000000000000000000000000PES00010000001000000000000000020160923
201609230010000700000000000000001222000000000000000012228000000000030709427896Daber Servicios Industria     000000000013685000000000000000000000000000000000000000000000000000000000000000000000000000000000000000000000000000000000PES00010000001000000000000000020160923
201609230010000700000000000000001223000000000000000012238000000000027116337725Furlan Claudia Margarita      000000000006084000000000000000000000000000000000000000000000000000000000000000000000000000000000000000000000000000000000PES00010000001000000000000000020160923
201609230010000700000000000000001224000000000000000012248000000000027116337725Furlan Claudia Margarita      000000000002975000000000000000000000000000000000000000000000000000000000000000000000000000000000000000000000000000000000PES00010000001000000000000000020160923
201609230010000700000000000000001225000000000000000012258000000000030714542083Exa Group SRL                 000000000014525000000000000000000000000000000000000000000000000000000000000000000000000000000000000000000000000000000000PES00010000001000000000000000020160923
201609230010000700000000000000001226000000000000000012268000000000030707474307Crew Live S.A                 000000000045900000000000000000000000000000000000000000000000000000000000000000000000000000000000000000000000000000000000PES00010000001000000000000000020160923
201609230010000700000000000000001227000000000000000012278000000000020081718181Aguilera  Elio                000000000174251000000000000000000000000000000000000000000000000000000000000000000000000000000000000000000000000000000000PES00010000001000000000000000020160923
201609230060000700000000000000000259000000000000000002598000000000030714983721Fundacion Redinc              000000000004258000000000000000000000000000000000000000000000000000000000000000000000000000000000000000000000000000000000PES00010000001000000000000000020160923
201609230060000400000000000000001287000000000000000012878000000000020000000001Consumidor Final              000000000997500000000000000000000000000000000000000000000000000000000000000000000000000000000000000000000000000000000000PES00010000001000000000000000020160923
201609240010000700000000000000001228000000000000000012288000000000027116337725Furlan Claudia Margarita      000000000062771000000000000000000000000000000000000000000000000000000000000000000000000000000000000000000000000000000000PES00010000001000000000000000020160924
201609240010000700000000000000001229000000000000000012298000000000027243389483Miranda Paola                 000000000008160000000000000000000000000000000000000000000000000000000000000000000000000000000000000000000000000000000000PES00010000001000000000000000020160924
201609240010000700000000000000001230000000000000000012308000000000033710311159Pacific Trade SRL             000000000009436000000000000000000000000000000000000000000000000000000000000000000000000000000000000000000000000000000000PES00010000001000000000000000020160924
201609240060000700000000000000000260000000000000000002608000000000033999086549Municipalidad de Cerrillo     000000001154978000000000000000000000000000000000000000000000000000000000000000000000000000000000000000000000000000000000PES00010000001000000000000000020160924
201609240060000700000000000000000261000000000000000002618000000000033617945199Soc. Italiana 20 de Sept.     000000000010500000000000000000000000000000000000000000000000000000000000000000000000000000000000000000000000000000000000PES00010000001000000000000000020160924
201609240060000700000000000000000262000000000000000002628000000000033617945199Soc. Italiana 20 de Sept.     000000000006035000000000000000000000000000000000000000000000000000000000000000000000000000000000000000000000000000000000PES00010000001000000000000000020160924
201609240060000400000000000000001288000000000000000012888000000000020000000001Consumidor Final              000000001021200000000000000000000000000000000000000000000000000000000000000000000000000000000000000000000000000000000000PES00010000001000000000000000020160924
201609270010000700000000000000001231000000000000000012318000000000030710398980Horacio Bielli Div. Empre     000000000026976000000000000000000000000000000000000000000000000000000000000000000000000000000000000000000000000000000000PES00010000001000000000000000020160927
201609270010000700000000000000001232000000000000000012328000000000030690700758B M I SA                      000000000010199000000000000000000000000000000000000000000000000000000000000000000000000000000000000000000000000000000000PES00010000001000000000000000020160927
201609270010000700000000000000001233000000000000000012338000000000030708024313Denki Ingenieria SRL          000000000013546000000000000000000000000000000000000000000000000000000000000000000000000000000000000000000000000000000000PES00010000001000000000000000020160927
201609270010000700000000000000001234000000000000000012348000000000023121455374Rasero Edith                  000000000051616000000000000000000000000000000000000000000000000000000000000000000000000000000000000000000000000000000000PES00010000001000000000000000020160927
201609270010000700000000000000001235000000000000000012358000000000030688020715J C R SA                      000000000037146000000000000000000000000000000000000000000000000000000000000000000000000000000000000000000000000000000000PES00010000001000000000000000020160927
201609270010000700000000000000001236000000000000000012368000000000027006586762Sucesion Marocco Irma         000000000061344000000000000000000000000000000000000000000000000000000000000000000000000000000000000000000000000000000000PES00010000001000000000000000020160927
201609270010000700000000000000001237000000000000000012378000000000027296021402Salinas Maria Cecilia         000000000007040000000000000000000000000000000000000000000000000000000000000000000000000000000000000000000000000000000000PES00010000001000000000000000020160927
201609270010000700000000000000001238000000000000000012388000000000030707586601Altur Norte                   000000000640090000000000000000000000000000000000000000000000000000000000000000000000000000000000000000000000000000000000PES00010000001000000000000000020160927
201609270010000700000000000000001239000000000000000012398000000000030580988713Pussetto Salta s.a.           000000000024990000000000000000000000000000000000000000000000000000000000000000000000000000000000000000000000000000000000PES00010000001000000000000000020160927
201609270010000700000000000000001240000000000000000012408000000000030700051362Neca s.r.l.                   000000029554016000000000000000000000000000000000000000000000000000000000000000000000000000000000000000000000000000000000PES00010000001000000000000000020160927
201609270010000700000000000000001241000000000000000012418000000000030710261322J F Comercial SRL             000000000999073000000000000000000000000000000000000000000000000000000000000000000000000000000000000000000000000000000000PES00010000001000000000000000020160927
201609270010000700000000000000001242000000000000000012428000000000020081718181Aguilera  Elio                000000000174247000000000000000000000000000000000000000000000000000000000000000000000000000000000000000000000000000000000PES00010000001000000000000000020160927
201609270010000700000000000000001243000000000000000012438000000000030708487585Agriturismo SRL               000000000020996000000000000000000000000000000000000000000000000000000000000000000000000000000000000000000000000000000000PES00010000001000000000000000020160927
201609270010000700000000000000001244000000000000000012448000000000030693459245Hoyts General Cinema          000000000040655000000000000000000000000000000000000000000000000000000000000000000000000000000000000000000000000000000000PES00010000001000000000000000020160927
201609270010000700000000000000001245000000000000000012458000000000027296021402Salinas Maria Cecilia         000000000005525000000000000000000000000000000000000000000000000000000000000000000000000000000000000000000000000000000000PES00010000001000000000000000020160927
201609270010000700000000000000001246000000000000000012468000000000020082943510Liendro Roberto Antonio       000000000012528000000000000000000000000000000000000000000000000000000000000000000000000000000000000000000000000000000000PES00010000001000000000000000020160927
201609270010000700000000000000001247000000000000000012478000000000030562907676Iberia Construcciones s.a     000000000267806000000000000000000000000000000000000000000000000000000000000000000000000000000000000000000000000000000000PES00010000001000000000000000020160927
201609270010000700000000000000001249000000000000000012498000000000030713272503Klimatica Ingenieria SRL      000000000114409000000000000000000000000000000000000000000000000000000000000000000000000000000000000000000000000000000000PES00010000001000000000000000020160927
201609270060000700000000000000000263000000000000000002638000000000030999284651Policia de Salta              000000000065369000000000000000000000000000000000000000000000000000000000000000000000000000000000000000000000000000000000PES00010000001000000000000000020160927
201609270060000700000000000000000264000000000000000002648000000000030533610338Club de Gimnasia y Tiro A     000000000008004000000000000000000000000000000000000000000000000000000000000000000000000000000000000000000000000000000000PES00010000001000000000000000020160927
201609270060000700000000000000000265000000000000000002658000000000030712185178Consorcio Leguizamon 283      000000000002720000000000000000000000000000000000000000000000000000000000000000000000000000000000000000000000000000000000PES00010000001000000000000000020160927
201609270060000700000000000000000266000000000000000002668000000000030712185178Consorcio Leguizamon 283      000000000002720000000000000000000000000000000000000000000000000000000000000000000000000000000000000000000000000000000000PES00010000001000000000000000020160927
201609270060000700000000000000000267000000000000000002678000000000020000000001Universidad Catolica de S     000000000038760000000000000000000000000000000000000000000000000000000000000000000000000000000000000000000000000000000000PES00010000001000000000000000020160927
201609270060000400000000000000001289000000000000000012898000000000020000000001Consumidor Final              000000001615500000000000000000000000000000000000000000000000000000000000000000000000000000000000000000000000000000000000PES00010000001000000000000000020160927
201609280010000700000000000000001250000000000000000012508000000000027296021402Salinas Maria Cecilia         000000000009010000000000000000000000000000000000000000000000000000000000000000000000000000000000000000000000000000000000PES00010000001000000000000000020160928
201609280010000700000000000000001251000000000000000012518000000000030711383693Grinfil SRL                   000000000145352000000000000000000000000000000000000000000000000000000000000000000000000000000000000000000000000000000000PES00010000001000000000000000020160928
201609280010000700000000000000001252000000000000000012528000000000030707361537Anta Bajada SRL               000000000066300000000000000000000000000000000000000000000000000000000000000000000000000000000000000000000000000000000000PES00010000001000000000000000020160928
201609280010000700000000000000001253000000000000000012538000000000030714762199Grupo Aniceto SRL             000000000999188000000000000000000000000000000000000000000000000000000000000000000000000000000000000000000000000000000000PES00010000001000000000000000020160928
201609280010000700000000000000001254000000000000000012548000000000020177468003Feu Gustavo                   000000000007736000000000000000000000000000000000000000000000000000000000000000000000000000000000000000000000000000000000PES00010000001000000000000000020160928
201609280010000700000000000000001255000000000000000012558000000000030700076446Ser Man s.r.l.                000000000015301000000000000000000000000000000000000000000000000000000000000000000000000000000000000000000000000000000000PES00010000001000000000000000020160928
201609280010000700000000000000001256000000000000000012568000000000033601090029Martinez Eugenio L y Hnos     000000000028050000000000000000000000000000000000000000000000000000000000000000000000000000000000000000000000000000000000PES00010000001000000000000000020160928
201609280010000700000000000000001257000000000000000012578000000000030710692005Corsan SRL                    000000000092431000000000000000000000000000000000000000000000000000000000000000000000000000000000000000000000000000000000PES00010000001000000000000000020160928
201609280010000700000000000000001258000000000000000012588000000000020177929884Esteban Fonzalida Sergio      000000001176466000000000000000000000000000000000000000000000000000000000000000000000000000000000000000000000000000000000PES00010000001000000000000000020160928
201609280010000700000000000000001259000000000000000012598000000000020081840114Martinelli Guillermo Jesu     000000000045812000000000000000000000000000000000000000000000000000000000000000000000000000000000000000000000000000000000PES00010000001000000000000000020160928
201609280010000700000000000000001260000000000000000012608000000000030711939675Ikba SA                       000000000039271000000000000000000000000000000000000000000000000000000000000000000000000000000000000000000000000000000000PES00010000001000000000000000020160928
201609280010000700000000000000001261000000000000000012618000000000030713209704C y S Conceptos y Servici     000000000010030000000000000000000000000000000000000000000000000000000000000000000000000000000000000000000000000000000000PES00010000001000000000000000020160928
201609280010000700000000000000001262000000000000000012628000000000030589816435J E  Torres y cia srl         000000000015020000000000000000000000000000000000000000000000000000000000000000000000000000000000000000000000000000000000PES00010000001000000000000000020160928
201609280060000700000000000000000268000000000000000002688000000000033617945199Soc. Italiana 20 de Sept.     000000000015980000000000000000000000000000000000000000000000000000000000000000000000000000000000000000000000000000000000PES00010000001000000000000000020160928
201609280060000700000000000000000269000000000000000002698000000000030520586446Azobispado de Salta           000000000036286000000000000000000000000000000000000000000000000000000000000000000000000000000000000000000000000000000000PES00010000001000000000000000020160928
201609280060000700000000000000000270000000000000000002708000000000030714156485Club de Campo Altos de Sa     000000003960099000000000000000000000000000000000000000000000000000000000000000000000000000000000000000000000000000000000PES00010000001000000000000000020160928
201609280060000400000000000000001290000000000000000012908000000000020000000001Consumidor Final              000000000791900000000000000000000000000000000000000000000000000000000000000000000000000000000000000000000000000000000000PES00010000001000000000000000020160928
201609280060000400000000000000001291000000000000000012918000000000020000000001Consumidor Final              000000001303300000000000000000000000000000000000000000000000000000000000000000000000000000000000000000000000000000000000PES00010000001000000000000000020160928
201609290010000700000000000000001263000000000000000012638000000000027171312103Aguilar Elisa                 000000000037101000000000000000000000000000000000000000000000000000000000000000000000000000000000000000000000000000000000PES00010000001000000000000000020160929
201609290010000700000000000000001264000000000000000012648000000000030711229376Pascha SRL                    000000005297815000000000000000000000000000000000000000000000000000000000000000000000000000000000000000000000000000000000PES00010000001000000000000000020160929
201609290010000700000000000000001265000000000000000012658000000000030688020715J C R SA                      000000000015000000000000000000000000000000000000000000000000000000000000000000000000000000000000000000000000000000000000PES00010000001000000000000000020160929
201609290010000700000000000000001266000000000000000012668000000000020141766350Astudillo  Cesar Alejandr     000000000037060000000000000000000000000000000000000000000000000000000000000000000000000000000000000000000000000000000000PES00010000001000000000000000020160929
201609290010000700000000000000001267000000000000000012678000000000027246971566Herrera Nelida del Carmen     000000000128520000000000000000000000000000000000000000000000000000000000000000000000000000000000000000000000000000000000PES00010000001000000000000000020160929
201609290010000700000000000000001268000000000000000012688000000000020144880146Lavin Guillermo               000000000030001000000000000000000000000000000000000000000000000000000000000000000000000000000000000000000000000000000000PES00010000001000000000000000020160929
201609290010000700000000000000001269000000000000000012698000000000030708106700Los Pirpintos SRL             000000004469255000000000000000000000000000000000000000000000000000000000000000000000000000000000000000000000000000000000PES00010000001000000000000000020160929
201609290060000700000000000000000272000000000000000002728000000000030709620394Fundacion I M C E J Y S A     000000000024480000000000000000000000000000000000000000000000000000000000000000000000000000000000000000000000000000000000PES00010000001000000000000000020160929
201609290060000700000000000000000273000000000000000002738000000000030628540787Colegio 5095                  000000000005052000000000000000000000000000000000000000000000000000000000000000000000000000000000000000000000000000000000PES00010000001000000000000000020160929
201609290060000700000000000000000274000000000000000002748000000000020000000001Consumidor Final              000000000345057000000000000000000000000000000000000000000000000000000000000000000000000000000000000000000000000000000000PES00010000001000000000000000020160929
201609290060000700000000000000000275000000000000000002758000000000020000000001Consumidor Final              000000002321626000000000000000000000000000000000000000000000000000000000000000000000000000000000000000000000000000000000PES00010000001000000000000000020160929
201609290060000700000000000000000276000000000000000002768000000000030651559630Cooperadora Asistencial d     000000000274373000000000000000000000000000000000000000000000000000000000000000000000000000000000000000000000000000000000PES00010000001000000000000000020160929
201609290060000700000000000000000277000000000000000002778000000000030650219097Caja de Prevision Social      000000000100004000000000000000000000000000000000000000000000000000000000000000000000000000000000000000000000000000000000PES00010000001000000000000000020160929
201609290060000700000000000000000278000000000000000002788000000000020000000001Consumidor Final              000000000469437000000000000000000000000000000000000000000000000000000000000000000000000000000000000000000000000000000000PES00010000001000000000000000020160929
201609300010000700000000000000001270000000000000000012708000000000030711912947Construcciones Civiles y      000000003552047000000000000000000000000000000000000000000000000000000000000000000000000000000000000000000000000000000000PES00010000001000000000000000020160930
201609300010000700000000000000001271000000000000000012718000000000030711912947Construcciones Civiles y      000000038322652000000000000000000000000000000000000000000000000000000000000000000000945247000000000000000000000000000000PES00010000001000000000000000020160930
201609300010000700000000000000001272000000000000000012728000000000020081684309Lecuona de Pratt Martin       000000000015640000000000000000000000000000000000000000000000000000000000000000000000000000000000000000000000000000000000PES00010000001000000000000000020160930
201609300010000700000000000000001273000000000000000012738000000000030688020715J C R SA                      000000000018021000000000000000000000000000000000000000000000000000000000000000000000000000000000000000000000000000000000PES00010000001000000000000000020160930
201609300010000700000000000000001274000000000000000012748000000000020203999519Delta Computacion             000000000034510000000000000000000000000000000000000000000000000000000000000000000000000000000000000000000000000000000000PES00010000001000000000000000020160930
201609300010000700000000000000001275000000000000000012758000000000023176343354Marttellota Adriana Elina     000000000188047000000000000000000000000000000000000000000000000000000000000000000000000000000000000000000000000000000000PES00010000001000000000000000020160930
201609300010000700000000000000001276000000000000000012768000000000030711912947Construcciones Civiles y      000000038322652000000000000000000000000000000000000000000000000000000000000000000000945247000000000000000000000000000000PES00010000001000000000000000020160930
201609300010000700000000000000001277000000000000000012778000000000030714542083Exa Group SRL                 000000000005950000000000000000000000000000000000000000000000000000000000000000000000000000000000000000000000000000000000PES00010000001000000000000000020160930
201609300010000700000000000000001278000000000000000012788000000000033518604339Galerias Margalef ICIF        000000000722618000000000000000000000000000000000000000000000000000000000000000000000000000000000000000000000000000000000PES00010000001000000000000000020160930
201609300010000700000000000000001279000000000000000012798000000000027006586762Sucesion Marocco Irma         000000000073308000000000000000000000000000000000000000000000000000000000000000000000000000000000000000000000000000000000PES00010000001000000000000000020160930
201609300010000700000000000000001280000000000000000012808000000000020230429600Caceres  Zerda  Victor        000000000013346000000000000000000000000000000000000000000000000000000000000000000000000000000000000000000000000000000000PES00010000001000000000000000020160930
201609300010000700000000000000001281000000000000000012818000000000027134140173Tomas Monica Adriana          000000000062345000000000000000000000000000000000000000000000000000000000000000000000000000000000000000000000000000000000PES00010000001000000000000000020160930
201609300010000700000000000000001282000000000000000012828000000000027134140173Tomas Monica Adriana          000000000042191000000000000000000000000000000000000000000000000000000000000000000000000000000000000000000000000000000000PES00010000001000000000000000020160930
201609300010000700000000000000001283000000000000000012838000000000020081840114Martinelli Guillermo Jesu     000000000021081000000000000000000000000000000000000000000000000000000000000000000000000000000000000000000000000000000000PES00010000001000000000000000020160930
201609300010000700000000000000001284000000000000000012848000000000020082943510Liendro Roberto Antonio       000000000006006000000000000000000000000000000000000000000000000000000000000000000000000000000000000000000000000000000000PES00010000001000000000000000020160930
201609300010000700000000000000001285000000000000000012858000000000030679839191Concordia Construcciones      000000000007000000000000000000000000000000000000000000000000000000000000000000000000000000000000000000000000000000000000PES00010000001000000000000000020160930
201609300010000700000000000000001287000000000000000012878000000000030711912947Construcciones Civiles y      000000032716030000000000000000000000000000000000000000000000000000000000000000000000945246000000000000000000000000000000PES00010000001000000000000000020160930
201609300010000700000000000000001288000000000000000012888000000000027044274596Fares Maria Raquel            000000000052944000000000000000000000000000000000000000000000000000000000000000000000000000000000000000000000000000000000PES00010000001000000000000000020160930
201609300010000700000000000000001289000000000000000012898000000000020173294728Tonini Walter Eduardo         000000000058819000000000000000000000000000000000000000000000000000000000000000000000000000000000000000000000000000000000PES00010000001000000000000000020160930
201609300010000700000000000000001290000000000000000012908000000000027246971566Herrera Nelida del Carmen     000000000111601000000000000000000000000000000000000000000000000000000000000000000000000000000000000000000000000000000000PES00010000001000000000000000020160930
201609300010000700000000000000001291000000000000000012918000000000030711740208Consulting Group SRL          000000000958018000000000000000000000000000000000000000000000000000000000000000000000000000000000000000000000000000000000PES00010000001000000000000000020160930
201609300010000700000000000000001292000000000000000012928000000000030658186465Ara Consultora S.R.L          000000030696714000000000000000000000000000000000000000000000000000000000000000000000000000000000000000000000000000000000PES00010000001000000000000000020160930
201609300030000700000000000000000014000000000000000000148000000000030711912947Construcciones Civiles y      000000038322652000000000000000000000000000000000000000000000000000000000000000000000945247000000000000000000000000000000PES00010000001000000000000000020160930
201609300030000700000000000000000015000000000000000000158000000000030711912947Construcciones Civiles y      000000038322646000000000000000000000000000000000000000000000000000000000000000000000945247000000000000000000000000000000PES00010000001000000000000000020160930
201609300060000400000000000000001292000000000000000012928000000000020000000001Consumidor Final              000000002510700000000000000000000000000000000000000000000000000000000000000000000000000000000000000000000000000000000000PES00010000001000000000000000020160930
201609010010000500000000000000005298000000000000000052988000000000020110814152GORRITI LUIS HECTOR           000000000072497000000000000000000000000000000000000000000000000000000000000000000000000000000000000000000000000000000000PES00010000001000000000000000020160901
201609010010000500000000000000005299000000000000000052998000000000030661919406TRANSNOA SA                   000000000014800000000000000000000000000000000000000000000000000000000000000000000000000000000000000000000000000000000000PES00010000001000000000000000020160901
201609010010000500000000000000005300000000000000000053008000000000030644225360SERVICIOS VIALES DE PIGUE S.A.000000000289989000000000000000000000000000000000000000000000000000000000000000000000000000000000000000000000000000000000PES00010000001000000000000000020160901
201609010010000500000000000000005301000000000000000053018000000000020119431914URQUIDI ALFREDO               000000000021001000000000000000000000000000000000000000000000000000000000000000000000000000000000000000000000000000000000PES00010000001000000000000000020160901
201609010010000500000000000000005302000000000000000053028000000000030708780649EST DE SS EL TRIUNFO S.R.L    000000000021000000000000000000000000000000000000000000000000000000000000000000000000000000000000000000000000000000000000PES00010000001000000000000000020160901
201609010010000500000000000000005303000000000000000053038000000000020119431914URQUIDI ALFREDO               000000000116600000000000000000000000000000000000000000000000000000000000000000000000000000000000000000000000000000000000PES00010000001000000000000000020160901
201609010010000500000000000000005304000000000000000053048000000000020147086912GASPARINI MAURO ALEJANDRO     000000000144994000000000000000000000000000000000000000000000000000000000000000000000000000000000000000000000000000000000PES00010000001000000000000000020160901
201609010010000500000000000000005305000000000000000053058000000000030707534946DISTRIBUIDORA GAY SRL         000000000034001000000000000000000000000000000000000000000000000000000000000000000000000000000000000000000000000000000000PES00010000001000000000000000020160901
201609010060000500000000000000008474000000000000000084748000000000020000000001CONSUMIDOR FINAL              000000000033000000000000000000000000000000000000000000000000000000000000000000000000000000000000000000000000000000000000PES00010000001000000000000000020160901
201609010060000500000000000000008475000000000000000084758000000000020000000001CONSUMIDOR FINAL              000000000065500000000000000000000000000000000000000000000000000000000000000000000000000000000000000000000000000000000000PES00010000001000000000000000020160901
201609010060000500000000000000008476000000000000000084768000000000020000000001CONSUMIDOR FINAL              000000000006000000000000000000000000000000000000000000000000000000000000000000000000000000000000000000000000000000000000PES00010000001000000000000000020160901
201609010060000500000000000000008477000000000000000084778000000000020000000001CONSUMIDOR FINAL              000000000085120000000000000000000000000000000000000000000000000000000000000000000000000000000000000000000000000000000000PES00010000001000000000000000020160901
201609010060000500000000000000008478000000000000000084788000000000020000000001CONSUMIDOR FINAL              000000000009000000000000000000000000000000000000000000000000000000000000000000000000000000000000000000000000000000000000PES00010000001000000000000000020160901
201609010060000500000000000000008479000000000000000084798000000000020000000001CONSUMIDOR FINAL              000000000066800000000000000000000000000000000000000000000000000000000000000000000000000000000000000000000000000000000000PES00010000001000000000000000020160901
201609010060000500000000000000008480000000000000000084808000000000020000000001CONSUMIDOR FINAL              000000000070000000000000000000000000000000000000000000000000000000000000000000000000000000000000000000000000000000000000PES00010000001000000000000000020160901
201609010060000500000000000000008481000000000000000084818000000000020000000001CONSUMIDOR FINAL              000000000035000000000000000000000000000000000000000000000000000000000000000000000000000000000000000000000000000000000000PES00010000001000000000000000020160901
201609010060000500000000000000008482000000000000000084828000000000030673064201MUNICIPALIDAD DE MOLINOS      000000000075600000000000000000000000000000000000000000000000000000000000000000000000000000000000000000000000000000000000PES00010000001000000000000000020160901
201609010060000500000000000000008483000000000000000084838000000000020000000001CONSUMIDOR FINAL              000000000102500000000000000000000000000000000000000000000000000000000000000000000000000000000000000000000000000000000000PES00010000001000000000000000020160901
201609010060000500000000000000008484000000000000000084848000000000020000000001CONSUMIDOR FINAL              000000000060800000000000000000000000000000000000000000000000000000000000000000000000000000000000000000000000000000000000PES00010000001000000000000000020160901
201609010060000500000000000000008485000000000000000084858000000000020000000001CONSUMIDOR FINAL              000000000017500000000000000000000000000000000000000000000000000000000000000000000000000000000000000000000000000000000000PES00010000001000000000000000020160901
201609010060000500000000000000008486000000000000000084868000000000020000000001CONSUMIDOR FINAL              000000000109000000000000000000000000000000000000000000000000000000000000000000000000000000000000000000000000000000000000PES00010000001000000000000000020160901
201609010060000500000000000000008487000000000000000084878000000000020000000001CONSUMIDOR FINAL              000000000042000000000000000000000000000000000000000000000000000000000000000000000000000000000000000000000000000000000000PES00010000001000000000000000020160901
201609010060000500000000000000008488000000000000000084888000000000020000000001ANIBAL ALSOGARAY              000000001400000000000000000000000000000000000000000000000000000000000000000000000000000000000000000000000000000000000000PES00010000001000000000000000020160901
201609010060000500000000000000008489000000000000000084898000000000020000000001CONSUMIDOR FINAL              000000000106020000000000000000000000000000000000000000000000000000000000000000000000000000000000000000000000000000000000PES00010000001000000000000000020160901
201609010060000500000000000000008490000000000000000084908000000000020000000001CONSUMIDOR FINAL              000000000043000000000000000000000000000000000000000000000000000000000000000000000000000000000000000000000000000000000000PES00010000001000000000000000020160901
201609010060000500000000000000008491000000000000000084918000000000020000000001CONSUMIDOR FINAL              000000000032500000000000000000000000000000000000000000000000000000000000000000000000000000000000000000000000000000000000PES00010000001000000000000000020160901
201609020010000500000000000000005306000000000000000053068000000000020171317194VERA HECTOR RAMON             000000000004000000000000000000000000000000000000000000000000000000000000000000000000000000000000000000000000000000000000PES00010000001000000000000000020160902
201609020010000500000000000000005307000000000000000053078000000000020119431914URQUIDI ALFREDO               000000000014499000000000000000000000000000000000000000000000000000000000000000000000000000000000000000000000000000000000PES00010000001000000000000000020160902
201609020060000500000000000000008492000000000000000084928000000000020000000001CONDOMINIO ARMESTO            000000000044496000000000000000000000000000000000000000000000000000000000000000000000000000000000000000000000000000000000PES00010000001000000000000000020160902
201609020060000500000000000000008493000000000000000084938000000000020000000001CONSUMIDOR FINAL              000000000164000000000000000000000000000000000000000000000000000000000000000000000000000000000000000000000000000000000000PES00010000001000000000000000020160902
201609020060000500000000000000008494000000000000000084948000000000020000000001CONSUMIDOR FINAL              000000000047100000000000000000000000000000000000000000000000000000000000000000000000000000000000000000000000000000000000PES00010000001000000000000000020160902
201609020060000500000000000000008495000000000000000084958000000000020000000001ANIBAL ALSOGARAY              000000000902000000000000000000000000000000000000000000000000000000000000000000000000000000000000000000000000000000000000PES00010000001000000000000000020160902
201609020060000500000000000000008496000000000000000084968000000000020000000001CONSUMIDOR FINAL              000000000068900000000000000000000000000000000000000000000000000000000000000000000000000000000000000000000000000000000000PES00010000001000000000000000020160902
201609020060000500000000000000008497000000000000000084978000000000020000000001CONSUMIDOR FINAL              000000000055000000000000000000000000000000000000000000000000000000000000000000000000000000000000000000000000000000000000PES00010000001000000000000000020160902
201609020060000500000000000000008498000000000000000084988000000000020000000001CONSUMIDOR FINAL              000000000054000000000000000000000000000000000000000000000000000000000000000000000000000000000000000000000000000000000000PES00010000001000000000000000020160902
201609020060000500000000000000008499000000000000000084998000000000020000000001CONSUMIDOR FINAL              000000000009200000000000000000000000000000000000000000000000000000000000000000000000000000000000000000000000000000000000PES00010000001000000000000000020160902
201609020060000500000000000000008500000000000000000085008000000000020000000001CONSUMIDOR FINAL              000000000060800000000000000000000000000000000000000000000000000000000000000000000000000000000000000000000000000000000000PES00010000001000000000000000020160902
201609020060000500000000000000008501000000000000000085018000000000020000000001CONSUMIDOR FINAL              000000000014500000000000000000000000000000000000000000000000000000000000000000000000000000000000000000000000000000000000PES00010000001000000000000000020160902
201609020010000600000000000000000142000000000000000001428000000000030714298131MDM BAR S.R.L                 000000002371600000000000000000000000000000000000000000000000000000000000000000000000000000000000000000000000000000000000PES00010000001000000000000000020160902
201609020010000600000000000000000143000000000000000001438000000000027293111869HEVIA ELSA FLORENCIA          000000002180783000000000000000000000000000000000000000000000000000000000000000000000000000000000000000000000000000000000PES00010000001000000000000000020160902
201609020010000600000000000000000144000000000000000001448000000000030708947276EMPRESA REGULUS ARGENTINA S.A 000000004306995000000000000000000000000000000000000000000000000000000000000000000000000000000000000000000000000000000000PES00010000001000000000000000020160902
201609020010000600000000000000000145000000000000000001458000000000020230799270LUQUE MAURICIO JAVIER         000000001210000000000000000000000000000000000000000000000000000000000000000000000000000000000000000000000000000000000000PES00010000001000000000000000020160902
201609020010000600000000000000000146000000000000000001468000000000030712389342P Y S SRL                     000000003630000000000000000000000000000000000000000000000000000000000000000000000000000000000000000000000000000000000000PES00010000001000000000000000020160902
201609030060000500000000000000008502000000000000000085028000000000020000000001CONSUMIDOR FINAL              000000000028500000000000000000000000000000000000000000000000000000000000000000000000000000000000000000000000000000000000PES00010000001000000000000000020160903
201609030060000500000000000000008503000000000000000085038000000000020000000001CONSUMIDOR FINAL              000000000093000000000000000000000000000000000000000000000000000000000000000000000000000000000000000000000000000000000000PES00010000001000000000000000020160903
201609030060000500000000000000008504000000000000000085048000000000020000000001CONSUMIDOR FINAL              000000000003800000000000000000000000000000000000000000000000000000000000000000000000000000000000000000000000000000000000PES00010000001000000000000000020160903
201609030060000500000000000000008505000000000000000085058000000000020000000001CONSUMIDOR FINAL              000000000018500000000000000000000000000000000000000000000000000000000000000000000000000000000000000000000000000000000000PES00010000001000000000000000020160903
201609050010000500000000000000005308000000000000000053088000000000030709885967PLACAMUR S.R.L                000000000267473000000000000000000000000000000000000000000000000000000000000000000000000000000000000000000000000000000000PES00010000001000000000000000020160905
201609050060000500000000000000008506000000000000000085068000000000020000000001CONSUMIDOR FINAL              000000000257200000000000000000000000000000000000000000000000000000000000000000000000000000000000000000000000000000000000PES00010000001000000000000000020160905
201609050060000500000000000000008507000000000000000085078000000000020000000001CONSUMIDOR FINAL              000000000069300000000000000000000000000000000000000000000000000000000000000000000000000000000000000000000000000000000000PES00010000001000000000000000020160905
201609050060000500000000000000008508000000000000000085088000000000020000000001CONSUMIDOR FINAL              000000000057500000000000000000000000000000000000000000000000000000000000000000000000000000000000000000000000000000000000PES00010000001000000000000000020160905
201609050060000500000000000000008509000000000000000085098000000000020000000001CONSUMIDOR FINAL              000000000018460000000000000000000000000000000000000000000000000000000000000000000000000000000000000000000000000000000000PES00010000001000000000000000020160905
201609050060000500000000000000008510000000000000000085108000000000020000000001CONSUMIDOR FINAL              000000000017500000000000000000000000000000000000000000000000000000000000000000000000000000000000000000000000000000000000PES00010000001000000000000000020160905
201609050060000500000000000000008511000000000000000085118000000000020000000001CONSUMIDOR FINAL              000000000124000000000000000000000000000000000000000000000000000000000000000000000000000000000000000000000000000000000000PES00010000001000000000000000020160905
201609050060000500000000000000008512000000000000000085128000000000020000000001CONSUMIDOR FINAL              000000000249100000000000000000000000000000000000000000000000000000000000000000000000000000000000000000000000000000000000PES00010000001000000000000000020160905
201609050060000500000000000000008513000000000000000085138000000000020000000001CONSUMIDOR FINAL              000000000022300000000000000000000000000000000000000000000000000000000000000000000000000000000000000000000000000000000000PES00010000001000000000000000020160905
201609050060000500000000000000008514000000000000000085148000000000020000000001CONSUMIDOR FINAL              000000000006000000000000000000000000000000000000000000000000000000000000000000000000000000000000000000000000000000000000PES00010000001000000000000000020160905
