201703310010004700000000000000000690                8000000000030707211942ROLCAR SA                     000000097220000000000000000000000000000000000000000000000000000000000000000000000000000000000000000000000000000000000000PES00010000001000000000000000000000000000000000000000000                              000000000000000
201706290010000300000000000000000107                8000000000030711823618ANCEBA SRL                    000000001190059000000000000000000000000000000000000000000000000000000000000000000000000000000000000000000000000000000000PES00010000001000000000000000000000000000000000000000000                              000000000000000
201703020010102700000000000000005617                8000000000030501199253ACINDAR INDUSTRIA ARGENTINA DE000000020796608000000000000000000000000000000000000000500721000000000000000000000000000000000000000100144000000000000000PES00010000001000000000000000000000000000000000000000000                              000000000000000
201703030030102500000000000000053816                8000000000030501199253ACINDAR INDUSTRIA ARGENTINA DE000000020796609000000000000000000000000000000000000000503144000000000000000000000000000000000000000000000000000000000000PES00010000001000000000000000000000000000000000000000000                              000000000000000
201705170020102500000000000000076276                8000000000030501199253ACINDAR INDUSTRIA ARGENTINA DE000000029463597000000000000000000000000000000000000000712829000000000000000000000000000000000000000000000000000000000000PES00010000001000000000000000000000000000000000000000000                              000000000000000
201705170020102500000000000000076277                8000000000030501199253ACINDAR INDUSTRIA ARGENTINA DE000000020428808000000000000000000000000000000000000000494245000000000000000000000000000000000000000000000000000000000000PES00010000001000000000000000000000000000000000000000000                              000000000000000
201705270010102700000000000000006254                8000000000030501199253ACINDAR INDUSTRIA ARGENTINA DE000000014900843000000000000000000000000000000000000000358768000000000000000000000000000000000000000071754000000000000000PES00010000001000000000000000000000000000000000000000000                              000000000000000
201705290030102500000000000000056675                8000000000030501199253ACINDAR INDUSTRIA ARGENTINA DE000000014900843000000000000000000000000000000000000000360504000000000000000000000000000000000000000000000000000000000000PES00010000001000000000000000000000000000000000000000000                              000000000000000
201706120010102700000000000000006376                8000000000030501199253ACINDAR INDUSTRIA ARGENTINA DE000000014707760000000000000000000000000000000000000000354119000000000000000000000000000000000000000070824000000000000000PES00010000001000000000000000000000000000000000000000000                              000000000000000
201706130030102500000000000000057186                8000000000030501199253ACINDAR INDUSTRIA ARGENTINA DE000000014562754000000000000000000000000000000000000000352325000000000000000000000000000000000000000000000000000000000000PES00010000001000000000000000000000000000000000000000000                              000000000000000
201706130030102500000000000000057187                8000000000030501199253ACINDAR INDUSTRIA ARGENTINA DE000000000145006000000000000000000000000000000000000000003508000000000000000000000000000000000000000000000000000000000000PES00010000001000000000000000000000000000000000000000000                              000000000000000
201706270010102700000000000000006481                8000000000030501199253ACINDAR INDUSTRIA ARGENTINA DE000000019657582000000000000000000000000000000000000000473296000000000000000000000000000000000000000094659000000000000000PES00010000001000000000000000000000000000000000000000000                              000000000000000
201706280030102500000000000000057711                8000000000030501199253ACINDAR INDUSTRIA ARGENTINA DE000000019657581000000000000000000000000000000000000000475587000000000000000000000000000000000000000000000000000000000000PES00010000001000000000000000000000000000000000000000000                              000000000000000
201705260020001100000000000000004135                8000000000030639201232AD BARBIERI SA                000000000004961000000000000000000000000000000000000000000000000000000000000000000000000000000000000000000000000000000000PES00010000001000000000000000000000000000000000000000000                              000000000000000
201706130010000500000000000000003054                8000000000030586321389VICENTE ALBORS SA             000000006722131000000000000000000000000000000000000000000000000000000000000000000000000000000000000000000000000000000000PES00010000001000000000000000000000000000000000000000000                              000000000000000
201705310010000600000000000000013739                8000000000033521817599CERAMICA SALTE헤 SA           000000000147398000000000000000000000000000000000000000000000000000000000000000000000004259000000000000000000000000000000PES00010000001000000000000000000000000000000000000000000                              000000000000000
201706070010000600000000000000013899                8000000000033521817599CERAMICA SALTE헤 SA           000000000233767000000000000000000000000000000000000000000000000000000000000000000000006754000000000000000000000000000000PES00010000001000000000000000000000000000000000000000000                              000000000000000
201706020010000600000000000000013771                8000000000033521817599CERAMICA SALTE헤 SA           000000000128114000000000000000000000000000000000000000000000000000000000000000000000003702000000000000000000000000000000PES00010000001000000000000000000000000000000000000000000                              000000000000000
201706260010000600000000000000014394                8000000000033521817599CERAMICA SALTE헤 SA           000000000054709000000000000000000000000000000000000000000000000000000000000000000000001581000000000000000000000000000000PES00010000001000000000000000000000000000000000000000000                              000000000000000
201706160010000300000000000000001253                8000000000030709962295DISTRIBUCIONES FATIMA SRL     000000000124580000000000000000000000000000000000000000000000000000000000000000000000000000000000000000000000000000000000PES00010000001000000000000000000000000000000000000000000                              000000000000000
201706160010000200000000000000000291                8000000000020110524863MORENO CESAR ANIBAL           000000000690604000000000000000000000000000000000000000000000000000000000000000000000000000000000000000000000000000000000PES00010000001000000000000000000000000000000000000000000                              000000000000000
201705210010002100000000000000114357                8000000000030552816168DURLOCK SA                    000000008832879000000000000000000000000000000000000000000000000000000000000000000000129472000000000000000000000000000000PES00010000001000000000000000000000000000000000000000000                              000000000000000
201705210010002100000000000000114358                8000000000030552816168DURLOCK SA                    000000004125681000000000000000000000000000000000000000000000000000000000000000000000060474000000000000000000000000000000PES00010000001000000000000000000000000000000000000000000                              000000000000000
201705210010002100000000000000114359                8000000000030552816168DURLOCK SA                    000000007254066000000000000000000000000000000000000000000000000000000000000000000000106330000000000000000000000000000000PES00010000001000000000000000000000000000000000000000000                              000000000000000
201705210010002100000000000000114360                8000000000030552816168DURLOCK SA                    000000000374548000000000000000000000000000000000000000000000000000000000000000000000005490000000000000000000000000000000PES00010000001000000000000000000000000000000000000000000                              000000000000000
201705240010002100000000000000114591                8000000000030552816168DURLOCK SA                    000000006743328000000000309801000000000000000000000000000000000000000000000000000000185880000000000000000000000000000000PES00010000001000000000000000000000000000000000000000000                              000000000000000
201705310010002100000000000000114910                8000000000030552816168DURLOCK SA                    000000014928045000000000000000000000000000000000000000000000000000000000000000000000218815000000000000000000000000000000PES00010000001000000000000000000000000000000000000000000                              000000000000000
201705310010002100000000000000114911                8000000000030552816168DURLOCK SA                    000000003584017000000000000000000000000000000000000000000000000000000000000000000000052534000000000000000000000000000000PES00010000001000000000000000000000000000000000000000000                              000000000000000
201705250010002100000000000000114647                8000000000030552816168DURLOCK SA                    000000015637999000000000000000000000000000000000000000000000000000000000000000000000229221000000000000000000000000000000PES00010000001000000000000000000000000000000000000000000                              000000000000000
201705250010002100000000000000114648                8000000000030552816168DURLOCK SA                    000000001636035000000000000000000000000000000000000000000000000000000000000000000000023981000000000000000000000000000000PES00010000001000000000000000000000000000000000000000000                              000000000000000
201706070030002100000000000000036545                8000000000030552816168DURLOCK SA                    000000000037099000000000000000000000000000000000000000000000000000000000000000000000000000000000000000000000000000000000PES00010000001000000000000000000000000000000000000000000                              000000000000000
201706210010002100000000000000115907                8000000000030552816168DURLOCK SA                    000000009886763000000000000000000000000000000000000000000000000000000000000000000000144920000000000000000000000000000000PES00010000001000000000000000000000000000000000000000000                              000000000000000
201706210010002100000000000000115908                8000000000030552816168DURLOCK SA                    000000000332465000000000000000000000000000000000000000000000000000000000000000000000004873000000000000000000000000000000PES00010000001000000000000000000000000000000000000000000                              000000000000000
201707050030002100000000000000037072                8000000000030552816168DURLOCK SA                    000000000740482000000000000000000000000000000000000000000000000000000000000000000000000000000000000000000000000000000000PES00010000001000000000000000000000000000000000000000000                              000000000000000
201707130010007200000000000000016894                8000000000030602764032ECCO SA                       000000000099600000000000000000000000000000000000000000000000000000000000000000000000000000000000000000000000000000000000PES00010000001000000000000000000000000000000000000000000                              000000000000000
201705310030000400000000000000012664                8000000000030688372085ELECTRO MAYO SA               000000000599213000000000000000000000000000000000000000000000000000000000000000000000000000000000000000000000000000000000PES00010000001000000000000000000000000000000000000000000                              000000000000000
201706160010000400000000000000042897                8000000000030688372085ELECTRO MAYO SA               000000000157617000000000000000000000000000000000000000000000000000000000000000000000000000000000000000000000000000000000PES00010000002000000000000000000000000000000000000000000                              000000000000000
201706160010000400000000001111142897                8000000000030688372085ELECTRO MAYO SA               000000000542944000000000000000000000000000000000000000000000000000000000000000000000000000000000000000000000000000000000PES00010000001000000000000000000000000000000000000000000                              000000000000000
201706160010000400000000000000042898                8000000000030688372085ELECTRO MAYO SA               000000000271941000000000000000000000000000000000000000000000000000000000000000000000000000000000000000000000000000000000PES00010000001000000000000000000000000000000000000000000                              000000000000000
201705170010000400000000000000040880                8000000000030688372085ELECTRO MAYO SA               000000000879435000000000000000000000000000000000000000000000000000000000000000000000000000000000000000000000000000000000PES00010000001000000000000000000000000000000000000000000                              000000000000000
201705170010000400000000000000040882                8000000000030688372085ELECTRO MAYO SA               000000000014172000000000000000000000000000000000000000000000000000000000000000000000000000000000000000000000000000000000PES00010000002000000000000000000000000000000000000000000                              000000000000000
201705170010000400000000001111140882                8000000000030688372085ELECTRO MAYO SA               000000000129597000000000000000000000000000000000000000000000000000000000000000000000000000000000000000000000000000000000PES00010000001000000000000000000000000000000000000000000                              000000000000000
201705170010000400000000000000040883                8000000000030688372085ELECTRO MAYO SA               000000000691830000000000000000000000000000000000000000000000000000000000000000000000000000000000000000000000000000000000PES00010000001000000000000000000000000000000000000000000                              000000000000000
201706080010000400000000000000010565                8000000000030675407416FERRETERA DEL NORTE SRL       000000005058874000000000000000000000000000000000000000000000000000000000000000000000063984000000000000000000000000000000PES00010000001000000000000000000000000000000000000000000                              000000000000000
201706280010000400000000000000011067                8000000000030675407416FERRETERA DEL NORTE SRL       000000005371457000000000000000000000000000000000000000000000000000000000000000000000067938000000000000000000000000000000PES00010000001000000000000000000000000000000000000000000                              000000000000000
201706160010000900000000000000365163                8000000000030707297154FERRETERA GENERAL PAZ SRL     000000003409608000000000000000000000000000000000000000000000000000000000000000000000000000000000000000000000000000000000PES00010000001000000000000000000000000000000000000000000                              000000000000000
201705170020000900000000000000007278                8000000000030707297154FERRETERA GENERAL PAZ SRL     000000000018150000000000000000000000000000000000000000000000000000000000000000000000000000000000000000000000000000000000PES00010000001000000000000000000000000000000000000000000                              000000000000000
201706130030000900000000000000135309                8000000000030707297154FERRETERA GENERAL PAZ SRL     000000000011954000000000000000000000000000000000000000000000000000000000000000000000000000000000000000000000000000000000PES00010000001000000000000000000000000000000000000000000                              000000000000000
201706150030000900000000000000135520                8000000000030707297154FERRETERA GENERAL PAZ SRL     000000000608138000000000000000000000000000000000000000000000000000000000000000000000000000000000000000000000000000000000PES00010000001000000000000000000000000000000000000000000                              000000000000000
201705190010001000000000000000041921                8000000000030568731936QUIJA SA                      000000008297824000000000000000000000000000000000000000000000000000000000000000000000233274000000000000000000000000000000PES00010000001000000000000000000000000000000000000000000                              000000000000000
201706140010001000000000000000042470                8000000000030568731936QUIJA SA                      000000000743277000000000000000000000000000000000000000000000000000000000000000000000020895000000000000000000000000000000PES00010000001000000000000000000000000000000000000000000                              000000000000000
201706300010000700000000000000005955                8000000000030526514544INROTS CORPORATION SA         000000031229630000000000000000000000000000000000000000000000000000000000000000000000000000000000000000000000000000000000PES00010000001000000000000000000000000000000000000000000                              000000000000000
201707040030000700000000000000000604                8000000000030526514544INROTS CORPORATION SA         000000001561482000000000000000000000000000000000000000000000000000000000000000000000000000000000000000000000000000000000PES00010000001000000000000000000000000000000000000000000                              000000000000000
201706290010001300000000000000162545                8000000000030523589639IPS SAICYF                    000000000455018000000000000000000000000000000000000000000000000000000000000000000000000000000000000000000000000000000000PES00010000001000000000000000000000000000000000000000000                              000000000000000
201706280010002300000000000000025787                8000000000030523589639IPS SAICYF                    000000000785508000000000000000000000000000000000000000000000000000000000000000000000000000000000000000000000000000000000PES00010000001000000000000000000000000000000000000000000                              000000000000000
201706140010000600000000000000052315                8000000000030589565912NICOLL SA                     000000001316102000000000000000000000000000000000000000000000000000000000000000000000000000000000000000000000000000000000PES00010000001000000000000000000000000000000000000000000                              000000000000000
201706280010000600000000000000052633                8000000000030589565912NICOLL SA                     000000000109701000000000000000000000000000000000000000000000000000000000000000000000000000000000000000000000000000000000PES00010000001000000000000000000000000000000000000000000                              000000000000000
201706220010002300000000000000030393                8000000000030556095597PAREXKLAUKOL SA               000000010679349000000000000000000000000000000000000000251082000000000000000000000000301298000000000000000000000000000000PES00010000001000000000000000000000000000000000000000000                              000000000000000
201705110010002300000000000000029847                8000000000030556095597PAREXKLAUKOL SA               000000009190839000000000000000000000000000000000000000216086000000000000000000000000259303000000000000000000000000000000PES00010000001000000000000000000000000000000000000000000                              000000000000000
201706270010007100000000000000015724                8000000000030644685906SALTA PLAST POLIETILENOS SRL  000000000022246000000000000000000000000000000000000000000000000000000000000000000000000643000000000000000000000000000000PES00010000001000000000000000000000000000000000000000000                              000000000000000
201706300010000600000000000000020692                8000000000030506061357SORRENTO MAQUINARIAS SRL      000000002788445000000000000000000000000000000000000000000000000000000000000000000000000000000000000000000000000000000000PES00010000001000000000000000000000000000000000000000000                              000000000000000
201706160010000200000000000000000337                8000000000030714084425TRANS VEL SRL                 000000001088505000000000000000000000000000000000000000000000000000000000000000000000000000000000000000000000000000000000PES00010000001000000000000000000000000000000000000000000                              000000000000000
201705180010000700000000000000036595                8000000000030700067021TUBONOR SA                    000000000414422000000000000000000000000000000000000000000000000000000000000000000000011974000000000000000000000000000000PES00010000001000000000000000000000000000000000000000000                              000000000000000
201705180010000700000000000000036596                8000000000030700067021TUBONOR SA                    000000000712463000000000000000000000000000000000000000000000000000000000000000000000020585000000000000000000000000000000PES00010000001000000000000000000000000000000000000000000                              000000000000000
201706170010000200000000000000000101                8000000000020323658987AGUSTIN NICOLAS WAYAR         000000000450000000000000000000000000000000000000000000000000000000000000000000000000000000000000000000000000000000000000PES00010000001000000000000000000000000000000000000000000                              000000000000000
201706210010000200000000000000000104                8000000000020323658987AGUSTIN NICOLAS WAYAR         000000000450000000000000000000000000000000000000000000000000000000000000000000000000000000000000000000000000000000000000PES00010000001000000000000000000000000000000000000000000                              000000000000000
201706220010000200000000000000000105                8000000000020323658987AGUSTIN NICOLAS WAYAR         000000000450000000000000000000000000000000000000000000000000000000000000000000000000000000000000000000000000000000000000PES00010000001000000000000000000000000000000000000000000                              000000000000000
201706250010000200000000000000000110                8000000000020323658987AGUSTIN NICOLAS WAYAR         000000000450000000000000000000000000000000000000000000000000000000000000000000000000000000000000000000000000000000000000PES00010000001000000000000000000000000000000000000000000                              000000000000000
201707010010551200000000000002880120                8000000000030678186445TELECOM PERSONAL SA           000000000151257000000000001145000000000000000000000000000000000000000000000000000000000000000000000000000000000000004758PES00010000001000000000000000000000000000000000000000000                              000000000000000
201707010010551200000000000002877810                8000000000030678186445TELECOM PERSONAL SA           000000000271810000000000002104000000000000000000000000006312000000000000000000000000000000000000000000000000000000008367PES00010000002000000000000000000000000000000000000000000                              000000000000000
201707010010551200000000011112877810                8000000000030678186445TELECOM PERSONAL SA           000000000011592000000000000000000000000000000000000000000000000000000000000000000000000000000000000000000000000000000000PES00010000001000000000000000000000000000000000000000000                              000000000000000
201706110010209300000000000007333223                8000000000030678814357TELEFONICA MOVILES ARGENTINA S000000000000071000000000000001000000000000000000000000000000000000000000000000000000000000000000000000000000000000000000PES00010000001000000000000000000000000000000000000000000                              000000000000000
201706180010102200000000000006631960                8000000000030573652084CABLEVISION SA                000000000084050000000000000000000000000000000000000000000000000000000000000000000000000000000000000000000000000000000000PES00010000001000000000000000000000000000000000000000000                              000000000000000
201706180010102200000000000006631851                8000000000030573652084CABLEVISION SA                000000000084050000000000000000000000000000000000000000000000000000000000000000000000000000000000000000000000000000000000PES00010000001000000000000000000000000000000000000000000                              000000000000000
201706180010102200000000000006632676                8000000000030573652084CABLEVISION SA                000000000110370000000000002671000000000000000000000000000000000000000000000000000000000000000000000000000000000000000000PES00010000001000000000000000000000000000000000000000000                              000000000000000
201705300010010100000000000000409633                8000000000030690633635EDESA SA                      000000000167736000000000048542000000000000000000000000000000000000000000000000000000003286000000000000000000000000000000PES00010000001000000000000000000000000000000000000000000                              000000000000000
201706260010010100000000000000419035                8000000000030690633635EDESA SA                      000000000077011000000000029517000000000000000000000000000000000000000000000000000000000301000000000000000000000000000000PES00010000002000000000000000000000000000000000000000000                              000000000000000
201706260010010100000000011111419035                8000000000030690633635EDESA SA                      000000000000006000000000000000000000000000000000000000000000000000000000000000000000000000000000000000000000000000000000PES00010000001000000000000000000000000000000000000000000                              000000000000000
201706210010010100000000000000416283                8000000000030690633635EDESA SA                      000000000085080000000000062882000000000000000000000000000000000000000000000000000000000175000000000000000000000000000000PES00010000001000000000000000000000000000000000000000000                              000000000000000
201706210010010100000000000000416274                8000000000030690633635EDESA SA                      000000000257807000000000088885000000000000000000000000000000000000000000000000000000004656000000000000000000000000000000PES00010000001000000000000000000000000000000000000000000                              000000000000000
201706210010010100000000000000416286                8000000000030690633635EDESA SA                      000000000126463000000000070084000000000000000000000000000000000000000000000000000000001554000000000000000000000000000000PES00010000001000000000000000000000000000000000000000000                              000000000000000
201706210010010100000000000000416258                8000000000030690633635EDESA SA                      000000000534487000000000028621000000000000000000000000000000000000000000000000000000013944000000000000000000000000000000PES00010000001000000000000000000000000000000000000000000                              000000000000000
201706130010810500000000000015828213                8000000000030639453738TELECOM ARGENTINA SA          000000000056322000000000000000000000000000000000000000000000000000000000000000000000000000000000000000000000000000000000PES00010000001000000000000000000000000000000000000000000                              000000000000000
201706130010810500000000000016728081                8000000000030639453738TELECOM ARGENTINA SA          000000000023332000000000000000000000000000000000000000000000000000000000000000000000000000000000000000000000000000000000PES00010000001000000000000000000000000000000000000000000                              000000000000000
201706180010026400000000000000119149                8000000000030501111127HOLCIM SA                     000000054429647000000000000000000000000000000000000001312298000000000000000000000000000000000000000188097000000000000000PES00010000001000000000000000000000000000000000000000000                              000000000000000
201706180010026400000000000000119150                8000000000030501111127HOLCIM SA                     000000007212597000000000000000000000000000000000000000173895000000000000000000000000000000000000000024925000000000000000PES00010000001000000000000000000000000000000000000000000                              000000000000000
201706180030026400000000000000000971                8000000000030501111127HOLCIM SA                     000000001035136000000000000000000000000000000000000000024958000000000000000000000000000000000000000003578000000000000000PES00010000001000000000000000000000000000000000000000000                              000000000000000
201706250010026400000000000000119514                8000000000030501111127HOLCIM SA                     000000021637791000000000000000000000000000000000000000521685000000000000000000000000000000000000000074775000000000000000PES00010000001000000000000000000000000000000000000000000                              000000000000000
201706250010026400000000000000119515                8000000000030501111127HOLCIM SA                     000000079612427000000000000000000000000000000000000001919455000000000000000000000000000000000000000275122000000000000000PES00010000001000000000000000000000000000000000000000000                              000000000000000
201706250030026400000000000000000996                8000000000030501111127HOLCIM SA                     000000000517568000000000000000000000000000000000000000012479000000000000000000000000000000000000000001789000000000000000PES00010000001000000000000000000000000000000000000000000                              000000000000000
201706300010026400000000000000119828                8000000000030501111127HOLCIM SA                     000000023652626000000000000000000000000000000000000000570264000000000000000000000000000000000000000081738000000000000000PES00010000001000000000000000000000000000000000000000000                              000000000000000
201706300010026400000000000000119829                8000000000030501111127HOLCIM SA                     000000021637791000000000000000000000000000000000000000521685000000000000000000000000000000000000000074775000000000000000PES00010000001000000000000000000000000000000000000000000                              000000000000000
201706300030026400000000000000001018                8000000000030501111127HOLCIM SA                     000000001035136000000000000000000000000000000000000000024958000000000000000000000000000000000000000003578000000000000000PES00010000001000000000000000000000000000000000000000000                              000000000000000
201706230010050100000000000000149732                8000000000030500530851LOMA NEGRA CIASA              000000049306621000000000000000000000000000000000000001192902000000000000000000000000000000000000000000000000000000000000PES00010000001000000000000000000000000000000000000000000                              000000000000000
201706300010050100000000000000150160                8000000000030500530851LOMA NEGRA CIASA              000000041088851000000000000000000000000000000000000000994085000000000000000000000000000000000000000000000000000000000000PES00010000001000000000000000000000000000000000000000000                              000000000000000
201706160030050100000000000000064283                8000000000030500530851LOMA NEGRA CIASA              000000001154630000000000000000000000000000000000000000000000000000000000000000000000000000000000000000000000000000000000PES00010000001000000000000000000000000000000000000000000                              000000000000000
201705240010001100000000000000012203                8000000000030563516573SUCESORES DE ROBERTO SAMAN SRL000000000096613000000000000000000000000000000000000000000000000000000000000000000000002413000000000000000000000000000000PES00010000001000000000000000000000000000000000000000000                              000000000000000
201706090010001100000000000000012273                8000000000030563516573SUCESORES DE ROBERTO SAMAN SRL000000000096613000000000000000000000000000000000000000000000000000000000000000000000002413000000000000000000000000000000PES00010000001000000000000000000000000000000000000000000                              000000000000000
201705180010001100000000000000012166                8000000000030563516573SUCESORES DE ROBERTO SAMAN SRL000000000092203000000000000000000000000000000000000000000000000000000000000000000000002303000000000000000000000000000000PES00010000001000000000000000000000000000000000000000000                              000000000000000
201707060010102700000000000000006557                8000000000030501199253ACINDAR INDUSTRIA ARGENTINA DE000000024950103000000000000000000000000000000000000000600724000000000000000000000000000000000000000120144000000000000000PES00010000001000000000000000000000000000000000000000000                              000000000000000
