201607310010000100000000000020160701                8000000000030500010084BANCO MACRO                   000000000036651000000000000000000000000000000000000000000000000000000000000000000000000000000000000000000000000000000000PES00010000001000000000000000000000000000000000000000000                              000000000000000
201607310010000100000000000020160702                8000000000030500010084BANCO MACRO                   000000000001101000000000000000000000000000000000000000000000000000000000000000000000000000000000000000000000000000000000PES00010000001000000000000000000000000000000000000000000                              000000000000000
201607310010000100000000000020160703                8000000000030500010084BANCO MACRO                   000000000761956000000000000000000000000000000000000000018000000000000000000000000000000000000000000000000000000000000000PES00010000001000000000000000000000000000000000000000000                              000000000000000
201607310010000100000000000020160704                8000000000030500008454BANCO SANTANDER RIO           000000000000097000000000000000000000000000000000000000000000000000000000000000000000000000000000000000000000000000000000PES00010000001000000000000000000000000000000000000000000                              000000000000000
201607050010001700000000000000007876                8000000000030533493560CORRALON ACONQUIJA SRL        000000000784000000000000000000000000000000000000000000000000000000000000000000000000000000000000000000000000000000000000PES00010000001000000000000000000000000000000000000000000                              000000000000000
201606300010001700000000000000007855                8000000000030533493560CORRALON ACONQUIJA SRL        000000000042778000000000000000000000000000000000000000000000000000000000000000000000000000000000000000000000000000000000PES00010000001000000000000000000000000000000000000000000                              000000000000000
201606300010001700000000000000007854                8000000000030533493560CORRALON ACONQUIJA SRL        000000000017102000000000000000000000000000000000000000000000000000000000000000000000000000000000000000000000000000000000PES00010000001000000000000000000000000000000000000000000                              000000000000000
201605190010001700000000000000007654                8000000000030533493560CORRALON ACONQUIJA SRL        000000000246200000000000000000000000000000000000000000000000000000000000000000000000000000000000000000000000000000000000PES00010000001000000000000000000000000000000000000000000                              000000000000000
201608010010001700000000000000008032                8000000000030533493560CORRALON ACONQUIJA SRL        000000001450000000000000000000000000000000000000000000000000000000000000000000000000000000000000000000000000000000000000PES00010000001000000000000000000000000000000000000000000                              000000000000000
201605280010000400000000000000004560                8000000000020104513825HECTOR H MAESTRO              000000000020699000000000000000000000000000000000000000000000000000000000000000000000000000000000000000000000000000000000PES00010000001000000000000000000000000000000000000000000                              000000000000000
201606030010000400000000000000004640                8000000000020104513825HECTOR H MAESTRO              000000000006899000000000000000000000000000000000000000000000000000000000000000000000000000000000000000000000000000000000PES00010000001000000000000000000000000000000000000000000                              000000000000000
201606290010000400000000000000005051                8000000000020104513825HECTOR H MAESTRO              000000000052655000000000000000000000000000000000000000000000000000000000000000000000000000000000000000000000000000000000PES00010000001000000000000000000000000000000000000000000                              000000000000000
201606220010000400000000000000004898                8000000000020104513825HECTOR H MAESTRO              000000000016708000000000000000000000000000000000000000000000000000000000000000000000000000000000000000000000000000000000PES00010000001000000000000000000000000000000000000000000                              000000000000000
201606210010000400000000000000004873                8000000000020104513825HECTOR H MAESTRO              000000000134894000000000000000000000000000000000000000000000000000000000000000000000000000000000000000000000000000000000PES00010000001000000000000000000000000000000000000000000                              000000000000000
201607070010000400000000000000005215                8000000000020104513825HECTOR H MAESTRO              000000000126796000000000000000000000000000000000000000000000000000000000000000000000000000000000000000000000000000000000PES00010000001000000000000000000000000000000000000000000                              000000000000000
201601180010000200000000000000014664                8000000000030713045000PREVENCION SALUD SA           000000000091190000000000000000000000000000000000000000000000000000000000000000000000000000000000000000000000000000000000PES00010000001000000000000000000000000000000000000000000                              000000000000000
201601180010000200000000000000014665                8000000000030713045000PREVENCION SALUD SA           000000000091190000000000000000000000000000000000000000000000000000000000000000000000000000000000000000000000000000000000PES00010000001000000000000000000000000000000000000000000                              000000000000000
201602170010000200000000000000014224                8000000000030713045000PREVENCION SALUD SA           000000000107604000000000000000000000000000000000000000000000000000000000000000000000000000000000000000000000000000000000PES00010000001000000000000000000000000000000000000000000                              000000000000000
201608200010000700000000000000022839                8000000000030700067021TUBONOR SA                    000000000098834000000000000000000000000000000000000000000000000000000000000000000000001210000000000000000000000000000000PES00010000001000000000000000000000000000000000000000000                              000000000000000
201607290010010100000000000000296765                8000000000030690633635EDESA SA                      000000000148017000000000061191000000000000000000000000000000000000000000000000000000002393000000000000000000000000000000PES00010000001000000000000000000000000000000000000000000                              000000000000000
201607070010002000000000000000017175                8000000000030578654182BP SA                         000000000225006000000000000000000000000000000000000000000000000000000000000000000000000000000000000000000000000000000000PES00010000001000000000000000000000000000000000000000000                              000000000000000
201605090010001400000000000000000825                8000000000030690646184HORACIO PUSSETTO SA           000000000644900000000000000000000000000000000000000000000000000000000000000000000000000000000000000000000000000000000000PES00010000001000000000000000000000000000000000000000000                              000000000000000
201608080010003200000000000000008186                8000000000020044174902REIDY ROBERTO GABRIEL         000000002871330000000000000000000000000000000000000000000000000000000000000000000000000000000000000000000000000000000000PES00010000001000000000000000000000000000000000000000000                              000000000000000
201606200010001500000000000000024899                8000000000030543365846ESTACION DE SERVICIO FLORENCIA000000000045000000000000008402000000000000000000000000000000000000000000000000000000000000000000000000000000000000000000PES00010000001000000000000000000000000000000000000000000                              000000000000000
201607220010001400000000000000030172                8000000000030543365846ESTACION DE SERVICIO FLORENCIA000000000055025000000000010274000000000000000000000000000000000000000000000000000000000000000000000000000000000000000000PES00010000001000000000000000000000000000000000000000000                              000000000000000
201606030010001400000000000000027901                8000000000030543365846ESTACION DE SERVICIO FLORENCIA000000000030000000000000004386000000000000000000000000000000000000000000000000000000000000000000000000000000000000000000PES00010000001000000000000000000000000000000000000000000                              000000000000000
201605050010001400000000000000015166                8000000000030707746188MAGNETO SRL                   000000000010000000000000002191000000000000000000000000000000000000000000000000000000000000000000000000000000000000000000PES00010000001000000000000000000000000000000000000000000                              000000000000000
201604070010001500000000000000068409                8000000000030707746188MAGNETO SRL                   000000000015000000000000000191000000000000000000000000000000000000000000000000000000000000000000000000000000000000000000PES00010000001000000000000000000000000000000000000000000                              000000000000000
201606030010000800000000000000051664                8000000000030690670514SERVI GAS SRL                 000000000020000000000000003501000000000000000000000000000000000000000000000000000000000000000000000000000000000000000000PES00010000001000000000000000000000000000000000000000000                              000000000000000
201605040010000800000000000000048859                8000000000030690670514SERVI GAS SRL                 000000000010000000000000001751000000000000000000000000000000000000000000000000000000000000000000000000000000000000000000PES00010000001000000000000000000000000000000000000000000                              000000000000000
201605100010000800000000000000049329                8000000000030690670514SERVI GAS SRL                 000000000020000000000000003501000000000000000000000000000000000000000000000000000000000000000000000000000000000000000000PES00010000001000000000000000000000000000000000000000000                              000000000000000
201607140010000900000000000000001897                8000000000030690670514SERVI GAS SRL                 000000000020000000000000003501000000000000000000000000000000000000000000000000000000000000000000000000000000000000000000PES00010000001000000000000000000000000000000000000000000                              000000000000000
201605170010000800000000000000050007                8000000000030690670514SERVI GAS SRL                 000000000020000000000000003501000000000000000000000000000000000000000000000000000000000000000000000000000000000000000000PES00010000001000000000000000000000000000000000000000000                              000000000000000
201606080010000800000000000000052094                8000000000030690670514SERVI GAS SRL                 000000000020000000000000003501000000000000000000000000000000000000000000000000000000000000000000000000000000000000000000PES00010000001000000000000000000000000000000000000000000                              000000000000000
201605110010000800000000000000049489                8000000000030690670514SERVI GAS SRL                 000000000010000000000000001751000000000000000000000000000000000000000000000000000000000000000000000000000000000000000000PES00010000001000000000000000000000000000000000000000000                              000000000000000
201605120010000800000000000000049593                8000000000030690670514SERVI GAS SRL                 000000000010000000000000001751000000000000000000000000000000000000000000000000000000000000000000000000000000000000000000PES00010000001000000000000000000000000000000000000000000                              000000000000000
201605060010002100000000000000010843                8000000000030700078287SERVISUR SRL                  000000000010000000000000002191000000000000000000000000000000000000000000000000000000000000000000000000000000000000000000PES00010000001000000000000000000000000000000000000000000                              000000000000000
201605180010002100000000000000011323                8000000000030700078287SERVISUR SRL                  000000000050000000000000010952000000000000000000000000000000000000000000000000000000000000000000000000000000000000000000PES00010000001000000000000000000000000000000000000000000                              000000000000000
201606070010003400000000000000007973                8000000000030644226359ESTACION DE SERVICIO EL CHANGO000000000010000000000000001957000000000000000000000000000000000000000000000000000000000000000000000000000000000000000000PES00010000001000000000000000000000000000000000000000000                              000000000000000
201602180010000700000000000000040961                8000000000030709293083SERVINORTE LOS NIETOS SRL     000000000030000000000000005732000000000000000000000000000000000000000000000000000000000000000000000000000000000000000000PES00010000001000000000000000000000000000000000000000000                              000000000000000
201605270010004100000000000000155794                8000000000030690658263GEMINIS SA                    000000000010000000000000002345000000000000000000000000000000000000000000000000000000000000000000000000000000000000000000PES00010000001000000000000000000000000000000000000000000                              000000000000000
201603220010000700000000000000038291                8000000000030708530294AMARU SRL                     000000000038018000000000004184000000000000000000000000000000000000000000000000000000000000000000000000000000000000000000PES00010000001000000000000000000000000000000000000000000                              000000000000000
201607210010000400000000000000005463                8000000000020104513825HECTOR H MAESTRO              000000000194253000000000000000000000000000000000000000000000000000000000000000000000000000000000000000000000000000000000PES00010000001000000000000000000000000000000000000000000                              000000000000000
201608260010000400000000000000006151                8000000000020104513825HECTOR H MAESTRO              000000000010486000000000000000000000000000000000000000000000000000000000000000000000000000000000000000000000000000000000PES00010000001000000000000000000000000000000000000000000                              000000000000000
201608240010000400000000000000006069                8000000000020104513825HECTOR H MAESTRO              000000000041426000000000000000000000000000000000000000000000000000000000000000000000000000000000000000000000000000000000PES00010000001000000000000000000000000000000000000000000                              000000000000000
201608240010000400000000000000006061                8000000000020104513825HECTOR H MAESTRO              000000000050379000000000000000000000000000000000000000000000000000000000000000000000000000000000000000000000000000000000PES00010000001000000000000000000000000000000000000000000                              000000000000000
201608170010000400000000000000005924                8000000000020104513825HECTOR H MAESTRO              000000000196612000000000000000000000000000000000000000000000000000000000000000000000000000000000000000000000000000000000PES00010000001000000000000000000000000000000000000000000                              000000000000000
201607210010000400000000000000005469                8000000000020104513825HECTOR H MAESTRO              000000000374296000000000000000000000000000000000000000000000000000000000000000000000000000000000000000000000000000000000PES00010000001000000000000000000000000000000000000000000                              000000000000000
201608120010000400000000000000005867                8000000000020104513825HECTOR H MAESTRO              000000000395425000000000000000000000000000000000000000000000000000000000000000000000000000000000000000000000000000000000PES00010000001000000000000000000000000000000000000000000                              000000000000000
201607130010000400000000000000005291                8000000000020104513825HECTOR H MAESTRO              000000000078254000000000000000000000000000000000000000000000000000000000000000000000000000000000000000000000000000000000PES00010000001000000000000000000000000000000000000000000                              000000000000000
201607130010000400000000000000005292                8000000000020104513825HECTOR H MAESTRO              000000000081949000000000000000000000000000000000000000000000000000000000000000000000000000000000000000000000000000000000PES00010000001000000000000000000000000000000000000000000                              000000000000000
201607130010000400000000000000005295                8000000000020104513825HECTOR H MAESTRO              000000000128428000000000000000000000000000000000000000000000000000000000000000000000000000000000000000000000000000000000PES00010000001000000000000000000000000000000000000000000                              000000000000000
201608100010000700000000000000034347                8000000000030690674641NIVEL SEGUROS SA              000000000019648000000000000288000000000000000000000000000000000000000000000000000000000000000000000000000000000000000000PES00010000001000000000000000000000000000000000000000000                              000000000000000
201608100010000700000000000000034348                8000000000030690674641NIVEL SEGUROS SA              000000000019648000000000000288000000000000000000000000000000000000000000000000000000000000000000000000000000000000000000PES00010000001000000000000000000000000000000000000000000                              000000000000000
201608100010000700000000000000034318                8000000000030690674641NIVEL SEGUROS SA              000000000019648000000000000288000000000000000000000000000000000000000000000000000000000000000000000000000000000000000000PES00010000001000000000000000000000000000000000000000000                              000000000000000
201608100010000700000000000000034310                8000000000030690674641NIVEL SEGUROS SA              000000000019648000000000000288000000000000000000000000000000000000000000000000000000000000000000000000000000000000000000PES00010000001000000000000000000000000000000000000000000                              000000000000000
201608100010000700000000000000034293                8000000000030690674641NIVEL SEGUROS SA              000000000019648000000000000288000000000000000000000000000000000000000000000000000000000000000000000000000000000000000000PES00010000001000000000000000000000000000000000000000000                              000000000000000
201608250010000700000000000000023572                8000000000030533493560CORRALON ACONQUIJA SRL        000000000031000000000000000750000000000000000000000000000000000000000000000000000000000000000000000000000000000000000000PES00010000001000000000000000000000000000000000000000000                              000000000000000
201608230010001700000000000000008122                8000000000030533493560CORRALON ACONQUIJA SRL        000000000151750000000000000000000000000000000000000000000000000000000000000000000000000000000000000000000000000000000000PES00010000001000000000000000000000000000000000000000000                              000000000000000
201608230010001700000000000000008119                8000000000030533493560CORRALON ACONQUIJA SRL        000000000182700000000000000000000000000000000000000000000000000000000000000000000000000000000000000000000000000000000000PES00010000001000000000000000000000000000000000000000000                              000000000000000
201608120010188100000000000000013766                8000000000030590360763CENCOSUD SA                   000000001238801000000000000000000000000000000000000000029971000000000000000000000000000000000000000000000000000000000000PES00010000001000000000000000000000000000000000000000000                              000000000000000
201608110010188800000000000000022208                8000000000030590360763CENCOSUD SA                   000000000383587000000000000000000000000000000000000000005137000000000000000000000000000000000000000000000000000000000000PES00010000001000000000000000000000000000000000000000000                              000000000000000
201607210010188500000000000000023225                8000000000030590360763CENCOSUD SA                   000000000077940000000000000000000000000000000000000000000000000000000000000000000000000000000000000000000000000000000000PES00010000001000000000000000000000000000000000000000000                              000000000000000
201608080010000300000000000000002950                8000000000030712377425RENOSALTA SRL                 000000000240000000000000000000000000000000000000000000000000000000000000000000000000000000000000000000000000000000000000PES00010000001000000000000000000000000000000000000000000                              000000000000000
