201608010060000200000000000000000174000000000000000001749600000000000002838734LOPEZ JORDAN MARIA TERESA DEL 000000000039600000000000000000000000000000000000000000000000000000000000000000000000000000000000000000000000000000000000PES00010000001000000000000000000000000
201608010060000200000000000000000175000000000000000001759600000000000024138868ROYON ARIANA CECILIA          000000000049700000000000000000000000000000000000000000000000000000000000000000000000000000000000000000000000000000000000PES00010000001000000000000000000000000
201608020060000200000000000000000176000000000000000001769900000000000000000000                              000000000031800000000000000000000000000000000000000000000000000000000000000000000000000000000000000000000000000000000000PES00010000001000000000000000000000000
201608020060000200000000000000000177000000000000000001779600000000000028543954ZUVELSA AVILA MARIA LAURA     000000000033000000000000000000000000000000000000000000000000000000000000000000000000000000000000000000000000000000000000PES00010000001000000000000000000000000
201608020060000200000000000000000178000000000000000001789600000000000028543953ARAMAYO GARCIA LAURA INES     000000000009000000000000000000000000000000000000000000000000000000000000000000000000000000000000000000000000000000000000PES00010000001000000000000000000000000
201608030060000200000000000000000179000000000000000001799600000000000012220416MENDEZ MARIA CRISTINA         000000000052300000000000000000000000000000000000000000000000000000000000000000000000000000000000000000000000000000000000PES00010000001000000000000000000000000
201608030060000200000000000000000180000000000000000001809600000000000012851516ABATE MONICA GRACIELA         000000000050000000000000000000000000000000000000000000000000000000000000000000000000000000000000000000000000000000000000PES00010000001000000000000000000000000
201608030060000200000000000000000181000000000000000001819600000000000092956496MARSCHALL EVELYN CHARLOTT     000000000031800000000000000000000000000000000000000000000000000000000000000000000000000000000000000000000000000000000000PES00010000001000000000000000000000000
201608030060000200000000000000000182000000000000000001829600000000000012790854SARAVIA ROSAURA LILIANA       000000000051200000000000000000000000000000000000000000000000000000000000000000000000000000000000000000000000000000000000PES00010000001000000000000000000000000
201608030060000200000000000000000183000000000000000001839600000000000028543861VARG VALERIA ALEJANDRA        000000000053500000000000000000000000000000000000000000000000000000000000000000000000000000000000000000000000000000000000PES00010000001000000000000000000000000
201608040060000200000000000000000184000000000000000001849900000000000000000000                              000000000046900000000000000000000000000000000000000000000000000000000000000000000000000000000000000000000000000000000000PES00010000001000000000000000000000000
201608040060000200000000000000000185000000000000000001859600000000000038276791MAITA FEDERICO NICOLAS        000000000078200000000000000000000000000000000000000000000000000000000000000000000000000000000000000000000000000000000000PES00010000001000000000000000000000000
201608040060000200000000000000000186000000000000000001869600000000000027552503BARBOZA LAURA MARIA DE LOS ANG000000000091600000000000000000000000000000000000000000000000000000000000000000000000000000000000000000000000000000000000PES00010000001000000000000000000000000
201608040060000200000000000000000187000000000000000001879600000000000004640635RODRIGUEZ GIL EVANGELISTA     000000000041300000000000000000000000000000000000000000000000000000000000000000000000000000000000000000000000000000000000PES00010000001000000000000000000000000
201608050060000200000000000000000188000000000000000001889600000000000031733819MEDINA NATALIA DEL ROSARIO    000000000071800000000000000000000000000000000000000000000000000000000000000000000000000000000000000000000000000000000000PES00010000001000000000000000000000000
201608050060000200000000000000000189000000000000000001899600000000000032537234SERRANO DANIELA SOLEDAD       000000000049800000000000000000000000000000000000000000000000000000000000000000000000000000000000000000000000000000000000PES00010000001000000000000000000000000
201608050060000200000000000000000190000000000000000001909600000000000020232407HESSLING MARIA MARCELA        000000000050000000000000000000000000000000000000000000000000000000000000000000000000000000000000000000000000000000000000PES00010000001000000000000000000000000
201608050060000200000000000000000191000000000000000001919600000000000020232407HESSLING MARIA MARCELA        000000000051800000000000000000000000000000000000000000000000000000000000000000000000000000000000000000000000000000000000PES00010000001000000000000000000000000
201608060060000200000000000000000192000000000000000001929600000000000022785727FUENZALIDA SANDRA DELIA MARIEL000000000067200000000000000000000000000000000000000000000000000000000000000000000000000000000000000000000000000000000000PES00010000001000000000000000000000000
201608060060000200000000000000000193000000000000000001939900000000000000000000                              000000000024900000000000000000000000000000000000000000000000000000000000000000000000000000000000000000000000000000000000PES00010000001000000000000000000000000
201608060060000200000000000000000194000000000000000001949900000000000000000000                              000000000077800000000000000000000000000000000000000000000000000000000000000000000000000000000000000000000000000000000000PES00010000001000000000000000000000000
201608060060000200000000000000000195000000000000000001959600000000000026427614MACEDO FERNANDEZ ANA VIRGINIA 000000000040000000000000000000000000000000000000000000000000000000000000000000000000000000000000000000000000000000000000PES00010000001000000000000000000000000
201608060060000200000000000000000196000000000000000001969600000000000026427614MACEDO FERNANDEZ ANA VIRGINIA 000000000060000000000000000000000000000000000000000000000000000000000000000000000000000000000000000000000000000000000000PES00010000001000000000000000000000000
201608080060000200000000000000000197000000000000000001979600000000000025884779MARTINEZ ELEONORA ANALIA      000000000039800000000000000000000000000000000000000000000000000000000000000000000000000000000000000000000000000000000000PES00010000001000000000000000000000000
201608080060000200000000000000000198000000000000000001989600000000000036229631MOYANO YOLANDA ELIZABETH      000000000091500000000000000000000000000000000000000000000000000000000000000000000000000000000000000000000000000000000000PES00010000001000000000000000000000000
201608090060000200000000000000000199000000000000000001999600000000000016000452ARANDA MARIA MARTA DEL MILAGRO000000000031900000000000000000000000000000000000000000000000000000000000000000000000000000000000000000000000000000000000PES00010000001000000000000000000000000
201608100060000200000000000000000200000000000000000002009600000000000025411216FERNANDEZ GUADALUPE DEL VALLE 000000000012300000000000000000000000000000000000000000000000000000000000000000000000000000000000000000000000000000000000PES00010000001000000000000000000000000
201608120060000200000000000000000201000000000000000002019900000000000000000000                              000000000023000000000000000000000000000000000000000000000000000000000000000000000000000000000000000000000000000000000000PES00010000001000000000000000000000000
201608120060000200000000000000000202000000000000000002029600000000000010004889ANGEL NILDA ISABEL            000000000088000000000000000000000000000000000000000000000000000000000000000000000000000000000000000000000000000000000000PES00010000001000000000000000000000000
201608120060000200000000000000000203000000000000000002039600000000000029335924HERRERA VALERIA PAMELA        000000000073200000000000000000000000000000000000000000000000000000000000000000000000000000000000000000000000000000000000PES00010000001000000000000000000000000
201608120060000200000000000000000204000000000000000002049600000000000030384098GUTIERREZ MARIANELA DEL VALLE 000000000077000000000000000000000000000000000000000000000000000000000000000000000000000000000000000000000000000000000000PES00010000001000000000000000000000000
201608120060000200000000000000000205000000000000000002059600000000000021634606LOPEZ SONIA LILIANA           000000000068100000000000000000000000000000000000000000000000000000000000000000000000000000000000000000000000000000000000PES00010000001000000000000000000000000
201608120060000200000000000000000206000000000000000002069600000000000025718061SCHAFER SARA ANDREA           000000000066500000000000000000000000000000000000000000000000000000000000000000000000000000000000000000000000000000000000PES00010000001000000000000000000000000
201608120060000200000000000000000207000000000000000002079600000000000028633048RENFIJE GALAN OLGA BEATRIZ    000000000130500000000000000000000000000000000000000000000000000000000000000000000000000000000000000000000000000000000000PES00010000001000000000000000000000000
201608120060000200000000000000000208000000000000000002089600000000000025218580BORELLI SILVINA BEATRIZ       000000000177700000000000000000000000000000000000000000000000000000000000000000000000000000000000000000000000000000000000PES00010000001000000000000000000000000
201608120060000200000000000000000209000000000000000002099600000000000028687777AYARDE ALDO DANIEL            000000000090800000000000000000000000000000000000000000000000000000000000000000000000000000000000000000000000000000000000PES00010000001000000000000000000000000
201608120060000200000000000000000210000000000000000002109600000000000020707424MARTINEZ SAICHA MARIA DOLORES 000000000049900000000000000000000000000000000000000000000000000000000000000000000000000000000000000000000000000000000000PES00010000001000000000000000000000000
201608120060000200000000000000000211000000000000000002119600000000000030973110ALANIS GUADALUPE DEL CARMEN   000000000067500000000000000000000000000000000000000000000000000000000000000000000000000000000000000000000000000000000000PES00010000001000000000000000000000000
201608120060000200000000000000000212000000000000000002129900000000000000000000                              000000000087000000000000000000000000000000000000000000000000000000000000000000000000000000000000000000000000000000000000PES00010000001000000000000000000000000
201608120060000200000000000000000213000000000000000002139600000000000036803280MOLLINEDO RUIZ CESAR AGUSTIN  000000000192400000000000000000000000000000000000000000000000000000000000000000000000000000000000000000000000000000000000PES00010000001000000000000000000000000
201608130060000200000000000000000214000000000000000002149600000000000031193255COLL ARAOZ PAULA              000000000026000000000000000000000000000000000000000000000000000000000000000000000000000000000000000000000000000000000000PES00010000001000000000000000000000000
201608130060000200000000000000000215000000000000000002159600000000000031436761GOMEZ JUANA XIMENA            000000000118700000000000000000000000000000000000000000000000000000000000000000000000000000000000000000000000000000000000PES00010000001000000000000000000000000
201608130060000200000000000000000216000000000000000002169600000000000018825853CALVO MOSCOSO MARIA PATRICIA  000000000149300000000000000000000000000000000000000000000000000000000000000000000000000000000000000000000000000000000000PES00010000001000000000000000000000000
201608130060000200000000000000000217000000000000000002179600000000000025802304LEAL ALVIZ THELMA CAROLINA    000000000038000000000000000000000000000000000000000000000000000000000000000000000000000000000000000000000000000000000000PES00010000001000000000000000000000000
201608160060000200000000000000000218000000000000000002189600000000000032347318DIAZ ANDREA JORGELINA         000000000073500000000000000000000000000000000000000000000000000000000000000000000000000000000000000000000000000000000000PES00010000001000000000000000000000000
201608160060000200000000000000000219000000000000000002198000000000023051279344HERNANDEZ CARMEN BEATRIS      000000000046900000000000000000000000000000000000000000000000000000000000000000000000000000000000000000000000000000000000PES00010000001000000000000000000000000
201608160060000200000000000000000220000000000000000002208000000000027297386714COLLAR MARCELA NATALIA        000000000029900000000000000000000000000000000000000000000000000000000000000000000000000000000000000000000000000000000000PES00010000001000000000000000000000000
201608170060000200000000000000000221000000000000000002218000000000027127123018CANEPA LUCIA                  000000000114300000000000000000000000000000000000000000000000000000000000000000000000000000000000000000000000000000000000PES00010000001000000000000000000000000
201608170060000200000000000000000222000000000000000002229900000000000000000000                              000000000055300000000000000000000000000000000000000000000000000000000000000000000000000000000000000000000000000000000000PES00010000001000000000000000000000000
201608180060000200000000000000000223000000000000000002239600000000000036802789MARTINEZ PORTAL ROCIO MAGALI  000000000053900000000000000000000000000000000000000000000000000000000000000000000000000000000000000000000000000000000000PES00010000001000000000000000000000000
201608180060000200000000000000000224000000000000000002249600000000000022146583ARAMAYO ORTIZ MARIA PILAR     000000000025000000000000000000000000000000000000000000000000000000000000000000000000000000000000000000000000000000000000PES00010000001000000000000000000000000
201608180060000200000000000000000225000000000000000002259600000000000024464737CARDOZO VALERIA MARIELA       000000000077300000000000000000000000000000000000000000000000000000000000000000000000000000000000000000000000000000000000PES00010000001000000000000000000000000
201608180060000200000000000000000226000000000000000002269600000000000024697889SALVADORES MARIA INES         000000000056300000000000000000000000000000000000000000000000000000000000000000000000000000000000000000000000000000000000PES00010000001000000000000000000000000
201608190060000200000000000000000227000000000000000002278000000000023051279344HERNANDEZ CARMEN BEATRIS      000000000108600000000000000000000000000000000000000000000000000000000000000000000000000000000000000000000000000000000000PES00010000001000000000000000000000000
201608190060000200000000000000000228000000000000000002289600000000000025801472VILLANUEVA VALERIA NELIDA     000000000108700000000000000000000000000000000000000000000000000000000000000000000000000000000000000000000000000000000000PES00010000001000000000000000000000000
201608190060000200000000000000000229000000000000000002299600000000000007248076gomez, luciano marcos         000000000123500000000000000000000000000000000000000000000000000000000000000000000000000000000000000000000000000000000000PES00010000001000000000000000000000000
201608190060000200000000000000000230000000000000000002309600000000000025761662BRACAMONTE GUADALUPE MARIA    000000000046100000000000000000000000000000000000000000000000000000000000000000000000000000000000000000000000000000000000PES00010000001000000000000000000000000
201608190060000200000000000000000231000000000000000002319600000000000026475589SINGH VERONICA CRISTINA       000000000037700000000000000000000000000000000000000000000000000000000000000000000000000000000000000000000000000000000000PES00010000001000000000000000000000000
201608190060000200000000000000000232000000000000000002329600000000000033885471SANCHEZ EMILIA NATALI         000000000111400000000000000000000000000000000000000000000000000000000000000000000000000000000000000000000000000000000000PES00010000001000000000000000000000000
201608200060000200000000000000000233000000000000000002339600000000000011656719MONARDEZ MARIA EVA            000000000036300000000000000000000000000000000000000000000000000000000000000000000000000000000000000000000000000000000000PES00010000001000000000000000000000000
201608200060000200000000000000000234000000000000000002349600000000000027904960VERA CINTIA CRISTINA          000000000035500000000000000000000000000000000000000000000000000000000000000000000000000000000000000000000000000000000000PES00010000001000000000000000000000000
201608200060000200000000000000000235000000000000000002359600000000000025212134ROMANO MARIA LUISA            000000000054500000000000000000000000000000000000000000000000000000000000000000000000000000000000000000000000000000000000PES00010000001000000000000000000000000
201608200060000200000000000000000236000000000000000002369600000000000033046041CHILIGUAY BERNIA ROCIO MARIA  000000000119200000000000000000000000000000000000000000000000000000000000000000000000000000000000000000000000000000000000PES00010000001000000000000000000000000
201608200060000200000000000000000237000000000000000002379900000000000000000000                              000000000033500000000000000000000000000000000000000000000000000000000000000000000000000000000000000000000000000000000000PES00010000001000000000000000000000000
201608200060000200000000000000000238000000000000000002389600000000000022000048HERRERA NORMA DEL VALLE       000000000044600000000000000000000000000000000000000000000000000000000000000000000000000000000000000000000000000000000000PES00010000001000000000000000000000000
201608200060000200000000000000000239000000000000000002398000000000027049217418TARITOLAY ROSARIO             000000000068000000000000000000000000000000000000000000000000000000000000000000000000000000000000000000000000000000000000PES00010000001000000000000000000000000
201608220060000200000000000000000240000000000000000002409600000000000013640916GUTIERREZ VIOLETA DEL CARMEN  000000000023800000000000000000000000000000000000000000000000000000000000000000000000000000000000000000000000000000000000PES00010000001000000000000000000000000
201608220060000200000000000000000241000000000000000002419600000000000011189961GOGENOLA ANA MARIA            000000000054400000000000000000000000000000000000000000000000000000000000000000000000000000000000000000000000000000000000PES00010000001000000000000000000000000
201608220060000200000000000000000242000000000000000002429600000000000032267921BRUZZONE EMMANUEL OMAR        000000000081500000000000000000000000000000000000000000000000000000000000000000000000000000000000000000000000000000000000PES00010000001000000000000000000000000
201608240060000200000000000000000243000000000000000002439600000000000028027014UBALLES CHACON DORR MARIA LUZ 000000000015000000000000000000000000000000000000000000000000000000000000000000000000000000000000000000000000000000000000PES00010000001000000000000000000000000
201608240060000200000000000000000244000000000000000002449600000000000026833200HUM MONICA REGINA LEONOR      000000000566500000000000000000000000000000000000000000000000000000000000000000000000000000000000000000000000000000000000PES00010000001000000000000000000000000
201608240060000200000000000000000245000000000000000002459600000000000029737477FERNANDEZ OLIVER MARIA CAROLIN000000000061000000000000000000000000000000000000000000000000000000000000000000000000000000000000000000000000000000000000PES00010000001000000000000000000000000
201608250060000200000000000000000246000000000000000002469600000000000030322311ALBERTINI NICOLAS ARIEL       000000000043100000000000000000000000000000000000000000000000000000000000000000000000000000000000000000000000000000000000PES00010000001000000000000000000000000
201608250060000200000000000000000247000000000000000002479600000000000031093197GONZALEZ ROFFO MARIA DE LOS AN000000000089500000000000000000000000000000000000000000000000000000000000000000000000000000000000000000000000000000000000PES00010000001000000000000000000000000
201608250060000200000000000000000248000000000000000002489600000000000011283705MACHADO MARIA TERESA          000000000086200000000000000000000000000000000000000000000000000000000000000000000000000000000000000000000000000000000000PES00010000001000000000000000000000000
201608250060000200000000000000000249000000000000000002499600000000000035778297ARAMAYO FERNANDO JOSE ISMAEL  000000000062500000000000000000000000000000000000000000000000000000000000000000000000000000000000000000000000000000000000PES00010000001000000000000000000000000
201608250060000200000000000000000250000000000000000002509600000000000014176958ALBERTI GRACIELA DEL VALLE    000000000041800000000000000000000000000000000000000000000000000000000000000000000000000000000000000000000000000000000000PES00010000001000000000000000000000000
201608260060000200000000000000000251000000000000000002519900000000000000000000                              000000000041000000000000000000000000000000000000000000000000000000000000000000000000000000000000000000000000000000000000PES00010000001000000000000000000000000
201608260060000200000000000000000252000000000000000002529900000000000000000000                              000000000054700000000000000000000000000000000000000000000000000000000000000000000000000000000000000000000000000000000000PES00010000001000000000000000000000000
201608260060000200000000000000000253000000000000000002539600000000000031338097VIEYRA MARTINEZ TERESA        000000000015400000000000000000000000000000000000000000000000000000000000000000000000000000000000000000000000000000000000PES00010000001000000000000000000000000
201608260060000200000000000000000254000000000000000002549900000000000000000000                              000000000085400000000000000000000000000000000000000000000000000000000000000000000000000000000000000000000000000000000000PES00010000001000000000000000000000000
201608270060000200000000000000000255000000000000000002559600000000000024376272CABRERA LLAGUNO FERNANDA MAGAL000000000220000000000000000000000000000000000000000000000000000000000000000000000000000000000000000000000000000000000000PES00010000001000000000000000000000000
201608270060000200000000000000000256000000000000000002569600000000000028633541JIMENEZI INES DE LOS ANGELES  000000000085900000000000000000000000000000000000000000000000000000000000000000000000000000000000000000000000000000000000PES00010000001000000000000000000000000
201608270060000200000000000000000257000000000000000002579600000000000011979861KOHLER NILDA IRENE            000000000046000000000000000000000000000000000000000000000000000000000000000000000000000000000000000000000000000000000000PES00010000001000000000000000000000000
201608290060000200000000000000000258000000000000000002589600000000000011494778PADILLA DELIA MIRTA           000000000039000000000000000000000000000000000000000000000000000000000000000000000000000000000000000000000000000000000000PES00010000001000000000000000000000000
201608290060000200000000000000000259000000000000000002599600000000000027327645SARACHO ARRIAGA VIRGINIA ALICI000000000017800000000000000000000000000000000000000000000000000000000000000000000000000000000000000000000000000000000000PES00010000001000000000000000000000000
201608300060000200000000000000000260000000000000000002609600000000000033994861FLORES JUAN IGNACIO           000000000042400000000000000000000000000000000000000000000000000000000000000000000000000000000000000000000000000000000000PES00010000001000000000000000000000000
201608300060000200000000000000000261000000000000000002619600000000000036924524LUDUEÑA ANDREA CAROLINA       000000000058000000000000000000000000000000000000000000000000000000000000000000000000000000000000000000000000000000000000PES00010000001000000000000000000000000
201608300060000200000000000000000262000000000000000002629600000000000010493227VARGAS ALICIA DEL VALLE       000000000095700000000000000000000000000000000000000000000000000000000000000000000000000000000000000000000000000000000000PES00010000001000000000000000000000000
