201607310010000100000000000020160702                8000000000030580189411BANCO ITAU                    000000000002611000000000000000000000000000000000000000000000000000000000000000000000000000000000000000000000000000000000PES00010000001000000000000000000000000000000000000000000                              000000000000000
201607310010000100000000000020160703                8000000000030580189411BANCO ITAU                    000000000036959000000000000000000000000000000000000000000000000000000000000000000000000000000000000000000000000000000000PES00010000001000000000000000000000000000000000000000000                              000000000000000
201608260010000100000000000000000006                8000000000030715227068MEGACOR SRL                   000000002487233000000000000000000000000000000000000000000000000000000000000000000000000000000000000000000000000000000000PES00010000001000000000000000000000000000000000000000000                              000000000000000
201608260010000200000000000000000078                8000000000030714620068DISTRITECS SRL                000000000996435000000000000000000000000000000000000000000000000000000000000000000000000000000000000000000000000000000000PES00010000002000000000000000000000000000000000000000000                              000000000000000
201608310010002900000000000000007859                8000000000030500130128HORIZONTES SA                 000000000068532000000000000000000000000000000000000000000000000000000000000000000000000000000000000000000000000000000000PES00010000001000000000000000000000000000000000000000000                              000000000000000
201608110010002900000000000000007630                8000000000030500130128HORIZONTES SA                 000000000060909000000000000000000000000000000000000000000000000000000000000000000000000000000000000000000000000000000000PES00010000001000000000000000000000000000000000000000000                              000000000000000
201607310010002900000000000000007584                8000000000030500130128HORIZONTES SA                 000000000006900000000000000000000000000000000000000000000000000000000000000000000000000000000000000000000000000000000000PES00010000001000000000000000000000000000000000000000000                              000000000000000
201607310010002900000000000000007570                8000000000030500130128HORIZONTES SA                 000000000005461000000000000000000000000000000000000000000000000000000000000000000000000000000000000000000000000000000000PES00010000001000000000000000000000000000000000000000000                              000000000000000
201607310010002900000000000000007489                8000000000030500130128HORIZONTES SA                 000000000039222000000000000000000000000000000000000000000000000000000000000000000000000000000000000000000000000000000000PES00010000001000000000000000000000000000000000000000000                              000000000000000
201608220010002900000000000000007744                8000000000030500130128HORIZONTES SA                 000000000035342000000000000000000000000000000000000000000000000000000000000000000000000000000000000000000000000000000000PES00010000001000000000000000000000000000000000000000000                              000000000000000
201607280010000300000000000000002523                8000000000030715193082Q SEGURIDAD SRL               000000000040000000000000000000000000000000000000000000000000000000000000000000000000000000000000000000000000000000000000PES00010000001000000000000000000000000000000000000000000                              000000000000000
201607280010000300000000000000002526                8000000000030715193082Q SEGURIDAD SRL               000000000040000000000000000000000000000000000000000000000000000000000000000000000000000000000000000000000000000000000000PES00010000001000000000000000000000000000000000000000000                              000000000000000
201607190010102200000000000005145286                8000000000030573652084CABLEVISION SA                000000000046175000000000000000000000000000000000000000000000000000000000000000000000000000000000000000000000000000000000PES00010000001000000000000000000000000000000000000000000                              000000000000000
201608190010102200000000000005274272                8000000000030573652084CABLEVISION SA                000000000046175000000000000000000000000000000000000000000000000000000000000000000000000000000000000000000000000000000000PES00010000001000000000000000000000000000000000000000000                              000000000000000
201608230010000400000000000000000073                8000000000020247060317TORREZ JUAN CARLOS            000000000169400000000000000000000000000000000000000000000000000000000000000000000000000000000000000000000000000000000000PES00010000001000000000000000000000000000000000000000000                              000000000000000
201607150010089800000000000001306429                8000000000030663288497AMX ARGENTINA SA              000000000018931000000000005567000000000000000000000000000000000000000000000000000000004140000000000000000000000000000000PES00010000002000000000000000000000000000000000000000000                              000000000000000
201607150010089800000000001111306429                8000000000030663288497AMX ARGENTINA SA              000000000136362000000000000000000000000000000000000000000000000000000000000000000000000000000000000000000000000000000000PES00010000001000000000000000000000000000000000000000000                              000000000000000
201608310010000100000000000004743130                8000000000030500010084BANCO MACRO                   000000000205009000000000000000000000000000000000000000000000000000000000000000000000000000000000000000000000000000000000PES00010000001000000000000000000000000000000000000000000                              000000000000000
201608180010000700000000000000000092                8000000000030714338451INDOPLER SA                   000000000683789000000000000000000000000000000000000000000000000000000000000000000000000000000000000000000000000000000000PES00010000001000000000000000000000000000000000000000000                              000000000000000
201608050010006300000000000000006518                8000000000030649695365ROSSO HNOS SA                 000000000339507000000000000000000000000000000000000000000000000000000000000000000000009776000000000001168000000000000000PES00010000001000000000000000000000000000000000000000000                              000000000000000
201608230010000400000000000000001147                8000000000020255896998SOTO CARLOS ARNALDO           000000000105399000000000000000000000000000000000000000000000000000000000000000000000000000000000000000000000000000000000PES00010000001000000000000000000000000000000000000000000                              000000000000000
201608010010000400000000000000001048                8000000000020255896998SOTO CARLOS ARNALDO           000000000020497000000000000000000000000000000000000000000000000000000000000000000000000000000000000000000000000000000000PES00010000001000000000000000000000000000000000000000000                              000000000000000
201607050010000100000000000000001568                8000000000027268972841MERCEDES SAN MILLAN           000000000432000000000000000000000000000000000000000000000000000000000000000000000000000000000000000000000000000000000000PES00010000001000000000000000000000000000000000000000000                              000000000000000
201608050010000800000000000000000009                8000000000020137014654JUAN CARLOS SYLVESTER CORNEJO 000000000090000000000000000000000000000000000000000000000000000000000000000000000000000000000000000000000000000000000000PES00010000001000000000000000000000000000000000000000000                              000000000000000
201608130010585800000000000000004484                8000000000030708772964JUMBO RETAIL ARGENTINA SA     000000000038143000000000000000000000000000000000000000000000000000000000000000000000000000000000000000000000000000000000PES00010000002000000000000000000000000000000000000000000                              000000000000000
201608130010585800000000001111114484                8000000000030708772964JUMBO RETAIL ARGENTINA SA     000000000030210000000000000000000000000000000000000000000000000000000000000000000000000000000000000000000000000000000000PES00010000001000000000000000000000000000000000000000000                              000000000000000
201608190010315800000000000000003906                8000000000030708772964JUMBO RETAIL ARGENTINA SA     000000000228482000000000004316000000000000000000000000005421000000000000000000000000000000000000000000000000000000000000PES00010000002000000000000000000000000000000000000000000                              000000000000000
201608190010315800000000011111113906                8000000000030708772964JUMBO RETAIL ARGENTINA SA     000000000001970000000000000000000000000000000000000000000000000000000000000000000000000000000000000000000000000000000000PES00010000001000000000000000000000000000000000000000000                              000000000000000
201607020010315700000000000000003953                8000000000030708772964JUMBO RETAIL ARGENTINA SA     000000000174542000000000002748000000000000000000000000004157000000000000000000000000000000000000000000000000000000000000PES00010000002000000000000000000000000000000000000000000                              000000000000000
201607020010315700000000001111113953                8000000000030708772964JUMBO RETAIL ARGENTINA SA     000000000005802000000000000000000000000000000000000000000000000000000000000000000000000000000000000000000000000000000000PES00010000001000000000000000000000000000000000000000000                              000000000000000
201608060010708700000000000000001034                8000000000030708772964JUMBO RETAIL ARGENTINA SA     000000000156829000000000001768000000000000000000000000003754000000000000000000000000000000000000000000000000000000000000PES00010000002000000000000000000000000000000000000000000                              000000000000000
201608060010708700000000001111111034                8000000000030708772964JUMBO RETAIL ARGENTINA SA     000000000003127000000000000000000000000000000000000000000000000000000000000000000000000000000000000000000000000000000000PES00010000001000000000000000000000000000000000000000000                              000000000000000
201608030010315800000000000000003887                8000000000030708772964JUMBO RETAIL ARGENTINA SA     000000000165032000000000000402000000000000000000000000003983000000000000000000000000000000000000000000000000000000000000PES00010000001000000000000000000000000000000000000000000                              000000000000000
201608080010189700000000000000015926                8000000000030590360763CENCOSUD SA                   000000000068400000000000000000000000000000000000000000000000000000000000000000000000000000000000000000000000000000000000PES00010000001000000000000000000000000000000000000000000                              000000000000000
201608010010000600000000000000073671                8000000000030710388411NUEVA ESTACION DE SERVICIOS BO000000000050000000000000012932000000000000000000000000000000000000000000000000000000000000000000000000000000000000000000PES00010000001000000000000000000000000000000000000000000                              000000000000000
201608310010000600000000000000076872                8000000000030710388411NUEVA ESTACION DE SERVICIOS BO000000000118000000000000027727000000000000000000000000000000000000000000000000000000000000000000000000000000000000000000PES00010000001000000000000000000000000000000000000000000                              000000000000000
201608160010000600000000000000075315                8000000000030710388411NUEVA ESTACION DE SERVICIOS BO000000000070000000000000018055000000000000000000000000000000000000000000000000000000000000000000000000000000000000000000PES00010000001000000000000000000000000000000000000000000                              000000000000000
201608220010000200000000000000111168                8000000000030710388411NUEVA ESTACION DE SERVICIOS BO000000000060000000000000015476000000000000000000000000000000000000000000000000000000000000000000000000000000000000000000PES00010000001000000000000000000000000000000000000000000                              000000000000000
201608120010000600000000000000074913                8000000000030710388411NUEVA ESTACION DE SERVICIOS BO000000000050000000000000012897000000000000000000000000000000000000000000000000000000000000000000000000000000000000000000PES00010000001000000000000000000000000000000000000000000                              000000000000000
201608080010000600000000000000074476                8000000000030710388411NUEVA ESTACION DE SERVICIOS BO000000000050000000000000012932000000000000000000000000000000000000000000000000000000000000000000000000000000000000000000PES00010000001000000000000000000000000000000000000000000                              000000000000000
201608100010000200000000000000001576                8000000000020112830139MUÑOZ CRUZ JUAN CARLOS        000000000167800000000000000000000000000000000000000000000000000000000000000000000000000000000000000000000000000000000000PES00010000001000000000000000000000000000000000000000000                              000000000000000
201608220010000900000000000000033742                8000000000020207336875ABDENUR CARLOS ENRIQUE        000000000157499000000000000000000000000000000000000000000000000000000000000000000000000000000000000000000000000000000000PES00010000001000000000000000000000000000000000000000000                              000000000000000
201607250010001600000000000000001284                8000000000030707746188MAGNETO SRL                   000000000080010000000000018852000000000000000000000000000000000000000000000000000000000000000000000000000000000000000000PES00010000001000000000000000000000000000000000000000000                              000000000000000
201608040010002100000000000000026550                8000000000033611226689JACARANDA SA                  000000000050000000000000012932000000000000000000000000000000000000000000000000000000000000000000000000000000000000000000PES00010000001000000000000000000000000000000000000000000                              000000000000000
201608030010003300000000000000001180                8000000000030557717400FERTEL SA                     000000000048590000000000000000000000000000000000000000000000000000000000000000000000001404000000000000000000000000000000PES00010000001000000000000000000000000000000000000000000                              000000000000000
201608030010000700000000000000033291                8000000000030681233748LUIS GENTA SRL                000000000049572000000000000000000000000000000000000000000000000000000000000000000000001432000000000000000000000000000000PES00010000001000000000000000000000000000000000000000000                              000000000000000
201608030010000700000000000000033290                8000000000030681233748LUIS GENTA SRL                000000000064359000000000000000000000000000000000000000000000000000000000000000000000001859000000000000000000000000000000PES00010000001000000000000000000000000000000000000000000                              000000000000000
201608310010000600000000000000005787                8000000000033681265339ABDENUR HERMANOS SRL          000000000149000000000000000000000000000000000000000000000000000000000000000000000000000000000000000000000000000000000000PES00010000001000000000000000000000000000000000000000000                              000000000000000
201608160010000600000000000000005744                8000000000033681265339ABDENUR HERMANOS SRL          000000000030000000000000000000000000000000000000000000000000000000000000000000000000000000000000000000000000000000000000PES00010000001000000000000000000000000000000000000000000                              000000000000000
201608230010000200000000000000013436                8000000000027173551199CAZALBON ANA MARIA            000000000125005000000000000000000000000000000000000000000000000000000000000000000000000000000000000000000000000000000000PES00010000001000000000000000000000000000000000000000000                              000000000000000
201608200010000600000000000000000009                8000000000027183077436LAMAS MONICA ESTANISLADA      000000000080700000000000000000000000000000000000000000000000000000000000000000000000000000000000000000000000000000000000PES00010000001000000000000000000000000000000000000000000                              000000000000000
201607010010001200000000000000009376                8000000000030708530294AMARU SRL                     000000000050001000000000011731000000000000000000000000000000000000000000000000000000000000000000000000000000000000000000PES00010000001000000000000000000000000000000000000000000                              000000000000000
201608130010000700000000000000002271                8000000000030710107854TERRA NOSTRA SRL              000000000068899000000000000000000000000000000000000000000000000000000000000000000000000000000000000000000000000000000000PES00010000001000000000000000000000000000000000000000000                              000000000000000
201608120010000300000000000000076236                8000000000030709797545M LLAO SRL                    000000000024500000000000000000000000000000000000000000000000000000000000000000000000000000000000000000000000000000000000PES00010000001000000000000000000000000000000000000000000                              000000000000000
