201604010010000400000000000000000531000000000000000005318000000000027293344693ROMERO MARIA FERNANDA         000000000002003000000000000000000000000000000000000000000000000000000000000000000000000000000000000000000000000000000000PES00010000001000000000000000000000000
201604010010000400000000000000000532000000000000000005328000000000027293344693ROMERO MARIA FERNANDA         000000000001500000000000000000000000000000000000000000000000000000000000000000000000000000000000000000000000000000000000PES00010000001000000000000000000000000
201604010010000400000000000000000533000000000000000005338000000000027203997464MARTINEZ LIDIA ROSANA         000000000014000000000000000000000000000000000000000000000000000000000000000000000000000000000000000000000000000000000000PES00010000001000000000000000000000000
201604010010000400000000000000000534000000000000000005348000000000030709220981PFISTER S.R.L.                000000000019003000000000000000000000000000000000000000000000000000000000000000000000000000000000000000000000000000000000PES00010000001000000000000000000000000
201604010060000400000000000000000166000000000000000001668000000000030999284651POLICIA DE LA PROVINCIA DE SAL000000000032100000000000000000000000000000000000000000000000000000000000000000000000000000000000000000000000000000000000PES00010000001000000000000000000000000
201604020010000400000000000000000535000000000000000005358000000000020144881983MENDEZ MIGUEL FEDERICO        000000000080000000000000000000000000000000000000000000000000000000000000000000000000000000000000000000000000000000000000PES00010000001000000000000000000000000
201604020010000400000000000000000536000000000000000005368000000000030710763980LOURDES SERVICIOS S.R.L.      000000000044701000000000000000000000000000000000000000000000000000000000000000000000000000000000000000000000000000000000PES00010000001000000000000000000000000
201604020010000400000000000000000537000000000000000005378000000000030700075520PANIFICADORA LAS 5 MARIAS  S R000000000027001000000000000000000000000000000000000000000000000000000000000000000000000000000000000000000000000000000000PES00010000001000000000000000000000000
201604020060000400000000000000000167000000000000000001678000000000030999256267MINISTERIO DE EDUCACION CIENCI000000000009000000000000000000000000000000000000000000000000000000000000000000000000000000000000000000000000000000000000PES00010000001000000000000000000000000
201604020010000400000000000000000538000000000000000005388000000000027298295178HRYSZAN MARIA VALERIA         000000000060000000000000000000000000000000000000000000000000000000000000000000000000000000000000000000000000000000000000PES00010000001000000000000000000000000
201604020010000400000000000000000539000000000000000005398000000000030711848874C.I.S.E.P. CONSULTORA S.R.L.  000000000011800000000000000000000000000000000000000000000000000000000000000000000000000000000000000000000000000000000000PES00010000001000000000000000000000000
201604040060000400000000000000000168000000000000000001688000000000030546694263GENDARMERIA NACIONAL          000000000029600000000000000000000000000000000000000000000000000000000000000000000000000000000000000000000000000000000000PES00010000001000000000000000000000000
201604040010000400000000000000000540000000000000000005408000000000030611977766FABRICA SRL                   000000000009603000000000000000000000000000000000000000000000000000000000000000000000000000000000000000000000000000000000PES00010000001000000000000000000000000
201604040060000400000000000000000169000000000000000001698000000000030999256267MINISTERIO DE EDUCACION CIENCI000000000025075000000000000000000000000000000000000000000000000000000000000000000000000000000000000000000000000000000000PES00010000001000000000000000000000000
201604040010000400000000000000000541000000000000000005418000000000030714360015PFISTER S.R.L.                000000000022804000000000000000000000000000000000000000000000000000000000000000000000000000000000000000000000000000000000PES00010000001000000000000000000000000
201604040010000400000000000000000542000000000000000005428000000000020072364164CONDORI LUCAS HIPOLITO        000000000015601000000000000000000000000000000000000000000000000000000000000000000000000000000000000000000000000000000000PES00010000001000000000000000000000000
201604040060000400000000000000000170000000000000000001708000000000030999256267MINISTERIO DE EDUCACION CIENCI000000000013500000000000000000000000000000000000000000000000000000000000000000000000000000000000000000000000000000000000PES00010000001000000000000000000000000
201604050010000400000000000000000543000000000000000005438000000000030658794473MAREMCO S A                   000000000002000000000000000000000000000000000000000000000000000000000000000000000000000000000000000000000000000000000000PES00010000001000000000000000000000000
201604050010000400000000000000000544000000000000000005448000000000030714042234PETRO AP S.A.                 000000000022000000000000000000000000000000000000000000000000000000000000000000000000000000000000000000000000000000000000PES00010000001000000000000000000000000
201604060060000400000000000000000171000000000000000001718000000000030999263158MINISTERIO  DE SALUD PUBLICA D000000000041000000000000000000000000000000000000000000000000000000000000000000000000000000000000000000000000000000000000PES00010000001000000000000000000000000
201604060010000400000000000000000545000000000000000005458000000000020141765915FERRERO SERGIO DAVID          000000000003000000000000000000000000000000000000000000000000000000000000000000000000000000000000000000000000000000000000PES00010000001000000000000000000000000
201604060010000400000000000000000546000000000000000005468000000000020141765915FERRERO SERGIO DAVID          000000000005201000000000000000000000000000000000000000000000000000000000000000000000000000000000000000000000000000000000PES00010000001000000000000000000000000
201604060010000400000000000000000547000000000000000005478000000000030711162514FMF ARGENTINA S.R.L.          000000000071000000000000000000000000000000000000000000000000000000000000000000000000000000000000000000000000000000000000PES00010000001000000000000000000000000
201604060010000400000000000000000548000000000000000005488000000000030707551034ALTOS TRES CERRITOS S.A.      000000000015012000000000000000000000000000000000000000000000000000000000000000000000000000000000000000000000000000000000PES00010000001000000000000000000000000
201604060010000400000000000000000549000000000000000005498000000000030707551034ALTOS TRES CERRITOS S.A.      000000000003006000000000000000000000000000000000000000000000000000000000000000000000000000000000000000000000000000000000PES00010000001000000000000000000000000
201604070010000400000000000000000550000000000000000005508000000000033711568749HOTELES DEL NORTE S.R.L.      000000000014401000000000000000000000000000000000000000000000000000000000000000000000000000000000000000000000000000000000PES00010000001000000000000000000000000
201604070060000400000000000000000172000000000000000001728000000000030999263158MINISTERIO  DE SALUD PUBLICA D000000000009600000000000000000000000000000000000000000000000000000000000000000000000000000000000000000000000000000000000PES00010000001000000000000000000000000
201604070060000400000000000000000173000000000000000001738000000000030714929395VISTETE SALTA S.R.L.          000000000005300000000000000000000000000000000000000000000000000000000000000000000000000000000000000000000000000000000000PES00010000001000000000000000000000000
201604080010000400000000000000000551000000000000000005518000000000020255715128AREVALO CARLOS ENRIQUE        000000000019001000000000000000000000000000000000000000000000000000000000000000000000000000000000000000000000000000000000PES00010000001000000000000000000000000
201604080010000400000000000000000552000000000000000005528000000000030714766119PLANIAGRO FIDEICOMISO         000000000010599000000000000000000000000000000000000000000000000000000000000000000000000000000000000000000000000000000000PES00010000001000000000000000000000000
201604080010000400000000000000000553000000000000000005538000000000027291647052AUCACHI AIDA ALCIRA           000000000010001000000000000000000000000000000000000000000000000000000000000000000000000000000000000000000000000000000000PES00010000001000000000000000000000000
201604080010000400000000000000000554000000000000000005548000000000030711372322SUDNE S.A                     000000000013851000000000000000000000000000000000000000000000000000000000000000000000000000000000000000000000000000000000PES00010000001000000000000000000000000
201604090010000400000000000000000555000000000000000005558000000000027118180165TORRICO MARIA PORFIDIA        000000000014399000000000000000000000000000000000000000000000000000000000000000000000000000000000000000000000000000000000PES00010000001000000000000000000000000
201604090010000400000000000000000556000000000000000005568000000000030681329451DESA DEFENSA Y ENCAUZAMIENTO S000000000012000000000000000000000000000000000000000000000000000000000000000000000000000000000000000000000000000000000000PES00010000001000000000000000000000000
201604100060000400000000000000000174000000000000000001748000000000023036751614ESTRADA HERMINDA YONE         000000000015500000000000000000000000000000000000000000000000000000000000000000000000000000000000000000000000000000000000PES00010000001000000000000000000000000
201604110010000400000000000000000557000000000000000005578000000000020081714046BINDA VICTORIO RICARDO        000000000007500000000000000000000000000000000000000000000000000000000000000000000000000000000000000000000000000000000000PES00010000001000000000000000000000000
201604110060000400000000000000000175000000000000000001758000000000030999256267MINISTERIO DE EDUCACION CIENCI000000000004500000000000000000000000000000000000000000000000000000000000000000000000000000000000000000000000000000000000PES00010000001000000000000000000000000
201604120060000400000000000000000176000000000000000001768000000000030999284651POLICIA DE LA PROVINCIA DE SAL000000000015200000000000000000000000000000000000000000000000000000000000000000000000000000000000000000000000000000000000PES00010000001000000000000000000000000
201604120060000400000000000000000177000000000000000001778000000000030999256267MINISTERIO DE EDUCACION CIENCI000000000026400000000000000000000000000000000000000000000000000000000000000000000000000000000000000000000000000000000000PES00010000001000000000000000000000000
201604120010000400000000000000000558000000000000000005588000000000020235845165ALVAREZ MIRANDA RODRIGO HERNAN000000000009607000000000000000000000000000000000000000000000000000000000000000000000000000000000000000000000000000000000PES00010000001000000000000000000000000
201604120060000400000000000000000178000000000000000001788000000000030596816653FUNDACION DI BEZ              000000000026800000000000000000000000000000000000000000000000000000000000000000000000000000000000000000000000000000000000PES00010000001000000000000000000000000
201604120060000400000000000000000179000000000000000001798000000000030673038960MUNICIPALIDAD DE IRUYA        000000000612000000000000000000000000000000000000000000000000000000000000000000000000000000000000000000000000000000000000PES00010000001000000000000000000000000
201604120060000400000000000000000180000000000000000001808000000000030999263158MINISTERIO  DE SALUD PUBLICA D000000000010500000000000000000000000000000000000000000000000000000000000000000000000000000000000000000000000000000000000PES00010000001000000000000000000000000
201604130060000400000000000000000181000000000000000001818000000000030999284651POLICIA DE LA PROVINCIA DE SAL000000000004400000000000000000000000000000000000000000000000000000000000000000000000000000000000000000000000000000000000PES00010000001000000000000000000000000
201604130010000400000000000000000559000000000000000005598000000000030707938338SANATORIO SAN ROQUE S.A.      000000000004500000000000000000000000000000000000000000000000000000000000000000000000000000000000000000000000000000000000PES00010000001000000000000000000000000
201604130010000400000000000000000560000000000000000005608000000000033711140439BERLIN MOTORS S.A.            000000000003600000000000000000000000000000000000000000000000000000000000000000000000000000000000000000000000000000000000PES00010000001000000000000000000000000
201604130010000400000000000000000561000000000000000005618000000000027291647052AUCACHI AIDA ALCIRA           000000000004400000000000000000000000000000000000000000000000000000000000000000000000000000000000000000000000000000000000PES00010000001000000000000000000000000
201604140010000400000000000000000562000000000000000005628000000000030712042180SANTA CRUZ S.R.L.             000000000003000000000000000000000000000000000000000000000000000000000000000000000000000000000000000000000000000000000000PES00010000001000000000000000000000000
201604140010000400000000000000000563000000000000000005638000000000027118180165TORRICO MARIA PORFIDIA        000000000037602000000000000000000000000000000000000000000000000000000000000000000000000000000000000000000000000000000000PES00010000001000000000000000000000000
201604150010000400000000000000000564000000000000000005648000000000030611977766FABRICA SRL                   000000000012052000000000000000000000000000000000000000000000000000000000000000000000000000000000000000000000000000000000PES00010000001000000000000000000000000
201604150010000400000000000000000565000000000000000005658000000000020932672643NEUMANN FRANK                 000000000067200000000000000000000000000000000000000000000000000000000000000000000000000000000000000000000000000000000000PES00010000001000000000000000000000000
201604160010000400000000000000000566000000000000000005668000000000030675369530EMPRENDIMIENTO RIO GRANDE SRL 000000000030008000000000000000000000000000000000000000000000000000000000000000000000000000000000000000000000000000000000PES00010000001000000000000000000000000
201604160010000400000000000000000567000000000000000005678000000000027293344693ROMERO MARIA FERNANDA         000000000005999000000000000000000000000000000000000000000000000000000000000000000000000000000000000000000000000000000000PES00010000001000000000000000000000000
201604170010000400000000000000000568000000000000000005688000000000030715038222RUNAKUNA SRL                  000000000021500000000000000000000000000000000000000000000000000000000000000000000000000000000000000000000000000000000000PES00010000001000000000000000000000000
201604180010000400000000000000000569000000000000000005698000000000020084639843PONISIO AGUSTIN JUAN ANGEL    000000000035400000000000000000000000000000000000000000000000000000000000000000000000000000000000000000000000000000000000PES00010000001000000000000000000000000
201604180060000400000000000000000182000000000000000001828000000000030999256267MINISTERIO DE EDUCACION CIENCI000000000004000000000000000000000000000000000000000000000000000000000000000000000000000000000000000000000000000000000000PES00010000001000000000000000000000000
201604180010000400000000000000000570000000000000000005708000000000027126802159IBANES GLADYS BEATRIZ         000000000003501000000000000000000000000000000000000000000000000000000000000000000000000000000000000000000000000000000000PES00010000001000000000000000000000000
201604180060000400000000000000000183000000000000000001838000000000030999256267MINISTERIO DE EDUCACION CIENCI000000000008000000000000000000000000000000000000000000000000000000000000000000000000000000000000000000000000000000000000PES00010000001000000000000000000000000
201604190010000400000000000000000571000000000000000005718000000000027038191441CLEMENTE CARMEN DEL MILAGRO   000000000010724000000000000000000000000000000000000000000000000000000000000000000000000000000000000000000000000000000000PES00010000001000000000000000000000000
201604190060000400000000000000000184000000000000000001848000000000030999256267MINISTERIO DE EDUCACION CIENCI000000000009800000000000000000000000000000000000000000000000000000000000000000000000000000000000000000000000000000000000PES00010000001000000000000000000000000
201604190060000400000000000000000185000000000000000001858000000000030999256267MINISTERIO DE EDUCACION CIENCI000000000028000000000000000000000000000000000000000000000000000000000000000000000000000000000000000000000000000000000000PES00010000001000000000000000000000000
201604190010000400000000000000000572000000000000000005728000000000030712042180SANTA CRUZ S.R.L.             000000000003000000000000000000000000000000000000000000000000000000000000000000000000000000000000000000000000000000000000PES00010000001000000000000000000000000
201604200010000400000000000000000573000000000000000005738000000000030712027289GEOTEC SRL                    000000000004000000000000000000000000000000000000000000000000000000000000000000000000000000000000000000000000000000000000PES00010000001000000000000000000000000
201604200060000400000000000000000186000000000000000001868000000000030999263158MINISTERIO  DE SALUD PUBLICA D000000000060100000000000000000000000000000000000000000000000000000000000000000000000000000000000000000000000000000000000PES00010000001000000000000000000000000
201604200010000400000000000000000574000000000000000005748000000000020226374249LOPEZ ABRAHAM RAMIRO ALEJANDRO000000000010001000000000000000000000000000000000000000000000000000000000000000000000000000000000000000000000000000000000PES00010000001000000000000000000000000
201604210060000400000000000000000187000000000000000001878000000000030999263158MINISTERIO  DE SALUD PUBLICA D000000000014350000000000000000000000000000000000000000000000000000000000000000000000000000000000000000000000000000000000PES00010000001000000000000000000000000
201604210010000400000000000000000575000000000000000005758000000000027049597741CAMUSO ANA MARIA ANGELA       000000000022801000000000000000000000000000000000000000000000000000000000000000000000000000000000000000000000000000000000PES00010000001000000000000000000000000
201604210010000400000000000000000576000000000000000005768000000000030638110748DAL BORGO CONSTRUCCIONES S R L000000000015500000000000000000000000000000000000000000000000000000000000000000000000000000000000000000000000000000000000PES00010000001000000000000000000000000
201604210010000400000000000000000577000000000000000005778000000000033711140439BERLIN MOTORS S.A.            000000000003200000000000000000000000000000000000000000000000000000000000000000000000000000000000000000000000000000000000PES00010000001000000000000000000000000
201604210010000400000000000000000578000000000000000005788000000000020121115701SPINOZZI JUAN CARLOS MARCELO  000000004753001000000000000000000000000000000000000000000000000000000000000000000000000000000000000000000000000000000000PES00010000001000000000000000000000000
201604210060000400000000000000000188000000000000000001888000000000030546694263GENDARMERIA NACIONAL          000000000003000000000000000000000000000000000000000000000000000000000000000000000000000000000000000000000000000000000000PES00010000001000000000000000000000000
201604210010000400000000000000000579000000000000000005798000000000030712988807ROJO MORA S.R.L.              000000000008200000000000000000000000000000000000000000000000000000000000000000000000000000000000000000000000000000000000PES00010000001000000000000000000000000
201604220010000400000000000000000580000000000000000005808000000000033711140439BERLIN MOTORS S.A.            000000000011002000000000000000000000000000000000000000000000000000000000000000000000000000000000000000000000000000000000PES00010000001000000000000000000000000
201604220060000400000000000000000189000000000000000001898000000000030999263158MINISTERIO  DE SALUD PUBLICA D000000000102600000000000000000000000000000000000000000000000000000000000000000000000000000000000000000000000000000000000PES00010000001000000000000000000000000
201604220060000400000000000000000190000000000000000001908000000000030999256267MINISTERIO DE EDUCACION CIENCI000000000006700000000000000000000000000000000000000000000000000000000000000000000000000000000000000000000000000000000000PES00010000001000000000000000000000000
201604220010000400000000000000000581000000000000000005818000000000027180339316NOVOA NORMA INES              000000000019203000000000000000000000000000000000000000000000000000000000000000000000000000000000000000000000000000000000PES00010000001000000000000000000000000
201604220010000400000000000000000582000000000000000005828000000000030708772964JUMBO RETAIL ARGENTINA SOCIEDA000000000008804000000000000000000000000000000000000000000000000000000000000000000000000000000000000000000000000000000000PES00010000001000000000000000000000000
201604220010000400000000000000000583000000000000000005838000000000027118180165TORRICO MARIA PORFIDIA        000000000028600000000000000000000000000000000000000000000000000000000000000000000000000000000000000000000000000000000000PES00010000001000000000000000000000000
201604230010000400000000000000000584000000000000000005848000000000023076748179CORNEJO FERNANDO LUIS         000000000006002000000000000000000000000000000000000000000000000000000000000000000000000000000000000000000000000000000000PES00010000001000000000000000000000000
201604230060000400000000000000000191000000000000000001918000000000023036751614ESTRADA HERMINDA YONE         000000000011500000000000000000000000000000000000000000000000000000000000000000000000000000000000000000000000000000000000PES00010000001000000000000000000000000
201604230060000400000000000000000192000000000000000001928000000000030999256267MINISTERIO DE EDUCACION CIENCI000000000019500000000000000000000000000000000000000000000000000000000000000000000000000000000000000000000000000000000000PES00010000001000000000000000000000000
201604240060000400000000000000000193000000000000000001939600000000000012236297BARBEITO JUAN                 000000000023400000000000000000000000000000000000000000000000000000000000000000000000000000000000000000000000000000000000PES00010000001000000000000000000000000
201604250010000400000000000000000585000000000000000005858000000000020291531017OCARANZA FERNANDO ALBERTO     000000000032600000000000000000000000000000000000000000000000000000000000000000000000000000000000000000000000000000000000PES00010000001000000000000000000000000
201604250060000400000000000000000194000000000000000001948000000000030999256267MINISTERIO DE EDUCACION CIENCI000000000007400000000000000000000000000000000000000000000000000000000000000000000000000000000000000000000000000000000000PES00010000001000000000000000000000000
201604250010000400000000000000000586000000000000000005868000000000020226323814RAMOS GONZALO FERNANDO        000000000077400000000000000000000000000000000000000000000000000000000000000000000000000000000000000000000000000000000000PES00010000001000000000000000000000000
201604250010000400000000000000000587000000000000000005878000000000030710381670AG S.A.                       000000000022000000000000000000000000000000000000000000000000000000000000000000000000000000000000000000000000000000000000PES00010000001000000000000000000000000
201604260010000400000000000000000588000000000000000005888000000000030714265993ECO FOOD S.R.L.               000000000005550000000000000000000000000000000000000000000000000000000000000000000000000000000000000000000000000000000000PES00010000001000000000000000000000000
201604260060000400000000000000000195000000000000000001959600000000000021896265ROJAS ABRAHAM ALBERTO DOMINGO 000000000014400000000000000000000000000000000000000000000000000000000000000000000000000000000000000000000000000000000000PES00010000001000000000000000000000000
201604260010000400000000000000000589000000000000000005898000000000030708836792SIGAR S A                     000000000007200000000000000000000000000000000000000000000000000000000000000000000000000000000000000000000000000000000000PES00010000001000000000000000000000000
201604260010000400000000000000000590000000000000000005908000000000020121115701SPINOZZI JUAN CARLOS MARCELO  000000004657399000000000000000000000000000000000000000000000000000000000000000000000000000000000000000000000000000000000PES00010000001000000000000000000000000
201604270060000400000000000000000196000000000000000001968000000000030555975623ASOCIACION INDUSTRIALES Y COME000000000091200000000000000000000000000000000000000000000000000000000000000000000000000000000000000000000000000000000000PES00010000001000000000000000000000000
201604270010000400000000000000000591000000000000000005918000000000020310359085RAMIREZ LUCIANO ALBERTO       000000000021900000000000000000000000000000000000000000000000000000000000000000000000000000000000000000000000000000000000PES00010000001000000000000000000000000
201604270060000400000000000000000197000000000000000001978000000000030546694263GENDARMERIA NACIONAL          000000000045700000000000000000000000000000000000000000000000000000000000000000000000000000000000000000000000000000000000PES00010000001000000000000000000000000
201604270010000400000000000000000592000000000000000005928000000000020184514290CASTRO ESCUDERO JOSE IGNACIO  000000000020000000000000000000000000000000000000000000000000000000000000000000000000000000000000000000000000000000000000PES00010000001000000000000000000000000
201604270010000400000000000000000593000000000000000005938000000000020291531017OCARANZA FERNANDO ALBERTO     000000000022000000000000000000000000000000000000000000000000000000000000000000000000000000000000000000000000000000000000PES00010000001000000000000000000000000
201604280010000400000000000000000594000000000000000005948000000000030712988807ROJO MORA S.R.L.              000000000007001000000000000000000000000000000000000000000000000000000000000000000000000000000000000000000000000000000000PES00010000001000000000000000000000000
201604280010000400000000000000000595000000000000000005958000000000030708432365AGROPECUARIA JBF SA           000000000022000000000000000000000000000000000000000000000000000000000000000000000000000000000000000000000000000000000000PES00010000001000000000000000000000000
201604280010000400000000000000000596000000000000000005968000000000030708530294AMARU  S.R.L.                 000000000008558000000000000000000000000000000000000000000000000000000000000000000000000000000000000000000000000000000000PES00010000001000000000000000000000000
201604280010000400000000000000000597000000000000000005978000000000027119361147PACHECO LILI YOLANDA          000000000014600000000000000000000000000000000000000000000000000000000000000000000000000000000000000000000000000000000000PES00010000001000000000000000000000000
201604280010000400000000000000000598000000000000000005988000000000030712161570LA GAUCHADA SRL               000000000004500000000000000000000000000000000000000000000000000000000000000000000000000000000000000000000000000000000000PES00010000001000000000000000000000000
201604290060000400000000000000000198000000000000000001988000000000030999256267MINISTERIO DE EDUCACION CIENCI000000000004500000000000000000000000000000000000000000000000000000000000000000000000000000000000000000000000000000000000PES00010000001000000000000000000000000
201604290010000400000000000000000599000000000000000005998000000000020168831251EHIZAGUIRRE RUBEN SERGIO      000000000080000000000000000000000000000000000000000000000000000000000000000000000000000000000000000000000000000000000000PES00010000001000000000000000000000000
201604290060000400000000000000000199000000000000000001998000000000030999256267MINISTERIO DE EDUCACION CIENCI000000000006160000000000000000000000000000000000000000000000000000000000000000000000000000000000000000000000000000000000PES00010000001000000000000000000000000
201604290010000400000000000000000600000000000000000006008000000000030650873544TRESING SRL                   000000000012003000000000000000000000000000000000000000000000000000000000000000000000000000000000000000000000000000000000PES00010000001000000000000000000000000
201604290010000400000000000000000601000000000000000006018000000000020297371445RUIZ DE LOS LLANOS DIEGO NICOL000000000072699000000000000000000000000000000000000000000000000000000000000000000000000000000000000000000000000000000000PES00010000001000000000000000000000000
201604300010000400000000000000000602000000000000000006028000000000020081714046BINDA VICTORIO RICARDO        000000000003499000000000000000000000000000000000000000000000000000000000000000000000000000000000000000000000000000000000PES00010000001000000000000000000000000
201604300010000400000000000000000603000000000000000006038000000000020144881983MENDEZ MIGUEL FEDERICO        000000000008676000000000000000000000000000000000000000000000000000000000000000000000000000000000000000000000000000000000PES00010000001000000000000000000000000
201604010060000100000000000000001170000000000000000011709600000000020000000001INFORME Z                     000000000351200000000000000000000000000000000000000000000000000000000000000000000000000000000000000000000000000000000000PES00010000001000000000000000020160401
201604020060000100000000000000001171000000000000000011719600000000020000000001INFORME Z                     000000000239300000000000000000000000000000000000000000000000000000000000000000000000000000000000000000000000000000000000PES00010000001000000000000000020160402
201604030060000100000000000000001172000000000000000011728000000000020000000001INFORME Z                     000000000240200000000000000000000000000000000000000000000000000000000000000000000000000000000000000000000000000000000000PES00010000001000000000000000020160403
201604040060000100000000000000001173000000000000000011738000000000020000000001INFORME Z                     000000000287300000000000000000000000000000000000000000000000000000000000000000000000000000000000000000000000000000000000PES00010000001000000000000000020160404
201604050060000100000000000000001174000000000000000011748000000000020000000001INFORME Z                     000000000179550000000000000000000000000000000000000000000000000000000000000000000000000000000000000000000000000000000000PES00010000001000000000000000020160405
201604060060000100000000000000001175000000000000000011758000000000020000000001INFORME Z                     000000000262050000000000000000000000000000000000000000000000000000000000000000000000000000000000000000000000000000000000PES00010000001000000000000000020160406
201604070060000100000000000000001176000000000000000011768000000000020000000001INFORME Z                     000000000323150000000000000000000000000000000000000000000000000000000000000000000000000000000000000000000000000000000000PES00010000001000000000000000020160407
201604080060000100000000000000001177000000000000000011779600000000020000000001INFORME Z                     000000000457000000000000000000000000000000000000000000000000000000000000000000000000000000000000000000000000000000000000PES00010000001000000000000000020160408
201604090060000100000000000000001178000000000000000011788000000000020000000001INFORME Z                     000000000453300000000000000000000000000000000000000000000000000000000000000000000000000000000000000000000000000000000000PES00010000001000000000000000020160409
201604100060000100000000000000001179000000000000000011798000000000020000000001INFORME Z                     000000000180000000000000000000000000000000000000000000000000000000000000000000000000000000000000000000000000000000000000PES00010000001000000000000000020160410
201604110060000100000000000000001180000000000000000011808000000000020000000001INFORME Z                     000000000426300000000000000000000000000000000000000000000000000000000000000000000000000000000000000000000000000000000000PES00010000001000000000000000020160411
201604120060000100000000000000001181000000000000000011818000000000020000000001INFORME Z                     000000000527930000000000000000000000000000000000000000000000000000000000000000000000000000000000000000000000000000000000PES00010000001000000000000000020160412
201604130060000100000000000000001182000000000000000011828000000000020000000001INFORME Z                     000000000328450000000000000000000000000000000000000000000000000000000000000000000000000000000000000000000000000000000000PES00010000001000000000000000020160413
201604140060000100000000000000001183000000000000000011838000000000020000000001INFORME Z                     000000000364900000000000000000000000000000000000000000000000000000000000000000000000000000000000000000000000000000000000PES00010000001000000000000000020160414
201604150060000100000000000000001184000000000000000011848000000000020000000001INFORME Z                     000000000449400000000000000000000000000000000000000000000000000000000000000000000000000000000000000000000000000000000000PES00010000001000000000000000020160415
201604160060000100000000000000001185000000000000000011859600000000020000000001INFORME Z                     000000000470350000000000000000000000000000000000000000000000000000000000000000000000000000000000000000000000000000000000PES00010000001000000000000000020160416
201604170060000100000000000000001186000000000000000011868000000000020000000001INFORME Z                     000000000153500000000000000000000000000000000000000000000000000000000000000000000000000000000000000000000000000000000000PES00010000001000000000000000020160417
201604180060000100000000000000001187000000000000000011878000000000020000000001INFORME Z                     000000000413100000000000000000000000000000000000000000000000000000000000000000000000000000000000000000000000000000000000PES00010000001000000000000000020160418
201604190060000100000000000000001188000000000000000011888000000000020000000001INFORME Z                     000000000321681000000000000000000000000000000000000000000000000000000000000000000000000000000000000000000000000000000000PES00010000001000000000000000020160419
201604200060000100000000000000001189000000000000000011898000000000020000000001INFORME Z                     000000000264750000000000000000000000000000000000000000000000000000000000000000000000000000000000000000000000000000000000PES00010000001000000000000000020160420
201604210060000100000000000000001190000000000000000011908000000000020000000001INFORME Z                     000000000259810000000000000000000000000000000000000000000000000000000000000000000000000000000000000000000000000000000000PES00010000001000000000000000020160421
201604220060000100000000000000001191000000000000000011918000000000020000000001INFORME Z                     000000000403560000000000000000000000000000000000000000000000000000000000000000000000000000000000000000000000000000000000PES00010000001000000000000000020160422
201604230060000100000000000000001192000000000000000011928000000000020000000001INFORME Z                     000000000236200000000000000000000000000000000000000000000000000000000000000000000000000000000000000000000000000000000000PES00010000001000000000000000020160423
201604240060000100000000000000001193000000000000000011938000000000020000000001INFORME Z                     000000000181400000000000000000000000000000000000000000000000000000000000000000000000000000000000000000000000000000000000PES00010000001000000000000000020160424
201604250060000100000000000000001194000000000000000011948000000000020000000001INFORME Z                     000000000460400000000000000000000000000000000000000000000000000000000000000000000000000000000000000000000000000000000000PES00010000001000000000000000020160425
201604260060000100000000000000001195000000000000000011958000000000020000000001INFORME Z                     000000000221200000000000000000000000000000000000000000000000000000000000000000000000000000000000000000000000000000000000PES00010000001000000000000000020160426
201604270060000100000000000000001196000000000000000011968000000000020000000001INFORME Z                     000000000345751000000000000000000000000000000000000000000000000000000000000000000000000000000000000000000000000000000000PES00010000001000000000000000020160427
201604280060000100000000000000001197000000000000000011978000000000020000000001INFORME Z                     000000000363200000000000000000000000000000000000000000000000000000000000000000000000000000000000000000000000000000000000PES00010000001000000000000000020160428
201604290060000100000000000000001198000000000000000011988000000000020000000001INFORME Z                     000000000518450000000000000000000000000000000000000000000000000000000000000000000000000000000000000000000000000000000000PES00010000001000000000000000020160429
201604300060000100000000000000001199000000000000000011998000000000020000000001INFORME Z                     000000000402250000000000000000000000000000000000000000000000000000000000000000000000000000000000000000000000000000000000PES00010000001000000000000000020160430
