201611020020102500000000000000069536                8000000000030501199253ACINDAR INDUSTRIA ARGENTINA DE000000029531800000000000000000000000000000000000000000714479000000000000000000000000000000000000000000000000000000000000PES00010000001000000000000000000000000000000000000000000                              000000000000000
201611020020102500000000000000069537                8000000000030501199253ACINDAR INDUSTRIA ARGENTINA DE000000017823172000000000000000000000000000000000000000431206000000000000000000000000000000000000000000000000000000000000PES00010000001000000000000000000000000000000000000000000                              000000000000000
201611230010102700000000000000005007                8000000000030501199253ACINDAR INDUSTRIA ARGENTINA DE000000017507788000000000000000000000000000000000000000421536000000000000000000000000000000000000000084307000000000000000PES00010000001000000000000000000000000000000000000000000                              000000000000000
201611240030102500000000000000050857                8000000000030501199253ACINDAR INDUSTRIA ARGENTINA DE000000011669947000000000000000000000000000000000000000282337000000000000000000000000000000000000000000000000000000000000PES00010000001000000000000000000000000000000000000000000                              000000000000000
201611240030102500000000000000050856                8000000000030501199253ACINDAR INDUSTRIA ARGENTINA DE000000005837840000000000000000000000000000000000000000141238000000000000000000000000000000000000000000000000000000000000PES00010000001000000000000000000000000000000000000000000                              000000000000000
201611170010102700000000000000004954                8000000000030501199253ACINDAR INDUSTRIA ARGENTINA DE000000016107781000000000000000000000000000000000000000387828000000000000000000000000000000000000000077566000000000000000PES00010000001000000000000000000000000000000000000000000                              000000000000000
201611180030102500000000000000050677                8000000000030501199253ACINDAR INDUSTRIA ARGENTINA DE000000016107781000000000000000000000000000000000000000389704000000000000000000000000000000000000000000000000000000000000PES00010000001000000000000000000000000000000000000000000                              000000000000000
201611080010102700000000000000004886                8000000000030501199253ACINDAR INDUSTRIA ARGENTINA DE000000007586179000000000000000000000000000000000000000182653000000000000000000000000000000000000000036531000000000000000PES00010000001000000000000000000000000000000000000000000                              000000000000000
201611110030102500000000000000050541                8000000000030501199253ACINDAR INDUSTRIA ARGENTINA DE000000007586179000000000000000000000000000000000000000183537000000000000000000000000000000000000000000000000000000000000PES00010000001000000000000000000000000000000000000000000                              000000000000000
201612050010102700000000000000005088                8000000000030501199253ACINDAR INDUSTRIA ARGENTINA DE000000014817197000000000000000000000000000000000000000356754000000000000000000000000000000000000000071350000000000000000PES00010000001000000000000000000000000000000000000000000                              000000000000000
201612010030102500000000000000051135                8000000000030501199253ACINDAR INDUSTRIA ARGENTINA DE000000000710325000000000000000000000000000000000000000000000000000000000000000000000000000000000000000000000000000000000PES00010000001000000000000000000000000000000000000000000                              000000000000000
201612060030102500000000000000051256                8000000000030501199253ACINDAR INDUSTRIA ARGENTINA DE000000006153225000000000000000000000000000000000000000148868000000000000000000000000000000000000000000000000000000000000PES00010000001000000000000000000000000000000000000000000                              000000000000000
201612160030102500000000000000051413                8000000000030501199253ACINDAR INDUSTRIA ARGENTINA DE000000000751027000000000000000000000000000000000000000000000000000000000000000000000000000000000000000000000000000000000PES00010000001000000000000000000000000000000000000000000                              000000000000000
201701190010101000000000000000179137                8000000000030501199253ACINDAR INDUSTRIA ARGENTINA DE000000004412264000000000000000000000000000000000000000106234000000000000000000000000000000000000000021247000000000000000PES00010000001000000000000000000000000000000000000000000                              000000000000000
201701250010101000000000000000179587                8000000000030501199253ACINDAR INDUSTRIA ARGENTINA DE000000005127148000000000000000000000000000000000000000123447000000000000000000000000000000000000000024689000000000000000PES00010000001000000000000000000000000000000000000000000                              000000000000000
201612020010001100000000000000072754                8000000000030639201232A.D.BARBIERI SA.              000000028757937000000000000000000000000000000000000000000000000000000000000000000000000000000000000000000000000000000000PES00010000001000000000000000000000000000000000000000000                              000000000000000
201701120030001100000000000000007460                8000000000030639201232A.D.BARBIERI SA.              000000001150318000000000000000000000000000000000000000000000000000000000000000000000000000000000000000000000000000000000PES00010000001000000000000000000000000000000000000000000                              000000000000000
201611170010000500000000000000002361                8000000000030586321389VICENTE ALBORS S.A.           000000005778626000000000000000000000000000000000000000000000000000000000000000000000000000000000000000000000000000000000PES00010000001000000000000000000000000000000000000000000                              000000000000000
201610310010004300000000000000095308                8000000000033500908519CERAMICA ALBERDI SA           000000004843639000000000000000000000000000000000000000113346000000000000000000000000136015000000000022669000000000000000PES00010000001000000000000000000000000000000000000000000                              000000000000000
201610310010004300000000000000095309                8000000000033500908519CERAMICA ALBERDI SA           000000004796143000000000000000000000000000000000000000112234000000000000000000000000134681000000000022447000000000000000PES00010000001000000000000000000000000000000000000000000                              000000000000000
201610310010004300000000000000095311                8000000000033500908519CERAMICA ALBERDI SA           000000004811195000000000000000000000000000000000000000112586000000000000000000000000135104000000000022517000000000000000PES00010000001000000000000000000000000000000000000000000                              000000000000000
201612150010002100000000000000106496                8000000000030552816168DURLOCK S.A.                  000000006118640000000000281101000000000000000000000000000000000000000000000000000000168661000000000000000000000000000000PES00010000001000000000000000000000000000000000000000000                              000000000000000
201701100030002100000000000000032200                8000000000030552816168DURLOCK S.A.                  000000000244745000000000000000000000000000000000000000000000000000000000000000000000000000000000000000000000000000000000PES00010000001000000000000000000000000000000000000000000                              000000000000000
201701050010002100000000000000107441                8000000000030552816168DURLOCK S.A.                  000000013535414000000000000000000000000000000000000000000000000000000000000000000000198402000000000000000000000000000000PES00010000001000000000000000000000000000000000000000000                              000000000000000
201701050010002100000000000000107442                8000000000030552816168DURLOCK S.A.                  000000004113736000000000000000000000000000000000000000000000000000000000000000000000060299000000000000000000000000000000PES00010000001000000000000000000000000000000000000000000                              000000000000000
201611290010007400000000000000047842                8000000000030503037226EMAPI S.A.                    000000001388177000000000000000000000000000000000000000000000000000000000000000000000000000000000000000000000000000000000PES00010000001000000000000000000000000000000000000000000                              000000000000000
201611290010007400000000000000047841                8000000000030503037226EMAPI S.A.                    000000001391608000000000000000000000000000000000000000000000000000000000000000000000000000000000000000000000000000000000PES00010000001000000000000000000000000000000000000000000                              000000000000000
201611290010007400000000000000047861                8000000000030503037226EMAPI S.A.                    000000006116868000000000000000000000000000000000000000000000000000000000000000000000000000000000000000000000000000000000PES00010000001000000000000000000000000000000000000000000                              000000000000000
201612260010000400000000000000013021                8000000000030609285261FIJACIONES PY SA              000000001686924000000000000000000000000000000000000000000000000000000000000000000000000000000000000000000000000000000000PES00010000001000000000000000000000000000000000000000000                              000000000000000
201612210010000400000000000000006529                8000000000030675407416FERRETERA DEL NORTE SRL       000000002726788000000000000000000000000000000000000000000000000000000000000000000000034488000000000000000000000000000000PES00010000001000000000000000000000000000000000000000000                              000000000000000
201612210030000400000000000000003931                8000000000030675407416FERRETERA DEL NORTE SRL       000000000582504000000000000000000000000000000000000000000000000000000000000000000000007367000000000000000000000000000000PES00010000001000000000000000000000000000000000000000000                              000000000000000
201612150010000900000000000000330906                8000000000030707297154FERRETERA GENERAL PAZ SRL     000000000862791000000000000000000000000000000000000000000000000000000000000000000000000000000000000000000000000000000000PES00010000001000000000000000000000000000000000000000000                              000000000000000
201612150010000900000000000000330907                8000000000030707297154FERRETERA GENERAL PAZ SRL     000000000821957000000000000000000000000000000000000000000000000000000000000000000000000000000000000000000000000000000000PES00010000001000000000000000000000000000000000000000000                              000000000000000
201612150010000900000000000000330908                8000000000030707297154FERRETERA GENERAL PAZ SRL     000000001495345000000000000000000000000000000000000000000000000000000000000000000000000000000000000000000000000000000000PES00010000001000000000000000000000000000000000000000000                              000000000000000
201612150010000900000000000000330909                8000000000030707297154FERRETERA GENERAL PAZ SRL     000000000942821000000000000000000000000000000000000000000000000000000000000000000000000000000000000000000000000000000000PES00010000001000000000000000000000000000000000000000000                              000000000000000
201612150010000900000000000000330910                8000000000030707297154FERRETERA GENERAL PAZ SRL     000000000745452000000000000000000000000000000000000000000000000000000000000000000000000000000000000000000000000000000000PES00010000001000000000000000000000000000000000000000000                              000000000000000
201612150010000900000000000000330911                8000000000030707297154FERRETERA GENERAL PAZ SRL     000000000561602000000000000000000000000000000000000000000000000000000000000000000000000000000000000000000000000000000000PES00010000001000000000000000000000000000000000000000000                              000000000000000
201612150010000900000000000000330912                8000000000030707297154FERRETERA GENERAL PAZ SRL     000000000237674000000000000000000000000000000000000000000000000000000000000000000000000000000000000000000000000000000000PES00010000001000000000000000000000000000000000000000000                              000000000000000
201612150010000900000000000000330913                8000000000030707297154FERRETERA GENERAL PAZ SRL     000000000102163000000000000000000000000000000000000000000000000000000000000000000000000000000000000000000000000000000000PES00010000001000000000000000000000000000000000000000000                              000000000000000
201612150010000900000000000000330914                8000000000030707297154FERRETERA GENERAL PAZ SRL     000000000135925000000000000000000000000000000000000000000000000000000000000000000000000000000000000000000000000000000000PES00010000001000000000000000000000000000000000000000000                              000000000000000
201612150010000900000000000000330915                8000000000030707297154FERRETERA GENERAL PAZ SRL     000000000121028000000000000000000000000000000000000000000000000000000000000000000000000000000000000000000000000000000000PES00010000001000000000000000000000000000000000000000000                              000000000000000
201612150010000900000000000000330916                8000000000030707297154FERRETERA GENERAL PAZ SRL     000000000101917000000000000000000000000000000000000000000000000000000000000000000000000000000000000000000000000000000000PES00010000001000000000000000000000000000000000000000000                              000000000000000
201612150010000900000000000000330917                8000000000030707297154FERRETERA GENERAL PAZ SRL     000000000067249000000000000000000000000000000000000000000000000000000000000000000000000000000000000000000000000000000000PES00010000001000000000000000000000000000000000000000000                              000000000000000
201701090010000300000000000000029429                8000000000033680021819GRAZIOLI S.R.L                000000001457176000000000000000000000000000000000000000000000000000000000000000000000000000000000000000000000000000000000PES00010000001000000000000000000000000000000000000000000                              000000000000000
201701190010000300000000000000006314                8000000000033712492339GRUPO H Y S S.R.L             000000000346600000000000000000000000000000000000000000000000000000000000000000000000000000000000000000000000000000000000PES00010000001000000000000000000000000000000000000000000                              000000000000000
201612140010002900000000000000009026                8000000000030500130128HORIZONTES S.A                000000000059668000000000000000000000000000000000000000000000000000000000000000000000000000000000000000000000000000000000PES00010000001000000000000000000000000000000000000000000                              000000000000000
201612210010002900000000000000009138                8000000000030500130128HORIZONTES S.A                000000000179012000000000000000000000000000000000000000000000000000000000000000000000000000000000000000000000000000000000PES00010000001000000000000000000000000000000000000000000                              000000000000000
201612310010002900000000000000009238                8000000000030500130128HORIZONTES S.A                000000000218790000000000000000000000000000000000000000000000000000000000000000000000000000000000000000000000000000000000PES00010000001000000000000000000000000000000000000000000                              000000000000000
201612210010000200000000000000000651                8000000000030711964556INFLEXICO S.R.L               000000002945866000000000000000000000000000000000000000000000000000000000000000000000000000000000000000000000000000000000PES00010000001000000000000000000000000000000000000000000                              000000000000000
201701090010050100000000000000140748                8000000000030500530851LOMA NEGRA C.I.A.S.A          000000024360059000000000000000000000000000000000000000589356000000000000000000000000000000000000000000000000000000000000PES00010000001000000000000000000000000000000000000000000                              000000000000000
201701100030050100000000000000061479                8000000000030500530851LOMA NEGRA C.I.A.S.A          000000012076991000000000000000000000000000000000000000000000000000000000000000000000000000000000000000000000000000000000PES00010000001000000000000000000000000000000000000000000                              000000000000000
201612310010050100000000000000140452                8000000000030500530851LOMA NEGRA C.I.A.S.A          000000101163980000000000000000000000000000000000000002447520000000000000000000000000000000000000000000000000000000000000PES00010000001000000000000000000000000000000000000000000                              000000000000000
201612310010050100000000000000140453                8000000000030500530851LOMA NEGRA C.I.A.S.A          000000007753663000000000000000000000000000000000000000187589000000000000000000000000000000000000000000000000000000000000PES00010000001000000000000000000000000000000000000000000                              000000000000000
201701160010050100000000000000141071                8000000000030500530851LOMA NEGRA C.I.A.S.A          000000049044204000000000000000000000000000000000000001186553000000000000000000000000000000000000000000000000000000000000PES00010000001000000000000000000000000000000000000000000                              000000000000000
201701020010000200000000000000004556                8000000000030712479945INOXIDABLES DEL SUR S.A       000000000908952000000000000000000000000000000000000000000000000000000000000000000000000000000000000000000000000000000000PES00010000001000000000000000000000000000000000000000000                              000000000000000
201701040010001500000000000000005691                8000000000030711794286MASTER CLEAN SA               000000000520542000000000000000000000000000000000000000000000000000000000000000000000000000000000000000000000000000000000PES00010000001000000000000000000000000000000000000000000                              000000000000000
201701070010000300000000000000023705                8000000000030711794286MASTER CLEAN SA               000000000015734000000000000000000000000000000000000000000000000000000000000000000000000000000000000000000000000000000000PES00010000001000000000000000000000000000000000000000000                              000000000000000
201612020010000300000000000000000511                8000000000020167350993CANIZARES SERGIO LUIS         000000000199360000000000000000000000000000000000000000000000000000000000000000000000005760000000000000000000000000000000PES00010000001000000000000000000000000000000000000000000                              000000000000000
201701090010000400000000000000039701                8000000000030703596394MAROPOR S.R.L                 000000000842818000000000000000000000000000000000000000000000000000000000000000000000000000000000000000000000000000000000PES00010000001000000000000000000000000000000000000000000                              000000000000000
201612140010000500000000000000001064                8000000000030607769415NOMASGOT S.R.L                000000001219244000000000000000000000000000000000000000000000000000000000000000000000000000000000000000000000000000000000PES00010000001000000000000000000000000000000000000000000                              000000000000000
201612120010004600000000000000001904                8000000000030621558982NOVA INFORMATICA S.A          000000000151500000000000000000000000000000000000000000000000000000000000000000000000000000000000000000000000000000000000PES00010000001000000000000000000000000000000000000000000                              000000000000000
201701110010000300000000000000000060                8000000000023262936449ORTIZ VICTOR HUGO             000000003748091000000000000000000000000000000000000000000000000000000000000000000000000000000000000000000000000000000000PES00010000001000000000000000000000000000000000000000000                              000000000000000
201612280010002300000000000000028083                8000000000030556095597PAREXKLAUKOL S.A              000000000231155000000000000000000000000000000000000000005435000000000000000000000000006522000000000000000000000000000000PES00010000001000000000000000000000000000000000000000000                              000000000000000
201612280010002300000000000000028085                8000000000030556095597PAREXKLAUKOL S.A              000000002550882000000000000000000000000000000000000000059974000000000000000000000000071968000000000000000000000000000000PES00010000001000000000000000000000000000000000000000000                              000000000000000
201612280010002300000000000000028087                8000000000030556095597PAREXKLAUKOL S.A              000000000991986000000000000000000000000000000000000000023323000000000000000000000000027987000000000000000000000000000000PES00010000001000000000000000000000000000000000000000000                              000000000000000
201612280010002300000000000000028088                8000000000030556095597PAREXKLAUKOL S.A              000000003109351000000000000000000000000000000000000000073104000000000000000000000000087725000000000000000000000000000000PES00010000001000000000000000000000000000000000000000000                              000000000000000
201612220010002300000000000000028018                8000000000030556095597PAREXKLAUKOL S.A              000000009763830000000000000000000000000000000000000000229557000000000000000000000000275469000000000000000000000000000000PES00010000001000000000000000000000000000000000000000000                              000000000000000
201612200010002300000000000000027984                8000000000030556095597PAREXKLAUKOL S.A              000000009238110000000000000000000000000000000000000000217197000000000000000000000000260636000000000000000000000000000000PES00010000001000000000000000000000000000000000000000000                              000000000000000
201701030010002400000000000000004326                8000000000030681305129PROMET S.R.L                  000000001409976000000000000000000000000000000000000000000000000000000000000000000000017205000000000004932000000000000000PES00010000001000000000000000000000000000000000000000000                              000000000000000
201612150010007100000000000000012023                8000000000030644685906SALTA PLAST POLIETILENOS S.R.L000000000021599000000000000000000000000000000000000000000000000000000000000000000000000000000000000000000000000000000000PES00010000001000000000000000000000000000000000000000000                              000000000000000
201701140010007100000000000000012574                8000000000030644685906SALTA PLAST POLIETILENOS S.R.L000000000021599000000000000000000000000000000000000000000000000000000000000000000000000000000000000000000000000000000000PES00010000001000000000000000000000000000000000000000000                              000000000000000
201612190010000100000000000000001307                8000000000030715082337SANITEC S.R.L                 000000001255583000000000000000000000000000000000000000000000000000000000000000000000000000000000000000000000000000000000PES00010000001000000000000000000000000000000000000000000                              000000000000000
201701040010000300000000000000002340                8000000000027050998296PERALES SELVA ROSA            000000000033500000000000000000000000000000000000000000000000000000000000000000000000000000000000000000000000000000000000PES00010000001000000000000000000000000000000000000000000                              000000000000000
201612210010007200000000000000090443                8000000000030696173008TRADELOG S.A                  000000000041951000000000000000000000000000000000000000000000000000000000000000000000000000000000000000000000000000000000PES00010000001000000000000000000000000000000000000000000                              000000000000000
201701020010007200000000000000091985                8000000000030696173008TRADELOG S.A                  000000000071393000000000003373000000000000000000000000000000000000000000000000000000000000000000000000000000000000000000PES00010000001000000000000000000000000000000000000000000                              000000000000000
201701160010007200000000000000093466                8000000000030696173008TRADELOG S.A                  000000000051953000000000002454000000000000000000000000000000000000000000000000000000000000000000000000000000000000000000PES00010000001000000000000000000000000000000000000000000                              000000000000000
201612210010000900000000000000013654                8000000000030699097884TST S.A                       000000000674454000000000000000000000000000000000000000000000000000000000000000000000000000000000000000000000000000000000PES00010000001000000000000000000000000000000000000000000                              000000000000000
201612110010209300000000000006531350                8000000000030678814357TELEFONICA MOVILES ARGENTINA S000000000000214000000000000002000000000000000000000000000000000000000000000000000000000000000000000000000000000000000000PES00010000001000000000000000000000000000000000000000000                              000000000000000
201612220010010100000000000000350012                8000000000030690633635EDESA S.A.                    000000000043982000000000015357000000000000000000000000000000000000000000000000000000000151000000000000000000000000000000PES00010000001000000000000000000000000000000000000000000                              000000000000000
201612190010010100000000000000347586                8000000000030690633635EDESA S.A.                    000000000169291000000000009934000000000000000000000000000000000000000000000000000000004393000000000000000000000000000000PES00010000001000000000000000000000000000000000000000000                              000000000000000
201612210010010100000000000000348165                8000000000030690633635EDESA S.A.                    000000000138813000000000054706000000000000000000000000000000000000000000000000000000002318000000000000000000000000000000PES00010000002000000000000000000000000000000000000000000                              000000000000000
201612210010010100000000011111348165                8000000000030690633635EDESA S.A.                    000000000000149000000000000000000000000000000000000000000000000000000000000000000000000000000000000000000000000000000000PES00010000001000000000000000000000000000000000000000000                              000000000000000
201612210010010100000000000000348177                8000000000030690633635EDESA S.A.                    000000000086688000000000047546000000000000000000000000000000000000000000000000000000001079000000000000000000000000000000PES00010000002000000000000000000000000000000000000000000                              000000000000000
201612210010010100000000011111348177                8000000000030690633635EDESA S.A.                    000000000000068000000000000000000000000000000000000000000000000000000000000000000000000000000000000000000000000000000000PES00010000001000000000000000000000000000000000000000000                              000000000000000
201612300010010100000000000000352855                8000000000030690633635EDESA S.A.                    000000000098359000000000042662000000000000000000000000000000000000000000000000000000001535000000000000000000000000000000PES00010000002000000000000000000000000000000000000000000                              000000000000000
201612300010010100000000011111352855                8000000000030690633635EDESA S.A.                    000000000000015000000000000000000000000000000000000000000000000000000000000000000000000000000000000000000000000000000000PES00010000001000000000000000000000000000000000000000000                              000000000000000
201612230010010100000000000000350751                8000000000030690633635EDESA S.A.                    000000000065688000000000041440000000000000000000000000000000000000000000000000000000000141000000000000000000000000000000PES00010000002000000000000000000000000000000000000000000                              000000000000000
201612230010010100000000011111350751                8000000000030690633635EDESA S.A.                    000000000000021000000000000000000000000000000000000000000000000000000000000000000000000000000000000000000000000000000000PES00010000001000000000000000000000000000000000000000000                              000000000000000
201611190010102200000000000005675320                8000000000030573652084CABLEVISION S.A.              000000000061900000000000000000000000000000000000000000000000000000000000000000000000000000000000000000000000000000000000PES00010000001000000000000000000000000000000000000000000                              000000000000000
201612180010102200000000000005810460                8000000000030573652084CABLEVISION S.A.              000000000064982000000000001572000000000000000000000000000000000000000000000000000000000000000000000000000000000000000000PES00010000001000000000000000000000000000000000000000000                              000000000000000
201611190010102200000000000005673719                8000000000030573652084CABLEVISION S.A.              000000000062749000000000000000000000000000000000000000000000000000000000000000000000000000000000000000000000000000000000PES00010000001000000000000000000000000000000000000000000                              000000000000000
201612180010102200000000000005809446                8000000000030573652084CABLEVISION S.A.              000000000073850000000000000000000000000000000000000000000000000000000000000000000000000000000000000000000000000000000000PES00010000001000000000000000000000000000000000000000000                              000000000000000
201701090010102200000000000005810581                8000000000030573652084CABLEVISION S.A.              000000000073850000000000000000000000000000000000000000000000000000000000000000000000000000000000000000000000000000000000PES00010000001000000000000000000000000000000000000000000                              000000000000000
201612120010810300000000000016259567                8000000000030639453738TELECOM ARGENTINA SA          000000000018326000000000000000000000000000000000000000000000000000000000000000000000000000000000000000000000000000000000PES00010000001000000000000000000000000000000000000000000                              000000000000000
201612120010810500000000000015344306                8000000000030639453738TELECOM ARGENTINA SA          000000000078250000000000000000000000000000000000000000000000000000000000000000000000000000000000000000000000000000000000PES00010000002000000000000000000000000000000000000000000                              000000000000000
201612120010810500000000011115344306                8000000000030639453738TELECOM ARGENTINA SA          000000000002949000000000000000000000000000000000000000000000000000000000000000000000000000000000000000000000000000000000PES00010000001000000000000000000000000000000000000000000                              000000000000000
201612310010551200000000000002144313                8000000000030678186445TELECOM PERSONAL SA           000000000115056000000000000860000000000000000000000000000000000000000000000000000000000000000000000000000000000000003583PES00010000001000000000000000000000000000000000000000000                              000000000000000
201612310010551200000000000002139791                8000000000030678186445TELECOM PERSONAL SA           000000000248521000000000002395000000000000000000000000007254000000000000000000000000000000000000000000000000000000007495PES00010000002000000000000000000000000000000000000000000                              000000000000000
201701230010551200000000011112139791                8000000000030678186445TELECOM PERSONAL SA           000000000072132000000000000000000000000000000000000000000000000000000000000000000000000000000000000000000000000000000000PES00010000001000000000000000000000000000000000000000000                              000000000000000
201612270010000600000000000000009975                8000000000033521817599CERAMICA SALTE헤 S.A.         000000000250770000000000000000000000000000000000000000000000000000000000000000000000007245000000000000000000000000000000PES00010000001000000000000000000000000000000000000000000                              000000000000000
201612010010000600000000000000009502                8000000000033521817599CERAMICA SALTE헤 S.A.         000000000105225000000000000000000000000000000000000000000000000000000000000000000000003040000000000000000000000000000000PES00010000001000000000000000000000000000000000000000000                              000000000000000
201612070010000600000000000000009630                8000000000033521817599CERAMICA SALTE헤 S.A.         000000000673828000000000000000000000000000000000000000000000000000000000000000000000019469000000000000000000000000000000PES00010000001000000000000000000000000000000000000000000                              000000000000000
201612210010000600000000000000009894                8000000000033521817599CERAMICA SALTE헤 S.A.         000000000535705000000000000000000000000000000000000000000000000000000000000000000000015478000000000000000000000000000000PES00010000001000000000000000000000000000000000000000000                              000000000000000
201701050010000600000000000000010147                8000000000033521817599CERAMICA SALTE헤 S.A.         000000000265331000000000000000000000000000000000000000000000000000000000000000000000007666000000000000000000000000000000PES00010000001000000000000000000000000000000000000000000                              000000000000000
201612300010000200000000000000001293                8000000000027046739847GONZALEZ MARTA MAURICIA       000000000164395000000000000000000000000000000000000000000000000000000000000000000000000000000000000000000000000000000000PES00010000001000000000000000000000000000000000000000000                              000000000000000
201701100010000400000000000000073635                8000000000030535302606FUNDICION DELTA SRL           000000001961043000000000000000000000000000000000000000000000000000000000000000000000000000000000000000000000000000000000PES00010000001000000000000000000000000000000000000000000                              000000000000000
201701180010000400000000000000001210                8000000000030709962295DISTRIBUCIONES FATIMA SRL     000000000868918000000000000000000000000000000000000000000000000000000000000000000000000000000000000000000000000000000000PES00010000001000000000000000000000000000000000000000000                              000000000000000
201701180010002100000000000000108185                8000000000030552816168DURLOCK S.A.                  000000006034309000000000281101000000000000000000000000000000000000000000000000000000084330000000000000000000000000000000PES00010000001000000000000000000000000000000000000000000                              000000000000000
201701130010002100000000000000107831                8000000000030552816168DURLOCK S.A.                  000000005142170000000000000000000000000000000000000000000000000000000000000000000000075374000000000000000000000000000000PES00010000001000000000000000000000000000000000000000000                              000000000000000
201701130010002100000000000000107830                8000000000030552816168DURLOCK S.A.                  000000013994983000000000000000000000000000000000000000000000000000000000000000000000205138000000000000000000000000000000PES00010000001000000000000000000000000000000000000000000                              000000000000000
201612130010007400000000000000048418                8000000000030503037226EMAPI S.A.                    000000000134472000000000000000000000000000000000000000000000000000000000000000000000000000000000000000000000000000000000PES00010000001000000000000000000000000000000000000000000                              000000000000000
201701130010007400000000000000050285                8000000000030503037226EMAPI S.A.                    000000001908963000000000000000000000000000000000000000000000000000000000000000000000000000000000000000000000000000000000PES00010000001000000000000000000000000000000000000000000                              000000000000000
201701130010007400000000000000050286                8000000000030503037226EMAPI S.A.                    000000008363716000000000000000000000000000000000000000000000000000000000000000000000000000000000000000000000000000000000PES00010000001000000000000000000000000000000000000000000                              000000000000000
201701130010000200000000000000004678                8000000000030712479945INOXIDABLES DEL SUR S.A.      000000000785169000000000000000000000000000000000000000000000000000000000000000000000000000000000000000000000000000000000PES00010000001000000000000000000000000000000000000000000                              000000000000000
201701240010002900000000000000009423                8000000000030500130128HORIZONTES S.A                000000000271499000000000000000000000000000000000000000000000000000000000000000000000000000000000000000000000000000000000PES00010000001000000000000000000000000000000000000000000                              000000000000000
201701250010000300000000000000024018                8000000000030711794286MASTER CLEAN S.A.             000000000546678000000000000000000000000000000000000000000000000000000000000000000000000000000000000000000000000000000000PES00010000001000000000000000000000000000000000000000000                              000000000000000
201701230010050100000000000000141407                8000000000030500530851LOMA NEGRA C.I.A.S.A          000000060900147000000000000000000000000000000000000001473390000000000000000000000000000000000000000000000000000000000000PES00010000001000000000000000000000000000000000000000000                              000000000000000
201701230010050100000000000000141408                8000000000030500530851LOMA NEGRA C.I.A.S.A          000000003208263000000000000000000000000000000000000000077619000000000000000000000000000000000000000000000000000000000000PES00010000001000000000000000000000000000000000000000000                              000000000000000
201701120010002300000000000000028260                8000000000030556095597PAREXKLAUKOL S.A              000000001532190000000000000000000000000000000000000000036023000000000000000000000000043228000000000000000000000000000000PES00010000001000000000000000000000000000000000000000000                              000000000000000
201701210010000300000000000000000063                8000000000023262936449ORTIZ VICTOR HUGO             000000003751107000000000000000000000000000000000000000000000000000000000000000000000000000000000000000000000000000000000PES00010000001000000000000000000000000000000000000000000                              000000000000000
201701180010000100000000000000020401                8000000000030713678909PIAZZA HIDROSANITARIOS S.A.   000000000399842000000000000000000000000000000000000000000000000000000000000000000000000000000000000000000000000000000000PES00010000001000000000000000000000000000000000000000000                              000000000000000
201701110010002000000000000000002091                8000000000030505374866PRODUCTOS VENIER S.A.         000000001018052000000000000000000000000000000000000000000000000000000000000000000000024630000000000000000000000000000000PES00010000001000000000000000000000000000000000000000000                              000000000000000
201701230010001500000000000000025270                8000000000030543364475RULEMANES SALTA SRL           000000000036000000000000000000000000000000000000000000000000000000000000000000000000000000000000000000000000000000000000PES00010000001000000000000000000000000000000000000000000                              000000000000000
201701260010007100000000000000012792                8000000000030644685906SALTA PLAST POLIETILENOS S.R.L000000000024095000000000000000000000000000000000000000000000000000000000000000000000000696000000000000000000000000000000PES00010000001000000000000000000000000000000000000000000                              000000000000000
201611240010001100000000000000011430                8000000000030563516573SUC. ROBERTO SAMAN SRL        000000000172407000000000000000000000000000000000000000000000000000000000000000000000004307000000000000000000000000000000PES00010000001000000000000000000000000000000000000000000                              000000000000000
201612280010001100000000000000011579                8000000000030563516573SUC. ROBERTO SAMAN SRL        000000000148715000000000000000000000000000000000000000000000000000000000000000000000003715000000000000000000000000000000PES00010000001000000000000000000000000000000000000000000                              000000000000000
201611300010000200000000000000000266                8000000000030714084425TRANS-VEL S.R.L.              000000000728686000000000000000000000000000000000000000000000000000000000000000000000000000000000000000000000000000000000PES00010000001000000000000000000000000000000000000000000                              000000000000000
