201710130010810400000000000017002314                8000000000030639453798TELECOM ARGENTINA SA          000000000056468000000000000000000000000000000000000000000000000000000000000000000000000000000000000000000000000000000000PES00010000001000000000000000000000000000000000000000000                              000000000000000
201710130010810200000000000017055806                8000000000030639453798TELECOM ARGENTINA SA          000000000024328000000000000000000000000000000000000000000000000000000000000000000000000000000000000000000000000000000000PES00010000001000000000000000000000000000000000000000000                              000000000000000
201710190010105400000000000000428928                8000000000030573652084CABLEVISION SA                000000000140303000000000003394000000000000000000000000000000000000000000000000000000000000000000000000000000000000000000PES00010000001000000000000000000000000000000000000000000                              000000000000000
201710190010105400000000000000428348                8000000000030573652084CABLEVISION SA                000000000083000000000000000000000000000000000000000000000000000000000000000000000000000000000000000000000000000000000000PES00010000001000000000000000000000000000000000000000000                              000000000000000
201710190010105400000000000000428354                8000000000030573652084CABLEVISION SA                000000000083000000000000000000000000000000000000000000000000000000000000000000000000000000000000000000000000000000000000PES00010000001000000000000000000000000000000000000000000                              000000000000000
201710310010551200000000000003349940                8000000000030678186446TELECOM PERSONAL SA           000000000152256000000000001142000000000000000000000000000000000000000000000000000000000000000000000000000000000000004758PES00010000001000000000000000000000000000000000000000000                              000000000000000
201710310010551200000000000003347853                8000000000030678186446TELECOM PERSONAL SA           000000000272045000000000002039000000000000000000000000006173000000000000000000000000000000000000000000000000000000008305PES00010000002000000000000000000000000000000000000000000                              000000000000000
201710310010551200000000011113347853                8000000000030678186446TELECOM PERSONAL SA           000000000005508000000000000000000000000000000000000000000000000000000000000000000000000000000000000000000000000000000000PES00010000001000000000000000000000000000000000000000000                              000000000000000
201711020010010100000000000000468469                8000000000030690633635EDESA SA                      000000000187110000000000021659000000000000000000000000000000000000000000000000000000004561000000000000000000000000000000PES00010000001000000000000000000000000000000000000000000                              000000000000000
201710180010010100000000000000461531                8000000000030690633635EDESA SA                      000000000102900000000000064257000000000000000000000000000000000000000000000000000000001065000000000000000000000000000000PES00010000001000000000000000000000000000000000000000000                              000000000000000
201710180010010100000000000000461562                8000000000030690633635EDESA SA                      000000000082652000000000055977000000000000000000000000000000000000000000000000000000000197000000000000000000000000000000PES00010000002000000000000000000000000000000000000000000                              000000000000000
201710180010010100000000011111461562                8000000000030690633635EDESA SA                      000000000000040000000000000000000000000000000000000000000000000000000000000000000000000000000000000000000000000000000000PES00010000001000000000000000000000000000000000000000000                              000000000000000
201710180010010100000000000000461561                8000000000030690633635EDESA SA                      000000000185127000000000086133000000000000000000000000000000000000000000000000000000002729000000000000000000000000000000PES00010000002000000000000000000000000000000000000000000                              000000000000000
201710180010010100000000011111461561                8000000000030690633635EDESA SA                      000000000000053000000000000000000000000000000000000000000000000000000000000000000000000000000000000000000000000000000000PES00010000001000000000000000000000000000000000000000000                              000000000000000
201711100010010100000000000000463751                8000000000030690633635EDESA SA                      000000000084002000000000022687000000000000000000000000000000000000000000000000000000000450000000000000000000000000000000PES00010000002000000000000000000000000000000000000000000                              000000000000000
201711100010010100000000011111463751                8000000000030690633635EDESA SA                      000000000000008000000000000000000000000000000000000000000000000000000000000000000000000000000000000000000000000000000000PES00010000001000000000000000000000000000000000000000000                              000000000000000
201711170010000400000000000000003128                8000000000020302226416DEL BARCO MATIAS              000000000050000000000000000000000000000000000000000000000000000000000000000000000000000000000000000000000000000000000000PES00010000001000000000000000000000000000000000000000000                              000000000000000
201711080010000100000000000000000210                8000000000030711740208CONSULTING GROUP SRL          000000001499824000000000000000000000000000000000000000000000000000000000000000000000000000000000000000000000000000000000PES00010000001000000000000000000000000000000000000000000                              000000000000000
201711020010000300000000000000031696                8000000000033680021819GRAZIOLI SRL                  000000000137749000000000000000000000000000000000000000000000000000000000000000000000000000000000000000000000000000000000PES00010000001000000000000000000000000000000000000000000                              000000000000000
201709300010026400000000000000124611                8000000000030501111127HOLCIM ARGENTINA SA           000000045439392000000000000000000000000000000000000001095540000000000000000000000000000000000000000157026000000000000000PES00010000001000000000000000000000000000000000000000000                              000000000000000
201709300010026400000000000000124612                8000000000030501111127HOLCIM ARGENTINA SA           000000091287414000000000000000000000000000000000000002200932000000000000000000000000000000000000000315472000000000000000PES00010000001000000000000000000000000000000000000000000                              000000000000000
201709300030026400000000000000001280                8000000000030501111127HOLCIM ARGENTINA SA           000000001000630000000000000000000000000000000000000000024126000000000000000000000000000000000000000003458000000000000000PES00010000001000000000000000000000000000000000000000000                              000000000000000
201710080010026400000000000000125028                8000000000030501111127HOLCIM ARGENTINA SA           000000016749412000000000000000000000000000000000000000403827000000000000000000000000000000000000000057883000000000000000PES00010000001000000000000000000000000000000000000000000                              000000000000000
201710080010026400000000000000125029                8000000000030501111127HOLCIM ARGENTINA SA           000000053012624000000000000000000000000000000000000001278130000000000000000000000000000000000000000183197000000000000000PES00010000001000000000000000000000000000000000000000000                              000000000000000
201710080010026400000000000000125030                8000000000030501111127HOLCIM ARGENTINA SA           000000129150654000000000000000000000000000000000000003113812000000000000000000000000000000000000000446317000000000000000PES00010000001000000000000000000000000000000000000000000                              000000000000000
201710080030026400000000000000001296                8000000000030501111127HOLCIM ARGENTINA SA           000000000517568000000000000000000000000000000000000000012479000000000000000000000000000000000000000001789000000000000000PES00010000001000000000000000000000000000000000000000000                              000000000000000
201710080030026400000000000000001297                8000000000030501111127HOLCIM ARGENTINA SA           000000003588467000000000000000000000000000000000000000086520000000000000000000000000000000000000000012402000000000000000PES00010000001000000000000000000000000000000000000000000                              000000000000000
201710150010026400000000000000125449                8000000000030501111127HOLCIM ARGENTINA SA           000000123799510000000000000000000000000000000000000002984798000000000000000000000000000000000000000427824000000000000000PES00010000001000000000000000000000000000000000000000000                              000000000000000
201710150010026400000000000000125450                8000000000030501111127HOLCIM ARGENTINA SA           000000060585856000000000000000000000000000000000000001460720000000000000000000000000000000000000000209368000000000000000PES00010000001000000000000000000000000000000000000000000                              000000000000000
201710150030026400000000000000001316                8000000000030501111127HOLCIM ARGENTINA SA           000000005969274000000000000000000000000000000000000000143924000000000000000000000000000000000000000020628000000000000000PES00010000001000000000000000000000000000000000000000000                              000000000000000
201711140010002300000000000000032537                8000000000030556095597PAREXKLAUKOL SA               000000009753132000000000000000000000000000000000000000229306000000000000000000000000275167000000000000000000000000000000PES00010000001000000000000000000000000000000000000000000                              000000000000000
201711070010002000000000000000025402                8000000000030505374866PRODUCTOS VENIER SA           000000004669057000000000000000000000000000000000000000000000000000000000000000000000116632000000000000000000000000000000PES00010000001000000000000000000000000000000000000000000                              000000000000000
201711080010050100000000000000157292                8000000000030500530851LOMA NEGRA CIASA              000000026921062000000000000000000000000000000000000000651315000000000000000000000000000000000000000000000000000000000000PES00010000001000000000000000000000000000000000000000000                              000000000000000
201711100010002100000000000000124515                8000000000030552816168DURLOCK SA                    000000011510036000000000000000000000000000000000000000000000000000000000000000000000168714000000000000000000000000000000PES00010000001000000000000000000000000000000000000000000                              000000000000000
201711070010002300000000000000032447                8000000000030556095597PAREXKLAUKOL SA               000000000430573000000000000000000000000000000000000000010123000000000000000000000000012148000000000000000000000000000000PES00010000001000000000000000000000000000000000000000000                              000000000000000
201711100030002200000000000000112433                8000000000030556095597PAREXKLAUKOL SA               000000000103255000000000000000000000000000000000000000000000000000000000000000000000000000000000000000000000000000000000PES00010000001000000000000000000000000000000000000000000                              000000000000000
201711150030002200000000000000112644                8000000000030556095597PAREXKLAUKOL SA               000000000891793000000000000000000000000000000000000000000000000000000000000000000000000000000000000000000000000000000000PES00010000001000000000000000000000000000000000000000000                              000000000000000
201711160030002200000000000000112738                8000000000030556095597PAREXKLAUKOL SA               000000000024895000000000000000000000000000000000000000000000000000000000000000000000000000000000000000000000000000000000PES00010000001000000000000000000000000000000000000000000                              000000000000000
201710170010050100000000000000155924                8000000000030500530851LOMA NEGRA CIASA              000000026921062000000000000000000000000000000000000000651315000000000000000000000000000000000000000000000000000000000000PES00010000001000000000000000000000000000000000000000000                              000000000000000
201710100030050100000000000000066305                8000000000030500530851LOMA NEGRA CIASA              000000002604956000000000000000000000000000000000000000000000000000000000000000000000000000000000000000000000000000000000PES00010000001000000000000000000000000000000000000000000                              000000000000000
201710310010050100000000000000156874                8000000000030500530851LOMA NEGRA CIASA              000000017947375000000000000000000000000000000000000000434210000000000000000000000000000000000000000000000000000000000000PES00010000001000000000000000000000000000000000000000000                              000000000000000
201710230010050100000000000000156296                8000000000030500530851LOMA NEGRA CIASA              000000008973687000000000000000000000000000000000000000217105000000000000000000000000000000000000000000000000000000000000PES00010000001000000000000000000000000000000000000000000                              000000000000000
201711140010000400000000000000005874                8000000000030603955842OLEOHIDRAULICA SALTA SRL      000000000419999000000000000000000000000000000000000000000000000000000000000000000000000000000000000000000000000000000000PES00010000001000000000000000000000000000000000000000000                              000000000000000
201710280010000300000000000000000170                8000000000023262936449ORTIZ VICTOR HUGO             000000004121313000000000000000000000000000000000000000000000000000000000000000000000000000000000000000000000000000000000PES00010000001000000000000000000000000000000000000000000                              000000000000000
201710300010000300000000000000000171                8000000000023262936449ORTIZ VICTOR HUGO             000000004261256000000000000000000000000000000000000000000000000000000000000000000000000000000000000000000000000000000000PES00010000001000000000000000000000000000000000000000000                              000000000000000
201710300010000300000000000000000172                8000000000023262936449ORTIZ VICTOR HUGO             000000004167935000000000000000000000000000000000000000000000000000000000000000000000000000000000000000000000000000000000PES00010000001000000000000000000000000000000000000000000                              000000000000000
201711160010000300000000000000000178                8000000000023262936449ORTIZ VICTOR HUGO             000000004287171000000000000000000000000000000000000000000000000000000000000000000000000000000000000000000000000000000000PES00010000001000000000000000000000000000000000000000000                              000000000000000
201711150010000300000000000000000176                8000000000023262936449ORTIZ VICTOR HUGO             000000004261247000000000000000000000000000000000000000000000000000000000000000000000000000000000000000000000000000000000PES00010000001000000000000000000000000000000000000000000                              000000000000000
201710310010007200000000000000017961                8000000000030602764032ECCO SA                       000000000099600000000000000000000000000000000000000000000000000000000000000000000000000000000000000000000000000000000000PES00010000001000000000000000000000000000000000000000000                              000000000000000
201710200010101000000000000000201022                8000000000030501199253ACINDAR INDUSTRIA ARGENTINA DE000000009317856000000000000000000000000000000000000000224346000000000000000000000000000000000000000044869000000000000000PES00010000001000000000000000000000000000000000000000000                              000000000000000
201710300010102700000000000000007523                8000000000030501199253ACINDAR INDUSTRIA ARGENTINA DE000000024497721000000000000000000000000000000000000000589833000000000000000000000000000000000000000117966000000000000000PES00010000001000000000000000000000000000000000000000000                              000000000000000
201710250010003200000000000000005708                8000000000030710204671AUTOPERFORANTES SA            000000002428299000000000000000000000000000000000000000000000000000000000000000000000000000000000000000000000000000000000PES00010000001000000000000000000000000000000000000000000                              000000000000000
201710250010003100000000000000014765                8000000000030710204671AUTOPERFORANTES SA            000000007082954000000000000000000000000000000000000000000000000000000000000000000000000000000000000000000000000000000000PES00010000001000000000000000000000000000000000000000000                              000000000000000
201710250010003100000000000000014766                8000000000030710204671AUTOPERFORANTES SA            000000009512771000000000000000000000000000000000000000000000000000000000000000000000000000000000000000000000000000000000PES00010000001000000000000000000000000000000000000000000                              000000000000000
201710200010000300000000000000000127                8000000000030711823618ANCEBA SRL                    000000001758517000000000000000000000000000000000000000000000000000000000000000000000000000000000000000000000000000000000PES00010000001000000000000000000000000000000000000000000                              000000000000000
201709210010001100000000000000084832                8000000000030639201232AD BARBIERI SA                000000037948487000000000000000000000000000000000000000000000000000000000000000000000000000000000000000000000000000000000PES00010000001000000000000000000000000000000000000000000                              000000000000000
201709210010001100000000000000084833                8000000000030639201232AD BARBIERI SA                000000024999941000000000000000000000000000000000000000000000000000000000000000000000000000000000000000000000000000000000PES00010000001000000000000000000000000000000000000000000                              000000000000000
201710100010000500000000000000003672                8000000000030586321389VICENTE ALBORS SA             000000006917110000000000000000000000000000000000000000000000000000000000000000000000000000000000000000000000000000000000PES00010000001000000000000000000000000000000000000000000                              000000000000000
201710140010000500000000000000003698                8000000000030586321389VICENTE ALBORS SA             000000007001859000000000000000000000000000000000000000000000000000000000000000000000000000000000000000000000000000000000PES00010000001000000000000000000000000000000000000000000                              000000000000000
201710110010000600000000000000017706                8000000000033521817599CERAMICA SALTEÑA SA           000000001502211000000000000000000000000000000000000000000000000000000000000000000000043403000000000000000000000000000000PES00010000001000000000000000000000000000000000000000000                              000000000000000
201710110010000600000000000000017705                8000000000033521817599CERAMICA SALTEÑA SA           000000000424712000000000000000000000000000000000000000000000000000000000000000000000012271000000000000000000000000000000PES00010000001000000000000000000000000000000000000000000                              000000000000000
201711010010000600000000000000018267                8000000000033521817599CERAMICA SALTEÑA SA           000000000125212000000000000000000000000000000000000000000000000000000000000000000000003618000000000000000000000000000000PES00010000001000000000000000000000000000000000000000000                              000000000000000
201709280010001000000000000000050758                8000000000030648270417D´ACCORD SA                   000000004071553000000000000000000000000000000000000000000000000000000000000000000000000000000000000000000000000000000000PES00010000001000000000000000000000000000000000000000000                              000000000000000
201710210010002100000000000000123136                8000000000030552816168DURLOCK SA                    000000005979423000000000000000000000000000000000000000000000000000000000000000000000087646000000000000000000000000000000PES00010000001000000000000000000000000000000000000000000                              000000000000000
201710210010002100000000000000123135                8000000000030552816168DURLOCK SA                    000000014959333000000000000000000000000000000000000000000000000000000000000000000000219274000000000000000000000000000000PES00010000001000000000000000000000000000000000000000000                              000000000000000
201710300030002100000000000000040355                8000000000030552816168DURLOCK SA                    000000000615910000000000000000000000000000000000000000000000000000000000000000000000000000000000000000000000000000000000PES00010000001000000000000000000000000000000000000000000                              000000000000000
201710300030002100000000000000040356                8000000000030552816168DURLOCK SA                    000000000239177000000000000000000000000000000000000000000000000000000000000000000000000000000000000000000000000000000000PES00010000001000000000000000000000000000000000000000000                              000000000000000
201709280010000400000000000000049753                8000000000030688372085ELECTRO MAYO SA               000000001235520000000000000000000000000000000000000000000000000000000000000000000000000000000000000000000000000000000000PES00010000002000000000000000000000000000000000000000000                              000000000000000
201709280010000400000000011111149753                8000000000030688372085ELECTRO MAYO SA               000000000323094000000000000000000000000000000000000000000000000000000000000000000000000000000000000000000000000000000000PES00010000001000000000000000000000000000000000000000000                              000000000000000
201709280010000400000000000000049754                8000000000030688372085ELECTRO MAYO SA               000000000098325000000000000000000000000000000000000000000000000000000000000000000000000000000000000000000000000000000000PES00010000002000000000000000000000000000000000000000000                              000000000000000
201709280010000400000000011111149754                8000000000030688372085ELECTRO MAYO SA               000000000133479000000000000000000000000000000000000000000000000000000000000000000000000000000000000000000000000000000000PES00010000001000000000000000000000000000000000000000000                              000000000000000
201709280010000400000000000000049751                8000000000030688372085ELECTRO MAYO SA               000000000736275000000000000000000000000000000000000000000000000000000000000000000000000000000000000000000000000000000000PES00010000002000000000000000000000000000000000000000000                              000000000000000
201709280010000400000000011111149751                8000000000030688372085ELECTRO MAYO SA               000000000035720000000000000000000000000000000000000000000000000000000000000000000000000000000000000000000000000000000000PES00010000001000000000000000000000000000000000000000000                              000000000000000
201709280010000400000000000000049752                8000000000030688372085ELECTRO MAYO SA               000000000127818000000000000000000000000000000000000000000000000000000000000000000000000000000000000000000000000000000000PES00010000001000000000000000000000000000000000000000000                              000000000000000
201710090010000400000000000000050558                8000000000030688372085ELECTRO MAYO SA               000000000939640000000000000000000000000000000000000000000000000000000000000000000000000000000000000000000000000000000000PES00010000001000000000000000000000000000000000000000000                              000000000000000
201710110010000300000000000000002548                8000000000030500905928EL ROBLE SRL                  000000005393547000000000000000000000000000000000000000000000000000000000000000000000000000000000000000000000000000000000PES00010000001000000000000000000000000000000000000000000                              000000000000000
201710110010000300000000000000002549                8000000000030500905928EL ROBLE SRL                  000000005144296000000000000000000000000000000000000000000000000000000000000000000000000000000000000000000000000000000000PES00010000001000000000000000000000000000000000000000000                              000000000000000
201710110010000300000000000000002550                8000000000030500905928EL ROBLE SRL                  000000000798092000000000000000000000000000000000000000000000000000000000000000000000000000000000000000000000000000000000PES00010000001000000000000000000000000000000000000000000                              000000000000000
201710110010000200000000000000012225                8000000000020106021733PODOROSKA JUAN JOSE           000000004159254000000000000000000000000000000000000000000000000000000000000000000000000000000000000000000000000000000000PES00010000001000000000000000000000000000000000000000000                              000000000000000
201710170010007400000000000000065088                8000000000030503037226EMAPI SA                      000000001844238000000000000000000000000000000000000000000000000000000000000000000000000000000000000000000000000000000000PES00010000001000000000000000000000000000000000000000000                              000000000000000
201710170010007400000000000000065089                8000000000030503037226EMAPI SA                      000000003733679000000000000000000000000000000000000000000000000000000000000000000000000000000000000000000000000000000000PES00010000001000000000000000000000000000000000000000000                              000000000000000
201710260010007400000000000000065733                8000000000030503037226EMAPI SA                      000000002195174000000000000000000000000000000000000000000000000000000000000000000000000000000000000000000000000000000000PES00010000001000000000000000000000000000000000000000000                              000000000000000
201710260010007400000000000000065734                8000000000030503037226EMAPI SA                      000000000878069000000000000000000000000000000000000000000000000000000000000000000000000000000000000000000000000000000000PES00010000001000000000000000000000000000000000000000000                              000000000000000
201710130010000300000000000000004646                8000000000030714917958EMILIA SRL                    000000000437590000000000000000000000000000000000000000000000000000000000000000000000000000000000000000000000000000000000PES00010000001000000000000000000000000000000000000000000                              000000000000000
201710260010001200000000000000088842                8000000000030500971041ETERNIT ARGENTINA SA          000000001382966000000000000000000000000000000000000000032515000000000000000000000000039018000000000000000000000000000000PES00010000001000000000000000000000000000000000000000000                              000000000000000
201710260010001200000000000000088846                8000000000030500971041ETERNIT ARGENTINA SA          000000001613757000000000000000000000000000000000000000037941000000000000000000000000045528000000000000000000000000000000PES00010000001000000000000000000000000000000000000000000                              000000000000000
201710260010001200000000000000088880                8000000000030500971041ETERNIT ARGENTINA SA          000000013279838000000000000000000000000000000000000000312222000000000000000000000000374666000000000000000000000000000000PES00010000001000000000000000000000000000000000000000000                              000000000000000
201710270010000900000000000000393808                8000000000030707297154FERRETERA GENERAL PAZ SRL     000000005855013000000000000000000000000000000000000000000000000000000000000000000000000000000000000000000000000000000000PES00010000001000000000000000000000000000000000000000000                              000000000000000
201710270010000900000000000000393809                8000000000030707297154FERRETERA GENERAL PAZ SRL     000000004369993000000000000000000000000000000000000000000000000000000000000000000000000000000000000000000000000000000000PES00010000002000000000000000000000000000000000000000000                              000000000000000
201710270010000900000000011111393809                8000000000030707297154FERRETERA GENERAL PAZ SRL     000000000038089000000000000000000000000000000000000000000000000000000000000000000000000000000000000000000000000000000000PES00010000001000000000000000000000000000000000000000000                              000000000000000
201710120020000900000000000000008004                8000000000030707297154FERRETERA GENERAL PAZ SRL     000000000018150000000000000000000000000000000000000000000000000000000000000000000000000000000000000000000000000000000000PES00010000001000000000000000000000000000000000000000000                              000000000000000
201710200010000400000000000000014032                8000000000030675407416FERRETERA DEL NORTE SRL       000000010865630000000000000000000000000000000000000000000000000000000000000000000000137427000000000000000000000000000000PES00010000001000000000000000000000000000000000000000000                              000000000000000
201710270010000500000000000000004485                8000000000030675407416FERRETERA DEL NORTE SRL       000000002354063000000000000000000000000000000000000000000000000000000000000000000000029774000000000000000000000000000000PES00010000001000000000000000000000000000000000000000000                              000000000000000
201710240010000400000000000000015062                8000000000030609285261FIJACIONES PY SA              000000000926798000000000000000000000000000000000000000000000000000000000000000000000000000000000000000000000000000000000PES00010000001000000000000000000000000000000000000000000                              000000000000000
201710240010000400000000000000015063                8000000000030609285261FIJACIONES PY SA              000000000121808000000000000000000000000000000000000000000000000000000000000000000000000000000000000000000000000000000000PES00010000001000000000000000000000000000000000000000000                              000000000000000
201710310010000300000000000000031672                8000000000033680021819GRAZIOLI SRL                  000000000766229000000000000000000000000000000000000000000000000000000000000000000000000000000000000000000000000000000000PES00010000001000000000000000000000000000000000000000000                              000000000000000
201710310010001300000000000000173063                8000000000030535896379IPS SAICYF                    000000001504677000000000000000000000000000000000000000000000000000000000000000000000000000000000000000000000000000000000PES00010000001000000000000000000000000000000000000000000                              000000000000000
201710310010002300000000000000031190                8000000000030535896379IPS SAICYF                    000000002532746000000000000000000000000000000000000000000000000000000000000000000000000000000000000000000000000000000000PES00010000001000000000000000000000000000000000000000000                              000000000000000
201710270010000300000000000000006185                8000000000030714469378MAYORISTA FERRETERO SRL       000000004064422000000000000000000000000000000000000000000000000000000000000000000000000000000000000000000000000000000000PES00010000001000000000000000000000000000000000000000000                              000000000000000
201709130010002300000000000000031557                8000000000030556095597PAREXKLAUKOL SA               000000000630744000000000000000000000000000000000000000014829000000000000000000000000017795000000000000000000000000000000PES00010000001000000000000000000000000000000000000000000                              000000000000000
201710100010002300000000000000032025                8000000000030556095597PAREXKLAUKOL SA               000000000188026000000000000000000000000000000000000000004421000000000000000000000000005305000000000000000000000000000000PES00010000001000000000000000000000000000000000000000000                              000000000000000
201710100010002300000000000000032026                8000000000030556095597PAREXKLAUKOL SA               000000001877070000000000000000000000000000000000000000044132000000000000000000000000052958000000000000000000000000000000PES00010000001000000000000000000000000000000000000000000                              000000000000000
201710270010002300000000000000032265                8000000000030556095597PAREXKLAUKOL SA               000000001774752000000000000000000000000000000000000000041726000000000000000000000000050071000000000000000000000000000000PES00010000001000000000000000000000000000000000000000000                              000000000000000
201710270010002300000000000000032280                8000000000030556095597PAREXKLAUKOL SA               000000000188026000000000000000000000000000000000000000004421000000000000000000000000005305000000000000000000000000000000PES00010000001000000000000000000000000000000000000000000                              000000000000000
201710270010002300000000000000032281                8000000000030556095597PAREXKLAUKOL SA               000000015739782000000000000000000000000000000000000000370058000000000000000000000000444069000000000000000000000000000000PES00010000001000000000000000000000000000000000000000000                              000000000000000
201710120010000300000000000000000012                8000000000030714084425TRANS VEL SRL                 000000000816872000000000000000000000000000000000000000000000000000000000000000000000000000000000000000000000000000000000PES00010000001000000000000000000000000000000000000000000                              000000000000000
