201704010010000700000000000000002888000000000000000028888000000000030999259096Complejo Teleferico Salta     000000001358266000000000000000000000000000000000000000000000000000000000000000000000000000000000000000000000000000000000PES00010000001000000000000000020170401
201704010060000700000000000000000869000000000000000008698000000000030656747834Municipalidad de San Lore     000000000048001000000000000000000000000000000000000000000000000000000000000000000000000000000000000000000000000000000000PES00010000001000000000000000020170401
201704010060000700000000000000000870000000000000000008708000000000030656747834Municipalidad de San Lore     000000000560014000000000000000000000000000000000000000000000000000000000000000000000000000000000000000000000000000000000PES00010000001000000000000000020170401
201704010060000700000000000000000871000000000000000008718000000000030656747834Municipalidad de San Lore     000000000008190000000000000000000000000000000000000000000000000000000000000000000000000000000000000000000000000000000000PES00010000001000000000000000020170401
201704010060000700000000000000000872000000000000000008728000000000030656747834Municipalidad de San Lore     000000000137592000000000000000000000000000000000000000000000000000000000000000000000000000000000000000000000000000000000PES00010000001000000000000000020170401
201704010060000700000000000000000873000000000000000008738000000000030656747834Municipalidad de San Lore     000000001646439000000000000000000000000000000000000000000000000000000000000000000000000000000000000000000000000000000000PES00010000001000000000000000020170401
201704010060000700000000000000000874000000000000000008748000000000030656747834Municipalidad de San Lore     000000000160004000000000000000000000000000000000000000000000000000000000000000000000000000000000000000000000000000000000PES00010000001000000000000000020170401
201704010060000700000000000000000875000000000000000008758000000000030656747834Municipalidad de San Lore     000000000042255000000000000000000000000000000000000000000000000000000000000000000000000000000000000000000000000000000000PES00010000001000000000000000020170401
201704010060000700000000000000000876000000000000000008768000000000030656747834Municipalidad de San Lore     000000000203985000000000000000000000000000000000000000000000000000000000000000000000000000000000000000000000000000000000PES00010000001000000000000000020170401
201704010060000700000000000000000877000000000000000008778000000000030656747834Municipalidad de San Lore     000000000048001000000000000000000000000000000000000000000000000000000000000000000000000000000000000000000000000000000000PES00010000001000000000000000020170401
201704010060000700000000000000000878000000000000000008788000000000030656747834Municipalidad de San Lore     000000000048001000000000000000000000000000000000000000000000000000000000000000000000000000000000000000000000000000000000PES00010000001000000000000000020170401
201704010060000700000000000000000879000000000000000008798000000000030656747834Municipalidad de San Lore     000000000048001000000000000000000000000000000000000000000000000000000000000000000000000000000000000000000000000000000000PES00010000001000000000000000020170401
201704010060000700000000000000000880000000000000000008808000000000030656747834Municipalidad de San Lore     000000000619875000000000000000000000000000000000000000000000000000000000000000000000000000000000000000000000000000000000PES00010000001000000000000000020170401
201704010060000700000000000000000881000000000000000008818000000000030656747834Municipalidad de San Lore     000000000141255000000000000000000000000000000000000000000000000000000000000000000000000000000000000000000000000000000000PES00010000001000000000000000020170401
201704010060000700000000000000000882000000000000000008828000000000030656747834Municipalidad de San Lore     000000001290600000000000000000000000000000000000000000000000000000000000000000000000000000000000000000000000000000000000PES00010000001000000000000000020170401
201704010060000700000000000000000883000000000000000008838000000000030656747834Municipalidad de San Lore     000000000084960000000000000000000000000000000000000000000000000000000000000000000000000000000000000000000000000000000000PES00010000001000000000000000020170401
201704010060000700000000000000000884000000000000000008848000000000030656747834Municipalidad de San Lore     000000000119160000000000000000000000000000000000000000000000000000000000000000000000000000000000000000000000000000000000PES00010000001000000000000000020170401
201704010060000700000000000000000885000000000000000008858000000000030656747834Municipalidad de San Lore     000000000098460000000000000000000000000000000000000000000000000000000000000000000000000000000000000000000000000000000000PES00010000001000000000000000020170401
201704010060000700000000000000000886000000000000000008868000000000020000000001Consumidor Final              000000000040003000000000000000000000000000000000000000000000000000000000000000000000000000000000000000000000000000000000PES00010000001000000000000000020170401
201704010060000700000000000000000887000000000000000008878000000000030656747834Municipalidad de San Lore     000000000367830000000000000000000000000000000000000000000000000000000000000000000000000000000000000000000000000000000000PES00010000001000000000000000020170401
201704010060000700000000000000000888000000000000000008888000000000030656747834Municipalidad de San Lore     000000000085995000000000000000000000000000000000000000000000000000000000000000000000000000000000000000000000000000000000PES00010000001000000000000000020170401
201704010060000700000000000000000889000000000000000008898000000000030656747834Municipalidad de San Lore     000000000687960000000000000000000000000000000000000000000000000000000000000000000000000000000000000000000000000000000000PES00010000001000000000000000020170401
201704010060000700000000000000000890000000000000000008908000000000030656747834Municipalidad de San Lore     000000000336008000000000000000000000000000000000000000000000000000000000000000000000000000000000000000000000000000000000PES00010000001000000000000000020170401
201704010060000700000000000000000891000000000000000008918000000000030656747834Municipalidad de San Lore     000000000034398000000000000000000000000000000000000000000000000000000000000000000000000000000000000000000000000000000000PES00010000001000000000000000020170401
201704010060000700000000000000000892000000000000000008928000000000030656747834Municipalidad de San Lore     000000000112003000000000000000000000000000000000000000000000000000000000000000000000000000000000000000000000000000000000PES00010000001000000000000000020170401
201704010060000700000000000000000893000000000000000008938000000000030656747834Municipalidad de San Lore     000000000480012000000000000000000000000000000000000000000000000000000000000000000000000000000000000000000000000000000000PES00010000001000000000000000020170401
201704010060000700000000000000000894000000000000000008948000000000030656747834Municipalidad de San Lore     000000000244890000000000000000000000000000000000000000000000000000000000000000000000000000000000000000000000000000000000PES00010000001000000000000000020170401
201704010060000700000000000000000895000000000000000008958000000000030656747834Municipalidad de San Lore     000000000138285000000000000000000000000000000000000000000000000000000000000000000000000000000000000000000000000000000000PES00010000001000000000000000020170401
201704010060000700000000000000000896000000000000000008968000000000030656747834Municipalidad de San Lore     000000000265617000000000000000000000000000000000000000000000000000000000000000000000000000000000000000000000000000000000PES00010000001000000000000000020170401
201704010060000700000000000000000897000000000000000008978000000000030656747834Municipalidad de San Lore     000000000080002000000000000000000000000000000000000000000000000000000000000000000000000000000000000000000000000000000000PES00010000001000000000000000020170401
201704010060000700000000000000000898000000000000000008988000000000030656747834Municipalidad de San Lore     000000000008712000000000000000000000000000000000000000000000000000000000000000000000000000000000000000000000000000000000PES00010000001000000000000000020170401
201704010060000700000000000000000899000000000000000008998000000000030656747834Municipalidad de San Lore     000000000800020000000000000000000000000000000000000000000000000000000000000000000000000000000000000000000000000000000000PES00010000001000000000000000020170401
201704010060000700000000000000000900000000000000000009008000000000030656747834Municipalidad de San Lore     000000000057600000000000000000000000000000000000000000000000000000000000000000000000000000000000000000000000000000000000PES00010000001000000000000000020170401
201704010060000700000000000000000901000000000000000009018000000000030656747834Municipalidad de San Lore     000000000004725000000000000000000000000000000000000000000000000000000000000000000000000000000000000000000000000000000000PES00010000001000000000000000020170401
201704010060000700000000000000000902000000000000000009028000000000030656747834Municipalidad de San Lore     000000000085500000000000000000000000000000000000000000000000000000000000000000000000000000000000000000000000000000000000PES00010000001000000000000000020170401
201704010060000700000000000000000903000000000000000009038000000000030656747834Municipalidad de San Lore     000000000099720000000000000000000000000000000000000000000000000000000000000000000000000000000000000000000000000000000000PES00010000001000000000000000020170401
201704010060000700000000000000000904000000000000000009048000000000030656747834Municipalidad de San Lore     000000000034560000000000000000000000000000000000000000000000000000000000000000000000000000000000000000000000000000000000PES00010000001000000000000000020170401
201704010060000700000000000000000905000000000000000009058000000000030656747834Municipalidad de San Lore     000000000777852000000000000000000000000000000000000000000000000000000000000000000000000000000000000000000000000000000000PES00010000001000000000000000020170401
201704010060000700000000000000000906000000000000000009068000000000030656747834Municipalidad de San Lore     000000000088695000000000000000000000000000000000000000000000000000000000000000000000000000000000000000000000000000000000PES00010000001000000000000000020170401
201704010060000700000000000000000907000000000000000009078000000000030656747834Municipalidad de San Lore     000000000192005000000000000000000000000000000000000000000000000000000000000000000000000000000000000000000000000000000000PES00010000001000000000000000020170401
201704010060000700000000000000000908000000000000000009088000000000030656747834Municipalidad de San Lore     000000015601716000000000000000000000000000000000000000000000000000000000000000000000000000000000000000000000000000000000PES00010000001000000000000000020170401
201704010060000400000000000000001434000000000000000014348000000000020000000001Consumidor Final              000000001206100000000000000000000000000000000000000000000000000000000000000000000000000000000000000000000000000000000000PES00010000001000000000000000020170401
201704030010000700000000000000002889000000000000000028898000000000033709430209O y S Ingenieria S.R.L        000000000320007000000000000000000000000000000000000000000000000000000000000000000000000000000000000000000000000000000000PES00010000001000000000000000020170403
201704030010000700000000000000002890000000000000000028908000000000033709430209O y S Ingenieria S.R.L        000000001600040000000000000000000000000000000000000000000000000000000000000000000000000000000000000000000000000000000000PES00010000001000000000000000020170403
201704030010000700000000000000002891000000000000000028918000000000033709430209O y S Ingenieria S.R.L        000000000024139000000000000000000000000000000000000000000000000000000000000000000000000000000000000000000000000000000000PES00010000001000000000000000020170403
201704030010000700000000000000002892000000000000000028928000000000027206095844Lozada Claudia Isabel         000000000504811000000000000000000000000000000000000000000000000000000000000000000000000000000000000000000000000000000000PES00010000001000000000000000020170403
201704030010000700000000000000002893000000000000000028938000000000027206095844Lozada Claudia Isabel         000000000423453000000000000000000000000000000000000000000000000000000000000000000000000000000000000000000000000000000000PES00010000001000000000000000020170403
201704030010000700000000000000002894000000000000000028948000000000030690721321Antonio Srur SRL              000000000058505000000000000000000000000000000000000000000000000000000000000000000000000000000000000000000000000000000000PES00010000001000000000000000020170403
201704030010000700000000000000002895000000000000000028958000000000030712350527AGV Falcon Drilling SRL       000000003200079000000000000000000000000000000000000000000000000000000000000000000000000000000000000000000000000000000000PES00010000001000000000000000020170403
201704030010000700000000000000002896000000000000000028968000000000030711561273Ribacoop Ltda                 000000000130662000000000000000000000000000000000000000000000000000000000000000000000000000000000000000000000000000000000PES00010000001000000000000000020170403
201704030010000700000000000000002897000000000000000028978000000000030712350527AGV Falcon Drilling SRL       000000005870947000000000000000000000000000000000000000000000000000000000000000000000000000000000000000000000000000000000PES00010000001000000000000000020170403
201704030010000700000000000000002898000000000000000028988000000000030711740208Consulting Group SRL          000000000058002000000000000000000000000000000000000000000000000000000000000000000000000000000000000000000000000000000000PES00010000001000000000000000020170403
201704030010000700000000000000002899000000000000000028998000000000020041947986Haddad Luis Selim             000000000008501000000000000000000000000000000000000000000000000000000000000000000000000000000000000000000000000000000000PES00010000001000000000000000020170403
201704030010000700000000000000002900000000000000000029008000000000030655684421Luxem  s.r.l.                 000000000481500000000000000000000000000000000000000000000000000000000000000000000000000000000000000000000000000000000000PES00010000001000000000000000020170403
201704030010000700000000000000002901000000000000000029018000000000030709676861Hospital Privado Tres Cer     000000000027501000000000000000000000000000000000000000000000000000000000000000000000000000000000000000000000000000000000PES00010000001000000000000000020170403
201704030010000700000000000000002902000000000000000029028000000000030712000585Conting SRL                   000000003758912000000000000000000000000000000000000000000000000000000000000000000000000000000000000000000000000000000000PES00010000001000000000000000020170403
201704030010000700000000000000002903000000000000000029038000000000030712000585Conting SRL                   000000000454921000000000000000000000000000000000000000000000000000000000000000000000000000000000000000000000000000000000PES00010000001000000000000000020170403
201704030010000700000000000000002904000000000000000029048000000000023121455374Rasero Edith                  000000000128003000000000000000000000000000000000000000000000000000000000000000000000000000000000000000000000000000000000PES00010000001000000000000000020170403
201704030010000700000000000000002905000000000000000029058000000000030605965055Ascensores Servas SA          000000000019501000000000000000000000000000000000000000000000000000000000000000000000000000000000000000000000000000000000PES00010000001000000000000000020170403
201704030010000700000000000000002907000000000000000029078000000000027929338923Gimenez  Nancy                000000000026507000000000000000000000000000000000000000000000000000000000000000000000000000000000000000000000000000000000PES00010000001000000000000000020170403
201704030010000700000000000000002908000000000000000029088000000000027163342451Ramirez  Alicia del Milag     000000000017501000000000000000000000000000000000000000000000000000000000000000000000000000000000000000000000000000000000PES00010000001000000000000000020170403
201704030060000700000000000000000909000000000000000009098000000000020377204523Torres Leo                    000000000013511000000000000000000000000000000000000000000000000000000000000000000000000000000000000000000000000000000000PES00010000001000000000000000020170403
201704030060000700000000000000000910000000000000000009108000000000030714850349Secretaria de Obras publi     000000000064002000000000000000000000000000000000000000000000000000000000000000000000000000000000000000000000000000000000PES00010000001000000000000000020170403
201704030060000700000000000000000911000000000000000009118000000000020000000001Colegio Educativo INTI        000000000011501000000000000000000000000000000000000000000000000000000000000000000000000000000000000000000000000000000000PES00010000001000000000000000020170403
201704030060000400000000000000001435000000000000000014358000000000020000000001Consumidor Final              000000001354801000000000000000000000000000000000000000000000000000000000000000000000000000000000000000000000000000000000PES00010000001000000000000000020170403
201704040010000700000000000000002909000000000000000029098000000000020134141507Cavallero Carlos              000000000061515000000000000000000000000000000000000000000000000000000000000000000000000000000000000000000000000000000000PES00010000001000000000000000020170404
201704040010000700000000000000002910000000000000000029108000000000027160805612Ingenieria Zenta SRL          000000000011505000000000000000000000000000000000000000000000000000000000000000000000000000000000000000000000000000000000PES00010000001000000000000000020170404
201704040010000700000000000000002911000000000000000029118000000000020148658219Vargas Miguel Angel           000000000030006000000000000000000000000000000000000000000000000000000000000000000000000000000000000000000000000000000000PES00010000001000000000000000020170404
201704040010000700000000000000002912000000000000000029128000000000030679839191Concordia Construcciones      000000000001994000000000000000000000000000000000000000000000000000000000000000000000000000000000000000000000000000000000PES00010000001000000000000000020170404
201704040010000700000000000000002913000000000000000029138000000000030711781761Condominio Assonov            000000000016000000000000000000000000000000000000000000000000000000000000000000000000000000000000000000000000000000000000PES00010000001000000000000000020170404
201704040010000700000000000000002914000000000000000029148000000000023121455374Rasero Edith                  000000000128003000000000000000000000000000000000000000000000000000000000000000000000000000000000000000000000000000000000PES00010000001000000000000000020170404
201704040010000700000000000000002915000000000000000029158000000000030580988713Pussetto Salta s.a.           000000000066004000000000000000000000000000000000000000000000000000000000000000000000000000000000000000000000000000000000PES00010000001000000000000000020170404
201704040010000700000000000000002916000000000000000029168000000000023115928279Dominguez Escudero Robert     000000000025012000000000000000000000000000000000000000000000000000000000000000000000000000000000000000000000000000000000PES00010000001000000000000000020170404
201704040010000700000000000000002917000000000000000029178000000000020233168271Rodriguez Carlos              000000000048001000000000000000000000000000000000000000000000000000000000000000000000000000000000000000000000000000000000PES00010000001000000000000000020170404
201704040010000700000000000000002918000000000000000029188000000000020235847400Alejandro Marinaro            000000000033029000000000000000000000000000000000000000000000000000000000000000000000000000000000000000000000000000000000PES00010000001000000000000000020170404
201704040010000700000000000000002919000000000000000029198000000000033708296959Inteco SRL                    000000000060014000000000000000000000000000000000000000000000000000000000000000000000000000000000000000000000000000000000PES00010000001000000000000000020170404
201704040010000700000000000000002920000000000000000029208000000000020101679447Hannawy Jose                  000000000011501000000000000000000000000000000000000000000000000000000000000000000000000000000000000000000000000000000000PES00010000001000000000000000020170404
201704040010000700000000000000002921000000000000000029218000000000030708598360Compania Lemaco SRL           000000000660034000000000000000000000000000000000000000000000000000000000000000000000000000000000000000000000000000000000PES00010000001000000000000000020170404
201704040060000700000000000000000912000000000000000009128000000000020000000001Consorcio General Miguel      000000000042670000000000000000000000000000000000000000000000000000000000000000000000000000000000000000000000000000000000PES00010000001000000000000000020170404
201704040060000700000000000000000913000000000000000009138000000000020000000001Consumidor Final              000000000443047000000000000000000000000000000000000000000000000000000000000000000000000000000000000000000000000000000000PES00010000001000000000000000020170404
201704040060000700000000000000000914000000000000000009148000000000030713985305Fundacion Emaus               000000000009496000000000000000000000000000000000000000000000000000000000000000000000000000000000000000000000000000000000PES00010000001000000000000000020170404
201704040060000700000000000000000915000000000000000009158000000000020000000001Consumidor Final              000000000059000000000000000000000000000000000000000000000000000000000000000000000000000000000000000000000000000000000000PES00010000001000000000000000020170404
201704040060000700000000000000000916000000000000000009168000000000020000000001Consumidor Final              000000000289736000000000000000000000000000000000000000000000000000000000000000000000000000000000000000000000000000000000PES00010000001000000000000000020170404
201704040060000700000000000000000917000000000000000009178000000000020000000001Consumidor Final              000000000026800000000000000000000000000000000000000000000000000000000000000000000000000000000000000000000000000000000000PES00010000001000000000000000020170404
201704040060000400000000000000001436000000000000000014368000000000020000000001Consumidor Final              000000001390802000000000000000000000000000000000000000000000000000000000000000000000000000000000000000000000000000000000PES00010000001000000000000000020170404
201704050010000700000000000000002922000000000000000029228000000000030650873544Tressing SRL                  000000000032001000000000000000000000000000000000000000000000000000000000000000000000000000000000000000000000000000000000PES00010000001000000000000000020170405
201704050010000700000000000000002923000000000000000029238000000000020122204074Bassani Carlos Enrique        000000000240006000000000000000000000000000000000000000000000000000000000000000000000000000000000000000000000000000000000PES00010000001000000000000000020170405
201704050010000700000000000000002924000000000000000029248000000000027310359063Gauna Pamela                  000000000112039000000000000000000000000000000000000000000000000000000000000000000000000000000000000000000000000000000000PES00010000001000000000000000020170405
201704050010000700000000000000002925000000000000000029258000000000030709224901Rac Contrucciones SRL         000000000017850000000000000000000000000000000000000000000000000000000000000000000000000000000000000000000000000000000000PES00010000001000000000000000020170405
201704050010000700000000000000002926000000000000000029268000000000020249689131Nanni Construcciones          000000000110078000000000000000000000000000000000000000000000000000000000000000000000000000000000000000000000000000000000PES00010000001000000000000000020170405
201704050010000700000000000000002927000000000000000029278000000000023121455374Rasero Edith                  000000000128003000000000000000000000000000000000000000000000000000000000000000000000000000000000000000000000000000000000PES00010000001000000000000000020170405
201704050010000700000000000000002928000000000000000029288000000000030679839191Concordia Construcciones      000000000005561000000000000000000000000000000000000000000000000000000000000000000000000000000000000000000000000000000000PES00010000001000000000000000020170405
201704050010000700000000000000002929000000000000000029298000000000020163082609Basso Danilo Miguel           000000000003959000000000000000000000000000000000000000000000000000000000000000000000000000000000000000000000000000000000PES00010000001000000000000000020170405
201704050010000700000000000000002930000000000000000029308000000000020203999519Delta Computacion             000000000011899000000000000000000000000000000000000000000000000000000000000000000000000000000000000000000000000000000000PES00010000001000000000000000020170405
201704050010000700000000000000002931000000000000000029318000000000020137715210Boggione Ricardo              000000000093410000000000000000000000000000000000000000000000000000000000000000000000000000000000000000000000000000000000PES00010000001000000000000000020170405
201704050010000700000000000000002932000000000000000029328000000000020226850180Luis PLaza                    000000000052839000000000000000000000000000000000000000000000000000000000000000000000000000000000000000000000000000000000PES00010000001000000000000000020170405
201704050010000700000000000000002933000000000000000029338000000000020233168271Rodriguez Carlos              000000000032001000000000000000000000000000000000000000000000000000000000000000000000000000000000000000000000000000000000PES00010000001000000000000000020170405
201704050010000700000000000000002934000000000000000029348000000000030700051362Neca s.r.l.                   000000000371673000000000000000000000000000000000000000000000000000000000000000000000000000000000000000000000000000000000PES00010000001000000000000000020170405
201704050060000700000000000000000918000000000000000009188000000000030999284651Policia de Salta              000000000003562000000000000000000000000000000000000000000000000000000000000000000000000000000000000000000000000000000000PES00010000001000000000000000020170405
201704050060000700000000000000000919000000000000000009198000000000030570684732Sindicato de Luz y Fuerza     000000000012501000000000000000000000000000000000000000000000000000000000000000000000000000000000000000000000000000000000PES00010000001000000000000000020170405
201704050060000700000000000000000920000000000000000009208000000000020000000001Consumidor Final              000000000133310000000000000000000000000000000000000000000000000000000000000000000000000000000000000000000000000000000000PES00010000001000000000000000020170405
201704050060000700000000000000000921000000000000000009218000000000020000000001Consumidor Final              000000000285023000000000000000000000000000000000000000000000000000000000000000000000000000000000000000000000000000000000PES00010000001000000000000000020170405
201704050060000700000000000000000922000000000000000009228000000000020000000001Consumidor Final              000000000029408000000000000000000000000000000000000000000000000000000000000000000000000000000000000000000000000000000000PES00010000001000000000000000020170405
201704050060000400000000000000001437000000000000000014378000000000020000000001Consumidor Final              000000001703403000000000000000000000000000000000000000000000000000000000000000000000000000000000000000000000000000000000PES00010000001000000000000000020170405
201704060010000700000000000000002935000000000000000029358000000000030700051362Neca s.r.l.                   000000000909262000000000000000000000000000000000000000000000000000000000000000000000000000000000000000000000000000000000PES00010000001000000000000000020170406
201704060010000700000000000000002936000000000000000029368000000000030700051362Neca s.r.l.                   000000000523910000000000000000000000000000000000000000000000000000000000000000000000000000000000000000000000000000000000PES00010000001000000000000000020170406
201704060010000700000000000000002937000000000000000029378000000000030700051362Neca s.r.l.                   000000002014887000000000000000000000000000000000000000000000000000000000000000000000000000000000000000000000000000000000PES00010000001000000000000000020170406
201704060010000700000000000000002938000000000000000029388000000000030700051362Neca s.r.l.                   000000000445304000000000000000000000000000000000000000000000000000000000000000000000000000000000000000000000000000000000PES00010000001000000000000000020170406
201704060010000700000000000000002939000000000000000029398000000000030710796277Oral Dent SRL                 000000000024072000000000000000000000000000000000000000000000000000000000000000000000000000000000000000000000000000000000PES00010000001000000000000000020170406
201704060010000700000000000000002940000000000000000029408000000000020173089504Plaza José Raúl               000000000022016000000000000000000000000000000000000000000000000000000000000000000000000000000000000000000000000000000000PES00010000001000000000000000020170406
201704060010000700000000000000002941000000000000000029418000000000030707474307Crew Live S.A                 000000000044964000000000000000000000000000000000000000000000000000000000000000000000000000000000000000000000000000000000PES00010000001000000000000000020170406
201704060010000700000000000000002942000000000000000029428000000000030700051362Neca s.r.l.                   000000000042912000000000000000000000000000000000000000000000000000000000000000000000000000000000000000000000000000000000PES00010000001000000000000000020170406
201704060010000700000000000000002943000000000000000029438000000000024110818986Washington Alvarez            000000001365431000000000000000000000000000000000000000000000000000000000000000000000000000000000000000000000000000000000PES00010000001000000000000000020170406
201704060010000700000000000000002944000000000000000029448000000000030715007785Melle SRL                     000000000021001000000000000000000000000000000000000000000000000000000000000000000000000000000000000000000000000000000000PES00010000001000000000000000020170406
201704060010000700000000000000002945000000000000000029458000000000027929338923Gimenez  Nancy                000000000005084000000000000000000000000000000000000000000000000000000000000000000000000000000000000000000000000000000000PES00010000001000000000000000020170406
201704060010000700000000000000002946000000000000000029468000000000030710796277Oral Dent SRL                 000000000009774000000000000000000000000000000000000000000000000000000000000000000000000000000000000000000000000000000000PES00010000001000000000000000020170406
201704060060000400000000000000001438000000000000000014388000000000020000000001Consumidor Final              000000001303302000000000000000000000000000000000000000000000000000000000000000000000000000000000000000000000000000000000PES00010000001000000000000000020170406
201704070010000700000000000000002947000000000000000029478000000000030708024313Denki Ingenieria SRL          000000000017501000000000000000000000000000000000000000000000000000000000000000000000000000000000000000000000000000000000PES00010000001000000000000000020170407
201704070010000700000000000000002948000000000000000029488000000000030644225360Servicios Viales de Pigue     000000021284974000000000000000000000000000000000000000000000000000000000000000000000614975000000000000000000000000000000PES00010000001000000000000000020170407
201704070010000700000000000000002949000000000000000029498000000000030644225360Servicios Viales de Pigue     000000005555512000000000000000000000000000000000000000000000000000000000000000000000160512000000000000000000000000000000PES00010000001000000000000000020170407
201704070010000700000000000000002950000000000000000029508000000000030714765988M Day  Construciones SRL      000000000009520000000000000000000000000000000000000000000000000000000000000000000000000000000000000000000000000000000000PES00010000001000000000000000020170407
201704070010000700000000000000002951000000000000000029518000000000020249689131Nanni Construcciones          000000000100144000000000000000000000000000000000000000000000000000000000000000000000000000000000000000000000000000000000PES00010000001000000000000000020170407
201704070010000700000000000000002952000000000000000029528000000000030690650483Agenor SA                     000000000035099000000000000000000000000000000000000000000000000000000000000000000000000000000000000000000000000000000000PES00010000001000000000000000020170407
201704070010000700000000000000002953000000000000000029538000000000030711931402Hiperplaca SRL                000000000045000000000000000000000000000000000000000000000000000000000000000000000000000000000000000000000000000000000000PES00010000001000000000000000020170407
201704070010000700000000000000002954000000000000000029548000000000027006586762Sucesion Marocco Irma         000000000153300000000000000000000000000000000000000000000000000000000000000000000000000000000000000000000000000000000000PES00010000001000000000000000020170407
201704070010000700000000000000002955000000000000000029558000000000030711561273Ribacoop Ltda                 000000000116003000000000000000000000000000000000000000000000000000000000000000000000000000000000000000000000000000000000PES00010000001000000000000000020170407
201704070010000700000000000000002956000000000000000029568000000000027013910303Carine Mijaiel de Forcade     000000000104537000000000000000000000000000000000000000000000000000000000000000000000000000000000000000000000000000000000PES00010000001000000000000000020170407
201704070010000700000000000000002957000000000000000029578000000000020129578476Rocha Alfonso Rodolfo         000000000320007000000000000000000000000000000000000000000000000000000000000000000000000000000000000000000000000000000000PES00010000001000000000000000020170407
201704070010000700000000000000002958000000000000000029588000000000030709687596Los Tarcos Srl                000000000064911000000000000000000000000000000000000000000000000000000000000000000000000000000000000000000000000000000000PES00010000001000000000000000020170407
201704070010000700000000000000002959000000000000000029598000000000020177929884Esteban Fonzalida Sergio      000000000027368000000000000000000000000000000000000000000000000000000000000000000000000000000000000000000000000000000000PES00010000001000000000000000020170407
201704070060000700000000000000000923000000000000000009238000000000030531013162Colegio Belgrano              000000000039034000000000000000000000000000000000000000000000000000000000000000000000000000000000000000000000000000000000PES00010000001000000000000000020170407
201704070060000700000000000000000924000000000000000009248000000000020000000001Colegio Reyes Catolico N      000000000009010000000000000000000000000000000000000000000000000000000000000000000000000000000000000000000000000000000000PES00010000001000000000000000020170407
201704070060000700000000000000000925000000000000000009258000000000020000000001Consumidor Final              000000000045413000000000000000000000000000000000000000000000000000000000000000000000000000000000000000000000000000000000PES00010000001000000000000000020170407
201704070060000700000000000000000926000000000000000009268000000000020000000001Consumidor Final              000000000137016000000000000000000000000000000000000000000000000000000000000000000000000000000000000000000000000000000000PES00010000001000000000000000020170407
201704070060000700000000000000000927000000000000000009278000000000030690654756Popeye BC                     000000000029000000000000000000000000000000000000000000000000000000000000000000000000000000000000000000000000000000000000PES00010000001000000000000000020170407
201704070060000700000000000000000928000000000000000009288000000000020000000001Consorcio Entre Rios          000000000009800000000000000000000000000000000000000000000000000000000000000000000000000000000000000000000000000000000000PES00010000001000000000000000020170407
201704070060000700000000000000000929000000000000000009298000000000020000000001Consumidor Final              000000001411204000000000000000000000000000000000000000000000000000000000000000000000000000000000000000000000000000000000PES00010000001000000000000000020170407
201704070060000400000000000000001439000000000000000014398000000000020000000001Consumidor Final              000000000712700000000000000000000000000000000000000000000000000000000000000000000000000000000000000000000000000000000000PES00010000001000000000000000020170407
201704080010000700000000000000002960000000000000000029608000000000030585579544Sanatorio Parque s.a          000000000658370000000000000000000000000000000000000000000000000000000000000000000000000000000000000000000000000000000000PES00010000001000000000000000020170408
201704080010000700000000000000002961000000000000000029618000000000030585579544Sanatorio Parque s.a          000000000841640000000000000000000000000000000000000000000000000000000000000000000000000000000000000000000000000000000000PES00010000001000000000000000020170408
201704080010000700000000000000002962000000000000000029628000000000030585579544Sanatorio Parque s.a          000000000818603000000000000000000000000000000000000000000000000000000000000000000000000000000000000000000000000000000000PES00010000001000000000000000020170408
201704080010000700000000000000002963000000000000000029638000000000030585579544Sanatorio Parque s.a          000000001028060000000000000000000000000000000000000000000000000000000000000000000000000000000000000000000000000000000000PES00010000001000000000000000020170408
201704080010000700000000000000002964000000000000000029648000000000023072411889Rigo Spartaco León            000000000064430000000000000000000000000000000000000000000000000000000000000000000000000000000000000000000000000000000000PES00010000001000000000000000020170408
201704080010000700000000000000002965000000000000000029658000000000030710204337Ind Frigorificas del Nort     000000000018504000000000000000000000000000000000000000000000000000000000000000000000000000000000000000000000000000000000PES00010000001000000000000000020170408
201704080010000700000000000000002966000000000000000029668000000000030585579544Sanatorio Parque s.a          000000000416969000000000000000000000000000000000000000000000000000000000000000000000000000000000000000000000000000000000PES00010000001000000000000000020170408
201704080010000700000000000000002967000000000000000029678000000000030585579544Sanatorio Parque s.a          000000000252547000000000000000000000000000000000000000000000000000000000000000000000000000000000000000000000000000000000PES00010000001000000000000000020170408
201704080010000700000000000000002968000000000000000029688000000000020368030113Salvatore Enzo Maximilian     000000000028085000000000000000000000000000000000000000000000000000000000000000000000000000000000000000000000000000000000PES00010000001000000000000000020170408
201704080060000700000000000000000930000000000000000009308000000000020000000001Consumidor Final              000000000550076000000000000000000000000000000000000000000000000000000000000000000000000000000000000000000000000000000000PES00010000001000000000000000020170408
201704080060000400000000000000001440000000000000000014408000000000020000000001Consumidor Final              000000000591902000000000000000000000000000000000000000000000000000000000000000000000000000000000000000000000000000000000PES00010000001000000000000000020170408
201704100010000700000000000000002969000000000000000029698000000000020249689131Nanni Construcciones          000000000465027000000000000000000000000000000000000000000000000000000000000000000000000000000000000000000000000000000000PES00010000001000000000000000020170410
201704100010000700000000000000002970000000000000000029708000000000020081684309Lecuona de Pratt Martin       000000000007517000000000000000000000000000000000000000000000000000000000000000000000000000000000000000000000000000000000PES00010000001000000000000000020170410
201704100010000700000000000000002971000000000000000029718000000000030707474307Crew Live S.A                 000000000011000000000000000000000000000000000000000000000000000000000000000000000000000000000000000000000000000000000000PES00010000001000000000000000020170410
201704100010000700000000000000002972000000000000000029728000000000020062974487Bongiovani Vito               000000000047705000000000000000000000000000000000000000000000000000000000000000000000000000000000000000000000000000000000PES00010000001000000000000000020170410
201704100010000700000000000000002973000000000000000029738000000000030707534946Distrubora Gay Srl            000000000039974000000000000000000000000000000000000000000000000000000000000000000000000000000000000000000000000000000000PES00010000001000000000000000020170410
201704100010000700000000000000002974000000000000000029748000000000030714048704Emervida SRL                  000000000800019000000000000000000000000000000000000000000000000000000000000000000000000000000000000000000000000000000000PES00010000001000000000000000020170410
201704100010000700000000000000002976000000000000000029768000000000030681267006Sol del Valle Srl             000000000331503000000000000000000000000000000000000000000000000000000000000000000000000000000000000000000000000000000000PES00010000001000000000000000020170410
201704100010000700000000000000002977000000000000000029778000000000020203999519Delta Computacion             000000000007000000000000000000000000000000000000000000000000000000000000000000000000000000000000000000000000000000000000PES00010000001000000000000000020170410
201704100010000700000000000000002978000000000000000029788000000000023130409229Lopez Angel                   000000000139947000000000000000000000000000000000000000000000000000000000000000000000000000000000000000000000000000000000PES00010000001000000000000000020170410
201704100060000700000000000000000931000000000000000009318000000000030999284651Policia de Salta              000000000640844000000000000000000000000000000000000000000000000000000000000000000000000000000000000000000000000000000000PES00010000001000000000000000020170410
201704100060000700000000000000000932000000000000000009328000000000020000000001Consumidor Final              000000000165048000000000000000000000000000000000000000000000000000000000000000000000000000000000000000000000000000000000PES00010000001000000000000000020170410
201704100060000700000000000000000933000000000000000009338000000000020000000001Consumidor Final              000000000145972000000000000000000000000000000000000000000000000000000000000000000000000000000000000000000000000000000000PES00010000001000000000000000020170410
201704100060000700000000000000000934000000000000000009348000000000020000000001Consumidor Final              000000000160004000000000000000000000000000000000000000000000000000000000000000000000000000000000000000000000000000000000PES00010000001000000000000000020170410
201704100060000400000000000000001441000000000000000014418000000000020000000001Consumidor Final              000000000654601000000000000000000000000000000000000000000000000000000000000000000000000000000000000000000000000000000000PES00010000001000000000000000020170410
201704110010000700000000000000002979000000000000000029798000000000033601090029Martinez Eugenio L y Hnos     000000000034562000000000000000000000000000000000000000000000000000000000000000000000000000000000000000000000000000000000PES00010000001000000000000000020170411
201704110010000700000000000000002980000000000000000029808000000000030709404691Nodos Electrictos SA          000000000073502000000000000000000000000000000000000000000000000000000000000000000000000000000000000000000000000000000000PES00010000001000000000000000020170411
201704110010000700000000000000002981000000000000000029818000000000030709182222Guerrisi Luis Mario           000000001280032000000000000000000000000000000000000000000000000000000000000000000000000000000000000000000000000000000000PES00010000001000000000000000020170411
201704110060000700000000000000000935000000000000000009358000000000030707936904Fundacion Magister            000000000011507000000000000000000000000000000000000000000000000000000000000000000000000000000000000000000000000000000000PES00010000001000000000000000020170411
201704110060000700000000000000000936000000000000000009368000000000033712160409Secretaria de Seguridad       000000000003500000000000000000000000000000000000000000000000000000000000000000000000000000000000000000000000000000000000PES00010000001000000000000000020170411
201704110060000700000000000000000937000000000000000009378000000000030707936904Fundacion Magister            000000000004000000000000000000000000000000000000000000000000000000000000000000000000000000000000000000000000000000000000PES00010000001000000000000000020170411
201704110060000700000000000000000938000000000000000009388000000000030999284651Policia de Salta              000000000048900000000000048900000000000000000000000000000000000000000000000000000000000000000000000000000000000000000000PES00010000001N00000000000000020170411
201704110060000700000000000000000939000000000000000009398000000000020000000001Doric Lorena                  000000000268008000000000000000000000000000000000000000000000000000000000000000000000000000000000000000000000000000000000PES00010000001000000000000000020170411
201704110060000700000000000000000942000000000000000009428000000000020000000001Consumidor Final              000000000195002000000000000000000000000000000000000000000000000000000000000000000000000000000000000000000000000000000000PES00010000001000000000000000020170411
201704110060000700000000000000000943000000000000000009438000000000020000000001Consumidor Final              000000000574257000000000000000000000000000000000000000000000000000000000000000000000000000000000000000000000000000000000PES00010000001000000000000000020170411
201704110060000400000000000000001442000000000000000014428000000000020000000001Consumidor Final              000000000863700000000000000000000000000000000000000000000000000000000000000000000000000000000000000000000000000000000000PES00010000001000000000000000020170411
201704120010000700000000000000002982000000000000000029828000000000020148206199Barbaran Sergio Daniel        000000000080002000000000000000000000000000000000000000000000000000000000000000000000000000000000000000000000000000000000PES00010000001000000000000000020170412
201704120010000700000000000000002983000000000000000029838000000000030708456337Duende Azul SRL               000000000143650000000000000000000000000000000000000000000000000000000000000000000000000000000000000000000000000000000000PES00010000001000000000000000020170412
201704120010000700000000000000002988000000000000000029888000000000030618217708Dimacol SRL                   000000000645525000000000000000000000000000000000000000000000000000000000000000000000018651000000000000000000000000000000PES00010000001000000000000000020170412
201704120010000700000000000000002989000000000000000029898000000000027044332022Tunon Ana Maria Josefa        000000000018502000000000000000000000000000000000000000000000000000000000000000000000000000000000000000000000000000000000PES00010000001000000000000000020170412
201704120010000700000000000000002991000000000000000029918000000000023130409229Lopez Angel                   000000000038319000000000000000000000000000000000000000000000000000000000000000000000000000000000000000000000000000000000PES00010000001000000000000000020170412
201704120010000700000000000000002992000000000000000029928000000000030714990744Distribudora HI SRL           000000000090133000000000000000000000000000000000000000000000000000000000000000000000000000000000000000000000000000000000PES00010000001000000000000000020170412
201704120010000700000000000000002993000000000000000029938000000000020127125466Campero Roberto               000000000398024000000000000000000000000000000000000000000000000000000000000000000000000000000000000000000000000000000000PES00010000001000000000000000020170412
201704120010000700000000000000002994000000000000000029948000000000027163342451Ramirez  Alicia del Milag     000000000004049000000000000000000000000000000000000000000000000000000000000000000000000000000000000000000000000000000000PES00010000001000000000000000020170412
201704120010000700000000000000002995000000000000000029958000000000020141766350Astudillo  Cesar Alejandr     000000000025541000000000000000000000000000000000000000000000000000000000000000000000000000000000000000000000000000000000PES00010000001000000000000000020170412
201704120010000700000000000000002996000000000000000029968000000000030681267006Sol del Valle Srl             000000000772837000000000000000000000000000000000000000000000000000000000000000000000000000000000000000000000000000000000PES00010000001000000000000000020170412
201704120010000700000000000000002997000000000000000029978000000000030711383693Grinfil SRL                   000000000061803000000000000000000000000000000000000000000000000000000000000000000000000000000000000000000000000000000000PES00010000001000000000000000020170412
201704120010000700000000000000002998000000000000000029988000000000020326309193Chuychuy Daniel Alejandro     000000000048001000000000000000000000000000000000000000000000000000000000000000000000000000000000000000000000000000000000PES00010000001000000000000000020170412
201704120010000700000000000000002999000000000000000029998000000000027006586762Sucesion Marocco Irma         000000000018000000000000000000000000000000000000000000000000000000000000000000000000000000000000000000000000000000000000PES00010000001000000000000000020170412
201704120010000700000000000000003000000000000000000030008000000000030681267006Sol del Valle Srl             000000000085401000000000000000000000000000000000000000000000000000000000000000000000000000000000000000000000000000000000PES00010000001000000000000000020170412
201704120010000700000000000000003001000000000000000030018000000000020081984434Cari Daniel                   000000000363375000000000000000000000000000000000000000000000000000000000000000000000000000000000000000000000000000000000PES00010000001000000000000000020170412
201704120010000700000000000000003002000000000000000030028000000000023072411889Rigo Spartaco León            000000000128860000000000000000000000000000000000000000000000000000000000000000000000000000000000000000000000000000000000PES00010000001000000000000000020170412
201704120010000700000000000000003003000000000000000030038000000000033709488959Comercial Lima S.A            000000000005000000000000000000000000000000000000000000000000000000000000000000000000000000000000000000000000000000000000PES00010000001000000000000000020170412
201704120010000700000000000000003004000000000000000030048000000000020148206199Barbaran Sergio Daniel        000000000142009000000000000000000000000000000000000000000000000000000000000000000000000000000000000000000000000000000000PES00010000001000000000000000020170412
201704120060000700000000000000000944000000000000000009448000000000030999284651Policia de Salta              000000000161200000000000000000000000000000000000000000000000000000000000000000000000000000000000000000000000000000000000PES00010000001000000000000000020170412
201704120060000700000000000000000945000000000000000009458000000000030999284651Policia de Salta              000000000008060000000000000000000000000000000000000000000000000000000000000000000000000000000000000000000000000000000000PES00010000001000000000000000020170412
201704120060000700000000000000000946000000000000000009468000000000030999284651Policia de Salta              000000000002500000000000000000000000000000000000000000000000000000000000000000000000000000000000000000000000000000000000PES00010000001000000000000000020170412
201704120060000400000000000000001443000000000000000014438000000000020000000001Consumidor Final              000000000812401000000000000000000000000000000000000000000000000000000000000000000000000000000000000000000000000000000000PES00010000001000000000000000020170412
201704130010000700000000000000003005000000000000000030058000000000030710204337Ind Frigorificas del Nort     000000000033008000000000000000000000000000000000000000000000000000000000000000000000000000000000000000000000000000000000PES00010000001000000000000000020170413
201704130010000700000000000000003006000000000000000030068000000000030710231342Imex SA                       000000000086572000000000000000000000000000000000000000000000000000000000000000000000000000000000000000000000000000000000PES00010000001000000000000000020170413
201704130010000700000000000000003007000000000000000030078000000000020144533284Quinteros Horacio             000000000163200000000000000000000000000000000000000000000000000000000000000000000000000000000000000000000000000000000000PES00010000001000000000000000020170413
201704130010000700000000000000003008000000000000000030088000000000030521505938Dal Borgo Hnos SRL            000000000032002000000000000000000000000000000000000000000000000000000000000000000000000000000000000000000000000000000000PES00010000001000000000000000020170413
201704130010000700000000000000003009000000000000000030098000000000030707474307Crew Live S.A                 000000000012501000000000000000000000000000000000000000000000000000000000000000000000000000000000000000000000000000000000PES00010000001000000000000000020170413
201704130010000700000000000000003010000000000000000030108000000000020144880146Lavin Guillermo               000000000015000000000000000000000000000000000000000000000000000000000000000000000000000000000000000000000000000000000000PES00010000001000000000000000020170413
201704130010000700000000000000003011000000000000000030118000000000030708772964Jumbo Retail Argentina SA     000000000033500000000000000000000000000000000000000000000000000000000000000000000000000000000000000000000000000000000000PES00010000001000000000000000020170413
201704130060000700000000000000000947000000000000000009478000000000030707936904Fundacion Magister            000000000007055000000000000000000000000000000000000000000000000000000000000000000000000000000000000000000000000000000000PES00010000001000000000000000020170413
201704130060000700000000000000000948000000000000000009488000000000020000000001Consumidor Final              000000000350017000000000000000000000000000000000000000000000000000000000000000000000000000000000000000000000000000000000PES00010000001000000000000000020170413
201704130060000700000000000000000949000000000000000009498000000000030999284651Policia de Salta              000000000062319000000000000000000000000000000000000000000000000000000000000000000000000000000000000000000000000000000000PES00010000001000000000000000020170413
201704130060000400000000000000001444000000000000000014448000000000020000000001Consumidor Final              000000001251200000000000000000000000000000000000000000000000000000000000000000000000000000000000000000000000000000000000PES00010000001000000000000000020170413
201704150010000700000000000000003012000000000000000030128000000000027221460273Soto Myriam                   000000000104438000000000000000000000000000000000000000000000000000000000000000000000000000000000000000000000000000000000PES00010000001000000000000000020170415
201704150010000700000000000000003013000000000000000030138000000000020124094993Saldeno Gustavo               000000000020086000000000000000000000000000000000000000000000000000000000000000000000000000000000000000000000000000000000PES00010000001000000000000000020170415
201704150060000400000000000000001445000000000000000014458000000000020000000001Consumidor Final              000000000314800000000000000000000000000000000000000000000000000000000000000000000000000000000000000000000000000000000000PES00010000001000000000000000020170415
201704170010000700000000000000003014000000000000000030148000000000030616928828Vidmar SRL                    000000000082007000000000000000000000000000000000000000000000000000000000000000000000000000000000000000000000000000000000PES00010000001000000000000000020170417
201704170010000700000000000000003015000000000000000030158000000000030681267006Sol del Valle Srl             000000000052091000000000000000000000000000000000000000000000000000000000000000000000000000000000000000000000000000000000PES00010000001000000000000000020170417
201704170060000700000000000000000950000000000000000009508000000000030711299064Parroquia Maria Reina         000000000079560000000000000000000000000000000000000000000000000000000000000000000000000000000000000000000000000000000000PES00010000001000000000000000020170417
201704170060000400000000000000001446000000000000000014468000000000020000000001Consumidor Final              000000000502600000000000000000000000000000000000000000000000000000000000000000000000000000000000000000000000000000000000PES00010000001000000000000000020170417
201704180010000700000000000000003016000000000000000030168000000000020127125466Campero Roberto               000000000318894000000000000000000000000000000000000000000000000000000000000000000000000000000000000000000000000000000000PES00010000001000000000000000020170418
201704180010000700000000000000003017000000000000000030178000000000020127125466Campero Roberto               000000000015300000000000000000000000000000000000000000000000000000000000000000000000000000000000000000000000000000000000PES00010000001000000000000000020170418
201704180010000700000000000000003018000000000000000030188000000000020105614102Yannitto Jorge Alfredo        000000000200024000000000000000000000000000000000000000000000000000000000000000000000000000000000000000000000000000000000PES00010000001000000000000000020170418
201704180010000700000000000000003019000000000000000030198000000000030710087098Aytcmm SRL                    000000000089040000000000000000000000000000000000000000000000000000000000000000000000000000000000000000000000000000000000PES00010000001000000000000000020170418
201704180010000700000000000000003020000000000000000030208000000000027116638636Cordova Estela                000000001163649000000000000000000000000000000000000000000000000000000000000000000000000000000000000000000000000000000000PES00010000001000000000000000020170418
201704180060000700000000000000000951000000000000000009518000000000020000000001Consumidor Final              000000000582314000000000000000000000000000000000000000000000000000000000000000000000000000000000000000000000000000000000PES00010000001000000000000000020170418
201704180060000700000000000000000952000000000000000009528000000000030533610338Club de Gimnasia y Tiro A     000000000062501000000000000000000000000000000000000000000000000000000000000000000000000000000000000000000000000000000000PES00010000001000000000000000020170418
201704180060000400000000000000001447000000000000000014478000000000020000000001Consumidor Final              000000000641600000000000000000000000000000000000000000000000000000000000000000000000000000000000000000000000000000000000PES00010000001000000000000000020170418
201704190010000700000000000000003021000000000000000030218000000000030714542083Exa Group SRL                 000000000005501000000000000000000000000000000000000000000000000000000000000000000000000000000000000000000000000000000000PES00010000001000000000000000020170419
201704190010000700000000000000003022000000000000000030228000000000027006586762Sucesion Marocco Irma         000000000104000000000000000000000000000000000000000000000000000000000000000000000000000000000000000000000000000000000000PES00010000001000000000000000020170419
201704190010000700000000000000003023000000000000000030238000000000020122204074Bassani Carlos Enrique        000000000080002000000000000000000000000000000000000000000000000000000000000000000000000000000000000000000000000000000000PES00010000001000000000000000020170419
201704190010000700000000000000003024000000000000000030248000000000030709224901Rac Contrucciones SRL         000000000009000000000000000000000000000000000000000000000000000000000000000000000000000000000000000000000000000000000000PES00010000001000000000000000020170419
201704190010000700000000000000003025000000000000000030258000000000023227852739De los Rios Plaza Martin      000000000049900000000000000000000000000000000000000000000000000000000000000000000000000000000000000000000000000000000000PES00010000001000000000000000020170419
201704190010000700000000000000003026000000000000000030268000000000033500908519Ceramica Alberdi SA           000000000255000000000000000000000000000000000000000000000000000000000000000000000000000000000000000000000000000000000000PES00010000001000000000000000020170419
201704190010000700000000000000003027000000000000000030278000000000020221469098Zenteno Francisco             000000000067009000000000000000000000000000000000000000000000000000000000000000000000000000000000000000000000000000000000PES00010000001000000000000000020170419
201704190010000700000000000000003028000000000000000030288000000000027203992144Di Pietro Cecilia Eugenia     000000000025006000000000000000000000000000000000000000000000000000000000000000000000000000000000000000000000000000000000PES00010000001000000000000000020170419
201704190010000700000000000000003029000000000000000030298000000000030660697086Discon s.r.l.                 000000008615523000000000000000000000000000000000000000000000000000000000000000000000000000000000000000000000000000000000PES00010000001000000000000000020170419
201704190060000700000000000000000953000000000000000009538000000000030711299064Parroquia Maria Reina         000000000137615000000000000000000000000000000000000000000000000000000000000000000000000000000000000000000000000000000000PES00010000001000000000000000020170419
201704190060000700000000000000000954000000000000000009548000000000030999284651Policia de Salta              000000000002500000000000000000000000000000000000000000000000000000000000000000000000000000000000000000000000000000000000PES00010000001000000000000000020170419
201704190060000700000000000000000955000000000000000009558000000000020000000001Consumidor Final              000000000030025000000000000000000000000000000000000000000000000000000000000000000000000000000000000000000000000000000000PES00010000001000000000000000020170419
201704190060000700000000000000000956000000000000000009568000000000030999284651Policia de Salta              000000000044996000000000000000000000000000000000000000000000000000000000000000000000000000000000000000000000000000000000PES00010000001000000000000000020170419
201704190060000700000000000000000957000000000000000009578000000000020000000001Doric Lorena                  000000000589981000000000000000000000000000000000000000000000000000000000000000000000000000000000000000000000000000000000PES00010000001000000000000000020170419
201704190060000400000000000000001448000000000000000014488000000000020000000001Consumidor Final              000000000719901000000000000000000000000000000000000000000000000000000000000000000000000000000000000000000000000000000000PES00010000001000000000000000020170419
201704200010000700000000000000003030000000000000000030308000000000033711226899La Nueva Salta SRL            000000000011560000000000000000000000000000000000000000000000000000000000000000000000000000000000000000000000000000000000PES00010000001000000000000000020170420
201704200010000700000000000000003031000000000000000030318000000000020144880146Lavin Guillermo               000000000020000000000000000000000000000000000000000000000000000000000000000000000000000000000000000000000000000000000000PES00010000001000000000000000020170420
201704200010000700000000000000003032000000000000000030328000000000033707200249Salas SRL                     000000000075300000000000000000000000000000000000000000000000000000000000000000000000000000000000000000000000000000000000PES00010000001000000000000000020170420
201704200010000700000000000000003033000000000000000030338000000000027006586762Sucesion Marocco Irma         000000000104000000000000000000000000000000000000000000000000000000000000000000000000000000000000000000000000000000000000PES00010000001000000000000000020170420
201704200010000700000000000000003034000000000000000030348000000000030711087733Maja Arq y Const SA           000000000046056000000000000000000000000000000000000000000000000000000000000000000000000000000000000000000000000000000000PES00010000001000000000000000020170420
201704200010000700000000000000003035000000000000000030358000000000023130409229Lopez Angel                   000000000042840000000000000000000000000000000000000000000000000000000000000000000000000000000000000000000000000000000000PES00010000001000000000000000020170420
201704200010000700000000000000003036000000000000000030368000000000030709608688Brisar SRL                    000000000025398000000000000000000000000000000000000000000000000000000000000000000000000000000000000000000000000000000000PES00010000001000000000000000020170420
201704200010000700000000000000003037000000000000000030378000000000030679839191Concordia Construcciones      000000000002069000000000000000000000000000000000000000000000000000000000000000000000000000000000000000000000000000000000PES00010000001000000000000000020170420
201704200010000700000000000000003038000000000000000030388000000000030679839191Concordia Construcciones      000000000015076000000000000000000000000000000000000000000000000000000000000000000000000000000000000000000000000000000000PES00010000001000000000000000020170420
201704200010000700000000000000003039000000000000000030398000000000020109490564Guarch José Luis              000000000145519000000000000000000000000000000000000000000000000000000000000000000000000000000000000000000000000000000000PES00010000001000000000000000020170420
201704200010000700000000000000003040000000000000000030408000000000030709224901Rac Contrucciones SRL         000000000012003000000000000000000000000000000000000000000000000000000000000000000000000000000000000000000000000000000000PES00010000001000000000000000020170420
201704200010000700000000000000003041000000000000000030418000000000030690721321Antonio Srur SRL              000000000093670000000000000000000000000000000000000000000000000000000000000000000000000000000000000000000000000000000000PES00010000001000000000000000020170420
201704200010000700000000000000003042000000000000000030428000000000020241386814Gonzalez Sebastian            000000000034766000000000000000000000000000000000000000000000000000000000000000000000000000000000000000000000000000000000PES00010000001000000000000000020170420
201704200010000700000000000000003043000000000000000030438000000000030708722312Verde SA                      000000000003704000000000000000000000000000000000000000000000000000000000000000000000000000000000000000000000000000000000PES00010000001000000000000000020170420
201704200060000700000000000000000958000000000000000009588000000000020000000001Consumidor Final              000000000011024000000000000000000000000000000000000000000000000000000000000000000000000000000000000000000000000000000000PES00010000001000000000000000020170420
201704200060000700000000000000000959000000000000000009598000000000030999284651Policia de Salta              000000000003060000000000000000000000000000000000000000000000000000000000000000000000000000000000000000000000000000000000PES00010000001000000000000000020170420
201704200060000700000000000000000961000000000000000009618000000000030999284651Policia de Salta              000000000002502000000000000000000000000000000000000000000000000000000000000000000000000000000000000000000000000000000000PES00010000001000000000000000020170420
201704200060000400000000000000001449000000000000000014498000000000020000000001Consumidor Final              000000000876501000000000000000000000000000000000000000000000000000000000000000000000000000000000000000000000000000000000PES00010000001000000000000000020170420
201704210010000700000000000000003044000000000000000030448000000000030708024313Denki Ingenieria SRL          000000000009000000000000000000000000000000000000000000000000000000000000000000000000000000000000000000000000000000000000PES00010000001000000000000000020170421
201704210010000700000000000000003045000000000000000030458000000000030711603553Soluciones Tecnicas Gener     000000000013812000000000000000000000000000000000000000000000000000000000000000000000000000000000000000000000000000000000PES00010000001000000000000000020170421
201704210010000700000000000000003046000000000000000030468000000000030712272240Fideicomiso Aires Verdes      000000000008503000000000000000000000000000000000000000000000000000000000000000000000000000000000000000000000000000000000PES00010000001000000000000000020170421
201704210010000700000000000000003047000000000000000030478000000000030700051362Neca s.r.l.                   000000024293313000000000000000000000000000000000000000000000000000000000000000000000000000000000000000000000000000000000PES00010000001000000000000000020170421
201704210010000700000000000000003048000000000000000030488000000000030681267006Sol del Valle Srl             000000000058800000000000000000000000000000000000000000000000000000000000000000000000000000000000000000000000000000000000PES00010000001000000000000000020170421
201704210010000700000000000000003049000000000000000030498000000000033712106099Agro Mix SRL                  000000000020004000000000000000000000000000000000000000000000000000000000000000000000000000000000000000000000000000000000PES00010000001000000000000000020170421
201704210010000700000000000000003050000000000000000030508000000000030711561273Ribacoop Ltda                 000000000045508000000000000000000000000000000000000000000000000000000000000000000000000000000000000000000000000000000000PES00010000001000000000000000020170421
201704210010000700000000000000003051000000000000000030518000000000027171312103Aguilar Elisa                 000000000040100000000000000000000000000000000000000000000000000000000000000000000000000000000000000000000000000000000000PES00010000001000000000000000020170421
201704210010000700000000000000003052000000000000000030528000000000030681267006Sol del Valle Srl             000000000013090000000000000000000000000000000000000000000000000000000000000000000000000000000000000000000000000000000000PES00010000001000000000000000020170421
201704210010000700000000000000003053000000000000000030538000000000030710586140AG  Emprendimientos SRL       000000000017085000000000000000000000000000000000000000000000000000000000000000000000000000000000000000000000000000000000PES00010000001000000000000000020170421
201704210010000700000000000000003054000000000000000030548000000000030679839191Concordia Construcciones      000000000050000000000000000000000000000000000000000000000000000000000000000000000000000000000000000000000000000000000000PES00010000001000000000000000020170421
201704210010000700000000000000003055000000000000000030558000000000030711087733Maja Arq y Const SA           000000000046495000000000000000000000000000000000000000000000000000000000000000000000000000000000000000000000000000000000PES00010000001000000000000000020170421
201704210010000700000000000000003056000000000000000030568000000000030681267006Sol del Valle Srl             000000000022000000000000000000000000000000000000000000000000000000000000000000000000000000000000000000000000000000000000PES00010000001000000000000000020170421
201704210010000700000000000000003057000000000000000030578000000000020127125466Campero Roberto               000000000477021000000000000000000000000000000000000000000000000000000000000000000000000000000000000000000000000000000000PES00010000001000000000000000020170421
201704210010000700000000000000003058000000000000000030588000000000027006586762Sucesion Marocco Irma         000000000052000000000000000000000000000000000000000000000000000000000000000000000000000000000000000000000000000000000000PES00010000001000000000000000020170421
201704210010000700000000000000003059000000000000000030598000000000030690663860Mocovi s.r.l.                 000000034402410000000033894000000000000000000000000000000000000000000000000000000000508410000000000000000000000000000000PES00010000001N00000000000000020170421
201704210010000700000000000000003060000000000000000030608000000000020054090928Albistro Angel Benjamin       000000005621378000000000000000000000000000000000000000000000000000000000000000000000000000000000000000000000000000000000PES00010000001000000000000000020170421
201704210060000700000000000000000962000000000000000009628000000000030999284651Policia de Salta              000000000899591000000000000000000000000000000000000000000000000000000000000000000000000000000000000000000000000000000000PES00010000001000000000000000020170421
201704210060000700000000000000000963000000000000000009638000000000030652114217Colegio Arquiteto de Salt     000000000027497000000000000000000000000000000000000000000000000000000000000000000000000000000000000000000000000000000000PES00010000001000000000000000020170421
201704210060000700000000000000000964000000000000000009648000000000020000000001Consumidor Final              000000000147000000000000000000000000000000000000000000000000000000000000000000000000000000000000000000000000000000000000PES00010000001000000000000000020170421
201704210060000400000000000000001450000000000000000014508000000000020000000001Consumidor Final              000000000391901000000000000000000000000000000000000000000000000000000000000000000000000000000000000000000000000000000000PES00010000001000000000000000020170421
201704220010000700000000000000003061000000000000000030618000000000030690663860Mocovi s.r.l.                 000000034314174000000000000000000000000000000000000000000000000000000000000000000000420174000000000000000000000000000000PES00010000001000000000000000020170422
201704220010000700000000000000003062000000000000000030628000000000030690663860Mocovi s.r.l.                 000000034314174000000000000000000000000000000000000000000000000000000000000000000000420174000000000000000000000000000000PES00010000001000000000000000020170422
201704220010000700000000000000003063000000000000000030638000000000030707746188Megneto SRL                   000000000010030000000000000000000000000000000000000000000000000000000000000000000000000000000000000000000000000000000000PES00010000001000000000000000020170422
201704220010000700000000000000003064000000000000000030648000000000020203999519Delta Computacion             000000000035509000000000000000000000000000000000000000000000000000000000000000000000000000000000000000000000000000000000PES00010000001000000000000000020170422
201704220060000700000000000000000965000000000000000009658000000000020000000001Consumidor Final              000000000047023000000000000000000000000000000000000000000000000000000000000000000000000000000000000000000000000000000000PES00010000001000000000000000020170422
201704220030000700000000000000000036000000000000000000368000000000030690663860Mocovi s.r.l.                 000000034402410000000033894000000000000000000000000000000000000000000000000000000000508410000000000000000000000000000000PES00010000001N00000000000000020170422
201704220030000700000000000000000037000000000000000000378000000000030690663860Mocovi s.r.l.                 000000034314174000000000000000000000000000000000000000000000000000000000000000000000420174000000000000000000000000000000PES00010000001000000000000000020170422
201704220060000400000000000000001451000000000000000014518000000000020000000001Consumidor Final              000000001372430000000000000000000000000000000000000000000000000000000000000000000000000000000000000000000000000000000000PES00010000001000000000000000020170422
201704240010000700000000000000003065000000000000000030658000000000030715135392Hosse SRL                     000000000015300000000000000000000000000000000000000000000000000000000000000000000000000000000000000000000000000000000000PES00010000001000000000000000020170424
201704240010000700000000000000003066000000000000000030668000000000030501522496Vicente Moncho Construcci     000000030212415000000000000000000000000000000000000000000000000000000000000000000000000000000000000000000000000000000000PES00010000001000000000000000020170424
201704240010000700000000000000003067000000000000000030678000000000030708456337Duende Azul SRL               000000000027999000000000000000000000000000000000000000000000000000000000000000000000000000000000000000000000000000000000PES00010000001000000000000000020170424
201704240010000700000000000000003068000000000000000030688000000000030709224901Rac Contrucciones SRL         000000000061499000000000000000000000000000000000000000000000000000000000000000000000000000000000000000000000000000000000PES00010000001000000000000000020170424
201704240010000700000000000000003069000000000000000030698000000000030709224901Rac Contrucciones SRL         000000000012301000000000000000000000000000000000000000000000000000000000000000000000000000000000000000000000000000000000PES00010000001000000000000000020170424
201704240010000700000000000000003070000000000000000030708000000000030711383693Grinfil SRL                   000000000132089000000000000000000000000000000000000000000000000000000000000000000000000000000000000000000000000000000000PES00010000001000000000000000020170424
201704240010000700000000000000003071000000000000000030718000000000030709224901Rac Contrucciones SRL         000000000049200000000000000000000000000000000000000000000000000000000000000000000000000000000000000000000000000000000000PES00010000001000000000000000020170424
201704240010000700000000000000003072000000000000000030728000000000020177929884Esteban Fonzalida Sergio      000000000860178000000000000000000000000000000000000000000000000000000000000000000000000000000000000000000000000000000000PES00010000001000000000000000020170424
201704240010000700000000000000003073000000000000000030738000000000027929338923Gimenez  Nancy                000000000052008000000000000000000000000000000000000000000000000000000000000000000000000000000000000000000000000000000000PES00010000001000000000000000020170424
201704240010000700000000000000003074000000000000000030748000000000030709224901Rac Contrucciones SRL         000000000003231000000000000000000000000000000000000000000000000000000000000000000000000000000000000000000000000000000000PES00010000001000000000000000020170424
201704240010000700000000000000003075000000000000000030758000000000030710586140AG  Emprendimientos SRL       000000000006291000000000000000000000000000000000000000000000000000000000000000000000000000000000000000000000000000000000PES00010000001000000000000000020170424
201704240010000700000000000000003076000000000000000030768000000000027246971566Herrera Nelida del Carmen     000000000059000000000000000000000000000000000000000000000000000000000000000000000000000000000000000000000000000000000000PES00010000001000000000000000020170424
201704240060000700000000000000000966000000000000000009668000000000020000000001Escuela Jacoba Saravia        000000000004504000000000000000000000000000000000000000000000000000000000000000000000000000000000000000000000000000000000PES00010000001000000000000000020170424
201704240060000700000000000000000967000000000000000009678000000000030711299064Parroquia Maria Reina         000000000037005000000000000000000000000000000000000000000000000000000000000000000000000000000000000000000000000000000000PES00010000001000000000000000020170424
201704240060000400000000000000001452000000000000000014528000000000020000000001Consumidor Final              000000000560202000000000000000000000000000000000000000000000000000000000000000000000000000000000000000000000000000000000PES00010000001000000000000000020170424
201704250010000700000000000000003077000000000000000030778000000000030710398980Horacio Bielli Div. Empre     000000000044803000000000000000000000000000000000000000000000000000000000000000000000000000000000000000000000000000000000PES00010000001000000000000000020170425
201704250010000700000000000000003078000000000000000030788000000000020122204074Bassani Carlos Enrique        000000000080002000000000000000000000000000000000000000000000000000000000000000000000000000000000000000000000000000000000PES00010000001000000000000000020170425
201704250010000700000000000000003079000000000000000030798000000000027006586762Sucesion Marocco Irma         000000000093000000000000000000000000000000000000000000000000000000000000000000000000000000000000000000000000000000000000PES00010000001000000000000000020170425
201704250010000700000000000000003080000000000000000030808000000000030644225360Servicios Viales de Pigue     000000025066156000000000000000000000000000000000000000000000000000000000000000000000000000000000000000000000000000000000PES00010000001000000000000000020170425
201704250010000700000000000000003081000000000000000030818000000000033712364799Huipala SRL                   000000000022511000000000000000000000000000000000000000000000000000000000000000000000000000000000000000000000000000000000PES00010000001000000000000000020170425
201704250010000700000000000000003082000000000000000030828000000000030707325824Saltapor s.r.l                000000000019005000000000000000000000000000000000000000000000000000000000000000000000000000000000000000000000000000000000PES00010000001000000000000000020170425
201704250010000700000000000000003083000000000000000030838000000000030710586140AG  Emprendimientos SRL       000000000010001000000000000000000000000000000000000000000000000000000000000000000000000000000000000000000000000000000000PES00010000001000000000000000020170425
201704250010000700000000000000003084000000000000000030848000000000030707474307Crew Live S.A                 000000000031000000000000000000000000000000000000000000000000000000000000000000000000000000000000000000000000000000000000PES00010000001000000000000000020170425
201704250060000700000000000000000968000000000000000009688000000000030714850349Secretaria de Obras publi     000000000032001000000000000000000000000000000000000000000000000000000000000000000000000000000000000000000000000000000000PES00010000001000000000000000020170425
201704250060000700000000000000000969000000000000000009698000000000030999284651Policia de Salta              000000000087489000000000000000000000000000000000000000000000000000000000000000000000000000000000000000000000000000000000PES00010000001000000000000000020170425
201704250060000700000000000000000970000000000000000009708000000000030999284651Policia de Salta              000000000000322000000000000000000000000000000000000000000000000000000000000000000000000000000000000000000000000000000000PES00010000001000000000000000020170425
201704250060000700000000000000000971000000000000000009718000000000020000000001Galli Martina Marta Susan     000000000025062000000000000000000000000000000000000000000000000000000000000000000000000000000000000000000000000000000000PES00010000001000000000000000020170425
201704250060000700000000000000000972000000000000000009728000000000020000000001Consumidor Final              000000000081004000000000000000000000000000000000000000000000000000000000000000000000000000000000000000000000000000000000PES00010000001000000000000000020170425
201704250060000700000000000000000973000000000000000009738000000000020000000001Escuela Victorino de la P     000000000048001000000000000000000000000000000000000000000000000000000000000000000000000000000000000000000000000000000000PES00010000001000000000000000020170425
201704250060000400000000000000001453000000000000000014538000000000020000000001Consumidor Final              000000000836902000000000000000000000000000000000000000000000000000000000000000000000000000000000000000000000000000000000PES00010000001000000000000000020170425
201704260010000700000000000000003085000000000000000030858000000000030714542083Exa Group SRL                 000000000012277000000000000000000000000000000000000000000000000000000000000000000000000000000000000000000000000000000000PES00010000001000000000000000020170426
201704260010000700000000000000003086000000000000000030868000000000030690721321Antonio Srur SRL              000000000080002000000000000000000000000000000000000000000000000000000000000000000000000000000000000000000000000000000000PES00010000001000000000000000020170426
201704260010000700000000000000003087000000000000000030878000000000030690721321Antonio Srur SRL              000000000080002000000000000000000000000000000000000000000000000000000000000000000000000000000000000000000000000000000000PES00010000001000000000000000020170426
201704260010000700000000000000003088000000000000000030888000000000030525746182El Condor                     000000000028059000000000000000000000000000000000000000000000000000000000000000000000000000000000000000000000000000000000PES00010000001000000000000000020170426
201704260010000700000000000000003089000000000000000030898000000000030707138250Emprender SA                  000000000034339000000000000000000000000000000000000000000000000000000000000000000000000000000000000000000000000000000000PES00010000001000000000000000020170426
201704260010000700000000000000003090000000000000000030908000000000020249689131Nanni Construcciones          000000000090011000000000000000000000000000000000000000000000000000000000000000000000000000000000000000000000000000000000PES00010000001000000000000000020170426
201704260010000700000000000000003091000000000000000030918000000000020081742406Usandivaras Marcelo           000000000203188000000000000000000000000000000000000000000000000000000000000000000000000000000000000000000000000000000000PES00010000001000000000000000020170426
201704260010000700000000000000003092000000000000000030928000000000030711383693Grinfil SRL                   000000000038000000000000000000000000000000000000000000000000000000000000000000000000000000000000000000000000000000000000PES00010000001000000000000000020170426
201704260010000700000000000000003093000000000000000030938000000000030711383693Grinfil SRL                   000000000792540000000000000000000000000000000000000000000000000000000000000000000000000000000000000000000000000000000000PES00010000001000000000000000020170426
201704260010000700000000000000003094000000000000000030948000000000027006586762Sucesion Marocco Irma         000000000055648000000000000000000000000000000000000000000000000000000000000000000000000000000000000000000000000000000000PES00010000001000000000000000020170426
201704260010000700000000000000003095000000000000000030958000000000030709676861Hospital Privado Tres Cer     000000000008482000000000000000000000000000000000000000000000000000000000000000000000000000000000000000000000000000000000PES00010000001000000000000000020170426
201704260010000700000000000000003096000000000000000030968000000000030710087098Aytcmm SRL                    000000000006052000000000000000000000000000000000000000000000000000000000000000000000000000000000000000000000000000000000PES00010000001000000000000000020170426
201704260010000700000000000000003097000000000000000030978000000000030627549659Casas Contemporáneas S.A      000000000002996000000000000000000000000000000000000000000000000000000000000000000000000000000000000000000000000000000000PES00010000001000000000000000020170426
201704260010000700000000000000003098000000000000000030988000000000027065355820Galli Martina Marta Susan     000000000009502000000000000000000000000000000000000000000000000000000000000000000000000000000000000000000000000000000000PES00010000001000000000000000020170426
201704260010000700000000000000003099000000000000000030998000000000030627549659Casas Contemporáneas S.A      000000000003485000000000000000000000000000000000000000000000000000000000000000000000000000000000000000000000000000000000PES00010000001000000000000000020170426
201704260010000700000000000000003100000000000000000031008000000000020081714046Binda Victorio Ricardo        000000000004097000000000000000000000000000000000000000000000000000000000000000000000000000000000000000000000000000000000PES00010000001000000000000000020170426
201704260010000700000000000000003101000000000000000031018000000000020171317194Vera Hector  Ramon            000000000006526000000000000000000000000000000000000000000000000000000000000000000000000000000000000000000000000000000000PES00010000001000000000000000020170426
201704260060000700000000000000000974000000000000000009748000000000030999284651Policia de Salta              000000000015005000000000000000000000000000000000000000000000000000000000000000000000000000000000000000000000000000000000PES00010000001000000000000000020170426
201704260060000700000000000000000975000000000000000009758000000000023036751614Estrada Herminda Yone         000000000048001000000000000000000000000000000000000000000000000000000000000000000000000000000000000000000000000000000000PES00010000001000000000000000020170426
201704260060000700000000000000000976000000000000000009768000000000023036751614Estrada Herminda Yone         000000000022100000000000000000000000000000000000000000000000000000000000000000000000000000000000000000000000000000000000PES00010000001000000000000000020170426
201704260060000700000000000000000977000000000000000009778000000000023036751614Estrada Herminda Yone         000000000110500000000000000000000000000000000000000000000000000000000000000000000000000000000000000000000000000000000000PES00010000001000000000000000020170426
201704260060000400000000000000001454000000000000000014548000000000020000000001Consumidor Final              000000001614300000000000000000000000000000000000000000000000000000000000000000000000000000000000000000000000000000000000PES00010000001000000000000000020170426
201704270010000700000000000000003102000000000000000031028000000000030711372705Garin Juan Pedro Construc     000000000007098000000000000000000000000000000000000000000000000000000000000000000000000000000000000000000000000000000000PES00010000001000000000000000020170427
201704270010000700000000000000003103000000000000000031038000000000033711226899La Nueva Salta SRL            000000000044476000000000000000000000000000000000000000000000000000000000000000000000000000000000000000000000000000000000PES00010000001000000000000000020170427
201704270010000700000000000000003104000000000000000031048000000000020110606355Casado Hector Raul            000000000552534000000000000000000000000000000000000000000000000000000000000000000000000000000000000000000000000000000000PES00010000001000000000000000020170427
201704270010000700000000000000003105000000000000000031058000000000027929338923Gimenez  Nancy                000000000076321000000000000000000000000000000000000000000000000000000000000000000000000000000000000000000000000000000000PES00010000001000000000000000020170427
201704270010000700000000000000003106000000000000000031068000000000020162973712Benavidez Everardo G          000000000012090000000000000000000000000000000000000000000000000000000000000000000000000000000000000000000000000000000000PES00010000001000000000000000020170427
201704270010000700000000000000003107000000000000000031078000000000030711229376Pascha SRL                    000000000080002000000000000000000000000000000000000000000000000000000000000000000000000000000000000000000000000000000000PES00010000001000000000000000020170427
201704270010000700000000000000003108000000000000000031088000000000020041947986Haddad Luis Selim             000000000026503000000000000000000000000000000000000000000000000000000000000000000000000000000000000000000000000000000000PES00010000001000000000000000020170427
201704270010000700000000000000003109000000000000000031098000000000030627549659Casas Contemporáneas S.A      000000000004400000000000000000000000000000000000000000000000000000000000000000000000000000000000000000000000000000000000PES00010000001000000000000000020170427
201704270010000700000000000000003110000000000000000031108000000000030711372705Garin Juan Pedro Construc     000000000006332000000000000000000000000000000000000000000000000000000000000000000000000000000000000000000000000000000000PES00010000001000000000000000020170427
201704270010000700000000000000003111000000000000000031118000000000027006586762Sucesion Marocco Irma         000000000185300000000000000000000000000000000000000000000000000000000000000000000000000000000000000000000000000000000000PES00010000001000000000000000020170427
201704270010000700000000000000003112000000000000000031128000000000030710586140AG  Emprendimientos SRL       000000000040070000000000000000000000000000000000000000000000000000000000000000000000000000000000000000000000000000000000PES00010000001000000000000000020170427
201704270010000700000000000000003113000000000000000031138000000000020122204074Bassani Carlos Enrique        000000000127027000000000000000000000000000000000000000000000000000000000000000000000000000000000000000000000000000000000PES00010000001000000000000000020170427
201704270010000700000000000000003114000000000000000031148000000000023121455374Rasero Edith                  000000000034070000000000000000000000000000000000000000000000000000000000000000000000000000000000000000000000000000000000PES00010000001000000000000000020170427
201704270010000700000000000000003115000000000000000031158000000000020081714046Binda Victorio Ricardo        000000000001782000000000000000000000000000000000000000000000000000000000000000000000000000000000000000000000000000000000PES00010000001000000000000000020170427
201704270010000700000000000000003116000000000000000031168000000000020162972147Chuquisaca Victor             000000000012410000000000000000000000000000000000000000000000000000000000000000000000000000000000000000000000000000000000PES00010000001000000000000000020170427
201704270010000700000000000000003118000000000000000031188000000000030709224901Rac Contrucciones SRL         000000000050490000000000000000000000000000000000000000000000000000000000000000000000000000000000000000000000000000000000PES00010000001000000000000000020170427
201704270010000700000000000000003119000000000000000031198000000000020171317194Vera Hector  Ramon            000000000006506000000000000000000000000000000000000000000000000000000000000000000000000000000000000000000000000000000000PES00010000001000000000000000020170427
201704270010000700000000000000003120000000000000000031208000000000030708106700Los Pirpintos SRL             000000005023177000000000000000000000000000000000000000000000000000000000000000000000000000000000000000000000000000000000PES00010000001000000000000000020170427
201704270060000700000000000000000978000000000000000009788000000000020000000001Consumidor Final              000000000593949000000000000000000000000000000000000000000000000000000000000000000000000000000000000000000000000000000000PES00010000001000000000000000020170427
201704270060000700000000000000000979000000000000000009798000000000020000000001Consumidor Final              000000000459799000000000000000000000000000000000000000000000000000000000000000000000000000000000000000000000000000000000PES00010000001000000000000000020170427
201704270060000400000000000000001455000000000000000014558000000000020000000001Consumidor Final              000000000598803000000000000000000000000000000000000000000000000000000000000000000000000000000000000000000000000000000000PES00010000001000000000000000020170427
201704280010000700000000000000003121000000000000000031218000000000030627549659Casas Contemporáneas S.A      000000000005078000000000000000000000000000000000000000000000000000000000000000000000000000000000000000000000000000000000PES00010000001000000000000000020170428
201704280010000700000000000000003122000000000000000031228000000000020041947986Haddad Luis Selim             000000000023651000000000000000000000000000000000000000000000000000000000000000000000000000000000000000000000000000000000PES00010000001000000000000000020170428
201704280010000700000000000000003123000000000000000031238000000000030715030582Hunanku SRL                   000000000049300000000000000000000000000000000000000000000000000000000000000000000000000000000000000000000000000000000000PES00010000001000000000000000020170428
201704280010000700000000000000003124000000000000000031248000000000030710586140AG  Emprendimientos SRL       000000000022807000000000000000000000000000000000000000000000000000000000000000000000000000000000000000000000000000000000PES00010000001000000000000000020170428
201704280010000700000000000000003125000000000000000031258000000000030707474307Crew Live S.A                 000000000003963000000000000000000000000000000000000000000000000000000000000000000000000000000000000000000000000000000000PES00010000001000000000000000020170428
201704280010000700000000000000003126000000000000000031268000000000030711603553Soluciones Tecnicas Gener     000000000002800000000000000000000000000000000000000000000000000000000000000000000000000000000000000000000000000000000000PES00010000001000000000000000020170428
201704280010000700000000000000003127000000000000000031278000000000030709427896Daber Servicios Industria     000000000045506000000000000000000000000000000000000000000000000000000000000000000000000000000000000000000000000000000000PES00010000001000000000000000020170428
201704280010000700000000000000003128000000000000000031288000000000030711603553Soluciones Tecnicas Gener     000000000009004000000000000000000000000000000000000000000000000000000000000000000000000000000000000000000000000000000000PES00010000001000000000000000020170428
201704280010000700000000000000003129000000000000000031298000000000030658186465Ara Consultora S.R.L          000000012712131000000000000000000000000000000000000000000000000000000000000000000000000000000000000000000000000000000000PES00010000001000000000000000020170428
201704280010000700000000000000003130000000000000000031308000000000027006586762Sucesion Marocco Irma         000000000116000000000000000000000000000000000000000000000000000000000000000000000000000000000000000000000000000000000000PES00010000001000000000000000020170428
201704280010000700000000000000003131000000000000000031318000000000027246971566Herrera Nelida del Carmen     000000000039779000000000000000000000000000000000000000000000000000000000000000000000000000000000000000000000000000000000PES00010000001000000000000000020170428
201704280010000700000000000000003134000000000000000031348000000000020041947986Haddad Luis Selim             000000000019504000000000000000000000000000000000000000000000000000000000000000000000000000000000000000000000000000000000PES00010000001000000000000000020170428
201704280010000700000000000000003135000000000000000031358000000000030658186465Ara Consultora S.R.L          000000012711279000000000000000000000000000000000000000000000000000000000000000000000000000000000000000000000000000000000PES00010000001000000000000000020170428
201704280010000700000000000000003136000000000000000031368000000000020203999519Delta Computacion             000000000040005000000000000000000000000000000000000000000000000000000000000000000000000000000000000000000000000000000000PES00010000001000000000000000020170428
