201801110060000600000000000000000006000000000000000000068000000000030585583533MUNICIPALIDAD DE LA CIUDAD DE 000000024035468000000000000000000000000000000000000000000000000000000000000000000000000000000000000000000000000000000000PES00010000001000000000000000020180131
201801120010000600000000000000000228000000000000000002288000000000030714298131MDM BAR S.R.L.                000000003828440000000000000000000000000000000000000000000000000000000000000000000000000000000000000000000000000000000000PES00010000001000000000000000020180112
201801120010000600000000000000000229000000000000000002298000000000027293111869HEVIA ELSA FLORENCIA          000000003248850000000000000000000000000000000000000000000000000000000000000000000000000000000000000000000000000000000000PES00010000001000000000000000020180112
201801120010000600000000000000000230000000000000000002308000000000030708947276REGULUS ARGENTINA S.A.        000000006132280000000000000000000000000000000000000000000000000000000000000000000000000000000000000000000000000000000000PES00010000001000000000000000020180112
201801120010000600000000000000000231000000000000000002318000000000020230799270LUQUE MAURICIO JAVIER         000000001694000000000000000000000000000000000000000000000000000000000000000000000000000000000000000000000000000000000000PES00010000001000000000000000020180112
201801160060000600000000000000000007000000000000000000078000000000030585583533MUNICIPALIDAD DE LA CIUDAD DE 000000021471447000000000000000000000000000000000000000000000000000000000000000000000000000000000000000000000000000000000PES00010000001000000000000000020180116
