201707250010010100000000000000430888                8000000000030690633635EDESA SA                      000000000076886000000000023285000000000000000000000000000000000000000000000000000000000282000000000000000000000000000000PES00010000001000000000000000000000000000000000000000000                              000000000000000
201707190010010100000000000000427164                8000000000030690633635EDESA SA                      000000000149792000000000076460000000000000000000000000000000000000000000000000000000002021000000000000000000000000000000PES00010000002000000000000000000000000000000000000000000                              000000000000000
201707190010010100000000001111427164                8000000000030690633635EDESA SA                      000000000000033000000000000000000000000000000000000000000000000000000000000000000000000000000000000000000000000000000000PES00010000001000000000000000000000000000000000000000000                              000000000000000
201707190010010100000000000000427148                8000000000030690633635EDESA SA                      000000000230411000000000085914000000000000000000000000000000000000000000000000000000003983000000000000000000000000000000PES00010000002000000000000000000000000000000000000000000                              000000000000000
201707190010010100000000001111427148                8000000000030690633635EDESA SA                      000000000000071000000000000000000000000000000000000000000000000000000000000000000000000000000000000000000000000000000000PES00010000001000000000000000000000000000000000000000000                              000000000000000
201707200010010100000000000000427655                8000000000030690633635EDESA SA                      000000000082318000000000056589000000000000000000000000000000000000000000000000000000000191000000000000000000000000000000PES00010000002000000000000000000000000000000000000000000                              000000000000000
201707200010010100000000011111427655                8000000000030690633635EDESA SA                      000000000000040000000000000000000000000000000000000000000000000000000000000000000000000000000000000000000000000000000000PES00010000001000000000000000000000000000000000000000000                              000000000000000
201707310010551200000000000002996791                8000000000030678186445TELECOM PERSONAL SA           000000000272945000000000002060000000000000000000000000006180000000000000000000000000000000000000000000000000000000008409PES00010000002000000000000000000000000000000000000000000                              000000000000000
201707310010551200000000001112996791                8000000000030678186445TELECOM PERSONAL SA           000000000005065000000000000000000000000000000000000000000000000000000000000000000000000000000000000000000000000000000000PES00010000001000000000000000000000000000000000000000000                              000000000000000
201707310010551200000000000002998997                8000000000030678186445TELECOM PERSONAL SA           000000000150934000000000001142000000000000000000000000000000000000000000000000000000000000000000000000000000000000004758PES00010000001000000000000000000000000000000000000000000                              000000000000000
201707190010105400000000000000007144                8000000000030573652084CABLEVISION SA                000000000084050000000000000000000000000000000000000000000000000000000000000000000000000000000000000000000000000000000000PES00010000001000000000000000000000000000000000000000000                              000000000000000
201707190010105400000000000000007139                8000000000030573652084CABLEVISION SA                000000000084050000000000000000000000000000000000000000000000000000000000000000000000000000000000000000000000000000000000PES00010000001000000000000000000000000000000000000000000                              000000000000000
201707190010105400000000000000008044                8000000000030573652084CABLEVISION SA                000000000110370000000000002671000000000000000000000000000000000000000000000000000000000000000000000000000000000000000000PES00010000001000000000000000000000000000000000000000000                              000000000000000
201707130010810500000000000015909687                8000000000030639453799TELECOM ARGENTINA SA          000000000052275000000000000000000000000000000000000000000000000000000000000000000000000000000000000000000000000000000000PES00010000001000000000000000000000000000000000000000000                              000000000000000
201707130010810500000000000016803615                8000000000030639453799TELECOM ARGENTINA SA          000000000030480000000000000000000000000000000000000000000000000000000000000000000000000000000000000000000000000000000000PES00010000001000000000000000000000000000000000000000000                              000000000000000
201707310010007200000000000000017083                8000000000030602764032ECCO SA                       000000000099600000000000000000000000000000000000000000000000000000000000000000000000000000000000000000000000000000000000PES00010000001000000000000000000000000000000000000000000                              000000000000000
201706300010001200000000000000029642                8000000000030605912725MAPEI ARGENTINA SA            000000007957105000000000000000000000000000000000000000000000000000000000000000000000000000000000000000000000000000000000PES00010000001000000000000000000000000000000000000000000                              000000000000000
201707030010000200000000000000000111                8000000000020323658987AGUSTIN NICOLAS WAYAR         000000001800000000000000000000000000000000000000000000000000000000000000000000000000000000000000000000000000000000000000PES00010000001000000000000000000000000000000000000000000                              000000000000000
201707040010000200000000000000000112                8000000000020323658987AGUSTIN NICOLAS WAYAR         000000000450000000000000000000000000000000000000000000000000000000000000000000000000000000000000000000000000000000000000PES00010000001000000000000000000000000000000000000000000                              000000000000000
201707040010000200000000000000000113                8000000000020323658987AGUSTIN NICOLAS WAYAR         000000000450000000000000000000000000000000000000000000000000000000000000000000000000000000000000000000000000000000000000PES00010000001000000000000000000000000000000000000000000                              000000000000000
201707070010000200000000000000000114                8000000000020323658987AGUSTIN NICOLAS WAYAR         000000000450000000000000000000000000000000000000000000000000000000000000000000000000000000000000000000000000000000000000PES00010000001000000000000000000000000000000000000000000                              000000000000000
201707130010000200000000000000000115                8000000000020323658987AGUSTIN NICOLAS WAYAR         000000000900000000000000000000000000000000000000000000000000000000000000000000000000000000000000000000000000000000000000PES00010000001000000000000000000000000000000000000000000                              000000000000000
201707170010000200000000000000000121                8000000000020323658987AGUSTIN NICOLAS WAYAR         000000000900000000000000000000000000000000000000000000000000000000000000000000000000000000000000000000000000000000000000PES00010000001000000000000000000000000000000000000000000                              000000000000000
201708040010000200000000000000000126                8000000000020323658987AGUSTIN NICOLAS WAYAR         000000000450000000000000000000000000000000000000000000000000000000000000000000000000000000000000000000000000000000000000PES00010000001000000000000000000000000000000000000000000                              000000000000000
201707090010026400000000000000120264                8000000000030501111127HOLCIM SA                     000000062097199000000000000000000000000000000000000001497162000000000000000000000000000000000000000214593000000000000000PES00010000001000000000000000000000000000000000000000000                              000000000000000
201707090010026400000000000000120263                8000000000030501111127HOLCIM SA                     000000021637791000000000000000000000000000000000000000521685000000000000000000000000000000000000000074775000000000000000PES00010000001000000000000000000000000000000000000000000                              000000000000000
201707090030026400000000000000001034                8000000000030501111127HOLCIM SA                     000000001552704000000000000000000000000000000000000000037437000000000000000000000000000000000000000005367000000000000000PES00010000001000000000000000000000000000000000000000000                              000000000000000
201707160010026400000000000000120653                8000000000030501111127HOLCIM SA                     000000120957584000000000000000000000000000000000000002916287000000000000000000000000000000000000000418003000000000000000PES00010000001000000000000000000000000000000000000000000                              000000000000000
201707160010026400000000000000120652                8000000000030501111127HOLCIM SA                     000000021637791000000000000000000000000000000000000000521685000000000000000000000000000000000000000074775000000000000000PES00010000001000000000000000000000000000000000000000000                              000000000000000
201707160030026400000000000000001056                8000000000030501111127HOLCIM SA                     000000002587840000000000000000000000000000000000000000062395000000000000000000000000000000000000000008945000000000000000PES00010000001000000000000000000000000000000000000000000                              000000000000000
201707230010026400000000000000120986                8000000000030501111127HOLCIM SA                     000000086059141000000000000000000000000000000000000002074885000000000000000000000000000000000000000297399000000000000000PES00010000001000000000000000000000000000000000000000000                              000000000000000
201707230010026400000000000000120987                8000000000030501111127HOLCIM SA                     000000007212597000000000000000000000000000000000000000173895000000000000000000000000000000000000000024925000000000000000PES00010000001000000000000000000000000000000000000000000                              000000000000000
201707230030026400000000000000001083                8000000000030501111127HOLCIM SA                     000000001552704000000000000000000000000000000000000000037437000000000000000000000000000000000000000005367000000000000000PES00010000001000000000000000000000000000000000000000000                              000000000000000
201707300010026400000000000000121339                8000000000030501111127HOLCIM SA                     000000148195247000000000000000000000000000000000000003572984000000000000000000000000000000000000000512130000000000000000PES00010000001000000000000000000000000000000000000000000                              000000000000000
201707300010026400000000000000121340                8000000000030501111127HOLCIM SA                     000000007212597000000000000000000000000000000000000000173895000000000000000000000000000000000000000024925000000000000000PES00010000001000000000000000000000000000000000000000000                              000000000000000
201707310010026400000000000000121417                8000000000030501111127HOLCIM SA                     000000024347766000000000000000000000000000000000000000587022000000000000000000000000000000000000000084141000000000000000PES00010000001000000000000000000000000000000000000000000                              000000000000000
201707300030026400000000000000001096                8000000000030501111127HOLCIM SA                     000000002070272000000000000000000000000000000000000000049916000000000000000000000000000000000000000007156000000000000000PES00010000001000000000000000000000000000000000000000000                              000000000000000
201707100010050100000000000000150510                8000000000030500530851LOMA NEGRA CIASA              000000024653310000000000000000000000000000000000000000596451000000000000000000000000000000000000000000000000000000000000PES00010000001000000000000000000000000000000000000000000                              000000000000000
201707170010050100000000000000150832                8000000000030500530851LOMA NEGRA CIASA              000000024653310000000000000000000000000000000000000000596451000000000000000000000000000000000000000000000000000000000000PES00010000001000000000000000000000000000000000000000000                              000000000000000
201707110030050100000000000000064519                8000000000030500530851LOMA NEGRA CIASA              000000005670666000000000000000000000000000000000000000000000000000000000000000000000000000000000000000000000000000000000PES00010000001000000000000000000000000000000000000000000                              000000000000000
201707240010050100000000000000151250                8000000000030500530851LOMA NEGRA CIASA              000000045197736000000000000000000000000000000000000001093494000000000000000000000000000000000000000000000000000000000000PES00010000001000000000000000000000000000000000000000000                              000000000000000
201707240010050100000000000000151251                8000000000030500530851LOMA NEGRA CIASA              000000003455391000000000000000000000000000000000000000083598000000000000000000000000000000000000000000000000000000000000PES00010000001000000000000000000000000000000000000000000                              000000000000000
201707310010050100000000000000151713                8000000000030500530851LOMA NEGRA CIASA              000000049306621000000000000000000000000000000000000001192902000000000000000000000000000000000000000000000000000000000000PES00010000001000000000000000000000000000000000000000000                              000000000000000
201708080010050100000000000000152063                8000000000030500530851LOMA NEGRA CIASA              000000032871081000000000000000000000000000000000000000795268000000000000000000000000000000000000000000000000000000000000PES00010000001000000000000000000000000000000000000000000                              000000000000000
201707130010000300000000000000000135                8000000000023262936449ORTIZ VICTOR HUGO             000000003998181000000000000000000000000000000000000000000000000000000000000000000000000000000000000000000000000000000000PES00010000001000000000000000000000000000000000000000000                              000000000000000
201707250010000300000000000000000140                8000000000023262936449ORTIZ VICTOR HUGO             000000003965814000000000000000000000000000000000000000000000000000000000000000000000000000000000000000000000000000000000PES00010000001000000000000000000000000000000000000000000                              000000000000000
201708050010000500000000000000001784                8000000000030708780649ESTACION DE SERVICIO EL TRIUNF000000000100014000000000016606000000000000000000000000000000000000000000000000000000000000000000000000000000000000000000PES00010000001000000000000000000000000000000000000000000                              000000000000000
201707070010002100000000000000016725                8000000000030552816168DURLOCK SA                    000000014785234000000000000000000000000000000000000000000000000000000000000000000000216722000000000000000000000000000000PES00010000001000000000000000000000000000000000000000000                              000000000000000
201707070010002100000000000000016726                8000000000030552816168DURLOCK SA                    000000003093788000000000000000000000000000000000000000000000000000000000000000000000045349000000000000000000000000000000PES00010000001000000000000000000000000000000000000000000                              000000000000000
201707070030002100000000000000037138                8000000000030552816168DURLOCK SA                    000000000408769000000000000000000000000000000000000000000000000000000000000000000000000000000000000000000000000000000000PES00010000001000000000000000000000000000000000000000000                              000000000000000
201708140010003600000000000000007977                8000000000030623573318HIERRONORT SALTA SRL          000000000104968000000000000000000000000000000000000000000000000000000000000000000000003018000000000000503000000000000000PES00010000001000000000000000000000000000000000000000000                              000000000000000
201708100010000100000000000000000203                8000000000030711740208CONSULTING GROUP SRL          000000001500000000000000000000000000000000000000000000000000000000000000000000000000000000000000000000000000000000000000PES00010000001000000000000000000000000000000000000000000                              000000000000000
201707050010000300000000000000012199                8000000000030714344656AQUALAF SA                    000000005968366000000000000000000000000000000000000000000000000000000000000000000000000000000000000000000000000000000000PES00010000001000000000000000000000000000000000000000000                              000000000000000
201707100010000300000000000000012245                8000000000030714344656AQUALAF SA                    000000000582615000000000000000000000000000000000000000000000000000000000000000000000000000000000000000000000000000000000PES00010000001000000000000000000000000000000000000000000                              000000000000000
201707050010000500000000000000001425                8000000000030607769415NOMASGOT SRL                  000000002572719000000000000000000000000000000000000000000000000000000000000000000000000000000000000000000000000000000000PES00010000001000000000000000000000000000000000000000000                              000000000000000
201707030010001500000000000000004176                8000000000030709857335ESPEJOS REFLEJAR SA           000000000953860000000000000000000000000000000000000000000000000000000000000000000000000000000000000000000000000000000000PES00010000001000000000000000000000000000000000000000000                              000000000000000
201706290010000900000000000000367297                8000000000030707297154FERRETERA GENERAL PAZ SRL     000000002689963000000000000000000000000000000000000000000000000000000000000000000000000000000000000000000000000000000000PES00010000001000000000000000000000000000000000000000000                              000000000000000
201706230010000400000000000000037458                8000000000030707716971BAMBIN SA                     000000000309633000000000000000000000000000000000000000000000000000000000000000000000000000000000000000000000000000000000PES00010000001000000000000000000000000000000000000000000                              000000000000000
201706220010001100000000000000080454                8000000000030639201232AD BARBIERI SA                000000002431419000000000000000000000000000000000000000000000000000000000000000000000000000000000000000000000000000000000PES00010000001000000000000000000000000000000000000000000                              000000000000000
201706220010001100000000000000080455                8000000000030639201232AD BARBIERI SA                000000002578251000000000000000000000000000000000000000000000000000000000000000000000000000000000000000000000000000000000PES00010000001000000000000000000000000000000000000000000                              000000000000000
201706220010001100000000000000080456                8000000000030639201232AD BARBIERI SA                000000000556968000000000000000000000000000000000000000000000000000000000000000000000000000000000000000000000000000000000PES00010000002000000000000000000000000000000000000000000                              000000000000000
201706220010001100000000001111180456                8000000000030639201232AD BARBIERI SA                000000000789983000000000000000000000000000000000000000000000000000000000000000000000000000000000000000000000000000000000PES00010000001000000000000000000000000000000000000000000                              000000000000000
201706220010001100000000000000080457                8000000000030639201232AD BARBIERI SA                000000028160924000000000000000000000000000000000000000000000000000000000000000000000000000000000000000000000000000000000PES00010000001000000000000000000000000000000000000000000                              000000000000000
201706130010000500000000000000003054                8000000000030586321389VICENTE ALBORS SA             000000006722131000000000000000000000000000000000000000000000000000000000000000000000000000000000000000000000000000000000PES00010000001000000000000000000000000000000000000000000                              000000000000000
