201706010010000700000000000000003413000000000000000034138000000000030709688762Alcala SA                     000000000004005000000000000000000000000000000000000000000000000000000000000000000000000000000000000000000000000000000000PES00010000001000000000000000020170601
201706010010000700000000000000003414000000000000000034148000000000030652910234Zacarias Pejinakis SRL        000000000182755000000000000000000000000000000000000000000000000000000000000000000000000000000000000000000000000000000000PES00010000001000000000000000020170601
201706010010000700000000000000003415000000000000000034158000000000020122204074Bassani Carlos Enrique        000000000135052000000000000000000000000000000000000000000000000000000000000000000000000000000000000000000000000000000000PES00010000001000000000000000020170601
201706010010000700000000000000003416000000000000000034168000000000030638110748Dal Borgo Construcciones      000000000079503000000000000000000000000000000000000000000000000000000000000000000000000000000000000000000000000000000000PES00010000001000000000000000020170601
201706010010000700000000000000003417000000000000000034178000000000030707554548Mapa S.R.L                    000000001250138000000000000000000000000000000000000000000000000000000000000000000000000000000000000000000000000000000000PES00010000001000000000000000020170601
201706010010000700000000000000003418000000000000000034188000000000030710586140AG  Emprendimientos SRL       000000000037485000000000000000000000000000000000000000000000000000000000000000000000000000000000000000000000000000000000PES00010000001000000000000000020170601
201706010010000700000000000000003419000000000000000034198000000000030710087098Aytcmm SRL                    000000000016000000000000000000000000000000000000000000000000000000000000000000000000000000000000000000000000000000000000PES00010000001000000000000000020170601
201706010010000700000000000000003420000000000000000034208000000000020143030300Gamarra Raul Antonio          000000001223404000000000000000000000000000000000000000000000000000000000000000000000000000000000000000000000000000000000PES00010000001000000000000000020170601
201706010010000700000000000000003421000000000000000034218000000000030687310434INC. S. A                     000000000008568000000000000000000000000000000000000000000000000000000000000000000000000000000000000000000000000000000000PES00010000001000000000000000020170601
201706010010000700000000000000003422000000000000000034228000000000030500143297Automovil Club Argentino      000000000048874000000000000000000000000000000000000000000000000000000000000000000000000000000000000000000000000000000000PES00010000001000000000000000020170601
201706010010000700000000000000003423000000000000000034238000000000030710586140AG  Emprendimientos SRL       000000000072081000000000000000000000000000000000000000000000000000000000000000000000000000000000000000000000000000000000PES00010000001000000000000000020170601
201706010010000700000000000000003424000000000000000034248000000000020216345968Limpias Gustavo               000000000032001000000000000000000000000000000000000000000000000000000000000000000000000000000000000000000000000000000000PES00010000001000000000000000020170601
201706010060000700000000000000001086000000000000000010868000000000030711299064Parroquia Maria Reina         000000000076156000000000000000000000000000000000000000000000000000000000000000000000000000000000000000000000000000000000PES00010000001000000000000000020170601
201706010060000700000000000000001087000000000000000010878000000000030681271925Partido Renovador de Salt     000000000010051000000000000000000000000000000000000000000000000000000000000000000000000000000000000000000000000000000000PES00010000001000000000000000020170601
201706010060000700000000000000001088000000000000000010888000000000030656747834Municipalidad de San Lore     000000000080002000000000000000000000000000000000000000000000000000000000000000000000000000000000000000000000000000000000PES00010000001000000000000000020170601
201706010060000700000000000000001089000000000000000010898000000000030656747834Municipalidad de San Lore     000000000108135000000000000000000000000000000000000000000000000000000000000000000000000000000000000000000000000000000000PES00010000001000000000000000020170601
201706010060000700000000000000001090000000000000000010908000000000030656747834Municipalidad de San Lore     000000000032001000000000000000000000000000000000000000000000000000000000000000000000000000000000000000000000000000000000PES00010000001000000000000000020170601
201706010060000700000000000000001091000000000000000010918000000000030656747834Municipalidad de San Lore     000000000120393000000000000000000000000000000000000000000000000000000000000000000000000000000000000000000000000000000000PES00010000001000000000000000020170601
201706010060000700000000000000001092000000000000000010928000000000030656747834Municipalidad de San Lore     000000000483266000000000000000000000000000000000000000000000000000000000000000000000000000000000000000000000000000000000PES00010000001000000000000000020170601
201706010060000700000000000000001093000000000000000010938000000000030656747834Municipalidad de San Lore     000000000089460000000000000000000000000000000000000000000000000000000000000000000000000000000000000000000000000000000000PES00010000001000000000000000020170601
201706010060000700000000000000001094000000000000000010948000000000030656747834Municipalidad de San Lore     000000000211770000000000000000000000000000000000000000000000000000000000000000000000000000000000000000000000000000000000PES00010000001000000000000000020170601
201706010060000700000000000000001095000000000000000010958000000000030656747834Municipalidad de San Lore     000000000067770000000000000000000000000000000000000000000000000000000000000000000000000000000000000000000000000000000000PES00010000001000000000000000020170601
201706010060000700000000000000001096000000000000000010968000000000030656747834Municipalidad de San Lore     000000002034180000000000000000000000000000000000000000000000000000000000000000000000000000000000000000000000000000000000PES00010000001000000000000000020170601
201706010060000700000000000000001097000000000000000010978000000000030656747834Municipalidad de San Lore     000000000269316000000000000000000000000000000000000000000000000000000000000000000000000000000000000000000000000000000000PES00010000001000000000000000020170601
201706010060000700000000000000001098000000000000000010988000000000030656747834Municipalidad de San Lore     000000000080795000000000000000000000000000000000000000000000000000000000000000000000000000000000000000000000000000000000PES00010000001000000000000000020170601
201706010060000700000000000000001099000000000000000010998000000000030656747834Municipalidad de San Lore     000000000032001000000000000000000000000000000000000000000000000000000000000000000000000000000000000000000000000000000000PES00010000001000000000000000020170601
201706010060000700000000000000001100000000000000000011008000000000030656747834Municipalidad de San Lore     000000000029700000000000000000000000000000000000000000000000000000000000000000000000000000000000000000000000000000000000PES00010000001000000000000000020170601
201706010060000700000000000000001101000000000000000011018000000000030656747834Municipalidad de San Lore     000000000344160000000000000000000000000000000000000000000000000000000000000000000000000000000000000000000000000000000000PES00010000001000000000000000020170601
201706010060000700000000000000001102000000000000000011028000000000030656747834Municipalidad de San Lore     000000000323435000000000000000000000000000000000000000000000000000000000000000000000000000000000000000000000000000000000PES00010000001000000000000000020170601
201706010060000700000000000000001103000000000000000011038000000000030656747834Municipalidad de San Lore     000000000128003000000000000000000000000000000000000000000000000000000000000000000000000000000000000000000000000000000000PES00010000001000000000000000020170601
201706010060000700000000000000001104000000000000000011048000000000030656747834Municipalidad de San Lore     000000000075690000000000000000000000000000000000000000000000000000000000000000000000000000000000000000000000000000000000PES00010000001000000000000000020170601
201706010060000700000000000000001105000000000000000011058000000000030656747834Municipalidad de San Lore     000000000131760000000000000000000000000000000000000000000000000000000000000000000000000000000000000000000000000000000000PES00010000001000000000000000020170601
201706010060000700000000000000001106000000000000000011068000000000030656747834Municipalidad de San Lore     000000000145485000000000000000000000000000000000000000000000000000000000000000000000000000000000000000000000000000000000PES00010000001000000000000000020170601
201706010060000700000000000000001107000000000000000011078000000000030656747834Municipalidad de San Lore     000000000095220000000000000000000000000000000000000000000000000000000000000000000000000000000000000000000000000000000000PES00010000001000000000000000020170601
201706010060000700000000000000001108000000000000000011088000000000030656747834Municipalidad de San Lore     000000000800020000000000000000000000000000000000000000000000000000000000000000000000000000000000000000000000000000000000PES00010000001000000000000000020170601
201706010060000700000000000000001109000000000000000011098000000000030656747834Municipalidad de San Lore     000000000335475000000000000000000000000000000000000000000000000000000000000000000000000000000000000000000000000000000000PES00010000001000000000000000020170601
201706010060000700000000000000001110000000000000000011108000000000030656747834Municipalidad de San Lore     000000000036202000000000000000000000000000000000000000000000000000000000000000000000000000000000000000000000000000000000PES00010000001000000000000000020170601
201706010060000700000000000000001111000000000000000011118000000000030656747834Municipalidad de San Lore     000000000430200000000000000000000000000000000000000000000000000000000000000000000000000000000000000000000000000000000000PES00010000001000000000000000020170601
201706010060000700000000000000001112000000000000000011128000000000030656747834Municipalidad de San Lore     000000000080002000000000000000000000000000000000000000000000000000000000000000000000000000000000000000000000000000000000PES00010000001000000000000000020170601
201706010060000700000000000000001113000000000000000011138000000000030656747834Municipalidad de San Lore     000000000136562000000000000000000000000000000000000000000000000000000000000000000000000000000000000000000000000000000000PES00010000001000000000000000020170601
201706010060000700000000000000001114000000000000000011148000000000030656747834Municipalidad de San Lore     000000000252315000000000000000000000000000000000000000000000000000000000000000000000000000000000000000000000000000000000PES00010000001000000000000000020170601
201706010060000700000000000000001115000000000000000011158000000000030656747834Municipalidad de San Lore     000000000097650000000000000000000000000000000000000000000000000000000000000000000000000000000000000000000000000000000000PES00010000001000000000000000020170601
201706010060000700000000000000001116000000000000000011168000000000030656747834Municipalidad de San Lore     000000000038200000000000000000000000000000000000000000000000000000000000000000000000000000000000000000000000000000000000PES00010000001000000000000000020170601
201706010060000700000000000000001117000000000000000011178000000000030656747834Municipalidad de San Lore     000000000160004000000000000000000000000000000000000000000000000000000000000000000000000000000000000000000000000000000000PES00010000001000000000000000020170601
201706010060000700000000000000001118000000000000000011188000000000030656747834Municipalidad de San Lore     000000000636246000000000000000000000000000000000000000000000000000000000000000000000000000000000000000000000000000000000PES00010000001000000000000000020170601
201706010060000700000000000000001119000000000000000011198000000000030656747834Municipalidad de San Lore     000000000048001000000000000000000000000000000000000000000000000000000000000000000000000000000000000000000000000000000000PES00010000001000000000000000020170601
201706010060000700000000000000001120000000000000000011208000000000030656747834Municipalidad de San Lore     000000001360034000000000000000000000000000000000000000000000000000000000000000000000000000000000000000000000000000000000PES00010000001000000000000000020170601
201706010060000700000000000000001121000000000000000011218000000000030656747834Municipalidad de San Lore     000000000240006000000000000000000000000000000000000000000000000000000000000000000000000000000000000000000000000000000000PES00010000001000000000000000020170601
201706010060000700000000000000001122000000000000000011228000000000030656747834Municipalidad de San Lore     000000000080002000000000000000000000000000000000000000000000000000000000000000000000000000000000000000000000000000000000PES00010000001000000000000000020170601
201706010060000700000000000000001123000000000000000011238000000000030656747834Municipalidad de San Lore     000000000102330000000000000000000000000000000000000000000000000000000000000000000000000000000000000000000000000000000000PES00010000001000000000000000020170601
201706010060000400000000000000001483000000000000000014838000000000020000000001Consumidor Final              000000000704602000000000000000000000000000000000000000000000000000000000000000000000000000000000000000000000000000000000PES00010000001000000000000000020170601
201706020010000700000000000000003425000000000000000034258000000000020144533284Quinteros Horacio             000000000442170000000000000000000000000000000000000000000000000000000000000000000000000000000000000000000000000000000000PES00010000001000000000000000020170602
201706020010000700000000000000003426000000000000000034268000000000030616928828Vidmar SRL                    000000000007583000000000000000000000000000000000000000000000000000000000000000000000000000000000000000000000000000000000PES00010000001000000000000000020170602
201706020010000700000000000000003427000000000000000034278000000000030714549630Terranova Construcciones      000000000010541000000000000000000000000000000000000000000000000000000000000000000000000000000000000000000000000000000000PES00010000001000000000000000020170602
201706020010000700000000000000003428000000000000000034288000000000020162972147Chuquisaca Victor             000000000015989000000000000000000000000000000000000000000000000000000000000000000000000000000000000000000000000000000000PES00010000001000000000000000020170602
201706020010000700000000000000003429000000000000000034298000000000030710586140AG  Emprendimientos SRL       000000000028050000000000000000000000000000000000000000000000000000000000000000000000000000000000000000000000000000000000PES00010000001000000000000000020170602
201706020010000700000000000000003430000000000000000034308000000000030690674641Nivel Seguros SA              000000000010988000000000000000000000000000000000000000000000000000000000000000000000000000000000000000000000000000000000PES00010000001000000000000000020170602
201706020010000700000000000000003431000000000000000034318000000000020162972147Chuquisaca Victor             000000000029018000000000000000000000000000000000000000000000000000000000000000000000000000000000000000000000000000000000PES00010000001000000000000000020170602
201706020010000700000000000000003432000000000000000034328000000000030715381938Proyectos Pastos Grandes      000000000086530000000000000000000000000000000000000000000000000000000000000000000000000000000000000000000000000000000000PES00010000001000000000000000020170602
201706020010000700000000000000003433000000000000000034338000000000020137362652Martinez Bejar Daniel         000000000010079000000000000000000000000000000000000000000000000000000000000000000000000000000000000000000000000000000000PES00010000001000000000000000020170602
201706020010000700000000000000003434000000000000000034348000000000030710078099A y T Comm SRL                000000000071251000000000000000000000000000000000000000000000000000000000000000000000000000000000000000000000000000000000PES00010000001000000000000000020170602
201706020010000700000000000000003435000000000000000034358000000000030708362901Alexandra S.R.L               000000000040006000000000000000000000000000000000000000000000000000000000000000000000000000000000000000000000000000000000PES00010000001000000000000000020170602
201706020010000700000000000000003436000000000000000034368000000000020100051665Solaligue Nestor Juan         000000000143950000000000000000000000000000000000000000000000000000000000000000000000000000000000000000000000000000000000PES00010000001000000000000000020170602
201706020060000700000000000000001124000000000000000011248000000000030656747834Municipalidad de San Lore     000000000234000000000000000000000000000000000000000000000000000000000000000000000000000000000000000000000000000000000000PES00010000001000000000000000020170602
201706020060000700000000000000001125000000000000000011258000000000030656747834Municipalidad de San Lore     000000000180000000000000000000000000000000000000000000000000000000000000000000000000000000000000000000000000000000000000PES00010000001000000000000000020170602
201706020060000700000000000000001126000000000000000011268000000000030656747834Municipalidad de San Lore     000000000064002000000000000000000000000000000000000000000000000000000000000000000000000000000000000000000000000000000000PES00010000001000000000000000020170602
201706020060000700000000000000001127000000000000000011278000000000030712511709Comunidad Diguita San Mig     000000000007605000000000000000000000000000000000000000000000000000000000000000000000000000000000000000000000000000000000PES00010000001000000000000000020170602
201706020060000700000000000000001128000000000000000011288000000000030681271925Partido Renovador de Salt     000000000004085000000000000000000000000000000000000000000000000000000000000000000000000000000000000000000000000000000000PES00010000001000000000000000020170602
201706020060000700000000000000001129000000000000000011298000000000030711299064Parroquia Maria Reina         000000000150023000000000000000000000000000000000000000000000000000000000000000000000000000000000000000000000000000000000PES00010000001000000000000000020170602
201706020060000400000000000000001484000000000000000014848000000000020000000001Consumidor Final              000000001333771000000000000000000000000000000000000000000000000000000000000000000000000000000000000000000000000000000000PES00010000001000000000000000020170602
201706030010000700000000000000003437000000000000000034378000000000020250691719Nisiche Juan                  000000000061624000000000000000000000000000000000000000000000000000000000000000000000000000000000000000000000000000000000PES00010000001000000000000000020170603
201706030010000700000000000000003438000000000000000034388000000000020054090928Albistro Angel Benjamin       000000008157257000000000000000000000000000000000000000000000000000000000000000000000000000000000000000000000000000000000PES00010000001000000000000000020170603
201706030010000700000000000000003439000000000000000034398000000000030711901880Norlens SRL                   000000000012009000000000000000000000000000000000000000000000000000000000000000000000000000000000000000000000000000000000PES00010000001000000000000000020170603
201706030010000700000000000000003440000000000000000034408000000000030711781761Condominio Assonov            000000000068053000000000000000000000000000000000000000000000000000000000000000000000000000000000000000000000000000000000PES00010000001000000000000000020170603
201706030010000700000000000000003441000000000000000034418000000000027206095844Lozada Claudia Isabel         000000000972989000000000000000000000000000000000000000000000000000000000000000000000000000000000000000000000000000000000PES00010000001000000000000000020170603
201706030010000700000000000000003442000000000000000034428000000000030711901880Norlens SRL                   000000000005005000000000000000000000000000000000000000000000000000000000000000000000000000000000000000000000000000000000PES00010000001000000000000000020170603
201706030010000700000000000000003443000000000000000034438000000000027206095844Lozada Claudia Isabel         000000001203496000000000000000000000000000000000000000000000000000000000000000000000000000000000000000000000000000000000PES00010000001000000000000000020170603
201706030010000700000000000000003444000000000000000034448000000000020249689131Nanni Pablo Nicolas           000000000093002000000000000000000000000000000000000000000000000000000000000000000000000000000000000000000000000000000000PES00010000001000000000000000020170603
201706030060000700000000000000001130000000000000000011308000000000020000000001Consumidor Final              000000000495450000000000000000000000000000000000000000000000000000000000000000000000000000000000000000000000000000000000PES00010000001000000000000000020170603
201706030060000400000000000000001485000000000000000014858000000000020000000001Consumidor Final              000000000709101000000000000000000000000000000000000000000000000000000000000000000000000000000000000000000000000000000000PES00010000001000000000000000020170603
201706050010000700000000000000003445000000000000000034458000000000020144533284Quinteros Horacio             000000000337451000000000000000000000000000000000000000000000000000000000000000000000000000000000000000000000000000000000PES00010000001000000000000000020170605
201706050010000700000000000000003446000000000000000034468000000000030715193082Q Seguridad                   000000000016001000000000000000000000000000000000000000000000000000000000000000000000000000000000000000000000000000000000PES00010000001000000000000000020170605
201706050010000700000000000000003447000000000000000034478000000000030681267006Sol del Valle Srl             000000000061805000000000000000000000000000000000000000000000000000000000000000000000000000000000000000000000000000000000PES00010000001000000000000000020170605
201706050010000700000000000000003448000000000000000034488000000000030710586140AG  Emprendimientos SRL       000000000025062000000000000000000000000000000000000000000000000000000000000000000000000000000000000000000000000000000000PES00010000001000000000000000020170605
201706050010000700000000000000003449000000000000000034498000000000020162972147Chuquisaca Victor             000000000012410000000000000000000000000000000000000000000000000000000000000000000000000000000000000000000000000000000000PES00010000001000000000000000020170605
201706050010000700000000000000003450000000000000000034508000000000030711578761Soa SRL                       000000000019803000000000000000000000000000000000000000000000000000000000000000000000000000000000000000000000000000000000PES00010000001000000000000000020170605
201706050010000700000000000000003451000000000000000034518000000000023237491149Haddad Juan Sebastian         000000000225079000000000000000000000000000000000000000000000000000000000000000000000000000000000000000000000000000000000PES00010000001000000000000000020170605
201706050010000700000000000000003452000000000000000034528000000000020144895690Morillo Antonio Ramon         000000000022010000000000000000000000000000000000000000000000000000000000000000000000000000000000000000000000000000000000PES00010000001000000000000000020170605
201706050010000700000000000000003453000000000000000034538000000000030710398980Horacio Bielli Div. Empre     000000000032001000000000000000000000000000000000000000000000000000000000000000000000000000000000000000000000000000000000PES00010000001000000000000000020170605
201706050010000700000000000000003454000000000000000034548000000000030501522496Vicente Moncho Construcci     000000058300999000000000000000000000000000000000000000000000000000000000000000000000000000000000000000000000000000000000PES00010000001000000000000000020170605
201706050010000700000000000000003455000000000000000034558000000000030679839191Concordia Construcciones      000000000007575000000000000000000000000000000000000000000000000000000000000000000000000000000000000000000000000000000000PES00010000001000000000000000020170605
201706050010000700000000000000003456000000000000000034568000000000020203999519Delta Computacion             000000000021585000000000000000000000000000000000000000000000000000000000000000000000000000000000000000000000000000000000PES00010000001000000000000000020170605
201706050060000700000000000000001131000000000000000011318000000000030708942088Centro vecinal 20 de febr     000000000080032000000000000000000000000000000000000000000000000000000000000000000000000000000000000000000000000000000000PES00010000001000000000000000020170605
201706050060000400000000000000001486000000000000000014868000000000020000000001Consumidor Final              000000000901400000000000000000000000000000000000000000000000000000000000000000000000000000000000000000000000000000000000PES00010000001000000000000000020170605
201706060010000700000000000000003457000000000000000034578000000000020144533284Quinteros Horacio             000000000431511000000000000000000000000000000000000000000000000000000000000000000000000000000000000000000000000000000000PES00010000001000000000000000020170606
201706060010000700000000000000003458000000000000000034588000000000020081684309Lecuona de Pratt Martin       000000000070126000000000000000000000000000000000000000000000000000000000000000000000000000000000000000000000000000000000PES00010000001000000000000000020170606
201706060010000700000000000000003459000000000000000034598000000000030679839191Concordia Construcciones      000000000017049000000000000000000000000000000000000000000000000000000000000000000000000000000000000000000000000000000000PES00010000001000000000000000020170606
201706060010000700000000000000003460000000000000000034608000000000030710087098Aytcmm SRL                    000000000118701000000000000000000000000000000000000000000000000000000000000000000000000000000000000000000000000000000000PES00010000001000000000000000020170606
201706060010000700000000000000003461000000000000000034618000000000030710087098Aytcmm SRL                    000000000013005000000000000000000000000000000000000000000000000000000000000000000000000000000000000000000000000000000000PES00010000001000000000000000020170606
201706060010000700000000000000003462000000000000000034628000000000020119442584Alfarano Jose Mario           000000000155482000000000000000000000000000000000000000000000000000000000000000000000000000000000000000000000000000000000PES00010000001000000000000000020170606
201706060010000700000000000000003463000000000000000034638000000000030686684845Salvador Scrosoppi SRL        000000000040006000000000000000000000000000000000000000000000000000000000000000000000000000000000000000000000000000000000PES00010000001000000000000000020170606
201706060010000700000000000000003464000000000000000034648000000000030652910234Zacarias Pejinakis SRL        000000000019976000000000000000000000000000000000000000000000000000000000000000000000000000000000000000000000000000000000PES00010000001000000000000000020170606
201706060010000700000000000000003465000000000000000034658000000000030711383693Grinfil SRL                   000000000067041000000000000000000000000000000000000000000000000000000000000000000000000000000000000000000000000000000000PES00010000001000000000000000020170606
201706060010000700000000000000003466000000000000000034668000000000030708772964Jumbo Retail Argentina SA     000000000009096000000000000000000000000000000000000000000000000000000000000000000000000000000000000000000000000000000000PES00010000001000000000000000020170606
201706060010000700000000000000003467000000000000000034678000000000030697149577Beta SRL                      000000000007998000000000000000000000000000000000000000000000000000000000000000000000000000000000000000000000000000000000PES00010000001000000000000000020170606
201706060060000700000000000000001132000000000000000011328000000000020000000001Consumidor Final              000000000002885000000000000000000000000000000000000000000000000000000000000000000000000000000000000000000000000000000000PES00010000001000000000000000020170606
201706060060000700000000000000001133000000000000000011338000000000030709620394Fundacion I M C E J Y S A     000000000159018000000000000000000000000000000000000000000000000000000000000000000000000000000000000000000000000000000000PES00010000001000000000000000020170606
201706060060000700000000000000001134000000000000000011348000000000030673124816Aero Club Salta               000000000376516000000000000000000000000000000000000000000000000000000000000000000000000000000000000000000000000000000000PES00010000001000000000000000020170606
201706060060000700000000000000001135000000000000000011358000000000020000000001Consumidor Final              000000000450048000000000000000000000000000000000000000000000000000000000000000000000000000000000000000000000000000000000PES00010000001000000000000000020170606
201706060060000400000000000000001487000000000000000014878000000000020000000001Consumidor Final              000000000645300000000000000000000000000000000000000000000000000000000000000000000000000000000000000000000000000000000000PES00010000001000000000000000020170606
201706070010000700000000000000003468000000000000000034688000000000030708362901Alexandra S.R.L               000000000014113000000000000000000000000000000000000000000000000000000000000000000000000000000000000000000000000000000000PES00010000001000000000000000020170607
201706070010000700000000000000003469000000000000000034698000000000030711920575J I I SRL                     000000000048306000000000000000000000000000000000000000000000000000000000000000000000000000000000000000000000000000000000PES00010000001000000000000000020170607
201706070010000700000000000000003470000000000000000034708000000000030709692891Compac SRL                    000000000067201000000000000000000000000000000000000000000000000000000000000000000000000000000000000000000000000000000000PES00010000001000000000000000020170607
201706070010000700000000000000003471000000000000000034718000000000020203999519Delta Computacion             000000000022081000000000000000000000000000000000000000000000000000000000000000000000000000000000000000000000000000000000PES00010000001000000000000000020170607
201706070010000700000000000000003472000000000000000034728000000000020144533284Quinteros Horacio             000000000243881000000000000000000000000000000000000000000000000000000000000000000000000000000000000000000000000000000000PES00010000001000000000000000020170607
201706070010000700000000000000003473000000000000000034738000000000030707554548Mapa S.R.L                    000000001628187000000000000000000000000000000000000000000000000000000000000000000000000000000000000000000000000000000000PES00010000001000000000000000020170607
201706070010000700000000000000003474000000000000000034748000000000027243389483Miranda Paola                 000000000007012000000000000000000000000000000000000000000000000000000000000000000000000000000000000000000000000000000000PES00010000001000000000000000020170607
201706070010000700000000000000003475000000000000000034758000000000023237491149Haddad Juan Sebastian         000000000060028000000000000000000000000000000000000000000000000000000000000000000000000000000000000000000000000000000000PES00010000001000000000000000020170607
201706070010000700000000000000003476000000000000000034768000000000033711568749Hoteles del Norte SRL         000000000003307000000000000000000000000000000000000000000000000000000000000000000000000000000000000000000000000000000000PES00010000001000000000000000020170607
201706070010000700000000000000003477000000000000000034778000000000030710087098Aytcmm SRL                    000000000044711000000000000000000000000000000000000000000000000000000000000000000000000000000000000000000000000000000000PES00010000001000000000000000020170607
201706070010000700000000000000003478000000000000000034788000000000020137451922Garin Juan Pedro              000000000047089000000000000000000000000000000000000000000000000000000000000000000000000000000000000000000000000000000000PES00010000001000000000000000020170607
201706070010000700000000000000003479000000000000000034798000000000020249689131Nanni Pablo Nicolas           000000000019550000000000000000000000000000000000000000000000000000000000000000000000000000000000000000000000000000000000PES00010000001000000000000000020170607
201706070060000700000000000000001136000000000000000011368000000000030715126628Ministerio de Asuntos Ind     000000000006089000000000000000000000000000000000000000000000000000000000000000000000000000000000000000000000000000000000PES00010000001000000000000000020170607
201706070060000700000000000000001137000000000000000011378000000000020000000001Consumidor Final              000000000280575000000000000000000000000000000000000000000000000000000000000000000000000000000000000000000000000000000000PES00010000001000000000000000020170607
201706070060000700000000000000001138000000000000000011388000000000020000000001Consumidor Final              000000000168002000000000000000000000000000000000000000000000000000000000000000000000000000000000000000000000000000000000PES00010000001000000000000000020170607
201706070030000700000000000000000041000000000000000000418000000000030709296899Compac SRL                    000000000067201000000000000000000000000000000000000000000000000000000000000000000000000000000000000000000000000000000000PES00010000001000000000000000020170607
201706070060000400000000000000001488000000000000000014888000000000020000000001Consumidor Final              000000000679801000000000000000000000000000000000000000000000000000000000000000000000000000000000000000000000000000000000PES00010000001000000000000000020170607
201706080010000700000000000000003480000000000000000034808000000000030709688762Alcala SA                     000000000011507000000000000000000000000000000000000000000000000000000000000000000000000000000000000000000000000000000000PES00010000001000000000000000020170608
201706080010000700000000000000003481000000000000000034818000000000030710586140A G Emprendimientos SRL       000000000028475000000000000000000000000000000000000000000000000000000000000000000000000000000000000000000000000000000000PES00010000001000000000000000020170608
201706080010000700000000000000003482000000000000000034828000000000020104935738Sarapura Jorge Ramon          000000000037950000000000000000000000000000000000000000000000000000000000000000000000000000000000000000000000000000000000PES00010000001000000000000000020170608
201706080010000700000000000000003483000000000000000034838000000000020144533284Quinteros Horacio             000000000049015000000000000000000000000000000000000000000000000000000000000000000000000000000000000000000000000000000000PES00010000001000000000000000020170608
201706080010000700000000000000003484000000000000000034848000000000030500143297Automovil Club Argentino      000000000035120000000000000000000000000000000000000000000000000000000000000000000000000000000000000000000000000000000000PES00010000001000000000000000020170608
201706080010000700000000000000003485000000000000000034858000000000020177914895Molina Oscar                  000000000370003000000000000000000000000000000000000000000000000000000000000000000000000000000000000000000000000000000000PES00010000001000000000000000020170608
201706080010000700000000000000003486000000000000000034868000000000030714549630Terranova Construcciones      000000000050400000000000000000000000000000000000000000000000000000000000000000000000000000000000000000000000000000000000PES00010000001000000000000000020170608
201706080010000700000000000000003487000000000000000034878000000000030708362901Alexandra S.R.L               000000000010085000000000000000000000000000000000000000000000000000000000000000000000000000000000000000000000000000000000PES00010000001000000000000000020170608
201706080010000700000000000000003488000000000000000034888000000000020203999519Delta Computacion             000000000046524000000000000000000000000000000000000000000000000000000000000000000000000000000000000000000000000000000000PES00010000001000000000000000020170608
201706080010000700000000000000003489000000000000000034898000000000030711939675Ikba SA                       000000000027501000000000000000000000000000000000000000000000000000000000000000000000000000000000000000000000000000000000PES00010000001000000000000000020170608
201706080010000700000000000000003490000000000000000034908000000000020119442584Alfarano Jose Mario           000000000131177000000000000000000000000000000000000000000000000000000000000000000000000000000000000000000000000000000000PES00010000001000000000000000020170608
201706080010000700000000000000003491000000000000000034918000000000030585579544Sanatorio Parque s.a          000000000883646000000000000000000000000000000000000000000000000000000000000000000000000000000000000000000000000000000000PES00010000001000000000000000020170608
201706080010000700000000000000003492000000000000000034928000000000030585579544Sanatorio Parque s.a          000000000633902000000000000000000000000000000000000000000000000000000000000000000000000000000000000000000000000000000000PES00010000001000000000000000020170608
201706080010000700000000000000003493000000000000000034938000000000030712200606Luis Saldeno Publicidad S     000000000021966000000000000000000000000000000000000000000000000000000000000000000000000000000000000000000000000000000000PES00010000001000000000000000020170608
201706080010000700000000000000003494000000000000000034948000000000030585579544Sanatorio Parque s.a          000000000806741000000000000000000000000000000000000000000000000000000000000000000000000000000000000000000000000000000000PES00010000001000000000000000020170608
201706080010000700000000000000003495000000000000000034958000000000030585579544Sanatorio Parque s.a          000000000442948000000000000000000000000000000000000000000000000000000000000000000000000000000000000000000000000000000000PES00010000001000000000000000020170608
201706080010000700000000000000003496000000000000000034968000000000030710586140AG  Emprendimientos SRL       000000000023715000000000000000000000000000000000000000000000000000000000000000000000000000000000000000000000000000000000PES00010000001000000000000000020170608
201706080010000700000000000000003497000000000000000034978000000000030585579544Sanatorio Parque s.a          000000000235200000000000000000000000000000000000000000000000000000000000000000000000000000000000000000000000000000000000PES00010000001000000000000000020170608
201706080010000700000000000000003498000000000000000034988000000000020203999519Delta Computacion             000000000056025000000000000000000000000000000000000000000000000000000000000000000000000000000000000000000000000000000000PES00010000001000000000000000020170608
201706080010000700000000000000003499000000000000000034998000000000030650039412Norobras Construcciones C     000000000926881000000000000000000000000000000000000000000000000000000000000000000000000000000000000000000000000000000000PES00010000001000000000000000020170608
201706080010000700000000000000003500000000000000000035008000000000030638110748Dal Borgo Construcciones      000000000097645000000000000000000000000000000000000000000000000000000000000000000000000000000000000000000000000000000000PES00010000001000000000000000020170608
201706080060000700000000000000001139000000000000000011398000000000020000000001Consumidor Final              000000000720203000000000000000000000000000000000000000000000000000000000000000000000000000000000000000000000000000000000PES00010000001000000000000000020170608
201706080060000400000000000000001489000000000000000014898000000000020000000001Consumidor Final              000000001056501000000000000000000000000000000000000000000000000000000000000000000000000000000000000000000000000000000000PES00010000001000000000000000020170608
201706090010000700000000000000003501000000000000000035018000000000020165172818Vicente Avila Diez            000000000056040000000000000000000000000000000000000000000000000000000000000000000000000000000000000000000000000000000000PES00010000001000000000000000020170609
201706090010000700000000000000003502000000000000000035028000000000030711224633Vilaz SRL                     000000000005003000000000000000000000000000000000000000000000000000000000000000000000000000000000000000000000000000000000PES00010000001000000000000000020170609
201706090010000700000000000000003503000000000000000035038000000000030500143297Automovil Club Argentino      000000000022506000000000000000000000000000000000000000000000000000000000000000000000000000000000000000000000000000000000PES00010000001000000000000000020170609
201706090010000700000000000000003504000000000000000035048000000000030712350527AGV Falcon Drilling SRL       000000001629700000000000000000000000000000000000000000000000000000000000000000000000000000000000000000000000000000000000PES00010000001000000000000000020170609
201706090010000700000000000000003505000000000000000035058000000000030712350527AGV Falcon Drilling SRL       000000000212401000000000000000000000000000000000000000000000000000000000000000000000000000000000000000000000000000000000PES00010000001000000000000000020170609
201706090010000700000000000000003506000000000000000035068000000000030712350527AGV Falcon Drilling SRL       000000002272975000000000000000000000000000000000000000000000000000000000000000000000000000000000000000000000000000000000PES00010000001000000000000000020170609
201706090010000700000000000000003507000000000000000035078000000000030711740208Consulting Group SRL          000000000028277000000000000000000000000000000000000000000000000000000000000000000000000000000000000000000000000000000000PES00010000001000000000000000020170609
201706090010000700000000000000003508000000000000000035088000000000030711603553Soluciones Tecnicas Gener     000000000009900000000000000000000000000000000000000000000000000000000000000000000000000000000000000000000000000000000000PES00010000001000000000000000020170609
201706090010000700000000000000003509000000000000000035098000000000020119442584Alfarano Jose Mario           000000000131177000000000000000000000000000000000000000000000000000000000000000000000000000000000000000000000000000000000PES00010000001000000000000000020170609
201706090060000700000000000000001140000000000000000011408000000000030999284651Policia de Salta              000000000015800000000000000000000000000000000000000000000000000000000000000000000000000000000000000000000000000000000000PES00010000001000000000000000020170609
201706090060000400000000000000001490000000000000000014908000000000020000000001Consumidor Final              000000000493001000000000000000000000000000000000000000000000000000000000000000000000000000000000000000000000000000000000PES00010000001000000000000000020170609
201706100010000700000000000000003510000000000000000035108000000000023121455374Rasero Edith                  000000000126500000000000000000000000000000000000000000000000000000000000000000000000000000000000000000000000000000000000PES00010000001000000000000000020170610
201706100010000700000000000000003511000000000000000035118000000000020081714046Binda Victorio Ricardo        000000000007000000000000000000000000000000000000000000000000000000000000000000000000000000000000000000000000000000000000PES00010000001000000000000000020170610
201706100010000700000000000000003512000000000000000035128000000000030709688762Alcala SA                     000000000044625000000000000000000000000000000000000000000000000000000000000000000000000000000000000000000000000000000000PES00010000001000000000000000020170610
201706100010000700000000000000003513000000000000000035138000000000030710586140AG  Emprendimientos SRL       000000000040080000000000000000000000000000000000000000000000000000000000000000000000000000000000000000000000000000000000PES00010000001000000000000000020170610
201706100010000700000000000000003514000000000000000035148000000000030715352733Nardini SRL                   000000000132711000000000000000000000000000000000000000000000000000000000000000000000000000000000000000000000000000000000PES00010000001000000000000000020170610
201706100010000700000000000000003515000000000000000035158000000000030500143297Automovil Club Argentino      000000000003003000000000000000000000000000000000000000000000000000000000000000000000000000000000000000000000000000000000PES00010000001000000000000000020170610
201706100010000700000000000000003516000000000000000035168000000000023121455374Rasero Edith                  000000000151949000000000000000000000000000000000000000000000000000000000000000000000000000000000000000000000000000000000PES00010000001000000000000000020170610
201706100060000700000000000000001141000000000000000011418000000000030585583533Municipalidad Ciudad de S     000000000003740000000000000000000000000000000000000000000000000000000000000000000000000000000000000000000000000000000000PES00010000001000000000000000020170610
201706100060000700000000000000001142000000000000000011428000000000030571753592Consorcio San  Bernardo       000000000031001000000000000000000000000000000000000000000000000000000000000000000000000000000000000000000000000000000000PES00010000001N00000000000000020170610
201706100060000400000000000000001491000000000000000014918000000000020000000001Consumidor Final              000000000653401000000000000000000000000000000000000000000000000000000000000000000000000000000000000000000000000000000000PES00010000001000000000000000020170610
201706120010000700000000000000003517000000000000000035178000000000030715352733Nardini SRL                   000000000061516000000000000000000000000000000000000000000000000000000000000000000000000000000000000000000000000000000000PES00010000001000000000000000020170612
201706120010000700000000000000003518000000000000000035188000000000030710586140AG  Emprendimientos SRL       000000000005100000000000000000000000000000000000000000000000000000000000000000000000000000000000000000000000000000000000PES00010000001000000000000000020170612
201706120010000700000000000000003519000000000000000035198000000000030710586140AG  Emprendimientos SRL       000000000005100000000000000000000000000000000000000000000000000000000000000000000000000000000000000000000000000000000000PES00010000001000000000000000020170612
201706120010000700000000000000003520000000000000000035208000000000030681270317Planta Revesa srl             000000019101563000000000000000000000000000000000000000000000000000000000000000000000000000000000000000000000000000000000PES00010000001000000000000000020170612
201706120010000700000000000000003521000000000000000035218000000000020144880146Lavin Guillermo               000000000015075000000000000000000000000000000000000000000000000000000000000000000000000000000000000000000000000000000000PES00010000001000000000000000020170612
201706120010000700000000000000003522000000000000000035228000000000020144880146Lavin Guillermo               000000000007050000000000000000000000000000000000000000000000000000000000000000000000000000000000000000000000000000000000PES00010000001000000000000000020170612
201706120010000700000000000000003524000000000000000035248000000000030708598360Compania Lemaco SRL           000000000926881000000000000000000000000000000000000000000000000000000000000000000000000000000000000000000000000000000000PES00010000001000000000000000020170612
201706120010000700000000000000003525000000000000000035258000000000030708598360Compania Lemaco SRL           000000000281777000000000000000000000000000000000000000000000000000000000000000000000000000000000000000000000000000000000PES00010000001000000000000000020170612
201706120010000700000000000000003526000000000000000035268000000000030711383693Grinfil SRL                   000000000060012000000000000000000000000000000000000000000000000000000000000000000000000000000000000000000000000000000000PES00010000001000000000000000020170612
201706120010000700000000000000003527000000000000000035278000000000027163074635Alvarado Claudia Susana       000000000003045000000000000000000000000000000000000000000000000000000000000000000000000000000000000000000000000000000000PES00010000001000000000000000020170612
201706120010000700000000000000003528000000000000000035288000000000030710586140AG  Emprendimientos SRL       000000000064506000000000000000000000000000000000000000000000000000000000000000000000000000000000000000000000000000000000PES00010000001000000000000000020170612
201706120030000700000000000000000042000000000000000000428000000000030650039412Norobras Construcciones C     000000000926881000000000000000000000000000000000000000000000000000000000000000000000000000000000000000000000000000000000PES00010000001000000000000000020170612
201706120060000400000000000000001492000000000000000014928000000000020000000001Consumidor Final              000000000492311000000000000000000000000000000000000000000000000000000000000000000000000000000000000000000000000000000000PES00010000001000000000000000020170612
201706130010000700000000000000003529000000000000000035298000000000020261954649Jose Martin SAAB              000000000021094000000000000000000000000000000000000000000000000000000000000000000000000000000000000000000000000000000000PES00010000001000000000000000020170613
201706130010000700000000000000003530000000000000000035308000000000030709224901Rac Construcciones SRL        000000000031564000000000000000000000000000000000000000000000000000000000000000000000000000000000000000000000000000000000PES00010000001000000000000000020170613
201706130010000700000000000000003531000000000000000035318000000000030679839191Concordia Construcciones      000000000008534000000000000000000000000000000000000000000000000000000000000000000000000000000000000000000000000000000000PES00010000001000000000000000020170613
201706130010000700000000000000003532000000000000000035328000000000030710586140AG  Emprendimientos SRL       000000000040460000000000000000000000000000000000000000000000000000000000000000000000000000000000000000000000000000000000PES00010000001000000000000000020170613
201706130010000700000000000000003533000000000000000035338000000000027254119747Saavedra Jessica              000000000273020000000000000000000000000000000000000000000000000000000000000000000000000000000000000000000000000000000000PES00010000001000000000000000020170613
201706130010000700000000000000003534000000000000000035348000000000020163082609Basso Danilo Miguel           000000000026576000000000000000000000000000000000000000000000000000000000000000000000000000000000000000000000000000000000PES00010000001000000000000000020170613
201706130010000700000000000000003535000000000000000035358000000000030711939675Ikba SA                       000000000052701000000000000000000000000000000000000000000000000000000000000000000000000000000000000000000000000000000000PES00010000001000000000000000020170613
201706130010000700000000000000003536000000000000000035368000000000030715352733Nardini SRL                   000000000061624000000000000000000000000000000000000000000000000000000000000000000000000000000000000000000000000000000000PES00010000001000000000000000020170613
201706130010000700000000000000003537000000000000000035378000000000030714652105M Collivadino y C del Mar     000000000152489000000000000000000000000000000000000000000000000000000000000000000000000000000000000000000000000000000000PES00010000001000000000000000020170613
201706130010000700000000000000003538000000000000000035388000000000030710087098Aytcmm SRL                    000000000050400000000000000000000000000000000000000000000000000000000000000000000000000000000000000000000000000000000000PES00010000001000000000000000020170613
201706130010000700000000000000003539000000000000000035398000000000030714573787Carma SRL                     000000000206008000000000000000000000000000000000000000000000000000000000000000000000000000000000000000000000000000000000PES00010000001000000000000000020170613
201706130010000700000000000000003540000000000000000035408000000000020268044591Gigantografica Salta          000000000115005000000000000000000000000000000000000000000000000000000000000000000000000000000000000000000000000000000000PES00010000001000000000000000020170613
201706130010000700000000000000003541000000000000000035418000000000030711623449Imeca SRL                     000000000045005000000000000000000000000000000000000000000000000000000000000000000000000000000000000000000000000000000000PES00010000001000000000000000020170613
201706130010000700000000000000003542000000000000000035428000000000020249689131Nanni Construcciones          000000000229544000000000000000000000000000000000000000000000000000000000000000000000000000000000000000000000000000000000PES00010000001000000000000000020170613
201706130010000700000000000000003543000000000000000035438000000000030709781037Idem SRL                      000000000165091000000000000000000000000000000000000000000000000000000000000000000000000000000000000000000000000000000000PES00010000001000000000000000020170613
201706130010000700000000000000003544000000000000000035448000000000027177920733Norma Veatris Angel           000000000012096000000000000000000000000000000000000000000000000000000000000000000000000000000000000000000000000000000000PES00010000001000000000000000020170613
201706130010000700000000000000003545000000000000000035458000000000030710398980Horacio Bielli Div. Empre     000000000020420000000000000000000000000000000000000000000000000000000000000000000000000000000000000000000000000000000000PES00010000001000000000000000020170613
201706130010000700000000000000003546000000000000000035468000000000020368030113Salvatore Enzo Maximilian     000000000006000000000000000000000000000000000000000000000000000000000000000000000000000000000000000000000000000000000000PES00010000001000000000000000020170613
201706130010000700000000000000003547000000000000000035478000000000030707474307Crew Live S.A                 000000000006801000000000000000000000000000000000000000000000000000000000000000000000000000000000000000000000000000000000PES00010000001000000000000000020170613
201706130010000700000000000000003548000000000000000035488000000000020320456402Ochoa Ariel                   000000000049492000000000000000000000000000000000000000000000000000000000000000000000000000000000000000000000000000000000PES00010000001000000000000000020170613
201706130060000700000000000000001143000000000000000011438000000000030707936904Fundacion Magister            000000000009817000000000000000000000000000000000000000000000000000000000000000000000000000000000000000000000000000000000PES00010000001000000000000000020170613
201706130060000700000000000000001144000000000000000011448000000000030681271925Partido Renovador de Salt     000000000006055000000000000000000000000000000000000000000000000000000000000000000000000000000000000000000000000000000000PES00010000001000000000000000020170613
201706130060000700000000000000001145000000000000000011458000000000020000000001Consumidor Final              000000000554531000000000000000000000000000000000000000000000000000000000000000000000000000000000000000000000000000000000PES00010000001000000000000000020170613
201706130060000400000000000000001493000000000000000014938000000000020000000001Consumidor Final              000000001249602000000000000000000000000000000000000000000000000000000000000000000000000000000000000000000000000000000000PES00010000001000000000000000020170613
201706140010000700000000000000003549000000000000000035498000000000030711372705Garin Juan Pedro Construc     000000000015003000000000000000000000000000000000000000000000000000000000000000000000000000000000000000000000000000000000PES00010000001000000000000000020170614
201706140010000700000000000000003550000000000000000035508000000000023226378189Ricardo Adolfo Aviles         000000000220917000000000000000000000000000000000000000000000000000000000000000000000000000000000000000000000000000000000PES00010000001000000000000000020170614
201706140010000700000000000000003551000000000000000035518000000000020163082609Basso Danilo Miguel           000000000009075000000000000000000000000000000000000000000000000000000000000000000000000000000000000000000000000000000000PES00010000001000000000000000020170614
201706140010000700000000000000003552000000000000000035528000000000030707138250Emprender SA                  000000000016801000000000000000000000000000000000000000000000000000000000000000000000000000000000000000000000000000000000PES00010000001000000000000000020170614
201706140010000700000000000000003553000000000000000035538000000000020177913481Pastrana  Strizich            000000000021021000000000000000000000000000000000000000000000000000000000000000000000000000000000000000000000000000000000PES00010000001000000000000000020170614
201706140010000700000000000000003554000000000000000035548000000000020122204074Bassani Carlos Enrique        000000000168002000000000000000000000000000000000000000000000000000000000000000000000000000000000000000000000000000000000PES00010000001000000000000000020170614
201706140010000700000000000000003555000000000000000035558000000000020112838512Saravia Olmos Hugo            000000000465509000000000000000000000000000000000000000000000000000000000000000000000000000000000000000000000000000000000PES00010000001000000000000000020170614
201706140010000700000000000000003556000000000000000035568000000000030710322402Emprender Noa SRL             000000000017000000000000000000000000000000000000000000000000000000000000000000000000000000000000000000000000000000000000PES00010000001000000000000000020170614
201706140060000700000000000000001147000000000000000011478000000000030999284651Policia de Salta              000000000007004000000000000000000000000000000000000000000000000000000000000000000000000000000000000000000000000000000000PES00010000001000000000000000020170614
201706140060000700000000000000001148000000000000000011488000000000030999284651Policia de Salta              000000000049200000000000000000000000000000000000000000000000000000000000000000000000000000000000000000000000000000000000PES00010000001000000000000000020170614
201706140060000700000000000000001149000000000000000011498000000000020000000001Consumidor Final              000000000377500000000000000000000000000000000000000000000000000000000000000000000000000000000000000000000000000000000000PES00010000001000000000000000020170614
201706140060000700000000000000001150000000000000000011508000000000020000000001Consumidor Final              000000000693047000000000000000000000000000000000000000000000000000000000000000000000000000000000000000000000000000000000PES00010000001000000000000000020170614
201706140060000700000000000000001151000000000000000011518000000000030586762571Universidad Nacional de S     000000000066066000000000000000000000000000000000000000000000000000000000000000000000000000000000000000000000000000000000PES00010000001000000000000000020170614
201706140060000700000000000000001152000000000000000011528000000000020000000001Consumidor Final              000000000163024000000000000000000000000000000000000000000000000000000000000000000000000000000000000000000000000000000000PES00010000001000000000000000020170614
201706140060000400000000000000001494000000000000000014948000000000020000000001Consumidor Final              000000000697102000000000000000000000000000000000000000000000000000000000000000000000000000000000000000000000000000000000PES00010000001000000000000000020170614
201706150010000700000000000000003557000000000000000035578000000000030700051362Neca s.r.l.                   000000030225870000000000000000000000000000000000000000000000000000000000000000000000000000000000000000000000000000000000PES00010000001000000000000000020170615
201706150010000700000000000000003558000000000000000035588000000000030679839191Concordia Construcciones      000000000007408000000000000000000000000000000000000000000000000000000000000000000000000000000000000000000000000000000000PES00010000001000000000000000020170615
201706150010000700000000000000003559000000000000000035598000000000033711226899La Nueva Salta SRL            000000000019086000000000000000000000000000000000000000000000000000000000000000000000000000000000000000000000000000000000PES00010000001000000000000000020170615
201706150010000700000000000000003560000000000000000035608000000000030656886257Cespedes Hnos SRL             000000000368019000000000000000000000000000000000000000000000000000000000000000000000000000000000000000000000000000000000PES00010000001000000000000000020170615
201706150010000700000000000000003561000000000000000035618000000000030708865903Arroyo Mannori Const y As     000000000006200000000000000000000000000000000000000000000000000000000000000000000000000000000000000000000000000000000000PES00010000001000000000000000020170615
201706150010000700000000000000003562000000000000000035628000000000020249689131Nanni Construcciones          000000000052000000000000000000000000000000000000000000000000000000000000000000000000000000000000000000000000000000000000PES00010000001000000000000000020170615
201706150010000700000000000000003563000000000000000035638000000000030690674641Nivel Seguros SA              000000000005561000000000000000000000000000000000000000000000000000000000000000000000000000000000000000000000000000000000PES00010000001000000000000000020170615
201706150010000700000000000000003564000000000000000035648000000000030710586140AG  Emprendimientos SRL       000000000040460000000000000000000000000000000000000000000000000000000000000000000000000000000000000000000000000000000000PES00010000001000000000000000020170615
201706150010000700000000000000003565000000000000000035658000000000024110818986Washington Alvarez            000000000007098000000000000000000000000000000000000000000000000000000000000000000000000000000000000000000000000000000000PES00010000001000000000000000020170615
201706150010000700000000000000003566000000000000000035668000000000024110818986Washington Alvarez            000000000012600000000000000000000000000000000000000000000000000000000000000000000000000000000000000000000000000000000000PES00010000001000000000000000020170615
201706150010000700000000000000003567000000000000000035678000000000030690663860Mocovi s.r.l.                 000000026939876000000000000000000000000000000000000000000000000000000000000000000000329876000000000000000000000000000000PES00010000001000000000000000020170615
201706150010000700000000000000003568000000000000000035688000000000020313380107Yarade Carlos Matia           000000000034060000000000000000000000000000000000000000000000000000000000000000000000000000000000000000000000000000000000PES00010000001000000000000000020170615
201706150010000700000000000000003569000000000000000035698000000000020112838512Saravia Olmos Hugo            000000000439020000000000000000000000000000000000000000000000000000000000000000000000000000000000000000000000000000000000PES00010000001000000000000000020170615
201706150010000700000000000000003570000000000000000035708000000000020203999519Delta Computacion             000000000023120000000000000000000000000000000000000000000000000000000000000000000000000000000000000000000000000000000000PES00010000001000000000000000020170615
201706150010000700000000000000003571000000000000000035718000000000030501522496Vicente Moncho Construcci     000000053000909000000000000000000000000000000000000000000000000000000000000000000000000000000000000000000000000000000000PES00010000001000000000000000020170615
201706150060000700000000000000001153000000000000000011538000000000030999284651Policia de Salta              000000000002502000000000000000000000000000000000000000000000000000000000000000000000000000000000000000000000000000000000PES00010000001000000000000000020170615
201706150060000700000000000000001154000000000000000011548000000000030999256267Escuela Jacoba Saravia N      000000000013090000000000000000000000000000000000000000000000000000000000000000000000000000000000000000000000000000000000PES00010000001000000000000000020170615
201706150060000400000000000000001495000000000000000014958000000000020000000001Consumidor Final              000000000859002000000000000000000000000000000000000000000000000000000000000000000000000000000000000000000000000000000000PES00010000001000000000000000020170615
201706160010000700000000000000003572000000000000000035728000000000030710586140AG  Emprendimientos SRL       000000000037522000000000000000000000000000000000000000000000000000000000000000000000000000000000000000000000000000000000PES00010000001000000000000000020170616
201706160010000700000000000000003573000000000000000035738000000000030707474307Crew Live S.A                 000000000004801000000000000000000000000000000000000000000000000000000000000000000000000000000000000000000000000000000000PES00010000001000000000000000020170616
201706160010000700000000000000003574000000000000000035748000000000020147096608Michel Alejandro              000000000210980000000000000000000000000000000000000000000000000000000000000000000000000000000000000000000000000000000000PES00010000001000000000000000020170616
201706160010000700000000000000003575000000000000000035758000000000020313380107Yarade Carlos Matia           000000000009537000000000000000000000000000000000000000000000000000000000000000000000000000000000000000000000000000000000PES00010000001000000000000000020170616
201706160010000700000000000000003576000000000000000035768000000000030711603553Soluciones Tecnicas Gener     000000000010795000000000000000000000000000000000000000000000000000000000000000000000000000000000000000000000000000000000PES00010000001000000000000000020170616
201706160060000700000000000000001155000000000000000011558000000000020000000001Colegio Del Huerto            000000000022502000000000000000000000000000000000000000000000000000000000000000000000000000000000000000000000000000000000PES00010000001000000000000000020170616
201706160060000400000000000000001496000000000000000014968000000000020000000001Consumidor Final              000000000797803000000000000000000000000000000000000000000000000000000000000000000000000000000000000000000000000000000000PES00010000001000000000000000020170616
201706190010000700000000000000003577000000000000000035778000000000030710398980Horacio Bielli Div. Empre     000000000041027000000000000000000000000000000000000000000000000000000000000000000000000000000000000000000000000000000000PES00010000001000000000000000020170619
201706190010000700000000000000003578000000000000000035788000000000030707474307Crew Live S.A                 000000000010546000000000000000000000000000000000000000000000000000000000000000000000000000000000000000000000000000000000PES00010000001000000000000000020170619
201706190010000700000000000000003579000000000000000035798000000000020203999519Delta Computacion             000000000023519000000000000000000000000000000000000000000000000000000000000000000000000000000000000000000000000000000000PES00010000001000000000000000020170619
201706190010000700000000000000003580000000000000000035808000000000030690721321Antonio Srur SRL              000000000077503000000000000000000000000000000000000000000000000000000000000000000000000000000000000000000000000000000000PES00010000001000000000000000020170619
201706190010000700000000000000003581000000000000000035818000000000030679839191Concordia Construcciones      000000000008730000000000000000000000000000000000000000000000000000000000000000000000000000000000000000000000000000000000PES00010000001000000000000000020170619
201706190010000700000000000000003582000000000000000035828000000000027254119747Saavedra Jessica              000000000255850000000000000000000000000000000000000000000000000000000000000000000000000000000000000000000000000000000000PES00010000001000000000000000020170619
201706190010000700000000000000003583000000000000000035838000000000027039099018Iturrieta Graziela Lidia      000000000065510000000000000000000000000000000000000000000000000000000000000000000000000000000000000000000000000000000000PES00010000001000000000000000020170619
201706190010000700000000000000003584000000000000000035848000000000030712242082Wass SRL                      000000000030096000000000000000000000000000000000000000000000000000000000000000000000000000000000000000000000000000000000PES00010000001000000000000000020170619
201706190060000700000000000000001156000000000000000011568000000000030999284651Policia de Salta              000000000006587000000000000000000000000000000000000000000000000000000000000000000000000000000000000000000000000000000000PES00010000001000000000000000020170619
201706190060000700000000000000001157000000000000000011578000000000020000000001Consumidor Final              000000000022041000000000000000000000000000000000000000000000000000000000000000000000000000000000000000000000000000000000PES00010000001000000000000000020170619
201706190060000700000000000000001158000000000000000011588000000000030673055024Municipalidad de La Vina      000000005600013000000000000000000000000000000000000000000000000000000000000000000000000000000000000000000000000000000000PES00010000001000000000000000020170619
201706190060000400000000000000001497000000000000000014978000000000020000000001Consumidor Final              000000000955102000000000000000000000000000000000000000000000000000000000000000000000000000000000000000000000000000000000PES00010000001000000000000000020170619
201706210010000700000000000000003585000000000000000035858000000000030709365262Jofer SRL                     000000000048676000000000000000000000000000000000000000000000000000000000000000000000000000000000000000000000000000000000PES00010000001000000000000000020170621
201706210010000700000000000000003586000000000000000035868000000000030679839191Concordia Construcciones      000000000028526000000000000000000000000000000000000000000000000000000000000000000000000000000000000000000000000000000000PES00010000001000000000000000020170621
201706210010000700000000000000003587000000000000000035878000000000020165172818Vicente Avila Diez            000000000031990000000000000000000000000000000000000000000000000000000000000000000000000000000000000000000000000000000000PES00010000001000000000000000020170621
201706210010000700000000000000003588000000000000000035888000000000020124494851Rodriguez Enrriqui Luca       000000000048007000000000000000000000000000000000000000000000000000000000000000000000000000000000000000000000000000000000PES00010000001000000000000000020170621
201706210010000700000000000000003589000000000000000035898000000000030710586140AG  Emprendimientos SRL       000000000030000000000000000000000000000000000000000000000000000000000000000000000000000000000000000000000000000000000000PES00010000001000000000000000020170621
201706210010000700000000000000003590000000000000000035908000000000020203999519Delta Computacion             000000000012501000000000000000000000000000000000000000000000000000000000000000000000000000000000000000000000000000000000PES00010000001000000000000000020170621
201706210010000700000000000000003591000000000000000035918000000000027254119747Saavedra Jessica              000000000130002000000000000000000000000000000000000000000000000000000000000000000000000000000000000000000000000000000000PES00010000001000000000000000020170621
201706210010000700000000000000003592000000000000000035928000000000023262936449Ortiz Victor Hugo             000000008700211000000000000000000000000000000000000000000000000000000000000000000000000000000000000000000000000000000000PES00010000001000000000000000020170621
201706210010000700000000000000003593000000000000000035938000000000020249689131Nanni Construcciones          000000000244503000000000000000000000000000000000000000000000000000000000000000000000000000000000000000000000000000000000PES00010000001000000000000000020170621
201706210010000700000000000000003596000000000000000035968000000000033714324409Rojo Constructora SRL         000000040130732000000000000000000000000000000000000000000000000000000000000000000001159475000000000000000000000000000000PES00010000001000000000000000020170621
201706210010000700000000000000003597000000000000000035978000000000020072494548Saravia Mario David Tadeo     000000000019736000000000000000000000000000000000000000000000000000000000000000000000000000000000000000000000000000000000PES00010000001N00000000000000020170621
201706210010000700000000000000003598000000000000000035988000000000020072494548Saravia Mario David Tadeo     000000000007307000000000000000000000000000000000000000000000000000000000000000000000000000000000000000000000000000000000PES00010000001000000000000000020170621
201706210010000700000000000000003599000000000000000035998000000000033714732329Maderas Spaciuk SRL           000000000653322000000000000000000000000000000000000000000000000000000000000000000000000000000000000000000000000000000000PES00010000001000000000000000020170621
201706210060000700000000000000001159000000000000000011598000000000030999284651Policia de Salta              000000000071673000000000000000000000000000000000000000000000000000000000000000000000000000000000000000000000000000000000PES00010000001000000000000000020170621
201706210060000400000000000000001498000000000000000014988000000000020000000001Consumidor Final              000000000875903000000000000000000000000000000000000000000000000000000000000000000000000000000000000000000000000000000000PES00010000001000000000000000020170621
201706220010000700000000000000003600000000000000000036008000000000030710586140AG  Emprendimientos SRL       000000000028509000000000000000000000000000000000000000000000000000000000000000000000000000000000000000000000000000000000PES00010000001000000000000000020170622
201706220010000700000000000000003601000000000000000036018000000000030709365262Jofer SRL                     000000000033575000000000000000000000000000000000000000000000000000000000000000000000000000000000000000000000000000000000PES00010000001000000000000000020170622
201706220010000700000000000000003602000000000000000036028000000000030710231342Imex SA                       000000000088546000000000000000000000000000000000000000000000000000000000000000000000000000000000000000000000000000000000PES00010000001000000000000000020170622
201706220010000700000000000000003603000000000000000036038000000000030710398980Horacio Bielli Div. Empre     000000000252557000000000000000000000000000000000000000000000000000000000000000000000000000000000000000000000000000000000PES00010000001000000000000000020170622
201706220010000700000000000000003604000000000000000036048000000000020124494851Rodriguez Enrique Luca        000000000045220000000000000000000000000000000000000000000000000000000000000000000000000000000000000000000000000000000000PES00010000001000000000000000020170622
201706220010000700000000000000003605000000000000000036058000000000020119442584Alfarano Jose Mario           000000000099301000000000000000000000000000000000000000000000000000000000000000000000000000000000000000000000000000000000PES00010000001000000000000000020170622
201706220010000700000000000000003606000000000000000036068000000000030679839191Concordia Construcciones      000000000004054000000000000000000000000000000000000000000000000000000000000000000000000000000000000000000000000000000000PES00010000001N00000000000000020170622
201706220010000700000000000000003607000000000000000036078000000000020217922276Humano Omar Alfredo           000000000009073000000000000000000000000000000000000000000000000000000000000000000000000000000000000000000000000000000000PES00010000001000000000000000020170622
201706220010000700000000000000003608000000000000000036088000000000030711603553Soluciones Tecnicas Gener     000000000046301000000000000000000000000000000000000000000000000000000000000000000000000000000000000000000000000000000000PES00010000001000000000000000020170622
201706220010000700000000000000003609000000000000000036098000000000030713272503Klimatica Ingenieria SRL      000000000436039000000000000000000000000000000000000000000000000000000000000000000000000000000000000000000000000000000000PES00010000001000000000000000020170622
201706220010000700000000000000003610000000000000000036108000000000030715193082Q Seguridad                   000000000020060000000000000000000000000000000000000000000000000000000000000000000000000000000000000000000000000000000000PES00010000001000000000000000020170622
201706220010000700000000000000003611000000000000000036118000000000020129578476Rocha Alfonso Rodolfo         000000000037080000000000000000000000000000000000000000000000000000000000000000000000000000000000000000000000000000000000PES00010000001000000000000000020170622
201706220010000700000000000000003612000000000000000036128000000000030710249179Agropecuaria Don Salvador     000000000214244000000000000000000000000000000000000000000000000000000000000000000000000000000000000000000000000000000000PES00010000001000000000000000020170622
201706220010000700000000000000003613000000000000000036138000000000027065355820Galli Martina Marta Susan     000000000018560000000000000000000000000000000000000000000000000000000000000000000000000000000000000000000000000000000000PES00010000001000000000000000020170622
201706220060000700000000000000001160000000000000000011608000000000020000000001Consumidor Final              000000000525045000000000000000000000000000000000000000000000000000000000000000000000000000000000000000000000000000000000PES00010000001000000000000000020170622
201706220060000400000000000000001499000000000000000014998000000000020000000001Consumidor Final              000000001050300000000000000000000000000000000000000000000000000000000000000000000000000000000000000000000000000000000000PES00010000001000000000000000020170622
201706230010000700000000000000003614000000000000000036148000000000020144533284Quinteros Horacio             000000000130072000000000000000000000000000000000000000000000000000000000000000000000000000000000000000000000000000000000PES00010000001000000000000000020170623
201706230010000700000000000000003615000000000000000036158000000000020122204074Bassani Carlos Enrique        000000000047508000000000000000000000000000000000000000000000000000000000000000000000000000000000000000000000000000000000PES00010000001000000000000000020170623
201706230010000700000000000000003616000000000000000036168000000000030679839191Concordia Construcciones      000000000038584000000000000000000000000000000000000000000000000000000000000000000000000000000000000000000000000000000000PES00010000001000000000000000020170623
201706230010000700000000000000003617000000000000000036178000000000027254119747Saavedra Jessica              000000000129001000000000000000000000000000000000000000000000000000000000000000000000000000000000000000000000000000000000PES00010000001000000000000000020170623
201706230010000700000000000000003618000000000000000036188000000000030710087098Aytcmm SRL                    000000000007820000000000000000000000000000000000000000000000000000000000000000000000000000000000000000000000000000000000PES00010000001000000000000000020170623
201706230010000700000000000000003619000000000000000036198000000000020081684309Lecuona de Pratt Martin       000000000013089000000000000000000000000000000000000000000000000000000000000000000000000000000000000000000000000000000000PES00010000001000000000000000020170623
201706230010000700000000000000003620000000000000000036208000000000020110606355Casado Hector Raul            000000000228005000000000000000000000000000000000000000000000000000000000000000000000000000000000000000000000000000000000PES00010000001000000000000000020170623
201706230010000700000000000000003622000000000000000036228000000000030710586140AG  Emprendimientos SRL       000000000005506000000000000000000000000000000000000000000000000000000000000000000000000000000000000000000000000000000000PES00010000001000000000000000020170623
201706230010000700000000000000003623000000000000000036238000000000030711383693Grinfil SRL                   000000000048019000000000000000000000000000000000000000000000000000000000000000000000000000000000000000000000000000000000PES00010000001000000000000000020170623
201706230010000700000000000000003624000000000000000036248000000000030514437846Alubia SA                     000000000112370000000000000000000000000000000000000000000000000000000000000000000000000000000000000000000000000000000000PES00010000001000000000000000020170623
201706230010000700000000000000003625000000000000000036258000000000020081714046Binda Victorio Ricardo        000000000011061000000000000000000000000000000000000000000000000000000000000000000000000000000000000000000000000000000000PES00010000001000000000000000020170623
201706230060000700000000000000001161000000000000000011618000000000030999256267Escuela Jacoba Saravia N      000000000003536000000000000000000000000000000000000000000000000000000000000000000000000000000000000000000000000000000000PES00010000001000000000000000020170623
201706230060000700000000000000001162000000000000000011628000000000020000000001Consumidor Final              000000000113023000000000000000000000000000000000000000000000000000000000000000000000000000000000000000000000000000000000PES00010000001000000000000000020170623
201706230060000700000000000000001163000000000000000011638000000000020000000001Consumidor Final              000000000280256000000000000000000000000000000000000000000000000000000000000000000000000000000000000000000000000000000000PES00010000001000000000000000020170623
201706230060000700000000000000001164000000000000000011648000000000020000000001Consumidor Final              000000000746082000000000000000000000000000000000000000000000000000000000000000000000000000000000000000000000000000000000PES00010000001000000000000000020170623
201706230060000400000000000000001500000000000000000015008000000000020000000001Consumidor Final              000000000978400000000000000000000000000000000000000000000000000000000000000000000000000000000000000000000000000000000000PES00010000001000000000000000020170623
201706240010000700000000000000003626000000000000000036268000000000020162972147Chuquisaca Victor             000000000012410000000000000000000000000000000000000000000000000000000000000000000000000000000000000000000000000000000000PES00010000001000000000000000020170624
201706240010000700000000000000003627000000000000000036278000000000020124494851Rodriguez Enrique Luca        000000000004591000000000000000000000000000000000000000000000000000000000000000000000000000000000000000000000000000000000PES00010000001000000000000000020170624
201706240010000700000000000000003628000000000000000036288000000000020124494851Rodriguez Enrique Luca        000000000004591000000000000000000000000000000000000000000000000000000000000000000000000000000000000000000000000000000000PES00010000001000000000000000020170624
201706240010000700000000000000003629000000000000000036298000000000020112838512Saravia Olmos Hugo            000000000174825000000000000000000000000000000000000000000000000000000000000000000000000000000000000000000000000000000000PES00010000001000000000000000020170624
201706240010000700000000000000003630000000000000000036308000000000033714732329Maderas Spaciuk SRL           000000000098035000000000000000000000000000000000000000000000000000000000000000000000000000000000000000000000000000000000PES00010000001000000000000000020170624
201706240010000700000000000000003631000000000000000036318000000000033714732329Maderas Spaciuk SRL           000000000036069000000000000000000000000000000000000000000000000000000000000000000000000000000000000000000000000000000000PES00010000001000000000000000020170624
201706240010000700000000000000003632000000000000000036328000000000030709866709Larocca Salta Neumatico S     000000000197075000000000000000000000000000000000000000000000000000000000000000000000000000000000000000000000000000000000PES00010000001000000000000000020170624
201706240010000700000000000000003633000000000000000036338000000000020112838512Saravia Olmos Hugo            000000000082512000000000000000000000000000000000000000000000000000000000000000000000000000000000000000000000000000000000PES00010000001000000000000000020170624
201706240030000700000000000000000043000000000000000000438000000000020124494851Rodriguez Enrique Luca        000000000004591000000000000000000000000000000000000000000000000000000000000000000000000000000000000000000000000000000000PES00010000001000000000000000020170624
201706240060000400000000000000001501000000000000000015018000000000020000000001Consumidor Final              000000000590002000000000000000000000000000000000000000000000000000000000000000000000000000000000000000000000000000000000PES00010000001000000000000000020170624
201706260010000700000000000000003634000000000000000036348000000000030711372705Garin Juan Pedro Construc     000000000008400000000000000000000000000000000000000000000000000000000000000000000000000000000000000000000000000000000000PES00010000001000000000000000020170626
201706260010000700000000000000003635000000000000000036358000000000020047080461Binda Aldo Augusto            000000000016801000000000000000000000000000000000000000000000000000000000000000000000000000000000000000000000000000000000PES00010000001000000000000000020170626
201706260010000700000000000000003636000000000000000036368000000000030710586140AG  Emprendimientos SRL       000000000009999000000000000000000000000000000000000000000000000000000000000000000000000000000000000000000000000000000000PES00010000001000000000000000020170626
201706260010000700000000000000003637000000000000000036378000000000020203999519Delta Computacion             000000000005950000000000000000000000000000000000000000000000000000000000000000000000000000000000000000000000000000000000PES00010000001000000000000000020170626
201706260010000700000000000000003638000000000000000036388000000000020110606355Casado Hector Raul            000000000433525000000000000000000000000000000000000000000000000000000000000000000000000000000000000000000000000000000000PES00010000001000000000000000020170626
201706260010000700000000000000003639000000000000000036398000000000030712430008Tierra Lejana SA              000000003500015000000000000000000000000000000000000000000000000000000000000000000000000000000000000000000000000000000000PES00010000001000000000000000020170626
201706260010000700000000000000003640000000000000000036408000000000020081684309Lecuona de Pratt Martin       000000000008074000000000000000000000000000000000000000000000000000000000000000000000000000000000000000000000000000000000PES00010000001000000000000000020170626
201706260010000700000000000000003641000000000000000036418000000000030644225360Servicios Viales de Pigue     000000010093645000000000000000000000000000000000000000000000000000000000000000000000000000000000000000000000000000000000PES00010000001000000000000000020170626
201706260010000700000000000000003642000000000000000036428000000000030710586140AG  Emprendimientos SRL       000000000008996000000000000000000000000000000000000000000000000000000000000000000000000000000000000000000000000000000000PES00010000001000000000000000020170626
201706260010000700000000000000003643000000000000000036438000000000030644225360Servicios Viales de Pigue     000000010093645000000000000000000000000000000000000000000000000000000000000000000000000000000000000000000000000000000000PES00010000001000000000000000020170626
201706260010000700000000000000003644000000000000000036448000000000030711383693Grinfil SRL                   000000000236554000000000000000000000000000000000000000000000000000000000000000000000000000000000000000000000000000000000PES00010000001000000000000000020170626
201706260010000700000000000000003645000000000000000036458000000000030711383693Grinfil SRL                   000000000036081000000000000000000000000000000000000000000000000000000000000000000000000000000000000000000000000000000000PES00010000001000000000000000020170626
201706260010000700000000000000003646000000000000000036468000000000030711383693Grinfil SRL                   000000000048019000000000000000000000000000000000000000000000000000000000000000000000000000000000000000000000000000000000PES00010000001000000000000000020170626
201706260060000700000000000000001165000000000000000011658000000000020000000001Consumidor Final              000000000396158000000000000000000000000000000000000000000000000000000000000000000000000000000000000000000000000000000000PES00010000001000000000000000020170626
201706260060000700000000000000001166000000000000000011668000000000020000000001Consumidor Final              000000000398475000000000000000000000000000000000000000000000000000000000000000000000000000000000000000000000000000000000PES00010000001000000000000000020170626
201706260060000700000000000000001167000000000000000011678000000000020000000001Consumidor Final              000000000721912000000000000000000000000000000000000000000000000000000000000000000000000000000000000000000000000000000000PES00010000001000000000000000020170626
201706260060000700000000000000001169000000000000000011698000000000020000000001Consumidor Final              000000000237619000000000000000000000000000000000000000000000000000000000000000000000000000000000000000000000000000000000PES00010000001000000000000000020170626
201706260030000700000000000000000044000000000000000000448000000000030644225360Servicios Viales de Pigue     000000010093645000000000000000000000000000000000000000000000000000000000000000000000000000000000000000000000000000000000PES00010000001000000000000000020170626
201706260080000700000000000000000009000000000000000000098000000000020000000001Consumidor Final              000000000237619000000000000000000000000000000000000000000000000000000000000000000000000000000000000000000000000000000000PES00010000001000000000000000020170626
201706260060000400000000000000001502000000000000000015028000000000020000000001Consumidor Final              000000001196702000000000000000000000000000000000000000000000000000000000000000000000000000000000000000000000000000000000PES00010000001000000000000000020170626
201706270010000700000000000000003647000000000000000036478000000000030710586140AG  Emprendimientos SRL       000000000009042000000000000000000000000000000000000000000000000000000000000000000000000000000000000000000000000000000000PES00010000001000000000000000020170627
201706270010000700000000000000003648000000000000000036488000000000030710586140AG  Emprendimientos SRL       000000000028509000000000000000000000000000000000000000000000000000000000000000000000000000000000000000000000000000000000PES00010000001000000000000000020170627
201706270010000700000000000000003649000000000000000036498000000000020122204074Bassani Carlos Enrique        000000000131486000000000000000000000000000000000000000000000000000000000000000000000000000000000000000000000000000000000PES00010000001000000000000000020170627
201706270010000700000000000000003650000000000000000036508000000000030710087098Aytcmm SRL                    000000000084002000000000000000000000000000000000000000000000000000000000000000000000000000000000000000000000000000000000PES00010000001000000000000000020170627
201706270010000700000000000000003651000000000000000036518000000000020203999519Delta Computacion             000000000009600000000000000000000000000000000000000000000000000000000000000000000000000000000000000000000000000000000000PES00010000001000000000000000020170627
201706270010000700000000000000003652000000000000000036528000000000030711383693Grinfil SRL                   000000000029543000000000000000000000000000000000000000000000000000000000000000000000000000000000000000000000000000000000PES00010000001000000000000000020170627
201706270010000700000000000000003653000000000000000036538000000000030710586140AG  Emprendimientos SRL       000000000018530000000000000000000000000000000000000000000000000000000000000000000000000000000000000000000000000000000000PES00010000001000000000000000020170627
201706270010000700000000000000003654000000000000000036548000000000020072617771Granado Manuel                000000000066418000000000000000000000000000000000000000000000000000000000000000000000000000000000000000000000000000000000PES00010000001000000000000000020170627
201706270010000700000000000000003655000000000000000036558000000000030700087227Aluja SRL                     000000035715107000000000000000000000000000000000000000000000000000000000000000000000437328000000000000000000000000000000PES00010000001000000000000000020170627
201706270010000700000000000000003656000000000000000036568000000000027244536536Torino Veronica               000000000012009000000000000000000000000000000000000000000000000000000000000000000000000000000000000000000000000000000000PES00010000001000000000000000020170627
201706270010000700000000000000003657000000000000000036578000000000030710253273Villanueva e Hijos SA         000000000009562000000000000000000000000000000000000000000000000000000000000000000000000000000000000000000000000000000000PES00010000001000000000000000020170627
201706270010000700000000000000003658000000000000000036588000000000030712632905Ryslab SRL                    000000000006800000000000000000000000000000000000000000000000000000000000000000000000000000000000000000000000000000000000PES00010000001000000000000000020170627
201706270060000400000000000000001503000000000000000015038000000000020000000001Consumidor Final              000000001289901000000000000000000000000000000000000000000000000000000000000000000000000000000000000000000000000000000000PES00010000001000000000000000020170627
201706280010000700000000000000003659000000000000000036598000000000020119442584Alfarano Jose Mario           000000000047175000000000000000000000000000000000000000000000000000000000000000000000000000000000000000000000000000000000PES00010000001000000000000000020170628
201706280010000700000000000000003660000000000000000036608000000000020162972805Bianchi Sergio Enrique        000000000031001000000000000000000000000000000000000000000000000000000000000000000000000000000000000000000000000000000000PES00010000001000000000000000020170628
201706280010000700000000000000003661000000000000000036618000000000030707474307Crew Live S.A                 000000000016801000000000000000000000000000000000000000000000000000000000000000000000000000000000000000000000000000000000PES00010000001000000000000000020170628
201706280010000700000000000000003662000000000000000036628000000000027006586762Sucesion Marocco Irma         000000000664039000000000000000000000000000000000000000000000000000000000000000000000000000000000000000000000000000000000PES00010000001000000000000000020170628
201706280010000700000000000000003663000000000000000036638000000000030712272240Fideicomiso Aires Verdes      000000000004600000000000000000000000000000000000000000000000000000000000000000000000000000000000000000000000000000000000PES00010000001000000000000000020170628
201706280010000700000000000000003664000000000000000036648000000000030710586140AG  Emprendimientos SRL       000000000020004000000000000000000000000000000000000000000000000000000000000000000000000000000000000000000000000000000000PES00010000001000000000000000020170628
201706280010000700000000000000003665000000000000000036658000000000030700087227Aluja SRL                     000000007882050000000000000000000000000000000000000000000000000000000000000000000000000000000000000000000000000000000000PES00010000001000000000000000020170628
201706280010000700000000000000003666000000000000000036668000000000033711275229Distribuidora de aves fae     000000000065006000000000000000000000000000000000000000000000000000000000000000000000000000000000000000000000000000000000PES00010000001000000000000000020170628
201706280010000700000000000000003667000000000000000036678000000000030710398980Horacio Bielli Div. Empre     000000000071250000000000000000000000000000000000000000000000000000000000000000000000000000000000000000000000000000000000PES00010000001000000000000000020170628
201706280060000700000000000000001170000000000000000011708000000000020000000001Consumidor Final              000000000252796000000000000000000000000000000000000000000000000000000000000000000000000000000000000000000000000000000000PES00010000001000000000000000020170628
201706280060000400000000000000001504000000000000000015048000000000020000000001Consumidor Final              000000000886901000000000000000000000000000000000000000000000000000000000000000000000000000000000000000000000000000000000PES00010000001000000000000000020170628
201706290010000700000000000000003668000000000000000036688000000000030616928828Vidmar SRL                    000000000218822000000000000000000000000000000000000000000000000000000000000000000000000000000000000000000000000000000000PES00010000001000000000000000020170629
201706290010000700000000000000003669000000000000000036698000000000027252181259Constanza Eckhardt            000000000008302000000000000000000000000000000000000000000000000000000000000000000000000000000000000000000000000000000000PES00010000001000000000000000020170629
201706290010000700000000000000003670000000000000000036708000000000030711939675Ikba SA                       000000000056950000000000000000000000000000000000000000000000000000000000000000000000000000000000000000000000000000000000PES00010000001000000000000000020170629
201706290010000700000000000000003671000000000000000036718000000000030708106700Los Pirpintos SRL             000000007472554000000000000000000000000000000000000000000000000000000000000000000000000000000000000000000000000000000000PES00010000001000000000000000020170629
201706290010000700000000000000003672000000000000000036728000000000030700087227Aluja SRL                     000000036036870000000000000000000000000000000000000000000000000000000000000000000000441268000000000000000000000000000000PES00010000001000000000000000020170629
201706290010000700000000000000003673000000000000000036738000000000030710087098Aytcmm SRL                    000000000033600000000000000000000000000000000000000000000000000000000000000000000000000000000000000000000000000000000000PES00010000001000000000000000020170629
201706290010000700000000000000003674000000000000000036748000000000030707474307Crew Live S.A                 000000000002600000000000000000000000000000000000000000000000000000000000000000000000000000000000000000000000000000000000PES00010000001000000000000000020170629
201706290010000700000000000000003675000000000000000036758000000000020368030113Salvatore Enzo Maximilian     000000000036065000000000000000000000000000000000000000000000000000000000000000000000000000000000000000000000000000000000PES00010000001000000000000000020170629
201706290010000700000000000000003677000000000000000036778000000000030658186465Ara Consultora SRL            000000003833757000000000000000000000000000000000000000000000000000000000000000000000000000000000000000000000000000000000PES00010000001000000000000000020170629
201706290060000700000000000000001171000000000000000011718000000000030999256267Escuela Jacoba Saravia N      000000000021033000000000000000000000000000000000000000000000000000000000000000000000000000000000000000000000000000000000PES00010000001000000000000000020170629
