201707030060000200000000000000000029000000000000000000299600000000000094141179LOPEZ CARI FREDDY             000000000088036000000000000000000000000000000000000000000000000000000000000000000000000000000000000000000000000000000000PES00010000001000000000000000000000000
201707030060000200000000000000000030000000000000000000309600000000000016756236GERONAZZO DORA ROSANA         000000002871500000000000000000000000000000000000000000000000000000000000000000000000000000000000000000000000000000000000PES00010000001000000000000000000000000
201707040060000200000000000000000031000000000000000000319600000000000027493470CARRAZANA ROLANDO SANTOS      000000000086000000000000000000000000000000000000000000000000000000000000000000000000000000000000000000000000000000000000PES00010000001000000000000000000000000
201707040010000200000000000000000007000000000000000000078000000000030715098217COOPERATIVA DE VIVIENDA, CONSU000000000258002000000000000000000000000000000000000000000000000000000000000000000000000000000000000000000000000000000000PES00010000001000000000000000000000000
201707050060000200000000000000000032000000000000000000329600000000000031463447COLQUE MARINA PAOLA           000000000321518000000000000000000000000000000000000000000000000000000000000000000000000000000000000000000000000000000000PES00010000001000000000000000000000000
201707050060000200000000000000000033000000000000000000339600000000000031463447COLQUE MARINA PAOLA           000000000126160000000000000000000000000000000000000000000000000000000000000000000000000000000000000000000000000000000000PES00010000001000000000000000000000000
201707060060000200000000000000000034000000000000000000349600000000000033690341ARELLANO ARIEL ORLANDO        000000000197750000000000000000000000000000000000000000000000000000000000000000000000000000000000000000000000000000000000PES00010000001000000000000000000000000
201707100060000200000000000000000035000000000000000000359600000000000094357997GUTIERREZ ORELLANA CINTHYA MAR000000000175340000000000000000000000000000000000000000000000000000000000000000000000000000000000000000000000000000000000PES00010000001000000000000000000000000
201707170060000200000000000000000036000000000000000000368000000000020083029030CASTILLO ALBERTO              000000000026000000000000000000000000000000000000000000000000000000000000000000000000000000000000000000000000000000000000PES00010000001000000000000000000000000
201707170060000200000000000000000037000000000000000000379600000000000031746883TEJERINA WALTER BENITO        000000000055200000000000000000000000000000000000000000000000000000000000000000000000000000000000000000000000000000000000PES00010000001000000000000000000000000
201707220060000200000000000000000038000000000000000000389600000000000011207346GUERRERO JORGE RAUL           000000000693000000000000000000000000000000000000000000000000000000000000000000000000000000000000000000000000000000000000PES00010000001000000000000000000000000
201707220010000200000000000000000008000000000000000000088000000000030715098217COOPERATIVA DE VIVIENDA, CONSU000000000103201000000000000000000000000000000000000000000000000000000000000000000000000000000000000000000000000000000000PES00010000001000000000000000000000000
201707220060000200000000000000000039000000000000000000399600000000000024324214FLORES RAMON JORGE GABRIEL    000000000280690000000000000000000000000000000000000000000000000000000000000000000000000000000000000000000000000000000000PES00010000001000000000000000000000000
201707220010000200000000000000000009000000000000000000098000000000030715098217COOPERATIVA DE VIVIENDA, CONSU000000000206402000000000000000000000000000000000000000000000000000000000000000000000000000000000000000000000000000000000PES00010000001000000000000000000000000
