201707050060000100000000000000000001000000000000000000018000000000027167562367GERONAZZO DORA ROSANA         000000007680000000000000000000000000000000000000000000000000000000000000000000000000000000000000000000000000000000000000PES00010000001000000000000000000000000
201707060010000100000000000000000031000000000000000000318000000000033714324409ROJO CONSTRUCTORA SRL         000000002015652000000000000000000000000000000000000000000000000000000000000000000000000000000000000000000000000000000000PES00010000001000000000000000000000000
201707070010000100000000000000000032000000000000000000328000000000033714324409ROJO CONSTRUCTORA SRL         000000003031834000000000000000000000000000000000000000000000000000000000000000000000000000000000000000000000000000000000PES00010000001000000000000000000000000
201707070010000100000000000000000033000000000000000000338000000000033714324409ROJO CONSTRUCTORA SRL         000000000600000000000000000000000000000000000000000000000000000000000000000000000000000000000000000000000000000000000000PES00010000001000000000000000000000000
201707070010000100000000000000000034000000000000000000348000000000033714324409ROJO CONSTRUCTORA SRL         000000002094300000000000000000000000000000000000000000000000000000000000000000000000000000000000000000000000000000000000PES00010000001000000000000000000000000
201707070010000100000000000000000035000000000000000000358000000000033714324409ROJO CONSTRUCTORA SRL         000000001600000000000000000000000000000000000000000000000000000000000000000000000000000000000000000000000000000000000000PES00010000001000000000000000000000000
201707070010000100000000000000000036000000000000000000368000000000033714324409ROJO CONSTRUCTORA SRL         000000001000000000000000000000000000000000000000000000000000000000000000000000000000000000000000000000000000000000000000PES00010000001000000000000000000000000
201707070010000100000000000000000037000000000000000000378000000000033714324409ROJO CONSTRUCTORA SRL         000000000539240000000000000000000000000000000000000000000000000000000000000000000000000000000000000000000000000000000000PES00010000001000000000000000000000000
201707210010000100000000000000000038000000000000000000388000000000033714324409ROJO CONSTRUCTORA SRL         000000015500086000000000000000000000000000000000000000000000000000000000000000000000000000000000000000000000000000000000PES00010000001000000000000000000000000
