201607310010000100000000000020160701                8000000000030500010084BANCO MACRO                   000000000024563000000000000000000000000000000000000000000000000000000000000000000000000000000000000000000000000000000000PES00010000001000000000000000000000000000000000000000000                              000000000000000
201607310010000100000000000020160703                8000000000030500010084BANCO MACRO                   000000000052030000000000000000000000000000000000000000000000000000000000000000000000000000000000000000000000000000000000PES00010000001000000000000000000000000000000000000000000                              000000000000000
201607260010001200000000000000076033                8000000000030503540963COATS CADENA SA               000000000399550000000000000000000000000000000000000000009666000000000000000000000000000000000000000000000000000000000000PES00010000001000000000000000000000000000000000000000000                              000000000000000
201608090010001200000000000000076613                8000000000030503540963COATS CADENA SA               000000000355155000000000000000000000000000000000000000008592000000000000000000000000000000000000000000000000000000000000PES00010000001000000000000000000000000000000000000000000                              000000000000000
201608090010001200000000000000076646                8000000000030503540963COATS CADENA SA               000000001114292000000000000000000000000000000000000000026956000000000000000000000000000000000000000000000000000000000000PES00010000001000000000000000000000000000000000000000000                              000000000000000
201608090030001200000000000000011320                8000000000030503540963COATS CADENA SA               000000000399550000000000000000000000000000000000000000009666000000000000000000000000000000000000000000000000000000000000PES00010000001000000000000000000000000000000000000000000                              000000000000000
201608160010001200000000000000076892                8000000000030503540963COATS CADENA SA               000000006768926000000000000000000000000000000000000000163782000000000000000000000000000000000000000000000000000000000000PES00010000001000000000000000000000000000000000000000000                              000000000000000
201608090010001200000000000000076614                8000000000030503540963COATS CADENA SA               000000000516034000000000000000000000000000000000000000012479000000000000000000000000000000000000000000000000000000000000PES00010000001000000000000000000000000000000000000000000                              000000000000000
201608090030001200000000000000011319                8000000000030503540963COATS CADENA SA               000000000580536000000000000000000000000000000000000000014043000000000000000000000000000000000000000000000000000000000000PES00010000001000000000000000000000000000000000000000000                              000000000000000
201608050010001200000000000000076535                8000000000030503540963COATS CADENA SA               000000004182507000000000000000000000000000000000000000101200000000000000000000000000000000000000000000000000000000000000PES00010000001000000000000000000000000000000000000000000                              000000000000000
201608290010000500000000000000038269                8000000000030606273866ABRAFIC SA                    000000004690695000000000000000000000000000000000000000000000000000000000000000000000113485000000000000000000000000000000PES00010000001000000000000000000000000000000000000000000                              000000000000000
201608250010000500000000000000038215                8000000000030606273866ABRAFIC SA                    000000000388025000000000000000000000000000000000000000000000000000000000000000000000009388000000000000000000000000000000PES00010000001000000000000000000000000000000000000000000                              000000000000000
201608160010000500000000000000038056                8000000000030606273866ABRAFIC SA                    000000000740470000000000000000000000000000000000000000000000000000000000000000000000017915000000000000000000000000000000PES00010000001000000000000000000000000000000000000000000                              000000000000000
201608010010000500000000000000037808                8000000000030606273866ABRAFIC SA                    000000001122522000000000000000000000000000000000000000000000000000000000000000000000027158000000000000000000000000000000PES00010000001000000000000000000000000000000000000000000                              000000000000000
201608190010000500000000000000038119                8000000000030606273866ABRAFIC SA                    000000000225730000000000000000000000000000000000000000000000000000000000000000000000005461000000000000000000000000000000PES00010000001000000000000000000000000000000000000000000                              000000000000000
201608180010000500000000000000038813                8000000000030538836547ELACIN SAIC                   000000002400965000000000000000000000000000000000000000000000000000000000000000000000000000000000000000000000000000000000PES00010000001000000000000000000000000000000000000000000                              000000000000000
201608220030000500000000000000015546                8000000000030538836547ELACIN SAIC                   000000000422602000000000000000000000000000000000000000000000000000000000000000000000000000000000000000000000000000000000PES00010000001000000000000000000000000000000000000000000                              000000000000000
201608100010000300000000000000044311                8000000000030501307609FRANCISCO BINELLO Y CIA SA ICF000000000592129000000000000000000000000000000000000000000000000000000000000000000000000000000000000000000000000000000000PES00010000001000000000000000000000000000000000000000000                              000000000000000
201608030030000300000000000000009432                8000000000030501307609FRANCISCO BINELLO Y CIA SA ICF000000000022689000000000000000000000000000000000000000000000000000000000000000000000000000000000000000000000000000000000PES00010000001000000000000000000000000000000000000000000                              000000000000000
201608090010000400000000000000005366                8000000000030710636792ZARTEX SRL                    000000007434401000000000000000000000000000000000000000000000000000000000000000000000000000000000000000000000000000000000PES00010000001000000000000000000000000000000000000000000                              000000000000000
201608030010000400000000000000005344                8000000000030710636792ZARTEX SRL                    000000000486420000000000000000000000000000000000000000000000000000000000000000000000000000000000000000000000000000000000PES00010000001000000000000000000000000000000000000000000                              000000000000000
201608180010000400000000000000018013                8000000000030708321652MERCOSUR NONWOVENS SA         000000003449172000000000000000000000000000000000000000000000000000000000000000000000000000000000000000000000000000000000PES00010000001000000000000000000000000000000000000000000                              000000000000000
201608180010000400000000000000018011                8000000000030708321652MERCOSUR NONWOVENS SA         000000002411075000000000000000000000000000000000000000000000000000000000000000000000000000000000000000000000000000000000PES00010000001000000000000000000000000000000000000000000                              000000000000000
201608180010000400000000000000018012                8000000000030708321652MERCOSUR NONWOVENS SA         000000000119224000000000000000000000000000000000000000000000000000000000000000000000000000000000000000000000000000000000PES00010000001000000000000000000000000000000000000000000                              000000000000000
201608180010000300000000000000000719                8000000000030710226020ABROTEX SRL                   000000003184967000000000000000000000000000000000000000000000000000000000000000000000000000000000000000000000000000000000PES00010000001000000000000000000000000000000000000000000                              000000000000000
201608180010000300000000000000000720                8000000000030710226020ABROTEX SRL                   000000000376895000000000000000000000000000000000000000000000000000000000000000000000000000000000000000000000000000000000PES00010000001000000000000000000000000000000000000000000                              000000000000000
201608190010002000000000000000126747                8000000000030682753729SCALTER SRL                   000000000107085000000000000000000000000000000000000000000000000000000000000000000000000000000000000000000000000000000000PES00010000001000000000000000000000000000000000000000000                              000000000000000
201608190010002000000000000000126746                8000000000030682753729SCALTER SRL                   000000001606275000000000000000000000000000000000000000000000000000000000000000000000000000000000000000000000000000000000PES00010000001000000000000000000000000000000000000000000                              000000000000000
201608190010002000000000000000126745                8000000000030682753729SCALTER SRL                   000000001927530000000000000000000000000000000000000000000000000000000000000000000000000000000000000000000000000000000000PES00010000001000000000000000000000000000000000000000000                              000000000000000
201608190010002000000000000000126744                8000000000030682753729SCALTER SRL                   000000001126813000000000000000000000000000000000000000000000000000000000000000000000000000000000000000000000000000000000PES00010000001000000000000000000000000000000000000000000                              000000000000000
201608190010002000000000000000126743                8000000000030682753729SCALTER SRL                   000000000763813000000000000000000000000000000000000000000000000000000000000000000000000000000000000000000000000000000000PES00010000001000000000000000000000000000000000000000000                              000000000000000
201608250010002000000000000000126944                8000000000030682753729SCALTER SRL                   000000000785593000000000000000000000000000000000000000000000000000000000000000000000000000000000000000000000000000000000PES00010000001000000000000000000000000000000000000000000                              000000000000000
