201711190010105400000000000000571606                8000000000030573652084CABLEVISION SA                000000000140303000000000003394000000000000000000000000000000000000000000000000000000000000000000000000000000000000000000PES00010000001000000000000000000000000000000000000000000                              000000000000000
201711190010105400000000000000571148                8000000000030573652084CABLEVISION SA                000000000083000000000000000000000000000000000000000000000000000000000000000000000000000000000000000000000000000000000000PES00010000001000000000000000000000000000000000000000000                              000000000000000
201711190010105400000000000000571142                8000000000030573652084CABLEVISION SA                000000000083000000000000000000000000000000000000000000000000000000000000000000000000000000000000000000000000000000000000PES00010000001000000000000000000000000000000000000000000                              000000000000000
201712040010010100000000000000480202                8000000000030690633635EDESA SA                      000000000229719000000000022286000000000000000000000000000000000000000000000000000000005718000000000000000000000000000000PES00010000001000000000000000000000000000000000000000000                              000000000000000
201711290010010100000000000000478447                8000000000030690633635EDESA SA                      000000000143350000000000059840000000000000000000000000000000000000000000000000000000002302000000000000000000000000000000PES00010000002000000000000000000000000000000000000000000                              000000000000000
201711290010010100000000011111478447                8000000000030690633635EDESA SA                      000000000000123000000000000000000000000000000000000000000000000000000000000000000000000000000000000000000000000000000000PES00010000001000000000000000000000000000000000000000000                              000000000000000
201711240010010100000000000000476678                8000000000030690633635EDESA SA                      000000000086961000000000023356000000000000000000000000000000000000000000000000000000000439000000000000000000000000000000PES00010000001000000000000000000000000000000000000000000                              000000000000000
201711210010010100000000000000473866                8000000000030690633635EDESA SA                      000000000103189000000000065387000000000000000000000000000000000000000000000000000000001042000000000000000000000000000000PES00010000002000000000000000000000000000000000000000000                              000000000000000
201711210010010100000000011111473866                8000000000030690633635EDESA SA                      000000000000008000000000000000000000000000000000000000000000000000000000000000000000000000000000000000000000000000000000PES00010000001000000000000000000000000000000000000000000                              000000000000000
201711210010010100000000000000473890                8000000000030690633635EDESA SA                      000000000131208000000000080137000000000000000000000000000000000000000000000000000000001408000000000000000000000000000000PES00010000002000000000000000000000000000000000000000000                              000000000000000
201711210010010100000000011111473890                8000000000030690633635EDESA SA                      000000000000018000000000000000000000000000000000000000000000000000000000000000000000000000000000000000000000000000000000PES00010000001000000000000000000000000000000000000000000                              000000000000000
201711210010010100000000000000473895                8000000000030690633635EDESA SA                      000000000083567000000000077366000000000000000000000000000000000000000000000000000000000171000000000000000000000000000000PES00010000002000000000000000000000000000000000000000000                              000000000000000
201711210010010100000000011111473895                8000000000030690633635EDESA SA                      000000000000008000000000000000000000000000000000000000000000000000000000000000000000000000000000000000000000000000000000PES00010000001000000000000000000000000000000000000000000                              000000000000000
201710300010010100000000000000466970                8000000000030690633635EDESA SA                      000000000129765000000000058481000000000000000000000000000000000000000000000000000000001965000000000000000000000000000000PES00010000002000000000000000000000000000000000000000000                              000000000000000
201710300010010100000000011111466970                8000000000030690633635EDESA SA                      000000000000052000000000000000000000000000000000000000000000000000000000000000000000000000000000000000000000000000000000PES00010000001000000000000000000000000000000000000000000                              000000000000000
201711130010810400000000000017084605                8000000000030639453798TELELECOM ARGENTINA SA        000000000051626000000000000000000000000000000000000000000000000000000000000000000000000000000000000000000000000000000000PES00010000001000000000000000000000000000000000000000000                              000000000000000
201711130010810500000000000016283497                8000000000030639453798TELELECOM ARGENTINA SA        000000000023490000000000000000000000000000000000000000000000000000000000000000000000000000000000000000000000000000000000PES00010000001000000000000000000000000000000000000000000                              000000000000000
201712090010101000000000000000206147                8000000000030501199253ACINDAR INDUSTRIA ARGENTINA DE000000005468472000000000000000000000000000000000000000131665000000000000000000000000000000000000000026333000000000000000PES00010000001000000000000000000000000000000000000000000                              000000000000000
201712110010101000000000000000206288                8000000000030501199253ACINDAR INDUSTRIA ARGENTINA DE000000005469515000000000000000000000000000000000000000131690000000000000000000000000000000000000000026338000000000000000PES00010000001000000000000000000000000000000000000000000                              000000000000000
201711300010102700000000000000007861                8000000000030501199253ACINDAR INDUSTRIA ARGENTINA DE000000008614839000000000000000000000000000000000000000207420000000000000000000000000000000000000000041484000000000000000PES00010000001000000000000000000000000000000000000000000                              000000000000000
201711300010102700000000000000007862                8000000000030501199253ACINDAR INDUSTRIA ARGENTINA DE000000003187173000000000000000000000000000000000000000076738000000000000000000000000000000000000000015348000000000000000PES00010000001000000000000000000000000000000000000000000                              000000000000000
201711300010102700000000000000007863                8000000000030501199253ACINDAR INDUSTRIA ARGENTINA DE000000003982619000000000000000000000000000000000000000095890000000000000000000000000000000000000000019178000000000000000PES00010000001000000000000000000000000000000000000000000                              000000000000000
201712020010000500000000000000003916                8000000000030586321389VICENTE ALBORS SA             000000006917110000000000000000000000000000000000000000000000000000000000000000000000000000000000000000000000000000000000PES00010000001000000000000000000000000000000000000000000                              000000000000000
201712010010000100000000000000002653                8000000000020220042279WALTER CESAR DIAZ             000000000139682000000000000000000000000000000000000000000000000000000000000000000000000000000000000000000000000000000000PES00010000001000000000000000000000000000000000000000000                              000000000000000
201711260010002100000000000000125300                8000000000030552816168DURLOCK SA                    000000014407854000000000000000000000000000000000000000000000000000000000000000000000211191000000000000000000000000000000PES00010000001000000000000000000000000000000000000000000                              000000000000000
201711260010002100000000000000125301                8000000000030552816168DURLOCK SA                    000000005137757000000000000000000000000000000000000000000000000000000000000000000000075310000000000000000000000000000000PES00010000001000000000000000000000000000000000000000000                              000000000000000
201711300010002100000000000000125644                8000000000030552816168DURLOCK SA                    000000011510036000000000000000000000000000000000000000000000000000000000000000000000168714000000000000000000000000000000PES00010000001000000000000000000000000000000000000000000                              000000000000000
201711280030001100000000000000031233                8000000000030707297154FERRETERA GENERAL PAZ SRL     000000000591436000000000000000000000000000000000000000000000000000000000000000000000000000000000000000000000000000000000PES00010000001000000000000000000000000000000000000000000                              000000000000000
201711300010007200000000000000018287                8000000000030602764032ECCO SA                       000000000099600000000000000000000000000000000000000000000000000000000000000000000000000000000000000000000000000000000000PES00010000001000000000000000000000000000000000000000000                              000000000000000
201711060010000400000000000000052449                8000000000030688372085ELECTRO MAYO SA               000000000814509000000000000000000000000000000000000000000000000000000000000000000000000000000000000000000000000000000000PES00010000002000000000000000000000000000000000000000000                              000000000000000
201711060010000400000000001111152449                8000000000030688372085ELECTRO MAYO SA               000000000201762000000000000000000000000000000000000000000000000000000000000000000000000000000000000000000000000000000000PES00010000001000000000000000000000000000000000000000000                              000000000000000
201711060010000400000000000000052450                8000000000030688372085ELECTRO MAYO SA               000000000209970000000000000000000000000000000000000000000000000000000000000000000000000000000000000000000000000000000000PES00010000002000000000000000000000000000000000000000000                              000000000000000
201711060010000400000000001111152450                8000000000030688372085ELECTRO MAYO SA               000000000044315000000000000000000000000000000000000000000000000000000000000000000000000000000000000000000000000000000000PES00010000001000000000000000000000000000000000000000000                              000000000000000
201711060010000400000000000000052452                8000000000030688372085ELECTRO MAYO SA               000000000207772000000000000000000000000000000000000000000000000000000000000000000000000000000000000000000000000000000000PES00010000002000000000000000000000000000000000000000000                              000000000000000
201711060010000400000000001111152452                8000000000030688372085ELECTRO MAYO SA               000000000175960000000000000000000000000000000000000000000000000000000000000000000000000000000000000000000000000000000000PES00010000001000000000000000000000000000000000000000000                              000000000000000
201711060010000400000000000000052453                8000000000030688372085ELECTRO MAYO SA               000000000567640000000000000000000000000000000000000000000000000000000000000000000000000000000000000000000000000000000000PES00010000001000000000000000000000000000000000000000000                              000000000000000
201711280010001200000000000000089085                8000000000030500971041ETERNIT ARGENTINA SA          000000001234644000000000000000000000000000000000000000029028000000000000000000000000034833000000000000000000000000000000PES00010000001000000000000000000000000000000000000000000                              000000000000000
201709270010000900000000000000387019                8000000000030707297154FERRETERA GENERAL PAZ SRL     000000000412194000000000000000000000000000000000000000000000000000000000000000000000000000000000000000000000000000000000PES00010000001000000000000000000000000000000000000000000                              000000000000000
201712120030000900000000000000148980                8000000000030707297154FERRETERA GENERAL PAZ SRL     000000000412194000000000000000000000000000000000000000000000000000000000000000000000000000000000000000000000000000000000PES00010000001000000000000000000000000000000000000000000                              000000000000000
201711230030000900000000000000147643                8000000000030707297154FERRETERA GENERAL PAZ SRL     000000000036137000000000000000000000000000000000000000000000000000000000000000000000000000000000000000000000000000000000PES00010000001000000000000000000000000000000000000000000                              000000000000000
201711280010001300000000000000174920                8000000000030535896379IPS SAICYF                    000000001962617000000000000000000000000000000000000000000000000000000000000000000000000000000000000000000000000000000000PES00010000001000000000000000000000000000000000000000000                              000000000000000
201711280010002300000000000000032244                8000000000030535896379IPS SAICYF                    000000000221234000000000000000000000000000000000000000000000000000000000000000000000000000000000000000000000000000000000PES00010000001000000000000000000000000000000000000000000                              000000000000000
201712060010002300000000000000032953                8000000000030556095597PAREXKLAUKOL SA               000000009753132000000000000000000000000000000000000000229306000000000000000000000000275167000000000000000000000000000000PES00010000001000000000000000000000000000000000000000000                              000000000000000
201711230010000500000000000000001654                8000000000030607769415NOMASGOT SRL                  000000005127665000000000000000000000000000000000000000000000000000000000000000000000000000000000000000000000000000000000PES00010000001000000000000000000000000000000000000000000                              000000000000000
201711270010000500000000000000001665                8000000000030607769415NOMASGOT SRL                  000000001075061000000000000000000000000000000000000000000000000000000000000000000000000000000000000000000000000000000000PES00010000001000000000000000000000000000000000000000000                              000000000000000
201711240030000500000000000000000101                8000000000030607769415NOMASGOT SRL                  000000000095396000000000000000000000000000000000000000000000000000000000000000000000000000000000000000000000000000000000PES00010000001000000000000000000000000000000000000000000                              000000000000000
201711270030000500000000000000000102                8000000000030607769415NOMASGOT SRL                  000000000095396000000000000000000000000000000000000000000000000000000000000000000000000000000000000000000000000000000000PES00010000001000000000000000000000000000000000000000000                              000000000000000
201711290010007100000000000000018982                8000000000030644685906SALTA PLAST POLIETILENOS SRL  000000000227579000000000000000000000000000000000000000000000000000000000000000000000006575000000000000000000000000000000PES00010000001000000000000000000000000000000000000000000                              000000000000000
201711060010000300000000000000000034                8000000000030714084425TRANS VEL SRL                 000000001193969000000000000000000000000000000000000000000000000000000000000000000000000000000000000000000000000000000000PES00010000001000000000000000000000000000000000000000000                              000000000000000
201712010010000700000000000000047678                8000000000030700067021TUBONOR SA                    000000001487898000000000000000000000000000000000000000000000000000000000000000000000042989000000000000000000000000000000PES00010000001000000000000000000000000000000000000000000                              000000000000000
201712010010000700000000000000047679                8000000000030700067021TUBONOR SA                    000000002459704000000000000000000000000000000000000000000000000000000000000000000000071067000000000000000000000000000000PES00010000001000000000000000000000000000000000000000000                              000000000000000
201711130010102700000000000000007667                8000000000030501199253ACINDAR INDUSTRIA ARGENTINA DE000000024098023000000000000000000000000000000000000000580209000000000000000000000000000000000000000116042000000000000000PES00010000001000000000000000000000000000000000000000000                              000000000000000
201710230010025600000000000000004645                8000000000030501111127HOLCIM ARGENTINA SA           000000278646650000000000000000000000000000000000000006718154000000000000000000000000000000000000000962935000000000000000PES00010000001000000000000000000000000000000000000000000                              000000000000000
201710230010026400000000000000125891                8000000000030501111127HOLCIM ARGENTINA SA           000000007574860000000000000000000000000000000000000000182629000000000000000000000000000000000000000026177000000000000000PES00010000001000000000000000000000000000000000000000000                              000000000000000
201710230010026400000000000000125907                8000000000030501111127HOLCIM ARGENTINA SA           000000126967444000000000000000000000000000000000000003061174000000000000000000000000000000000000000438769000000000000000PES00010000001000000000000000000000000000000000000000000                              000000000000000
201710230010026400000000000000125908                8000000000030501111127HOLCIM ARGENTINA SA           000000053391291000000000000000000000000000000000000001287260000000000000000000000000000000000000000184506000000000000000PES00010000001000000000000000000000000000000000000000000                              000000000000000
201710230030026400000000000000001331                8000000000030501111127HOLCIM ARGENTINA SA           000000001518198000000000000000000000000000000000000000036605000000000000000000000000000000000000000005247000000000000000PES00010000001000000000000000000000000000000000000000000                              000000000000000
201710240030026400000000000000001341                8000000000030501111127HOLCIM ARGENTINA SA           000000000483062000000000000000000000000000000000000000011647000000000000000000000000000000000000000001669000000000000000PES00010000001000000000000000000000000000000000000000000                              000000000000000
201710240030026400000000000000001342                8000000000030501111127HOLCIM ARGENTINA SA           000000000483062000000000000000000000000000000000000000011647000000000000000000000000000000000000000001669000000000000000PES00010000001000000000000000000000000000000000000000000                              000000000000000
201710240030026400000000000000001343                8000000000030501111127HOLCIM ARGENTINA SA           000000000483062000000000000000000000000000000000000000011647000000000000000000000000000000000000000001669000000000000000PES00010000001000000000000000000000000000000000000000000                              000000000000000
201710290010026400000000000000126332                8000000000030501111127HOLCIM ARGENTINA SA           000000000517568000000000000000000000000000000000000000012479000000000000000000000000000000000000000001789000000000000000PES00010000001000000000000000000000000000000000000000000                              000000000000000
201710290010026400000000000000126334                8000000000030501111127HOLCIM ARGENTINA SA           000000056449695000000000000000000000000000000000000001361001000000000000000000000000000000000000000195077000000000000000PES00010000001000000000000000000000000000000000000000000                              000000000000000
201710290010026400000000000000126335                8000000000030501111127HOLCIM ARGENTINA SA           000000047711394000000000000000000000000000000000000001150320000000000000000000000000000000000000000164880000000000000000PES00010000001000000000000000000000000000000000000000000                              000000000000000
201710290010026400000000000000126336                8000000000030501111127HOLCIM ARGENTINA SA           000000009551149000000000000000000000000000000000000000230278000000000000000000000000000000000000000033007000000000000000PES00010000001000000000000000000000000000000000000000000                              000000000000000
201710290030026400000000000000001367                8000000000030501111127HOLCIM ARGENTINA SA           000000000517568000000000000000000000000000000000000000012479000000000000000000000000000000000000000001789000000000000000PES00010000001000000000000000000000000000000000000000000                              000000000000000
201710310030026400000000000000001369                8000000000030501111127HOLCIM ARGENTINA SA           000000001518195000000000000000000000000000000000000000036604000000000000000000000000000000000000000005246000000000000000PES00010000001000000000000000000000000000000000000000000                              000000000000000
201710310030026400000000000000001370                8000000000030501111127HOLCIM ARGENTINA SA           000000000517568000000000000000000000000000000000000000012479000000000000000000000000000000000000000001789000000000000000PES00010000001000000000000000000000000000000000000000000                              000000000000000
201710310010026400000000000000126419                8000000000030501111127HOLCIM ARGENTINA SA           000000001035136000000000000000000000000000000000000000024958000000000000000000000000000000000000000003578000000000000000PES00010000001000000000000000000000000000000000000000000                              000000000000000
201710310010026400000000000000126420                8000000000030501111127HOLCIM ARGENTINA SA           000000014065561000000000000000000000000000000000000000339121000000000000000000000000000000000000000048607000000000000000PES00010000001000000000000000000000000000000000000000000                              000000000000000
201710310010026400000000000000126421                8000000000030501111127HOLCIM ARGENTINA SA           000000007951899000000000000000000000000000000000000000191720000000000000000000000000000000000000000027480000000000000000PES00010000001000000000000000000000000000000000000000000                              000000000000000
201710310010026400000000000000126505                8000000000030501111127HOLCIM ARGENTINA SA           000000007951899000000000000000000000000000000000000000191720000000000000000000000000000000000000000027480000000000000000PES00010000001000000000000000000000000000000000000000000                              000000000000000
201710310030026400000000000000001373                8000000000030501111127HOLCIM ARGENTINA SA           000000000483062000000000000000000000000000000000000000011647000000000000000000000000000000000000000001669000000000000000PES00010000001000000000000000000000000000000000000000000                              000000000000000
201710310030026400000000000000001375                8000000000030501111127HOLCIM ARGENTINA SA           000000000483062000000000000000000000000000000000000000011647000000000000000000000000000000000000000001669000000000000000PES00010000001000000000000000000000000000000000000000000                              000000000000000
201708300010001100000000000000012579                8000000000030563516573SUCESORES DE ROBERTO SAMAN SRL000000000181535000000000000000000000000000000000000000000000000000000000000000000000004535000000000000000000000000000000PES00010000001000000000000000000000000000000000000000000                              000000000000000
201709180010001100000000000000012645                8000000000030563516573SUCESORES DE ROBERTO SAMAN SRL000000000182560000000000000000000000000000000000000000000000000000000000000000000000004560000000000000000000000000000000PES00010000001000000000000000000000000000000000000000000                              000000000000000
201711240010000300000000000000000181                8000000000023262936449ORTIZ VICTOR HUGO             000000004278530000000000000000000000000000000000000000000000000000000000000000000000000000000000000000000000000000000000PES00010000001000000000000000000000000000000000000000000                              000000000000000
201711270010000400000000000000008522                8000000000030579866019PARQUE PAMPA SA               000000003701602000000000000000000000000000000000000000000000000000000000000000000000000000000000000000000000000000000000PES00010000001000000000000000000000000000000000000000000                              000000000000000
201711300010050100000000000000158394                8000000000030500530851LOMA NEGRA CIASA              000000009576805000000000000000000000000000000000000000231697000000000000000000000000000000000000000000000000000000000000PES00010000001000000000000000000000000000000000000000000                              000000000000000
201711230010050100000000000000158202                8000000000030500530851LOMA NEGRA CIASA              000000044868437000000000000000000000000000000000000001085525000000000000000000000000000000000000000000000000000000000000PES00010000001000000000000000000000000000000000000000000                              000000000000000
201711210010000400000000000000006156                8000000000030710822685REDINK ARGENTINA SRL          000000000061002000000000000000000000000000000000000000000000000000000000000000000000000000000000000000000000000000000000PES00010000001000000000000000000000000000000000000000000                              000000000000000
201711170010000100000000000000000086                8000000000030715757245HYS SALTA SRL                 000000000214202000000000000000000000000000000000000000000000000000000000000000000000000000000000000000000000000000000000PES00010000001000000000000000000000000000000000000000000                              000000000000000
201711240010000300000000000000031830                8000000000033680021819GRAZIOLI SRL                  000000000045215000000000000000000000000000000000000000000000000000000000000000000000000000000000000000000000000000000000PES00010000001000000000000000000000000000000000000000000                              000000000000000
201711090010000300000000000000031737                8000000000033680021819GRAZIOLI SRL                  000000000443092000000000000000000000000000000000000000000000000000000000000000000000000000000000000000000000000000000000PES00010000001000000000000000000000000000000000000000000                              000000000000000
201711150010050100000000000000157707                8000000000030500530851LOMA NEGRA CIASA              000000026921062000000000000000000000000000000000000000651315000000000000000000000000000000000000000000000000000000000000PES00010000001000000000000000000000000000000000000000000                              000000000000000
201711100030050100000000000000006653                8000000000030500530851LOMA NEGRA CIASA              000000002232819000000000000000000000000000000000000000000000000000000000000000000000000000000000000000000000000000000000PES00010000001000000000000000000000000000000000000000000                              000000000000000
201711120010026400000000000000127161                8000000000030501111127HOLCIM ARGENTINA SA           000000007040131000000000000000000000000000000000000000169738000000000000000000000000000000000000000024329000000000000000PES00010000001000000000000000000000000000000000000000000                              000000000000000
201711120010026400000000000000127162                8000000000030501111127HOLCIM ARGENTINA SA           000000055663293000000000000000000000000000000000000001342040000000000000000000000000000000000000000192360000000000000000PES00010000001000000000000000000000000000000000000000000                              000000000000000
201711120010026400000000000000127185                8000000000030501111127HOLCIM ARGENTINA SA           000000002001260000000000000000000000000000000000000000048252000000000000000000000000000000000000000006916000000000000000PES00010000001000000000000000000000000000000000000000000                              000000000000000
201711100030026400000000000000001403                8000000000030501111127HOLCIM ARGENTINA SA           000000000483062000000000000000000000000000000000000000011647000000000000000000000000000000000000000001669000000000000000PES00010000001000000000000000000000000000000000000000000                              000000000000000
201711100030026400000000000000001404                8000000000030501111127HOLCIM ARGENTINA SA           000000000483062000000000000000000000000000000000000000011647000000000000000000000000000000000000000001669000000000000000PES00010000001000000000000000000000000000000000000000000                              000000000000000
201711100030026400000000000000001405                8000000000030501111127HOLCIM ARGENTINA SA           000000000517568000000000000000000000000000000000000000012479000000000000000000000000000000000000000001789000000000000000PES00010000001000000000000000000000000000000000000000000                              000000000000000
201711120030026400000000000000001407                8000000000030501111127HOLCIM ARGENTINA SA           000000001552704000000000000000000000000000000000000000037437000000000000000000000000000000000000000005367000000000000000PES00010000001000000000000000000000000000000000000000000                              000000000000000
201711050010026400000000000000126747                8000000000030501111127HOLCIM ARGENTINA SA           000000007951899000000000000000000000000000000000000000191720000000000000000000000000000000000000000027480000000000000000PES00010000001000000000000000000000000000000000000000000                              000000000000000
201711050030026400000000000000001381                8000000000030501111127HOLCIM ARGENTINA SA           000000001000630000000000000000000000000000000000000000024126000000000000000000000000000000000000000003458000000000000000PES00010000001000000000000000000000000000000000000000000                              000000000000000
201711010020026400000000000000015630                8000000000030501111127HOLCIM ARGENTINA SA           000000000030358000000000000000000000000000000000000000000000000000000000000000000000000000000000000000108000000000000000PES00010000001000000000000000000000000000000000000000000                              000000000000000
