201701160010000700000000000000002855                8000000000030581209076ANTONIO B ATENOR E HIJOS SRL  000000001054614000000000000000000000000000000000000000000000000000000000000000000000030470000000000000000000000000000000PES00010000001000000000000000000000000000000000000000000                              000000000000000
201703140010001100000000000000076339                8000000000030639201232AD BARBIERI SA                000000023085687000000000000000000000000000000000000000000000000000000000000000000000000000000000000000000000000000000000PES00010000001000000000000000000000000000000000000000000                              000000000000000
201703140010001100000000000000076340                8000000000030639201232AD BARBIERI SA                000000037463528000000000000000000000000000000000000000000000000000000000000000000000000000000000000000000000000000000000PES00010000001000000000000000000000000000000000000000000                              000000000000000
201703200010000200000000000000000946                8000000000020106021733JUAN JOSE PODOROSKA           000000003993266000000000000000000000000000000000000000000000000000000000000000000000000000000000000000000000000000000000PES00010000001000000000000000000000000000000000000000000                              000000000000000
201703280010001300000000000000155815                8000000000030535896379IPS SAICYF                    000000001246928000000000000000000000000000000000000000000000000000000000000000000000000000000000000000000000000000000000PES00010000001000000000000000000000000000000000000000000                              000000000000000
201704110010001300000000000000157133                8000000000030535896379IPS SAICYF                    000000000223819000000000000000000000000000000000000000000000000000000000000000000000000000000000000000000000000000000000PES00010000001000000000000000000000000000000000000000000                              000000000000000
201703230010000500000000000000001225                8000000000030607769415NOMASGOT SRL                  000000002727945000000000000000000000000000000000000000000000000000000000000000000000000000000000000000000000000000000000PES00010000001000000000000000000000000000000000000000000                              000000000000000
201703130010000400000000000000045024                8000000000030610936780NUEVAS MANUFACTURAS SA        000000002503204000000000000000000000000000000000000000000000000000000000000000000000000000000000000000000000000000000000PES00010000001000000000000000000000000000000000000000000                              000000000000000
201703140010000400000000000000045031                8000000000030610936780NUEVAS MANUFACTURAS SA        000000000749054000000000000000000000000000000000000000000000000000000000000000000000000000000000000000000000000000000000PES00010000001000000000000000000000000000000000000000000                              000000000000000
201703220010002100000000000000224606                8000000000030556095597PAREXKLAUKOL SA               000000013928704000000000000000000000000000000000000000327477000000000000000000000000392973000000000000000000000000000000PES00010000001000000000000000000000000000000000000000000                              000000000000000
201703220010002300000000000000029197                8000000000030556095597PAREXKLAUKOL SA               000000002696335000000000000000000000000000000000000000063393000000000000000000000000076072000000000000000000000000000000PES00010000001000000000000000000000000000000000000000000                              000000000000000
201704030010002300000000000000029323                8000000000030556095597PAREXKLAUKOL SA               000000000509584000000000000000000000000000000000000000011981000000000000000000000000014377000000000000000000000000000000PES00010000001000000000000000000000000000000000000000000                              000000000000000
201703310010002300000000000000029317                8000000000030556095597PAREXKLAUKOL SA               000000002918806000000000000000000000000000000000000000068624000000000000000000000000082349000000000000000000000000000000PES00010000001000000000000000000000000000000000000000000                              000000000000000
201704040010002300000000000000029342                8000000000030556095597PAREXKLAUKOL SA               000000000917087000000000000000000000000000000000000000021562000000000000000000000000025874000000000000000000000000000000PES00010000001000000000000000000000000000000000000000000                              000000000000000
201704030010002300000000000000029324                8000000000030556095597PAREXKLAUKOL SA               000000008082629000000000000000000000000000000000000000190030000000000000000000000000228037000000000000000000000000000000PES00010000001000000000000000000000000000000000000000000                              000000000000000
201703310010551200000000000002515982                8000000000030678186445TELECOM PERSONAL SA           000000000134810000000000001020000000000000000000000000000000000000000000000000000000000000000000000000000000000000004250PES00010000001000000000000000000000000000000000000000000                              000000000000000
201703300010010100000000000000386549                8000000000030690633635EDESA SA                      000000000106215000000000039859000000000000000000000000000000000000000000000000000000001829000000000000000000000000000000PES00010000002000000000000000000000000000000000000000000                              000000000000000
201703300010010100000000011111386549                8000000000030690633635EDESA SA                      000000000000024000000000000000000000000000000000000000000000000000000000000000000000000000000000000000000000000000000000PES00010000001000000000000000000000000000000000000000000                              000000000000000
201703200010010100000000000000382254                8000000000030690633635EDESA SA                      000000000119123000000000067152000000000000000000000000000000000000000000000000000000001433000000000000000000000000000000PES00010000001000000000000000000000000000000000000000000                              000000000000000
201703200010010100000000000000382235                8000000000030690633635EDESA SA                      000000000162542000000000074193000000000000000000000000000000000000000000000000000000002435000000000000000000000000000000PES00010000001000000000000000000000000000000000000000000                              000000000000000
201703200010010100000000000000382244                8000000000030690633635EDESA SA                      000000000070238000000000050182000000000000000000000000000000000000000000000000000000000116000000000000000000000000000000PES00010000001000000000000000000000000000000000000000000                              000000000000000
201703230010010100000000000000384607                8000000000030690633635EDESA SA                      000000000059889000000000016817000000000000000000000000000000000000000000000000000000000179000000000000000000000000000000PES00010000001000000000000000000000000000000000000000000                              000000000000000
201703110010209300000000000006933301                8000000000030678814357TELEFONICA MOVILES ARGENTINA S000000000000208000000000000002000000000000000000000000000000000000000000000000000000000000000000000000000000000000000000PES00010000001000000000000000000000000000000000000000000                              000000000000000
201703190010102200000000000006218585                8000000000030573652084CABLEVISION SA                000000000072160000000000000000000000000000000000000000000000000000000000000000000000000000000000000000000000000000000000PES00010000001000000000000000000000000000000000000000000                              000000000000000
201703190010102200000000000006219420                8000000000030573652084CABLEVISION SA                000000000072160000000000000000000000000000000000000000000000000000000000000000000000000000000000000000000000000000000000PES00010000001000000000000000000000000000000000000000000                              000000000000000
201703190010102200000000000006219722                8000000000030573652084CABLEVISION SA                000000000071591000000000001732000000000000000000000000000000000000000000000000000000000000000000000000000000000000000000PES00010000001000000000000000000000000000000000000000000                              000000000000000
201703130010810200000000000016491479                8000000000030639453738TELECOM ARGENTINA SA          000000000020177000000000000000000000000000000000000000000000000000000000000000000000000000000000000000000000000000000000PES00010000001000000000000000000000000000000000000000000                              000000000000000
201704090010530000000000000001201274                8000000000030639453738TELECOM ARGENTINA SA          000000000070367000000000000000000000000000000000000000000000000000000000000000000000000000000000000000000000000000000000PES00010000001000000000000000000000000000000000000000000                              000000000000000
201704090010530000000000000001200621                8000000000030639453738TELECOM ARGENTINA SA          000000000063848000000000000000000000000000000000000000000000000000000000000000000000000000000000000000000000000000000000PES00010000001000000000000000000000000000000000000000000                              000000000000000
201704090010530000000000000001202447                8000000000030639453738TELECOM ARGENTINA SA          000000000011646000000000000000000000000000000000000000000000000000000000000000000000000000000000000000000000000000000000PES00010000001000000000000000000000000000000000000000000                              000000000000000
201703310010102700000000000000005853                8000000000030501199253ACINDAR INDUSTRIA ARGENTINA DE000000035131901000000000000000000000000000000000000000845872000000000000000000000000000000000000000169174000000000000000PES00010000001000000000000000000000000000000000000000000                              000000000000000
201703310030102500000000000000054852                8000000000030501199253ACINDAR INDUSTRIA ARGENTINA DE000000016693830000000000000000000000000000000000000000403883000000000000000000000000000000000000000000000000000000000000PES00010000001000000000000000000000000000000000000000000                              000000000000000
201703310030102500000000000000054851                8000000000030501199253ACINDAR INDUSTRIA ARGENTINA DE000000012771740000000000000000000000000000000000000000308994000000000000000000000000000000000000000000000000000000000000PES00010000001000000000000000000000000000000000000000000                              000000000000000
201703290010102700000000000000005840                8000000000030501199253ACINDAR INDUSTRIA ARGENTINA DE000000005564440000000000000000000000000000000000000000133975000000000000000000000000000000000000000026795000000000000000PES00010000001000000000000000000000000000000000000000000                              000000000000000
201703290010102700000000000000005841                8000000000030501199253ACINDAR INDUSTRIA ARGENTINA DE000000006953202000000000000000000000000000000000000000167413000000000000000000000000000000000000000000000000000000033483PES00010000001000000000000000000000000000000000000000000                              000000000000000
201704040010000900000000000000133303                8000000000030709369403DIEGO O TOLEDO Y OTROS SH     000000000045000000000000000000000000000000000000000000000000000000000000000000000000000000000000000000000000000000000000PES00010000001000000000000000000000000000000000000000000                              000000000000000
201704170010050100000000000000146122                8000000000030500530851LOMA NEGRA CIASA              000000074535795000000000000000000000000000000000000001803289000000000000000000000000000000000000000000000000000000000000PES00010000001000000000000000000000000000000000000000000                              000000000000000
201704100010050100000000000000145825                8000000000030500530851LOMA NEGRA CIASA              000000041250165000000000000000000000000000000000000000997990000000000000000000000000000000000000000000000000000000000000PES00010000001000000000000000000000000000000000000000000                              000000000000000
201704070030050100000000000000063207                8000000000030500530851LOMA NEGRA CIASA              000000010576421000000000000000000000000000000000000000000000000000000000000000000000000000000000000000000000000000000000PES00010000001000000000000000000000000000000000000000000                              000000000000000
201704120010005200000000000000001645                8000000000030707211942ROLCAR SA                     000000000501205000000000000000000000000000000000000000000000000000000000000000000000000000000000000000000000000000000000PES00010000001000000000000000000000000000000000000000000                              000000000000000
201701230010001100000000000000011717                8000000000030563516573SUCESORES DE ROBERTO SAMAN SRL000000000164304000000000000000000000000000000000000000000000000000000000000000000000004104000000000000000000000000000000PES00010000001000000000000000000000000000000000000000000                              000000000000000
201703060010001100000000000000011853                8000000000030563516573SUCESORES DE ROBERTO SAMAN SRL000000000544502000000000000000000000000000000000000000000000000000000000000000000000013602000000000000000000000000000000PES00010000001000000000000000000000000000000000000000000                              000000000000000
201704240010000300000000000000000102                8000000000023262936449ORTIZ VICTOR HUGO             000000003882840000000000000000000000000000000000000000000000000000000000000000000000000000000000000000000000000000000000PES00010000001000000000000000000000000000000000000000000                              000000000000000
201704240010002400000000000000005720                8000000000030681305129PROMET SRL                    000000000068923000000000000000000000000000000000000000000000000000000000000000000000000841000000000000241000000000000000PES00010000001000000000000000000000000000000000000000000                              000000000000000
201704280010101000000000000000186977                8000000000030501199253ACINDAR INDUSTRIA ARGENTINA DE000000007527941000000000000000000000000000000000000000181251000000000000000000000000000000000000000036251000000000000000PES00010000001000000000000000000000000000000000000000000                              000000000000000
201704030010000400000000000000008963                8000000000030675407416FERRETERA DEL NORTE SRL       000000007409045000000000000000000000000000000000000000000000000000000000000000000000093709000000000000000000000000000000PES00010000001000000000000000000000000000000000000000000                              000000000000000
201704010010000900000000000000350277                8000000000030707297154FERRETERA GENERAL PAZ SRL     000000004153022000000000000000000000000000000000000000000000000000000000000000000000000000000000000000000000000000000000PES00010000001000000000000000000000000000000000000000000                              000000000000000
201704120010000300000000000000030381                8000000000033680021819GRAZIOLI SRL                  000000000892175000000000000000000000000000000000000000000000000000000000000000000000000000000000000000000000000000000000PES00010000001000000000000000000000000000000000000000000                              000000000000000
201702210010003100000000000000007654                8000000000030710204671N FERRARIS SA                 000000002520561000000000000000000000000000000000000000000000000000000000000000000000000000000000000000000000000000000000PES00010000001000000000000000000000000000000000000000000                              000000000000000
201702210010003100000000000000007655                8000000000030710204671N FERRARIS SA                 000000014889776000000000000000000000000000000000000000000000000000000000000000000000000000000000000000000000000000000000PES00010000001000000000000000000000000000000000000000000                              000000000000000
201702230010003100000000000000007876                8000000000030710204671N FERRARIS SA                 000000002951480000000000000000000000000000000000000000000000000000000000000000000000000000000000000000000000000000000000PES00010000001000000000000000000000000000000000000000000                              000000000000000
201704010010000100000000000000001785                8000000000030715082337SANITEC SRL                   000000000555581000000000000000000000000000000000000000000000000000000000000000000000000000000000000000000000000000000000PES00010000001000000000000000000000000000000000000000000                              000000000000000
