201608310010000100000000000020160801                8000000000030500010084Banco Macro                   000000000048642000000000000000000000000000000000000000000000000000000000000000000000000000000000000000000000000000000000PES00010000001000000000000000000000000000000000000000000                              000000000000000
201608310010000100000000000020160802                8000000000030500010084Banco Macro                   000000000052030000000000000000000000000000000000000000000000000000000000000000000000000000000000000000000000000000000000PES00010000001000000000000000000000000000000000000000000                              000000000000000
201608310010000100000000000020160803                8000000000030500010084Banco Macro                   000000000014964000000000000000000000000000000000000000000000000000000000000000000000000000000000000000000000000000000000PES00010000001000000000000000000000000000000000000000000                              000000000000000
201608310010000100000000000020160804                8000000000030500001735Banco Galicia                 000000000082038000000000000000000000000000000000000000000000000000000000000000000000000000000000000000000000000000000000PES00010000001000000000000000000000000000000000000000000                              000000000000000
201608310010000100000000000020160805                8000000000030500001735Banco Galicia                 000000000002333000000000000000000000000000000000000000000000000000000000000000000000000000000000000000000000000000000000PES00010000001000000000000000000000000000000000000000000                              000000000000000
201608310010000100000000000020160806                8000000000030500010084Banco Macro                   000000000049465000000000000000000000000000000000000000000000000000000000000000000000000000000000000000000000000000000000PES00010000001000000000000000000000000000000000000000000                              000000000000000
201609300010000200000000000000003898                8000000000030709049603FREEDOM BUILDING SRL          000000004763158000000000000000000000000000000000000000000000000000000000000000000000000000000000000000000000000000000000PES00010000001000000000000000000000000000000000000000000                              000000000000000
201609300010000200000000000000003899                8000000000030709049603FREEDOM BUILDING SRL          000000004763158000000000000000000000000000000000000000000000000000000000000000000000000000000000000000000000000000000000PES00010000001000000000000000000000000000000000000000000                              000000000000000
201609300010000100000000000000000012                8000000000030715227068MEGACOR SRL                   000000029968000000000000000000000000000000000000000000000000000000000000000000000000000000000000000000000000000000000000PES00010000001000000000000000000000000000000000000000000                              000000000000000
201609230010000300000000000000000130                8000000000020279743947SOLA ALSINA PABLO ALEJANDRO   000000000250000000000000000000000000000000000000000000000000000000000000000000000000000000000000000000000000000000000000PES00010000001000000000000000000000000000000000000000000                              000000000000000
201608220010000800000000000000012168                8000000000030709950092METALNOR SRL                  000000000025957000000000000000000000000000000000000000000000000000000000000000000000000000000000000000000000000000000000PES00010000001000000000000000000000000000000000000000000                              000000000000000
201608100010000100000000000000000236                8000000000020213109074GUSTAVO MOISES                000000000007000000000000000000000000000000000000000000000000000000000000000000000000000000000000000000000000000000000000PES00010000001000000000000000000000000000000000000000000                              000000000000000
201608220010005700000000000000000145                8000000000030708725346EMI SRL                       000000000069725000000000000344000000000000000000000000000000000000000000000000000000000000000000000000000000000000000000PES00010000001000000000000000000000000000000000000000000                              000000000000000
201608290010000200000000000000015945                8000000000030714393738SILANDRE SRL                  000000000015000000000000003880000000000000000000000000000000000000000000000000000000000000000000000000000000000000000000PES00010000001000000000000000000000000000000000000000000                              000000000000000
201609290010004300000000000000021015                8000000000030708725346EMPRENDIMIENTO METALURGICO IND000000001570917000000000007751000000000000000000000000000000000000000000000000000000000000000000000000000000000000000000PES00010000001000000000000000000000000000000000000000000                              000000000000000
201609290010004300000000000000021014                8000000000030708725346EMPRENDIMIENTO METALURGICO IND000000001201575000000000005929000000000000000000000000000000000000000000000000000000000000000000000000000000000000000000PES00010000001000000000000000000000000000000000000000000                              000000000000000
201609300010004300000000000000021037                8000000000030708725346EMPRENDIMIENTO METALURGICO IND000000000375246000000000001852000000000000000000000000000000000000000000000000000000000000000000000000000000000000000000PES00010000001000000000000000000000000000000000000000000                              000000000000000
201608010010000400000000000000555002                8000000000030518919349ASEGURADORES DE CACUCIONES SA 000000000047875000000000000932000000000000000000000000000000000000000000000000000000000000000000000000000000000000000000PES00010000001000000000000000000000000000000000000000000                              000000000000000
201608010010000400000000000000555003                8000000000030518919349ASEGURADORES DE CACUCIONES SA 000000000169815000000000003303000000000000000000000000000000000000000000000000000000000000000000000000000000000000000000PES00010000001000000000000000000000000000000000000000000                              000000000000000
201608010010000400000000000000055504                8000000000030518919349ASEGURADORES DE CACUCIONES SA 000000000242712000000000004720000000000000000000000000000000000000000000000000000000000000000000000000000000000000000000PES00010000001000000000000000000000000000000000000000000                              000000000000000
201608010010000400000000000000555005                8000000000030518919349ASEGURADORES DE CACUCIONES SA 000000000052522000000000001022000000000000000000000000000000000000000000000000000000000000000000000000000000000000000000PES00010000001000000000000000000000000000000000000000000                              000000000000000
201609010010000400000000000000562050                8000000000030518919349ASEGURADORES DE CACUCIONES SA 000000000278586000000000005419000000000000000000000000000000000000000000000000000000000000000000000000000000000000000000PES00010000001000000000000000000000000000000000000000000                              000000000000000
201609070010000400000000000000147853                8000000000030518919349ASEGURADORES DE CACUCIONES SA 000000000046276000000000000901000000000000000000000000000000000000000000000000000000000000000000000000000000000000000000PES00010000001000000000000000000000000000000000000000000                              000000000000000
201609210010000400000000000000148956                8000000000030518919349ASEGURADORES DE CACUCIONES SA 000000000018510000000000000360000000000000000000000000000000000000000000000000000000000000000000000000000000000000000000PES00010000001000000000000000000000000000000000000000000                              000000000000000
201609300010000600000000000000002179                8000000000033711140439BERLIN MOTORS SA              000000000070001000000000000000000000000000000000000000000000000000000000000000000000000000000000000000000000000000000000PES00010000001000000000000000000000000000000000000000000                              000000000000000
201608230010005200000000000000000611                8000000000030707211942ROLCAR SA                     000000000969965000000000000000000000000000000000000000000000000000000000000000000000000000000000000000000000000000000000PES00010000001000000000000000000000000000000000000000000                              000000000000000
201609160010307100000000000000008762                8000000000030708772964JUMBO RETAIL ARGENTINA SA     000000000378545000000000000000000000000000000000000000009163000000000000000000000000000000000000000000000000000000000000PES00010000002000000000000000000000000000000000000000000                              000000000000000
201609160010307100000000011111118762                8000000000030708772964JUMBO RETAIL ARGENTINA SA     000000000004949000000000000000000000000000000000000000000000000000000000000000000000000000000000000000000000000000000000PES00010000001000000000000000000000000000000000000000000                              000000000000000
201609290010257200000000000000001065                8000000000030526874249FRAVEGA SACIEI                000000000299900000000000000000000000000000000000000000000000000000000000000000000000000000000000000000000000000000000000PES00010000001000000000000000000000000000000000000000000                              000000000000000
201608300010005700000000000000000298                8000000000030708725346EMI SRL                       000000000347997000000000001717000000000000000000000000000000000000000000000000000000000000000000000000000000000000000000PES00010000001000000000000000000000000000000000000000000                              000000000000000
201608290010005700000000000000000265                8000000000030708725346EMI SRL                       000000000056816000000000000280000000000000000000000000000000000000000000000000000000000000000000000000000000000000000000PES00010000001000000000000000000000000000000000000000000                              000000000000000
201609010010005700000000000000000353                8000000000030708725346EMI SRL                       000000000703560000000000003472000000000000000000000000000000000000000000000000000000000000000000000000000000000000000000PES00010000001000000000000000000000000000000000000000000                              000000000000000
201607270010000200000000000000004441                8000000000020164510906ATACO HECTOR BENITO           000000000163618000000000017590000000000000000000000000000000000000000000000000000000000000000000000000000000000000000000PES00010000001000000000000000000000000000000000000000000                              000000000000000
201607290010000600000000000000002624                8000000000030615143193AG CHIBAN SRL                 000000000291421000000000039260000000000000000000000000000000000000000000000000000000000000000000000000000000000000000000PES00010000001000000000000000000000000000000000000000000                              000000000000000
201608100010001000000000000000028232                8000000000030594692744LA CONSTRUCTORA SA            000000000070001000000000017590000000000000000000000000000000000000000000000000000000000000000000000000000000000000000000PES00010000001000000000000000000000000000000000000000000                              000000000000000
201608100010001000000000000000028233                8000000000030594692744LA CONSTRUCTORA SA            000000000198521000000000039260000000000000000000000000000000000000000000000000000000000000000000000000000000000000000000PES00010000001000000000000000000000000000000000000000000                              000000000000000
201608080010001200000000000000041617                8000000000030594692744LA CONSTRUCTORA SA            000000000065905000000000016561000000000000000000000000000000000000000000000000000000000000000000000000000000000000000000PES00010000001000000000000000000000000000000000000000000                              000000000000000
201608050010001000000000000000028120                8000000000030594692744LA CONSTRUCTORA SA            000000000049999000000000012564000000000000000000000000000000000000000000000000000000000000000000000000000000000000000000PES00010000001000000000000000000000000000000000000000000                              000000000000000
201608100010001000000000000000028243                8000000000030594692744LA CONSTRUCTORA SA            000000000084516000000000016714000000000000000000000000000000000000000000000000000000000000000000000000000000000000000000PES00010000001000000000000000000000000000000000000000000                              000000000000000
201608140010001300000000000000030256                8000000000030594692744LA CONSTRUCTORA SA            000000000073740000000000015566000000000000000000000000000000000000000000000000000000000000000000000000000000000000000000PES00010000001000000000000000000000000000000000000000000                              000000000000000
201608140010001200000000000000041804                8000000000030594692744LA CONSTRUCTORA SA            000000000065905000000000016561000000000000000000000000000000000000000000000000000000000000000000000000000000000000000000PES00010000001000000000000000000000000000000000000000000                              000000000000000
201608170010001000000000000000028456                8000000000030594692744LA CONSTRUCTORA SA            000000000148500000000000029529000000000000000000000000000000000000000000000000000000000000000000000000000000000000000000PES00010000001000000000000000000000000000000000000000000                              000000000000000
201608190010001000000000000000028536                8000000000030594692744LA CONSTRUCTORA SA            000000000059999000000000015077000000000000000000000000000000000000000000000000000000000000000000000000000000000000000000PES00010000001000000000000000000000000000000000000000000                              000000000000000
201608200010001200000000000000041969                8000000000030594692744LA CONSTRUCTORA SA            000000000050001000000000009888000000000000000000000000000000000000000000000000000000000000000000000000000000000000000000PES00010000001000000000000000000000000000000000000000000                              000000000000000
201608230010001200000000000000042040                8000000000030594692744LA CONSTRUCTORA SA            000000000065905000000000016561000000000000000000000000000000000000000000000000000000000000000000000000000000000000000000PES00010000001000000000000000000000000000000000000000000                              000000000000000
201608230010001000000000000000028623                8000000000030594692744LA CONSTRUCTORA SA            000000000117183000000000029446000000000000000000000000000000000000000000000000000000000000000000000000000000000000000000PES00010000001000000000000000000000000000000000000000000                              000000000000000
201608230010001000000000000000028624                8000000000030594692744LA CONSTRUCTORA SA            000000000244001000000000048254000000000000000000000000000000000000000000000000000000000000000000000000000000000000000000PES00010000001000000000000000000000000000000000000000000                              000000000000000
201608250010001000000000000000028715                8000000000030594692744LA CONSTRUCTORA SA            000000000050000000000000012609000000000000000000000000000000000000000000000000000000000000000000000000000000000000000000PES00010000001000000000000000000000000000000000000000000                              000000000000000
