201606300010000100000000000020160601                8000000000030500008454Banco Santander Rio           000000000037313000000000000000000000000000000000000000000000000000000000000000000000000000000000000000000000000000000000PES00010000001000000000000000000000000000000000000000000                              000000000000000
201606300010000100000000000020160603                8000000000030500008454Banco Santander Rio           000000000026276000000000000000000000000000000000000000000000000000000000000000000000000000000000000000000000000000000000PES00010000001000000000000000000000000000000000000000000                              000000000000000
201606300010000100000000000020160602                8000000000030500010084Banco Macro                   000000000008625000000000000000000000000000000000000000000000000000000000000000000000000000000000000000000000000000000000PES00010000001000000000000000000000000000000000000000000                              000000000000000
201607120010003900000000000000003828                8000000000033604203819ZOZZOLI SA                    000000000612243000000000000000000000000000000000000000000000000000000000000000000000017690000000000000000000000000000000PES00010000001000000000000000000000000000000000000000000                              000000000000000
201607070010592500000000000000002604                8000000000030687310434INC SA                        000000000084277000000000009700000000000000000000000000000000000000000000000000000000000000000000000000000000000000000000PES00010000001000000000000000000000000000000000000000000                              000000000000000
201607170010592800000000000000001546                8000000000030687310434INC SA                        000000000164442000000000013890000000000000000000000000003642000000000000000000000000000000000000000000000000000000000000PES00010000001000000000000000000000000000000000000000000                              000000000000000
201607180010187300000000000000014241                8000000000030590360763CENCOSUD SA                   000000000091207000000000000000000000000000000000000000002207000000000000000000000000000000000000000000000000000000000000PES00010000001000000000000000000000000000000000000000000                              000000000000000
201607140010189100000000000000021341                8000000000030590360763CENCOSUD SA                   000000000092864000000000000000000000000000000000000000002247000000000000000000000000000000000000000000000000000000000000PES00010000001000000000000000000000000000000000000000000                              000000000000000
201607300010005800000000000000003806                8000000000020050768431SUCESION DE CARATTONI GUSTAVO 000000000085828000000000000000000000000000000000000000000000000000000000000000000000002480000000000000000000000000000000PES00010000001000000000000000000000000000000000000000000                              000000000000000
201607260010009200000000000000001495                8000000000030700082101DAMESCO SA                    000000000171830000000000000000000000000000000000000000000000000000000000000000000000000000000000000000000000000000000000PES00010000002000000000000000000000000000000000000000000                              000000000000000
201607260010009200000000001111111495                8000000000030700082101DAMESCO SA                    000000000029491000000000000000000000000000000000000000000000000000000000000000000000000000000000000000000000000000000000PES00010000001000000000000000000000000000000000000000000                              000000000000000
201607140010009200000000000000001466                8000000000030700082101DAMESCO SA                    000000000249777000000000000000000000000000000000000000000000000000000000000000000000000000000000000000000000000000000000PES00010000002000000000000000000000000000000000000000000                              000000000000000
201607140010009200000000001111111466                8000000000030700082101DAMESCO SA                    000000000145457000000000000000000000000000000000000000000000000000000000000000000000000000000000000000000000000000000000PES00010000001000000000000000000000000000000000000000000                              000000000000000
201607260010002100000000000000049012                8000000000030708334592M LOGISTICA Y DISTRIBUCION SRL000000000050000000000000008867000000000000000000000000000000000000000000000000000000000000000000000000000000000000000000PES00010000001000000000000000000000000000000000000000000                              000000000000000
201607220010002100000000000000048496                8000000000030708334592M LOGISTICA Y DISTRIBUCION SRL000000000050000000000000008867000000000000000000000000000000000000000000000000000000000000000000000000000000000000000000PES00010000001000000000000000000000000000000000000000000                              000000000000000
201607110010002100000000000000047294                8000000000030708334592M LOGISTICA Y DISTRIBUCION SRL000000000020000000000000003547000000000000000000000000000000000000000000000000000000000000000000000000000000000000000000PES00010000001000000000000000000000000000000000000000000                              000000000000000
201607140010002100000000000000047599                8000000000030708334592M LOGISTICA Y DISTRIBUCION SRL000000000050000000000000008867000000000000000000000000000000000000000000000000000000000000000000000000000000000000000000PES00010000001000000000000000000000000000000000000000000                              000000000000000
201607050010002100000000000000046662                8000000000030708334592M LOGISTICA Y DISTRIBUCION SRL000000000130000000000000022888000000000000000000000000000000000000000000000000000000000000000000000000000000000000000000PES00010000001000000000000000000000000000000000000000000                              000000000000000
201607070010002100000000000000046899                8000000000030708334592M LOGISTICA Y DISTRIBUCION SRL000000000133000000000000023588000000000000000000000000000000000000000000000000000000000000000000000000000000000000000000PES00010000001000000000000000000000000000000000000000000                              000000000000000
201607040010000800000000000000005193                8000000000030711794286MASTER CLEAN SA               000000000196833000000000000000000000000000000000000000000000000000000000000000000000000000000000000000000000000000000000PES00010000001000000000000000000000000000000000000000000                              000000000000000
