201803020010000200000000000000000006000000000000000000068000000000027134146600GOMEZ MARIA EUGENIA           000000000120032000000000000000000000000000000000000000000000000000000000000000000000000000000000000000000000000000000000PES00010000001000000000000000000000000
201803090010000200000000000000000007000000000000000000078000000000027110806391CISTERNA LILIANA BLANCA       000000000211070000000000000000000000000000000000000000000000000000000000000000000000000000000000000000000000000000000000PES00010000001000000000000000000000000
201803120010000200000000000000000008000000000000000000088000000000020302227676ZURETTI PABLO GASTON          000000000051664000000000000000000000000000000000000000000000000000000000000000000000000000000000000000000000000000000000PES00010000001000000000000000000000000
201803120010000200000000000000000009000000000000000000098000000000027110806391CISTERNA LILIANA BLANCA       000000000060200000000000000000000000000000000000000000000000000000000000000000000000000000000000000000000000000000000000PES00010000001000000000000000000000000
201803120010000200000000000000000010000000000000000000108000000000020393608227LA FUENTE AGUSTIN EMILIO      000000000026687000000000000000000000000000000000000000000000000000000000000000000000000000000000000000000000000000000000PES00010000001000000000000000000000000
201803150010000200000000000000000011000000000000000000118000000000020393608227LA FUENTE AGUSTIN EMILIO      000000000016233000000000000000000000000000000000000000000000000000000000000000000000000000000000000000000000000000000000PES00010000001000000000000000000000000
201803210060000200000000000000000003000000000000000000038000000000030651559630COOPERADORA ASISTENCIAL DE LA 000000000702094000000000000000000000000000000000000000000000000000000000000000000000000000000000000000000000000000000000PES00010000001000000000000000000000000
201803260010000200000000000000000012000000000000000000128000000000033681256089DROGUERIA SAN FRANCISCO S A   000000001039841000000000000000000000000000000000000000000000000000000000000000000000000000000000000000000000000000000000PES00010000001000000000000000000000000
201803290010000200000000000000000013000000000000000000138000000000027134146600GOMEZ MARIA EUGENIA           000000000120032000000000000000000000000000000000000000000000000000000000000000000000000000000000000000000000000000000000PES00010000002000000000000000000000000