201608010010001000000000000000000015000000000000000000158000000000030562431434ALLIANCE ONE TOBACCO ARGENTINA000000000010002000000000000000000000000000000000000000000000000000000000000000000000000000000000000000000000000000000000PES00010000001000000000000000020160801
201608100010001000000000000000000016000000000000000000168000000000030562431434ALLIANCE ONE TOBACCO ARGENTINA000000009310140000000000000000000000000000000000000009310140000000000000000000000000000000000000000000000000000000000000PES00010000001E00000000000000020160810
201608250010001000000000000000000017000000000000000000178000000000030562431434ALLIANCE ONE TOBACCO ARGENTINA000000006947640000000000000000000000000000000000000006947640000000000000000000000000000000000000000000000000000000000000PES00010000001E00000000000000020160825
201608250010001000000000000000000018000000000000000000188000000000033570210659BAYTON SOCIEDAD ANONIM        000000000200001000000000000000000000000000000000000000000000000000000000000000000000000000000000000000000000000000000000PES00010000001000000000000000020160825
