201605310010000100000000000020160501                8000000000033537186009Banco HSBC                    000000000046343000000000000000000000000000000000000000000000000000000000000000000000000000000000000000000000000000000000PES00010000001000000000000000000000000000000000000000000                              000000000000000
201606270010003600000000000000014746                8000000000030564066784SINTEPLAST SA                 000000000771080000000000000000000000000000000000000000018655000000000000000000000000000000000000000000000000000000000000PES00010000001000000000000000000000000000000000000000000                              000000000000000
201605310010000600000000000000047402                8000000000030707494944PRODUCTOS QUIMICOS SALTA SRL  000000000194195000000000000000000000000000000000000000000000000000000000000000000000005611000000000000000000000000000000PES00010000001000000000000000000000000000000000000000000                              000000000000000
201605310010002400000000000000001480                8000000000030681305129PROMET SRL                    000000000100522000000000000000000000000000000000000000000000000000000000000000000000002877000000000000959000000000000000PES00010000001000000000000000000000000000000000000000000                              000000000000000
201606010010000300000000000000028184                8000000000033680021819GRAZIOLI SRL                  000000000164980000000000000000000000000000000000000000000000000000000000000000000000000000000000000000000000000000000000PES00010000001000000000000000000000000000000000000000000                              000000000000000
201606060010000300000000000000000220                8000000000030710537484IMPRENTA MAESTRO SH           000000000062816000000000000000000000000000000000000000000000000000000000000000000000001815000000000000000000000000000000PES00010000001000000000000000000000000000000000000000000                              000000000000000
201606030010000300000000000000000212                8000000000030710537484IMPRENTA MAESTRO SH           000000000044280000000000000000000000000000000000000000000000000000000000000000000000001279000000000000000000000000000000PES00010000001000000000000000000000000000000000000000000                              000000000000000
201606070010000200000000000000011202                8000000000033647632829CARLOS FLORES SH              000000000106380000000000000000000000000000000000000000000000000000000000000000000000003074000000000000000000000000000000PES00010000001000000000000000000000000000000000000000000                              000000000000000
201606070010000200000000000000011201                8000000000033647632829CARLOS FLORES SH              000000000027988000000000000000000000000000000000000000000000000000000000000000000000000809000000000000000000000000000000PES00010000001000000000000000000000000000000000000000000                              000000000000000
201606030010000100000000000000001230                8000000000030714953660LA Y P SRL                    000000000016296000000000000000000000000000000000000000000000000000000000000000000000000000000000000000000000000000000000PES00010000001000000000000000000000000000000000000000000                              000000000000000
201605260010000300000000000000074617                8000000000030709797545M LLAO SRL                    000000000010503000000000000000000000000000000000000000000000000000000000000000000000000000000000000000000000000000000000PES00010000001000000000000000000000000000000000000000000                              000000000000000
201606060010002100000000000000000752                8000000000030714798037TUCUCOL SRL                   000000000036697000000000000000000000000000000000000000000000000000000000000000000000000000000000000000000000000000000000PES00010000001000000000000000000000000000000000000000000                              000000000000000
201606060010000700000000000000037216                8000000000030700052040BRINDAR SA                    000000000015486000000000000000000000000000000000000000000000000000000000000000000000000000000000000000000000000000000000PES00010000001000000000000000000000000000000000000000000                              000000000000000
201606070010007200000000000000060159                8000000000030696173008TRADELOG SA                   000000000268623000000000000000000000000000000000000000000000000000000000000000000000000000000000000000000000000000000000PES00010000001000000000000000000000000000000000000000000                              000000000000000
201606040010001100000000000000123938                8000000000030707407006EXTRA POWER SA                000000000153652000000000000000000000000000000000000000000000000000000000000000000000000000000000000000000000000000000000PES00010000001000000000000000000000000000000000000000000                              000000000000000
201606040010001100000000000000123936                8000000000030707407006EXTRA POWER SA                000000000956426000000000000000000000000000000000000000000000000000000000000000000000000000000000000000000000000000000000PES00010000001000000000000000000000000000000000000000000                              000000000000000
201606040010001100000000000000123935                8000000000030707407006EXTRA POWER SA                000000000941298000000000000000000000000000000000000000000000000000000000000000000000000000000000000000000000000000000000PES00010000002000000000000000000000000000000000000000000                              000000000000000
201606040010001100000000001111123935                8000000000030707407006EXTRA POWER SA                000000000037265000000000000000000000000000000000000000000000000000000000000000000000000000000000000000000000000000000000PES00010000001000000000000000000000000000000000000000000                              000000000000000
201606100010000300000000000000028237                8000000000033680021819GRAZIOLI SRL                  000000000206599000000000000000000000000000000000000000000000000000000000000000000000000000000000000000000000000000000000PES00010000001000000000000000000000000000000000000000000                              000000000000000
201606040010001100000000000000123937                8000000000030707407006EXTRA POWER SA                000000001409622000000000000000000000000000000000000000000000000000000000000000000000000000000000000000000000000000000000PES00010000001000000000000000000000000000000000000000000                              000000000000000
201606130010000600000000000000047722                8000000000030707494944PRODUCTOS QUIMICOS SALTA SRL  000000000199389000000000000000000000000000000000000000000000000000000000000000000000005761000000000000000000000000000000PES00010000001000000000000000000000000000000000000000000                              000000000000000
201606110010188100000000000000012802                8000000000030590360763CENCOSUD SA                   000000000036500000000000000000000000000000000000000000000000000000000000000000000000000000000000000000000000000000000000PES00010000001000000000000000000000000000000000000000000                              000000000000000
201606080010000400000000000000008414                8000000000030555427227HJ HERRERA SRL                000000000492441000000000000000000000000000000000000000000000000000000000000000000000011914000000000000000000000000000000PES00010000001000000000000000000000000000000000000000000                              000000000000000
201606140010003600000000000000014605                8000000000030564066784SINTEPLAST SA                 000000000407830000000000000000000000000000000000000000009867000000000000000000000000000000000000000000000000000000000000PES00010000001000000000000000000000000000000000000000000                              000000000000000
201606220010001000000000000000014464                8000000000030681330301ELECTRICIDAD RD SRL           000000000071720000000000000000000000000000000000000000000000000000000000000000000000000000000000000000000000000000000000PES00010000001000000000000000000000000000000000000000000                              000000000000000
201606140010011100000000000000044277                8000000000033502734259ERPA SACIF                    000000001025423000000000000000000000000000000000000000000000000000000000000000000000000000000000000000000000000000000000PES00010000001000000000000000000000000000000000000000000                              000000000000000
201606140010011100000000000000044278                8000000000033502734259ERPA SACIF                    000000003054460000000000000000000000000000000000000000000000000000000000000000000000000000000000000000000000000000000000PES00010000001000000000000000000000000000000000000000000                              000000000000000
201606230010000300000000000000028307                8000000000033680021819GRAZIOLI SRL                  000000000223886000000000000000000000000000000000000000000000000000000000000000000000000000000000000000000000000000000000PES00010000001000000000000000000000000000000000000000000                              000000000000000
201606230010002400000000000000001716                8000000000030681305129PROMET SRL                    000000000360767000000000000000000000000000000000000000000000000000000000000000000000010388000000000001241000000000000000PES00010000001000000000000000000000000000000000000000000                              000000000000000
201606240010001600000000000000017564                8000000000030681330301ELECTRICIDAD RD SRL           000000000038922000000000000000000000000000000000000000000000000000000000000000000000000000000000000000000000000000000000PES00010000001000000000000000000000000000000000000000000                              000000000000000
201606210030000400000000000000005699                8000000000030688372085ELECTRO MAYO SA               000000000088233000000000000000000000000000000000000000000000000000000000000000000000000000000000000000000000000000000000PES00010000001000000000000000000000000000000000000000000                              000000000000000
201603310030000400000000000000004429                8000000000030688372085ELECTRO MAYO SA               000000001088268000000000000000000000000000000000000000000000000000000000000000000000000000000000000000000000000000000000PES00010000001000000000000000000000000000000000000000000                              000000000000000
201604290030000400000000000000004972                8000000000030688372085ELECTRO MAYO SA               000000000398282000000000000000000000000000000000000000000000000000000000000000000000000000000000000000000000000000000000PES00010000001000000000000000000000000000000000000000000                              000000000000000
201605310030000400000000000000005607                8000000000030688372085ELECTRO MAYO SA               000000000293774000000000000000000000000000000000000000000000000000000000000000000000000000000000000000000000000000000000PES00010000001000000000000000000000000000000000000000000                              000000000000000
