201703030060000200000000000000000004000000000000000000049600000000000027520964CABANA RAUL FABIAN            000000000198297000000000000000000000000000000000000000000000000000000000000000000000000000000000000000000000000000000000PES00010000001000000000000000000000000
201703070060000200000000000000000005000000000000000000059600000000000032408661GUTIERREZ RICARDO JOSE ALBERTO000000000059761000000000000000000000000000000000000000000000000000000000000000000000000000000000000000000000000000000000PES00010000001000000000000000000000000
201703140060000200000000000000000006000000000000000000069600000000000031846194POSADAS SERGIO SEBASTIAN      000000000023500000000000000000000000000000000000000000000000000000000000000000000000000000000000000000000000000000000000PES00010000001000000000000000000000000
201703210060000200000000000000000007000000000000000000079600000000000022420569QUISPE IRMA ELENA             000000000413278000000000000000000000000000000000000000000000000000000000000000000000000000000000000000000000000000000000PES00010000001000000000000000000000000
201703230060000200000000000000000008000000000000000000089600000000000033681113TERRADEZ OSCAR MARCELO        000000000684300000000000000000000000000000000000000000000000000000000000000000000000000000000000000000000000000000000000PES00010000001000000000000000000000000
