201611300010000100000000000020161101                8000000000030500008454BANCO SANTANDER RIO           000000000079860000000000000000000000000000000000000000000000000000000000000000000000000000000000000000000000000000000000PES00010000001000000000000000000000000000000000000000000                              000000000000000
201611150010000400000000000000007738                8000000000020104513825HECTOR H MAESTRO              000000000293923000000000000000000000000000000000000000000000000000000000000000000000000000000000000000000000000000000000PES00010000001000000000000000000000000000000000000000000                              000000000000000
201611160010000400000000000000007749                8000000000020104513825HECTOR H MAESTRO              000000000026303000000000000000000000000000000000000000000000000000000000000000000000000000000000000000000000000000000000PES00010000002000000000000000000000000000000000000000000                              000000000000000
201611160010000400000000000111117749                8000000000020104513825HECTOR H MAESTRO              000000000709300000000000000000000000000000000000000000000000000000000000000000000000000000000000000000000000000000000000PES00010000001000000000000000000000000000000000000000000                              000000000000000
201611150010000400000000000000007737                8000000000020104513825HECTOR H MAESTRO              000000000062901000000000000000000000000000000000000000000000000000000000000000000000000000000000000000000000000000000000PES00010000001000000000000000000000000000000000000000000                              000000000000000
201612070010000400000000000000008152                8000000000020104513825HECTOR H MAESTRO              000000000248615000000000000000000000000000000000000000000000000000000000000000000000000000000000000000000000000000000000PES00010000002000000000000000000000000000000000000000000                              000000000000000
201612070010000400000000011111118152                8000000000020104513825HECTOR H MAESTRO              000000000402911000000000000000000000000000000000000000000000000000000000000000000000000000000000000000000000000000000000PES00010000001000000000000000000000000000000000000000000                              000000000000000
201611170010000400000000000000007774                8000000000020104513825HECTOR H MAESTRO              000000000414844000000000000000000000000000000000000000000000000000000000000000000000000000000000000000000000000000000000PES00010000001000000000000000000000000000000000000000000                              000000000000000
201611010010000400000000000000007353                8000000000020104513825HECTOR H MAESTRO              000000000573051000000000000000000000000000000000000000000000000000000000000000000000000000000000000000000000000000000000PES00010000002000000000000000000000000000000000000000000                              000000000000000
201611010010000400000000011111117353                8000000000020104513825HECTOR H MAESTRO              000000001734910000000000000000000000000000000000000000000000000000000000000000000000000000000000000000000000000000000000PES00010000001000000000000000000000000000000000000000000                              000000000000000
201612150010000400000000000000008314                8000000000020104513825HECTOR H MAESTRO              000000000795600000000000000000000000000000000000000000000000000000000000000000000000000000000000000000000000000000000000PES00010000001000000000000000000000000000000000000000000                              000000000000000
201611170010000400000000000000007780                8000000000020104513825HECTOR H MAESTRO              000000000049713000000000000000000000000000000000000000000000000000000000000000000000000000000000000000000000000000000000PES00010000001000000000000000000000000000000000000000000                              000000000000000
201611050010000400000000000000007517                8000000000020104513825HECTOR H MAESTRO              000000000152750000000000000000000000000000000000000000000000000000000000000000000000000000000000000000000000000000000000PES00010000002000000000000000000000000000000000000000000                              000000000000000
201611050010000400000000001111117517                8000000000020104513825HECTOR H MAESTRO              000000000080898000000000000000000000000000000000000000000000000000000000000000000000000000000000000000000000000000000000PES00010000001000000000000000000000000000000000000000000                              000000000000000
201610260010000400000000000000007279                8000000000020104513825HECTOR H MAESTRO              000000000072081000000000000000000000000000000000000000000000000000000000000000000000000000000000000000000000000000000000PES00010000002000000000000000000000000000000000000000000                              000000000000000
201610260010000400000000011111117279                8000000000020104513825HECTOR H MAESTRO              000000000358883000000000000000000000000000000000000000000000000000000000000000000000000000000000000000000000000000000000PES00010000001000000000000000000000000000000000000000000                              000000000000000
201610260010000400000000000000007275                8000000000020104513825HECTOR H MAESTRO              000000000070936000000000000000000000000000000000000000000000000000000000000000000000000000000000000000000000000000000000PES00010000002000000000000000000000000000000000000000000                              000000000000000
201610260010000400000000011111117275                8000000000020104513825HECTOR H MAESTRO              000000001819710000000000000000000000000000000000000000000000000000000000000000000000000000000000000000000000000000000000PES00010000001000000000000000000000000000000000000000000                              000000000000000
201612270010000400000000000000008576                8000000000020104513825HECTOR H MAESTRO              000000000808464000000000000000000000000000000000000000000000000000000000000000000000000000000000000000000000000000000000PES00010000002000000000000000000000000000000000000000000                              000000000000000
201612270010000400000000001111118576                8000000000020104513825HECTOR H MAESTRO              000000000072340000000000000000000000000000000000000000000000000000000000000000000000000000000000000000000000000000000000PES00010000001000000000000000000000000000000000000000000                              000000000000000
201611220010010600000000000000007625                8000000000030559715081SUPERMAT SA                   000000000982556000000000000000000000000000000000000000000000000000000000000000000000017937000000000000000000000000000000PES00010000001000000000000000000000000000000000000000000                              000000000000000
201611250010010600000000000000007640                8000000000030559715081SUPERMAT SA                   000000001305756000000000000000000000000000000000000000000000000000000000000000000000023837000000000000000000000000000000PES00010000001000000000000000000000000000000000000000000                              000000000000000
201611250030010600000000000000001851                8000000000030559715081SUPERMAT SA                   000000000064213000000000000000000000000000000000000000000000000000000000000000000000001172000000000000000000000000000000PES00010000001000000000000000000000000000000000000000000                              000000000000000
201610260010010600000000000000007513                8000000000030559715081SUPERMAT SA                   000000000136819000000000000000000000000000000000000000000000000000000000000000000000002498000000000000000000000000000000PES00010000001000000000000000000000000000000000000000000                              000000000000000
201611150010010600000000000000007580                8000000000030559715081SUPERMAT SA                   000000002533112000000000000000000000000000000000000000000000000000000000000000000000046243000000000000000000000000000000PES00010000001000000000000000000000000000000000000000000                              000000000000000
201610270010010600000000000000007514                8000000000030559715081SUPERMAT SA                   000000000633278000000000000000000000000000000000000000000000000000000000000000000000011561000000000000000000000000000000PES00010000001000000000000000000000000000000000000000000                              000000000000000
201610270030010600000000000000001821                8000000000030559715081SUPERMAT SA                   000000000083418000000000000000000000000000000000000000000000000000000000000000000000001523000000000000000000000000000000PES00010000001000000000000000000000000000000000000000000                              000000000000000
201612230010000500000000000000037026                8000000000030707174389DERGAM SRL                    000000000049277000000000000000000000000000000000000000000000000000000000000000000000001192000000000000000000000000000000PES00010000001000000000000000000000000000000000000000000                              000000000000000
201612230010000500000000000000037025                8000000000030707174389DERGAM SRL                    000000000036669000000000000000000000000000000000000000000000000000000000000000000000000887000000000000000000000000000000PES00010000001000000000000000000000000000000000000000000                              000000000000000
201611020010000500000000000000036111                8000000000030707174389DERGAM SRL                    000000000011212000000000000000000000000000000000000000000000000000000000000000000000000271000000000000000000000000000000PES00010000001000000000000000000000000000000000000000000                              000000000000000
201611080010000500000000000000036222                8000000000030707174389DERGAM SRL                    000000000019009000000000000000000000000000000000000000000000000000000000000000000000000460000000000000000000000000000000PES00010000001000000000000000000000000000000000000000000                              000000000000000
201611080010000400000000000000012401                8000000000030711931402HIPERPLACA SRL                000000000022022000000000000000000000000000000000000000000000000000000000000000000000000000000000000000000000000000000000PES00010000001000000000000000000000000000000000000000000                              000000000000000
201610190010000400000000000000012130                8000000000030711931402HIPERPLACA SRL                000000000534043000000000000000000000000000000000000000000000000000000000000000000000000000000000000000000000000000000000PES00010000001000000000000000000000000000000000000000000                              000000000000000
201610130010000400000000000000012057                8000000000030711931402HIPERPLACA SRL                000000000022506000000000000000000000000000000000000000000000000000000000000000000000000000000000000000000000000000000000PES00010000001000000000000000000000000000000000000000000                              000000000000000
201611010010000400000000000000012322                8000000000030711931402HIPERPLACA SRL                000000000138279000000000000000000000000000000000000000000000000000000000000000000000000000000000000000000000000000000000PES00010000001000000000000000000000000000000000000000000                              000000000000000
201611040010000400000000000000012360                8000000000030711931402HIPERPLACA SRL                000000000184970000000000000000000000000000000000000000000000000000000000000000000000000000000000000000000000000000000000PES00010000001000000000000000000000000000000000000000000                              000000000000000
201612210010000300000000000000000082                8000000000027123278785CORTEZ SONIA MARGARITA        000000004320000000000000000000000000000000000000000000000000000000000000000000000000000000000000000000000000000000000000PES00010000001000000000000000000000000000000000000000000                              000000000000000
201610310010000400000000000000005307                8000000000030675407416FERRETERA DEL NORTE SRL       000000000915136000000000000000000000000000000000000000000000000000000000000000000000000000000000000000000000000000000000PES00010000001000000000000000000000000000000000000000000                              000000000000000
201609120010000200000000000000000007                8000000000020239843396NOCETI DIEGO                  000000002178000000000000000000000000000000000000000000000000000000000000000000000000000000000000000000000000000000000000PES00010000001000000000000000000000000000000000000000000                              000000000000000
201610250010000500000000000000000803                8000000000020164615023OTTO EDGAR DENIS              000000001000000000000000000000000000000000000000000000000000000000000000000000000000000000000000000000000000000000000000PES00010000001000000000000000000000000000000000000000000                              000000000000000
201612020010000300000000000000017415                8000000000030707656251PORTICO CONSTRUCCIONES SA     000000000531688000000000000000000000000000000000000000000000000000000000000000000000000000000000000000000000000000000000PES00010000001000000000000000000000000000000000000000000                              000000000000000
201612050010000100000000000000000046                8000000000030714959634INDUSPARQUET NOA SA           000000000899000000000000000000000000000000000000000000000000000000000000000000000000000000000000000000000000000000000000PES00010000001000000000000000000000000000000000000000000                              000000000000000
201612070010001500000000000000016340                8000000000030576374247AB CONSTRUCCIONES SRL         000000000117211000000000000000000000000000000000000000000000000000000000000000000000002836000000000000000000000000000000PES00010000001000000000000000000000000000000000000000000                              000000000000000
201612060010000100000000000000000926                8000000000023207073229JORGE ALBERTO GAVENDA         000000002750000000000000000000000000000000000000000000000000000000000000000000000000000000000000000000000000000000000000PES00010000001000000000000000000000000000000000000000000                              000000000000000
201612060010000100000000000000000925                8000000000023207073229JORGE ALBERTO GAVENDA         000000002520000000000000000000000000000000000000000000000000000000000000000000000000000000000000000000000000000000000000PES00010000001000000000000000000000000000000000000000000                              000000000000000
201612020010084300000000000000000294                8000000000030525966859RIBEIRO SACIFAEI              000000000499800000000000000000000000000000000000000000000000000000000000000000000000000000000000000000000000000000000000PES00010000001000000000000000000000000000000000000000000                              000000000000000
201612120010001400000000000000005909                8000000000030559732830JUJUY MATERIALES SRL          000000000050000000000000000000000000000000000000000000000000000000000000000000000000000000000000000000000000000000000000PES00010000001000000000000000000000000000000000000000000                              000000000000000
201612020010001400000000000000005715                8000000000030559732830JUJUY MATERIALES SRL          000000000102499000000000000000000000000000000000000000000000000000000000000000000000000000000000000000000000000000000000PES00010000001000000000000000000000000000000000000000000                              000000000000000
201612230010001700000000000000009664                8000000000030707746188MAGNETO SRL                   000000000110000000000000024833000000000000000000000000000000000000000000000000000000000000000000000000000000000000000000PES00010000001000000000000000000000000000000000000000000                              000000000000000
201612090010002700000000000000010893                8000000000030557717400FERTEL SA                     000000000128499000000000000000000000000000000000000000000000000000000000000000000000003713000000000000000000000000000000PES00010000001000000000000000000000000000000000000000000                              000000000000000
201612160010002700000000000000011019                8000000000030557717400FERTEL SA                     000000000138999000000000000000000000000000000000000000000000000000000000000000000000004016000000000000000000000000000000PES00010000001000000000000000000000000000000000000000000                              000000000000000
201612280010000800000000000000075620                8000000000027129388612BLASCO SILVIA MONICA          000000000104004000000000025459000000000000000000000000000000000000000000000000000000000000000000000000000000000000000000PES00010000001000000000000000000000000000000000000000000                              000000000000000
