201612010060000200000000000000009378000000000000000093788000000000020000000001Consumidor Final              000000000112000000000000000000000000000000000000000000000000000000000000000000000000000000000000000000000000000000000000PES00010000001000000000000000020161201
201612010060000200000000000000009379000000000000000093798000000000020000000001Consumidor Final              000000000045000000000000000000000000000000000000000000000000000000000000000000000000000000000000000000000000000000000000PES00010000001000000000000000020161201
201612010060000200000000000000009380000000000000000093808000000000020000000001Consumidor Final              000000000023000000000000000000000000000000000000000000000000000000000000000000000000000000000000000000000000000000000000PES00010000001000000000000000020161201
201612010060000200000000000000009381000000000000000093818000000000020000000001Consumidor Final              000000000100000000000000000000000000000000000000000000000000000000000000000000000000000000000000000000000000000000000000PES00010000001000000000000000020161201
201612010060000200000000000000009382000000000000000093828000000000020000000001Consumidor Final              000000000025000000000000000000000000000000000000000000000000000000000000000000000000000000000000000000000000000000000000PES00010000001000000000000000020161201
201612010060000200000000000000009383000000000000000093838000000000020000000001Consumidor Final              000000000144000000000000000000000000000000000000000000000000000000000000000000000000000000000000000000000000000000000000PES00010000001000000000000000020161201
201612010060000200000000000000009384000000000000000093848000000000020000000001Consumidor Final              000000000251500000000000000000000000000000000000000000000000000000000000000000000000000000000000000000000000000000000000PES00010000001000000000000000020161201
201612010060000200000000000000009385000000000000000093858000000000020000000001Consumidor Final              000000000055000000000000000000000000000000000000000000000000000000000000000000000000000000000000000000000000000000000000PES00010000001000000000000000020161201
201612010060000200000000000000009386000000000000000093868000000000020000000001Consumidor Final              000000000295000000000000000000000000000000000000000000000000000000000000000000000000000000000000000000000000000000000000PES00010000001000000000000000020161201
201612010060000200000000000000009387000000000000000093878000000000020000000001Consumidor Final              000000000060000000000000000000000000000000000000000000000000000000000000000000000000000000000000000000000000000000000000PES00010000001000000000000000020161201
201612010060000200000000000000009388000000000000000093888000000000020000000001Consumidor Final              000000000130000000000000000000000000000000000000000000000000000000000000000000000000000000000000000000000000000000000000PES00010000001000000000000000020161201
201612010060000200000000000000009389000000000000000093898000000000020000000001Consumidor Final              000000000135000000000000000000000000000000000000000000000000000000000000000000000000000000000000000000000000000000000000PES00010000001000000000000000020161201
201612010060000200000000000000009390000000000000000093908000000000020000000001Consumidor Final              000000000458000000000000000000000000000000000000000000000000000000000000000000000000000000000000000000000000000000000000PES00010000001000000000000000020161201
201612010060000200000000000000009391000000000000000093918000000000020000000001Consumidor Final              000000000139000000000000000000000000000000000000000000000000000000000000000000000000000000000000000000000000000000000000PES00010000001000000000000000020161201
201612010060000200000000000000009392000000000000000093928000000000020000000001Consumidor Final              000000000045000000000000000000000000000000000000000000000000000000000000000000000000000000000000000000000000000000000000PES00010000001000000000000000020161201
201612010060000200000000000000009393000000000000000093938000000000020000000001Consumidor Final              000000000045000000000000000000000000000000000000000000000000000000000000000000000000000000000000000000000000000000000000PES00010000001000000000000000020161201
201612010060000200000000000000009394000000000000000093948000000000020000000001Consumidor Final              000000000080000000000000000000000000000000000000000000000000000000000000000000000000000000000000000000000000000000000000PES00010000001000000000000000020161201
201612010060000200000000000000009395000000000000000093958000000000020000000001Consumidor Final              000000000330000000000000000000000000000000000000000000000000000000000000000000000000000000000000000000000000000000000000PES00010000001000000000000000020161201
201612010060000200000000000000009396000000000000000093968000000000020000000001Consumidor Final              000000000085000000000000000000000000000000000000000000000000000000000000000000000000000000000000000000000000000000000000PES00010000001000000000000000020161201
201612010060000200000000000000009397000000000000000093978000000000020000000001Consumidor Final              000000000025000000000000000000000000000000000000000000000000000000000000000000000000000000000000000000000000000000000000PES00010000001000000000000000020161201
201612010060000200000000000000009398000000000000000093988000000000020000000001Consumidor Final              000000000079000000000000000000000000000000000000000000000000000000000000000000000000000000000000000000000000000000000000PES00010000001000000000000000020161201
201612010060000200000000000000009399000000000000000093998000000000020000000001Consumidor Final              000000000048000000000000000000000000000000000000000000000000000000000000000000000000000000000000000000000000000000000000PES00010000001000000000000000020161201
201612020060000200000000000000009400000000000000000094008000000000020000000001Consumidor Final              000000000112500000000000000000000000000000000000000000000000000000000000000000000000000000000000000000000000000000000000PES00010000001000000000000000020161202
201612020060000200000000000000009401000000000000000094018000000000020000000001Consumidor Final              000000000045000000000000000000000000000000000000000000000000000000000000000000000000000000000000000000000000000000000000PES00010000001000000000000000020161202
201612020060000200000000000000009402000000000000000094028000000000020000000001Consumidor Final              000000000194000000000000000000000000000000000000000000000000000000000000000000000000000000000000000000000000000000000000PES00010000001000000000000000020161202
201612020060000200000000000000009403000000000000000094038000000000020000000001Consumidor Final              000000000104000000000000000000000000000000000000000000000000000000000000000000000000000000000000000000000000000000000000PES00010000001000000000000000020161202
201612020060000200000000000000009404000000000000000094048000000000020000000001Consumidor Final              000000000030000000000000000000000000000000000000000000000000000000000000000000000000000000000000000000000000000000000000PES00010000001000000000000000020161202
201612020060000200000000000000009405000000000000000094058000000000020000000001Consumidor Final              000000000089000000000000000000000000000000000000000000000000000000000000000000000000000000000000000000000000000000000000PES00010000001000000000000000020161202
201612020060000200000000000000009406000000000000000094068000000000020000000001Consumidor Final              000000000035000000000000000000000000000000000000000000000000000000000000000000000000000000000000000000000000000000000000PES00010000001000000000000000020161202
201612020060000200000000000000009407000000000000000094078000000000020000000001Consumidor Final              000000000047500000000000000000000000000000000000000000000000000000000000000000000000000000000000000000000000000000000000PES00010000001000000000000000020161202
201612020060000200000000000000009408000000000000000094088000000000020000000001Consumidor Final              000000000154000000000000000000000000000000000000000000000000000000000000000000000000000000000000000000000000000000000000PES00010000001000000000000000020161202
201612020060000200000000000000009409000000000000000094098000000000020000000001Consumidor Final              000000000045000000000000000000000000000000000000000000000000000000000000000000000000000000000000000000000000000000000000PES00010000001000000000000000020161202
201612020060000200000000000000009410000000000000000094108000000000020000000001Consumidor Final              000000000130000000000000000000000000000000000000000000000000000000000000000000000000000000000000000000000000000000000000PES00010000001000000000000000020161202
201612020060000200000000000000009411000000000000000094118000000000020000000001Consumidor Final              000000000303000000000000000000000000000000000000000000000000000000000000000000000000000000000000000000000000000000000000PES00010000001000000000000000020161202
201612020060000200000000000000009412000000000000000094128000000000020000000001Consumidor Final              000000000089000000000000000000000000000000000000000000000000000000000000000000000000000000000000000000000000000000000000PES00010000001000000000000000020161202
201612020060000200000000000000009413000000000000000094138000000000020000000001Consumidor Final              000000000048000000000000000000000000000000000000000000000000000000000000000000000000000000000000000000000000000000000000PES00010000001000000000000000020161202
201612020060000200000000000000009414000000000000000094148000000000020000000001Consumidor Final              000000000048000000000000000000000000000000000000000000000000000000000000000000000000000000000000000000000000000000000000PES00010000001000000000000000020161202
201612020060000200000000000000009415000000000000000094158000000000020000000001Consumidor Final              000000000110000000000000000000000000000000000000000000000000000000000000000000000000000000000000000000000000000000000000PES00010000001000000000000000020161202
201612020060000200000000000000009416000000000000000094168000000000020000000001Consumidor Final              000000000105000000000000000000000000000000000000000000000000000000000000000000000000000000000000000000000000000000000000PES00010000001000000000000000020161202
201612020060000200000000000000009417000000000000000094178000000000020000000001Consumidor Final              000000000070000000000000000000000000000000000000000000000000000000000000000000000000000000000000000000000000000000000000PES00010000001000000000000000020161202
201612020060000200000000000000009418000000000000000094188000000000020000000001Consumidor Final              000000000084000000000000000000000000000000000000000000000000000000000000000000000000000000000000000000000000000000000000PES00010000001000000000000000020161202
201612020060000200000000000000009419000000000000000094198000000000020000000001Consumidor Final              000000000144000000000000000000000000000000000000000000000000000000000000000000000000000000000000000000000000000000000000PES00010000001000000000000000020161202
201612020060000200000000000000009420000000000000000094208000000000020000000001Consumidor Final              000000000135000000000000000000000000000000000000000000000000000000000000000000000000000000000000000000000000000000000000PES00010000001000000000000000020161202
201612030060000200000000000000009421000000000000000094218000000000020000000001Consumidor Final              000000000012000000000000000000000000000000000000000000000000000000000000000000000000000000000000000000000000000000000000PES00010000001000000000000000020161203
201612030060000200000000000000009422000000000000000094228000000000020000000001Consumidor Final              000000000110000000000000000000000000000000000000000000000000000000000000000000000000000000000000000000000000000000000000PES00010000001000000000000000020161203
201612030060000200000000000000009423000000000000000094238000000000020000000001Consumidor Final              000000000110000000000000000000000000000000000000000000000000000000000000000000000000000000000000000000000000000000000000PES00010000001000000000000000020161203
201612030060000200000000000000009424000000000000000094248000000000020000000001Consumidor Final              000000000478500000000000000000000000000000000000000000000000000000000000000000000000000000000000000000000000000000000000PES00010000001000000000000000020161203
201612030060000200000000000000009425000000000000000094258000000000020000000001Consumidor Final              000000000362500000000000000000000000000000000000000000000000000000000000000000000000000000000000000000000000000000000000PES00010000001000000000000000020161203
201612030060000200000000000000009426000000000000000094268000000000020000000001Consumidor Final              000000000475000000000000000000000000000000000000000000000000000000000000000000000000000000000000000000000000000000000000PES00010000001000000000000000020161203
201612030060000200000000000000009427000000000000000094278000000000020000000001Consumidor Final              000000000080000000000000000000000000000000000000000000000000000000000000000000000000000000000000000000000000000000000000PES00010000001000000000000000020161203
201612030060000200000000000000009428000000000000000094288000000000020000000001Consumidor Final              000000000280000000000000000000000000000000000000000000000000000000000000000000000000000000000000000000000000000000000000PES00010000001000000000000000020161203
201612030060000200000000000000009429000000000000000094298000000000020000000001Consumidor Final              000000000405000000000000000000000000000000000000000000000000000000000000000000000000000000000000000000000000000000000000PES00010000001000000000000000020161203
201612030060000200000000000000009430000000000000000094308000000000020000000001Consumidor Final              000000000405000000000000000000000000000000000000000000000000000000000000000000000000000000000000000000000000000000000000PES00010000001000000000000000020161203
201612030060000200000000000000009431000000000000000094318000000000020000000001Consumidor Final              000000000405000000000000000000000000000000000000000000000000000000000000000000000000000000000000000000000000000000000000PES00010000001000000000000000020161203
201612030060000200000000000000009432000000000000000094328000000000020000000001Consumidor Final              000000000405000000000000000000000000000000000000000000000000000000000000000000000000000000000000000000000000000000000000PES00010000001000000000000000020161203
201612030060000200000000000000009433000000000000000094338000000000020000000001Consumidor Final              000000000045000000000000000000000000000000000000000000000000000000000000000000000000000000000000000000000000000000000000PES00010000001000000000000000020161203
201612030060000200000000000000009434000000000000000094348000000000020000000001Consumidor Final              000000000060000000000000000000000000000000000000000000000000000000000000000000000000000000000000000000000000000000000000PES00010000001000000000000000020161203
201612030060000200000000000000009435000000000000000094358000000000020000000001Consumidor Final              000000000009000000000000000000000000000000000000000000000000000000000000000000000000000000000000000000000000000000000000PES00010000001000000000000000020161203
201612030060000200000000000000009436000000000000000094368000000000020000000001Consumidor Final              000000000048000000000000000000000000000000000000000000000000000000000000000000000000000000000000000000000000000000000000PES00010000001000000000000000020161203
201612030060000200000000000000009437000000000000000094378000000000020000000001Consumidor Final              000000000025000000000000000000000000000000000000000000000000000000000000000000000000000000000000000000000000000000000000PES00010000001000000000000000020161203
201612030060000200000000000000009438000000000000000094388000000000020000000001Consumidor Final              000000000035000000000000000000000000000000000000000000000000000000000000000000000000000000000000000000000000000000000000PES00010000001000000000000000020161203
201612030060000200000000000000009439000000000000000094398000000000020000000001Consumidor Final              000000000043000000000000000000000000000000000000000000000000000000000000000000000000000000000000000000000000000000000000PES00010000001000000000000000020161203
201612030060000200000000000000009440000000000000000094408000000000020000000001Consumidor Final              000000000058000000000000000000000000000000000000000000000000000000000000000000000000000000000000000000000000000000000000PES00010000001000000000000000020161203
201612050060000200000000000000009441000000000000000094418000000000020000000001Consumidor Final              000000000107500000000000000000000000000000000000000000000000000000000000000000000000000000000000000000000000000000000000PES00010000001000000000000000020161205
201612050060000200000000000000009442000000000000000094428000000000020000000001Consumidor Final              000000000048000000000000000000000000000000000000000000000000000000000000000000000000000000000000000000000000000000000000PES00010000001000000000000000020161205
201612050060000200000000000000009443000000000000000094438000000000020000000001Consumidor Final              000000000020000000000000000000000000000000000000000000000000000000000000000000000000000000000000000000000000000000000000PES00010000001000000000000000020161205
201612050060000200000000000000009444000000000000000094448000000000020000000001Consumidor Final              000000000085000000000000000000000000000000000000000000000000000000000000000000000000000000000000000000000000000000000000PES00010000001000000000000000020161205
201612050060000200000000000000009445000000000000000094458000000000020000000001Consumidor Final              000000000035000000000000000000000000000000000000000000000000000000000000000000000000000000000000000000000000000000000000PES00010000001000000000000000020161205
201612050060000200000000000000009446000000000000000094468000000000020000000001Consumidor Final              000000000045000000000000000000000000000000000000000000000000000000000000000000000000000000000000000000000000000000000000PES00010000001000000000000000020161205
201612050060000200000000000000009447000000000000000094478000000000020000000001Consumidor Final              000000000065000000000000000000000000000000000000000000000000000000000000000000000000000000000000000000000000000000000000PES00010000001000000000000000020161205
201612050060000200000000000000009448000000000000000094488000000000020000000001Consumidor Final              000000000049000000000000000000000000000000000000000000000000000000000000000000000000000000000000000000000000000000000000PES00010000001000000000000000020161205
201612050060000200000000000000009449000000000000000094499600000000020000000001Consumidor Final              000000000375000000000000000000000000000000000000000000000000000000000000000000000000000000000000000000000000000000000000PES00010000001000000000000000020161205
201612050060000200000000000000009450000000000000000094508000000000020000000001Consumidor Final              000000000130000000000000000000000000000000000000000000000000000000000000000000000000000000000000000000000000000000000000PES00010000001000000000000000020161205
201612050060000200000000000000009451000000000000000094518000000000020000000001Consumidor Final              000000000182500000000000000000000000000000000000000000000000000000000000000000000000000000000000000000000000000000000000PES00010000001000000000000000020161205
201612050060000200000000000000009452000000000000000094528000000000020000000001Consumidor Final              000000000045000000000000000000000000000000000000000000000000000000000000000000000000000000000000000000000000000000000000PES00010000001000000000000000020161205
201612050060000200000000000000009453000000000000000094538000000000020000000001Consumidor Final              000000000079000000000000000000000000000000000000000000000000000000000000000000000000000000000000000000000000000000000000PES00010000001000000000000000020161205
201612050060000200000000000000009454000000000000000094548000000000020000000001Consumidor Final              000000000059000000000000000000000000000000000000000000000000000000000000000000000000000000000000000000000000000000000000PES00010000001000000000000000020161205
201612050060000200000000000000009455000000000000000094558000000000020000000001Consumidor Final              000000000045000000000000000000000000000000000000000000000000000000000000000000000000000000000000000000000000000000000000PES00010000001000000000000000020161205
201612050060000200000000000000009456000000000000000094568000000000020000000001Consumidor Final              000000000095000000000000000000000000000000000000000000000000000000000000000000000000000000000000000000000000000000000000PES00010000001000000000000000020161205
201612050060000200000000000000009457000000000000000094578000000000020000000001ANULADO                       000000000000000000000000000000000000000000000000000000000000000000000000000000000000000000000000000000000000000000000000PES00010000001000000000000000020161205
201612050060000200000000000000009458000000000000000094588000000000020000000001Consumidor Final              000000000047500000000000000000000000000000000000000000000000000000000000000000000000000000000000000000000000000000000000PES00010000001000000000000000020161205
201612050060000200000000000000009459000000000000000094598000000000020000000001Consumidor Final              000000000079000000000000000000000000000000000000000000000000000000000000000000000000000000000000000000000000000000000000PES00010000001000000000000000020161205
201612050060000200000000000000009460000000000000000094608000000000020000000001Consumidor Final              000000000140000000000000000000000000000000000000000000000000000000000000000000000000000000000000000000000000000000000000PES00010000001000000000000000020161205
201612050060000200000000000000009461000000000000000094618000000000020000000001Consumidor Final              000000000040000000000000000000000000000000000000000000000000000000000000000000000000000000000000000000000000000000000000PES00010000001000000000000000020161205
201612050060000200000000000000009462000000000000000094628000000000020000000001Consumidor Final              000000000100000000000000000000000000000000000000000000000000000000000000000000000000000000000000000000000000000000000000PES00010000001000000000000000020161205
201612050060000200000000000000009463000000000000000094638000000000020000000001Consumidor Final              000000000115000000000000000000000000000000000000000000000000000000000000000000000000000000000000000000000000000000000000PES00010000001000000000000000020161205
201612050060000200000000000000009464000000000000000094648000000000020000000001Consumidor Final              000000000205000000000000000000000000000000000000000000000000000000000000000000000000000000000000000000000000000000000000PES00010000001000000000000000020161205
201612050060000200000000000000009465000000000000000094658000000000020000000001Consumidor Final              000000000079000000000000000000000000000000000000000000000000000000000000000000000000000000000000000000000000000000000000PES00010000001000000000000000020161205
201612050060000200000000000000009466000000000000000094668000000000020000000001Consumidor Final              000000000079000000000000000000000000000000000000000000000000000000000000000000000000000000000000000000000000000000000000PES00010000001000000000000000020161205
201612050060000200000000000000009467000000000000000094678000000000020000000001Consumidor Final              000000000190000000000000000000000000000000000000000000000000000000000000000000000000000000000000000000000000000000000000PES00010000001000000000000000020161205
201612050060000200000000000000009468000000000000000094688000000000020000000001Consumidor Final              000000000160000000000000000000000000000000000000000000000000000000000000000000000000000000000000000000000000000000000000PES00010000001000000000000000020161205
201612050060000200000000000000009469000000000000000094698000000000020000000001Consumidor Final              000000000020000000000000000000000000000000000000000000000000000000000000000000000000000000000000000000000000000000000000PES00010000001000000000000000020161205
201612050060000200000000000000009470000000000000000094708000000000020000000001Consumidor Final              000000000140000000000000000000000000000000000000000000000000000000000000000000000000000000000000000000000000000000000000PES00010000001000000000000000020161205
201612050060000200000000000000009471000000000000000094718000000000020000000001Consumidor Final              000000000338000000000000000000000000000000000000000000000000000000000000000000000000000000000000000000000000000000000000PES00010000001000000000000000020161205
201612050060000200000000000000009472000000000000000094728000000000020000000001Consumidor Final              000000000045000000000000000000000000000000000000000000000000000000000000000000000000000000000000000000000000000000000000PES00010000001000000000000000020161205
201612050060000200000000000000009473000000000000000094738000000000020000000001Consumidor Final              000000000088000000000000000000000000000000000000000000000000000000000000000000000000000000000000000000000000000000000000PES00010000001000000000000000020161205
201612060060000200000000000000009474000000000000000094748000000000020000000001Consumidor Final              000000000110000000000000000000000000000000000000000000000000000000000000000000000000000000000000000000000000000000000000PES00010000001000000000000000020161206
201612060060000200000000000000009475000000000000000094758000000000020000000001Consumidor Final              000000000210000000000000000000000000000000000000000000000000000000000000000000000000000000000000000000000000000000000000PES00010000001000000000000000020161206
201612060060000200000000000000009476000000000000000094768000000000020000000001Consumidor Final              000000000039000000000000000000000000000000000000000000000000000000000000000000000000000000000000000000000000000000000000PES00010000001000000000000000020161206
201612060060000200000000000000009477000000000000000094778000000000020000000001Consumidor Final              000000000054000000000000000000000000000000000000000000000000000000000000000000000000000000000000000000000000000000000000PES00010000001000000000000000020161206
201612060060000200000000000000009478000000000000000094788000000000020000000001Consumidor Final              000000000069000000000000000000000000000000000000000000000000000000000000000000000000000000000000000000000000000000000000PES00010000001000000000000000020161206
201612060060000200000000000000009479000000000000000094798000000000020000000001Consumidor Final              000000000030000000000000000000000000000000000000000000000000000000000000000000000000000000000000000000000000000000000000PES00010000001000000000000000020161206
201612060060000200000000000000009480000000000000000094808000000000020000000001Consumidor Final              000000000020000000000000000000000000000000000000000000000000000000000000000000000000000000000000000000000000000000000000PES00010000001000000000000000020161206
201612060060000200000000000000009481000000000000000094818000000000020000000001Consumidor Final              000000000117500000000000000000000000000000000000000000000000000000000000000000000000000000000000000000000000000000000000PES00010000001000000000000000020161206
201612060060000200000000000000009482000000000000000094828000000000020000000001Consumidor Final              000000000075000000000000000000000000000000000000000000000000000000000000000000000000000000000000000000000000000000000000PES00010000001000000000000000020161206
201612060060000200000000000000009483000000000000000094838000000000020000000001Consumidor Final              000000000069000000000000000000000000000000000000000000000000000000000000000000000000000000000000000000000000000000000000PES00010000001000000000000000020161206
201612060060000200000000000000009484000000000000000094848000000000020000000001Consumidor Final              000000000140000000000000000000000000000000000000000000000000000000000000000000000000000000000000000000000000000000000000PES00010000001000000000000000020161206
201612060060000200000000000000009485000000000000000094858000000000020000000001Consumidor Final              000000000095000000000000000000000000000000000000000000000000000000000000000000000000000000000000000000000000000000000000PES00010000001000000000000000020161206
201612060060000200000000000000009486000000000000000094868000000000020000000001Consumidor Final              000000000037500000000000000000000000000000000000000000000000000000000000000000000000000000000000000000000000000000000000PES00010000001000000000000000020161206
201612060060000200000000000000009487000000000000000094878000000000020000000001Consumidor Final              000000000260000000000000000000000000000000000000000000000000000000000000000000000000000000000000000000000000000000000000PES00010000001000000000000000020161206
201612060060000200000000000000009488000000000000000094888000000000020000000001Consumidor Final              000000000075000000000000000000000000000000000000000000000000000000000000000000000000000000000000000000000000000000000000PES00010000001000000000000000020161206
201612060060000200000000000000009489000000000000000094898000000000020000000001Consumidor Final              000000000035000000000000000000000000000000000000000000000000000000000000000000000000000000000000000000000000000000000000PES00010000001000000000000000020161206
201612060060000200000000000000009490000000000000000094908000000000020000000001Consumidor Final              000000000128000000000000000000000000000000000000000000000000000000000000000000000000000000000000000000000000000000000000PES00010000001000000000000000020161206
201612060060000200000000000000009491000000000000000094918000000000020000000001Consumidor Final              000000000148000000000000000000000000000000000000000000000000000000000000000000000000000000000000000000000000000000000000PES00010000001000000000000000020161206
201612060060000200000000000000009492000000000000000094928000000000020000000001Consumidor Final              000000000010000000000000000000000000000000000000000000000000000000000000000000000000000000000000000000000000000000000000PES00010000001000000000000000020161206
201612060060000200000000000000009493000000000000000094938000000000020000000001Consumidor Final              000000000040000000000000000000000000000000000000000000000000000000000000000000000000000000000000000000000000000000000000PES00010000001000000000000000020161206
201612070060000200000000000000009494000000000000000094948000000000020000000001Consumidor Final              000000000058000000000000000000000000000000000000000000000000000000000000000000000000000000000000000000000000000000000000PES00010000001000000000000000020161207
201612070060000200000000000000009495000000000000000094958000000000020000000001Consumidor Final              000000000219000000000000000000000000000000000000000000000000000000000000000000000000000000000000000000000000000000000000PES00010000001000000000000000020161207
201612070060000200000000000000009496000000000000000094968000000000020000000001Consumidor Final              000000000219000000000000000000000000000000000000000000000000000000000000000000000000000000000000000000000000000000000000PES00010000001000000000000000020161207
201612070060000200000000000000009497000000000000000094978000000000020000000001Consumidor Final              000000000070000000000000000000000000000000000000000000000000000000000000000000000000000000000000000000000000000000000000PES00010000001000000000000000020161207
201612070060000200000000000000009498000000000000000094988000000000020000000001Consumidor Final              000000000057000000000000000000000000000000000000000000000000000000000000000000000000000000000000000000000000000000000000PES00010000001000000000000000020161207
201612070060000200000000000000009499000000000000000094998000000000020000000001Consumidor Final              000000000202500000000000000000000000000000000000000000000000000000000000000000000000000000000000000000000000000000000000PES00010000001000000000000000020161207
201612070060000200000000000000009500000000000000000095008000000000020000000001Consumidor Final              000000000132500000000000000000000000000000000000000000000000000000000000000000000000000000000000000000000000000000000000PES00010000001000000000000000020161207
201612070060000200000000000000009501000000000000000095018000000000020000000001Consumidor Final              000000000039000000000000000000000000000000000000000000000000000000000000000000000000000000000000000000000000000000000000PES00010000001000000000000000020161207
201612070060000200000000000000009502000000000000000095028000000000020000000001Consumidor Final              000000000130000000000000000000000000000000000000000000000000000000000000000000000000000000000000000000000000000000000000PES00010000001000000000000000020161207
201612070060000200000000000000009503000000000000000095038000000000020000000001Consumidor Final              000000000130000000000000000000000000000000000000000000000000000000000000000000000000000000000000000000000000000000000000PES00010000001000000000000000020161207
201612070060000200000000000000009504000000000000000095048000000000020000000001Consumidor Final              000000000048000000000000000000000000000000000000000000000000000000000000000000000000000000000000000000000000000000000000PES00010000001000000000000000020161207
201612070060000200000000000000009505000000000000000095058000000000020000000001ANULADO                       000000000000000000000000000000000000000000000000000000000000000000000000000000000000000000000000000000000000000000000000PES00010000001000000000000000020161207
201612070060000200000000000000009506000000000000000095068000000000020000000001Consumidor Final              000000000110000000000000000000000000000000000000000000000000000000000000000000000000000000000000000000000000000000000000PES00010000001000000000000000020161207
201612070060000200000000000000009507000000000000000095078000000000020000000001Consumidor Final              000000000115000000000000000000000000000000000000000000000000000000000000000000000000000000000000000000000000000000000000PES00010000001000000000000000020161207
201612070060000200000000000000009508000000000000000095088000000000020000000001Consumidor Final              000000000069000000000000000000000000000000000000000000000000000000000000000000000000000000000000000000000000000000000000PES00010000001000000000000000020161207
201612070060000200000000000000009509000000000000000095098000000000020000000001Consumidor Final              000000000130000000000000000000000000000000000000000000000000000000000000000000000000000000000000000000000000000000000000PES00010000001000000000000000020161207
201612070060000200000000000000009510000000000000000095108000000000020000000001Consumidor Final              000000000039000000000000000000000000000000000000000000000000000000000000000000000000000000000000000000000000000000000000PES00010000001000000000000000020161207
201612070060000200000000000000009511000000000000000095118000000000020000000001Consumidor Final              000000000140000000000000000000000000000000000000000000000000000000000000000000000000000000000000000000000000000000000000PES00010000001000000000000000020161207
201612070060000200000000000000009512000000000000000095128000000000020000000001Consumidor Final              000000000298000000000000000000000000000000000000000000000000000000000000000000000000000000000000000000000000000000000000PES00010000001000000000000000020161207
201612070060000200000000000000009513000000000000000095138000000000020000000001Consumidor Final              000000000460000000000000000000000000000000000000000000000000000000000000000000000000000000000000000000000000000000000000PES00010000001000000000000000020161207
201612070060000200000000000000009514000000000000000095148000000000020000000001Consumidor Final              000000000110000000000000000000000000000000000000000000000000000000000000000000000000000000000000000000000000000000000000PES00010000001000000000000000020161207
201612070060000200000000000000009515000000000000000095158000000000020000000001Consumidor Final              000000000157000000000000000000000000000000000000000000000000000000000000000000000000000000000000000000000000000000000000PES00010000001000000000000000020161207
201612070060000200000000000000009516000000000000000095168000000000020000000001Consumidor Final              000000000259000000000000000000000000000000000000000000000000000000000000000000000000000000000000000000000000000000000000PES00010000001000000000000000020161207
201612070060000200000000000000009517000000000000000095178000000000020000000001Consumidor Final              000000000120000000000000000000000000000000000000000000000000000000000000000000000000000000000000000000000000000000000000PES00010000001000000000000000020161207
201612070060000200000000000000009518000000000000000095188000000000020000000001Consumidor Final              000000000079000000000000000000000000000000000000000000000000000000000000000000000000000000000000000000000000000000000000PES00010000001000000000000000020161207
201612070060000200000000000000009519000000000000000095198000000000020000000001Consumidor Final              000000000135000000000000000000000000000000000000000000000000000000000000000000000000000000000000000000000000000000000000PES00010000001000000000000000020161207
201612070060000200000000000000009520000000000000000095208000000000020000000001Consumidor Final              000000000110000000000000000000000000000000000000000000000000000000000000000000000000000000000000000000000000000000000000PES00010000001000000000000000020161207
201612070060000200000000000000009521000000000000000095218000000000020000000001Consumidor Final              000000000095000000000000000000000000000000000000000000000000000000000000000000000000000000000000000000000000000000000000PES00010000001000000000000000020161207
201612080060000200000000000000009522000000000000000095228000000000020000000001Consumidor Final              000000000219100000000000000000000000000000000000000000000000000000000000000000000000000000000000000000000000000000000000PES00010000001000000000000000020161208
201612080060000200000000000000009523000000000000000095238000000000020000000001Consumidor Final              000000000110000000000000000000000000000000000000000000000000000000000000000000000000000000000000000000000000000000000000PES00010000001000000000000000020161208
201612080060000200000000000000009524000000000000000095248000000000020000000001Consumidor Final              000000000095000000000000000000000000000000000000000000000000000000000000000000000000000000000000000000000000000000000000PES00010000001000000000000000020161208
201612080060000200000000000000009525000000000000000095258000000000020000000001Consumidor Final              000000000042500000000000000000000000000000000000000000000000000000000000000000000000000000000000000000000000000000000000PES00010000001000000000000000020161208
201612080060000200000000000000009526000000000000000095268000000000020000000001Consumidor Final              000000000037000000000000000000000000000000000000000000000000000000000000000000000000000000000000000000000000000000000000PES00010000001000000000000000020161208
201612080060000200000000000000009527000000000000000095278000000000020000000001Consumidor Final              000000000220000000000000000000000000000000000000000000000000000000000000000000000000000000000000000000000000000000000000PES00010000001000000000000000020161208
201612080060000200000000000000009528000000000000000095288000000000020000000001Consumidor Final              000000000059000000000000000000000000000000000000000000000000000000000000000000000000000000000000000000000000000000000000PES00010000001000000000000000020161208
201612080060000200000000000000009529000000000000000095298000000000020000000001Consumidor Final              000000000138000000000000000000000000000000000000000000000000000000000000000000000000000000000000000000000000000000000000PES00010000001000000000000000020161208
201612080060000200000000000000009530000000000000000095308000000000020000000001Consumidor Final              000000000039000000000000000000000000000000000000000000000000000000000000000000000000000000000000000000000000000000000000PES00010000001000000000000000020161208
201612080060000200000000000000009531000000000000000095318000000000020000000001Consumidor Final              000000000210000000000000000000000000000000000000000000000000000000000000000000000000000000000000000000000000000000000000PES00010000001000000000000000020161208
201612120060000200000000000000009532000000000000000095328000000000020000000001Consumidor Final              000000000150000000000000000000000000000000000000000000000000000000000000000000000000000000000000000000000000000000000000PES00010000001000000000000000020161212
201612120060000200000000000000009533000000000000000095338000000000020000000001Consumidor Final              000000000164000000000000000000000000000000000000000000000000000000000000000000000000000000000000000000000000000000000000PES00010000001000000000000000020161212
201612120060000200000000000000009534000000000000000095348000000000020000000001Consumidor Final              000000000035000000000000000000000000000000000000000000000000000000000000000000000000000000000000000000000000000000000000PES00010000001000000000000000020161212
201612120060000200000000000000009535000000000000000095358000000000020000000001Consumidor Final              000000000085000000000000000000000000000000000000000000000000000000000000000000000000000000000000000000000000000000000000PES00010000001000000000000000020161212
201612120060000200000000000000009536000000000000000095368000000000020000000001Consumidor Final              000000000026000000000000000000000000000000000000000000000000000000000000000000000000000000000000000000000000000000000000PES00010000001000000000000000020161212
201612120060000200000000000000009537000000000000000095378000000000020000000001ANULADO                       000000000000000000000000000000000000000000000000000000000000000000000000000000000000000000000000000000000000000000000000PES00010000001000000000000000020161212
201612120060000200000000000000009538000000000000000095388000000000020000000001Consumidor Final              000000000150000000000000000000000000000000000000000000000000000000000000000000000000000000000000000000000000000000000000PES00010000001000000000000000020161212
201612120060000200000000000000009539000000000000000095398000000000020000000001Consumidor Final              000000000045000000000000000000000000000000000000000000000000000000000000000000000000000000000000000000000000000000000000PES00010000001000000000000000020161212
201612120060000200000000000000009540000000000000000095408000000000020000000001Consumidor Final              000000000045000000000000000000000000000000000000000000000000000000000000000000000000000000000000000000000000000000000000PES00010000001000000000000000020161212
201612120060000200000000000000009541000000000000000095418000000000020000000001Consumidor Final              000000000110000000000000000000000000000000000000000000000000000000000000000000000000000000000000000000000000000000000000PES00010000001000000000000000020161212
201612120060000200000000000000009542000000000000000095428000000000020000000001Consumidor Final              000000000080000000000000000000000000000000000000000000000000000000000000000000000000000000000000000000000000000000000000PES00010000001000000000000000020161212
201612120060000200000000000000009543000000000000000095438000000000020000000001Consumidor Final              000000000075000000000000000000000000000000000000000000000000000000000000000000000000000000000000000000000000000000000000PES00010000001000000000000000020161212
201612120060000200000000000000009544000000000000000095448000000000020000000001Consumidor Final              000000000037000000000000000000000000000000000000000000000000000000000000000000000000000000000000000000000000000000000000PES00010000001000000000000000020161212
201612120060000200000000000000009545000000000000000095458000000000020000000001Consumidor Final              000000000097500000000000000000000000000000000000000000000000000000000000000000000000000000000000000000000000000000000000PES00010000001000000000000000020161212
201612120060000200000000000000009546000000000000000095468000000000020000000001Consumidor Final              000000000040000000000000000000000000000000000000000000000000000000000000000000000000000000000000000000000000000000000000PES00010000001000000000000000020161212
201612120060000200000000000000009547000000000000000095478000000000020000000001Consumidor Final              000000000064500000000000000000000000000000000000000000000000000000000000000000000000000000000000000000000000000000000000PES00010000001000000000000000020161212
201612120060000200000000000000009548000000000000000095488000000000020000000001Consumidor Final              000000000084000000000000000000000000000000000000000000000000000000000000000000000000000000000000000000000000000000000000PES00010000001000000000000000020161212
201612120060000200000000000000009549000000000000000095498000000000020000000001Consumidor Final              000000000045000000000000000000000000000000000000000000000000000000000000000000000000000000000000000000000000000000000000PES00010000001000000000000000020161212
201612120060000200000000000000009550000000000000000095508000000000020000000001Consumidor Final              000000000150000000000000000000000000000000000000000000000000000000000000000000000000000000000000000000000000000000000000PES00010000001000000000000000020161212
201612120060000200000000000000009551000000000000000095518000000000020000000001Consumidor Final              000000000170000000000000000000000000000000000000000000000000000000000000000000000000000000000000000000000000000000000000PES00010000001000000000000000020161212
201612120060000200000000000000009552000000000000000095528000000000020000000001Consumidor Final              000000000068000000000000000000000000000000000000000000000000000000000000000000000000000000000000000000000000000000000000PES00010000001000000000000000020161212
201612120060000200000000000000009553000000000000000095538000000000020000000001Consumidor Final              000000000122000000000000000000000000000000000000000000000000000000000000000000000000000000000000000000000000000000000000PES00010000001000000000000000020161212
201612120060000200000000000000009554000000000000000095548000000000020000000001Consumidor Final              000000000039000000000000000000000000000000000000000000000000000000000000000000000000000000000000000000000000000000000000PES00010000001000000000000000020161212
201612120060000200000000000000009555000000000000000095558000000000020000000001Consumidor Final              000000000049000000000000000000000000000000000000000000000000000000000000000000000000000000000000000000000000000000000000PES00010000001000000000000000020161212
201612120060000200000000000000009556000000000000000095568000000000020000000001Consumidor Final              000000000145000000000000000000000000000000000000000000000000000000000000000000000000000000000000000000000000000000000000PES00010000001000000000000000020161212
201612120060000200000000000000009557000000000000000095578000000000020000000001Consumidor Final              000000000110000000000000000000000000000000000000000000000000000000000000000000000000000000000000000000000000000000000000PES00010000001000000000000000020161212
201612120060000200000000000000009558000000000000000095588000000000020000000001Consumidor Final              000000000139000000000000000000000000000000000000000000000000000000000000000000000000000000000000000000000000000000000000PES00010000001000000000000000020161212
201612120060000200000000000000009559000000000000000095598000000000020000000001Consumidor Final              000000000128000000000000000000000000000000000000000000000000000000000000000000000000000000000000000000000000000000000000PES00010000001000000000000000020161212
201612120060000200000000000000009560000000000000000095608000000000020000000001Consumidor Final              000000000075000000000000000000000000000000000000000000000000000000000000000000000000000000000000000000000000000000000000PES00010000001000000000000000020161212
201612120060000200000000000000009561000000000000000095618000000000020000000001ANULADO                       000000000000000000000000000000000000000000000000000000000000000000000000000000000000000000000000000000000000000000000000PES00010000001000000000000000020161212
201612120060000200000000000000009562000000000000000095628000000000020000000001Consumidor Final              000000000079000000000000000000000000000000000000000000000000000000000000000000000000000000000000000000000000000000000000PES00010000001000000000000000020161212
201612120060000200000000000000009563000000000000000095638000000000020000000001Consumidor Final              000000000089000000000000000000000000000000000000000000000000000000000000000000000000000000000000000000000000000000000000PES00010000001000000000000000020161212
201612130060000200000000000000009564000000000000000095648000000000020000000001Consumidor Final              000000000089000000000000000000000000000000000000000000000000000000000000000000000000000000000000000000000000000000000000PES00010000001000000000000000020161213
201612130060000200000000000000009565000000000000000095658000000000020000000001Consumidor Final              000000000069000000000000000000000000000000000000000000000000000000000000000000000000000000000000000000000000000000000000PES00010000001000000000000000020161213
201612130060000200000000000000009566000000000000000095668000000000020000000001Consumidor Final              000000000039000000000000000000000000000000000000000000000000000000000000000000000000000000000000000000000000000000000000PES00010000001000000000000000020161213
201612130060000200000000000000009567000000000000000095678000000000020000000001Consumidor Final              000000000069000000000000000000000000000000000000000000000000000000000000000000000000000000000000000000000000000000000000PES00010000001000000000000000020161213
201612130060000200000000000000009568000000000000000095688000000000020000000001Consumidor Final              000000000069000000000000000000000000000000000000000000000000000000000000000000000000000000000000000000000000000000000000PES00010000001000000000000000020161213
201612130060000200000000000000009569000000000000000095698000000000020000000001Consumidor Final              000000000199000000000000000000000000000000000000000000000000000000000000000000000000000000000000000000000000000000000000PES00010000001000000000000000020161213
201612130060000200000000000000009570000000000000000095708000000000020000000001Consumidor Final              000000000260000000000000000000000000000000000000000000000000000000000000000000000000000000000000000000000000000000000000PES00010000001000000000000000020161213
201612130060000200000000000000009571000000000000000095718000000000020000000001Consumidor Final              000000000348000000000000000000000000000000000000000000000000000000000000000000000000000000000000000000000000000000000000PES00010000001000000000000000020161213
201612130060000200000000000000009572000000000000000095728000000000020000000001Consumidor Final              000000000105000000000000000000000000000000000000000000000000000000000000000000000000000000000000000000000000000000000000PES00010000001000000000000000020161213
201612130060000200000000000000009573000000000000000095738000000000020000000001Consumidor Final              000000000489000000000000000000000000000000000000000000000000000000000000000000000000000000000000000000000000000000000000PES00010000001000000000000000020161213
201612130060000200000000000000009574000000000000000095748000000000020000000001Consumidor Final              000000000480000000000000000000000000000000000000000000000000000000000000000000000000000000000000000000000000000000000000PES00010000001000000000000000020161213
201612130060000200000000000000009575000000000000000095758000000000020000000001Consumidor Final              000000000455500000000000000000000000000000000000000000000000000000000000000000000000000000000000000000000000000000000000PES00010000001000000000000000020161213
201612130060000200000000000000009576000000000000000095768000000000020000000001Consumidor Final              000000000367000000000000000000000000000000000000000000000000000000000000000000000000000000000000000000000000000000000000PES00010000001000000000000000020161213
201612130060000200000000000000009577000000000000000095778000000000020000000001Consumidor Final              000000000029000000000000000000000000000000000000000000000000000000000000000000000000000000000000000000000000000000000000PES00010000001000000000000000020161213
201612130060000200000000000000009578000000000000000095788000000000020000000001Consumidor Final              000000000248000000000000000000000000000000000000000000000000000000000000000000000000000000000000000000000000000000000000PES00010000001000000000000000020161213
201612130060000200000000000000009579000000000000000095798000000000020000000001Consumidor Final              000000000235000000000000000000000000000000000000000000000000000000000000000000000000000000000000000000000000000000000000PES00010000001000000000000000020161213
201612130060000200000000000000009580000000000000000095808000000000020000000001ANULADO                       000000000000000000000000000000000000000000000000000000000000000000000000000000000000000000000000000000000000000000000000PES00010000001000000000000000020161213
201612130060000200000000000000009581000000000000000095818000000000020000000001Consumidor Final              000000000100000000000000000000000000000000000000000000000000000000000000000000000000000000000000000000000000000000000000PES00010000001000000000000000020161213
201612130060000200000000000000009582000000000000000095828000000000020000000001Consumidor Final              000000000301000000000000000000000000000000000000000000000000000000000000000000000000000000000000000000000000000000000000PES00010000001000000000000000020161213
201612130060000200000000000000009583000000000000000095838000000000020000000001Consumidor Final              000000000035000000000000000000000000000000000000000000000000000000000000000000000000000000000000000000000000000000000000PES00010000001000000000000000020161213
201612130060000200000000000000009584000000000000000095848000000000020000000001Consumidor Final              000000000075000000000000000000000000000000000000000000000000000000000000000000000000000000000000000000000000000000000000PES00010000001000000000000000020161213
201612130060000200000000000000009585000000000000000095858000000000020000000001Consumidor Final              000000000099000000000000000000000000000000000000000000000000000000000000000000000000000000000000000000000000000000000000PES00010000001000000000000000020161213
201612130060000200000000000000009586000000000000000095868000000000020000000001Consumidor Final              000000000057000000000000000000000000000000000000000000000000000000000000000000000000000000000000000000000000000000000000PES00010000001000000000000000020161213
201612130060000200000000000000009587000000000000000095878000000000020000000001Consumidor Final              000000000027500000000000000000000000000000000000000000000000000000000000000000000000000000000000000000000000000000000000PES00010000001000000000000000020161213
201612130060000200000000000000009588000000000000000095888000000000020000000001Consumidor Final              000000000105000000000000000000000000000000000000000000000000000000000000000000000000000000000000000000000000000000000000PES00010000001000000000000000020161213
201612130060000200000000000000009589000000000000000095898000000000020000000001Consumidor Final              000000000045000000000000000000000000000000000000000000000000000000000000000000000000000000000000000000000000000000000000PES00010000001000000000000000020161213
201612130060000200000000000000009590000000000000000095908000000000020000000001Consumidor Final              000000000059000000000000000000000000000000000000000000000000000000000000000000000000000000000000000000000000000000000000PES00010000001000000000000000020161213
201612130060000200000000000000009591000000000000000095918000000000020000000001Consumidor Final              000000000045000000000000000000000000000000000000000000000000000000000000000000000000000000000000000000000000000000000000PES00010000001000000000000000020161213
201612130060000200000000000000009592000000000000000095928000000000020000000001Consumidor Final              000000000169000000000000000000000000000000000000000000000000000000000000000000000000000000000000000000000000000000000000PES00010000001000000000000000020161213
201612130060000200000000000000009593000000000000000095938000000000020000000001Consumidor Final              000000000110000000000000000000000000000000000000000000000000000000000000000000000000000000000000000000000000000000000000PES00010000001000000000000000020161213
201612130060000200000000000000009594000000000000000095948000000000020000000001Consumidor Final              000000000110000000000000000000000000000000000000000000000000000000000000000000000000000000000000000000000000000000000000PES00010000001000000000000000020161213
201612130060000200000000000000009595000000000000000095958000000000020000000001Consumidor Final              000000000040000000000000000000000000000000000000000000000000000000000000000000000000000000000000000000000000000000000000PES00010000001000000000000000020161213
201612130060000200000000000000009596000000000000000095968000000000020000000001Consumidor Final              000000000102000000000000000000000000000000000000000000000000000000000000000000000000000000000000000000000000000000000000PES00010000001000000000000000020161213
201612130060000200000000000000009597000000000000000095978000000000020000000001Consumidor Final              000000000110000000000000000000000000000000000000000000000000000000000000000000000000000000000000000000000000000000000000PES00010000001000000000000000020161213
201612130060000200000000000000009598000000000000000095988000000000020000000001Consumidor Final              000000000110000000000000000000000000000000000000000000000000000000000000000000000000000000000000000000000000000000000000PES00010000001000000000000000020161213
201612130060000200000000000000009599000000000000000095998000000000020000000001Consumidor Final              000000000289000000000000000000000000000000000000000000000000000000000000000000000000000000000000000000000000000000000000PES00010000001000000000000000020161213
201612130060000200000000000000009600000000000000000096008000000000020000000001Consumidor Final              000000000025000000000000000000000000000000000000000000000000000000000000000000000000000000000000000000000000000000000000PES00010000001000000000000000020161213
201612130060000200000000000000009601000000000000000096018000000000020000000001Consumidor Final              000000000099000000000000000000000000000000000000000000000000000000000000000000000000000000000000000000000000000000000000PES00010000001000000000000000020161213
201612130060000200000000000000009602000000000000000096028000000000020000000001Consumidor Final              000000000107500000000000000000000000000000000000000000000000000000000000000000000000000000000000000000000000000000000000PES00010000001000000000000000020161213
201612130010000200000000000000000066000000000000000000668000000000027350441153Mitri,Gabriela Alejandra      000000000289000000000000000000000000000000000000000000000000000000000000000000000000000000000000000000000000000000000000PES00010000001000000000000000020161213
201612140060000200000000000000009603000000000000000096038000000000020000000001Consumidor Final              000000000090000000000000000000000000000000000000000000000000000000000000000000000000000000000000000000000000000000000000PES00010000001000000000000000020161214
201612140060000200000000000000009604000000000000000096048000000000020000000001Consumidor Final              000000000118000000000000000000000000000000000000000000000000000000000000000000000000000000000000000000000000000000000000PES00010000001000000000000000020161214
201612140060000200000000000000009605000000000000000096058000000000020000000001Consumidor Final              000000000153000000000000000000000000000000000000000000000000000000000000000000000000000000000000000000000000000000000000PES00010000001000000000000000020161214
201612140060000200000000000000009606000000000000000096068000000000020000000001Consumidor Final              000000000058000000000000000000000000000000000000000000000000000000000000000000000000000000000000000000000000000000000000PES00010000001000000000000000020161214
201612140060000200000000000000009607000000000000000096078000000000020000000001Consumidor Final              000000000024000000000000000000000000000000000000000000000000000000000000000000000000000000000000000000000000000000000000PES00010000001000000000000000020161214
201612140060000200000000000000009608000000000000000096088000000000020000000001Consumidor Final              000000000090000000000000000000000000000000000000000000000000000000000000000000000000000000000000000000000000000000000000PES00010000001000000000000000020161214
201612140060000200000000000000009609000000000000000096098000000000020000000001Consumidor Final              000000000045000000000000000000000000000000000000000000000000000000000000000000000000000000000000000000000000000000000000PES00010000001000000000000000020161214
201612140060000200000000000000009610000000000000000096108000000000020000000001Consumidor Final              000000000217500000000000000000000000000000000000000000000000000000000000000000000000000000000000000000000000000000000000PES00010000001000000000000000020161214
201612140060000200000000000000009611000000000000000096118000000000020000000001Consumidor Final              000000000048000000000000000000000000000000000000000000000000000000000000000000000000000000000000000000000000000000000000PES00010000001000000000000000020161214
201612140060000200000000000000009612000000000000000096128000000000020000000001Consumidor Final              000000000080000000000000000000000000000000000000000000000000000000000000000000000000000000000000000000000000000000000000PES00010000001000000000000000020161214
201612140060000200000000000000009613000000000000000096138000000000020000000001Consumidor Final              000000000079000000000000000000000000000000000000000000000000000000000000000000000000000000000000000000000000000000000000PES00010000001000000000000000020161214
201612140060000200000000000000009614000000000000000096148000000000020000000001Consumidor Final              000000000275000000000000000000000000000000000000000000000000000000000000000000000000000000000000000000000000000000000000PES00010000001000000000000000020161214
201612140060000200000000000000009615000000000000000096158000000000020000000001Consumidor Final              000000000069000000000000000000000000000000000000000000000000000000000000000000000000000000000000000000000000000000000000PES00010000001000000000000000020161214
201612140060000200000000000000009616000000000000000096168000000000020000000001Consumidor Final              000000000129000000000000000000000000000000000000000000000000000000000000000000000000000000000000000000000000000000000000PES00010000001000000000000000020161214
201612140060000200000000000000009617000000000000000096178000000000020000000001Consumidor Final              000000000025000000000000000000000000000000000000000000000000000000000000000000000000000000000000000000000000000000000000PES00010000001000000000000000020161214
201612140060000200000000000000009618000000000000000096188000000000020000000001Consumidor Final              000000000108000000000000000000000000000000000000000000000000000000000000000000000000000000000000000000000000000000000000PES00010000001000000000000000020161214
201612140060000200000000000000009619000000000000000096198000000000020000000001Consumidor Final              000000000105000000000000000000000000000000000000000000000000000000000000000000000000000000000000000000000000000000000000PES00010000001000000000000000020161214
201612140060000200000000000000009620000000000000000096208000000000020000000001Consumidor Final              000000000235000000000000000000000000000000000000000000000000000000000000000000000000000000000000000000000000000000000000PES00010000001000000000000000020161214
201612140060000200000000000000009621000000000000000096218000000000020000000001Consumidor Final              000000000075000000000000000000000000000000000000000000000000000000000000000000000000000000000000000000000000000000000000PES00010000001000000000000000020161214
201612140060000200000000000000009622000000000000000096228000000000020000000001Consumidor Final              000000000037500000000000000000000000000000000000000000000000000000000000000000000000000000000000000000000000000000000000PES00010000001000000000000000020161214
201612140060000200000000000000009623000000000000000096238000000000020000000001Consumidor Final              000000000069000000000000000000000000000000000000000000000000000000000000000000000000000000000000000000000000000000000000PES00010000001000000000000000020161214
201612150060000200000000000000009624000000000000000096248000000000020000000001Consumidor Final              000000000079000000000000000000000000000000000000000000000000000000000000000000000000000000000000000000000000000000000000PES00010000001000000000000000020161215
201612150060000200000000000000009625000000000000000096258000000000020000000001Consumidor Final              000000000080000000000000000000000000000000000000000000000000000000000000000000000000000000000000000000000000000000000000PES00010000001000000000000000020161215
201612150060000200000000000000009626000000000000000096268000000000020000000001Consumidor Final              000000000010000000000000000000000000000000000000000000000000000000000000000000000000000000000000000000000000000000000000PES00010000001000000000000000020161215
201612150060000200000000000000009627000000000000000096278000000000020000000001Consumidor Final              000000000057500000000000000000000000000000000000000000000000000000000000000000000000000000000000000000000000000000000000PES00010000001000000000000000020161215
201612150060000200000000000000009628000000000000000096288000000000020000000001Consumidor Final              000000000099000000000000000000000000000000000000000000000000000000000000000000000000000000000000000000000000000000000000PES00010000001000000000000000020161215
201612150060000200000000000000009629000000000000000096298000000000020000000001Consumidor Final              000000000110000000000000000000000000000000000000000000000000000000000000000000000000000000000000000000000000000000000000PES00010000001000000000000000020161215
201612150060000200000000000000009630000000000000000096308000000000020000000001Consumidor Final              000000000045000000000000000000000000000000000000000000000000000000000000000000000000000000000000000000000000000000000000PES00010000001000000000000000020161215
201612150060000200000000000000009631000000000000000096318000000000020000000001ANULADO                       000000000000000000000000000000000000000000000000000000000000000000000000000000000000000000000000000000000000000000000000PES00010000001000000000000000020161215
201612150060000200000000000000009632000000000000000096328000000000020000000001Consumidor Final              000000000183000000000000000000000000000000000000000000000000000000000000000000000000000000000000000000000000000000000000PES00010000001000000000000000020161215
201612150060000200000000000000009633000000000000000096338000000000020000000001Consumidor Final              000000000071500000000000000000000000000000000000000000000000000000000000000000000000000000000000000000000000000000000000PES00010000001000000000000000020161215
201612150060000200000000000000009634000000000000000096348000000000020000000001Consumidor Final              000000000165000000000000000000000000000000000000000000000000000000000000000000000000000000000000000000000000000000000000PES00010000001000000000000000020161215
201612150060000200000000000000009635000000000000000096358000000000020000000001Consumidor Final              000000000097500000000000000000000000000000000000000000000000000000000000000000000000000000000000000000000000000000000000PES00010000001000000000000000020161215
201612150060000200000000000000009636000000000000000096368000000000020000000001Consumidor Final              000000000024000000000000000000000000000000000000000000000000000000000000000000000000000000000000000000000000000000000000PES00010000001000000000000000020161215
201612150060000200000000000000009637000000000000000096378000000000020000000001Consumidor Final              000000000045000000000000000000000000000000000000000000000000000000000000000000000000000000000000000000000000000000000000PES00010000001000000000000000020161215
201612150060000200000000000000009638000000000000000096388000000000020000000001Consumidor Final              000000000195000000000000000000000000000000000000000000000000000000000000000000000000000000000000000000000000000000000000PES00010000001000000000000000020161215
201612150060000200000000000000009639000000000000000096398000000000020000000001Consumidor Final              000000000060000000000000000000000000000000000000000000000000000000000000000000000000000000000000000000000000000000000000PES00010000001000000000000000020161215
201612160060000200000000000000009640000000000000000096408000000000020000000001Consumidor Final              000000000100000000000000000000000000000000000000000000000000000000000000000000000000000000000000000000000000000000000000PES00010000001000000000000000020161216
201612160060000200000000000000009641000000000000000096418000000000020000000001Consumidor Final              000000000260000000000000000000000000000000000000000000000000000000000000000000000000000000000000000000000000000000000000PES00010000001000000000000000020161216
201612160060000200000000000000009642000000000000000096428000000000020000000001Consumidor Final              000000000120000000000000000000000000000000000000000000000000000000000000000000000000000000000000000000000000000000000000PES00010000001000000000000000020161216
201612160060000200000000000000009643000000000000000096438000000000020000000001Consumidor Final              000000000039000000000000000000000000000000000000000000000000000000000000000000000000000000000000000000000000000000000000PES00010000001000000000000000020161216
201612160060000200000000000000009644000000000000000096448000000000020000000001Consumidor Final              000000000035000000000000000000000000000000000000000000000000000000000000000000000000000000000000000000000000000000000000PES00010000001000000000000000020161216
201612160060000200000000000000009645000000000000000096458000000000020000000001Consumidor Final              000000000035000000000000000000000000000000000000000000000000000000000000000000000000000000000000000000000000000000000000PES00010000001000000000000000020161216
201612160060000200000000000000009646000000000000000096468000000000020000000001Consumidor Final              000000000039000000000000000000000000000000000000000000000000000000000000000000000000000000000000000000000000000000000000PES00010000001000000000000000020161216
201612160060000200000000000000009647000000000000000096478000000000020000000001Consumidor Final              000000000278000000000000000000000000000000000000000000000000000000000000000000000000000000000000000000000000000000000000PES00010000001000000000000000020161216
201612160060000200000000000000009648000000000000000096488000000000020000000001Consumidor Final              000000000440000000000000000000000000000000000000000000000000000000000000000000000000000000000000000000000000000000000000PES00010000001000000000000000020161216
201612160060000200000000000000009649000000000000000096498000000000020000000001Consumidor Final              000000000105000000000000000000000000000000000000000000000000000000000000000000000000000000000000000000000000000000000000PES00010000001000000000000000020161216
201612160060000200000000000000009650000000000000000096508000000000020000000001Consumidor Final              000000000039000000000000000000000000000000000000000000000000000000000000000000000000000000000000000000000000000000000000PES00010000001000000000000000020161216
201612160010000200000000000000000067000000000000000000678000000000030709676861Htal Privado Tres Cerritos    000000000085000000000000000000000000000000000000000000000000000000000000000000000000000000000000000000000000000000000000PES00010000001000000000000000020161216
201612170060000200000000000000009651000000000000000096518000000000020000000001Consumidor Final              000000000260000000000000000000000000000000000000000000000000000000000000000000000000000000000000000000000000000000000000PES00010000001000000000000000020161217
201612170060000200000000000000009652000000000000000096528000000000020000000001Consumidor Final              000000000082000000000000000000000000000000000000000000000000000000000000000000000000000000000000000000000000000000000000PES00010000001000000000000000020161217
201612170060000200000000000000009653000000000000000096538000000000020000000001Consumidor Final              000000000035000000000000000000000000000000000000000000000000000000000000000000000000000000000000000000000000000000000000PES00010000001000000000000000020161217
201612170060000200000000000000009654000000000000000096548000000000020000000001Consumidor Final              000000000195000000000000000000000000000000000000000000000000000000000000000000000000000000000000000000000000000000000000PES00010000001000000000000000020161217
201612170060000200000000000000009655000000000000000096558000000000020000000001Consumidor Final              000000000045000000000000000000000000000000000000000000000000000000000000000000000000000000000000000000000000000000000000PES00010000001000000000000000020161217
201612170060000200000000000000009656000000000000000096568000000000020000000001Consumidor Final              000000000040000000000000000000000000000000000000000000000000000000000000000000000000000000000000000000000000000000000000PES00010000001000000000000000020161217
201612170060000200000000000000009657000000000000000096578000000000020000000001Consumidor Final              000000000095000000000000000000000000000000000000000000000000000000000000000000000000000000000000000000000000000000000000PES00010000001000000000000000020161217
201612170060000200000000000000009658000000000000000096588000000000020000000001Consumidor Final              000000000040000000000000000000000000000000000000000000000000000000000000000000000000000000000000000000000000000000000000PES00010000001000000000000000020161217
201612170060000200000000000000009659000000000000000096598000000000020000000001Consumidor Final              000000000120000000000000000000000000000000000000000000000000000000000000000000000000000000000000000000000000000000000000PES00010000001000000000000000020161217
201612190060000200000000000000009660000000000000000096608000000000020000000001Consumidor Final              000000000030000000000000000000000000000000000000000000000000000000000000000000000000000000000000000000000000000000000000PES00010000001000000000000000020161219
201612190060000200000000000000009661000000000000000096618000000000020000000001Consumidor Final              000000000162500000000000000000000000000000000000000000000000000000000000000000000000000000000000000000000000000000000000PES00010000001000000000000000020161219
201612190060000200000000000000009662000000000000000096628000000000020000000001Consumidor Final              000000000126000000000000000000000000000000000000000000000000000000000000000000000000000000000000000000000000000000000000PES00010000001000000000000000020161219
201612190060000200000000000000009663000000000000000096638000000000020000000001Consumidor Final              000000000089000000000000000000000000000000000000000000000000000000000000000000000000000000000000000000000000000000000000PES00010000001000000000000000020161219
201612190060000200000000000000009664000000000000000096648000000000020000000001Consumidor Final              000000000445500000000000000000000000000000000000000000000000000000000000000000000000000000000000000000000000000000000000PES00010000001000000000000000020161219
201612190060000200000000000000009665000000000000000096658000000000020000000001Consumidor Final              000000000492000000000000000000000000000000000000000000000000000000000000000000000000000000000000000000000000000000000000PES00010000001000000000000000020161219
201612190060000200000000000000009666000000000000000096668000000000020000000001Consumidor Final              000000000492000000000000000000000000000000000000000000000000000000000000000000000000000000000000000000000000000000000000PES00010000001000000000000000020161219
201612190060000200000000000000009667000000000000000096678000000000020000000001Consumidor Final              000000000045000000000000000000000000000000000000000000000000000000000000000000000000000000000000000000000000000000000000PES00010000001000000000000000020161219
201612190060000200000000000000009668000000000000000096688000000000020000000001Consumidor Final              000000000104000000000000000000000000000000000000000000000000000000000000000000000000000000000000000000000000000000000000PES00010000001000000000000000020161219
201612190060000200000000000000009669000000000000000096698000000000020000000001Consumidor Final              000000000079000000000000000000000000000000000000000000000000000000000000000000000000000000000000000000000000000000000000PES00010000001000000000000000020161219
201612190060000200000000000000009670000000000000000096708000000000020000000001Consumidor Final              000000000070500000000000000000000000000000000000000000000000000000000000000000000000000000000000000000000000000000000000PES00010000001000000000000000020161219
201612190060000200000000000000009671000000000000000096718000000000020000000001Consumidor Final              000000000075000000000000000000000000000000000000000000000000000000000000000000000000000000000000000000000000000000000000PES00010000001000000000000000020161219
201612190060000200000000000000009672000000000000000096728000000000020000000001Consumidor Final              000000000025000000000000000000000000000000000000000000000000000000000000000000000000000000000000000000000000000000000000PES00010000001000000000000000020161219
201612190060000200000000000000009673000000000000000096738000000000020000000001Consumidor Final              000000000073000000000000000000000000000000000000000000000000000000000000000000000000000000000000000000000000000000000000PES00010000001000000000000000020161219
201612190060000200000000000000009674000000000000000096748000000000020000000001Consumidor Final              000000000048000000000000000000000000000000000000000000000000000000000000000000000000000000000000000000000000000000000000PES00010000001000000000000000020161219
201612190060000200000000000000009675000000000000000096758000000000020000000001Consumidor Final              000000000048000000000000000000000000000000000000000000000000000000000000000000000000000000000000000000000000000000000000PES00010000001000000000000000020161219
201612190060000200000000000000009676000000000000000096768000000000020000000001Consumidor Final              000000000045000000000000000000000000000000000000000000000000000000000000000000000000000000000000000000000000000000000000PES00010000001000000000000000020161219
201612190060000200000000000000009677000000000000000096778000000000020000000001Consumidor Final              000000000045000000000000000000000000000000000000000000000000000000000000000000000000000000000000000000000000000000000000PES00010000001000000000000000020161219
201612190060000200000000000000009678000000000000000096788000000000020000000001Consumidor Final              000000000083000000000000000000000000000000000000000000000000000000000000000000000000000000000000000000000000000000000000PES00010000001000000000000000020161219
201612190060000200000000000000009679000000000000000096798000000000020000000001Consumidor Final              000000000045000000000000000000000000000000000000000000000000000000000000000000000000000000000000000000000000000000000000PES00010000001000000000000000020161219
201612190060000200000000000000009680000000000000000096808000000000020000000001Consumidor Final              000000000019000000000000000000000000000000000000000000000000000000000000000000000000000000000000000000000000000000000000PES00010000001000000000000000020161219
201612190060000200000000000000009681000000000000000096818000000000020000000001Consumidor Final              000000000048000000000000000000000000000000000000000000000000000000000000000000000000000000000000000000000000000000000000PES00010000001000000000000000020161219
201612200060000200000000000000009682000000000000000096828000000000020000000001Consumidor Final              000000000130000000000000000000000000000000000000000000000000000000000000000000000000000000000000000000000000000000000000PES00010000001000000000000000020161220
201612200060000200000000000000009683000000000000000096838000000000020000000001Consumidor Final              000000000099000000000000000000000000000000000000000000000000000000000000000000000000000000000000000000000000000000000000PES00010000001000000000000000020161220
201612200060000200000000000000009684000000000000000096848000000000020000000001Consumidor Final              000000000123000000000000000000000000000000000000000000000000000000000000000000000000000000000000000000000000000000000000PES00010000001000000000000000020161220
201612200060000200000000000000009685000000000000000096858000000000020000000001Consumidor Final              000000000214000000000000000000000000000000000000000000000000000000000000000000000000000000000000000000000000000000000000PES00010000001000000000000000020161220
201612200060000200000000000000009686000000000000000096868000000000020000000001Consumidor Final              000000000130000000000000000000000000000000000000000000000000000000000000000000000000000000000000000000000000000000000000PES00010000001000000000000000020161220
201612200060000200000000000000009687000000000000000096878000000000020000000001Consumidor Final              000000000140000000000000000000000000000000000000000000000000000000000000000000000000000000000000000000000000000000000000PES00010000001000000000000000020161220
201612200060000200000000000000009688000000000000000096888000000000020000000001Consumidor Final              000000000045000000000000000000000000000000000000000000000000000000000000000000000000000000000000000000000000000000000000PES00010000001000000000000000020161220
201612200060000200000000000000009689000000000000000096898000000000020000000001Consumidor Final              000000000027500000000000000000000000000000000000000000000000000000000000000000000000000000000000000000000000000000000000PES00010000001000000000000000020161220
201612200060000200000000000000009690000000000000000096908000000000020000000001Consumidor Final              000000000020000000000000000000000000000000000000000000000000000000000000000000000000000000000000000000000000000000000000PES00010000001000000000000000020161220
201612200060000200000000000000009691000000000000000096918000000000020000000001Consumidor Final              000000000085000000000000000000000000000000000000000000000000000000000000000000000000000000000000000000000000000000000000PES00010000001000000000000000020161220
201612200060000200000000000000009692000000000000000096928000000000020000000001Consumidor Final              000000000082000000000000000000000000000000000000000000000000000000000000000000000000000000000000000000000000000000000000PES00010000001000000000000000020161220
201612200060000200000000000000009693000000000000000096938000000000020000000001Consumidor Final              000000000085000000000000000000000000000000000000000000000000000000000000000000000000000000000000000000000000000000000000PES00010000001000000000000000020161220
201612200060000200000000000000009694000000000000000096948000000000020000000001Consumidor Final              000000000045000000000000000000000000000000000000000000000000000000000000000000000000000000000000000000000000000000000000PES00010000001000000000000000020161220
201612200060000200000000000000009695000000000000000096958000000000020000000001Consumidor Final              000000000120000000000000000000000000000000000000000000000000000000000000000000000000000000000000000000000000000000000000PES00010000001000000000000000020161220
201612200060000200000000000000009696000000000000000096968000000000020000000001Consumidor Final              000000000082000000000000000000000000000000000000000000000000000000000000000000000000000000000000000000000000000000000000PES00010000001000000000000000020161220
201612200060000200000000000000009697000000000000000096978000000000020000000001Consumidor Final              000000000075000000000000000000000000000000000000000000000000000000000000000000000000000000000000000000000000000000000000PES00010000001000000000000000020161220
201612210060000200000000000000009698000000000000000096988000000000020000000001Consumidor Final              000000000075000000000000000000000000000000000000000000000000000000000000000000000000000000000000000000000000000000000000PES00010000001000000000000000020161221
201612210060000200000000000000009699000000000000000096998000000000020000000001Consumidor Final              000000000030000000000000000000000000000000000000000000000000000000000000000000000000000000000000000000000000000000000000PES00010000001000000000000000020161221
201612210060000200000000000000009700000000000000000097008000000000020000000001Consumidor Final              000000000040000000000000000000000000000000000000000000000000000000000000000000000000000000000000000000000000000000000000PES00010000001000000000000000020161221
201612210060000200000000000000009701000000000000000097018000000000020000000001Consumidor Final              000000000131000000000000000000000000000000000000000000000000000000000000000000000000000000000000000000000000000000000000PES00010000001000000000000000020161221
201612210060000200000000000000009702000000000000000097028000000000020000000001Consumidor Final              000000000085000000000000000000000000000000000000000000000000000000000000000000000000000000000000000000000000000000000000PES00010000001000000000000000020161221
201612210060000200000000000000009703000000000000000097038000000000020000000001Consumidor Final              000000000035000000000000000000000000000000000000000000000000000000000000000000000000000000000000000000000000000000000000PES00010000001000000000000000020161221
201612210060000200000000000000009704000000000000000097048000000000020000000001Consumidor Final              000000000079000000000000000000000000000000000000000000000000000000000000000000000000000000000000000000000000000000000000PES00010000001000000000000000020161221
201612210060000200000000000000009705000000000000000097058000000000020000000001Consumidor Final              000000000095000000000000000000000000000000000000000000000000000000000000000000000000000000000000000000000000000000000000PES00010000001000000000000000020161221
201612210060000200000000000000009706000000000000000097068000000000020000000001Consumidor Final              000000000115000000000000000000000000000000000000000000000000000000000000000000000000000000000000000000000000000000000000PES00010000001000000000000000020161221
201612210060000200000000000000009707000000000000000097078000000000020000000001Consumidor Final              000000000110000000000000000000000000000000000000000000000000000000000000000000000000000000000000000000000000000000000000PES00010000001000000000000000020161221
201612210060000200000000000000009708000000000000000097088000000000020000000001Consumidor Final              000000000270000000000000000000000000000000000000000000000000000000000000000000000000000000000000000000000000000000000000PES00010000001000000000000000020161221
201612210060000200000000000000009709000000000000000097098000000000020000000001Consumidor Final              000000000025000000000000000000000000000000000000000000000000000000000000000000000000000000000000000000000000000000000000PES00010000001000000000000000020161221
201612210060000200000000000000009710000000000000000097108000000000020000000001Consumidor Final              000000000027500000000000000000000000000000000000000000000000000000000000000000000000000000000000000000000000000000000000PES00010000001000000000000000020161221
201612210060000200000000000000009711000000000000000097118000000000020000000001Consumidor Final              000000000045000000000000000000000000000000000000000000000000000000000000000000000000000000000000000000000000000000000000PES00010000001000000000000000020161221
201612220060000200000000000000009712000000000000000097128000000000020000000001Consumidor Final              000000000090000000000000000000000000000000000000000000000000000000000000000000000000000000000000000000000000000000000000PES00010000001000000000000000020161222
201612220060000200000000000000009713000000000000000097138000000000020000000001Consumidor Final              000000000020000000000000000000000000000000000000000000000000000000000000000000000000000000000000000000000000000000000000PES00010000001000000000000000020161222
201612220060000200000000000000009714000000000000000097148000000000020000000001Consumidor Final              000000000230000000000000000000000000000000000000000000000000000000000000000000000000000000000000000000000000000000000000PES00010000001000000000000000020161222
201612220060000200000000000000009715000000000000000097158000000000020000000001Consumidor Final              000000000100000000000000000000000000000000000000000000000000000000000000000000000000000000000000000000000000000000000000PES00010000001000000000000000020161222
201612220060000200000000000000009716000000000000000097168000000000020000000001Consumidor Final              000000000500000000000000000000000000000000000000000000000000000000000000000000000000000000000000000000000000000000000000PES00010000001000000000000000020161222
201612220060000200000000000000009717000000000000000097178000000000020000000001Consumidor Final              000000000168000000000000000000000000000000000000000000000000000000000000000000000000000000000000000000000000000000000000PES00010000001000000000000000020161222
201612220060000200000000000000009718000000000000000097188000000000020000000001Consumidor Final              000000000117500000000000000000000000000000000000000000000000000000000000000000000000000000000000000000000000000000000000PES00010000001000000000000000020161222
201612220060000200000000000000009719000000000000000097198000000000020000000001Consumidor Final              000000000040000000000000000000000000000000000000000000000000000000000000000000000000000000000000000000000000000000000000PES00010000001000000000000000020161222
201612220060000200000000000000009720000000000000000097208000000000020000000001Consumidor Final              000000000068000000000000000000000000000000000000000000000000000000000000000000000000000000000000000000000000000000000000PES00010000001000000000000000020161222
201612220060000200000000000000009721000000000000000097218000000000020000000001Consumidor Final              000000000198000000000000000000000000000000000000000000000000000000000000000000000000000000000000000000000000000000000000PES00010000001000000000000000020161222
201612220060000200000000000000009722000000000000000097228000000000020000000001Consumidor Final              000000000198000000000000000000000000000000000000000000000000000000000000000000000000000000000000000000000000000000000000PES00010000001000000000000000020161222
201612220060000200000000000000009723000000000000000097238000000000020000000001Consumidor Final              000000000104000000000000000000000000000000000000000000000000000000000000000000000000000000000000000000000000000000000000PES00010000001000000000000000020161222
201612220060000200000000000000009724000000000000000097248000000000020000000001Consumidor Final              000000000207000000000000000000000000000000000000000000000000000000000000000000000000000000000000000000000000000000000000PES00010000001000000000000000020161222
201612220060000200000000000000009725000000000000000097258000000000020000000001Consumidor Final              000000000040000000000000000000000000000000000000000000000000000000000000000000000000000000000000000000000000000000000000PES00010000001000000000000000020161222
201612220060000200000000000000009726000000000000000097268000000000020000000001Consumidor Final              000000000035000000000000000000000000000000000000000000000000000000000000000000000000000000000000000000000000000000000000PES00010000001000000000000000020161222
201612220060000200000000000000009727000000000000000097278000000000020000000001Consumidor Final              000000000042000000000000000000000000000000000000000000000000000000000000000000000000000000000000000000000000000000000000PES00010000001000000000000000020161222
201612230060000200000000000000009728000000000000000097288000000000020000000001Consumidor Final              000000000275000000000000000000000000000000000000000000000000000000000000000000000000000000000000000000000000000000000000PES00010000001000000000000000020161223
201612230060000200000000000000009729000000000000000097298000000000020000000001Consumidor Final              000000000085000000000000000000000000000000000000000000000000000000000000000000000000000000000000000000000000000000000000PES00010000001000000000000000020161223
201612230060000200000000000000009730000000000000000097308000000000020000000001Consumidor Final              000000000067500000000000000000000000000000000000000000000000000000000000000000000000000000000000000000000000000000000000PES00010000001000000000000000020161223
201612230060000200000000000000009731000000000000000097318000000000020000000001Consumidor Final              000000000036000000000000000000000000000000000000000000000000000000000000000000000000000000000000000000000000000000000000PES00010000001000000000000000020161223
201612230060000200000000000000009732000000000000000097328000000000020000000001Consumidor Final              000000000075000000000000000000000000000000000000000000000000000000000000000000000000000000000000000000000000000000000000PES00010000001000000000000000020161223
201612230060000200000000000000009733000000000000000097338000000000020000000001Consumidor Final              000000000130000000000000000000000000000000000000000000000000000000000000000000000000000000000000000000000000000000000000PES00010000001000000000000000020161223
201612230060000200000000000000009734000000000000000097348000000000020000000001Consumidor Final              000000000069000000000000000000000000000000000000000000000000000000000000000000000000000000000000000000000000000000000000PES00010000001000000000000000020161223
201612230060000200000000000000009735000000000000000097358000000000020000000001Consumidor Final              000000000234000000000000000000000000000000000000000000000000000000000000000000000000000000000000000000000000000000000000PES00010000001000000000000000020161223
201612230060000200000000000000009736000000000000000097368000000000020000000001Consumidor Final              000000000095000000000000000000000000000000000000000000000000000000000000000000000000000000000000000000000000000000000000PES00010000001000000000000000020161223
201612230060000200000000000000009737000000000000000097378000000000020000000001Consumidor Final              000000000040000000000000000000000000000000000000000000000000000000000000000000000000000000000000000000000000000000000000PES00010000001000000000000000020161223
201612230060000200000000000000009738000000000000000097388000000000020000000001Consumidor Final              000000000102500000000000000000000000000000000000000000000000000000000000000000000000000000000000000000000000000000000000PES00010000001000000000000000020161223
201612230060000200000000000000009739000000000000000097398000000000020000000001Consumidor Final              000000000075000000000000000000000000000000000000000000000000000000000000000000000000000000000000000000000000000000000000PES00010000001000000000000000020161223
201612230060000200000000000000009740000000000000000097408000000000020000000001Consumidor Final              000000000120000000000000000000000000000000000000000000000000000000000000000000000000000000000000000000000000000000000000PES00010000001000000000000000020161223
201612230060000200000000000000009741000000000000000097418000000000020000000001Consumidor Final              000000000045000000000000000000000000000000000000000000000000000000000000000000000000000000000000000000000000000000000000PES00010000001000000000000000020161223
201612230060000200000000000000009742000000000000000097428000000000020000000001Consumidor Final              000000000080000000000000000000000000000000000000000000000000000000000000000000000000000000000000000000000000000000000000PES00010000001000000000000000020161223
201612230060000200000000000000009743000000000000000097438000000000020000000001Consumidor Final              000000000030000000000000000000000000000000000000000000000000000000000000000000000000000000000000000000000000000000000000PES00010000001000000000000000020161223
201612230060000200000000000000009744000000000000000097448000000000020000000001Consumidor Final              000000000067500000000000000000000000000000000000000000000000000000000000000000000000000000000000000000000000000000000000PES00010000001000000000000000020161223
201612230060000200000000000000009745000000000000000097458000000000020000000001Consumidor Final              000000000480000000000000000000000000000000000000000000000000000000000000000000000000000000000000000000000000000000000000PES00010000001000000000000000020161223
201612230060000200000000000000009746000000000000000097468000000000020000000001Consumidor Final              000000000045000000000000000000000000000000000000000000000000000000000000000000000000000000000000000000000000000000000000PES00010000001000000000000000020161223
