201608010010000700000000000000000749000000000000000007498000000000030690718258Tranmar SRL                   000000001508851000000000000000000000000000000000000000000000000000000000000000000000000000000000000000000000000000000000PES00010000001000000000000000020160801
201608010010000700000000000000000750000000000000000007508000000000030681284474Combustibles del Norte S.     000000002008341000000000000000000000000000000000000000000000000000000000000000000000000000000000000000000000000000000000PES00010000001000000000000000020160801
201608010010000700000000000000000751000000000000000007518000000000020203999519Delta Computacion             000000000035918000000000000000000000000000000000000000000000000000000000000000000000000000000000000000000000000000000000PES00010000001000000000000000020160801
201608010010000700000000000000000752000000000000000007528000000000030681329451Desa SA                       000000000290003000000000000000000000000000000000000000000000000000000000000000000000000000000000000000000000000000000000PES00010000001000000000000000020160801
201608010010000700000000000000000753000000000000000007538000000000030709488186Galeno cosultin Group Far     000000000057085000000000000000000000000000000000000000000000000000000000000000000000000000000000000000000000000000000000PES00010000001000000000000000020160801
201608010010000700000000000000000754000000000000000007548000000000030714370126New Star SRL                  000000000013035000000000000000000000000000000000000000000000000000000000000000000000000000000000000000000000000000000000PES00010000001000000000000000020160801
201608010010000700000000000000000755000000000000000007558000000000030708024313Denki Ingenieria SRL          000000000010400000000000000000000000000000000000000000000000000000000000000000000000000000000000000000000000000000000000PES00010000001000000000000000020160801
201608010010000700000000000000000756000000000000000007568000000000030712222308JVL SRL                       000000000122102000000000000000000000000000000000000000000000000000000000000000000000000000000000000000000000000000000000PES00010000001000000000000000020160801
201608010010000700000000000000000757000000000000000007578000000000030707474307Crew Live S.A                 000000000013860000000000000000000000000000000000000000000000000000000000000000000000000000000000000000000000000000000000PES00010000001000000000000000020160801
201608010010000700000000000000000758000000000000000007588000000000030711603553Soluciones Tecnicas Gener     000000000039581000000000000000000000000000000000000000000000000000000000000000000000000000000000000000000000000000000000PES00010000001000000000000000020160801
201608010010000700000000000000000759000000000000000007598000000000030690721321Antonio Srur SRL              000000001730933000000000000000000000000000000000000000000000000000000000000000000000000000000000000000000000000000000000PES00010000001000000000000000020160801
201608010010000700000000000000000760000000000000000007608000000000030712222308JVL SRL                       000000000042500000000000000000000000000000000000000000000000000000000000000000000000000000000000000000000000000000000000PES00010000001000000000000000020160801
201608010010000700000000000000000761000000000000000007618000000000027275710674Di Bez Natalia                000000000034079000000000000000000000000000000000000000000000000000000000000000000000000000000000000000000000000000000000PES00010000001000000000000000020160801
201608010060000700000000000000000160000000000000000001608000000000033617945199Soc. Italiana 20 de Sept.     000000000007650000000000000000000000000000000000000000000000000000000000000000000000000000000000000000000000000000000000PES00010000001000000000000000020160801
201608010060000700000000000000000161000000000000000001618000000000030709620394Fundacion I M C E J Y S A     000000000043841000000000000000000000000000000000000000000000000000000000000000000000000000000000000000000000000000000000PES00010000001000000000000000020160801
201608010060000700000000000000000162000000000000000001628000000000033627806529Comando de Brigada            000000000025712000000000000000000000000000000000000000000000000000000000000000000000000000000000000000000000000000000000PES00010000001000000000000000020160801
201608010060000400000000000000001243000000000000000012438000000000020000000001Consumidor Final              000000001111700000000000000000000000000000000000000000000000000000000000000000000000000000000000000000000000000000000000PES00010000001000000000000000020160801
201608020010000700000000000000000762000000000000000007628000000000020204451371Romero Hector Fabian          000000000003187000000000000000000000000000000000000000000000000000000000000000000000000000000000000000000000000000000000PES00010000001000000000000000020160802
201608020010000700000000000000000763000000000000000007638000000000027246971566Herrera Nelida del Carmen     000000000085401000000000000000000000000000000000000000000000000000000000000000000000000000000000000000000000000000000000PES00010000001000000000000000020160802
201608020010000700000000000000000764000000000000000007648000000000020079682900Zoricich Oscar                000000000084661000000000000000000000000000000000000000000000000000000000000000000000000000000000000000000000000000000000PES00010000001000000000000000020160802
201608020010000700000000000000000765000000000000000007658000000000030649642962Premar SA                     000000000145002000000000000000000000000000000000000000000000000000000000000000000000000000000000000000000000000000000000PES00010000001000000000000000020160802
201608020010000700000000000000000766000000000000000007668000000000030715193082Q Seguridad                   000000000006080000000000000000000000000000000000000000000000000000000000000000000000000000000000000000000000000000000000PES00010000001000000000000000020160802
201608020010000700000000000000000767000000000000000007678000000000030556841701Elemnor SRL                   000000000010084000000000000000000000000000000000000000000000000000000000000000000000000000000000000000000000000000000000PES00010000001000000000000000020160802
201608020010000700000000000000000768000000000000000007688000000000020203999519Delta Computacion             000000000035918000000000000000000000000000000000000000000000000000000000000000000000000000000000000000000000000000000000PES00010000001000000000000000020160802
201608020010000700000000000000000769000000000000000007698000000000030661919406Transnoa SA                   000000001466341000000000000000000000000000000000000000000000000000000000000000000000000000000000000000000000000000000000PES00010000001000000000000000020160802
201608020010000700000000000000000770000000000000000007708000000000030654936419Fast Food Sudamericana SA     000000000021421000000000000000000000000000000000000000000000000000000000000000000000000000000000000000000000000000000000PES00010000001000000000000000020160802
201608020010000700000000000000000771000000000000000007718000000000020185660223Javier Sanchez                000000002217216000000000000000000000000000000000000000000000000000000000000000000000000000000000000000000000000000000000PES00010000001000000000000000020160802
201608020010000700000000000000000772000000000000000007728000000000020185660223Javier Sanchez                000000000232866000000000000000000000000000000000000000000000000000000000000000000000000000000000000000000000000000000000PES00010000001000000000000000020160802
201608020010000700000000000000000773000000000000000007738000000000027243389483Miranda Paola                 000000000043092000000000000000000000000000000000000000000000000000000000000000000000000000000000000000000000000000000000PES00010000001000000000000000020160802
201608020010000700000000000000000774000000000000000007748000000000020180104195Marcelo Salas                 000000000139955000000000000000000000000000000000000000000000000000000000000000000000000000000000000000000000000000000000PES00010000001000000000000000020160802
201608020010000700000000000000000775000000000000000007758000000000030714542083Exa Group SRL                 000000000006074000000000000000000000000000000000000000000000000000000000000000000000000000000000000000000000000000000000PES00010000001000000000000000020160802
201608020010000700000000000000000776000000000000000007768000000000020177918769De La Merced Sansone Pabl     000000000009136000000000000000000000000000000000000000000000000000000000000000000000000000000000000000000000000000000000PES00010000001000000000000000020160802
201608020060000700000000000000000163000000000000000001638000000000023237490959Javier Arias                  000000002217212000000000000000000000000000000000000000000000000000000000000000000000000000000000000000000000000000000000PES00010000001000000000000000020160802
201608020060000700000000000000000164000000000000000001648000000000030709620394Fundacion I M C E J Y S A     000000000072501000000000000000000000000000000000000000000000000000000000000000000000000000000000000000000000000000000000PES00010000001000000000000000020160802
201608020060000700000000000000000165000000000000000001658000000000030709620394Fundacion I M C E J Y S A     000000000157921000000000000000000000000000000000000000000000000000000000000000000000000000000000000000000000000000000000PES00010000001000000000000000020160802
201608020060000700000000000000000166000000000000000001668000000000020000000001Alvarez Rafael                000000001438344000000000000000000000000000000000000000000000000000000000000000000000000000000000000000000000000000000000PES00010000001000000000000000020160802
201608020060000700000000000000000167000000000000000001678000000000020000000001Alvarez Rafael                000000000106632000000000000000000000000000000000000000000000000000000000000000000000000000000000000000000000000000000000PES00010000001000000000000000020160802
201608020080000700000000000000000001000000000000000000018000000000023237490959Javier Arias                  000000002217216000000000000000000000000000000000000000000000000000000000000000000000000000000000000000000000000000000000PES00010000001000000000000000020160802
201608020060000400000000000000001244000000000000000012448000000000020000000001Consumidor Final              000000000972800000000000000000000000000000000000000000000000000000000000000000000000000000000000000000000000000000000000PES00010000001000000000000000020160802
201608030010000700000000000000000777000000000000000007778000000000030711603553Soluciones Tecnicas Gener     000000000009096000000000000000000000000000000000000000000000000000000000000000000000000000000000000000000000000000000000PES00010000001000000000000000020160803
201608030010000700000000000000000778000000000000000007788000000000023121455374Rasero Edith                  000000000081989000000000000000000000000000000000000000000000000000000000000000000000000000000000000000000000000000000000PES00010000001000000000000000020160803
201608030010000700000000000000000779000000000000000007798000000000020163082609Basso Danilo Miguel           000000000006800000000000000000000000000000000000000000000000000000000000000000000000000000000000000000000000000000000000PES00010000001000000000000000020160803
201608030010000700000000000000000780000000000000000007808000000000030708722312Verde SA                      000000000007838000000000000000000000000000000000000000000000000000000000000000000000000000000000000000000000000000000000PES00010000001000000000000000020160803
201608030010000700000000000000000781000000000000000007818000000000030710829310Lumer SRL                     000000000025551000000000000000000000000000000000000000000000000000000000000000000000000000000000000000000000000000000000PES00010000001000000000000000020160803
201608030010000700000000000000000782000000000000000007828000000000027006586762Sucesion Marocco Irma         000000000072501000000000000000000000000000000000000000000000000000000000000000000000000000000000000000000000000000000000PES00010000001000000000000000020160803
201608030010000700000000000000000783000000000000000007838000000000020118262426Nunez Hector de los Angel     000000000013007000000000000000000000000000000000000000000000000000000000000000000000000000000000000000000000000000000000PES00010000001000000000000000020160803
201608030010000700000000000000000784000000000000000007848000000000027058910584Martinez Ana Maria            000000002155680000000000000000000000000000000000000000000000000000000000000000000000000000000000000000000000000000000000PES00010000001000000000000000020160803
201608030010000700000000000000000785000000000000000007858000000000030709781037Idem SRL                      000000000020024000000000000000000000000000000000000000000000000000000000000000000000000000000000000000000000000000000000PES00010000001000000000000000020160803
201608030010000700000000000000000786000000000000000007868000000000020177918769De La Merced Sansone Pabl     000000000014499000000000000000000000000000000000000000000000000000000000000000000000000000000000000000000000000000000000PES00010000001000000000000000020160803
201608030010000700000000000000000787000000000000000007878000000000030707938338Sanatorio San Roque s.a       000000014520364000000000000000000000000000000000000000000000000000000000000000000000000000000000000000000000000000000000PES00010000001000000000000000020160803
201608030010000700000000000000000788000000000000000007888000000000020079682900Zoricich Oscar                000000000077988000000000000000000000000000000000000000000000000000000000000000000000000000000000000000000000000000000000PES00010000001000000000000000020160803
201608030010000700000000000000000789000000000000000007898000000000030711603553Soluciones Tecnicas Gener     000000000008012000000000000000000000000000000000000000000000000000000000000000000000000000000000000000000000000000000000PES00010000001000000000000000020160803
201608030010000700000000000000000790000000000000000007908000000000030654936419Fast Food Sudamericana SA     000000000017000000000000000000000000000000000000000000000000000000000000000000000000000000000000000000000000000000000000PES00010000001000000000000000020160803
201608030060000700000000000000000168000000000000000001688000000000020000000001Consorcio Edificio Acala      000000000033200000000000000000000000000000000000000000000000000000000000000000000000000000000000000000000000000000000000PES00010000001000000000000000020160803
201608030060000700000000000000000169000000000000000001698000000000020000000001Consumidor Final              000000001050175000000000000000000000000000000000000000000000000000000000000000000000000000000000000000000000000000000000PES00010000001000000000000000020160803
201608030060000700000000000000000170000000000000000001708000000000033617945199Soc. Italiana 20 de Sept.     000000000005015000000000000000000000000000000000000000000000000000000000000000000000000000000000000000000000000000000000PES00010000001000000000000000020160803
201608030060000400000000000000001245000000000000000012458000000000020000000001Consumidor Final              000000001126500000000000000000000000000000000000000000000000000000000000000000000000000000000000000000000000000000000000PES00010000001000000000000000020160803
201608040010000700000000000000000791000000000000000007918000000000020081684309Lecuona de Pratt Martin       000000000012709000000000000000000000000000000000000000000000000000000000000000000000000000000000000000000000000000000000PES00010000001000000000000000020160804
201608040010000700000000000000000792000000000000000007928000000000030709781037Idem SRL                      000000000033591000000000000000000000000000000000000000000000000000000000000000000000000000000000000000000000000000000000PES00010000001000000000000000020160804
201608040010000700000000000000000793000000000000000007938000000000030715193082Q Seguridad                   000000000015120000000000000000000000000000000000000000000000000000000000000000000000000000000000000000000000000000000000PES00010000001000000000000000020160804
201608040010000700000000000000000794000000000000000007948000000000020081714046Binda Victorio Ricardo        000000000007047000000000000000000000000000000000000000000000000000000000000000000000000000000000000000000000000000000000PES00010000001000000000000000020160804
201608040010000700000000000000000795000000000000000007958000000000020163082609Basso Danilo Miguel           000000000046665000000000000000000000000000000000000000000000000000000000000000000000000000000000000000000000000000000000PES00010000001000000000000000020160804
201608040010000700000000000000000796000000000000000007968000000000020118262426Nunez Hector de los Angel     000000000047515000000000000000000000000000000000000000000000000000000000000000000000000000000000000000000000000000000000PES00010000001000000000000000020160804
201608040010000700000000000000000797000000000000000007978000000000020079682900Zoricich Oscar                000000000090031000000000000000000000000000000000000000000000000000000000000000000000000000000000000000000000000000000000PES00010000001000000000000000020160804
201608040010000700000000000000000798000000000000000007988000000000030709781037Idem SRL                      000000000011011000000000000000000000000000000000000000000000000000000000000000000000000000000000000000000000000000000000PES00010000001000000000000000020160804
201608040010000700000000000000000799000000000000000007998000000000020203999519Delta Computacion             000000000064478000000000000000000000000000000000000000000000000000000000000000000000000000000000000000000000000000000000PES00010000001000000000000000020160804
201608040010000700000000000000000800000000000000000008008000000000030710322402Emprender Noa SRL             000000000014790000000000000000000000000000000000000000000000000000000000000000000000000000000000000000000000000000000000PES00010000001000000000000000020160804
201608040010000700000000000000000801000000000000000008018000000000030710829310Lumer SRL                     000000000008585000000000000000000000000000000000000000000000000000000000000000000000000000000000000000000000000000000000PES00010000001000000000000000020160804
201608040010000700000000000000000802000000000000000008028000000000030700087227Aluja SRL                     000000002145060000000000000000000000000000000000000000000000000000000000000000000000000000000000000000000000000000000000PES00010000001000000000000000020160804
201608040010000700000000000000000803000000000000000008038000000000030700087227Aluja SRL                     000000000263742000000000000000000000000000000000000000000000000000000000000000000000000000000000000000000000000000000000PES00010000001000000000000000020160804
201608040010000700000000000000000804000000000000000008048000000000030711229376Pascha SRL                    000000000030132000000000000000000000000000000000000000000000000000000000000000000000000000000000000000000000000000000000PES00010000001000000000000000020160804
201608040060000700000000000000000171000000000000000001718000000000030673124816Aero Club Salta               000000000139012000000000000000000000000000000000000000000000000000000000000000000000000000000000000000000000000000000000PES00010000001000000000000000020160804
201608040060000400000000000000001246000000000000000012468000000000020000000001Consumidor Final              000000000797600000000000000000000000000000000000000000000000000000000000000000000000000000000000000000000000000000000000PES00010000001000000000000000020160804
201608050010000700000000000000000805000000000000000008058000000000020081684309Lecuona de Pratt Martin       000000000009096000000000000000000000000000000000000000000000000000000000000000000000000000000000000000000000000000000000PES00010000001000000000000000020160805
201608050010000700000000000000000806000000000000000008068000000000027006586762Sucesion Marocco Irma         000000000072501000000000000000000000000000000000000000000000000000000000000000000000000000000000000000000000000000000000PES00010000001000000000000000020160805
201608050010000700000000000000000807000000000000000008078000000000020177918769De La Merced Sansone Pabl     000000000003780000000000000000000000000000000000000000000000000000000000000000000000000000000000000000000000000000000000PES00010000001000000000000000020160805
201608050010000700000000000000000808000000000000000008088000000000030710322402Emprender Noa SRL             000000000010005000000000000000000000000000000000000000000000000000000000000000000000000000000000000000000000000000000000PES00010000001000000000000000020160805
201608050010000700000000000000000809000000000000000008098000000000020203999519Delta Computacion             000000000018701000000000000000000000000000000000000000000000000000000000000000000000000000000000000000000000000000000000PES00010000001000000000000000020160805
201608050010000700000000000000000810000000000000000008108000000000030710398980Bielli Horacio Emprend. A     000000000031891000000000000000000000000000000000000000000000000000000000000000000000000000000000000000000000000000000000PES00010000001000000000000000020160805
201608050010000700000000000000000811000000000000000008118000000000030673068193Finanser  s.a.                000000002334966000000000000000000000000000000000000000000000000000000000000000000000000000000000000000000000000000000000PES00010000001000000000000000020160805
201608050010000700000000000000000812000000000000000008128000000000030673068193Finanser  s.a.                000000000994201000000000000000000000000000000000000000000000000000000000000000000000000000000000000000000000000000000000PES00010000001000000000000000020160805
201608050010000700000000000000000813000000000000000008138000000000020203999519Delta Computacion             000000000011560000000000000000000000000000000000000000000000000000000000000000000000000000000000000000000000000000000000PES00010000001000000000000000020160805
201608050010000700000000000000000814000000000000000008148000000000030708389443La Peatonal SRL               000000000155550000000000000000000000000000000000000000000000000000000000000000000000000000000000000000000000000000000000PES00010000001000000000000000020160805
201608050060000700000000000000000172000000000000000001728000000000020000000001Escuela Jacoba Saravia        000000000015064000000000000000000000000000000000000000000000000000000000000000000000000000000000000000000000000000000000PES00010000001000000000000000020160805
201608050060000700000000000000000173000000000000000001738000000000020000000001Oller Alejandro               000000000184275000000000000000000000000000000000000000000000000000000000000000000000000000000000000000000000000000000000PES00010000001000000000000000020160805
201608050060000700000000000000000174000000000000000001748000000000020000000001Consorcio General Miguel      000000000021462000000000000000000000000000000000000000000000000000000000000000000000000000000000000000000000000000000000PES00010000001000000000000000020160805
201608050060000700000000000000000175000000000000000001758000000000020932843510Lahme Hermann                 000000000220005000000000000000000000000000000000000000000000000000000000000000000000000000000000000000000000000000000000PES00010000001000000000000000020160805
201608050060000700000000000000000176000000000000000001768000000000020000000001Macedo Ricardo                000000000014500000000000000000000000000000000000000000000000000000000000000000000000000000000000000000000000000000000000PES00010000001000000000000000020160805
201608050060000700000000000000000177000000000000000001778000000000020000000001Consorcio de RIEGO  Cecla     000000000087546000000000000000000000000000000000000000000000000000000000000000000000000000000000000000000000000000000000PES00010000001000000000000000020160805
201608050060000400000000000000001247000000000000000012478000000000020000000001Consumidor Final              000000001148800000000000000000000000000000000000000000000000000000000000000000000000000000000000000000000000000000000000PES00010000001000000000000000020160805
201608060010000700000000000000000815000000000000000008158000000000030710381670AG Sa                         000000000087000000000000000000000000000000000000000000000000000000000000000000000000000000000000000000000000000000000000PES00010000001000000000000000020160806
201608060010000700000000000000000816000000000000000008168000000000020138353738Oscar Anibal Orellana         000000000041395000000000000000000000000000000000000000000000000000000000000000000000000000000000000000000000000000000000PES00010000001000000000000000020160806
201608060010000700000000000000000817000000000000000008178000000000027104513765Caro Maria Eugenia            000000000075075000000000000000000000000000000000000000000000000000000000000000000000000000000000000000000000000000000000PES00010000001000000000000000020160806
201608060010000700000000000000000818000000000000000008188000000000020233168034Casas Sebastian Gabriel       000000000044965000000000000000000000000000000000000000000000000000000000000000000000000000000000000000000000000000000000PES00010000001000000000000000020160806
201608060010000700000000000000000819000000000000000008198000000000030714762199Grupo Aniceto SRL             000000000995904000000000000000000000000000000000000000000000000000000000000000000000000000000000000000000000000000000000PES00010000001000000000000000020160806
201608060010000700000000000000000820000000000000000008208000000000030710322402Emprender Noa SRL             000000000038928000000000000000000000000000000000000000000000000000000000000000000000000000000000000000000000000000000000PES00010000001000000000000000020160806
201608060010000700000000000000000821000000000000000008218000000000030707938338Sanatorio San Roque s.a       000000000011899000000000000000000000000000000000000000000000000000000000000000000000000000000000000000000000000000000000PES00010000001000000000000000020160806
201608060060000700000000000000000178000000000000000001788000000000020000000001Oller Alejandro               000000000011101000000000000000000000000000000000000000000000000000000000000000000000000000000000000000000000000000000000PES00010000001000000000000000020160806
201608060060000700000000000000000179000000000000000001798000000000020000000001Ormeno Emilio                 000000014520363000000000000000000000000000000000000000000000000000000000000000000000000000000000000000000000000000000000PES00010000001000000000000000020160806
201608060030000700000000000000000010000000000000000000108000000000030707938338Sanatorio San Roque s.a       000000014520364000000000000000000000000000000000000000000000000000000000000000000000000000000000000000000000000000000000PES00010000001000000000000000020160806
201608060060000400000000000000001248000000000000000012488000000000020000000001Consumidor Final              000000000815500000000000000000000000000000000000000000000000000000000000000000000000000000000000000000000000000000000000PES00010000001000000000000000020160806
201608080010000700000000000000000822000000000000000008228000000000020202474226Transportadora Velazquez      000000000055419000000000000000000000000000000000000000000000000000000000000000000000000000000000000000000000000000000000PES00010000001000000000000000020160808
201608080010000700000000000000000823000000000000000008238000000000020129589133Daniel Orlando Canonica       000000000018700000000000000000000000000000000000000000000000000000000000000000000000000000000000000000000000000000000000PES00010000001000000000000000020160808
201608080010000700000000000000000824000000000000000008248000000000027246971566Herrera Nelida del Carmen     000000000078351000000000000000000000000000000000000000000000000000000000000000000000000000000000000000000000000000000000PES00010000001000000000000000020160808
201608080010000700000000000000000825000000000000000008258000000000027243389483Miranda Paola                 000000000013770000000000000000000000000000000000000000000000000000000000000000000000000000000000000000000000000000000000PES00010000001000000000000000020160808
201608080010000700000000000000000826000000000000000008268000000000030585579544Sanatorio Parque s.a          000000000416440000000000000000000000000000000000000000000000000000000000000000000000000000000000000000000000000000000000PES00010000001000000000000000020160808
201608080010000700000000000000000827000000000000000008278000000000030585579544Sanatorio Parque s.a          000000000145098000000000000000000000000000000000000000000000000000000000000000000000000000000000000000000000000000000000PES00010000001000000000000000020160808
201608080010000700000000000000000828000000000000000008288000000000030585579544Sanatorio Parque s.a          000000000086350000000000000000000000000000000000000000000000000000000000000000000000000000000000000000000000000000000000PES00010000001000000000000000020160808
201608080010000700000000000000000829000000000000000008298000000000030585579544Sanatorio Parque s.a          000000000314020000000000000000000000000000000000000000000000000000000000000000000000000000000000000000000000000000000000PES00010000001000000000000000020160808
201608080010000700000000000000000830000000000000000008308000000000030585579544Sanatorio Parque s.a          000000000248249000000000000000000000000000000000000000000000000000000000000000000000000000000000000000000000000000000000PES00010000001000000000000000020160808
201608080010000700000000000000000831000000000000000008318000000000030585579544Sanatorio Parque s.a          000000000569551000000000000000000000000000000000000000000000000000000000000000000000000000000000000000000000000000000000PES00010000001000000000000000020160808
201608080010000700000000000000000832000000000000000008328000000000020043874676Gil Mariano Alejandro         000000000093041000000000000000000000000000000000000000000000000000000000000000000000000000000000000000000000000000000000PES00010000001000000000000000020160808
201608080010000700000000000000000833000000000000000008338000000000030711603553Soluciones Tecnicas Gener     000000000006500000000000000000000000000000000000000000000000000000000000000000000000000000000000000000000000000000000000PES00010000001000000000000000020160808
201608080010000700000000000000000834000000000000000008348000000000030707938338Sanatorio San Roque s.a       000000000035600000000000000000000000000000000000000000000000000000000000000000000000000000000000000000000000000000000000PES00010000001000000000000000020160808
201608080010000700000000000000000835000000000000000008358000000000033709488959Comercial Lima S.A            000000000004000000000000000000000000000000000000000000000000000000000000000000000000000000000000000000000000000000000000PES00010000001000000000000000020160808
201608080010000700000000000000000836000000000000000008368000000000030585579544Sanatorio Parque s.a          000000000035600000000000000000000000000000000000000000000000000000000000000000000000000000000000000000000000000000000000PES00010000001000000000000000020160808
201608080010000700000000000000000837000000000000000008378000000000030714836397Ecotec  SRL                   000000000012750000000000000000000000000000000000000000000000000000000000000000000000000000000000000000000000000000000000PES00010000001000000000000000020160808
201608080010000700000000000000000838000000000000000008388000000000020203999519Delta Computacion             000000000033075000000000000000000000000000000000000000000000000000000000000000000000000000000000000000000000000000000000PES00010000001000000000000000020160808
201608080010000700000000000000000839000000000000000008398000000000030700051362Neca s.r.l.                   000000000362650000000000000000000000000000000000000000000000000000000000000000000000000000000000000000000000000000000000PES00010000001000000000000000020160808
201608080010000700000000000000000840000000000000000008408000000000030700051362Neca s.r.l.                   000000000154399000000000000000000000000000000000000000000000000000000000000000000000000000000000000000000000000000000000PES00010000001000000000000000020160808
201608080010000700000000000000000841000000000000000008418000000000030700051362Neca s.r.l.                   000000000199899000000000000000000000000000000000000000000000000000000000000000000000000000000000000000000000000000000000PES00010000001000000000000000020160808
201608080010000700000000000000000842000000000000000008428000000000030700051362Neca s.r.l.                   000000000775501000000000000000000000000000000000000000000000000000000000000000000000000000000000000000000000000000000000PES00010000001000000000000000020160808
201608080010000700000000000000000843000000000000000008438000000000030700051362Neca s.r.l.                   000000000090600000000000000000000000000000000000000000000000000000000000000000000000000000000000000000000000000000000000PES00010000001000000000000000020160808
201608080060000700000000000000000180000000000000000001808000000000030673124816Aero Club Salta               000000000049680000000000000000000000000000000000000000000000000000000000000000000000000000000000000000000000000000000000PES00010000001000000000000000020160808
201608080060000700000000000000000181000000000000000001818000000000033627806529Comando de Brigada            000000000003867000000000000000000000000000000000000000000000000000000000000000000000000000000000000000000000000000000000PES00010000001000000000000000020160808
201608080030000700000000000000000011000000000000000000118000000000030707938338Sanatorio San Roque s.a       000000000035600000000000000000000000000000000000000000000000000000000000000000000000000000000000000000000000000000000000PES00010000001000000000000000020160808
201608080060000400000000000000001249000000000000000012498000000000020000000001Consumidor Final              000000000801100000000000000000000000000000000000000000000000000000000000000000000000000000000000000000000000000000000000PES00010000001000000000000000020160808
201608090010000700000000000000000844000000000000000008448000000000030711603553Soluciones Tecnicas Gener     000000000007736000000000000000000000000000000000000000000000000000000000000000000000000000000000000000000000000000000000PES00010000001000000000000000020160809
201608090010000700000000000000000845000000000000000008458000000000020047080461Binda Aldo Augusto            000000000010400000000000000000000000000000000000000000000000000000000000000000000000000000000000000000000000000000000000PES00010000001000000000000000020160809
201608090010000700000000000000000846000000000000000008468000000000027006586762Sucesion Marocco Irma         000000000072501000000000000000000000000000000000000000000000000000000000000000000000000000000000000000000000000000000000PES00010000001000000000000000020160809
201608090010000700000000000000000847000000000000000008478000000000033604203819Zozzoli e hijo libio S.A      000000000038713000000000000000000000000000000000000000000000000000000000000000000000000000000000000000000000000000000000PES00010000001000000000000000020160809
201608090010000700000000000000000848000000000000000008488000000000020141766350Astudillo  Cesar Alejandr     000000000017341000000000000000000000000000000000000000000000000000000000000000000000000000000000000000000000000000000000PES00010000001000000000000000020160809
201608090010000700000000000000000849000000000000000008498000000000020161283461Bloser Juan Andres            000000000010710000000000000000000000000000000000000000000000000000000000000000000000000000000000000000000000000000000000PES00010000001000000000000000020160809
201608090010000700000000000000000850000000000000000008508000000000030711812675Norterra Construcciones S     000000000078200000000000000000000000000000000000000000000000000000000000000000000000000000000000000000000000000000000000PES00010000001000000000000000020160809
201608090010000700000000000000000851000000000000000008518000000000020201251444Zunino Carlos                 000000000145002000000000000000000000000000000000000000000000000000000000000000000000000000000000000000000000000000000000PES00010000001000000000000000020160809
201608090010000700000000000000000852000000000000000008528000000000030711603553Soluciones Tecnicas Gener     000000000005270000000000000000000000000000000000000000000000000000000000000000000000000000000000000000000000000000000000PES00010000001000000000000000020160809
201608090010000700000000000000000853000000000000000008538000000000030713066407Emergencias Salta SA          000000000006374000000000000000000000000000000000000000000000000000000000000000000000000000000000000000000000000000000000PES00010000001000000000000000020160809
201608090010000700000000000000000854000000000000000008548000000000023302215669Abrebanel Martin              000000000012029000000000000000000000000000000000000000000000000000000000000000000000000000000000000000000000000000000000PES00010000001000000000000000020160809
201608090010000700000000000000000855000000000000000008558000000000020082943510Liendro Roberto Antonio       000000000131849000000000000000000000000000000000000000000000000000000000000000000000000000000000000000000000000000000000PES00010000001000000000000000020160809
201608090010000700000000000000000856000000000000000008568000000000027104513765Caro Maria Eugenia            000000000006970000000000000000000000000000000000000000000000000000000000000000000000000000000000000000000000000000000000PES00010000001000000000000000020160809
201608090010000700000000000000000857000000000000000008578000000000030644225360Servicios Viales de Pigue     000000023690519000000000000000000000000000000000000000000000000000000000000000000000000000000000000000000000000000000000PES00010000001000000000000000020160809
201608090010000700000000000000000858000000000000000008588000000000030690677926Obras y Servicios s.r.l.      000000007158836000000000000000000000000000000000000000000000000000000000000000000000000000000000000000000000000000000000PES00010000001000000000000000020160809
201608090010000700000000000000000859000000000000000008598000000000030656929010ABA Ingenieria SRL            000000000318010000000000000000000000000000000000000000000000000000000000000000000000000000000000000000000000000000000000PES00010000001000000000000000020160809
201608090010000700000000000000000860000000000000000008608000000000033709488959Comercial Lima S.A            000000000058000000000000000000000000000000000000000000000000000000000000000000000000000000000000000000000000000000000000PES00010000001000000000000000020160809
201608090060000700000000000000000182000000000000000001828000000000030709620394Fundacion I M C E J Y S A     000000000003485000000000000000000000000000000000000000000000000000000000000000000000000000000000000000000000000000000000PES00010000001000000000000000020160809
201608090060000400000000000000001250000000000000000012508000000000020000000001Consumidor Final              000000001201300000000000000000000000000000000000000000000000000000000000000000000000000000000000000000000000000000000000PES00010000001000000000000000020160809
201608100010000700000000000000000861000000000000000008618000000000027246971566Herrera Nelida del Carmen     000000000008800000000000000000000000000000000000000000000000000000000000000000000000000000000000000000000000000000000000PES00010000001000000000000000020160810
201608100010000700000000000000000862000000000000000008628000000000030711603553Soluciones Tecnicas Gener     000000000009434000000000000000000000000000000000000000000000000000000000000000000000000000000000000000000000000000000000PES00010000001000000000000000020160810
201608100010000700000000000000000863000000000000000008638000000000027243389483Miranda Paola                 000000000064259000000000000000000000000000000000000000000000000000000000000000000000000000000000000000000000000000000000PES00010000001000000000000000020160810
201608100010000700000000000000000864000000000000000008648000000000020203999519Delta Computacion             000000000025500000000000000000000000000000000000000000000000000000000000000000000000000000000000000000000000000000000000PES00010000001000000000000000020160810
201608100010000700000000000000000865000000000000000008658000000000027225612167Rodriguez Lascano Paula       000000000241534000000000000000000000000000000000000000000000000000000000000000000000000000000000000000000000000000000000PES00010000001000000000000000020160810
201608100010000700000000000000000866000000000000000008668000000000020141766350Astudillo  Cesar Alejandr     000000000037888000000000000000000000000000000000000000000000000000000000000000000000000000000000000000000000000000000000PES00010000001000000000000000020160810
201608100010000700000000000000000867000000000000000008678000000000030711229376Pascha SRL                    000000000056118000000000000000000000000000000000000000000000000000000000000000000000000000000000000000000000000000000000PES00010000001000000000000000020160810
201608100060000700000000000000000183000000000000000001838000000000030999284651Policia de Salta              000000000018580000000000000000000000000000000000000000000000000000000000000000000000000000000000000000000000000000000000PES00010000001000000000000000020160810
201608100060000400000000000000001251000000000000000012518000000000020000000001Consumidor Final              000000001624300000000000000000000000000000000000000000000000000000000000000000000000000000000000000000000000000000000000PES00010000001000000000000000020160810
201608110010000700000000000000000868000000000000000008688000000000030650039412Norobras Construcciones C     000000000286009000000000000000000000000000000000000000000000000000000000000000000000000000000000000000000000000000000000PES00010000001000000000000000020160811
201608110010000700000000000000000869000000000000000008698000000000020346208490Esquibel Raul                 000000000010079000000000000000000000000000000000000000000000000000000000000000000000000000000000000000000000000000000000PES00010000001000000000000000020160811
201608110010000700000000000000000870000000000000000008708000000000030690663860Mocovi s.r.l.                 000000001430040000000000000000000000000000000000000000000000000000000000000000000000000000000000000000000000000000000000PES00010000001000000000000000020160811
201608110010000700000000000000000871000000000000000008718000000000027246971566Herrera Nelida del Carmen     000000000038931000000000000000000000000000000000000000000000000000000000000000000000000000000000000000000000000000000000PES00010000001000000000000000020160811
201608110010000700000000000000000872000000000000000008728000000000020148658219Vargas Miguel Angel           000000000052629000000000000000000000000000000000000000000000000000000000000000000000000000000000000000000000000000000000PES00010000001000000000000000020160811
201608110010000700000000000000000873000000000000000008738000000000020110606355Casado Hector Raul            000000000005525000000000000000000000000000000000000000000000000000000000000000000000000000000000000000000000000000000000PES00010000001000000000000000020160811
201608110010000700000000000000000874000000000000000008748000000000020163082609Basso Danilo Miguel           000000000023631000000000000000000000000000000000000000000000000000000000000000000000000000000000000000000000000000000000PES00010000001000000000000000020160811
201608110010000700000000000000000875000000000000000008758000000000030714542083Exa Group SRL                 000000000040172000000000000000000000000000000000000000000000000000000000000000000000000000000000000000000000000000000000PES00010000001000000000000000020160811
201608110060000700000000000000000184000000000000000001848000000000030715019376Consorcio San Francisco       000000000007909000000000000000000000000000000000000000000000000000000000000000000000000000000000000000000000000000000000PES00010000001000000000000000020160811
201608110060000400000000000000001252000000000000000012528000000000020000000001Consumidor Final              000000001169700000000000000000000000000000000000000000000000000000000000000000000000000000000000000000000000000000000000PES00010000001000000000000000020160811
201608120010000700000000000000000876000000000000000008768000000000030710130937Transporte Sanchez  Huert     000000000059755000000000000000000000000000000000000000000000000000000000000000000000000000000000000000000000000000000000PES00010000001000000000000000020160812
201608120010000700000000000000000877000000000000000008778000000000030708722312Verde SA                      000000000012392000000000000000000000000000000000000000000000000000000000000000000000000000000000000000000000000000000000PES00010000001000000000000000020160812
201608120010000700000000000000000878000000000000000008788000000000030707718788Condominio Maria  Madacne     000000000008245000000000000000000000000000000000000000000000000000000000000000000000000000000000000000000000000000000000PES00010000001000000000000000020160812
201608120010000700000000000000000879000000000000000008798000000000030713231505Transporte MTC SA             000000000014832000000000000000000000000000000000000000000000000000000000000000000000000000000000000000000000000000000000PES00010000001000000000000000020160812
201608120010000700000000000000000880000000000000000008808000000000020203999519Delta Computacion             000000000014499000000000000000000000000000000000000000000000000000000000000000000000000000000000000000000000000000000000PES00010000001000000000000000020160812
201608120010000700000000000000000881000000000000000008818000000000030709781037Idem SRL                      000000000057202000000000000000000000000000000000000000000000000000000000000000000000000000000000000000000000000000000000PES00010000001000000000000000020160812
201608120010000700000000000000000882000000000000000008828000000000030708024313Denki Ingenieria SRL          000000000036514000000000000000000000000000000000000000000000000000000000000000000000000000000000000000000000000000000000PES00010000001000000000000000020160812
201608120010000700000000000000000883000000000000000008838000000000033533193469Hotel Salta s.a.              000000000012083000000000000000000000000000000000000000000000000000000000000000000000000000000000000000000000000000000000PES00010000001000000000000000020160812
201608120010000700000000000000000884000000000000000008848000000000027104513765Caro Maria Eugenia            000000000003588000000000000000000000000000000000000000000000000000000000000000000000000000000000000000000000000000000000PES00010000001000000000000000020160812
201608120010000700000000000000000885000000000000000008858000000000030711603553Soluciones Tecnicas Gener     000000000005100000000000000000000000000000000000000000000000000000000000000000000000000000000000000000000000000000000000PES00010000001000000000000000020160812
201608120010000700000000000000000886000000000000000008868000000000030710322402Emprender Noa SRL             000000000005185000000000000000000000000000000000000000000000000000000000000000000000000000000000000000000000000000000000PES00010000001000000000000000020160812
201608120010000700000000000000000887000000000000000008878000000000030710829310Lumer SRL                     000000000025694000000000000000000000000000000000000000000000000000000000000000000000000000000000000000000000000000000000PES00010000001000000000000000020160812
201608120060000700000000000000000185000000000000000001858000000000020000000001Escuela Jacoba Saravia        000000000003570000000000000000000000000000000000000000000000000000000000000000000000000000000000000000000000000000000000PES00010000001000000000000000020160812
201608120060000700000000000000000186000000000000000001868000000000030630823370APSADE                        000000000006035000000000000000000000000000000000000000000000000000000000000000000000000000000000000000000000000000000000PES00010000001000000000000000020160812
201608120060000400000000000000001253000000000000000012538000000000020000000001Consumidor Final              000000001165600000000000000000000000000000000000000000000000000000000000000000000000000000000000000000000000000000000000PES00010000001000000000000000020160812
201608130010000700000000000000000888000000000000000008888000000000030709781037Idem SRL                      000000000087000000000000000000000000000000000000000000000000000000000000000000000000000000000000000000000000000000000000PES00010000001000000000000000020160813
201608130010000700000000000000000889000000000000000008898000000000020109933970Chihan Walter                 000000000238842000000000000000000000000000000000000000000000000000000000000000000000000000000000000000000000000000000000PES00010000001000000000000000020160813
201608130010000700000000000000000890000000000000000008908000000000030711036918Consorcio Mercede WORD Ce     000000000013183000000000000000000000000000000000000000000000000000000000000000000000000000000000000000000000000000000000PES00010000001000000000000000020160813
201608130010000700000000000000000891000000000000000008918000000000020079682900Zoricich Oscar                000000000066555000000000000000000000000000000000000000000000000000000000000000000000000000000000000000000000000000000000PES00010000001000000000000000020160813
201608130010000700000000000000000892000000000000000008928000000000030710829310Lumer SRL                     000000000003000000000000000000000000000000000000000000000000000000000000000000000000000000000000000000000000000000000000PES00010000001000000000000000020160813
201608130010000700000000000000000893000000000000000008938000000000030710322402Emprender Noa SRL             000000000037400000000000000000000000000000000000000000000000000000000000000000000000000000000000000000000000000000000000PES00010000001000000000000000020160813
201608130060000700000000000000000187000000000000000001878000000000020000000001Arq Pacheco                   000000000066908000000000000000000000000000000000000000000000000000000000000000000000000000000000000000000000000000000000PES00010000001000000000000000020160813
201608130060000700000000000000000188000000000000000001888000000000020000000001Mendez Gustavo                000000000242563000000000000000000000000000000000000000000000000000000000000000000000000000000000000000000000000000000000PES00010000001000000000000000020160813
201608130060000400000000000000001254000000000000000012548000000000020000000001Consumidor Final              000000001302400000000000000000000000000000000000000000000000000000000000000000000000000000000000000000000000000000000000PES00010000001000000000000000020160813
201608160010000700000000000000000894000000000000000008948000000000030709994251CyAC SRL                      000000000156008000000000000000000000000000000000000000000000000000000000000000000000000000000000000000000000000000000000PES00010000001000000000000000020160816
201608160010000700000000000000000895000000000000000008958000000000030709994251CyAC SRL                      000000001895207000000000000000000000000000000000000000000000000000000000000000000000000000000000000000000000000000000000PES00010000001000000000000000020160816
201608160010000700000000000000000896000000000000000008968000000000030709994251CyAC SRL                      000000000746526000000000000000000000000000000000000000000000000000000000000000000000000000000000000000000000000000000000PES00010000001000000000000000020160816
201608160010000700000000000000000897000000000000000008978000000000027243389483Miranda Paola                 000000000111179000000000000000000000000000000000000000000000000000000000000000000000000000000000000000000000000000000000PES00010000001000000000000000020160816
201608160010000700000000000000000898000000000000000008988000000000030693459245Hoyts General Cinema          000000000016659000000000000000000000000000000000000000000000000000000000000000000000000000000000000000000000000000000000PES00010000001000000000000000020160816
201608160010000700000000000000000899000000000000000008998000000000020081684309Lecuona de Pratt Martin       000000000025585000000000000000000000000000000000000000000000000000000000000000000000000000000000000000000000000000000000PES00010000001000000000000000020160816
201608160010000700000000000000000900000000000000000009008000000000030714549630Terranova Construcciones      000000000069701000000000000000000000000000000000000000000000000000000000000000000000000000000000000000000000000000000000PES00010000001000000000000000020160816
201608160010000700000000000000000901000000000000000009018000000000027243389483Miranda Paola                 000000000031620000000000000000000000000000000000000000000000000000000000000000000000000000000000000000000000000000000000PES00010000001000000000000000020160816
201608160010000700000000000000000902000000000000000009028000000000033707520359Leon Vidrios SRL              000000000013601000000000000000000000000000000000000000000000000000000000000000000000000000000000000000000000000000000000PES00010000001000000000000000020160816
201608160010000700000000000000000903000000000000000009038000000000033709488959Comercial Lima S.A            000000000058000000000000000000000000000000000000000000000000000000000000000000000000000000000000000000000000000000000000PES00010000001000000000000000020160816
201608160010000700000000000000000904000000000000000009048000000000033709309159Wallcoms SA                   000000000342333000000000000000000000000000000000000000000000000000000000000000000000008282000000000000000000000000000000PES00010000001000000000000000020160816
201608160010000700000000000000000905000000000000000009058000000000033709309159Wallcoms SA                   000000000005015000000000000000000000000000000000000000000000000000000000000000000000000000000000000000000000000000000000PES00010000001000000000000000020160816
201608160060000700000000000000000189000000000000000001898000000000033617945199Soc. Italiana 20 de Sept.     000000000016562000000000000000000000000000000000000000000000000000000000000000000000000000000000000000000000000000000000PES00010000001000000000000000020160816
201608160060000700000000000000000190000000000000000001908000000000033617945199Soc. Italiana 20 de Sept.     000000000004500000000000000000000000000000000000000000000000000000000000000000000000000000000000000000000000000000000000PES00010000001000000000000000020160816
201608160060000400000000000000001255000000000000000012558000000000020000000001Consumidor Final              000000001398100000000000000000000000000000000000000000000000000000000000000000000000000000000000000000000000000000000000PES00010000001000000000000000020160816
201608170010000700000000000000000906000000000000000009068000000000030649642962Premar SA                     000000000023331000000000000000000000000000000000000000000000000000000000000000000000000000000000000000000000000000000000PES00010000001000000000000000020160817
201608170010000700000000000000000907000000000000000009078000000000020148658219Vargas Miguel Angel           000000000087000000000000000000000000000000000000000000000000000000000000000000000000000000000000000000000000000000000000PES00010000001000000000000000020160817
201608170010000700000000000000000908000000000000000009088000000000023121455374Rasero Edith                  000000000203215000000000000000000000000000000000000000000000000000000000000000000000000000000000000000000000000000000000PES00010000001000000000000000020160817
201608170010000700000000000000000909000000000000000009098000000000023121455374Rasero Edith                  000000000006638000000000000000000000000000000000000000000000000000000000000000000000000000000000000000000000000000000000PES00010000001000000000000000020160817
201608170010000700000000000000000910000000000000000009108000000000020081684309Lecuona de Pratt Martin       000000000014499000000000000000000000000000000000000000000000000000000000000000000000000000000000000000000000000000000000PES00010000001000000000000000020160817
201608170010000700000000000000000911000000000000000009118000000000030711603553Soluciones Tecnicas Gener     000000000002805000000000000000000000000000000000000000000000000000000000000000000000000000000000000000000000000000000000PES00010000001000000000000000020160817
201608170010000700000000000000000912000000000000000009128000000000020203999519Delta Computacion             000000000048926000000000000000000000000000000000000000000000000000000000000000000000000000000000000000000000000000000000PES00010000001000000000000000020160817
201608170010000700000000000000000913000000000000000009138000000000030710322402Emprender Noa SRL             000000000004863000000000000000000000000000000000000000000000000000000000000000000000000000000000000000000000000000000000PES00010000001000000000000000020160817
201608170010000700000000000000000914000000000000000009148000000000020272985228Mariano Gutierrez             000000000002800000000000000000000000000000000000000000000000000000000000000000000000000000000000000000000000000000000000PES00010000001000000000000000020160817
201608170010000700000000000000000915000000000000000009158000000000030543365846Estacin de Servicio Flor     000000000002635000000000000000000000000000000000000000000000000000000000000000000000000000000000000000000000000000000000PES00010000001000000000000000020160817
201608170010000700000000000000000916000000000000000009168000000000030710829310Lumer SRL                     000000000010010000000000000000000000000000000000000000000000000000000000000000000000000000000000000000000000000000000000PES00010000001000000000000000020160817
201608170060000700000000000000000191000000000000000001918000000000030673110130Colegio de Odontologo         000000000069700000000000000000000000000000000000000000000000000000000000000000000000000000000000000000000000000000000000PES00010000001000000000000000020160817
201608170060000700000000000000000192000000000000000001928000000000030709620394Fundacion I M C E J Y S A     000000000145001000000000000000000000000000000000000000000000000000000000000000000000000000000000000000000000000000000000PES00010000001000000000000000020160817
201608170060000700000000000000000193000000000000000001938000000000020112822179Hector Harach                 000000000242563000000000000000000000000000000000000000000000000000000000000000000000000000000000000000000000000000000000PES00010000001000000000000000020160817
201608170080000700000000000000000002000000000000000000028000000000020000000001Mendez Gustavo                000000000242563000000000000000000000000000000000000000000000000000000000000000000000000000000000000000000000000000000000PES00010000001000000000000000020160817
201608170060000400000000000000001256000000000000000012568000000000020000000001Consumidor Final              000000001020100000000000000000000000000000000000000000000000000000000000000000000000000000000000000000000000000000000000PES00010000001000000000000000020160817
201608180010000700000000000000000917000000000000000009178000000000030709994251CyAC SRL                      000000000158347000000000000000000000000000000000000000000000000000000000000000000000000000000000000000000000000000000000PES00010000001000000000000000020160818
201608180010000700000000000000000918000000000000000009188000000000030710398980Bielli Horacio Emprend. A     000000000030531000000000000000000000000000000000000000000000000000000000000000000000000000000000000000000000000000000000PES00010000001000000000000000020160818
201608180010000700000000000000000919000000000000000009198000000000020271751452Ragone Figueroa Jose Mari     000000000022536000000000000000000000000000000000000000000000000000000000000000000000000000000000000000000000000000000000PES00010000001000000000000000020160818
201608180010000700000000000000000920000000000000000009208000000000020201251444Zunino Carlos                 000000000015052000000000000000000000000000000000000000000000000000000000000000000000000000000000000000000000000000000000PES00010000001000000000000000020160818
201608180010000700000000000000000921000000000000000009218000000000030501522496Vicente Moncho Construcci     000000050840874000000000000000000000000000000000000000000000000000000000000000000000000000000000000000000000000000000000PES00010000001000000000000000020160818
201608180010000700000000000000000922000000000000000009228000000000030679839191Concordia Construcciones      000000000005950000000000000000000000000000000000000000000000000000000000000000000000000000000000000000000000000000000000PES00010000001000000000000000020160818
201608180010000700000000000000000923000000000000000009238000000000030681284474Combustibles del Norte S.     000000002092328000000000000000000000000000000000000000000000000000000000000000000000000000000000000000000000000000000000PES00010000001000000000000000020160818
201608180010000700000000000000000924000000000000000009248000000000027225612167Rodriguez Lascano Paula       000000000136963000000000000000000000000000000000000000000000000000000000000000000000000000000000000000000000000000000000PES00010000001000000000000000020160818
201608180010000700000000000000000925000000000000000009258000000000027006586762Sucesion Marocco Irma         000000000043501000000000000000000000000000000000000000000000000000000000000000000000000000000000000000000000000000000000PES00010000001000000000000000020160818
201608180010000700000000000000000926000000000000000009268000000000030708024313Denki Ingenieria SRL          000000000032469000000000000000000000000000000000000000000000000000000000000000000000000000000000000000000000000000000000PES00010000001000000000000000020160818
201608180010000700000000000000000927000000000000000009278000000000030708024313Denki Ingenieria SRL          000000000028475000000000000000000000000000000000000000000000000000000000000000000000000000000000000000000000000000000000PES00010000001000000000000000020160818
201608180010000700000000000000000928000000000000000009288000000000033709309159Wallcoms SA                   000000000699208000000000000000000000000000000000000000000000000000000000000000000000016916000000000000000000000000000000PES00010000001000000000000000020160818
201608180010000700000000000000000929000000000000000009298000000000020086128269Alcorta Amilcar               000000000019550000000000000000000000000000000000000000000000000000000000000000000000000000000000000000000000000000000000PES00010000001000000000000000020160818
201608180010000700000000000000000930000000000000000009308000000000020217922276Humano Omar Alfredo           000000000029575000000000000000000000000000000000000000000000000000000000000000000000000000000000000000000000000000000000PES00010000001000000000000000020160818
201608180060000700000000000000000194000000000000000001948000000000030673110130Colegio de Odontologo         000000000069454000000000000000000000000000000000000000000000000000000000000000000000000000000000000000000000000000000000PES00010000001000000000000000020160818
201608180060000700000000000000000195000000000000000001958000000000030586762571Universidad Nacional de S     000000000297015000000000000000000000000000000000000000000000000000000000000000000000000000000000000000000000000000000000PES00010000001000000000000000020160818
201608180060000700000000000000000196000000000000000001968000000000020000000001Juan Bigi                     000000000064090000000000000000000000000000000000000000000000000000000000000000000000000000000000000000000000000000000000PES00010000001000000000000000020160818
201608180060000700000000000000000197000000000000000001978000000000020000000001Casino de Oficiales-Cdo B     000000000038872000000000000000000000000000000000000000000000000000000000000000000000000000000000000000000000000000000000PES00010000001000000000000000020160818
201608180060000700000000000000000198000000000000000001988000000000033617945199Soc. Italiana 20 de Sept.     000000000015461000000000000000000000000000000000000000000000000000000000000000000000000000000000000000000000000000000000PES00010000001000000000000000020160818
201608180060000700000000000000000199000000000000000001998000000000030676303657Fundacion Argeninta           000000000099046000000000000000000000000000000000000000000000000000000000000000000000000000000000000000000000000000000000PES00010000001000000000000000020160818
201608180060000400000000000000001257000000000000000012578000000000020000000001Consumidor Final              000000000916800000000000000000000000000000000000000000000000000000000000000000000000000000000000000000000000000000000000PES00010000001000000000000000020160818
201608190010000700000000000000000931000000000000000009318000000000033709309159Wallcoms SA                   000000000318519000000000000000000000000000000000000000000000000000000000000000000000007706000000000000000000000000000000PES00010000001000000000000000020160819
201608190010000700000000000000000932000000000000000009328000000000030661919406Transnoa SA                   000000000148070000000000000000000000000000000000000000000000000000000000000000000000000000000000000000000000000000000000PES00010000001000000000000000020160819
201608190010000700000000000000000933000000000000000009338000000000030715193082Q Seguridad                   000000000027794000000000000000000000000000000000000000000000000000000000000000000000000000000000000000000000000000000000PES00010000001000000000000000020160819
201608190010000700000000000000000934000000000000000009348000000000020072494548Saravia Mario David Tadeo     000000000442214000000000000000000000000000000000000000000000000000000000000000000000000000000000000000000000000000000000PES00010000001000000000000000020160819
201608190010000700000000000000000935000000000000000009358000000000027243389483Miranda Paola                 000000000051000000000000000000000000000000000000000000000000000000000000000000000000000000000000000000000000000000000000PES00010000001000000000000000020160819
201608190010000700000000000000000936000000000000000009368000000000030707173560URSA Ing y Const SA           000000010480519000000000000000000000000000000000000000000000000000000000000000000000000000000000000000000000000000000000PES00010000001000000000000000020160819
201608190010000700000000000000000937000000000000000009378000000000020163082609Basso Danilo Miguel           000000000008099000000000000000000000000000000000000000000000000000000000000000000000000000000000000000000000000000000000PES00010000001000000000000000020160819
201608190010000700000000000000000938000000000000000009388000000000027116337725Furlan Claudia Margarita      000000000154766000000000000000000000000000000000000000000000000000000000000000000000000000000000000000000000000000000000PES00010000001000000000000000020160819
201608190010000700000000000000000939000000000000000009398000000000027116337725Furlan Claudia Margarita      000000000036644000000000000000000000000000000000000000000000000000000000000000000000000000000000000000000000000000000000PES00010000001000000000000000020160819
201608190010000700000000000000000940000000000000000009408000000000027116337725Furlan Claudia Margarita      000000000028084000000000000000000000000000000000000000000000000000000000000000000000000000000000000000000000000000000000PES00010000001000000000000000020160819
201608190060000700000000000000000200000000000000000002008000000000020000000001Consorcio Mas iv              000000000008840000000000000000000000000000000000000000000000000000000000000000000000000000000000000000000000000000000000PES00010000001000000000000000020160819
201608190060000700000000000000000201000000000000000002018000000000033617945199Soc. Italiana 20 de Sept.     000000000016660000000000000000000000000000000000000000000000000000000000000000000000000000000000000000000000000000000000PES00010000001000000000000000020160819
201608190060000700000000000000000202000000000000000002028000000000030586762571Universidad Nacional de S     000000000006880000000000000000000000000000000000000000000000000000000000000000000000000000000000000000000000000000000000PES00010000001000000000000000020160819
201608190060000400000000000000001258000000000000000012588000000000020000000001Consumidor Final              000000000792800000000000000000000000000000000000000000000000000000000000000000000000000000000000000000000000000000000000PES00010000001000000000000000020160819
201608200010000700000000000000000941000000000000000009418000000000030673068193Finanser  s.a.                000000001439025000000000000000000000000000000000000000000000000000000000000000000000000000000000000000000000000000000000PES00010000001000000000000000020160820
201608200010000700000000000000000942000000000000000009428000000000030673068193Finanser  s.a.                000000000199112000000000000000000000000000000000000000000000000000000000000000000000000000000000000000000000000000000000PES00010000001000000000000000020160820
201608200010000700000000000000000943000000000000000009438000000000030673068193Finanser  s.a.                000000029914648000000000000000000000000000000000000000000000000000000000000000000000000000000000000000000000000000000000PES00010000001000000000000000020160820
201608200010000700000000000000000944000000000000000009448000000000030673068193Finanser  s.a.                000000002308600000000000000000000000000000000000000000000000000000000000000000000000000000000000000000000000000000000000PES00010000001000000000000000020160820
201608200010000700000000000000000945000000000000000009458000000000030715267396Fibernoa SRL                  000000000190000000000000000000000000000000000000000000000000000000000000000000000000000000000000000000000000000000000000PES00010000001000000000000000020160820
201608200010000700000000000000000946000000000000000009468000000000020234378040Moscoso Rodrigo               000000000027555000000000000000000000000000000000000000000000000000000000000000000000000000000000000000000000000000000000PES00010000001000000000000000020160820
201608200060000700000000000000000203000000000000000002038000000000033617945199Soc. Italiana 20 de Sept.     000000000008585000000000000000000000000000000000000000000000000000000000000000000000000000000000000000000000000000000000PES00010000001000000000000000020160820
201608200060000400000000000000001259000000000000000012598000000000020000000001Consumidor Final              000000000958500000000000000000000000000000000000000000000000000000000000000000000000000000000000000000000000000000000000PES00010000001000000000000000020160820
201608220010000700000000000000000947000000000000000009478000000000030708024313Denki Ingenieria SRL          000000000009604000000000000000000000000000000000000000000000000000000000000000000000000000000000000000000000000000000000PES00010000001000000000000000020160822
201608220010000700000000000000000948000000000000000009488000000000027243389483Miranda Paola                 000000000055080000000000000000000000000000000000000000000000000000000000000000000000000000000000000000000000000000000000PES00010000001000000000000000020160822
201608220010000700000000000000000949000000000000000009498000000000030708765216Ing Rulli SRL                 000000000003010000000000000000000000000000000000000000000000000000000000000000000000000000000000000000000000000000000000PES00010000001000000000000000020160822
201608220010000700000000000000000950000000000000000009508000000000030707361537Anta Bajada SRL               000000000023374000000000000000000000000000000000000000000000000000000000000000000000000000000000000000000000000000000000PES00010000001000000000000000020160822
201608220010000700000000000000000951000000000000000009518000000000030714078832ED Agro SRL                   000000000026075000000000000000000000000000000000000000000000000000000000000000000000000000000000000000000000000000000000PES00010000001000000000000000020160822
201608220010000700000000000000000952000000000000000009528000000000020144880146Lavin Guillermo               000000000029580000000000000000000000000000000000000000000000000000000000000000000000000000000000000000000000000000000000PES00010000001000000000000000020160822
201608220010000700000000000000000953000000000000000009538000000000030710398980Horacio Bielli Div. Empre     000000000016540000000000000000000000000000000000000000000000000000000000000000000000000000000000000000000000000000000000PES00010000001000000000000000020160822
201608220060000700000000000000000204000000000000000002048000000000030999284651Policia de Salta              000000000007905000000000000000000000000000000000000000000000000000000000000000000000000000000000000000000000000000000000PES00010000001000000000000000020160822
201608220060000700000000000000000205000000000000000002058000000000020000000001Consorcio Edificio Acala      000000000050080000000000000000000000000000000000000000000000000000000000000000000000000000000000000000000000000000000000PES00010000001000000000000000020160822
201608220060000400000000000000001260000000000000000012608000000000020000000001Consumidor Final              000000001157500000000000000000000000000000000000000000000000000000000000000000000000000000000000000000000000000000000000PES00010000001000000000000000020160822
201608230010000700000000000000000954000000000000000009548000000000020148658219Vargas Miguel Angel           000000000029000000000000000000000000000000000000000000000000000000000000000000000000000000000000000000000000000000000000PES00010000001000000000000000020160823
201608230010000700000000000000000955000000000000000009558000000000030707975640Gavinor srl                   000000000010506000000000000000000000000000000000000000000000000000000000000000000000000000000000000000000000000000000000PES00010000001000000000000000020160823
201608230010000700000000000000000956000000000000000009568000000000030700051362Neca s.r.l.                   000000027927769000000000000000000000000000000000000000000000000000000000000000000000000000000000000000000000000000000000PES00010000001000000000000000020160823
201608230010000700000000000000000957000000000000000009578000000000030679839191Concordia Construcciones      000000000011440000000000000000000000000000000000000000000000000000000000000000000000000000000000000000000000000000000000PES00010000001000000000000000020160823
201608230010000700000000000000000958000000000000000009588000000000030679839191Concordia Construcciones      000000000006800000000000000000000000000000000000000000000000000000000000000000000000000000000000000000000000000000000000PES00010000001000000000000000020160823
201608230010000700000000000000000959000000000000000009598000000000020127475785Marquez Ricardo Hernan        000000000021590000000000000000000000000000000000000000000000000000000000000000000000000000000000000000000000000000000000PES00010000001000000000000000020160823
201608230010000700000000000000000960000000000000000009608000000000030710398980Bielli Horacio Emprend. A     000000000049623000000000000000000000000000000000000000000000000000000000000000000000000000000000000000000000000000000000PES00010000001000000000000000020160823
201608230010000700000000000000000961000000000000000009618000000000027243389483Miranda Paola                 000000000120001000000000000000000000000000000000000000000000000000000000000000000000000000000000000000000000000000000000PES00010000001000000000000000020160823
201608230010000700000000000000000962000000000000000009628000000000030690677926Obras y Servicios s.r.l.      000000006401169000000000000000000000000000000000000000000000000000000000000000000000000000000000000000000000000000000000PES00010000001000000000000000020160823
201608230010000700000000000000000963000000000000000009638000000000030710829310Lumer SRL                     000000000042034000000000000000000000000000000000000000000000000000000000000000000000000000000000000000000000000000000000PES00010000001000000000000000020160823
201608230010000700000000000000000964000000000000000009648000000000030707474307Crew Live S.A                 000000000005086000000000000000000000000000000000000000000000000000000000000000000000000000000000000000000000000000000000PES00010000001000000000000000020160823
201608230060000700000000000000000206000000000000000002068000000000020213113233Rizzotti Oscar Raul           000000000168045000000000000000000000000000000000000000000000000000000000000000000000000000000000000000000000000000000000PES00010000001000000000000000020160823
201608230060000700000000000000000207000000000000000002078000000000023239768989Bruchmann Oscar Jose          000000001927137000000000000000000000000000000000000000000000000000000000000000000000000000000000000000000000000000000000PES00010000001000000000000000020160823
201608230060000700000000000000000208000000000000000002088000000000023239768989Bruchmann Oscar Jose          000000000070035000000000000000000000000000000000000000000000000000000000000000000000000000000000000000000000000000000000PES00010000001000000000000000020160823
201608230060000700000000000000000209000000000000000002098000000000030709620394Fundacion I M C E J Y S A     000000000006970000000000000000000000000000000000000000000000000000000000000000000000000000000000000000000000000000000000PES00010000001000000000000000020160823
201608230060000400000000000000001261000000000000000012618000000000020000000001Consumidor Final              000000001514800000000000000000000000000000000000000000000000000000000000000000000000000000000000000000000000000000000000PES00010000001000000000000000020160823
201608240010000700000000000000000965000000000000000009658000000000030679839191Concordia Construcciones      000000000006800000000000000000000000000000000000000000000000000000000000000000000000000000000000000000000000000000000000PES00010000001000000000000000020160824
201608240010000700000000000000000966000000000000000009668000000000030711739099Viejo Molino SRL              000000000013097000000000000000000000000000000000000000000000000000000000000000000000000000000000000000000000000000000000PES00010000001000000000000000020160824
201608240010000700000000000000000967000000000000000009678000000000030707975640Gavinor srl                   000000000027200000000000000000000000000000000000000000000000000000000000000000000000000000000000000000000000000000000000PES00010000001000000000000000020160824
201608240010000700000000000000000968000000000000000009688000000000030714370126New Star SRL Sigar SA UTE     000000000027964000000000000000000000000000000000000000000000000000000000000000000000000000000000000000000000000000000000PES00010000001000000000000000020160824
201608240010000700000000000000000969000000000000000009698000000000020249689131Nanni Construcciones          000000000010808000000000000000000000000000000000000000000000000000000000000000000000000000000000000000000000000000000000PES00010000001000000000000000020160824
201608240010000700000000000000000970000000000000000009708000000000033709309159Wallcoms SA                   000000000340316000000000000000000000000000000000000000000000000000000000000000000000008233000000000000000000000000000000PES00010000001000000000000000020160824
201608240010000700000000000000000971000000000000000009718000000000020272985228Mariano Gutierrez             000000000002500000000000000000000000000000000000000000000000000000000000000000000000000000000000000000000000000000000000PES00010000001000000000000000020160824
201608240010000700000000000000000972000000000000000009728000000000027063838662Palazzolo Marta Elena         000000001503550000000000000000000000000000000000000000000000000000000000000000000000000000000000000000000000000000000000PES00010000001000000000000000020160824
201608240010000700000000000000000973000000000000000009738000000000030709994251CyAC SRL                      000000000578993000000000000000000000000000000000000000000000000000000000000000000000000000000000000000000000000000000000PES00010000001000000000000000020160824
201608240060000700000000000000000210000000000000000002108000000000020213113233Rizzotti Oscar Raul           000000000126480000000000000000000000000000000000000000000000000000000000000000000000000000000000000000000000000000000000PES00010000001000000000000000020160824
201608240060000400000000000000001262000000000000000012628000000000020000000001Consumidor Final              000000001678800000000000000000000000000000000000000000000000000000000000000000000000000000000000000000000000000000000000PES00010000001000000000000000020160824
201608250010000700000000000000000974000000000000000009748000000000027104513765Caro Maria Eugenia            000000000011373000000000000000000000000000000000000000000000000000000000000000000000000000000000000000000000000000000000PES00010000001000000000000000020160825
201608250010000700000000000000000975000000000000000009758000000000020081684309Lecuona de Pratt Martin       000000000004539000000000000000000000000000000000000000000000000000000000000000000000000000000000000000000000000000000000PES00010000001000000000000000020160825
201608250010000700000000000000000976000000000000000009768000000000030714030805La Dolores SRL                000000000019134000000000000000000000000000000000000000000000000000000000000000000000000000000000000000000000000000000000PES00010000001000000000000000020160825
201608250010000700000000000000000977000000000000000009778000000000027104513765Caro Maria Eugenia            000000000008840000000000000000000000000000000000000000000000000000000000000000000000000000000000000000000000000000000000PES00010000001000000000000000020160825
201608250010000700000000000000000978000000000000000009788000000000030707891951Aceros Figueroa SRL           000000000039552000000000000000000000000000000000000000000000000000000000000000000000000000000000000000000000000000000000PES00010000001000000000000000020160825
201608250010000700000000000000000979000000000000000009798000000000030714549630Terranova Construcciones      000000000028007000000000000000000000000000000000000000000000000000000000000000000000000000000000000000000000000000000000PES00010000001000000000000000020160825
201608250010000700000000000000000980000000000000000009808000000000027104513765Caro Maria Eugenia            000000000003521000000000000000000000000000000000000000000000000000000000000000000000000000000000000000000000000000000000PES00010000001000000000000000020160825
201608250010000700000000000000000981000000000000000009818000000000027243389483Miranda Paola                 000000000053550000000000000000000000000000000000000000000000000000000000000000000000000000000000000000000000000000000000PES00010000001000000000000000020160825
201608250010000700000000000000000982000000000000000009828000000000020141766350Astudillo  Cesar Alejandr     000000000078215000000000000000000000000000000000000000000000000000000000000000000000000000000000000000000000000000000000PES00010000001000000000000000020160825
201608250010000700000000000000000983000000000000000009838000000000030708024313Denki Ingenieria SRL          000000000029920000000000000000000000000000000000000000000000000000000000000000000000000000000000000000000000000000000000PES00010000001000000000000000020160825
201608250010000700000000000000000984000000000000000009848000000000030711372705Garin Juan Pedro Construc     000000000021248000000000000000000000000000000000000000000000000000000000000000000000000000000000000000000000000000000000PES00010000001000000000000000020160825
201608250010000700000000000000000985000000000000000009858000000000020144533284Quinteros Horacio             000000000900064000000000000000000000000000000000000000000000000000000000000000000000000000000000000000000000000000000000PES00010000001000000000000000020160825
201608250010000700000000000000000986000000000000000009868000000000020144533284Quinteros Horacio             000000000500010000000000000000000000000000000000000000000000000000000000000000000000000000000000000000000000000000000000PES00010000001000000000000000020160825
201608250010000700000000000000000987000000000000000009878000000000030714961388Juramento 370 SRL             000000000042840000000000000000000000000000000000000000000000000000000000000000000000000000000000000000000000000000000000PES00010000001000000000000000020160825
201608250010000700000000000000000988000000000000000009888000000000030710829310Lumer SRL                     000000000019009000000000000000000000000000000000000000000000000000000000000000000000000000000000000000000000000000000000PES00010000001000000000000000020160825
201608250010000700000000000000000989000000000000000009898000000000020105614102Yannitto Jorge Alfredo        000000001881819000000000000000000000000000000000000000000000000000000000000000000000000000000000000000000000000000000000PES00010000001000000000000000020160825
201608250010000700000000000000000990000000000000000009908000000000020105614102Yannitto Jorge Alfredo        000000000511640000000000000000000000000000000000000000000000000000000000000000000000000000000000000000000000000000000000PES00010000001000000000000000020160825
201608250010000700000000000000000991000000000000000009918000000000020105614102Yannitto Jorge Alfredo        000000000248116000000000000000000000000000000000000000000000000000000000000000000000000000000000000000000000000000000000PES00010000001000000000000000020160825
201608250010000700000000000000000992000000000000000009928000000000033709309159Wallcoms SA                   000000001332681000000000000000000000000000000000000000000000000000000000000000000000032242000000000000000000000000000000PES00010000001000000000000000020160825
201608250010000700000000000000000993000000000000000009938000000000033601090029Martinez Eugenio L y Hnos     000000000087083000000000000000000000000000000000000000000000000000000000000000000000000000000000000000000000000000000000PES00010000001000000000000000020160825
201608250010000700000000000000000994000000000000000009948000000000030673132622La Veloz Hoteles s.a.         000000000007820000000000000000000000000000000000000000000000000000000000000000000000000000000000000000000000000000000000PES00010000001000000000000000020160825
201608250060000700000000000000000211000000000000000002118000000000020112822179Hector Harach                 000000000128705000000000000000000000000000000000000000000000000000000000000000000000000000000000000000000000000000000000PES00010000001000000000000000020160825
201608250060000700000000000000000212000000000000000002128000000000030570684732Sindicato de Luz y Fuerza     000000000031890000000000000000000000000000000000000000000000000000000000000000000000000000000000000000000000000000000000PES00010000001000000000000000020160825
201608250060000700000000000000000213000000000000000002138000000000033617945199Soc. Italiana 20 de Sept.     000000000008500000000000000000000000000000000000000000000000000000000000000000000000000000000000000000000000000000000000PES00010000001000000000000000020160825
201608250060000400000000000000001263000000000000000012638000000000020000000001Consumidor Final              000000001458800000000000000000000000000000000000000000000000000000000000000000000000000000000000000000000000000000000000PES00010000001000000000000000020160825
201608260010000700000000000000000995000000000000000009958000000000033707520359Leon Vidrios SRL              000000000017900000000000000000000000000000000000000000000000000000000000000000000000000000000000000000000000000000000000PES00010000001000000000000000020160826
201608260010000700000000000000000996000000000000000009968000000000030711939675Ikba SA                       000000000012480000000000000000000000000000000000000000000000000000000000000000000000000000000000000000000000000000000000PES00010000001000000000000000020160826
201608260010000700000000000000000997000000000000000009978000000000030712430008Tierra Lejana SA              000000000180186000000000000000000000000000000000000000000000000000000000000000000000000000000000000000000000000000000000PES00010000001000000000000000020160826
201608260010000700000000000000000998000000000000000009988000000000027246971566Herrera Nelida del Carmen     000000000259099000000000000000000000000000000000000000000000000000000000000000000000000000000000000000000000000000000000PES00010000001000000000000000020160826
201608260010000700000000000000000999000000000000000009998000000000030715267728I N DA HOUS E SRL             000000000106421000000000000000000000000000000000000000000000000000000000000000000000000000000000000000000000000000000000PES00010000001000000000000000020160826
201608260010000700000000000000001000000000000000000010008000000000030711828091Fideicomiso Belgrano          000000000322864000000000000000000000000000000000000000000000000000000000000000000000000000000000000000000000000000000000PES00010000001000000000000000020160826
201608260010000700000000000000001001000000000000000010018000000000020171317992Lopez Saenz Felix             000000000009139000000000000000000000000000000000000000000000000000000000000000000000000112000000000000000000000000000000PES00010000001000000000000000020160826
201608260060000700000000000000000214000000000000000002148000000000020112822179Hector Harach                 000000000014502000000000000000000000000000000000000000000000000000000000000000000000000000000000000000000000000000000000PES00010000001000000000000000020160826
201608260060000700000000000000000215000000000000000002158000000000030707054960Novo Libertas                 000000000014500000000000000000000000000000000000000000000000000000000000000000000000000000000000000000000000000000000000PES00010000001000000000000000020160826
201608260060000700000000000000000216000000000000000002168000000000020000000001Colegio Doctor Miguel Rag     000000000002635000000000000000000000000000000000000000000000000000000000000000000000000000000000000000000000000000000000PES00010000001000000000000000020160826
201608260060000400000000000000001264000000000000000012648000000000020000000001Consumidor Final              000000000649300000000000000000000000000000000000000000000000000000000000000000000000000000000000000000000000000000000000PES00010000001000000000000000020160826
201608270010000700000000000000001002000000000000000010028000000000030715193082Q Seguridad                   000000000021080000000000000000000000000000000000000000000000000000000000000000000000000000000000000000000000000000000000PES00010000001000000000000000020160827
201608270010000700000000000000001003000000000000000010038000000000033709488959Comercial Lima S.A            000000000046981000000000000000000000000000000000000000000000000000000000000000000000000000000000000000000000000000000000PES00010000001000000000000000020160827
201608270010000700000000000000001004000000000000000010048000000000020216349157Torres Diego Jose             000000000025123000000000000000000000000000000000000000000000000000000000000000000000000000000000000000000000000000000000PES00010000001000000000000000020160827
201608270010000700000000000000001005000000000000000010058000000000030710829310Lumer SRL                     000000000037144000000000000000000000000000000000000000000000000000000000000000000000000000000000000000000000000000000000PES00010000001000000000000000020160827
201608270010000700000000000000001006000000000000000010068000000000030693459245Hoyts General Cinema          000000000192000000000000000000000000000000000000000000000000000000000000000000000000000000000000000000000000000000000000PES00010000001000000000000000020160827
201608270010000700000000000000001007000000000000000010078000000000030693459245Hoyts General Cinema          000000000046035000000000000000000000000000000000000000000000000000000000000000000000000000000000000000000000000000000000PES00010000001000000000000000020160827
201608270060000400000000000000001265000000000000000012658000000000020000000001Consumidor Final              000000000789500000000000000000000000000000000000000000000000000000000000000000000000000000000000000000000000000000000000PES00010000001000000000000000020160827
201608290010000700000000000000001008000000000000000010088000000000030502745278Lucardi Reynaldo s.r.l.       000000000178246000000000000000000000000000000000000000000000000000000000000000000000000000000000000000000000000000000000PES00010000001000000000000000020160829
201608290010000700000000000000001009000000000000000010098000000000030714101443Belgrano Cargas y Logisti     000000000018190000000000000000000000000000000000000000000000000000000000000000000000000000000000000000000000000000000000PES00010000001000000000000000020160829
201608290010000700000000000000001010000000000000000010108000000000030711560099Hospital Publico Materno      000000000014502000000000000000000000000000000000000000000000000000000000000000000000000000000000000000000000000000000000PES00010000001000000000000000020160829
201608290010000700000000000000001011000000000000000010118000000000030708348879EFEVEDE S.A                   000000000042075000000000000000000000000000000000000000000000000000000000000000000000000000000000000000000000000000000000PES00010000001000000000000000020160829
201608290010000700000000000000001012000000000000000010128000000000020081684309Lecuona de Pratt Martin       000000000034910000000000000000000000000000000000000000000000000000000000000000000000000000000000000000000000000000000000PES00010000001000000000000000020160829
201608290010000700000000000000001013000000000000000010138000000000030708106700Los Pirpintos SRL             000000004451313000000000000000000000000000000000000000000000000000000000000000000000000000000000000000000000000000000000PES00010000001000000000000000020160829
201608290010000700000000000000001014000000000000000010148000000000030710261322J F Comercial SRL             000000000997643000000000000000000000000000000000000000000000000000000000000000000000000000000000000000000000000000000000PES00010000001000000000000000020160829
201608290010000700000000000000001015000000000000000010158000000000030714762199Grupo Aniceto SRL             000000000950811000000000000000000000000000000000000000000000000000000000000000000000000000000000000000000000000000000000PES00010000001000000000000000020160829
201608290010000700000000000000001016000000000000000010168000000000020082943510Liendro Roberto Antonio       000000000017341000000000000000000000000000000000000000000000000000000000000000000000000000000000000000000000000000000000PES00010000001000000000000000020160829
201608290010000700000000000000001017000000000000000010178000000000030710586140AG  Emprendimientos SRL       000000000003958000000000000000000000000000000000000000000000000000000000000000000000000000000000000000000000000000000000PES00010000001000000000000000020160829
201608290010000700000000000000001018000000000000000010188000000000030708153911AGA Turismo SA                000000000069126000000000000000000000000000000000000000000000000000000000000000000000000000000000000000000000000000000000PES00010000001000000000000000020160829
201608290010000700000000000000001019000000000000000010198000000000033709995419Sirombra y Garcia SRL         000000000217502000000000000000000000000000000000000000000000000000000000000000000000000000000000000000000000000000000000PES00010000001000000000000000020160829
201608290060000700000000000000000217000000000000000002178000000000020213113233Rizzotti Oscar Raul           000000000105400000000000000000000000000000000000000000000000000000000000000000000000000000000000000000000000000000000000PES00010000001000000000000000020160829
201608290060000400000000000000001266000000000000000012668000000000020000000001Consumidor Final              000000001050800000000000000000000000000000000000000000000000000000000000000000000000000000000000000000000000000000000000PES00010000001000000000000000020160829
201608300010000700000000000000001020000000000000000010208000000000030712988807Rojo Mora                     000000000043501000000000000000000000000000000000000000000000000000000000000000000000000000000000000000000000000000000000PES00010000001000000000000000020160830
201608300010000700000000000000001021000000000000000010218000000000030502745278Reynaldo Lucardi SRL          000000000305371000000000000000000000000000000000000000000000000000000000000000000000000000000000000000000000000000000000PES00010000001000000000000000020160830
201608300010000700000000000000001022000000000000000010228000000000020144880146Lavin Guillermo               000000000020043000000000000000000000000000000000000000000000000000000000000000000000000000000000000000000000000000000000PES00010000001000000000000000020160830
201608300010000700000000000000001023000000000000000010238000000000020081684309Lecuona de Pratt Martin       000000000071807000000000000000000000000000000000000000000000000000000000000000000000000000000000000000000000000000000000PES00010000001000000000000000020160830
201608300010000700000000000000001024000000000000000010248000000000030707474307Crew Live S.A                 000000000017892000000000000000000000000000000000000000000000000000000000000000000000000000000000000000000000000000000000PES00010000001000000000000000020160830
201608300010000700000000000000001025000000000000000010258000000000033709814449La Fragua SA                  000000000030094000000000000000000000000000000000000000000000000000000000000000000000000000000000000000000000000000000000PES00010000001000000000000000020160830
201608300010000700000000000000001026000000000000000010268000000000030714434590El Charrua SRL                000000000005100000000000000000000000000000000000000000000000000000000000000000000000000000000000000000000000000000000000PES00010000001000000000000000020160830
201608300010000700000000000000001027000000000000000010278000000000030709224901Rac Contrucciones SRL         000000000042004000000000000000000000000000000000000000000000000000000000000000000000000000000000000000000000000000000000PES00010000001000000000000000020160830
201608300010000700000000000000001028000000000000000010288000000000030502950033Demisa Constructora s.a.      000000007555234000000000000000000000000000000000000000000000000000000000000000000000000000000000000000000000000000000000PES00010000001000000000000000020160830
201608300010000700000000000000001029000000000000000010298000000000030502950033Demisa Constructora s.a.      000000044682729000000000000000000000000000000000000000000000000000000000000000000000000000000000000000000000000000000000PES00010000001000000000000000020160830
201608300010000700000000000000001030000000000000000010308000000000020937853107Merluzzi Flavio               000000000411911000000000000000000000000000000000000000000000000000000000000000000000011901000000000000000000000000000000PES00010000001000000000000000020160830
201608300010000700000000000000001031000000000000000010318000000000030690677926Obras y Servicios s.r.l.      000000000023205000000000000000000000000000000000000000000000000000000000000000000000000000000000000000000000000000000000PES00010000001000000000000000020160830
201608300060000700000000000000000218000000000000000002188000000000030709620394Fundacion I M C E J Y S A     000000000145001000000000000000000000000000000000000000000000000000000000000000000000000000000000000000000000000000000000PES00010000001000000000000000020160830
201608300060000700000000000000000219000000000000000002198000000000030533610338Club de Gimnasia y Tiro A     000000000034085000000000000000000000000000000000000000000000000000000000000000000000000000000000000000000000000000000000PES00010000001000000000000000020160830
201608300060000700000000000000000220000000000000000002208000000000030533610338Club de Gimnasia y Tiro A     000000000013727000000000000000000000000000000000000000000000000000000000000000000000000000000000000000000000000000000000PES00010000001000000000000000020160830
201608300060000700000000000000000221000000000000000002218000000000030586762571Universidad Nacional de S     000000000035446000000000000000000000000000000000000000000000000000000000000000000000000000000000000000000000000000000000PES00010000001000000000000000020160830
201608300060000700000000000000000222000000000000000002228000000000030586762571Universidad Nacional de S     000000000088213000000000000000000000000000000000000000000000000000000000000000000000000000000000000000000000000000000000PES00010000001000000000000000020160830
