201607310010000100000000000020160701                8000000000030500010084Banco Macro                   000000000052030000000000000000000000000000000000000000000000000000000000000000000000000000000000000000000000000000000000PES00010000001000000000000000000000000000000000000000000                              000000000000000
201607310010000100000000000020160702                8000000000030500010084Banco Macro                   000000000000328000000000000000000000000000000000000000000000000000000000000000000000000000000000000000000000000000000000PES00010000001000000000000000000000000000000000000000000                              000000000000000
201608170010001000000000000000000001                8000000000023185780759MARTINEZ FRANCISCO JOSE       000000003750000000000000000000000000000000000000000000000000000000000000000000000000000000000000000000000000000000000000PES00010000001000000000000000000000000000000000000000000                              000000000000000
201607250010313000000000000000031501                8000000000030663005843MAXICONSUMO SA                000000000407135000000000000000000000000000000000000000009884000000000000000000000000000000000000000000000000000000000000PES00010000002000000000000000000000000000000000000000000                              000000000000000
201607250010313000000000011111131501                8000000000030663005843MAXICONSUMO SA                000000000002553000000000000000000000000000000000000000000000000000000000000000000000000000000000000000000000000000000000PES00010000001000000000000000000000000000000000000000000                              000000000000000
201608150010313000000000000000035753                8000000000030663005843MAXICONSUMO SA                000000000181472000000000000000000000000000000000000000004390000000000000000000000000000000000000000000000000000000000000PES00010000001000000000000000000000000000000000000000000                              000000000000000
201608150010313000000000000000035755                8000000000030663005843MAXICONSUMO SA                000000000291082000000000000000000000000000000000000000007043000000000000000000000000000000000000000000000000000000000000PES00010000001000000000000000000000000000000000000000000                              000000000000000
201607020010313000000000000000026540                8000000000030663005843MAXICONSUMO SA                000000000112647000000000000000000000000000000000000000002725000000000000000000000000000000000000000000000000000000000000PES00010000001000000000000000000000000000000000000000000                              000000000000000
201607020010313000000000000000026551                8000000000030663005843MAXICONSUMO SA                000000000110677000000000000000000000000000000000000000002678000000000000000000000000000000000000000000000000000000000000PES00010000001000000000000000000000000000000000000000000                              000000000000000
201607020010313000000000000000026542                8000000000030663005843MAXICONSUMO SA                000000000195017000000000000000000000000000000000000000004757000000000000000000000000000000000000000000000000000000000000PES00010000002000000000000000000000000000000000000000000                              000000000000000
201607020010313000000000011111126542                8000000000030663005843MAXICONSUMO SA                000000000002917000000000000000000000000000000000000000000000000000000000000000000000000000000000000000000000000000000000PES00010000001000000000000000000000000000000000000000000                              000000000000000
201607020010313000000000000000026541                8000000000030663005843MAXICONSUMO SA                000000000193314000000000000000000000000000000000000000004677000000000000000000000000000000000000000000000000000000000000PES00010000001000000000000000000000000000000000000000000                              000000000000000
201607290010024200000000000000077221                8000000000030501601213SUCESORES DE ALFREDO WILLINER 000000000188333000000000000000000000000000000000000000000000000000000000000000000000005441000000000000000000000000000000PES00010000001000000000000000000000000000000000000000000                              000000000000000
201607280010001400000000000000095614                8000000000030551494280EL GRAMILLAL AGISCA           000000000109998000000000023899000000000000000000000000000000000000000000000000000000000000000000000000000000000000000000PES00010000001000000000000000000000000000000000000000000                              000000000000000
201608160010001400000000000000096174                8000000000030551494280EL GRAMILLAL AGISCA           000000000129994000000000028244000000000000000000000000000000000000000000000000000000000000000000000000000000000000000000PES00010000001000000000000000000000000000000000000000000                              000000000000000
201608030010010100000000000000300484                8000000000030690633635EDESA SA                      000000000419610000000000009806000000000000000000000000000000000000000000000000000000010771000000000000000000000000000000PES00010000001000000000000000000000000000000000000000000                              000000000000000
201606230010339500000000000000036602                8000000000030678774495OPERADORA DE ESTACIONES DE SER000000000030001000000000007035000000000000000000000000000000000000000000000000000000000000000000000000000000000000000000PES00010000001000000000000000000000000000000000000000000                              000000000000000
201606210010000600000000000000015285                8000000000030690671057MANANTIALES SA                000000000099000000000000020299000000000000000000000000000000000000000000000000000000000000000000000000000000000000000000PES00010000001000000000000000000000000000000000000000000                              000000000000000
201606210010000600000000000000015286                8000000000030690671057MANANTIALES SA                000000000099000000000000020299000000000000000000000000000000000000000000000000000000000000000000000000000000000000000000PES00010000001000000000000000000000000000000000000000000                              000000000000000
201606230010000600000000000000015432                8000000000030690671057MANANTIALES SA                000000000099000000000000020299000000000000000000000000000000000000000000000000000000000000000000000000000000000000000000PES00010000001000000000000000000000000000000000000000000                              000000000000000
201606230010000600000000000000015433                8000000000030690671057MANANTIALES SA                000000000099000000000000020299000000000000000000000000000000000000000000000000000000000000000000000000000000000000000000PES00010000001000000000000000000000000000000000000000000                              000000000000000
201606240010000600000000000000015497                8000000000030690671057MANANTIALES SA                000000000099000000000000020299000000000000000000000000000000000000000000000000000000000000000000000000000000000000000000PES00010000001000000000000000000000000000000000000000000                              000000000000000
201606240010000600000000000000015498                8000000000030690671057MANANTIALES SA                000000000099000000000000020299000000000000000000000000000000000000000000000000000000000000000000000000000000000000000000PES00010000001000000000000000000000000000000000000000000                              000000000000000
201606270010000600000000000000015575                8000000000030690671057MANANTIALES SA                000000000099000000000000020299000000000000000000000000000000000000000000000000000000000000000000000000000000000000000000PES00010000001000000000000000000000000000000000000000000                              000000000000000
201606270010000600000000000000015576                8000000000030690671057MANANTIALES SA                000000000099000000000000020299000000000000000000000000000000000000000000000000000000000000000000000000000000000000000000PES00010000001000000000000000000000000000000000000000000                              000000000000000
201606270010000600000000000000015603                8000000000030690671057MANANTIALES SA                000000000099000000000000020299000000000000000000000000000000000000000000000000000000000000000000000000000000000000000000PES00010000001000000000000000000000000000000000000000000                              000000000000000
201606270010000600000000000000015604                8000000000030690671057MANANTIALES SA                000000000099000000000000020299000000000000000000000000000000000000000000000000000000000000000000000000000000000000000000PES00010000001000000000000000000000000000000000000000000                              000000000000000
201606280010000600000000000000015667                8000000000030690671057MANANTIALES SA                000000000099000000000000020299000000000000000000000000000000000000000000000000000000000000000000000000000000000000000000PES00010000001000000000000000000000000000000000000000000                              000000000000000
201606280010000600000000000000015668                8000000000030690671057MANANTIALES SA                000000000099000000000000020299000000000000000000000000000000000000000000000000000000000000000000000000000000000000000000PES00010000001000000000000000000000000000000000000000000                              000000000000000
201606290010000600000000000000015714                8000000000030690671057MANANTIALES SA                000000000099000000000000020299000000000000000000000000000000000000000000000000000000000000000000000000000000000000000000PES00010000001000000000000000000000000000000000000000000                              000000000000000
201606290010000600000000000000015715                8000000000030690671057MANANTIALES SA                000000000099000000000000020299000000000000000000000000000000000000000000000000000000000000000000000000000000000000000000PES00010000001000000000000000000000000000000000000000000                              000000000000000
201606300010000600000000000000015802                8000000000030690671057MANANTIALES SA                000000000040800000000000000000000000000000000000000000000000000000000000000000000000000000000000000000000000000000000000PES00010000001000000000000000000000000000000000000000000                              000000000000000
201606300010000600000000000000015803                8000000000030690671057MANANTIALES SA                000000000310802000000000063728000000000000000000000000000000000000000000000000000000000000000000000000000000000000000000PES00010000001000000000000000000000000000000000000000000                              000000000000000
201607250010000600000000000000017356                8000000000030690671057MANANTIALES SA                000000000099001000000000020595000000000000000000000000000000000000000000000000000000000000000000000000000000000000000000PES00010000001000000000000000000000000000000000000000000                              000000000000000
201607250010000600000000000000017357                8000000000030690671057MANANTIALES SA                000000000099001000000000020595000000000000000000000000000000000000000000000000000000000000000000000000000000000000000000PES00010000001000000000000000000000000000000000000000000                              000000000000000
201607270010000600000000000000017538                8000000000030690671057MANANTIALES SA                000000000099001000000000020595000000000000000000000000000000000000000000000000000000000000000000000000000000000000000000PES00010000001000000000000000000000000000000000000000000                              000000000000000
201607280010000600000000000000017657                8000000000030690671057MANANTIALES SA                000000000099001000000000020595000000000000000000000000000000000000000000000000000000000000000000000000000000000000000000PES00010000001000000000000000000000000000000000000000000                              000000000000000
201607290010000600000000000000017725                8000000000030690671057MANANTIALES SA                000000000099001000000000020595000000000000000000000000000000000000000000000000000000000000000000000000000000000000000000PES00010000001000000000000000000000000000000000000000000                              000000000000000
201607290010000600000000000000017726                8000000000030690671057MANANTIALES SA                000000000081301000000000016913000000000000000000000000000000000000000000000000000000000000000000000000000000000000000000PES00010000001000000000000000000000000000000000000000000                              000000000000000
