201606210060000300000000000000003608                8000000000030631519705SISTEMAS DE COPIADO SRL       000000000116200000000000000000000000000000000000000000000000000000000000000000000000000000000000000000000000000000000000PES00010000001000000000000000000000000000000000000000000                              000000000000000
201606010060010300000000000000009644                8000000000030703852587VOSA SA                       000000000016000000000000000000000000000000000000000000000000000000000000000000000000000000000000000000000000000000000000PES00010000001000000000000000000000000000000000000000000                              000000000000000
201606210060189700000000000000027348                8000000000030708046724INTEGRAL PACK EXPRESS SA      000000000037790000000000000000000000000000000000000000000000000000000000000000000000000000000000000000000000000000000000PES00010000001000000000000000000000000000000000000000000                              000000000000000
