201704200010010100000000000000394730                8000000000030690633635EDESA SA                      000000000063523000000000018275000000000000000000000000000000000000000000000000000000000239000000000000000000000000000000PES00010000001000000000000000000000000000000000000000000                              000000000000000
201704180010010100000000000000392842                8000000000030690633635EDESA SA                      000000000150840000000000075651000000000000000000000000000000000000000000000000000000002073000000000000000000000000000000PES00010000001000000000000000000000000000000000000000000                              000000000000000
201704180010010100000000000000392861                8000000000030690633635EDESA SA                      000000000114059000000000073957000000000000000000000000000000000000000000000000000000001105000000000000000000000000000000PES00010000001000000000000000000000000000000000000000000                              000000000000000
201704180010010100000000000000392846                8000000000030690633635EDESA SA                      000000000071303000000000051640000000000000000000000000000000000000000000000000000000000105000000000000000000000000000000PES00010000002000000000000000000000000000000000000000000                              000000000000000
201704180010010100000000011111392846                8000000000030690633635EDESA SA                      000000000000006000000000000000000000000000000000000000000000000000000000000000000000000000000000000000000000000000000000PES00010000001000000000000000000000000000000000000000000                              000000000000000
201704180010010100000000000000392809                8000000000030690633635EDESA SA                      000000000274218000000000019003000000000000000000000000000000000000000000000000000000007035000000000000000000000000000000PES00010000001000000000000000000000000000000000000000000                              000000000000000
201704270010010100000000000000398150                8000000000030690633635EDESA SA                      000000000104139000000000040784000000000000000000000000000000000000000000000000000000001746000000000000000000000000000000PES00010000001000000000000000000000000000000000000000000                              000000000000000
201704190010102200000000000006356933                8000000000030573652084CABLEVISION SA                000000000070608000000000001708000000000000000000000000000000000000000000000000000000000000000000000000000000000000000000PES00010000001000000000000000000000000000000000000000000                              000000000000000
201704190010102200000000000006355511                8000000000030573652084CABLEVISION SA                000000000071200000000000000000000000000000000000000000000000000000000000000000000000000000000000000000000000000000000000PES00010000001000000000000000000000000000000000000000000                              000000000000000
201704190010102200000000000006356799                8000000000030573652084CABLEVISION SA                000000000071200000000000000000000000000000000000000000000000000000000000000000000000000000000000000000000000000000000000PES00010000001000000000000000000000000000000000000000000                              000000000000000
201704120010810200000000000016522870                8000000000030639453738TELECOM ARGENTINA SA          000000000051131000000000000000000000000000000000000000000000000000000000000000000000000000000000000000000000000000000000PES00010000001000000000000000000000000000000000000000000                              000000000000000
201704120010810200000000000016570090                8000000000030639453738TELECOM ARGENTINA SA          000000000022296000000000000000000000000000000000000000000000000000000000000000000000000000000000000000000000000000000000PES00010000001000000000000000000000000000000000000000000                              000000000000000
201705010010551200000000000002638463                8000000000030678186445TELECOM PERSONAL SA           000000000134810000000000001020000000000000000000000000000000000000000000000000000000000000000000000000000000000000004250PES00010000001000000000000000000000000000000000000000000                              000000000000000
201705010010551200000000000002635902                8000000000030678186445TELECOM PERSONAL SA           000000000241232000000000001833000000000000000000000000000000000000000000000000000000000000000000000000000000000000007443PES00010000002000000000000000000000000000000000000000000                              000000000000000
201705010010551200000000011112635902                8000000000030678186445TELECOM PERSONAL SA           000000000005601000000000000000000000000000000000000000000000000000000000000000000000000000000000000000000000000000000000PES00010000001000000000000000000000000000000000000000000                              000000000000000
201704110010000300000000000000000096                8000000000023262936449ORTIZ VICTOR HUGO             000000004071193000000000000000000000000000000000000000000000000000000000000000000000000000000000000000000000000000000000PES00010000001000000000000000000000000000000000000000000                              000000000000000
201704060010000300000000000000000093                8000000000023262936449ORTIZ VICTOR HUGO             000000004029603000000000000000000000000000000000000000000000000000000000000000000000000000000000000000000000000000000000PES00010000001000000000000000000000000000000000000000000                              000000000000000
201705080010000300000000000000000109                8000000000023262936449ORTIZ VICTOR HUGO             000000003875060000000000000000000000000000000000000000000000000000000000000000000000000000000000000000000000000000000000PES00010000001000000000000000000000000000000000000000000                              000000000000000
201704290010000500000000000000001614                8000000000030709414565AGI CONSTRUCCIONES SRL        000000003098232000000000000000000000000000000000000000000000000000000000000000000000000000000000000000000000000000000000PES00010000001000000000000000000000000000000000000000000                              000000000000000
201705160030000500000000000000000187                8000000000030709414565AGI CONSTRUCCIONES SRL        000000003098232000000000000000000000000000000000000000000000000000000000000000000000000000000000000000000000000000000000PES00010000001000000000000000000000000000000000000000000                              000000000000000
201705080010050100000000000000147300                8000000000030500530851LOMA NEGRA CIASA              000000006692021000000000000000000000000000000000000000161904000000000000000000000000000000000000000000000000000000000000PES00010000001000000000000000000000000000000000000000000                              000000000000000
201705080010050100000000000000147299                8000000000030500530851LOMA NEGRA CIASA              000000083071328000000000000000000000000000000000000002009794000000000000000000000000000000000000000000000000000000000000PES00010000001000000000000000000000000000000000000000000                              000000000000000
201705100030050100000000000000063585                8000000000030500530851LOMA NEGRA CIASA              000000010532503000000000000000000000000000000000000000000000000000000000000000000000000000000000000000000000000000000000PES00010000001000000000000000000000000000000000000000000                              000000000000000
201704240010050100000000000000146475                8000000000030500530851LOMA NEGRA CIASA              000000074576581000000000000000000000000000000000000001804276000000000000000000000000000000000000000000000000000000000000PES00010000001000000000000000000000000000000000000000000                              000000000000000
201704300010050100000000000000146971                8000000000030500530851LOMA NEGRA CIASA              000000041250165000000000000000000000000000000000000000997990000000000000000000000000000000000000000000000000000000000000PES00010000001000000000000000000000000000000000000000000                              000000000000000
201704300010050100000000000000146970                8000000000030500530851LOMA NEGRA CIASA              000000033571130000000000000000000000000000000000000000812206000000000000000000000000000000000000000000000000000000000000PES00010000001000000000000000000000000000000000000000000                              000000000000000
201704190010100700000000000000036194                8000000000030501199253ACINDAR INDUSTRIA ARGENTINA DE000000002844970000000000000000000000000000000000000000068498000000000000000000000000000000000000000013699000000000000000PES00010000001000000000000000000000000000000000000000000                              000000000000000
201705150010050100000000000000147633                8000000000030500530851LOMA NEGRA CIASA              000000091035861000000000000000000000000000000000000002202485000000000000000000000000000000000000000000000000000000000000PES00010000001000000000000000000000000000000000000000000                              000000000000000
201704200010000500000000000000002859                8000000000030586321389VICENTE ALBORS SA             000000004903537000000000000000000000000000000000000000000000000000000000000000000000000000000000000000000000000000000000PES00010000001000000000000000000000000000000000000000000                              000000000000000
201705050010000400000000000000001899                8000000000020302226416DEL BARCO MATIAS              000000000060000000000000000000000000000000000000000000000000000000000000000000000000000000000000000000000000000000000000PES00010000001000000000000000000000000000000000000000000                              000000000000000
201704280030002100000000000000034814                8000000000030552816168DURLOCK SA                    000000000634344000000000000000000000000000000000000000000000000000000000000000000000000000000000000000000000000000000000PES00010000001000000000000000000000000000000000000000000                              000000000000000
201704280030002100000000000000034815                8000000000030552816168DURLOCK SA                    000000000044232000000000000000000000000000000000000000000000000000000000000000000000000000000000000000000000000000000000PES00010000001000000000000000000000000000000000000000000                              000000000000000
201705050010002100000000000000113507                8000000000030552816168DURLOCK SA                    000000020151021000000000000000000000000000000000000000000000000000000000000000000000295373000000000000000000000000000000PES00010000001000000000000000000000000000000000000000000                              000000000000000
201705050010002100000000000000113508                8000000000030552816168DURLOCK SA                    000000002103915000000000000000000000000000000000000000000000000000000000000000000000030839000000000000000000000000000000PES00010000001000000000000000000000000000000000000000000                              000000000000000
201703060010000400000000000000036000                8000000000030688372085ELECTRO MAYO SA               000000000175058000000000000000000000000000000000000000000000000000000000000000000000000000000000000000000000000000000000PES00010000001000000000000000000000000000000000000000000                              000000000000000
201703060010000400000000000000035999                8000000000030688372085ELECTRO MAYO SA               000000001116120000000000000000000000000000000000000000000000000000000000000000000000000000000000000000000000000000000000PES00010000001000000000000000000000000000000000000000000                              000000000000000
201703060010000400000000000000036001                8000000000030688372085ELECTRO MAYO SA               000000001205477000000000000000000000000000000000000000000000000000000000000000000000000000000000000000000000000000000000PES00010000001000000000000000000000000000000000000000000                              000000000000000
201704250010001200000000000000083788                8000000000030500971041ETERNIT ARGENTINA SA          000000019780611000000000000000000000000000000000000000465061000000000000000000000000558074000000000000000000000000000000PES00010000001000000000000000000000000000000000000000000                              000000000000000
201704180010000400000000000000009280                8000000000030675407416FERRETERA DEL NORTE SRL       000000003246531000000000000000000000000000000000000000000000000000000000000000000000041062000000000000000000000000000000PES00010000001000000000000000000000000000000000000000000                              000000000000000
201703010010000600000000000000011278                8000000000033521817599CERAMICA SALTE헤 SA           000000000427230000000000000000000000000000000000000000000000000000000000000000000000012344000000000000000000000000000000PES00010000001000000000000000000000000000000000000000000                              000000000000000
201703280010000600000000000000011940                8000000000033521817599CERAMICA SALTE헤 SA           000000000079971000000000000000000000000000000000000000000000000000000000000000000000002311000000000000000000000000000000PES00010000001000000000000000000000000000000000000000000                              000000000000000
201703300010000600000000000000012033                8000000000033521817599CERAMICA SALTE헤 SA           000000000278361000000000000000000000000000000000000000000000000000000000000000000000008043000000000000000000000000000000PES00010000001000000000000000000000000000000000000000000                              000000000000000
201704040010000600000000000000012120                8000000000033521817599CERAMICA SALTE헤 SA           000000000121199000000000000000000000000000000000000000000000000000000000000000000000003502000000000000000000000000000000PES00010000001000000000000000000000000000000000000000000                              000000000000000
201704100010000600000000000000012219                8000000000033521817599CERAMICA SALTE헤 SA           000000000392879000000000000000000000000000000000000000000000000000000000000000000000011351000000000000000000000000000000PES00010000001000000000000000000000000000000000000000000                              000000000000000
201704100010000600000000000000012220                8000000000033521817599CERAMICA SALTE헤 SA           000000000722622000000000000000000000000000000000000000000000000000000000000000000000020878000000000000000000000000000000PES00010000001000000000000000000000000000000000000000000                              000000000000000
201704190010000900000000000000353561                8000000000030707297154FERRETERA GENERAL PAZ SRL     000000000478835000000000000000000000000000000000000000000000000000000000000000000000000000000000000000000000000000000000PES00010000001000000000000000000000000000000000000000000                              000000000000000
201704190010000900000000000000353560                8000000000030707297154FERRETERA GENERAL PAZ S.R.L   000000003240985000000000000000000000000000000000000000000000000000000000000000000000000000000000000000000000000000000000PES00010000001000000000000000000000000000000000000000000                              000000000000000
201704190010000900000000000000353559                8000000000030707297154FERRETERA GENERAL PAZ S.R.L   000000002430450000000000000000000000000000000000000000000000000000000000000000000000000000000000000000000000000000000000PES00010000002000000000000000000000000000000000000000000                              000000000000000
201704190010000900000000011111353559                8000000000030707297154FERRETERA GENERAL PAZ S.R.L   000000000099249000000000000000000000000000000000000000000000000000000000000000000000000000000000000000000000000000000000PES00010000001000000000000000000000000000000000000000000                              000000000000000
201705090030001100000000000000027657                8000000000030707297154FERRETERA GENERAL PAZ S.R.L   000000000049736000000000000000000000000000000000000000000000000000000000000000000000000000000000000000000000000000000000PES00010000001000000000000000000000000000000000000000000                              000000000000000
201705090030001100000000000000027658                8000000000030707297154FERRETERA GENERAL PAZ S.R.L   000000000099472000000000000000000000000000000000000000000000000000000000000000000000000000000000000000000000000000000000PES00010000002000000000000000000000000000000000000000000                              000000000000000
201705090030001100000000001111127658                8000000000030707297154FERRETERA GENERAL PAZ S.R.L   000000000066167000000000000000000000000000000000000000000000000000000000000000000000000000000000000000000000000000000000PES00010000001000000000000000000000000000000000000000000                              000000000000000
201705020010000400000000000000026898                8000000000030624948765GAMISOL Y CIA SA              000000000522720000000000000000000000000000000000000000000000000000000000000000000000000000000000000000000000000000000000PES00010000001000000000000000000000000000000000000000000                              000000000000000
201704210010001200000000000000028181                8000000000030605912725MAPEI ARGENTINA SA            000000002060717000000000000000000000000000000000000000000000000000000000000000000000000000000000000000000000000000000000PES00010000001000000000000000000000000000000000000000000                              000000000000000
201704210010001200000000000000028180                8000000000030605912725MAPEI ARGENTINA SA            000000005746513000000000000000000000000000000000000000000000000000000000000000000000000000000000000000000000000000000000PES00010000001000000000000000000000000000000000000000000                              000000000000000
201704270010000300000000000000004919                8000000000030714469378MAYORISTA FERRETERO SRL       000000001688859000000000000000000000000000000000000000000000000000000000000000000000000000000000000000000000000000000000PES00010000001000000000000000000000000000000000000000000                              000000000000000
201704100010000400000000000000045561                8000000000030610936780NUEVAS MANUFACTURAS SA        000000000246840000000000000000000000000000000000000000000000000000000000000000000000000000000000000000000000000000000000PES00010000001000000000000000000000000000000000000000000                              000000000000000
201704100010000400000000000000045563                8000000000030610936780NUEVAS MANUFACTURAS SA        000000000523046000000000000000000000000000000000000000000000000000000000000000000000000000000000000000000000000000000000PES00010000001000000000000000000000000000000000000000000                              000000000000000
201704030030000400000000000000009602                8000000000030610936780NUEVAS MANUFACTURAS SA        000000000900385000000000000000000000000000000000000000000000000000000000000000000000000000000000000000000000000000000000PES00010000001000000000000000000000000000000000000000000                              000000000000000
201704170030000400000000000000009647                8000000000030610936780NUEVAS MANUFACTURAS SA        000000000060000000000000000000000000000000000000000000000000000000000000000000000000000000000000000000000000000000000000PES00010000001000000000000000000000000000000000000000000                              000000000000000
201704100010000400000000000000045562                8000000000030610936780NUEVAS MANUFACTURAS SA        000000000054886000000000000000000000000000000000000000000000000000000000000000000000000000000000000000000000000000000000PES00010000001000000000000000000000000000000000000000000                              000000000000000
201704100030000400000000000000009632                8000000000030610936780NUEVAS MANUFACTURAS SA        000000000054886000000000000000000000000000000000000000000000000000000000000000000000000000000000000000000000000000000000PES00010000001000000000000000000000000000000000000000000                              000000000000000
201704040010002300000000000000029343                8000000000030556095597PAREXKLAUKOL SA               000000012574181000000000000000000000000000000000000000295631000000000000000000000000354757000000000000000000000000000000PES00010000001000000000000000000000000000000000000000000                              000000000000000
201704070030002300000000000000000616                8000000000030556095597PAREXKLAUKOL SA               000000012574181000000000000000000000000000000000000000295631000000000000000000000000354757000000000000000000000000000000PES00010000001000000000000000000000000000000000000000000                              000000000000000
201703310010002300000000000000029319                8000000000030556095597PAREXKLAUKOL SA               000000001667441000000000000000000000000000000000000000039203000000000000000000000000047044000000000000000000000000000000PES00010000001000000000000000000000000000000000000000000                              000000000000000
201704050030002300000000000000000614                8000000000030556095597PAREXKLAUKOL SA               000000001667441000000000000000000000000000000000000000039203000000000000000000000000047044000000000000000000000000000000PES00010000001000000000000000000000000000000000000000000                              000000000000000
201704200010000300000000000000000931                8000000000030707500588REFRACTARIOS CUYO SA          000000006999850000000000000000000000000000000000000000000000000000000000000000000000000000000000000000000000000000000000PES00010000001000000000000000000000000000000000000000000                              000000000000000
201704240010000700000000000000035287                8000000000030700067021TUBONOR SA                    000000000067231000000000000000000000000000000000000000000000000000000000000000000000001942000000000000000000000000000000PES00010000001000000000000000000000000000000000000000000                              000000000000000
201704240010000700000000000000035275                8000000000030700067021TUBONOR SA                    000000000194082000000000000000000000000000000000000000000000000000000000000000000000005608000000000000000000000000000000PES00010000001000000000000000000000000000000000000000000                              000000000000000
201704250010000700000000000000035372                8000000000030700067021TUBONOR SA                    000000000218885000000000000000000000000000000000000000000000000000000000000000000000006324000000000000000000000000000000PES00010000001000000000000000000000000000000000000000000                              000000000000000
201704240010000700000000000000035276                8000000000030700067021TUBONOR SA                    000000000611208000000000000000000000000000000000000000000000000000000000000000000000017659000000000000000000000000000000PES00010000001000000000000000000000000000000000000000000                              000000000000000
201704250010007100000000000000014450                8000000000030644685906SALTA PLAST POLIETILENOS SRL  000000000022242000000000000000000000000000000000000000000000000000000000000000000000000643000000000000000000000000000000PES00010000001000000000000000000000000000000000000000000                              000000000000000
201705030010007100000000000000014614                8000000000030644685906SALTA PLAST POLIETILENOS SRL  000000000258259000000000000000000000000000000000000000000000000000000000000000000000007462000000000000000000000000000000PES00010000001000000000000000000000000000000000000000000                              000000000000000
201703130010001100000000000000011888                8000000000030563516573SUC ROBERTO SAMAN SRL         000000000164304000000000000000000000000000000000000000000000000000000000000000000000004104000000000000000000000000000000PES00010000001000000000000000000000000000000000000000000                              000000000000000
201703210010001100000000000000011920                8000000000030563516573SUC ROBERTO SAMAN SRL         000000000092203000000000000000000000000000000000000000000000000000000000000000000000002303000000000000000000000000000000PES00010000001000000000000000000000000000000000000000000                              000000000000000
