201607310010000100000000000020160704                8000000000030500008454Banco Santander Rio           000000000053500000000000000000000000000000000000000000000000000000000000000000000000000000000000000000000000000000000000PES00010000001000000000000000000000000000000000000000000                              000000000000000
201608290010000500000000000000000040                8000000000030710551460SURY SA                       000000000300000000000000000000000000000000000000000000000000000000000000000000000000000000000000000000000000000000000000PES00010000001000000000000000000000000000000000000000000                              000000000000000
201608260010000400000000000000000035                8000000000020128382349SANCHEZ SERGIO ALBERTO        000000000299676000000000000000000000000000000000000000000000000000000000000000000000000000000000000000000000000000000000PES00010000001000000000000000000000000000000000000000000                              000000000000000
201608190010000300000000000000000104                8000000000020279743947SOLA ALSINA PABLO ALEJANDRO   000000000435588000000000000000000000000000000000000000000000000000000000000000000000000000000000000000000000000000000000PES00010000001000000000000000000000000000000000000000000                              000000000000000
201608290010000300000000000000000112                8000000000020279743947SOLA ALSINA PABLO ALEJANDRO   000000000368000000000000000000000000000000000000000000000000000000000000000000000000000000000000000000000000000000000000PES00010000001000000000000000000000000000000000000000000                              000000000000000
201608300010000500000000000000000036                8000000000030557959285LA PREVISORA DEL NORTE SA     000000001680000000000000000000000000000000000000000000000000000000000000000000000000000000000000000000000000000000000000PES00010000001000000000000000000000000000000000000000000                              000000000000000
201608080010000300000000000000000134                8000000000030630949528MOLINOR SRL                   000000000074200000000000000000000000000000000000000000000000000000000000000000000000002144000000000000000000000000000000PES00010000001000000000000000000000000000000000000000000                              000000000000000
201608040010007100000000000000001225                8000000000030580988713PUSSETTO SALTA SA             000000000640908000000000000000000000000000000000000000000000000000000000000000000000000000000000000000000000000000000000PES00010000001000000000000000000000000000000000000000000                              000000000000000
201606190010102200000000000004991279                8000000000030573652084CABLE VISION SA               000000000046175000000000000000000000000000000000000000000000000000000000000000000000000000000000000000000000000000000000PES00010000001000000000000000000000000000000000000000000                              000000000000000
201607190010102200000000000005118769                8000000000030573652084CABLE VISION SA               000000000046175000000000000000000000000000000000000000000000000000000000000000000000000000000000000000000000000000000000PES00010000001000000000000000000000000000000000000000000                              000000000000000
201607220010010100000000000000293436                8000000000030690633635EDESA SA                      000000000162180000000000115987000000000000000000000000000000000000000000000000000000001273000000000000000000000000000000PES00010000001000000000000000000000000000000000000000000                              000000000000000
201608060010002300000000000000000515                8000000000030709461326ILUSIONES SRL                 000000000250000000000000000000000000000000000000000000000000000000000000000000000000000000000000000000000000000000000000PES00010000001000000000000000000000000000000000000000000                              000000000000000
201608080010000100000000000000002257                8000000000030710633815TORO SRL                      000000000053500000000000000000000000000000000000000000000000000000000000000000000000000000000000000000000000000000000000PES00010000001000000000000000000000000000000000000000000                              000000000000000
201608190010000100000000000000000108                8000000000023278401189MAURICIO ABADIA               000000000046000000000000000000000000000000000000000000000000000000000000000000000000000000000000000000000000000000000000PES00010000001000000000000000000000000000000000000000000                              000000000000000
201608050010001900000000000000000711                8000000000033681256089DROGUERIA SAN FRANCISCO SA    000000000253587000000000179337000000000000000000000000000000000000000000000000000000000000000000000000000000000000000000PES00010000001000000000000000000000000000000000000000000                              000000000000000
201608180010307100000000000000008699                8000000000030708772964JUMBO RETAIL ARGENTINA SA     000000000196925000000000000000000000000000000000000000004767000000000000000000000000000000000000000000000000000000000000PES00010000002000000000000000000000000000000000000000000                              000000000000000
201608180010307100000000011111118699                8000000000030708772964JUMBO RETAIL ARGENTINA SA     000000000001609000000000000000000000000000000000000000000000000000000000000000000000000000000000000000000000000000000000PES00010000001000000000000000000000000000000000000000000                              000000000000000
201608040010000200000000000000013333                8000000000027173551199CAZALBON ANA MARIA            000000000009500000000000000000000000000000000000000000000000000000000000000000000000000000000000000000000000000000000000PES00010000001000000000000000000000000000000000000000000                              000000000000000
201608050010000200000000000000000782                8000000000020240372097AIASSA MARCELO FABIAN         000000000032000000000000000000000000000000000000000000000000000000000000000000000000000000000000000000000000000000000000PES00010000001000000000000000000000000000000000000000000                              000000000000000
201608090010000700000000000000002894                8000000000020231672355MEALLA JUAN CARLOS            000000000007001000000000000000000000000000000000000000000000000000000000000000000000000000000000000000000000000000000000PES00010000001000000000000000000000000000000000000000000                              000000000000000
201608050010004500000000000000013831                8000000000030583516790LIBRERÍA SAN PABLO SRL        000000000091015000000000000000000000000000000000000000000000000000000000000000000000000000000000000000000000000000000000PES00010000001000000000000000000000000000000000000000000                              000000000000000
201608300010001200000000000000032969                8000000000030589816435JE TORRES Y CIA SRL           000000000044279000000000000000000000000000000000000000000000000000000000000000000000001279000000000000000000000000000000PES00010000001000000000000000000000000000000000000000000                              000000000000000
201608110010011900000000000000000362                8000000000030540487711SIMON ZEITUNE E HIJO SA       000000000030790000000000000000000000000000000000000000000000000000000000000000000000000890000000000000000000000000000000PES00010000001000000000000000000000000000000000000000000                              000000000000000
201607230010000300000000000000000386                8000000000027099933246MARTINEZ LUCIA ISABEL         000000000027000000000000000000000000000000000000000000000000000000000000000000000000000000000000000000000000000000000000PES00010000001000000000000000000000000000000000000000000                              000000000000000
201608040010009600000000000000000060                8000000000030707489878UNIVISTA SA                   000000000175000000000000000000000000000000000000000000000000000000000000000000000000000000000000000000000000000000000000PES00010000001000000000000000000000000000000000000000000                              000000000000000
201608040010000700000000000000011669                8000000000033681265339ABDENUR HERMANOS SRL          000000000025100000000000000000000000000000000000000000000000000000000000000000000000000000000000000000000000000000000000PES00010000001000000000000000000000000000000000000000000                              000000000000000
201608130010001800000000000000071557                8000000000020104120084DOMINGUEZ JOSE ALFREDO        000000000040023000000000009496000000000000000000000000000000000000000000000000000000000000000000000000000000000000000000PES00010000001000000000000000000000000000000000000000000                              000000000000000
201608270010001800000000000000072224                8000000000020104120084DOMINGUEZ JOSE ALFREDO        000000000040006000000000009433000000000000000000000000000000000000000000000000000000000000000000000000000000000000000000PES00010000001000000000000000000000000000000000000000000                              000000000000000
201608160010000600000000000000075252                8000000000030710388411NUEVA ESTACION DE SRVICIOS BOL000000000047000000000000012123000000000000000000000000000000000000000000000000000000000000000000000000000000000000000000PES00010000001000000000000000000000000000000000000000000                              000000000000000
201607260010000600000000000000073075                8000000000030710388411NUEVA ESTACION DE SRVICIOS BOL000000000080500000000000020820000000000000000000000000000000000000000000000000000000000000000000000000000000000000000000PES00010000001000000000000000000000000000000000000000000                              000000000000000
