201611300010000100000000000020161101                8000000000030500005625CITIBANK                      000000000081070000000000000000000000000000000000000000000000000000000000000000000000000000000000000000000000000000000000PES00010000001000000000000000000000000000000000000000000                              000000000000000
201611300010000100000000000020161104                8000000000030500005625CITIBANK                      000000000015730000000000000000000000000000000000000000000000000000000000000000000000000000000000000000000000000000000000PES00010000001000000000000000000000000000000000000000000                              000000000000000
201612150010001700000000000000071153                8000000000030625616359PETRO GAS SRL                 000000000029999000000000006179000000000000000000000000000000000000000000000000000000000000000000000000000000000000000000PES00010000001000000000000000000000000000000000000000000                              000000000000000
201611160010000500000000000000005365                8000000000030681094551ABERTURAS VALENTINUZ S.A      000000006695892000000000000000000000000000000000000000000000000000000000000000000000000000000000000000000000000000000000PES00010000001000000000000000000000000000000000000000000                              000000000000000
201611160010000500000000000000005366                8000000000030681094551ABERTURAS VALENTINUZ S.A      000000000608306000000000000000000000000000000000000000000000000000000000000000000000000000000000000000000000000000000000PES00010000001000000000000000000000000000000000000000000                              000000000000000
201611160010000300000000000000003821                8000000000030714469378MAYORISTA FERRETERO S.R.L     000000004345175000000000000000000000000000000000000000000000000000000000000000000000000000000000000000000000000000000000PES00010000001000000000000000000000000000000000000000000                              000000000000000
201610070010004300000000000000093977                8000000000033500908519CERAMICA ALBERDI S.A          000000004711240000000000000000000000000000000000000000110247000000000000000000000000132297000000000022049000000000000000PES00010000001000000000000000000000000000000000000000000                              000000000000000
201610070010004300000000000000093978                8000000000033500908519CERAMICA ALBERDI S.A          000000004508201000000000000000000000000000000000000000105496000000000000000000000000126595000000000021099000000000000000PES00010000001000000000000000000000000000000000000000000                              000000000000000
201610070010004300000000000000093979                8000000000033500908519CERAMICA ALBERDI S.A          000000005700065000000000000000000000000000000000000000133387000000000000000000000000160064000000000026677000000000000000PES00010000001000000000000000000000000000000000000000000                              000000000000000
201610240010004300000000000000094913                8000000000033500908519CERAMICA ALBERDI S.A          000000004980661000000000000000000000000000000000000000116552000000000000000000000000139863000000000023310000000000000000PES00010000001000000000000000000000000000000000000000000                              000000000000000
201610240010004300000000000000094944                8000000000033500908519CERAMICA ALBERDI S.A          000000004713016000000000000000000000000000000000000000110289000000000000000000000000132347000000000022058000000000000000PES00010000001000000000000000000000000000000000000000000                              000000000000000
201611300010050100000000000000138906                8000000000030500530851LOMA NEGRA C.I.A.S.A          000000046521980000000000000000000000000000000000000001125534000000000000000000000000000000000000000000000000000000000000PES00010000001000000000000000000000000000000000000000000                              000000000000000
201611300010050100000000000000138907                8000000000030500530851LOMA NEGRA C.I.A.S.A          000000003065939000000000000000000000000000000000000000074176000000000000000000000000000000000000000000000000000000000000PES00010000001000000000000000000000000000000000000000000                              000000000000000
201611300010050100000000000000138908                8000000000030500530851LOMA NEGRA C.I.A.S.A          000000011785123000000000000000000000000000000000000000285124000000000000000000000000000000000000000000000000000000000000PES00010000001000000000000000000000000000000000000000000                              000000000000000
201611220030050100000000000000060638                8000000000030500530851LOMA NEGRA C.I.A.S.A          000000001475716000000000000000000000000000000000000000000000000000000000000000000000000000000000000000000000000000000000PES00010000001000000000000000000000000000000000000000000                              000000000000000
201612120010050100000000000000139271                8000000000030500530851LOMA NEGRA C.I.A.S.A          000000077536633000000000000000000000000000000000000001875890000000000000000000000000000000000000000000000000000000000000PES00010000001000000000000000000000000000000000000000000                              000000000000000
201612120030050100000000000000060928                8000000000030500530851LOMA NEGRA C.I.A.S.A          000000010282549000000000000000000000000000000000000000000000000000000000000000000000000000000000000000000000000000000000PES00010000001000000000000000000000000000000000000000000                              000000000000000
201612150010050100000000000000139576                8000000000030500530851LOMA NEGRA C.I.A.S.A          000000062338563000000000000000000000000000000000000001508194000000000000000000000000000000000000000000000000000000000000PES00010000001000000000000000000000000000000000000000000                              000000000000000
201612230010050100000000000000139942                8000000000030500530851LOMA NEGRA C.I.A.S.A          000000062183934000000000000000000000000000000000000001504452000000000000000000000000000000000000000000000000000000000000PES00010000001000000000000000000000000000000000000000000                              000000000000000
201612210010000400000000000000004392                8000000000030710822685REDINK ARGENTINA S.R.L        000000000061002000000000000000000000000000000000000000000000000000000000000000000000000000000000000000000000000000000000PES00010000001000000000000000000000000000000000000000000                              000000000000000
201611100010003200000000000000002200                8000000000030710204671AUTOPERFORANTES S.A           000000001117650000000000000000000000000000000000000000000000000000000000000000000000000000000000000000000000000000000000PES00010000001000000000000000000000000000000000000000000                              000000000000000
201611080010003100000000000000005321                8000000000030710204671AUTOPERFORANTES S.A           000000003369573000000000000000000000000000000000000000000000000000000000000000000000000000000000000000000000000000000000PES00010000001000000000000000000000000000000000000000000                              000000000000000
201611090010003100000000000000005342                8000000000030710204671AUTOPERFORANTES S.A           000000000108765000000000000000000000000000000000000000000000000000000000000000000000000000000000000000000000000000000000PES00010000001000000000000000000000000000000000000000000                              000000000000000
201611080010003100000000000000005323                8000000000030710204671AUTOPERFORANTES S.A           000000003798977000000000000000000000000000000000000000000000000000000000000000000000000000000000000000000000000000000000PES00010000001000000000000000000000000000000000000000000                              000000000000000
201611080010003100000000000000005322                8000000000030710204671AUTOPERFORANTES S.A           000000001914198000000000000000000000000000000000000000000000000000000000000000000000000000000000000000000000000000000000PES00010000001000000000000000000000000000000000000000000                              000000000000000
201612010010000300000000000000023182                8000000000030711794286MASTER CLEAN SA               000000000520491000000000000000000000000000000000000000000000000000000000000000000000000000000000000000000000000000000000PES00010000001000000000000000000000000000000000000000000                              000000000000000
201612130010000300000000000000000055                8000000000023262936449ORTIZ VICTOR HUGO             000000003753384000000000000000000000000000000000000000000000000000000000000000000000000000000000000000000000000000000000PES00010000001000000000000000000000000000000000000000000                              000000000000000
201612060010000300000000000000000051                8000000000023262936449ORTIZ VICTOR HUGO             000000003579566000000000000000000000000000000000000000000000000000000000000000000000000000000000000000000000000000000000PES00010000001000000000000000000000000000000000000000000                              000000000000000
201612010010551200000000000002015540                8000000000030678186445TELECOM PERSONAL S.A          000000000240468000000000001819000000000000000000000000000000000000000000000000000000000000000000000000000000000000007581PES00010000002000000000000000000000000000000000000000000                              000000000000000
201612010010551200000000011112015540                8000000000030678186445TELECOM PERSONAL S.A          000000000000046000000000000000000000000000000000000000000000000000000000000000000000000000000000000000000000000000000000PES00010000001000000000000000000000000000000000000000000                              000000000000000
201612010010551200000000000002018977                8000000000030678186445TELECOM PERSONAL S.A          000000000113663000000000000860000000000000000000000000000000000000000000000000000000000000000000000000000000000000003583PES00010000001000000000000000000000000000000000000000000                              000000000000000
201610200010010100000000000000325893                8000000000030690633635EDESA S.A.                    000000000076178000000000048694000000000000000000000000000000000000000000000000000000000758000000000000000000000000000000PES00010000002000000000000000000000000000000000000000000                              000000000000000
201610200010010100000000011111325893                8000000000030690633635EDESA S.A.                    000000000000065000000000000000000000000000000000000000000000000000000000000000000000000000000000000000000000000000000000PES00010000001000000000000000000000000000000000000000000                              000000000000000
201611240010010100000000000000340374                8000000000030690633635EDESA S.A.                    000000000043578000000000015140000000000000000000000000000000000000000000000000000000000145000000000000000000000000000000PES00010000001000000000000000000000000000000000000000000                              000000000000000
201611160010010100000000000000336329                8000000000030690633635EDESA S.A.                    000000000194776000000000009717000000000000000000000000000000000000000000000000000000005101000000000000000000000000000000PES00010000001000000000000000000000000000000000000000000                              000000000000000
201611220010010100000000000000339485                8000000000030690633635EDESA S.A.                    000000000064416000000000041223000000000000000000000000000000000000000000000000000000000111000000000000000000000000000000PES00010000001000000000000000000000000000000000000000000                              000000000000000
201611170010010100000000000000336499                8000000000030690633635EDESA S.A.                    000000000130000000000000054546000000000000000000000000000000000000000000000000000000002080000000000000000000000000000000PES00010000001000000000000000000000000000000000000000000                              000000000000000
201611170010010100000000000000336503                8000000000030690633635EDESA S.A.                    000000000077989000000000048446000000000000000000000000000000000000000000000000000000000814000000000000000000000000000000PES00010000001000000000000000000000000000000000000000000                              000000000000000
201611290010010100000000000000341412                8000000000030690633635EDESA S.A.                    000000000085029000000000041162000000000000000000000000000000000000000000000000000000001209000000000000000000000000000000PES00010000001000000000000000000000000000000000000000000                              000000000000000
201611110010209300000000000006397295                8000000000030678814357TELEFONICA MOVILES ARGENTINA S000000000000935000000000000007000000000000000000000000000000000000000000000000000000000000000000000000000000000000000000PES00010000001000000000000000000000000000000000000000000                              000000000000000
201611110010810300000000000016179492                8000000000030639453738TELECOM ARGENTINA SA          000000000018238000000000000000000000000000000000000000000000000000000000000000000000000000000000000000000000000000000000PES00010000001000000000000000000000000000000000000000000                              000000000000000
201611110010810200000000000016125627                8000000000030639453738TELECOM ARGENTINA SA          000000000076985000000000000000000000000000000000000000000000000000000000000000000000000000000000000000000000000000000000PES00010000002000000000000000000000000000000000000000000                              000000000000000
201611110010810200000000011116125627                8000000000030639453738TELECOM ARGENTINA SA          000000000002662000000000000000000000000000000000000000000000000000000000000000000000000000000000000000000000000000000000PES00010000001000000000000000000000000000000000000000000                              000000000000000
201612050010101000000000000000176647                8000000000030501199253ACINDAR INDUTRIA ARGENTINA DE 000000007352864000000000000000000000000000000000000000177035000000000000000000000000000000000000000035407000000000000000PES00010000001000000000000000000000000000000000000000000                              000000000000000
201612050010100700000000000000034686                8000000000030501199253ACINDAR INDUTRIA ARGENTINA DE 000000003979333000000000000000000000000000000000000000095810000000000000000000000000000000000000000019162000000000000000PES00010000001000000000000000000000000000000000000000000                              000000000000000
201611290010000500000000000000041383                8000000000030581209076ANTONIO B. ATENOR E HIJOS S.R.000000000419299000000000000000000000000000000000000000000000000000000000000000000000012115000000000000000000000000000000PES00010000001000000000000000000000000000000000000000000                              000000000000000
201612010010000300000000000000002214                8000000000030709794880CONSTRUCCIONES S.R.L          000000002159823000000000000000000000000000000000000000000000000000000000000000000000000000000000000000000000000000000000PES00010000001000000000000000000000000000000000000000000                              000000000000000
201611010010002300000000000000027345                8000000000030556095597PAREXKLAUKOL S.A              000000007710879000000000000000000000000000000000000000181290000000000000000000000000217548000000000000000000000000000000PES00010000001000000000000000000000000000000000000000000                              000000000000000
201610170010001100000000000000011238                8000000000030563516573SUCESORES DE ROBERTO SAMAN S.R000000000153433000000000000000000000000000000000000000000000000000000000000000000000003833000000000000000000000000000000PES00010000001000000000000000000000000000000000000000000                              000000000000000
201611140010001100000000000000011380                8000000000030563516573SUCESORES DE ROBERTO SAMAN S.R000000000238046000000000000000000000000000000000000000000000000000000000000000000000005946000000000000000000000000000000PES00010000001000000000000000000000000000000000000000000                              000000000000000
201612140010000300000000000000029232                8000000000033680021819GRAZIOLI SRL                  000000001166257000000000000000000000000000000000000000000000000000000000000000000000000000000000000000000000000000000000PES00010000001000000000000000000000000000000000000000000                              000000000000000
201611170010000300000000000000004149                8000000000030712507159DISTRIBUCIONES LA PLATA TOOLS 000000000131464000000000000000000000000000000000000000000000000000000000000000000000000000000000000000000000000000000000PES00010000001000000000000000000000000000000000000000000                              000000000000000
201611300010002900000000000000008924                8000000000030500130128HORIZONTES S.A                000000000126800000000000000000000000000000000000000000000000000000000000000000000000000000000000000000000000000000000000PES00010000001000000000000000000000000000000000000000000                              000000000000000
201611180010002300000000000000017696                8000000000030535896379I.P.S S.A.I.C Y F             000000001759050000000000000000000000000000000000000000000000000000000000000000000000000000000000000000000000000000000000PES00010000001000000000000000000000000000000000000000000                              000000000000000
201610280010000400000000000000000196                8000000000020202474226VELAZQUEZ PABLO EDMUNDO       000000000097668000000000000000000000000000000000000000000000000000000000000000000000000000000000000000000000000000000000PES00010000001000000000000000000000000000000000000000000                              000000000000000
201610280010000200000000000000000259                8000000000030714084425TRANS VEL SRL                 000000000741918000000000000000000000000000000000000000000000000000000000000000000000000000000000000000000000000000000000PES00010000001000000000000000000000000000000000000000000                              000000000000000
