201612010010000700000000000000001814000000000000000018148000000000030708024313Denki Ingenieria SRL          000000000045670000000000000000000000000000000000000000000000000000000000000000000000000000000000000000000000000000000000PES00010000001000000000000000020161201
201612010010000700000000000000001815000000000000000018158000000000020267010065Maicenti Lucas                000000000051510000000000000000000000000000000000000000000000000000000000000000000000000000000000000000000000000000000000PES00010000001000000000000000020161201
201612010010000700000000000000001816000000000000000018168000000000030708389443La Peatonal SRL               000000000039929000000000000000000000000000000000000000000000000000000000000000000000000000000000000000000000000000000000PES00010000001000000000000000020161201
201612010010000700000000000000001817000000000000000018178000000000030679839191Concordia Construcciones      000000000007000000000000000000000000000000000000000000000000000000000000000000000000000000000000000000000000000000000000PES00010000001000000000000000020161201
201612010010000700000000000000001818000000000000000018188000000000030709608688Brisar SRL                    000000000008001000000000000000000000000000000000000000000000000000000000000000000000000000000000000000000000000000000000PES00010000001000000000000000020161201
201612010010000700000000000000001819000000000000000018198000000000030709608688Brisar SRL                    000000000004091000000000000000000000000000000000000000000000000000000000000000000000000000000000000000000000000000000000PES00010000001000000000000000020161201
201612010010000700000000000000001820000000000000000018208000000000023222648459Borquez Vicente               000000000012997000000000000000000000000000000000000000000000000000000000000000000000000000000000000000000000000000000000PES00010000001000000000000000020161201
201612010010000700000000000000001821000000000000000018218000000000020146700811Rodriguez Daniel Alberto      000000000086004000000000000000000000000000000000000000000000000000000000000000000000000000000000000000000000000000000000PES00010000001000000000000000020161201
201612010010000700000000000000001822000000000000000018228000000000030711603553Soluciones Tecnicas Gener     000000000009690000000000000000000000000000000000000000000000000000000000000000000000000000000000000000000000000000000000PES00010000001000000000000000020161201
201612010010000700000000000000001823000000000000000018238000000000030710829310Lumer SRL                     000000000015045000000000000000000000000000000000000000000000000000000000000000000000000000000000000000000000000000000000PES00010000001000000000000000020161201
201612010010000700000000000000001824000000000000000018248000000000020201251444Zunino Carlos                 000000000032065000000000000000000000000000000000000000000000000000000000000000000000000000000000000000000000000000000000PES00010000001000000000000000020161201
201612010010000700000000000000001825000000000000000018258000000000020118525516Castilla Gaston Cecilio       000000000107526000000000000000000000000000000000000000000000000000000000000000000000000000000000000000000000000000000000PES00010000001000000000000000020161201
201612010010000700000000000000001826000000000000000018268000000000030710829310Lumer SRL                     000000000010031000000000000000000000000000000000000000000000000000000000000000000000000000000000000000000000000000000000PES00010000001000000000000000020161201
201612010010000700000000000000001827000000000000000018278000000000030708348879EFEVEDE S.A                   000000000056100000000000000000000000000000000000000000000000000000000000000000000000000000000000000000000000000000000000PES00010000001000000000000000020161201
201612010010000700000000000000001828000000000000000018288000000000023072173589Arroyo Victor Abel            000000000013011000000000000000000000000000000000000000000000000000000000000000000000000000000000000000000000000000000000PES00010000001000000000000000020161201
201612010010000700000000000000001829000000000000000018298000000000020141766350Astudillo  Cesar Alejandr     000000000079466000000000000000000000000000000000000000000000000000000000000000000000000000000000000000000000000000000000PES00010000001000000000000000020161201
201612010010000700000000000000001830000000000000000018308000000000020101679447Hannawy Jose                  000000000006035000000000000000000000000000000000000000000000000000000000000000000000000000000000000000000000000000000000PES00010000001000000000000000020161201
201612010010000700000000000000001831000000000000000018318000000000020203999519Delta Computacion             000000000005175000000000000000000000000000000000000000000000000000000000000000000000000000000000000000000000000000000000PES00010000001000000000000000020161201
201612010010000700000000000000001832000000000000000018328000000000030711023905Estudio Contable Coronel      000000000032217000000000000000000000000000000000000000000000000000000000000000000000000000000000000000000000000000000000PES00010000001000000000000000020161201
201612010060000400000000000000001343000000000000000013438000000000020000000001Consumidor Final              000000002330402000000000000000000000000000000000000000000000000000000000000000000000000000000000000000000000000000000000PES00010000001000000000000000020161201
201612020010000700000000000000001833000000000000000018338000000000030589906272Valle Rafael y Otros SH       000000000043451000000000000000000000000000000000000000000000000000000000000000000000000000000000000000000000000000000000PES00010000001000000000000000020161202
201612020010000700000000000000001834000000000000000018348000000000027257629002Macedo Maria Carolina         000000000570180000000000000000000000000000000000000000000000000000000000000000000000000000000000000000000000000000000000PES00010000001000000000000000020161202
201612020010000700000000000000001835000000000000000018358000000000020126928468Gil Sergio                    000000000036051000000000000000000000000000000000000000000000000000000000000000000000000000000000000000000000000000000000PES00010000001000000000000000020161202
201612020010000700000000000000001836000000000000000018368000000000020081684309Lecuona de Pratt Martin       000000000008754000000000000000000000000000000000000000000000000000000000000000000000000000000000000000000000000000000000PES00010000001000000000000000020161202
201612020010000700000000000000001837000000000000000018378000000000030710829310Lumer SRL                     000000000009307000000000000000000000000000000000000000000000000000000000000000000000000000000000000000000000000000000000PES00010000001000000000000000020161202
201612020010000700000000000000001838000000000000000018388000000000020203999519Delta Computacion             000000000006693000000000000000000000000000000000000000000000000000000000000000000000000000000000000000000000000000000000PES00010000001000000000000000020161202
201612020010000700000000000000001839000000000000000018398000000000020144533284Quinteros Horacio             000000000275166000000000000000000000000000000000000000000000000000000000000000000000000000000000000000000000000000000000PES00010000001000000000000000020161202
201612020010000700000000000000001840000000000000000018408000000000030589906272Valle Rafael y Otros SH       000000000054399000000000000000000000000000000000000000000000000000000000000000000000000000000000000000000000000000000000PES00010000001000000000000000020161202
201612020010000700000000000000001841000000000000000018418000000000020202198512Alvarado Fabio Eduardo        000000000010625000000000000000000000000000000000000000000000000000000000000000000000000000000000000000000000000000000000PES00010000001000000000000000020161202
201612020010000700000000000000001842000000000000000018428000000000030715079425Anagami SRL                   000000000043818000000000000000000000000000000000000000000000000000000000000000000000000000000000000000000000000000000000PES00010000001000000000000000020161202
201612020060000700000000000000000368000000000000000003688000000000033617945199Soc. Italiana 20 de Sept.     000000000094605000000000000000000000000000000000000000000000000000000000000000000000000000000000000000000000000000000000PES00010000001000000000000000020161202
201612020060000700000000000000000369000000000000000003698000000000030999284651Policia de Salta              000000000018403000000000000000000000000000000000000000000000000000000000000000000000000000000000000000000000000000000000PES00010000001000000000000000020161202
201612020060000700000000000000000370000000000000000003708000000000030999284651Policia de Salta              000000000016830000000000000000000000000000000000000000000000000000000000000000000000000000000000000000000000000000000000PES00010000001000000000000000020161202
201612020060000700000000000000000371000000000000000003718000000000030999284651Policia de Salta              000000000011696000000000000000000000000000000000000000000000000000000000000000000000000000000000000000000000000000000000PES00010000001000000000000000020161202
201612020060000700000000000000000372000000000000000003728000000000033617945199Soc. Italiana 20 de Sept.     000000000094690000000000000000000000000000000000000000000000000000000000000000000000000000000000000000000000000000000000PES00010000001000000000000000020161202
201612020060000400000000000000001344000000000000000013448000000000020000000001Consumidor Final              000000000850501000000000000000000000000000000000000000000000000000000000000000000000000000000000000000000000000000000000PES00010000001000000000000000020161202
201612030010000700000000000000001843000000000000000018438000000000030700082101Damesco s.a.                  000000000028560000000000000000000000000000000000000000000000000000000000000000000000000000000000000000000000000000000000PES00010000001000000000000000020161203
201612030010000700000000000000001844000000000000000018448000000000030708487585Agriturismo SRL               000000000048705000000000000000000000000000000000000000000000000000000000000000000000000000000000000000000000000000000000PES00010000001000000000000000020161203
201612030010000700000000000000001845000000000000000018458000000000030712128840Franzini Carlos Alberto       000000000010040000000000000000000000000000000000000000000000000000000000000000000000000290000000000000000000000000000000PES00010000001000000000000000020161203
201612030010000700000000000000001846000000000000000018468000000000020202198512Alvarado Fabio Eduardo        000000000005025000000000000000000000000000000000000000000000000000000000000000000000000000000000000000000000000000000000PES00010000001000000000000000020161203
201612030010000700000000000000001847000000000000000018478000000000023072173589Arroyo Victor Abel            000000000013020000000000000000000000000000000000000000000000000000000000000000000000000000000000000000000000000000000000PES00010000001000000000000000020161203
201612030010000700000000000000001848000000000000000018488000000000027112833892Lopez Norma Alicia            000000000005100000000000000000000000000000000000000000000000000000000000000000000000000000000000000000000000000000000000PES00010000001000000000000000020161203
201612030010000700000000000000001849000000000000000018498000000000020202198512Alvarado Fabio Eduardo        000000000018870000000000000000000000000000000000000000000000000000000000000000000000000000000000000000000000000000000000PES00010000001000000000000000020161203
201612030060000400000000000000001345000000000000000013458000000000020000000001Consumidor Final              000000001569902000000000000000000000000000000000000000000000000000000000000000000000000000000000000000000000000000000000PES00010000001000000000000000020161203
201612050010000700000000000000001850000000000000000018508000000000023072173589Arroyo Victor Abel            000000000004200000000000000000000000000000000000000000000000000000000000000000000000000000000000000000000000000000000000PES00010000001000000000000000020161205
201612050010000700000000000000001851000000000000000018518000000000030536158339Gomez Roco y Cia SRL          000000002229880000000000000000000000000000000000000000000000000000000000000000000000000000000000000000000000000000000000PES00010000001000000000000000020161205
201612050010000700000000000000001852000000000000000018528000000000030709303240Canyo Construcciones SRL      000000000030046000000000000000000000000000000000000000000000000000000000000000000000000000000000000000000000000000000000PES00010000001000000000000000020161205
201612050010000700000000000000001853000000000000000018538000000000030708835559Estacion Vicion srl           000000000602982000000000000000000000000000000000000000000000000000000000000000000000000000000000000000000000000000000000PES00010000001000000000000000020161205
201612050010000700000000000000001854000000000000000018548000000000030707831126El Cerrito S.R.L              000000000015300000000000000000000000000000000000000000000000000000000000000000000000000000000000000000000000000000000000PES00010000001000000000000000020161205
201612050010000700000000000000001855000000000000000018558000000000020277013194Hernan del Cerro              000000000201026000000000000000000000000000000000000000000000000000000000000000000000000000000000000000000000000000000000PES00010000001000000000000000020161205
201612050010000700000000000000001856000000000000000018568000000000024042554819Susecion Rodrigez francin     000000000018105000000000000000000000000000000000000000000000000000000000000000000000000000000000000000000000000000000000PES00010000001000000000000000020161205
201612050010000700000000000000001857000000000000000018578000000000030710249179Agropecuaria Don Salvador     000000000002408000000000000000000000000000000000000000000000000000000000000000000000000000000000000000000000000000000000PES00010000001000000000000000020161205
201612050010000700000000000000001858000000000000000018588000000000030710249179Agropecuaria Don Salvador     000000000021671000000000000000000000000000000000000000000000000000000000000000000000000000000000000000000000000000000000PES00010000001000000000000000020161205
201612050060000700000000000000000373000000000000000003738000000000030693454294Mutual 1 de Agosto            000000000035870000000000000000000000000000000000000000000000000000000000000000000000000000000000000000000000000000000000PES00010000001000000000000000020161205
201612050060000700000000000000000374000000000000000003748000000000033617945199Soc. Italiana 20 de Sept.     000000000031025000000000000000000000000000000000000000000000000000000000000000000000000000000000000000000000000000000000PES00010000001000000000000000020161205
201612050060000400000000000000001346000000000000000013468000000000020000000001Consumidor Final              000000001147202000000000000000000000000000000000000000000000000000000000000000000000000000000000000000000000000000000000PES00010000001000000000000000020161205
201612060010000700000000000000001859000000000000000018598000000000030711383693Grinfil SRL                   000000000036071000000000000000000000000000000000000000000000000000000000000000000000000000000000000000000000000000000000PES00010000001000000000000000020161206
201612060010000700000000000000001860000000000000000018608000000000020081684309Lecuona de Pratt Martin       000000000023800000000000000000000000000000000000000000000000000000000000000000000000000000000000000000000000000000000000PES00010000001000000000000000020161206
201612060010000700000000000000001861000000000000000018618000000000020081684309Lecuona de Pratt Martin       000000000048038000000000000000000000000000000000000000000000000000000000000000000000000000000000000000000000000000000000PES00010000001000000000000000020161206
201612060010000700000000000000001862000000000000000018628000000000020127475785Marquez Ricardo Hernan        000000000022014000000000000000000000000000000000000000000000000000000000000000000000000000000000000000000000000000000000PES00010000001000000000000000020161206
201612060010000700000000000000001863000000000000000018638000000000030708389443La Peatonal SRL               000000000007649000000000000000000000000000000000000000000000000000000000000000000000000000000000000000000000000000000000PES00010000001000000000000000020161206
201612060010000700000000000000001864000000000000000018648000000000027104513765Caro Maria Eugenia            000000000003994000000000000000000000000000000000000000000000000000000000000000000000000000000000000000000000000000000000PES00010000001000000000000000020161206
201612060010000700000000000000001865000000000000000018658000000000030711848874Cisep Consultora SRL          000000000006000000000000000000000000000000000000000000000000000000000000000000000000000000000000000000000000000000000000PES00010000001000000000000000020161206
201612060010000700000000000000001866000000000000000018668000000000030712128840Franzini Carlos Alberto       000000000054579000000000000000000000000000000000000000000000000000000000000000000000001577000000000000000000000000000000PES00010000001000000000000000020161206
201612060060000700000000000000000375000000000000000003758000000000030713752505Micsa srl                     000000000016109000000000000000000000000000000000000000000000000000000000000000000000000000000000000000000000000000000000PES00010000001000000000000000020161206
201612060060000700000000000000000376000000000000000003768000000000030999284651Policia de Salta              000000000057600000000000000000000000000000000000000000000000000000000000000000000000000000000000000000000000000000000000PES00010000001000000000000000020161206
201612060060000700000000000000000377000000000000000003778000000000030999284651Policia de Salta              000000000410720000000000000000000000000000000000000000000000000000000000000000000000000000000000000000000000000000000000PES00010000001000000000000000020161206
201612060060000700000000000000000378000000000000000003788000000000033617945199Soc. Italiana 20 de Sept.     000000000056202000000000000000000000000000000000000000000000000000000000000000000000000000000000000000000000000000000000PES00010000001000000000000000020161206
201612060060000700000000000000000379000000000000000003798000000000030709457485Pro Mujer Argentina           000000000100627000000000000000000000000000000000000000000000000000000000000000000000000000000000000000000000000000000000PES00010000001000000000000000020161206
201612060060000700000000000000000380000000000000000003808000000000020000000001Escuela Victorino de la P     000000000406980000000000000000000000000000000000000000000000000000000000000000000000000000000000000000000000000000000000PES00010000001000000000000000020161206
201612060060000700000000000000000381000000000000000003818000000000020340661673Van Cauwlaert Nicolas         000000000032029000000000000000000000000000000000000000000000000000000000000000000000000000000000000000000000000000000000PES00010000001000000000000000020161206
201612060060000400000000000000001347000000000000000013478000000000020000000001Consumidor Final              000000000647470000000000000000000000000000000000000000000000000000000000000000000000000000000000000000000000000000000000PES00010000001000000000000000020161206
201612070010000700000000000000001867000000000000000018678000000000020148658219Vargas Miguel Angel           000000000032000000000000000000000000000000000000000000000000000000000000000000000000000000000000000000000000000000000000PES00010000001000000000000000020161207
201612070010000700000000000000001868000000000000000018688000000000030708389443La Peatonal SRL               000000000009030000000000000000000000000000000000000000000000000000000000000000000000000000000000000000000000000000000000PES00010000001000000000000000020161207
201612070010000700000000000000001869000000000000000018698000000000024110818986Washington Alvarez            000000000005000000000000000000000000000000000000000000000000000000000000000000000000000000000000000000000000000000000000PES00010000001000000000000000020161207
201612070010000700000000000000001870000000000000000018708000000000030690700758B M I SA                      000000000080064000000000000000000000000000000000000000000000000000000000000000000000000000000000000000000000000000000000PES00010000001000000000000000020161207
201612070010000700000000000000001871000000000000000018718000000000027239938170Arrieta Mariela Edith         000000000001540000000000000000000000000000000000000000000000000000000000000000000000000000000000000000000000000000000000PES00010000001000000000000000020161207
201612070010000700000000000000001872000000000000000018728000000000020177929884Esteban Fonzalida Sergio      000000000041871000000000000000000000000000000000000000000000000000000000000000000000000000000000000000000000000000000000PES00010000001000000000000000020161207
201612070010000700000000000000001873000000000000000018738000000000030708487585Agriturismo SRL               000000000017051000000000000000000000000000000000000000000000000000000000000000000000000000000000000000000000000000000000PES00010000001000000000000000020161207
201612070010000700000000000000001874000000000000000018748000000000020163082609Basso Danilo Miguel           000000000004505000000000000000000000000000000000000000000000000000000000000000000000000000000000000000000000000000000000PES00010000001000000000000000020161207
201612070010000700000000000000001875000000000000000018758000000000030700076446Ser Man s.r.l.                000000000029835000000000000000000000000000000000000000000000000000000000000000000000000000000000000000000000000000000000PES00010000001000000000000000020161207
201612070010000700000000000000001876000000000000000018768000000000030711740208Consulting Group SRL          000000000189337000000000000000000000000000000000000000000000000000000000000000000000000000000000000000000000000000000000PES00010000001000000000000000020161207
201612070010000700000000000000001877000000000000000018778000000000030615180382Cornejo Rovaletti SRL         000000000188171000000000000000000000000000000000000000000000000000000000000000000000000000000000000000000000000000000000PES00010000001000000000000000020161207
201612070010000700000000000000001878000000000000000018788000000000030615180382Cornejo Rovaletti SRL         000000000029988000000000000000000000000000000000000000000000000000000000000000000000000000000000000000000000000000000000PES00010000001000000000000000020161207
201612070010000700000000000000001879000000000000000018798000000000020203999519Delta Computacion             000000000043351000000000000000000000000000000000000000000000000000000000000000000000000000000000000000000000000000000000PES00010000001000000000000000020161207
201612070010000700000000000000001880000000000000000018808000000000027110818985Alvarez Washington            000000000009507000000000000000000000000000000000000000000000000000000000000000000000000000000000000000000000000000000000PES00010000001000000000000000020161207
201612070010000700000000000000001881000000000000000018818000000000030712027289GeoteC SRL                    000000000039050000000000000000000000000000000000000000000000000000000000000000000000000000000000000000000000000000000000PES00010000001000000000000000020161207
201612070060000700000000000000000382000000000000000003828000000000033617945199Soc. Italiana 20 de Sept.     000000000083997000000000000000000000000000000000000000000000000000000000000000000000000000000000000000000000000000000000PES00010000001000000000000000020161207
201612070060000400000000000000001348000000000000000013488000000000020000000001Consumidor Final              000000001220440000000000000000000000000000000000000000000000000000000000000000000000000000000000000000000000000000000000PES00010000001000000000000000020161207
201612090010000700000000000000001882000000000000000018828000000000020162973712Benavidez Everardo G          000000000171827000000000000000000000000000000000000000000000000000000000000000000000000000000000000000000000000000000000PES00010000001000000000000000020161209
201612090010000700000000000000001883000000000000000018838000000000020177929884Esteban Fonzalida Sergio      000000000065480000000000000000000000000000000000000000000000000000000000000000000000000000000000000000000000000000000000PES00010000001000000000000000020161209
201612090060000700000000000000000383000000000000000003838000000000030673137675Municipalidad de Tartagal     000000001664237000000000000000000000000000000000000000000000000000000000000000000000000000000000000000000000000000000000PES00010000001000000000000000020161209
201612090060000700000000000000000384000000000000000003848000000000030673137675Municipalidad de Tartagal     000000001664237000000000000000000000000000000000000000000000000000000000000000000000000000000000000000000000000000000000PES00010000001000000000000000020161209
201612090060000700000000000000000385000000000000000003858000000000030673137675Municipalidad de Tartagal     000000001664237000000000000000000000000000000000000000000000000000000000000000000000000000000000000000000000000000000000PES00010000001000000000000000020161209
201612090060000700000000000000000386000000000000000003868000000000030673137675Municipalidad de Tartagal     000000001664237000000000000000000000000000000000000000000000000000000000000000000000000000000000000000000000000000000000PES00010000001000000000000000020161209
201612090060000400000000000000001349000000000000000013498000000000020000000001Consumidor Final              000000000988600000000000000000000000000000000000000000000000000000000000000000000000000000000000000000000000000000000000PES00010000001000000000000000020161209
201612100010000700000000000000001884000000000000000018848000000000030709268763Fico World SRL                000000000015825000000000000000000000000000000000000000000000000000000000000000000000000000000000000000000000000000000000PES00010000001000000000000000020161210
201612100010000700000000000000001885000000000000000018858000000000030589906272Valle Rafael y Otros SH       000000000009010000000000000000000000000000000000000000000000000000000000000000000000000000000000000000000000000000000000PES00010000001000000000000000020161210
201612100010000700000000000000001886000000000000000018868000000000030709266094T F P Construcciones SRL      000000000160052000000000000000000000000000000000000000000000000000000000000000000000000000000000000000000000000000000000PES00010000001000000000000000020161210
201612100010000700000000000000001887000000000000000018878000000000030687310434INC. S. A                     000000000003681000000000000000000000000000000000000000000000000000000000000000000000000000000000000000000000000000000000PES00010000001000000000000000020161210
201612100010000700000000000000001888000000000000000018888000000000020203999519Delta Computacion             000000000027011000000000000000000000000000000000000000000000000000000000000000000000000000000000000000000000000000000000PES00010000001000000000000000020161210
201612100060000400000000000000001350000000000000000013508000000000020000000001Consumidor Final              000000000845000000000000000000000000000000000000000000000000000000000000000000000000000000000000000000000000000000000000PES00010000001000000000000000020161210
201612120010000700000000000000001889000000000000000018898000000000020081684309Lecuona de Pratt Martin       000000000018490000000000000000000000000000000000000000000000000000000000000000000000000000000000000000000000000000000000PES00010000001000000000000000020161212
201612120010000700000000000000001890000000000000000018908000000000020144533284Quinteros Horacio             000000000069087000000000000000000000000000000000000000000000000000000000000000000000000000000000000000000000000000000000PES00010000001000000000000000020161212
201612120010000700000000000000001891000000000000000018918000000000030710854951Grupo G.G SRL                 000000000022060000000000000000000000000000000000000000000000000000000000000000000000000000000000000000000000000000000000PES00010000001000000000000000020161212
201612120010000700000000000000001892000000000000000018928000000000030708389443La Peatonal SRL               000000000125603000000000000000000000000000000000000000000000000000000000000000000000000000000000000000000000000000000000PES00010000001000000000000000020161212
201612120010000700000000000000001893000000000000000018938000000000030712128840Franzini Carlos Alberto       000000000067966000000000000000000000000000000000000000000000000000000000000000000000001964000000000000000000000000000000PES00010000001000000000000000020161212
201612120010000700000000000000001894000000000000000018948000000000030612122756Molimos Panpa Blanca sa       000000000036974000000000000000000000000000000000000000000000000000000000000000000000000000000000000000000000000000000000PES00010000001000000000000000020161212
201612120010000700000000000000001895000000000000000018958000000000030690700758B M I SA                      000000000023544000000000000000000000000000000000000000000000000000000000000000000000000000000000000000000000000000000000PES00010000001000000000000000020161212
201612120010000700000000000000001896000000000000000018968000000000030714762199Grupo Aniceto SRL             000000000090180000000000000000000000000000000000000000000000000000000000000000000000000000000000000000000000000000000000PES00010000001000000000000000020161212
201612120010000700000000000000001897000000000000000018978000000000020163082609Basso Danilo Miguel           000000000012920000000000000000000000000000000000000000000000000000000000000000000000000000000000000000000000000000000000PES00010000001000000000000000020161212
201612120010000700000000000000001898000000000000000018988000000000023072173589Arroyo Victor Abel            000000000002099000000000000000000000000000000000000000000000000000000000000000000000000000000000000000000000000000000000PES00010000001000000000000000020161212
201612120060000700000000000000000387000000000000000003878000000000033712160409SE 911                        000000000079998000000000000000000000000000000000000000000000000000000000000000000000000000000000000000000000000000000000PES00010000001000000000000000020161212
201612120060000700000000000000000388000000000000000003888000000000030709457485Pro Mujer Argentina           000000000046385000000000000000000000000000000000000000000000000000000000000000000000000000000000000000000000000000000000PES00010000001000000000000000020161212
201612120060000700000000000000000389000000000000000003898000000000020000000001Escuela Dr Delfin Leguiza     000000000099000000000000000000000000000000000000000000000000000000000000000000000000000000000000000000000000000000000000PES00010000001000000000000000020161212
201612120060000400000000000000001351000000000000000013518000000000020000000001Consumidor Final              000000001467101000000000000000000000000000000000000000000000000000000000000000000000000000000000000000000000000000000000PES00010000001000000000000000020161212
201612130010000700000000000000001899000000000000000018998000000000030644225360Servicios Viales de Pigue     000000013595300000000000000000000000000000000000000000000000000000000000000000000000000000000000000000000000000000000000PES00010000001000000000000000020161213
201612130010000700000000000000001900000000000000000019008000000000030711603553Soluciones Tecnicas Gener     000000000009576000000000000000000000000000000000000000000000000000000000000000000000000000000000000000000000000000000000PES00010000001000000000000000020161213
201612130010000700000000000000001901000000000000000019018000000000020085365410Recaman Benjamin              000000000006006000000000000000000000000000000000000000000000000000000000000000000000000000000000000000000000000000000000PES00010000001000000000000000020161213
201612130010000700000000000000001902000000000000000019028000000000020203999519Delta Computacion             000000000052912000000000000000000000000000000000000000000000000000000000000000000000000000000000000000000000000000000000PES00010000001000000000000000020161213
201612130010000700000000000000001903000000000000000019038000000000020203999519Delta Computacion             000000000007056000000000000000000000000000000000000000000000000000000000000000000000000000000000000000000000000000000000PES00010000001000000000000000020161213
201612130010000700000000000000001904000000000000000019048000000000030681329451Desa SA                       000000000800071000000000000000000000000000000000000000000000000000000000000000000000000000000000000000000000000000000000PES00010000001000000000000000020161213
201612130010000700000000000000001905000000000000000019058000000000020163082609Basso Danilo Miguel           000000000013002000000000000000000000000000000000000000000000000000000000000000000000000000000000000000000000000000000000PES00010000001000000000000000020161213
201612130010000700000000000000001906000000000000000019068000000000027246971566Herrera Nelida del Carmen     000000000019029000000000000000000000000000000000000000000000000000000000000000000000000000000000000000000000000000000000PES00010000001000000000000000020161213
201612130010000700000000000000001907000000000000000019078000000000027137070230Canclini Susana Beatriz       000000000320103000000000000000000000000000000000000000000000000000000000000000000000000000000000000000000000000000000000PES00010000001000000000000000020161213
201612130010000700000000000000001908000000000000000019088000000000030501522496Vicente Moncho Construcci     000000032019627000000000000000000000000000000000000000000000000000000000000000000000000000000000000000000000000000000000PES00010000001000000000000000020161213
201612130010000700000000000000001909000000000000000019098000000000030693459245Hoyts General Cinema          000000000011306000000000000000000000000000000000000000000000000000000000000000000000000000000000000000000000000000000000PES00010000001000000000000000020161213
201612130010000700000000000000001910000000000000000019108000000000020081714046Binda Victorio Ricardo        000000000032853000000000000000000000000000000000000000000000000000000000000000000000000000000000000000000000000000000000PES00010000001000000000000000020161213
201612130060000700000000000000000390000000000000000003908000000000020000000001Escuela Dr Delfin Leguiza     000000000005695000000000000000000000000000000000000000000000000000000000000000000000000000000000000000000000000000000000PES00010000001000000000000000020161213
201612130060000700000000000000000391000000000000000003918000000000020000000001Escuela Dr Delfin Leguiza     000000000011390000000000000000000000000000000000000000000000000000000000000000000000000000000000000000000000000000000000PES00010000001000000000000000020161213
201612130060000700000000000000000392000000000000000003928000000000030715120409Ente Nacional de Comunica     000000000035334000000000000000000000000000000000000000000000000000000000000000000000000000000000000000000000000000000000PES00010000001000000000000000020161213
201612130060000700000000000000000393000000000000000003938000000000020000000001Escuela Victorino de la P     000000000017069000000000000000000000000000000000000000000000000000000000000000000000000000000000000000000000000000000000PES00010000001000000000000000020161213
201612130060000700000000000000000394000000000000000003948000000000033712160409Sistema de Emergencias 91     000000000024006000000000000000000000000000000000000000000000000000000000000000000000000000000000000000000000000000000000PES00010000001000000000000000020161213
201612130060000700000000000000000395000000000000000003958000000000030681449805Asociacion San Alfonso        000000000023028000000000000000000000000000000000000000000000000000000000000000000000000000000000000000000000000000000000PES00010000001000000000000000020161213
201612130060000400000000000000001352000000000000000013528000000000020000000001Consumidor Final              000000001452520000000000000000000000000000000000000000000000000000000000000000000000000000000000000000000000000000000000PES00010000001000000000000000020161213
201612140010000700000000000000001911000000000000000019118000000000030710586140A G Emprendimientos SRL       000000000005999000000000000000000000000000000000000000000000000000000000000000000000000000000000000000000000000000000000PES00010000001000000000000000020161214
201612140010000700000000000000001912000000000000000019128000000000020065604931Ghilardotti Gustavo           000000000045985000000000000000000000000000000000000000000000000000000000000000000000000000000000000000000000000000000000PES00010000001000000000000000020161214
201612140010000700000000000000001913000000000000000019138000000000020162973712Benavidez Everardo G          000000000093508000000000000000000000000000000000000000000000000000000000000000000000000000000000000000000000000000000000PES00010000001000000000000000020161214
201612140010000700000000000000001914000000000000000019148000000000030679839191Concordia Construcciones      000000000021505000000000000000000000000000000000000000000000000000000000000000000000000000000000000000000000000000000000PES00010000001000000000000000020161214
201612140010000700000000000000001915000000000000000019158000000000033714718849Arcaria Salud srl             000000000034170000000000000000000000000000000000000000000000000000000000000000000000000000000000000000000000000000000000PES00010000001000000000000000020161214
201612140010000700000000000000001916000000000000000019168000000000020126952903Sapunar Esteban               000000000071994000000000000000000000000000000000000000000000000000000000000000000000000000000000000000000000000000000000PES00010000001000000000000000020161214
201612140010000700000000000000001917000000000000000019178000000000030714762199Grupo Aniceto SRL             000000000091800000000000000000000000000000000000000000000000000000000000000000000000000000000000000000000000000000000000PES00010000001000000000000000020161214
201612140010000700000000000000001918000000000000000019188000000000030589906272Valle Rafael y Otros SH       000000000013600000000000000000000000000000000000000000000000000000000000000000000000000000000000000000000000000000000000PES00010000001000000000000000020161214
201612140010000700000000000000001919000000000000000019198000000000030710854951Grupo G.G SRL                 000000000020555000000000000000000000000000000000000000000000000000000000000000000000000000000000000000000000000000000000PES00010000001000000000000000020161214
201612140010000700000000000000001920000000000000000019208000000000020175817272Poclava Daniel Ricardo        000000000026001000000000000000000000000000000000000000000000000000000000000000000000000000000000000000000000000000000000PES00010000001000000000000000020161214
201612140010000700000000000000001921000000000000000019218000000000030715267728I N DA HOUS E SRL             000000000095686000000000000000000000000000000000000000000000000000000000000000000000000000000000000000000000000000000000PES00010000001000000000000000020161214
201612140010000700000000000000001922000000000000000019228000000000030710560885Alto Tacuil                   000000000080002000000000000000000000000000000000000000000000000000000000000000000000000000000000000000000000000000000000PES00010000001000000000000000020161214
201612140060000700000000000000000396000000000000000003968000000000030533610338Club de Gimnasia y Tiro A     000000000054075000000000000000000000000000000000000000000000000000000000000000000000000000000000000000000000000000000000PES00010000001000000000000000020161214
201612140060000700000000000000000397000000000000000003978000000000033617945199Soc. Italiana 20 de Sept.     000000000097197000000000000000000000000000000000000000000000000000000000000000000000000000000000000000000000000000000000PES00010000001000000000000000020161214
201612140060000400000000000000001353000000000000000013538000000000020000000001Consumidor Final              000000001301800000000000000000000000000000000000000000000000000000000000000000000000000000000000000000000000000000000000PES00010000001000000000000000020161214
201612150010000700000000000000001923000000000000000019238000000000030714542083Exa Group SRL                 000000000018614000000000000000000000000000000000000000000000000000000000000000000000000000000000000000000000000000000000PES00010000001000000000000000020161215
201612150010000700000000000000001924000000000000000019248000000000027006586762Sucesion Marocco Irma         000000000063216000000000000000000000000000000000000000000000000000000000000000000000000000000000000000000000000000000000PES00010000001000000000000000020161215
201612150010000700000000000000001925000000000000000019258000000000020217922276Humano Omar Alfredo           000000000007582000000000000000000000000000000000000000000000000000000000000000000000000000000000000000000000000000000000PES00010000001000000000000000020161215
201612150010000700000000000000001926000000000000000019268000000000030715267728I N DA HOUS E SRL             000000000039600000000000000000000000000000000000000000000000000000000000000000000000000000000000000000000000000000000000PES00010000001000000000000000020161215
201612150010000700000000000000001927000000000000000019278000000000020244538852Mamani Jose Luis              000000000429507000000000000000000000000000000000000000000000000000000000000000000000000000000000000000000000000000000000PES00010000001000000000000000020161215
201612150010000700000000000000001929000000000000000019298000000000030708106700Los Pirpintos SRL             000000006401483000000000000000000000000000000000000000000000000000000000000000000000000000000000000000000000000000000000PES00010000001000000000000000020161215
201612150010000700000000000000001930000000000000000019308000000000033709716099San Benedicto SRL             000000000014876000000000000000000000000000000000000000000000000000000000000000000000000000000000000000000000000000000000PES00010000001000000000000000020161215
201612150060000700000000000000000398000000000000000003988000000000033617945199Soc. Italiana 20 de Sept.     000000000029325000000000000000000000000000000000000000000000000000000000000000000000000000000000000000000000000000000000PES00010000001000000000000000020161215
201612150060000700000000000000000399000000000000000003998000000000020000000001Escuela Dr Delfin Leguiza     000000000019800000000000000000000000000000000000000000000000000000000000000000000000000000000000000000000000000000000000PES00010000001000000000000000020161215
201612150060000400000000000000001354000000000000000013548000000000020000000001Consumidor Final              000000001243801000000000000000000000000000000000000000000000000000000000000000000000000000000000000000000000000000000000PES00010000001000000000000000020161215
201612160010000700000000000000001931000000000000000019318000000000030707880925Instituto de Clinica y Ca     000000001177886000000000000000000000000000000000000000000000000000000000000000000000000000000000000000000000000000000000PES00010000001000000000000000020161216
201612160010000700000000000000001932000000000000000019328000000000030709781037Idem SRL                      000000000032033000000000000000000000000000000000000000000000000000000000000000000000000000000000000000000000000000000000PES00010000001000000000000000020161216
201612160010000700000000000000001933000000000000000019338000000000030710586140AG  Emprendimientos SRL       000000000010456000000000000000000000000000000000000000000000000000000000000000000000000000000000000000000000000000000000PES00010000001000000000000000020161216
201612160010000700000000000000001934000000000000000019348000000000030710854951Grupo G.G SRL                 000000000012015000000000000000000000000000000000000000000000000000000000000000000000000000000000000000000000000000000000PES00010000001000000000000000020161216
201612160010000700000000000000001935000000000000000019358000000000020203999519Delta Computacion             000000000060265000000000000000000000000000000000000000000000000000000000000000000000000000000000000000000000000000000000PES00010000001000000000000000020161216
201612160010000700000000000000001936000000000000000019368000000000030708389443La Peatonal SRL               000000000128003000000000000000000000000000000000000000000000000000000000000000000000000000000000000000000000000000000000PES00010000001000000000000000020161216
201612160010000700000000000000001937000000000000000019378000000000030712246363Los Colombos SRL              000000000177307000000000000000000000000000000000000000000000000000000000000000000000000000000000000000000000000000000000PES00010000001000000000000000020161216
201612160010000700000000000000001938000000000000000019388000000000027257629002Macedo Maria Carolina         000000000548250000000000000000000000000000000000000000000000000000000000000000000000000000000000000000000000000000000000PES00010000001000000000000000020161216
201612160060000700000000000000000400000000000000000004008000000000020000000001Ramon del  Rey                000000000027300000000000000000000000000000000000000000000000000000000000000000000000000000000000000000000000000000000000PES00010000001000000000000000020161216
201612160060000700000000000000000401000000000000000004018000000000030546690519Barrio Militar                000000000014110000000000000000000000000000000000000000000000000000000000000000000000000000000000000000000000000000000000PES00010000001000000000000000020161216
201612160060000400000000000000001355000000000000000013558000000000020000000001Consumidor Final              000000001197000000000000000000000000000000000000000000000000000000000000000000000000000000000000000000000000000000000000PES00010000001000000000000000020161216
201612170010000700000000000000001939000000000000000019398000000000020101679447Hannawy Jose                  000000000008806000000000000000000000000000000000000000000000000000000000000000000000000000000000000000000000000000000000PES00010000001000000000000000020161217
201612170010000700000000000000001940000000000000000019408000000000030673064686Ramirez e hijos s.r.l.        000000000013998000000000000000000000000000000000000000000000000000000000000000000000000000000000000000000000000000000000PES00010000001000000000000000020161217
201612170010000700000000000000001941000000000000000019418000000000027006586762Sucesion Marocco Irma         000000000025436000000000000000000000000000000000000000000000000000000000000000000000000000000000000000000000000000000000PES00010000001000000000000000020161217
201612170060000400000000000000001356000000000000000013568000000000020000000001Consumidor Final              000000000799400000000000000000000000000000000000000000000000000000000000000000000000000000000000000000000000000000000000PES00010000001000000000000000020161217
201612190010000700000000000000001942000000000000000019428000000000020101679447Hannawy Jose                  000000000006700000000000000000000000000000000000000000000000000000000000000000000000000000000000000000000000000000000000PES00010000001000000000000000020161219
201612190010000700000000000000001943000000000000000019438000000000030501522496Vicente Moncho Construcci     000000020480490000000000000000000000000000000000000000000000000000000000000000000000000000000000000000000000000000000000PES00010000001000000000000000020161219
201612190010000700000000000000001944000000000000000019448000000000030653431755Empresa de Servicios y Ob     000000055534989000000000000000000000000000000000000000000000000000000000000000000000000000000000000000000000000000000000PES00010000001000000000000000020161219
201612190010000700000000000000001945000000000000000019458000000000033533193469Hotel Salta s.a.              000000000011826000000000000000000000000000000000000000000000000000000000000000000000000000000000000000000000000000000000PES00010000001000000000000000020161219
201612190060000700000000000000000402000000000000000004028000000000030656747834Municipalidad de San Lore     000000003482790000000000000000000000000000000000000000000000000000000000000000000000000000000000000000000000000000000000PES00010000001000000000000000020161219
201612190060000700000000000000000403000000000000000004038000000000030656747834Municipalidad de San Lore     000000000279011000000000000000000000000000000000000000000000000000000000000000000000000000000000000000000000000000000000PES00010000001000000000000000020161219
201612190060000700000000000000000404000000000000000004048000000000030656747834Municipalidad de San Lore     000000000031001000000000000000000000000000000000000000000000000000000000000000000000000000000000000000000000000000000000PES00010000001000000000000000020161219
201612190060000700000000000000000405000000000000000004058000000000030656747834Municipalidad de San Lore     000000000786352000000000000000000000000000000000000000000000000000000000000000000000000000000000000000000000000000000000PES00010000001000000000000000020161219
201612190060000700000000000000000406000000000000000004068000000000030656747834Municipalidad de San Lore     000000000153000000000000000000000000000000000000000000000000000000000000000000000000000000000000000000000000000000000000PES00010000001000000000000000020161219
201612190060000700000000000000000407000000000000000004078000000000030656747834Municipalidad de San Lore     000000000186150000000000000000000000000000000000000000000000000000000000000000000000000000000000000000000000000000000000PES00010000001000000000000000020161219
201612190060000700000000000000000408000000000000000004088000000000030656747834Municipalidad de San Lore     000000000178415000000000000000000000000000000000000000000000000000000000000000000000000000000000000000000000000000000000PES00010000001000000000000000020161219
201612190060000700000000000000000409000000000000000004098000000000030656747834Municipalidad de San Lore     000000000159750000000000000000000000000000000000000000000000000000000000000000000000000000000000000000000000000000000000PES00010000001000000000000000020161219
201612190060000700000000000000000410000000000000000004108000000000030656747834Municipalidad de San Lore     000000000029240000000000000000000000000000000000000000000000000000000000000000000000000000000000000000000000000000000000PES00010000001000000000000000020161219
201612190060000700000000000000000411000000000000000004118000000000030656747834Municipalidad de San Lore     000000000670140000000000000000000000000000000000000000000000000000000000000000000000000000000000000000000000000000000000PES00010000001000000000000000020161219
201612190060000700000000000000000412000000000000000004128000000000030656747834Municipalidad de San Lore     000000001745985000000000000000000000000000000000000000000000000000000000000000000000000000000000000000000000000000000000PES00010000001000000000000000020161219
201612190060000700000000000000000413000000000000000004138000000000030656747834Municipalidad de San Lore     000000000224230000000000000000000000000000000000000000000000000000000000000000000000000000000000000000000000000000000000PES00010000001000000000000000020161219
201612190060000400000000000000001357000000000000000013578000000000020000000001Consumidor Final              000000000771501000000000000000000000000000000000000000000000000000000000000000000000000000000000000000000000000000000000PES00010000001000000000000000020161219
201612200010000700000000000000001946000000000000000019468000000000027306367507Fernandez Molina Virginia     000000000047515000000000000000000000000000000000000000000000000000000000000000000000000000000000000000000000000000000000PES00010000001000000000000000020161220
201612200010000700000000000000001947000000000000000019478000000000020144533284Quinteros Horacio             000000000237075000000000000000000000000000000000000000000000000000000000000000000000000000000000000000000000000000000000PES00010000001000000000000000020161220
201612200010000700000000000000001948000000000000000019488000000000030712509941Molca SRL                     000000000085511000000000000000000000000000000000000000000000000000000000000000000000000000000000000000000000000000000000PES00010000001000000000000000020161220
201612200010000700000000000000001949000000000000000019498000000000030712509941Molca SRL                     000000000098910000000000000000000000000000000000000000000000000000000000000000000000000000000000000000000000000000000000PES00010000001000000000000000020161220
201612200010000700000000000000001950000000000000000019508000000000030711372705Empresa Constructora Juan     000000000005100000000000000000000000000000000000000000000000000000000000000000000000000000000000000000000000000000000000PES00010000001000000000000000020161220
201612200010000700000000000000001951000000000000000019518000000000020203999519Delta Computacion             000000000010583000000000000000000000000000000000000000000000000000000000000000000000000000000000000000000000000000000000PES00010000001000000000000000020161220
201612200010000700000000000000001952000000000000000019528000000000030714665363Patios de Lerma srl           000000000008500000000000000000000000000000000000000000000000000000000000000000000000000000000000000000000000000000000000PES00010000001000000000000000020161220
201612200010000700000000000000001953000000000000000019538000000000030714665363Patios de Lerma srl           000000000167877000000000000000000000000000000000000000000000000000000000000000000000000000000000000000000000000000000000PES00010000001000000000000000020161220
201612200010000700000000000000001954000000000000000019548000000000030693459245Hoyts General Cinema          000000000016562000000000000000000000000000000000000000000000000000000000000000000000000000000000000000000000000000000000PES00010000001000000000000000020161220
201612200010000700000000000000001955000000000000000019558000000000030693459245Hoyts General Cinema          000000000002375000000000000000000000000000000000000000000000000000000000000000000000000000000000000000000000000000000000PES00010000001000000000000000020161220
201612200010000700000000000000001956000000000000000019568000000000023121455374Rasero Edith                  000000000065583000000000000000000000000000000000000000000000000000000000000000000000000000000000000000000000000000000000PES00010000001000000000000000020161220
201612200010000700000000000000001957000000000000000019578000000000030673068193Finanser  s.a.                000000000319847000000000000000000000000000000000000000000000000000000000000000000000000000000000000000000000000000000000PES00010000001000000000000000020161220
201612200010000700000000000000001958000000000000000019588000000000030673068193Finanser  s.a.                000000000716635000000000000000000000000000000000000000000000000000000000000000000000000000000000000000000000000000000000PES00010000001000000000000000020161220
201612200010000700000000000000001959000000000000000019598000000000030708389443La Peatonal SRL               000000000080002000000000000000000000000000000000000000000000000000000000000000000000000000000000000000000000000000000000PES00010000001000000000000000020161220
201612200060000700000000000000000414000000000000000004148000000000020000000001Consumidor Final              000000000046801000000000000000000000000000000000000000000000000000000000000000000000000000000000000000000000000000000000PES00010000001000000000000000020161220
201612200060000700000000000000000415000000000000000004158000000000030681288984Hijos de la Inmaculada Co     000000000040006000000000000000000000000000000000000000000000000000000000000000000000000000000000000000000000000000000000PES00010000001000000000000000020161220
201612200060000700000000000000000416000000000000000004168000000000030999263158Centro de Salud N 48         000000000018360000000000000000000000000000000000000000000000000000000000000000000000000000000000000000000000000000000000PES00010000001000000000000000020161220
201612200060000400000000000000001358000000000000000013588000000000020000000001Consumidor Final              000000001268062000000000000000000000000000000000000000000000000000000000000000000000000000000000000000000000000000000000PES00010000001000000000000000020161220
201612210010000700000000000000001960000000000000000019608000000000020081684309Lecuona de Pratt Martin       000000000168589000000000000000000000000000000000000000000000000000000000000000000000000000000000000000000000000000000000PES00010000001000000000000000020161221
201612210010000700000000000000001961000000000000000019618000000000020922430722Roca Roberto                  000000000193715000000000000000000000000000000000000000000000000000000000000000000000000000000000000000000000000000000000PES00010000001000000000000000020161221
201612210010000700000000000000001962000000000000000019628000000000030711372705Empresa Constructora Juan     000000000005100000000000000000000000000000000000000000000000000000000000000000000000000000000000000000000000000000000000PES00010000001000000000000000020161221
201612210010000700000000000000001963000000000000000019638000000000030708389443La Peatonal SRL               000000000121126000000000000000000000000000000000000000000000000000000000000000000000000000000000000000000000000000000000PES00010000001000000000000000020161221
201612210010000700000000000000001964000000000000000019648000000000030710586140AG  Emprendimientos SRL       000000000005809000000000000000000000000000000000000000000000000000000000000000000000000000000000000000000000000000000000PES00010000001000000000000000020161221
201612210010000700000000000000001965000000000000000019658000000000030711372705Empresa Constructora Juan     000000000005064000000000000000000000000000000000000000000000000000000000000000000000000000000000000000000000000000000000PES00010000001000000000000000020161221
201612210010000700000000000000001966000000000000000019668000000000030711383693Grinfil SRL                   000000000104805000000000000000000000000000000000000000000000000000000000000000000000000000000000000000000000000000000000PES00010000001000000000000000020161221
201612210010000700000000000000001967000000000000000019678000000000020203999519Delta Computacion             000000000019040000000000000000000000000000000000000000000000000000000000000000000000000000000000000000000000000000000000PES00010000001000000000000000020161221
201612210010000700000000000000001968000000000000000019688000000000020146700811Rodriguez Daniel Alberto      000000000010050000000000000000000000000000000000000000000000000000000000000000000000000000000000000000000000000000000000PES00010000001000000000000000020161221
201612210010000700000000000000001969000000000000000019698000000000027246971566Herrera Nelida del Carmen     000000000175000000000000000000000000000000000000000000000000000000000000000000000000000000000000000000000000000000000000PES00010000001000000000000000020161221
201612210010000700000000000000001970000000000000000019708000000000023121455374Rasero Edith                  000000000080002000000000000000000000000000000000000000000000000000000000000000000000000000000000000000000000000000000000PES00010000001000000000000000020161221
201612210010000700000000000000001971000000000000000019718000000000020922430722Roca Roberto                  000000000005009000000000000000000000000000000000000000000000000000000000000000000000000000000000000000000000000000000000PES00010000001000000000000000020161221
201612210010000700000000000000001972000000000000000019728000000000027239938170Arrieta Mariela Edith         000000000019000000000000000000000000000000000000000000000000000000000000000000000000000000000000000000000000000000000000PES00010000001000000000000000020161221
201612210010000700000000000000001973000000000000000019738000000000020141766350Astudillo  Cesar Alejandr     000000000013416000000000000000000000000000000000000000000000000000000000000000000000000000000000000000000000000000000000PES00010000001000000000000000020161221
201612210060000700000000000000000417000000000000000004178000000000033617945199Soc. Italiana 20 de Sept.     000000000074800000000000000000000000000000000000000000000000000000000000000000000000000000000000000000000000000000000000PES00010000001000000000000000020161221
201612210060000400000000000000001359000000000000000013598000000000020000000001Consumidor Final              000000000804402000000000000000000000000000000000000000000000000000000000000000000000000000000000000000000000000000000000PES00010000001000000000000000020161221
201612220010000700000000000000001974000000000000000019748000000000027006586762Sucesion Marocco Irma         000000000066871000000000000000000000000000000000000000000000000000000000000000000000000000000000000000000000000000000000PES00010000001000000000000000020161222
201612220010000700000000000000001975000000000000000019758000000000020081684309Lecuona de Pratt Martin       000000000050085000000000000000000000000000000000000000000000000000000000000000000000000000000000000000000000000000000000PES00010000001000000000000000020161222
201612220010000700000000000000001976000000000000000019768000000000027143030038Segura Graciela               000000000165270000000000000000000000000000000000000000000000000000000000000000000000000000000000000000000000000000000000PES00010000001000000000000000020161222
201612220010000700000000000000001977000000000000000019778000000000030711372705Empresa Constructora Juan     000000000017994000000000000000000000000000000000000000000000000000000000000000000000000000000000000000000000000000000000PES00010000001000000000000000020161222
201612220010000700000000000000001978000000000000000019788000000000027239938170Arrieta Mariela Edith         000000000011005000000000000000000000000000000000000000000000000000000000000000000000000000000000000000000000000000000000PES00010000001000000000000000020161222
201612220010000700000000000000001979000000000000000019798000000000027239938170Arrieta Mariela Edith         000000000005026000000000000000000000000000000000000000000000000000000000000000000000000000000000000000000000000000000000PES00010000001000000000000000020161222
201612220010000700000000000000001980000000000000000019808000000000020118262426Nunez Hector de los Angel     000000000041841000000000000000000000000000000000000000000000000000000000000000000000000000000000000000000000000000000000PES00010000001000000000000000020161222
201612220010000700000000000000001981000000000000000019818000000000020118262426Nunez Hector de los Angel     000000000027030000000000000000000000000000000000000000000000000000000000000000000000000000000000000000000000000000000000PES00010000001000000000000000020161222
201612220010000700000000000000001982000000000000000019828000000000033709488959Comercial Lima S.A            000000000015072000000000000000000000000000000000000000000000000000000000000000000000000000000000000000000000000000000000PES00010000001000000000000000020161222
201612220010000700000000000000001983000000000000000019838000000000030501522496Vicente Moncho Construcci     000000027688919000000000000000000000000000000000000000000000000000000000000000000000000000000000000000000000000000000000PES00010000001000000000000000020161222
201612220010000700000000000000001984000000000000000019848000000000027006586762Sucesion Marocco Irma         000000000032501000000000000000000000000000000000000000000000000000000000000000000000000000000000000000000000000000000000PES00010000001000000000000000020161222
201612220010000700000000000000001985000000000000000019858000000000020202198512Alvarado Fabio Eduardo        000000001320117000000000000000000000000000000000000000000000000000000000000000000000000000000000000000000000000000000000PES00010000001000000000000000020161222
201612220010000700000000000000001986000000000000000019868000000000020162973712Benavidez Everardo G          000000000022003000000000000000000000000000000000000000000000000000000000000000000000000000000000000000000000000000000000PES00010000001000000000000000020161222
201612220060000700000000000000000418000000000000000004188000000000030586762571Universidad Nacional de S     000000000026502000000000000000000000000000000000000000000000000000000000000000000000000000000000000000000000000000000000PES00010000001000000000000000020161222
201612220060000400000000000000001360000000000000000013608000000000020000000001Consumidor Final              000000000986803000000000000000000000000000000000000000000000000000000000000000000000000000000000000000000000000000000000PES00010000001000000000000000020161222
201612230010000700000000000000001987000000000000000019878000000000030708389443La Peatonal SRL               000000000007207000000000000000000000000000000000000000000000000000000000000000000000000000000000000000000000000000000000PES00010000001000000000000000020161223
201612230010000700000000000000001988000000000000000019888000000000020141765028Zissi Nicolas                 000000000220080000000000000000000000000000000000000000000000000000000000000000000000000000000000000000000000000000000000PES00010000001000000000000000020161223
201612230010000700000000000000001989000000000000000019898000000000030708389443La Peatonal SRL               000000000019486000000000000000000000000000000000000000000000000000000000000000000000000000000000000000000000000000000000PES00010000001000000000000000020161223
201612230010000700000000000000001990000000000000000019908000000000020162973712Benavidez Everardo G          000000000059499000000000000000000000000000000000000000000000000000000000000000000000000000000000000000000000000000000000PES00010000001000000000000000020161223
201612230010000700000000000000001991000000000000000019918000000000023121455374Rasero Edith                  000000000080002000000000000000000000000000000000000000000000000000000000000000000000000000000000000000000000000000000000PES00010000001000000000000000020161223
201612230010000700000000000000001992000000000000000019928000000000030709676861Hospital Privado Tres Cer     000000000007140000000000000000000000000000000000000000000000000000000000000000000000000000000000000000000000000000000000PES00010000001000000000000000020161223
201612230010000700000000000000001993000000000000000019938000000000030709676861Hospital Privado Tres Cer     000000000002380000000000000000000000000000000000000000000000000000000000000000000000000000000000000000000000000000000000PES00010000001000000000000000020161223
201612230010000700000000000000001994000000000000000019948000000000030700051362Neca s.r.l.                   000000031773150000000000000000000000000000000000000000000000000000000000000000000000000000000000000000000000000000000000PES00010000001000000000000000020161223
201612230060000700000000000000000419000000000000000004198000000000020000000001Ramon del  Rey                000000000027000000000000000000000000000000000000000000000000000000000000000000000000000000000000000000000000000000000000PES00010000001000000000000000020161223
201612230060000700000000000000000420000000000000000004208000000000030999263158Centro de Salud N 48         000000000021504000000000000000000000000000000000000000000000000000000000000000000000000000000000000000000000000000000000PES00010000001000000000000000020161223
201612230060000400000000000000001361000000000000000013618000000000020000000001Consumidor Final              000000000951200000000000000000000000000000000000000000000000000000000000000000000000000000000000000000000000000000000000PES00010000001000000000000000020161223
201612240010000700000000000000001995000000000000000019958000000000020203999519Delta Computacion             000000000032640000000000000000000000000000000000000000000000000000000000000000000000000000000000000000000000000000000000PES00010000001000000000000000020161224
201612240010000700000000000000001996000000000000000019968000000000030714209961Kaizen Ingenieria SRL         000000000079200000000000000000000000000000000000000000000000000000000000000000000000000000000000000000000000000000000000PES00010000001000000000000000020161224
201612240010000700000000000000001997000000000000000019978000000000030714209961Kaizen Ingenieria SRL         000000000016000000000000000000000000000000000000000000000000000000000000000000000000000000000000000000000000000000000000PES00010000001000000000000000020161224
201612240060000700000000000000000421000000000000000004218000000000030681449805Asociacion San Alfonso        000000000013125000000000000000000000000000000000000000000000000000000000000000000000000000000000000000000000000000000000PES00010000001000000000000000020161224
201612240060000400000000000000001362000000000000000013628000000000020000000001Consumidor Final              000000000219800000000000000000000000000000000000000000000000000000000000000000000000000000000000000000000000000000000000PES00010000001000000000000000020161224
201612260010000700000000000000001998000000000000000019988000000000020101679447Hannawy Jose                  000000000001505000000000000000000000000000000000000000000000000000000000000000000000000000000000000000000000000000000000PES00010000001000000000000000020161226
201612260010000700000000000000001999000000000000000019998000000000030644225360Servicios Viales de Pigue     000000026489312000000000000000000000000000000000000000000000000000000000000000000000000000000000000000000000000000000000PES00010000001000000000000000020161226
201612260010000700000000000000002000000000000000000020008000000000030617649434Gran Hotel Presidente SA      000000000067905000000000000000000000000000000000000000000000000000000000000000000000000000000000000000000000000000000000PES00010000001000000000000000020161226
201612260060000400000000000000001363000000000000000013638000000000020000000001Consumidor Final              000000000339100000000000000000000000000000000000000000000000000000000000000000000000000000000000000000000000000000000000PES00010000001000000000000000020161226
201612270010000700000000000000002001000000000000000020018000000000030715193082Q Seguridad                   000000000012556000000000000000000000000000000000000000000000000000000000000000000000000000000000000000000000000000000000PES00010000001000000000000000020161227
201612270010000700000000000000002002000000000000000020028000000000030710586140AG  Emprendimientos SRL       000000000010199000000000000000000000000000000000000000000000000000000000000000000000000000000000000000000000000000000000PES00010000001000000000000000020161227
201612270010000700000000000000002003000000000000000020038000000000030536158339Gomez Roco y Cia SRL          000000001054263000000000000000000000000000000000000000000000000000000000000000000000000000000000000000000000000000000000PES00010000001000000000000000020161227
201612270010000700000000000000002004000000000000000020048000000000030536158339Gomez Roco y Cia SRL          000000000286509000000000000000000000000000000000000000000000000000000000000000000000000000000000000000000000000000000000PES00010000001000000000000000020161227
201612270010000700000000000000002005000000000000000020058000000000020127475785Marquez Ricardo Hernan        000000000032503000000000000000000000000000000000000000000000000000000000000000000000000000000000000000000000000000000000PES00010000001000000000000000020161227
201612270010000700000000000000002006000000000000000020068000000000020127475785Marquez Ricardo Hernan        000000000032503000000000000000000000000000000000000000000000000000000000000000000000000000000000000000000000000000000000PES00010000001000000000000000020161227
201612270010000700000000000000002007000000000000000020078000000000020290923515Rivarola Ruben Eduardo        000000000227197000000000000000000000000000000000000000000000000000000000000000000000000000000000000000000000000000000000PES00010000001000000000000000020161227
201612270010000700000000000000002008000000000000000020088000000000030714542083Exa Group SRL                 000000000019080000000000000000000000000000000000000000000000000000000000000000000000000000000000000000000000000000000000PES00010000001000000000000000020161227
201612270060000700000000000000000422000000000000000004228000000000030707936904Fundacion Magister            000000000021505000000000000000000000000000000000000000000000000000000000000000000000000000000000000000000000000000000000PES00010000001000000000000000020161227
201612270060000700000000000000000423000000000000000004238000000000020000000001Consumidor Final              000000000220005000000000000000000000000000000000000000000000000000000000000000000000000000000000000000000000000000000000PES00010000001000000000000000020161227
201612270030000700000000000000000020000000000000000000208000000000020127475785Marquez Ricardo Hernan        000000000032503000000000000000000000000000000000000000000000000000000000000000000000000000000000000000000000000000000000PES00010000001000000000000000020161227
201612270060000400000000000000001364000000000000000013648000000000020000000001Consumidor Final              000000001264403000000000000000000000000000000000000000000000000000000000000000000000000000000000000000000000000000000000PES00010000001000000000000000020161227
201612280010000700000000000000002009000000000000000020098000000000030708389443La Peatonal SRL               000000000129461000000000000000000000000000000000000000000000000000000000000000000000000000000000000000000000000000000000PES00010000001000000000000000020161228
201612280010000700000000000000002010000000000000000020108000000000030710859643Miguel W Traverso SA          000000000117006000000000000000000000000000000000000000000000000000000000000000000000000000000000000000000000000000000000PES00010000001000000000000000020161228
201612280010000700000000000000002011000000000000000020118000000000020237492545Nievas Frias Dante Marian     000000001024545000000000000000000000000000000000000000000000000000000000000000000000000000000000000000000000000000000000PES00010000001000000000000000020161228
201612280010000700000000000000002012000000000000000020128000000000020216349157Torres Diego Jose             000000003978612000000000000000000000000000000000000000000000000000000000000000000000000000000000000000000000000000000000PES00010000001000000000000000020161228
201612280010000700000000000000002013000000000000000020138000000000030714542083Exa Group SRL                 000000000006205000000000000000000000000000000000000000000000000000000000000000000000000000000000000000000000000000000000PES00010000001000000000000000020161228
201612280010000700000000000000002014000000000000000020148000000000020277013194Hernan del Cerro              000000000191304000000000000000000000000000000000000000000000000000000000000000000000000000000000000000000000000000000000PES00010000001000000000000000020161228
201612280010000700000000000000002015000000000000000020158000000000030710253273Villanueva e Hijos SA         000000000007056000000000000000000000000000000000000000000000000000000000000000000000000000000000000000000000000000000000PES00010000001000000000000000020161228
201612280010000700000000000000002016000000000000000020168000000000027254119747Saavedra Jessica              000000000192780000000000000000000000000000000000000000000000000000000000000000000000000000000000000000000000000000000000PES00010000001000000000000000020161228
201612280010000700000000000000002017000000000000000020178000000000030711727759San Lucas SRL                 000000000045985000000000000000000000000000000000000000000000000000000000000000000000000000000000000000000000000000000000PES00010000001000000000000000020161228
201612280010000700000000000000002018000000000000000020188000000000020144533284Quinteros Horacio             000000000223026000000000000000000000000000000000000000000000000000000000000000000000000000000000000000000000000000000000PES00010000001000000000000000020161228
201612280010000700000000000000002019000000000000000020198000000000020146700811Rodriguez Daniel Alberto      000000000035200000000000000000000000000000000000000000000000000000000000000000000000000000000000000000000000000000000000PES00010000001000000000000000020161228
201612280010000700000000000000002020000000000000000020208000000000023121455374Rasero Edith                  000000000011985000000000000000000000000000000000000000000000000000000000000000000000000000000000000000000000000000000000PES00010000001000000000000000020161228
201612280010000700000000000000002021000000000000000020218000000000020277013194Hernan del Cerro              000000000015098000000000000000000000000000000000000000000000000000000000000000000000000000000000000000000000000000000000PES00010000001000000000000000020161228
201612280010000700000000000000002022000000000000000020228000000000020277013194Hernan del Cerro              000000000010140000000000000000000000000000000000000000000000000000000000000000000000000000000000000000000000000000000000PES00010000001000000000000000020161228
201612280010000700000000000000002023000000000000000020238000000000030708389443La Peatonal SRL               000000000003573000000000000000000000000000000000000000000000000000000000000000000000000000000000000000000000000000000000PES00010000001000000000000000020161228
201612280010000700000000000000002024000000000000000020248000000000020163082609Basso Danilo Miguel           000000000005060000000000000000000000000000000000000000000000000000000000000000000000000000000000000000000000000000000000PES00010000001000000000000000020161228
201612280060000700000000000000000424000000000000000004248000000000020000000001Ramon del  Rey                000000000074600000000000000000000000000000000000000000000000000000000000000000000000000000000000000000000000000000000000PES00010000001000000000000000020161228
201612280060000700000000000000000425000000000000000004258000000000030681449805Asociacion San Alfonso        000000000022975000000000000000000000000000000000000000000000000000000000000000000000000000000000000000000000000000000000PES00010000001000000000000000020161228
201612280060000700000000000000000426000000000000000004268000000000030999284651Policia de Salta              000000000037870000000000000000000000000000000000000000000000000000000000000000000000000000000000000000000000000000000000PES00010000001000000000000000020161228
201612280060000700000000000000000427000000000000000004278000000000030999284651Policia de Salta              000000000649508000000000000000000000000000000000000000000000000000000000000000000000000000000000000000000000000000000000PES00010000001000000000000000020161228
201612280060000700000000000000000428000000000000000004288000000000033617945199Soc. Italiana 20 de Sept.     000000000028980000000000000000000000000000000000000000000000000000000000000000000000000000000000000000000000000000000000PES00010000001000000000000000020161228
201612280060000400000000000000001365000000000000000013658000000000020000000001Consumidor Final              000000001010800000000000000000000000000000000000000000000000000000000000000000000000000000000000000000000000000000000000PES00010000001000000000000000020161228
201612290010000700000000000000002025000000000000000020258000000000030708389443La Peatonal SRL               000000000022991000000000000000000000000000000000000000000000000000000000000000000000000000000000000000000000000000000000PES00010000001000000000000000020161229
201612290010000700000000000000002026000000000000000020268000000000030712529306Cuna Producciones SRL         000000000032131000000000000000000000000000000000000000000000000000000000000000000000000000000000000000000000000000000000PES00010000001000000000000000020161229
201612290010000700000000000000002027000000000000000020278000000000030712529306Cuna Producciones SRL         000000000070635000000000000000000000000000000000000000000000000000000000000000000000000000000000000000000000000000000000PES00010000001000000000000000020161229
201612290010000700000000000000002028000000000000000020288000000000030708722312Verde SA                      000000000015028000000000000000000000000000000000000000000000000000000000000000000000000000000000000000000000000000000000PES00010000001000000000000000020161229
201612290010000700000000000000002029000000000000000020298000000000030711603553Soluciones Tecnicas Gener     000000000007008000000000000000000000000000000000000000000000000000000000000000000000000000000000000000000000000000000000PES00010000001000000000000000020161229
201612290010000700000000000000002030000000000000000020308000000000020144533284Quinteros Horacio             000000000426802000000000000000000000000000000000000000000000000000000000000000000000000000000000000000000000000000000000PES00010000001000000000000000020161229
201612290010000700000000000000002031000000000000000020318000000000020203999519Delta Computacion             000000000010625000000000000000000000000000000000000000000000000000000000000000000000000000000000000000000000000000000000PES00010000001000000000000000020161229
201612290010000700000000000000002032000000000000000020328000000000030711603553Soluciones Tecnicas Gener     000000000004963000000000000000000000000000000000000000000000000000000000000000000000000000000000000000000000000000000000PES00010000001000000000000000020161229
201612290010000700000000000000002033000000000000000020338000000000030700051362Neca s.r.l.                   000000000041054000000000000000000000000000000000000000000000000000000000000000000000000000000000000000000000000000000000PES00010000001000000000000000020161229
201612290060000700000000000000000429000000000000000004298000000000030681449805Asociacion San Alfonso        000000000004887000000000000000000000000000000000000000000000000000000000000000000000000000000000000000000000000000000000PES00010000001000000000000000020161229
201612290060000700000000000000000430000000000000000004308000000000030650219097Caja de Prevision Social      000000000008499000000000000000000000000000000000000000008499000000000000000000000000000000000000000000000000000000000000PES00010000001000000000000000020161229
201612290060000400000000000000001366000000000000000013668000000000020000000001Consumidor Final              000000001752800000000000000000000000000000000000000000000000000000000000000000000000000000000000000000000000000000000000PES00010000001000000000000000020161229
201612300010000700000000000000002034000000000000000020348000000000030708389443La Peatonal SRL               000000000084054000000000000000000000000000000000000000000000000000000000000000000000000000000000000000000000000000000000PES00010000001000000000000000020161230
201612300010000700000000000000002035000000000000000020358000000000027275127863Aramayo Maria Julieta         000000001320431000000000000000000000000000000000000000000000000000000000000000000000000000000000000000000000000000000000PES00010000001000000000000000020161230
201612300010000700000000000000002036000000000000000020368000000000030708389443La Peatonal SRL               000000000010085000000000000000000000000000000000000000000000000000000000000000000000000000000000000000000000000000000000PES00010000001000000000000000020161230
201612300010000700000000000000002037000000000000000020378000000000030707111344Autolux SA                    000000000045900000000000000000000000000000000000000000000000000000000000000000000000000000000000000000000000000000000000PES00010000001000000000000000020161230
201612300010000700000000000000002038000000000000000020388000000000030708835559Estacion Vicion srl           000000000010625000000000000000000000000000000000000000000000000000000000000000000000000000000000000000000000000000000000PES00010000001000000000000000020161230
201612300010000700000000000000002039000000000000000020398000000000030714529974Fidelcomizo La Recerva        000000000179587000000000000000000000000000000000000000000000000000000000000000000000000000000000000000000000000000000000PES00010000001000000000000000020161230
201612300010000700000000000000002040000000000000000020408000000000020133472658Esteban Fernando              000000000033011000000000000000000000000000000000000000000000000000000000000000000000000000000000000000000000000000000000PES00010000001000000000000000020161230
201612300010000700000000000000002041000000000000000020418000000000030711383693Grinfil SRL                   000000000002511000000000000000000000000000000000000000000000000000000000000000000000000000000000000000000000000000000000PES00010000001000000000000000020161230
201612300010000700000000000000002042000000000000000020428000000000030711912947Construcciones Civiles y      000000011850488000000000000000000000000000000000000000000000000000000000000000000000000000000000000000000000000000000000PES00010000001000000000000000020161230
201612300010000700000000000000002043000000000000000020438000000000030709676861Hospital Privado Tres Cer     000000000018020000000000000000000000000000000000000000000000000000000000000000000000000000000000000000000000000000000000PES00010000001000000000000000020161230
201612300010000700000000000000002044000000000000000020448000000000030709676861Hospital Privado Tres Cer     000000000013500000000000000000000000000000000000000000000000000000000000000000000000000000000000000000000000000000000000PES00010000001000000000000000020161230
201612300060000700000000000000000431000000000000000004318000000000033617945199Soc. Italiana 20 de Sept.     000000000008568000000000000000000000000000000000000000000000000000000000000000000000000000000000000000000000000000000000PES00010000001000000000000000020161230
201612300060000400000000000000001367000000000000000013678000000000020000000001Consumidor Final              000000001533000000000000000000000000000000000000000000000000000000000000000000000000000000000000000000000000000000000000PES00010000001000000000000000020161230
201612310010000700000000000000002045000000000000000020458000000000030711229376Pascha SRL                    000000000171870000000000000000000000000000000000000000000000000000000000000000000000000000000000000000000000000000000000PES00010000001000000000000000020161231
201612310060000700000000000000000432000000000000000004328000000000030586762571Universidad Nacional de S     000000000023545000000000000000000000000000000000000000000000000000000000000000000000000000000000000000000000000000000000PES00010000001000000000000000020161231
201612310060000400000000000000001368000000000000000013688000000000020000000001Consumidor Final              000000000195301000000000000000000000000000000000000000000000000000000000000000000000000000000000000000000000000000000000PES00010000001000000000000000020161231
201612010060000500000000000000009311000000000000000093118000000000020000000001CONSUMIDOR FINAL              000000000018800000000000000000000000000000000000000000000000000000000000000000000000000000000000000000000000000000000000PES00010000001000000000000000020161201
201612010060000500000000000000009312000000000000000093128000000000020000000001CONSUMIDOR FINAL              000000000044000000000000000000000000000000000000000000000000000000000000000000000000000000000000000000000000000000000000PES00010000001000000000000000020161201
201612010060000500000000000000009313000000000000000093138000000000020000000001CONSUMIDOR FINAL              000000000057920000000000000000000000000000000000000000000000000000000000000000000000000000000000000000000000000000000000PES00010000001000000000000000020161201
201612010060000500000000000000009314000000000000000093148000000000020000000001CONSUMIDOR FINAL              000000000489500000000000000000000000000000000000000000000000000000000000000000000000000000000000000000000000000000000000PES00010000001000000000000000020161201
201612010060000500000000000000009315000000000000000093158000000000020000000001CONSUMIDOR FINAL              000000000025700000000000000000000000000000000000000000000000000000000000000000000000000000000000000000000000000000000000PES00010000001000000000000000020161201
201612010060000500000000000000009316000000000000000093168000000000020000000001CONSUMIDOR FINAL              000000000293200000000000000000000000000000000000000000000000000000000000000000000000000000000000000000000000000000000000PES00010000001000000000000000020161201
201612010060000500000000000000009317000000000000000093178000000000020000000001CONSUMIDOR FINAL              000000000009000000000000000000000000000000000000000000000000000000000000000000000000000000000000000000000000000000000000PES00010000001000000000000000020161201
201612010060000500000000000000009318000000000000000093188000000000020000000001CONSUMIDOR FINAL              000000000340000000000000000000000000000000000000000000000000000000000000000000000000000000000000000000000000000000000000PES00010000001000000000000000020161201
201612010060000500000000000000009319000000000000000093198000000000020000000001CONSUMIDOR FINAL              000000000069480000000000000000000000000000000000000000000000000000000000000000000000000000000000000000000000000000000000PES00010000001000000000000000020161201
201612010060000500000000000000009320000000000000000093208000000000020000000001CONSUMIDOR FINAL              000000000492340000000000000000000000000000000000000000000000000000000000000000000000000000000000000000000000000000000000PES00010000001000000000000000020161201
201612010060000500000000000000009321000000000000000093218000000000020000000001CONSUMIDOR FINAL              000000000360000000000000000000000000000000000000000000000000000000000000000000000000000000000000000000000000000000000000PES00010000001000000000000000020161201
201612010060000500000000000000009322000000000000000093228000000000020000000001CONSUMIDOR FINAL              000000000157000000000000000000000000000000000000000000000000000000000000000000000000000000000000000000000000000000000000PES00010000001000000000000000020161201
201612010060000500000000000000009323000000000000000093238000000000020000000001CONSUMIDOR FINAL              000000000431100000000000000000000000000000000000000000000000000000000000000000000000000000000000000000000000000000000000PES00010000001000000000000000020161201
201612010060000500000000000000009324000000000000000093248000000000020000000001CONSUMIDOR FINAL              000000000037000000000000000000000000000000000000000000000000000000000000000000000000000000000000000000000000000000000000PES00010000001000000000000000020161201
201612010060000500000000000000009325000000000000000093258000000000020000000001CONSUMIDOR FINAL              000000000022000000000000000000000000000000000000000000000000000000000000000000000000000000000000000000000000000000000000PES00010000001000000000000000020161201
201612020010000500000000000000005428000000000000000054288000000000030711169071M.A.C. SERVICE S.R.L          000000000138601000000000000000000000000000000000000000000000000000000000000000000000000000000000000000000000000000000000PES00010000001000000000000000020161202
201612020010000500000000000000005429000000000000000054298000000000020171317194VERA HECTOR RAMON             000000000009500000000000000000000000000000000000000000000000000000000000000000000000000000000000000000000000000000000000PES00010000001000000000000000020161202
201612020010000500000000000000005430000000000000000054308000000000030707325824SALTAPOR SRL                  000000000066001000000000000000000000000000000000000000000000000000000000000000000000000000000000000000000000000000000000PES00010000001000000000000000020161202
201612020010000500000000000000005431000000000000000054318000000000027217927469GUANUCO ALEJANDRA VIVIANA     000000000225006000000000000000000000000000000000000000000000000000000000000000000000000000000000000000000000000000000000PES00010000001000000000000000020161202
201612020060000500000000000000009326000000000000000093268000000000020000000001CONSUMIDOR FINAL              000000000040300000000000000000000000000000000000000000000000000000000000000000000000000000000000000000000000000000000000PES00010000001000000000000000020161202
201612020060000500000000000000009327000000000000000093278000000000020000000001CONSUMIDOR FINAL              000000000047000000000000000000000000000000000000000000000000000000000000000000000000000000000000000000000000000000000000PES00010000001000000000000000020161202
201612020060000500000000000000009328000000000000000093288000000000020000000001CONSUMIDOR FINAL              000000000021504000000000000000000000000000000000000000000000000000000000000000000000000000000000000000000000000000000000PES00010000001000000000000000020161202
201612020060000500000000000000009329000000000000000093298000000000020000000001CONSUMIDOR FINAL              000000000060000000000000000000000000000000000000000000000000000000000000000000000000000000000000000000000000000000000000PES00010000001000000000000000020161202
201612020060000500000000000000009330000000000000000093308000000000020000000001CONSUMIDOR FINAL              000000000077500000000000000000000000000000000000000000000000000000000000000000000000000000000000000000000000000000000000PES00010000001000000000000000020161202
201612020060000500000000000000009331000000000000000093318000000000020000000001CONSUMIDOR FINAL              000000000021000000000000000000000000000000000000000000000000000000000000000000000000000000000000000000000000000000000000PES00010000001000000000000000020161202
201612020060000500000000000000009332000000000000000093328000000000020000000001CONSUMIDOR FINAL              000000000010800000000000000000000000000000000000000000000000000000000000000000000000000000000000000000000000000000000000PES00010000001000000000000000020161202
201612020060000500000000000000009333000000000000000093338000000000020000000001CONSUMIDOR FINAL              000000000015000000000000000000000000000000000000000000000000000000000000000000000000000000000000000000000000000000000000PES00010000001000000000000000020161202
201612020060000500000000000000009334000000000000000093348000000000020000000001CONSUMIDOR FINAL              000000000015000000000000000000000000000000000000000000000000000000000000000000000000000000000000000000000000000000000000PES00010000001000000000000000020161202
201612020060000500000000000000009335000000000000000093358000000000020000000001CONSUMIDOR FINAL              000000000024500000000000000000000000000000000000000000000000000000000000000000000000000000000000000000000000000000000000PES00010000001000000000000000020161202
201612020060000500000000000000009336000000000000000093368000000000020000000001CONSUMIDOR FINAL              000000000217500000000000000000000000000000000000000000000000000000000000000000000000000000000000000000000000000000000000PES00010000001000000000000000020161202
201612020060000500000000000000009337000000000000000093378000000000020000000001CONSUMIDOR FINAL              000000000165000000000000000000000000000000000000000000000000000000000000000000000000000000000000000000000000000000000000PES00010000001000000000000000020161202
201612020060000500000000000000009338000000000000000093388000000000020000000001CONSUMIDOR FINAL              000000000062000000000000000000000000000000000000000000000000000000000000000000000000000000000000000000000000000000000000PES00010000001000000000000000020161202
201612020060000500000000000000009339000000000000000093398000000000020000000001CONSUMIDOR FINAL              000000000074000000000000000000000000000000000000000000000000000000000000000000000000000000000000000000000000000000000000PES00010000001000000000000000020161202
201612020010000600000000000000000157000000000000000001578000000000030714298131MDM BAR S.R.L                 000000003025000000000000000000000000000000000000000000000000000000000000000000000000000000000000000000000000000000000000PES00010000001000000000000000020161202
201612020010000600000000000000000158000000000000000001588000000000027293111869HEVIA ELSA FLORENCIA          000000002180783000000000000000000000000000000000000000000000000000000000000000000000000000000000000000000000000000000000PES00010000001000000000000000020161202
201612020010000600000000000000000159000000000000000001598000000000030708947276EMPRESA REGULUS  ARGENTINA SA 000000004845324000000000000000000000000000000000000000000000000000000000000000000000000000000000000000000000000000000000PES00010000001000000000000000020161202
201612020010000600000000000000000160000000000000000001608000000000020230799270LUQUE MAURICIO JAVIER         000000001331000000000000000000000000000000000000000000000000000000000000000000000000000000000000000000000000000000000000PES00010000001000000000000000020161202
201612020010000600000000000000000161000000000000000001618000000000030712389342P Y S SRL                     000000004174500000000000000000000000000000000000000000000000000000000000000000000000000000000000000000000000000000000000PES00010000001000000000000000020161202
201612030010000500000000000000005432000000000000000054328000000000030714050326NAHUM S.R.L                   000000000160010000000000000000000000000000000000000000000000000000000000000000000000000000000000000000000000000000000000PES00010000001000000000000000020161203
201612030060000500000000000000009340000000000000000093408000000000020000000001CONSUMIDOR FINAL              000000000049000000000000000000000000000000000000000000000000000000000000000000000000000000000000000000000000000000000000PES00010000001000000000000000020161203
201612030060000500000000000000009341000000000000000093418000000000020129584581GARCIA PEDRO                  000000000036000000000000000000000000000000000000000000000000000000000000000000000000000000000000000000000000000000000000PES00010000001000000000000000020161203
201612030060000500000000000000009342000000000000000093428000000000020000000001CONSUMIDOR FINAL              000000000322955000000000000000000000000000000000000000000000000000000000000000000000000000000000000000000000000000000000PES00010000001000000000000000020161203
201612030060000500000000000000009343000000000000000093438000000000020000000001CONSUMIDOR FINAL              000000000007500000000000000000000000000000000000000000000000000000000000000000000000000000000000000000000000000000000000PES00010000001000000000000000020161203
201612030060000500000000000000009344000000000000000093448000000000020000000001CONSUMIDOR FINAL              000000000013500000000000000000000000000000000000000000000000000000000000000000000000000000000000000000000000000000000000PES00010000001000000000000000020161203
201612030060000500000000000000009345000000000000000093458000000000020000000001CONSUMIDOR FINAL              000000000016000000000000000000000000000000000000000000000000000000000000000000000000000000000000000000000000000000000000PES00010000001000000000000000020161203
201612030060000500000000000000009346000000000000000093468000000000020000000001CONSUMIDOR FINAL              000000000022500000000000000000000000000000000000000000000000000000000000000000000000000000000000000000000000000000000000PES00010000001000000000000000020161203
201612030060000500000000000000009347000000000000000093478000000000020000000001CONSUMIDOR FINAL              000000000165000000000000000000000000000000000000000000000000000000000000000000000000000000000000000000000000000000000000PES00010000001000000000000000020161203
201612030060000500000000000000009348000000000000000093488000000000020000000001CONSUMIDOR FINAL              000000000007500000000000000000000000000000000000000000000000000000000000000000000000000000000000000000000000000000000000PES00010000001000000000000000020161203
