201701020820000200000000000000004586000000000000000045869900000000000000000000CONSUMIDOR FINAL              000000000008000000000000000000000000000000000000000000000000000000000000000000000000000000000000000000000000000000000000PES00010000001000000000000000000000000
201701020820000200000000000000004587000000000000000045879900000000000000000000CONSUMIDOR FINAL              000000000133000000000000000000000000000000000000000000000000000000000000000000000000000000000000000000000000000000000000PES00010000001000000000000000000000000
201701020820000200000000000000004588000000000000000045889900000000000000000000CONSUMIDOR FINAL              000000000026000000000000000000000000000000000000000000000000000000000000000000000000000000000000000000000000000000000000PES00010000001000000000000000000000000
201701020820000200000000000000004589000000000000000045899900000000000000000000CONSUMIDOR FINAL              000000000100500000000000000000000000000000000000000000000000000000000000000000000000000000000000000000000000000000000000PES00010000001000000000000000000000000
201701020820000200000000000000004590000000000000000045909900000000000000000000CONSUMIDOR FINAL              000000000148000000000000000000000000000000000000000000000000000000000000000000000000000000000000000000000000000000000000PES00010000001000000000000000000000000
201701020820000200000000000000004591000000000000000045919900000000000000000000CONSUMIDOR FINAL              000000000050500000000000000000000000000000000000000000000000000000000000000000000000000000000000000000000000000000000000PES00010000001000000000000000000000000
201701020820000200000000000000004592000000000000000045929900000000000000000000CONSUMIDOR FINAL              000000000059500000000000000000000000000000000000000000000000000000000000000000000000000000000000000000000000000000000000PES00010000001000000000000000000000000
201701020820000200000000000000004593000000000000000045939900000000000000000000CONSUMIDOR FINAL              000000000041500000000000000000000000000000000000000000000000000000000000000000000000000000000000000000000000000000000000PES00010000001000000000000000000000000
201701020820000200000000000000004594000000000000000045949900000000000000000000CONSUMIDOR FINAL              000000000052500000000000000000000000000000000000000000000000000000000000000000000000000000000000000000000000000000000000PES00010000001000000000000000000000000
201701020820000200000000000000004595000000000000000045959900000000000000000000CONSUMIDOR FINAL              000000000031000000000000000000000000000000000000000000000000000000000000000000000000000000000000000000000000000000000000PES00010000001000000000000000000000000
201701020820000200000000000000004596000000000000000045969900000000000000000000CONSUMIDOR FINAL              000000000078500000000000000000000000000000000000000000000000000000000000000000000000000000000000000000000000000000000000PES00010000001000000000000000000000000
201701020820000200000000000000004597000000000000000045979900000000000000000000CONSUMIDOR FINAL              000000000070500000000000000000000000000000000000000000000000000000000000000000000000000000000000000000000000000000000000PES00010000001000000000000000000000000
201701020820000200000000000000004598000000000000000045989900000000000000000000CONSUMIDOR FINAL              000000000032500000000000000000000000000000000000000000000000000000000000000000000000000000000000000000000000000000000000PES00010000001000000000000000000000000
201701020820000200000000000000004599000000000000000045999900000000000000000000CONSUMIDOR FINAL              000000000049500000000000000000000000000000000000000000000000000000000000000000000000000000000000000000000000000000000000PES00010000001000000000000000000000000
201701020820000200000000000000004600000000000000000046009900000000000000000000CONSUMIDOR FINAL              000000000002000000000000000000000000000000000000000000000000000000000000000000000000000000000000000000000000000000000000PES00010000001000000000000000000000000
201701020820000200000000000000004601000000000000000046019900000000000000000000CONSUMIDOR FINAL              000000000011500000000000000000000000000000000000000000000000000000000000000000000000000000000000000000000000000000000000PES00010000001000000000000000000000000
201701020820000200000000000000004602000000000000000046029900000000000000000000CONSUMIDOR FINAL              000000000034000000000000000000000000000000000000000000000000000000000000000000000000000000000000000000000000000000000000PES00010000001000000000000000000000000
201701020820000200000000000000004603000000000000000046039900000000000000000000CONSUMIDOR FINAL              000000000031000000000000000000000000000000000000000000000000000000000000000000000000000000000000000000000000000000000000PES00010000001000000000000000000000000
201701020820000200000000000000004604000000000000000046049900000000000000000000CONSUMIDOR FINAL              000000000057800000000000000000000000000000000000000000000000000000000000000000000000000000000000000000000000000000000000PES00010000001000000000000000000000000
201701020820000200000000000000004605000000000000000046059900000000000000000000CONSUMIDOR FINAL              000000000037000000000000000000000000000000000000000000000000000000000000000000000000000000000000000000000000000000000000PES00010000001000000000000000000000000
201701020820000200000000000000004606000000000000000046069900000000000000000000CONSUMIDOR FINAL              000000000004500000000000000000000000000000000000000000000000000000000000000000000000000000000000000000000000000000000000PES00010000001000000000000000000000000
201701030820000200000000000000004607000000000000000046079900000000000000000000CONSUMIDOR FINAL              000000000026000000000000000000000000000000000000000000000000000000000000000000000000000000000000000000000000000000000000PES00010000001000000000000000000000000
201701030820000200000000000000004608000000000000000046089900000000000000000000CONSUMIDOR FINAL              000000000065500000000000000000000000000000000000000000000000000000000000000000000000000000000000000000000000000000000000PES00010000001000000000000000000000000
201701030820000200000000000000004609000000000000000046099900000000000000000000CONSUMIDOR FINAL              000000000046000000000000000000000000000000000000000000000000000000000000000000000000000000000000000000000000000000000000PES00010000001000000000000000000000000
201701030820000200000000000000004610000000000000000046109900000000000000000000CONSUMIDOR FINAL              000000000034500000000000000000000000000000000000000000000000000000000000000000000000000000000000000000000000000000000000PES00010000001000000000000000000000000
201701030820000200000000000000004611000000000000000046119900000000000000000000CONSUMIDOR FINAL              000000000004500000000000000000000000000000000000000000000000000000000000000000000000000000000000000000000000000000000000PES00010000001000000000000000000000000
201701030820000200000000000000004612000000000000000046129900000000000000000000CONSUMIDOR FINAL              000000000070000000000000000000000000000000000000000000000000000000000000000000000000000000000000000000000000000000000000PES00010000001000000000000000000000000
201701030820000200000000000000004613000000000000000046139900000000000000000000CONSUMIDOR FINAL              000000000092500000000000000000000000000000000000000000000000000000000000000000000000000000000000000000000000000000000000PES00010000001000000000000000000000000
201701030820000200000000000000004614000000000000000046149900000000000000000000CONSUMIDOR FINAL              000000000081500000000000000000000000000000000000000000000000000000000000000000000000000000000000000000000000000000000000PES00010000001000000000000000000000000
201701030820000200000000000000004615000000000000000046159900000000000000000000CONSUMIDOR FINAL              000000000043500000000000000000000000000000000000000000000000000000000000000000000000000000000000000000000000000000000000PES00010000001000000000000000000000000
201701030820000200000000000000004616000000000000000046169900000000000000000000CONSUMIDOR FINAL              000000000104500000000000000000000000000000000000000000000000000000000000000000000000000000000000000000000000000000000000PES00010000001000000000000000000000000
201701030820000200000000000000004617000000000000000046179900000000000000000000CONSUMIDOR FINAL              000000000045000000000000000000000000000000000000000000000000000000000000000000000000000000000000000000000000000000000000PES00010000001000000000000000000000000
201701030820000200000000000000004618000000000000000046189900000000000000000000CONSUMIDOR FINAL              000000000044500000000000000000000000000000000000000000000000000000000000000000000000000000000000000000000000000000000000PES00010000001000000000000000000000000
201701030820000200000000000000004619000000000000000046199900000000000000000000CONSUMIDOR FINAL              000000000003500000000000000000000000000000000000000000000000000000000000000000000000000000000000000000000000000000000000PES00010000001000000000000000000000000
201701030820000200000000000000004620000000000000000046209900000000000000000000CONSUMIDOR FINAL              000000000009000000000000000000000000000000000000000000000000000000000000000000000000000000000000000000000000000000000000PES00010000001000000000000000000000000
201701030820000200000000000000004621000000000000000046219900000000000000000000CONSUMIDOR FINAL              000000000011500000000000000000000000000000000000000000000000000000000000000000000000000000000000000000000000000000000000PES00010000001000000000000000000000000
201701030820000200000000000000004622000000000000000046229900000000000000000000CONSUMIDOR FINAL              000000000135000000000000000000000000000000000000000000000000000000000000000000000000000000000000000000000000000000000000PES00010000001000000000000000000000000
201701030820000200000000000000004623000000000000000046239900000000000000000000CONSUMIDOR FINAL              000000000100500000000000000000000000000000000000000000000000000000000000000000000000000000000000000000000000000000000000PES00010000001000000000000000000000000
201701030820000200000000000000004624000000000000000046249900000000000000000000CONSUMIDOR FINAL              000000000090000000000000000000000000000000000000000000000000000000000000000000000000000000000000000000000000000000000000PES00010000001000000000000000000000000
201701030820000200000000000000004625000000000000000046259900000000000000000000CONSUMIDOR FINAL              000000000135000000000000000000000000000000000000000000000000000000000000000000000000000000000000000000000000000000000000PES00010000001000000000000000000000000
201701030820000200000000000000004626000000000000000046269900000000000000000000CONSUMIDOR FINAL              000000000011500000000000000000000000000000000000000000000000000000000000000000000000000000000000000000000000000000000000PES00010000001000000000000000000000000
201701040820000200000000000000004627000000000000000046279900000000000000000000CONSUMIDOR FINAL              000000000123500000000000000000000000000000000000000000000000000000000000000000000000000000000000000000000000000000000000PES00010000001000000000000000000000000
201701040820000200000000000000004628000000000000000046289900000000000000000000CONSUMIDOR FINAL              000000000121500000000000000000000000000000000000000000000000000000000000000000000000000000000000000000000000000000000000PES00010000001000000000000000000000000
201701040820000200000000000000004629000000000000000046299900000000000000000000CONSUMIDOR FINAL              000000000149000000000000000000000000000000000000000000000000000000000000000000000000000000000000000000000000000000000000PES00010000001000000000000000000000000
201701040820000200000000000000004630000000000000000046309900000000000000000000CONSUMIDOR FINAL              000000000051000000000000000000000000000000000000000000000000000000000000000000000000000000000000000000000000000000000000PES00010000001000000000000000000000000
201701040820000200000000000000004631000000000000000046319900000000000000000000CONSUMIDOR FINAL              000000000008500000000000000000000000000000000000000000000000000000000000000000000000000000000000000000000000000000000000PES00010000001000000000000000000000000
201701040820000200000000000000004632000000000000000046329900000000000000000000CONSUMIDOR FINAL              000000000096500000000000000000000000000000000000000000000000000000000000000000000000000000000000000000000000000000000000PES00010000001000000000000000000000000
201701040820000200000000000000004633000000000000000046339900000000000000000000CONSUMIDOR FINAL              000000000008500000000000000000000000000000000000000000000000000000000000000000000000000000000000000000000000000000000000PES00010000001000000000000000000000000
201701040820000200000000000000004634000000000000000046349900000000000000000000CONSUMIDOR FINAL              000000000094000000000000000000000000000000000000000000000000000000000000000000000000000000000000000000000000000000000000PES00010000001000000000000000000000000
201701040820000200000000000000004635000000000000000046359900000000000000000000CONSUMIDOR FINAL              000000000082000000000000000000000000000000000000000000000000000000000000000000000000000000000000000000000000000000000000PES00010000001000000000000000000000000
201701040820000200000000000000004636000000000000000046369900000000000000000000CONSUMIDOR FINAL              000000000087000000000000000000000000000000000000000000000000000000000000000000000000000000000000000000000000000000000000PES00010000001000000000000000000000000
201701040820000200000000000000004637000000000000000046379900000000000000000000CONSUMIDOR FINAL              000000000086500000000000000000000000000000000000000000000000000000000000000000000000000000000000000000000000000000000000PES00010000001000000000000000000000000
201701040820000200000000000000004638000000000000000046389900000000000000000000CONSUMIDOR FINAL              000000000029500000000000000000000000000000000000000000000000000000000000000000000000000000000000000000000000000000000000PES00010000001000000000000000000000000
201701040820000200000000000000004639000000000000000046399900000000000000000000CONSUMIDOR FINAL              000000000018000000000000000000000000000000000000000000000000000000000000000000000000000000000000000000000000000000000000PES00010000001000000000000000000000000
201701050820000200000000000000004640000000000000000046409900000000000000000000CONSUMIDOR FINAL              000000000065100000000000000000000000000000000000000000000000000000000000000000000000000000000000000000000000000000000000PES00010000001000000000000000000000000
201701050820000200000000000000004641000000000000000046419900000000000000000000CONSUMIDOR FINAL              000000000063500000000000000000000000000000000000000000000000000000000000000000000000000000000000000000000000000000000000PES00010000001000000000000000000000000
201701050820000200000000000000004642000000000000000046429900000000000000000000CONSUMIDOR FINAL              000000000040500000000000000000000000000000000000000000000000000000000000000000000000000000000000000000000000000000000000PES00010000001000000000000000000000000
201701050820000200000000000000004643000000000000000046439900000000000000000000CONSUMIDOR FINAL              000000000062500000000000000000000000000000000000000000000000000000000000000000000000000000000000000000000000000000000000PES00010000001000000000000000000000000
201701050820000200000000000000004644000000000000000046449900000000000000000000CONSUMIDOR FINAL              000000000038500000000000000000000000000000000000000000000000000000000000000000000000000000000000000000000000000000000000PES00010000001000000000000000000000000
201701050820000200000000000000004645000000000000000046459900000000000000000000CONSUMIDOR FINAL              000000000010500000000000000000000000000000000000000000000000000000000000000000000000000000000000000000000000000000000000PES00010000001000000000000000000000000
201701050820000200000000000000004646000000000000000046469900000000000000000000CONSUMIDOR FINAL              000000000010000000000000000000000000000000000000000000000000000000000000000000000000000000000000000000000000000000000000PES00010000001000000000000000000000000
201701050820000200000000000000004647000000000000000046479900000000000000000000CONSUMIDOR FINAL              000000000037000000000000000000000000000000000000000000000000000000000000000000000000000000000000000000000000000000000000PES00010000001000000000000000000000000
201701050820000200000000000000004648000000000000000046489900000000000000000000CONSUMIDOR FINAL              000000000026000000000000000000000000000000000000000000000000000000000000000000000000000000000000000000000000000000000000PES00010000001000000000000000000000000
201701050820000200000000000000004649000000000000000046499900000000000000000000CONSUMIDOR FINAL              000000000017500000000000000000000000000000000000000000000000000000000000000000000000000000000000000000000000000000000000PES00010000001000000000000000000000000
201701050820000200000000000000004650000000000000000046509900000000000000000000CONSUMIDOR FINAL              000000000004500000000000000000000000000000000000000000000000000000000000000000000000000000000000000000000000000000000000PES00010000001000000000000000000000000
201701050820000200000000000000004651000000000000000046519900000000000000000000CONSUMIDOR FINAL              000000000074500000000000000000000000000000000000000000000000000000000000000000000000000000000000000000000000000000000000PES00010000001000000000000000000000000
201701050820000200000000000000004652000000000000000046529900000000000000000000CONSUMIDOR FINAL              000000000064500000000000000000000000000000000000000000000000000000000000000000000000000000000000000000000000000000000000PES00010000001000000000000000000000000
201701050820000200000000000000004653000000000000000046539900000000000000000000CONSUMIDOR FINAL              000000000008500000000000000000000000000000000000000000000000000000000000000000000000000000000000000000000000000000000000PES00010000001000000000000000000000000
201701050820000200000000000000004654000000000000000046549900000000000000000000CONSUMIDOR FINAL              000000000039000000000000000000000000000000000000000000000000000000000000000000000000000000000000000000000000000000000000PES00010000001000000000000000000000000
201701060820000200000000000000004655000000000000000046559900000000000000000000CONSUMIDOR FINAL              000000000006000000000000000000000000000000000000000000000000000000000000000000000000000000000000000000000000000000000000PES00010000001000000000000000000000000
201701060820000200000000000000004656000000000000000046569900000000000000000000CONSUMIDOR FINAL              000000000007500000000000000000000000000000000000000000000000000000000000000000000000000000000000000000000000000000000000PES00010000001000000000000000000000000
201701060820000200000000000000004657000000000000000046579900000000000000000000CONSUMIDOR FINAL              000000000010500000000000000000000000000000000000000000000000000000000000000000000000000000000000000000000000000000000000PES00010000001000000000000000000000000
201701060820000200000000000000004658000000000000000046589900000000000000000000CONSUMIDOR FINAL              000000000009000000000000000000000000000000000000000000000000000000000000000000000000000000000000000000000000000000000000PES00010000001000000000000000000000000
201701060820000200000000000000004659000000000000000046599900000000000000000000CONSUMIDOR FINAL              000000000041500000000000000000000000000000000000000000000000000000000000000000000000000000000000000000000000000000000000PES00010000001000000000000000000000000
201701060820000200000000000000004660000000000000000046609900000000000000000000CONSUMIDOR FINAL              000000000057000000000000000000000000000000000000000000000000000000000000000000000000000000000000000000000000000000000000PES00010000001000000000000000000000000
201701060820000200000000000000004661000000000000000046619900000000000000000000CONSUMIDOR FINAL              000000000051000000000000000000000000000000000000000000000000000000000000000000000000000000000000000000000000000000000000PES00010000001000000000000000000000000
201701060820000200000000000000004662000000000000000046629900000000000000000000CONSUMIDOR FINAL              000000000071000000000000000000000000000000000000000000000000000000000000000000000000000000000000000000000000000000000000PES00010000001000000000000000000000000
201701060820000200000000000000004663000000000000000046639900000000000000000000CONSUMIDOR FINAL              000000000076000000000000000000000000000000000000000000000000000000000000000000000000000000000000000000000000000000000000PES00010000001000000000000000000000000
201701060820000200000000000000004664000000000000000046649900000000000000000000CONSUMIDOR FINAL              000000000050000000000000000000000000000000000000000000000000000000000000000000000000000000000000000000000000000000000000PES00010000001000000000000000000000000
201701060820000200000000000000004665000000000000000046659900000000000000000000CONSUMIDOR FINAL              000000000040500000000000000000000000000000000000000000000000000000000000000000000000000000000000000000000000000000000000PES00010000001000000000000000000000000
201701060820000200000000000000004666000000000000000046669900000000000000000000CONSUMIDOR FINAL              000000000077000000000000000000000000000000000000000000000000000000000000000000000000000000000000000000000000000000000000PES00010000001000000000000000000000000
201701060820000200000000000000004667000000000000000046679900000000000000000000CONSUMIDOR FINAL              000000000005000000000000000000000000000000000000000000000000000000000000000000000000000000000000000000000000000000000000PES00010000001000000000000000000000000
201701060820000200000000000000004668000000000000000046689900000000000000000000CONSUMIDOR FINAL              000000000005000000000000000000000000000000000000000000000000000000000000000000000000000000000000000000000000000000000000PES00010000001000000000000000000000000
201701060820000200000000000000004669000000000000000046699900000000000000000000CONSUMIDOR FINAL              000000000066000000000000000000000000000000000000000000000000000000000000000000000000000000000000000000000000000000000000PES00010000001000000000000000000000000
201701060820000200000000000000004670000000000000000046709900000000000000000000CONSUMIDOR FINAL              000000000103000000000000000000000000000000000000000000000000000000000000000000000000000000000000000000000000000000000000PES00010000001000000000000000000000000
201701060820000200000000000000004671000000000000000046719900000000000000000000CONSUMIDOR FINAL              000000000065000000000000000000000000000000000000000000000000000000000000000000000000000000000000000000000000000000000000PES00010000001000000000000000000000000
201701060820000200000000000000004672000000000000000046729900000000000000000000CONSUMIDOR FINAL              000000000080000000000000000000000000000000000000000000000000000000000000000000000000000000000000000000000000000000000000PES00010000001000000000000000000000000
201701060820000200000000000000004673000000000000000046739900000000000000000000CONSUMIDOR FINAL              000000000080500000000000000000000000000000000000000000000000000000000000000000000000000000000000000000000000000000000000PES00010000001000000000000000000000000
201701060820000200000000000000004674000000000000000046749900000000000000000000CONSUMIDOR FINAL              000000000016500000000000000000000000000000000000000000000000000000000000000000000000000000000000000000000000000000000000PES00010000001000000000000000000000000
201701060820000200000000000000004675000000000000000046759900000000000000000000CONSUMIDOR FINAL              000000000046500000000000000000000000000000000000000000000000000000000000000000000000000000000000000000000000000000000000PES00010000001000000000000000000000000
201701070820000200000000000000004676000000000000000046769900000000000000000000CONSUMIDOR FINAL              000000000045000000000000000000000000000000000000000000000000000000000000000000000000000000000000000000000000000000000000PES00010000001000000000000000000000000
201701070820000200000000000000004677000000000000000046779900000000000000000000CONSUMIDOR FINAL              000000000041000000000000000000000000000000000000000000000000000000000000000000000000000000000000000000000000000000000000PES00010000001000000000000000000000000
201701070820000200000000000000004678000000000000000046789900000000000000000000CONSUMIDOR FINAL              000000000007500000000000000000000000000000000000000000000000000000000000000000000000000000000000000000000000000000000000PES00010000001000000000000000000000000
201701070820000200000000000000004679000000000000000046799900000000000000000000CONSUMIDOR FINAL              000000000047500000000000000000000000000000000000000000000000000000000000000000000000000000000000000000000000000000000000PES00010000001000000000000000000000000
201701070820000200000000000000004680000000000000000046809900000000000000000000CONSUMIDOR FINAL              000000000036000000000000000000000000000000000000000000000000000000000000000000000000000000000000000000000000000000000000PES00010000001000000000000000000000000
201701070820000200000000000000004681000000000000000046819900000000000000000000CONSUMIDOR FINAL              000000000013500000000000000000000000000000000000000000000000000000000000000000000000000000000000000000000000000000000000PES00010000001000000000000000000000000
201701070820000200000000000000004682000000000000000046829900000000000000000000CONSUMIDOR FINAL              000000000036500000000000000000000000000000000000000000000000000000000000000000000000000000000000000000000000000000000000PES00010000001000000000000000000000000
201701070820000200000000000000004683000000000000000046839900000000000000000000CONSUMIDOR FINAL              000000000045500000000000000000000000000000000000000000000000000000000000000000000000000000000000000000000000000000000000PES00010000001000000000000000000000000
201701070820000200000000000000004684000000000000000046849900000000000000000000CONSUMIDOR FINAL              000000000028500000000000000000000000000000000000000000000000000000000000000000000000000000000000000000000000000000000000PES00010000001000000000000000000000000
201701070820000200000000000000004685000000000000000046859900000000000000000000CONSUMIDOR FINAL              000000000036000000000000000000000000000000000000000000000000000000000000000000000000000000000000000000000000000000000000PES00010000001000000000000000000000000
201701070820000200000000000000004686000000000000000046869900000000000000000000CONSUMIDOR FINAL              000000000036000000000000000000000000000000000000000000000000000000000000000000000000000000000000000000000000000000000000PES00010000001000000000000000000000000
201701070820000200000000000000004687000000000000000046879900000000000000000000CONSUMIDOR FINAL              000000000042500000000000000000000000000000000000000000000000000000000000000000000000000000000000000000000000000000000000PES00010000001000000000000000000000000
201701070820000200000000000000004688000000000000000046889900000000000000000000CONSUMIDOR FINAL              000000000037000000000000000000000000000000000000000000000000000000000000000000000000000000000000000000000000000000000000PES00010000001000000000000000000000000
201701070820000200000000000000004689000000000000000046899900000000000000000000CONSUMIDOR FINAL              000000000047000000000000000000000000000000000000000000000000000000000000000000000000000000000000000000000000000000000000PES00010000001000000000000000000000000
201701070820000200000000000000004690000000000000000046909900000000000000000000CONSUMIDOR FINAL              000000000058500000000000000000000000000000000000000000000000000000000000000000000000000000000000000000000000000000000000PES00010000001000000000000000000000000
201701070820000200000000000000004691000000000000000046919900000000000000000000CONSUMIDOR FINAL              000000000047000000000000000000000000000000000000000000000000000000000000000000000000000000000000000000000000000000000000PES00010000001000000000000000000000000
201701070820000200000000000000004692000000000000000046929900000000000000000000CONSUMIDOR FINAL              000000000046000000000000000000000000000000000000000000000000000000000000000000000000000000000000000000000000000000000000PES00010000001000000000000000000000000
201701070820000200000000000000004693000000000000000046939900000000000000000000CONSUMIDOR FINAL              000000000007000000000000000000000000000000000000000000000000000000000000000000000000000000000000000000000000000000000000PES00010000001000000000000000000000000
201701070820000200000000000000004694000000000000000046949900000000000000000000CONSUMIDOR FINAL              000000000027000000000000000000000000000000000000000000000000000000000000000000000000000000000000000000000000000000000000PES00010000001000000000000000000000000
201701070820000200000000000000004695000000000000000046959900000000000000000000CONSUMIDOR FINAL              000000000080000000000000000000000000000000000000000000000000000000000000000000000000000000000000000000000000000000000000PES00010000001000000000000000000000000
201701070820000200000000000000004696000000000000000046969900000000000000000000CONSUMIDOR FINAL              000000000089500000000000000000000000000000000000000000000000000000000000000000000000000000000000000000000000000000000000PES00010000001000000000000000000000000
201701070820000200000000000000004697000000000000000046979900000000000000000000CONSUMIDOR FINAL              000000000087000000000000000000000000000000000000000000000000000000000000000000000000000000000000000000000000000000000000PES00010000001000000000000000000000000
201701070820000200000000000000004698000000000000000046989900000000000000000000CONSUMIDOR FINAL              000000000057000000000000000000000000000000000000000000000000000000000000000000000000000000000000000000000000000000000000PES00010000001000000000000000000000000
201701070820000200000000000000004699000000000000000046999900000000000000000000CONSUMIDOR FINAL              000000000085500000000000000000000000000000000000000000000000000000000000000000000000000000000000000000000000000000000000PES00010000001000000000000000000000000
201701070820000200000000000000004700000000000000000047009900000000000000000000CONSUMIDOR FINAL              000000000031500000000000000000000000000000000000000000000000000000000000000000000000000000000000000000000000000000000000PES00010000001000000000000000000000000
201701080820000200000000000000004701000000000000000047019900000000000000000000CONSUMIDOR FINAL              000000000025000000000000000000000000000000000000000000000000000000000000000000000000000000000000000000000000000000000000PES00010000001000000000000000000000000
201701080820000200000000000000004702000000000000000047029900000000000000000000CONSUMIDOR FINAL              000000000051000000000000000000000000000000000000000000000000000000000000000000000000000000000000000000000000000000000000PES00010000001000000000000000000000000
201701080820000200000000000000004703000000000000000047039900000000000000000000CONSUMIDOR FINAL              000000000060500000000000000000000000000000000000000000000000000000000000000000000000000000000000000000000000000000000000PES00010000001000000000000000000000000
201701080820000200000000000000004704000000000000000047049900000000000000000000CONSUMIDOR FINAL              000000000059500000000000000000000000000000000000000000000000000000000000000000000000000000000000000000000000000000000000PES00010000001000000000000000000000000
201701080820000200000000000000004705000000000000000047059900000000000000000000CONSUMIDOR FINAL              000000000030000000000000000000000000000000000000000000000000000000000000000000000000000000000000000000000000000000000000PES00010000001000000000000000000000000
201701080820000200000000000000004706000000000000000047069900000000000000000000CONSUMIDOR FINAL              000000000030500000000000000000000000000000000000000000000000000000000000000000000000000000000000000000000000000000000000PES00010000001000000000000000000000000
201701080820000200000000000000004707000000000000000047079900000000000000000000CONSUMIDOR FINAL              000000000053000000000000000000000000000000000000000000000000000000000000000000000000000000000000000000000000000000000000PES00010000001000000000000000000000000
201701080820000200000000000000004708000000000000000047089900000000000000000000CONSUMIDOR FINAL              000000000056500000000000000000000000000000000000000000000000000000000000000000000000000000000000000000000000000000000000PES00010000001000000000000000000000000
201701080820000200000000000000004709000000000000000047099900000000000000000000CONSUMIDOR FINAL              000000000063500000000000000000000000000000000000000000000000000000000000000000000000000000000000000000000000000000000000PES00010000001000000000000000000000000
201701080820000200000000000000004710000000000000000047109900000000000000000000CONSUMIDOR FINAL              000000000036000000000000000000000000000000000000000000000000000000000000000000000000000000000000000000000000000000000000PES00010000001000000000000000000000000
201701080820000200000000000000004711000000000000000047119900000000000000000000CONSUMIDOR FINAL              000000000030000000000000000000000000000000000000000000000000000000000000000000000000000000000000000000000000000000000000PES00010000001000000000000000000000000
201701080820000200000000000000004712000000000000000047129900000000000000000000CONSUMIDOR FINAL              000000000016500000000000000000000000000000000000000000000000000000000000000000000000000000000000000000000000000000000000PES00010000001000000000000000000000000
201701080820000200000000000000004713000000000000000047139900000000000000000000CONSUMIDOR FINAL              000000000018000000000000000000000000000000000000000000000000000000000000000000000000000000000000000000000000000000000000PES00010000001000000000000000000000000
201701080820000200000000000000004714000000000000000047149900000000000000000000CONSUMIDOR FINAL              000000000000000000000000000000000000000000000000000000000000000000000000000000000000000000000000000000000000000000000000PES00010000001000000000000000000000000
201701080820000200000000000000004715000000000000000047159900000000000000000000CONSUMIDOR FINAL              000000000043500000000000000000000000000000000000000000000000000000000000000000000000000000000000000000000000000000000000PES00010000001000000000000000000000000
201701080820000200000000000000004716000000000000000047169900000000000000000000CONSUMIDOR FINAL              000000000011500000000000000000000000000000000000000000000000000000000000000000000000000000000000000000000000000000000000PES00010000001000000000000000000000000
201701080820000200000000000000004717000000000000000047179900000000000000000000CONSUMIDOR FINAL              000000000003000000000000000000000000000000000000000000000000000000000000000000000000000000000000000000000000000000000000PES00010000001000000000000000000000000
201701080820000200000000000000004718000000000000000047189900000000000000000000CONSUMIDOR FINAL              000000000036700000000000000000000000000000000000000000000000000000000000000000000000000000000000000000000000000000000000PES00010000001000000000000000000000000
201701080820000200000000000000004719000000000000000047199900000000000000000000CONSUMIDOR FINAL              000000000002000000000000000000000000000000000000000000000000000000000000000000000000000000000000000000000000000000000000PES00010000001000000000000000000000000
201701080820000200000000000000004720000000000000000047209900000000000000000000CONSUMIDOR FINAL              000000000023000000000000000000000000000000000000000000000000000000000000000000000000000000000000000000000000000000000000PES00010000001000000000000000000000000
201701080820000200000000000000004721000000000000000047219900000000000000000000CONSUMIDOR FINAL              000000000033500000000000000000000000000000000000000000000000000000000000000000000000000000000000000000000000000000000000PES00010000001000000000000000000000000
201701080820000200000000000000004722000000000000000047229900000000000000000000CONSUMIDOR FINAL              000000000006000000000000000000000000000000000000000000000000000000000000000000000000000000000000000000000000000000000000PES00010000001000000000000000000000000
201701080820000200000000000000004723000000000000000047239900000000000000000000CONSUMIDOR FINAL              000000000009500000000000000000000000000000000000000000000000000000000000000000000000000000000000000000000000000000000000PES00010000001000000000000000000000000
201701080820000200000000000000004724000000000000000047249900000000000000000000CONSUMIDOR FINAL              000000000064500000000000000000000000000000000000000000000000000000000000000000000000000000000000000000000000000000000000PES00010000001000000000000000000000000
201701080820000200000000000000004725000000000000000047259900000000000000000000CONSUMIDOR FINAL              000000000137500000000000000000000000000000000000000000000000000000000000000000000000000000000000000000000000000000000000PES00010000001000000000000000000000000
201701080820000200000000000000004726000000000000000047269900000000000000000000CONSUMIDOR FINAL              000000000078000000000000000000000000000000000000000000000000000000000000000000000000000000000000000000000000000000000000PES00010000001000000000000000000000000
201701080820000200000000000000004727000000000000000047279900000000000000000000CONSUMIDOR FINAL              000000000013500000000000000000000000000000000000000000000000000000000000000000000000000000000000000000000000000000000000PES00010000001000000000000000000000000
201701080820000200000000000000004728000000000000000047289900000000000000000000CONSUMIDOR FINAL              000000000003000000000000000000000000000000000000000000000000000000000000000000000000000000000000000000000000000000000000PES00010000001000000000000000000000000
201701080820000200000000000000004729000000000000000047299900000000000000000000CONSUMIDOR FINAL              000000000001500000000000000000000000000000000000000000000000000000000000000000000000000000000000000000000000000000000000PES00010000001000000000000000000000000
201701080820000200000000000000004730000000000000000047309900000000000000000000CONSUMIDOR FINAL              000000000111500000000000000000000000000000000000000000000000000000000000000000000000000000000000000000000000000000000000PES00010000001000000000000000000000000
201701080820000200000000000000004731000000000000000047319900000000000000000000CONSUMIDOR FINAL              000000000054500000000000000000000000000000000000000000000000000000000000000000000000000000000000000000000000000000000000PES00010000001000000000000000000000000
201701080820000200000000000000004732000000000000000047329900000000000000000000CONSUMIDOR FINAL              000000000020000000000000000000000000000000000000000000000000000000000000000000000000000000000000000000000000000000000000PES00010000001000000000000000000000000
201701080820000200000000000000004733000000000000000047339900000000000000000000CONSUMIDOR FINAL              000000000098500000000000000000000000000000000000000000000000000000000000000000000000000000000000000000000000000000000000PES00010000001000000000000000000000000
201701080820000200000000000000004734000000000000000047349900000000000000000000CONSUMIDOR FINAL              000000000070000000000000000000000000000000000000000000000000000000000000000000000000000000000000000000000000000000000000PES00010000001000000000000000000000000
201701080820000200000000000000004735000000000000000047359900000000000000000000CONSUMIDOR FINAL              000000000022500000000000000000000000000000000000000000000000000000000000000000000000000000000000000000000000000000000000PES00010000001000000000000000000000000
201701090820000200000000000000004736000000000000000047369900000000000000000000CONSUMIDOR FINAL              000000000083000000000000000000000000000000000000000000000000000000000000000000000000000000000000000000000000000000000000PES00010000001000000000000000000000000
201701090820000200000000000000004737000000000000000047379900000000000000000000CONSUMIDOR FINAL              000000000090000000000000000000000000000000000000000000000000000000000000000000000000000000000000000000000000000000000000PES00010000001000000000000000000000000
201701090820000200000000000000004738000000000000000047389900000000000000000000CONSUMIDOR FINAL              000000000100000000000000000000000000000000000000000000000000000000000000000000000000000000000000000000000000000000000000PES00010000001000000000000000000000000
201701090820000200000000000000004739000000000000000047399900000000000000000000CONSUMIDOR FINAL              000000000079000000000000000000000000000000000000000000000000000000000000000000000000000000000000000000000000000000000000PES00010000001000000000000000000000000
201701090820000200000000000000004740000000000000000047409900000000000000000000CONSUMIDOR FINAL              000000000003500000000000000000000000000000000000000000000000000000000000000000000000000000000000000000000000000000000000PES00010000001000000000000000000000000
201701090820000200000000000000004741000000000000000047419900000000000000000000CONSUMIDOR FINAL              000000000115000000000000000000000000000000000000000000000000000000000000000000000000000000000000000000000000000000000000PES00010000001000000000000000000000000
201701090820000200000000000000004742000000000000000047429900000000000000000000CONSUMIDOR FINAL              000000000074000000000000000000000000000000000000000000000000000000000000000000000000000000000000000000000000000000000000PES00010000001000000000000000000000000
201701090820000200000000000000004743000000000000000047439900000000000000000000CONSUMIDOR FINAL              000000000112000000000000000000000000000000000000000000000000000000000000000000000000000000000000000000000000000000000000PES00010000001000000000000000000000000
201701090820000200000000000000004744000000000000000047449900000000000000000000CONSUMIDOR FINAL              000000000087500000000000000000000000000000000000000000000000000000000000000000000000000000000000000000000000000000000000PES00010000001000000000000000000000000
201701090820000200000000000000004745000000000000000047459900000000000000000000CONSUMIDOR FINAL              000000000015500000000000000000000000000000000000000000000000000000000000000000000000000000000000000000000000000000000000PES00010000001000000000000000000000000
201701090820000200000000000000004746000000000000000047469900000000000000000000CONSUMIDOR FINAL              000000000008500000000000000000000000000000000000000000000000000000000000000000000000000000000000000000000000000000000000PES00010000001000000000000000000000000
201701090820000200000000000000004747000000000000000047479900000000000000000000CONSUMIDOR FINAL              000000000007000000000000000000000000000000000000000000000000000000000000000000000000000000000000000000000000000000000000PES00010000001000000000000000000000000
201701090820000200000000000000004748000000000000000047489900000000000000000000CONSUMIDOR FINAL              000000000100500000000000000000000000000000000000000000000000000000000000000000000000000000000000000000000000000000000000PES00010000001000000000000000000000000
201701090820000200000000000000004749000000000000000047499900000000000000000000CONSUMIDOR FINAL              000000000104500000000000000000000000000000000000000000000000000000000000000000000000000000000000000000000000000000000000PES00010000001000000000000000000000000
201701090820000200000000000000004750000000000000000047509900000000000000000000CONSUMIDOR FINAL              000000000020500000000000000000000000000000000000000000000000000000000000000000000000000000000000000000000000000000000000PES00010000001000000000000000000000000
201701090820000200000000000000004751000000000000000047519900000000000000000000CONSUMIDOR FINAL              000000000052500000000000000000000000000000000000000000000000000000000000000000000000000000000000000000000000000000000000PES00010000001000000000000000000000000
201701090820000200000000000000004752000000000000000047529900000000000000000000CONSUMIDOR FINAL              000000000011500000000000000000000000000000000000000000000000000000000000000000000000000000000000000000000000000000000000PES00010000001000000000000000000000000
201701090820000200000000000000004753000000000000000047539900000000000000000000CONSUMIDOR FINAL              000000000006500000000000000000000000000000000000000000000000000000000000000000000000000000000000000000000000000000000000PES00010000001000000000000000000000000
201701090820000200000000000000004754000000000000000047549900000000000000000000CONSUMIDOR FINAL              000000000046500000000000000000000000000000000000000000000000000000000000000000000000000000000000000000000000000000000000PES00010000001000000000000000000000000
201701090820000200000000000000004755000000000000000047559900000000000000000000CONSUMIDOR FINAL              000000000053500000000000000000000000000000000000000000000000000000000000000000000000000000000000000000000000000000000000PES00010000001000000000000000000000000
201701090820000200000000000000004756000000000000000047569900000000000000000000CONSUMIDOR FINAL              000000000067000000000000000000000000000000000000000000000000000000000000000000000000000000000000000000000000000000000000PES00010000001000000000000000000000000
201701090820000200000000000000004757000000000000000047579900000000000000000000CONSUMIDOR FINAL              000000000031500000000000000000000000000000000000000000000000000000000000000000000000000000000000000000000000000000000000PES00010000001000000000000000000000000
201701090820000200000000000000004758000000000000000047589900000000000000000000CONSUMIDOR FINAL              000000000082500000000000000000000000000000000000000000000000000000000000000000000000000000000000000000000000000000000000PES00010000001000000000000000000000000
201701090820000200000000000000004759000000000000000047599900000000000000000000CONSUMIDOR FINAL              000000000043500000000000000000000000000000000000000000000000000000000000000000000000000000000000000000000000000000000000PES00010000001000000000000000000000000
201701090820000200000000000000004760000000000000000047609900000000000000000000CONSUMIDOR FINAL              000000000003500000000000000000000000000000000000000000000000000000000000000000000000000000000000000000000000000000000000PES00010000001000000000000000000000000
201701090820000200000000000000004761000000000000000047619900000000000000000000CONSUMIDOR FINAL              000000000013500000000000000000000000000000000000000000000000000000000000000000000000000000000000000000000000000000000000PES00010000001000000000000000000000000
201701090820000200000000000000004763000000000000000047639900000000000000000000CONSUMIDOR FINAL              000000000016000000000000000000000000000000000000000000000000000000000000000000000000000000000000000000000000000000000000PES00010000001000000000000000000000000
201701090820000200000000000000004764000000000000000047649900000000000000000000CONSUMIDOR FINAL              000000000029500000000000000000000000000000000000000000000000000000000000000000000000000000000000000000000000000000000000PES00010000001000000000000000000000000
201701090820000200000000000000004765000000000000000047659900000000000000000000CONSUMIDOR FINAL              000000000004500000000000000000000000000000000000000000000000000000000000000000000000000000000000000000000000000000000000PES00010000001000000000000000000000000
201701090820000200000000000000004766000000000000000047669900000000000000000000CONSUMIDOR FINAL              000000000011000000000000000000000000000000000000000000000000000000000000000000000000000000000000000000000000000000000000PES00010000001000000000000000000000000
201701090820000200000000000000004767000000000000000047679900000000000000000000CONSUMIDOR FINAL              000000000003500000000000000000000000000000000000000000000000000000000000000000000000000000000000000000000000000000000000PES00010000001000000000000000000000000
201701090820000200000000000000004768000000000000000047689900000000000000000000CONSUMIDOR FINAL              000000000042000000000000000000000000000000000000000000000000000000000000000000000000000000000000000000000000000000000000PES00010000001000000000000000000000000
201701090820000200000000000000004769000000000000000047699900000000000000000000CONSUMIDOR FINAL              000000000076000000000000000000000000000000000000000000000000000000000000000000000000000000000000000000000000000000000000PES00010000001000000000000000000000000
201701090820000200000000000000004770000000000000000047709900000000000000000000CONSUMIDOR FINAL              000000000057500000000000000000000000000000000000000000000000000000000000000000000000000000000000000000000000000000000000PES00010000001000000000000000000000000
201701090820000200000000000000004771000000000000000047719900000000000000000000CONSUMIDOR FINAL              000000000034000000000000000000000000000000000000000000000000000000000000000000000000000000000000000000000000000000000000PES00010000001000000000000000000000000
201701090820000200000000000000004772000000000000000047729900000000000000000000CONSUMIDOR FINAL              000000000019000000000000000000000000000000000000000000000000000000000000000000000000000000000000000000000000000000000000PES00010000001000000000000000000000000
201701090820000200000000000000004773000000000000000047739900000000000000000000CONSUMIDOR FINAL              000000000020000000000000000000000000000000000000000000000000000000000000000000000000000000000000000000000000000000000000PES00010000001000000000000000000000000
201701090820000200000000000000004774000000000000000047749900000000000000000000CONSUMIDOR FINAL              000000000020000000000000000000000000000000000000000000000000000000000000000000000000000000000000000000000000000000000000PES00010000001000000000000000000000000
201701090820000200000000000000004775000000000000000047759900000000000000000000CONSUMIDOR FINAL              000000000004000000000000000000000000000000000000000000000000000000000000000000000000000000000000000000000000000000000000PES00010000001000000000000000000000000
201701100820000200000000000000004776000000000000000047769900000000000000000000CONSUMIDOR FINAL              000000000107500000000000000000000000000000000000000000000000000000000000000000000000000000000000000000000000000000000000PES00010000001000000000000000000000000
201701100820000200000000000000004777000000000000000047779900000000000000000000CONSUMIDOR FINAL              000000000103000000000000000000000000000000000000000000000000000000000000000000000000000000000000000000000000000000000000PES00010000001000000000000000000000000
201701100820000200000000000000004778000000000000000047789900000000000000000000CONSUMIDOR FINAL              000000000011000000000000000000000000000000000000000000000000000000000000000000000000000000000000000000000000000000000000PES00010000001000000000000000000000000
201701100820000200000000000000004779000000000000000047799900000000000000000000CONSUMIDOR FINAL              000000000009000000000000000000000000000000000000000000000000000000000000000000000000000000000000000000000000000000000000PES00010000001000000000000000000000000
201701100820000200000000000000004780000000000000000047809900000000000000000000CONSUMIDOR FINAL              000000000020000000000000000000000000000000000000000000000000000000000000000000000000000000000000000000000000000000000000PES00010000001000000000000000000000000
201701100820000200000000000000004781000000000000000047819900000000000000000000CONSUMIDOR FINAL              000000000031000000000000000000000000000000000000000000000000000000000000000000000000000000000000000000000000000000000000PES00010000001000000000000000000000000
201701100820000200000000000000004782000000000000000047829900000000000000000000CONSUMIDOR FINAL              000000000014500000000000000000000000000000000000000000000000000000000000000000000000000000000000000000000000000000000000PES00010000001000000000000000000000000
201701100820000200000000000000004783000000000000000047839900000000000000000000CONSUMIDOR FINAL              000000000013000000000000000000000000000000000000000000000000000000000000000000000000000000000000000000000000000000000000PES00010000001000000000000000000000000
201701100820000200000000000000004784000000000000000047849900000000000000000000CONSUMIDOR FINAL              000000000011500000000000000000000000000000000000000000000000000000000000000000000000000000000000000000000000000000000000PES00010000001000000000000000000000000
201701100820000200000000000000004785000000000000000047859900000000000000000000CONSUMIDOR FINAL              000000000014500000000000000000000000000000000000000000000000000000000000000000000000000000000000000000000000000000000000PES00010000001000000000000000000000000
201701100820000200000000000000004786000000000000000047869900000000000000000000CONSUMIDOR FINAL              000000000024200000000000000000000000000000000000000000000000000000000000000000000000000000000000000000000000000000000000PES00010000001000000000000000000000000
201701100820000200000000000000004787000000000000000047879900000000000000000000CONSUMIDOR FINAL              000000000024200000000000000000000000000000000000000000000000000000000000000000000000000000000000000000000000000000000000PES00010000001000000000000000000000000
201701100820000200000000000000004788000000000000000047889900000000000000000000CONSUMIDOR FINAL              000000000011500000000000000000000000000000000000000000000000000000000000000000000000000000000000000000000000000000000000PES00010000001000000000000000000000000
201701100820000200000000000000004789000000000000000047899900000000000000000000CONSUMIDOR FINAL              000000000018500000000000000000000000000000000000000000000000000000000000000000000000000000000000000000000000000000000000PES00010000001000000000000000000000000
201701100820000200000000000000004790000000000000000047909900000000000000000000CONSUMIDOR FINAL              000000000010500000000000000000000000000000000000000000000000000000000000000000000000000000000000000000000000000000000000PES00010000001000000000000000000000000
201701100820000200000000000000004791000000000000000047919900000000000000000000CONSUMIDOR FINAL              000000000020500000000000000000000000000000000000000000000000000000000000000000000000000000000000000000000000000000000000PES00010000001000000000000000000000000
201701100820000200000000000000004792000000000000000047929900000000000000000000CONSUMIDOR FINAL              000000000014500000000000000000000000000000000000000000000000000000000000000000000000000000000000000000000000000000000000PES00010000001000000000000000000000000
201701100820000200000000000000004793000000000000000047939900000000000000000000CONSUMIDOR FINAL              000000000010500000000000000000000000000000000000000000000000000000000000000000000000000000000000000000000000000000000000PES00010000001000000000000000000000000
201701100820000200000000000000004794000000000000000047949900000000000000000000CONSUMIDOR FINAL              000000000030000000000000000000000000000000000000000000000000000000000000000000000000000000000000000000000000000000000000PES00010000001000000000000000000000000
201701100820000200000000000000004795000000000000000047959900000000000000000000CONSUMIDOR FINAL              000000000017000000000000000000000000000000000000000000000000000000000000000000000000000000000000000000000000000000000000PES00010000001000000000000000000000000
201701100820000200000000000000004796000000000000000047969900000000000000000000CONSUMIDOR FINAL              000000000010000000000000000000000000000000000000000000000000000000000000000000000000000000000000000000000000000000000000PES00010000001000000000000000000000000
201701100820000200000000000000004797000000000000000047979900000000000000000000CONSUMIDOR FINAL              000000000007500000000000000000000000000000000000000000000000000000000000000000000000000000000000000000000000000000000000PES00010000001000000000000000000000000
201701110820000200000000000000004798000000000000000047989900000000000000000000CONSUMIDOR FINAL              000000000091000000000000000000000000000000000000000000000000000000000000000000000000000000000000000000000000000000000000PES00010000001000000000000000000000000
201701110820000200000000000000004799000000000000000047999900000000000000000000CONSUMIDOR FINAL              000000000099000000000000000000000000000000000000000000000000000000000000000000000000000000000000000000000000000000000000PES00010000001000000000000000000000000
201701110820000200000000000000004800000000000000000048009900000000000000000000CONSUMIDOR FINAL              000000000101500000000000000000000000000000000000000000000000000000000000000000000000000000000000000000000000000000000000PES00010000001000000000000000000000000
201701110820000200000000000000004801000000000000000048019900000000000000000000CONSUMIDOR FINAL              000000000101000000000000000000000000000000000000000000000000000000000000000000000000000000000000000000000000000000000000PES00010000001000000000000000000000000
201701110820000200000000000000004802000000000000000048029900000000000000000000CONSUMIDOR FINAL              000000000015500000000000000000000000000000000000000000000000000000000000000000000000000000000000000000000000000000000000PES00010000001000000000000000000000000
201701110820000200000000000000004803000000000000000048039900000000000000000000CONSUMIDOR FINAL              000000000013000000000000000000000000000000000000000000000000000000000000000000000000000000000000000000000000000000000000PES00010000001000000000000000000000000
201701110820000200000000000000004804000000000000000048049900000000000000000000CONSUMIDOR FINAL              000000000015500000000000000000000000000000000000000000000000000000000000000000000000000000000000000000000000000000000000PES00010000001000000000000000000000000
201701110820000200000000000000004805000000000000000048059900000000000000000000CONSUMIDOR FINAL              000000000017000000000000000000000000000000000000000000000000000000000000000000000000000000000000000000000000000000000000PES00010000001000000000000000000000000
201701110820000200000000000000004806000000000000000048069900000000000000000000CONSUMIDOR FINAL              000000000011000000000000000000000000000000000000000000000000000000000000000000000000000000000000000000000000000000000000PES00010000001000000000000000000000000
201701110820000200000000000000004807000000000000000048079900000000000000000000CONSUMIDOR FINAL              000000000013500000000000000000000000000000000000000000000000000000000000000000000000000000000000000000000000000000000000PES00010000001000000000000000000000000
201701110820000200000000000000004808000000000000000048089900000000000000000000CONSUMIDOR FINAL              000000000016000000000000000000000000000000000000000000000000000000000000000000000000000000000000000000000000000000000000PES00010000001000000000000000000000000
201701110820000200000000000000004809000000000000000048099900000000000000000000CONSUMIDOR FINAL              000000000032000000000000000000000000000000000000000000000000000000000000000000000000000000000000000000000000000000000000PES00010000001000000000000000000000000
201701110820000200000000000000004810000000000000000048109900000000000000000000CONSUMIDOR FINAL              000000000021000000000000000000000000000000000000000000000000000000000000000000000000000000000000000000000000000000000000PES00010000001000000000000000000000000
201701110820000200000000000000004811000000000000000048119900000000000000000000CONSUMIDOR FINAL              000000000021000000000000000000000000000000000000000000000000000000000000000000000000000000000000000000000000000000000000PES00010000001000000000000000000000000
201701110820000200000000000000004812000000000000000048129900000000000000000000CONSUMIDOR FINAL              000000000025000000000000000000000000000000000000000000000000000000000000000000000000000000000000000000000000000000000000PES00010000001000000000000000000000000
201701110820000200000000000000004813000000000000000048139900000000000000000000CONSUMIDOR FINAL              000000000019500000000000000000000000000000000000000000000000000000000000000000000000000000000000000000000000000000000000PES00010000001000000000000000000000000
201701110820000200000000000000004814000000000000000048149900000000000000000000CONSUMIDOR FINAL              000000000036500000000000000000000000000000000000000000000000000000000000000000000000000000000000000000000000000000000000PES00010000001000000000000000000000000
201701110820000200000000000000004815000000000000000048159900000000000000000000CONSUMIDOR FINAL              000000000017500000000000000000000000000000000000000000000000000000000000000000000000000000000000000000000000000000000000PES00010000001000000000000000000000000
201701110820000200000000000000004816000000000000000048169900000000000000000000CONSUMIDOR FINAL              000000000019500000000000000000000000000000000000000000000000000000000000000000000000000000000000000000000000000000000000PES00010000001000000000000000000000000
201701110820000200000000000000004817000000000000000048179900000000000000000000CONSUMIDOR FINAL              000000000019000000000000000000000000000000000000000000000000000000000000000000000000000000000000000000000000000000000000PES00010000001000000000000000000000000
201701110820000200000000000000004818000000000000000048189900000000000000000000CONSUMIDOR FINAL              000000000024500000000000000000000000000000000000000000000000000000000000000000000000000000000000000000000000000000000000PES00010000001000000000000000000000000
201701110820000200000000000000004819000000000000000048199900000000000000000000CONSUMIDOR FINAL              000000000016700000000000000000000000000000000000000000000000000000000000000000000000000000000000000000000000000000000000PES00010000001000000000000000000000000
201701110820000200000000000000004820000000000000000048209900000000000000000000CONSUMIDOR FINAL              000000000015000000000000000000000000000000000000000000000000000000000000000000000000000000000000000000000000000000000000PES00010000001000000000000000000000000
201701110820000200000000000000004821000000000000000048219900000000000000000000CONSUMIDOR FINAL              000000000040000000000000000000000000000000000000000000000000000000000000000000000000000000000000000000000000000000000000PES00010000001000000000000000000000000
201701110820000200000000000000004822000000000000000048229900000000000000000000CONSUMIDOR FINAL              000000000015000000000000000000000000000000000000000000000000000000000000000000000000000000000000000000000000000000000000PES00010000001000000000000000000000000
201701110820000200000000000000004823000000000000000048239900000000000000000000CONSUMIDOR FINAL              000000000026500000000000000000000000000000000000000000000000000000000000000000000000000000000000000000000000000000000000PES00010000001000000000000000000000000
201701110820000200000000000000004824000000000000000048249900000000000000000000CONSUMIDOR FINAL              000000000024500000000000000000000000000000000000000000000000000000000000000000000000000000000000000000000000000000000000PES00010000001000000000000000000000000
201701110820000200000000000000004825000000000000000048259900000000000000000000CONSUMIDOR FINAL              000000000024000000000000000000000000000000000000000000000000000000000000000000000000000000000000000000000000000000000000PES00010000001000000000000000000000000
201701110820000200000000000000004826000000000000000048269900000000000000000000CONSUMIDOR FINAL              000000000024000000000000000000000000000000000000000000000000000000000000000000000000000000000000000000000000000000000000PES00010000001000000000000000000000000
201701110820000200000000000000004827000000000000000048279900000000000000000000CONSUMIDOR FINAL              000000000020500000000000000000000000000000000000000000000000000000000000000000000000000000000000000000000000000000000000PES00010000001000000000000000000000000
201701110820000200000000000000004828000000000000000048289900000000000000000000CONSUMIDOR FINAL              000000000007500000000000000000000000000000000000000000000000000000000000000000000000000000000000000000000000000000000000PES00010000001000000000000000000000000
201701110820000200000000000000004829000000000000000048299900000000000000000000CONSUMIDOR FINAL              000000000005000000000000000000000000000000000000000000000000000000000000000000000000000000000000000000000000000000000000PES00010000001000000000000000000000000
201701110820000200000000000000004830000000000000000048309900000000000000000000CONSUMIDOR FINAL              000000000010000000000000000000000000000000000000000000000000000000000000000000000000000000000000000000000000000000000000PES00010000001000000000000000000000000
201701110820000200000000000000004831000000000000000048319900000000000000000000CONSUMIDOR FINAL              000000000005000000000000000000000000000000000000000000000000000000000000000000000000000000000000000000000000000000000000PES00010000001000000000000000000000000
201701110820000200000000000000004832000000000000000048329900000000000000000000CONSUMIDOR FINAL              000000000017000000000000000000000000000000000000000000000000000000000000000000000000000000000000000000000000000000000000PES00010000001000000000000000000000000
201701110820000200000000000000004833000000000000000048339900000000000000000000CONSUMIDOR FINAL              000000000027500000000000000000000000000000000000000000000000000000000000000000000000000000000000000000000000000000000000PES00010000001000000000000000000000000
201701110820000200000000000000004834000000000000000048349900000000000000000000CONSUMIDOR FINAL              000000000009500000000000000000000000000000000000000000000000000000000000000000000000000000000000000000000000000000000000PES00010000001000000000000000000000000
201701110820000200000000000000004835000000000000000048359900000000000000000000CONSUMIDOR FINAL              000000000007000000000000000000000000000000000000000000000000000000000000000000000000000000000000000000000000000000000000PES00010000001000000000000000000000000
201701110820000200000000000000004836000000000000000048369900000000000000000000CONSUMIDOR FINAL              000000000004500000000000000000000000000000000000000000000000000000000000000000000000000000000000000000000000000000000000PES00010000001000000000000000000000000
201701120820000200000000000000004837000000000000000048379900000000000000000000CONSUMIDOR FINAL              000000000018000000000000000000000000000000000000000000000000000000000000000000000000000000000000000000000000000000000000PES00010000001000000000000000000000000
201701120820000200000000000000004838000000000000000048389900000000000000000000CONSUMIDOR FINAL              000000000027500000000000000000000000000000000000000000000000000000000000000000000000000000000000000000000000000000000000PES00010000001000000000000000000000000
201701120820000200000000000000004839000000000000000048399900000000000000000000CONSUMIDOR FINAL              000000000024500000000000000000000000000000000000000000000000000000000000000000000000000000000000000000000000000000000000PES00010000001000000000000000000000000
201701120820000200000000000000004840000000000000000048409900000000000000000000CONSUMIDOR FINAL              000000000031000000000000000000000000000000000000000000000000000000000000000000000000000000000000000000000000000000000000PES00010000001000000000000000000000000
201701120820000200000000000000004841000000000000000048419900000000000000000000CONSUMIDOR FINAL              000000000011000000000000000000000000000000000000000000000000000000000000000000000000000000000000000000000000000000000000PES00010000001000000000000000000000000
201701120820000200000000000000004842000000000000000048429900000000000000000000CONSUMIDOR FINAL              000000000009500000000000000000000000000000000000000000000000000000000000000000000000000000000000000000000000000000000000PES00010000001000000000000000000000000
201701120820000200000000000000004843000000000000000048439900000000000000000000CONSUMIDOR FINAL              000000000009000000000000000000000000000000000000000000000000000000000000000000000000000000000000000000000000000000000000PES00010000001000000000000000000000000
201701120820000200000000000000004844000000000000000048449900000000000000000000CONSUMIDOR FINAL              000000000002500000000000000000000000000000000000000000000000000000000000000000000000000000000000000000000000000000000000PES00010000001000000000000000000000000
201701120820000200000000000000004845000000000000000048459900000000000000000000CONSUMIDOR FINAL              000000000015000000000000000000000000000000000000000000000000000000000000000000000000000000000000000000000000000000000000PES00010000001000000000000000000000000
201701120820000200000000000000004846000000000000000048469900000000000000000000CONSUMIDOR FINAL              000000000005000000000000000000000000000000000000000000000000000000000000000000000000000000000000000000000000000000000000PES00010000001000000000000000000000000
201701120820000200000000000000004847000000000000000048479900000000000000000000CONSUMIDOR FINAL              000000000004500000000000000000000000000000000000000000000000000000000000000000000000000000000000000000000000000000000000PES00010000001000000000000000000000000
201701120820000200000000000000004848000000000000000048489900000000000000000000CONSUMIDOR FINAL              000000000021500000000000000000000000000000000000000000000000000000000000000000000000000000000000000000000000000000000000PES00010000001000000000000000000000000
201701120820000200000000000000004849000000000000000048499900000000000000000000CONSUMIDOR FINAL              000000000030000000000000000000000000000000000000000000000000000000000000000000000000000000000000000000000000000000000000PES00010000001000000000000000000000000
201701120820000200000000000000004850000000000000000048509900000000000000000000CONSUMIDOR FINAL              000000000024500000000000000000000000000000000000000000000000000000000000000000000000000000000000000000000000000000000000PES00010000001000000000000000000000000
201701120820000200000000000000004851000000000000000048519900000000000000000000CONSUMIDOR FINAL              000000000007000000000000000000000000000000000000000000000000000000000000000000000000000000000000000000000000000000000000PES00010000001000000000000000000000000
201701120820000200000000000000004852000000000000000048529900000000000000000000CONSUMIDOR FINAL              000000000034500000000000000000000000000000000000000000000000000000000000000000000000000000000000000000000000000000000000PES00010000001000000000000000000000000
201701120820000200000000000000004853000000000000000048539900000000000000000000CONSUMIDOR FINAL              000000000023500000000000000000000000000000000000000000000000000000000000000000000000000000000000000000000000000000000000PES00010000001000000000000000000000000
201701120820000200000000000000004854000000000000000048549900000000000000000000CONSUMIDOR FINAL              000000000028000000000000000000000000000000000000000000000000000000000000000000000000000000000000000000000000000000000000PES00010000001000000000000000000000000
201701120820000200000000000000004855000000000000000048559900000000000000000000CONSUMIDOR FINAL              000000000026000000000000000000000000000000000000000000000000000000000000000000000000000000000000000000000000000000000000PES00010000001000000000000000000000000
201701120820000200000000000000004856000000000000000048569900000000000000000000CONSUMIDOR FINAL              000000000012000000000000000000000000000000000000000000000000000000000000000000000000000000000000000000000000000000000000PES00010000001000000000000000000000000
201701120820000200000000000000004857000000000000000048579900000000000000000000CONSUMIDOR FINAL              000000000005000000000000000000000000000000000000000000000000000000000000000000000000000000000000000000000000000000000000PES00010000001000000000000000000000000
201701120820000200000000000000004859000000000000000048599900000000000000000000CONSUMIDOR FINAL              000000000042000000000000000000000000000000000000000000000000000000000000000000000000000000000000000000000000000000000000PES00010000001000000000000000000000000
201701120820000200000000000000004860000000000000000048609900000000000000000000CONSUMIDOR FINAL              000000000021000000000000000000000000000000000000000000000000000000000000000000000000000000000000000000000000000000000000PES00010000001000000000000000000000000
201701120820000200000000000000004861000000000000000048619900000000000000000000CONSUMIDOR FINAL              000000000019000000000000000000000000000000000000000000000000000000000000000000000000000000000000000000000000000000000000PES00010000001000000000000000000000000
201701120820000200000000000000004862000000000000000048629900000000000000000000CONSUMIDOR FINAL              000000000022000000000000000000000000000000000000000000000000000000000000000000000000000000000000000000000000000000000000PES00010000001000000000000000000000000
201701120820000200000000000000004863000000000000000048639900000000000000000000CONSUMIDOR FINAL              000000000014000000000000000000000000000000000000000000000000000000000000000000000000000000000000000000000000000000000000PES00010000001000000000000000000000000
201701120820000200000000000000004864000000000000000048649900000000000000000000CONSUMIDOR FINAL              000000000017000000000000000000000000000000000000000000000000000000000000000000000000000000000000000000000000000000000000PES00010000001000000000000000000000000
201701120820000200000000000000004865000000000000000048659900000000000000000000CONSUMIDOR FINAL              000000000027000000000000000000000000000000000000000000000000000000000000000000000000000000000000000000000000000000000000PES00010000001000000000000000000000000
201701120820000200000000000000004866000000000000000048669900000000000000000000CONSUMIDOR FINAL              000000000033500000000000000000000000000000000000000000000000000000000000000000000000000000000000000000000000000000000000PES00010000001000000000000000000000000
201701120820000200000000000000004867000000000000000048679900000000000000000000CONSUMIDOR FINAL              000000000005000000000000000000000000000000000000000000000000000000000000000000000000000000000000000000000000000000000000PES00010000001000000000000000000000000
201701120820000200000000000000004868000000000000000048689900000000000000000000CONSUMIDOR FINAL              000000000005000000000000000000000000000000000000000000000000000000000000000000000000000000000000000000000000000000000000PES00010000001000000000000000000000000
201701120820000200000000000000004869000000000000000048699900000000000000000000CONSUMIDOR FINAL              000000000019500000000000000000000000000000000000000000000000000000000000000000000000000000000000000000000000000000000000PES00010000001000000000000000000000000
201701120820000200000000000000004870000000000000000048709900000000000000000000CONSUMIDOR FINAL              000000000022500000000000000000000000000000000000000000000000000000000000000000000000000000000000000000000000000000000000PES00010000001000000000000000000000000
201701120820000200000000000000004871000000000000000048719900000000000000000000CONSUMIDOR FINAL              000000000004500000000000000000000000000000000000000000000000000000000000000000000000000000000000000000000000000000000000PES00010000001000000000000000000000000
201701120820000200000000000000004872000000000000000048729900000000000000000000CONSUMIDOR FINAL              000000000050000000000000000000000000000000000000000000000000000000000000000000000000000000000000000000000000000000000000PES00010000001000000000000000000000000
201701120820000200000000000000004873000000000000000048739900000000000000000000CONSUMIDOR FINAL              000000000040500000000000000000000000000000000000000000000000000000000000000000000000000000000000000000000000000000000000PES00010000001000000000000000000000000
201701120820000200000000000000004874000000000000000048749900000000000000000000CONSUMIDOR FINAL              000000000017000000000000000000000000000000000000000000000000000000000000000000000000000000000000000000000000000000000000PES00010000001000000000000000000000000
201701120820000200000000000000004875000000000000000048759900000000000000000000CONSUMIDOR FINAL              000000000023000000000000000000000000000000000000000000000000000000000000000000000000000000000000000000000000000000000000PES00010000001000000000000000000000000
201701120820000200000000000000004876000000000000000048769900000000000000000000CONSUMIDOR FINAL              000000000015000000000000000000000000000000000000000000000000000000000000000000000000000000000000000000000000000000000000PES00010000001000000000000000000000000
201701120820000200000000000000004877000000000000000048779900000000000000000000CONSUMIDOR FINAL              000000000023000000000000000000000000000000000000000000000000000000000000000000000000000000000000000000000000000000000000PES00010000001000000000000000000000000
201701120820000200000000000000004878000000000000000048789900000000000000000000CONSUMIDOR FINAL              000000000017500000000000000000000000000000000000000000000000000000000000000000000000000000000000000000000000000000000000PES00010000001000000000000000000000000
201701120820000200000000000000004879000000000000000048799900000000000000000000CONSUMIDOR FINAL              000000000026500000000000000000000000000000000000000000000000000000000000000000000000000000000000000000000000000000000000PES00010000001000000000000000000000000
201701120820000200000000000000004880000000000000000048809900000000000000000000CONSUMIDOR FINAL              000000000016500000000000000000000000000000000000000000000000000000000000000000000000000000000000000000000000000000000000PES00010000001000000000000000000000000
201701120820000200000000000000004881000000000000000048819900000000000000000000CONSUMIDOR FINAL              000000000019000000000000000000000000000000000000000000000000000000000000000000000000000000000000000000000000000000000000PES00010000001000000000000000000000000
201701120820000200000000000000004882000000000000000048829900000000000000000000CONSUMIDOR FINAL              000000000027500000000000000000000000000000000000000000000000000000000000000000000000000000000000000000000000000000000000PES00010000001000000000000000000000000
201701120820000200000000000000004883000000000000000048839900000000000000000000CONSUMIDOR FINAL              000000000020000000000000000000000000000000000000000000000000000000000000000000000000000000000000000000000000000000000000PES00010000001000000000000000000000000
201701120820000200000000000000004884000000000000000048849900000000000000000000CONSUMIDOR FINAL              000000000022000000000000000000000000000000000000000000000000000000000000000000000000000000000000000000000000000000000000PES00010000001000000000000000000000000
201701120820000200000000000000004885000000000000000048859900000000000000000000CONSUMIDOR FINAL              000000000038500000000000000000000000000000000000000000000000000000000000000000000000000000000000000000000000000000000000PES00010000001000000000000000000000000
201701120820000200000000000000004886000000000000000048869900000000000000000000CONSUMIDOR FINAL              000000000012500000000000000000000000000000000000000000000000000000000000000000000000000000000000000000000000000000000000PES00010000001000000000000000000000000
201701120820000200000000000000004887000000000000000048879900000000000000000000CONSUMIDOR FINAL              000000000017000000000000000000000000000000000000000000000000000000000000000000000000000000000000000000000000000000000000PES00010000001000000000000000000000000
201701120820000200000000000000004888000000000000000048889900000000000000000000CONSUMIDOR FINAL              000000000009000000000000000000000000000000000000000000000000000000000000000000000000000000000000000000000000000000000000PES00010000001000000000000000000000000
201701120820000200000000000000004889000000000000000048899900000000000000000000CONSUMIDOR FINAL              000000000020000000000000000000000000000000000000000000000000000000000000000000000000000000000000000000000000000000000000PES00010000001000000000000000000000000
201701120820000200000000000000004890000000000000000048909900000000000000000000CONSUMIDOR FINAL              000000000027000000000000000000000000000000000000000000000000000000000000000000000000000000000000000000000000000000000000PES00010000001000000000000000000000000
201701120820000200000000000000004891000000000000000048919900000000000000000000CONSUMIDOR FINAL              000000000030000000000000000000000000000000000000000000000000000000000000000000000000000000000000000000000000000000000000PES00010000001000000000000000000000000
201701120820000200000000000000004892000000000000000048929900000000000000000000CONSUMIDOR FINAL              000000000023500000000000000000000000000000000000000000000000000000000000000000000000000000000000000000000000000000000000PES00010000001000000000000000000000000
201701120820000200000000000000004893000000000000000048939900000000000000000000CONSUMIDOR FINAL              000000000019500000000000000000000000000000000000000000000000000000000000000000000000000000000000000000000000000000000000PES00010000001000000000000000000000000
201701120820000200000000000000004894000000000000000048949900000000000000000000CONSUMIDOR FINAL              000000000023500000000000000000000000000000000000000000000000000000000000000000000000000000000000000000000000000000000000PES00010000001000000000000000000000000
201701120820000200000000000000004895000000000000000048959900000000000000000000CONSUMIDOR FINAL              000000000030500000000000000000000000000000000000000000000000000000000000000000000000000000000000000000000000000000000000PES00010000001000000000000000000000000
201701120820000200000000000000004896000000000000000048969900000000000000000000CONSUMIDOR FINAL              000000000023500000000000000000000000000000000000000000000000000000000000000000000000000000000000000000000000000000000000PES00010000001000000000000000000000000
201701120820000200000000000000004897000000000000000048979900000000000000000000CONSUMIDOR FINAL              000000000025500000000000000000000000000000000000000000000000000000000000000000000000000000000000000000000000000000000000PES00010000001000000000000000000000000
201701120820000200000000000000004898000000000000000048989900000000000000000000CONSUMIDOR FINAL              000000000018500000000000000000000000000000000000000000000000000000000000000000000000000000000000000000000000000000000000PES00010000001000000000000000000000000
201701120820000200000000000000004899000000000000000048999900000000000000000000CONSUMIDOR FINAL              000000000026000000000000000000000000000000000000000000000000000000000000000000000000000000000000000000000000000000000000PES00010000001000000000000000000000000
201701120820000200000000000000004900000000000000000049009900000000000000000000CONSUMIDOR FINAL              000000000015000000000000000000000000000000000000000000000000000000000000000000000000000000000000000000000000000000000000PES00010000001000000000000000000000000
201701120820000200000000000000004901000000000000000049019900000000000000000000CONSUMIDOR FINAL              000000000023000000000000000000000000000000000000000000000000000000000000000000000000000000000000000000000000000000000000PES00010000001000000000000000000000000
201701120820000200000000000000004902000000000000000049029900000000000000000000CONSUMIDOR FINAL              000000000019000000000000000000000000000000000000000000000000000000000000000000000000000000000000000000000000000000000000PES00010000001000000000000000000000000
201701130820000200000000000000004903000000000000000049039900000000000000000000CONSUMIDOR FINAL              000000000035000000000000000000000000000000000000000000000000000000000000000000000000000000000000000000000000000000000000PES00010000001000000000000000000000000
201701130820000200000000000000004904000000000000000049049900000000000000000000CONSUMIDOR FINAL              000000000034500000000000000000000000000000000000000000000000000000000000000000000000000000000000000000000000000000000000PES00010000001000000000000000000000000
201701130820000200000000000000004905000000000000000049059900000000000000000000CONSUMIDOR FINAL              000000000032000000000000000000000000000000000000000000000000000000000000000000000000000000000000000000000000000000000000PES00010000001000000000000000000000000
201701130820000200000000000000004906000000000000000049069900000000000000000000CONSUMIDOR FINAL              000000000010500000000000000000000000000000000000000000000000000000000000000000000000000000000000000000000000000000000000PES00010000001000000000000000000000000
201701130820000200000000000000004907000000000000000049079900000000000000000000CONSUMIDOR FINAL              000000000018500000000000000000000000000000000000000000000000000000000000000000000000000000000000000000000000000000000000PES00010000001000000000000000000000000
201701130820000200000000000000004908000000000000000049089900000000000000000000CONSUMIDOR FINAL              000000000026500000000000000000000000000000000000000000000000000000000000000000000000000000000000000000000000000000000000PES00010000001000000000000000000000000
201701130820000200000000000000004909000000000000000049099900000000000000000000CONSUMIDOR FINAL              000000000021500000000000000000000000000000000000000000000000000000000000000000000000000000000000000000000000000000000000PES00010000001000000000000000000000000
201701130820000200000000000000004910000000000000000049109900000000000000000000CONSUMIDOR FINAL              000000000032000000000000000000000000000000000000000000000000000000000000000000000000000000000000000000000000000000000000PES00010000001000000000000000000000000
201701130820000200000000000000004911000000000000000049119900000000000000000000CONSUMIDOR FINAL              000000000013000000000000000000000000000000000000000000000000000000000000000000000000000000000000000000000000000000000000PES00010000001000000000000000000000000
201701130820000200000000000000004912000000000000000049129900000000000000000000CONSUMIDOR FINAL              000000000012000000000000000000000000000000000000000000000000000000000000000000000000000000000000000000000000000000000000PES00010000001000000000000000000000000
201701130820000200000000000000004913000000000000000049139900000000000000000000CONSUMIDOR FINAL              000000000028500000000000000000000000000000000000000000000000000000000000000000000000000000000000000000000000000000000000PES00010000001000000000000000000000000
201701130820000200000000000000004914000000000000000049149900000000000000000000CONSUMIDOR FINAL              000000000012500000000000000000000000000000000000000000000000000000000000000000000000000000000000000000000000000000000000PES00010000001000000000000000000000000
201701130820000200000000000000004915000000000000000049159900000000000000000000CONSUMIDOR FINAL              000000000003000000000000000000000000000000000000000000000000000000000000000000000000000000000000000000000000000000000000PES00010000001000000000000000000000000
201701130820000200000000000000004916000000000000000049169900000000000000000000CONSUMIDOR FINAL              000000000003000000000000000000000000000000000000000000000000000000000000000000000000000000000000000000000000000000000000PES00010000001000000000000000000000000
201701130820000200000000000000004917000000000000000049179900000000000000000000CONSUMIDOR FINAL              000000000005000000000000000000000000000000000000000000000000000000000000000000000000000000000000000000000000000000000000PES00010000001000000000000000000000000
201701130820000200000000000000004918000000000000000049189900000000000000000000CONSUMIDOR FINAL              000000000005000000000000000000000000000000000000000000000000000000000000000000000000000000000000000000000000000000000000PES00010000001000000000000000000000000
201701130820000200000000000000004919000000000000000049199900000000000000000000CONSUMIDOR FINAL              000000000012000000000000000000000000000000000000000000000000000000000000000000000000000000000000000000000000000000000000PES00010000001000000000000000000000000
201701130820000200000000000000004920000000000000000049209900000000000000000000CONSUMIDOR FINAL              000000000015500000000000000000000000000000000000000000000000000000000000000000000000000000000000000000000000000000000000PES00010000001000000000000000000000000
201701130820000200000000000000004921000000000000000049219900000000000000000000CONSUMIDOR FINAL              000000000015500000000000000000000000000000000000000000000000000000000000000000000000000000000000000000000000000000000000PES00010000001000000000000000000000000
201701130820000200000000000000004922000000000000000049229900000000000000000000CONSUMIDOR FINAL              000000000006000000000000000000000000000000000000000000000000000000000000000000000000000000000000000000000000000000000000PES00010000001000000000000000000000000
201701130820000200000000000000004923000000000000000049239900000000000000000000CONSUMIDOR FINAL              000000000018000000000000000000000000000000000000000000000000000000000000000000000000000000000000000000000000000000000000PES00010000001000000000000000000000000
201701130820000200000000000000004924000000000000000049249900000000000000000000CONSUMIDOR FINAL              000000000009000000000000000000000000000000000000000000000000000000000000000000000000000000000000000000000000000000000000PES00010000001000000000000000000000000
201701130820000200000000000000004925000000000000000049259900000000000000000000CONSUMIDOR FINAL              000000000004500000000000000000000000000000000000000000000000000000000000000000000000000000000000000000000000000000000000PES00010000001000000000000000000000000
201701130820000200000000000000004926000000000000000049269900000000000000000000CONSUMIDOR FINAL              000000000014000000000000000000000000000000000000000000000000000000000000000000000000000000000000000000000000000000000000PES00010000001000000000000000000000000
201701130820000200000000000000004927000000000000000049279900000000000000000000CONSUMIDOR FINAL              000000000005000000000000000000000000000000000000000000000000000000000000000000000000000000000000000000000000000000000000PES00010000001000000000000000000000000
201701130820000200000000000000004928000000000000000049289900000000000000000000CONSUMIDOR FINAL              000000000017000000000000000000000000000000000000000000000000000000000000000000000000000000000000000000000000000000000000PES00010000001000000000000000000000000
201701130820000200000000000000004929000000000000000049299900000000000000000000CONSUMIDOR FINAL              000000000005000000000000000000000000000000000000000000000000000000000000000000000000000000000000000000000000000000000000PES00010000001000000000000000000000000
201701130820000200000000000000004930000000000000000049309900000000000000000000CONSUMIDOR FINAL              000000000012000000000000000000000000000000000000000000000000000000000000000000000000000000000000000000000000000000000000PES00010000001000000000000000000000000
201701130820000200000000000000004931000000000000000049319900000000000000000000CONSUMIDOR FINAL              000000000008500000000000000000000000000000000000000000000000000000000000000000000000000000000000000000000000000000000000PES00010000001000000000000000000000000
201701130820000200000000000000004932000000000000000049329900000000000000000000CONSUMIDOR FINAL              000000000005000000000000000000000000000000000000000000000000000000000000000000000000000000000000000000000000000000000000PES00010000001000000000000000000000000
201701130820000200000000000000004933000000000000000049339900000000000000000000CONSUMIDOR FINAL              000000000002500000000000000000000000000000000000000000000000000000000000000000000000000000000000000000000000000000000000PES00010000001000000000000000000000000
201701130820000200000000000000004934000000000000000049349900000000000000000000CONSUMIDOR FINAL              000000000010000000000000000000000000000000000000000000000000000000000000000000000000000000000000000000000000000000000000PES00010000001000000000000000000000000
201701130820000200000000000000004935000000000000000049359900000000000000000000CONSUMIDOR FINAL              000000000004000000000000000000000000000000000000000000000000000000000000000000000000000000000000000000000000000000000000PES00010000001000000000000000000000000
201701130820000200000000000000004936000000000000000049369900000000000000000000CONSUMIDOR FINAL              000000000005000000000000000000000000000000000000000000000000000000000000000000000000000000000000000000000000000000000000PES00010000001000000000000000000000000
201701130820000200000000000000004937000000000000000049379900000000000000000000CONSUMIDOR FINAL              000000000009000000000000000000000000000000000000000000000000000000000000000000000000000000000000000000000000000000000000PES00010000001000000000000000000000000
201701130820000200000000000000004938000000000000000049389900000000000000000000CONSUMIDOR FINAL              000000000017000000000000000000000000000000000000000000000000000000000000000000000000000000000000000000000000000000000000PES00010000001000000000000000000000000
201701130820000200000000000000004939000000000000000049399900000000000000000000CONSUMIDOR FINAL              000000000013500000000000000000000000000000000000000000000000000000000000000000000000000000000000000000000000000000000000PES00010000001000000000000000000000000
201701130820000200000000000000004940000000000000000049409900000000000000000000CONSUMIDOR FINAL              000000000005000000000000000000000000000000000000000000000000000000000000000000000000000000000000000000000000000000000000PES00010000001000000000000000000000000
201701130820000200000000000000004941000000000000000049419900000000000000000000CONSUMIDOR FINAL              000000000018500000000000000000000000000000000000000000000000000000000000000000000000000000000000000000000000000000000000PES00010000001000000000000000000000000
201701130820000200000000000000004942000000000000000049429900000000000000000000CONSUMIDOR FINAL              000000000004000000000000000000000000000000000000000000000000000000000000000000000000000000000000000000000000000000000000PES00010000001000000000000000000000000
201701130820000200000000000000004943000000000000000049439900000000000000000000CONSUMIDOR FINAL              000000000001500000000000000000000000000000000000000000000000000000000000000000000000000000000000000000000000000000000000PES00010000001000000000000000000000000
201701130820000200000000000000004944000000000000000049449900000000000000000000CONSUMIDOR FINAL              000000000009000000000000000000000000000000000000000000000000000000000000000000000000000000000000000000000000000000000000PES00010000001000000000000000000000000
201701130820000200000000000000004945000000000000000049459900000000000000000000CONSUMIDOR FINAL              000000000010000000000000000000000000000000000000000000000000000000000000000000000000000000000000000000000000000000000000PES00010000001000000000000000000000000
201701130820000200000000000000004946000000000000000049469900000000000000000000CONSUMIDOR FINAL              000000000004500000000000000000000000000000000000000000000000000000000000000000000000000000000000000000000000000000000000PES00010000001000000000000000000000000
201701130820000200000000000000004947000000000000000049479900000000000000000000CONSUMIDOR FINAL              000000000004000000000000000000000000000000000000000000000000000000000000000000000000000000000000000000000000000000000000PES00010000001000000000000000000000000
201701130820000200000000000000004948000000000000000049489900000000000000000000CONSUMIDOR FINAL              000000000004500000000000000000000000000000000000000000000000000000000000000000000000000000000000000000000000000000000000PES00010000001000000000000000000000000
201701130820000200000000000000004949000000000000000049499900000000000000000000CONSUMIDOR FINAL              000000000001500000000000000000000000000000000000000000000000000000000000000000000000000000000000000000000000000000000000PES00010000001000000000000000000000000
201701130820000200000000000000004950000000000000000049509900000000000000000000CONSUMIDOR FINAL              000000000006500000000000000000000000000000000000000000000000000000000000000000000000000000000000000000000000000000000000PES00010000001000000000000000000000000
201701130820000200000000000000004951000000000000000049519900000000000000000000CONSUMIDOR FINAL              000000000008000000000000000000000000000000000000000000000000000000000000000000000000000000000000000000000000000000000000PES00010000001000000000000000000000000
201701130820000200000000000000004952000000000000000049529900000000000000000000CONSUMIDOR FINAL              000000000005000000000000000000000000000000000000000000000000000000000000000000000000000000000000000000000000000000000000PES00010000001000000000000000000000000
201701130820000200000000000000004953000000000000000049539900000000000000000000CONSUMIDOR FINAL              000000000005000000000000000000000000000000000000000000000000000000000000000000000000000000000000000000000000000000000000PES00010000001000000000000000000000000
201701130820000200000000000000004954000000000000000049549900000000000000000000CONSUMIDOR FINAL              000000000014500000000000000000000000000000000000000000000000000000000000000000000000000000000000000000000000000000000000PES00010000001000000000000000000000000
201701130820000200000000000000004955000000000000000049559900000000000000000000CONSUMIDOR FINAL              000000000005000000000000000000000000000000000000000000000000000000000000000000000000000000000000000000000000000000000000PES00010000001000000000000000000000000
201701130820000200000000000000004956000000000000000049569900000000000000000000CONSUMIDOR FINAL              000000000007000000000000000000000000000000000000000000000000000000000000000000000000000000000000000000000000000000000000PES00010000001000000000000000000000000
201701130820000200000000000000004957000000000000000049579900000000000000000000CONSUMIDOR FINAL              000000000005000000000000000000000000000000000000000000000000000000000000000000000000000000000000000000000000000000000000PES00010000001000000000000000000000000
201701130820000200000000000000004958000000000000000049589900000000000000000000CONSUMIDOR FINAL              000000000004500000000000000000000000000000000000000000000000000000000000000000000000000000000000000000000000000000000000PES00010000001000000000000000000000000
