201610240010000100000000000000000013000000000000000000138000000000030653431755EMPRESA DE SERVICIOS Y OBRAS S000000006767651000000000000000000000000000000000000000000000000000000000000000000000000000000000000000000000000000000000PES00010000001000000000000000000000000
201610240010000100000000000000000014000000000000000000148000000000020216338821GARKUS CRISTIAN FEDERICO      000000003699633000000000000000000000000000000000000000000000000000000000000000000000000000000000000000000000000000000000PES00010000001000000000000000000000000
201610280010000100000000000000000015000000000000000000158000000000030653431755EMPRESA DE SERVICIOS Y OBRAS S000000008089055000000000000000000000000000000000000000000000000000000000000000000000000000000000000000000000000000000000PES00010000001000000000000000000000000
201610210010000200000000000000000001000000000000000000018000000000030653431755EMPRESA DE SERVICIOS Y OBRAS S000000023228769000000000000000000000000000000000000000000000000000000000000000000000000000000000000000000000000000000000PES00010000001000000000000000000000000
201610290010000200000000000000000002000000000000000000028000000000030710954875DEL ZAPLA SRL                 000000004050112000000000000000000000000000000000000000000000000000000000000000000000000000000000000000000000000000000000PES00010000001000000000000000000000000
