201608150060000200000000000000000155000000000000000001558000000000030715126628MINISTERIO DE ASUNTOS INDIGENA000000001670000000000000000000000000000000000000000000000000000000000000000000000000000000000000000000000000000000000000PES00010000001000000000000000020160831
201608170060000200000000000000000156000000000000000001568000000000030715126628MINISTERIO DE ASUNTOS INDIGENA000000000530000000000000000000000000000000000000000000000000000000000000000000000000000000000000000000000000000000000000PES00010000001000000000000000020160831
201608170010000200000000000000000015000000000000000000158000000000020104513825MAESTRO HECTOR HORACIO        000000000641300000000000000000000000000000000000000000000000000000000000000000000000000000000000000000000000000000000000PES00010000001000000000000000020160831
201608180010000200000000000000000016000000000000000000168000000000020104513825MAESTRO HECTOR HORACIO        000000016419700000000000000000000000000000000000000000000000000000000000000000000000000000000000000000000000000000000000PES00010000001000000000000000020160831
201608190060000200000000000000000157000000000000000001578000000000030715126628MINISTERIO DE ASUNTOS INDIGENA000000000705700000000000000000000000000000000000000000000000000000000000000000000000000000000000000000000000000000000000PES00010000001000000000000000020160831
201608230030000200000000000000000002000000000000000000028000000000020104513825MAESTRO HECTOR HORACIO        000000000641300000000000000000000000000000000000000000000000000000000000000000000000000000000000000000000000000000000000PES00010000001000000000000000020160831
201608230030000200000000000000000003000000000000000000038000000000020104513825MAESTRO HECTOR HORACIO        000000016419700000000000000000000000000000000000000000000000000000000000000000000000000000000000000000000000000000000000PES00010000001000000000000000020160831
201608230030000200000000000000000004000000000000000000048000000000020104513825MAESTRO HECTOR HORACIO        000000016419700000000000000000000000000000000000000000000000000000000000000000000000000000000000000000000000000000000000PES00010000001000000000000000020160831
201608180010000200000000000000000017000000000000000000178000000000020104513825MAESTRO HECTOR HORACIO        000000000530000000000000000000000000000000000000000000000000000000000000000000000000000000000000000000000000000000000000PES00010000001000000000000000020160831
201608180010000200000000000000000018000000000000000000188000000000020104513825MAESTRO HECTOR HORACIO        000000016419700000000000000000000000000000000000000000000000000000000000000000000000000000000000000000000000000000000000PES00010000001000000000000000020160831
201608190010000200000000000000000019000000000000000000198000000000020104513825MAESTRO HECTOR HORACIO        000000013570000000000000000000000000000000000000000000000000000000000000000000000000000000000000000000000000000000000000PES00010000001000000000000000020160831
201608220060000200000000000000000158000000000000000001588000000000030715126628MINISTERIO DE ASUNTOS INDIGENA000000000853100000000000000000000000000000000000000000000000000000000000000000000000000000000000000000000000000000000000PES00010000001000000000000000020160831
