201607310010000100000000000020160701                8000000000030500008454Banco Santander Río           000000000030008000000000000000000000000000000000000000000000000000000000000000000000000000000000000000000000000000000000PES00010000001000000000000000000000000000000000000000000                              000000000000000
201607310010000100000000000020160704                8000000000030500008454Banco Santander Río           000000000053240000000000000000000000000000000000000000000000000000000000000000000000000000000000000000000000000000000000PES00010000001000000000000000000000000000000000000000000                              000000000000000
201608310010000400000000000000007043                8000000000030709093580WORLD TRADING GROUP SRL       000000005416799000000000000000000000000000000000000000000000000000000000000000000000000000000000000000000000000000000000PES00010000001000000000000000000000000000000000000000000                              000000000000000
201608300010000400000000000000007034                8000000000030709093580WORLD TRADING GROUP SRL       000000001299299000000000000000000000000000000000000000000000000000000000000000000000000000000000000000000000000000000000PES00010000001000000000000000000000000000000000000000000                              000000000000000
201608230010000400000000000000007012                8000000000030709093580WORLD TRADING GROUP SRL       000000016519992000000000000000000000000000000000000000000000000000000000000000000000000000000000000000000000000000000000PES00010000001000000000000000000000000000000000000000000                              000000000000000
201608300010000300000000000000003332                8000000000030710630360TRUST DISTRIBUTIONS SA        000000013175993000000000000000000000000000000000000000000000000000000000000000000000000000000000000000000000000000000000PES00010000001000000000000000000000000000000000000000000                              000000000000000
201608180010000300000000000000001324                8000000000033708334109MERVICK LAB SA                000000004102499000000000000000000000000000000000000000000000000000000000000000000000000000000000000000000000000000000000PES00010000001000000000000000000000000000000000000000000                              000000000000000
201608310010000300000000000000000583                8000000000030710537484IMPRENTA MAESTRO SH           000000000027804000000000000000000000000000000000000000000000000000000000000000000000000000000000000000000000000000000000PES00010000001000000000000000000000000000000000000000000                              000000000000000
201608190010000200000000000000000038                8000000000027204546628MAZZUCO MARINA                000000005539864000000000000000000000000000000000000000000000000000000000000000000000000000000000000000000000000000000000PES00010000001000000000000000000000000000000000000000000                              000000000000000
201608120010000300000000000000000779                8000000000030714412732SYNERTECH SRL                 000000001254646000000000000000000000000000000000000000000000000000000000000000000000000000000000000000000000000000000000PES00010000001000000000000000000000000000000000000000000                              000000000000000
