201705010820000200000000000000014692000000000000000146929900000000000000000000CONSUMIDOR FINAL              000000000020400000000000000000000000000000000000000000000000000000000000000000000000000000000000000000000000000000000000PES00010000001000000000000000000000000
201705010820000200000000000000014693000000000000000146939900000000000000000000CONSUMIDOR FINAL              000000000010000000000000000000000000000000000000000000000000000000000000000000000000000000000000000000000000000000000000PES00010000001000000000000000000000000
201705010820000200000000000000014694000000000000000146949900000000000000000000CONSUMIDOR FINAL              000000000010000000000000000000000000000000000000000000000000000000000000000000000000000000000000000000000000000000000000PES00010000001000000000000000000000000
201705010820000200000000000000014695000000000000000146959900000000000000000000CONSUMIDOR FINAL              000000000004500000000000000000000000000000000000000000000000000000000000000000000000000000000000000000000000000000000000PES00010000001000000000000000000000000
201705010820000200000000000000014696000000000000000146969900000000000000000000CONSUMIDOR FINAL              000000000011000000000000000000000000000000000000000000000000000000000000000000000000000000000000000000000000000000000000PES00010000001000000000000000000000000
201705010820000200000000000000014697000000000000000146979900000000000000000000CONSUMIDOR FINAL              000000000005500000000000000000000000000000000000000000000000000000000000000000000000000000000000000000000000000000000000PES00010000001000000000000000000000000
201705010820000200000000000000014698000000000000000146989900000000000000000000CONSUMIDOR FINAL              000000000008500000000000000000000000000000000000000000000000000000000000000000000000000000000000000000000000000000000000PES00010000001000000000000000000000000
201705010820000200000000000000014699000000000000000146999900000000000000000000CONSUMIDOR FINAL              000000000004500000000000000000000000000000000000000000000000000000000000000000000000000000000000000000000000000000000000PES00010000001000000000000000000000000
201705010820000200000000000000014700000000000000000147009900000000000000000000CONSUMIDOR FINAL              000000000002000000000000000000000000000000000000000000000000000000000000000000000000000000000000000000000000000000000000PES00010000001000000000000000000000000
201705010820000200000000000000014701000000000000000147019900000000000000000000CONSUMIDOR FINAL              000000000005500000000000000000000000000000000000000000000000000000000000000000000000000000000000000000000000000000000000PES00010000001000000000000000000000000
201705010820000200000000000000014702000000000000000147029900000000000000000000CONSUMIDOR FINAL              000000000007000000000000000000000000000000000000000000000000000000000000000000000000000000000000000000000000000000000000PES00010000001000000000000000000000000
201705010820000200000000000000014703000000000000000147039900000000000000000000CONSUMIDOR FINAL              000000000004000000000000000000000000000000000000000000000000000000000000000000000000000000000000000000000000000000000000PES00010000001000000000000000000000000
201705010820000200000000000000014704000000000000000147049900000000000000000000CONSUMIDOR FINAL              000000000008000000000000000000000000000000000000000000000000000000000000000000000000000000000000000000000000000000000000PES00010000001000000000000000000000000
201705010820000200000000000000014705000000000000000147059900000000000000000000CONSUMIDOR FINAL              000000000007000000000000000000000000000000000000000000000000000000000000000000000000000000000000000000000000000000000000PES00010000001000000000000000000000000
201705010820000200000000000000014706000000000000000147069900000000000000000000CONSUMIDOR FINAL              000000000002000000000000000000000000000000000000000000000000000000000000000000000000000000000000000000000000000000000000PES00010000001000000000000000000000000
201705010820000200000000000000014707000000000000000147079900000000000000000000CONSUMIDOR FINAL              000000000015500000000000000000000000000000000000000000000000000000000000000000000000000000000000000000000000000000000000PES00010000001000000000000000000000000
201705010820000200000000000000014708000000000000000147089900000000000000000000CONSUMIDOR FINAL              000000000010000000000000000000000000000000000000000000000000000000000000000000000000000000000000000000000000000000000000PES00010000001000000000000000000000000
201705010820000200000000000000014709000000000000000147099900000000000000000000CONSUMIDOR FINAL              000000000015000000000000000000000000000000000000000000000000000000000000000000000000000000000000000000000000000000000000PES00010000001000000000000000000000000
201705010820000200000000000000014710000000000000000147109900000000000000000000CONSUMIDOR FINAL              000000000009000000000000000000000000000000000000000000000000000000000000000000000000000000000000000000000000000000000000PES00010000001000000000000000000000000
201705010820000200000000000000014711000000000000000147119900000000000000000000CONSUMIDOR FINAL              000000000010000000000000000000000000000000000000000000000000000000000000000000000000000000000000000000000000000000000000PES00010000001000000000000000000000000
201705010820000200000000000000014712000000000000000147129900000000000000000000CONSUMIDOR FINAL              000000000004000000000000000000000000000000000000000000000000000000000000000000000000000000000000000000000000000000000000PES00010000001000000000000000000000000
201705010820000200000000000000014713000000000000000147139900000000000000000000CONSUMIDOR FINAL              000000000005500000000000000000000000000000000000000000000000000000000000000000000000000000000000000000000000000000000000PES00010000001000000000000000000000000
201705010820000200000000000000014714000000000000000147149900000000000000000000CONSUMIDOR FINAL              000000000003600000000000000000000000000000000000000000000000000000000000000000000000000000000000000000000000000000000000PES00010000001000000000000000000000000
201705010820000200000000000000014715000000000000000147159900000000000000000000CONSUMIDOR FINAL              000000000009500000000000000000000000000000000000000000000000000000000000000000000000000000000000000000000000000000000000PES00010000001000000000000000000000000
201705010820000200000000000000014716000000000000000147169900000000000000000000CONSUMIDOR FINAL              000000000004000000000000000000000000000000000000000000000000000000000000000000000000000000000000000000000000000000000000PES00010000001000000000000000000000000
201705010820000200000000000000014717000000000000000147179900000000000000000000CONSUMIDOR FINAL              000000000012500000000000000000000000000000000000000000000000000000000000000000000000000000000000000000000000000000000000PES00010000001000000000000000000000000
201705010820000200000000000000014718000000000000000147189900000000000000000000CONSUMIDOR FINAL              000000000006000000000000000000000000000000000000000000000000000000000000000000000000000000000000000000000000000000000000PES00010000001000000000000000000000000
201705010820000200000000000000014719000000000000000147199900000000000000000000CONSUMIDOR FINAL              000000000004000000000000000000000000000000000000000000000000000000000000000000000000000000000000000000000000000000000000PES00010000001000000000000000000000000
201705010820000200000000000000014720000000000000000147209900000000000000000000CONSUMIDOR FINAL              000000000004500000000000000000000000000000000000000000000000000000000000000000000000000000000000000000000000000000000000PES00010000001000000000000000000000000
201705010820000200000000000000014721000000000000000147219900000000000000000000CONSUMIDOR FINAL              000000000009000000000000000000000000000000000000000000000000000000000000000000000000000000000000000000000000000000000000PES00010000001000000000000000000000000
201705010820000200000000000000014722000000000000000147229900000000000000000000CONSUMIDOR FINAL              000000000005400000000000000000000000000000000000000000000000000000000000000000000000000000000000000000000000000000000000PES00010000001000000000000000000000000
201705010820000200000000000000014723000000000000000147239900000000000000000000CONSUMIDOR FINAL              000000000023000000000000000000000000000000000000000000000000000000000000000000000000000000000000000000000000000000000000PES00010000001000000000000000000000000
201705010820000200000000000000014724000000000000000147249900000000000000000000CONSUMIDOR FINAL              000000000012500000000000000000000000000000000000000000000000000000000000000000000000000000000000000000000000000000000000PES00010000001000000000000000000000000
201705010820000200000000000000014725000000000000000147259900000000000000000000CONSUMIDOR FINAL              000000000005500000000000000000000000000000000000000000000000000000000000000000000000000000000000000000000000000000000000PES00010000001000000000000000000000000
201705010820000200000000000000014726000000000000000147269900000000000000000000CONSUMIDOR FINAL              000000000003500000000000000000000000000000000000000000000000000000000000000000000000000000000000000000000000000000000000PES00010000001000000000000000000000000
201705010820000200000000000000014727000000000000000147279900000000000000000000CONSUMIDOR FINAL              000000000009000000000000000000000000000000000000000000000000000000000000000000000000000000000000000000000000000000000000PES00010000001000000000000000000000000
201705010820000200000000000000014728000000000000000147289900000000000000000000CONSUMIDOR FINAL              000000000006500000000000000000000000000000000000000000000000000000000000000000000000000000000000000000000000000000000000PES00010000001000000000000000000000000
201705010820000200000000000000014729000000000000000147299900000000000000000000CONSUMIDOR FINAL              000000000005500000000000000000000000000000000000000000000000000000000000000000000000000000000000000000000000000000000000PES00010000001000000000000000000000000
201705010820000200000000000000014730000000000000000147309900000000000000000000CONSUMIDOR FINAL              000000000004500000000000000000000000000000000000000000000000000000000000000000000000000000000000000000000000000000000000PES00010000001000000000000000000000000
201705010820000200000000000000014731000000000000000147319900000000000000000000CONSUMIDOR FINAL              000000000007000000000000000000000000000000000000000000000000000000000000000000000000000000000000000000000000000000000000PES00010000001000000000000000000000000
201705010820000200000000000000014732000000000000000147329900000000000000000000CONSUMIDOR FINAL              000000000011500000000000000000000000000000000000000000000000000000000000000000000000000000000000000000000000000000000000PES00010000001000000000000000000000000
201705010820000200000000000000014733000000000000000147339900000000000000000000CONSUMIDOR FINAL              000000000009000000000000000000000000000000000000000000000000000000000000000000000000000000000000000000000000000000000000PES00010000001000000000000000000000000
201705010820000200000000000000014734000000000000000147349900000000000000000000CONSUMIDOR FINAL              000000000007200000000000000000000000000000000000000000000000000000000000000000000000000000000000000000000000000000000000PES00010000001000000000000000000000000
201705020820000200000000000000014735000000000000000147359900000000000000000000CONSUMIDOR FINAL              000000000003500000000000000000000000000000000000000000000000000000000000000000000000000000000000000000000000000000000000PES00010000001000000000000000000000000
201705020820000200000000000000014736000000000000000147369900000000000000000000CONSUMIDOR FINAL              000000000009000000000000000000000000000000000000000000000000000000000000000000000000000000000000000000000000000000000000PES00010000001000000000000000000000000
201705020820000200000000000000014737000000000000000147379900000000000000000000CONSUMIDOR FINAL              000000000009500000000000000000000000000000000000000000000000000000000000000000000000000000000000000000000000000000000000PES00010000001000000000000000000000000
201705020820000200000000000000014738000000000000000147389900000000000000000000CONSUMIDOR FINAL              000000000007500000000000000000000000000000000000000000000000000000000000000000000000000000000000000000000000000000000000PES00010000001000000000000000000000000
201705020820000200000000000000014739000000000000000147399900000000000000000000CONSUMIDOR FINAL              000000000006000000000000000000000000000000000000000000000000000000000000000000000000000000000000000000000000000000000000PES00010000001000000000000000000000000
201705020820000200000000000000014740000000000000000147409900000000000000000000CONSUMIDOR FINAL              000000000008000000000000000000000000000000000000000000000000000000000000000000000000000000000000000000000000000000000000PES00010000001000000000000000000000000
201705020820000200000000000000014741000000000000000147419900000000000000000000CONSUMIDOR FINAL              000000000006000000000000000000000000000000000000000000000000000000000000000000000000000000000000000000000000000000000000PES00010000001000000000000000000000000
201705020820000200000000000000014742000000000000000147429900000000000000000000CONSUMIDOR FINAL              000000000007200000000000000000000000000000000000000000000000000000000000000000000000000000000000000000000000000000000000PES00010000001000000000000000000000000
201705020820000200000000000000014743000000000000000147439900000000000000000000CONSUMIDOR FINAL              000000000011500000000000000000000000000000000000000000000000000000000000000000000000000000000000000000000000000000000000PES00010000001000000000000000000000000
201705020820000200000000000000014744000000000000000147449900000000000000000000CONSUMIDOR FINAL              000000000008500000000000000000000000000000000000000000000000000000000000000000000000000000000000000000000000000000000000PES00010000001000000000000000000000000
201705020820000200000000000000014745000000000000000147459900000000000000000000CONSUMIDOR FINAL              000000000009500000000000000000000000000000000000000000000000000000000000000000000000000000000000000000000000000000000000PES00010000001000000000000000000000000
201705020820000200000000000000014746000000000000000147469900000000000000000000CONSUMIDOR FINAL              000000000008000000000000000000000000000000000000000000000000000000000000000000000000000000000000000000000000000000000000PES00010000001000000000000000000000000
201705020820000200000000000000014747000000000000000147479900000000000000000000CONSUMIDOR FINAL              000000000010000000000000000000000000000000000000000000000000000000000000000000000000000000000000000000000000000000000000PES00010000001000000000000000000000000
201705020820000200000000000000014748000000000000000147489900000000000000000000CONSUMIDOR FINAL              000000000012000000000000000000000000000000000000000000000000000000000000000000000000000000000000000000000000000000000000PES00010000001000000000000000000000000
201705020820000200000000000000014749000000000000000147499900000000000000000000CONSUMIDOR FINAL              000000000006500000000000000000000000000000000000000000000000000000000000000000000000000000000000000000000000000000000000PES00010000001000000000000000000000000
201705020820000200000000000000014750000000000000000147509900000000000000000000CONSUMIDOR FINAL              000000000009500000000000000000000000000000000000000000000000000000000000000000000000000000000000000000000000000000000000PES00010000001000000000000000000000000
201705020820000200000000000000014751000000000000000147519900000000000000000000CONSUMIDOR FINAL              000000000005000000000000000000000000000000000000000000000000000000000000000000000000000000000000000000000000000000000000PES00010000001000000000000000000000000
201705020820000200000000000000014752000000000000000147529900000000000000000000CONSUMIDOR FINAL              000000000009000000000000000000000000000000000000000000000000000000000000000000000000000000000000000000000000000000000000PES00010000001000000000000000000000000
201705020820000200000000000000014753000000000000000147539900000000000000000000CONSUMIDOR FINAL              000000000004000000000000000000000000000000000000000000000000000000000000000000000000000000000000000000000000000000000000PES00010000001000000000000000000000000
201705020820000200000000000000014754000000000000000147549900000000000000000000CONSUMIDOR FINAL              000000000012000000000000000000000000000000000000000000000000000000000000000000000000000000000000000000000000000000000000PES00010000001000000000000000000000000
201705020820000200000000000000014755000000000000000147559900000000000000000000CONSUMIDOR FINAL              000000000006000000000000000000000000000000000000000000000000000000000000000000000000000000000000000000000000000000000000PES00010000001000000000000000000000000
201705020820000200000000000000014756000000000000000147569900000000000000000000CONSUMIDOR FINAL              000000000007500000000000000000000000000000000000000000000000000000000000000000000000000000000000000000000000000000000000PES00010000001000000000000000000000000
201705020820000200000000000000014757000000000000000147579900000000000000000000CONSUMIDOR FINAL              000000000013500000000000000000000000000000000000000000000000000000000000000000000000000000000000000000000000000000000000PES00010000001000000000000000000000000
201705020820000200000000000000014758000000000000000147589900000000000000000000CONSUMIDOR FINAL              000000000014500000000000000000000000000000000000000000000000000000000000000000000000000000000000000000000000000000000000PES00010000001000000000000000000000000
201705020820000200000000000000014759000000000000000147599900000000000000000000CONSUMIDOR FINAL              000000000004500000000000000000000000000000000000000000000000000000000000000000000000000000000000000000000000000000000000PES00010000001000000000000000000000000
201705020820000200000000000000014760000000000000000147609900000000000000000000CONSUMIDOR FINAL              000000000003000000000000000000000000000000000000000000000000000000000000000000000000000000000000000000000000000000000000PES00010000001000000000000000000000000
201705020820000200000000000000014761000000000000000147619900000000000000000000CONSUMIDOR FINAL              000000000005500000000000000000000000000000000000000000000000000000000000000000000000000000000000000000000000000000000000PES00010000001000000000000000000000000
201705030820000200000000000000014762000000000000000147629900000000000000000000CONSUMIDOR FINAL              000000000011000000000000000000000000000000000000000000000000000000000000000000000000000000000000000000000000000000000000PES00010000001000000000000000000000000
201705030820000200000000000000014763000000000000000147639900000000000000000000CONSUMIDOR FINAL              000000000009000000000000000000000000000000000000000000000000000000000000000000000000000000000000000000000000000000000000PES00010000001000000000000000000000000
201705030820000200000000000000014764000000000000000147649900000000000000000000CONSUMIDOR FINAL              000000000004000000000000000000000000000000000000000000000000000000000000000000000000000000000000000000000000000000000000PES00010000001000000000000000000000000
201705030820000200000000000000014765000000000000000147659900000000000000000000CONSUMIDOR FINAL              000000000011000000000000000000000000000000000000000000000000000000000000000000000000000000000000000000000000000000000000PES00010000001000000000000000000000000
201705030820000200000000000000014766000000000000000147669900000000000000000000CONSUMIDOR FINAL              000000000024000000000000000000000000000000000000000000000000000000000000000000000000000000000000000000000000000000000000PES00010000001000000000000000000000000
201705030820000200000000000000014767000000000000000147679900000000000000000000CONSUMIDOR FINAL              000000000009000000000000000000000000000000000000000000000000000000000000000000000000000000000000000000000000000000000000PES00010000001000000000000000000000000
201705030820000200000000000000014768000000000000000147689900000000000000000000CONSUMIDOR FINAL              000000000011700000000000000000000000000000000000000000000000000000000000000000000000000000000000000000000000000000000000PES00010000001000000000000000000000000
201705030820000200000000000000014769000000000000000147699900000000000000000000CONSUMIDOR FINAL              000000000009500000000000000000000000000000000000000000000000000000000000000000000000000000000000000000000000000000000000PES00010000001000000000000000000000000
201705030820000200000000000000014770000000000000000147709900000000000000000000CONSUMIDOR FINAL              000000000012000000000000000000000000000000000000000000000000000000000000000000000000000000000000000000000000000000000000PES00010000001000000000000000000000000
201705030820000200000000000000014771000000000000000147719900000000000000000000CONSUMIDOR FINAL              000000000016500000000000000000000000000000000000000000000000000000000000000000000000000000000000000000000000000000000000PES00010000001000000000000000000000000
201705030820000200000000000000014772000000000000000147729900000000000000000000CONSUMIDOR FINAL              000000000004500000000000000000000000000000000000000000000000000000000000000000000000000000000000000000000000000000000000PES00010000001000000000000000000000000
201705030820000200000000000000014773000000000000000147739900000000000000000000CONSUMIDOR FINAL              000000000006000000000000000000000000000000000000000000000000000000000000000000000000000000000000000000000000000000000000PES00010000001000000000000000000000000
201705030820000200000000000000014774000000000000000147749900000000000000000000CONSUMIDOR FINAL              000000000010500000000000000000000000000000000000000000000000000000000000000000000000000000000000000000000000000000000000PES00010000001000000000000000000000000
201705030820000200000000000000014775000000000000000147759900000000000000000000CONSUMIDOR FINAL              000000000004000000000000000000000000000000000000000000000000000000000000000000000000000000000000000000000000000000000000PES00010000001000000000000000000000000
201705030820000200000000000000014776000000000000000147769900000000000000000000CONSUMIDOR FINAL              000000000004500000000000000000000000000000000000000000000000000000000000000000000000000000000000000000000000000000000000PES00010000001000000000000000000000000
201705030820000200000000000000014777000000000000000147779900000000000000000000CONSUMIDOR FINAL              000000000005500000000000000000000000000000000000000000000000000000000000000000000000000000000000000000000000000000000000PES00010000001000000000000000000000000
201705030820000200000000000000014778000000000000000147789900000000000000000000CONSUMIDOR FINAL              000000000006000000000000000000000000000000000000000000000000000000000000000000000000000000000000000000000000000000000000PES00010000001000000000000000000000000
201705030820000200000000000000014779000000000000000147799900000000000000000000CONSUMIDOR FINAL              000000000007000000000000000000000000000000000000000000000000000000000000000000000000000000000000000000000000000000000000PES00010000001000000000000000000000000
201705030820000200000000000000014780000000000000000147809900000000000000000000CONSUMIDOR FINAL              000000000007500000000000000000000000000000000000000000000000000000000000000000000000000000000000000000000000000000000000PES00010000001000000000000000000000000
201705030820000200000000000000014781000000000000000147819900000000000000000000CONSUMIDOR FINAL              000000000011500000000000000000000000000000000000000000000000000000000000000000000000000000000000000000000000000000000000PES00010000001000000000000000000000000
201705030820000200000000000000014782000000000000000147829900000000000000000000CONSUMIDOR FINAL              000000000007500000000000000000000000000000000000000000000000000000000000000000000000000000000000000000000000000000000000PES00010000001000000000000000000000000
201705030820000200000000000000014783000000000000000147839900000000000000000000CONSUMIDOR FINAL              000000000016500000000000000000000000000000000000000000000000000000000000000000000000000000000000000000000000000000000000PES00010000001000000000000000000000000
201705030820000200000000000000014784000000000000000147849900000000000000000000CONSUMIDOR FINAL              000000000007500000000000000000000000000000000000000000000000000000000000000000000000000000000000000000000000000000000000PES00010000001000000000000000000000000
201705030820000200000000000000014785000000000000000147859900000000000000000000CONSUMIDOR FINAL              000000000003500000000000000000000000000000000000000000000000000000000000000000000000000000000000000000000000000000000000PES00010000001000000000000000000000000
201705030820000200000000000000014786000000000000000147869900000000000000000000CONSUMIDOR FINAL              000000000003000000000000000000000000000000000000000000000000000000000000000000000000000000000000000000000000000000000000PES00010000001000000000000000000000000
201705040820000200000000000000014787000000000000000147879900000000000000000000CONSUMIDOR FINAL              000000000013000000000000000000000000000000000000000000000000000000000000000000000000000000000000000000000000000000000000PES00010000001000000000000000000000000
201705040820000200000000000000014788000000000000000147889900000000000000000000CONSUMIDOR FINAL              000000000020000000000000000000000000000000000000000000000000000000000000000000000000000000000000000000000000000000000000PES00010000001000000000000000000000000
201705040820000200000000000000014789000000000000000147899900000000000000000000CONSUMIDOR FINAL              000000000005000000000000000000000000000000000000000000000000000000000000000000000000000000000000000000000000000000000000PES00010000001000000000000000000000000
201705040820000200000000000000014790000000000000000147909900000000000000000000CONSUMIDOR FINAL              000000000008000000000000000000000000000000000000000000000000000000000000000000000000000000000000000000000000000000000000PES00010000001000000000000000000000000
201705040820000200000000000000014791000000000000000147919900000000000000000000CONSUMIDOR FINAL              000000000012000000000000000000000000000000000000000000000000000000000000000000000000000000000000000000000000000000000000PES00010000001000000000000000000000000
201705040820000200000000000000014792000000000000000147929900000000000000000000CONSUMIDOR FINAL              000000000010000000000000000000000000000000000000000000000000000000000000000000000000000000000000000000000000000000000000PES00010000001000000000000000000000000
201705040820000200000000000000014793000000000000000147939900000000000000000000CONSUMIDOR FINAL              000000000005000000000000000000000000000000000000000000000000000000000000000000000000000000000000000000000000000000000000PES00010000001000000000000000000000000
201705040820000200000000000000014794000000000000000147949900000000000000000000CONSUMIDOR FINAL              000000000010000000000000000000000000000000000000000000000000000000000000000000000000000000000000000000000000000000000000PES00010000001000000000000000000000000
201705040820000200000000000000014795000000000000000147959900000000000000000000CONSUMIDOR FINAL              000000000005500000000000000000000000000000000000000000000000000000000000000000000000000000000000000000000000000000000000PES00010000001000000000000000000000000
201705040820000200000000000000014796000000000000000147969900000000000000000000CONSUMIDOR FINAL              000000000015500000000000000000000000000000000000000000000000000000000000000000000000000000000000000000000000000000000000PES00010000001000000000000000000000000
201705040820000200000000000000014797000000000000000147979900000000000000000000CONSUMIDOR FINAL              000000000005000000000000000000000000000000000000000000000000000000000000000000000000000000000000000000000000000000000000PES00010000001000000000000000000000000
201705040820000200000000000000014798000000000000000147989900000000000000000000CONSUMIDOR FINAL              000000000006000000000000000000000000000000000000000000000000000000000000000000000000000000000000000000000000000000000000PES00010000001000000000000000000000000
201705040820000200000000000000014799000000000000000147999900000000000000000000CONSUMIDOR FINAL              000000000021500000000000000000000000000000000000000000000000000000000000000000000000000000000000000000000000000000000000PES00010000001000000000000000000000000
201705040820000200000000000000014800000000000000000148009900000000000000000000CONSUMIDOR FINAL              000000000004000000000000000000000000000000000000000000000000000000000000000000000000000000000000000000000000000000000000PES00010000001000000000000000000000000
201705040820000200000000000000014801000000000000000148019900000000000000000000CONSUMIDOR FINAL              000000000008000000000000000000000000000000000000000000000000000000000000000000000000000000000000000000000000000000000000PES00010000001000000000000000000000000
201705040820000200000000000000014802000000000000000148029900000000000000000000CONSUMIDOR FINAL              000000000002000000000000000000000000000000000000000000000000000000000000000000000000000000000000000000000000000000000000PES00010000001000000000000000000000000
201705040820000200000000000000014803000000000000000148039900000000000000000000CONSUMIDOR FINAL              000000000004000000000000000000000000000000000000000000000000000000000000000000000000000000000000000000000000000000000000PES00010000001000000000000000000000000
201705040820000200000000000000014804000000000000000148049900000000000000000000CONSUMIDOR FINAL              000000000007500000000000000000000000000000000000000000000000000000000000000000000000000000000000000000000000000000000000PES00010000001000000000000000000000000
201705040820000200000000000000014805000000000000000148059900000000000000000000CONSUMIDOR FINAL              000000000013500000000000000000000000000000000000000000000000000000000000000000000000000000000000000000000000000000000000PES00010000001000000000000000000000000
201705050820000200000000000000014806000000000000000148069900000000000000000000CONSUMIDOR FINAL              000000000008000000000000000000000000000000000000000000000000000000000000000000000000000000000000000000000000000000000000PES00010000001000000000000000000000000
201705050820000200000000000000014807000000000000000148079900000000000000000000CONSUMIDOR FINAL              000000000004000000000000000000000000000000000000000000000000000000000000000000000000000000000000000000000000000000000000PES00010000001000000000000000000000000
201705050820000200000000000000014808000000000000000148089900000000000000000000CONSUMIDOR FINAL              000000000004000000000000000000000000000000000000000000000000000000000000000000000000000000000000000000000000000000000000PES00010000001000000000000000000000000
201705050820000200000000000000014809000000000000000148099900000000000000000000CONSUMIDOR FINAL              000000000004950000000000000000000000000000000000000000000000000000000000000000000000000000000000000000000000000000000000PES00010000001000000000000000000000000
201705050820000200000000000000014810000000000000000148109900000000000000000000CONSUMIDOR FINAL              000000000009500000000000000000000000000000000000000000000000000000000000000000000000000000000000000000000000000000000000PES00010000001000000000000000000000000
201705050820000200000000000000014811000000000000000148119900000000000000000000CONSUMIDOR FINAL              000000000017000000000000000000000000000000000000000000000000000000000000000000000000000000000000000000000000000000000000PES00010000001000000000000000000000000
201705050820000200000000000000014812000000000000000148129900000000000000000000CONSUMIDOR FINAL              000000000008000000000000000000000000000000000000000000000000000000000000000000000000000000000000000000000000000000000000PES00010000001000000000000000000000000
201705050820000200000000000000014813000000000000000148139900000000000000000000CONSUMIDOR FINAL              000000000014500000000000000000000000000000000000000000000000000000000000000000000000000000000000000000000000000000000000PES00010000001000000000000000000000000
201705050820000200000000000000014814000000000000000148149900000000000000000000CONSUMIDOR FINAL              000000000025000000000000000000000000000000000000000000000000000000000000000000000000000000000000000000000000000000000000PES00010000001000000000000000000000000
201705050820000200000000000000014815000000000000000148159900000000000000000000CONSUMIDOR FINAL              000000000009500000000000000000000000000000000000000000000000000000000000000000000000000000000000000000000000000000000000PES00010000001000000000000000000000000
201705050820000200000000000000014816000000000000000148169900000000000000000000CONSUMIDOR FINAL              000000000009500000000000000000000000000000000000000000000000000000000000000000000000000000000000000000000000000000000000PES00010000001000000000000000000000000
201705050820000200000000000000014817000000000000000148179900000000000000000000CONSUMIDOR FINAL              000000000011000000000000000000000000000000000000000000000000000000000000000000000000000000000000000000000000000000000000PES00010000001000000000000000000000000
201705050820000200000000000000014819000000000000000148199900000000000000000000CONSUMIDOR FINAL              000000000009000000000000000000000000000000000000000000000000000000000000000000000000000000000000000000000000000000000000PES00010000001000000000000000000000000
201705050820000200000000000000014820000000000000000148209900000000000000000000CONSUMIDOR FINAL              000000000022000000000000000000000000000000000000000000000000000000000000000000000000000000000000000000000000000000000000PES00010000001000000000000000000000000
201705050820000200000000000000014821000000000000000148219900000000000000000000CONSUMIDOR FINAL              000000000002000000000000000000000000000000000000000000000000000000000000000000000000000000000000000000000000000000000000PES00010000001000000000000000000000000
201705050820000200000000000000014822000000000000000148229900000000000000000000CONSUMIDOR FINAL              000000000004500000000000000000000000000000000000000000000000000000000000000000000000000000000000000000000000000000000000PES00010000001000000000000000000000000
201705050820000200000000000000014823000000000000000148239900000000000000000000CONSUMIDOR FINAL              000000000005500000000000000000000000000000000000000000000000000000000000000000000000000000000000000000000000000000000000PES00010000001000000000000000000000000
201705050820000200000000000000014824000000000000000148249900000000000000000000CONSUMIDOR FINAL              000000000004000000000000000000000000000000000000000000000000000000000000000000000000000000000000000000000000000000000000PES00010000001000000000000000000000000
201705050820000200000000000000014825000000000000000148259900000000000000000000CONSUMIDOR FINAL              000000000005500000000000000000000000000000000000000000000000000000000000000000000000000000000000000000000000000000000000PES00010000001000000000000000000000000
201705050820000200000000000000014826000000000000000148269900000000000000000000CONSUMIDOR FINAL              000000000007000000000000000000000000000000000000000000000000000000000000000000000000000000000000000000000000000000000000PES00010000001000000000000000000000000
201705050820000200000000000000014827000000000000000148279900000000000000000000CONSUMIDOR FINAL              000000000005500000000000000000000000000000000000000000000000000000000000000000000000000000000000000000000000000000000000PES00010000001000000000000000000000000
201705050820000200000000000000014828000000000000000148289900000000000000000000CONSUMIDOR FINAL              000000000011000000000000000000000000000000000000000000000000000000000000000000000000000000000000000000000000000000000000PES00010000001000000000000000000000000
201705050820000200000000000000014829000000000000000148299900000000000000000000CONSUMIDOR FINAL              000000000011000000000000000000000000000000000000000000000000000000000000000000000000000000000000000000000000000000000000PES00010000001000000000000000000000000
201705050820000200000000000000014830000000000000000148309900000000000000000000CONSUMIDOR FINAL              000000000009500000000000000000000000000000000000000000000000000000000000000000000000000000000000000000000000000000000000PES00010000001000000000000000000000000
201705050820000200000000000000014831000000000000000148319900000000000000000000CONSUMIDOR FINAL              000000000007500000000000000000000000000000000000000000000000000000000000000000000000000000000000000000000000000000000000PES00010000001000000000000000000000000
201705050820000200000000000000014832000000000000000148329900000000000000000000CONSUMIDOR FINAL              000000000006000000000000000000000000000000000000000000000000000000000000000000000000000000000000000000000000000000000000PES00010000001000000000000000000000000
201705050820000200000000000000014833000000000000000148339900000000000000000000CONSUMIDOR FINAL              000000000010500000000000000000000000000000000000000000000000000000000000000000000000000000000000000000000000000000000000PES00010000001000000000000000000000000
201705050820000200000000000000014834000000000000000148349900000000000000000000CONSUMIDOR FINAL              000000000004000000000000000000000000000000000000000000000000000000000000000000000000000000000000000000000000000000000000PES00010000001000000000000000000000000
201705050820000200000000000000014835000000000000000148359900000000000000000000CONSUMIDOR FINAL              000000000008500000000000000000000000000000000000000000000000000000000000000000000000000000000000000000000000000000000000PES00010000001000000000000000000000000
201705050820000200000000000000014836000000000000000148369900000000000000000000CONSUMIDOR FINAL              000000000006000000000000000000000000000000000000000000000000000000000000000000000000000000000000000000000000000000000000PES00010000001000000000000000000000000
201705050820000200000000000000014837000000000000000148379900000000000000000000CONSUMIDOR FINAL              000000000005000000000000000000000000000000000000000000000000000000000000000000000000000000000000000000000000000000000000PES00010000001000000000000000000000000
201705050820000200000000000000014838000000000000000148389900000000000000000000CONSUMIDOR FINAL              000000000002000000000000000000000000000000000000000000000000000000000000000000000000000000000000000000000000000000000000PES00010000001000000000000000000000000
201705050820000200000000000000014839000000000000000148399900000000000000000000CONSUMIDOR FINAL              000000000004500000000000000000000000000000000000000000000000000000000000000000000000000000000000000000000000000000000000PES00010000001000000000000000000000000
201705050820000200000000000000014840000000000000000148409900000000000000000000CONSUMIDOR FINAL              000000000003500000000000000000000000000000000000000000000000000000000000000000000000000000000000000000000000000000000000PES00010000001000000000000000000000000
201705050820000200000000000000014841000000000000000148419900000000000000000000CONSUMIDOR FINAL              000000000004000000000000000000000000000000000000000000000000000000000000000000000000000000000000000000000000000000000000PES00010000001000000000000000000000000
201705050820000200000000000000014842000000000000000148429900000000000000000000CONSUMIDOR FINAL              000000000003500000000000000000000000000000000000000000000000000000000000000000000000000000000000000000000000000000000000PES00010000001000000000000000000000000
201705050820000200000000000000014843000000000000000148439900000000000000000000CONSUMIDOR FINAL              000000000004000000000000000000000000000000000000000000000000000000000000000000000000000000000000000000000000000000000000PES00010000001000000000000000000000000
201705050820000200000000000000014844000000000000000148449900000000000000000000CONSUMIDOR FINAL              000000000004500000000000000000000000000000000000000000000000000000000000000000000000000000000000000000000000000000000000PES00010000001000000000000000000000000
201705050820000200000000000000014845000000000000000148459900000000000000000000CONSUMIDOR FINAL              000000000010000000000000000000000000000000000000000000000000000000000000000000000000000000000000000000000000000000000000PES00010000001000000000000000000000000
201705050820000200000000000000014846000000000000000148469900000000000000000000CONSUMIDOR FINAL              000000000005500000000000000000000000000000000000000000000000000000000000000000000000000000000000000000000000000000000000PES00010000001000000000000000000000000
201705050820000200000000000000014847000000000000000148479900000000000000000000CONSUMIDOR FINAL              000000000009000000000000000000000000000000000000000000000000000000000000000000000000000000000000000000000000000000000000PES00010000001000000000000000000000000
201705050820000200000000000000014848000000000000000148489900000000000000000000CONSUMIDOR FINAL              000000000004500000000000000000000000000000000000000000000000000000000000000000000000000000000000000000000000000000000000PES00010000001000000000000000000000000
201705050820000200000000000000014849000000000000000148499900000000000000000000CONSUMIDOR FINAL              000000000002000000000000000000000000000000000000000000000000000000000000000000000000000000000000000000000000000000000000PES00010000001000000000000000000000000
201705050820000200000000000000014850000000000000000148509900000000000000000000CONSUMIDOR FINAL              000000000006500000000000000000000000000000000000000000000000000000000000000000000000000000000000000000000000000000000000PES00010000001000000000000000000000000
201705050820000200000000000000014851000000000000000148519900000000000000000000CONSUMIDOR FINAL              000000000001000000000000000000000000000000000000000000000000000000000000000000000000000000000000000000000000000000000000PES00010000001000000000000000000000000
201705050820000200000000000000014852000000000000000148529900000000000000000000CONSUMIDOR FINAL              000000000004000000000000000000000000000000000000000000000000000000000000000000000000000000000000000000000000000000000000PES00010000001000000000000000000000000
201705050820000200000000000000014853000000000000000148539900000000000000000000CONSUMIDOR FINAL              000000000016500000000000000000000000000000000000000000000000000000000000000000000000000000000000000000000000000000000000PES00010000001000000000000000000000000
201705050820000200000000000000014854000000000000000148549900000000000000000000CONSUMIDOR FINAL              000000000003000000000000000000000000000000000000000000000000000000000000000000000000000000000000000000000000000000000000PES00010000001000000000000000000000000
201705050820000200000000000000014855000000000000000148559900000000000000000000CONSUMIDOR FINAL              000000000002500000000000000000000000000000000000000000000000000000000000000000000000000000000000000000000000000000000000PES00010000001000000000000000000000000
201705050820000200000000000000014856000000000000000148569900000000000000000000CONSUMIDOR FINAL              000000000003000000000000000000000000000000000000000000000000000000000000000000000000000000000000000000000000000000000000PES00010000001000000000000000000000000
201705050820000200000000000000014857000000000000000148579900000000000000000000CONSUMIDOR FINAL              000000000007500000000000000000000000000000000000000000000000000000000000000000000000000000000000000000000000000000000000PES00010000001000000000000000000000000
201705050820000200000000000000014858000000000000000148589900000000000000000000CONSUMIDOR FINAL              000000000005000000000000000000000000000000000000000000000000000000000000000000000000000000000000000000000000000000000000PES00010000001000000000000000000000000
201705050820000200000000000000014859000000000000000148599900000000000000000000CONSUMIDOR FINAL              000000000002500000000000000000000000000000000000000000000000000000000000000000000000000000000000000000000000000000000000PES00010000001000000000000000000000000
201705050820000200000000000000014860000000000000000148609900000000000000000000CONSUMIDOR FINAL              000000000013000000000000000000000000000000000000000000000000000000000000000000000000000000000000000000000000000000000000PES00010000001000000000000000000000000
201705050820000200000000000000014861000000000000000148619900000000000000000000CONSUMIDOR FINAL              000000000005500000000000000000000000000000000000000000000000000000000000000000000000000000000000000000000000000000000000PES00010000001000000000000000000000000
201705050820000200000000000000014862000000000000000148629900000000000000000000CONSUMIDOR FINAL              000000000059250000000000000000000000000000000000000000000000000000000000000000000000000000000000000000000000000000000000PES00010000001000000000000000000000000
201705050820000200000000000000014863000000000000000148639900000000000000000000CONSUMIDOR FINAL              000000000004500000000000000000000000000000000000000000000000000000000000000000000000000000000000000000000000000000000000PES00010000001000000000000000000000000
201705050820000200000000000000014864000000000000000148649900000000000000000000CONSUMIDOR FINAL              000000000003000000000000000000000000000000000000000000000000000000000000000000000000000000000000000000000000000000000000PES00010000001000000000000000000000000
201705050820000200000000000000014865000000000000000148659900000000000000000000CONSUMIDOR FINAL              000000000003500000000000000000000000000000000000000000000000000000000000000000000000000000000000000000000000000000000000PES00010000001000000000000000000000000
201705050820000200000000000000014866000000000000000148669900000000000000000000CONSUMIDOR FINAL              000000000004500000000000000000000000000000000000000000000000000000000000000000000000000000000000000000000000000000000000PES00010000001000000000000000000000000
201705050820000200000000000000014867000000000000000148679900000000000000000000CONSUMIDOR FINAL              000000000005500000000000000000000000000000000000000000000000000000000000000000000000000000000000000000000000000000000000PES00010000001000000000000000000000000
201705050820000200000000000000014868000000000000000148689900000000000000000000CONSUMIDOR FINAL              000000000003000000000000000000000000000000000000000000000000000000000000000000000000000000000000000000000000000000000000PES00010000001000000000000000000000000
201705050820000200000000000000014869000000000000000148699900000000000000000000CONSUMIDOR FINAL              000000000003000000000000000000000000000000000000000000000000000000000000000000000000000000000000000000000000000000000000PES00010000001000000000000000000000000
201705050820000200000000000000014870000000000000000148709900000000000000000000CONSUMIDOR FINAL              000000000005000000000000000000000000000000000000000000000000000000000000000000000000000000000000000000000000000000000000PES00010000001000000000000000000000000
201705050820000200000000000000014871000000000000000148719900000000000000000000CONSUMIDOR FINAL              000000000003000000000000000000000000000000000000000000000000000000000000000000000000000000000000000000000000000000000000PES00010000001000000000000000000000000
201705050820000200000000000000014872000000000000000148729900000000000000000000CONSUMIDOR FINAL              000000000005850000000000000000000000000000000000000000000000000000000000000000000000000000000000000000000000000000000000PES00010000001000000000000000000000000
201705050820000200000000000000014873000000000000000148739900000000000000000000CONSUMIDOR FINAL              000000000003500000000000000000000000000000000000000000000000000000000000000000000000000000000000000000000000000000000000PES00010000001000000000000000000000000
201705060820000200000000000000014874000000000000000148749900000000000000000000CONSUMIDOR FINAL              000000000007000000000000000000000000000000000000000000000000000000000000000000000000000000000000000000000000000000000000PES00010000001000000000000000000000000
201705060820000200000000000000014875000000000000000148759900000000000000000000CONSUMIDOR FINAL              000000000015000000000000000000000000000000000000000000000000000000000000000000000000000000000000000000000000000000000000PES00010000001000000000000000000000000
201705060820000200000000000000014876000000000000000148769900000000000000000000CONSUMIDOR FINAL              000000000007500000000000000000000000000000000000000000000000000000000000000000000000000000000000000000000000000000000000PES00010000001000000000000000000000000
201705060820000200000000000000014877000000000000000148779900000000000000000000CONSUMIDOR FINAL              000000000004000000000000000000000000000000000000000000000000000000000000000000000000000000000000000000000000000000000000PES00010000001000000000000000000000000
201705060820000200000000000000014878000000000000000148789900000000000000000000CONSUMIDOR FINAL              000000000005000000000000000000000000000000000000000000000000000000000000000000000000000000000000000000000000000000000000PES00010000001000000000000000000000000
201705060820000200000000000000014879000000000000000148799900000000000000000000CONSUMIDOR FINAL              000000000006500000000000000000000000000000000000000000000000000000000000000000000000000000000000000000000000000000000000PES00010000001000000000000000000000000
201705060820000200000000000000014880000000000000000148809900000000000000000000CONSUMIDOR FINAL              000000000014000000000000000000000000000000000000000000000000000000000000000000000000000000000000000000000000000000000000PES00010000001000000000000000000000000
201705060820000200000000000000014881000000000000000148819900000000000000000000CONSUMIDOR FINAL              000000000018500000000000000000000000000000000000000000000000000000000000000000000000000000000000000000000000000000000000PES00010000001000000000000000000000000
201705060820000200000000000000014882000000000000000148829900000000000000000000CONSUMIDOR FINAL              000000000004000000000000000000000000000000000000000000000000000000000000000000000000000000000000000000000000000000000000PES00010000001000000000000000000000000
201705060820000200000000000000014883000000000000000148839900000000000000000000CONSUMIDOR FINAL              000000000013500000000000000000000000000000000000000000000000000000000000000000000000000000000000000000000000000000000000PES00010000001000000000000000000000000
201705060820000200000000000000014884000000000000000148849900000000000000000000CONSUMIDOR FINAL              000000000005500000000000000000000000000000000000000000000000000000000000000000000000000000000000000000000000000000000000PES00010000001000000000000000000000000
201705060820000200000000000000014885000000000000000148859900000000000000000000CONSUMIDOR FINAL              000000000030500000000000000000000000000000000000000000000000000000000000000000000000000000000000000000000000000000000000PES00010000001000000000000000000000000
201705060820000200000000000000014886000000000000000148869900000000000000000000CONSUMIDOR FINAL              000000000010000000000000000000000000000000000000000000000000000000000000000000000000000000000000000000000000000000000000PES00010000001000000000000000000000000
201705060820000200000000000000014887000000000000000148879900000000000000000000CONSUMIDOR FINAL              000000000002000000000000000000000000000000000000000000000000000000000000000000000000000000000000000000000000000000000000PES00010000001000000000000000000000000
201705060820000200000000000000014888000000000000000148889900000000000000000000CONSUMIDOR FINAL              000000000002000000000000000000000000000000000000000000000000000000000000000000000000000000000000000000000000000000000000PES00010000001000000000000000000000000
201705060820000200000000000000014889000000000000000148899900000000000000000000CONSUMIDOR FINAL              000000000004500000000000000000000000000000000000000000000000000000000000000000000000000000000000000000000000000000000000PES00010000001000000000000000000000000
201705060820000200000000000000014890000000000000000148909900000000000000000000CONSUMIDOR FINAL              000000000019000000000000000000000000000000000000000000000000000000000000000000000000000000000000000000000000000000000000PES00010000001000000000000000000000000
201705060820000200000000000000014891000000000000000148919900000000000000000000CONSUMIDOR FINAL              000000000006000000000000000000000000000000000000000000000000000000000000000000000000000000000000000000000000000000000000PES00010000001000000000000000000000000
201705060820000200000000000000014892000000000000000148929900000000000000000000CONSUMIDOR FINAL              000000000009000000000000000000000000000000000000000000000000000000000000000000000000000000000000000000000000000000000000PES00010000001000000000000000000000000
201705060820000200000000000000014893000000000000000148939900000000000000000000CONSUMIDOR FINAL              000000000010600000000000000000000000000000000000000000000000000000000000000000000000000000000000000000000000000000000000PES00010000001000000000000000000000000
201705060820000200000000000000014894000000000000000148949900000000000000000000CONSUMIDOR FINAL              000000000009000000000000000000000000000000000000000000000000000000000000000000000000000000000000000000000000000000000000PES00010000001000000000000000000000000
201705060820000200000000000000014895000000000000000148959900000000000000000000CONSUMIDOR FINAL              000000000012500000000000000000000000000000000000000000000000000000000000000000000000000000000000000000000000000000000000PES00010000001000000000000000000000000
201705060820000200000000000000014896000000000000000148969900000000000000000000CONSUMIDOR FINAL              000000000004000000000000000000000000000000000000000000000000000000000000000000000000000000000000000000000000000000000000PES00010000001000000000000000000000000
201705060820000200000000000000014897000000000000000148979900000000000000000000CONSUMIDOR FINAL              000000000004000000000000000000000000000000000000000000000000000000000000000000000000000000000000000000000000000000000000PES00010000001000000000000000000000000
201705060820000200000000000000014898000000000000000148989900000000000000000000CONSUMIDOR FINAL              000000000004500000000000000000000000000000000000000000000000000000000000000000000000000000000000000000000000000000000000PES00010000001000000000000000000000000
201705060820000200000000000000014899000000000000000148999900000000000000000000CONSUMIDOR FINAL              000000000014500000000000000000000000000000000000000000000000000000000000000000000000000000000000000000000000000000000000PES00010000001000000000000000000000000
201705070820000200000000000000014900000000000000000149009900000000000000000000CONSUMIDOR FINAL              000000000008000000000000000000000000000000000000000000000000000000000000000000000000000000000000000000000000000000000000PES00010000001000000000000000000000000
201705070820000200000000000000014901000000000000000149019900000000000000000000CONSUMIDOR FINAL              000000000006000000000000000000000000000000000000000000000000000000000000000000000000000000000000000000000000000000000000PES00010000001000000000000000000000000
201705070820000200000000000000014902000000000000000149029900000000000000000000CONSUMIDOR FINAL              000000000016000000000000000000000000000000000000000000000000000000000000000000000000000000000000000000000000000000000000PES00010000001000000000000000000000000
201705070820000200000000000000014903000000000000000149039900000000000000000000CONSUMIDOR FINAL              000000000011500000000000000000000000000000000000000000000000000000000000000000000000000000000000000000000000000000000000PES00010000001000000000000000000000000
201705070820000200000000000000014904000000000000000149049900000000000000000000CONSUMIDOR FINAL              000000000007500000000000000000000000000000000000000000000000000000000000000000000000000000000000000000000000000000000000PES00010000001000000000000000000000000
201705070820000200000000000000014905000000000000000149059900000000000000000000CONSUMIDOR FINAL              000000000019000000000000000000000000000000000000000000000000000000000000000000000000000000000000000000000000000000000000PES00010000001000000000000000000000000
201705070820000200000000000000014906000000000000000149069900000000000000000000CONSUMIDOR FINAL              000000000007000000000000000000000000000000000000000000000000000000000000000000000000000000000000000000000000000000000000PES00010000001000000000000000000000000
201705070820000200000000000000014907000000000000000149079900000000000000000000CONSUMIDOR FINAL              000000000005000000000000000000000000000000000000000000000000000000000000000000000000000000000000000000000000000000000000PES00010000001000000000000000000000000
201705070820000200000000000000014908000000000000000149089900000000000000000000CONSUMIDOR FINAL              000000000004000000000000000000000000000000000000000000000000000000000000000000000000000000000000000000000000000000000000PES00010000001000000000000000000000000
201705070820000200000000000000014909000000000000000149099900000000000000000000CONSUMIDOR FINAL              000000000006000000000000000000000000000000000000000000000000000000000000000000000000000000000000000000000000000000000000PES00010000001000000000000000000000000
201705070820000200000000000000014910000000000000000149109900000000000000000000CONSUMIDOR FINAL              000000000006000000000000000000000000000000000000000000000000000000000000000000000000000000000000000000000000000000000000PES00010000001000000000000000000000000
201705070820000200000000000000014911000000000000000149119900000000000000000000CONSUMIDOR FINAL              000000000005000000000000000000000000000000000000000000000000000000000000000000000000000000000000000000000000000000000000PES00010000001000000000000000000000000
201705070820000200000000000000014912000000000000000149129900000000000000000000CONSUMIDOR FINAL              000000000011500000000000000000000000000000000000000000000000000000000000000000000000000000000000000000000000000000000000PES00010000001000000000000000000000000
201705070820000200000000000000014913000000000000000149139900000000000000000000CONSUMIDOR FINAL              000000000002000000000000000000000000000000000000000000000000000000000000000000000000000000000000000000000000000000000000PES00010000001000000000000000000000000
201705070820000200000000000000014914000000000000000149149900000000000000000000CONSUMIDOR FINAL              000000000008000000000000000000000000000000000000000000000000000000000000000000000000000000000000000000000000000000000000PES00010000001000000000000000000000000
201705070820000200000000000000014915000000000000000149159900000000000000000000CONSUMIDOR FINAL              000000000019000000000000000000000000000000000000000000000000000000000000000000000000000000000000000000000000000000000000PES00010000001000000000000000000000000
201705070820000200000000000000014916000000000000000149169900000000000000000000CONSUMIDOR FINAL              000000000002000000000000000000000000000000000000000000000000000000000000000000000000000000000000000000000000000000000000PES00010000001000000000000000000000000
201705070820000200000000000000014917000000000000000149179900000000000000000000CONSUMIDOR FINAL              000000000010000000000000000000000000000000000000000000000000000000000000000000000000000000000000000000000000000000000000PES00010000001000000000000000000000000
201705070820000200000000000000014918000000000000000149189900000000000000000000CONSUMIDOR FINAL              000000000004000000000000000000000000000000000000000000000000000000000000000000000000000000000000000000000000000000000000PES00010000001000000000000000000000000
201705070820000200000000000000014919000000000000000149199900000000000000000000CONSUMIDOR FINAL              000000000007500000000000000000000000000000000000000000000000000000000000000000000000000000000000000000000000000000000000PES00010000001000000000000000000000000
201705070820000200000000000000014920000000000000000149209900000000000000000000CONSUMIDOR FINAL              000000000004500000000000000000000000000000000000000000000000000000000000000000000000000000000000000000000000000000000000PES00010000001000000000000000000000000
201705070820000200000000000000014921000000000000000149219900000000000000000000CONSUMIDOR FINAL              000000000010000000000000000000000000000000000000000000000000000000000000000000000000000000000000000000000000000000000000PES00010000001000000000000000000000000
201705070820000200000000000000014922000000000000000149229900000000000000000000CONSUMIDOR FINAL              000000000006000000000000000000000000000000000000000000000000000000000000000000000000000000000000000000000000000000000000PES00010000001000000000000000000000000
201705070820000200000000000000014923000000000000000149239900000000000000000000CONSUMIDOR FINAL              000000000005500000000000000000000000000000000000000000000000000000000000000000000000000000000000000000000000000000000000PES00010000001000000000000000000000000
201705070820000200000000000000014924000000000000000149249900000000000000000000CONSUMIDOR FINAL              000000000019000000000000000000000000000000000000000000000000000000000000000000000000000000000000000000000000000000000000PES00010000001000000000000000000000000
201705070820000200000000000000014925000000000000000149259900000000000000000000CONSUMIDOR FINAL              000000000004500000000000000000000000000000000000000000000000000000000000000000000000000000000000000000000000000000000000PES00010000001000000000000000000000000
201705070820000200000000000000014926000000000000000149269900000000000000000000CONSUMIDOR FINAL              000000000008000000000000000000000000000000000000000000000000000000000000000000000000000000000000000000000000000000000000PES00010000001000000000000000000000000
201705070820000200000000000000014927000000000000000149279900000000000000000000CONSUMIDOR FINAL              000000000005500000000000000000000000000000000000000000000000000000000000000000000000000000000000000000000000000000000000PES00010000001000000000000000000000000
201705070820000200000000000000014928000000000000000149289900000000000000000000CONSUMIDOR FINAL              000000000019000000000000000000000000000000000000000000000000000000000000000000000000000000000000000000000000000000000000PES00010000001000000000000000000000000
201705070820000200000000000000014929000000000000000149299900000000000000000000CONSUMIDOR FINAL              000000000004000000000000000000000000000000000000000000000000000000000000000000000000000000000000000000000000000000000000PES00010000001000000000000000000000000
201705070820000200000000000000014930000000000000000149309900000000000000000000CONSUMIDOR FINAL              000000000003000000000000000000000000000000000000000000000000000000000000000000000000000000000000000000000000000000000000PES00010000001000000000000000000000000
201705080820000200000000000000014931000000000000000149319900000000000000000000CONSUMIDOR FINAL              000000000004500000000000000000000000000000000000000000000000000000000000000000000000000000000000000000000000000000000000PES00010000001000000000000000000000000
201705080820000200000000000000014932000000000000000149329900000000000000000000CONSUMIDOR FINAL              000000000012400000000000000000000000000000000000000000000000000000000000000000000000000000000000000000000000000000000000PES00010000001000000000000000000000000
201705080820000200000000000000014933000000000000000149339900000000000000000000CONSUMIDOR FINAL              000000000003500000000000000000000000000000000000000000000000000000000000000000000000000000000000000000000000000000000000PES00010000001000000000000000000000000
201705080820000200000000000000014934000000000000000149349900000000000000000000CONSUMIDOR FINAL              000000000002000000000000000000000000000000000000000000000000000000000000000000000000000000000000000000000000000000000000PES00010000001000000000000000000000000
201705080820000200000000000000014935000000000000000149359900000000000000000000CONSUMIDOR FINAL              000000000008000000000000000000000000000000000000000000000000000000000000000000000000000000000000000000000000000000000000PES00010000001000000000000000000000000
201705080820000200000000000000014936000000000000000149369900000000000000000000CONSUMIDOR FINAL              000000000008550000000000000000000000000000000000000000000000000000000000000000000000000000000000000000000000000000000000PES00010000001000000000000000000000000
201705080820000200000000000000014937000000000000000149379900000000000000000000CONSUMIDOR FINAL              000000000009000000000000000000000000000000000000000000000000000000000000000000000000000000000000000000000000000000000000PES00010000001000000000000000000000000
201705080820000200000000000000014938000000000000000149389900000000000000000000CONSUMIDOR FINAL              000000000004000000000000000000000000000000000000000000000000000000000000000000000000000000000000000000000000000000000000PES00010000001000000000000000000000000
201705080820000200000000000000014939000000000000000149399900000000000000000000CONSUMIDOR FINAL              000000000008500000000000000000000000000000000000000000000000000000000000000000000000000000000000000000000000000000000000PES00010000001000000000000000000000000
201705080820000200000000000000014940000000000000000149409900000000000000000000CONSUMIDOR FINAL              000000000005500000000000000000000000000000000000000000000000000000000000000000000000000000000000000000000000000000000000PES00010000001000000000000000000000000
201705080820000200000000000000014941000000000000000149419900000000000000000000CONSUMIDOR FINAL              000000000005500000000000000000000000000000000000000000000000000000000000000000000000000000000000000000000000000000000000PES00010000001000000000000000000000000
201705080820000200000000000000014942000000000000000149429900000000000000000000CONSUMIDOR FINAL              000000000007500000000000000000000000000000000000000000000000000000000000000000000000000000000000000000000000000000000000PES00010000001000000000000000000000000
201705080820000200000000000000014943000000000000000149439900000000000000000000CONSUMIDOR FINAL              000000000002000000000000000000000000000000000000000000000000000000000000000000000000000000000000000000000000000000000000PES00010000001000000000000000000000000
201705080820000200000000000000014944000000000000000149449900000000000000000000CONSUMIDOR FINAL              000000000009000000000000000000000000000000000000000000000000000000000000000000000000000000000000000000000000000000000000PES00010000001000000000000000000000000
201705080820000200000000000000014945000000000000000149459900000000000000000000CONSUMIDOR FINAL              000000000004500000000000000000000000000000000000000000000000000000000000000000000000000000000000000000000000000000000000PES00010000001000000000000000000000000
201705080820000200000000000000014946000000000000000149469900000000000000000000CONSUMIDOR FINAL              000000000013500000000000000000000000000000000000000000000000000000000000000000000000000000000000000000000000000000000000PES00010000001000000000000000000000000
201705080820000200000000000000014947000000000000000149479900000000000000000000CONSUMIDOR FINAL              000000000002000000000000000000000000000000000000000000000000000000000000000000000000000000000000000000000000000000000000PES00010000001000000000000000000000000
201705080820000200000000000000014948000000000000000149489900000000000000000000CONSUMIDOR FINAL              000000000008000000000000000000000000000000000000000000000000000000000000000000000000000000000000000000000000000000000000PES00010000001000000000000000000000000
201705080820000200000000000000014949000000000000000149499900000000000000000000CONSUMIDOR FINAL              000000000009000000000000000000000000000000000000000000000000000000000000000000000000000000000000000000000000000000000000PES00010000001000000000000000000000000
201705080820000200000000000000014950000000000000000149509900000000000000000000CONSUMIDOR FINAL              000000000005500000000000000000000000000000000000000000000000000000000000000000000000000000000000000000000000000000000000PES00010000001000000000000000000000000
201705080820000200000000000000014951000000000000000149519900000000000000000000CONSUMIDOR FINAL              000000000006000000000000000000000000000000000000000000000000000000000000000000000000000000000000000000000000000000000000PES00010000001000000000000000000000000
201705080820000200000000000000014952000000000000000149529900000000000000000000CONSUMIDOR FINAL              000000000019000000000000000000000000000000000000000000000000000000000000000000000000000000000000000000000000000000000000PES00010000001000000000000000000000000
201705080820000200000000000000014953000000000000000149539900000000000000000000CONSUMIDOR FINAL              000000000002700000000000000000000000000000000000000000000000000000000000000000000000000000000000000000000000000000000000PES00010000001000000000000000000000000
201705080820000200000000000000014954000000000000000149549900000000000000000000CONSUMIDOR FINAL              000000000008000000000000000000000000000000000000000000000000000000000000000000000000000000000000000000000000000000000000PES00010000001000000000000000000000000
201705080820000200000000000000014955000000000000000149559900000000000000000000CONSUMIDOR FINAL              000000000008500000000000000000000000000000000000000000000000000000000000000000000000000000000000000000000000000000000000PES00010000001000000000000000000000000
201705080820000200000000000000014956000000000000000149569900000000000000000000CONSUMIDOR FINAL              000000000025500000000000000000000000000000000000000000000000000000000000000000000000000000000000000000000000000000000000PES00010000001000000000000000000000000
201705080820000200000000000000014957000000000000000149579900000000000000000000CONSUMIDOR FINAL              000000000018000000000000000000000000000000000000000000000000000000000000000000000000000000000000000000000000000000000000PES00010000001000000000000000000000000
201705080820000200000000000000014958000000000000000149589900000000000000000000CONSUMIDOR FINAL              000000000020000000000000000000000000000000000000000000000000000000000000000000000000000000000000000000000000000000000000PES00010000001000000000000000000000000
201705080820000200000000000000014959000000000000000149599900000000000000000000CONSUMIDOR FINAL              000000000009000000000000000000000000000000000000000000000000000000000000000000000000000000000000000000000000000000000000PES00010000001000000000000000000000000
201705080820000200000000000000014960000000000000000149609900000000000000000000CONSUMIDOR FINAL              000000000008500000000000000000000000000000000000000000000000000000000000000000000000000000000000000000000000000000000000PES00010000001000000000000000000000000
201705080820000200000000000000014961000000000000000149619900000000000000000000CONSUMIDOR FINAL              000000000014000000000000000000000000000000000000000000000000000000000000000000000000000000000000000000000000000000000000PES00010000001000000000000000000000000
201705080820000200000000000000014962000000000000000149629900000000000000000000CONSUMIDOR FINAL              000000000010000000000000000000000000000000000000000000000000000000000000000000000000000000000000000000000000000000000000PES00010000001000000000000000000000000
201705080820000200000000000000014963000000000000000149639900000000000000000000CONSUMIDOR FINAL              000000000004500000000000000000000000000000000000000000000000000000000000000000000000000000000000000000000000000000000000PES00010000001000000000000000000000000
201705080820000200000000000000014964000000000000000149649900000000000000000000CONSUMIDOR FINAL              000000000008500000000000000000000000000000000000000000000000000000000000000000000000000000000000000000000000000000000000PES00010000001000000000000000000000000
201705080820000200000000000000014965000000000000000149659900000000000000000000CONSUMIDOR FINAL              000000000004500000000000000000000000000000000000000000000000000000000000000000000000000000000000000000000000000000000000PES00010000001000000000000000000000000
201705080820000200000000000000014966000000000000000149669900000000000000000000CONSUMIDOR FINAL              000000000009000000000000000000000000000000000000000000000000000000000000000000000000000000000000000000000000000000000000PES00010000001000000000000000000000000
201705080820000200000000000000014967000000000000000149679900000000000000000000CONSUMIDOR FINAL              000000000009500000000000000000000000000000000000000000000000000000000000000000000000000000000000000000000000000000000000PES00010000001000000000000000000000000
201705080820000200000000000000014968000000000000000149689900000000000000000000CONSUMIDOR FINAL              000000000013500000000000000000000000000000000000000000000000000000000000000000000000000000000000000000000000000000000000PES00010000001000000000000000000000000
201705080820000200000000000000014969000000000000000149699900000000000000000000CONSUMIDOR FINAL              000000000010000000000000000000000000000000000000000000000000000000000000000000000000000000000000000000000000000000000000PES00010000001000000000000000000000000
201705080820000200000000000000014970000000000000000149709900000000000000000000CONSUMIDOR FINAL              000000000003500000000000000000000000000000000000000000000000000000000000000000000000000000000000000000000000000000000000PES00010000001000000000000000000000000
201705080820000200000000000000014971000000000000000149719900000000000000000000CONSUMIDOR FINAL              000000000005000000000000000000000000000000000000000000000000000000000000000000000000000000000000000000000000000000000000PES00010000001000000000000000000000000
201705090820000200000000000000014972000000000000000149729900000000000000000000CONSUMIDOR FINAL              000000000004000000000000000000000000000000000000000000000000000000000000000000000000000000000000000000000000000000000000PES00010000001000000000000000000000000
201705090820000200000000000000014973000000000000000149739900000000000000000000CONSUMIDOR FINAL              000000000012000000000000000000000000000000000000000000000000000000000000000000000000000000000000000000000000000000000000PES00010000001000000000000000000000000
201705090820000200000000000000014974000000000000000149749900000000000000000000CONSUMIDOR FINAL              000000000013500000000000000000000000000000000000000000000000000000000000000000000000000000000000000000000000000000000000PES00010000001000000000000000000000000
201705090820000200000000000000014975000000000000000149759900000000000000000000CONSUMIDOR FINAL              000000000005500000000000000000000000000000000000000000000000000000000000000000000000000000000000000000000000000000000000PES00010000001000000000000000000000000
201705090820000200000000000000014976000000000000000149769900000000000000000000CONSUMIDOR FINAL              000000000007500000000000000000000000000000000000000000000000000000000000000000000000000000000000000000000000000000000000PES00010000001000000000000000000000000
201705090820000200000000000000014977000000000000000149779900000000000000000000CONSUMIDOR FINAL              000000000009000000000000000000000000000000000000000000000000000000000000000000000000000000000000000000000000000000000000PES00010000001000000000000000000000000
201705090820000200000000000000014978000000000000000149789900000000000000000000CONSUMIDOR FINAL              000000000019500000000000000000000000000000000000000000000000000000000000000000000000000000000000000000000000000000000000PES00010000001000000000000000000000000
201705090820000200000000000000014979000000000000000149799900000000000000000000CONSUMIDOR FINAL              000000000005500000000000000000000000000000000000000000000000000000000000000000000000000000000000000000000000000000000000PES00010000001000000000000000000000000
201705090820000200000000000000014980000000000000000149809900000000000000000000CONSUMIDOR FINAL              000000000010000000000000000000000000000000000000000000000000000000000000000000000000000000000000000000000000000000000000PES00010000001000000000000000000000000
201705090820000200000000000000014981000000000000000149819900000000000000000000CONSUMIDOR FINAL              000000000012500000000000000000000000000000000000000000000000000000000000000000000000000000000000000000000000000000000000PES00010000001000000000000000000000000
201705090820000200000000000000014982000000000000000149829900000000000000000000CONSUMIDOR FINAL              000000000009000000000000000000000000000000000000000000000000000000000000000000000000000000000000000000000000000000000000PES00010000001000000000000000000000000
201705090820000200000000000000014983000000000000000149839900000000000000000000CONSUMIDOR FINAL              000000000019000000000000000000000000000000000000000000000000000000000000000000000000000000000000000000000000000000000000PES00010000001000000000000000000000000
201705090820000200000000000000014984000000000000000149849900000000000000000000CONSUMIDOR FINAL              000000000012500000000000000000000000000000000000000000000000000000000000000000000000000000000000000000000000000000000000PES00010000001000000000000000000000000
201705090820000200000000000000014985000000000000000149859900000000000000000000CONSUMIDOR FINAL              000000000015000000000000000000000000000000000000000000000000000000000000000000000000000000000000000000000000000000000000PES00010000001000000000000000000000000
201705090820000200000000000000014986000000000000000149869900000000000000000000CONSUMIDOR FINAL              000000000003500000000000000000000000000000000000000000000000000000000000000000000000000000000000000000000000000000000000PES00010000001000000000000000000000000
201705090820000200000000000000014987000000000000000149879900000000000000000000CONSUMIDOR FINAL              000000000024000000000000000000000000000000000000000000000000000000000000000000000000000000000000000000000000000000000000PES00010000001000000000000000000000000
201705090820000200000000000000014988000000000000000149889900000000000000000000CONSUMIDOR FINAL              000000000006500000000000000000000000000000000000000000000000000000000000000000000000000000000000000000000000000000000000PES00010000001000000000000000000000000
201705090820000200000000000000014989000000000000000149899900000000000000000000CONSUMIDOR FINAL              000000000013000000000000000000000000000000000000000000000000000000000000000000000000000000000000000000000000000000000000PES00010000001000000000000000000000000
201705090820000200000000000000014990000000000000000149909900000000000000000000CONSUMIDOR FINAL              000000000013000000000000000000000000000000000000000000000000000000000000000000000000000000000000000000000000000000000000PES00010000001000000000000000000000000
201705100820000200000000000000014991000000000000000149919900000000000000000000CONSUMIDOR FINAL              000000000004000000000000000000000000000000000000000000000000000000000000000000000000000000000000000000000000000000000000PES00010000001000000000000000000000000
201705100820000200000000000000014992000000000000000149929900000000000000000000CONSUMIDOR FINAL              000000000004000000000000000000000000000000000000000000000000000000000000000000000000000000000000000000000000000000000000PES00010000001000000000000000000000000
201705100820000200000000000000014993000000000000000149939900000000000000000000CONSUMIDOR FINAL              000000000009000000000000000000000000000000000000000000000000000000000000000000000000000000000000000000000000000000000000PES00010000001000000000000000000000000
201705100820000200000000000000014994000000000000000149949900000000000000000000CONSUMIDOR FINAL              000000000004000000000000000000000000000000000000000000000000000000000000000000000000000000000000000000000000000000000000PES00010000001000000000000000000000000
201705100820000200000000000000014995000000000000000149959900000000000000000000CONSUMIDOR FINAL              000000000004500000000000000000000000000000000000000000000000000000000000000000000000000000000000000000000000000000000000PES00010000001000000000000000000000000
201705100820000200000000000000014996000000000000000149969900000000000000000000CONSUMIDOR FINAL              000000000003500000000000000000000000000000000000000000000000000000000000000000000000000000000000000000000000000000000000PES00010000001000000000000000000000000
201705100820000200000000000000014997000000000000000149979900000000000000000000CONSUMIDOR FINAL              000000000004500000000000000000000000000000000000000000000000000000000000000000000000000000000000000000000000000000000000PES00010000001000000000000000000000000
201705100820000200000000000000014998000000000000000149989900000000000000000000CONSUMIDOR FINAL              000000000008500000000000000000000000000000000000000000000000000000000000000000000000000000000000000000000000000000000000PES00010000001000000000000000000000000
201705100820000200000000000000014999000000000000000149999900000000000000000000CONSUMIDOR FINAL              000000000005500000000000000000000000000000000000000000000000000000000000000000000000000000000000000000000000000000000000PES00010000001000000000000000000000000
201705100820000200000000000000015000000000000000000150009900000000000000000000CONSUMIDOR FINAL              000000000008500000000000000000000000000000000000000000000000000000000000000000000000000000000000000000000000000000000000PES00010000001000000000000000000000000
201705100820000200000000000000015001000000000000000150019900000000000000000000CONSUMIDOR FINAL              000000000010000000000000000000000000000000000000000000000000000000000000000000000000000000000000000000000000000000000000PES00010000001000000000000000000000000
201705100820000200000000000000015002000000000000000150029900000000000000000000CONSUMIDOR FINAL              000000000010000000000000000000000000000000000000000000000000000000000000000000000000000000000000000000000000000000000000PES00010000001000000000000000000000000
201705100820000200000000000000015003000000000000000150039900000000000000000000CONSUMIDOR FINAL              000000000005000000000000000000000000000000000000000000000000000000000000000000000000000000000000000000000000000000000000PES00010000001000000000000000000000000
201705100820000200000000000000015004000000000000000150049900000000000000000000CONSUMIDOR FINAL              000000000014300000000000000000000000000000000000000000000000000000000000000000000000000000000000000000000000000000000000PES00010000001000000000000000000000000
201705100820000200000000000000015005000000000000000150059900000000000000000000CONSUMIDOR FINAL              000000000004000000000000000000000000000000000000000000000000000000000000000000000000000000000000000000000000000000000000PES00010000001000000000000000000000000
201705100820000200000000000000015006000000000000000150069900000000000000000000CONSUMIDOR FINAL              000000000011500000000000000000000000000000000000000000000000000000000000000000000000000000000000000000000000000000000000PES00010000001000000000000000000000000
201705100820000200000000000000015007000000000000000150079900000000000000000000CONSUMIDOR FINAL              000000000008000000000000000000000000000000000000000000000000000000000000000000000000000000000000000000000000000000000000PES00010000001000000000000000000000000
201705100820000200000000000000015008000000000000000150089900000000000000000000CONSUMIDOR FINAL              000000000006500000000000000000000000000000000000000000000000000000000000000000000000000000000000000000000000000000000000PES00010000001000000000000000000000000
201705100820000200000000000000015009000000000000000150099900000000000000000000CONSUMIDOR FINAL              000000000025500000000000000000000000000000000000000000000000000000000000000000000000000000000000000000000000000000000000PES00010000001000000000000000000000000
201705100820000200000000000000015010000000000000000150109900000000000000000000CONSUMIDOR FINAL              000000000025000000000000000000000000000000000000000000000000000000000000000000000000000000000000000000000000000000000000PES00010000001000000000000000000000000
201705110820000200000000000000015011000000000000000150119900000000000000000000CONSUMIDOR FINAL              000000000010000000000000000000000000000000000000000000000000000000000000000000000000000000000000000000000000000000000000PES00010000001000000000000000000000000
201705110820000200000000000000015012000000000000000150129900000000000000000000CONSUMIDOR FINAL              000000000003000000000000000000000000000000000000000000000000000000000000000000000000000000000000000000000000000000000000PES00010000001000000000000000000000000
201705110820000200000000000000015013000000000000000150139900000000000000000000CONSUMIDOR FINAL              000000000007000000000000000000000000000000000000000000000000000000000000000000000000000000000000000000000000000000000000PES00010000001000000000000000000000000
201705110820000200000000000000015014000000000000000150149900000000000000000000CONSUMIDOR FINAL              000000000004500000000000000000000000000000000000000000000000000000000000000000000000000000000000000000000000000000000000PES00010000001000000000000000000000000
201705110820000200000000000000015015000000000000000150159900000000000000000000CONSUMIDOR FINAL              000000000004500000000000000000000000000000000000000000000000000000000000000000000000000000000000000000000000000000000000PES00010000001000000000000000000000000
201705110820000200000000000000015016000000000000000150169900000000000000000000CONSUMIDOR FINAL              000000000008500000000000000000000000000000000000000000000000000000000000000000000000000000000000000000000000000000000000PES00010000001000000000000000000000000
201705110820000200000000000000015017000000000000000150179900000000000000000000CONSUMIDOR FINAL              000000000006000000000000000000000000000000000000000000000000000000000000000000000000000000000000000000000000000000000000PES00010000001000000000000000000000000
201705110820000200000000000000015018000000000000000150189900000000000000000000CONSUMIDOR FINAL              000000000009500000000000000000000000000000000000000000000000000000000000000000000000000000000000000000000000000000000000PES00010000001000000000000000000000000
201705110820000200000000000000015019000000000000000150199900000000000000000000CONSUMIDOR FINAL              000000000006000000000000000000000000000000000000000000000000000000000000000000000000000000000000000000000000000000000000PES00010000001000000000000000000000000
201705110820000200000000000000015020000000000000000150209900000000000000000000CONSUMIDOR FINAL              000000000003500000000000000000000000000000000000000000000000000000000000000000000000000000000000000000000000000000000000PES00010000001000000000000000000000000
201705110820000200000000000000015021000000000000000150219900000000000000000000CONSUMIDOR FINAL              000000000006500000000000000000000000000000000000000000000000000000000000000000000000000000000000000000000000000000000000PES00010000001000000000000000000000000
201705110820000200000000000000015022000000000000000150229900000000000000000000CONSUMIDOR FINAL              000000000009500000000000000000000000000000000000000000000000000000000000000000000000000000000000000000000000000000000000PES00010000001000000000000000000000000
201705110820000200000000000000015023000000000000000150239900000000000000000000CONSUMIDOR FINAL              000000000004000000000000000000000000000000000000000000000000000000000000000000000000000000000000000000000000000000000000PES00010000001000000000000000000000000
201705110820000200000000000000015024000000000000000150249900000000000000000000CONSUMIDOR FINAL              000000000004000000000000000000000000000000000000000000000000000000000000000000000000000000000000000000000000000000000000PES00010000001000000000000000000000000
201705110820000200000000000000015025000000000000000150259900000000000000000000CONSUMIDOR FINAL              000000000004500000000000000000000000000000000000000000000000000000000000000000000000000000000000000000000000000000000000PES00010000001000000000000000000000000
201705110820000200000000000000015027000000000000000150279900000000000000000000CONSUMIDOR FINAL              000000000013000000000000000000000000000000000000000000000000000000000000000000000000000000000000000000000000000000000000PES00010000001000000000000000000000000
201705110820000200000000000000015028000000000000000150289900000000000000000000CONSUMIDOR FINAL              000000000005500000000000000000000000000000000000000000000000000000000000000000000000000000000000000000000000000000000000PES00010000001000000000000000000000000
201705110820000200000000000000015029000000000000000150299900000000000000000000CONSUMIDOR FINAL              000000000007500000000000000000000000000000000000000000000000000000000000000000000000000000000000000000000000000000000000PES00010000001000000000000000000000000
201705110820000200000000000000015030000000000000000150309900000000000000000000CONSUMIDOR FINAL              000000000003000000000000000000000000000000000000000000000000000000000000000000000000000000000000000000000000000000000000PES00010000001000000000000000000000000
201705110820000200000000000000015031000000000000000150319900000000000000000000CONSUMIDOR FINAL              000000000010500000000000000000000000000000000000000000000000000000000000000000000000000000000000000000000000000000000000PES00010000001000000000000000000000000
201705110820000200000000000000015032000000000000000150329900000000000000000000CONSUMIDOR FINAL              000000000026000000000000000000000000000000000000000000000000000000000000000000000000000000000000000000000000000000000000PES00010000001000000000000000000000000
201705110820000200000000000000015033000000000000000150339900000000000000000000CONSUMIDOR FINAL              000000000055500000000000000000000000000000000000000000000000000000000000000000000000000000000000000000000000000000000000PES00010000001000000000000000000000000
201705110820000200000000000000015034000000000000000150349900000000000000000000CONSUMIDOR FINAL              000000000016500000000000000000000000000000000000000000000000000000000000000000000000000000000000000000000000000000000000PES00010000001000000000000000000000000
201705110820000200000000000000015035000000000000000150359900000000000000000000CONSUMIDOR FINAL              000000000004000000000000000000000000000000000000000000000000000000000000000000000000000000000000000000000000000000000000PES00010000001000000000000000000000000
201705110820000200000000000000015036000000000000000150369900000000000000000000CONSUMIDOR FINAL              000000000033600000000000000000000000000000000000000000000000000000000000000000000000000000000000000000000000000000000000PES00010000001000000000000000000000000
201705110820000200000000000000015037000000000000000150379900000000000000000000CONSUMIDOR FINAL              000000000014500000000000000000000000000000000000000000000000000000000000000000000000000000000000000000000000000000000000PES00010000001000000000000000000000000
201705110820000200000000000000015038000000000000000150389900000000000000000000CONSUMIDOR FINAL              000000000010000000000000000000000000000000000000000000000000000000000000000000000000000000000000000000000000000000000000PES00010000001000000000000000000000000
201705110820000200000000000000015039000000000000000150399900000000000000000000CONSUMIDOR FINAL              000000000010500000000000000000000000000000000000000000000000000000000000000000000000000000000000000000000000000000000000PES00010000001000000000000000000000000
201705120820000200000000000000015040000000000000000150409900000000000000000000CONSUMIDOR FINAL              000000000004500000000000000000000000000000000000000000000000000000000000000000000000000000000000000000000000000000000000PES00010000001000000000000000000000000
201705120820000200000000000000015041000000000000000150419900000000000000000000CONSUMIDOR FINAL              000000000003500000000000000000000000000000000000000000000000000000000000000000000000000000000000000000000000000000000000PES00010000001000000000000000000000000
201705120820000200000000000000015042000000000000000150429900000000000000000000CONSUMIDOR FINAL              000000000009000000000000000000000000000000000000000000000000000000000000000000000000000000000000000000000000000000000000PES00010000001000000000000000000000000
201705120820000200000000000000015043000000000000000150439900000000000000000000CONSUMIDOR FINAL              000000000005000000000000000000000000000000000000000000000000000000000000000000000000000000000000000000000000000000000000PES00010000001000000000000000000000000
201705120820000200000000000000015044000000000000000150449900000000000000000000CONSUMIDOR FINAL              000000000004500000000000000000000000000000000000000000000000000000000000000000000000000000000000000000000000000000000000PES00010000001000000000000000000000000
201705120820000200000000000000015045000000000000000150459900000000000000000000CONSUMIDOR FINAL              000000000004000000000000000000000000000000000000000000000000000000000000000000000000000000000000000000000000000000000000PES00010000001000000000000000000000000
201705120820000200000000000000015046000000000000000150469900000000000000000000CONSUMIDOR FINAL              000000000003500000000000000000000000000000000000000000000000000000000000000000000000000000000000000000000000000000000000PES00010000001000000000000000000000000
201705120820000200000000000000015047000000000000000150479900000000000000000000CONSUMIDOR FINAL              000000000006500000000000000000000000000000000000000000000000000000000000000000000000000000000000000000000000000000000000PES00010000001000000000000000000000000
201705120820000200000000000000015048000000000000000150489900000000000000000000CONSUMIDOR FINAL              000000000008000000000000000000000000000000000000000000000000000000000000000000000000000000000000000000000000000000000000PES00010000001000000000000000000000000
201705120820000200000000000000015049000000000000000150499900000000000000000000CONSUMIDOR FINAL              000000000026500000000000000000000000000000000000000000000000000000000000000000000000000000000000000000000000000000000000PES00010000001000000000000000000000000
201705120820000200000000000000015050000000000000000150509900000000000000000000CONSUMIDOR FINAL              000000000026500000000000000000000000000000000000000000000000000000000000000000000000000000000000000000000000000000000000PES00010000001000000000000000000000000
201705120820000200000000000000015051000000000000000150519900000000000000000000CONSUMIDOR FINAL              000000000010500000000000000000000000000000000000000000000000000000000000000000000000000000000000000000000000000000000000PES00010000001000000000000000000000000
201705120820000200000000000000015052000000000000000150529900000000000000000000CONSUMIDOR FINAL              000000000024500000000000000000000000000000000000000000000000000000000000000000000000000000000000000000000000000000000000PES00010000001000000000000000000000000
201705120820000200000000000000015053000000000000000150539900000000000000000000CONSUMIDOR FINAL              000000000008000000000000000000000000000000000000000000000000000000000000000000000000000000000000000000000000000000000000PES00010000001000000000000000000000000
201705120820000200000000000000015054000000000000000150549900000000000000000000CONSUMIDOR FINAL              000000000004500000000000000000000000000000000000000000000000000000000000000000000000000000000000000000000000000000000000PES00010000001000000000000000000000000
201705120820000200000000000000015055000000000000000150559900000000000000000000CONSUMIDOR FINAL              000000000024500000000000000000000000000000000000000000000000000000000000000000000000000000000000000000000000000000000000PES00010000001000000000000000000000000
201705120820000200000000000000015056000000000000000150569900000000000000000000CONSUMIDOR FINAL              000000000017000000000000000000000000000000000000000000000000000000000000000000000000000000000000000000000000000000000000PES00010000001000000000000000000000000
201705120820000200000000000000015057000000000000000150579900000000000000000000CONSUMIDOR FINAL              000000000014500000000000000000000000000000000000000000000000000000000000000000000000000000000000000000000000000000000000PES00010000001000000000000000000000000
201705120820000200000000000000015058000000000000000150589900000000000000000000CONSUMIDOR FINAL              000000000009000000000000000000000000000000000000000000000000000000000000000000000000000000000000000000000000000000000000PES00010000001000000000000000000000000
201705120820000200000000000000015059000000000000000150599900000000000000000000CONSUMIDOR FINAL              000000000013500000000000000000000000000000000000000000000000000000000000000000000000000000000000000000000000000000000000PES00010000001000000000000000000000000
201705120820000200000000000000015060000000000000000150609900000000000000000000CONSUMIDOR FINAL              000000000021500000000000000000000000000000000000000000000000000000000000000000000000000000000000000000000000000000000000PES00010000001000000000000000000000000
201705120820000200000000000000015061000000000000000150619900000000000000000000CONSUMIDOR FINAL              000000000009000000000000000000000000000000000000000000000000000000000000000000000000000000000000000000000000000000000000PES00010000001000000000000000000000000
201705120820000200000000000000015062000000000000000150629900000000000000000000CONSUMIDOR FINAL              000000000013500000000000000000000000000000000000000000000000000000000000000000000000000000000000000000000000000000000000PES00010000001000000000000000000000000
201705120820000200000000000000015063000000000000000150639900000000000000000000CONSUMIDOR FINAL              000000000008500000000000000000000000000000000000000000000000000000000000000000000000000000000000000000000000000000000000PES00010000001000000000000000000000000
201705120820000200000000000000015064000000000000000150649900000000000000000000CONSUMIDOR FINAL              000000000011500000000000000000000000000000000000000000000000000000000000000000000000000000000000000000000000000000000000PES00010000001000000000000000000000000
