201608290010000300000000000000004530                8000000000030711954259MARTINEZ NEUMATICOS SRL       000000000379000000000000000000000000000000000000000000000000000000000000000000000000000000000000000000000000000000000000PES00010000001000000000000000000000000000000000000000000                              000000000000000
201608240010007600000000000000000495                8000000000030644685906SALTA PLAST POLIETILENOS SRL  000000000071054000000000000000000000000000000000000000000000000000000000000000000000002053000000000000000000000000000000PES00010000001000000000000000000000000000000000000000000                              000000000000000
201608230010187300000000000000014522                8000000000030590360763CENCOSUD SA                   000000000097610000000000000000000000000000000000000000002362000000000000000000000000000000000000000000000000000000000000PES00010000001000000000000000000000000000000000000000000                              000000000000000
201608310010188100000000000000014008                8000000000030590360763CENCOSUD SA                   000000000013899000000000000000000000000000000000000000000000000000000000000000000000000000000000000000000000000000000000PES00010000001000000000000000000000000000000000000000000                              000000000000000
201608250010188100000000000000013940                8000000000030590360763CENCOSUD SA                   000000000053700000000000000000000000000000000000000000000000000000000000000000000000000000000000000000000000000000000000PES00010000001000000000000000000000000000000000000000000                              000000000000000
201608120010004900000000000000015143                8000000000030644685906SALTA PLAST POLIETILENOS SRL  000000000058697000000000000000000000000000000000000000000000000000000000000000000000001696000000000000000000000000000000PES00010000001000000000000000000000000000000000000000000                              000000000000000
201607270010002100000000000000049150                8000000000030708334592M LOGISTICA Y DISTRIBUCION SRL000000000020000000000000003547000000000000000000000000000000000000000000000000000000000000000000000000000000000000000000PES00010000001000000000000000000000000000000000000000000                              000000000000000
