201608050010000300000000000000000102000000000000000001028000000000030546221314LA VELOZ DEL NORTE S A        000000001254458000000000000000000000000000000000000000000000000000000000000000000000000000000000000000000000000000000000PES00010000001000000000000000000000000
201608190010000300000000000000000103000000000000000001038000000000030546221314LA VELOZ DEL NORTE S A        000000000913478000000000000000000000000000000000000000000000000000000000000000000000000000000000000000000000000000000000PES00010000001000000000000000000000000
201608150060000300000000000000000037000000000000000000379600000000000033458633VIÑA ALEJANDRO ABEL           000000000110554000000000000000000000000000000000000000000000000000000000000000000000000000000000000000000000000000000000PES00010000001000000000000000020160824
201608190010000300000000000000000104000000000000000001048000000000027100052399SANSONE GRACIELA JOSEFINA     000000000435588000000000000000000000000000000000000000435588000000000000000000000000000000000000000000000000000000000000PES00010000001E00000000000000020160824
201608150060000300000000000000000038000000000000000000389600000000000022856998GIUDICCI NORBERTO DANIEL      000000000130000000000000000000000000000000000000000000130000000000000000000000000000000000000000000000000000000000000000PES00010000001E00000000000000020160824
201608150060000300000000000000000039000000000000000000399600000000000031850669LEGUIZAMON MARIA LAURA        000000000121000000000000000000000000000000000000000000000000000000000000000000000000000000000000000000000000000000000000PES00010000001000000000000000020160824
201608190010000300000000000000000105000000000000000001058000000000020280861740JUAREZ CESCA FERNANDO         000000000293375000000000000000000000000000000000000000293375000000000000000000000000000000000000000000000000000000000000PES00010000001E00000000000000020160824
201608160060000300000000000000000040000000000000000000409600000000000032855963FERNANDEZ ROMINA DANIELA      000000000150817000000000000000000000000000000000000000000000000000000000000000000000000000000000000000000000000000000000PES00010000001000000000000000020160824
201608190010000300000000000000000106000000000000000001068000000000030653431755EMPRESA DE SERVICIOS Y OBRAS S000000000946000000000000000000000000000000000000000000000000000000000000000000000000000000000000000000000000000000000000PES00010000001000000000000000020160824
201608170060000300000000000000000041000000000000000000419600000000000028669951BEGUE MARIA SUSANA DE LA PAZ  000000000231894000000000000000000000000000000000000000000000000000000000000000000000000000000000000000000000000000000000PES00010000001000000000000000020160824
201608190010000300000000000000000107000000000000000001078000000000023221461444CALDERON MARIA VIRGINIA       000000000264890000000000000000000000000000000000000000264890000000000000000000000000000000000000000000000000000000000000PES00010000001E00000000000000020160824
201608220060000300000000000000000042000000000000000000429600000000000032345823VIVAS ARIEL                   000000000160000000000000000000000000000000000000000000160000000000000000000000000000000000000000000000000000000000000000PES00010000001E00000000000000020160824
201608230010000300000000000000000108000000000000000001088000000000030653431755EMPRESA DE SERVICIOS Y OBRAS S000000000900000000000000000000000000000000000000000000000000000000000000000000000000000000000000000000000000000000000000PES00010000001000000000000000020160824
201608240010000300000000000000000109000000000000000001098000000000023221461444CALDERON MARIA VIRGINIA       000000000400000000000000000000000000000000000000000000400000000000000000000000000000000000000000000000000000000000000000PES00010000001E00000000000000020160902
201608240010000300000000000000000110000000000000000001108000000000020280861740JUAREZ CESCA FERNANDO         000000000200000000000000000000000000000000000000000000200000000000000000000000000000000000000000000000000000000000000000PES00010000001E00000000000000020160902
201608250010000300000000000000000111000000000000000001118000000000020260283422GIMENEZ PABLO MATIAS          000000000491000000000000000000000000000000000000000000491000000000000000000000000000000000000000000000000000000000000000PES00010000001E00000000000000020160902
201608290010000300000000000000000112000000000000000001128000000000027100052399SANSONE GRACIELA JOSEFINA     000000000368000000000000000000000000000000000000000000368000000000000000000000000000000000000000000000000000000000000000PES00010000001E00000000000000020160902
