201604300010000100000000000020160401                8000000000030500003193BANCO FRANCES                 000000000002662000000000000000000000000000000000000000000000000000000000000000000000000000000000000000000000000000000000PES00010000001000000000000000000000000000000000000000000                              000000000000000
201604300010000100000000000020160402                8000000000030500003193BANCO FRANCES                 000000000037510000000000000000000000000000000000000000000000000000000000000000000000000000000000000000000000000000000000PES00010000001000000000000000000000000000000000000000000                              000000000000000
201604300010000100000000000020160403                8000000000030500003193BANCO FRANCES                 000000000000220000000000000000000000000000000000000000000000000000000000000000000000000000000000000000000000000000000000PES00010000001000000000000000000000000000000000000000000                              000000000000000
201605310010000100000000000020160501                8000000000030500003193BANCO FRANCES                 000000000003993000000000000000000000000000000000000000000000000000000000000000000000000000000000000000000000000000000000PES00010000001000000000000000000000000000000000000000000                              000000000000000
201605310010000100000000000020160502                8000000000030500003193BANCO FRANCES                 000000000037510000000000000000000000000000000000000000000000000000000000000000000000000000000000000000000000000000000000PES00010000001000000000000000000000000000000000000000000                              000000000000000
201605310010000100000000000020160503                8000000000030500003193BANCO FRANCES                 000000000000348000000000000000000000000000000000000000000000000000000000000000000000000000000000000000000000000000000000PES00010000001000000000000000000000000000000000000000000                              000000000000000
201606300010000100000000000020160601                8000000000030500003193BANCO FRANCES                 000000000003993000000000000000000000000000000000000000000000000000000000000000000000000000000000000000000000000000000000PES00010000001000000000000000000000000000000000000000000                              000000000000000
201606300010000100000000000020160602                8000000000030500003193BANCO FRANCES                 000000000037510000000000000000000000000000000000000000000000000000000000000000000000000000000000000000000000000000000000PES00010000001000000000000000000000000000000000000000000                              000000000000000
201607310010000100000000000020160701                8000000000030500003193BANCO FRANCES                 000000000005457000000000000000000000000000000000000000000000000000000000000000000000000000000000000000000000000000000000PES00010000001000000000000000000000000000000000000000000                              000000000000000
201607310010000100000000000020160702                8000000000030500003193BANCO FRANCES                 000000000037510000000000000000000000000000000000000000000000000000000000000000000000000000000000000000000000000000000000PES00010000001000000000000000000000000000000000000000000                              000000000000000
201608190030000400000000000000000001                8000000000020128382349SANCHEZ SERGIO ALBERTO        000000004951726000000000000000000000000000000000000000000000000000000000000000000000000000000000000000000000000000000000PES00010000001000000000000000000000000000000000000000000                              000000000000000
201608240030000400000000000000000002                8000000000020128382349SANCHEZ SERGIO ALBERTO        000000004899128000000000000000000000000000000000000000000000000000000000000000000000000000000000000000000000000000000000PES00010000001000000000000000000000000000000000000000000                              000000000000000
201608240010000400000000000000000034                8000000000020128382349SANCHEZ SERGIO ALBERTO        000000004899128000000000000000000000000000000000000000000000000000000000000000000000000000000000000000000000000000000000PES00010000001000000000000000000000000000000000000000000                              000000000000000
201608180010000400000000000000000033                8000000000020128382349SANCHEZ SERGIO ALBERTO        000000004951726000000000000000000000000000000000000000000000000000000000000000000000000000000000000000000000000000000000PES00010000001000000000000000000000000000000000000000000                              000000000000000
201608080010000400000000000000000031                8000000000020128382349SANCHEZ SERGIO ALBERTO        000000004903990000000000000000000000000000000000000000000000000000000000000000000000000000000000000000000000000000000000PES00010000001000000000000000000000000000000000000000000                              000000000000000
201608190010000300000000000000000107                8000000000020279743947SOLA ALSINA PABLO ALEJANDRO   000000000264890000000000000000000000000000000000000000000000000000000000000000000000000000000000000000000000000000000000PES00010000001000000000000000000000000000000000000000000                              000000000000000
201608240010000300000000000000000109                8000000000020279743947SOLA ALSINA PABLO ALEJANDRO   000000000400000000000000000000000000000000000000000000000000000000000000000000000000000000000000000000000000000000000000PES00010000001000000000000000000000000000000000000000000                              000000000000000
201608300010000500000000000000012009                8000000000030712259724MORENO Y VENIER SRL           000000000074031000000000000000000000000000000000000000000000000000000000000000000000000000000000000000000000000000000000PES00010000001000000000000000000000000000000000000000000                              000000000000000
201608230010000500000000000000011716                8000000000030712259724MORENO Y VENIER SRL           000000000032020000000000000000000000000000000000000000000000000000000000000000000000000000000000000000000000000000000000PES00010000001000000000000000000000000000000000000000000                              000000000000000
201608160010000500000000000000011437                8000000000030712259724MORENO Y VENIER SRL           000000000078821000000000000000000000000000000000000000000000000000000000000000000000000000000000000000000000000000000000PES00010000001000000000000000000000000000000000000000000                              000000000000000
201608310010000800000000000000002865                8000000000027129998941FRANCO JUANA                  000000000051500000000000000000000000000000000000000000000000000000000000000000000000000000000000000000000000000000000000PES00010000001000000000000000000000000000000000000000000                              000000000000000
201608010010000800000000000000002189                8000000000027129998941FRANCO JUANA                  000000000027000000000000000000000000000000000000000000000000000000000000000000000000000000000000000000000000000000000000PES00010000001000000000000000000000000000000000000000000                              000000000000000
201608290010000100000000000000044768                8000000000033709488959COMERCIAL LIMA SA             000000000042396000000000000000000000000000000000000000000000000000000000000000000000000000000000000000000000000000000000PES00010000001000000000000000000000000000000000000000000                              000000000000000
201608250010000100000000000000044727                8000000000033709488959COMERCIAL LIMA SA             000000000049677000000000000000000000000000000000000000000000000000000000000000000000000000000000000000000000000000000000PES00010000001000000000000000000000000000000000000000000                              000000000000000
201608080010000100000000000000044587                8000000000033709488959COMERCIAL LIMA SA             000000000055177000000000000000000000000000000000000000000000000000000000000000000000000000000000000000000000000000000000PES00010000001000000000000000000000000000000000000000000                              000000000000000
201608180010000500000000000000000776                8000000000027276406774GIORDANO MARIA EUGENIA        000000000020833000000000000000000000000000000000000000000000000000000000000000000000000602000000000000000000000000000000PES00010000001000000000000000000000000000000000000000000                              000000000000000
201606290010001000000000000000000639                8000000000030709168610AVICOLA TORREJON SRL          000000001575000000000000000000000000000000000000000000000000000000000000000000000000000000000000000000000000000000000000PES00010000001000000000000000000000000000000000000000000                              000000000000000
201607300010000100000000000000000399                8000000000027271753158MARIA MARTA BOZOVICH          000000000134700000000000000000000000000000000000000000000000000000000000000000000000000000000000000000000000000000000000PES00010000001000000000000000000000000000000000000000000                              000000000000000
201608300010000100000000000000000417                8000000000027271753158MARIA MARTA BOZOVICH          000000000219000000000000000000000000000000000000000000000000000000000000000000000000000000000000000000000000000000000000PES00010000001000000000000000000000000000000000000000000                              000000000000000
201608170010500200000000000000059474                8000000000030518408689SALTA REFRESCOS SA            000000000214572000000000000000000000000000000000000000000000000000000000000000000000006269000000000000000000000000011457PES00010000001000000000000000000000000000000000000000000                              000000000000000
201608210010315100000000000000003892                8000000000030708772964JUMBO RETAIL ARGENTINA SA     000000000012054000000000000000000000000000000000000000000000000000000000000000000000000000000000000000000000000000000000PES00010000001000000000000000000000000000000000000000000                              000000000000000
201608160010708600000000000000000932                8000000000030708772964JUMBO RETAIL ARGENTINA SA     000000000083352000000000000000000000000000000000000000000000000000000000000000000000000000000000000000000000000000000000PES00010000002000000000000000000000000000000000000000000                              000000000000000
201608160010708600000000001111111932                8000000000030708772964JUMBO RETAIL ARGENTINA SA     000000000032084000000000000000000000000000000000000000000000000000000000000000000000000000000000000000000000000000000000PES00010000001000000000000000000000000000000000000000000                              000000000000000
201608010010000500000000000000000668                8000000000030711953325CAMY SRL                      000000000004124000000000000000000000000000000000000000000000000000000000000000000000000000000000000000000000000000000000PES00010000001000000000000000000000000000000000000000000                              000000000000000
201608120010000300000000000000002347                8000000000030711953325CAMY SRL                      000000000008451000000000000000000000000000000000000000000000000000000000000000000000000000000000000000000000000000000000PES00010000001000000000000000000000000000000000000000000                              000000000000000
201608080010000700000000000000000330                8000000000030711953325CAMY SRL                      000000000011098000000000000000000000000000000000000000000000000000000000000000000000000000000000000000000000000000000000PES00010000001000000000000000000000000000000000000000000                              000000000000000
201608020010000300000000000000002336                8000000000030711953325CAMY SRL                      000000000009249000000000000000000000000000000000000000000000000000000000000000000000000000000000000000000000000000000000PES00010000001000000000000000000000000000000000000000000                              000000000000000
201608110010000500000000000000000677                8000000000030711953325CAMY SRL                      000000000008494000000000000000000000000000000000000000000000000000000000000000000000000000000000000000000000000000000000PES00010000001000000000000000000000000000000000000000000                              000000000000000
201608160010000200000000000000000838                8000000000030711953325CAMY SRL                      000000000003700000000000000000000000000000000000000000000000000000000000000000000000000000000000000000000000000000000000PES00010000001000000000000000000000000000000000000000000                              000000000000000
201608290010000300000000000000002368                8000000000030711953325CAMY SRL                      000000000005498000000000000000000000000000000000000000000000000000000000000000000000000000000000000000000000000000000000PES00010000001000000000000000000000000000000000000000000                              000000000000000
201608230010000700000000000000000348                8000000000030711953325CAMY SRL                      000000000002396000000000000000000000000000000000000000000000000000000000000000000000000000000000000000000000000000000000PES00010000001000000000000000000000000000000000000000000                              000000000000000
201608220010000300000000000000002361                8000000000030711953325CAMY SRL                      000000000008249000000000000000000000000000000000000000000000000000000000000000000000000000000000000000000000000000000000PES00010000001000000000000000000000000000000000000000000                              000000000000000
201608190010000300000000000000002356                8000000000030711953325CAMY SRL                      000000000006025000000000000000000000000000000000000000000000000000000000000000000000000000000000000000000000000000000000PES00010000001000000000000000000000000000000000000000000                              000000000000000
201608260010000200000000000000000844                8000000000030711953325CAMY SRL                      000000000007350000000000000000000000000000000000000000000000000000000000000000000000000000000000000000000000000000000000PES00010000001000000000000000000000000000000000000000000                              000000000000000
201608300010000700000000000000000351                8000000000030711953325CAMY SRL                      000000000005699000000000000000000000000000000000000000000000000000000000000000000000000000000000000000000000000000000000PES00010000001000000000000000000000000000000000000000000                              000000000000000
201608310010000700000000000000000353                8000000000030711953325CAMY SRL                      000000000010051000000000000000000000000000000000000000000000000000000000000000000000000000000000000000000000000000000000PES00010000001000000000000000000000000000000000000000000                              000000000000000
201608010010003200000000000000004458                8000000000030673770483DISTRIBUIDORA VIDT SRL        000000000191283000000000000000000000000000000000000000000000000000000000000000000000000000000000000000000000000000000000PES00010000001000000000000000000000000000000000000000000                              000000000000000
201608050010003200000000000000004467                8000000000030673770483DISTRIBUIDORA VIDT SRL        000000000241831000000000000000000000000000000000000000000000000000000000000000000000000000000000000000000000000000000000PES00010000001000000000000000000000000000000000000000000                              000000000000000
201608020010003200000000000000004460                8000000000030673770483DISTRIBUIDORA VIDT SRL        000000000011858000000000000000000000000000000000000000000000000000000000000000000000000000000000000000000000000000000000PES00010000001000000000000000000000000000000000000000000                              000000000000000
201608080010003200000000000000004475                8000000000030673770483DISTRIBUIDORA VIDT SRL        000000000107803000000000000000000000000000000000000000000000000000000000000000000000000000000000000000000000000000000000PES00010000001000000000000000000000000000000000000000000                              000000000000000
201608180010003200000000000000004500                8000000000030673770483DISTRIBUIDORA VIDT SRL        000000000075641000000000000000000000000000000000000000000000000000000000000000000000000000000000000000000000000000000000PES00010000001000000000000000000000000000000000000000000                              000000000000000
201608120010003200000000000000004488                8000000000030673770483DISTRIBUIDORA VIDT SRL        000000000231241000000000000000000000000000000000000000000000000000000000000000000000000000000000000000000000000000000000PES00010000001000000000000000000000000000000000000000000                              000000000000000
201608290010003200000000000000004520                8000000000030673770483DISTRIBUIDORA VIDT SRL        000000000047769000000000000000000000000000000000000000000000000000000000000000000000000000000000000000000000000000000000PES00010000001000000000000000000000000000000000000000000                              000000000000000
201608200010001200000000000000042269                8000000000030673770483DISTRIBUIDORA VIDT SRL        000000000293896000000000000000000000000000000000000000000000000000000000000000000000000000000000000000000000000000000000PES00010000001000000000000000000000000000000000000000000                              000000000000000
201608310010003200000000000000004523                8000000000030673770483DISTRIBUIDORA VIDT SRL        000000000290765000000000000000000000000000000000000000000000000000000000000000000000000000000000000000000000000000000000PES00010000001000000000000000000000000000000000000000000                              000000000000000
201608300010007200000000000000001306                8000000000030700082101DAMESCO SA                    000000000018626000000000000000000000000000000000000000000000000000000000000000000000000000000000000000000000000000000000PES00010000002000000000000000000000000000000000000000000                              000000000000000
201608300010007200000000011111111306                8000000000030700082101DAMESCO SA                    000000000001062000000000000000000000000000000000000000000000000000000000000000000000000000000000000000000000000000000000PES00010000001000000000000000000000000000000000000000000                              000000000000000
201608200010007200000000000000001291                8000000000030700082101DAMESCO SA                    000000000011435000000000000000000000000000000000000000000000000000000000000000000000000000000000000000000000000000000000PES00010000001000000000000000000000000000000000000000000                              000000000000000
201608090010007000000000000000001518                8000000000030700082101DAMESCO SA                    000000000046124000000000000000000000000000000000000000000000000000000000000000000000000000000000000000000000000000000000PES00010000002000000000000000000000000000000000000000000                              000000000000000
201608090010007000000000011111111518                8000000000030700082101DAMESCO SA                    000000000005524000000000000000000000000000000000000000000000000000000000000000000000000000000000000000000000000000000000PES00010000001000000000000000000000000000000000000000000                              000000000000000
201608140010006800000000000000000375                8000000000030700082101DAMESCO SA                    000000000016451000000000000000000000000000000000000000000000000000000000000000000000000000000000000000000000000000000000PES00010000002000000000000000000000000000000000000000000                              000000000000000
201608140010006800000000001111111375                8000000000030700082101DAMESCO SA                    000000000002928000000000000000000000000000000000000000000000000000000000000000000000000000000000000000000000000000000000PES00010000001000000000000000000000000000000000000000000                              000000000000000
201608090010007000000000000000001517                8000000000030700082101DAMESCO SA                    000000000027766000000000000000000000000000000000000000000000000000000000000000000000000000000000000000000000000000000000PES00010000002000000000000000000000000000000000000000000                              000000000000000
201608090010007000000000001111111517                8000000000030700082101DAMESCO SA                    000000000002656000000000000000000000000000000000000000000000000000000000000000000000000000000000000000000000000000000000PES00010000001000000000000000000000000000000000000000000                              000000000000000
201608270010007200000000000000001300                8000000000030700082101DAMESCO SA                    000000000024910000000000000000000000000000000000000000000000000000000000000000000000000000000000000000000000000000000000PES00010000002000000000000000000000000000000000000000000                              000000000000000
201608270010007200000000000111111300                8000000000030700082101DAMESCO SA                    000000000002501000000000000000000000000000000000000000000000000000000000000000000000000000000000000000000000000000000000PES00010000001000000000000000000000000000000000000000000                              000000000000000
201608190010007200000000000000001289                8000000000030700082101DAMESCO SA                    000000000013653000000000000000000000000000000000000000000000000000000000000000000000000000000000000000000000000000000000PES00010000002000000000000000000000000000000000000000000                              000000000000000
201608190010007200000000001111111289                8000000000030700082101DAMESCO SA                    000000000011141000000000000000000000000000000000000000000000000000000000000000000000000000000000000000000000000000000000PES00010000001000000000000000000000000000000000000000000                              000000000000000
201608310010339500000000000000039102                8000000000030678774495OPERADORA DE ESTACIONES DE SER000000000085014000000000021989000000000000000000000000000000000000000000000000000000000000000000000000000000000000000000PES00010000001000000000000000000000000000000000000000000                              000000000000000
201608030010358400000000000000019310                8000000000030678774495OPERADORA DE ESTACIONES DE SER000000000030001000000000007759000000000000000000000000000000000000000000000000000000000000000000000000000000000000000000PES00010000001000000000000000000000000000000000000000000                              000000000000000
201608140010358400000000000000019820                8000000000030678774495OPERADORA DE ESTACIONES DE SER000000000020003000000000005173000000000000000000000000000000000000000000000000000000000000000000000000000000000000000000PES00010000001000000000000000000000000000000000000000000                              000000000000000
201608230010324700000000000000048176                8000000000030678774495OPERADORA DE ESTACIONES DE SER000000000056822000000000014696000000000000000000000000000000000000000000000000000000000000000000000000000000000000000000PES00010000001000000000000000000000000000000000000000000                              000000000000000
201608180010358400000000000000020047                8000000000030678774495OPERADORA DE ESTACIONES DE SER000000000040001000000000010346000000000000000000000000000000000000000000000000000000000000000000000000000000000000000000PES00010000001000000000000000000000000000000000000000000                              000000000000000
201608300010358400000000000000020530                8000000000030678774495OPERADORA DE ESTACIONES DE SER000000000020003000000000005173000000000000000000000000000000000000000000000000000000000000000000000000000000000000000000PES00010000001000000000000000000000000000000000000000000                              000000000000000
201608090010000200000000000000008359                8000000000030711644543CARNES LA FLORIDA SRL         000000000700000000000000000000000000000000000000000000000000000000000000000000000000000000000000000000000000000000000000PES00010000001000000000000000000000000000000000000000000                              000000000000000
201608230010000200000000000000008476                8000000000030711644543CARNES LA FLORIDA SRL         000000000430000000000000000000000000000000000000000000000000000000000000000000000000000000000000000000000000000000000000PES00010000001000000000000000000000000000000000000000000                              000000000000000
201608070010000900000000000000020974                8000000000030708530294AMARU SRL                     000000000020000000000000003542000000000000000000000000000000000000000000000000000000000000000000000000000000000000000000PES00010000001000000000000000000000000000000000000000000                              000000000000000
201608190010000900000000000000021688                8000000000030708530294AMARU SRL                     000000000020001000000000004559000000000000000000000000000000000000000000000000000000000000000000000000000000000000000000PES00010000001000000000000000000000000000000000000000000                              000000000000000
201608060010001500000000000000027663                8000000000030543365846ESTACION DE SERVICIO FLORENCIA000000000081014000000000013123000000000000000000000000000000000000000000000000000000000000000000000000000000000000000000PES00010000001000000000000000000000000000000000000000000                              000000000000000
201608160010001400000000000000031412                8000000000030543365846ESTACION DE SERVICIO FLORENCIA000000000029999000000000005583000000000000000000000000000000000000000000000000000000000000000000000000000000000000000000PES00010000001000000000000000000000000000000000000000000                              000000000000000
201608230010002700000000000000022395                8000000000020104120084JOSE ALFREDO DOMINGUEZ        000000000050009000000000011835000000000000000000000000000000000000000000000000000000000000000000000000000000000000000000PES00010000001000000000000000000000000000000000000000000                              000000000000000
201608270010001800000000000000072211                8000000000020104120084JOSE ALFREDO DOMINGUEZ        000000000030000000000000007102000000000000000000000000000000000000000000000000000000000000000000000000000000000000000000PES00010000001000000000000000000000000000000000000000000                              000000000000000
201608120010002600000000000000040568                8000000000030563516573SUCESORES DE ROBERTO SAMAN SRL000000000020001000000000004949000000000000000000000000000000000000000000000000000000000000000000000000000000000000000000PES00010000001000000000000000000000000000000000000000000                              000000000000000
201608230010002600000000000000041685                8000000000030563516573SUCESORES DE ROBERTO SAMAN SRL000000000009999000000000002474000000000000000000000000000000000000000000000000000000000000000000000000000000000000000000PES00010000001000000000000000000000000000000000000000000                              000000000000000
201608180010002600000000000000041180                8000000000030563516573SUCESORES DE ROBERTO SAMAN SRL000000000009999000000000002474000000000000000000000000000000000000000000000000000000000000000000000000000000000000000000PES00010000001000000000000000000000000000000000000000000                              000000000000000
201608110010002200000000000000076542                8000000000033611226689JACARANDA SA                  000000000020000000000000005173000000000000000000000000000000000000000000000000000000000000000000000000000000000000000000PES00010000001000000000000000000000000000000000000000000                              000000000000000
201608190010001200000000000000000613                8000000000030710266529CHEVRO NOA SRL                000000000064000000000000000000000000000000000000000000000000000000000000000000000000000000000000000000000000000000000000PES00010000001000000000000000000000000000000000000000000                              000000000000000
