201701020010000700000000000000002046000000000000000020468000000000020163082609Basso Danilo Miguel           000000000085041000000000000000000000000000000000000000000000000000000000000000000000000000000000000000000000000000000000PES00010000001000000000000000020170102
201701020010000700000000000000002047000000000000000020478000000000030712529306Cuna Producciones SRL         000000000022007000000000000000000000000000000000000000000000000000000000000000000000000000000000000000000000000000000000PES00010000001000000000000000020170102
201701020010000700000000000000002048000000000000000020488000000000030711383693Grinfil SRL                   000000000055080000000000000000000000000000000000000000000000000000000000000000000000000000000000000000000000000000000000PES00010000001000000000000000020170102
201701020010000700000000000000002049000000000000000020498000000000023282619814Martinez Analia               000000000079176000000000000000000000000000000000000000000000000000000000000000000000000000000000000000000000000000000000PES00010000001000000000000000020170102
201701020010000700000000000000002050000000000000000020508000000000030707360417Finca Santa Rosa SRL          000000000232028000000000000000000000000000000000000000000000000000000000000000000000000000000000000000000000000000000000PES00010000001000000000000000020170102
201701020010000700000000000000002051000000000000000020518000000000030714542083Exa Group SRL                 000000000079069000000000000000000000000000000000000000000000000000000000000000000000000000000000000000000000000000000000PES00010000001000000000000000020170102
201701020010000700000000000000002052000000000000000020528000000000030714542083Exa Group SRL                 000000000013600000000000000000000000000000000000000000000000000000000000000000000000000000000000000000000000000000000000PES00010000001000000000000000020170102
201701020010000700000000000000002053000000000000000020538000000000020203999519Delta Computacion             000000000036996000000000000000000000000000000000000000000000000000000000000000000000000000000000000000000000000000000000PES00010000001000000000000000020170102
201701020060000700000000000000000433000000000000000004338000000000030999284651Policia de Salta              000000001233261000000000000000000000000000000000000000000000000000000000000000000000000000000000000000000000000000000000PES00010000001000000000000000020170102
201701020060000400000000000000001369000000000000000013698000000000020000000001Consumidor Final              000000001093701000000000000000000000000000000000000000000000000000000000000000000000000000000000000000000000000000000000PES00010000001000000000000000020170102
201701030010000700000000000000002054000000000000000020548000000000030714762199Grupo Aniceto SRL             000000000162252000000000000000000000000000000000000000000000000000000000000000000000000000000000000000000000000000000000PES00010000001000000000000000020170103
201701030010000700000000000000002055000000000000000020558000000000020163082609Basso Danilo Miguel           000000000017011000000000000000000000000000000000000000000000000000000000000000000000000000000000000000000000000000000000PES00010000001000000000000000020170103
201701030010000700000000000000002056000000000000000020568000000000030714054313Cafrubar SRL                  000000000046834000000000000000000000000000000000000000000000000000000000000000000000000000000000000000000000000000000000PES00010000001000000000000000020170103
201701030010000700000000000000002057000000000000000020578000000000030540618263Banco Masventas SA            000000000152704000000000000000000000000000000000000000000000000000000000000000000000000000000000000000000000000000000000PES00010000001000000000000000020170103
201701030010000700000000000000002058000000000000000020588000000000023121455374Rasero Edith                  000000000080002000000000000000000000000000000000000000000000000000000000000000000000000000000000000000000000000000000000PES00010000001000000000000000020170103
201701030010000700000000000000002059000000000000000020598000000000030708835559Estacion Vicion srl           000000000100385000000000000000000000000000000000000000000000000000000000000000000000000000000000000000000000000000000000PES00010000001000000000000000020170103
201701030010000700000000000000002060000000000000000020608000000000023072173589Arroyo Victor Abel            000000000009605000000000000000000000000000000000000000000000000000000000000000000000000000000000000000000000000000000000PES00010000001000000000000000020170103
201701030060000400000000000000001370000000000000000013708000000000020000000001Consumidor Final              000000001562800000000000000000000000000000000000000000000000000000000000000000000000000000000000000000000000000000000000PES00010000001000000000000000020170103
201701040010000700000000000000002061000000000000000020618000000000020290923515Rivarola Ruben Eduardo        000000000026861000000000000000000000000000000000000000000000000000000000000000000000000000000000000000000000000000000000PES00010000001000000000000000020170104
201701040010000700000000000000002062000000000000000020628000000000030710253273Villanueva e Hijos SA         000000000010897000000000000000000000000000000000000000000000000000000000000000000000000000000000000000000000000000000000PES00010000001000000000000000020170104
201701040010000700000000000000002063000000000000000020638000000000020137451922Garin Juan Pedro              000000000004550000000000000000000000000000000000000000000000000000000000000000000000000000000000000000000000000000000000PES00010000001000000000000000020170104
201701040010000700000000000000002064000000000000000020648000000000020137451922Garin Juan Pedro              000000000008160000000000000000000000000000000000000000000000000000000000000000000000000000000000000000000000000000000000PES00010000001000000000000000020170104
201701040010000700000000000000002065000000000000000020658000000000030693459245Hoyts General Cinema          000000000022184000000000000000000000000000000000000000000000000000000000000000000000000000000000000000000000000000000000PES00010000001000000000000000020170104
201701040010000700000000000000002066000000000000000020668000000000020177929884Esteban Fonzalida Sergio      000000000073956000000000000000000000000000000000000000000000000000000000000000000000000000000000000000000000000000000000PES00010000001000000000000000020170104
201701040010000700000000000000002067000000000000000020678000000000027239938170Arrieta Mariela Edith         000000000017472000000000000000000000000000000000000000000000000000000000000000000000000000000000000000000000000000000000PES00010000001000000000000000020170104
201701040010000700000000000000002068000000000000000020688000000000030710586140A G Emprendimientos SRL       000000000010199000000000000000000000000000000000000000000000000000000000000000000000000000000000000000000000000000000000PES00010000001000000000000000020170104
201701040010000700000000000000002069000000000000000020698000000000030711560099Hospital Publico Materno      000000000005525000000000000000000000000000000000000000000000000000000000000000000000000000000000000000000000000000000000PES00010000001000000000000000020170104
201701040010000700000000000000002070000000000000000020708000000000020126952903Sapunar Esteban               000000000058512000000000000000000000000000000000000000000000000000000000000000000000000000000000000000000000000000000000PES00010000001000000000000000020170104
201701040060000700000000000000000434000000000000000004348000000000030656747834Municipalidad de San Lore     000000000240006000000000000000000000000000000000000000000000000000000000000000000000000000000000000000000000000000000000PES00010000001000000000000000020170104
201701040060000700000000000000000435000000000000000004358000000000030656747834Municipalidad de San Lore     000000000088992000000000000000000000000000000000000000000000000000000000000000000000000000000000000000000000000000000000PES00010000001000000000000000020170104
201701040060000700000000000000000436000000000000000004368000000000030656747834Municipalidad de San Lore     000000000065280000000000000000000000000000000000000000000000000000000000000000000000000000000000000000000000000000000000PES00010000001000000000000000020170104
201701040060000700000000000000000437000000000000000004378000000000030656747834Municipalidad de San Lore     000000000066640000000000000000000000000000000000000000000000000000000000000000000000000000000000000000000000000000000000PES00010000001000000000000000020170104
201701040060000700000000000000000438000000000000000004388000000000030656747834Municipalidad de San Lore     000000000081855000000000000000000000000000000000000000000000000000000000000000000000000000000000000000000000000000000000PES00010000001000000000000000020170104
201701040060000700000000000000000439000000000000000004398000000000030656747834Municipalidad de San Lore     000000000034255000000000000000000000000000000000000000000000000000000000000000000000000000000000000000000000000000000000PES00010000001000000000000000020170104
201701040060000700000000000000000440000000000000000004408000000000030656747834Municipalidad de San Lore     000000000167747000000000000000000000000000000000000000000000000000000000000000000000000000000000000000000000000000000000PES00010000001000000000000000020170104
201701040060000700000000000000000441000000000000000004418000000000030656747834Municipalidad de San Lore     000000000091800000000000000000000000000000000000000000000000000000000000000000000000000000000000000000000000000000000000PES00010000001000000000000000020170104
201701040060000700000000000000000442000000000000000004428000000000030656747834Municipalidad de San Lore     000000013755555000000000000000000000000000000000000000000000000000000000000000000000000000000000000000000000000000000000PES00010000001000000000000000020170104
201701040060000400000000000000001371000000000000000013718000000000020000000001Consumidor Final              000000001118600000000000000000000000000000000000000000000000000000000000000000000000000000000000000000000000000000000000PES00010000001000000000000000020170104
201701050010000700000000000000002071000000000000000020718000000000020137451922Garin Juan Pedro              000000000008160000000000000000000000000000000000000000000000000000000000000000000000000000000000000000000000000000000000PES00010000001000000000000000020170105
201701050010000700000000000000002072000000000000000020728000000000030708835559Estacion Vicion srl           000000000080002000000000000000000000000000000000000000000000000000000000000000000000000000000000000000000000000000000000PES00010000001000000000000000020170105
201701050010000700000000000000002073000000000000000020738000000000030714762199Grupo Aniceto SRL             000000000189811000000000000000000000000000000000000000000000000000000000000000000000000000000000000000000000000000000000PES00010000001000000000000000020170105
201701050010000700000000000000002074000000000000000020748000000000030708487585Agriturismo SRL               000000000009976000000000000000000000000000000000000000000000000000000000000000000000000000000000000000000000000000000000PES00010000001000000000000000020170105
201701050010000700000000000000002075000000000000000020758000000000030708389443La Peatonal SRL               000000000048705000000000000000000000000000000000000000000000000000000000000000000000000000000000000000000000000000000000PES00010000001000000000000000020170105
201701050010000700000000000000002076000000000000000020768000000000027163342451Ramirez  Alcia                000000000014450000000000000000000000000000000000000000000000000000000000000000000000000000000000000000000000000000000000PES00010000001000000000000000020170105
201701050010000700000000000000002077000000000000000020778000000000020280960226Iglesias Lucas Pedro          000000000041438000000000000000000000000000000000000000000000000000000000000000000000000000000000000000000000000000000000PES00010000001000000000000000020170105
201701050010000700000000000000002078000000000000000020788000000000020141766350Astudillo  Cesar Alejandr     000000000013174000000000000000000000000000000000000000000000000000000000000000000000000000000000000000000000000000000000PES00010000001000000000000000020170105
201701050060000700000000000000000443000000000000000004438000000000030539032646Club 20 de Febrero            000000000019012000000000000000000000000000000000000000000000000000000000000000000000000000000000000000000000000000000000PES00010000001000000000000000020170105
201701050060000700000000000000000444000000000000000004448000000000030999284651Policia de Salta              000000001240120000000000000000000000000000000000000000000000000000000000000000000000000000000000000000000000000000000000PES00010000001000000000000000020170105
201701050060000400000000000000001372000000000000000013728000000000020000000001Consumidor Final              000000001063403000000000000000000000000000000000000000000000000000000000000000000000000000000000000000000000000000000000PES00010000001000000000000000020170105
201701060010000700000000000000002079000000000000000020798000000000030711383693Grinfil SRL                   000000000070055000000000000000000000000000000000000000000000000000000000000000000000000000000000000000000000000000000000PES00010000001000000000000000020170106
201701060010000700000000000000002080000000000000000020808000000000030708024313Denki Ingenieria SRL          000000000008515000000000000000000000000000000000000000000000000000000000000000000000000000000000000000000000000000000000PES00010000001000000000000000020170106
201701060010000700000000000000002081000000000000000020818000000000030712529306Cuna Producciones SRL         000000000025012000000000000000000000000000000000000000000000000000000000000000000000000000000000000000000000000000000000PES00010000001000000000000000020170106
201701060010000700000000000000002082000000000000000020828000000000030714762199Grupo Aniceto SRL             000000000068214000000000000000000000000000000000000000000000000000000000000000000000000000000000000000000000000000000000PES00010000001000000000000000020170106
201701060060000700000000000000000445000000000000000004458000000000030714850349Secretaria de Obras publi     000000000024212000000000000000000000000000000000000000000000000000000000000000000000000000000000000000000000000000000000PES00010000001000000000000000020170106
201701060060000700000000000000000446000000000000000004468000000000020000000001Aida del Pin                  000000002250556000000000000000000000000000000000000000000000000000000000000000000000000000000000000000000000000000000000PES00010000001000000000000000020170106
201701060060000700000000000000000447000000000000000004478000000000020000000001Doric Lorena                  000000002250556000000000000000000000000000000000000000000000000000000000000000000000000000000000000000000000000000000000PES00010000001000000000000000020170106
201701060060000400000000000000001373000000000000000013738000000000020000000001Consumidor Final              000000001490100000000000000000000000000000000000000000000000000000000000000000000000000000000000000000000000000000000000PES00010000001000000000000000020170106
201701070010000700000000000000002083000000000000000020838000000000033710311159Pacific Trade SRL             000000000009775000000000000000000000000000000000000000000000000000000000000000000000000000000000000000000000000000000000PES00010000001000000000000000020170107
201701070010000700000000000000002084000000000000000020848000000000030709608688Brisar SRL                    000000000003740000000000000000000000000000000000000000000000000000000000000000000000000000000000000000000000000000000000PES00010000001000000000000000020170107
201701070010000700000000000000002085000000000000000020858000000000027006586762Sucesion Marocco Irma         000000000055500000000000000000000000000000000000000000000000000000000000000000000000000000000000000000000000000000000000PES00010000001000000000000000020170107
201701070010000700000000000000002086000000000000000020868000000000030714762199Grupo Aniceto SRL             000000000105399000000000000000000000000000000000000000000000000000000000000000000000000000000000000000000000000000000000PES00010000001000000000000000020170107
201701070060000400000000000000001374000000000000000013748000000000020000000001Consumidor Final              000000000731601000000000000000000000000000000000000000000000000000000000000000000000000000000000000000000000000000000000PES00010000001000000000000000020170107
201701090010000700000000000000002087000000000000000020878000000000023072411889Rigo Spartaco León            000000000016000000000000000000000000000000000000000000000000000000000000000000000000000000000000000000000000000000000000PES00010000001000000000000000020170109
201701090010000700000000000000002088000000000000000020888000000000020162972147Chuquisaca Victor             000000000029343000000000000000000000000000000000000000000000000000000000000000000000000000000000000000000000000000000000PES00010000001000000000000000020170109
201701090010000700000000000000002089000000000000000020898000000000030693459245Hoyts General Cinema          000000000053711000000000000000000000000000000000000000000000000000000000000000000000000000000000000000000000000000000000PES00010000001000000000000000020170109
201701090010000700000000000000002090000000000000000020908000000000030693459245Hoyts General Cinema          000000000016659000000000000000000000000000000000000000000000000000000000000000000000000000000000000000000000000000000000PES00010000001000000000000000020170109
201701090010000700000000000000002091000000000000000020918000000000030700051362Neca s.r.l.                   000000000351450000000000000000000000000000000000000000000000000000000000000000000000000000000000000000000000000000000000PES00010000001000000000000000020170109
201701090010000700000000000000002092000000000000000020928000000000030700051362Neca s.r.l.                   000000000308080000000000000000000000000000000000000000000000000000000000000000000000000000000000000000000000000000000000PES00010000001000000000000000020170109
201701090010000700000000000000002093000000000000000020938000000000030711383693Grinfil SRL                   000000000038249000000000000000000000000000000000000000000000000000000000000000000000000000000000000000000000000000000000PES00010000001000000000000000020170109
201701090010000700000000000000002094000000000000000020948000000000030655684421Luxem  s.r.l.                 000000002876360000000000000000000000000000000000000000000000000000000000000000000000000000000000000000000000000000000000PES00010000001000000000000000020170109
201701090010000700000000000000002095000000000000000020958000000000030712350527AGV Falcon Drilling SRL       000000000091408000000000000000000000000000000000000000000000000000000000000000000000000000000000000000000000000000000000PES00010000001000000000000000020170109
201701090010000700000000000000002096000000000000000020968000000000030712350527AGV Falcon Drilling SRL       000000000145265000000000000000000000000000000000000000000000000000000000000000000000000000000000000000000000000000000000PES00010000001000000000000000020170109
201701090010000700000000000000002097000000000000000020978000000000030712350527AGV Falcon Drilling SRL       000000005408134000000000000000000000000000000000000000000000000000000000000000000000000000000000000000000000000000000000PES00010000001000000000000000020170109
201701090010000700000000000000002098000000000000000020988000000000027206095844Lozada Claudia Isabel         000000002216500000000000000000000000000000000000000000000000000000000000000000000000000000000000000000000000000000000000PES00010000001000000000000000020170109
201701090010000700000000000000002099000000000000000020998000000000027206095844Lozada Claudia Isabel         000000000517586000000000000000000000000000000000000000000000000000000000000000000000000000000000000000000000000000000000PES00010000001000000000000000020170109
201701090010000700000000000000002100000000000000000021008000000000030675369530Emprendimiento Rio Grande     000000000026784000000000000000000000000000000000000000000000000000000000000000000000000774000000000000000000000000000000PES00010000001000000000000000020170109
201701090010000700000000000000002101000000000000000021018000000000023121455374Rasero Edith                  000000000004506000000000000000000000000000000000000000000000000000000000000000000000000000000000000000000000000000000000PES00010000001000000000000000020170109
201701090060000700000000000000000448000000000000000004488000000000030650219097Caja de Prevision Social      000000000050001000000000000000000000000000000000000000050001000000000000000000000000000000000000000000000000000000000000PES00010000001000000000000000020170109
201701090060000700000000000000000449000000000000000004498000000000030539032646Club 20 de Febrero            000000000033840000000000000000000000000000000000000000000000000000000000000000000000000000000000000000000000000000000000PES00010000001000000000000000020170109
201701090060000700000000000000000450000000000000000004508000000000030571753592Consorcio San  Barnardo       000000000017530000000000000000000000000000000000000000000000000000000000000000000000000000000000000000000000000000000000PES00010000001000000000000000020170109
201701090060000400000000000000001375000000000000000013758000000000020000000001Consumidor Final              000000003840362000000000000000000000000000000000000000000000000000000000000000000000000000000000000000000000000000000000PES00010000001000000000000000020170109
201701100010000700000000000000002102000000000000000021028000000000030700082101Damesco s.a.                  000000000741768000000000000000000000000000000000000000000000000000000000000000000000000000000000000000000000000000000000PES00010000001000000000000000020170110
201701100010000700000000000000002103000000000000000021038000000000033709430209O y S Ingenieria S.R.L        000000001564156000000000000000000000000000000000000000000000000000000000000000000000000000000000000000000000000000000000PES00010000001000000000000000020170110
201701100010000700000000000000002104000000000000000021048000000000033709430209O y S Ingenieria S.R.L        000000001393066000000000000000000000000000000000000000000000000000000000000000000000000000000000000000000000000000000000PES00010000001000000000000000020170110
201701100010000700000000000000002105000000000000000021058000000000030712000585Conting SRL                   000000004440535000000000000000000000000000000000000000000000000000000000000000000000000000000000000000000000000000000000PES00010000001000000000000000020170110
201701100010000700000000000000002106000000000000000021068000000000030712000585Conting SRL                   000000001328468000000000000000000000000000000000000000000000000000000000000000000000000000000000000000000000000000000000PES00010000001000000000000000020170110
201701100010000700000000000000002107000000000000000021078000000000030708835559Estacion Vision SRL           000000000115002000000000000000000000000000000000000000000000000000000000000000000000000000000000000000000000000000000000PES00010000001000000000000000020170110
201701100010000700000000000000002108000000000000000021088000000000030714542083Exa Group SRL                 000000000022016000000000000000000000000000000000000000000000000000000000000000000000000000000000000000000000000000000000PES00010000001000000000000000020170110
201701100060000700000000000000000451000000000000000004518000000000030715126628Ministerio de Asuntos Ind     000000000012563000000000000000000000000000000000000000000000000000000000000000000000000000000000000000000000000000000000PES00010000001000000000000000020170110
201701100030000700000000000000000021000000000000000000218000000000030712000585Conting SRL                   000000000175950000000000000000000000000000000000000000000000000000000000000000000000000000000000000000000000000000000000PES00010000001000000000000000020170110
201701100080000700000000000000000003000000000000000000038000000000030656747834Municipalidad de San Lore     000000000550000000000000550000000000000000000000000000000000000000000000000000000000000000000000000000000000000000000000PES00010000001000000000000000020170110
201701100060000400000000000000001376000000000000000013768000000000020000000001Consumidor Final              000000000516301000000000000000000000000000000000000000000000000000000000000000000000000000000000000000000000000000000000PES00010000001000000000000000020170110
201701110010000700000000000000002109000000000000000021098000000000020173554894Lopez Haroldo                 000000000038505000000000000000000000000000000000000000000000000000000000000000000000000000000000000000000000000000000000PES00010000001000000000000000020170111
201701110010000700000000000000002110000000000000000021108000000000033710311159Pacific Trade SRL             000000000274154000000000000000000000000000000000000000000000000000000000000000000000000000000000000000000000000000000000PES00010000001000000000000000020170111
201701110010000700000000000000002111000000000000000021118000000000027306367507Fernandez Molina Virginia     000000000062399000000000000000000000000000000000000000000000000000000000000000000000000000000000000000000000000000000000PES00010000001000000000000000020170111
201701110010000700000000000000002112000000000000000021128000000000027306367507Fernandez Molina Virginia     000000000016000000000000000000000000000000000000000000000000000000000000000000000000000000000000000000000000000000000000PES00010000001000000000000000020170111
201701110010000700000000000000002113000000000000000021138000000000033710311159Pacific Trade SRL             000000000009096000000000000000000000000000000000000000000000000000000000000000000000000000000000000000000000000000000000PES00010000001000000000000000020170111
201701110010000700000000000000002114000000000000000021148000000000030585579544Sanatorio Parque s.a          000000000447289000000000000000000000000000000000000000000000000000000000000000000000000000000000000000000000000000000000PES00010000001000000000000000020170111
201701110010000700000000000000002115000000000000000021158000000000030585579544Sanatorio Parque s.a          000000000483874000000000000000000000000000000000000000000000000000000000000000000000000000000000000000000000000000000000PES00010000001000000000000000020170111
201701110010000700000000000000002116000000000000000021168000000000030711055521Condominio Suaina             000000000080002000000000000000000000000000000000000000000000000000000000000000000000000000000000000000000000000000000000PES00010000001000000000000000020170111
201701110010000700000000000000002117000000000000000021178000000000030585579544Sanatorio Parque s.a          000000000461201000000000000000000000000000000000000000000000000000000000000000000000000000000000000000000000000000000000PES00010000001000000000000000020170111
201701110010000700000000000000002118000000000000000021188000000000030585579544Sanatorio Parque s.a          000000000597201000000000000000000000000000000000000000000000000000000000000000000000000000000000000000000000000000000000PES00010000001000000000000000020170111
201701110010000700000000000000002119000000000000000021198000000000030585579544Sanatorio Parque s.a          000000000297639000000000000000000000000000000000000000000000000000000000000000000000000000000000000000000000000000000000PES00010000001000000000000000020170111
201701110010000700000000000000002120000000000000000021208000000000030585579544Sanatorio Parque s.a          000000000485357000000000000000000000000000000000000000000000000000000000000000000000000000000000000000000000000000000000PES00010000001000000000000000020170111
201701110010000700000000000000002121000000000000000021218000000000030709224901Rac Contrucciones SRL         000000000008148000000000000000000000000000000000000000000000000000000000000000000000000000000000000000000000000000000000PES00010000001000000000000000020170111
201701110010000700000000000000002122000000000000000021228000000000030651863658Construir SA                  000000000048194000000000000000000000000000000000000000000000000000000000000000000000000000000000000000000000000000000000PES00010000001000000000000000020170111
201701110010000700000000000000002123000000000000000021238000000000030708835559Estacion Vision SRL           000000000048001000000000000000000000000000000000000000000000000000000000000000000000000000000000000000000000000000000000PES00010000001000000000000000020170111
201701110010000700000000000000002124000000000000000021248000000000030687310434INC. S. A                     000000000049666000000000000000000000000000000000000000000000000000000000000000000000000000000000000000000000000000000000PES00010000001000000000000000020170111
201701110010000700000000000000002125000000000000000021258000000000020339275557Perez Mauricio                000000000362600000000000000000000000000000000000000000000000000000000000000000000000000000000000000000000000000000000000PES00010000001000000000000000020170111
201701110010000700000000000000002126000000000000000021268000000000030707325824Saltapor s.r.l                000000000012400000000000000000000000000000000000000000000000000000000000000000000000000000000000000000000000000000000000PES00010000001000000000000000020170111
201701110010000700000000000000002127000000000000000021278000000000020162972147Chuquisaca Victor             000000000040291000000000000000000000000000000000000000000000000000000000000000000000000000000000000000000000000000000000PES00010000001000000000000000020170111
201701110060000700000000000000000452000000000000000004528000000000020000000001Colegio Educativo INTI        000000000031036000000000000000000000000000000000000000000000000000000000000000000000000000000000000000000000000000000000PES00010000001000000000000000020170111
201701110060000700000000000000000453000000000000000004538000000000020000000001Colegio Educativo INTI        000000000012155000000000000000000000000000000000000000000000000000000000000000000000000000000000000000000000000000000000PES00010000001000000000000000020170111
201701110060000400000000000000001377000000000000000013778000000000020000000001Consumidor Final              000000001577000000000000000000000000000000000000000000000000000000000000000000000000000000000000000000000000000000000000PES00010000001000000000000000020170111
201701120010000700000000000000002128000000000000000021288000000000030700087227Aluja SRL                     000000016720188000000000000000000000000000000000000000000000000000000000000000000000000000000000000000000000000000000000PES00010000001000000000000000020170112
201701120010000700000000000000002129000000000000000021298000000000020137451922Garin Juan Pedro              000000000019964000000000000000000000000000000000000000000000000000000000000000000000000000000000000000000000000000000000PES00010000001000000000000000020170112
201701120010000700000000000000002130000000000000000021308000000000020173554894Lopez Haroldo                 000000000028000000000000000000000000000000000000000000000000000000000000000000000000000000000000000000000000000000000000PES00010000001000000000000000020170112
201701120010000700000000000000002131000000000000000021318000000000020250691719Nisiche Juan                  000000000048001000000000000000000000000000000000000000000000000000000000000000000000000000000000000000000000000000000000PES00010000001000000000000000020170112
201701120010000700000000000000002132000000000000000021328000000000030612122756Molinos Panpa Blanca sa       000000000022631000000000000000000000000000000000000000000000000000000000000000000000000000000000000000000000000000000000PES00010000001000000000000000020170112
201701120010000700000000000000002133000000000000000021338000000000030700087227Aluja SRL                     000000015989909000000000000000000000000000000000000000000000000000000000000000000000000000000000000000000000000000000000PES00010000001000000000000000020170112
201701120010000700000000000000002134000000000000000021348000000000020047080461Binda Aldo Augusto            000000000049830000000000000000000000000000000000000000000000000000000000000000000000000000000000000000000000000000000000PES00010000001000000000000000020170112
201701120010000700000000000000002135000000000000000021358000000000020129578476Rocha Alfonso Rodolfo         000000000310031000000000000000000000000000000000000000000000000000000000000000000000000000000000000000000000000000000000PES00010000001000000000000000020170112
201701120010000700000000000000002136000000000000000021368000000000020047080461Binda Aldo Augusto            000000000008008000000000000000000000000000000000000000000000000000000000000000000000000000000000000000000000000000000000PES00010000001000000000000000020170112
201701120010000700000000000000002137000000000000000021378000000000030708772964Jumbo Retail Argentina SA     000000000011092000000000000000000000000000000000000000000000000000000000000000000000000000000000000000000000000000000000PES00010000001000000000000000020170112
201701120010000700000000000000002138000000000000000021388000000000030708237953A  M Sociedad de Hecho        000000000021250000000000000000000000000000000000000000000000000000000000000000000000000000000000000000000000000000000000PES00010000001000000000000000020170112
201701120010000700000000000000002139000000000000000021398000000000027171312103Aguilar Elisa                 000000000012600000000000000000000000000000000000000000000000000000000000000000000000000000000000000000000000000000000000PES00010000001000000000000000020170112
201701120010000700000000000000002140000000000000000021408000000000030708237953A  M Sociedad de Hecho        000000000009774000000000000000000000000000000000000000000000000000000000000000000000000000000000000000000000000000000000PES00010000001000000000000000020170112
201701120010000700000000000000002141000000000000000021418000000000020268989774Dominguez Lucas               000000000047007000000000000000000000000000000000000000000000000000000000000000000000000000000000000000000000000000000000PES00010000001000000000000000020170112
201701120010000700000000000000002142000000000000000021428000000000030708587237Trevisan Agropecuaria SRL     000000000011564000000000000000000000000000000000000000000000000000000000000000000000000000000000000000000000000000000000PES00010000001000000000000000020170112
201701120060000700000000000000000454000000000000000004548000000000020000000001Municipalidad  La Caldera     000000000230690000000000000000000000000000000000000000000000000000000000000000000000000000000000000000000000000000000000PES00010000001000000000000000020170112
201701120030000700000000000000000022000000000000000000228000000000030700087227Aluja SRL                     000000016720188000000000000000000000000000000000000000000000000000000000000000000000000000000000000000000000000000000000PES00010000001000000000000000020170112
201701120060000400000000000000001378000000000000000013788000000000020000000001Consumidor Final              000000001302002000000000000000000000000000000000000000000000000000000000000000000000000000000000000000000000000000000000PES00010000001000000000000000020170112
201701130010000700000000000000002143000000000000000021438000000000020173554894Lopez Haroldo                 000000000023065000000000000000000000000000000000000000000000000000000000000000000000000000000000000000000000000000000000PES00010000001000000000000000020170113
201701130010000700000000000000002144000000000000000021448000000000030711560099Hospital Publico Materno      000000000011073000000000000000000000000000000000000000000000000000000000000000000000000000000000000000000000000000000000PES00010000001000000000000000020170113
201701130010000700000000000000002145000000000000000021458000000000030708237953A  M Sociedad de Hecho        000000000010079000000000000000000000000000000000000000000000000000000000000000000000000000000000000000000000000000000000PES00010000001000000000000000020170113
201701130010000700000000000000002146000000000000000021468000000000030708237953A  M Sociedad de Hecho        000000000003060000000000000000000000000000000000000000000000000000000000000000000000000000000000000000000000000000000000PES00010000001000000000000000020170113
201701130010000700000000000000002147000000000000000021478000000000020047080461Binda Aldo Augusto            000000000005507000000000000000000000000000000000000000000000000000000000000000000000000000000000000000000000000000000000PES00010000001000000000000000020170113
201701130010000700000000000000002148000000000000000021488000000000027203992144Di Pietro Cecilia Eugenia     000000000006048000000000000000000000000000000000000000000000000000000000000000000000000000000000000000000000000000000000PES00010000001000000000000000020170113
201701130010000700000000000000002149000000000000000021498000000000033710311159Pacific Trade SRL             000000000003060000000000000000000000000000000000000000000000000000000000000000000000000000000000000000000000000000000000PES00010000001000000000000000020170113
201701130010000700000000000000002150000000000000000021508000000000020162973712Benavidez Everardo G          000000000037001000000000000000000000000000000000000000000000000000000000000000000000000000000000000000000000000000000000PES00010000001000000000000000020170113
201701130010000700000000000000002151000000000000000021518000000000030714762199Grupo Aniceto SRL             000000000055080000000000000000000000000000000000000000000000000000000000000000000000000000000000000000000000000000000000PES00010000001000000000000000020170113
201701130010000700000000000000002152000000000000000021528000000000030710261322J F Comercial SRL             000000000240425000000000000000000000000000000000000000000000000000000000000000000000000000000000000000000000000000000000PES00010000001000000000000000020170113
201701130010000700000000000000002153000000000000000021538000000000020173554894Lopez Haroldo                 000000000022956000000000000000000000000000000000000000000000000000000000000000000000000000000000000000000000000000000000PES00010000001000000000000000020170113
201701130010000700000000000000002154000000000000000021548000000000033715133399Aludrop SRL                   000000000024500000000000000000000000000000000000000000000000000000000000000000000000000000000000000000000000000000000000PES00010000001000000000000000020170113
2017011300100007000000000000000021550000000000000000215580000000000307083090592º Generacion SRL             000000000010031000000000000000000000000000000000000000000000000000000000000000000000000000000000000000000000000000000000PES00010000001000000000000000020170113
201701130010000700000000000000002156000000000000000021568000000000030640841032Mamclean SRL                  000000000065960000000000000000000000000000000000000000000000000000000000000000000000000000000000000000000000000000000000PES00010000001000000000000000020170113
201701130060000700000000000000000455000000000000000004558000000000020000000001Consorcio Mercedes 2          000000000008500000000000000000000000000000000000000000000000000000000000000000000000000000000000000000000000000000000000PES00010000001000000000000000020170113
201701130060000700000000000000000456000000000000000004568000000000030546690519Barrio Militar                000000000014962000000000000000000000000000000000000000000000000000000000000000000000000000000000000000000000000000000000PES00010000001000000000000000020170113
201701130060000700000000000000000457000000000000000004578000000000030650219097Caja de Prevision Social      000000000024093000000000000000000000000000000000000000024093000000000000000000000000000000000000000000000000000000000000PES00010000001000000000000000020170113
201701130060000700000000000000000458000000000000000004588000000000020000000001Consorcio Mercedes 2          000000000004215000000000000000000000000000000000000000000000000000000000000000000000000000000000000000000000000000000000PES00010000001000000000000000020170113
201701130060000400000000000000001379000000000000000013798000000000020000000001Consumidor Final              000000001375305000000000000000000000000000000000000000000000000000000000000000000000000000000000000000000000000000000000PES00010000001000000000000000020170113
201701140010000700000000000000002157000000000000000021578000000000030712529306Cuna Producciones SRL         000000000006085000000000000000000000000000000000000000000000000000000000000000000000000000000000000000000000000000000000PES00010000001000000000000000020170114
201701140010000700000000000000002158000000000000000021588000000000030712246363Los Colombos SRL              000000000044302000000000000000000000000000000000000000000000000000000000000000000000000000000000000000000000000000000000PES00010000001000000000000000020170114
201701140010000700000000000000002159000000000000000021598000000000030715381938Proyectos Pastos Grandes      000000000045072000000000000000000000000000000000000000000000000000000000000000000000000000000000000000000000000000000000PES00010000001000000000000000020170114
201701140010000700000000000000002160000000000000000021608000000000020203999519Delta Computacion             000000000009413000000000000000000000000000000000000000000000000000000000000000000000000000000000000000000000000000000000PES00010000001000000000000000020170114
201701140060000400000000000000001380000000000000000013808000000000020000000001Consumidor Final              000000000918203000000000000000000000000000000000000000000000000000000000000000000000000000000000000000000000000000000000PES00010000001000000000000000020170114
201701160010000700000000000000002161000000000000000021618000000000027163075119Gallo Teresa Victoria         000000000031811000000000000000000000000000000000000000000000000000000000000000000000000000000000000000000000000000000000PES00010000001000000000000000020170116
201701160010000700000000000000002162000000000000000021628000000000033710311159Pacific Trade SRL             000000000009501000000000000000000000000000000000000000000000000000000000000000000000000000000000000000000000000000000000PES00010000001000000000000000020170116
201701160010000700000000000000002163000000000000000021638000000000020129578476Rocha Alfonso Rodolfo         000000000310031000000000000000000000000000000000000000000000000000000000000000000000000000000000000000000000000000000000PES00010000001000000000000000020170116
201701160010000700000000000000002164000000000000000021648000000000030710800533Todo Obras SRL                000000004205886000000000000000000000000000000000000000000000000000000000000000000000000000000000000000000000000000000000PES00010000001000000000000000020170116
201701160010000700000000000000002165000000000000000021658000000000020271751452Ragone Figueroa Jose Mari     000000000014530000000000000000000000000000000000000000000000000000000000000000000000000000000000000000000000000000000000PES00010000001000000000000000020170116
201701160010000700000000000000002166000000000000000021668000000000020250691719Nisiche Juan                  000000000096003000000000000000000000000000000000000000000000000000000000000000000000000000000000000000000000000000000000PES00010000001000000000000000020170116
201701160010000700000000000000002167000000000000000021678000000000030711383693Grinfil SRL                   000000000083215000000000000000000000000000000000000000000000000000000000000000000000000000000000000000000000000000000000PES00010000001000000000000000020170116
201701160010000700000000000000002168000000000000000021688000000000030709608688Brisar SRL                    000000000016000000000000000000000000000000000000000000000000000000000000000000000000000000000000000000000000000000000000PES00010000001000000000000000020170116
201701160010000700000000000000002169000000000000000021698000000000020141766350Astudillo  Cesar Alejandr     000000000015301000000000000000000000000000000000000000000000000000000000000000000000000000000000000000000000000000000000PES00010000001000000000000000020170116
201701160010000700000000000000002170000000000000000021708000000000020141766350Astudillo  Cesar Alejandr     000000000030211000000000000000000000000000000000000000000000000000000000000000000000000000000000000000000000000000000000PES00010000001000000000000000020170116
201701160010000700000000000000002171000000000000000021718000000000033710311159Pacific Trade SRL             000000000015683000000000000000000000000000000000000000000000000000000000000000000000000000000000000000000000000000000000PES00010000001000000000000000020170116
201701160010000700000000000000002172000000000000000021728000000000030708389443La Peatonal SRL               000000000019060000000000000000000000000000000000000000000000000000000000000000000000000000000000000000000000000000000000PES00010000001000000000000000020170116
201701160010000700000000000000002173000000000000000021738000000000027112839645Arancibia Sara Beatriz        000000000069721000000000000000000000000000000000000000000000000000000000000000000000000000000000000000000000000000000000PES00010000001000000000000000020170116
201701160010000700000000000000002174000000000000000021748000000000020246380814Canche Atilio Ricardo         000000000010030000000000000000000000000000000000000000000000000000000000000000000000000000000000000000000000000000000000PES00010000001000000000000000020170116
201701160060000400000000000000001381000000000000000013818000000000020000000001Consumidor Final              000000001623350000000000000000000000000000000000000000000000000000000000000000000000000000000000000000000000000000000000PES00010000001000000000000000020170116
201701170010000700000000000000002175000000000000000021758000000000020137451922Garin Juan Pedro              000000000008160000000000000000000000000000000000000000000000000000000000000000000000000000000000000000000000000000000000PES00010000001000000000000000020170117
201701170010000700000000000000002176000000000000000021768000000000030708237953A  M Sociedad de Hecho        000000000009600000000000000000000000000000000000000000000000000000000000000000000000000000000000000000000000000000000000PES00010000001000000000000000020170117
201701170010000700000000000000002177000000000000000021778000000000027163075119Gallo Teresa Victoria         000000000006561000000000000000000000000000000000000000000000000000000000000000000000000000000000000000000000000000000000PES00010000001000000000000000020170117
201701170010000700000000000000002178000000000000000021788000000000030710255659Biotec SRL                    000000000016824000000000000000000000000000000000000000000000000000000000000000000000000000000000000000000000000000000000PES00010000001000000000000000020170117
201701170010000700000000000000002179000000000000000021798000000000030708232099Plaza Hotel SA                000000000017510000000000000000000000000000000000000000000000000000000000000000000000000000000000000000000000000000000000PES00010000001000000000000000020170117
201701170010000700000000000000002180000000000000000021808000000000030711516049Condominio Ruben E Martin     000000000038249000000000000000000000000000000000000000000000000000000000000000000000000000000000000000000000000000000000PES00010000001000000000000000020170117
201701170010000700000000000000002181000000000000000021818000000000030711516049Condominio Ruben E Martin     000000000010199000000000000000000000000000000000000000000000000000000000000000000000000000000000000000000000000000000000PES00010000001000000000000000020170117
201701170010000700000000000000002182000000000000000021828000000000030709608688Brisar SRL                    000000000024999000000000000000000000000000000000000000000000000000000000000000000000000000000000000000000000000000000000PES00010000001000000000000000020170117
201701170010000700000000000000002183000000000000000021838000000000023121455374Rasero Edith                  000000000080002000000000000000000000000000000000000000000000000000000000000000000000000000000000000000000000000000000000PES00010000001000000000000000020170117
201701170010000700000000000000002184000000000000000021848000000000030707135707Papelera del Noa SA           000000002042069000000000000000000000000000000000000000000000000000000000000000000000000000000000000000000000000000000000PES00010000001000000000000000020170117
201701170010000700000000000000002185000000000000000021858000000000020127901563Wierna Felipe                 000000000219300000000000000000000000000000000000000000000000000000000000000000000000000000000000000000000000000000000000PES00010000001000000000000000020170117
201701170010000700000000000000002186000000000000000021868000000000030644225360Servicios Viales de Pigue     000000030527759000000000000000000000000000000000000000000000000000000000000000000000000000000000000000000000000000000000PES00010000001000000000000000020170117
201701170010000700000000000000002187000000000000000021878000000000033710311159Pacific Trade SRL             000000000159006000000000000000000000000000000000000000000000000000000000000000000000000000000000000000000000000000000000PES00010000001000000000000000020170117
201701170010000700000000000000002188000000000000000021888000000000030712242082Wass SRL                      000000000003060000000000000000000000000000000000000000000000000000000000000000000000000000000000000000000000000000000000PES00010000001000000000000000020170117
201701170010000700000000000000002189000000000000000021898000000000020146700811Rodriguez Daniel Alberto      000000000016000000000000000000000000000000000000000000000000000000000000000000000000000000000000000000000000000000000000PES00010000001000000000000000020170117
201701170010000700000000000000002190000000000000000021908000000000020146700811Rodriguez Daniel Alberto      000000000028600000000000000000000000000000000000000000000000000000000000000000000000000000000000000000000000000000000000PES00010000001000000000000000020170117
201701170060000700000000000000000459000000000000000004598000000000030656747834Municipalidad de San Lore     000000000004420000000000000000000000000000000000000000000000000000000000000000000000000000000000000000000000000000000000PES00010000001000000000000000020170117
201701170060000700000000000000000460000000000000000004608000000000020000000001Romero Estela                 000000000800445000000000000000000000000000000000000000000000000000000000000000000000000000000000000000000000000000000000PES00010000001000000000000000020170117
201701170060000700000000000000000461000000000000000004618000000000020000000001Consorcio Puyrredon 995       000000000006016000000000000000000000000000000000000000000000000000000000000000000000000000000000000000000000000000000000PES00010000001000000000000000020170117
201701170060000400000000000000001382000000000000000013828000000000020000000001Consumidor Final              000000001694903000000000000000000000000000000000000000000000000000000000000000000000000000000000000000000000000000000000PES00010000001000000000000000020170117
201701180010000700000000000000002191000000000000000021918000000000030711603553Soluciones Tecnicas Gener     000000000007561000000000000000000000000000000000000000000000000000000000000000000000000000000000000000000000000000000000PES00010000001000000000000000020170118
201701180010000700000000000000002192000000000000000021928000000000020109933644Petito Jose                   000000000107950000000000000000000000000000000000000000000000000000000000000000000000000000000000000000000000000000000000PES00010000001000000000000000020170118
201701180010000700000000000000002193000000000000000021938000000000030714762199Grupo Aniceto SRL             000000000002400000000000000000000000000000000000000000000000000000000000000000000000000000000000000000000000000000000000PES00010000001000000000000000020170118
201701180010000700000000000000002194000000000000000021948000000000030711516049Condominio Ruben E Martin     000000000005405000000000000000000000000000000000000000000000000000000000000000000000000000000000000000000000000000000000PES00010000001000000000000000020170118
201701180010000700000000000000002195000000000000000021958000000000030709688762Alcala SA                     000000000002800000000000000000000000000000000000000000000000000000000000000000000000000000000000000000000000000000000000PES00010000001000000000000000020170118
201701180010000700000000000000002196000000000000000021968000000000030708237953A  M Sociedad de Hecho        000000000010837000000000000000000000000000000000000000000000000000000000000000000000000000000000000000000000000000000000PES00010000001000000000000000020170118
201701180010000700000000000000002197000000000000000021978000000000020047080461Binda Aldo Augusto            000000000026046000000000000000000000000000000000000000000000000000000000000000000000000000000000000000000000000000000000PES00010000001000000000000000020170118
201701180010000700000000000000002198000000000000000021988000000000030708660120Las Farolas S.A               000000000004056000000000000000000000000000000000000000000000000000000000000000000000000000000000000000000000000000000000PES00010000001000000000000000020170118
201701180010000700000000000000002199000000000000000021998000000000020162973712Benavidez Everardo G          000000000055334000000000000000000000000000000000000000000000000000000000000000000000000000000000000000000000000000000000PES00010000001000000000000000020170118
201701180010000700000000000000002200000000000000000022008000000000030708389443La Peatonal SRL               000000000060521000000000000000000000000000000000000000000000000000000000000000000000000000000000000000000000000000000000PES00010000001000000000000000020170118
201701180010000700000000000000002201000000000000000022018000000000030714573787Carma SRL                     000000000897325000000000000000000000000000000000000000000000000000000000000000000000000000000000000000000000000000000000PES00010000001000000000000000020170118
201701180010000700000000000000002202000000000000000022028000000000020250691719Nisiche Juan                  000000000119085000000000000000000000000000000000000000000000000000000000000000000000000000000000000000000000000000000000PES00010000001000000000000000020170118
201701180010000700000000000000002203000000000000000022038000000000030714769398Salta Contenedores SRL        000000000008001000000000000000000000000000000000000000000000000000000000000000000000000000000000000000000000000000000000PES00010000001000000000000000020170118
201701180010000700000000000000002204000000000000000022048000000000020141766350Astudillo  Cesar Alejandr     000000000011050000000000000000000000000000000000000000000000000000000000000000000000000000000000000000000000000000000000PES00010000001000000000000000020170118
201701180010000700000000000000002205000000000000000022058000000000020141766350Astudillo  Cesar Alejandr     000000000005865000000000000000000000000000000000000000000000000000000000000000000000000000000000000000000000000000000000PES00010000001000000000000000020170118
201701180010000700000000000000002206000000000000000022068000000000030708237953A  M Sociedad de Hecho        000000000010199000000000000000000000000000000000000000000000000000000000000000000000000000000000000000000000000000000000PES00010000001000000000000000020170118
201701180010000700000000000000002207000000000000000022078000000000020168991186Hubalde Marcelo               000000000070800000000000000000000000000000000000000000000000000000000000000000000000000000000000000000000000000000000000PES00010000001000000000000000020170118
201701180010000700000000000000002208000000000000000022088000000000020202198512Alvarado Fabio Eduardo        000000000025065000000000000000000000000000000000000000000000000000000000000000000000000000000000000000000000000000000000PES00010000001000000000000000020170118
201701180010000700000000000000002209000000000000000022098000000000020177929884Esteban Fonzalida Sergio      000000000042861000000000000000000000000000000000000000000000000000000000000000000000000000000000000000000000000000000000PES00010000001000000000000000020170118
201701180010000700000000000000002210000000000000000022108000000000020047080461Binda Aldo Augusto            000000000006374000000000000000000000000000000000000000000000000000000000000000000000000000000000000000000000000000000000PES00010000001000000000000000020170118
201701180010000700000000000000002211000000000000000022118000000000020129589133Daniel Orlando Canonica       000000000045495000000000000000000000000000000000000000000000000000000000000000000000000000000000000000000000000000000000PES00010000001000000000000000020170118
201701180060000700000000000000000462000000000000000004628000000000030547733653Colegio Jose Manuel Estra     000000000128557000000000000000000000000000000000000000000000000000000000000000000000000000000000000000000000000000000000PES00010000001000000000000000020170118
201701180060000700000000000000000463000000000000000004638000000000020000000001Jaugregui Martin              000000000102116000000000000000000000000000000000000000000000000000000000000000000000000000000000000000000000000000000000PES00010000001000000000000000020170118
201701180060000700000000000000000464000000000000000004648000000000020000000001Consumidor Final              000000000016000000000000000000000000000000000000000000000000000000000000000000000000000000000000000000000000000000000000PES00010000001000000000000000020170118
201701180060000700000000000000000465000000000000000004658000000000020000000001Carlos Mendez                 000000000027642000000000000000000000000000000000000000000000000000000000000000000000000000000000000000000000000000000000PES00010000001000000000000000020170118
201701180060000700000000000000000466000000000000000004668000000000020000000001Consumidor Final              000000000005040000000000000000000000000000000000000000000000000000000000000000000000000000000000000000000000000000000000PES00010000001000000000000000020170118
201701180060000700000000000000000467000000000000000004678000000000020000000001Osunsa                        000000000013549000000000000000000000000000000000000000000000000000000000000000000000000000000000000000000000000000000000PES00010000001000000000000000020170118
201701180060000700000000000000000468000000000000000004688000000000020000000001Consumidor Final              000000000056509000000000000000000000000000000000000000000000000000000000000000000000000000000000000000000000000000000000PES00010000001000000000000000020170118
201701180060000700000000000000000469000000000000000004698000000000020000000001Consumidor Final              000000000046104000000000000000000000000000000000000000000000000000000000000000000000000000000000000000000000000000000000PES00010000001000000000000000020170118
201701180060000700000000000000000470000000000000000004708000000000020000000001Consumidor Final              000000000006050000000000000000000000000000000000000000000000000000000000000000000000000000000000000000000000000000000000PES00010000001000000000000000020170118
201701180060000700000000000000000471000000000000000004718000000000030533610338Club de Gimnasia y Tiro A     000000000050232000000000000000000000000000000000000000000000000000000000000000000000000000000000000000000000000000000000PES00010000001000000000000000020170118
201701180060000700000000000000000472000000000000000004728000000000020000000001Consumidor Final              000000000030018000000000000000000000000000000000000000000000000000000000000000000000000000000000000000000000000000000000PES00010000001000000000000000020170118
201701180060000700000000000000000473000000000000000004738000000000020000000001Consumidor Final              000000000003572000000000000000000000000000000000000000000000000000000000000000000000000000000000000000000000000000000000PES00010000001000000000000000020170118
201701180060000700000000000000000474000000000000000004748000000000020000000001Consumidor Final              000000000060070000000000000000000000000000000000000000000000000000000000000000000000000000000000000000000000000000000000PES00010000001000000000000000020170118
201701180060000700000000000000000475000000000000000004758000000000020000000001Consumidor Final              000000000060079000000000000000000000000000000000000000000000000000000000000000000000000000000000000000000000000000000000PES00010000001000000000000000020170118
201701190010000700000000000000002212000000000000000022128000000000020137451922Garin Juan Pedro              000000000018500000000000000000000000000000000000000000000000000000000000000000000000000000000000000000000000000000000000PES00010000001000000000000000020170119
201701190010000700000000000000002213000000000000000022138000000000020081684309Lecuona de Pratt Martin       000000000014620000000000000000000000000000000000000000000000000000000000000000000000000000000000000000000000000000000000PES00010000001000000000000000020170119
201701190010000700000000000000002214000000000000000022148000000000030709608688Brisar SRL                    000000000023038000000000000000000000000000000000000000000000000000000000000000000000000000000000000000000000000000000000PES00010000001000000000000000020170119
201701190010000700000000000000002215000000000000000022158000000000030708835559Estacion Vision SRL           000000000046240000000000000000000000000000000000000000000000000000000000000000000000000000000000000000000000000000000000PES00010000001000000000000000020170119
201701190010000700000000000000002216000000000000000022168000000000020047080461Binda Aldo Augusto            000000000006029000000000000000000000000000000000000000000000000000000000000000000000000000000000000000000000000000000000PES00010000001000000000000000020170119
201701190010000700000000000000002217000000000000000022178000000000030709224901Rac Contrucciones SRL         000000000002211000000000000000000000000000000000000000000000000000000000000000000000000000000000000000000000000000000000PES00010000001000000000000000020170119
201701190010000700000000000000002218000000000000000022188000000000020204397067Gomez Rene Maximiliano        000000000060003000000000000000000000000000000000000000000000000000000000000000000000000000000000000000000000000000000000PES00010000001000000000000000020170119
201701190010000700000000000000002219000000000000000022198000000000030713076003Aipo SRL                      000000000031073000000000000000000000000000000000000000000000000000000000000000000000000000000000000000000000000000000000PES00010000001000000000000000020170119
201701190010000700000000000000002220000000000000000022208000000000030708237953A  M Sociedad de Hecho        000000000004500000000000000000000000000000000000000000000000000000000000000000000000000000000000000000000000000000000000PES00010000001000000000000000020170119
201701190010000700000000000000002221000000000000000022218000000000020162972147Chuquisaca Victor             000000000012040000000000000000000000000000000000000000000000000000000000000000000000000000000000000000000000000000000000PES00010000001000000000000000020170119
201701190060000700000000000000000476000000000000000004768000000000020000000001Consumidor Final              000000000009000000000000000000000000000000000000000000000000000000000000000000000000000000000000000000000000000000000000PES00010000001000000000000000020170119
201701190060000700000000000000000477000000000000000004778000000000030522711132Colegio de Escribano de l     000000000009805000000000000000000000000000000000000000000000000000000000000000000000000000000000000000000000000000000000PES00010000001000000000000000020170119
201701190060000700000000000000000478000000000000000004788000000000020000000001Consumidor Final              000000000016000000000000000000000000000000000000000000000000000000000000000000000000000000000000000000000000000000000000PES00010000001000000000000000020170119
201701190060000700000000000000000479000000000000000004798000000000020000000001Consumidor Final              000000000017200000000000000000000000000000000000000000000000000000000000000000000000000000000000000000000000000000000000PES00010000001000000000000000020170119
201701190060000700000000000000000480000000000000000004808000000000020000000001Consumidor Final              000000000011545000000000000000000000000000000000000000000000000000000000000000000000000000000000000000000000000000000000PES00010000001000000000000000020170119
201701190060000700000000000000000481000000000000000004818000000000020000000001Consumidor Final              000000000016000000000000000000000000000000000000000000000000000000000000000000000000000000000000000000000000000000000000PES00010000001000000000000000020170119
201701190060000700000000000000000482000000000000000004828000000000030999284651Policia de Salta              000000000049995000000000000000000000000000000000000000000000000000000000000000000000000000000000000000000000000000000000PES00010000001000000000000000020170119
201701190060000700000000000000000483000000000000000004838000000000020000000001Gomes Elisabed                000000000038186000000000000000000000000000000000000000000000000000000000000000000000000000000000000000000000000000000000PES00010000001000000000000000020170119
201701190060000700000000000000000484000000000000000004848000000000020000000001Consumidor Final              000000000009588000000000000000000000000000000000000000000000000000000000000000000000000000000000000000000000000000000000PES00010000001000000000000000020170119
201701190060000700000000000000000485000000000000000004858000000000020000000001Dario                         000000000030536000000000000000000000000000000000000000000000000000000000000000000000000000000000000000000000000000000000PES00010000001000000000000000020170119
201701190060000400000000000000001384000000000000000013848000000000020000000001Consumidor Final              000000000356502000000000000000000000000000000000000000000000000000000000000000000000000000000000000000000000000000000000PES00010000001000000000000000020170119
201701200010000700000000000000002222000000000000000022228000000000030653431755Empresa de Servicios y Ob     000000034996957000000000000000000000000000000000000000000000000000000000000000000000000000000000000000000000000000000000PES00010000001000000000000000020170120
201701200010000700000000000000002223000000000000000022238000000000030712336478Astur SRL                     000000000017510000000000000000000000000000000000000000000000000000000000000000000000000000000000000000000000000000000000PES00010000001000000000000000020170120
201701200010000700000000000000002224000000000000000022248000000000030707474307Crew Live S.A                 000000000002600000000000000000000000000000000000000000000000000000000000000000000000000000000000000000000000000000000000PES00010000001000000000000000020170120
201701200010000700000000000000002225000000000000000022258000000000030711593973Consorcio El Virrey 2         000000001369198000000000000000000000000000000000000000000000000000000000000000000000000000000000000000000000000000000000PES00010000001000000000000000020170120
201701200010000700000000000000002226000000000000000022268000000000030709608688Brisar SRL                    000000000023119000000000000000000000000000000000000000000000000000000000000000000000000000000000000000000000000000000000PES00010000001000000000000000020170120
201701200010000700000000000000002227000000000000000022278000000000030708237953A  M Sociedad de Hecho        000000000005041000000000000000000000000000000000000000000000000000000000000000000000000000000000000000000000000000000000PES00010000001000000000000000020170120
201701200010000700000000000000002228000000000000000022288000000000030714529974Fidelcomiso la Reserva        000000000049556000000000000000000000000000000000000000000000000000000000000000000000000000000000000000000000000000000000PES00010000001000000000000000020170120
201701200010000700000000000000002229000000000000000022298000000000033518604339Galerias Margalef ICIF        000000001466500000000000000000000000000000000000000000000000000000000000000000000000000000000000000000000000000000000000PES00010000001000000000000000020170120
201701200010000700000000000000002230000000000000000022308000000000030690663860Mocovi s.r.l.                 000000037050002000000000000000000000000000000000000000000000000000000000000000000000000000000000000000000000000000000000PES00010000001000000000000000020170120
201701200010000700000000000000002231000000000000000022318000000000027246971566Herrera Nelida del Carmen     000000000070800000000000000000000000000000000000000000000000000000000000000000000000000000000000000000000000000000000000PES00010000001000000000000000020170120
201701200060000700000000000000000486000000000000000004868000000000020000000001Consumidor Final              000000000012000000000000000000000000000000000000000000000000000000000000000000000000000000000000000000000000000000000000PES00010000001000000000000000020170120
201701200060000700000000000000000487000000000000000004878000000000020000000001Luca Dapena                   000000000056100000000000000000000000000000000000000000000000000000000000000000000000000000000000000000000000000000000000PES00010000001000000000000000020170120
201701200060000700000000000000000488000000000000000004888000000000020000000001Colegio Del Huerto            000000000065001000000000000000000000000000000000000000000000000000000000000000000000000000000000000000000000000000000000PES00010000001000000000000000020170120
201701200060000400000000000000001385000000000000000013858000000000020000000001Consumidor Final              000000000498341000000000000000000000000000000000000000000000000000000000000000000000000000000000000000000000000000000000PES00010000001000000000000000020170120
201701210010000700000000000000002232000000000000000022328000000000033710311159Pacific Trade SRL             000000000214758000000000000000000000000000000000000000000000000000000000000000000000000000000000000000000000000000000000PES00010000001000000000000000020170121
201701210010000700000000000000002233000000000000000022338000000000030711812675Norterra Construcciones S     000000000096003000000000000000000000000000000000000000000000000000000000000000000000000000000000000000000000000000000000PES00010000001000000000000000020170121
201701210010000700000000000000002234000000000000000022348000000000030713076003Aipo SRL                      000000000050063000000000000000000000000000000000000000000000000000000000000000000000000000000000000000000000000000000000PES00010000001000000000000000020170121
201701210010000700000000000000002235000000000000000022358000000000030709608688Brisar SRL                    000000000008840000000000000000000000000000000000000000000000000000000000000000000000000000000000000000000000000000000000PES00010000001000000000000000020170121
201701210010000700000000000000002236000000000000000022368000000000020141766350Astudillo  Cesar Alejandr     000000000060060000000000000000000000000000000000000000000000000000000000000000000000000000000000000000000000000000000000PES00010000001000000000000000020170121
201701210010000700000000000000002237000000000000000022378000000000030640285431Inversora Juramento           000000001860010000000000000000000000000000000000000000000000000000000000000000000000000000000000000000000000000000000000PES00010000001000000000000000020170121
201701210010000700000000000000002238000000000000000022388000000000033710311159Pacific Trade SRL             000000000038097000000000000000000000000000000000000000000000000000000000000000000000000000000000000000000000000000000000PES00010000001000000000000000020170121
201701210060000400000000000000001386000000000000000013868000000000020000000001Consumidor Final              000000000934500000000000000000000000000000000000000000000000000000000000000000000000000000000000000000000000000000000000PES00010000001000000000000000020170121
201701230010000700000000000000002239000000000000000022398000000000030501522496Vicente Moncho Construcci     000000055917261000000000000000000000000000000000000000000000000000000000000000000000000000000000000000000000000000000000PES00010000001000000000000000020170123
201701230010000700000000000000002240000000000000000022408000000000020081684309Lecuona de Pratt Martin       000000000063686000000000000000000000000000000000000000000000000000000000000000000000000000000000000000000000000000000000PES00010000001000000000000000020170123
201701230010000700000000000000002241000000000000000022418000000000020250691719Nisiche Juan                  000000000019550000000000000000000000000000000000000000000000000000000000000000000000000000000000000000000000000000000000PES00010000001000000000000000020170123
201701230010000700000000000000002242000000000000000022428000000000030711812675Norterra Construcciones S     000000000119000000000000000000000000000000000000000000000000000000000000000000000000000000000000000000000000000000000000PES00010000001000000000000000020170123
201701230010000700000000000000002243000000000000000022438000000000020204397067Gomez Rene Maximiliano        000000000028075000000000000000000000000000000000000000000000000000000000000000000000000000000000000000000000000000000000PES00010000001000000000000000020170123
201701230010000700000000000000002244000000000000000022448000000000030690663860Mocovi s.r.l.                 000000032339959000000000000000000000000000000000000000000000000000000000000000000000000000000000000000000000000000000000PES00010000001000000000000000020170123
201701230010000700000000000000002245000000000000000022458000000000027207069731Figueroa Alejandra            000000000266200000000000000000000000000000000000000000000000000000000000000000000000000000000000000000000000000000000000PES00010000001000000000000000020170123
201701230010000700000000000000002246000000000000000022468000000000033710311159Pacific Trade SRL             000000000042500000000000000000000000000000000000000000000000000000000000000000000000000000000000000000000000000000000000PES00010000001000000000000000020170123
201701230010000700000000000000002247000000000000000022478000000000030714953660L A Y P SRL                   000000000016000000000000000000000000000000000000000000000000000000000000000000000000000000000000000000000000000000000000PES00010000001000000000000000020170123
201701230010000700000000000000002248000000000000000022488000000000030714953660L A Y P SRL                   000000000016000000000000000000000000000000000000000000000000000000000000000000000000000000000000000000000000000000000000PES00010000001000000000000000020170123
201701230010000700000000000000002249000000000000000022498000000000020177929884Esteban Fonzalida Sergio      000000000261975000000000000000000000000000000000000000000000000000000000000000000000000000000000000000000000000000000000PES00010000001000000000000000020170123
201701230010000700000000000000002250000000000000000022508000000000030708835559Estacion Vision SRL           000000000128003000000000000000000000000000000000000000000000000000000000000000000000000000000000000000000000000000000000PES00010000001000000000000000020170123
201701230010000700000000000000002251000000000000000022518000000000020162973712Benavidez Everardo G          000000000039142000000000000000000000000000000000000000000000000000000000000000000000000000000000000000000000000000000000PES00010000001000000000000000020170123
201701230010000700000000000000002252000000000000000022528000000000020219832185Palacios Horacio              000000000027985000000000000000000000000000000000000000000000000000000000000000000000000000000000000000000000000000000000PES00010000001000000000000000020170123
201701230060000700000000000000000489000000000000000004898000000000033617945199Soc. Italiana 20 de Sept.     000000000076670000000000000000000000000000000000000000000000000000000000000000000000000000000000000000000000000000000000PES00010000001000000000000000020170123
201701230060000700000000000000000490000000000000000004908000000000020000000001Consumidor Final              000000000017526000000000000000000000000000000000000000000000000000000000000000000000000000000000000000000000000000000000PES00010000001000000000000000020170123
201701230060000400000000000000001387000000000000000013878000000000020000000001Consumidor Final              000000001131700000000000000000000000000000000000000000000000000000000000000000000000000000000000000000000000000000000000PES00010000001000000000000000020170123
201701240010000700000000000000002253000000000000000022538000000000020137451922Garin Juan Pedro              000000000004000000000000000000000000000000000000000000000000000000000000000000000000000000000000000000000000000000000000PES00010000001000000000000000020170124
201701240010000700000000000000002254000000000000000022548000000000023121455374Rasero Edith                  000000000088011000000000000000000000000000000000000000000000000000000000000000000000000000000000000000000000000000000000PES00010000001000000000000000020170124
201701240010000700000000000000002255000000000000000022558000000000033710311159Pacific Trade SRL             000000000066301000000000000000000000000000000000000000000000000000000000000000000000000000000000000000000000000000000000PES00010000001000000000000000020170124
201701240010000700000000000000002256000000000000000022568000000000030711516049Condominio Ruben E Martin     000000000012995000000000000000000000000000000000000000000000000000000000000000000000000000000000000000000000000000000000PES00010000001000000000000000020170124
201701240010000700000000000000002257000000000000000022578000000000030707554548Mapa S.R.L                    000000000473010000000000000000000000000000000000000000000000000000000000000000000000000000000000000000000000000000000000PES00010000001000000000000000020170124
201701240010000700000000000000002258000000000000000022588000000000030714542083Exa Group SRL                 000000000028561000000000000000000000000000000000000000000000000000000000000000000000000000000000000000000000000000000000PES00010000001000000000000000020170124
201701240010000700000000000000002259000000000000000022598000000000030714542083Exa Group SRL                 000000000009576000000000000000000000000000000000000000000000000000000000000000000000000000000000000000000000000000000000PES00010000001000000000000000020170124
201701240010000700000000000000002260000000000000000022608000000000030714542083Exa Group SRL                 000000000011994000000000000000000000000000000000000000000000000000000000000000000000000000000000000000000000000000000000PES00010000001000000000000000020170124
201701240010000700000000000000002261000000000000000022618000000000030700051362Neca s.r.l.                   000000031195141000000000000000000000000000000000000000000000000000000000000000000000000000000000000000000000000000000000PES00010000001000000000000000020170124
201701240010000700000000000000002262000000000000000022628000000000030708362901Alexandra S.R.L               000000000001540000000000000000000000000000000000000000000000000000000000000000000000000000000000000000000000000000000000PES00010000001000000000000000020170124
201701240010000700000000000000002263000000000000000022638000000000030711812675Norterra Construcciones S     000000000021585000000000000000000000000000000000000000000000000000000000000000000000000000000000000000000000000000000000PES00010000001000000000000000020170124
201701240010000700000000000000002264000000000000000022648000000000020177929884Esteban Fonzalida Sergio      000000000034590000000000000000000000000000000000000000000000000000000000000000000000000000000000000000000000000000000000PES00010000001000000000000000020170124
201701240010000700000000000000002265000000000000000022658000000000030715007785Melle SRL                     000000000045985000000000000000000000000000000000000000000000000000000000000000000000000000000000000000000000000000000000PES00010000001000000000000000020170124
201701240060000700000000000000000491000000000000000004918000000000020000000001Consumidor Final              000000000062006000000000000000000000000000000000000000000000000000000000000000000000000000000000000000000000000000000000PES00010000001000000000000000020170124
201701240060000700000000000000000492000000000000000004928000000000033617945199Soc. Italiana 20 de Sept.     000000000056513000000000000000000000000000000000000000000000000000000000000000000000000000000000000000000000000000000000PES00010000001000000000000000020170124
201701240060000700000000000000000493000000000000000004938000000000030709457485Fundacion Pro Mujer Argen     000000000078710000000000000000000000000000000000000000000000000000000000000000000000000000000000000000000000000000000000PES00010000001000000000000000020170124
201701240060000400000000000000001388000000000000000013888000000000020000000001Consumidor Final              000000000840441000000000000000000000000000000000000000000000000000000000000000000000000000000000000000000000000000000000PES00010000001000000000000000020170124
201701250010000700000000000000002266000000000000000022668000000000033710311159Pacific Trade SRL             000000000016000000000000000000000000000000000000000000000000000000000000000000000000000000000000000000000000000000000000PES00010000001000000000000000020170125
201701250010000700000000000000002267000000000000000022678000000000030708389443La Peatonal SRL               000000000020005000000000000000000000000000000000000000000000000000000000000000000000000000000000000000000000000000000000PES00010000001000000000000000020170125
201701250010000700000000000000002268000000000000000022688000000000020083879565Falú Ricardo Manuel           000000000044048000000000000000000000000000000000000000000000000000000000000000000000000000000000000000000000000000000000PES00010000001000000000000000020170125
201701250010000700000000000000002269000000000000000022698000000000020203999519Delta Computacion             000000000027066000000000000000000000000000000000000000000000000000000000000000000000000000000000000000000000000000000000PES00010000001000000000000000020170125
201701250010000700000000000000002270000000000000000022708000000000027207069731Figueroa Alejandra            000000000073012000000000000000000000000000000000000000000000000000000000000000000000000000000000000000000000000000000000PES00010000001000000000000000020170125
201701250010000700000000000000002271000000000000000022718000000000030625616359Petrogas s.r.l.               000000000016000000000000000000000000000000000000000000000000000000000000000000000000000000000000000000000000000000000000PES00010000001000000000000000020170125
201701250010000700000000000000002272000000000000000022728000000000030625616359Petrogas s.r.l.               000000000051000000000000000000000000000000000000000000000000000000000000000000000000000000000000000000000000000000000000PES00010000001000000000000000020170125
201701250010000700000000000000002273000000000000000022738000000000027112839645Arancibia Sara Beatriz        000000000032553000000000000000000000000000000000000000000000000000000000000000000000000000000000000000000000000000000000PES00010000001000000000000000020170125
201701250010000700000000000000002274000000000000000022748000000000030711383693Grinfil SRL                   000000000005635000000000000000000000000000000000000000000000000000000000000000000000000000000000000000000000000000000000PES00010000001000000000000000020170125
201701250010000700000000000000002275000000000000000022758000000000030708389443La Peatonal SRL               000000000070064000000000000000000000000000000000000000000000000000000000000000000000000000000000000000000000000000000000PES00010000001000000000000000020170125
201701250010000700000000000000002276000000000000000022768000000000020201251444Zunino Carlos                 000000000128003000000000000000000000000000000000000000000000000000000000000000000000000000000000000000000000000000000000PES00010000001000000000000000020170125
201701250010000700000000000000002277000000000000000022778000000000030713076003Aipo SRL                      000000000077416000000000000000000000000000000000000000000000000000000000000000000000000000000000000000000000000000000000PES00010000001000000000000000020170125
201701250010000700000000000000002278000000000000000022788000000000030711383693Grinfil SRL                   000000000195113000000000000000000000000000000000000000000000000000000000000000000000000000000000000000000000000000000000PES00010000001000000000000000020170125
201701250010000700000000000000002279000000000000000022798000000000027251104331Lara Fabiana Analia           000000000015045000000000000000000000000000000000000000000000000000000000000000000000000000000000000000000000000000000000PES00010000001000000000000000020170125
201701250060000700000000000000000494000000000000000004948000000000020000000001Consumidor Final              000000000007905000000000000000000000000000000000000000000000000000000000000000000000000000000000000000000000000000000000PES00010000001000000000000000020170125
201701250060000700000000000000000495000000000000000004958000000000020000000001Consumidor Final              000000000005512000000000000000000000000000000000000000000000000000000000000000000000000000000000000000000000000000000000PES00010000001000000000000000020170125
201701250060000700000000000000000496000000000000000004968000000000030644286572Cooperadora Policial Regi     000000000068340000000000000000000000000000000000000000000000000000000000000000000000000000000000000000000000000000000000PES00010000001000000000000000020170125
201701250060000700000000000000000497000000000000000004978000000000020000000001Consumidor Final              000000000683655000000000000000000000000000000000000000000000000000000000000000000000000000000000000000000000000000000000PES00010000001000000000000000020170125
201701250060000700000000000000000498000000000000000004988000000000020000000001Consumidor Final              000000000300079000000000000000000000000000000000000000000000000000000000000000000000000000000000000000000000000000000000PES00010000001000000000000000020170125
201701250060000700000000000000000499000000000000000004998000000000020000000001Consumidor Final              000000000024225000000000000000000000000000000000000000000000000000000000000000000000000000000000000000000000000000000000PES00010000001000000000000000020170125
201701250060000700000000000000000500000000000000000005008000000000033713728409Consorcio Torres Alsina       000000000011624000000000000000000000000000000000000000000000000000000000000000000000000000000000000000000000000000000000PES00010000001000000000000000020170125
201701250060000700000000000000000501000000000000000005018000000000020000000001Consumidor Final              000000000023957000000000000000000000000000000000000000000000000000000000000000000000000000000000000000000000000000000000PES00010000001000000000000000020170125
201701250060000700000000000000000502000000000000000005028000000000020000000001Consumidor Final              000000000009000000000000000000000000000000000000000000000000000000000000000000000000000000000000000000000000000000000000PES00010000001000000000000000020170125
201701250060000700000000000000000503000000000000000005038000000000030999084180Municipalidad de Cafayate     000000009900324000000000000000000000000000000000000000000000000000000000000000000000000000000000000000000000000000000000PES00010000001000000000000000020170125
201701250060000400000000000000001389000000000000000013898000000000020000000001Consumidor Final              000000001266903000000000000000000000000000000000000000000000000000000000000000000000000000000000000000000000000000000000PES00010000001000000000000000020170125
201701260010000700000000000000002280000000000000000022808000000000020163082609Basso Danilo Miguel           000000000009036000000000000000000000000000000000000000000000000000000000000000000000000000000000000000000000000000000000PES00010000001000000000000000020170126
201701260010000700000000000000002281000000000000000022818000000000030711372705Empresa Constructora Juan     000000000003900000000000000000000000000000000000000000000000000000000000000000000000000000000000000000000000000000000000PES00010000001000000000000000020170126
201701260010000700000000000000002282000000000000000022828000000000020081714046Binda Victorio Ricardo        000000000021421000000000000000000000000000000000000000000000000000000000000000000000000000000000000000000000000000000000PES00010000001000000000000000020170126
201701260010000700000000000000002283000000000000000022838000000000033710311159Pacific Trade SRL             000000000040205000000000000000000000000000000000000000000000000000000000000000000000000000000000000000000000000000000000PES00010000001000000000000000020170126
201701260010000700000000000000002284000000000000000022848000000000020141766350Astudillo  Cesar Alejandr     000000000010061000000000000000000000000000000000000000000000000000000000000000000000000000000000000000000000000000000000PES00010000001000000000000000020170126
201701260010000700000000000000002285000000000000000022858000000000030711812675Norterra Construcciones S     000000000023065000000000000000000000000000000000000000000000000000000000000000000000000000000000000000000000000000000000PES00010000001000000000000000020170126
201701260010000700000000000000002286000000000000000022868000000000030715381938Proyectos Pastos Grandes      000000000142352000000000000000000000000000000000000000000000000000000000000000000000000000000000000000000000000000000000PES00010000001000000000000000020170126
201701260010000700000000000000002287000000000000000022878000000000033710311159Pacific Trade SRL             000000000062049000000000000000000000000000000000000000000000000000000000000000000000000000000000000000000000000000000000PES00010000001000000000000000020170126
201701260010000700000000000000002288000000000000000022888000000000027257629002Macedo Maria Carolina         000000000017068000000000000000000000000000000000000000000000000000000000000000000000000000000000000000000000000000000000PES00010000001000000000000000020170126
201701260010000700000000000000002289000000000000000022898000000000030711812675Norterra Construcciones S     000000000019805000000000000000000000000000000000000000000000000000000000000000000000000000000000000000000000000000000000PES00010000001000000000000000020170126
201701260060000700000000000000000504000000000000000005048000000000020000000001Consumidor Final              000000000208005000000000000000000000000000000000000000000000000000000000000000000000000000000000000000000000000000000000PES00010000001000000000000000020170126
201701260060000700000000000000000505000000000000000005058000000000030710110456Ministerio de Turismo y C     000000000012486000000000000000000000000000000000000000000000000000000000000000000000000000000000000000000000000000000000PES00010000001000000000000000020170126
201701260060000400000000000000001390000000000000000013908000000000020000000001Consumidor Final              000000000906000000000000000000000000000000000000000000000000000000000000000000000000000000000000000000000000000000000000PES00010000001000000000000000020170126
201701270010000700000000000000002290000000000000000022908000000000030715193082Q Seguridad                   000000000014790000000000000000000000000000000000000000000000000000000000000000000000000000000000000000000000000000000000PES00010000001000000000000000020170127
201701270010000700000000000000002291000000000000000022918000000000030711516049Condominio Ruben E Martin     000000000009001000000000000000000000000000000000000000000000000000000000000000000000000000000000000000000000000000000000PES00010000001000000000000000020170127
201701270010000700000000000000002292000000000000000022928000000000030711812675Norterra Construcciones S     000000000016000000000000000000000000000000000000000000000000000000000000000000000000000000000000000000000000000000000000PES00010000001000000000000000020170127
201701270010000700000000000000002293000000000000000022938000000000023121455374Rasero Edith                  000000000080002000000000000000000000000000000000000000000000000000000000000000000000000000000000000000000000000000000000PES00010000001000000000000000020170127
201701270010000700000000000000002294000000000000000022948000000000030708348879EFEVEDE S.A                   000000000056999000000000000000000000000000000000000000000000000000000000000000000000000000000000000000000000000000000000PES00010000001000000000000000020170127
201701270010000700000000000000002295000000000000000022958000000000030693459245Hoyts General Cinema          000000000062645000000000000000000000000000000000000000000000000000000000000000000000000000000000000000000000000000000000PES00010000001000000000000000020170127
201701270010000700000000000000002297000000000000000022978000000000030708835559Estacion Vision SRL           000000000056007000000000000000000000000000000000000000000000000000000000000000000000000000000000000000000000000000000000PES00010000001000000000000000020170127
201701270010000700000000000000002298000000000000000022988000000000020177929884Esteban Fonzalida Sergio      000000000099418000000000000000000000000000000000000000000000000000000000000000000000000000000000000000000000000000000000PES00010000001000000000000000020170127
201701270010000700000000000000002299000000000000000022998000000000030710586140A G Emprendimientos SRL       000000009930310000000000000000000000000000000000000000000000000000000000000000000000000000000000000000000000000000000000PES00010000001000000000000000020170127
201701270010000700000000000000002300000000000000000023008000000000020162973712Benavidez Everardo G          000000000002571000000000000000000000000000000000000000000000000000000000000000000000000000000000000000000000000000000000PES00010000001000000000000000020170127
201701270060000700000000000000000506000000000000000005068000000000020000000001Consumidor Final              000000000047008000000000000000000000000000000000000000000000000000000000000000000000000000000000000000000000000000000000PES00010000001000000000000000020170127
201701270060000700000000000000000507000000000000000005078000000000020000000001Consumidor Final              000000002019490000000000000000000000000000000000000000000000000000000000000000000000000000000000000000000000000000000000PES00010000001000000000000000020170127
201701270060000700000000000000000508000000000000000005088000000000020000000001Consumidor Final              000000000789207000000000000000000000000000000000000000000000000000000000000000000000000000000000000000000000000000000000PES00010000001000000000000000020170127
201701270060000400000000000000001391000000000000000013918000000000020000000001Consumidor Final              000000001716702000000000000000000000000000000000000000000000000000000000000000000000000000000000000000000000000000000000PES00010000001000000000000000020170127
201701280010000700000000000000002301000000000000000023018000000000030707325387Semaco SA                     000000000006716000000000000000000000000000000000000000000000000000000000000000000000000000000000000000000000000000000000PES00010000001000000000000000020170128
201701280010000700000000000000002302000000000000000023028000000000030693459245Hoyts General Cinema          000000000008202000000000000000000000000000000000000000000000000000000000000000000000000000000000000000000000000000000000PES00010000001000000000000000020170128
201701280010000700000000000000002303000000000000000023038000000000020083879565Falú Ricardo Manuel           000000000011502000000000000000000000000000000000000000000000000000000000000000000000000000000000000000000000000000000000PES00010000001000000000000000020170128
201701280010000700000000000000002304000000000000000023048000000000020295862867Vivero Diego David            000000000070434000000000000000000000000000000000000000000000000000000000000000000000000000000000000000000000000000000000PES00010000001000000000000000020170128
201701280010000700000000000000002305000000000000000023058000000000030708487585Agriturismo SRL               000000000033602000000000000000000000000000000000000000000000000000000000000000000000000000000000000000000000000000000000PES00010000001000000000000000020170128
201701280010000700000000000000002306000000000000000023068000000000020127475785Marquez Ricardo Hernan        000000000022092000000000000000000000000000000000000000000000000000000000000000000000000000000000000000000000000000000000PES00010000001000000000000000020170128
201701280010000700000000000000002307000000000000000023078000000000020127475785Marquez Ricardo Hernan        000000000048705000000000000000000000000000000000000000000000000000000000000000000000000000000000000000000000000000000000PES00010000001000000000000000020170128
201701280010000700000000000000002308000000000000000023088000000000030501522496Vicente Moncho Construcci     000000028500231000000000000000000000000000000000000000000000000000000000000000000000000000000000000000000000000000000000PES00010000001000000000000000020170128
201701280060000400000000000000001392000000000000000013928000000000020000000001Consumidor Final              000000001910500000000000000000000000000000000000000000000000000000000000000000000000000000000000000000000000000000000000PES00010000001000000000000000020170128
201701300010000700000000000000002309000000000000000023098000000000030693459245Hoyts General Cinema          000000000010116000000000000000000000000000000000000000000000000000000000000000000000000000000000000000000000000000000000PES00010000001000000000000000020170130
201701300010000700000000000000002310000000000000000023108000000000030679839191Concordia Construcciones      000000000022504000000000000000000000000000000000000000000000000000000000000000000000000000000000000000000000000000000000PES00010000001000000000000000020170130
201701300010000700000000000000002311000000000000000023118000000000020250691719Nisiche Juan                  000000000018502000000000000000000000000000000000000000000000000000000000000000000000000000000000000000000000000000000000PES00010000001000000000000000020170130
201701300010000700000000000000002312000000000000000023128000000000020047080461Binda Aldo Augusto            000000000021609000000000000000000000000000000000000000000000000000000000000000000000000000000000000000000000000000000000PES00010000001000000000000000020170130
201701300010000700000000000000002313000000000000000023138000000000030708835559Estacion Vision SRL           000000000066004000000000000000000000000000000000000000000000000000000000000000000000000000000000000000000000000000000000PES00010000001000000000000000020170130
201701300010000700000000000000002314000000000000000023148000000000030711383693Grinfil SRL                   000000000009350000000000000000000000000000000000000000000000000000000000000000000000000000000000000000000000000000000000PES00010000001000000000000000020170130
201701300010000700000000000000002315000000000000000023158000000000030543356421Montero Jose S.A              000000000081166000000000000000000000000000000000000000000000000000000000000000000000000000000000000000000000000000000000PES00010000001000000000000000020170130
