201703010010000700000000000000002574000000000000000025748000000000020162973712Benavidez Everardo G          000000000015000000000000000000000000000000000000000000000000000000000000000000000000000000000000000000000000000000000000PES00010000001000000000000000020170301
201703010010000700000000000000002575000000000000000025758000000000020137451922Garin Juan Pedro              000000000005985000000000000000000000000000000000000000000000000000000000000000000000000000000000000000000000000000000000PES00010000001000000000000000020170301
201703010010000700000000000000002576000000000000000025768000000000033710311159Pacific Trade SRL             000000000022950000000000000000000000000000000000000000000000000000000000000000000000000000000000000000000000000000000000PES00010000001000000000000000020170301
201703010010000700000000000000002577000000000000000025778000000000020221469098Zenteno Francisco             000000000106003000000000000000000000000000000000000000000000000000000000000000000000000000000000000000000000000000000000PES00010000001000000000000000020170301
201703010010000700000000000000002578000000000000000025788000000000020144533284Quinteros Horacio             000000000644639000000000000000000000000000000000000000000000000000000000000000000000000000000000000000000000000000000000PES00010000001000000000000000020170301
201703010010000700000000000000002579000000000000000025798000000000020162973712Benavidez Everardo G          000000000091002000000000000000000000000000000000000000000000000000000000000000000000000000000000000000000000000000000000PES00010000001000000000000000020170301
201703010010000700000000000000002580000000000000000025808000000000027224289168Bo Maria                      000000000012501000000000000000000000000000000000000000000000000000000000000000000000000000000000000000000000000000000000PES00010000001000000000000000020170301
201703010010000700000000000000002581000000000000000025818000000000030712373993Mecma SRL                     000000000092005000000000000000000000000000000000000000000000000000000000000000000000000000000000000000000000000000000000PES00010000001000000000000000020170301
201703010010000700000000000000002582000000000000000025828000000000020249689131Nanni Construcciones          000000001283249000000000000000000000000000000000000000000000000000000000000000000000000000000000000000000000000000000000PES00010000001000000000000000020170301
201703010010000700000000000000002584000000000000000025848000000000033710311159Pacific Trade SRL             000000000037804000000000000000000000000000000000000000000000000000000000000000000000000000000000000000000000000000000000PES00010000001000000000000000020170301
201703010010000700000000000000002585000000000000000025858000000000030714065897Ecos de Salta SRL             000000000040501000000000000000000000000000000000000000000000000000000000000000000000000000000000000000000000000000000000PES00010000001000000000000000020170301
201703010010000700000000000000002586000000000000000025868000000000030707138250Emprender SA                  000000000016000000000000000000000000000000000000000000000000000000000000000000000000000000000000000000000000000000000000PES00010000001000000000000000020170301
201703010010000700000000000000002587000000000000000025878000000000030709608688Brisar SRL                    000000000005694000000000000000000000000000000000000000000000000000000000000000000000000000000000000000000000000000000000PES00010000001000000000000000020170301
201703010060000700000000000000000780000000000000000007808000000000030656747834Municipalidad de San Lore     000000010000080000000000000000000000000000000000000000000000000000000000000000000000000000000000000000000000000000000000PES00010000001000000000000000020170301
201703010060000700000000000000000781000000000000000007818000000000030656747834Municipalidad de San Lore     000000003821285000000000000000000000000000000000000000000000000000000000000000000000000000000000000000000000000000000000PES00010000001000000000000000020170301
201703010060000700000000000000000782000000000000000007828000000000030656747834Municipalidad de San Lore     000000000363690000000000000000000000000000000000000000000000000000000000000000000000000000000000000000000000000000000000PES00010000001000000000000000020170301
201703010060000700000000000000000783000000000000000007838000000000030656747834Municipalidad de San Lore     000000000208005000000000000000000000000000000000000000000000000000000000000000000000000000000000000000000000000000000000PES00010000001000000000000000020170301
201703010060000700000000000000000784000000000000000007848000000000030656747834Municipalidad de San Lore     000000000194650000000000000000000000000000000000000000000000000000000000000000000000000000000000000000000000000000000000PES00010000001000000000000000020170301
201703010060000700000000000000000785000000000000000007858000000000030656747834Municipalidad de San Lore     000000000745535000000000000000000000000000000000000000000000000000000000000000000000000000000000000000000000000000000000PES00010000001000000000000000020170301
201703010060000700000000000000000786000000000000000007868000000000030656747834Municipalidad de San Lore     000000001559070000000000000000000000000000000000000000000000000000000000000000000000000000000000000000000000000000000000PES00010000001000000000000000020170301
201703010060000700000000000000000787000000000000000007878000000000030656747834Municipalidad de San Lore     000000000166946000000000000000000000000000000000000000000000000000000000000000000000000000000000000000000000000000000000PES00010000001000000000000000020170301
201703010060000700000000000000000788000000000000000007888000000000030656747834Municipalidad de San Lore     000000000109140000000000000000000000000000000000000000000000000000000000000000000000000000000000000000000000000000000000PES00010000001000000000000000020170301
201703010060000700000000000000000789000000000000000007898000000000030656747834Municipalidad de San Lore     000000000085765000000000000000000000000000000000000000000000000000000000000000000000000000000000000000000000000000000000PES00010000001000000000000000020170301
201703010060000700000000000000000790000000000000000007908000000000030656747834Municipalidad de San Lore     000000000271066000000000000000000000000000000000000000000000000000000000000000000000000000000000000000000000000000000000PES00010000001000000000000000020170301
201703010060000700000000000000000791000000000000000007918000000000030656747834Municipalidad de San Lore     000000000107726000000000000000000000000000000000000000000000000000000000000000000000000000000000000000000000000000000000PES00010000001000000000000000020170301
201703010060000700000000000000000792000000000000000007928000000000020000000001Escuela Jacoba Saravia        000000000005500000000000000000000000000000000000000000000000000000000000000000000000000000000000000000000000000000000000PES00010000001000000000000000020170301
201703010060000700000000000000000793000000000000000007938000000000030656747834Municipalidad de San Lore     000000000096930000000000000000000000000000000000000000000000000000000000000000000000000000000000000000000000000000000000PES00010000001000000000000000020170301
201703010060000700000000000000000794000000000000000007948000000000030656747834Municipalidad de San Lore     000000000213775000000000000000000000000000000000000000000000000000000000000000000000000000000000000000000000000000000000PES00010000001000000000000000020170301
201703010060000700000000000000000795000000000000000007958000000000030656747834Municipalidad de San Lore     000000000045180000000000000000000000000000000000000000000000000000000000000000000000000000000000000000000000000000000000PES00010000001000000000000000020170301
201703010060000700000000000000000796000000000000000007968000000000030656747834Municipalidad de San Lore     000000000076766000000000000000000000000000000000000000000000000000000000000000000000000000000000000000000000000000000000PES00010000001000000000000000020170301
201703010060000700000000000000000797000000000000000007978000000000030656747834Municipalidad de San Lore     000000000213307000000000000000000000000000000000000000000000000000000000000000000000000000000000000000000000000000000000PES00010000001000000000000000020170301
201703010060000700000000000000000798000000000000000007988000000000030656747834Municipalidad de San Lore     000000000196605000000000000000000000000000000000000000000000000000000000000000000000000000000000000000000000000000000000PES00010000001000000000000000020170301
201703010060000700000000000000000799000000000000000007998000000000030656747834Municipalidad de San Lore     000000000913320000000000000000000000000000000000000000000000000000000000000000000000000000000000000000000000000000000000PES00010000001000000000000000020170301
201703010060000700000000000000000800000000000000000008008000000000030656747834Municipalidad de San Lore     000000001334807000000000000000000000000000000000000000000000000000000000000000000000000000000000000000000000000000000000PES00010000001000000000000000020170301
201703010060000400000000000000001408000000000000000014088000000000020000000001Consumidor Final              000000000498700000000000000000000000000000000000000000000000000000000000000000000000000000000000000000000000000000000000PES00010000001000000000000000020170301
2017030200100007000000000000000025880000000000000000258880000000000306509310052002 SRL                      000000001550778000000000000000000000000000000000000000000000000000000000000000000000000000000000000000000000000000000000PES00010000001000000000000000020170302
201703020010000700000000000000002589000000000000000025898000000000030536158339Gomez Roco y Cia SRL          000000000073004000000000000000000000000000000000000000000000000000000000000000000000000000000000000000000000000000000000PES00010000001000000000000000020170302
201703020010000700000000000000002590000000000000000025908000000000030715484451Fideicomiso Tor               000000000044000000000000000000000000000000000000000000000000000000000000000000000000000000000000000000000000000000000000PES00010000001000000000000000020170302
201703020010000700000000000000002591000000000000000025918000000000027929338923Gimenez  Nancy                000000000008010000000000000000000000000000000000000000000000000000000000000000000000000000000000000000000000000000000000PES00010000001000000000000000020170302
201703020010000700000000000000002592000000000000000025928000000000033710311159Pacific Trade SRL             000000000025502000000000000000000000000000000000000000000000000000000000000000000000000000000000000000000000000000000000PES00010000001000000000000000020170302
201703020010000700000000000000002593000000000000000025938000000000027929338923Gimenez  Nancy                000000000044008000000000000000000000000000000000000000000000000000000000000000000000000000000000000000000000000000000000PES00010000001000000000000000020170302
201703020010000700000000000000002594000000000000000025948000000000033709488959Comercial Lima S.A            000000000010001000000000000000000000000000000000000000000000000000000000000000000000000000000000000000000000000000000000PES00010000001000000000000000020170302
201703020010000700000000000000002595000000000000000025958000000000020122204074Bassani Carlos Enrique        000000000240006000000000000000000000000000000000000000000000000000000000000000000000000000000000000000000000000000000000PES00010000001000000000000000020170302
201703020010000700000000000000002596000000000000000025968000000000030709781037Idem SRL                      000000000032001000000000000000000000000000000000000000000000000000000000000000000000000000000000000000000000000000000000PES00010000001000000000000000020170302
201703020010000700000000000000002597000000000000000025978000000000033710311159Pacific Trade SRL             000000000382500000000000000000000000000000000000000000000000000000000000000000000000000000000000000000000000000000000000PES00010000001000000000000000020170302
201703020010000700000000000000002598000000000000000025988000000000020177929884Esteban Fonzalida Sergio      000000000043180000000000000000000000000000000000000000000000000000000000000000000000000000000000000000000000000000000000PES00010000001000000000000000020170302
201703020010000700000000000000002599000000000000000025998000000000020162973712Benavidez Everardo G          000000000105005000000000000000000000000000000000000000000000000000000000000000000000000000000000000000000000000000000000PES00010000001000000000000000020170302
201703020010000700000000000000002600000000000000000026008000000000030707474307Crew Live S.A                 000000000004505000000000000000000000000000000000000000000000000000000000000000000000000000000000000000000000000000000000PES00010000001000000000000000020170302
201703020010000700000000000000002601000000000000000026018000000000030536158339Gomez Roco y Cia SRL          000000002005650000000000000000000000000000000000000000000000000000000000000000000000000000000000000000000000000000000000PES00010000001000000000000000020170302
201703020010000700000000000000002602000000000000000026028000000000027163074635Alvarado Claudia Susana       000000000007005000000000000000000000000000000000000000000000000000000000000000000000000000000000000000000000000000000000PES00010000001000000000000000020170302
201703020060000700000000000000000801000000000000000008018000000000030656747834Municipalidad de San Lore     000000001550777000000000000000000000000000000000000000000000000000000000000000000000000000000000000000000000000000000000PES00010000001000000000000000020170302
201703020060000700000000000000000802000000000000000008028000000000030656747834Municipalidad de San Lore     000000000538492000000000000000000000000000000000000000000000000000000000000000000000000000000000000000000000000000000000PES00010000001000000000000000020170302
201703020060000700000000000000000803000000000000000008038000000000030656747834Municipalidad de San Lore     000000000085223000000000000000000000000000000000000000000000000000000000000000000000000000000000000000000000000000000000PES00010000001000000000000000020170302
201703020060000700000000000000000804000000000000000008048000000000030656747834Municipalidad de San Lore     000000000033150000000000000000000000000000000000000000000000000000000000000000000000000000000000000000000000000000000000PES00010000001000000000000000020170302
201703020060000700000000000000000805000000000000000008058000000000030656747834Municipalidad de San Lore     000000000074880000000000000000000000000000000000000000000000000000000000000000000000000000000000000000000000000000000000PES00010000001000000000000000020170302
201703020060000700000000000000000806000000000000000008068000000000030710110456Ministerio de Turismo y C     000000000030030000000000000000000000000000000000000000000000000000000000000000000000000000000000000000000000000000000000PES00010000001000000000000000020170302
201703020060000700000000000000000807000000000000000008078000000000020000000001Escuela Jacoba Saravia        000000000031206000000000000000000000000000000000000000000000000000000000000000000000000000000000000000000000000000000000PES00010000001000000000000000020170302
2017030200300007000000000000000000300000000000000000003080000000000306509310052002 SRL                      000000001550778000000000000000000000000000000000000000000000000000000000000000000000000000000000000000000000000000000000PES00010000001000000000000000020170302
201703020060000400000000000000001409000000000000000014098000000000020000000001Consumidor Final              000000001028502000000000000000000000000000000000000000000000000000000000000000000000000000000000000000000000000000000000PES00010000001000000000000000020170302
201703030010000700000000000000002603000000000000000026038000000000030708765216Ing Victor Hugo Rulli SRL     000000000029770000000000000000000000000000000000000000000000000000000000000000000000000000000000000000000000000000000000PES00010000001000000000000000020170303
201703030010000700000000000000002604000000000000000026048000000000030715411772Fideicomiso Belgrano 1557     000000000012001000000000000000000000000000000000000000000000000000000000000000000000000000000000000000000000000000000000PES00010000001000000000000000020170303
201703030010000700000000000000002605000000000000000026058000000000020110606355Casado Hector Raul            000000000046006000000000000000000000000000000000000000000000000000000000000000000000000000000000000000000000000000000000PES00010000001000000000000000020170303
201703030010000700000000000000002606000000000000000026068000000000030714065897Ecos de Salta SRL             000000000031687000000000000000000000000000000000000000000000000000000000000000000000000000000000000000000000000000000000PES00010000001000000000000000020170303
201703030010000700000000000000002607000000000000000026078000000000030714065897Ecos de Salta SRL             000000000006631000000000000000000000000000000000000000000000000000000000000000000000000000000000000000000000000000000000PES00010000001000000000000000020170303
201703030010000700000000000000002608000000000000000026088000000000020110606355Casado Hector Raul            000000000205921000000000000000000000000000000000000000000000000000000000000000000000000000000000000000000000000000000000PES00010000001000000000000000020170303
201703030010000700000000000000002609000000000000000026098000000000020137014530Arias Vicente Martin          000000000240006000000000000000000000000000000000000000000000000000000000000000000000000000000000000000000000000000000000PES00010000001000000000000000020170303
201703030010000700000000000000002610000000000000000026108000000000027125536048Saravia Josefina              000000000105910000000000000000000000000000000000000000000000000000000000000000000000000000000000000000000000000000000000PES00010000001000000000000000020170303
201703030010000700000000000000002611000000000000000026118000000000030712509941Molca SRL                     000000000030001000000000000000000000000000000000000000000000000000000000000000000000000000000000000000000000000000000000PES00010000001000000000000000020170303
201703030010000700000000000000002612000000000000000026128000000000020045922872Carro Jorge Alberto           000000000026008000000000000000000000000000000000000000000000000000000000000000000000000000000000000000000000000000000000PES00010000001000000000000000020170303
201703030010000700000000000000002613000000000000000026138000000000030711383693Grinfil SRL                   000000000010003000000000000000000000000000000000000000000000000000000000000000000000000000000000000000000000000000000000PES00010000001000000000000000020170303
201703030010000700000000000000002614000000000000000026148000000000020162973712Benavidez Everardo G          000000000022831000000000000000000000000000000000000000000000000000000000000000000000000000000000000000000000000000000000PES00010000001000000000000000020170303
201703030010000700000000000000002615000000000000000026158000000000030711372705Garin Juan Pedro Construc     000000000095530000000000000000000000000000000000000000000000000000000000000000000000000000000000000000000000000000000000PES00010000001000000000000000020170303
201703030010000700000000000000002616000000000000000026168000000000020137451922Garin Juan Pedro              000000000026605000000000000000000000000000000000000000000000000000000000000000000000000000000000000000000000000000000000PES00010000001000000000000000020170303
201703030010000700000000000000002617000000000000000026178000000000020250691719Nisiche Juan                  000000000045900000000000000000000000000000000000000000000000000000000000000000000000000000000000000000000000000000000000PES00010000001000000000000000020170303
201703030010000700000000000000002618000000000000000026188000000000030714065897Ecos de Salta SRL             000000000019503000000000000000000000000000000000000000000000000000000000000000000000000000000000000000000000000000000000PES00010000001000000000000000020170303
201703030010000700000000000000002619000000000000000026198000000000030714065897Ecos de Salta SRL             000000000006306000000000000000000000000000000000000000000000000000000000000000000000000000000000000000000000000000000000PES00010000001000000000000000020170303
201703030010000700000000000000002620000000000000000026208000000000030714048704Emervida SRL                  000000003200074000000000000000000000000000000000000000000000000000000000000000000000000000000000000000000000000000000000PES00010000001000000000000000020170303
201703030010000700000000000000002621000000000000000026218000000000033710311159Pacific Trade SRL             000000000029240000000000000000000000000000000000000000000000000000000000000000000000000000000000000000000000000000000000PES00010000001000000000000000020170303
201703030010000700000000000000002622000000000000000026228000000000033710311159Pacific Trade SRL             000000000039780000000000000000000000000000000000000000000000000000000000000000000000000000000000000000000000000000000000PES00010000001000000000000000020170303
201703030060000700000000000000000808000000000000000008088000000000030533610338Club de Gimnasia y Tiro A     000000000021008000000000000000000000000000000000000000000000000000000000000000000000000000000000000000000000000000000000PES00010000001000000000000000020170303
201703030060000700000000000000000809000000000000000008098000000000030999284651Policia de Salta              000000000010806000000000000000000000000000000000000000000000000000000000000000000000000000000000000000000000000000000000PES00010000001000000000000000020170303
201703030060000700000000000000000810000000000000000008108000000000030999284651Policia de Salta              000000000012012000000000000000000000000000000000000000000000000000000000000000000000000000000000000000000000000000000000PES00010000001000000000000000020170303
201703030060000700000000000000000811000000000000000008118000000000030999275474Hospital San Bernardo         000000000016000000000000000000000000000000000000000000000000000000000000000000000000000000000000000000000000000000000000PES00010000001000000000000000020170303
201703030060000400000000000000001410000000000000000014108000000000020000000001Consumidor Final              000000000828500000000000000000000000000000000000000000000000000000000000000000000000000000000000000000000000000000000000PES00010000001000000000000000020170303
201703040010000700000000000000002623000000000000000026238000000000033710311159Pacific Trade SRL             000000000138720000000000000000000000000000000000000000000000000000000000000000000000000000000000000000000000000000000000PES00010000001000000000000000020170304
201703040010000700000000000000002624000000000000000026248000000000020137451922Garin Juan Pedro              000000000006716000000000000000000000000000000000000000000000000000000000000000000000000000000000000000000000000000000000PES00010000001000000000000000020170304
201703040010000700000000000000002625000000000000000026258000000000027929338923Gimenez  Nancy                000000000082808000000000000000000000000000000000000000000000000000000000000000000000000000000000000000000000000000000000PES00010000001000000000000000020170304
201703040010000700000000000000002626000000000000000026268000000000030711372705Garin Juan Pedro Construc     000000000013501000000000000000000000000000000000000000000000000000000000000000000000000000000000000000000000000000000000PES00010000001000000000000000020170304
201703040010000700000000000000002627000000000000000026278000000000020162973712Benavidez Everardo G          000000000023011000000000000000000000000000000000000000000000000000000000000000000000000000000000000000000000000000000000PES00010000001000000000000000020170304
201703040010000700000000000000002628000000000000000026288000000000030707474307Crew Live S.A                 000000000019019000000000000000000000000000000000000000000000000000000000000000000000000000000000000000000000000000000000PES00010000001000000000000000020170304
201703040010000700000000000000002629000000000000000026298000000000030709608688Brisar SRL                    000000000021992000000000000000000000000000000000000000000000000000000000000000000000000000000000000000000000000000000000PES00010000001000000000000000020170304
201703040060000700000000000000000812000000000000000008128000000000030656747834Municipalidad de San Lore     000000000182007000000000000000000000000000000000000000000000000000000000000000000000000000000000000000000000000000000000PES00010000001000000000000000020170304
201703040060000400000000000000001411000000000000000014118000000000020000000001Consumidor Final              000000000643601000000000000000000000000000000000000000000000000000000000000000000000000000000000000000000000000000000000PES00010000001000000000000000020170304
201703060010000700000000000000002630000000000000000026308000000000030711372705Garin Juan Pedro Construc     000000000010200000000000000000000000000000000000000000000000000000000000000000000000000000000000000000000000000000000000PES00010000001000000000000000020170306
201703060010000700000000000000002631000000000000000026318000000000027112833892Lopez Norma Alicia            000000000037506000000000000000000000000000000000000000000000000000000000000000000000000000000000000000000000000000000000PES00010000001000000000000000020170306
201703060010000700000000000000002632000000000000000026328000000000020162972147Chuquisaca Victor             000000000009502000000000000000000000000000000000000000000000000000000000000000000000000000000000000000000000000000000000PES00010000001000000000000000020170306
201703060010000700000000000000002633000000000000000026338000000000030644225360Servicios Viales de Pigue     000000018417113000000000000000000000000000000000000000000000000000000000000000000000532116000000000000000000000000000000PES00010000001000000000000000020170306
201703060010000700000000000000002635000000000000000026358000000000030709467499SAS Aeroaplicaciones SRL      000000003564999000000000000000000000000000000000000000000000000000000000000000000000000000000000000000000000000000000000PES00010000001000000000000000020170306
201703060010000700000000000000002637000000000000000026378000000000033518604339Galerias Margalef ICIF        000000000882221000000000000000000000000000000000000000000000000000000000000000000000000000000000000000000000000000000000PES00010000001000000000000000020170306
201703060010000700000000000000002638000000000000000026388000000000020180198971Mariano Lerida                000000000023005000000000000000000000000000000000000000000000000000000000000000000000000000000000000000000000000000000000PES00010000001000000000000000020170306
201703060010000700000000000000002639000000000000000026398000000000030712988807Rojo Mora                     000000000056506000000000000000000000000000000000000000000000000000000000000000000000000000000000000000000000000000000000PES00010000001000000000000000020170306
201703060010000700000000000000002640000000000000000026408000000000030710398980Horacio Bielli Div. Empre     000000000034191000000000000000000000000000000000000000000000000000000000000000000000000000000000000000000000000000000000PES00010000001000000000000000020170306
201703060010000700000000000000002641000000000000000026418000000000030710322402Emprender Noa SRL             000000000020037000000000000000000000000000000000000000000000000000000000000000000000000000000000000000000000000000000000PES00010000001000000000000000020170306
201703060010000700000000000000002642000000000000000026428000000000030715500643Binda Y Jarsun SRL            000000000042021000000000000000000000000000000000000000000000000000000000000000000000000000000000000000000000000000000000PES00010000001000000000000000020170306
201703060060000700000000000000000813000000000000000008138000000000030533610338Club de Gimnasia y Tiro A     000000000018360000000000000000000000000000000000000000000000000000000000000000000000000000000000000000000000000000000000PES00010000001000000000000000020170306
201703060060000700000000000000000814000000000000000008148000000000030999284651Policia de Salta              000000000347276000000000000000000000000000000000000000000000000000000000000000000000000000000000000000000000000000000000PES00010000001000000000000000020170306
201703060030000700000000000000000031000000000000000000318000000000030715066056ABC Latinoamericana de Co     000000000912608000000000000000000000000000000000000000000000000000000000000000000000000000000000000000000000000000000000PES00010000001000000000000000020170306
201703060060000400000000000000001412000000000000000014128000000000020000000001Consumidor Final              000000001020700000000000000000000000000000000000000000000000000000000000000000000000000000000000000000000000000000000000PES00010000001000000000000000020170306
201703070010000700000000000000002643000000000000000026438000000000027171312103Aguilar Elisa                 000000000050056000000000000000000000000000000000000000000000000000000000000000000000000000000000000000000000000000000000PES00010000001000000000000000020170307
201703070010000700000000000000002644000000000000000026448000000000030712336478Astur SRL                     000000000010500000000000000000000000000000000000000000000000000000000000000000000000000000000000000000000000000000000000PES00010000001000000000000000020170307
201703070010000700000000000000002645000000000000000026458000000000030712336478Astur SRL                     000000000010500000000000000000000000000000000000000000000000000000000000000000000000000000000000000000000000000000000000PES00010000001000000000000000020170307
201703070010000700000000000000002646000000000000000026468000000000030604669940Merpe SRL                     000000000013001000000000000000000000000000000000000000000000000000000000000000000000000000000000000000000000000000000000PES00010000001000000000000000020170307
201703070010000700000000000000002647000000000000000026478000000000020130548076Srur Antonio                  000000000081499000000000000000000000000000000000000000000000000000000000000000000000000000000000000000000000000000000000PES00010000001000000000000000020170307
201703070010000700000000000000002648000000000000000026488000000000030616928828Vidmar SRL                    000000000020825000000000000000000000000000000000000000000000000000000000000000000000000000000000000000000000000000000000PES00010000001000000000000000020170307
201703070010000700000000000000002649000000000000000026498000000000030616928828Vidmar SRL                    000000000020801000000000000000000000000000000000000000000000000000000000000000000000000000000000000000000000000000000000PES00010000001000000000000000020170307
201703070010000700000000000000002650000000000000000026508000000000033634687829Inghehco SA                   000000000121380000000000000000000000000000000000000000000000000000000000000000000000000000000000000000000000000000000000PES00010000001000000000000000020170307
201703070010000700000000000000002651000000000000000026518000000000030714542083Exa Group SRL                 000000000048025000000000000000000000000000000000000000000000000000000000000000000000000000000000000000000000000000000000PES00010000001000000000000000020170307
201703070060000700000000000000000815000000000000000008158000000000030628540787Colegio 5095                  000000000004463000000000000000000000000000000000000000000000000000000000000000000000000000000000000000000000000000000000PES00010000001000000000000000020170307
201703070060000700000000000000000816000000000000000008168000000000030568952762La Casas de los Ninos         000000000011985000000000000000000000000000000000000000000000000000000000000000000000000000000000000000000000000000000000PES00010000001000000000000000020170307
201703070030000700000000000000000032000000000000000000328000000000030712336478Astur SRL                     000000000010500000000000000000000000000000000000000000000000000000000000000000000000000000000000000000000000000000000000PES00010000001000000000000000020170307
201703070030000700000000000000000033000000000000000000338000000000030616928828Vidmar SRL                    000000000020825000000000000000000000000000000000000000000000000000000000000000000000000000000000000000000000000000000000PES00010000001000000000000000020170307
201703070060000400000000000000001413000000000000000014138000000000020000000001Consumidor Final              000000000699901000000000000000000000000000000000000000000000000000000000000000000000000000000000000000000000000000000000PES00010000001000000000000000020170307
201703080010000700000000000000002652000000000000000026528000000000020221469098Zenteno Francisco             000000000190014000000000000000000000000000000000000000000000000000000000000000000000000000000000000000000000000000000000PES00010000001000000000000000020170308
201703080010000700000000000000002653000000000000000026538000000000027929338923Gimenez  Nancy                000000000067511000000000000000000000000000000000000000000000000000000000000000000000000000000000000000000000000000000000PES00010000001000000000000000020170308
201703080010000700000000000000002654000000000000000026548000000000033710311159Pacific Trade SRL             000000000023119000000000000000000000000000000000000000000000000000000000000000000000000000000000000000000000000000000000PES00010000001000000000000000020170308
201703080010000700000000000000002655000000000000000026558000000000027163342451Ramirez  Alcia                000000000010456000000000000000000000000000000000000000000000000000000000000000000000000000000000000000000000000000000000PES00010000001000000000000000020170308
201703080010000700000000000000002656000000000000000026568000000000027051124214Naranjo Ana Maria             000000000016000000000000000000000000000000000000000000000000000000000000000000000000000000000000000000000000000000000000PES00010000001000000000000000020170308
201703080010000700000000000000002657000000000000000026578000000000027929338923Gimenez  Nancy                000000000262078000000000000000000000000000000000000000000000000000000000000000000000000000000000000000000000000000000000PES00010000001000000000000000020170308
201703080010000700000000000000002658000000000000000026588000000000030710586140AG  Emprendimientos SRL       000000000003089000000000000000000000000000000000000000000000000000000000000000000000000000000000000000000000000000000000PES00010000001000000000000000020170308
201703080010000700000000000000002659000000000000000026598000000000027173547116Escandar Viviana Alejandr     000000000048451000000000000000000000000000000000000000000000000000000000000000000000000000000000000000000000000000000000PES00010000001000000000000000020170308
201703080010000700000000000000002660000000000000000026608000000000030714141615Tricor                        000000000024140000000000000000000000000000000000000000000000000000000000000000000000000000000000000000000000000000000000PES00010000001000000000000000020170308
201703080010000700000000000000002661000000000000000026618000000000033708490739Frigorifico La Florida SR     000000000288318000000000000000000000000000000000000000000000000000000000000000000000000000000000000000000000000000000000PES00010000001000000000000000020170308
201703080010000700000000000000002662000000000000000026628000000000033708490739Frigorifico La Florida SR     000000000016660000000000000000000000000000000000000000000000000000000000000000000000000000000000000000000000000000000000PES00010000001000000000000000020170308
201703080060000700000000000000000817000000000000000008178000000000030628540787Colegio 5095                  000000000001487000000000000000000000000000000000000000000000000000000000000000000000000000000000000000000000000000000000PES00010000001000000000000000020170308
201703080060000400000000000000001414000000000000000014148000000000020000000001Consumidor Final              000000000912004000000000000000000000000000000000000000000000000000000000000000000000000000000000000000000000000000000000PES00010000001000000000000000020170308
201703090010000700000000000000002663000000000000000026638000000000030714048704Emervida SRL                  000000004500452000000000000000000000000000000000000000000000000000000000000000000000000000000000000000000000000000000000PES00010000001000000000000000020170309
201703090010000700000000000000002664000000000000000026648000000000020295862867Vivero Diego David            000000000073313000000000000000000000000000000000000000000000000000000000000000000000000000000000000000000000000000000000PES00010000001000000000000000020170309
201703090010000700000000000000002665000000000000000026658000000000030709608688Brisar SRL                    000000000011800000000000000000000000000000000000000000000000000000000000000000000000000000000000000000000000000000000000PES00010000001000000000000000020170309
201703090010000700000000000000002666000000000000000026668000000000030711603553Soluciones Tecnicas Gener     000000000004730000000000000000000000000000000000000000000000000000000000000000000000000000000000000000000000000000000000PES00010000001000000000000000020170309
201703090010000700000000000000002667000000000000000026678000000000020323650218Villa Luis Ricardo            000000000080002000000000000000000000000000000000000000000000000000000000000000000000000000000000000000000000000000000000PES00010000001000000000000000020170309
201703090010000700000000000000002668000000000000000026688000000000027112833892Lopez Norma Alicia            000000000025436000000000000000000000000000000000000000000000000000000000000000000000000000000000000000000000000000000000PES00010000001000000000000000020170309
201703090010000700000000000000002669000000000000000026698000000000027101725869Laconi Maria Ines             000000000003700000000000000000000000000000000000000000000000000000000000000000000000000000000000000000000000000000000000PES00010000001000000000000000020170309
201703090010000700000000000000002670000000000000000026708000000000020122204074Bassani Carlos Enrique        000000000240006000000000000000000000000000000000000000000000000000000000000000000000000000000000000000000000000000000000PES00010000001000000000000000020170309
201703090010000700000000000000002671000000000000000026718000000000020323650218Villa Luis Ricardo            000000000080002000000000000000000000000000000000000000000000000000000000000000000000000000000000000000000000000000000000PES00010000001000000000000000020170309
201703090010000700000000000000002672000000000000000026728000000000030673125804JJ Gay y cia SRL              000000000086533000000000000000000000000000000000000000000000000000000000000000000000000000000000000000000000000000000000PES00010000001000000000000000020170309
201703090010000700000000000000002673000000000000000026738000000000030709608688Brisar SRL                    000000000021930000000000000000000000000000000000000000000000000000000000000000000000000000000000000000000000000000000000PES00010000001000000000000000020170309
201703090010000700000000000000002674000000000000000026748000000000020082943510Liendro Roberto Antonio       000000000112011000000000000000000000000000000000000000000000000000000000000000000000000000000000000000000000000000000000PES00010000001000000000000000020170309
201703090010000700000000000000002675000000000000000026758000000000030712306358IL Calcio SRL                 000000000007999000000000000000000000000000000000000000000000000000000000000000000000000000000000000000000000000000000000PES00010000001000000000000000020170309
201703090060000700000000000000000818000000000000000008188000000000020000000001Consumidor Final              000000000799510000000000000000000000000000000000000000000000000000000000000000000000000000000000000000000000000000000000PES00010000001000000000000000020170309
201703090060000700000000000000000819000000000000000008198000000000030568952762La Casas de los Ninos         000000000009030000000000000000000000000000000000000000000000000000000000000000000000000000000000000000000000000000000000PES00010000001000000000000000020170309
201703090060000700000000000000000820000000000000000008208000000000030709065897La Lucinda club de Campo      000000000018853000000000000000000000000000000000000000000000000000000000000000000000000000000000000000000000000000000000PES00010000001000000000000000020170309
201703090060000400000000000000001415000000000000000014158000000000020000000001Consumidor Final              000000001406392000000000000000000000000000000000000000000000000000000000000000000000000000000000000000000000000000000000PES00010000001000000000000000020170309
201703100010000700000000000000002676000000000000000026768000000000030708835559Estacion Vision SRL           000000000081090000000000000000000000000000000000000000000000000000000000000000000000000000000000000000000000000000000000PES00010000001000000000000000020170310
201703100010000700000000000000002677000000000000000026778000000000033708296959Inteco SRL                    000000000148104000000000000000000000000000000000000000000000000000000000000000000000000000000000000000000000000000000000PES00010000001000000000000000020170310
201703100010000700000000000000002678000000000000000026788000000000030711383693Grinfil SRL                   000000000029325000000000000000000000000000000000000000000000000000000000000000000000000000000000000000000000000000000000PES00010000001000000000000000020170310
201703100010000700000000000000002679000000000000000026798000000000030536158339Gomez Roco y Cia SRL          000000002028396000000000000000000000000000000000000000000000000000000000000000000000000000000000000000000000000000000000PES00010000001000000000000000020170310
201703100010000700000000000000002681000000000000000026818000000000030690721321Antonio Srur SRL              000000000075564000000000000000000000000000000000000000000000000000000000000000000000000000000000000000000000000000000000PES00010000001000000000000000020170310
201703100010000700000000000000002682000000000000000026828000000000027929338923Gimenez  Nancy                000000000021337000000000000000000000000000000000000000000000000000000000000000000000000000000000000000000000000000000000PES00010000001000000000000000020170310
201703100010000700000000000000002683000000000000000026838000000000033710311159Pacific Trade SRL             000000000065535000000000000000000000000000000000000000000000000000000000000000000000000000000000000000000000000000000000PES00010000001000000000000000020170310
201703100010000700000000000000002684000000000000000026848000000000033533193469Hotel Salta s.a.              000000000011592000000000000000000000000000000000000000000000000000000000000000000000000000000000000000000000000000000000PES00010000001000000000000000020170310
201703100010000700000000000000002685000000000000000026858000000000020083879565Falú Ricardo Manuel           000000000011474000000000000000000000000000000000000000000000000000000000000000000000000000000000000000000000000000000000PES00010000001000000000000000020170310
201703100010000700000000000000002686000000000000000026868000000000020177929884Esteban Fonzalida Sergio      000000000122053000000000000000000000000000000000000000000000000000000000000000000000000000000000000000000000000000000000PES00010000001000000000000000020170310
201703100010000700000000000000002687000000000000000026878000000000027929338923Gimenez  Nancy                000000000094350000000000000000000000000000000000000000000000000000000000000000000000000000000000000000000000000000000000PES00010000001000000000000000020170310
201703100060000700000000000000000821000000000000000008218000000000020000000001Escuela Jacoba Saravia        000000000028000000000000000000000000000000000000000000000000000000000000000000000000000000000000000000000000000000000000PES00010000001000000000000000020170310
201703100060000700000000000000000822000000000000000008228000000000030715126652Ministerio de Derechos Hu     000000000005000000000000000000000000000000000000000000000000000000000000000000000000000000000000000000000000000000000000PES00010000001000000000000000020170310
201703100060000700000000000000000824000000000000000008248000000000023036751614Estrada Heredia Yone          000000000108498000000000000000000000000000000000000000000000000000000000000000000000000000000000000000000000000000000000PES00010000001000000000000000020170310
201703100060000700000000000000000825000000000000000008258000000000023036751614Estrada Herminda Yone         000000000108562000000000000000000000000000000000000000000000000000000000000000000000000000000000000000000000000000000000PES00010000001000000000000000020170310
201703100060000700000000000000000826000000000000000008268000000000020000000001Escuela Jacoba Saravia        000000000014690000000000000000000000000000000000000000000000000000000000000000000000000000000000000000000000000000000000PES00010000001000000000000000020170310
201703100080000700000000000000000006000000000000000000068000000000023036751614Estrada Herminda Yone         000000000108498000000000000000000000000000000000000000000000000000000000000000000000000000000000000000000000000000000000PES00010000001000000000000000020170310
201703100060000400000000000000001416000000000000000014168000000000020000000001Consumidor Final              000000000776231000000000000000000000000000000000000000000000000000000000000000000000000000000000000000000000000000000000PES00010000001000000000000000020170310
201703110010000700000000000000002688000000000000000026888000000000020110606355Casado Hector Raul            000000000271302000000000000000000000000000000000000000000000000000000000000000000000000000000000000000000000000000000000PES00010000001000000000000000020170311
201703110010000700000000000000002689000000000000000026898000000000027218485583Humana Gabina Sandra          000000000008300000000000000000000000000000000000000000000000000000000000000000000000000000000000000000000000000000000000PES00010000001000000000000000020170311
201703110010000700000000000000002690000000000000000026908000000000030585579544Sanatorio Parque s.a          000000000039039000000000000000000000000000000000000000000000000000000000000000000000000000000000000000000000000000000000PES00010000001000000000000000020170311
201703110010000700000000000000002691000000000000000026918000000000030662049618Ocasa                         000000000013000000000000000000000000000000000000000000000000000000000000000000000000000000000000000000000000000000000000PES00010000001000000000000000020170311
201703110010000700000000000000002692000000000000000026928000000000030707325387Semaco SA                     000000000003505000000000000000000000000000000000000000000000000000000000000000000000000000000000000000000000000000000000PES00010000001000000000000000020170311
201703110060000400000000000000001417000000000000000014178000000000020000000001Consumidor Final              000000000929501000000000000000000000000000000000000000000000000000000000000000000000000000000000000000000000000000000000PES00010000001000000000000000020170311
201703130010000700000000000000002693000000000000000026938000000000030679839191Concordia Construcciones      000000000025075000000000000000000000000000000000000000000000000000000000000000000000000000000000000000000000000000000000PES00010000001000000000000000020170313
201703130010000700000000000000002694000000000000000026948000000000030585579544Sanatorio Parque s.a          000000000002500000000000000000000000000000000000000000000000000000000000000000000000000000000000000000000000000000000000PES00010000001000000000000000020170313
201703130010000700000000000000002695000000000000000026958000000000030710586140A G Emprendimientos SRL       000000021828204000000000000000000000000000000000000000000000000000000000000000000000000000000000000000000000000000000000PES00010000001000000000000000020170313
201703130010000700000000000000002696000000000000000026968000000000020295862867Vivero Diego David            000000000101742000000000000000000000000000000000000000000000000000000000000000000000000000000000000000000000000000000000PES00010000001000000000000000020170313
201703130010000700000000000000002697000000000000000026978000000000030690700758B M I SA                      000000000353514000000000000000000000000000000000000000000000000000000000000000000000000000000000000000000000000000000000PES00010000001000000000000000020170313
201703130010000700000000000000002698000000000000000026988000000000027929338923Gimenez  Nancy                000000000361589000000000000000000000000000000000000000000000000000000000000000000000000000000000000000000000000000000000PES00010000001000000000000000020170313
201703130010000700000000000000002699000000000000000026998000000000030707474307Crew Live S.A                 000000000002502000000000000000000000000000000000000000000000000000000000000000000000000000000000000000000000000000000000PES00010000001000000000000000020170313
201703130010000700000000000000002700000000000000000027008000000000030616928828Vidmar SRL                    000000000022001000000000000000000000000000000000000000000000000000000000000000000000000000000000000000000000000000000000PES00010000001000000000000000020170313
201703130010000700000000000000002701000000000000000027018000000000030709608688Brisar SRL                    000000000007300000000000000000000000000000000000000000000000000000000000000000000000000000000000000000000000000000000000PES00010000001000000000000000020170313
201703130010000700000000000000002702000000000000000027028000000000030709608688Brisar SRL                    000000000005800000000000000000000000000000000000000000000000000000000000000000000000000000000000000000000000000000000000PES00010000001000000000000000020170313
201703130010000700000000000000002703000000000000000027038000000000020110606355Casado Hector Raul            000000000055421000000000000000000000000000000000000000000000000000000000000000000000000000000000000000000000000000000000PES00010000001000000000000000020170313
201703130010000700000000000000002704000000000000000027048000000000020081714046Binda Victorio Ricardo        000000000004800000000000000000000000000000000000000000000000000000000000000000000000000000000000000000000000000000000000PES00010000001000000000000000020170313
201703130010000700000000000000002705000000000000000027058000000000020249689131Nanni Construcciones          000000000059583000000000000000000000000000000000000000000000000000000000000000000000000000000000000000000000000000000000PES00010000001000000000000000020170313
201703130010000700000000000000002706000000000000000027068000000000030679839191Concordia Construcciones      000000000025075000000000000000000000000000000000000000000000000000000000000000000000000000000000000000000000000000000000PES00010000001000000000000000020170313
201703130010000700000000000000002707000000000000000027078000000000020204451371Romero Hector Fabian          000000000012505000000000000000000000000000000000000000000000000000000000000000000000000000000000000000000000000000000000PES00010000001000000000000000020170313
201703130060000700000000000000000827000000000000000008278000000000033712160409Secretaria de Seguridad       000000000049706000000000000000000000000000000000000000000000000000000000000000000000000000000000000000000000000000000000PES00010000001000000000000000020170313
201703130060000400000000000000001418000000000000000014188000000000020000000001Consumidor Final              000000000364200000000000000000000000000000000000000000000000000000000000000000000000000000000000000000000000000000000000PES00010000001000000000000000020170313
201703140010000700000000000000002708000000000000000027088000000000033714620229Sakya SA                      000000000078004000000000000000000000000000000000000000000000000000000000000000000000000000000000000000000000000000000000PES00010000001000000000000000020170314
201703140010000700000000000000002709000000000000000027098000000000020203999519Delta Computacion             000000000032782000000000000000000000000000000000000000000000000000000000000000000000000000000000000000000000000000000000PES00010000001000000000000000020170314
201703140010000700000000000000002710000000000000000027108000000000030707474307Crew Live S.A                 000000000018502000000000000000000000000000000000000000000000000000000000000000000000000000000000000000000000000000000000PES00010000001000000000000000020170314
201703140010000700000000000000002711000000000000000027118000000000020041947986Haddad Luis Solim             000000000035302000000000000000000000000000000000000000000000000000000000000000000000000000000000000000000000000000000000PES00010000001000000000000000020170314
201703140010000700000000000000002712000000000000000027128000000000030679839191Concordia Construcciones      000000000025075000000000000000000000000000000000000000000000000000000000000000000000000000000000000000000000000000000000PES00010000001000000000000000020170314
201703140010000700000000000000002713000000000000000027138000000000020217922276Humano Omar Alfredo           000000000032001000000000000000000000000000000000000000000000000000000000000000000000000000000000000000000000000000000000PES00010000001000000000000000020170314
201703140010000700000000000000002714000000000000000027148000000000030679839191Concordia Construcciones      000000000058004000000000000000000000000000000000000000000000000000000000000000000000000000000000000000000000000000000000PES00010000001000000000000000020170314
201703140010000700000000000000002715000000000000000027158000000000020163082609Basso Danilo Miguel           000000000013502000000000000000000000000000000000000000000000000000000000000000000000000000000000000000000000000000000000PES00010000001000000000000000020170314
201703140010000700000000000000002716000000000000000027168000000000030714397504Ecovista SRL                  000000000019301000000000000000000000000000000000000000000000000000000000000000000000000000000000000000000000000000000000PES00010000001000000000000000020170314
201703140060000700000000000000000828000000000000000008288000000000020000000001Consumidor Final              000000000255334000000000000000000000000000000000000000000000000000000000000000000000000000000000000000000000000000000000PES00010000001000000000000000020170314
201703140060000400000000000000001419000000000000000014198000000000020000000001Consumidor Final              000000000649000000000000000000000000000000000000000000000000000000000000000000000000000000000000000000000000000000000000PES00010000001000000000000000020170314
201703150010000700000000000000002717000000000000000027178000000000020081684309Lecuona de Pratt Martin       000000000021010000000000000000000000000000000000000000000000000000000000000000000000000000000000000000000000000000000000PES00010000001000000000000000020170315
201703150010000700000000000000002718000000000000000027188000000000027104510960Rodriguez Beatriz del Val     000000000014807000000000000000000000000000000000000000000000000000000000000000000000000000000000000000000000000000000000PES00010000001000000000000000020170315
201703150010000700000000000000002719000000000000000027198000000000020162972147Chuquisaca Victor             000000000012325000000000000000000000000000000000000000000000000000000000000000000000000000000000000000000000000000000000PES00010000001000000000000000020170315
201703150010000700000000000000002720000000000000000027208000000000030710398980Horacio Bielli Div. Empre     000000000077094000000000000000000000000000000000000000000000000000000000000000000000000000000000000000000000000000000000PES00010000001000000000000000020170315
201703150010000700000000000000002721000000000000000027218000000000020127902276Russo Moschino Ramón S.       000000000049007000000000000000000000000000000000000000000000000000000000000000000000000000000000000000000000000000000000PES00010000001000000000000000020170315
201703150010000700000000000000002722000000000000000027228000000000027929338923Gimenez  Nancy                000000000017021000000000000000000000000000000000000000000000000000000000000000000000000000000000000000000000000000000000PES00010000001000000000000000020170315
201703150010000700000000000000002723000000000000000027238000000000020203999519Delta Computacion             000000000029003000000000000000000000000000000000000000000000000000000000000000000000000000000000000000000000000000000000PES00010000001000000000000000020170315
201703150010000700000000000000002724000000000000000027248000000000030710586140AG  Emprendimientos SRL       000000000033660000000000000000000000000000000000000000000000000000000000000000000000000000000000000000000000000000000000PES00010000001000000000000000020170315
201703150010000700000000000000002725000000000000000027258000000000030711383693Grinfil SRL                   000000000076878000000000000000000000000000000000000000000000000000000000000000000000000000000000000000000000000000000000PES00010000001000000000000000020170315
201703150010000700000000000000002726000000000000000027268000000000030711372705Garin Juan Pedro Construc     000000000016055000000000000000000000000000000000000000000000000000000000000000000000000000000000000000000000000000000000PES00010000001000000000000000020170315
201703150060000700000000000000000829000000000000000008298000000000020000000001Consumidor Final              000000000170044000000000000000000000000000000000000000000000000000000000000000000000000000000000000000000000000000000000PES00010000001000000000000000020170315
201703150060000700000000000000000830000000000000000008308000000000020000000001Consumidor Final              000000001000000000000000000000000000000000000000000000000000000000000000000000000000000000000000000000000000000000000000PES00010000001000000000000000020170315
201703150060000700000000000000000831000000000000000008318000000000020000000001Consumidor Final              000000000563610000000000000000000000000000000000000000000000000000000000000000000000000000000000000000000000000000000000PES00010000001000000000000000020170315
201703150060000700000000000000000832000000000000000008328000000000020000000001Consumidor Final              000000000675034000000000000000000000000000000000000000000000000000000000000000000000000000000000000000000000000000000000PES00010000001000000000000000020170315
201703150060000400000000000000001420000000000000000014208000000000020000000001Consumidor Final              000000000467900000000000000000000000000000000000000000000000000000000000000000000000000000000000000000000000000000000000PES00010000001000000000000000020170315
201703160010000700000000000000002727000000000000000027278000000000030710586140AG  Emprendimientos SRL       000000000028475000000000000000000000000000000000000000000000000000000000000000000000000000000000000000000000000000000000PES00010000001000000000000000020170316
201703160010000700000000000000002728000000000000000027288000000000020291202676Guaymas Tornero Jose Dani     000000020725457000000000000000000000000000000000000000000000000000000000000000000000000000000000000000000000000000000000PES00010000001000000000000000020170316
201703160010000700000000000000002729000000000000000027298000000000030690663860Mocovi s.r.l.                 000000017469281000000000000000000000000000000000000000000000000000000000000000000000000000000000000000000000000000000000PES00010000001000000000000000020170316
201703160010000700000000000000002730000000000000000027308000000000020137362652Bejar Martinez Daniel         000000000027200000000000000000000000000000000000000000000000000000000000000000000000000000000000000000000000000000000000PES00010000001000000000000000020170316
201703160010000700000000000000002731000000000000000027318000000000020085562518Cuneo Carlos Alberto          000000000112006000000000000000000000000000000000000000000000000000000000000000000000000000000000000000000000000000000000PES00010000001000000000000000020170316
201703160010000700000000000000002732000000000000000027328000000000020165174969Gonzalez Aciar Jorge          000000000034502000000000000000000000000000000000000000000000000000000000000000000000000000000000000000000000000000000000PES00010000001000000000000000020170316
201703160010000700000000000000002733000000000000000027338000000000030708389443La Peatonal SRL               000000000030025000000000000000000000000000000000000000000000000000000000000000000000000000000000000000000000000000000000PES00010000001000000000000000020170316
201703160010000700000000000000002734000000000000000027348000000000030690663860Mocovi s.r.l.                 000000025876872000000000000000000000000000000000000000000000000000000000000000000000316860000000000000000000000000000000PES00010000001000000000000000020170316
201703160010000700000000000000002735000000000000000027358000000000027929338923Gimenez  Nancy                000000000015571000000000000000000000000000000000000000000000000000000000000000000000000000000000000000000000000000000000PES00010000001000000000000000020170316
201703160010000700000000000000002736000000000000000027368000000000027929338923Gimenez  Nancy                000000000023332000000000000000000000000000000000000000000000000000000000000000000000000000000000000000000000000000000000PES00010000001000000000000000020170316
201703160010000700000000000000002737000000000000000027378000000000030712272240Fideicomiso Aires Verdes      000000000018985000000000000000000000000000000000000000000000000000000000000000000000000000000000000000000000000000000000PES00010000001000000000000000020170316
201703160010000700000000000000002738000000000000000027388000000000020081714046Binda Victorio Ricardo        000000000002608000000000000000000000000000000000000000000000000000000000000000000000000000000000000000000000000000000000PES00010000001000000000000000020170316
201703160010000700000000000000002739000000000000000027398000000000030501522496Vicente Moncho Construcci     000000036042880000000000000000000000000000000000000000000000000000000000000000000000000000000000000000000000000000000000PES00010000001000000000000000020170316
201703160010000700000000000000002740000000000000000027408000000000030605965055Ascensores Servas SA          000000000005084000000000000000000000000000000000000000000000000000000000000000000000000000000000000000000000000000000000PES00010000001000000000000000020170316
201703160010000700000000000000002741000000000000000027418000000000020081742406Usandivaras Marcelo           000000000031875000000000000000000000000000000000000000000000000000000000000000000000000000000000000000000000000000000000PES00010000001000000000000000020170316
201703160060000700000000000000000833000000000000000008338000000000020000000001Consumidor Final              000000000021250000000000000000000000000000000000000000000000000000000000000000000000000000000000000000000000000000000000PES00010000001000000000000000020170316
201703160060000700000000000000000834000000000000000008348000000000020000000001Consorcio Mercedes 2          000000000021505000000000000000000000000000000000000000000000000000000000000000000000000000000000000000000000000000000000PES00010000001000000000000000020170316
201703160060000400000000000000001421000000000000000014218000000000020000000001Consumidor Final              000000000930101000000000000000000000000000000000000000000000000000000000000000000000000000000000000000000000000000000000PES00010000001000000000000000020170316
201703170010000700000000000000002742000000000000000027428000000000020337538836Russo Pablo Alejandro         000000002250113000000000000000000000000000000000000000000000000000000000000000000000000000000000000000000000000000000000PES00010000001000000000000000020170317
201703170010000700000000000000002743000000000000000027438000000000020226850180Luis PLaza                    000000000203021000000000000000000000000000000000000000000000000000000000000000000000000000000000000000000000000000000000PES00010000001000000000000000020170317
201703170010000700000000000000002744000000000000000027448000000000030711383693Grinfil SRL                   000000000065504000000000000000000000000000000000000000000000000000000000000000000000000000000000000000000000000000000000PES00010000001000000000000000020170317
201703170010000700000000000000002745000000000000000027458000000000027163074635Alvarado Claudia Susana       000000000128003000000000000000000000000000000000000000000000000000000000000000000000000000000000000000000000000000000000PES00010000001000000000000000020170317
201703170010000700000000000000002746000000000000000027468000000000027006586762Sucesion Marocco Irma         000000000104000000000000000000000000000000000000000000000000000000000000000000000000000000000000000000000000000000000000PES00010000001000000000000000020170317
201703170010000700000000000000002747000000000000000027478000000000030710586140A G Emprendimientos SRL       000000000034001000000000000000000000000000000000000000000000000000000000000000000000000000000000000000000000000000000000PES00010000001000000000000000020170317
201703170010000700000000000000002748000000000000000027488000000000020177929884Esteban Fonzalida Sergio      000000000062509000000000000000000000000000000000000000000000000000000000000000000000000000000000000000000000000000000000PES00010000001000000000000000020170317
201703170010000700000000000000002749000000000000000027498000000000030605965055Ascensores Servas SA          000000000007801000000000000000000000000000000000000000000000000000000000000000000000000000000000000000000000000000000000PES00010000001000000000000000020170317
201703170060000700000000000000000835000000000000000008358000000000020000000001Colegio Victorino de la P     000000000017501000000000000000000000000000000000000000000000000000000000000000000000000000000000000000000000000000000000PES00010000001000000000000000020170317
201703170060000700000000000000000836000000000000000008368000000000020000000001Consumidor Final              000000000316780000000000000000000000000000000000000000000000000000000000000000000000000000000000000000000000000000000000PES00010000001000000000000000020170317
201703170060000400000000000000001422000000000000000014228000000000020000000001Consumidor Final              000000000635901000000000000000000000000000000000000000000000000000000000000000000000000000000000000000000000000000000000PES00010000001000000000000000020170317
201703180010000700000000000000002750000000000000000027508000000000033710311159Pacific Trade SRL             000000000019789000000000000000000000000000000000000000000000000000000000000000000000000000000000000000000000000000000000PES00010000001000000000000000020170318
201703180010000700000000000000002751000000000000000027518000000000033710311159Pacific Trade SRL             000000000045560000000000000000000000000000000000000000000000000000000000000000000000000000000000000000000000000000000000PES00010000001000000000000000020170318
201703180010000700000000000000002752000000000000000027528000000000033707520359Leon Vidrios SRL              000000000023380000000000000000000000000000000000000000000000000000000000000000000000000000000000000000000000000000000000PES00010000001000000000000000020170318
201703180010000700000000000000002753000000000000000027538000000000020110802286Jose Alberto Chagra           000000000165012000000000000000000000000000000000000000000000000000000000000000000000000000000000000000000000000000000000PES00010000001000000000000000020170318
201703180010000700000000000000002754000000000000000027548000000000020326309193Chuychuy Daniel Alejandro     000000000064002000000000000000000000000000000000000000000000000000000000000000000000000000000000000000000000000000000000PES00010000001000000000000000020170318
201703180060000700000000000000000837000000000000000008378000000000030713985305Fundacion Emaus               000000000600055000000000000000000000000000000000000000000000000000000000000000000000000000000000000000000000000000000000PES00010000001000000000000000020170318
201703180060000700000000000000000838000000000000000008388000000000020000000001Consumidor Final              000000000073004000000000000000000000000000000000000000000000000000000000000000000000000000000000000000000000000000000000PES00010000001000000000000000020170318
201703180060000700000000000000000839000000000000000008398000000000030999284651Policia de Salta              000000000468196000000000000000000000000000000000000000000000000000000000000000000000000000000000000000000000000000000000PES00010000001000000000000000020170318
201703180060000700000000000000000840000000000000000008408000000000030713985305Fundacion Emaus               000000000022009000000000000000000000000000000000000000000000000000000000000000000000000000000000000000000000000000000000PES00010000001000000000000000020170318
201703180060000700000000000000000841000000000000000008418000000000030999284651Policia de Salta              000000000444616000000000000000000000000000000000000000000000000000000000000000000000000000000000000000000000000000000000PES00010000001000000000000000020170318
201703180060000400000000000000001423000000000000000014238000000000020000000001Consumidor Final              000000001142602000000000000000000000000000000000000000000000000000000000000000000000000000000000000000000000000000000000PES00010000001000000000000000020170318
201703200010000700000000000000002755000000000000000027558000000000020041947986Haddad Luis Solim             000000000066516000000000000000000000000000000000000000000000000000000000000000000000000000000000000000000000000000000000PES00010000001000000000000000020170320
201703200010000700000000000000002756000000000000000027568000000000027929338923Gimenez  Nancy                000000000058997000000000000000000000000000000000000000000000000000000000000000000000000000000000000000000000000000000000PES00010000001000000000000000020170320
201703200010000700000000000000002757000000000000000027578000000000027112833892Lopez Norma Alicia            000000000021294000000000000000000000000000000000000000000000000000000000000000000000000000000000000000000000000000000000PES00010000001000000000000000020170320
201703200010000700000000000000002758000000000000000027588000000000030501522496Vicente Moncho Construcci     000000026501897000000000000000000000000000000000000000000000000000000000000000000000000000000000000000000000000000000000PES00010000001000000000000000020170320
201703200010000700000000000000002759000000000000000027598000000000020203999519Delta Computacion             000000000023035000000000000000000000000000000000000000000000000000000000000000000000000000000000000000000000000000000000PES00010000001000000000000000020170320
201703200010000700000000000000002760000000000000000027608000000000030711383693Grinfil SRL                   000000000057503000000000000000000000000000000000000000000000000000000000000000000000000000000000000000000000000000000000PES00010000001000000000000000020170320
201703200010000700000000000000002761000000000000000027618000000000033710311159Pacific Trade SRL             000000000042075000000000000000000000000000000000000000000000000000000000000000000000000000000000000000000000000000000000PES00010000001000000000000000020170320
201703200010000700000000000000002762000000000000000027628000000000030712294163Garra SRL                     000000000140012000000000000000000000000000000000000000000000000000000000000000000000000000000000000000000000000000000000PES00010000001000000000000000020170320
201703200010000700000000000000002763000000000000000027638000000000020054090928Albistro Angel Benjamin       000000006200044000000000000000000000000000000000000000000000000000000000000000000000000000000000000000000000000000000000PES00010000001000000000000000020170320
201703200060000700000000000000000842000000000000000008428000000000020000000001Escuela Jacoba Saravia        000000000004570000000000000000000000000000000000000000000000000000000000000000000000000000000000000000000000000000000000PES00010000001000000000000000020170320
201703200060000400000000000000001424000000000000000014248000000000020000000001Consumidor Final              000000000963200000000000000000000000000000000000000000000000000000000000000000000000000000000000000000000000000000000000PES00010000001000000000000000020170320
201703210010000700000000000000002764000000000000000027648000000000027112833892Lopez Norma Alicia            000000000049056000000000000000000000000000000000000000000000000000000000000000000000000000000000000000000000000000000000PES00010000001000000000000000020170321
201703210010000700000000000000002765000000000000000027658000000000020248887355Abud Adolfo Rafael            000000000054190000000000000000000000000000000000000000000000000000000000000000000000000000000000000000000000000000000000PES00010000001000000000000000020170321
201703210010000700000000000000002767000000000000000027678000000000030501522496Vicente Moncho Construcci     000000029682372000000000000000000000000000000000000000000000000000000000000000000000000000000000000000000000000000000000PES00010000001000000000000000020170321
201703210010000700000000000000002768000000000000000027688000000000027112833892Lopez Norma Alicia            000000000009010000000000000000000000000000000000000000000000000000000000000000000000000000000000000000000000000000000000PES00010000001000000000000000020170321
201703210010000700000000000000002769000000000000000027698000000000027006586762Sucesion Marocco Irma         000000000023459000000000000000000000000000000000000000000000000000000000000000000000000000000000000000000000000000000000PES00010000001000000000000000020170321
201703210010000700000000000000002770000000000000000027708000000000033710311159Pacific Trade SRL             000000000012050000000000000000000000000000000000000000000000000000000000000000000000000000000000000000000000000000000000PES00010000001000000000000000020170321
201703210010000700000000000000002771000000000000000027718000000000020256422442Gomez Sergio Ariel            000000000020000000000000000000000000000000000000000000000000000000000000000000000000000000000000000000000000000000000000PES00010000001000000000000000020170321
201703210010000700000000000000002772000000000000000027728000000000030644225360Servicios Viales de Pigue     000000036466734000000000000000000000000000000000000000000000000000000000000000000000000000000000000000000000000000000000PES00010000001000000000000000020170321
201703210010000700000000000000002773000000000000000027738000000000030709608688Brisar SRL                    000000000002338000000000000000000000000000000000000000000000000000000000000000000000000000000000000000000000000000000000PES00010000001000000000000000020170321
201703210010000700000000000000002774000000000000000027748000000000023226378189Ricardo Aviles                000000000005402000000000000000000000000000000000000000000000000000000000000000000000000000000000000000000000000000000000PES00010000001000000000000000020170321
201703210010000700000000000000002775000000000000000027758000000000030687390616Instituto del Norte SA        000000000025512000000000000000000000000000000000000000000000000000000000000000000000000000000000000000000000000000000000PES00010000001000000000000000020170321
201703210060000700000000000000000843000000000000000008438000000000033712160409Secretaria de Seguridad       000000000017000000000000000000000000000000000000000000000000000000000000000000000000000000000000000000000000000000000000PES00010000001000000000000000020170321
201703210060000700000000000000000844000000000000000008448000000000030690654756Popeye BC                     000000000066555000000000000000000000000000000000000000000000000000000000000000000000000000000000000000000000000000000000PES00010000001000000000000000020170321
201703210060000700000000000000000845000000000000000008458000000000030999284651Policia de Salta              000000000002044000000000000000000000000000000000000000000000000000000000000000000000000000000000000000000000000000000000PES00010000001000000000000000020170321
201703210060000700000000000000000846000000000000000008468000000000020000000001Consumidor Final              000000000449540000000000000000000000000000000000000000000000000000000000000000000000000000000000000000000000000000000000PES00010000001000000000000000020170321
201703210060000400000000000000001425000000000000000014258000000000020000000001Consumidor Final              000000000742400000000000000000000000000000000000000000000000000000000000000000000000000000000000000000000000000000000000PES00010000001000000000000000020170321
201703220010000700000000000000002776000000000000000027768000000000030616928828Vidmar SRL                    000000000050871000000000000000000000000000000000000000000000000000000000000000000000000000000000000000000000000000000000PES00010000001000000000000000020170322
201703220010000700000000000000002777000000000000000027778000000000020047080461Binda Aldo Augusto            000000000020803000000000000000000000000000000000000000000000000000000000000000000000000000000000000000000000000000000000PES00010000001000000000000000020170322
201703220010000700000000000000002778000000000000000027788000000000030712275177Buneco SRL                    000000000023003000000000000000000000000000000000000000000000000000000000000000000000000000000000000000000000000000000000PES00010000001000000000000000020170322
201703220010000700000000000000002779000000000000000027798000000000020182305201Farfan Castilla Jorge         000000000050806000000000000000000000000000000000000000000000000000000000000000000000000000000000000000000000000000000000PES00010000001000000000000000020170322
201703220010000700000000000000002780000000000000000027808000000000030712559868Dies SRL                      000000000355041000000000000000000000000000000000000000000000000000000000000000000000000000000000000000000000000000000000PES00010000001000000000000000020170322
201703220010000700000000000000002781000000000000000027818000000000030712559868Dies SRL                      000000000037503000000000000000000000000000000000000000000000000000000000000000000000000000000000000000000000000000000000PES00010000001000000000000000020170322
201703220010000700000000000000002782000000000000000027828000000000030536158339Gomez Roco y Cia SRL          000000000240000000000000000000000000000000000000000000000000000000000000000000000000000000000000000000000000000000000000PES00010000001000000000000000020170322
201703220010000700000000000000002783000000000000000027838000000000023121455374Rasero Edith                  000000000143643000000000000000000000000000000000000000000000000000000000000000000000000000000000000000000000000000000000PES00010000001000000000000000020170322
201703220010000700000000000000002784000000000000000027848000000000030679839191Concordia Construcciones      000000000010800000000000000000000000000000000000000000000000000000000000000000000000000000000000000000000000000000000000PES00010000001000000000000000020170322
201703220010000700000000000000002785000000000000000027858000000000020162972147Chuquisaca Victor             000000000009012000000000000000000000000000000000000000000000000000000000000000000000000000000000000000000000000000000000PES00010000001000000000000000020170322
201703220010000700000000000000002786000000000000000027868000000000020122204074Bassani Carlos Enrique        000000000240006000000000000000000000000000000000000000000000000000000000000000000000000000000000000000000000000000000000PES00010000001000000000000000020170322
201703220010000700000000000000002787000000000000000027878000000000030708362901Alexandra S.R.L               000000000005001000000000000000000000000000000000000000000000000000000000000000000000000000000000000000000000000000000000PES00010000001000000000000000020170322
201703220010000700000000000000002788000000000000000027888000000000030707880925Instituto de Clinica y Ca     000000001090049000000000000000000000000000000000000000000000000000000000000000000000000000000000000000000000000000000000PES00010000001000000000000000020170322
201703220010000700000000000000002789000000000000000027898000000000020249689131Nanni Pablo Nicolas           000000000027540000000000000000000000000000000000000000000000000000000000000000000000000000000000000000000000000000000000PES00010000001000000000000000020170322
201703220010000700000000000000002790000000000000000027908000000000020249689131Nanni Pablo Nicolas           000000000158727000000000000000000000000000000000000000000000000000000000000000000000000000000000000000000000000000000000PES00010000001000000000000000020170322
201703220010000700000000000000002791000000000000000027918000000000020203999519Delta Computacion             000000000012705000000000000000000000000000000000000000000000000000000000000000000000000000000000000000000000000000000000PES00010000001000000000000000020170322
201703220010000700000000000000002792000000000000000027928000000000020203999519Delta Computacion             000000000019381000000000000000000000000000000000000000000000000000000000000000000000000000000000000000000000000000000000PES00010000001000000000000000020170322
201703220010000700000000000000002793000000000000000027938000000000033714324409Rojo Constructora SRL         000000005036520000000000000000000000000000000000000000000000000000000000000000000000000000000000000000000000000000000000PES00010000001000000000000000020170322
201703220010000700000000000000002795000000000000000027958000000000033714324409Rojo Constructora SRL         000000005079665000000000000000000000000000000000000000000000000000000000000000000000146764000000000000000000000000000000PES00010000001000000000000000020170322
201703220010000700000000000000002796000000000000000027968000000000030707325824Saltapor s.r.l                000000000111998000000000000000000000000000000000000000000000000000000000000000000000000000000000000000000000000000000000PES00010000001000000000000000020170322
201703220010000700000000000000002797000000000000000027978000000000030707325824Saltapor s.r.l                000000000143506000000000000000000000000000000000000000000000000000000000000000000000000000000000000000000000000000000000PES00010000001000000000000000020170322
201703220060000700000000000000000847000000000000000008478000000000030650219097Caja de Prevision Social      000000000020004000000000000000000000000000000000000000000000000000000000000000000000000000000000000000000000000000000000PES00010000001000000000000000020170322
201703220060000700000000000000000848000000000000000008488000000000030999284651Policia de Salta              000000000066763000000000000000000000000000000000000000000000000000000000000000000000000000000000000000000000000000000000PES00010000001000000000000000020170322
201703220060000700000000000000000849000000000000000008498000000000020000000001Consorcio Mercedes 2          000000000026018000000000000000000000000000000000000000000000000000000000000000000000000000000000000000000000000000000000PES00010000001000000000000000020170322
201703220060000700000000000000000850000000000000000008508000000000030713985305Fundacion Emaus               000000000062010000000000000000000000000000000000000000000000000000000000000000000000000000000000000000000000000000000000PES00010000001000000000000000020170322
201703220060000400000000000000001426000000000000000014268000000000020000000001Consumidor Final              000000001121201000000000000000000000000000000000000000000000000000000000000000000000000000000000000000000000000000000000PES00010000001000000000000000020170322
201703230010000700000000000000002799000000000000000027998000000000020072494548Saravia Mario David Tadeo     000000000009501000000000000000000000000000000000000000000000000000000000000000000000000000000000000000000000000000000000PES00010000001000000000000000020170323
201703230010000700000000000000002800000000000000000028008000000000030536158339Gomez Roco y Cia SRL          000000000120768000000000000000000000000000000000000000000000000000000000000000000000000000000000000000000000000000000000PES00010000001000000000000000020170323
201703230010000700000000000000002801000000000000000028018000000000030711920575J I I SRL                     000000000016000000000000000000000000000000000000000000000000000000000000000000000000000000000000000000000000000000000000PES00010000001000000000000000020170323
201703230010000700000000000000002802000000000000000028028000000000020177929884Esteban Fonzalida Sergio      000000000054556000000000000000000000000000000000000000000000000000000000000000000000000000000000000000000000000000000000PES00010000001000000000000000020170323
201703230010000700000000000000002803000000000000000028038000000000023121455374Rasero Edith                  000000000128003000000000000000000000000000000000000000000000000000000000000000000000000000000000000000000000000000000000PES00010000001000000000000000020170323
201703230010000700000000000000002804000000000000000028048000000000027006586762Sucesion Marocco Irma         000000000130000000000000000000000000000000000000000000000000000000000000000000000000000000000000000000000000000000000000PES00010000001000000000000000020170323
201703230010000700000000000000002806000000000000000028068000000000027929338923Gimenez  Nancy                000000000003004000000000000000000000000000000000000000000000000000000000000000000000000000000000000000000000000000000000PES00010000001000000000000000020170323
201703230010000700000000000000002807000000000000000028078000000000027006586762Sucesion Marocco Irma         000000000130000000000000000000000000000000000000000000000000000000000000000000000000000000000000000000000000000000000000PES00010000001000000000000000020170323
201703230010000700000000000000002808000000000000000028088000000000030715406655Aji SRL                       000000077445387000000000000000000000000000000000000000000000000000000000000000000000000000000000000000000000000000000000PES00010000001000000000000000020170323
201703230010000700000000000000002810000000000000000028108000000000030700087227Aluja SRL                     000000001217488000000000000000000000000000000000000000000000000000000000000000000000000000000000000000000000000000000000PES00010000001000000000000000020170323
201703230060000700000000000000000851000000000000000008518000000000020000000001Escuela Jacoba Saravia        000000000038500000000000000000000000000000000000000000000000000000000000000000000000000000000000000000000000000000000000PES00010000001000000000000000020170323
201703230060000700000000000000000852000000000000000008528000000000020000000001Escuela Jacoba Saravia        000000000001501000000000000000000000000000000000000000000000000000000000000000000000000000000000000000000000000000000000PES00010000001000000000000000020170323
201703230030000700000000000000000034000000000000000000348000000000027006586762Sucesion Marocco Irma         000000000130000000000000000000000000000000000000000000000000000000000000000000000000000000000000000000000000000000000000PES00010000001000000000000000020170323
201703230060000400000000000000001427000000000000000014278000000000020000000001Consumidor Final              000000001701700000000000000000000000000000000000000000000000000000000000000000000000000000000000000000000000000000000000PES00010000001000000000000000020170323
201703250010000700000000000000002811000000000000000028118000000000030640691200Corralon  El Sol SRL          000000000165023000000000000000000000000000000000000000000000000000000000000000000000000000000000000000000000000000000000PES00010000001000000000000000020170325
201703250010000700000000000000002812000000000000000028128000000000030649642962Premar SA                     000000000909544000000000000000000000000000000000000000000000000000000000000000000000000000000000000000000000000000000000PES00010000001000000000000000020170325
201703250010000700000000000000002813000000000000000028138000000000030700087227Aluja SRL                     000000025767679000000000000000000000000000000000000000000000000000000000000000000000000000000000000000000000000000000000PES00010000001000000000000000020170325
201703250010000700000000000000002814000000000000000028148000000000023121455374Rasero Edith                  000000000128003000000000000000000000000000000000000000000000000000000000000000000000000000000000000000000000000000000000PES00010000001000000000000000020170325
201703250010000700000000000000002815000000000000000028158000000000033709488959Comercial Lima S.A            000000000079219000000000000000000000000000000000000000000000000000000000000000000000000000000000000000000000000000000000PES00010000001000000000000000020170325
201703250010000700000000000000002816000000000000000028168000000000030707554548Mapa S.R.L                    000000000339530000000000000000000000000000000000000000000000000000000000000000000000000000000000000000000000000000000000PES00010000001000000000000000020170325
201703250010000700000000000000002817000000000000000028178000000000033710311159Pacific Trade SRL             000000000051305000000000000000000000000000000000000000000000000000000000000000000000000000000000000000000000000000000000PES00010000001000000000000000020170325
201703250060000700000000000000000853000000000000000008538000000000020000000001Consumidor Final              000000000065000000000000000000000000000000000000000000000000000000000000000000000000000000000000000000000000000000000000PES00010000001000000000000000020170325
201703250060000700000000000000000854000000000000000008548000000000020000000001Consumidor Final              000000000565600000000000000000000000000000000000000000000000000000000000000000000000000000000000000000000000000000000000PES00010000001000000000000000020170325
201703250060000400000000000000001428000000000000000014288000000000020000000001Consumidor Final              000000000978903000000000000000000000000000000000000000000000000000000000000000000000000000000000000000000000000000000000PES00010000001000000000000000020170325
201703270010000700000000000000002818000000000000000028188000000000020041947986Haddad Luis Solim             000000000044049000000000000000000000000000000000000000000000000000000000000000000000000000000000000000000000000000000000PES00010000001000000000000000020170327
201703270010000700000000000000002819000000000000000028198000000000030711920575J I I SRL                     000000000032001000000000000000000000000000000000000000000000000000000000000000000000000000000000000000000000000000000000PES00010000001000000000000000020170327
201703270010000700000000000000002820000000000000000028208000000000030708389443La Peatonal SRL               000000000034636000000000000000000000000000000000000000000000000000000000000000000000000000000000000000000000000000000000PES00010000001000000000000000020170327
201703270010000700000000000000002821000000000000000028218000000000030700087227Aluja SRL                     000000000080006000000000000000000000000000000000000000000000000000000000000000000000000000000000000000000000000000000000PES00010000001000000000000000020170327
201703270010000700000000000000002822000000000000000028228000000000023121455374Rasero Edith                  000000000128003000000000000000000000000000000000000000000000000000000000000000000000000000000000000000000000000000000000PES00010000001000000000000000020170327
201703270010000700000000000000002823000000000000000028238000000000033710311159Pacific Trade SRL             000000000014773000000000000000000000000000000000000000000000000000000000000000000000000000000000000000000000000000000000PES00010000001000000000000000020170327
201703270010000700000000000000002824000000000000000028248000000000033710311159Pacific Trade SRL             000000000038352000000000000000000000000000000000000000000000000000000000000000000000000000000000000000000000000000000000PES00010000001000000000000000020170327
201703270010000700000000000000002825000000000000000028258000000000027175990254Mosca Marcela Viviana         000000000760032000000000000000000000000000000000000000000000000000000000000000000000000000000000000000000000000000000000PES00010000001000000000000000020170327
201703270010000700000000000000002826000000000000000028268000000000020182305201Farfan Castilla Jorge         000000000033574000000000000000000000000000000000000000000000000000000000000000000000000000000000000000000000000000000000PES00010000001000000000000000020170327
201703270010000700000000000000002827000000000000000028278000000000027929338923Gimenez  Nancy                000000000039996000000000000000000000000000000000000000000000000000000000000000000000000000000000000000000000000000000000PES00010000001000000000000000020170327
201703270010000700000000000000002828000000000000000028288000000000027163342451Ramirez  Alcia                000000000038420000000000000000000000000000000000000000000000000000000000000000000000000000000000000000000000000000000000PES00010000001000000000000000020170327
201703270010000700000000000000002829000000000000000028298000000000020203999519Delta Computacion             000000000047580000000000000000000000000000000000000000000000000000000000000000000000000000000000000000000000000000000000PES00010000001000000000000000020170327
201703270010000700000000000000002831000000000000000028318000000000033714324409Rojo Constructora SRL         000000006576424000000000000000000000000000000000000000000000000000000000000000000000000000000000000000000000000000000000PES00010000001000000000000000020170327
201703270060000700000000000000000855000000000000000008558000000000020000000001Consorcio General Miguel      000000000108800000000000000000000000000000000000000000000000000000000000000000000000000000000000000000000000000000000000PES00010000001000000000000000020170327
201703270060000700000000000000000856000000000000000008568000000000020000000001Consumidor Final              000000000168507000000000000000000000000000000000000000000000000000000000000000000000000000000000000000000000000000000000PES00010000001000000000000000020170327
201703270060000400000000000000001429000000000000000014298000000000020000000001Consumidor Final              000000001517001000000000000000000000000000000000000000000000000000000000000000000000000000000000000000000000000000000000PES00010000001000000000000000020170327
201703280010000700000000000000002832000000000000000028328000000000020041947986Haddad Luis Solim             000000000019501000000000000000000000000000000000000000000000000000000000000000000000000000000000000000000000000000000000PES00010000001000000000000000020170328
201703280010000700000000000000002833000000000000000028338000000000020122204074Bassani Carlos Enrique        000000000159884000000000000000000000000000000000000000000000000000000000000000000000000000000000000000000000000000000000PES00010000001000000000000000020170328
201703280010000700000000000000002834000000000000000028348000000000020203999519Delta Computacion             000000000012001000000000000000000000000000000000000000000000000000000000000000000000000000000000000000000000000000000000PES00010000001000000000000000020170328
201703280010000700000000000000002835000000000000000028358000000000030546660210Comisión Nacional de Ener     000000000032053000000000000000000000000000000000000000000000000000000000000000000000000000000000000000000000000000000000PES00010000001000000000000000020170328
201703280010000700000000000000002836000000000000000028368000000000030715066056ABC Latinoamericana de Co     000000000912608000000000000000000000000000000000000000000000000000000000000000000000000000000000000000000000000000000000PES00010000001000000000000000020170328
201703280010000700000000000000002837000000000000000028378000000000023121455374Rasero Edith                  000000000128003000000000000000000000000000000000000000000000000000000000000000000000000000000000000000000000000000000000PES00010000001000000000000000020170328
201703280010000700000000000000002838000000000000000028388000000000030707325824Saltapor s.r.l                000000000080002000000000000000000000000000000000000000000000000000000000000000000000000000000000000000000000000000000000PES00010000001000000000000000020170328
201703280010000700000000000000002839000000000000000028398000000000030711383693Grinfil SRL                   000000000016320000000000000000000000000000000000000000000000000000000000000000000000000000000000000000000000000000000000PES00010000001000000000000000020170328
201703280010000700000000000000002840000000000000000028408000000000020226852477Mauro Fernando Rosas          000000000320007000000000000000000000000000000000000000000000000000000000000000000000000000000000000000000000000000000000PES00010000001000000000000000020170328
201703280010000700000000000000002841000000000000000028418000000000030690700758B M I SA                      000000000137905000000000000000000000000000000000000000000000000000000000000000000000000000000000000000000000000000000000PES00010000001000000000000000020170328
201703280010000700000000000000002842000000000000000028428000000000030679839191Concordia Construcciones      000000000005561000000000000000000000000000000000000000000000000000000000000000000000000000000000000000000000000000000000PES00010000001000000000000000020170328
201703280010000700000000000000002843000000000000000028438000000000020041947986Haddad Luis Selim             000000000020001000000000000000000000000000000000000000000000000000000000000000000000000000000000000000000000000000000000PES00010000001000000000000000020170328
201703280010000700000000000000002844000000000000000028448000000000030679839191Concordia Construcciones      000000000003001000000000000000000000000000000000000000000000000000000000000000000000000000000000000000000000000000000000PES00010000001000000000000000020170328
201703280010000700000000000000002845000000000000000028458000000000027929338923Gimenez  Nancy                000000000021845000000000000000000000000000000000000000000000000000000000000000000000000000000000000000000000000000000000PES00010000001000000000000000020170328
201703280060000700000000000000000857000000000000000008578000000000020377204523Torres Leo                    000000000014530000000000000000000000000000000000000000000000000000000000000000000000000505000000000000000000000000000000PES00010000001000000000000000020170328
201703280060000700000000000000000858000000000000000008588000000000020000000001Consumidor Final              000000001810043000000000000000000000000000000000000000000000000000000000000000000000000000000000000000000000000000000000PES00010000001000000000000000020170328
201703280060000700000000000000000859000000000000000008598000000000030999284651Policia de Salta              000000000008636000000000000000000000000000000000000000000000000000000000000000000000000000000000000000000000000000000000PES00010000001000000000000000020170328
201703280060000700000000000000000860000000000000000008608000000000030628540787Colegio 5095                  000000000007800000000000000000000000000000000000000000000000000000000000000000000000000000000000000000000000000000000000PES00010000001000000000000000020170328
201703280060000700000000000000000861000000000000000008618000000000020000000001Consumidor Final              000000000450048000000000000000000000000000000000000000000000000000000000000000000000000000000000000000000000000000000000PES00010000001000000000000000020170328
