201608020010000500000000000000000543000000000000000005438000000000030711824886GREEN PACK SA                 000000001084565000000000000000000000000000000000000000000000000000000000000000000000000000000000000000000000000000000000PES00010000001000000000000000000000000
201608020010000500000000000000000544000000000000000005448000000000033713232209PDJ S.A.                      000000000813424000000000000000000000000000000000000000000000000000000000000000000000000000000000000000000000000000000000PES00010000001000000000000000000000000
201608020010000500000000000000000545000000000000000005458000000000030709549452AGRICOLA MARES S.A.           000000000271142000000000000000000000000000000000000000000000000000000000000000000000000000000000000000000000000000000000PES00010000001000000000000000000000000
201608030010000500000000000000000546000000000000000005468000000000030707338209SERVICIOS Y AVENTURAS S.R.L.  000000000218526000000000000000000000000000000000000000000000000000000000000000000000000000000000000000000000000000000000PES00010000001000000000000000000000000
201608030010000500000000000000000547000000000000000005478000000000030707114971CONTROL UNION NORTE S.A.      000000003462291000000000000000000000000000000000000000000000000000000000000000000000000000000000000000000000000000000000PES00010000001000000000000000000000000
201608030010000500000000000000000548000000000000000005488000000000030707209840PROSAL S A                    000000000735010000000000000000000000000000000000000000000000000000000000000000000000000000000000000000000000000000000000PES00010000001000000000000000000000000
201608030010000500000000000000000549000000000000000005498000000000030712919007JUAN JOSE BUDEGUER SA         000000000591269000000000000000000000000000000000000000000000000000000000000000000000000000000000000000000000000000000000PES00010000001000000000000000000000000
201608030010000500000000000000000550000000000000000005508000000000030710345992PRODUCTOS ALIMENTICIOS SOFIA S000000000472190000000000000000000000000000000000000000000000000000000000000000000000000000000000000000000000000000000000PES00010000001000000000000000000000000
201608030010000500000000000000000551000000000000000005518000000000030644786079PRODUNOA SA                   000000006354920000000000000000000000000000000000000000000000000000000000000000000000000000000000000000000000000000000000PES00010000001000000000000000000000000
201608030010000500000000000000000552000000000000000005528000000000030644786079PRODUNOA SA                   000000002860440000000000000000000000000000000000000000000000000000000000000000000000000000000000000000000000000000000000PES00010000001000000000000000000000000
201608030010000500000000000000000553000000000000000005538000000000030711283311DISTRIBUIDORA TUCUMANA DE AZUC000000001098668000000000000000000000000000000000000000000000000000000000000000000000000000000000000000000000000000000000PES00010000001000000000000000000000000
201608040010000500000000000000000554000000000000000005548000000000030604999657FRIGORIFICO BERMEJO S.A.      000000000082096000000000000000000000000000000000000000000000000000000000000000000000000000000000000000000000000000000000PES00010000001000000000000000000000000
201608050010000500000000000000000555000000000000000005558000000000030502793175ARCOR S A I C                 000000011201207000000000000000000000000000000000000000000000000000000000000000000000000000000000000000000000000000000000PES00010000001000000000000000000000000
201608050010000500000000000000000556000000000000000005568000000000030502793175ARCOR S A I C                 000000003763729000000000000000000000000000000000000000000000000000000000000000000000000000000000000000000000000000000000PES00010000001000000000000000000000000
201608050010000500000000000000000557000000000000000005578000000000030709776254SALES DE JUJUY SOCIEDAD ANONIM000000001847549000000000000000000000000000000000000000000000000000000000000000000000000000000000000000000000000000000000PES00010000001000000000000000000000000
201608100010000500000000000000000558000000000000000005588000000000030709535303A F INGENIERIA   SRL          000000000320033000000000000000000000000000000000000000000000000000000000000000000000000000000000000000000000000000000000PES00010000001000000000000000000000000
201608100010000500000000000000000559000000000000000005598000000000030707209840PROSAL S A                    000000001081806000000000000000000000000000000000000000000000000000000000000000000000000000000000000000000000000000000000PES00010000001000000000000000000000000
201608100010000500000000000000000560000000000000000005608000000000030708494190J. L. GURRIERI LEGUMBRES S.R.L000000000847338000000000000000000000000000000000000000000000000000000000000000000000000000000000000000000000000000000000PES00010000001000000000000000000000000
201608110010000500000000000000000561000000000000000005618000000000030709865540NONIDEM S.A.                  000000000220220000000000000000000000000000000000000000000000000000000000000000000000000000000000000000000000000000000000PES00010000001000000000000000000000000
201608120010000500000000000000000562000000000000000005628000000000033681246989TECNOGRAF S A                 000000000145200000000000000000000000000000000000000000000000000000000000000000000000000000000000000000000000000000000000PES00010000001000000000000000000000000
201608120010000500000000000000000563000000000000000005638000000000030712052992SODA MONICA SRL               000000000139999000000000000000000000000000000000000000000000000000000000000000000000000000000000000000000000000000000000PES00010000001000000000000000000000000
201608120010000500000000000000000564000000000000000005648000000000030596282950LIAG ARGENTINA SOCIEDAD ANONIM000000000447398000000000000000000000000000000000000000000000000000000000000000000000000000000000000000000000000000000000PES00010000001000000000000000000000000
201608120010000500000000000000000565000000000000000005658000000000030709386502EXTRABERRIES S.A.             000000000181229000000000000000000000000000000000000000000000000000000000000000000000000000000000000000000000000000000000PES00010000001000000000000000000000000
201608160030000500000000000000000035000000000000000000358000000000020365513903SOLA FRANCO EMANUEL           000000000396396000000000000000000000000000000000000000000000000000000000000000000000000000000000000000000000000000000000PES00010000001000000000000000000000000
201608170010000500000000000000000566000000000000000005668000000000030708197145GOLOSINAS O.E.N.P. S.A.       000000000260707000000000000000000000000000000000000000000000000000000000000000000000000000000000000000000000000000000000PES00010000001000000000000000000000000
201608180010000500000000000000000567000000000000000005678000000000030708587415HECTOR A. BERTONE S.A         000000001658965000000000000000000000000000000000000000000000000000000000000000000000000000000000000000000000000000000000PES00010000001000000000000000000000000
201608240030000500000000000000000036000000000000000000368000000000020260112296ROMANO SERGIO RAUL            000000000096195000000000000000000000000000000000000000000000000000000000000000000000000000000000000000000000000000000000PES00010000001000000000000000000000000
201608240010000500000000000000000568000000000000000005688000000000030711392498VERDE COSECHA SRL             000000000418756000000000000000000000000000000000000000000000000000000000000000000000000000000000000000000000000000000000PES00010000001000000000000000000000000
201608250010000500000000000000000569000000000000000005698000000000030700869918BUNGE ARGENTINA S A           000000000200981000000000000000000000000000000000000000000000000000000000000000000000000000000000000000000000000000000000PES00010000001000000000000000000000000
201608260010000500000000000000000570000000000000000005708000000000030700053411AGUSTIN VIDIZZONI S A         000000000704583000000000000000000000000000000000000000000000000000000000000000000000000000000000000000000000000000000000PES00010000001000000000000000000000000
201608260010000500000000000000000571000000000000000005718000000000030707867163ESTANCIA LAS YUNGAS S.R.L.    000000003982836000000000000000000000000000000000000000000000000000000000000000000000000000000000000000000000000000000000PES00010000001000000000000000000000000
201608260010000500000000000000000572000000000000000005728000000000030700053411AGUSTIN VIDIZZONI S A         000000000193406000000000000000000000000000000000000000000000000000000000000000000000000000000000000000000000000000000000PES00010000001000000000000000000000000
201608260010000500000000000000000573000000000000000005738000000000030707867163ESTANCIA LAS YUNGAS S.R.L.    000000003637218000000000000000000000000000000000000000000000000000000000000000000000000000000000000000000000000000000000PES00010000001000000000000000000000000
201608260030000500000000000000000037000000000000000000378000000000030707867163ESTANCIA LAS YUNGAS S.R.L.    000000003982836000000000000000000000000000000000000000000000000000000000000000000000000000000000000000000000000000000000PES00010000001000000000000000000000000
201608260030000500000000000000000038000000000000000000388000000000030712919007JUAN JOSE BUDEGUER SA         000000000591269000000000000000000000000000000000000000000000000000000000000000000000000000000000000000000000000000000000PES00010000001000000000000000000000000
201608260010000500000000000000000574000000000000000005748000000000020080652470BUDEGUER JUAN JOSE            000000000591269000000000000000000000000000000000000000000000000000000000000000000000000000000000000000000000000000000000PES00010000001000000000000000000000000
201608300010000500000000000000000575000000000000000005758000000000033713232209PDJ S.A.                      000000000903645000000000000000000000000000000000000000000000000000000000000000000000000000000000000000000000000000000000PES00010000001000000000000000000000000
