201702010010000700000000000000002333000000000000000023338000000000027296021402Salinas Maria Cecilia         000000000020505000000000000000000000000000000000000000000000000000000000000000000000000000000000000000000000000000000000PES00010000001000000000000000020170201
201702010010000700000000000000002334000000000000000023348000000000030714652105M Collivadino y C del Mar     000000000071503000000000000000000000000000000000000000000000000000000000000000000000002066000000000000000000000000000000PES00010000001000000000000000020170201
201702010010000700000000000000002335000000000000000023358000000000030714652105M Collivadino y C del Mar     000000000071573000000000000000000000000000000000000000000000000000000000000000000000000000000000000000000000000000000000PES00010000001000000000000000020170201
201702010010000700000000000000002336000000000000000023368000000000030711372705Empresa Constructora Juan     000000000004003000000000000000000000000000000000000000000000000000000000000000000000000000000000000000000000000000000000PES00010000001000000000000000020170201
201702010010000700000000000000002337000000000000000023378000000000020141766350Astudillo  Cesar Alejandr     000000000018097000000000000000000000000000000000000000000000000000000000000000000000000000000000000000000000000000000000PES00010000001000000000000000020170201
201702010010000700000000000000002338000000000000000023388000000000020162972147Chuquisaca Victor             000000000029009000000000000000000000000000000000000000000000000000000000000000000000000000000000000000000000000000000000PES00010000001000000000000000020170201
201702010010000700000000000000002339000000000000000023398000000000030714542083Exa Group SRL                 000000000028561000000000000000000000000000000000000000000000000000000000000000000000000000000000000000000000000000000000PES00010000001000000000000000020170201
201702010010000700000000000000002340000000000000000023408000000000030709608688Brisar SRL                    000000000020097000000000000000000000000000000000000000000000000000000000000000000000000000000000000000000000000000000000PES00010000001000000000000000020170201
201702010010000700000000000000002341000000000000000023418000000000030711812675Norterra Construcciones S     000000000016000000000000000000000000000000000000000000000000000000000000000000000000000000000000000000000000000000000000PES00010000001000000000000000020170201
201702010010000700000000000000002342000000000000000023428000000000030707891951Acero Figueroa SRL            000000000040050000000000000000000000000000000000000000000000000000000000000000000000000000000000000000000000000000000000PES00010000001000000000000000020170201
201702010060000700000000000000000513000000000000000005138000000000020000000001Consumidor Final              000000000028900000000000000000000000000000000000000000000000000000000000000000000000000000000000000000000000000000000000PES00010000001000000000000000020170201
201702010060000700000000000000000514000000000000000005148000000000030999284651Policia de Salta              000000000050267000000000000000000000000000000000000000000000000000000000000000000000000000000000000000000000000000000000PES00010000001000000000000000020170201
201702010060000700000000000000000515000000000000000005158000000000020000000001Consumidor Final              000000000045837000000000000000000000000000000000000000000000000000000000000000000000000000000000000000000000000000000000PES00010000001000000000000000020170201
201702010060000700000000000000000516000000000000000005168000000000020000000001Doric Lorena                  000000002070895000000000000000000000000000000000000000000000000000000000000000000000000000000000000000000000000000000000PES00010000001000000000000000020170201
201702010060000700000000000000000517000000000000000005178000000000030656747834Municipalidad de San Lore     000000001606221000000000000000000000000000000000000000000000000000000000000000000000000000000000000000000000000000000000PES00010000001000000000000000020170201
201702010060000700000000000000000518000000000000000005188000000000020000000001Edificio Romar 1              000000000046920000000000000000000000000000000000000000000000000000000000000000000000000000000000000000000000000000000000PES00010000001000000000000000020170201
201702010060000700000000000000000519000000000000000005198000000000030656747834Municipalidad de San Lore     000000000054004000000000000000000000000000000000000000000000000000000000000000000000000000000000000000000000000000000000PES00010000001000000000000000020170201
201702010060000700000000000000000520000000000000000005208000000000030656747834Municipalidad de San Lore     000000000154496000000000000000000000000000000000000000000000000000000000000000000000000000000000000000000000000000000000PES00010000001000000000000000020170201
201702010060000700000000000000000521000000000000000005218000000000030656747834Municipalidad de San Lore     000000000313521000000000000000000000000000000000000000000000000000000000000000000000000000000000000000000000000000000000PES00010000001000000000000000020170201
201702010060000700000000000000000522000000000000000005228000000000030656747834Municipalidad de San Lore     000000000099007000000000000000000000000000000000000000000000000000000000000000000000000000000000000000000000000000000000PES00010000001000000000000000020170201
201702010060000700000000000000000523000000000000000005238000000000030656747834Municipalidad de San Lore     000000000158100000000000000000000000000000000000000000000000000000000000000000000000000000000000000000000000000000000000PES00010000001000000000000000020170201
201702010060000700000000000000000524000000000000000005248000000000030656747834Municipalidad de San Lore     000000001447125000000000000000000000000000000000000000000000000000000000000000000000000000000000000000000000000000000000PES00010000001000000000000000020170201
201702010060000700000000000000000525000000000000000005258000000000030656747834Municipalidad de San Lore     000000001088255000000000000000000000000000000000000000000000000000000000000000000000000000000000000000000000000000000000PES00010000001000000000000000020170201
201702010060000700000000000000000526000000000000000005268000000000030656747834Municipalidad de San Lore     000000000309740000000000000000000000000000000000000000000000000000000000000000000000000000000000000000000000000000000000PES00010000001000000000000000020170201
201702010060000700000000000000000527000000000000000005278000000000030656747834Municipalidad de San Lore     000000000283050000000000000000000000000000000000000000000000000000000000000000000000000000000000000000000000000000000000PES00010000001000000000000000020170201
201702010060000700000000000000000528000000000000000005288000000000030656747834Municipalidad de San Lore     000000000026095000000000000000000000000000000000000000000000000000000000000000000000000000000000000000000000000000000000PES00010000001000000000000000020170201
201702010060000700000000000000000529000000000000000005298000000000030656747834Municipalidad de San Lore     000000000035870000000000000000000000000000000000000000000000000000000000000000000000000000000000000000000000000000000000PES00010000001000000000000000020170201
201702010060000700000000000000000530000000000000000005308000000000030656747834Municipalidad de San Lore     000000000961112000000000000000000000000000000000000000000000000000000000000000000000000000000000000000000000000000000000PES00010000001000000000000000020170201
201702010060000700000000000000000531000000000000000005318000000000030656747834Municipalidad de San Lore     000000000190502000000000000000000000000000000000000000000000000000000000000000000000000000000000000000000000000000000000PES00010000001000000000000000020170201
201702010060000700000000000000000532000000000000000005328000000000030656747834Municipalidad de San Lore     000000000660045000000000000000000000000000000000000000000000000000000000000000000000000000000000000000000000000000000000PES00010000001000000000000000020170201
201702010060000700000000000000000533000000000000000005338000000000030656747834Municipalidad de San Lore     000000000031662000000000000000000000000000000000000000000000000000000000000000000000000000000000000000000000000000000000PES00010000001000000000000000020170201
201702010030000700000000000000000023000000000000000000238000000000030714652105M Collivadino y C del Mar     000000000095658000000000000000000000000000000000000000000000000000000000000-000000000002764000000000000000000000000000000PES00010000001000000000000000020170201
201702010060000400000000000000001395000000000000000013958000000000020000000001Consumidor Final              000000001611500000000000000000000000000000000000000000000000000000000000000000000000000000000000000000000000000000000000PES00010000001000000000000000020170201
201702020010000700000000000000002343000000000000000023438000000000020144533284Quinteros Horacio             000000000200098000000000000000000000000000000000000000000000000000000000000000000000000000000000000000000000000000000000PES00010000001000000000000000020170202
201702020010000700000000000000002344000000000000000023448000000000030709688762Alcala SA                     000000000009970000000000000000000000000000000000000000000000000000000000000000000000000000000000000000000000000000000000PES00010000001000000000000000020170202
201702020010000700000000000000002345000000000000000023458000000000020162973712Benavidez Everardo G          000000000010575000000000000000000000000000000000000000000000000000000000000000000000000000000000000000000000000000000000PES00010000001000000000000000020170202
201702020010000700000000000000002346000000000000000023468000000000030710253273Villanueva e Hijos SA         000000000019999000000000000000000000000000000000000000000000000000000000000000000000000000000000000000000000000000000000PES00010000001000000000000000020170202
201702020010000700000000000000002347000000000000000023478000000000030711939675Ikba SA                       000000000160003000000000000000000000000000000000000000000000000000000000000000000000000000000000000000000000000000000000PES00010000001000000000000000020170202
201702020010000700000000000000002348000000000000000023488000000000030681284474Combustibles del Norte S.     000000000586439000000000000000000000000000000000000000000000000000000000000000000000000000000000000000000000000000000000PES00010000001000000000000000020170202
201702020010000700000000000000002349000000000000000023498000000000020081684309Lecuona de Pratt Martin       000000000010995000000000000000000000000000000000000000000000000000000000000000000000000000000000000000000000000000000000PES00010000001000000000000000020170202
201702020010000700000000000000002350000000000000000023508000000000030687272311Mansfield Minera s.a.         000000000325026000000000000000000000000000000000000000000000000000000000000000000000000000000000000000000000000000000000PES00010000001000000000000000020170202
201702020010000700000000000000002351000000000000000023518000000000030711383693Grinfil SRL                   000000000195113000000000000000000000000000000000000000000000000000000000000000000000000000000000000000000000000000000000PES00010000001000000000000000020170202
201702020010000700000000000000002352000000000000000023528000000000020250691719Nisiche Juan                  000000000015002000000000000000000000000000000000000000000000000000000000000000000000000000000000000000000000000000000000PES00010000001000000000000000020170202
201702020010000700000000000000002353000000000000000023538000000000030711812675Norterra Construcciones S     000000000019401000000000000000000000000000000000000000000000000000000000000000000000000000000000000000000000000000000000PES00010000001000000000000000020170202
201702020010000700000000000000002354000000000000000023548000000000030707761896Cobertura de Salud SA         000000000020070000000000000000000000000000000000000000000000000000000000000000000000000000000000000000000000000000000000PES00010000001000000000000000020170202
201702020060000700000000000000000534000000000000000005348000000000030656747834Municipalidad de San Lore     000000000457422000000000000000000000000000000000000000000000000000000000000000000000000000000000000000000000000000000000PES00010000001000000000000000020170202
201702020060000700000000000000000535000000000000000005358000000000030656747834Municipalidad de San Lore     000000000143820000000000000000000000000000000000000000000000000000000000000000000000000000000000000000000000000000000000PES00010000001000000000000000020170202
201702020060000700000000000000000536000000000000000005368000000000030656747834Municipalidad de San Lore     000000000138975000000000000000000000000000000000000000000000000000000000000000000000000000000000000000000000000000000000PES00010000001000000000000000020170202
201702020060000700000000000000000537000000000000000005378000000000030656747834Municipalidad de San Lore     000000000207653000000000000000000000000000000000000000000000000000000000000000000000000000000000000000000000000000000000PES00010000001000000000000000020170202
201702020060000700000000000000000538000000000000000005388000000000030656747834Municipalidad de San Lore     000000000431348000000000000000000000000000000000000000000000000000000000000000000000000000000000000000000000000000000000PES00010000001000000000000000020170202
201702020060000700000000000000000539000000000000000005398000000000030656747834Municipalidad de San Lore     000000000405212000000000000000000000000000000000000000000000000000000000000000000000000000000000000000000000000000000000PES00010000001000000000000000020170202
201702020060000700000000000000000540000000000000000005408000000000030656747834Municipalidad de San Lore     000000000574171000000000000000000000000000000000000000000000000000000000000000000000000000000000000000000000000000000000PES00010000001000000000000000020170202
201702020060000700000000000000000541000000000000000005418000000000030656747834Municipalidad de San Lore     000000000094350000000000000000000000000000000000000000000000000000000000000000000000000000000000000000000000000000000000PES00010000001000000000000000020170202
201702020060000700000000000000000542000000000000000005428000000000030656747834Municipalidad de San Lore     000000000125888000000000000000000000000000000000000000000000000000000000000000000000000000000000000000000000000000000000PES00010000001000000000000000020170202
201702020060000700000000000000000543000000000000000005438000000000030656747834Municipalidad de San Lore     000000000038250000000000000000000000000000000000000000000000000000000000000000000000000000000000000000000000000000000000PES00010000001000000000000000020170202
201702020060000700000000000000000544000000000000000005448000000000030656747834Municipalidad de San Lore     000000000355147000000000000000000000000000000000000000000000000000000000000000000000000000000000000000000000000000000000PES00010000001000000000000000020170202
201702020060000700000000000000000545000000000000000005458000000000030656747834Municipalidad de San Lore     000000000124418000000000000000000000000000000000000000000000000000000000000000000000000000000000000000000000000000000000PES00010000001000000000000000020170202
201702020060000700000000000000000546000000000000000005468000000000030656747834Municipalidad de San Lore     000000000128520000000000000000000000000000000000000000000000000000000000000000000000000000000000000000000000000000000000PES00010000001000000000000000020170202
201702020060000700000000000000000547000000000000000005478000000000020000000001Consumidor Final              000000000038531000000000000000000000000000000000000000000000000000000000000000000000000000000000000000000000000000000000PES00010000001000000000000000020170202
201702020060000700000000000000000548000000000000000005488000000000030656747834Municipalidad de San Lore     000000000377400000000000000000000000000000000000000000000000000000000000000000000000000000000000000000000000000000000000PES00010000001000000000000000020170202
201702020060000700000000000000000549000000000000000005498000000000030656747834Municipalidad de San Lore     000000000028050000000000000000000000000000000000000000000000000000000000000000000000000000000000000000000000000000000000PES00010000001000000000000000020170202
201702020060000700000000000000000550000000000000000005508000000000030656747834Municipalidad de San Lore     000000000240210000000000000000000000000000000000000000000000000000000000000000000000000000000000000000000000000000000000PES00010000001000000000000000020170202
201702020060000700000000000000000551000000000000000005518000000000030656747834Municipalidad de San Lore     000000000104975000000000000000000000000000000000000000000000000000000000000000000000000000000000000000000000000000000000PES00010000001000000000000000020170202
201702020060000700000000000000000552000000000000000005528000000000030656747834Municipalidad de San Lore     000000000066012000000000000000000000000000000000000000000000000000000000000000000000000000000000000000000000000000000000PES00010000001000000000000000020170202
201702020060000700000000000000000553000000000000000005538000000000030656747834Municipalidad de San Lore     000000000229676000000000000000000000000000000000000000000000000000000000000000000000000000000000000000000000000000000000PES00010000001000000000000000020170202
201702020060000700000000000000000554000000000000000005548000000000030656747834Municipalidad de San Lore     000000001133602000000000000000000000000000000000000000000000000000000000000000000000000000000000000000000000000000000000PES00010000001000000000000000020170202
201702020060000700000000000000000555000000000000000005558000000000030656747834Municipalidad de San Lore     000000000014960000000000000000000000000000000000000000000000000000000000000000000000000000000000000000000000000000000000PES00010000001000000000000000020170202
201702020060000700000000000000000556000000000000000005568000000000030656747834Municipalidad de San Lore     000000000016235000000000000000000000000000000000000000000000000000000000000000000000000000000000000000000000000000000000PES00010000001000000000000000020170202
201702020060000700000000000000000557000000000000000005578000000000030656747834Municipalidad de San Lore     000000000010540000000000000000000000000000000000000000000000000000000000000000000000000000000000000000000000000000000000PES00010000001000000000000000020170202
201702020060000700000000000000000558000000000000000005588000000000020000000001Consumidor Final              000000000011509000000000000000000000000000000000000000000000000000000000000000000000000000000000000000000000000000000000PES00010000001000000000000000020170202
201702020060000700000000000000000559000000000000000005598000000000020000000001Ramon del  Rey                000000000101904000000000000000000000000000000000000000000000000000000000000000000000000000000000000000000000000000000000PES00010000001000000000000000020170202
201702020060000400000000000000001396000000000000000013968000000000020000000001Consumidor Final              000000001420302000000000000000000000000000000000000000000000000000000000000000000000000000000000000000000000000000000000PES00010000001000000000000000020170202
201702030010000700000000000000002355000000000000000023558000000000030700087227Aluja SRL                     000000000243032000000000000000000000000000000000000000000000000000000000000000000000000000000000000000000000000000000000PES00010000001000000000000000020170203
201702030010000700000000000000002356000000000000000023568000000000027006586762Sucesion Marocco Irma         000000000047175000000000000000000000000000000000000000000000000000000000000000000000000000000000000000000000000000000000PES00010000001000000000000000020170203
201702030010000700000000000000002357000000000000000023578000000000030709688762Alcala SA                     000000000007208000000000000000000000000000000000000000000000000000000000000000000000000000000000000000000000000000000000PES00010000001000000000000000020170203
201702030010000700000000000000002358000000000000000023588000000000030714148644Rio las Cuevas SA             000000001280131000000000000000000000000000000000000000000000000000000000000000000000000000000000000000000000000000000000PES00010000001000000000000000020170203
201702030010000700000000000000002359000000000000000023598000000000030712294163Garra SRL                     000000000020058000000000000000000000000000000000000000000000000000000000000000000000000000000000000000000000000000000000PES00010000001000000000000000020170203
201702030010000700000000000000002360000000000000000023608000000000030709608688Brisar SRL                    000000000023002000000000000000000000000000000000000000000000000000000000000000000000000000000000000000000000000000000000PES00010000001000000000000000020170203
201702030010000700000000000000002361000000000000000023618000000000030711260958Guayacan Viejo SRL            000000000016000000000000000000000000000000000000000000000000000000000000000000000000000000000000000000000000000000000000PES00010000001000000000000000020170203
201702030010000700000000000000002362000000000000000023628000000000030693459245Hoyts General Cinema          000000000029580000000000000000000000000000000000000000000000000000000000000000000000000000000000000000000000000000000000PES00010000001000000000000000020170203
201702030010000700000000000000002363000000000000000023638000000000020162973712Benavidez Everardo G          000000000014051000000000000000000000000000000000000000000000000000000000000000000000000000000000000000000000000000000000PES00010000001000000000000000020170203
201702030010000700000000000000002364000000000000000023648000000000030708835559Estacion Vision SRL           000000000028050000000000000000000000000000000000000000000000000000000000000000000000000000000000000000000000000000000000PES00010000001000000000000000020170203
201702030060000700000000000000000560000000000000000005608000000000020000000001Ramon del  Rey                000000000115800000000000000000000000000000000000000000000000000000000000000000000000000000000000000000000000000000000000PES00010000001000000000000000020170203
201702030060000400000000000000001397000000000000000013978000000000020000000001Consumidor Final              000000000941602000000000000000000000000000000000000000000000000000000000000000000000000000000000000000000000000000000000PES00010000001000000000000000020170203
201702040010000700000000000000002365000000000000000023658000000000020110606355Casado Hector Raul            000000000130023000000000000000000000000000000000000000000000000000000000000000000000000000000000000000000000000000000000PES00010000001000000000000000020170204
201702040010000700000000000000002366000000000000000023668000000000030693459245Hoyts General Cinema          000000000028036000000000000000000000000000000000000000000000000000000000000000000000000000000000000000000000000000000000PES00010000001000000000000000020170204
201702040010000700000000000000002367000000000000000023678000000000030707474307Crew Live S.A                 000000000012502000000000000000000000000000000000000000000000000000000000000000000000000000000000000000000000000000000000PES00010000001000000000000000020170204
201702040010000700000000000000002368000000000000000023688000000000030714529974Fidelcomiso la Reserva        000000000152859000000000000000000000000000000000000000000000000000000000000000000000000000000000000000000000000000000000PES00010000001000000000000000020170204
201702040010000700000000000000002369000000000000000023698000000000030707325387Semaco SA                     000000000016000000000000000000000000000000000000000000000000000000000000000000000000000000000000000000000000000000000000PES00010000001000000000000000020170204
201702040010000700000000000000002370000000000000000023708000000000030711603553Soluciones Tecnicas Gener     000000000003060000000000000000000000000000000000000000000000000000000000000000000000000000000000000000000000000000000000PES00010000001000000000000000020170204
201702040010000700000000000000002371000000000000000023718000000000030543356421José Montero s.a.             000000000086529000000000000000000000000000000000000000000000000000000000000000000000000000000000000000000000000000000000PES00010000001000000000000000020170204
201702040060000700000000000000000561000000000000000005618000000000020000000001Consumidor Final              000000000046576000000000000000000000000000000000000000000000000000000000000000000000000000000000000000000000000000000000PES00010000001000000000000000020170204
201702040060000700000000000000000562000000000000000005628000000000020000000001Consumidor Final              000000000011505000000000000000000000000000000000000000000000000000000000000000000000000000000000000000000000000000000000PES00010000001000000000000000020170204
201702040060000700000000000000000563000000000000000005638000000000020000000001Consumidor Final              000000000014503000000000000000000000000000000000000000000000000000000000000000000000000000000000000000000000000000000000PES00010000001000000000000000020170204
201702040060000700000000000000000564000000000000000005648000000000020000000001Consumidor Final              000000000048001000000000000000000000000000000000000000000000000000000000000000000000000000000000000000000000000000000000PES00010000001000000000000000020170204
201702040060000700000000000000000565000000000000000005658000000000020000000001Consumidor Final              000000000038003000000000000000000000000000000000000000000000000000000000000000000000000000000000000000000000000000000000PES00010000001000000000000000020170204
201702040060000700000000000000000566000000000000000005668000000000020000000001Consumidor Final              000000000016506000000000000000000000000000000000000000000000000000000000000000000000000000000000000000000000000000000000PES00010000001000000000000000020170204
201702040060000700000000000000000567000000000000000005678000000000020000000001Consumidor Final              000000000091046000000000000000000000000000000000000000000000000000000000000000000000000000000000000000000000000000000000PES00010000001000000000000000020170204
201702040060000700000000000000000568000000000000000005688000000000020000000001Consumidor Final              000000000048496000000000000000000000000000000000000000000000000000000000000000000000000000000000000000000000000000000000PES00010000001000000000000000020170204
201702040060000700000000000000000569000000000000000005698000000000020000000001Consumidor Final              000000000030030000000000000000000000000000000000000000000000000000000000000000000000000000000000000000000000000000000000PES00010000001000000000000000020170204
201702040060000700000000000000000570000000000000000005708000000000020000000001Consumidor Final              000000000127505000000000000000000000000000000000000000000000000000000000000000000000000000000000000000000000000000000000PES00010000001000000000000000020170204
201702040060000700000000000000000571000000000000000005718000000000020000000001Consumidor Final              000000000063502000000000000000000000000000000000000000000000000000000000000000000000000000000000000000000000000000000000PES00010000001000000000000000020170204
201702040060000700000000000000000572000000000000000005728000000000020000000001Consumidor Final              000000000984946000000000000000000000000000000000000000000000000000000000000000000000000000000000000000000000000000000000PES00010000001000000000000000020170204
201702040060000700000000000000000574000000000000000005748000000000020000000001Consumidor Final              000000000450048000000000000000000000000000000000000000000000000000000000000000000000000000000000000000000000000000000000PES00010000001000000000000000020170204
201702060010000700000000000000002372000000000000000023728000000000030693459245Hoyts General Cinema          000000000029240000000000000000000000000000000000000000000000000000000000000000000000000000000000000000000000000000000000PES00010000001000000000000000020170206
201702060010000700000000000000002373000000000000000023738000000000030707474307Crew Live S.A                 000000000014060000000000000000000000000000000000000000000000000000000000000000000000000000000000000000000000000000000000PES00010000001000000000000000020170206
201702060010000700000000000000002374000000000000000023748000000000033710311159Pacific Trade SRL             000000000160003000000000000000000000000000000000000000000000000000000000000000000000000000000000000000000000000000000000PES00010000001000000000000000020170206
201702060010000700000000000000002375000000000000000023758000000000020000000001Carlos Sangare                000000000036635000000000000000000000000000000000000000000000000000000000000000000000000000000000000000000000000000000000PES00010000001000000000000000020170206
201702060010000700000000000000002376000000000000000023768000000000030714652105M Collivadino y C del Mar     000000000045046000000000000000000000000000000000000000000000000000000000000000000000000000000000000000000000000000000000PES00010000001000000000000000020170206
201702060010000700000000000000002377000000000000000023778000000000030709567728Arx  Costrucione              000000000222336000000000000000000000000000000000000000000000000000000000000000000000000000000000000000000000000000000000PES00010000001000000000000000020170206
201702060010000700000000000000002378000000000000000023788000000000027142984178Silveti Ema Alicia            000000000759347000000000000000000000000000000000000000000000000000000000000000000000000000000000000000000000000000000000PES00010000001000000000000000020170206
201702060010000700000000000000002379000000000000000023798000000000027142984178Silveti Ema Alicia            000000000129094000000000000000000000000000000000000000000000000000000000000000000000000000000000000000000000000000000000PES00010000001000000000000000020170206
201702060060000700000000000000000575000000000000000005758000000000020000000001Consumidor Final              000000000006030000000000000000000000000000000000000000000000000000000000000000000000000000000000000000000000000000000000PES00010000001000000000000000020170206
201702060060000700000000000000000576000000000000000005768000000000020000000001Luis Salina                   000000000103292000000000000000000000000000000000000000000000000000000000000000000000000000000000000000000000000000000000PES00010000001000000000000000020170206
201702060060000700000000000000000577000000000000000005778000000000020000000001Consumidor Final              000000000026082000000000000000000000000000000000000000000000000000000000000000000000000000000000000000000000000000000000PES00010000001000000000000000020170206
201702060060000700000000000000000578000000000000000005788000000000020000000001Consumidor Final              000000000021165000000000000000000000000000000000000000000000000000000000000000000000000000000000000000000000000000000000PES00010000001000000000000000020170206
201702060060000700000000000000000579000000000000000005798000000000020000000001Consumidor Final              000000000002025000000000000000000000000000000000000000000000000000000000000000000000000000000000000000000000000000000000PES00010000001000000000000000020170206
201702060060000700000000000000000580000000000000000005808000000000020000000001Consumidor Final              000000000007998000000000000000000000000000000000000000000000000000000000000000000000000000000000000000000000000000000000PES00010000001000000000000000020170206
201702060060000700000000000000000581000000000000000005818000000000020000000001Consumidor Final              000000000012006000000000000000000000000000000000000000000000000000000000000000000000000000000000000000000000000000000000PES00010000001000000000000000020170206
201702060060000700000000000000000582000000000000000005828000000000030533610338Club de Gimnasia y Tiro A     000000000010540000000000000000000000000000000000000000000000000000000000000000000000000000000000000000000000000000000000PES00010000001000000000000000020170206
201702060060000700000000000000000583000000000000000005838000000000020000000001Consumidor Final              000000000014994000000000000000000000000000000000000000000000000000000000000000000000000000000000000000000000000000000000PES00010000001000000000000000020170206
201702060060000700000000000000000584000000000000000005848000000000020000000001Consumidor Final              000000000016997000000000000000000000000000000000000000000000000000000000000000000000000000000000000000000000000000000000PES00010000001000000000000000020170206
201702060060000700000000000000000585000000000000000005858000000000020000000001Consumidor Final              000000000878347000000000000000000000000000000000000000000000000000000000000000000000000000000000000000000000000000000000PES00010000001000000000000000020170206
201702060060000700000000000000000586000000000000000005868000000000020000000001Consumidor Final              000000000010032000000000000000000000000000000000000000000000000000000000000000000000000000000000000000000000000000000000PES00010000001000000000000000020170206
201702060060000700000000000000000587000000000000000005878000000000020000000001Consumidor Final              000000000023545000000000000000000000000000000000000000000000000000000000000000000000000000000000000000000000000000000000PES00010000001000000000000000020170206
201702060060000700000000000000000589000000000000000005898000000000020000000001Consumidor Final              000000000272085000000000000000000000000000000000000000000000000000000000000000000000000000000000000000000000000000000000PES00010000001000000000000000020170206
201702060060000700000000000000000590000000000000000005908000000000020000000001Consumidor Final              000000000005950000000000000000000000000000000000000000000000000000000000000000000000000000000000000000000000000000000000PES00010000001000000000000000020170206
201702060060000700000000000000000591000000000000000005918000000000020000000001Consumidor Final              000000000015300000000000000000000000000000000000000000000000000000000000000000000000000000000000000000000000000000000000PES00010000001000000000000000020170206
201702060060000700000000000000000592000000000000000005928000000000020000000001Consumidor Final              000000000007998000000000000000000000000000000000000000000000000000000000000000000000000000000000000000000000000000000000PES00010000001000000000000000020170206
201702060060000700000000000000000593000000000000000005938000000000020000000001Consumidor Final              000000000003910000000000000000000000000000000000000000000000000000000000000000000000000000000000000000000000000000000000PES00010000001000000000000000020170206
201702060060000700000000000000000594000000000000000005948000000000020000000001Consumidor Final              000000000012090000000000000000000000000000000000000000000000000000000000000000000000000000000000000000000000000000000000PES00010000001000000000000000020170206
201702060060000700000000000000000595000000000000000005958000000000020000000001Consumidor Final              000000000015300000000000000000000000000000000000000000000000000000000000000000000000000000000000000000000000000000000000PES00010000001000000000000000020170206
201702060060000700000000000000000596000000000000000005968000000000020000000001Consumidor Final              000000000006236000000000000000000000000000000000000000000000000000000000000000000000000000000000000000000000000000000000PES00010000001000000000000000020170206
201702060060000700000000000000000597000000000000000005978000000000020000000001Consumidor Final              000000000016000000000000000000000000000000000000000000000000000000000000000000000000000000000000000000000000000000000000PES00010000001000000000000000020170206
201702060060000700000000000000000598000000000000000005988000000000020000000001Consumidor Final              000000000176007000000000000000000000000000000000000000000000000000000000000000000000000000000000000000000000000000000000PES00010000001000000000000000020170206
201702070010000700000000000000002380000000000000000023808000000000030707884653Integral SRL                  000000000293674000000000000000000000000000000000000000000000000000000000000000000000000000000000000000000000000000000000PES00010000001000000000000000020170207
201702070010000700000000000000002381000000000000000023818000000000030711603553Soluciones Tecnicas Gener     000000000008074000000000000000000000000000000000000000000000000000000000000000000000000000000000000000000000000000000000PES00010000001000000000000000020170207
201702070010000700000000000000002382000000000000000023828000000000020141766350Astudillo  Cesar Alejandr     000000000034086000000000000000000000000000000000000000000000000000000000000000000000000000000000000000000000000000000000PES00010000001000000000000000020170207
201702070010000700000000000000002383000000000000000023838000000000020083887991Mendez  Federico              000000000069615000000000000000000000000000000000000000000000000000000000000000000000000000000000000000000000000000000000PES00010000001000000000000000020170207
201702070010000700000000000000002384000000000000000023848000000000020144880146Lavin Guillermo               000000000011849000000000000000000000000000000000000000000000000000000000000000000000000000000000000000000000000000000000PES00010000001000000000000000020170207
201702070010000700000000000000002385000000000000000023858000000000030710345992Productos Alimenticios So     000000000003515000000000000000000000000000000000000000000000000000000000000000000000000000000000000000000000000000000000PES00010000001000000000000000020170207
201702070010000700000000000000002386000000000000000023868000000000020082943510Liendro Roberto Antonio       000000000012801000000000000000000000000000000000000000000000000000000000000000000000000000000000000000000000000000000000PES00010000001000000000000000020170207
201702070010000700000000000000002387000000000000000023878000000000030644225360Servicios Viales de Pigue     000000000612901000000000000000000000000000000000000000000000000000000000000000000000000000000000000000000000000000000000PES00010000001000000000000000020170207
201702070010000700000000000000002388000000000000000023888000000000027134140173Tomas Monica Adriana          000000000007827000000000000000000000000000000000000000000000000000000000000000000000000000000000000000000000000000000000PES00010000001000000000000000020170207
201702070010000700000000000000002389000000000000000023898000000000020260319176Sola Jose                     000000000269167000000000000000000000000000000000000000000000000000000000000000000000000000000000000000000000000000000000PES00010000001000000000000000020170207
201702070060000700000000000000000599000000000000000005998000000000020000000001Consumidor Final              000000000005355000000000000000000000000000000000000000000000000000000000000000000000000000000000000000000000000000000000PES00010000001000000000000000020170207
201702070060000700000000000000000600000000000000000006008000000000020000000001Consumidor Final              000000000009435000000000000000000000000000000000000000000000000000000000000000000000000000000000000000000000000000000000PES00010000001000000000000000020170207
201702070060000700000000000000000601000000000000000006018000000000020000000001Consumidor Final              000000000006120000000000000000000000000000000000000000000000000000000000000000000000000000000000000000000000000000000000PES00010000001000000000000000020170207
201702070060000700000000000000000602000000000000000006028000000000020000000001Consumidor Final              000000000005950000000000000000000000000000000000000000000000000000000000000000000000000000000000000000000000000000000000PES00010000001000000000000000020170207
201702070060000700000000000000000603000000000000000006038000000000020000000001Consumidor Final              000000000011050000000000000000000000000000000000000000000000000000000000000000000000000000000000000000000000000000000000PES00010000001000000000000000020170207
201702070060000700000000000000000604000000000000000006048000000000020000000001Consumidor Final              000000000054998000000000000000000000000000000000000000000000000000000000000000000000000000000000000000000000000000000000PES00010000001000000000000000020170207
201702070060000700000000000000000605000000000000000006058000000000020000000001Consumidor Final              000000000011628000000000000000000000000000000000000000000000000000000000000000000000000000000000000000000000000000000000PES00010000001000000000000000020170207
201702070060000700000000000000000606000000000000000006068000000000020000000001Consumidor Final              000000000032001000000000000000000000000000000000000000000000000000000000000000000000000000000000000000000000000000000000PES00010000001000000000000000020170207
201702070060000700000000000000000607000000000000000006078000000000020000000001Consumidor Final              000000000328984000000000000000000000000000000000000000000000000000000000000000000000000000000000000000000000000000000000PES00010000001000000000000000020170207
201702070060000700000000000000000608000000000000000006088000000000020000000001Consumidor Final              000000000016000000000000000000000000000000000000000000000000000000000000000000000000000000000000000000000000000000000000PES00010000001000000000000000020170207
201702070060000700000000000000000609000000000000000006098000000000020000000001Consumidor Final              000000000064002000000000000000000000000000000000000000000000000000000000000000000000000000000000000000000000000000000000PES00010000001000000000000000020170207
201702070060000700000000000000000610000000000000000006108000000000020000000001Consumidor Final              000000000028305000000000000000000000000000000000000000000000000000000000000000000000000000000000000000000000000000000000PES00010000001000000000000000020170207
201702070060000700000000000000000611000000000000000006118000000000020000000001Consumidor Final              000000000010456000000000000000000000000000000000000000000000000000000000000000000000000000000000000000000000000000000000PES00010000001000000000000000020170207
201702070060000700000000000000000612000000000000000006128000000000020000000001Consumidor Final              000000000005005000000000000000000000000000000000000000000000000000000000000000000000000000000000000000000000000000000000PES00010000001000000000000000020170207
201702070060000700000000000000000613000000000000000006138000000000020000000001Consumidor Final              000000000032001000000000000000000000000000000000000000000000000000000000000000000000000000000000000000000000000000000000PES00010000001000000000000000020170207
201702070060000700000000000000000614000000000000000006148000000000020000000001Consumidor Final              000000000019298000000000000000000000000000000000000000000000000000000000000000000000000000000000000000000000000000000000PES00010000001000000000000000020170207
201702070060000700000000000000000615000000000000000006158000000000020000000001Consumidor Final              000000000012006000000000000000000000000000000000000000000000000000000000000000000000000000000000000000000000000000000000PES00010000001000000000000000020170207
201702070060000700000000000000000616000000000000000006168000000000020000000001Consumidor Final              000000000002890000000000000000000000000000000000000000000000000000000000000000000000000000000000000000000000000000000000PES00010000001000000000000000020170207
201702070060000700000000000000000617000000000000000006178000000000020000000001Consumidor Final              000000000058650000000000000000000000000000000000000000000000000000000000000000000000000000000000000000000000000000000000PES00010000001000000000000000020170207
201702070060000700000000000000000618000000000000000006188000000000020000000001Consumidor Final              000000000009830000000000000000000000000000000000000000000000000000000000000000000000000000000000000000000000000000000000PES00010000001000000000000000020170207
201702070060000700000000000000000619000000000000000006198000000000020000000001Consumidor Final              000000000014365000000000000000000000000000000000000000000000000000000000000000000000000000000000000000000000000000000000PES00010000001000000000000000020170207
201702070060000700000000000000000620000000000000000006208000000000020000000001Consumidor Final              000000000035445000000000000000000000000000000000000000000000000000000000000000000000000000000000000000000000000000000000PES00010000001000000000000000020170207
201702070060000400000000000000001398000000000000000013988000000000020000000001Consumidor Final              000000000534021000000000000000000000000000000000000000000000000000000000000000000000000000000000000000000000000000000000PES00010000001000000000000000020170207
201702080010000700000000000000002390000000000000000023908000000000020134141507Cavallero Carlos              000000000007000000000000000000000000000000000000000000000000000000000000000000000000000000000000000000000000000000000000PES00010000001000000000000000020170208
201702080010000700000000000000002391000000000000000023918000000000020110606355Casado Hector Raul            000000000026605000000000000000000000000000000000000000000000000000000000000000000000000000000000000000000000000000000000PES00010000001000000000000000020170208
201702080010000700000000000000002392000000000000000023928000000000030709224901Rac Contrucciones SRL         000000000043435000000000000000000000000000000000000000000000000000000000000000000000000000000000000000000000000000000000PES00010000001000000000000000020170208
201702080010000700000000000000002393000000000000000023938000000000020137451922Garin Juan Pedro              000000000008065000000000000000000000000000000000000000000000000000000000000000000000000000000000000000000000000000000000PES00010000001000000000000000020170208
201702080010000700000000000000002394000000000000000023948000000000030645368262Video  Drome S A              000000000016000000000000000000000000000000000000000000000000000000000000000000000000000000000000000000000000000000000000PES00010000001000000000000000020170208
201702080010000700000000000000002395000000000000000023958000000000030709608688Brisar SRL                    000000000013097000000000000000000000000000000000000000000000000000000000000000000000000000000000000000000000000000000000PES00010000001000000000000000020170208
201702080010000700000000000000002396000000000000000023968000000000030644225360Servicios Viales de Pigue     000000031190323000000000000000000000000000000000000000000000000000000000000000000000000000000000000000000000000000000000PES00010000001000000000000000020170208
201702080010000700000000000000002397000000000000000023978000000000033634687829Inghehco s.a.                 000000000009520000000000000000000000000000000000000000000000000000000000000000000000000000000000000000000000000000000000PES00010000001000000000000000020170208
201702080010000700000000000000002398000000000000000023988000000000020177929884Esteban Fonzalida Sergio      000000000068850000000000000000000000000000000000000000000000000000000000000000000000000000000000000000000000000000000000PES00010000001000000000000000020170208
201702080010000700000000000000002399000000000000000023998000000000020143036937Patron Costa Esteban          000000000065764000000000000000000000000000000000000000000000000000000000000000000000000000000000000000000000000000000000PES00010000001000000000000000020170208
201702080010000700000000000000002400000000000000000024008000000000023121455374Rasero Edith                  000000000096003000000000000000000000000000000000000000000000000000000000000000000000000000000000000000000000000000000000PES00010000001000000000000000020170208
201702080060000700000000000000000621000000000000000006218000000000030709065897La Lucinda club de Campo      000000000018063000000000000000000000000000000000000000000000000000000000000000000000000000000000000000000000000000000000PES00010000001000000000000000020170208
201702080060000700000000000000000622000000000000000006228000000000020000000001Consorcio Mercedes 2          000000000007544000000000000000000000000000000000000000000000000000000000000000000000000000000000000000000000000000000000PES00010000001000000000000000020170208
201702080060000700000000000000000623000000000000000006238000000000030681449805Asociacion San Alfonso        000000000239700000000000000000000000000000000000000000000000000000000000000000000000000000000000000000000000000000000000PES00010000001000000000000000020170208
201702080060000400000000000000001399000000000000000013998000000000020000000001Consumidor Final              000000000775801000000000000000000000000000000000000000000000000000000000000000000000000000000000000000000000000000000000PES00010000001000000000000000020170208
201702090010000700000000000000002401000000000000000024018000000000030612122756Molinos Panpa Blanca sa       000000000020952000000000000000000000000000000000000000000000000000000000000000000000000000000000000000000000000000000000PES00010000001000000000000000020170209
201702090010000700000000000000002402000000000000000024028000000000020083879565Falú Ricardo Manuel           000000000009599000000000000000000000000000000000000000000000000000000000000000000000000000000000000000000000000000000000PES00010000001000000000000000020170209
201702090010000700000000000000002403000000000000000024038000000000020162973712Benavidez Everardo G          000000000066639000000000000000000000000000000000000000000000000000000000000000000000000000000000000000000000000000000000PES00010000001000000000000000020170209
201702090010000700000000000000002404000000000000000024048000000000030712294163Garra SRL                     000000000013005000000000000000000000000000000000000000000000000000000000000000000000000000000000000000000000000000000000PES00010000001000000000000000020170209
201702090010000700000000000000002405000000000000000024058000000000030708024313Denki Ingenieria SRL          000000000021002000000000000000000000000000000000000000000000000000000000000000000000000000000000000000000000000000000000PES00010000001000000000000000020170209
201702090010000700000000000000002406000000000000000024068000000000030708024313Denki Ingenieria SRL          000000000009018000000000000000000000000000000000000000000000000000000000000000000000000000000000000000000000000000000000PES00010000001000000000000000020170209
201702090010000700000000000000002407000000000000000024078000000000030711603553Soluciones Tecnicas Gener     000000000004930000000000000000000000000000000000000000000000000000000000000000000000000000000000000000000000000000000000PES00010000001000000000000000020170209
201702090010000700000000000000002408000000000000000024088000000000030687390616Instituto del Norte SA        000000000032037000000000000000000000000000000000000000000000000000000000000000000000000000000000000000000000000000000000PES00010000001000000000000000020170209
201702090010000700000000000000002409000000000000000024098000000000030700051362Neca s.r.l.                   000000000022900000000000000000000000000000000000000000000000000000000000000000000000000000000000000000000000000000000000PES00010000001000000000000000020170209
201702090010000700000000000000002410000000000000000024108000000000030711740208Consulting Group SRL          000000000089037000000000000000000000000000000000000000000000000000000000000000000000000000000000000000000000000000000000PES00010000001000000000000000020170209
201702090010000700000000000000002411000000000000000024118000000000027291647052Aira  Alcira Aucachi          000000000016000000000000000000000000000000000000000000000000000000000000000000000000000000000000000000000000000000000000PES00010000001000000000000000020170209
201702090010000700000000000000002412000000000000000024128000000000030709390577Alef  S R L                   000000000077010000000000000000000000000000000000000000000000000000000000000000000000000000000000000000000000000000000000PES00010000001000000000000000020170209
201702090010000700000000000000002413000000000000000024138000000000027142984178Silveti Ema Alicia            000000000374849000000000000000000000000000000000000000000000000000000000000000000000000000000000000000000000000000000000PES00010000001000000000000000020170209
201702090010000700000000000000002414000000000000000024148000000000027142984178Silveti Ema Alicia            000000000187302000000000000000000000000000000000000000000000000000000000000000000000000000000000000000000000000000000000PES00010000001000000000000000020170209
201702090060000700000000000000000624000000000000000006248000000000020000000001Colegio San Cayetano          000000000028368000000000000000000000000000000000000000000000000000000000000000000000000000000000000000000000000000000000PES00010000001000000000000000020170209
201702090060000700000000000000000625000000000000000006258000000000030999275474Hospital San Bernardo         000000000011220000000000000000000000000000000000000000000000000000000000000000000000000000000000000000000000000000000000PES00010000001000000000000000020170209
201702090060000400000000000000001400000000000000000014008000000000020000000001Consumidor Final              000000002009597000000000000000000000000000000000000000000000000000000000000000000000000000000000000000000000000000000000PES00010000001000000000000000020170209
201702100010000700000000000000002415000000000000000024158000000000030673110823Medical Care SRL              000000000009605000000000000000000000000000000000000000000000000000000000000000000000000000000000000000000000000000000000PES00010000001000000000000000020170210
201702100010000700000000000000002416000000000000000024168000000000030711593973Consorcio El Virrey 2         000000000223245000000000000000000000000000000000000000000000000000000000000000000000000000000000000000000000000000000000PES00010000001000000000000000020170210
201702100010000700000000000000002417000000000000000024178000000000030707938338Sanatorio San Roque s.a       000000000022092000000000000000000000000000000000000000000000000000000000000000000000000000000000000000000000000000000000PES00010000001000000000000000020170210
201702100010000700000000000000002418000000000000000024188000000000030707880925Instituto de Clinica y Ca     000000002883744000000000000000000000000000000000000000000000000000000000000000000000000000000000000000000000000000000000PES00010000001000000000000000020170210
201702100010000700000000000000002419000000000000000024198000000000030707880925Instituto de Clinica y Ca     000000002086268000000000000000000000000000000000000000000000000000000000000000000000000000000000000000000000000000000000PES00010000001000000000000000020170210
201702100010000700000000000000002420000000000000000024208000000000030713212209Rayce                         000000000018530000000000000000000000000000000000000000000000000000000000000000000000000000000000000000000000000000000000PES00010000001000000000000000020170210
201702100010000700000000000000002421000000000000000024218000000000030662049618Ocasa                         000000000044881000000000000000000000000000000000000000000000000000000000000000000000000000000000000000000000000000000000PES00010000001000000000000000020170210
201702100060000700000000000000000626000000000000000006268000000000020000000001Consumidor Final              000000000011730000000000000000000000000000000000000000000000000000000000000000000000000000000000000000000000000000000000PES00010000001000000000000000020170210
201702100060000700000000000000000627000000000000000006278000000000020000000001Colegio Sagrado Corazon S     000000000105383000000000000000000000000000000000000000000000000000000000000000000000000000000000000000000000000000000000PES00010000001000000000000000020170210
201702100060000700000000000000000628000000000000000006288000000000030999284651Policia de Salta              000000000001560000000000000000000000000000000000000000000000000000000000000000000000000000000000000000000000000000000000PES00010000001000000000000000020170210
201702100060000700000000000000000629000000000000000006298000000000020000000001Consumidor Final              000000000110405000000000000000000000000000000000000000000000000000000000000000000000000000000000000000000000000000000000PES00010000001000000000000000020170210
201702100060000700000000000000000630000000000000000006308000000000020000000001Consumidor Final              000000000006120000000000000000000000000000000000000000000000000000000000000000000000000000000000000000000000000000000000PES00010000001000000000000000020170210
201702100060000700000000000000000631000000000000000006318000000000030999284651Policia de Salta              000000000020000000000000000000000000000000000000000000000000000000000000000000000000000000000000000000000000000000000000PES00010000001000000000000000020170210
201702100060000400000000000000001401000000000000000014018000000000020000000001Consumidor Final              000000001157500000000000000000000000000000000000000000000000000000000000000000000000000000000000000000000000000000000000PES00010000001000000000000000020170210
201702110010000700000000000000002422000000000000000024228000000000027017366314Gonzalez Marta Rosa           000000000008499000000000000000000000000000000000000000000000000000000000000000000000000000000000000000000000000000000000PES00010000001000000000000000020170211
201702110010000700000000000000002423000000000000000024238000000000030709608688Brisar SRL                    000000000022101000000000000000000000000000000000000000000000000000000000000000000000000000000000000000000000000000000000PES00010000001000000000000000020170211
201702110010000700000000000000002424000000000000000024248000000000030708835559Estacion Vision SRL           000000000017339000000000000000000000000000000000000000000000000000000000000000000000000000000000000000000000000000000000PES00010000001000000000000000020170211
201702110010000700000000000000002425000000000000000024258000000000030708237953A  M Sociedad de Hecho        000000000008585000000000000000000000000000000000000000000000000000000000000000000000000000000000000000000000000000000000PES00010000001000000000000000020170211
201702110010000700000000000000002426000000000000000024268000000000030712272240Fideicomiso Aires Verdes      000000000019864000000000000000000000000000000000000000000000000000000000000000000000000000000000000000000000000000000000PES00010000001000000000000000020170211
201702110010000700000000000000002427000000000000000024278000000000030708765216Ing Victor Hugo Rulli SRL     000000000003060000000000000000000000000000000000000000000000000000000000000000000000000000000000000000000000000000000000PES00010000001000000000000000020170211
201702110010000700000000000000002428000000000000000024288000000000030708237953A  M Sociedad de Hecho        000000000002994000000000000000000000000000000000000000000000000000000000000000000000000000000000000000000000000000000000PES00010000001000000000000000020170211
201702110060000700000000000000000632000000000000000006328000000000030700046075Sociedad de Arquitectos       000000000079475000000000000000000000000000000000000000000000000000000000000000000000000000000000000000000000000000000000PES00010000001000000000000000020170211
201702110060000700000000000000000633000000000000000006338000000000030539032646Club 20 de Febrero            000000000095016000000000000000000000000000000000000000000000000000000000000000000000000000000000000000000000000000000000PES00010000001000000000000000020170211
201702110060000700000000000000000634000000000000000006348000000000020000000001Consumidor Final              000000000460294000000000000000000000000000000000000000000000000000000000000000000000000000000000000000000000000000000000PES00010000001000000000000000020170211
201702110060000400000000000000001402000000000000000014028000000000020000000001Consumidor Final              000000000683961000000000000000000000000000000000000000000000000000000000000000000000000000000000000000000000000000000000PES00010000001000000000000000020170211
201702130010000700000000000000002429000000000000000024298000000000030562907676Iberia Construcciones s.a     000000000400046000000000000000000000000000000000000000000000000000000000000000000000000000000000000000000000000000000000PES00010000001000000000000000020170213
201702130010000700000000000000002430000000000000000024308000000000020144533284Quinteros Horacio             000000001048024000000000000000000000000000000000000000000000000000000000000000000000000000000000000000000000000000000000PES00010000001000000000000000020170213
201702130010000700000000000000002431000000000000000024318000000000020162973712Benavidez Everardo G          000000000035902000000000000000000000000000000000000000000000000000000000000000000000000000000000000000000000000000000000PES00010000001000000000000000020170213
201702130010000700000000000000002432000000000000000024328000000000027929338923Gimenez  Nancy                000000000123420000000000000000000000000000000000000000000000000000000000000000000000000000000000000000000000000000000000PES00010000001000000000000000020170213
201702130010000700000000000000002433000000000000000024338000000000020201251444Zunino Carlos                 000000000011305000000000000000000000000000000000000000000000000000000000000000000000000000000000000000000000000000000000PES00010000001000000000000000020170213
201702130010000700000000000000002434000000000000000024348000000000033710311159Pacific Trade SRL             000000000019466000000000000000000000000000000000000000000000000000000000000000000000000000000000000000000000000000000000PES00010000001000000000000000020170213
201702130010000700000000000000002435000000000000000024358000000000020350441485Reynoso Gonzalo Alfredo       000000000009520000000000000000000000000000000000000000000000000000000000000000000000000000000000000000000000000000000000PES00010000001000000000000000020170213
201702130060000700000000000000000635000000000000000006358000000000020000000001Colegio Victorino de la P     000000000013176000000000000000000000000000000000000000000000000000000000000000000000000000000000000000000000000000000000PES00010000001000000000000000020170213
201702130060000700000000000000000636000000000000000006368000000000030533610338Club de Gimnasia y Tiro A     000000000060000000000000000000000000000000000000000000000000000000000000000000000000000000000000000000000000000000000000PES00010000001000000000000000020170213
201702130060000700000000000000000637000000000000000006378000000000030533610338Club de Gimnasia y Tiro A     000000000054000000000000000000000000000000000000000000000000000000000000000000000000000000000000000000000000000000000000PES00010000001000000000000000020170213
201702130060000700000000000000000638000000000000000006388000000000020000000001Consumidor Final              000000000044880000000000000000000000000000000000000000000000000000000000000000000000000000000000000000000000000000000000PES00010000001000000000000000020170213
201702130060000700000000000000000639000000000000000006398000000000030533610338Club de Gimnasia y Tiro A     000000000020020000000000000000000000000000000000000000000000000000000000000000000000000000000000000000000000000000000000PES00010000001000000000000000020170213
201702130080000700000000000000000004000000000000000000048000000000030533610338Club de Gimnasia y Tiro A     000000000060000000000000000000000000000000000000000000000000000000000000000000000000000000000000000000000000000000000000PES00010000001000000000000000020170213
201702140010000700000000000000002436000000000000000024368000000000030711372705Empresa Constructora Juan     000000000009900000000000000000000000000000000000000000000000000000000000000000000000000000000000000000000000000000000000PES00010000001000000000000000020170214
201702140010000700000000000000002437000000000000000024378000000000030714276952CYL SRL                       000000000069360000000000000000000000000000000000000000000000000000000000000000000000000000000000000000000000000000000000PES00010000001000000000000000020170214
201702140010000700000000000000002438000000000000000024388000000000020082943510Liendro Roberto Antonio       000000000064975000000000000000000000000000000000000000000000000000000000000000000000000000000000000000000000000000000000PES00010000001000000000000000020170214
201702140010000700000000000000002439000000000000000024398000000000030714276952CYL SRL                       000000000181794000000000000000000000000000000000000000000000000000000000000000000000000000000000000000000000000000000000PES00010000001000000000000000020170214
201702140010000700000000000000002440000000000000000024408000000000030714542083Exa Group SRL                 000000000046581000000000000000000000000000000000000000000000000000000000000000000000000000000000000000000000000000000000PES00010000001000000000000000020170214
201702140010000700000000000000002441000000000000000024418000000000020124093830Velazco Ruben                 000000000197022000000000000000000000000000000000000000000000000000000000000000000000000000000000000000000000000000000000PES00010000001000000000000000020170214
201702140010000700000000000000002442000000000000000024428000000000030712294163Garra SRL                     000000000010001000000000000000000000000000000000000000000000000000000000000000000000000000000000000000000000000000000000PES00010000001000000000000000020170214
201702140060000700000000000000000640000000000000000006408000000000030690654756Popeye BC                     000000000016030000000000000000000000000000000000000000000000000000000000000000000000000000000000000000000000000000000000PES00010000001000000000000000020170214
201702140060000700000000000000000641000000000000000006418000000000030690654756Popeye BC                     000000000019075000000000000000000000000000000000000000000000000000000000000000000000000000000000000000000000000000000000PES00010000001000000000000000020170214
201702140060000700000000000000000642000000000000000006428000000000030712399569Colegio  Sagrado Corazon      000000000156097000000000000000000000000000000000000000000000000000000000000000000000000000000000000000000000000000000000PES00010000001000000000000000020170214
201702140060000700000000000000000643000000000000000006438000000000020000000001Escuela Victorino de la P     000000000014040000000000000000000000000000000000000000000000000000000000000000000000000000000000000000000000000000000000PES00010000001000000000000000020170214
201702140060000700000000000000000644000000000000000006448000000000020147495391Madrazo Agustin Edgardo       000000000048001000000000000000000000000000000000000000000000000000000000000000000000000000000000000000000000000000000000PES00010000001000000000000000020170214
201702140060000400000000000000001403000000000000000014038000000000020000000001Consumidor Final              000000001924977000000000000000000000000000000000000000000000000000000000000000000000000000000000000000000000000000000000PES00010000001000000000000000020170214
201702150010000700000000000000002443000000000000000024438000000000030711372705Empresa Constructora Juan     000000000007800000000000000000000000000000000000000000000000000000000000000000000000000000000000000000000000000000000000PES00010000001000000000000000020170215
201702150010000700000000000000002444000000000000000024448000000000020144533284Quinteros Horacio             000000000104663000000000000000000000000000000000000000000000000000000000000000000000000000000000000000000000000000000000PES00010000001000000000000000020170215
201702150010000700000000000000002445000000000000000024458000000000027310359063Gauna Pamela                  000000000059434000000000000000000000000000000000000000000000000000000000000000000000000000000000000000000000000000000000PES00010000001000000000000000020170215
201702150010000700000000000000002446000000000000000024468000000000030708389443La Peatonal SRL               000000000016000000000000000000000000000000000000000000000000000000000000000000000000000000000000000000000000000000000000PES00010000001000000000000000020170215
201702150010000700000000000000002447000000000000000024478000000000020173294728Tonini Walter Eduardo         000000000008599000000000000000000000000000000000000000000000000000000000000000000000000000000000000000000000000000000000PES00010000001000000000000000020170215
201702150010000700000000000000002448000000000000000024488000000000027929338923Gimenez  Nancy                000000000038887000000000000000000000000000000000000000000000000000000000000000000000000000000000000000000000000000000000PES00010000001000000000000000020170215
201702150010000700000000000000002449000000000000000024498000000000020201031479Oliveira Luis Sergio          000000000035501000000000000000000000000000000000000000000000000000000000000000000000000000000000000000000000000000000000PES00010000001000000000000000020170215
201702150010000700000000000000002450000000000000000024508000000000020125532730Virgili Daniel                000000000105014000000000000000000000000000000000000000000000000000000000000000000000000000000000000000000000000000000000PES00010000001000000000000000020170215
201702150010000700000000000000002451000000000000000024518000000000030521505938Dal Borgo Hnos SRL            000000000162945000000000000000000000000000000000000000000000000000000000000000000000000000000000000000000000000000000000PES00010000001000000000000000020170215
201702150010000700000000000000002452000000000000000024528000000000027101725869Laconi Maria Ines             000000000075060000000000000000000000000000000000000000000000000000000000000000000000000000000000000000000000000000000000PES00010000001000000000000000020170215
201702150010000700000000000000002453000000000000000024538000000000030700087227Aluja SRL                     000000018535687000000000000000000000000000000000000000000000000000000000000000000000535542000000000000000000000000000000PES00010000001000000000000000020170215
201702150010000700000000000000002455000000000000000024558000000000030700087227Aluja SRL                     000000018223287000000000000000000000000000000000000000000000000000000000000000000000223142000000000000000000000000000000PES00010000001000000000000000020170215
201702150010000700000000000000002456000000000000000024568000000000030700087227Aluja SRL                     000000018223287000000000000000000000000000000000000000000000000000000000000000000000223142000000000000000000000000000000PES00010000001000000000000000020170215
201702150060000700000000000000000645000000000000000006458000000000030533610338Club de Gimnasia y Tiro A     000000000034000000000000000000000000000000000000000000000000000000000000000000000000000000000000000000000000000000000000PES00010000001000000000000000020170215
201702150060000700000000000000000646000000000000000006468000000000030712399569Colegio  Sagrado Corazon      000000000123507000000000000000000000000000000000000000000000000000000000000000000000000000000000000000000000000000000000PES00010000001000000000000000020170215
201702150030000700000000000000000024000000000000000000248000000000030700087227Aluja SRL                     000000018000145000000000000000000000000000000000000000000000000000000000000000000000000000000000000000000000000000000000PES00010000001000000000000000020170215
201702150030000700000000000000000025000000000000000000258000000000030700087227Aluja SRL                     000000018535687000000000000000000000000000000000000000000000000000000000000-000000000535542000000000000000000000000000000PES00010000001000000000000000020170215
201702150030000700000000000000000026000000000000000000268000000000030700087227Aluja SRL                     000000018223287000000000000000000000000000000000000000000000000000000000000-000000000223142000000000000000000000000000000PES00010000001000000000000000020170215
201702150030000700000000000000000027000000000000000000278000000000030700087227Aluja SRL                     000000018223287000000000000000000000000000000000000000000000000000000000000-000000000223142000000000000000000000000000000PES00010000001000000000000000020170215
201702150060000400000000000000001404000000000000000014048000000000020000000001Consumidor Final              000000001094901000000000000000000000000000000000000000000000000000000000000000000000000000000000000000000000000000000000PES00010000001000000000000000020170215
201702160010000700000000000000002457000000000000000024578000000000030708348879EFEVEDE S.A                   000000000021419000000000000000000000000000000000000000000000000000000000000000000000000000000000000000000000000000000000PES00010000001000000000000000020170216
201702160010000700000000000000002458000000000000000024588000000000027310359063Gauna Pamela                  000000000011050000000000000000000000000000000000000000000000000000000000000000000000000000000000000000000000000000000000PES00010000001000000000000000020170216
201702160010000700000000000000002459000000000000000024598000000000030673042712Netco s.r.l.                  000000000009004000000000000000000000000000000000000000000000000000000000000000000000000000000000000000000000000000000000PES00010000001000000000000000020170216
201702160010000700000000000000002460000000000000000024608000000000030690718258Tranmar SRL                   000000000017501000000000000000000000000000000000000000000000000000000000000000000000000000000000000000000000000000000000PES00010000001000000000000000020170216
201702160010000700000000000000002461000000000000000024618000000000030679839191Concordia Construcciones      000000000002006000000000000000000000000000000000000000000000000000000000000000000000000000000000000000000000000000000000PES00010000001000000000000000020170216
201702160010000700000000000000002462000000000000000024628000000000033710311159Pacific Trade SRL             000000000012806000000000000000000000000000000000000000000000000000000000000000000000000000000000000000000000000000000000PES00010000001000000000000000020170216
201702160010000700000000000000002463000000000000000024638000000000020203999519Delta Computacion             000000000041004000000000000000000000000000000000000000000000000000000000000000000000000000000000000000000000000000000000PES00010000001000000000000000020170216
201702160010000700000000000000002464000000000000000024648000000000020047080461Binda Aldo Augusto            000000000016000000000000000000000000000000000000000000000000000000000000000000000000000000000000000000000000000000000000PES00010000001000000000000000020170216
201702160010000700000000000000002465000000000000000024658000000000020144533284Quinteros Horacio             000000000099905000000000000000000000000000000000000000000000000000000000000000000000000000000000000000000000000000000000PES00010000001000000000000000020170216
201702160010000700000000000000002466000000000000000024668000000000033710311159Pacific Trade SRL             000000000067009000000000000000000000000000000000000000000000000000000000000000000000000000000000000000000000000000000000PES00010000001000000000000000020170216
201702160010000700000000000000002467000000000000000024678000000000030711383693Grinfil SRL                   000000000006859000000000000000000000000000000000000000000000000000000000000000000000000000000000000000000000000000000000PES00010000001000000000000000020170216
201702160010000700000000000000002468000000000000000024688000000000033710311159Pacific Trade SRL             000000000015005000000000000000000000000000000000000000000000000000000000000000000000000000000000000000000000000000000000PES00010000001000000000000000020170216
201702160010000700000000000000002469000000000000000024698000000000030707938338Sanatorio San Roque s.a       000000000257417000000000000000000000000000000000000000000000000000000000000000000000000000000000000000000000000000000000PES00010000001000000000000000020170216
201702160010000700000000000000002470000000000000000024708000000000030700087227Aluja SRL                     000000018223143000000000000000000000000000000000000000000000000000000000000000000000223141000000000000000000000000000000PES00010000001000000000000000020170216
201702160010000700000000000000002471000000000000000024718000000000030518625078Proyectos Especiales s.r.     000000000075497000000000000000000000000000000000000000000000000000000000000000000000000000000000000000000000000000000000PES00010000001000000000000000020170216
201702160010000700000000000000002472000000000000000024728000000000020162973712Benavidez Everardo G          000000000032001000000000000000000000000000000000000000000000000000000000000000000000000000000000000000000000000000000000PES00010000001000000000000000020170216
201702160060000700000000000000000647000000000000000006478000000000030999284651Policia de Salta              000000000770598000000000000000000000000000000000000000000000000000000000000000000000000000000000000000000000000000000000PES00010000001000000000000000020170216
201702160060000700000000000000000648000000000000000006488000000000020000000001Consumidor Final              000000000002000000000000000000000000000000000000000000000000000000000000000000000000000000000000000000000000000000000000PES00010000001000000000000000020170216
201702160060000700000000000000000649000000000000000006498000000000020000000001Consumidor Final              000000000388051000000000000000000000000000000000000000000000000000000000000000000000000000000000000000000000000000000000PES00010000001000000000000000020170216
201702160060000700000000000000000650000000000000000006508000000000020000000001Consumidor Final              000000000015725000000000000000000000000000000000000000000000000000000000000000000000000000000000000000000000000000000000PES00010000001000000000000000020170216
201702160060000400000000000000001405000000000000000014058000000000020000000001Consumidor Final              000000001306420000000000000000000000000000000000000000000000000000000000000000000000000000000000000000000000000000000000PES00010000001000000000000000020170216
201702170010000700000000000000002473000000000000000024738000000000020134141507Cavallero Carlos              000000000035522000000000000000000000000000000000000000000000000000000000000000000000000000000000000000000000000000000000PES00010000001000000000000000020170217
201702170010000700000000000000002474000000000000000024748000000000030708963263Galerias El Palacio S.A       000000000015904000000000000000000000000000000000000000000000000000000000000000000000000000000000000000000000000000000000PES00010000001000000000000000020170217
201702170010000700000000000000002475000000000000000024758000000000033518604339Galerias Margalef ICIF        000000000081104000000000000000000000000000000000000000000000000000000000000000000000000000000000000000000000000000000000PES00010000001000000000000000020170217
201702170010000700000000000000002476000000000000000024768000000000030708389443La Peatonal SRL               000000000019500000000000000000000000000000000000000000000000000000000000000000000000000000000000000000000000000000000000PES00010000001000000000000000020170217
201702170010000700000000000000002477000000000000000024778000000000030707837035Torzav srl                    000000000020058000000000000000000000000000000000000000000000000000000000000000000000000000000000000000000000000000000000PES00010000001000000000000000020170217
201702170010000700000000000000002478000000000000000024788000000000030710586140AG  Emprendimientos SRL       000000000023038000000000000000000000000000000000000000000000000000000000000000000000000000000000000000000000000000000000PES00010000001000000000000000020170217
201702170010000700000000000000002479000000000000000024798000000000030714065897Ecos de Salta SRL             000000000765658000000000000000000000000000000000000000000000000000000000000000000000000000000000000000000000000000000000PES00010000001000000000000000020170217
201702170010000700000000000000002480000000000000000024808000000000030714065897Ecos de Salta SRL             000000000271949000000000000000000000000000000000000000000000000000000000000000000000000000000000000000000000000000000000PES00010000001000000000000000020170217
201702170010000700000000000000002481000000000000000024818000000000030714065897Ecos de Salta SRL             000000000012392000000000000000000000000000000000000000000000000000000000000000000000000000000000000000000000000000000000PES00010000001000000000000000020170217
201702170010000700000000000000002482000000000000000024828000000000030713212209Rayces                        000000000064000000000000000000000000000000000000000000000000000000000000000000000000000000000000000000000000000000000000PES00010000001000000000000000020170217
201702170010000700000000000000002483000000000000000024838000000000020137451922Garin Juan Pedro              000000000008065000000000000000000000000000000000000000000000000000000000000000000000000000000000000000000000000000000000PES00010000001000000000000000020170217
201702170010000700000000000000002484000000000000000024848000000000027310359063Gauna Pamela                  000000000005015000000000000000000000000000000000000000000000000000000000000000000000000000000000000000000000000000000000PES00010000001000000000000000020170217
201702170010000700000000000000002485000000000000000024858000000000020219832185Palacios Horacio              000000000050916000000000000000000000000000000000000000000000000000000000000000000000000000000000000000000000000000000000PES00010000001000000000000000020170217
201702170010000700000000000000002486000000000000000024868000000000027929338923Gimenez  Nancy                000000000135660000000000000000000000000000000000000000000000000000000000000000000000000000000000000000000000000000000000PES00010000001000000000000000020170217
201702170010000700000000000000002487000000000000000024878000000000030715411772Fideicomiso Belgrano 1557     000000000009626000000000000000000000000000000000000000000000000000000000000000000000000000000000000000000000000000000000PES00010000001000000000000000020170217
201702170010000700000000000000002488000000000000000024888000000000027101725869Laconi Maria Ines             000000000111001000000000000000000000000000000000000000000000000000000000000000000000000000000000000000000000000000000000PES00010000001000000000000000020170217
201702170010000700000000000000002490000000000000000024908000000000020254114376Dantur Ramiro Luis            000000000020184000000000000000000000000000000000000000000000000000000000000000000000000000000000000000000000000000000000PES00010000001000000000000000020170217
201702170060000700000000000000000651000000000000000006518000000000020000000001Consumidor Final              000000000067023000000000000000000000000000000000000000000000000000000000000000000000000000000000000000000000000000000000PES00010000001000000000000000020170217
201702170060000700000000000000000652000000000000000006528000000000020000000001Consumidor Final              000000000038704000000000000000000000000000000000000000000000000000000000000000000000000000000000000000000000000000000000PES00010000001000000000000000020170217
201702170060000700000000000000000653000000000000000006538000000000020000000001Consumidor Final              000000000010035000000000000000000000000000000000000000000000000000000000000000000000000000000000000000000000000000000000PES00010000001000000000000000020170217
201702170060000700000000000000000654000000000000000006548000000000020000000001Consumidor Final              000000000020506000000000000000000000000000000000000000000000000000000000000000000000000000000000000000000000000000000000PES00010000001000000000000000020170217
201702170060000700000000000000000655000000000000000006558000000000020000000001Consumidor Final              000000000029925000000000000000000000000000000000000000000000000000000000000000000000000000000000000000000000000000000000PES00010000001000000000000000020170217
201702170060000700000000000000000656000000000000000006568000000000030712399569Colegio  Sagrado Corazon      000000000179792000000000000000000000000000000000000000000000000000000000000000000000000000000000000000000000000000000000PES00010000001000000000000000020170217
201702170060000700000000000000000657000000000000000006578000000000030712399569Colegio  Sagrado Corazon      000000000032300000000000000000000000000000000000000000000000000000000000000000000000000000000000000000000000000000000000PES00010000001000000000000000020170217
201702170060000700000000000000000658000000000000000006588000000000020000000001Consumidor Final              000000000253042000000000000000000000000000000000000000000000000000000000000000000000000000000000000000000000000000000000PES00010000001000000000000000020170217
201702170060000700000000000000000659000000000000000006598000000000020000000001Consumidor Final              000000000180181000000000000000000000000000000000000000000000000000000000000000000000000000000000000000000000000000000000PES00010000001000000000000000020170217
201702170060000700000000000000000660000000000000000006608000000000020000000001Consumidor Final              000000000087091000000000000000000000000000000000000000000000000000000000000000000000000000000000000000000000000000000000PES00010000001000000000000000020170217
201702170060000700000000000000000661000000000000000006618000000000020000000001Consumidor Final              000000000004071000000000000000000000000000000000000000000000000000000000000000000000000000000000000000000000000000000000PES00010000001000000000000000020170217
201702170060000700000000000000000662000000000000000006628000000000020000000001Consumidor Final              000000000009000000000000000000000000000000000000000000000000000000000000000000000000000000000000000000000000000000000000PES00010000001000000000000000020170217
201702170060000700000000000000000663000000000000000006638000000000030712399569Colegio  Sagrado Corazon      000000000144007000000000000000000000000000000000000000000000000000000000000000000000000000000000000000000000000000000000PES00010000001000000000000000020170217
201702170060000700000000000000000664000000000000000006648000000000020000000001Consumidor Final              000000000030500000000000000000000000000000000000000000000000000000000000000000000000000000000000000000000000000000000000PES00010000001000000000000000020170217
201702170060000700000000000000000665000000000000000006658000000000020000000001Consumidor Final              000000000009562000000000000000000000000000000000000000000000000000000000000000000000000000000000000000000000000000000000PES00010000001000000000000000020170217
201702170060000700000000000000000666000000000000000006668000000000020000000001Consumidor Final              000000000004505000000000000000000000000000000000000000000000000000000000000000000000000000000000000000000000000000000000PES00010000001000000000000000020170217
201702170060000700000000000000000667000000000000000006678000000000020000000001Consumidor Final              000000000017444000000000000000000000000000000000000000000000000000000000000000000000000000000000000000000000000000000000PES00010000001000000000000000020170217
201702170060000700000000000000000668000000000000000006688000000000020000000001Consumidor Final              000000000005204000000000000000000000000000000000000000000000000000000000000000000000000000000000000000000000000000000000PES00010000001000000000000000020170217
201702170060000700000000000000000669000000000000000006698000000000020000000001Consumidor Final              000000000028050000000000000000000000000000000000000000000000000000000000000000000000000000000000000000000000000000000000PES00010000001000000000000000020170217
201702170060000700000000000000000670000000000000000006708000000000020000000001Consumidor Final              000000000048001000000000000000000000000000000000000000000000000000000000000000000000000000000000000000000000000000000000PES00010000001000000000000000020170217
201702180010000700000000000000002491000000000000000024918000000000020254114376Dantur Ramiro Luis            000000000007500000000000000000000000000000000000000000000000000000000000000000000000000000000000000000000000000000000000PES00010000001000000000000000020170218
201702180010000700000000000000002492000000000000000024928000000000027128447771Guida Gloria Isabel           000000000012075000000000000000000000000000000000000000000000000000000000000000000000000000000000000000000000000000000000PES00010000001000000000000000020170218
201702180010000700000000000000002493000000000000000024938000000000030514437846Alubia SA                     000000000024002000000000000000000000000000000000000000000000000000000000000000000000000000000000000000000000000000000000PES00010000001000000000000000020170218
201702180010000700000000000000002494000000000000000024948000000000030567160900Sanatorio Modelo  s.a.        000000000054005000000000000000000000000000000000000000000000000000000000000000000000000000000000000000000000000000000000PES00010000001000000000000000020170218
201702180010000700000000000000002495000000000000000024958000000000030715066056ABC Latinoamericana de Co     000000000912581000000000000000000000000000000000000000000000000000000000000000000000000000000000000000000000000000000000PES00010000001000000000000000020170218
201702180010000700000000000000002496000000000000000024968000000000030711372705Garin Juan Pedro Construc     000000000138307000000000000000000000000000000000000000000000000000000000000000000000000000000000000000000000000000000000PES00010000001000000000000000020170218
201702180010000700000000000000002497000000000000000024978000000000030650873544Tressing SRL                  000000000025840000000000000000000000000000000000000000000000000000000000000000000000000000000000000000000000000000000000PES00010000001000000000000000020170218
201702180010000700000000000000002498000000000000000024988000000000020226376276Cardos Fernando Daniel        000000000022033000000000000000000000000000000000000000000000000000000000000000000000000000000000000000000000000000000000PES00010000001000000000000000020170218
201702180010000700000000000000002499000000000000000024998000000000020162973712Benavidez Everardo G          000000000004074000000000000000000000000000000000000000000000000000000000000000000000000000000000000000000000000000000000PES00010000001000000000000000020170218
201702180060000700000000000000000671000000000000000006718000000000020000000001Consumidor Final              000000000044503000000000000000000000000000000000000000000000000000000000000000000000000000000000000000000000000000000000PES00010000001000000000000000020170218
201702180060000700000000000000000672000000000000000006728000000000030712399569Colegio  Sagrado Corazon      000000000047008000000000000000000000000000000000000000000000000000000000000000000000000000000000000000000000000000000000PES00010000001000000000000000020170218
201702180060000700000000000000000673000000000000000006738000000000020000000001Consumidor Final              000000000019100000000000000000000000000000000000000000000000000000000000000000000000000000000000000000000000000000000000PES00010000001000000000000000020170218
201702180060000700000000000000000674000000000000000006748000000000030712399569Colegio  Sagrado Corazon      000000000003024000000000000000000000000000000000000000000000000000000000000000000000000000000000000000000000000000000000PES00010000001000000000000000020170218
201702180060000700000000000000000675000000000000000006758000000000020000000001Consumidor Final              000000000009020000000000000000000000000000000000000000000000000000000000000000000000000000000000000000000000000000000000PES00010000001000000000000000020170218
201702180060000700000000000000000676000000000000000006768000000000020000000001Consumidor Final              000000000004300000000000000000000000000000000000000000000000000000000000000000000000000000000000000000000000000000000000PES00010000001000000000000000020170218
201702180060000700000000000000000677000000000000000006778000000000020000000001Consumidor Final              000000000002001000000000000000000000000000000000000000000000000000000000000000000000000000000000000000000000000000000000PES00010000001000000000000000020170218
201702180060000700000000000000000678000000000000000006788000000000020000000001Consumidor Final              000000000011050000000000000000000000000000000000000000000000000000000000000000000000000000000000000000000000000000000000PES00010000001000000000000000020170218
201702180060000700000000000000000679000000000000000006798000000000020000000001Consumidor Final              000000000001221000000000000000000000000000000000000000000000000000000000000000000000000000000000000000000000000000000000PES00010000001000000000000000020170218
201702180060000700000000000000000680000000000000000006808000000000020000000001Consumidor Final              000000000019076000000000000000000000000000000000000000000000000000000000000000000000000000000000000000000000000000000000PES00010000001000000000000000020170218
201702180060000700000000000000000681000000000000000006818000000000020000000001Consumidor Final              000000000018004000000000000000000000000000000000000000000000000000000000000000000000000000000000000000000000000000000000PES00010000001000000000000000020170218
201702180060000700000000000000000682000000000000000006828000000000033709132879ONG Todo para Todos           000000000011004000000000000000000000000000000000000000000000000000000000000000000000000000000000000000000000000000000000PES00010000001000000000000000020170218
201702180080000700000000000000000005000000000000000000058000000000020000000001Consumidor Final              000000000009020000000000000000000000000000000000000000000000000000000000000000000000000000000000000000000000000000000000PES00010000001000000000000000020170218
201702200010000700000000000000002500000000000000000025008000000000027929338923Gimenez  Nancy                000000000050002000000000000000000000000000000000000000000000000000000000000000000000000000000000000000000000000000000000PES00010000001000000000000000020170220
201702200060000700000000000000000683000000000000000006838000000000030712399569Colegio  Sagrado Corazon      000000000096011000000000000000000000000000000000000000000000000000000000000000000000000000000000000000000000000000000000PES00010000001000000000000000020170220
201702200060000700000000000000000684000000000000000006848000000000030712399569Colegio  Sagrado Corazon      000000000260029000000000000000000000000000000000000000000000000000000000000000000000000000000000000000000000000000000000PES00010000001000000000000000020170220
201702200060000700000000000000000685000000000000000006858000000000020000000001Consumidor Final              000000000021200000000000000000000000000000000000000000000000000000000000000000000000000000000000000000000000000000000000PES00010000001000000000000000020170220
201702210010000700000000000000002501000000000000000025018000000000030710586140AG  Emprendimientos SRL       000000000008500000000000000000000000000000000000000000000000000000000000000000000000000000000000000000000000000000000000PES00010000001000000000000000020170221
201702210010000700000000000000002502000000000000000025028000000000027160805612Ingenieria Zenta SRL          000000000006993000000000000000000000000000000000000000000000000000000000000000000000000000000000000000000000000000000000PES00010000001000000000000000020170221
201702210010000700000000000000002503000000000000000025038000000000030713066407Emergencias Salta SA          000000000005801000000000000000000000000000000000000000000000000000000000000000000000000000000000000000000000000000000000PES00010000001000000000000000020170221
201702210010000700000000000000002504000000000000000025048000000000027203992144Di Pietro Cecilia Eugenia     000000000012016000000000000000000000000000000000000000000000000000000000000000000000000000000000000000000000000000000000PES00010000001000000000000000020170221
201702210010000700000000000000002505000000000000000025058000000000027929338923Gimenez  Nancy                000000000236733000000000000000000000000000000000000000000000000000000000000000000000000000000000000000000000000000000000PES00010000001000000000000000020170221
201702210010000700000000000000002506000000000000000025068000000000027929338923Gimenez  Nancy                000000000014633000000000000000000000000000000000000000000000000000000000000000000000000000000000000000000000000000000000PES00010000001000000000000000020170221
201702210010000700000000000000002507000000000000000025078000000000033710311159Pacific Trade SRL             000000000032001000000000000000000000000000000000000000000000000000000000000000000000000000000000000000000000000000000000PES00010000001000000000000000020170221
201702210010000700000000000000002508000000000000000025088000000000030711210438SRK Consulting SA             000000000009000000000000000000000000000000000000000000000000000000000000000000000000000000000000000000000000000000000000PES00010000001000000000000000020170221
201702210010000700000000000000002509000000000000000025098000000000030711210438SRK Consulting SA             000000000003000000000000000000000000000000000000000000000000000000000000000000000000000000000000000000000000000000000000PES00010000001000000000000000020170221
201702210010000700000000000000002510000000000000000025108000000000030711372705Garin Juan Pedro Construc     000000000006700000000000000000000000000000000000000000000000000000000000000000000000000000000000000000000000000000000000PES00010000001000000000000000020170221
201702210010000700000000000000002511000000000000000025118000000000027929338923Gimenez  Nancy                000000000795218000000000000000000000000000000000000000000000000000000000000000000000000000000000000000000000000000000000PES00010000001000000000000000020170221
201702210010000700000000000000002512000000000000000025128000000000027203992144Di Pietro Cecilia Eugenia     000000000006002000000000000000000000000000000000000000000000000000000000000000000000000000000000000000000000000000000000PES00010000001000000000000000020170221
201702210010000700000000000000002513000000000000000025138000000000027246971566Herrera Nelida del Carmen     000000000049000000000000000000000000000000000000000000000000000000000000000000000000000000000000000000000000000000000000PES00010000001000000000000000020170221
201702210010000700000000000000002514000000000000000025148000000000030612122756Molino Pampa Blanca SA        000000000023002000000000000000000000000000000000000000000000000000000000000000000000000000000000000000000000000000000000PES00010000001000000000000000020170221
201702210010000700000000000000002515000000000000000025158000000000030501522496Vicente Moncho Construcci     000000032000259000000000000000000000000000000000000000000000000000000000000000000000000000000000000000000000000000000000PES00010000001000000000000000020170221
201702210010000700000000000000002516000000000000000025168000000000033714324409Rojo Constructora SRL         000000010307662000000000000000000000000000000000000000000000000000000000000000000000000000000000000000000000000000000000PES00010000001000000000000000020170221
