201611300010003200000000000000002375                8000000000030710204671AUTOPERFORANTES SA            000000000367674000000000000000000000000000000000000000000000000000000000000000000000000000000000000000000000000000000000PES00010000001000000000000000000000000000000000000000000                              000000000000000
201702230020102500000000000000073590                8000000000030501199253ACINDAR INDUSTRIA ARGENTINA DE000000033568349000000000000000000000000000000000000000812137000000000000000000000000000000000000000000000000000000000000PES00010000001000000000000000000000000000000000000000000                              000000000000000
201702230020102500000000000000073591                8000000000030501199253ACINDAR INDUSTRIA ARGENTINA DE000000016693830000000000000000000000000000000000000000403883000000000000000000000000000000000000000000000000000000000000PES00010000001000000000000000000000000000000000000000000                              000000000000000
201702240010003900000000000000011813                8000000000030543749024BOLLINI SA                    000000000126006000000000000000000000000000000000000000000000000000000000000000000000003641000000000000000000000000000000PES00010000001000000000000000000000000000000000000000000                              000000000000000
201702150010000500000000000000002657                8000000000030586321389VICENTE ALBORS SA             000000005854246000000000000000000000000000000000000000000000000000000000000000000000000000000000000000000000000000000000PES00010000001000000000000000000000000000000000000000000                              000000000000000
201702240010000600000000000000011254                8000000000033521817599CERAMICA SALTE헤 SA           000000001221045000000000000000000000000000000000000000000000000000000000000000000000035279000000000000000000000000000000PES00010000001000000000000000000000000000000000000000000                              000000000000000
201702100010000600000000000000010929                8000000000033521817599CERAMICA SALTE헤 SA           000000000035953000000000000000000000000000000000000000000000000000000000000000000000001039000000000000000000000000000000PES00010000001000000000000000000000000000000000000000000                              000000000000000
201702080010000600000000000000010836                8000000000033521817599CERAMICA SALTE헤 SA           000000000666265000000000000000000000000000000000000000000000000000000000000000000000019250000000000000000000000000000000PES00010000001000000000000000000000000000000000000000000                              000000000000000
201701240010000600000000000000010532                8000000000033521817599CERAMICA SALTE헤 SA           000000000060090000000000000000000000000000000000000000000000000000000000000000000000001736000000000000000000000000000000PES00010000001000000000000000000000000000000000000000000                              000000000000000
201701180010000600000000000000010396                8000000000033521817599CERAMICA SALTE헤 SA           000000000142576000000000000000000000000000000000000000000000000000000000000000000000004119000000000000000000000000000000PES00010000001000000000000000000000000000000000000000000                              000000000000000
201702220010002100000000000000110032                8000000000030552816168DURLOCK SA                    000000014338943000000000000000000000000000000000000000000000000000000000000000000000210180000000000000000000000000000000PES00010000001000000000000000000000000000000000000000000                              000000000000000
201702220010002100000000000000110033                8000000000030552816168DURLOCK SA                    000000004557423000000000000000000000000000000000000000000000000000000000000000000000066803000000000000000000000000000000PES00010000001000000000000000000000000000000000000000000                              000000000000000
201702220010002100000000000000110034                8000000000030552816168DURLOCK SA                    000000001365300000000000000000000000000000000000000000000000000000000000000000000000020013000000000000000000000000000000PES00010000001000000000000000000000000000000000000000000                              000000000000000
201703110030002100000000000000033190                8000000000030552816168DURLOCK SA                    000000000241372000000000000000000000000000000000000000000000000000000000000000000000000000000000000000000000000000000000PES00010000001000000000000000000000000000000000000000000                              000000000000000
201703140030002100000000000000033290                8000000000030552816168DURLOCK SA                    000000000810466000000000000000000000000000000000000000000000000000000000000000000000000000000000000000000000000000000000PES00010000001000000000000000000000000000000000000000000                              000000000000000
201702240010002100000000000000110174                8000000000030552816168DURLOCK SA                    000000006456525000000000300770000000000000000000000000000000000000000000000000000000090231000000000000000000000000000000PES00010000001000000000000000000000000000000000000000000                              000000000000000
201702220010000600000000000000030702                8000000000030699408537EMPACK INC SRL                000000001024253000000000000000000000000000000000000000000000000000000000000000000000000000000000000000000000000000000000PES00010000001000000000000000000000000000000000000000000                              000000000000000
201703030010001200000000000000082311                8000000000030500971041ETERNIT ARGENTINA SA          000000006272456000000000000000000000000000000000000000147472000000000000000000000000176966000000000000000000000000000000PES00010000001000000000000000000000000000000000000000000                              000000000000000
201703030010001200000000000000082317                8000000000030500971041ETERNIT ARGENTINA SA          000000002420517000000000000000000000000000000000000000056909000000000000000000000000068291000000000000000000000000000000PES00010000001000000000000000000000000000000000000000000                              000000000000000
201703030010001200000000000000082341                8000000000030500971041ETERNIT ARGENTINA SA          000000003434328000000000000000000000000000000000000000080744000000000000000000000000096893000000000000000000000000000000PES00010000001000000000000000000000000000000000000000000                              000000000000000
201702250010000900000000000000343885                8000000000030707297154FERRETERA GENERAL PAZ SRL     000000002981868000000000000000000000000000000000000000000000000000000000000000000000000000000000000000000000000000000000PES00010000002000000000000000000000000000000000000000000                              000000000000000
201702250010000900000000011111343885                8000000000030707297154FERRETERA GENERAL PAZ SRL     000000003127895000000000000000000000000000000000000000000000000000000000000000000000000000000000000000000000000000000000PES00010000001000000000000000000000000000000000000000000                              000000000000000
201703080030001100000000000000026438                8000000000030707297154FERRETERA GENERAL PAZ SRL     000000000005547000000000000000000000000000000000000000000000000000000000000000000000000000000000000000000000000000000000PES00010000001000000000000000000000000000000000000000000                              000000000000000
201703240030000900000000000000129846                8000000000030707297154FERRETERA GENERAL PAZ SRL     000000000610423000000000000000000000000000000000000000000000000000000000000000000000000000000000000000000000000000000000PES00010000001000000000000000000000000000000000000000000                              000000000000000
201703060010000400000000000000001718                8000000000030709594148FERROXIDO SRL                 000000002767875000000000000000000000000000000000000000000000000000000000000000000000000000000000000000000000000000000000PES00010000001000000000000000000000000000000000000000000                              000000000000000
201703230010000500000000000000000783                8000000000030658472190GRAFICA SILMAC SRL            000000000275974000000000000000000000000000000000000000000000000000000000000000000000007974000000000000000000000000000000PES00010000001000000000000000000000000000000000000000000                              000000000000000
201702160010000300000000000000029616                8000000000033680021819GRAZIOLI SRL                  000000000897732000000000000000000000000000000000000000000000000000000000000000000000000000000000000000000000000000000000PES00010000001000000000000000000000000000000000000000000                              000000000000000
201701040010002300000000000000019331                8000000000030535896379IPS SAICYF                    000000000747842000000000000000000000000000000000000000000000000000000000000000000000000000000000000000000000000000000000PES00010000001000000000000000000000000000000000000000000                              000000000000000
201702230020052900000000000000005200                8000000000030500530851LOMA NEGRA CIASA              000000020903434000000020827830000000000000000000000000000000000000000000000000000000000000000000000000000000000000000000PES00010000001000000000000000000000000000000000000000000                              000000000000000
201703230010050100000000000000144839                8000000000030500530851LOMA NEGRA CIASA              000000059073413000000000000000000000000000000000000001429198000000000000000000000000000000000000000000000000000000000000PES00010000001000000000000000000000000000000000000000000                              000000000000000
201703280030050100000000000000062871                8000000000030500530851LOMA NEGRA CIASA              000000059073413000000000000000000000000000000000000001429198000000000000000000000000000000000000000000000000000000000000PES00010000001000000000000000000000000000000000000000000                              000000000000000
201703230010050100000000000000144840                8000000000030500530851LOMA NEGRA CIASA              000000008480630000000000000000000000000000000000000000205177000000000000000000000000000000000000000000000000000000000000PES00010000001000000000000000000000000000000000000000000                              000000000000000
201703280030050100000000000000062872                8000000000030500530851LOMA NEGRA CIASA              000000008480630000000000000000000000000000000000000000205177000000000000000000000000000000000000000000000000000000000000PES00010000001000000000000000000000000000000000000000000                              000000000000000
201703150010050100000000000000144420                8000000000030500530851LOMA NEGRA CIASA              000000017131458000000000000000000000000000000000000000414471000000000000000000000000000000000000000000000000000000000000PES00010000001000000000000000000000000000000000000000000                              000000000000000
201703280030050100000000000000062870                8000000000030500530851LOMA NEGRA CIASA              000000017131458000000000000000000000000000000000000000414471000000000000000000000000000000000000000000000000000000000000PES00010000001000000000000000000000000000000000000000000                              000000000000000
201703140010000300000000000000080726                8000000000030709797545M LLAO SRL                    000000000015495000000000000000000000000000000000000000000000000000000000000000000000000000000000000000000000000000000000PES00010000001000000000000000000000000000000000000000000                              000000000000000
201702140010000300000000000000004456                8000000000030714469378MAYORISTA FERRETERO SRL       000000001526029000000000000000000000000000000000000000000000000000000000000000000000000000000000000000000000000000000000PES00010000001000000000000000000000000000000000000000000                              000000000000000
201611160030000300000000000000000343                8000000000030714469378MAYORISTA FERRETERO SRL       000000000013934000000000000000000000000000000000000000000000000000000000000000000000000000000000000000000000000000000000PES00010000001000000000000000000000000000000000000000000                              000000000000000
201703100010000400000000000000010555                8000000000030710575521METALQUIMICA HIPER SA         000000001682996000000000000000000000000000000000000000000000000000000000000000000000000000000000000000000000000000000000PES00010000001000000000000000000000000000000000000000000                              000000000000000
201702240010000200000000000000000299                8000000000030714084425TRANS VEL SRL                 000000000874995000000000000000000000000000000000000000000000000000000000000000000000000000000000000000000000000000000000PES00010000001000000000000000000000000000000000000000000                              000000000000000
201702130010002000000000000000004676                8000000000030505374866PRODUCTOS VENIER SA           000000000387403000000000000000000000000000000000000000000000000000000000000000000000009677000000000000000000000000000000PES00010000001000000000000000000000000000000000000000000                              000000000000000
201702150030001200000000000000026535                8000000000030505374866PRODUCTOS VENIER SA           000000000101805000000000000000000000000000000000000000000000000000000000000000000000000000000000000000000000000000000000PES00010000001000000000000000000000000000000000000000000                              000000000000000
201702150030001200000000000000026536                8000000000030505374866PRODUCTOS VENIER SA           000000000438384000000000000000000000000000000000000000000000000000000000000000000000000000000000000000000000000000000000PES00010000001000000000000000000000000000000000000000000                              000000000000000
201701300010000200000000000000000186                8000000000027301866351ZARATE MONICA CECILIA         000000000280000000000000000000000000000000000000000000000000000000000000000000000000000000000000000000000000000000000000PES00010000001000000000000000000000000000000000000000000                              000000000000000
201703220010000300000000000000030283                8000000000033680021819GRAZIOLI SRL                  000000000486846000000000000000000000000000000000000000000000000000000000000000000000000000000000000000000000000000000000PES00010000001000000000000000000000000000000000000000000                              000000000000000
201703210010003600000000000000006598                8000000000030623573318HIERRONORT SALTA SRL          000000000314941000000000000000000000000000000000000000000000000000000000000000000000009056000000000001509000000000000000PES00010000001000000000000000000000000000000000000000000                              000000000000000
201703080010050100000000000000144052                8000000000030500530851LOMA NEGRA CIASA              000000121962337000000000000000000000000000000000000002950700000000000000000000000000000000000000000000000000000000000000PES00010000001000000000000000000000000000000000000000000                              000000000000000
201703280010050100000000000000145058                8000000000030500530851LOMA NEGRA CIASA              000000016900862000000000000000000000000000000000000000408892000000000000000000000000000000000000000000000000000000000000PES00010000001000000000000000000000000000000000000000000                              000000000000000
201703100030050100000000000000062564                8000000000030500530851LOMA NEGRA CIASA              000000009359695000000000000000000000000000000000000000000000000000000000000000000000000000000000000000000000000000000000PES00010000001000000000000000000000000000000000000000000                              000000000000000
201703220010002400000000000000005302                8000000000030681305129PROMET SRL                    000000000883348000000000000000000000000000000000000000000000000000000000000000000000010779000000000003090000000000000000PES00010000001000000000000000000000000000000000000000000                              000000000000000
201703070010000300000000000000000078                8000000000023262936449ORTIZ VICTOR HUGO             000000004066463000000000000000000000000000000000000000000000000000000000000000000000000000000000000000000000000000000000PES00010000001000000000000000000000000000000000000000000                              000000000000000
201702180010000300000000000000000072                8000000000023262936449ORTIZ VICTOR HUGO             000000003752112000000000000000000000000000000000000000000000000000000000000000000000000000000000000000000000000000000000PES00010000001000000000000000000000000000000000000000000                              000000000000000
201703170010000300000000000000000081                8000000000023262936449ORTIZ VICTOR HUGO             000000003830565000000000000000000000000000000000000000000000000000000000000000000000000000000000000000000000000000000000PES00010000001000000000000000000000000000000000000000000                              000000000000000
201701130010001100000000000000011680                8000000000030563516573SUCESORES DE ROBERTO SAMAN SRL000000000544502000000000000000000000000000000000000000000000000000000000000000000000013602000000000000000000000000000000PES00010000001000000000000000000000000000000000000000000                              000000000000000
201703170010000900000000000000132731                8000000000030709369403DIEGO O TOLEDO Y OTROS SH     000000000093000000000000000000000000000000000000000000000000000000000000000000000000000000000000000000000000000000000000PES00010000001000000000000000000000000000000000000000000                              000000000000000
201703030010551200000000000002393384                8000000000030678186445TELECOM PERSONAL SA           000000000134952000000000005270000000000000000000000000000000000000000000000000000000000000000000000000000000000000000000PES00010000001000000000000000000000000000000000000000000                              000000000000000
201701310010551200000000000002266590                8000000000030678186445TELECOM PERSONAL SA           000000000238408000000000009320000000000000000000000000000000000000000000000000000000000000000000000000000000000000000000PES00010000001000000000000000000000000000000000000000000                              000000000000000
201702190010102200000000000006082436                8000000000030573652084CABLEVISION SA                000000000071200000000000000000000000000000000000000000000000000000000000000000000000000000000000000000000000000000000000PES00010000001000000000000000000000000000000000000000000                              000000000000000
201702190010102200000000000006083259                8000000000030573652084CABLEVISION SA                000000000070608000000000001708000000000000000000000000000000000000000000000000000000000000000000000000000000000000000000PES00010000001000000000000000000000000000000000000000000                              000000000000000
201702190010102200000000000006081696                8000000000030573652084CABLEVISION SA                000000000071200000000000000000000000000000000000000000000000000000000000000000000000000000000000000000000000000000000000PES00010000001000000000000000000000000000000000000000000                              000000000000000
201702130010810400000000000016395793                8000000000030639453798TELECOM ARGENTINA SA          000000000022698000000000000000000000000000000000000000000000000000000000000000000000000000000000000000000000000000000000PES00010000001000000000000000000000000000000000000000000                              000000000000000
201702110010209300000000000006799578                8000000000030678814357TELEFONICA MOVILES ARGENTINA S000000000000809000000000000006000000000000000000000000000000000000000000000000000000000000000000000000000000000000000000PES00010000001000000000000000000000000000000000000000000                              000000000000000
201702160010010100000000000000369851                8000000000030690633635EDESA SA                      000000000068016000000000048353000000000000000000000000000000000000000000000000000000000104000000000000000000000000000000PES00010000001000000000000000000000000000000000000000000                              000000000000000
201702160010010100000000000000369846                8000000000030690633635EDESA SA                      000000000150849000000000072404000000000000000000000000000000000000000000000000000000002162000000000000000000000000000000PES00010000001000000000000000000000000000000000000000000                              000000000000000
201702240010010100000000000000375196                8000000000030690633635EDESA SA                      000000000056955000000000014988000000000000000000000000000000000000000000000000000000000148000000000000000000000000000000PES00010000001000000000000000000000000000000000000000000                              000000000000000
201702210010010100000000000000371972                8000000000030690633635EDESA SA                      000000000188358000000000015716000000000000000000000000000000000000000000000000000000004759000000000000000000000000000000PES00010000001000000000000000000000000000000000000000000                              000000000000000
201702160010010100000000000000369856                8000000000030690633635EDESA SA                      000000000110727000000000063934000000000000000000000000000000000000000000000000000000001290000000000000000000000000000000PES00010000001000000000000000000000000000000000000000000                              000000000000000
201703010010010100000000000000375648                8000000000030690633635EDESA SA                      000000000069551000000000032026000000000000000000000000000000000000000000000000000000001034000000000000000000000000000000PES00010000001000000000000000000000000000000000000000000                              000000000000000
201702230010050100000000000000143079                8000000000030500530851LOMA NEGRA CIASA              000000089320216000000000000000000000000000000000000002160972000000000000000000000000000000000000000000000000000000000000PES00010000001000000000000000000000000000000000000000000                              000000000000000
201702230010050100000000000000143080                8000000000030500530851LOMA NEGRA CIASA              000000006416526000000000000000000000000000000000000000155239000000000000000000000000000000000000000000000000000000000000PES00010000001000000000000000000000000000000000000000000                              000000000000000
201703280010050100000000000000145060                8000000000030500530851LOMA NEGRA CIASA              000000008250033000000000000000000000000000000000000000199598000000000000000000000000000000000000000000000000000000000000PES00010000001000000000000000000000000000000000000000000                              000000000000000
201703280010050100000000000000145059                8000000000030500530851LOMA NEGRA CIASA              000000058035729000000000000000000000000000000000000001404093000000000000000000000000000000000000000000000000000000000000PES00010000001000000000000000000000000000000000000000000                              000000000000000
201703310010050100000000000000145462                8000000000030500530851LOMA NEGRA CIASA              000000053910713000000000000000000000000000000000000001304294000000000000000000000000000000000000000000000000000000000000PES00010000001000000000000000000000000000000000000000000                              000000000000000
201703310010050100000000000000145463                8000000000030500530851LOMA NEGRA CIASA              000000003346010000000000000000000000000000000000000000080952000000000000000000000000000000000000000000000000000000000000PES00010000001000000000000000000000000000000000000000000                              000000000000000
201703310010050100000000000000145464                8000000000030500530851LOMA NEGRA CIASA              000000003346010000000000000000000000000000000000000000080952000000000000000000000000000000000000000000000000000000000000PES00010000001000000000000000000000000000000000000000000                              000000000000000
201703310010050100000000000000145465                8000000000030500530851LOMA NEGRA CIASA              000000012660548000000000000000000000000000000000000000306304000000000000000000000000000000000000000000000000000000000000PES00010000001000000000000000000000000000000000000000000                              000000000000000
201703210030050100000000000000062839                8000000000030500530851LOMA NEGRA CIASA              000000000337071000000000000000000000000000000000000000000000000000000000000000000000000000000000000000000000000000000000PES00010000001000000000000000000000000000000000000000000                              000000000000000
201703090010007400000000000000052849                8000000000030503037226EMAPI SA                      000000001695400000000000000000000000000000000000000000000000000000000000000000000000000000000000000000000000000000000000PES00010000001000000000000000000000000000000000000000000                              000000000000000
201703090010007400000000000000052857                8000000000030503037226EMAPI SA                      000000011046804000000000000000000000000000000000000000000000000000000000000000000000000000000000000000000000000000000000PES00010000001000000000000000000000000000000000000000000                              000000000000000
201703210010000400000000000000013582                8000000000030609285261FIJACIONES PY SA              000000001442693000000000000000000000000000000000000000000000000000000000000000000000000000000000000000000000000000000000PES00010000001000000000000000000000000000000000000000000                              000000000000000
201703100010000200000000000000000312                8000000000030714084425TRANS VEL SRL                 000000000387816000000000000000000000000000000000000000000000000000000000000000000000000000000000000000000000000000000000PES00010000001000000000000000000000000000000000000000000                              000000000000000
201703300010007100000000000000013976                8000000000030644685906SALTA PLAST POLIETILENOS SRL  000000000018535000000000000000000000000000000000000000000000000000000000000000000000000536000000000000000000000000000000PES00010000001000000000000000000000000000000000000000000                              000000000000000
