201608040010000100000000000000000037000000000000000000378000000000030711560099HOSPITAL PUBLICO MATERNO INFAN000000001935562000000000000000000000000000000000000000000000000000000000000000000000000000000000000000000000000000000000PES00010000001000000000000000020160804
201608040010000100000000000000000038000000000000000000388000000000030711560099HOSPITAL PUBLICO MATERNO INFAN000000001205352000000000000000000000000000000000000000000000000000000000000000000000000000000000000000000000000000000000PES00010000001000000000000000020160804
201608040010000100000000000000000039000000000000000000398000000000030711560099HOSPITAL PUBLICO MATERNO INFAN000000000117187000000000000000000000000000000000000000000000000000000000000000000000000000000000000000000000000000000000PES00010000001000000000000000020160804
201608220010000100000000000000000040000000000000000000408000000000030709676861HOSPITAL PRIVADO TRES CERRITOS000000001008000000000000000000000000000000000000000000000000000000000000000000000000000000000000000000000000000000000000PES00010000001000000000000000020160822
201608300010000100000000000000000041000000000000000000418000000000030709676861HOSPITAL PRIVADO TRES CERRITOS000000000190016000000000000000000000000000000000000000190016000000000000000000000000000000000000000000000000000000000000PES00010000001E00000000000000020160830
201608310010000100000000000000000042000000000000000000428000000000030714494755NEOFENIX S.R.L.               000000000822000000000000000000000000000000000000000000000000000000000000000000000000000000000000000000000000000000000000PES00010000001000000000000000020160901
201608230060000100000000000000000004000000000000000000048000000000030543364610CIRCULO MEDICO DE SALTA       000000000022087000000000000000000000000000000000000000022087000000000000000000000000000000000000000000000000000000000000PES00010000001E00000000000000020160902
201608230060000100000000000000000005000000000000000000058000000000030543364610CIRCULO MEDICO DE SALTA       000000000267782000000000000000000000000000000000000000267782000000000000000000000000000000000000000000000000000000000000PES00010000001E00000000000000020160902
