201512310010000100000000000020151204                8000000000033537186009Banco HSBC                    000000000037030000000000000000000000000000000000000000000000000000000000000000000000000000000000000000000000000000000000PES00010000001000000000000000000000000000000000000000000                              000000000000000
201512310010000100000000000201512041                8000000000033537186009Banco HSBC                    000000000000065000000000000000000000000000000000000000000000000000000000000000000000000000000000000000000000000000000000PES00010000001000000000000000000000000000000000000000000                              000000000000000
201512180010001300000000000000124796                8000000000030535896379IPS SAICYF                    000000001925835000000000000000000000000000000000000000000000000000000000000000000000000000000000000000000000000000000000PES00010000001000000000000000000000000000000000000000000                              000000000000000
201601290010006900000000000000012087                8000000000030644685906SALTA PLAST POLIETILENOS SRL  000000000018125000000000000000000000000000000000000000000000000000000000000000000000000524000000000000000000000000000000PES00010000001000000000000000000000000000000000000000000                              000000000000000
201601080010007100000000000000005166                8000000000030644685906SALTA PLAST POLIETILENOS SRL  000000000040571000000000000000000000000000000000000000000000000000000000000000000000001172000000000000000000000000000000PES00010000001000000000000000000000000000000000000000000                              000000000000000
201512310010006900000000000000011922                8000000000030644685906SALTA PLAST POLIETILENOS SRL  000000000046236000000000000000000000000000000000000000000000000000000000000000000000001336000000000000000000000000000000PES00010000001000000000000000000000000000000000000000000                              000000000000000
201601150010006900000000000000011996                8000000000030644685906SALTA PLAST POLIETILENOS SRL  000000000034705000000000000000000000000000000000000000000000000000000000000000000000001003000000000000000000000000000000PES00010000001000000000000000000000000000000000000000000                              000000000000000
201512180010006900000000000000011825                8000000000030644685906SALTA PLAST POLIETILENOS SRL  000000000025898000000000000000000000000000000000000000000000000000000000000000000000000748000000000000000000000000000000PES00010000001000000000000000000000000000000000000000000                              000000000000000
201512260010007100000000000000005017                8000000000030644685906SALTA PLAST POLIETILENOS SRL  000000000023170000000000000000000000000000000000000000000000000000000000000000000000000669000000000000000000000000000000PES00010000001000000000000000000000000000000000000000000                              000000000000000
201601220010006900000000000000012043                8000000000030644685906SALTA PLAST POLIETILENOS SRL  000000000035014000000000000000000000000000000000000000000000000000000000000000000000001012000000000000000000000000000000PES00010000001000000000000000000000000000000000000000000                              000000000000000
201601120010000600000000000000043272                8000000000030707494944PRODUCTOS QUIMICOS SALTA SRL  000000000153457000000000000000000000000000000000000000000000000000000000000000000000004434000000000000000000000000000000PES00010000001000000000000000000000000000000000000000000                              000000000000000
201601260010000600000000000000043750                8000000000030707494944PRODUCTOS QUIMICOS SALTA SRL  000000000212288000000000000000000000000000000000000000000000000000000000000000000000006134000000000000000000000000000000PES00010000001000000000000000000000000000000000000000000                              000000000000000
201601190030000600000000000000002558                8000000000030707494944PRODUCTOS QUIMICOS SALTA SRL  000000000076057000000000000000000000000000000000000000000000000000000000000000000000000000000000000000000000000000000000PES00010000001000000000000000000000000000000000000000000                              000000000000000
201601180010000600000000000000043455                8000000000030707494944PRODUCTOS QUIMICOS SALTA SRL  000000000170559000000000000000000000000000000000000000000000000000000000000000000000004928000000000000000000000000000000PES00010000001000000000000000000000000000000000000000000                              000000000000000
201601070030000600000000000000002532                8000000000030707494944PRODUCTOS QUIMICOS SALTA SRL  000000000017285000000000000000000000000000000000000000000000000000000000000000000000000000000000000000000000000000000000PES00010000001000000000000000000000000000000000000000000                              000000000000000
201601060010000600000000000000043076                8000000000030707494944PRODUCTOS QUIMICOS SALTA SRL  000000000023214000000000000000000000000000000000000000000000000000000000000000000000000000000000000000000000000000000000PES00010000001000000000000000000000000000000000000000000                              000000000000000
201601040010000600000000000000042995                8000000000030707494944PRODUCTOS QUIMICOS SALTA SRL  000000000368065000000000000000000000000000000000000000000000000000000000000000000000010634000000000000000000000000000000PES00010000001000000000000000000000000000000000000000000                              000000000000000
201512230010001000000000000000000138                8000000000030681330301ELECTRICIDAD RD SRL           000000000084258000000000000000000000000000000000000000000000000000000000000000000000000000000000000000000000000000000000PES00010000001000000000000000000000000000000000000000000                              000000000000000
201512230010001500000000000000023710                8000000000030681330301ELECTRICIDAD RD SRL           000000000112767000000000000000000000000000000000000000000000000000000000000000000000000000000000000000000000000000000000PES00010000001000000000000000000000000000000000000000000                              000000000000000
201601070010000100000000000000008744                8000000000030712434240DISTRIBUIDORA RIVERA SH       000000000248448000000000000000000000000000000000000000000000000000000000000000000000000000000000000000000000000000000000PES00010000001000000000000000000000000000000000000000000                              000000000000000
201512150010000100000000000000008622                8000000000030712434240DISTRIBUIDORA RIVERA SH       000000000124990000000000000000000000000000000000000000000000000000000000000000000000000000000000000000000000000000000000PES00010000001000000000000000000000000000000000000000000                              000000000000000
201512230010001100000000000000117365                8000000000030707407006EXTRA POWER SA                000000000866696000000000000000000000000000000000000000000000000000000000000000000000000000000000000000000000000000000000PES00010000001000000000000000000000000000000000000000000                              000000000000000
201512230010001100000000000000117364                8000000000030707407006EXTRA POWER SA                000000000717133000000000000000000000000000000000000000000000000000000000000000000000000000000000000000000000000000000000PES00010000001000000000000000000000000000000000000000000                              000000000000000
201512230010001100000000000000117366                8000000000030707407006EXTRA POWER SA                000000000157306000000000000000000000000000000000000000000000000000000000000000000000000000000000000000000000000000000000PES00010000001000000000000000000000000000000000000000000                              000000000000000
201601130010003600000000000000012001                8000000000030564066784SINTEPLAST SA                 000000000132755000000000000000000000000000000000000000003212000000000000000000000000000000000000000000000000000000000000PES00010000001000000000000000000000000000000000000000000                              000000000000000
201601130010003600000000000000012002                8000000000030564066784SINTEPLAST SA                 000000000073380000000000000000000000000000000000000000000000000000000000000000000000000000000000000000000000000000000000PES00010000001000000000000000000000000000000000000000000                              000000000000000
201601130030003600000000000000002017                8000000000030564066784SINTEPLAST SA                 000000000050132000000000000000000000000000000000000000001213000000000000000000000000000000000000000000000000000000000000PES00010000001000000000000000000000000000000000000000000                              000000000000000
201601130030003600000000000000002003                8000000000030564066784SINTEPLAST SA                 000000000063217000000000000000000000000000000000000000001529000000000000000000000000000000000000000000000000000000000000PES00010000001000000000000000000000000000000000000000000                              000000000000000
201601050010003600000000000000011886                8000000000030564066784SINTEPLAST SA                 000000000962930000000000000000000000000000000000000000023297000000000000000000000000000000000000000000000000000000000000PES00010000001000000000000000000000000000000000000000000                              000000000000000
201601070010000300000000000000027402                8000000000033680021819GRAZIOLI SRL                  000000000265290000000000000000000000000000000000000000000000000000000000000000000000000000000000000000000000000000000000PES00010000001000000000000000000000000000000000000000000                              000000000000000
201512300010000300000000000000027376                8000000000033680021819GRAZIOLI SRL                  000000000226178000000000000000000000000000000000000000000000000000000000000000000000000000000000000000000000000000000000PES00010000001000000000000000000000000000000000000000000                              000000000000000
201601130010000200000000000000006429                8000000000033647632829CARLOS FLORES SH              000000000043242000000000000000000000000000000000000000000000000000000000000000000000001249000000000000000000000000000000PES00010000001000000000000000000000000000000000000000000                              000000000000000
201601130010000200000000000000006428                8000000000033647632829CARLOS FLORES SH              000000000129572000000000000000000000000000000000000000000000000000000000000000000000003744000000000000000000000000000000PES00010000001000000000000000000000000000000000000000000                              000000000000000
201601220010000200000000000000006846                8000000000033647632829CARLOS FLORES SH              000000000043242000000000000000000000000000000000000000000000000000000000000000000000001249000000000000000000000000000000PES00010000001000000000000000000000000000000000000000000                              000000000000000
201512210010011100000000000000022485                8000000000033502734259ERPA SACIF                    000000000748669000000000000000000000000000000000000000000000000000000000000000000000000000000000000000000000000000000000PES00010000001000000000000000000000000000000000000000000                              000000000000000
201601120010011100000000000000024318                8000000000033502734259ERPA SACIF                    000000001315283000000000000000000000000000000000000000000000000000000000000000000000000000000000000000000000000000000000PES00010000001000000000000000000000000000000000000000000                              000000000000000
201601190010000500000000000000000946                8000000000030708994940ASOCIADOS DEL OESTE SRL       000000002288030000000000000000000000000000000000000000000000000000000000000000000000000000000000000000000000000000000000PES00010000001000000000000000000000000000000000000000000                              000000000000000
201601250010000200000000000000020687                8000000000030675407416FERRETERA DEL NORTE SRL       000000000539634000000000000000000000000000000000000000000000000000000000000000000000013480000000000000000000000000000000PES00010000001000000000000000000000000000000000000000000                              000000000000000
201601150010000100000000000000049866                8000000000030708904984CASELLA ELECTRICIDAD SRL      000000001261413000000000000000000000000000000000000000000000000000000000000000000000000000000000000000000000000000000000PES00010000001000000000000000000000000000000000000000000                              000000000000000
201601190010000200000000000000014513                8000000000030709517690INNOVACION COMERCIAL SRL      000000000471847000000000000000000000000000000000000000000000000000000000000000000000000000000000000000000000000000000000PES00010000001000000000000000000000000000000000000000000                              000000000000000
201601180010000400000000000000005121                8000000000030555427227HJ HERRERA SRL                000000000293163000000000000000000000000000000000000000000000000000000000000000000000007093000000000000000000000000000000PES00010000001000000000000000000000000000000000000000000                              000000000000000
201601080010000100000000000000091726                8000000000033673175789CONTAINER SRL                 000000000355703000000000000000000000000000000000000000000000000000000000000000000000000000000000000000000000000000000000PES00010000001000000000000000000000000000000000000000000                              000000000000000
201601080010000100000000000000091725                8000000000033673175789CONTAINER SRL                 000000000576646000000000000000000000000000000000000000000000000000000000000000000000000000000000000000000000000000000000PES00010000001000000000000000000000000000000000000000000                              000000000000000
201601200010000100000000000000014347                8000000000020076038636ALEJANDRO P. LAMBOIS          000000000055980000000000000000000000000000000000000000000000000000000000000000000000000000000000000000000000000000000000PES00010000001000000000000000000000000000000000000000000                              000000000000000
201601140010000500000000000000003383                8000000000030710272480IMAN SRL                      000000000071213000000000000000000000000000000000000000000000000000000000000000000000000000000000000000000000000000000000PES00010000001000000000000000000000000000000000000000000                              000000000000000
201601040010000200000000000000005132                8000000000030714099325REPCAR SRL                    000000000352599000000000000000000000000000000000000000000000000000000000000000000000000000000000000000000000000000000000PES00010000001000000000000000000000000000000000000000000                              000000000000000
201601130010000100000000000000002143                8000000000020220042279WALTER CESAR DIAZ             000000000150600000000000000000000000000000000000000000000000000000000000000000000000000000000000000000000000000000000000PES00010000001000000000000000000000000000000000000000000                              000000000000000
201512300010007200000000000000034937                8000000000030696173008TRADELOG SA                   000000000049824000000000000000000000000000000000000000000000000000000000000000000000000000000000000000000000000000000000PES00010000001000000000000000000000000000000000000000000                              000000000000000
201601140010007600000000000000000242                8000000000030696173008TRADELOG SA                   000000000036687000000000000000000000000000000000000000000000000000000000000000000000000000000000000000000000000000000000PES00010000001000000000000000000000000000000000000000000                              000000000000000
201512020010007200000000000000030547                8000000000030696173008TRADELOG SA                   000000000048579000000000000000000000000000000000000000000000000000000000000000000000000000000000000000000000000000000000PES00010000001000000000000000000000000000000000000000000                              000000000000000
201601220010007200000000000000037752                8000000000030696173008TRADELOG SA                   000000000104613000000000000000000000000000000000000000000000000000000000000000000000000000000000000000000000000000000000PES00010000001000000000000000000000000000000000000000000                              000000000000000
201601200010007200000000000000037294                8000000000030696173008TRADELOG SA                   000000000190362000000000000000000000000000000000000000000000000000000000000000000000000000000000000000000000000000000000PES00010000001000000000000000000000000000000000000000000                              000000000000000
201601140010000100000000000000011851                8000000000030710537484IMPRENTA MAESTRO SH           000000000043043000000000000000000000000000000000000000000000000000000000000000000000001243000000000000000000000000000000PES00010000001000000000000000000000000000000000000000000                              000000000000000
201601110010000700000000000000028761                8000000000030700052040BRINDAR SA                    000000000008856000000000000000000000000000000000000000000000000000000000000000000000000000000000000000000000000000000000PES00010000001000000000000000000000000000000000000000000                              000000000000000
201601220010000900000000000000002342                8000000000030712042180SANTA CRUZ SRL                000000000082800000000000000000000000000000000000000000000000000000000000000000000000000000000000000000000000000000000000PES00010000001000000000000000000000000000000000000000000                              000000000000000
201512300010000300000000000000071649                8000000000030709797545M. LLAO SRL                   000000000010503000000000000000000000000000000000000000000000000000000000000000000000000000000000000000000000000000000000PES00010000001000000000000000000000000000000000000000000                              000000000000000
201601250010000300000000000000000097                8000000000030681270317PLANTA REVERSA SRL            000000000060000000000000004050000000000000000000000000000000000000000000000000000000000000000000000000000000000000000000PES00010000001000000000000000000000000000000000000000000                              000000000000000
201601210010000600000000000000015803                8000000000030557782393AUTOADHESIVOS SA              000000001093600000000000000000000000000000000000000000000000000000000000000000000000000000000000000000000000000000000000PES00010000001000000000000000000000000000000000000000000                              000000000000000
