201610050010000700000000000000001412                8000000000020170871619KLAUK VICTOR LINDOLFO         000000000160000000000000000000000000000000000000000000000000000000000000000000000000000000000000000000000000000000000000PES00010000001000000000000000000000000000000000000000000                              000000000000000
201609160010000100000000000000017319                8000000000030707656251PORTICO CONSTRUCCIONES SA     000000000413212000000000000000000000000000000000000000000000000000000000000000000000000000000000000000000000000000000000PES00010000001000000000000000000000000000000000000000000                              000000000000000
201610060010014400000000000000004344                8000000000030559715081SUPERMAT SA                   000000000371029000000000000000000000000000000000000000000000000000000000000000000000010683000000000001276000000000000000PES00010000001000000000000000000000000000000000000000000                              000000000000000
201609070010000400000000000000011540                8000000000030711931402HIPERPLACA S.R.L              000000000063122000000000000000000000000000000000000000000000000000000000000000000000000000000000000000000000000000000000PES00010000001000000000000000000000000000000000000000000                              000000000000000
201610120010000400000000000000012039                8000000000030711931402HIPERPLACA S.R.L              000000000136484000000000000000000000000000000000000000000000000000000000000000000000000000000000000000000000000000000000PES00010000001000000000000000000000000000000000000000000                              000000000000000
201610190010000400000000000000012119                8000000000030711931402HIPERPLACA S.R.L              000000000018006000000000000000000000000000000000000000000000000000000000000000000000000000000000000000000000000000000000PES00010000001000000000000000000000000000000000000000000                              000000000000000
201610040010000400000000000000011916                8000000000030711931402HIPERPLACA S.R.L              000000000045495000000000000000000000000000000000000000000000000000000000000000000000000000000000000000000000000000000000PES00010000001000000000000000000000000000000000000000000                              000000000000000
201610130010000500000000000000000781                8000000000020164615023OTTO EDGAR DENIS              000000000270000000000000000000000000000000000000000000000000000000000000000000000000000000000000000000000000000000000000PES00010000001000000000000000000000000000000000000000000                              000000000000000
201610170010000500000000000000000789                8000000000020164615023OTTO EDGAR DENIS              000000000124000000000000000000000000000000000000000000000000000000000000000000000000000000000000000000000000000000000000PES00010000001000000000000000000000000000000000000000000                              000000000000000
201607130010011900000000000000011578                8000000000030559715081SUPERMAT SA                   000000000082740000000000000000000000000000000000000000000000000000000000000000000000002391000000000000000000000000000000PES00010000001000000000000000000000000000000000000000000                              000000000000000
201609280010011900000000000000012456                8000000000030559715081SUPERMAT SA                   000000000041238000000000000000000000000000000000000000000000000000000000000000000000001191000000000000000000000000000000PES00010000001000000000000000000000000000000000000000000                              000000000000000
201609270010010600000000000000007377                8000000000030559715081SUPERMAT SA                   000000004479006000000000000000000000000000000000000000000000000000000000000000000000081767000000000000000000000000000000PES00010000001000000000000000000000000000000000000000000                              000000000000000
201610170010010600000000000000007483                8000000000030559715081SUPERMAT SA                   000000001550561000000000000000000000000000000000000000000000000000000000000000000000028306000000000000000000000000000000PES00010000001000000000000000000000000000000000000000000                              000000000000000
201609230010000500000000000000035325                8000000000030707174389DERGAM S.R.L                  000000000024993000000000000000000000000000000000000000000000000000000000000000000000000605000000000000000000000000000000PES00010000001000000000000000000000000000000000000000000                              000000000000000
201609130010000500000000000000035120                8000000000030707174389DERGAM S.R.L                  000000000046002000000000000000000000000000000000000000000000000000000000000000000000001113000000000000000000000000000000PES00010000001000000000000000000000000000000000000000000                              000000000000000
201610140010000500000000000000035725                8000000000030707174389DERGAM S.R.L                  000000000009797000000000000000000000000000000000000000000000000000000000000000000000000237000000000000000000000000000000PES00010000001000000000000000000000000000000000000000000                              000000000000000
201610040010000400000000000000006844                8000000000020104513825MAESTRO HECTOR HORACIO        000000003760315000000000000000000000000000000000000000000000000000000000000000000000000000000000000000000000000000000000PES00010000001000000000000000000000000000000000000000000                              000000000000000
201610040010000400000000000000006846                8000000000020104513825MAESTRO HECTOR HORACIO        000000000753697000000000000000000000000000000000000000000000000000000000000000000000000000000000000000000000000000000000PES00010000001000000000000000000000000000000000000000000                              000000000000000
201610040010000400000000000000006835                8000000000020104513825MAESTRO HECTOR HORACIO        000000000168694000000000000000000000000000000000000000000000000000000000000000000000000000000000000000000000000000000000PES00010000001000000000000000000000000000000000000000000                              000000000000000
201610040010000400000000000000006832                8000000000020104513825MAESTRO HECTOR HORACIO        000000004406300000000000000000000000000000000000000000000000000000000000000000000000000000000000000000000000000000000000PES00010000002000000000000000000000000000000000000000000                              000000000000000
201610040010000400000000001111116832                8000000000020104513825MAESTRO HECTOR HORACIO        000000000391587000000000000000000000000000000000000000000000000000000000000000000000000000000000000000000000000000000000PES00010000001000000000000000000000000000000000000000000                              000000000000000
201610040010000400000000000000006834                8000000000020104513825MAESTRO HECTOR HORACIO        000000001068177000000000000000000000000000000000000000000000000000000000000000000000000000000000000000000000000000000000PES00010000001000000000000000000000000000000000000000000                              000000000000000
201610170010000700000000000000026039                8000000000030700067021TUBONOR SA                    000000001284893000000000000000000000000000000000000000000000000000000000000000000000037124000000000000000000000000000000PES00010000001000000000000000000000000000000000000000000                              000000000000000
201610170010000700000000000000026050                8000000000030700067021TUBONOR SA                    000000001110031000000000000000000000000000000000000000000000000000000000000000000000032072000000000000000000000000000000PES00010000001000000000000000000000000000000000000000000                              000000000000000
201610170010000700000000000000026049                8000000000030700067021TUBONOR SA                    000000003293197000000000000000000000000000000000000000000000000000000000000000000000095149000000000000000000000000000000PES00010000001000000000000000000000000000000000000000000                              000000000000000
201610170010000700000000000000026047                8000000000030700067021TUBONOR SA                    000000000822046000000000000000000000000000000000000000000000000000000000000000000000023751000000000000000000000000000000PES00010000001000000000000000000000000000000000000000000                              000000000000000
201610170010000700000000000000026046                8000000000030700067021TUBONOR SA                    000000002430689000000000000000000000000000000000000000000000000000000000000000000000070229000000000000000000000000000000PES00010000001000000000000000000000000000000000000000000                              000000000000000
201610170010000700000000000000026045                8000000000030700067021TUBONOR SA                    000000001456389000000000000000000000000000000000000000000000000000000000000000000000042079000000000000000000000000000000PES00010000001000000000000000000000000000000000000000000                              000000000000000
201610170010000700000000000000026044                8000000000030700067021TUBONOR SA                    000000000745987000000000000000000000000000000000000000000000000000000000000000000000021553000000000000000000000000000000PES00010000001000000000000000000000000000000000000000000                              000000000000000
201610170010000700000000000000026042                8000000000030700067021TUBONOR SA                    000000002304763000000000000000000000000000000000000000000000000000000000000000000000066590000000000000000000000000000000PES00010000001000000000000000000000000000000000000000000                              000000000000000
201610170010000700000000000000026041                8000000000030700067021TUBONOR SA                    000000002684437000000000000000000000000000000000000000000000000000000000000000000000077560000000000000000000000000000000PES00010000001000000000000000000000000000000000000000000                              000000000000000
201610170010000700000000000000026040                8000000000030700067021TUBONOR SA                    000000001268398000000000000000000000000000000000000000000000000000000000000000000000036647000000000000000000000000000000PES00010000001000000000000000000000000000000000000000000                              000000000000000
201607180030001500000000000000002358                8000000000030576374247AB CONSTRUCCIONES SRL         000000001075949000000000000000000000000000000000000000000000000000000000000000000000026031000000000000000000000000000000PES00010000001000000000000000000000000000000000000000000                              000000000000000
201609210010001000000000000000002211                8000000000030712114211ROAD PARTS SRL                000000000783112000000000000000000000000000000000000000000000000000000000000000000000000000000000000000000000000000000000PES00010000001000000000000000000000000000000000000000000                              000000000000000
201609030010001400000000000000003798                8000000000030559732830JUJUY MATERIALES SRL          000000000033499000000000000000000000000000000000000000000000000000000000000000000000000000000000000000000000000000000000PES00010000001000000000000000000000000000000000000000000                              000000000000000
201610200010615600000000000000000573                8000000000030643922157VIA BARILOCHE SA              000000000096100000000000000000000000000000000000000000000000000000000000000000000000000000000000000000000000000000000000PES00010000001000000000000000000000000000000000000000000                              000000000000000
201610050010315600000000000000000044                8000000000033711043069VIA CARGO SA                  000000000120800000000000000000000000000000000000000000000000000000000000000000000000000000000000000000000000000000000000PES00010000001000000000000000000000000000000000000000000                              000000000000000
201610110010615600000000000000000529                8000000000030643922157VIA BARILOCHE SA              000000000020000000000000000000000000000000000000000000000000000000000000000000000000000000000000000000000000000000000000PES00010000001000000000000000000000000000000000000000000                              000000000000000
201610110010615600000000000000000530                8000000000030643922157VIA BARILOCHE SA              000000000020000000000000000000000000000000000000000000000000000000000000000000000000000000000000000000000000000000000000PES00010000001000000000000000000000000000000000000000000                              000000000000000
201610110010615600000000000000000528                8000000000030643922157VIA BARILOCHE SA              000000000020000000000000000000000000000000000000000000000000000000000000000000000000000000000000000000000000000000000000PES00010000001000000000000000000000000000000000000000000                              000000000000000
201609130010000200000000000000004126                8000000000020230535591JULIO CESAR QUISPE AMANTE     000000000164000000000000000000000000000000000000000000000000000000000000000000000000000000000000000000000000000000000000PES00010000001000000000000000000000000000000000000000000                              000000000000000
201610010010000300000000000000008145                8000000000020164510906ATACO HECTOR BENITO           000000000296000000000000000000000000000000000000000000000000000000000000000000000000000000000000000000000000000000000000PES00010000001000000000000000000000000000000000000000000                              000000000000000
201609050010000100000000000000008755                8000000000033708066759LA NUEVA INDUSTRIAL SRL       000000000135927000000000000000000000000000000000000000000000000000000000000000000000003927000000000000000000000000000000PES00010000001000000000000000000000000000000000000000000                              000000000000000
201608290010000400000000000000167867                8000000000030594577341CIA PETROLERA PALPALA SRL     000000000010000000000000000642000000000000000000000000000000000000000000000000000000000000000000000000000000000000000000PES00010000001000000000000000000000000000000000000000000                              000000000000000
201608260010000400000000000000167720                8000000000030594577341CIA PETROLERA PALPALA SRL     000000000020000000000000001284000000000000000000000000000000000000000000000000000000000000000000000000000000000000000000PES00010000001000000000000000000000000000000000000000000                              000000000000000
201608160010000400000000000000167054                8000000000030594577341CIA PETROLERA PALPALA SRL     000000000010000000000000000642000000000000000000000000000000000000000000000000000000000000000000000000000000000000000000PES00010000001000000000000000000000000000000000000000000                              000000000000000
201608120010000400000000000000166899                8000000000030594577341CIA PETROLERA PALPALA SRL     000000000020000000000000001284000000000000000000000000000000000000000000000000000000000000000000000000000000000000000000PES00010000001000000000000000000000000000000000000000000                              000000000000000
201608230010000400000000000000167505                8000000000030594577341CIA PETROLERA PALPALA SRL     000000000020000000000000001284000000000000000000000000000000000000000000000000000000000000000000000000000000000000000000PES00010000001000000000000000000000000000000000000000000                              000000000000000
201608280010000400000000000000167794                8000000000030594577341CIA PETROLERA PALPALA SRL     000000000010000000000000000642000000000000000000000000000000000000000000000000000000000000000000000000000000000000000000PES00010000001000000000000000000000000000000000000000000                              000000000000000
201608310010000400000000000000168007                8000000000030594577341CIA PETROLERA PALPALA SRL     000000000010000000000000000642000000000000000000000000000000000000000000000000000000000000000000000000000000000000000000PES00010000001000000000000000000000000000000000000000000                              000000000000000
201608310010000400000000000000167986                8000000000030594577341CIA PETROLERA PALPALA SRL     000000000010000000000000000642000000000000000000000000000000000000000000000000000000000000000000000000000000000000000000PES00010000001000000000000000000000000000000000000000000                              000000000000000
201608240010000400000000000000167590                8000000000030594577341CIA PETROLERA PALPALA SRL     000000000010000000000000000642000000000000000000000000000000000000000000000000000000000000000000000000000000000000000000PES00010000001000000000000000000000000000000000000000000                              000000000000000
201608250010000400000000000000167653                8000000000030594577341CIA PETROLERA PALPALA SRL     000000000010000000000000000642000000000000000000000000000000000000000000000000000000000000000000000000000000000000000000PES00010000001000000000000000000000000000000000000000000                              000000000000000
201608220010000400000000000000167411                8000000000030594577341CIA PETROLERA PALPALA SRL     000000000010000000000000000642000000000000000000000000000000000000000000000000000000000000000000000000000000000000000000PES00010000001000000000000000000000000000000000000000000                              000000000000000
201608160010000400000000000000167068                8000000000030594577341CIA PETROLERA PALPALA SRL     000000000020000000000000001284000000000000000000000000000000000000000000000000000000000000000000000000000000000000000000PES00010000001000000000000000000000000000000000000000000                              000000000000000
201608160010000400000000000000167878                8000000000030594577341CIA PETROLERA PALPALA SRL     000000000020000000000000001284000000000000000000000000000000000000000000000000000000000000000000000000000000000000000000PES00010000001000000000000000000000000000000000000000000                              000000000000000
201608150010000400000000000000167012                8000000000030594577341CIA PETROLERA PALPALA SRL     000000000010000000000000000642000000000000000000000000000000000000000000000000000000000000000000000000000000000000000000PES00010000001000000000000000000000000000000000000000000                              000000000000000
201609050010000400000000000000168318                8000000000030594577341CIA PETROLERA PALPALA SRL     000000000013000000000000000834000000000000000000000000000000000000000000000000000000000000000000000000000000000000000000PES00010000001000000000000000000000000000000000000000000                              000000000000000
201609090010000400000000000000168610                8000000000030594577341CIA PETROLERA PALPALA SRL     000000000010000000000000000707000000000000000000000000000000000000000000000000000000000000000000000000000000000000000000PES00010000001000000000000000000000000000000000000000000                              000000000000000
201609020010000400000000000000168128                8000000000030594577341CIA PETROLERA PALPALA SRL     000000000010000000000000000642000000000000000000000000000000000000000000000000000000000000000000000000000000000000000000PES00010000001000000000000000000000000000000000000000000                              000000000000000
201609160010000400000000000000169051                8000000000030594577341CIA PETROLERA PALPALA SRL     000000000010000000000000000642000000000000000000000000000000000000000000000000000000000000000000000000000000000000000000PES00010000001000000000000000000000000000000000000000000                              000000000000000
201609030010000400000000000000168203                8000000000030594577341CIA PETROLERA PALPALA SRL     000000000010000000000000000642000000000000000000000000000000000000000000000000000000000000000000000000000000000000000000PES00010000001000000000000000000000000000000000000000000                              000000000000000
201609020010000400000000000000168159                8000000000030594577341CIA PETROLERA PALPALA SRL     000000000015000000000000000963000000000000000000000000000000000000000000000000000000000000000000000000000000000000000000PES00010000001000000000000000000000000000000000000000000                              000000000000000
201609220010002100000000000000028833                8000000000033611226689JACARANDA SA                  000000000110004000000000025849000000000000000000000000000000000000000000000000000000000000000000000000000000000000000000PES00010000001000000000000000000000000000000000000000000                              000000000000000
201610010010002100000000000000029222                8000000000033611226689JACARANDA SA                  000000000106019000000000024568000000000000000000000000000000000000000000000000000000000000000000000000000000000000000000PES00010000001000000000000000000000000000000000000000000                              000000000000000
201610080010002200000000000000079308                8000000000033611226689JACARANDA SA                  000000000098008000000000022712000000000000000000000000000000000000000000000000000000000000000000000000000000000000000000PES00010000001000000000000000000000000000000000000000000                              000000000000000
201609270010000500000000000000005040                8000000000030581011446FERRONORT SRL                 000000000151300000000000000000000000000000000000000000000000000000000000000000000000000000000000000000000000000000000000PES00010000001000000000000000000000000000000000000000000                              000000000000000
201610160010339500000000000000040557                8000000000030678774495OPERADORA DE ESTACIONES DE SER000000000120011000000000027808000000000000000000000000000000000000000000000000000000000000000000000000000000000000000000PES00010000001000000000000000000000000000000000000000000                              000000000000000
201608100010000600000000000000067458                8000000000033710656849PETRANOR SRL                  000000000050000000000000009988000000000000000000000000000000000000000000000000000000000000000000000000000000000000000000PES00010000001000000000000000000000000000000000000000000                              000000000000000
201608110010002000000000000000104938                8000000000030660848289GNC SIGMA SRL                 000000000010017000000000002084000000000000000000000000000000000000000000000000000000000000000000000000000000000000000000PES00010000001000000000000000000000000000000000000000000                              000000000000000
201608250010002000000000000000105622                8000000000030660848289GNC SIGMA SRL                 000000000010017000000000002084000000000000000000000000000000000000000000000000000000000000000000000000000000000000000000PES00010000001000000000000000000000000000000000000000000                              000000000000000
201608200010002500000000000000005912                8000000000030703656907MILENIUM SRL                  000000000050000000000000010392000000000000000000000000000000000000000000000000000000000000000000000000000000000000000000PES00010000001000000000000000000000000000000000000000000                              000000000000000
201609090010002500000000000000008101                8000000000030703656907MILENIUM SRL                  000000000029999000000000006235000000000000000000000000000000000000000000000000000000000000000000000000000000000000000000PES00010000001000000000000000000000000000000000000000000                              000000000000000
201610050010000500000000000000005351                8000000000020110815159ENRIQUE DANIEL SANSONE        000000000031501000000000000000000000000000000000000000000000000000000000000000000000000000000000000000000000000000000000PES00010000001000000000000000000000000000000000000000000                              000000000000000
201607120010000600000000000000002494                8000000000030615143193AG CHIBAN SRL                 000000001741547000000000000000000000000000000000000000000000000000000000000000000000000000000000000000000000000000000000PES00010000001000000000000000000000000000000000000000000                              000000000000000
201610040010000200000000000000000010                8000000000020239843396NOCETI DIEGO                  000000002178000000000000000000000000000000000000000000000000000000000000000000000000000000000000000000000000000000000000PES00010000001000000000000000000000000000000000000000000                              000000000000000
201607180010001500000000000000011995                8000000000030576374247AB CONSTRUCCIONES SRL         000000001073593000000000000000000000000000000000000000000000000000000000000000000000025974000000000000000000000000000000PES00010000001000000000000000000000000000000000000000000                              000000000000000
201609270030010600000000000000001780                8000000000030559715081SUPERMAT SA                   000000000412992000000000000000000000000000000000000000000000000000000000000000000000007539000000000000000000000000000000PES00010000001000000000000000000000000000000000000000000                              000000000000000
201610170030010600000000000000001810                8000000000030559715081SUPERMAT SA                   000000000111511000000000000000000000000000000000000000000000000000000000000000000000002036000000000000000000000000000000PES00010000001000000000000000000000000000000000000000000                              000000000000000
201608310010000100000000000020160801                8000000000030500008454BANCO SANTANDER RIO           000000000007865000000000000000000000000000000000000000000000000000000000000000000000000000000000000000000000000000000000PES00010000001000000000000000000000000000000000000000000                              000000000000000
201609300010000100000000000020160901                8000000000030500008454BANCO SANTANDER RIO           000000000012100000000000000000000000000000000000000000000000000000000000000000000000000000000000000000000000000000000000PES00010000001000000000000000000000000000000000000000000                              000000000000000
201609300010000100000000000020160902                8000000000030500008454BANCO SANTANDER RIO           000000000000167000000000000000000000000000000000000000000000000000000000000000000000000000000000000000000000000000000000PES00010000001000000000000000000000000000000000000000000                              000000000000000
201610250010000600000000000000000707                8000000000020072806078NOMI ABDENUR                  000000000376089000000000000000000000000000000000000000000000000000000000000000000000000000000000000000000000000000000000PES00010000001000000000000000000000000000000000000000000                              000000000000000
201610250030000600000000000000000065                8000000000020072806078NOMI ABDENUR                  000000000204759000000000000000000000000000000000000000000000000000000000000000000000000000000000000000000000000000000000PES00010000001000000000000000000000000000000000000000000                              000000000000000
201610110010001500000000000000014652                8000000000030576374247AB CONSTRUCCIONES SRL         000000000434613000000000000000000000000000000000000000000000000000000000000000000000010515000000000000000000000000000000PES00010000001000000000000000000000000000000000000000000                              000000000000000
201610110010001500000000000000014669                8000000000030576374247AB CONSTRUCCIONES SRL         000000000747068000000000000000000000000000000000000000000000000000000000000000000000018074000000000000000000000000000000PES00010000001000000000000000000000000000000000000000000                              000000000000000
201610110010001500000000000000014670                8000000000030576374247AB CONSTRUCCIONES SRL         000000000310589000000000000000000000000000000000000000000000000000000000000000000000007514000000000000000000000000000000PES00010000001000000000000000000000000000000000000000000                              000000000000000
201610280010000500000000000000035992                8000000000030707174389DERGAM S.R.L                  000000000053294000000000000000000000000000000000000000000000000000000000000000000000001289000000000000000000000000000000PES00010000001000000000000000000000000000000000000000000                              000000000000000
201610220010002700000000000000009982                8000000000030557717400FERTEL S.A                    000000000192999000000000000000000000000000000000000000000000000000000000000000000000005577000000000000000000000000000000PES00010000001000000000000000000000000000000000000000000                              000000000000000
201610250010002700000000000000010019                8000000000030557717400FERTEL S.A                    000000000222503000000000000000000000000000000000000000000000000000000000000000000000006428000000000000000000000000000000PES00010000001000000000000000000000000000000000000000000                              000000000000000
201610220010002100000000000000029970                8000000000033611226689JACARANDA S.A                 000000000113014000000000026189000000000000000000000000000000000000000000000000000000000000000000000000000000000000000000PES00010000001000000000000000000000000000000000000000000                              000000000000000
201610290010002100000000000000030334                8000000000033611226689JACARANDA S.A                 000000000115004000000000026650000000000000000000000000000000000000000000000000000000000000000000000000000000000000000000PES00010000001000000000000000000000000000000000000000000                              000000000000000
201610260010001700000000000000005622                8000000000030707746188MAGNETO S.R.L                 000000000084012000000000019519000000000000000000000000000000000000000000000000000000000000000000000000000000000000000000PES00010000001000000000000000000000000000000000000000000                              000000000000000
