201605010010000400000000000000000604000000000000000006048000000000030557717400FERTEL S A                    000000000026000000000000000000000000000000000000000000000000000000000000000000000000000000000000000000000000000000000000PES00010000001000000000000000000000000
201605020010000400000000000000000605000000000000000006058000000000030700087227ALUJA SRL                     000000000006500000000000000000000000000000000000000000000000000000000000000000000000000000000000000000000000000000000000PES00010000001000000000000000000000000
201605020010000400000000000000000606000000000000000006068000000000020141766350ASTUDILLO CESAR ALEJANDRO     000000000003801000000000000000000000000000000000000000000000000000000000000000000000000000000000000000000000000000000000PES00010000001000000000000000000000000
201605020010000400000000000000000607000000000000000006078000000000033714361339ERG NORANDINA S.R.L.          000000000010001000000000000000000000000000000000000000000000000000000000000000000000000000000000000000000000000000000000PES00010000001000000000000000000000000
201605030010000400000000000000000608000000000000000006088000000000027133469856ELIAS CLAUDIA ELENA           000000000004000000000000000000000000000000000000000000000000000000000000000000000000000000000000000000000000000000000000PES00010000001000000000000000000000000
201605030010000400000000000000000609000000000000000006098000000000030669713408STAR SERVICIOS EMPRESARIOS SA.000000000012000000000000000000000000000000000000000000000000000000000000000000000000000000000000000000000000000000000000PES00010000001000000000000000000000000
201605030010000400000000000000000610000000000000000006108000000000020048934146PRINA ENRIQUE JOSE            000000000005800000000000000000000000000000000000000000000000000000000000000000000000000000000000000000000000000000000000PES00010000001000000000000000000000000
201605030010000400000000000000000611000000000000000006118000000000030714472549INGENIERIA EN SOLUCIONES S.R.L000000000026500000000000000000000000000000000000000000000000000000000000000000000000000000000000000000000000000000000000PES00010000001000000000000000000000000
201605030060000400000000000000000200000000000000000002008000000000030999256267MINISTERIO DE EDUCACION CIENCI000000000003000000000000000000000000000000000000000000000000000000000000000000000000000000000000000000000000000000000000PES00010000001000000000000000000000000
201605030010000400000000000000000612000000000000000006128000000000030710160305MAFEL PRODUCCIONES S.R.L.     000000000004500000000000000000000000000000000000000000000000000000000000000000000000000000000000000000000000000000000000PES00010000001000000000000000000000000
201605040080000400000000000000000003000000000000000000038000000000030999263158MINISTERIO  DE SALUD PUBLICA D000000000060100000000000000000000000000000000000000000000000000000000000000000000000000000000000000000000000000000000000PES00010000001000000000000000000000000
201605040060000400000000000000000201000000000000000002018000000000030999263158MINISTERIO  DE SALUD PUBLICA D000000000060100000000000000000000000000000000000000000000000000000000000000000000000000000000000000000000000000000000000PES00010000001000000000000000000000000
201605040010000400000000000000000613000000000000000006138000000000020076369446FRIAS CARLOS BERNARDO         000000000028012000000000000000000000000000000000000000000000000000000000000000000000000000000000000000000000000000000000PES00010000001000000000000000000000000
201605040010000400000000000000000614000000000000000006148000000000030707952853ELITE SECURITY GROUP S.R.L.   000000000005401000000000000000000000000000000000000000000000000000000000000000000000000000000000000000000000000000000000PES00010000001000000000000000000000000
201605040060000400000000000000000202000000000000000002028000000000030999263158MINISTERIO  DE SALUD PUBLICA D000000000019800000000000000000000000000000000000000000000000000000000000000000000000000000000000000000000000000000000000PES00010000001000000000000000000000000
201605040010000400000000000000000615000000000000000006158000000000030546221314LA VELOZ DEL NORTE S A        000000000898002000000000000000000000000000000000000000000000000000000000000000000000000000000000000000000000000000000000PES00010000001000000000000000020160504
201605050030000400000000000000000003000000000000000000038000000000030546221314LA VELOZ DEL NORTE S A        000000000898002000000000000000000000000000000000000000000000000000000000000000000000000000000000000000000000000000000000PES00010000001000000000000000020160505
201605050010000400000000000000000616000000000000000006168000000000027126802159IBANES GLADYS BEATRIZ         000000000009999000000000000000000000000000000000000000000000000000000000000000000000000000000000000000000000000000000000PES00010000001000000000000000000000000
201605050010000400000000000000000617000000000000000006178000000000030710228562LOS LAZOS NEGOCIOS AGROPECUARI000000000015000000000000000000000000000000000000000000000000000000000000000000000000000000000000000000000000000000000000PES00010000001000000000000000000000000
201605060060000400000000000000000203000000000000000002038000000000030999256267MINISTERIO DE EDUCACION CIENCI000000000014000000000000000000000000000000000000000000000000000000000000000000000000000000000000000000000000000000000000PES00010000001000000000000000000000000
201605070010000400000000000000000618000000000000000006188000000000030593929961PARQUE LIMACHE S A            000000000009317000000000000000000000000000000000000000000000000000000000000000000000000000000000000000000000000000000000PES00010000001000000000000000000000000
201605070060000400000000000000000204000000000000000002048000000000030999284651POLICIA DE LA PROVINCIA DE SAL000000000004900000000000000000000000000000000000000000000000000000000000000000000000000000000000000000000000000000000000PES00010000001000000000000000000000000
201605070010000400000000000000000619000000000000000006198000000000020233166503COLLADO VICTOR MANUE L        000000000016402000000000000000000000000000000000000000000000000000000000000000000000000000000000000000000000000000000000PES00010000001000000000000000000000000
201605070010000400000000000000000620000000000000000006208000000000030525746182EL CONDOR S A                 000000000036999000000000000000000000000000000000000000000000000000000000000000000000000000000000000000000000000000000000PES00010000001000000000000000000000000
201605080010000400000000000000000621000000000000000006218000000000030714652059YANAY SRL                     000000000013599000000000000000000000000000000000000000000000000000000000000000000000000000000000000000000000000000000000PES00010000001000000000000000000000000
201605090010000400000000000000000622000000000000000006228000000000020204451371ROMERO HECTOR FABIAN          000000000010001000000000000000000000000000000000000000000000000000000000000000000000000000000000000000000000000000000000PES00010000001000000000000000000000000
201605090010000400000000000000000623000000000000000006238000000000030714458503FUNDACION MINNESOTA           000000000042713000000000000000000000000000000000000000000000000000000000000000000000000000000000000000000000000000000000PES00010000001000000000000000000000000
201605090060000400000000000000000205000000000000000002058000000000030714458503FUNDACION MINNESOTA           000000000042600000000000000000000000000000000000000000000000000000000000000000000000000000000000000000000000000000000000PES00010000001000000000000000000000000
201605090010000400000000000000000624000000000000000006248000000000030663005843MAXICONSUMO S A               000000000018999000000000000000000000000000000000000000000000000000000000000000000000000000000000000000000000000000000000PES00010000001000000000000000000000000
201605090010000400000000000000000625000000000000000006258000000000030663005843MAXICONSUMO S A               000000000011000000000000000000000000000000000000000000000000000000000000000000000000000000000000000000000000000000000000PES00010000001000000000000000000000000
201605090060000400000000000000000206000000000000000002068000000000020292769130REYNAGA FRANCISCO WALTER      000000000012700000000000000000000000000000000000000000000000000000000000000000000000000000000000000000000000000000000000PES00010000001000000000000000000000000
201605100010000400000000000000000626000000000000000006268000000000030714209961KAIZEN INGENIERIA S.R.L.      000000000020000000000000000000000000000000000000000000000000000000000000000000000000000000000000000000000000000000000000PES00010000001000000000000000000000000
201605100010000400000000000000000627000000000000000006278000000000030714472549INGENIERIA EN SOLUCIONES S.R.L000000000008500000000000000000000000000000000000000000000000000000000000000000000000000000000000000000000000000000000000PES00010000001000000000000000000000000
201605100010000400000000000000000628000000000000000006288000000000030700041197LAS CORTES SRL                000000000004000000000000000000000000000000000000000000000000000000000000000000000000000000000000000000000000000000000000PES00010000001000000000000000000000000
201605100010000400000000000000000629000000000000000006298000000000020065604931GHILARDOTTI GUSTAVO ADOLFO    000000000010901000000000000000000000000000000000000000000000000000000000000000000000000000000000000000000000000000000000PES00010000001000000000000000000000000
201605100010000400000000000000000630000000000000000006308000000000030710345992PRODUCTOS ALIMENTICIOS SOFIA S000000000006200000000000000000000000000000000000000000000000000000000000000000000000000000000000000000000000000000000000PES00010000001000000000000000000000000
201605100060000400000000000000000207000000000000000002078000000000030999256267MINISTERIO DE EDUCACION CIENCI000000000010000000000000000000000000000000000000000000000000000000000000000000000000000000000000000000000000000000000000PES00010000001000000000000000000000000
201605110010000400000000000000000631000000000000000006318000000000030707474307CREW LIVE S.A.                000000000005000000000000000000000000000000000000000000000000000000000000000000000000000000000000000000000000000000000000PES00010000001000000000000000000000000
201605110010000400000000000000000632000000000000000006328000000000030713209704C Y S CONCEPTOS Y SERVICIOS SR000000000010600000000000000000000000000000000000000000000000000000000000000000000000000000000000000000000000000000000000PES00010000001000000000000000000000000
201605110010000400000000000000000633000000000000000006338000000000030713209704C Y S CONCEPTOS Y SERVICIOS SR000000000010600000000000000000000000000000000000000000000000000000000000000000000000000000000000000000000000000000000000PES00010000001000000000000000000000000
201605120010000400000000000000000634000000000000000006348000000000020065604931GHILARDOTTI GUSTAVO ADOLFO    000000000008598000000000000000000000000000000000000000000000000000000000000000000000000000000000000000000000000000000000PES00010000001000000000000000000000000
201605120010000400000000000000000635000000000000000006358000000000030709865540NONIDEM S.A.                  000000000019500000000000000000000000000000000000000000000000000000000000000000000000000000000000000000000000000000000000PES00010000001000000000000000000000000
201605120010000400000000000000000636000000000000000006368000000000033634687829INGHEHCO S A                  000000000008001000000000000000000000000000000000000000000000000000000000000000000000000000000000000000000000000000000000PES00010000001000000000000000000000000
201605120010000400000000000000000637000000000000000006378000000000030673110823MEDICAL CARE S R L            000000000031823000000000000000000000000000000000000000000000000000000000000000000000000000000000000000000000000000000000PES00010000001000000000000000000000000
201605130010000400000000000000000638000000000000000006388000000000020104120084DOMINGUEZ JOSE ALFREDO        000000000019200000000000000000000000000000000000000000000000000000000000000000000000000000000000000000000000000000000000PES00010000001000000000000000000000000
201605130010000400000000000000000639000000000000000006398000000000030711781761CONDOMINIO ASSONOV            000000000002999000000000000000000000000000000000000000000000000000000000000000000000000000000000000000000000000000000000PES00010000001000000000000000000000000
201605130010000400000000000000000640000000000000000006408000000000027118180165TORRICO MARIA PORFIDIA        000000000014200000000000000000000000000000000000000000000000000000000000000000000000000000000000000000000000000000000000PES00010000001000000000000000000000000
201605140010000400000000000000000641000000000000000006418000000000027293344693ROMERO MARIA FERNANDA         000000000014000000000000000000000000000000000000000000000000000000000000000000000000000000000000000000000000000000000000PES00010000001000000000000000000000000
201605140010000400000000000000000642000000000000000006428000000000030707828001LIHUE TUE  S. A.              000000000080000000000000000000000000000000000000000000000000000000000000000000000000000000000000000000000000000000000000PES00010000001000000000000000000000000
201605140010000400000000000000000643000000000000000006438000000000030700087227ALUJA SRL                     000000000004000000000000000000000000000000000000000000000000000000000000000000000000000000000000000000000000000000000000PES00010000001000000000000000000000000
201605140010000400000000000000000644000000000000000006448000000000020076369446FRIAS CARLOS BERNARDO         000000000008001000000000000000000000000000000000000000000000000000000000000000000000000000000000000000000000000000000000PES00010000001000000000000000000000000
201605140010000400000000000000000645000000000000000006458000000000027293344693ROMERO MARIA FERNANDA         000000000005400000000000000000000000000000000000000000000000000000000000000000000000000000000000000000000000000000000000PES00010000001000000000000000000000000
201605150010000400000000000000000646000000000000000006468000000000020163832004BUHLER CARLOS ALEJANDRO       000000000051800000000000000000000000000000000000000000000000000000000000000000000000000000000000000000000000000000000000PES00010000001000000000000000000000000
201605160010000400000000000000000647000000000000000006478000000000024182306904ZAMBRANO VIDELA MARIA SILVIA  000000000025501000000000000000000000000000000000000000000000000000000000000000000000000000000000000000000000000000000000PES00010000001000000000000000000000000
201605160010000400000000000000000648000000000000000006488000000000030593929961PARQUE LIMACHE S A            000000000006500000000000000000000000000000000000000000000000000000000000000000000000000000000000000000000000000000000000PES00010000001000000000000000000000000
201605170010000400000000000000000649000000000000000006498000000000030661919406EMPRESA DE TRANSPORTE DE ENERG000000000002251000000000000000000000000000000000000000000000000000000000000000000000000000000000000000000000000000000000PES00010000001000000000000000000000000
201605180010000400000000000000000650000000000000000006508000000000030632182712NUTREFEED S A                 000000000040000000000000000000000000000000000000000000000000000000000000000000000000000000000000000000000000000000000000PES00010000001000000000000000000000000
201605180010000400000000000000000651000000000000000006518000000000020147086912GASPARINI MAURO ALEJANDRO     000000000026500000000000000000000000000000000000000000000000000000000000000000000000000000000000000000000000000000000000PES00010000001000000000000000000000000
201605180060000400000000000000000208000000000000000002088000000000030999263158MINISTERIO  DE SALUD PUBLICA D000000000030000000000000000000000000000000000000000000000000000000000000000000000000000000000000000000000000000000000000PES00010000001000000000000000000000000
201605180010000400000000000000000652000000000000000006528000000000030681267006SOL DEL VALLE S R L           000000000012401000000000000000000000000000000000000000000000000000000000000000000000000000000000000000000000000000000000PES00010000001000000000000000000000000
201605180010000400000000000000000653000000000000000006538000000000030707938338SANATORIO SAN ROQUE S.A.      000000000000500000000000000000000000000000000000000000000000000000000000000000000000000000000000000000000000000000000000PES00010000001000000000000000000000000
201605200060000400000000000000000209000000000000000002098000000000030999275091DIRECCION DE ADMINISTRACION - 000000000007080000000000000000000000000000000000000000000000000000000000000000000000000000000000000000000000000000000000PES00010000001000000000000000000000000
201605200060000400000000000000000210000000000000000002108000000000030999256267MINISTERIO DE EDUCACION CIENCI000000000006800000000000000000000000000000000000000000000000000000000000000000000000000000000000000000000000000000000000PES00010000001000000000000000000000000
201605200030000400000000000000000004000000000000000000048000000000030707828001LIHUE TUE  S. A.              000000000080000000000000000000000000000000000000000000000000000000000000000000000000000000000000000000000000000000000000PES00010000001000000000000000000000000
201605200060000400000000000000000211000000000000000002118000000000030999256267MINISTERIO DE EDUCACION CIENCI000000000010000000000000000000000000000000000000000000000000000000000000000000000000000000000000000000000000000000000000PES00010000001000000000000000000000000
201605200010000400000000000000000654000000000000000006548000000000030669713408STAR SERVICIOS EMPRESARIOS SA.000000000007998000000000000000000000000000000000000000000000000000000000000000000000000000000000000000000000000000000000PES00010000001000000000000000000000000
201605200010000400000000000000000655000000000000000006558000000000030593929961PARQUE LIMACHE S A            000000000008799000000000000000000000000000000000000000000000000000000000000000000000000000000000000000000000000000000000PES00010000001000000000000000000000000
201605200010000400000000000000000656000000000000000006568000000000020081714046BINDA VICTORIO RICARDO        000000000005300000000000000000000000000000000000000000000000000000000000000000000000000000000000000000000000000000000000PES00010000001000000000000000000000000
201605200060000400000000000000000212000000000000000002128000000000030700075520PANIFICADORA LAS 5 MARIAS  S R000000000015000000000000000000000000000000000000000000000000000000000000000000000000000000000000000000000000000000000000PES00010000001000000000000000000000000
201605200010000400000000000000000657000000000000000006578000000000020173086394VILLAGRAN COSTELLO MARCELO RAF000000000014000000000000000000000000000000000000000000000000000000000000000000000000000000000000000000000000000000000000PES00010000001000000000000000000000000
201605210010000400000000000000000658000000000000000006588000000000027309728217ORTIZ CLAUDIA AZUCENA         000000000005501000000000000000000000000000000000000000000000000000000000000000000000000000000000000000000000000000000000PES00010000001000000000000000000000000
201605210010000400000000000000000659000000000000000006598000000000027309728217ORTIZ CLAUDIA AZUCENA         000000000008702000000000000000000000000000000000000000000000000000000000000000000000000000000000000000000000000000000000PES00010000001000000000000000000000000
201605210010000400000000000000000660000000000000000006608000000000030711848874C.I.S.E.P. CONSULTORA S.R.L.  000000000005000000000000000000000000000000000000000000000000000000000000000000000000000000000000000000000000000000000000PES00010000001000000000000000000000000
201605230060000400000000000000000213000000000000000002138000000000030999256267MINISTERIO DE EDUCACION CIENCI000000000005400000000000000000000000000000000000000000000000000000000000000000000000000000000000000000000000000000000000PES00010000001000000000000000000000000
201605230010000400000000000000000661000000000000000006618000000000020352649717FERRO PODESTA HUGO DIEGO      000000000012000000000000000000000000000000000000000000000000000000000000000000000000000000000000000000000000000000000000PES00010000001000000000000000000000000
201605240010000400000000000000000662000000000000000006628000000000030663005843MAXICONSUMO S A               000000000032999000000000000000000000000000000000000000000000000000000000000000000000000000000000000000000000000000000000PES00010000001000000000000000000000000
201605260010000400000000000000000663000000000000000006638000000000030714766119PLANIAGRO FIDEICOMISO         000000000004000000000000000000000000000000000000000000000000000000000000000000000000000000000000000000000000000000000000PES00010000001000000000000000000000000
201605260010000400000000000000000664000000000000000006648000000000030714766119PLANIAGRO FIDEICOMISO         000000000016000000000000000000000000000000000000000000000000000000000000000000000000000000000000000000000000000000000000PES00010000001000000000000000000000000
201605260010000400000000000000000665000000000000000006658000000000027178604843NAZAR MARIELA VIVIAN          000000000031999000000000000000000000000000000000000000000000000000000000000000000000000000000000000000000000000000000000PES00010000001000000000000000000000000
201605260010000400000000000000000666000000000000000006668000000000030675369530EMPRENDIMIENTO RIO GRANDE SRL 000000000010001000000000000000000000000000000000000000000000000000000000000000000000000000000000000000000000000000000000PES00010000001000000000000000000000000
201605270010000400000000000000000667000000000000000006678000000000030593929961PARQUE LIMACHE S A            000000000011500000000000000000000000000000000000000000000000000000000000000000000000000000000000000000000000000000000000PES00010000001000000000000000000000000
201605270010000400000000000000000668000000000000000006688000000000030714668664GRANJA LA LINDA SRL           000000000030000000000000000000000000000000000000000000000000000000000000000000000000000000000000000000000000000000000000PES00010000001000000000000000000000000
201605270060000400000000000000000214000000000000000002148000000000030999256267MINISTERIO DE EDUCACION CIENCI000000000004000000000000000000000000000000000000000000000000000000000000000000000000000000000000000000000000000000000000PES00010000001000000000000000000000000
201605280010000400000000000000000669000000000000000006698000000000027293344693ROMERO MARIA FERNANDA         000000000024002000000000000000000000000000000000000000000000000000000000000000000000000000000000000000000000000000000000PES00010000001000000000000000000000000
201605280010000400000000000000000670000000000000000006708000000000020289022180LOPEZ FEDERICO JAVIER         000000000010064000000000000000000000000000000000000000000000000000000000000000000000000000000000000000000000000000000000PES00010000001000000000000000000000000
201605280010000400000000000000000671000000000000000006718000000000020144881983MENDEZ MIGUEL FEDERICO        000000000041801000000000000000000000000000000000000000000000000000000000000000000000000000000000000000000000000000000000PES00010000001000000000000000000000000
201605280010000400000000000000000672000000000000000006728000000000020144881983MENDEZ MIGUEL FEDERICO        000000000006000000000000000000000000000000000000000000000000000000000000000000000000000000000000000000000000000000000000PES00010000001000000000000000000000000
201605280010000400000000000000000673000000000000000006738000000000020241389937LADETTO LUCANO FEDERICO ABEL  000000000056800000000000000000000000000000000000000000000000000000000000000000000000000000000000000000000000000000000000PES00010000001000000000000000000000000
201605300010000400000000000000000674000000000000000006748000000000033711777429ECOMET S.R.L.                 000000000013801000000000000000000000000000000000000000000000000000000000000000000000000000000000000000000000000000000000PES00010000001000000000000000000000000
201605300010000400000000000000000675000000000000000006758000000000033711777429ECOMET S.R.L.                 000000000022202000000000000000000000000000000000000000000000000000000000000000000000000000000000000000000000000000000000PES00010000001000000000000000000000000
201605300010000400000000000000000676000000000000000006768000000000020121115701SPINOZZI JUAN CARLOS MARCELO  000000004500000000000000000000000000000000000000000000000000000000000000000000000000000000000000000000000000000000000000PES00010000001000000000000000000000000
201605300010000400000000000000000677000000000000000006778000000000027100052402CAPISANO GRACIELA             000000000008500000000000000000000000000000000000000000000000000000000000000000000000000000000000000000000000000000000000PES00010000001000000000000000000000000
201605300030000400000000000000000005000000000000000000058000000000020241389937LADETTO LUCANO FEDERICO ABEL  000000000056800000000000000000000000000000000000000000000000000000000000000000000000000000000000000000000000000000000000PES00010000001000000000000000000000000
201605310010000400000000000000000678000000000000000006788000000000030559715081SUPERMAT S A                  000000000011499000000000000000000000000000000000000000000000000000000000000000000000000000000000000000000000000000000000PES00010000001000000000000000000000000
201605310030000400000000000000000006000000000000000000068000000000030700041197LAS CORTES SRL                000000000004000000000000000000000000000000000000000000000000000000000000000000000000000000000000000000000000000000000000PES00010000001000000000000000000000000
201605020010000500000000000000000007000000000000000000078000000000033690685979SUMICLI ASOCIACION MUTUAL DE S000000000718498000000000000000000000000000000000000000000000000000000000000000000000000000000000000000000000000000000000PES00010000001000000000000000020160502
201605030010000500000000000000000008000000000000000000088000000000033714435529NUBICOM  S.R.L.               000000000320000000000000000000000000000000000000000000000000000000000000000000000000000000000000000000000000000000000000PES00010000001000000000000000020160503
201605040010000500000000000000000009000000000000000000098000000000030546221314LA VELOZ DEL NORTE S A        000000000898002000000000000000000000000000000000000000000000000000000000000000000000000000000000000000000000000000000000PES00010000001000000000000000020160504
201605040030000500000000000000000001000000000000000000018000000000030546221314LA VELOZ DEL NORTE S A        000000000898002000000000000000000000000000000000000000000000000000000000000000000000000000000000000000000000000000000000PES00010000001000000000000000020160504
201605050010000500000000000000000010000000000000000000108000000000030546221314LA VELOZ DEL NORTE S A        000000000898002000000000000000000000000000000000000000000000000000000000000000000000000000000000000000000000000000000000PES00010000001000000000000000020160505
201605010060000100000000000000001200000000000000000012009600000000020000000001INFORME Z                     000000000008700000000000000000000000000000000000000000000000000000000000000000000000000000000000000000000000000000000000PES00010000001000000000000000020160501
201605020060000100000000000000001201000000000000000012019600000000020000000001INFORME Z                     000000000330300000000000000000000000000000000000000000000000000000000000000000000000000000000000000000000000000000000000PES00010000001000000000000000020160502
201605030060000100000000000000001202000000000000000012029600000000020000000001INFORME Z                     000000000368510000000000000000000000000000000000000000000000000000000000000000000000000000000000000000000000000000000000PES00010000001000000000000000020160503
201605040060000100000000000000001203000000000000000012039600000000020000000001INFORME Z                     000000000500000000000000000000000000000000000000000000000000000000000000000000000000000000000000000000000000000000000000PES00010000001000000000000000020160504
201605050060000100000000000000001204000000000000000012049600000000020000000001INFORME Z                     000000000422950000000000000000000000000000000000000000000000000000000000000000000000000000000000000000000000000000000000PES00010000001000000000000000020160505
201605060060000100000000000000001205000000000000000012059600000000020000000001INFORME Z                     000000000342200000000000000000000000000000000000000000000000000000000000000000000000000000000000000000000000000000000000PES00010000001000000000000000020160506
201605070060000100000000000000001206000000000000000012069600000000020000000001INFORME Z                     000000000425200000000000000000000000000000000000000000000000000000000000000000000000000000000000000000000000000000000000PES00010000001000000000000000020160507
201605080060000100000000000000001207000000000000000012079600000000020000000001INFORME Z                     000000000118400000000000000000000000000000000000000000000000000000000000000000000000000000000000000000000000000000000000PES00010000001000000000000000020160508
201605090060000100000000000000001208000000000000000012089600000000020000000001INFORME Z                     000000000292210000000000000000000000000000000000000000000000000000000000000000000000000000000000000000000000000000000000PES00010000001000000000000000020160509
201605100060000100000000000000001209000000000000000012099600000000020000000001INFORME Z                     000000000448040000000000000000000000000000000000000000000000000000000000000000000000000000000000000000000000000000000000PES00010000001000000000000000020160510
201605110060000100000000000000001210000000000000000012109600000000020000000001INFORME Z                     000000000373600000000000000000000000000000000000000000000000000000000000000000000000000000000000000000000000000000000000PES00010000001000000000000000020160511
201605120060000100000000000000001211000000000000000012119600000000020000000001INFORME Z                     000000000298402000000000000000000000000000000000000000000000000000000000000000000000000000000000000000000000000000000000PES00010000001000000000000000020160512
201605130060000100000000000000001212000000000000000012129600000000020000000001INFORME Z                     000000000373300000000000000000000000000000000000000000000000000000000000000000000000000000000000000000000000000000000000PES00010000001000000000000000020160513
201605140060000100000000000000001213000000000000000012139600000000020000000001INFORME Z                     000000000538300000000000000000000000000000000000000000000000000000000000000000000000000000000000000000000000000000000000PES00010000001000000000000000020160514
201605150060000100000000000000001214000000000000000012149600000000020000000001INFORME Z                     000000000190501000000000000000000000000000000000000000000000000000000000000000000000000000000000000000000000000000000000PES00010000001000000000000000020160515
201605160060000100000000000000001215000000000000000012159600000000020000000001INFORME Z                     000000000382102000000000000000000000000000000000000000000000000000000000000000000000000000000000000000000000000000000000PES00010000001000000000000000020160516
201605170060000100000000000000001216000000000000000012169600000000020000000001INFORME Z                     000000000246000000000000000000000000000000000000000000000000000000000000000000000000000000000000000000000000000000000000PES00010000001000000000000000020160517
201605180060000100000000000000001217000000000000000012179600000000020000000001INFORME Z                     000000000336100000000000000000000000000000000000000000000000000000000000000000000000000000000000000000000000000000000000PES00010000001000000000000000020160518
201605190060000100000000000000001218000000000000000012189600000000020000000001INFORME Z                     000000000277500000000000000000000000000000000000000000000000000000000000000000000000000000000000000000000000000000000000PES00010000001000000000000000020160519
201605200060000100000000000000001219000000000000000012199600000000020000000001INFORME Z                     000000000324500000000000000000000000000000000000000000000000000000000000000000000000000000000000000000000000000000000000PES00010000001000000000000000020160520
201605210060000100000000000000001220000000000000000012209600000000020000000001INFORME Z                     000000000388201000000000000000000000000000000000000000000000000000000000000000000000000000000000000000000000000000000000PES00010000001000000000000000020160521
201605220060000100000000000000001221000000000000000012219600000000020000000001INFORME Z                     000000000025800000000000000000000000000000000000000000000000000000000000000000000000000000000000000000000000000000000000PES00010000001000000000000000020160522
201605230060000100000000000000001222000000000000000012229600000000020000000001INFORME Z                     000000000236822000000000000000000000000000000000000000000000000000000000000000000000000000000000000000000000000000000000PES00010000001000000000000000020160523
201605240060000100000000000000001223000000000000000012239600000000020000000001INFORME Z                     000000000340300000000000000000000000000000000000000000000000000000000000000000000000000000000000000000000000000000000000PES00010000001000000000000000020160524
201605250060000100000000000000001224000000000000000012249600000000020000000001INFORME Z                     000000000131600000000000000000000000000000000000000000000000000000000000000000000000000000000000000000000000000000000000PES00010000001000000000000000020160525
201605260060000100000000000000001225000000000000000012259600000000020000000001INFORME Z                     000000000346500000000000000000000000000000000000000000000000000000000000000000000000000000000000000000000000000000000000PES00010000001000000000000000020160526
201605270060000100000000000000001226000000000000000012269600000000020000000001INFORME Z                     000000000196300000000000000000000000000000000000000000000000000000000000000000000000000000000000000000000000000000000000PES00010000001000000000000000020160527
201605280060000100000000000000001227000000000000000012279600000000020000000001INFORME Z                     000000000324800000000000000000000000000000000000000000000000000000000000000000000000000000000000000000000000000000000000PES00010000001000000000000000020160528
201605290060000100000000000000001228000000000000000012289600000000020000000001INFORME Z                     000000000152600000000000000000000000000000000000000000000000000000000000000000000000000000000000000000000000000000000000PES00010000001000000000000000020160529
201605300060000100000000000000001229000000000000000012299600000000020000000001INFORME Z                     000000000288001000000000000000000000000000000000000000000000000000000000000000000000000000000000000000000000000000000000PES00010000001000000000000000020160530
201605310060000100000000000000001230000000000000000012309600000000020000000001INFORME Z                     000000000221100000000000000000000000000000000000000000000000000000000000000000000000000000000000000000000000000000000000PES00010000001000000000000000020160531
