201605020010000500000000000000000407000000000000000004078000000000030710564139ARGENFOOD SRL                 000000009395754000000000000000000000000000000000000000000000000000000000000000000000000000000000000000000000000000000000PES00010000001000000000000000000000000
201605020010000500000000000000000408000000000000000004088000000000030550246771ANTA DEL DORADO S A           000000000270435000000000000000000000000000000000000000000000000000000000000000000000000000000000000000000000000000000000PES00010000001000000000000000000000000
201605020010000500000000000000000409000000000000000004098000000000030505517632VICENTE TRAPANI S.A.          000000000581359000000000000000000000000000000000000000000000000000000000000000000000000000000000000000000000000000000000PES00010000001000000000000000000000000
201605020010000500000000000000000410000000000000000004108000000000033550300899SANTIAGO SAENZ S A            000000000161172000000000000000000000000000000000000000000000000000000000000000000000000000000000000000000000000000000000PES00010000001000000000000000000000000
201605020010000500000000000000000411000000000000000004118000000000030604999657FRIGORIFICO BERMEJO S.A.      000000000515245000000000000000000000000000000000000000000000000000000000000000000000000000000000000000000000000000000000PES00010000001000000000000000000000000
201605020010000500000000000000000412000000000000000004128000000000030629401888DESDELSUR S A                 000000012052410000000000000000000000000000000000000000000000000000000000000000000000000000000000000000000000000000000000PES00010000001000000000000000000000000
201605020010000500000000000000000413000000000000000004138000000000030629401888DESDELSUR S A                 000000001924686000000000000000000000000000000000000000000000000000000000000000000000000000000000000000000000000000000000PES00010000001000000000000000000000000
201605020010000500000000000000000414000000000000000004148000000000030612122756MOLINO PAMPA BLANCA SA        000000000177531000000000000000000000000000000000000000000000000000000000000000000000000000000000000000000000000000000000PES00010000001000000000000000000000000
201605020010000500000000000000000415000000000000000004158000000000030525340658BORAX ARGENTINA S A           000000002500284000000000000000000000000000000000000000000000000000000000000000000000000000000000000000000000000000000000PES00010000001000000000000000000000000
201605020010000500000000000000000416000000000000000004168000000000030707867163ESTANCIA LAS YUNGAS S.R.L.    000000000978960000000000000000000000000000000000000000000000000000000000000000000000000000000000000000000000000000000000PES00010000001000000000000000000000000
201605020010000500000000000000000417000000000000000004178000000000020258841965UGOLINI JUAN MARINO           000000000156453000000000000000000000000000000000000000000000000000000000000000000000000000000000000000000000000000000000PES00010000001000000000000000000000000
201605020010000500000000000000000418000000000000000004188000000000030710810199FRIGORIFICO QUALITA SA        000000000963353000000000000000000000000000000000000000000000000000000000000000000000000000000000000000000000000000000000PES00010000001000000000000000000000000
201605020010000500000000000000000419000000000000000004198000000000030502793175ARCOR S A I C                 000000010045827000000000000000000000000000000000000000000000000000000000000000000000000000000000000000000000000000000000PES00010000001000000000000000000000000
201605020010000500000000000000000420000000000000000004208000000000030502793175ARCOR S A I C                 000000014555214000000000000000000000000000000000000000000000000000000000000000000000000000000000000000000000000000000000PES00010000001000000000000000000000000
201605020010000500000000000000000421000000000000000004218000000000030501250305LEDESMA SOCIEDAD ANONIMA AGRIC000000016195692000000000000000000000000000000000000000000000000000000000000000000000000000000000000000000000000000000000PES00010000001000000000000000000000000
201605020030000500000000000000000026000000000000000000268000000000030612122756MOLINO PAMPA BLANCA SA        000000000177531000000000000000000000000000000000000000000000000000000000000000000000000000000000000000000000000000000000PES00010000001000000000000000000000000
201605030010000500000000000000000422000000000000000004228000000000020052646163YAÑEZ OSCAR                   000000000065695000000000000000000000000000000000000000000000000000000000000000000000000000000000000000000000000000000000PES00010000001000000000000000000000000
201605060010000500000000000000000423000000000000000004238000000000030709403121AGENCIA PROCORDOBA SOCIEDAD DE000000001083420000000000000000000000000000000000000001083420000000000000000000000000000000000000000000000000000000000000PES00010000001E00000000000000000000000
201605060030000500000000000000000027000000000000000000278000000000030710345992PRODUCTOS ALIMENTICIOS SOFIA S000000001135182000000000000000000000000000000000000000000000000000000000000000000000000000000000000000000000000000000000PES00010000001000000000000000000000000
201605060010000500000000000000000424000000000000000004248000000000030502874353ACEITERA GENERAL DEHEZA S A   000000002273493000000000000000000000000000000000000000000000000000000000000000000000000000000000000000000000000000000000PES00010000001000000000000000000000000
201605060010000500000000000000000425000000000000000004258000000000020167354409MIRANDA PABLO ALEJANDRO       000000004301274000000000000000000000000000000000000000000000000000000000000000000000000000000000000000000000000000000000PES00010000001000000000000000000000000
201605060010000500000000000000000426000000000000000004268000000000030707044426C L K SOCIEDAD ANONIMA        000000000683166000000000000000000000000000000000000000000000000000000000000000000000000000000000000000000000000000000000PES00010000001000000000000000000000000
201605090010000500000000000000000427000000000000000004278000000000030646167775METALFOR SA                   000000000026983000000000000000000000000000000000000000000000000000000000000000000000000000000000000000000000000000000000PES00010000001000000000000000000000000
201605090010000500000000000000000428000000000000000004288000000000030675251025JUAN SIGSTAD S R L            000000003802565000000000000000000000000000000000000000000000000000000000000000000000000000000000000000000000000000000000PES00010000001000000000000000000000000
201605090010000500000000000000000429000000000000000004298000000000030671864243LAURI AGROPECUARIA S A        000000000611391000000000000000000000000000000000000000000000000000000000000000000000000000000000000000000000000000000000PES00010000001000000000000000000000000
201605090010000500000000000000000430000000000000000004308000000000020256137888ARRIAGA PABLO ALEJANDRO       000000000299668000000000000000000000000000000000000000000000000000000000000000000000000000000000000000000000000000000000PES00010000001000000000000000000000000
201605090010000500000000000000000431000000000000000004318000000000020258841965UGOLINI JUAN MARINO           000000000019747000000000000000000000000000000000000000000000000000000000000000000000000000000000000000000000000000000000PES00010000001000000000000000000000000
201605100010000500000000000000000432000000000000000004328000000000030712003940FIBRAL BANDA S.R.L.           000000000602958000000000000000000000000000000000000000000000000000000000000000000000000000000000000000000000000000000000PES00010000001000000000000000000000000
201605100010000500000000000000000433000000000000000004338000000000030502793175ARCOR S A I C                 000000011964928000000000000000000000000000000000000000000000000000000000000000000000000000000000000000000000000000000000PES00010000001000000000000000000000000
201605110010000500000000000000000434000000000000000004348000000000020174344052COLQUE GERARDO MARTIN         000000001919695000000000000000000000000000000000000000000000000000000000000000000000000000000000000000000000000000000000PES00010000001000000000000000000000000
201605110010000500000000000000000435000000000000000004358000000000020174344052COLQUE GERARDO MARTIN         000000000065695000000000000000000000000000000000000000000000000000000000000000000000000000000000000000000000000000000000PES00010000001000000000000000000000000
201605110010000500000000000000000436000000000000000004368000000000030659151185HIJOS DE SALVADOR MUÑOZ SRL   000000000272008000000000000000000000000000000000000000000000000000000000000000000000000000000000000000000000000000000000PES00010000001000000000000000000000000
201605110010000500000000000000000437000000000000000004378000000000030502874353ACEITERA GENERAL DEHEZA S A   000000002142608000000000000000000000000000000000000000000000000000000000000000000000000000000000000000000000000000000000PES00010000001000000000000000000000000
201605170010000500000000000000000438000000000000000004388000000000030712039856ALIMENTOS MEDITERRANEOS S.A.  000000007399755000000000000000000000000000000000000000000000000000000000000000000000000000000000000000000000000000000000PES00010000001000000000000000000000000
201605170010000500000000000000000439000000000000000004398000000000030710175248TEJAMAX S A                   000000000192995000000000000000000000000000000000000000000000000000000000000000000000000000000000000000000000000000000000PES00010000001000000000000000000000000
201605170010000500000000000000000440000000000000000004408000000000030629401888DESDELSUR S A                 000000000734966000000000000000000000000000000000000000000000000000000000000000000000000000000000000000000000000000000000PES00010000001000000000000000000000000
201605180010000500000000000000000441000000000000000004418000000000030659151185HIJOS DE SALVADOR MUÑOZ SRL   000000000335587000000000000000000000000000000000000000000000000000000000000000000000000000000000000000000000000000000000PES00010000001000000000000000000000000
201605230010000500000000000000000442000000000000000004428000000000030711146098DOBLE A S.A.                  000000000028054000000000000000000000000000000000000000000000000000000000000000000000000000000000000000000000000000000000PES00010000001000000000000000000000000
201605270030000500000000000000000028000000000000000000288000000000020167354409MIRANDA PABLO ALEJANDRO       000000002073767000000000000000000000000000000000000000000000000000000000000000000000000000000000000000000000000000000000PES00010000001000000000000000000000000
201605270010000500000000000000000443000000000000000004438000000000020167354409MIRANDA PABLO ALEJANDRO       000000002227507000000000000000000000000000000000000000000000000000000000000000000000000000000000000000000000000000000000PES00010000001000000000000000000000000
201605270010000500000000000000000444000000000000000004448000000000020167354409MIRANDA PABLO ALEJANDRO       000000002073767000000000000000000000000000000000000000000000000000000000000000000000000000000000000000000000000000000000PES00010000001000000000000000000000000
