201608120010000200000000000000000315000000000000000003158000000000020948542782FANG FUXIANG                  000000001482369000000000000000000000000000000000000000000000000000000000000000000000000000000000000000000000000000000000PES00010000001000000000000000000000000
201608130060000200000000000000000826000000000000000008268000000000023323659079LOMBARDERO SALAS SERGIO SEBAST000000000868700000000000000000000000000000000000000000000000000000000000000000000000000000000000000000000000000000000000PES00010000001000000000000000000000000
201608130060000200000000000000000827000000000000000008278000000000023323659079LOMBARDERO SALAS SERGIO SEBAST000000001275400000000000000000000000000000000000000000000000000000000000000000000000000000000000000000000000000000000000PES00010000001000000000000000000000000
201608130060000200000000000000000828000000000000000008288000000000020179506190CARDOZO PEDRO ROBERTO         000000000779200000000000000000000000000000000000000000000000000000000000000000000000000000000000000000000000000000000000PES00010000001000000000000000000000000
201608130060000200000000000000000829000000000000000008298000000000027164404965CALA SARITA MERCEDES          000000000248100000000000000000000000000000000000000000000000000000000000000000000000000000000000000000000000000000000000PES00010000001000000000000000000000000
201608130060000200000000000000000830000000000000000008308000000000023323659079LOMBARDERO SALAS SERGIO SEBAST000000000424500000000000000000000000000000000000000000000000000000000000000000000000000000000000000000000000000000000000PES00010000001000000000000000000000000
201608130010000200000000000000000316000000000000000003168000000000020327063120ZACCA LANDOGNA GABRIEL SAID   000000000503999000000000000000000000000000000000000000000000000000000000000000000000000000000000000000000000000000000000PES00010000001000000000000000000000000
201608130060000200000000000000000831000000000000000008319600000000000021789624FURCI FERNANDO                000000000096700000000000000000000000000000000000000000000000000000000000000000000000000000000000000000000000000000000000PES00010000001000000000000000000000000
201608130060000200000000000000000832000000000000000008328000000000020179506190CARDOZO PEDRO ROBERTO         000000000318400000000000000000000000000000000000000000000000000000000000000000000000000000000000000000000000000000000000PES00010000001000000000000000000000000
201608130060000200000000000000000833000000000000000008338000000000023244535429MARINARO CARMELO              000000000416290000000000000000000000000000000000000000000000000000000000000000000000000000000000000000000000000000000000PES00010000001000000000000000000000000
201608180010000200000000000000000317000000000000000003178000000000020324550640CASTAÑO MARCELO JESUS         000000000219100000000000000000000000000000000000000000000000000000000000000000000000000000000000000000000000000000000000PES00010000001000000000000000000000000
201608180060000200000000000000000834000000000000000008348000000000023227291249LOPEZ FERNANDO JAVIER         000000000245900000000000000000000000000000000000000000000000000000000000000000000000000000000000000000000000000000000000PES00010000001000000000000000000000000
201608180060000200000000000000000835000000000000000008358000000000020258023073MOLINA CARLOS ALBERTO MARTIN  000000000348400000000000000000000000000000000000000000000000000000000000000000000000000000000000000000000000000000000000PES00010000001000000000000000000000000
201608180060000200000000000000000836000000000000000008368000000000023276998269BRIZ MARTIN HERNAN            000000000384400000000000000000000000000000000000000000000000000000000000000000000000000000000000000000000000000000000000PES00010000001000000000000000000000000
201608180060000200000000000000000837000000000000000008378000000000027280719698ROJAS DELIA VANESA            000000000322000000000000000000000000000000000000000000000000000000000000000000000000000000000000000000000000000000000000PES00010000001000000000000000000000000
201608180060000200000000000000000838000000000000000008388000000000020257614833DE LUCA ROBERTO EUGENIO       000000000251100000000000000000000000000000000000000000000000000000000000000000000000000000000000000000000000000000000000PES00010000001000000000000000000000000
201608180060000200000000000000000839000000000000000008398000000000020257614833DE LUCA ROBERTO EUGENIO       000000000550400000000000000000000000000000000000000000000000000000000000000000000000000000000000000000000000000000000000PES00010000001000000000000000000000000
201608180060000200000000000000000840000000000000000008408000000000020257614833DE LUCA ROBERTO EUGENIO       000000000683800000000000000000000000000000000000000000000000000000000000000000000000000000000000000000000000000000000000PES00010000001000000000000000000000000
201608200010000200000000000000000318000000000000000003188000000000020327063120ZACCA LANDOGNA GABRIEL SAID   000000001437480000000000000000000000000000000000000000000000000000000000000000000000000000000000000000000000000000000000PES00010000001000000000000000000000000
201608220060000200000000000000000841000000000000000008418000000000020166592799ALFARO HUMBERTO JESUS         000000000939800000000000000000000000000000000000000000000000000000000000000000000000000000000000000000000000000000000000PES00010000001000000000000000000000000
201608220060000200000000000000000842000000000000000008428000000000020257614833DE LUCA ROBERTO EUGENIO       000000000069300000000000000000000000000000000000000000000000000000000000000000000000000000000000000000000000000000000000PES00010000001000000000000000000000000
201608220060000200000000000000000843000000000000000008438000000000020257614833DE LUCA ROBERTO EUGENIO       000000000460500000000000000000000000000000000000000000000000000000000000000000000000000000000000000000000000000000000000PES00010000001000000000000000000000000
201608220060000200000000000000000844000000000000000008449600000000000021696948MAIDANA JULIO CESAR           000000000098150000000000000000000000000000000000000000000000000000000000000000000000000000000000000000000000000000000000PES00010000001000000000000000000000000
201608220060000200000000000000000845000000000000000008459600000000000021696948MAIDANA JULIO CESAR           000000000084500000000000000000000000000000000000000000000000000000000000000000000000000000000000000000000000000000000000PES00010000001000000000000000000000000
201608230060000200000000000000000846000000000000000008469600000000000021696948MAIDANA JULIO CESAR           000000000098400000000000000000000000000000000000000000000000000000000000000000000000000000000000000000000000000000000000PES00010000001000000000000000000000000
201608230060000200000000000000000847000000000000000008479600000000000021696948MAIDANA JULIO CESAR           000000000093350000000000000000000000000000000000000000000000000000000000000000000000000000000000000000000000000000000000PES00010000001000000000000000000000000
201608230060000200000000000000000848000000000000000008489600000000000021696948MAIDANA JULIO CESAR           000000000083400000000000000000000000000000000000000000000000000000000000000000000000000000000000000000000000000000000000PES00010000001000000000000000000000000
201608230060000200000000000000000849000000000000000008499600000000000021696948MAIDANA JULIO CESAR           000000000086400000000000000000000000000000000000000000000000000000000000000000000000000000000000000000000000000000000000PES00010000001000000000000000000000000
201608260060000200000000000000000850000000000000000008508000000000027164404965CALA SARITA MERCEDES          000000000151100000000000000000000000000000000000000000000000000000000000000000000000000000000000000000000000000000000000PES00010000001000000000000000000000000
201608260010000200000000000000000319000000000000000003198000000000020943503444SAYES HUMACATA VIDAL          000000000152299000000000000000000000000000000000000000000000000000000000000000000000000000000000000000000000000000000000PES00010000001000000000000000000000000
201608260060000200000000000000000851000000000000000008518000000000023227291249LOPEZ FERNANDO JAVIER         000000000224700000000000000000000000000000000000000000000000000000000000000000000000000000000000000000000000000000000000PES00010000001000000000000000000000000
201608260060000200000000000000000852000000000000000008529600000000000021696948MAIDANA JULIO CESAR           000000000078233000000000000000000000000000000000000000000000000000000000000000000000000000000000000000000000000000000000PES00010000001000000000000000000000000
201608260060000200000000000000000853000000000000000008539600000000000021696948MAIDANA JULIO CESAR           000000000096420000000000000000000000000000000000000000000000000000000000000000000000000000000000000000000000000000000000PES00010000001000000000000000000000000
201608260060000200000000000000000854000000000000000008549600000000000021696948MAIDANA JULIO CESAR           000000000051800000000000000000000000000000000000000000000000000000000000000000000000000000000000000000000000000000000000PES00010000001000000000000000000000000
201608260010000200000000000000000320000000000000000003208000000000024319006784GIMENEZ ALVARO JESUS          000000001903003000000000000000000000000000000000000000000000000000000000000000000000000000000000000000000000000000000000PES00010000001000000000000000000000000
201608260010000200000000000000000321000000000000000003218000000000024319006784GIMENEZ ALVARO JESUS          000000001574649000000000000000000000000000000000000000000000000000000000000000000000000000000000000000000000000000000000PES00010000001000000000000000000000000
201608260010000200000000000000000322000000000000000003228000000000024319006784GIMENEZ ALVARO JESUS          000000001724870000000000000000000000000000000000000000000000000000000000000000000000000000000000000000000000000000000000PES00010000001000000000000000000000000
201608270060000200000000000000000855000000000000000008558000000000027254148216RANNI ANALIA VERONICA         000000000491000000000000000000000000000000000000000000000000000000000000000000000000000000000000000000000000000000000000PES00010000001000000000000000000000000
201608270060000200000000000000000856000000000000000008568000000000023323659079LOMBARDERO SALAS SERGIO SEBAST000000000175000000000000000000000000000000000000000000000000000000000000000000000000000000000000000000000000000000000000PES00010000001000000000000000000000000
201608270060000200000000000000000857000000000000000008579600000000000021696948MAIDANA JULIO CESAR           000000000083475000000000000000000000000000000000000000000000000000000000000000000000000000000000000000000000000000000000PES00010000001000000000000000000000000
201608270060000200000000000000000858000000000000000008589600000000000021696948MAIDANA JULIO CESAR           000000000096750000000000000000000000000000000000000000000000000000000000000000000000000000000000000000000000000000000000PES00010000001000000000000000000000000
201608270060000200000000000000000859000000000000000008599600000000000021696948MAIDANA JULIO CESAR           000000000090500000000000000000000000000000000000000000000000000000000000000000000000000000000000000000000000000000000000PES00010000001000000000000000000000000
201608290060000200000000000000000860000000000000000008609600000000000021789624FURCI FERNANDO                000000000091276000000000000000000000000000000000000000000000000000000000000000000000000000000000000000000000000000000000PES00010000001000000000000000000000000
201608290060000200000000000000000861000000000000000008619600000000000032164603VAZQUEZ PABLO MIGUEL          000000000093350000000000000000000000000000000000000000000000000000000000000000000000000000000000000000000000000000000000PES00010000001000000000000000000000000
201608290060000200000000000000000862000000000000000008629600000000000033140136VAZQUEZ CLAUDIO MATIAS        000000000086400000000000000000000000000000000000000000000000000000000000000000000000000000000000000000000000000000000000PES00010000001000000000000000000000000
201608290060000200000000000000000863000000000000000008639600000000000031338746HERRERA GUSTAVO DARIO         000000000096420000000000000000000000000000000000000000000000000000000000000000000000000000000000000000000000000000000000PES00010000001000000000000000000000000
201608290060000200000000000000000864000000000000000008649600000000000032809425LOPEZ EMMANUEL RAMIRO         000000000083400000000000000000000000000000000000000000000000000000000000000000000000000000000000000000000000000000000000PES00010000001000000000000000000000000
201608290060000200000000000000000865000000000000000008659600000000000029334822YAÑEZ RAUL ALEJANDRO          000000000098150000000000000000000000000000000000000000000000000000000000000000000000000000000000000000000000000000000000PES00010000001000000000000000000000000
201608290060000200000000000000000866000000000000000008669600000000000022945490MARTINEZ MILAGRO SANDRA       000000000078233000000000000000000000000000000000000000000000000000000000000000000000000000000000000000000000000000000000PES00010000001000000000000000000000000
201608290060000200000000000000000867000000000000000008679600000000000030675667IBARRA MARIEL MERCEDES        000000000091200000000000000000000000000000000000000000000000000000000000000000000000000000000000000000000000000000000000PES00010000001000000000000000000000000
201608290060000200000000000000000868000000000000000008689600000000000033696360MAMANI JOSE MATIAS MAXIMILIANO000000000098150000000000000000000000000000000000000000000000000000000000000000000000000000000000000000000000000000000000PES00010000001000000000000000000000000
201608290060000200000000000000000869000000000000000008698000000000023323659079LOMBARDERO SALAS SERGIO SEBAST000000000761240000000000000000000000000000000000000000000000000000000000000000000000000000000000000000000000000000000000PES00010000001000000000000000000000000
201608290060000200000000000000000870000000000000000008708000000000023323659079LOMBARDERO SALAS SERGIO SEBAST000000001057940000000000000000000000000000000000000000000000000000000000000000000000000000000000000000000000000000000000PES00010000001000000000000000000000000
201608290060000200000000000000000871000000000000000008718000000000020179506190CARDOZO PEDRO ROBERTO         000000000972400000000000000000000000000000000000000000000000000000000000000000000000000000000000000000000000000000000000PES00010000001000000000000000000000000
201608290060000200000000000000000872000000000000000008728000000000027164404965CALA SARITA MERCEDES          000000000318450000000000000000000000000000000000000000000000000000000000000000000000000000000000000000000000000000000000PES00010000001000000000000000000000000
201608300060000200000000000000000873000000000000000008738000000000020257614833DE LUCA ROBERTO EUGENIO       000000000285400000000000000000000000000000000000000000000000000000000000000000000000000000000000000000000000000000000000PES00010000001000000000000000000000000
201608300060000200000000000000000874000000000000000008748000000000020257614833DE LUCA ROBERTO EUGENIO       000000000594300000000000000000000000000000000000000000000000000000000000000000000000000000000000000000000000000000000000PES00010000001000000000000000000000000
201608300060000200000000000000000875000000000000000008758000000000020326318753FRANCO MARCELO JAVIER         000000000734100000000000000000000000000000000000000000000000000000000000000000000000000000000000000000000000000000000000PES00010000001000000000000000000000000
201608300060000200000000000000000876000000000000000008768000000000020326318753FRANCO MARCELO JAVIER         000000000814600000000000000000000000000000000000000000000000000000000000000000000000000000000000000000000000000000000000PES00010000001000000000000000000000000
201608300060000200000000000000000877000000000000000008778000000000020258023073MOLINA CARLOS ALBERTO MARTIN  000000000197500000000000000000000000000000000000000000000000000000000000000000000000000000000000000000000000000000000000PES00010000001000000000000000000000000
201608300060000200000000000000000878000000000000000008788000000000023227291249LOPEZ FERNANDO JAVIER         000000000378500000000000000000000000000000000000000000000000000000000000000000000000000000000000000000000000000000000000PES00010000001000000000000000000000000
201608300060000200000000000000000879000000000000000008798000000000020326318753FRANCO MARCELO JAVIER         000000000548200000000000000000000000000000000000000000000000000000000000000000000000000000000000000000000000000000000000PES00010000001000000000000000000000000
201608300060000200000000000000000880000000000000000008808000000000020274677490DOME GUSTAVO DANIEL           000000000204000000000000000000000000000000000000000000000000000000000000000000000000000000000000000000000000000000000000PES00010000001000000000000000000000000
201608300060000200000000000000000881000000000000000008818000000000027280719698ROJAS DELIA VANESA            000000000210000000000000000000000000000000000000000000000000000000000000000000000000000000000000000000000000000000000000PES00010000001000000000000000000000000
201608300060000200000000000000000882000000000000000008828000000000020274677490DOME GUSTAVO DANIEL           000000000157400000000000000000000000000000000000000000000000000000000000000000000000000000000000000000000000000000000000PES00010000001000000000000000000000000
201608300060000200000000000000000883000000000000000008838000000000027254148216RANNI ANALIA VERONICA         000000000941500000000000000000000000000000000000000000000000000000000000000000000000000000000000000000000000000000000000PES00010000001000000000000000000000000
201608300060000200000000000000000884000000000000000008848000000000023323659079LOMBARDERO SALAS SERGIO SEBAST000000000842600000000000000000000000000000000000000000000000000000000000000000000000000000000000000000000000000000000000PES00010000001000000000000000000000000
201608300060000200000000000000000885000000000000000008859600000000000092900494VARGAS LOPEZ LOURDES          000000000095000000000000000000000000000000000000000000000000000000000000000000000000000000000000000000000000000000000000PES00010000001000000000000000000000000
201608300060000200000000000000000886000000000000000008869600000000000092900494VARGAS LOPEZ LOURDES          000000000071200000000000000000000000000000000000000000000000000000000000000000000000000000000000000000000000000000000000PES00010000001000000000000000000000000
201608300060000200000000000000000887000000000000000008878000000000020179506190CARDOZO PEDRO ROBERTO         000000000176100000000000000000000000000000000000000000000000000000000000000000000000000000000000000000000000000000000000PES00010000001000000000000000000000000
201608300060000200000000000000000888000000000000000008888000000000020213242211PORTAL SILVERIO               000000000159400000000000000000000000000000000000000000000000000000000000000000000000000000000000000000000000000000000000PES00010000001000000000000000000000000
201608300060000200000000000000000889000000000000000008898000000000020179506190CARDOZO PEDRO ROBERTO         000000000170300000000000000000000000000000000000000000000000000000000000000000000000000000000000000000000000000000000000PES00010000001000000000000000000000000
201608300060000200000000000000000890000000000000000008908000000000027280719698ROJAS DELIA VANESA            000000000224700000000000000000000000000000000000000000000000000000000000000000000000000000000000000000000000000000000000PES00010000001000000000000000000000000
201608300060000200000000000000000891000000000000000008918000000000020142984297ALEJO CARDENAS MANUEL         000000000671900000000000000000000000000000000000000000000000000000000000000000000000000000000000000000000000000000000000PES00010000001000000000000000000000000
201608300060000200000000000000000892000000000000000008928000000000027254148216RANNI ANALIA VERONICA         000000000747500000000000000000000000000000000000000000000000000000000000000000000000000000000000000000000000000000000000PES00010000001000000000000000000000000
201608300060000200000000000000000893000000000000000008938000000000027280719698ROJAS DELIA VANESA            000000000274500000000000000000000000000000000000000000000000000000000000000000000000000000000000000000000000000000000000PES00010000001000000000000000000000000
201608300060000200000000000000000894000000000000000008948000000000027306363315GUAYMAS NATALIA SOLEDAD       000000000314800000000000000000000000000000000000000000000000000000000000000000000000000000000000000000000000000000000000PES00010000001000000000000000000000000
201608310010000200000000000000000323000000000000000003238000000000020134144131PERRI MARIO SANTOS            000000003416435000000000000000000000000000000000000000000000000000000000000000000000000000000000000000000000000000000000PES00010000001000000000000000000000000
201608310010000200000000000000000324000000000000000003248000000000020134144131PERRI MARIO SANTOS            000000002420000000000000000000000000000000000000000000000000000000000000000000000000000000000000000000000000000000000000PES00010000001000000000000000020160831
201608310010000200000000000000000325000000000000000003258000000000030714860549SECORP S.R.L.                 000000005012788000000000000000000000000000000000000000000000000000000000000000000000000000000000000000000000000000000000PES00010000001000000000000000000000000
201608310010000200000000000000000326000000000000000003268000000000030714860549SECORP S.R.L.                 000000003630000000000000000000000000000000000000000000000000000000000000000000000000000000000000000000000000000000000000PES00010000001000000000000000020160831
201608310030000200000000000000000014000000000000000000148000000000020327063120ZACCA LANDOGNA GABRIEL SAID   000000001437480000000000000000000000000000000000000000000000000000000000000000000000000000000000000000000000000000000000PES00010000001000000000000000000000000
