201606020060000900000000000000000165000000000000000001659600000000000010915309APARICIO DIMAR ELEUDORO       000000000591000000000000000000000000000000000000000000000000000000000000000000000000000000000000000000000000000000000000PES00010000001000000000000000020160602
201606030010000900000000000000000035000000000000000000358000000000030708249056PRODUCTOS EL CHAPACO S.R.L.   000000000750601000000000000000000000000000000000000000000000000000000000000000000000000000000000000000000000000000000000PES00010000001000000000000000020160603
201606030010000900000000000000000036000000000000000000368000000000030708249056PRODUCTOS EL CHAPACO S.R.L.   000000000027000000000000000000000000000000000000000000000000000000000000000000000000000000000000000000000000000000000000PES00010000001000000000000000020160603
201606070060000900000000000000000166000000000000000001669600000000000032534946QUIROGA ROCIO YANINA          000000000676574000000000648574000000000000000000000000000000000000000000000000000000000000000000000000000000000000000000PES00010000001000000000000000020160607
201606070060000900000000000000000167000000000000000001679600000000000010667687FLORES ALICIA                 000000001368699000000001340699000000000000000000000000000000000000000000000000000000000000000000000000000000000000000000PES00010000001000000000000000020160607
201606090010000900000000000000000037000000000000000000378000000000020217769923ZALAZAR MARCIAL ARGENTINO     000000000034600000000000000000000000000000000000000000000000000000000000000000000000000000000000000000000000000000000000PES00010000001000000000000000020160609
201606100060000900000000000000000168000000000000000001689600000000000023271646MERCADO JOSE RAFAEL           000000000511550000000000486550000000000000000000000000000000000000000000000000000000000000000000000000000000000000000000PES00010000001000000000000000020160610
201606100060000900000000000000000169000000000000000001699600000000000023650655VACA JOSE ANTONIO             000000001052680000000001027680000000000000000000000000000000000000000000000000000000000000000000000000000000000000000000PES00010000001000000000000000020160610
201606100060000900000000000000000170000000000000000001709600000000000029891904PULITTA IVAN EDGARDO          000000001122203000000001094203000000000000000000000000000000000000000000000000000000000000000000000000000000000000000000PES00010000001000000000000000020160610
201606100060000900000000000000000171000000000000000001719600000000000024179986SILVA HUGO ARIEL              000000000948911000000000920911000000000000000000000000000000000000000000000000000000000000000000000000000000000000000000PES00010000001000000000000000020160610
201606100060000900000000000000000172000000000000000001729900000000000000000000MUNICIPALIDAD DE ORAN         000000000020000000000000000000000000000000000000000000000000000000000000000000000000000000000000000000000000000000000000PES00010000001000000000000000020160610
201606100060000900000000000000000173000000000000000001739600000000000017183385TREJO NAZARIO NERI            000000001246532000000001218532000000000000000000000000000000000000000000000000000000000000000000000000000000000000000000PES00010000001000000000000000020160610
201606100060000900000000000000000174000000000000000001749600000000000007261227COLQUE ESTANISLAO ADOLFO      000000000627250000000000602250000000000000000000000000000000000000000000000000000000000000000000000000000000000000000000PES00010000001000000000000000020160610
201606130060000900000000000000000175000000000000000001759600000000000093662936SEGOVIA JORGE                 000000000781450000000000756450000000000000000000000000000000000000000000000000000000000000000000000000000000000000000000PES00010000001000000000000000020160613
201606130060000900000000000000000176000000000000000001769600000000000036934739GOMEZ EMILIANO DANIEL         000000000860053000000000832053000000000000000000000000000000000000000000000000000000000000000000000000000000000000000000PES00010000001000000000000000020160613
201606140010000900000000000000000038000000000000000000388000000000020185639593CRESPO CARLOS ANTONIO         000000000376000000000000000000000000000000000000000000000000000000000000000000000000000000000000000000000000000000000000PES00010000001000000000000000020160614
201606140060000900000000000000000177000000000000000001778000000000030546694263GENDARMERIA NACIONAL          000000000160000000000000000000000000000000000000000000000000000000000000000000000000000000000000000000000000000000000000PES00010000001000000000000000020160614
201606140060000900000000000000000178000000000000000001788000000000030546694263GENDARMERIA NACIONAL          000000000390000000000000000000000000000000000000000000390000000000000000000000000000000000000000000000000000000000000000PES00010000001E00000000000000020160614
201606150010000900000000000000000039000000000000000000398000000000020166932476CALVENTE SERGIO ANTONIO       000000000397100000000000000000000000000000000000000000000000000000000000000000000000000000000000000000000000000000000000PES00010000001000000000000000020160615
201606150060000900000000000000000179000000000000000001799600000000000020129757GUERRERO ROJAS ORLANDO        000000000990000000000000000000000000000000000000000000000000000000000000000000000000000000000000000000000000000000000000PES00010000001000000000000000020160615
201606210010000900000000000000000040000000000000000000408000000000027100052399SANSONE GRACIELA JOSEFINA     000000001501051000000000000000000000000000000000000000000000000000000000000000000000000000000000000000000000000000000000PES00010000001000000000000000000000000
201606230060000900000000000000000180000000000000000001809600000000000028251156RUIZ DIEGO MARCELO            000000000825000000000000000000000000000000000000000000000000000000000000000000000000000000000000000000000000000000000000PES00010000001000000000000000020160623
201606240060000900000000000000000181000000000000000001819900000000000000000000MUNICIPALIDAD DE ORAN         000000000020000000000000000000000000000000000000000000000000000000000000000000000000000000000000000000000000000000000000PES00010000001000000000000000020160624
201606280010000900000000000000000041000000000000000000418000000000030653431755EMPRESA DE SERVICIOS Y OBRAS S000000003998579000000000000000000000000000000000000000000000000000000000000000000000000000000000000000000000000000000000PES00010000001000000000000000020160628
201606290060000900000000000000000182000000000000000001829600000000000012138028LUNA JULIA FRANCISCA          000000000315000000000000000000000000000000000000000000000000000000000000000000000000000000000000000000000000000000000000PES00010000001000000000000000020160629
201606300060000900000000000000000183000000000000000001839600000000000027614981CUSSI DIEGO EUSEBIO           000000000786000000000000000000000000000000000000000000000000000000000000000000000000000000000000000000000000000000000000PES00010000001000000000000000020160630
201606300060000900000000000000000184000000000000000001848000000000030624051919POLICIA FEDERAL ARGENTINA     000000000602000000000000000000000000000000000000000000000000000000000000000000000000000000000000000000000000000000000000PES00010000001000000000000000020160630
201606300060000900000000000000000185000000000000000001859600000000000028487302CORIA GUSTAVO ALEJANDRO       000000001050000000000000000000000000000000000000000000000000000000000000000000000000000000000000000000000000000000000000PES00010000001000000000000000020160630
