201610010060000200000000000000008246000000000000000082468000000000020000000001Consumidor Final              000000000135000000000000000000000000000000000000000000000000000000000000000000000000000000000000000000000000000000000000PES00010000001000000000000000020161001
201610010060000200000000000000008247000000000000000082478000000000020000000001Consumidor Final              000000000127000000000000000000000000000000000000000000000000000000000000000000000000000000000000000000000000000000000000PES00010000001000000000000000020161001
201610010060000200000000000000008248000000000000000082488000000000020000000001Consumidor Final              000000000265000000000000000000000000000000000000000000000000000000000000000000000000000000000000000000000000000000000000PES00010000001000000000000000020161001
201610010060000200000000000000008249000000000000000082498000000000020000000001Consumidor Final              000000000130000000000000000000000000000000000000000000000000000000000000000000000000000000000000000000000000000000000000PES00010000001000000000000000020161001
201610010060000200000000000000008250000000000000000082508000000000020000000001Consumidor Final              000000000149000000000000000000000000000000000000000000000000000000000000000000000000000000000000000000000000000000000000PES00010000001000000000000000020161001
201610010060000200000000000000008251000000000000000082518000000000020000000001Consumidor Final              000000000079000000000000000000000000000000000000000000000000000000000000000000000000000000000000000000000000000000000000PES00010000001000000000000000020161001
201610010060000200000000000000008252000000000000000082528000000000020000000001Consumidor Final              000000000015000000000000000000000000000000000000000000000000000000000000000000000000000000000000000000000000000000000000PES00010000001000000000000000020161001
201610010060000200000000000000008253000000000000000082538000000000020000000001Consumidor Final              000000000090000000000000000000000000000000000000000000000000000000000000000000000000000000000000000000000000000000000000PES00010000001000000000000000020161001
201610010060000200000000000000008254000000000000000082548000000000020000000001Consumidor Final              000000000020000000000000000000000000000000000000000000000000000000000000000000000000000000000000000000000000000000000000PES00010000001000000000000000020161001
201610030060000200000000000000008255000000000000000082558000000000020000000001Consumidor Final              000000000100000000000000000000000000000000000000000000000000000000000000000000000000000000000000000000000000000000000000PES00010000001000000000000000020161003
201610030060000200000000000000008256000000000000000082568000000000020000000001Consumidor Final              000000000060000000000000000000000000000000000000000000000000000000000000000000000000000000000000000000000000000000000000PES00010000001000000000000000020161003
201610030060000200000000000000008257000000000000000082578000000000020000000001Consumidor Final              000000000040000000000000000000000000000000000000000000000000000000000000000000000000000000000000000000000000000000000000PES00010000001000000000000000020161003
201610030060000200000000000000008258000000000000000082588000000000020000000001Consumidor Final              000000000139000000000000000000000000000000000000000000000000000000000000000000000000000000000000000000000000000000000000PES00010000001000000000000000020161003
201610030060000200000000000000008259000000000000000082598000000000020000000001Consumidor Final              000000000142500000000000000000000000000000000000000000000000000000000000000000000000000000000000000000000000000000000000PES00010000001000000000000000020161003
201610030060000200000000000000008260000000000000000082608000000000020000000001Consumidor Final              000000000099000000000000000000000000000000000000000000000000000000000000000000000000000000000000000000000000000000000000PES00010000001000000000000000020161003
201610030060000200000000000000008261000000000000000082618000000000020000000001Consumidor Final              000000000075000000000000000000000000000000000000000000000000000000000000000000000000000000000000000000000000000000000000PES00010000001000000000000000020161003
201610030060000200000000000000008262000000000000000082628000000000020000000001Consumidor Final              000000000026000000000000000000000000000000000000000000000000000000000000000000000000000000000000000000000000000000000000PES00010000001000000000000000020161003
201610030060000200000000000000008263000000000000000082638000000000020000000001Consumidor Final              000000000015000000000000000000000000000000000000000000000000000000000000000000000000000000000000000000000000000000000000PES00010000001000000000000000020161003
201610030060000200000000000000008264000000000000000082648000000000020000000001Consumidor Final              000000000085000000000000000000000000000000000000000000000000000000000000000000000000000000000000000000000000000000000000PES00010000001000000000000000020161003
201610030060000200000000000000008265000000000000000082658000000000020000000001Consumidor Final              000000000085000000000000000000000000000000000000000000000000000000000000000000000000000000000000000000000000000000000000PES00010000001000000000000000020161003
201610030060000200000000000000008266000000000000000082668000000000020000000001Consumidor Final              000000000045000000000000000000000000000000000000000000000000000000000000000000000000000000000000000000000000000000000000PES00010000001000000000000000020161003
201610030060000200000000000000008267000000000000000082678000000000020000000001Consumidor Final              000000000020000000000000000000000000000000000000000000000000000000000000000000000000000000000000000000000000000000000000PES00010000001000000000000000020161003
201610030060000200000000000000008268000000000000000082688000000000020000000001Consumidor Final              000000000105000000000000000000000000000000000000000000000000000000000000000000000000000000000000000000000000000000000000PES00010000001000000000000000020161003
201610030060000200000000000000008269000000000000000082698000000000020000000001Consumidor Final              000000000030000000000000000000000000000000000000000000000000000000000000000000000000000000000000000000000000000000000000PES00010000001000000000000000020161003
201610030060000200000000000000008270000000000000000082708000000000020000000001Consumidor Final              000000000149000000000000000000000000000000000000000000000000000000000000000000000000000000000000000000000000000000000000PES00010000001000000000000000020161003
201610030060000200000000000000008271000000000000000082718000000000020000000001Consumidor Final              000000000269000000000000000000000000000000000000000000000000000000000000000000000000000000000000000000000000000000000000PES00010000001000000000000000020161003
201610030060000200000000000000008272000000000000000082728000000000020000000001Consumidor Final              000000000046000000000000000000000000000000000000000000000000000000000000000000000000000000000000000000000000000000000000PES00010000001000000000000000020161003
201610030060000200000000000000008273000000000000000082738000000000020000000001Consumidor Final              000000000143000000000000000000000000000000000000000000000000000000000000000000000000000000000000000000000000000000000000PES00010000001000000000000000020161003
201610030060000200000000000000008274000000000000000082748000000000020000000001Consumidor Final              000000000048000000000000000000000000000000000000000000000000000000000000000000000000000000000000000000000000000000000000PES00010000001000000000000000020161003
201610030060000200000000000000008275000000000000000082758000000000020000000001Consumidor Final              000000000048000000000000000000000000000000000000000000000000000000000000000000000000000000000000000000000000000000000000PES00010000001000000000000000020161003
201610030060000200000000000000008276000000000000000082768000000000020000000001Consumidor Final              000000000048000000000000000000000000000000000000000000000000000000000000000000000000000000000000000000000000000000000000PES00010000001000000000000000020161003
201610030060000200000000000000008277000000000000000082778000000000020000000001Consumidor Final              000000000069000000000000000000000000000000000000000000000000000000000000000000000000000000000000000000000000000000000000PES00010000001000000000000000020161003
201610030060000200000000000000008278000000000000000082788000000000020000000001Consumidor Final              000000000048000000000000000000000000000000000000000000000000000000000000000000000000000000000000000000000000000000000000PES00010000001000000000000000020161003
201610030060000200000000000000008279000000000000000082798000000000020000000001Consumidor Final              000000000135000000000000000000000000000000000000000000000000000000000000000000000000000000000000000000000000000000000000PES00010000001000000000000000020161003
201610030060000200000000000000008280000000000000000082808000000000020000000001Consumidor Final              000000000125000000000000000000000000000000000000000000000000000000000000000000000000000000000000000000000000000000000000PES00010000001000000000000000020161003
201610030060000200000000000000008281000000000000000082818000000000020000000001Consumidor Final              000000000481000000000000000000000000000000000000000000000000000000000000000000000000000000000000000000000000000000000000PES00010000001000000000000000020161003
201610030060000200000000000000008282000000000000000082828000000000020000000001Consumidor Final              000000000274000000000000000000000000000000000000000000000000000000000000000000000000000000000000000000000000000000000000PES00010000001000000000000000020161003
201610030060000200000000000000008283000000000000000082838000000000020000000001Consumidor Final              000000000191000000000000000000000000000000000000000000000000000000000000000000000000000000000000000000000000000000000000PES00010000001000000000000000020161003
201610030060000200000000000000008284000000000000000082848000000000020000000001Consumidor Final              000000000010000000000000000000000000000000000000000000000000000000000000000000000000000000000000000000000000000000000000PES00010000001000000000000000020161003
201610030060000200000000000000008285000000000000000082858000000000020000000001Consumidor Final              000000000050000000000000000000000000000000000000000000000000000000000000000000000000000000000000000000000000000000000000PES00010000001000000000000000020161003
201610030060000200000000000000008286000000000000000082868000000000020000000001Consumidor Final              000000000084000000000000000000000000000000000000000000000000000000000000000000000000000000000000000000000000000000000000PES00010000001000000000000000020161003
201610030060000200000000000000008287000000000000000082878000000000020000000001Consumidor Final              000000000040000000000000000000000000000000000000000000000000000000000000000000000000000000000000000000000000000000000000PES00010000001000000000000000020161003
201610040060000200000000000000008288000000000000000082888000000000020000000001Consumidor Final              000000000088000000000000000000000000000000000000000000000000000000000000000000000000000000000000000000000000000000000000PES00010000001000000000000000020161004
201610040060000200000000000000008289000000000000000082898000000000020000000001Consumidor Final              000000000035000000000000000000000000000000000000000000000000000000000000000000000000000000000000000000000000000000000000PES00010000001000000000000000020161004
201610040060000200000000000000008290000000000000000082908000000000020000000001Consumidor Final              000000000045000000000000000000000000000000000000000000000000000000000000000000000000000000000000000000000000000000000000PES00010000001000000000000000020161004
201610040060000200000000000000008291000000000000000082918000000000020000000001Consumidor Final              000000000035000000000000000000000000000000000000000000000000000000000000000000000000000000000000000000000000000000000000PES00010000001000000000000000020161004
201610040060000200000000000000008292000000000000000082928000000000020000000001Consumidor Final              000000000025000000000000000000000000000000000000000000000000000000000000000000000000000000000000000000000000000000000000PES00010000001000000000000000020161004
201610040060000200000000000000008293000000000000000082938000000000020000000001Consumidor Final              000000000135000000000000000000000000000000000000000000000000000000000000000000000000000000000000000000000000000000000000PES00010000001000000000000000020161004
201610040060000200000000000000008294000000000000000082948000000000020000000001Consumidor Final              000000000048000000000000000000000000000000000000000000000000000000000000000000000000000000000000000000000000000000000000PES00010000001000000000000000020161004
201610040060000200000000000000008295000000000000000082958000000000020000000001Consumidor Final              000000000045000000000000000000000000000000000000000000000000000000000000000000000000000000000000000000000000000000000000PES00010000001000000000000000020161004
201610040060000200000000000000008296000000000000000082968000000000020000000001Consumidor Final              000000000108000000000000000000000000000000000000000000000000000000000000000000000000000000000000000000000000000000000000PES00010000001000000000000000020161004
201610040060000200000000000000008297000000000000000082978000000000020000000001Consumidor Final              000000000039000000000000000000000000000000000000000000000000000000000000000000000000000000000000000000000000000000000000PES00010000001000000000000000020161004
201610040060000200000000000000008298000000000000000082988000000000020000000001Consumidor Final              000000000105000000000000000000000000000000000000000000000000000000000000000000000000000000000000000000000000000000000000PES00010000001000000000000000020161004
201610040060000200000000000000008299000000000000000082998000000000020000000001Consumidor Final              000000000048000000000000000000000000000000000000000000000000000000000000000000000000000000000000000000000000000000000000PES00010000001000000000000000020161004
201610040060000200000000000000008300000000000000000083008000000000020000000001Consumidor Final              000000000155000000000000000000000000000000000000000000000000000000000000000000000000000000000000000000000000000000000000PES00010000001000000000000000020161004
201610040060000200000000000000008301000000000000000083018000000000020000000001Consumidor Final              000000000145000000000000000000000000000000000000000000000000000000000000000000000000000000000000000000000000000000000000PES00010000001000000000000000020161004
201610040060000200000000000000008302000000000000000083028000000000020000000001Consumidor Final              000000000084000000000000000000000000000000000000000000000000000000000000000000000000000000000000000000000000000000000000PES00010000001000000000000000020161004
201610040060000200000000000000008303000000000000000083038000000000020000000001Consumidor Final              000000000045000000000000000000000000000000000000000000000000000000000000000000000000000000000000000000000000000000000000PES00010000001000000000000000020161004
201610040060000200000000000000008304000000000000000083048000000000020000000001Consumidor Final              000000000157500000000000000000000000000000000000000000000000000000000000000000000000000000000000000000000000000000000000PES00010000001000000000000000020161004
201610040060000200000000000000008305000000000000000083058000000000020000000001Consumidor Final              000000000086000000000000000000000000000000000000000000000000000000000000000000000000000000000000000000000000000000000000PES00010000001000000000000000020161004
201610040060000200000000000000008306000000000000000083068000000000020000000001Consumidor Final              000000000060000000000000000000000000000000000000000000000000000000000000000000000000000000000000000000000000000000000000PES00010000001000000000000000020161004
201610040060000200000000000000008307000000000000000083078000000000020000000001Consumidor Final              000000000036000000000000000000000000000000000000000000000000000000000000000000000000000000000000000000000000000000000000PES00010000001000000000000000020161004
201610040060000200000000000000008308000000000000000083088000000000020000000001Consumidor Final              000000000022500000000000000000000000000000000000000000000000000000000000000000000000000000000000000000000000000000000000PES00010000001000000000000000020161004
201610040060000200000000000000008309000000000000000083098000000000020000000001Consumidor Final              000000000211500000000000000000000000000000000000000000000000000000000000000000000000000000000000000000000000000000000000PES00010000001000000000000000020161004
201610040060000200000000000000008310000000000000000083108000000000020000000001Consumidor Final              000000000048000000000000000000000000000000000000000000000000000000000000000000000000000000000000000000000000000000000000PES00010000001000000000000000020161004
201610040060000200000000000000008311000000000000000083118000000000020000000001Consumidor Final              000000000153000000000000000000000000000000000000000000000000000000000000000000000000000000000000000000000000000000000000PES00010000001000000000000000020161004
201610040060000200000000000000008312000000000000000083128000000000020000000001Consumidor Final              000000000048000000000000000000000000000000000000000000000000000000000000000000000000000000000000000000000000000000000000PES00010000001000000000000000020161004
201610040060000200000000000000008313000000000000000083138000000000020000000001Consumidor Final              000000000060000000000000000000000000000000000000000000000000000000000000000000000000000000000000000000000000000000000000PES00010000001000000000000000020161004
201610040060000200000000000000008314000000000000000083148000000000020000000001Consumidor Final              000000000085000000000000000000000000000000000000000000000000000000000000000000000000000000000000000000000000000000000000PES00010000001000000000000000020161004
201610040060000200000000000000008315000000000000000083158000000000020000000001Consumidor Final              000000000051000000000000000000000000000000000000000000000000000000000000000000000000000000000000000000000000000000000000PES00010000001000000000000000020161004
201610040060000200000000000000008316000000000000000083168000000000020000000001Consumidor Final              000000000093000000000000000000000000000000000000000000000000000000000000000000000000000000000000000000000000000000000000PES00010000001000000000000000020161004
201610050060000200000000000000008317000000000000000083179600000000020000000001Consumidor Final              000000000245000000000000000000000000000000000000000000000000000000000000000000000000000000000000000000000000000000000000PES00010000001000000000000000020161005
201610050060000200000000000000008318000000000000000083188000000000020000000001Consumidor Final              000000000135000000000000000000000000000000000000000000000000000000000000000000000000000000000000000000000000000000000000PES00010000001000000000000000020161005
201610050060000200000000000000008319000000000000000083198000000000020000000001Consumidor Final              000000000075000000000000000000000000000000000000000000000000000000000000000000000000000000000000000000000000000000000000PES00010000001000000000000000020161005
201610050060000200000000000000008320000000000000000083208000000000020000000001Consumidor Final              000000000036000000000000000000000000000000000000000000000000000000000000000000000000000000000000000000000000000000000000PES00010000001000000000000000020161005
201610050060000200000000000000008321000000000000000083218000000000020000000001Consumidor Final              000000000068000000000000000000000000000000000000000000000000000000000000000000000000000000000000000000000000000000000000PES00010000001000000000000000020161005
201610050060000200000000000000008322000000000000000083228000000000020000000001Consumidor Final              000000000048000000000000000000000000000000000000000000000000000000000000000000000000000000000000000000000000000000000000PES00010000001000000000000000020161005
201610050060000200000000000000008323000000000000000083238000000000020000000001Consumidor Final              000000000045000000000000000000000000000000000000000000000000000000000000000000000000000000000000000000000000000000000000PES00010000001000000000000000020161005
201610050060000200000000000000008324000000000000000083248000000000020000000001Consumidor Final              000000000290000000000000000000000000000000000000000000000000000000000000000000000000000000000000000000000000000000000000PES00010000001000000000000000020161005
201610050060000200000000000000008325000000000000000083258000000000020000000001Consumidor Final              000000000082000000000000000000000000000000000000000000000000000000000000000000000000000000000000000000000000000000000000PES00010000001000000000000000020161005
201610050060000200000000000000008326000000000000000083268000000000020000000001Consumidor Final              000000000110000000000000000000000000000000000000000000000000000000000000000000000000000000000000000000000000000000000000PES00010000001000000000000000020161005
201610050060000200000000000000008327000000000000000083278000000000020000000001Consumidor Final              000000000125000000000000000000000000000000000000000000000000000000000000000000000000000000000000000000000000000000000000PES00010000001000000000000000020161005
201610050060000200000000000000008328000000000000000083288000000000020000000001Consumidor Final              000000000019500000000000000000000000000000000000000000000000000000000000000000000000000000000000000000000000000000000000PES00010000001000000000000000020161005
201610050060000200000000000000008329000000000000000083298000000000020000000001Consumidor Final              000000000089000000000000000000000000000000000000000000000000000000000000000000000000000000000000000000000000000000000000PES00010000001000000000000000020161005
201610050060000200000000000000008330000000000000000083308000000000020000000001Consumidor Final              000000000159000000000000000000000000000000000000000000000000000000000000000000000000000000000000000000000000000000000000PES00010000001000000000000000020161005
201610050060000200000000000000008331000000000000000083318000000000020000000001Consumidor Final              000000000096000000000000000000000000000000000000000000000000000000000000000000000000000000000000000000000000000000000000PES00010000001000000000000000020161005
201610050060000200000000000000008332000000000000000083328000000000020000000001Consumidor Final              000000000045000000000000000000000000000000000000000000000000000000000000000000000000000000000000000000000000000000000000PES00010000001000000000000000020161005
201610050060000200000000000000008333000000000000000083338000000000020000000001Consumidor Final              000000000155500000000000000000000000000000000000000000000000000000000000000000000000000000000000000000000000000000000000PES00010000001000000000000000020161005
201610050060000200000000000000008334000000000000000083348000000000020000000001Consumidor Final              000000000079000000000000000000000000000000000000000000000000000000000000000000000000000000000000000000000000000000000000PES00010000001000000000000000020161005
201610050060000200000000000000008335000000000000000083358000000000020000000001Consumidor Final              000000000125000000000000000000000000000000000000000000000000000000000000000000000000000000000000000000000000000000000000PES00010000001000000000000000020161005
201610050060000200000000000000008337000000000000000083378000000000020000000001Consumidor Final              000000000079000000000000000000000000000000000000000000000000000000000000000000000000000000000000000000000000000000000000PES00010000001000000000000000020161005
201610050060000200000000000000008338000000000000000083388000000000020000000001Consumidor Final              000000000048000000000000000000000000000000000000000000000000000000000000000000000000000000000000000000000000000000000000PES00010000001000000000000000020161005
201610050060000200000000000000008339000000000000000083398000000000020000000001Consumidor Final              000000000045000000000000000000000000000000000000000000000000000000000000000000000000000000000000000000000000000000000000PES00010000001000000000000000020161005
201610050060000200000000000000008340000000000000000083408000000000020000000001Consumidor Final              000000000020000000000000000000000000000000000000000000000000000000000000000000000000000000000000000000000000000000000000PES00010000001000000000000000020161005
201610050060000200000000000000008341000000000000000083418000000000020000000001Consumidor Final              000000000039000000000000000000000000000000000000000000000000000000000000000000000000000000000000000000000000000000000000PES00010000001000000000000000020161005
201610060060000200000000000000008342000000000000000083428000000000020000000001Consumidor Final              000000000060000000000000000000000000000000000000000000000000000000000000000000000000000000000000000000000000000000000000PES00010000001000000000000000020161006
201610060060000200000000000000008343000000000000000083438000000000020000000001Consumidor Final              000000000040000000000000000000000000000000000000000000000000000000000000000000000000000000000000000000000000000000000000PES00010000001000000000000000020161006
201610060060000200000000000000008344000000000000000083448000000000020000000001Consumidor Final              000000000049000000000000000000000000000000000000000000000000000000000000000000000000000000000000000000000000000000000000PES00010000001000000000000000020161006
201610060060000200000000000000008345000000000000000083458000000000020000000001Consumidor Final              000000000055000000000000000000000000000000000000000000000000000000000000000000000000000000000000000000000000000000000000PES00010000001000000000000000020161006
201610060060000200000000000000008346000000000000000083468000000000020000000001Consumidor Final              000000000099000000000000000000000000000000000000000000000000000000000000000000000000000000000000000000000000000000000000PES00010000001000000000000000020161006
201610060060000200000000000000008347000000000000000083478000000000020000000001Consumidor Final              000000000035000000000000000000000000000000000000000000000000000000000000000000000000000000000000000000000000000000000000PES00010000001000000000000000020161006
201610060060000200000000000000008348000000000000000083488000000000020000000001Consumidor Final              000000000062500000000000000000000000000000000000000000000000000000000000000000000000000000000000000000000000000000000000PES00010000001000000000000000020161006
201610060060000200000000000000008349000000000000000083498000000000020000000001Consumidor Final              000000000025000000000000000000000000000000000000000000000000000000000000000000000000000000000000000000000000000000000000PES00010000001000000000000000020161006
201610060060000200000000000000008350000000000000000083508000000000020000000001Consumidor Final              000000000300000000000000000000000000000000000000000000000000000000000000000000000000000000000000000000000000000000000000PES00010000001000000000000000020161006
201610060060000200000000000000008351000000000000000083518000000000020000000001Consumidor Final              000000000210000000000000000000000000000000000000000000000000000000000000000000000000000000000000000000000000000000000000PES00010000001000000000000000020161006
201610060060000200000000000000008352000000000000000083528000000000020000000001Consumidor Final              000000000155000000000000000000000000000000000000000000000000000000000000000000000000000000000000000000000000000000000000PES00010000001000000000000000020161006
201610060060000200000000000000008353000000000000000083538000000000020000000001Consumidor Final              000000000070000000000000000000000000000000000000000000000000000000000000000000000000000000000000000000000000000000000000PES00010000001000000000000000020161006
201610060060000200000000000000008354000000000000000083548000000000020000000001Consumidor Final              000000000060000000000000000000000000000000000000000000000000000000000000000000000000000000000000000000000000000000000000PES00010000001000000000000000020161006
201610060060000200000000000000008355000000000000000083558000000000020000000001Consumidor Final              000000000040000000000000000000000000000000000000000000000000000000000000000000000000000000000000000000000000000000000000PES00010000001000000000000000020161006
201610060060000200000000000000008356000000000000000083568000000000020000000001Consumidor Final              000000000195500000000000000000000000000000000000000000000000000000000000000000000000000000000000000000000000000000000000PES00010000001000000000000000020161006
201610060060000200000000000000008357000000000000000083578000000000020000000001Consumidor Final              000000000039000000000000000000000000000000000000000000000000000000000000000000000000000000000000000000000000000000000000PES00010000001000000000000000020161006
201610060060000200000000000000008358000000000000000083588000000000020000000001Consumidor Final              000000000056000000000000000000000000000000000000000000000000000000000000000000000000000000000000000000000000000000000000PES00010000001000000000000000020161006
201610060060000200000000000000008359000000000000000083598000000000020000000001Consumidor Final              000000000079000000000000000000000000000000000000000000000000000000000000000000000000000000000000000000000000000000000000PES00010000001000000000000000020161006
201610060060000200000000000000008360000000000000000083608000000000020000000001Consumidor Final              000000000033000000000000000000000000000000000000000000000000000000000000000000000000000000000000000000000000000000000000PES00010000001000000000000000020161006
201610060060000200000000000000008361000000000000000083618000000000020000000001Consumidor Final              000000000048000000000000000000000000000000000000000000000000000000000000000000000000000000000000000000000000000000000000PES00010000001000000000000000020161006
201610070060000200000000000000008362000000000000000083628000000000020000000001Consumidor Final              000000000072000000000000000000000000000000000000000000000000000000000000000000000000000000000000000000000000000000000000PES00010000001000000000000000020161007
201610070060000200000000000000008363000000000000000083638000000000020000000001Consumidor Final              000000000166500000000000000000000000000000000000000000000000000000000000000000000000000000000000000000000000000000000000PES00010000001000000000000000020161007
201610070060000200000000000000008364000000000000000083648000000000020000000001Consumidor Final              000000000147500000000000000000000000000000000000000000000000000000000000000000000000000000000000000000000000000000000000PES00010000001000000000000000020161007
201610070060000200000000000000008365000000000000000083658000000000020000000001Consumidor Final              000000000150000000000000000000000000000000000000000000000000000000000000000000000000000000000000000000000000000000000000PES00010000001000000000000000020161007
201610070060000200000000000000008366000000000000000083668000000000020000000001Consumidor Final              000000000020000000000000000000000000000000000000000000000000000000000000000000000000000000000000000000000000000000000000PES00010000001000000000000000020161007
201610070060000200000000000000008367000000000000000083678000000000020000000001Consumidor Final              000000000035000000000000000000000000000000000000000000000000000000000000000000000000000000000000000000000000000000000000PES00010000001000000000000000020161007
201610070060000200000000000000008368000000000000000083688000000000020000000001Consumidor Final              000000000015000000000000000000000000000000000000000000000000000000000000000000000000000000000000000000000000000000000000PES00010000001000000000000000020161007
201610070060000200000000000000008369000000000000000083698000000000020000000001Consumidor Final              000000000098000000000000000000000000000000000000000000000000000000000000000000000000000000000000000000000000000000000000PES00010000001000000000000000020161007
201610070060000200000000000000008370000000000000000083708000000000020000000001Consumidor Final              000000000059000000000000000000000000000000000000000000000000000000000000000000000000000000000000000000000000000000000000PES00010000001000000000000000020161007
201610070060000200000000000000008371000000000000000083718000000000020000000001Consumidor Final              000000000095000000000000000000000000000000000000000000000000000000000000000000000000000000000000000000000000000000000000PES00010000001000000000000000020161007
201610070060000200000000000000008372000000000000000083728000000000020000000001Consumidor Final              000000000015000000000000000000000000000000000000000000000000000000000000000000000000000000000000000000000000000000000000PES00010000001000000000000000020161007
201610070060000200000000000000008373000000000000000083738000000000020000000001Consumidor Final              000000000040000000000000000000000000000000000000000000000000000000000000000000000000000000000000000000000000000000000000PES00010000001000000000000000020161007
201610070060000200000000000000008374000000000000000083748000000000020000000001Consumidor Final              000000000174000000000000000000000000000000000000000000000000000000000000000000000000000000000000000000000000000000000000PES00010000001000000000000000020161007
201610070060000200000000000000008375000000000000000083758000000000020000000001Consumidor Final              000000000051000000000000000000000000000000000000000000000000000000000000000000000000000000000000000000000000000000000000PES00010000001000000000000000020161007
201610070060000200000000000000008376000000000000000083768000000000020000000001Consumidor Final              000000000015000000000000000000000000000000000000000000000000000000000000000000000000000000000000000000000000000000000000PES00010000001000000000000000020161007
201610070060000200000000000000008377000000000000000083778000000000020000000001Consumidor Final              000000000138000000000000000000000000000000000000000000000000000000000000000000000000000000000000000000000000000000000000PES00010000001000000000000000020161007
201610070060000200000000000000008378000000000000000083788000000000020000000001Consumidor Final              000000000145000000000000000000000000000000000000000000000000000000000000000000000000000000000000000000000000000000000000PES00010000001000000000000000020161007
201610070060000200000000000000008379000000000000000083798000000000020000000001Consumidor Final              000000000144000000000000000000000000000000000000000000000000000000000000000000000000000000000000000000000000000000000000PES00010000001000000000000000020161007
201610070060000200000000000000008380000000000000000083808000000000020000000001Consumidor Final              000000000079000000000000000000000000000000000000000000000000000000000000000000000000000000000000000000000000000000000000PES00010000001000000000000000020161007
201610070060000200000000000000008381000000000000000083818000000000020000000001Consumidor Final              000000000020000000000000000000000000000000000000000000000000000000000000000000000000000000000000000000000000000000000000PES00010000001000000000000000020161007
201610070060000200000000000000008382000000000000000083828000000000020000000001Consumidor Final              000000000025000000000000000000000000000000000000000000000000000000000000000000000000000000000000000000000000000000000000PES00010000001000000000000000020161007
201610070060000200000000000000008383000000000000000083838000000000020000000001Consumidor Final              000000000040000000000000000000000000000000000000000000000000000000000000000000000000000000000000000000000000000000000000PES00010000001000000000000000020161007
201610070060000200000000000000008384000000000000000083848000000000020000000001Consumidor Final              000000000089000000000000000000000000000000000000000000000000000000000000000000000000000000000000000000000000000000000000PES00010000001000000000000000020161007
201610070060000200000000000000008385000000000000000083858000000000020000000001Consumidor Final              000000000045000000000000000000000000000000000000000000000000000000000000000000000000000000000000000000000000000000000000PES00010000001000000000000000020161007
201610070060000200000000000000008386000000000000000083868000000000020000000001Consumidor Final              000000000070000000000000000000000000000000000000000000000000000000000000000000000000000000000000000000000000000000000000PES00010000001000000000000000020161007
201610070060000200000000000000008387000000000000000083878000000000020000000001Consumidor Final              000000000115000000000000000000000000000000000000000000000000000000000000000000000000000000000000000000000000000000000000PES00010000001000000000000000020161007
201610070060000200000000000000008388000000000000000083888000000000020000000001Consumidor Final              000000000039000000000000000000000000000000000000000000000000000000000000000000000000000000000000000000000000000000000000PES00010000001000000000000000020161007
201610070060000200000000000000008389000000000000000083898000000000020000000001Consumidor Final              000000000012000000000000000000000000000000000000000000000000000000000000000000000000000000000000000000000000000000000000PES00010000001000000000000000020161007
201610070060000200000000000000008390000000000000000083908000000000020000000001Consumidor Final              000000000310000000000000000000000000000000000000000000000000000000000000000000000000000000000000000000000000000000000000PES00010000001000000000000000020161007
201610070060000200000000000000008391000000000000000083918000000000020000000001Consumidor Final              000000000054000000000000000000000000000000000000000000000000000000000000000000000000000000000000000000000000000000000000PES00010000001000000000000000020161007
201610070060000200000000000000008392000000000000000083928000000000020000000001Consumidor Final              000000000164000000000000000000000000000000000000000000000000000000000000000000000000000000000000000000000000000000000000PES00010000001000000000000000020161007
201610080060000200000000000000008393000000000000000083938000000000020000000001Consumidor Final              000000000105000000000000000000000000000000000000000000000000000000000000000000000000000000000000000000000000000000000000PES00010000001000000000000000020161008
201610080060000200000000000000008394000000000000000083948000000000020000000001Consumidor Final              000000000055000000000000000000000000000000000000000000000000000000000000000000000000000000000000000000000000000000000000PES00010000001000000000000000020161008
201610080060000200000000000000008395000000000000000083958000000000020000000001Consumidor Final              000000000150000000000000000000000000000000000000000000000000000000000000000000000000000000000000000000000000000000000000PES00010000001000000000000000020161008
201610080060000200000000000000008396000000000000000083968000000000020000000001Consumidor Final              000000000024000000000000000000000000000000000000000000000000000000000000000000000000000000000000000000000000000000000000PES00010000001000000000000000020161008
201610080060000200000000000000008397000000000000000083978000000000020000000001Consumidor Final              000000000060000000000000000000000000000000000000000000000000000000000000000000000000000000000000000000000000000000000000PES00010000001000000000000000020161008
201610080060000200000000000000008398000000000000000083988000000000020000000001Consumidor Final              000000000108000000000000000000000000000000000000000000000000000000000000000000000000000000000000000000000000000000000000PES00010000001000000000000000020161008
201610080060000200000000000000008399000000000000000083998000000000020000000001Consumidor Final              000000000129000000000000000000000000000000000000000000000000000000000000000000000000000000000000000000000000000000000000PES00010000001000000000000000020161008
201610080060000200000000000000008400000000000000000084008000000000020000000001Consumidor Final              000000000040000000000000000000000000000000000000000000000000000000000000000000000000000000000000000000000000000000000000PES00010000001000000000000000020161008
201610080060000200000000000000008401000000000000000084018000000000020000000001Consumidor Final              000000000064000000000000000000000000000000000000000000000000000000000000000000000000000000000000000000000000000000000000PES00010000001000000000000000020161008
201610080060000200000000000000008402000000000000000084028000000000020000000001Consumidor Final              000000000045000000000000000000000000000000000000000000000000000000000000000000000000000000000000000000000000000000000000PES00010000001000000000000000020161008
201610080060000200000000000000008403000000000000000084038000000000020000000001Consumidor Final              000000000051000000000000000000000000000000000000000000000000000000000000000000000000000000000000000000000000000000000000PES00010000001000000000000000020161008
201610080060000200000000000000008404000000000000000084048000000000020000000001Consumidor Final              000000000150000000000000000000000000000000000000000000000000000000000000000000000000000000000000000000000000000000000000PES00010000001000000000000000020161008
201610110060000200000000000000008405000000000000000084058000000000020000000001Consumidor Final              000000000306000000000000000000000000000000000000000000000000000000000000000000000000000000000000000000000000000000000000PES00010000001000000000000000020161011
201610110060000200000000000000008406000000000000000084068000000000020000000001Consumidor Final              000000000069000000000000000000000000000000000000000000000000000000000000000000000000000000000000000000000000000000000000PES00010000001000000000000000020161011
201610110060000200000000000000008407000000000000000084078000000000020000000001Consumidor Final              000000000125000000000000000000000000000000000000000000000000000000000000000000000000000000000000000000000000000000000000PES00010000001000000000000000020161011
201610110060000200000000000000008408000000000000000084088000000000020000000001Consumidor Final              000000000065000000000000000000000000000000000000000000000000000000000000000000000000000000000000000000000000000000000000PES00010000001000000000000000020161011
201610110060000200000000000000008409000000000000000084098000000000020000000001Consumidor Final              000000000169000000000000000000000000000000000000000000000000000000000000000000000000000000000000000000000000000000000000PES00010000001000000000000000020161011
201610110060000200000000000000008410000000000000000084108000000000020000000001Consumidor Final              000000000065000000000000000000000000000000000000000000000000000000000000000000000000000000000000000000000000000000000000PES00010000001000000000000000020161011
201610110060000200000000000000008411000000000000000084118000000000020000000001Consumidor Final              000000000098500000000000000000000000000000000000000000000000000000000000000000000000000000000000000000000000000000000000PES00010000001000000000000000020161011
201610110060000200000000000000008412000000000000000084128000000000020000000001Consumidor Final              000000000025000000000000000000000000000000000000000000000000000000000000000000000000000000000000000000000000000000000000PES00010000001000000000000000020161011
201610110060000200000000000000008413000000000000000084138000000000020000000001Consumidor Final              000000000155000000000000000000000000000000000000000000000000000000000000000000000000000000000000000000000000000000000000PES00010000001000000000000000020161011
201610110060000200000000000000008414000000000000000084148000000000020000000001Consumidor Final              000000000095000000000000000000000000000000000000000000000000000000000000000000000000000000000000000000000000000000000000PES00010000001000000000000000020161011
201610110060000200000000000000008415000000000000000084158000000000020000000001Consumidor Final              000000000115000000000000000000000000000000000000000000000000000000000000000000000000000000000000000000000000000000000000PES00010000001000000000000000020161011
201610110060000200000000000000008416000000000000000084168000000000020000000001Consumidor Final              000000000027500000000000000000000000000000000000000000000000000000000000000000000000000000000000000000000000000000000000PES00010000001000000000000000020161011
201610110060000200000000000000008417000000000000000084178000000000020000000001Consumidor Final              000000000048000000000000000000000000000000000000000000000000000000000000000000000000000000000000000000000000000000000000PES00010000001000000000000000020161011
201610110060000200000000000000008418000000000000000084188000000000020000000001Consumidor Final              000000000048000000000000000000000000000000000000000000000000000000000000000000000000000000000000000000000000000000000000PES00010000001000000000000000020161011
201610110060000200000000000000008419000000000000000084198000000000020000000001Consumidor Final              000000000370000000000000000000000000000000000000000000000000000000000000000000000000000000000000000000000000000000000000PES00010000001000000000000000020161011
201610110060000200000000000000008420000000000000000084208000000000020000000001Consumidor Final              000000000065000000000000000000000000000000000000000000000000000000000000000000000000000000000000000000000000000000000000PES00010000001000000000000000020161011
201610110060000200000000000000008421000000000000000084218000000000020000000001Consumidor Final              000000000143000000000000000000000000000000000000000000000000000000000000000000000000000000000000000000000000000000000000PES00010000001000000000000000020161011
201610110060000200000000000000008422000000000000000084228000000000020000000001Consumidor Final              000000000043000000000000000000000000000000000000000000000000000000000000000000000000000000000000000000000000000000000000PES00010000001000000000000000020161011
201610110060000200000000000000008423000000000000000084238000000000020000000001Consumidor Final              000000000110000000000000000000000000000000000000000000000000000000000000000000000000000000000000000000000000000000000000PES00010000001000000000000000020161011
201610110060000200000000000000008424000000000000000084248000000000020000000001Consumidor Final              000000000100000000000000000000000000000000000000000000000000000000000000000000000000000000000000000000000000000000000000PES00010000001000000000000000020161011
201610110060000200000000000000008425000000000000000084258000000000020000000001Consumidor Final              000000000138000000000000000000000000000000000000000000000000000000000000000000000000000000000000000000000000000000000000PES00010000001000000000000000020161011
201610110060000200000000000000008426000000000000000084268000000000020000000001Consumidor Final              000000000306000000000000000000000000000000000000000000000000000000000000000000000000000000000000000000000000000000000000PES00010000001000000000000000020161011
201610110060000200000000000000008427000000000000000084278000000000020000000001Consumidor Final              000000000093000000000000000000000000000000000000000000000000000000000000000000000000000000000000000000000000000000000000PES00010000001000000000000000020161011
201610110060000200000000000000008428000000000000000084288000000000020000000001Consumidor Final              000000000100000000000000000000000000000000000000000000000000000000000000000000000000000000000000000000000000000000000000PES00010000001000000000000000020161011
201610110060000200000000000000008429000000000000000084298000000000020000000001Consumidor Final              000000000039000000000000000000000000000000000000000000000000000000000000000000000000000000000000000000000000000000000000PES00010000001000000000000000020161011
201610110060000200000000000000008430000000000000000084308000000000020000000001Consumidor Final              000000000042000000000000000000000000000000000000000000000000000000000000000000000000000000000000000000000000000000000000PES00010000001000000000000000020161011
201610110060000200000000000000008431000000000000000084318000000000020000000001Consumidor Final              000000000115000000000000000000000000000000000000000000000000000000000000000000000000000000000000000000000000000000000000PES00010000001000000000000000020161011
201610110060000200000000000000008432000000000000000084328000000000020000000001Consumidor Final              000000000024000000000000000000000000000000000000000000000000000000000000000000000000000000000000000000000000000000000000PES00010000001000000000000000020161011
201610110060000200000000000000008433000000000000000084338000000000020000000001Consumidor Final              000000000165000000000000000000000000000000000000000000000000000000000000000000000000000000000000000000000000000000000000PES00010000001000000000000000020161011
201610110060000200000000000000008434000000000000000084348000000000020000000001Consumidor Final              000000000099000000000000000000000000000000000000000000000000000000000000000000000000000000000000000000000000000000000000PES00010000001000000000000000020161011
201610110060000200000000000000008435000000000000000084358000000000020000000001Consumidor Final              000000000125000000000000000000000000000000000000000000000000000000000000000000000000000000000000000000000000000000000000PES00010000001000000000000000020161011
201610110060000200000000000000008436000000000000000084368000000000020000000001Consumidor Final              000000000150000000000000000000000000000000000000000000000000000000000000000000000000000000000000000000000000000000000000PES00010000001000000000000000020161011
201610120060000200000000000000008437000000000000000084378000000000020000000001Consumidor Final              000000000048000000000000000000000000000000000000000000000000000000000000000000000000000000000000000000000000000000000000PES00010000001000000000000000020161012
201610120060000200000000000000008438000000000000000084388000000000020000000001Consumidor Final              000000000129000000000000000000000000000000000000000000000000000000000000000000000000000000000000000000000000000000000000PES00010000001000000000000000020161012
201610120060000200000000000000008439000000000000000084398000000000020000000001Consumidor Final              000000000125000000000000000000000000000000000000000000000000000000000000000000000000000000000000000000000000000000000000PES00010000001000000000000000020161012
201610120060000200000000000000008440000000000000000084408000000000020000000001Consumidor Final              000000000037000000000000000000000000000000000000000000000000000000000000000000000000000000000000000000000000000000000000PES00010000001000000000000000020161012
201610120060000200000000000000008441000000000000000084418000000000020000000001Consumidor Final              000000000051000000000000000000000000000000000000000000000000000000000000000000000000000000000000000000000000000000000000PES00010000001000000000000000020161012
201610120060000200000000000000008442000000000000000084428000000000020000000001Consumidor Final              000000000035000000000000000000000000000000000000000000000000000000000000000000000000000000000000000000000000000000000000PES00010000001000000000000000020161012
201610120060000200000000000000008443000000000000000084438000000000020000000001Consumidor Final              000000000035000000000000000000000000000000000000000000000000000000000000000000000000000000000000000000000000000000000000PES00010000001000000000000000020161012
201610120060000200000000000000008444000000000000000084448000000000020000000001Consumidor Final              000000000255000000000000000000000000000000000000000000000000000000000000000000000000000000000000000000000000000000000000PES00010000001000000000000000020161012
201610120060000200000000000000008445000000000000000084458000000000020000000001Consumidor Final              000000000325000000000000000000000000000000000000000000000000000000000000000000000000000000000000000000000000000000000000PES00010000001000000000000000020161012
201610120060000200000000000000008446000000000000000084468000000000020000000001Consumidor Final              000000000039000000000000000000000000000000000000000000000000000000000000000000000000000000000000000000000000000000000000PES00010000001000000000000000020161012
201610120060000200000000000000008447000000000000000084478000000000020000000001Consumidor Final              000000000095000000000000000000000000000000000000000000000000000000000000000000000000000000000000000000000000000000000000PES00010000001000000000000000020161012
201610120060000200000000000000008448000000000000000084488000000000020000000001Consumidor Final              000000000048000000000000000000000000000000000000000000000000000000000000000000000000000000000000000000000000000000000000PES00010000001000000000000000020161012
201610120060000200000000000000008449000000000000000084498000000000020000000001Consumidor Final              000000000035000000000000000000000000000000000000000000000000000000000000000000000000000000000000000000000000000000000000PES00010000001000000000000000020161012
201610120060000200000000000000008450000000000000000084508000000000020000000001Consumidor Final              000000000059000000000000000000000000000000000000000000000000000000000000000000000000000000000000000000000000000000000000PES00010000001000000000000000020161012
201610120060000200000000000000008451000000000000000084518000000000020000000001Consumidor Final              000000000085000000000000000000000000000000000000000000000000000000000000000000000000000000000000000000000000000000000000PES00010000001000000000000000020161012
201610120060000200000000000000008452000000000000000084528000000000020000000001Consumidor Final              000000000069000000000000000000000000000000000000000000000000000000000000000000000000000000000000000000000000000000000000PES00010000001000000000000000020161012
201610120060000200000000000000008453000000000000000084538000000000020000000001Consumidor Final              000000000048000000000000000000000000000000000000000000000000000000000000000000000000000000000000000000000000000000000000PES00010000001000000000000000020161012
201610120060000200000000000000008454000000000000000084548000000000020000000001Consumidor Final              000000000082000000000000000000000000000000000000000000000000000000000000000000000000000000000000000000000000000000000000PES00010000001000000000000000020161012
201610120060000200000000000000008455000000000000000084558000000000020000000001Consumidor Final              000000000025000000000000000000000000000000000000000000000000000000000000000000000000000000000000000000000000000000000000PES00010000001000000000000000020161012
201610120060000200000000000000008456000000000000000084568000000000020000000001Consumidor Final              000000000054000000000000000000000000000000000000000000000000000000000000000000000000000000000000000000000000000000000000PES00010000001000000000000000020161012
201610120060000200000000000000008457000000000000000084578000000000020000000001Consumidor Final              000000000085000000000000000000000000000000000000000000000000000000000000000000000000000000000000000000000000000000000000PES00010000001000000000000000020161012
201610120060000200000000000000008458000000000000000084588000000000020000000001Consumidor Final              000000000072000000000000000000000000000000000000000000000000000000000000000000000000000000000000000000000000000000000000PES00010000001000000000000000020161012
201610120060000200000000000000008459000000000000000084598000000000020000000001Consumidor Final              000000000115000000000000000000000000000000000000000000000000000000000000000000000000000000000000000000000000000000000000PES00010000001000000000000000020161012
201610120060000200000000000000008460000000000000000084608000000000020000000001Consumidor Final              000000000125000000000000000000000000000000000000000000000000000000000000000000000000000000000000000000000000000000000000PES00010000001000000000000000020161012
201610120060000200000000000000008461000000000000000084618000000000020000000001Consumidor Final              000000000090000000000000000000000000000000000000000000000000000000000000000000000000000000000000000000000000000000000000PES00010000001000000000000000020161012
201610120060000200000000000000008462000000000000000084628000000000020000000001Consumidor Final              000000000500000000000000000000000000000000000000000000000000000000000000000000000000000000000000000000000000000000000000PES00010000001000000000000000020161012
201610120060000200000000000000008463000000000000000084638000000000020000000001Consumidor Final              000000000130000000000000000000000000000000000000000000000000000000000000000000000000000000000000000000000000000000000000PES00010000001000000000000000020161012
201610120060000200000000000000008464000000000000000084648000000000020000000001Consumidor Final              000000000259000000000000000000000000000000000000000000000000000000000000000000000000000000000000000000000000000000000000PES00010000001000000000000000020161012
201610130060000200000000000000008465000000000000000084658000000000020000000001Consumidor Final              000000000048000000000000000000000000000000000000000000000000000000000000000000000000000000000000000000000000000000000000PES00010000001000000000000000020161013
201610130060000200000000000000008466000000000000000084668000000000020000000001Consumidor Final              000000000052500000000000000000000000000000000000000000000000000000000000000000000000000000000000000000000000000000000000PES00010000001000000000000000020161013
201610130060000200000000000000008467000000000000000084678000000000020000000001Consumidor Final              000000000147500000000000000000000000000000000000000000000000000000000000000000000000000000000000000000000000000000000000PES00010000001000000000000000020161013
201610130060000200000000000000008468000000000000000084688000000000020000000001Consumidor Final              000000000035000000000000000000000000000000000000000000000000000000000000000000000000000000000000000000000000000000000000PES00010000001000000000000000020161013
201610130060000200000000000000008469000000000000000084698000000000020000000001Consumidor Final              000000000210000000000000000000000000000000000000000000000000000000000000000000000000000000000000000000000000000000000000PES00010000001000000000000000020161013
201610130060000200000000000000008471000000000000000084718000000000020000000001Consumidor Final              000000000048000000000000000000000000000000000000000000000000000000000000000000000000000000000000000000000000000000000000PES00010000001000000000000000020161013
201610130060000200000000000000008472000000000000000084728000000000020000000001Consumidor Final              000000000045000000000000000000000000000000000000000000000000000000000000000000000000000000000000000000000000000000000000PES00010000001000000000000000020161013
201610130060000200000000000000008473000000000000000084738000000000020000000001Consumidor Final              000000000089000000000000000000000000000000000000000000000000000000000000000000000000000000000000000000000000000000000000PES00010000001000000000000000020161013
201610130060000200000000000000008474000000000000000084748000000000020000000001Consumidor Final              000000000023500000000000000000000000000000000000000000000000000000000000000000000000000000000000000000000000000000000000PES00010000001000000000000000020161013
201610130060000200000000000000008475000000000000000084758000000000020000000001Consumidor Final              000000000120000000000000000000000000000000000000000000000000000000000000000000000000000000000000000000000000000000000000PES00010000001000000000000000020161013
201610130060000200000000000000008476000000000000000084768000000000020000000001Consumidor Final              000000000040000000000000000000000000000000000000000000000000000000000000000000000000000000000000000000000000000000000000PES00010000001000000000000000020161013
201610130060000200000000000000008477000000000000000084778000000000020000000001Consumidor Final              000000000052000000000000000000000000000000000000000000000000000000000000000000000000000000000000000000000000000000000000PES00010000001000000000000000020161013
201610130060000200000000000000008478000000000000000084788000000000020000000001Consumidor Final              000000000040000000000000000000000000000000000000000000000000000000000000000000000000000000000000000000000000000000000000PES00010000001000000000000000020161013
201610130060000200000000000000008479000000000000000084798000000000020000000001Consumidor Final              000000000079000000000000000000000000000000000000000000000000000000000000000000000000000000000000000000000000000000000000PES00010000001000000000000000020161013
201610130060000200000000000000008480000000000000000084808000000000020000000001Consumidor Final              000000000080000000000000000000000000000000000000000000000000000000000000000000000000000000000000000000000000000000000000PES00010000001000000000000000020161013
201610130060000200000000000000008481000000000000000084818000000000020000000001Consumidor Final              000000000079000000000000000000000000000000000000000000000000000000000000000000000000000000000000000000000000000000000000PES00010000001000000000000000020161013
201610130060000200000000000000008482000000000000000084828000000000020000000001Consumidor Final              000000000061000000000000000000000000000000000000000000000000000000000000000000000000000000000000000000000000000000000000PES00010000001000000000000000020161013
201610130060000200000000000000008483000000000000000084838000000000020000000001Consumidor Final              000000000033000000000000000000000000000000000000000000000000000000000000000000000000000000000000000000000000000000000000PES00010000001000000000000000020161013
201610130060000200000000000000008484000000000000000084848000000000020000000001Consumidor Final              000000000074000000000000000000000000000000000000000000000000000000000000000000000000000000000000000000000000000000000000PES00010000001000000000000000020161013
201610130060000200000000000000008485000000000000000084858000000000020000000001Consumidor Final              000000000164000000000000000000000000000000000000000000000000000000000000000000000000000000000000000000000000000000000000PES00010000001000000000000000020161013
201610130060000200000000000000008486000000000000000084868000000000020000000001Consumidor Final              000000000153000000000000000000000000000000000000000000000000000000000000000000000000000000000000000000000000000000000000PES00010000001000000000000000020161013
201610130060000200000000000000008487000000000000000084878000000000020000000001Consumidor Final              000000000125000000000000000000000000000000000000000000000000000000000000000000000000000000000000000000000000000000000000PES00010000001000000000000000020161013
201610130010000200000000000000000064000000000000000000648000000000027350441153Mitri,Gabriela Alejandra      000000000044000000000000000000000000000000000000000000000000000000000000000000000000000000000000000000000000000000000000PES00010000001000000000000000020161013
201610140060000200000000000000008488000000000000000084888000000000020000000001Consumidor Final              000000000035000000000000000000000000000000000000000000000000000000000000000000000000000000000000000000000000000000000000PES00010000001000000000000000020161014
201610140060000200000000000000008489000000000000000084898000000000020000000001Consumidor Final              000000000030000000000000000000000000000000000000000000000000000000000000000000000000000000000000000000000000000000000000PES00010000001000000000000000020161014
201610140060000200000000000000008490000000000000000084908000000000020000000001Consumidor Final              000000000294000000000000000000000000000000000000000000000000000000000000000000000000000000000000000000000000000000000000PES00010000001000000000000000020161014
201610140060000200000000000000008491000000000000000084918000000000020000000001Consumidor Final              000000000015000000000000000000000000000000000000000000000000000000000000000000000000000000000000000000000000000000000000PES00010000001000000000000000020161014
201610140060000200000000000000008492000000000000000084928000000000020000000001Consumidor Final              000000000105000000000000000000000000000000000000000000000000000000000000000000000000000000000000000000000000000000000000PES00010000001000000000000000020161014
201610140060000200000000000000008493000000000000000084938000000000020000000001Consumidor Final              000000000048000000000000000000000000000000000000000000000000000000000000000000000000000000000000000000000000000000000000PES00010000001000000000000000020161014
201610140060000200000000000000008494000000000000000084948000000000020000000001Consumidor Final              000000000052500000000000000000000000000000000000000000000000000000000000000000000000000000000000000000000000000000000000PES00010000001000000000000000020161014
201610140060000200000000000000008495000000000000000084958000000000020000000001Consumidor Final              000000000250000000000000000000000000000000000000000000000000000000000000000000000000000000000000000000000000000000000000PES00010000001000000000000000020161014
201610140060000200000000000000008496000000000000000084968000000000020000000001Consumidor Final              000000000075000000000000000000000000000000000000000000000000000000000000000000000000000000000000000000000000000000000000PES00010000001000000000000000020161014
201610140060000200000000000000008497000000000000000084978000000000020000000001Consumidor Final              000000000045000000000000000000000000000000000000000000000000000000000000000000000000000000000000000000000000000000000000PES00010000001000000000000000020161014
201610140060000200000000000000008498000000000000000084988000000000020000000001Consumidor Final              000000000085000000000000000000000000000000000000000000000000000000000000000000000000000000000000000000000000000000000000PES00010000001000000000000000020161014
201610140060000200000000000000008499000000000000000084998000000000020000000001Consumidor Final              000000000117500000000000000000000000000000000000000000000000000000000000000000000000000000000000000000000000000000000000PES00010000001000000000000000020161014
201610140060000200000000000000008500000000000000000085008000000000020000000001Consumidor Final              000000000048000000000000000000000000000000000000000000000000000000000000000000000000000000000000000000000000000000000000PES00010000001000000000000000020161014
201610140060000200000000000000008501000000000000000085018000000000020000000001Consumidor Final              000000000180000000000000000000000000000000000000000000000000000000000000000000000000000000000000000000000000000000000000PES00010000001000000000000000020161014
201610140060000200000000000000008502000000000000000085028000000000020000000001Consumidor Final              000000000048000000000000000000000000000000000000000000000000000000000000000000000000000000000000000000000000000000000000PES00010000001000000000000000020161014
201610140060000200000000000000008503000000000000000085038000000000020000000001Consumidor Final              000000000135000000000000000000000000000000000000000000000000000000000000000000000000000000000000000000000000000000000000PES00010000001000000000000000020161014
201610140060000200000000000000008504000000000000000085048000000000020000000001Consumidor Final              000000000045000000000000000000000000000000000000000000000000000000000000000000000000000000000000000000000000000000000000PES00010000001000000000000000020161014
201610140060000200000000000000008505000000000000000085058000000000020000000001Consumidor Final              000000000055000000000000000000000000000000000000000000000000000000000000000000000000000000000000000000000000000000000000PES00010000001000000000000000020161014
201610140060000200000000000000008506000000000000000085068000000000020000000001Consumidor Final              000000000025000000000000000000000000000000000000000000000000000000000000000000000000000000000000000000000000000000000000PES00010000001000000000000000020161014
201610140060000200000000000000008507000000000000000085078000000000020000000001Consumidor Final              000000000145000000000000000000000000000000000000000000000000000000000000000000000000000000000000000000000000000000000000PES00010000001000000000000000020161014
201610140060000200000000000000008508000000000000000085088000000000020000000001Consumidor Final              000000000133000000000000000000000000000000000000000000000000000000000000000000000000000000000000000000000000000000000000PES00010000001000000000000000020161014
201610150060000200000000000000008509000000000000000085098000000000020000000001Consumidor Final              000000000025000000000000000000000000000000000000000000000000000000000000000000000000000000000000000000000000000000000000PES00010000001000000000000000020161015
201610150060000200000000000000008510000000000000000085108000000000020000000001Consumidor Final              000000000125000000000000000000000000000000000000000000000000000000000000000000000000000000000000000000000000000000000000PES00010000001000000000000000020161015
201610150060000200000000000000008511000000000000000085118000000000020000000001Consumidor Final              000000000095000000000000000000000000000000000000000000000000000000000000000000000000000000000000000000000000000000000000PES00010000001000000000000000020161015
201610150060000200000000000000008512000000000000000085128000000000020000000001Consumidor Final              000000000095000000000000000000000000000000000000000000000000000000000000000000000000000000000000000000000000000000000000PES00010000001000000000000000020161015
201610150060000200000000000000008513000000000000000085138000000000020000000001Consumidor Final              000000000050000000000000000000000000000000000000000000000000000000000000000000000000000000000000000000000000000000000000PES00010000001000000000000000020161015
201610150060000200000000000000008514000000000000000085148000000000020000000001Consumidor Final              000000000045000000000000000000000000000000000000000000000000000000000000000000000000000000000000000000000000000000000000PES00010000001000000000000000020161015
201610150060000200000000000000008515000000000000000085158000000000020000000001Consumidor Final              000000000048000000000000000000000000000000000000000000000000000000000000000000000000000000000000000000000000000000000000PES00010000001000000000000000020161015
201610150060000200000000000000008516000000000000000085168000000000020000000001Consumidor Final              000000000048000000000000000000000000000000000000000000000000000000000000000000000000000000000000000000000000000000000000PES00010000001000000000000000020161015
201610150060000200000000000000008517000000000000000085178000000000020000000001Consumidor Final              000000000177500000000000000000000000000000000000000000000000000000000000000000000000000000000000000000000000000000000000PES00010000001000000000000000020161015
201610150060000200000000000000008518000000000000000085188000000000020000000001Consumidor Final              000000000045000000000000000000000000000000000000000000000000000000000000000000000000000000000000000000000000000000000000PES00010000001000000000000000020161015
201610150060000200000000000000008519000000000000000085198000000000020000000001Consumidor Final              000000000169000000000000000000000000000000000000000000000000000000000000000000000000000000000000000000000000000000000000PES00010000001000000000000000020161015
201610170060000200000000000000008520000000000000000085208000000000020000000001Consumidor Final              000000000045000000000000000000000000000000000000000000000000000000000000000000000000000000000000000000000000000000000000PES00010000001000000000000000020161017
201610170060000200000000000000008521000000000000000085218000000000020000000001Consumidor Final              000000000040000000000000000000000000000000000000000000000000000000000000000000000000000000000000000000000000000000000000PES00010000001000000000000000020161017
201610170060000200000000000000008522000000000000000085228000000000020000000001Consumidor Final              000000000030000000000000000000000000000000000000000000000000000000000000000000000000000000000000000000000000000000000000PES00010000001000000000000000020161017
201610170060000200000000000000008523000000000000000085238000000000020000000001Consumidor Final              000000000045000000000000000000000000000000000000000000000000000000000000000000000000000000000000000000000000000000000000PES00010000001000000000000000020161017
201610170060000200000000000000008524000000000000000085248000000000020000000001Consumidor Final              000000000050000000000000000000000000000000000000000000000000000000000000000000000000000000000000000000000000000000000000PES00010000001000000000000000020161017
201610170060000200000000000000008525000000000000000085258000000000020000000001Consumidor Final              000000000095000000000000000000000000000000000000000000000000000000000000000000000000000000000000000000000000000000000000PES00010000001000000000000000020161017
201610170060000200000000000000008526000000000000000085268000000000020000000001Consumidor Final              000000000047500000000000000000000000000000000000000000000000000000000000000000000000000000000000000000000000000000000000PES00010000001000000000000000020161017
201610170060000200000000000000008527000000000000000085278000000000020000000001Consumidor Final              000000000225000000000000000000000000000000000000000000000000000000000000000000000000000000000000000000000000000000000000PES00010000001000000000000000020161017
201610170060000200000000000000008528000000000000000085288000000000020000000001Consumidor Final              000000000062500000000000000000000000000000000000000000000000000000000000000000000000000000000000000000000000000000000000PES00010000001000000000000000020161017
201610170060000200000000000000008529000000000000000085298000000000020000000001Consumidor Final              000000000040000000000000000000000000000000000000000000000000000000000000000000000000000000000000000000000000000000000000PES00010000001000000000000000020161017
201610170060000200000000000000008530000000000000000085308000000000020000000001Consumidor Final              000000000037000000000000000000000000000000000000000000000000000000000000000000000000000000000000000000000000000000000000PES00010000001000000000000000020161017
201610170060000200000000000000008531000000000000000085318000000000020000000001Consumidor Final              000000000120000000000000000000000000000000000000000000000000000000000000000000000000000000000000000000000000000000000000PES00010000001000000000000000020161017
201610170060000200000000000000008532000000000000000085328000000000020000000001Consumidor Final              000000000177500000000000000000000000000000000000000000000000000000000000000000000000000000000000000000000000000000000000PES00010000001000000000000000020161017
201610170060000200000000000000008533000000000000000085338000000000020000000001Consumidor Final              000000000080000000000000000000000000000000000000000000000000000000000000000000000000000000000000000000000000000000000000PES00010000001000000000000000020161017
201610170060000200000000000000008534000000000000000085348000000000020000000001Consumidor Final              000000000025000000000000000000000000000000000000000000000000000000000000000000000000000000000000000000000000000000000000PES00010000001000000000000000020161017
201610170060000200000000000000008535000000000000000085358000000000020000000001Consumidor Final              000000000085000000000000000000000000000000000000000000000000000000000000000000000000000000000000000000000000000000000000PES00010000001000000000000000020161017
201610170060000200000000000000008536000000000000000085368000000000020000000001Consumidor Final              000000000070000000000000000000000000000000000000000000000000000000000000000000000000000000000000000000000000000000000000PES00010000001000000000000000020161017
201610170060000200000000000000008537000000000000000085378000000000020000000001Consumidor Final              000000000035000000000000000000000000000000000000000000000000000000000000000000000000000000000000000000000000000000000000PES00010000001000000000000000020161017
201610170060000200000000000000008538000000000000000085388000000000020000000001Consumidor Final              000000000069000000000000000000000000000000000000000000000000000000000000000000000000000000000000000000000000000000000000PES00010000001000000000000000020161017
201610170060000200000000000000008539000000000000000085398000000000020000000001Consumidor Final              000000000045000000000000000000000000000000000000000000000000000000000000000000000000000000000000000000000000000000000000PES00010000001000000000000000020161017
201610170060000200000000000000008540000000000000000085408000000000020000000001Consumidor Final              000000000050000000000000000000000000000000000000000000000000000000000000000000000000000000000000000000000000000000000000PES00010000001000000000000000020161017
201610170060000200000000000000008541000000000000000085418000000000020000000001Consumidor Final              000000000040000000000000000000000000000000000000000000000000000000000000000000000000000000000000000000000000000000000000PES00010000001000000000000000020161017
201610170060000200000000000000008542000000000000000085428000000000020000000001Consumidor Final              000000000140000000000000000000000000000000000000000000000000000000000000000000000000000000000000000000000000000000000000PES00010000001000000000000000020161017
201610170060000200000000000000008543000000000000000085438000000000020000000001Consumidor Final              000000000040000000000000000000000000000000000000000000000000000000000000000000000000000000000000000000000000000000000000PES00010000001000000000000000020161017
201610170060000200000000000000008544000000000000000085448000000000020000000001Consumidor Final              000000000118000000000000000000000000000000000000000000000000000000000000000000000000000000000000000000000000000000000000PES00010000001000000000000000020161017
201610170060000200000000000000008545000000000000000085458000000000020000000001Consumidor Final              000000000045000000000000000000000000000000000000000000000000000000000000000000000000000000000000000000000000000000000000PES00010000001000000000000000020161017
201610170060000200000000000000008546000000000000000085468000000000020000000001Consumidor Final              000000000045000000000000000000000000000000000000000000000000000000000000000000000000000000000000000000000000000000000000PES00010000001000000000000000020161017
201610170060000200000000000000008547000000000000000085478000000000020000000001Consumidor Final              000000000048000000000000000000000000000000000000000000000000000000000000000000000000000000000000000000000000000000000000PES00010000001000000000000000020161017
201610170060000200000000000000008548000000000000000085488000000000020000000001Consumidor Final              000000000025000000000000000000000000000000000000000000000000000000000000000000000000000000000000000000000000000000000000PES00010000001000000000000000020161017
201610170060000200000000000000008549000000000000000085498000000000020000000001Consumidor Final              000000000060000000000000000000000000000000000000000000000000000000000000000000000000000000000000000000000000000000000000PES00010000001000000000000000020161017
201610170060000200000000000000008550000000000000000085508000000000020000000001Consumidor Final              000000000045000000000000000000000000000000000000000000000000000000000000000000000000000000000000000000000000000000000000PES00010000001000000000000000020161017
201610170060000200000000000000008551000000000000000085518000000000020000000001Consumidor Final              000000000055000000000000000000000000000000000000000000000000000000000000000000000000000000000000000000000000000000000000PES00010000001000000000000000020161017
201610170060000200000000000000008552000000000000000085528000000000020000000001Consumidor Final              000000000172500000000000000000000000000000000000000000000000000000000000000000000000000000000000000000000000000000000000PES00010000001000000000000000020161017
201610170060000200000000000000008553000000000000000085538000000000020000000001Consumidor Final              000000000172500000000000000000000000000000000000000000000000000000000000000000000000000000000000000000000000000000000000PES00010000001000000000000000020161017
201610170060000200000000000000008554000000000000000085548000000000020000000001Consumidor Final              000000000029000000000000000000000000000000000000000000000000000000000000000000000000000000000000000000000000000000000000PES00010000001000000000000000020161017
201610170060000200000000000000008555000000000000000085558000000000020000000001Consumidor Final              000000000030000000000000000000000000000000000000000000000000000000000000000000000000000000000000000000000000000000000000PES00010000001000000000000000020161017
201610180060000200000000000000008556000000000000000085568000000000020000000001Consumidor Final              000000000145000000000000000000000000000000000000000000000000000000000000000000000000000000000000000000000000000000000000PES00010000001000000000000000020161018
201610180060000200000000000000008557000000000000000085578000000000020000000001Consumidor Final              000000000105000000000000000000000000000000000000000000000000000000000000000000000000000000000000000000000000000000000000PES00010000001000000000000000020161018
201610180060000200000000000000008559000000000000000085598000000000020000000001Consumidor Final              000000000080000000000000000000000000000000000000000000000000000000000000000000000000000000000000000000000000000000000000PES00010000001000000000000000020161018
201610180060000200000000000000008560000000000000000085608000000000020000000001Consumidor Final              000000000170000000000000000000000000000000000000000000000000000000000000000000000000000000000000000000000000000000000000PES00010000001000000000000000020161018
201610180060000200000000000000008561000000000000000085618000000000020000000001Consumidor Final              000000000048000000000000000000000000000000000000000000000000000000000000000000000000000000000000000000000000000000000000PES00010000001000000000000000020161018
201610180060000200000000000000008562000000000000000085628000000000020000000001Consumidor Final              000000000037500000000000000000000000000000000000000000000000000000000000000000000000000000000000000000000000000000000000PES00010000001000000000000000020161018
201610180060000200000000000000008563000000000000000085638000000000020000000001Consumidor Final              000000000080000000000000000000000000000000000000000000000000000000000000000000000000000000000000000000000000000000000000PES00010000001000000000000000020161018
201610180060000200000000000000008564000000000000000085648000000000020000000001Consumidor Final              000000000155000000000000000000000000000000000000000000000000000000000000000000000000000000000000000000000000000000000000PES00010000001000000000000000020161018
201610180060000200000000000000008565000000000000000085658000000000020000000001Consumidor Final              000000000040000000000000000000000000000000000000000000000000000000000000000000000000000000000000000000000000000000000000PES00010000001000000000000000020161018
201610180060000200000000000000008566000000000000000085668000000000020000000001Consumidor Final              000000000040000000000000000000000000000000000000000000000000000000000000000000000000000000000000000000000000000000000000PES00010000001000000000000000020161018
201610180060000200000000000000008567000000000000000085678000000000020000000001Consumidor Final              000000000049000000000000000000000000000000000000000000000000000000000000000000000000000000000000000000000000000000000000PES00010000001000000000000000020161018
201610180060000200000000000000008568000000000000000085688000000000020000000001Consumidor Final              000000000055000000000000000000000000000000000000000000000000000000000000000000000000000000000000000000000000000000000000PES00010000001000000000000000020161018
201610180060000200000000000000008569000000000000000085698000000000020000000001Consumidor Final              000000000089000000000000000000000000000000000000000000000000000000000000000000000000000000000000000000000000000000000000PES00010000001000000000000000020161018
201610180060000200000000000000008570000000000000000085708000000000020000000001Consumidor Final              000000000045000000000000000000000000000000000000000000000000000000000000000000000000000000000000000000000000000000000000PES00010000001000000000000000020161018
201610180060000200000000000000008571000000000000000085718000000000020000000001Consumidor Final              000000000035000000000000000000000000000000000000000000000000000000000000000000000000000000000000000000000000000000000000PES00010000001000000000000000020161018
201610180060000200000000000000008572000000000000000085728000000000020000000001Consumidor Final              000000000045000000000000000000000000000000000000000000000000000000000000000000000000000000000000000000000000000000000000PES00010000001000000000000000020161018
201610180060000200000000000000008573000000000000000085738000000000020000000001Consumidor Final              000000000036000000000000000000000000000000000000000000000000000000000000000000000000000000000000000000000000000000000000PES00010000001000000000000000020161018
201610180060000200000000000000008574000000000000000085748000000000020000000001Consumidor Final              000000000039000000000000000000000000000000000000000000000000000000000000000000000000000000000000000000000000000000000000PES00010000001000000000000000020161018
201610180060000200000000000000008575000000000000000085758000000000020000000001Consumidor Final              000000000135000000000000000000000000000000000000000000000000000000000000000000000000000000000000000000000000000000000000PES00010000001000000000000000020161018
201610180060000200000000000000008576000000000000000085768000000000020000000001Consumidor Final              000000000069000000000000000000000000000000000000000000000000000000000000000000000000000000000000000000000000000000000000PES00010000001000000000000000020161018
201610180060000200000000000000008577000000000000000085778000000000020000000001Consumidor Final              000000000039000000000000000000000000000000000000000000000000000000000000000000000000000000000000000000000000000000000000PES00010000001000000000000000020161018
201610180060000200000000000000008578000000000000000085788000000000020000000001Consumidor Final              000000000039000000000000000000000000000000000000000000000000000000000000000000000000000000000000000000000000000000000000PES00010000001000000000000000020161018
201610180060000200000000000000008579000000000000000085798000000000020000000001Consumidor Final              000000000085000000000000000000000000000000000000000000000000000000000000000000000000000000000000000000000000000000000000PES00010000001000000000000000020161018
201610180060000200000000000000008580000000000000000085808000000000020000000001Consumidor Final              000000000048000000000000000000000000000000000000000000000000000000000000000000000000000000000000000000000000000000000000PES00010000001000000000000000020161018
201610180060000200000000000000008581000000000000000085818000000000020000000001Consumidor Final              000000000115000000000000000000000000000000000000000000000000000000000000000000000000000000000000000000000000000000000000PES00010000001000000000000000020161018
201610180060000200000000000000008582000000000000000085828000000000020000000001Consumidor Final              000000000084000000000000000000000000000000000000000000000000000000000000000000000000000000000000000000000000000000000000PES00010000001000000000000000020161018
201610180060000200000000000000008583000000000000000085838000000000020000000001Consumidor Final              000000000065000000000000000000000000000000000000000000000000000000000000000000000000000000000000000000000000000000000000PES00010000001000000000000000020161018
201610180060000200000000000000008584000000000000000085848000000000020000000001Consumidor Final              000000000018000000000000000000000000000000000000000000000000000000000000000000000000000000000000000000000000000000000000PES00010000001000000000000000020161018
201610190060000200000000000000008585000000000000000085858000000000020000000001Consumidor Final              000000000069000000000000000000000000000000000000000000000000000000000000000000000000000000000000000000000000000000000000PES00010000001000000000000000020161019
201610190060000200000000000000008586000000000000000085868000000000020000000001Consumidor Final              000000000150000000000000000000000000000000000000000000000000000000000000000000000000000000000000000000000000000000000000PES00010000001000000000000000020161019
201610190060000200000000000000008587000000000000000085878000000000020000000001Consumidor Final              000000000150000000000000000000000000000000000000000000000000000000000000000000000000000000000000000000000000000000000000PES00010000001000000000000000020161019
201610190060000200000000000000008588000000000000000085888000000000020000000001Consumidor Final              000000000040000000000000000000000000000000000000000000000000000000000000000000000000000000000000000000000000000000000000PES00010000001000000000000000020161019
201610190060000200000000000000008589000000000000000085898000000000020000000001Consumidor Final              000000000035000000000000000000000000000000000000000000000000000000000000000000000000000000000000000000000000000000000000PES00010000001000000000000000020161019
201610190060000200000000000000008590000000000000000085908000000000020000000001Consumidor Final              000000000045000000000000000000000000000000000000000000000000000000000000000000000000000000000000000000000000000000000000PES00010000001000000000000000020161019
201610190060000200000000000000008591000000000000000085918000000000020000000001Consumidor Final              000000000080000000000000000000000000000000000000000000000000000000000000000000000000000000000000000000000000000000000000PES00010000001000000000000000020161019
201610190060000200000000000000008592000000000000000085928000000000020000000001Consumidor Final              000000000080000000000000000000000000000000000000000000000000000000000000000000000000000000000000000000000000000000000000PES00010000001000000000000000020161019
201610190060000200000000000000008593000000000000000085938000000000020000000001Consumidor Final              000000000058000000000000000000000000000000000000000000000000000000000000000000000000000000000000000000000000000000000000PES00010000001000000000000000020161019
201610190060000200000000000000008594000000000000000085948000000000020000000001Consumidor Final              000000000050000000000000000000000000000000000000000000000000000000000000000000000000000000000000000000000000000000000000PES00010000001000000000000000020161019
201610190060000200000000000000008595000000000000000085958000000000020000000001Consumidor Final              000000000049000000000000000000000000000000000000000000000000000000000000000000000000000000000000000000000000000000000000PES00010000001000000000000000020161019
201610190060000200000000000000008596000000000000000085968000000000020000000001Consumidor Final              000000000035000000000000000000000000000000000000000000000000000000000000000000000000000000000000000000000000000000000000PES00010000001000000000000000020161019
201610190060000200000000000000008597000000000000000085978000000000020000000001Consumidor Final              000000000040000000000000000000000000000000000000000000000000000000000000000000000000000000000000000000000000000000000000PES00010000001000000000000000020161019
201610190060000200000000000000008598000000000000000085988000000000020000000001Consumidor Final              000000000097000000000000000000000000000000000000000000000000000000000000000000000000000000000000000000000000000000000000PES00010000001000000000000000020161019
201610190060000200000000000000008599000000000000000085998000000000020000000001Consumidor Final              000000000064000000000000000000000000000000000000000000000000000000000000000000000000000000000000000000000000000000000000PES00010000001000000000000000020161019
201610190060000200000000000000008600000000000000000086008000000000020000000001Consumidor Final              000000000078000000000000000000000000000000000000000000000000000000000000000000000000000000000000000000000000000000000000PES00010000001000000000000000020161019
201610190060000200000000000000008601000000000000000086018000000000020000000001Consumidor Final              000000000095000000000000000000000000000000000000000000000000000000000000000000000000000000000000000000000000000000000000PES00010000001000000000000000020161019
201610190060000200000000000000008602000000000000000086028000000000020000000001Consumidor Final              000000000065000000000000000000000000000000000000000000000000000000000000000000000000000000000000000000000000000000000000PES00010000001000000000000000020161019
201610190060000200000000000000008603000000000000000086038000000000020000000001Consumidor Final              000000000030000000000000000000000000000000000000000000000000000000000000000000000000000000000000000000000000000000000000PES00010000001000000000000000020161019
201610190060000200000000000000008604000000000000000086048000000000020000000001Consumidor Final              000000000177000000000000000000000000000000000000000000000000000000000000000000000000000000000000000000000000000000000000PES00010000001000000000000000020161019
201610190060000200000000000000008607000000000000000086078000000000020000000001Consumidor Final              000000000215000000000000000000000000000000000000000000000000000000000000000000000000000000000000000000000000000000000000PES00010000001000000000000000020161019
201610200060000200000000000000008608000000000000000086088000000000020000000001Consumidor Final              000000000025000000000000000000000000000000000000000000000000000000000000000000000000000000000000000000000000000000000000PES00010000001000000000000000020161020
201610200060000200000000000000008609000000000000000086098000000000020000000001Consumidor Final              000000000010000000000000000000000000000000000000000000000000000000000000000000000000000000000000000000000000000000000000PES00010000001000000000000000020161020
201610200060000200000000000000008610000000000000000086108000000000020000000001Consumidor Final              000000000160000000000000000000000000000000000000000000000000000000000000000000000000000000000000000000000000000000000000PES00010000001000000000000000020161020
201610200060000200000000000000008611000000000000000086118000000000020000000001Consumidor Final              000000000200000000000000000000000000000000000000000000000000000000000000000000000000000000000000000000000000000000000000PES00010000001000000000000000020161020
201610200060000200000000000000008612000000000000000086128000000000020000000001Consumidor Final              000000000035000000000000000000000000000000000000000000000000000000000000000000000000000000000000000000000000000000000000PES00010000001000000000000000020161020
201610200060000200000000000000008613000000000000000086138000000000020000000001Consumidor Final              000000000125000000000000000000000000000000000000000000000000000000000000000000000000000000000000000000000000000000000000PES00010000001000000000000000020161020
201610200060000200000000000000008614000000000000000086148000000000020000000001Consumidor Final              000000000045000000000000000000000000000000000000000000000000000000000000000000000000000000000000000000000000000000000000PES00010000001000000000000000020161020
201610200060000200000000000000008615000000000000000086158000000000020000000001Consumidor Final              000000000099000000000000000000000000000000000000000000000000000000000000000000000000000000000000000000000000000000000000PES00010000001000000000000000020161020
201610200060000200000000000000008616000000000000000086168000000000020000000001Consumidor Final              000000000085000000000000000000000000000000000000000000000000000000000000000000000000000000000000000000000000000000000000PES00010000001000000000000000020161020
201610200060000200000000000000008617000000000000000086178000000000020000000001Consumidor Final              000000000320000000000000000000000000000000000000000000000000000000000000000000000000000000000000000000000000000000000000PES00010000001000000000000000020161020
201610200060000200000000000000008618000000000000000086188000000000020000000001Consumidor Final              000000000050000000000000000000000000000000000000000000000000000000000000000000000000000000000000000000000000000000000000PES00010000001000000000000000020161020
201610200060000200000000000000008619000000000000000086198000000000020000000001Consumidor Final              000000000107500000000000000000000000000000000000000000000000000000000000000000000000000000000000000000000000000000000000PES00010000001000000000000000020161020
201610200060000200000000000000008620000000000000000086208000000000020000000001Consumidor Final              000000000155000000000000000000000000000000000000000000000000000000000000000000000000000000000000000000000000000000000000PES00010000001000000000000000020161020
